{
	"controller/processing/ProcessingController.sol": {
		"ProcessingController": {
			"abi": [
				{
					"inputs": [
						{
							"internalType": "address",
							"name": "warehouseDatabaseContractAddress",
							"type": "address"
						},
						{
							"internalType": "address",
							"name": "ingressDatabaseContractAddress",
							"type": "address"
						}
					],
					"stateMutability": "nonpayable",
					"type": "constructor"
				},
				{
					"anonymous": false,
					"inputs": [
						{
							"indexed": true,
							"internalType": "address",
							"name": "previousOwner",
							"type": "address"
						},
						{
							"indexed": true,
							"internalType": "address",
							"name": "newOwner",
							"type": "address"
						}
					],
					"name": "OwnershipTransferred",
					"type": "event"
				},
				{
					"inputs": [
						{
							"internalType": "string",
							"name": "userName",
							"type": "string"
						},
						{
							"internalType": "string",
							"name": "farmerName",
							"type": "string"
						},
						{
							"internalType": "uint256",
							"name": "ingressDate",
							"type": "uint256"
						},
						{
							"internalType": "string",
							"name": "ingressAddress",
							"type": "string"
						}
					],
					"name": "addIngress",
					"outputs": [],
					"stateMutability": "nonpayable",
					"type": "function"
				},
				{
					"inputs": [
						{
							"internalType": "string",
							"name": "warehouseAddress",
							"type": "string"
						}
					],
					"name": "addWarehouse",
					"outputs": [],
					"stateMutability": "nonpayable",
					"type": "function"
				},
				{
					"inputs": [],
					"name": "destroy",
					"outputs": [],
					"stateMutability": "nonpayable",
					"type": "function"
				},
				{
					"inputs": [],
					"name": "getAllIngress",
					"outputs": [
						{
							"components": [
								{
									"internalType": "uint256",
									"name": "batchId",
									"type": "uint256"
								},
								{
									"internalType": "string",
									"name": "userName",
									"type": "string"
								},
								{
									"internalType": "address",
									"name": "userAddress",
									"type": "address"
								},
								{
									"internalType": "string",
									"name": "farmerName",
									"type": "string"
								},
								{
									"internalType": "uint256",
									"name": "ingressDate",
									"type": "uint256"
								},
								{
									"internalType": "string",
									"name": "ingressAddress",
									"type": "string"
								},
								{
									"internalType": "bool",
									"name": "ingressIsChecked",
									"type": "bool"
								}
							],
							"internalType": "struct Ingress[]",
							"name": "",
							"type": "tuple[]"
						}
					],
					"stateMutability": "view",
					"type": "function"
				},
				{
					"inputs": [],
					"name": "getAllWarehouse",
					"outputs": [
						{
							"components": [
								{
									"internalType": "uint256",
									"name": "warehouseId",
									"type": "uint256"
								},
								{
									"internalType": "string",
									"name": "warehoustAddress",
									"type": "string"
								},
								{
									"internalType": "bool",
									"name": "warehouseIsChecked",
									"type": "bool"
								}
							],
							"internalType": "struct Warehouse[]",
							"name": "",
							"type": "tuple[]"
						}
					],
					"stateMutability": "view",
					"type": "function"
				},
				{
					"inputs": [],
					"name": "ingressDatabase",
					"outputs": [
						{
							"internalType": "contract IngressDatabase",
							"name": "",
							"type": "address"
						}
					],
					"stateMutability": "view",
					"type": "function"
				},
				{
					"inputs": [],
					"name": "owner",
					"outputs": [
						{
							"internalType": "address",
							"name": "",
							"type": "address"
						}
					],
					"stateMutability": "view",
					"type": "function"
				},
				{
					"inputs": [
						{
							"internalType": "address",
							"name": "newOwner",
							"type": "address"
						}
					],
					"name": "transferOwnership",
					"outputs": [],
					"stateMutability": "nonpayable",
					"type": "function"
				},
				{
					"inputs": [],
					"name": "warehouseDatabase",
					"outputs": [
						{
							"internalType": "contract WarehouseDatabase",
							"name": "",
							"type": "address"
						}
					],
					"stateMutability": "view",
					"type": "function"
				}
			],
			"devdoc": {
				"kind": "dev",
				"methods": {
					"owner()": {
						"details": "Returns the address of the current owner."
					},
					"transferOwnership(address)": {
						"details": "Transfers ownership of the contract to a new account (`newOwner`). Can only be called by the current owner."
					}
				},
				"version": 1
			},
			"evm": {
				"assembly": "    /* \"controller/processing/ProcessingController.sol\":586:2233  contract ProcessingController is... */\n  mstore(0x40, 0x80)\n    /* \"controller/processing/ProcessingController.sol\":726:1112  constructor(... */\n  callvalue\n  dup1\n  iszero\n  tag_1\n  jumpi\n  0x00\n  dup1\n  revert\ntag_1:\n  pop\n  mload(0x40)\n  sub(codesize, bytecodeSize)\n  dup1\n  bytecodeSize\n  dup4\n  codecopy\n  dup2\n  dup2\n  add\n  0x40\n  mstore\n  dup2\n  add\n  swap1\n  tag_2\n  swap2\n  swap1\n  tag_3\n  jump\t// in\ntag_2:\n    /* \"controller/processing/ProcessingController.sol\":1011:1041  ingressDatabaseContractAddress */\n  dup1\n    /* \"controller/processing/ProcessingController.sol\":946:978  warehouseDatabaseContractAddress */\n  dup3\n    /* \"abstract/Ownable.sol\":1032:1042  msg.sender */\n  caller\n    /* \"abstract/Ownable.sol\":1023:1029  _owner */\n  0x00\n  dup1\n    /* \"abstract/Ownable.sol\":1023:1042  _owner = msg.sender */\n  0x0100\n  exp\n  dup2\n  sload\n  dup2\n  0xffffffffffffffffffffffffffffffffffffffff\n  mul\n  not\n  and\n  swap1\n  dup4\n  0xffffffffffffffffffffffffffffffffffffffff\n  and\n  mul\n  or\n  swap1\n  sstore\n  pop\n    /* \"cursor/processing/WarehouseDatabaseCursor.sol\":331:336  value */\n  dup1\n    /* \"cursor/processing/WarehouseDatabaseCursor.sol\":293:310  warehouseDatabase */\n  0x01\n  0x00\n    /* \"cursor/processing/WarehouseDatabaseCursor.sol\":293:337  warehouseDatabase = WarehouseDatabase(value) */\n  0x0100\n  exp\n  dup2\n  sload\n  dup2\n  0xffffffffffffffffffffffffffffffffffffffff\n  mul\n  not\n  and\n  swap1\n  dup4\n  0xffffffffffffffffffffffffffffffffffffffff\n  and\n  mul\n  or\n  swap1\n  sstore\n  pop\n    /* \"cursor/processing/WarehouseDatabaseCursor.sol\":255:345  constructor(address value) {... */\n  pop\n    /* \"cursor/processing/IngressDatabaseCursor.sol\":317:322  value */\n  dup1\n    /* \"cursor/processing/IngressDatabaseCursor.sol\":283:298  ingressDatabase */\n  0x02\n  0x00\n    /* \"cursor/processing/IngressDatabaseCursor.sol\":283:323  ingressDatabase = IngressDatabase(value) */\n  0x0100\n  exp\n  dup2\n  sload\n  dup2\n  0xffffffffffffffffffffffffffffffffffffffff\n  mul\n  not\n  and\n  swap1\n  dup4\n  0xffffffffffffffffffffffffffffffffffffffff\n  and\n  mul\n  or\n  swap1\n  sstore\n  pop\n    /* \"cursor/processing/IngressDatabaseCursor.sol\":245:331  constructor(address value) {... */\n  pop\n    /* \"controller/processing/ProcessingController.sol\":726:1112  constructor(... */\n  pop\n  pop\n    /* \"controller/processing/ProcessingController.sol\":586:2233  contract ProcessingController is... */\n  jump(tag_12)\n    /* \"#utility.yul\":88:205   */\ntag_14:\n    /* \"#utility.yul\":197:198   */\n  0x00\n    /* \"#utility.yul\":194:195   */\n  dup1\n    /* \"#utility.yul\":187:199   */\n  revert\n    /* \"#utility.yul\":334:460   */\ntag_16:\n    /* \"#utility.yul\":371:378   */\n  0x00\n    /* \"#utility.yul\":411:453   */\n  0xffffffffffffffffffffffffffffffffffffffff\n    /* \"#utility.yul\":404:409   */\n  dup3\n    /* \"#utility.yul\":400:454   */\n  and\n    /* \"#utility.yul\":389:454   */\n  swap1\n  pop\n    /* \"#utility.yul\":334:460   */\n  swap2\n  swap1\n  pop\n  jump\t// out\n    /* \"#utility.yul\":466:562   */\ntag_17:\n    /* \"#utility.yul\":503:510   */\n  0x00\n    /* \"#utility.yul\":532:556   */\n  tag_26\n    /* \"#utility.yul\":550:555   */\n  dup3\n    /* \"#utility.yul\":532:556   */\n  tag_16\n  jump\t// in\ntag_26:\n    /* \"#utility.yul\":521:556   */\n  swap1\n  pop\n    /* \"#utility.yul\":466:562   */\n  swap2\n  swap1\n  pop\n  jump\t// out\n    /* \"#utility.yul\":568:690   */\ntag_18:\n    /* \"#utility.yul\":641:665   */\n  tag_28\n    /* \"#utility.yul\":659:664   */\n  dup2\n    /* \"#utility.yul\":641:665   */\n  tag_17\n  jump\t// in\ntag_28:\n    /* \"#utility.yul\":634:639   */\n  dup2\n    /* \"#utility.yul\":631:666   */\n  eq\n    /* \"#utility.yul\":621:684   */\n  tag_29\n  jumpi\n    /* \"#utility.yul\":680:681   */\n  0x00\n    /* \"#utility.yul\":677:678   */\n  dup1\n    /* \"#utility.yul\":670:682   */\n  revert\n    /* \"#utility.yul\":621:684   */\ntag_29:\n    /* \"#utility.yul\":568:690   */\n  pop\n  jump\t// out\n    /* \"#utility.yul\":696:839   */\ntag_19:\n    /* \"#utility.yul\":753:758   */\n  0x00\n    /* \"#utility.yul\":784:790   */\n  dup2\n    /* \"#utility.yul\":778:791   */\n  mload\n    /* \"#utility.yul\":769:791   */\n  swap1\n  pop\n    /* \"#utility.yul\":800:833   */\n  tag_31\n    /* \"#utility.yul\":827:832   */\n  dup2\n    /* \"#utility.yul\":800:833   */\n  tag_18\n  jump\t// in\ntag_31:\n    /* \"#utility.yul\":696:839   */\n  swap3\n  swap2\n  pop\n  pop\n  jump\t// out\n    /* \"#utility.yul\":845:1352   */\ntag_3:\n    /* \"#utility.yul\":924:930   */\n  0x00\n    /* \"#utility.yul\":932:938   */\n  dup1\n    /* \"#utility.yul\":981:983   */\n  0x40\n    /* \"#utility.yul\":969:978   */\n  dup4\n    /* \"#utility.yul\":960:967   */\n  dup6\n    /* \"#utility.yul\":956:979   */\n  sub\n    /* \"#utility.yul\":952:984   */\n  slt\n    /* \"#utility.yul\":949:1068   */\n  iszero\n  tag_33\n  jumpi\n    /* \"#utility.yul\":987:1066   */\n  tag_34\n  tag_14\n  jump\t// in\ntag_34:\n    /* \"#utility.yul\":949:1068   */\ntag_33:\n    /* \"#utility.yul\":1107:1108   */\n  0x00\n    /* \"#utility.yul\":1132:1196   */\n  tag_35\n    /* \"#utility.yul\":1188:1195   */\n  dup6\n    /* \"#utility.yul\":1179:1185   */\n  dup3\n    /* \"#utility.yul\":1168:1177   */\n  dup7\n    /* \"#utility.yul\":1164:1186   */\n  add\n    /* \"#utility.yul\":1132:1196   */\n  tag_19\n  jump\t// in\ntag_35:\n    /* \"#utility.yul\":1122:1196   */\n  swap3\n  pop\n    /* \"#utility.yul\":1078:1206   */\n  pop\n    /* \"#utility.yul\":1245:1247   */\n  0x20\n    /* \"#utility.yul\":1271:1335   */\n  tag_36\n    /* \"#utility.yul\":1327:1334   */\n  dup6\n    /* \"#utility.yul\":1318:1324   */\n  dup3\n    /* \"#utility.yul\":1307:1316   */\n  dup7\n    /* \"#utility.yul\":1303:1325   */\n  add\n    /* \"#utility.yul\":1271:1335   */\n  tag_19\n  jump\t// in\ntag_36:\n    /* \"#utility.yul\":1261:1335   */\n  swap2\n  pop\n    /* \"#utility.yul\":1216:1345   */\n  pop\n    /* \"#utility.yul\":845:1352   */\n  swap3\n  pop\n  swap3\n  swap1\n  pop\n  jump\t// out\n    /* \"controller/processing/ProcessingController.sol\":586:2233  contract ProcessingController is... */\ntag_12:\n  dataSize(sub_0)\n  dup1\n  dataOffset(sub_0)\n  0x00\n  codecopy\n  0x00\n  return\nstop\n\nsub_0: assembly {\n        /* \"controller/processing/ProcessingController.sol\":586:2233  contract ProcessingController is... */\n      mstore(0x40, 0x80)\n      callvalue\n      dup1\n      iszero\n      tag_1\n      jumpi\n      0x00\n      dup1\n      revert\n    tag_1:\n      pop\n      jumpi(tag_2, lt(calldatasize, 0x04))\n      shr(0xe0, calldataload(0x00))\n      dup1\n      0x83197ef0\n      gt\n      tag_12\n      jumpi\n      dup1\n      0x83197ef0\n      eq\n      tag_7\n      jumpi\n      dup1\n      0x851e12a0\n      eq\n      tag_8\n      jumpi\n      dup1\n      0x8da5cb5b\n      eq\n      tag_9\n      jumpi\n      dup1\n      0xa855a589\n      eq\n      tag_10\n      jumpi\n      dup1\n      0xf2fde38b\n      eq\n      tag_11\n      jumpi\n      jump(tag_2)\n    tag_12:\n      dup1\n      0x388783a8\n      eq\n      tag_3\n      jumpi\n      dup1\n      0x3ff328cb\n      eq\n      tag_4\n      jumpi\n      dup1\n      0x460f6c7e\n      eq\n      tag_5\n      jumpi\n      dup1\n      0x69f205f2\n      eq\n      tag_6\n      jumpi\n    tag_2:\n      0x00\n      dup1\n      revert\n        /* \"controller/processing/ProcessingController.sol\":1460:1759  function addIngress(string memory userName, string memory farmerName, uint256 ingressDate, string memory ingressAddress) public {... */\n    tag_3:\n      tag_13\n      0x04\n      dup1\n      calldatasize\n      sub\n      dup2\n      add\n      swap1\n      tag_14\n      swap2\n      swap1\n      tag_15\n      jump\t// in\n    tag_14:\n      tag_16\n      jump\t// in\n    tag_13:\n      stop\n        /* \"cursor/processing/WarehouseDatabaseCursor.sol\":204:246  WarehouseDatabase public warehouseDatabase */\n    tag_4:\n      tag_17\n      tag_18\n      jump\t// in\n    tag_17:\n      mload(0x40)\n      tag_19\n      swap2\n      swap1\n      tag_20\n      jump\t// in\n    tag_19:\n      mload(0x40)\n      dup1\n      swap2\n      sub\n      swap1\n      return\n        /* \"controller/processing/ProcessingController.sol\":1120:1315  function addWarehouse(string memory warehouseAddress) public {... */\n    tag_5:\n      tag_21\n      0x04\n      dup1\n      calldatasize\n      sub\n      dup2\n      add\n      swap1\n      tag_22\n      swap2\n      swap1\n      tag_23\n      jump\t// in\n    tag_22:\n      tag_24\n      jump\t// in\n    tag_21:\n      stop\n        /* \"controller/processing/ProcessingController.sol\":1767:1888  function getAllIngress() public view returns (Ingress[] memory) {... */\n    tag_6:\n      tag_25\n      tag_26\n      jump\t// in\n    tag_25:\n      mload(0x40)\n      tag_27\n      swap2\n      swap1\n      tag_28\n      jump\t// in\n    tag_27:\n      mload(0x40)\n      dup1\n      swap2\n      sub\n      swap1\n      return\n        /* \"abstract/Ownable.sol\":2801:2892  function destroy() public onlyOwner {... */\n    tag_7:\n      tag_29\n      tag_30\n      jump\t// in\n    tag_29:\n      stop\n        /* \"cursor/processing/IngressDatabaseCursor.sol\":198:236  IngressDatabase public ingressDatabase */\n    tag_8:\n      tag_31\n      tag_32\n      jump\t// in\n    tag_31:\n      mload(0x40)\n      tag_33\n      swap2\n      swap1\n      tag_34\n      jump\t// in\n    tag_33:\n      mload(0x40)\n      dup1\n      swap2\n      sub\n      swap1\n      return\n        /* \"abstract/Ownable.sol\":1289:1376  function owner() public view virtual returns (address) {... */\n    tag_9:\n      tag_35\n      tag_36\n      jump\t// in\n    tag_35:\n      mload(0x40)\n      tag_37\n      swap2\n      swap1\n      tag_38\n      jump\t// in\n    tag_37:\n      mload(0x40)\n      dup1\n      swap2\n      sub\n      swap1\n      return\n        /* \"controller/processing/ProcessingController.sol\":1323:1452  function getAllWarehouse() public view returns (Warehouse[] memory) {... */\n    tag_10:\n      tag_39\n      tag_40\n      jump\t// in\n    tag_39:\n      mload(0x40)\n      tag_41\n      swap2\n      swap1\n      tag_42\n      jump\t// in\n    tag_41:\n      mload(0x40)\n      dup1\n      swap2\n      sub\n      swap1\n      return\n        /* \"abstract/Ownable.sol\":2204:2442  function transferOwnership(address newOwner) public virtual onlyOwner {... */\n    tag_11:\n      tag_43\n      0x04\n      dup1\n      calldatasize\n      sub\n      dup2\n      add\n      swap1\n      tag_44\n      swap2\n      swap1\n      tag_45\n      jump\t// in\n    tag_44:\n      tag_46\n      jump\t// in\n    tag_43:\n      stop\n        /* \"controller/processing/ProcessingController.sol\":1460:1759  function addIngress(string memory userName, string memory farmerName, uint256 ingressDate, string memory ingressAddress) public {... */\n    tag_16:\n        /* \"controller/processing/ProcessingController.sol\":1599:1618  Ingress memory item */\n      0x00\n        /* \"controller/processing/ProcessingController.sol\":1621:1701  Ingress(0,userName,_msgSender(), farmerName, ingressDate, ingressAddress, false) */\n      mload(0x40)\n      dup1\n      0xe0\n      add\n      0x40\n      mstore\n      dup1\n        /* \"controller/processing/ProcessingController.sol\":1629:1630  0 */\n      0x00\n        /* \"controller/processing/ProcessingController.sol\":1621:1701  Ingress(0,userName,_msgSender(), farmerName, ingressDate, ingressAddress, false) */\n      dup2\n      mstore\n      0x20\n      add\n        /* \"controller/processing/ProcessingController.sol\":1631:1639  userName */\n      dup7\n        /* \"controller/processing/ProcessingController.sol\":1621:1701  Ingress(0,userName,_msgSender(), farmerName, ingressDate, ingressAddress, false) */\n      dup2\n      mstore\n      0x20\n      add\n        /* \"controller/processing/ProcessingController.sol\":1640:1652  _msgSender() */\n      tag_48\n        /* \"controller/processing/ProcessingController.sol\":1640:1650  _msgSender */\n      tag_49\n        /* \"controller/processing/ProcessingController.sol\":1640:1652  _msgSender() */\n      jump\t// in\n    tag_48:\n        /* \"controller/processing/ProcessingController.sol\":1621:1701  Ingress(0,userName,_msgSender(), farmerName, ingressDate, ingressAddress, false) */\n      0xffffffffffffffffffffffffffffffffffffffff\n      and\n      dup2\n      mstore\n      0x20\n      add\n        /* \"controller/processing/ProcessingController.sol\":1654:1664  farmerName */\n      dup6\n        /* \"controller/processing/ProcessingController.sol\":1621:1701  Ingress(0,userName,_msgSender(), farmerName, ingressDate, ingressAddress, false) */\n      dup2\n      mstore\n      0x20\n      add\n        /* \"controller/processing/ProcessingController.sol\":1666:1677  ingressDate */\n      dup5\n        /* \"controller/processing/ProcessingController.sol\":1621:1701  Ingress(0,userName,_msgSender(), farmerName, ingressDate, ingressAddress, false) */\n      dup2\n      mstore\n      0x20\n      add\n        /* \"controller/processing/ProcessingController.sol\":1679:1693  ingressAddress */\n      dup4\n        /* \"controller/processing/ProcessingController.sol\":1621:1701  Ingress(0,userName,_msgSender(), farmerName, ingressDate, ingressAddress, false) */\n      dup2\n      mstore\n      0x20\n      add\n        /* \"controller/processing/ProcessingController.sol\":1695:1700  false */\n      0x00\n        /* \"controller/processing/ProcessingController.sol\":1621:1701  Ingress(0,userName,_msgSender(), farmerName, ingressDate, ingressAddress, false) */\n      iszero\n      iszero\n      dup2\n      mstore\n      pop\n        /* \"controller/processing/ProcessingController.sol\":1599:1701  Ingress memory item = Ingress(0,userName,_msgSender(), farmerName, ingressDate, ingressAddress, false) */\n      swap1\n      pop\n        /* \"controller/processing/ProcessingController.sol\":1719:1734  ingressDatabase */\n      0x02\n      0x00\n      swap1\n      sload\n      swap1\n      0x0100\n      exp\n      swap1\n      div\n      0xffffffffffffffffffffffffffffffffffffffff\n      and\n        /* \"controller/processing/ProcessingController.sol\":1719:1745  ingressDatabase.addIngress */\n      0xffffffffffffffffffffffffffffffffffffffff\n      and\n      0x21100a56\n        /* \"controller/processing/ProcessingController.sol\":1746:1750  item */\n      dup3\n        /* \"controller/processing/ProcessingController.sol\":1719:1751  ingressDatabase.addIngress(item) */\n      mload(0x40)\n      dup3\n      0xffffffff\n      and\n      0xe0\n      shl\n      dup2\n      mstore\n      0x04\n      add\n      tag_50\n      swap2\n      swap1\n      tag_51\n      jump\t// in\n    tag_50:\n      0x00\n      mload(0x40)\n      dup1\n      dup4\n      sub\n      dup2\n      0x00\n      dup8\n      dup1\n      extcodesize\n      iszero\n      dup1\n      iszero\n      tag_52\n      jumpi\n      0x00\n      dup1\n      revert\n    tag_52:\n      pop\n      gas\n      call\n      iszero\n      dup1\n      iszero\n      tag_54\n      jumpi\n      returndatasize\n      0x00\n      dup1\n      returndatacopy\n      revert(0x00, returndatasize)\n    tag_54:\n      pop\n      pop\n      pop\n      pop\n        /* \"controller/processing/ProcessingController.sol\":1712:1751  return ingressDatabase.addIngress(item) */\n      pop\n        /* \"controller/processing/ProcessingController.sol\":1460:1759  function addIngress(string memory userName, string memory farmerName, uint256 ingressDate, string memory ingressAddress) public {... */\n      pop\n      pop\n      pop\n      pop\n      jump\t// out\n        /* \"cursor/processing/WarehouseDatabaseCursor.sol\":204:246  WarehouseDatabase public warehouseDatabase */\n    tag_18:\n      0x01\n      0x00\n      swap1\n      sload\n      swap1\n      0x0100\n      exp\n      swap1\n      div\n      0xffffffffffffffffffffffffffffffffffffffff\n      and\n      dup2\n      jump\t// out\n        /* \"controller/processing/ProcessingController.sol\":1120:1315  function addWarehouse(string memory warehouseAddress) public {... */\n    tag_24:\n        /* \"controller/processing/ProcessingController.sol\":1192:1213  Warehouse memory item */\n      0x00\n        /* \"controller/processing/ProcessingController.sol\":1216:1253  Warehouse(0, warehouseAddress, false) */\n      mload(0x40)\n      dup1\n      0x60\n      add\n      0x40\n      mstore\n      dup1\n        /* \"controller/processing/ProcessingController.sol\":1226:1227  0 */\n      0x00\n        /* \"controller/processing/ProcessingController.sol\":1216:1253  Warehouse(0, warehouseAddress, false) */\n      dup2\n      mstore\n      0x20\n      add\n        /* \"controller/processing/ProcessingController.sol\":1229:1245  warehouseAddress */\n      dup4\n        /* \"controller/processing/ProcessingController.sol\":1216:1253  Warehouse(0, warehouseAddress, false) */\n      dup2\n      mstore\n      0x20\n      add\n        /* \"controller/processing/ProcessingController.sol\":1247:1252  false */\n      0x00\n        /* \"controller/processing/ProcessingController.sol\":1216:1253  Warehouse(0, warehouseAddress, false) */\n      iszero\n      iszero\n      dup2\n      mstore\n      pop\n        /* \"controller/processing/ProcessingController.sol\":1192:1253  Warehouse memory item = Warehouse(0, warehouseAddress, false) */\n      swap1\n      pop\n        /* \"controller/processing/ProcessingController.sol\":1271:1288  warehouseDatabase */\n      0x01\n      0x00\n      swap1\n      sload\n      swap1\n      0x0100\n      exp\n      swap1\n      div\n      0xffffffffffffffffffffffffffffffffffffffff\n      and\n        /* \"controller/processing/ProcessingController.sol\":1271:1301  warehouseDatabase.addWarehouse */\n      0xffffffffffffffffffffffffffffffffffffffff\n      and\n      0x17f3b9a0\n        /* \"controller/processing/ProcessingController.sol\":1302:1306  item */\n      dup3\n        /* \"controller/processing/ProcessingController.sol\":1271:1307  warehouseDatabase.addWarehouse(item) */\n      mload(0x40)\n      dup3\n      0xffffffff\n      and\n      0xe0\n      shl\n      dup2\n      mstore\n      0x04\n      add\n      tag_56\n      swap2\n      swap1\n      tag_57\n      jump\t// in\n    tag_56:\n      0x00\n      mload(0x40)\n      dup1\n      dup4\n      sub\n      dup2\n      0x00\n      dup8\n      dup1\n      extcodesize\n      iszero\n      dup1\n      iszero\n      tag_58\n      jumpi\n      0x00\n      dup1\n      revert\n    tag_58:\n      pop\n      gas\n      call\n      iszero\n      dup1\n      iszero\n      tag_60\n      jumpi\n      returndatasize\n      0x00\n      dup1\n      returndatacopy\n      revert(0x00, returndatasize)\n    tag_60:\n      pop\n      pop\n      pop\n      pop\n        /* \"controller/processing/ProcessingController.sol\":1264:1307  return warehouseDatabase.addWarehouse(item) */\n      pop\n        /* \"controller/processing/ProcessingController.sol\":1120:1315  function addWarehouse(string memory warehouseAddress) public {... */\n      pop\n      jump\t// out\n        /* \"controller/processing/ProcessingController.sol\":1767:1888  function getAllIngress() public view returns (Ingress[] memory) {... */\n    tag_26:\n        /* \"controller/processing/ProcessingController.sol\":1813:1829  Ingress[] memory */\n      0x60\n        /* \"controller/processing/ProcessingController.sol\":1849:1864  ingressDatabase */\n      0x02\n      0x00\n      swap1\n      sload\n      swap1\n      0x0100\n      exp\n      swap1\n      div\n      0xffffffffffffffffffffffffffffffffffffffff\n      and\n        /* \"controller/processing/ProcessingController.sol\":1849:1878  ingressDatabase.getAllIngress */\n      0xffffffffffffffffffffffffffffffffffffffff\n      and\n      0x69f205f2\n        /* \"controller/processing/ProcessingController.sol\":1849:1880  ingressDatabase.getAllIngress() */\n      mload(0x40)\n      dup2\n      0xffffffff\n      and\n      0xe0\n      shl\n      dup2\n      mstore\n      0x04\n      add\n      0x00\n      mload(0x40)\n      dup1\n      dup4\n      sub\n      dup2\n      dup7\n      gas\n      staticcall\n      iszero\n      dup1\n      iszero\n      tag_63\n      jumpi\n      returndatasize\n      0x00\n      dup1\n      returndatacopy\n      revert(0x00, returndatasize)\n    tag_63:\n      pop\n      pop\n      pop\n      pop\n      mload(0x40)\n      returndatasize\n      0x00\n      dup3\n      returndatacopy\n      returndatasize\n      not(0x1f)\n      0x1f\n      dup3\n      add\n      and\n      dup3\n      add\n      dup1\n      0x40\n      mstore\n      pop\n      dup2\n      add\n      swap1\n      tag_64\n      swap2\n      swap1\n      tag_65\n      jump\t// in\n    tag_64:\n        /* \"controller/processing/ProcessingController.sol\":1842:1880  return ingressDatabase.getAllIngress() */\n      swap1\n      pop\n        /* \"controller/processing/ProcessingController.sol\":1767:1888  function getAllIngress() public view returns (Ingress[] memory) {... */\n      swap1\n      jump\t// out\n        /* \"abstract/Ownable.sol\":2801:2892  function destroy() public onlyOwner {... */\n    tag_30:\n        /* \"abstract/Ownable.sol\":1175:1188  _checkOwner() */\n      tag_67\n        /* \"abstract/Ownable.sol\":1175:1186  _checkOwner */\n      tag_68\n        /* \"abstract/Ownable.sol\":1175:1188  _checkOwner() */\n      jump\t// in\n    tag_67:\n        /* \"abstract/Ownable.sol\":2877:2881  this */\n      address\n        /* \"abstract/Ownable.sol\":2848:2884  selfdestruct(payable(address(this))) */\n      0xffffffffffffffffffffffffffffffffffffffff\n      and\n      selfdestruct\n        /* \"cursor/processing/IngressDatabaseCursor.sol\":198:236  IngressDatabase public ingressDatabase */\n    tag_32:\n      0x02\n      0x00\n      swap1\n      sload\n      swap1\n      0x0100\n      exp\n      swap1\n      div\n      0xffffffffffffffffffffffffffffffffffffffff\n      and\n      dup2\n      jump\t// out\n        /* \"abstract/Ownable.sol\":1289:1376  function owner() public view virtual returns (address) {... */\n    tag_36:\n        /* \"abstract/Ownable.sol\":1335:1342  address */\n      0x00\n        /* \"abstract/Ownable.sol\":1362:1368  _owner */\n      dup1\n      0x00\n      swap1\n      sload\n      swap1\n      0x0100\n      exp\n      swap1\n      div\n      0xffffffffffffffffffffffffffffffffffffffff\n      and\n        /* \"abstract/Ownable.sol\":1355:1368  return _owner */\n      swap1\n      pop\n        /* \"abstract/Ownable.sol\":1289:1376  function owner() public view virtual returns (address) {... */\n      swap1\n      jump\t// out\n        /* \"controller/processing/ProcessingController.sol\":1323:1452  function getAllWarehouse() public view returns (Warehouse[] memory) {... */\n    tag_40:\n        /* \"controller/processing/ProcessingController.sol\":1371:1389  Warehouse[] memory */\n      0x60\n        /* \"controller/processing/ProcessingController.sol\":1409:1426  warehouseDatabase */\n      0x01\n      0x00\n      swap1\n      sload\n      swap1\n      0x0100\n      exp\n      swap1\n      div\n      0xffffffffffffffffffffffffffffffffffffffff\n      and\n        /* \"controller/processing/ProcessingController.sol\":1409:1442  warehouseDatabase.getAllWarehouse */\n      0xffffffffffffffffffffffffffffffffffffffff\n      and\n      0xa855a589\n        /* \"controller/processing/ProcessingController.sol\":1409:1444  warehouseDatabase.getAllWarehouse() */\n      mload(0x40)\n      dup2\n      0xffffffff\n      and\n      0xe0\n      shl\n      dup2\n      mstore\n      0x04\n      add\n      0x00\n      mload(0x40)\n      dup1\n      dup4\n      sub\n      dup2\n      dup7\n      gas\n      staticcall\n      iszero\n      dup1\n      iszero\n      tag_73\n      jumpi\n      returndatasize\n      0x00\n      dup1\n      returndatacopy\n      revert(0x00, returndatasize)\n    tag_73:\n      pop\n      pop\n      pop\n      pop\n      mload(0x40)\n      returndatasize\n      0x00\n      dup3\n      returndatacopy\n      returndatasize\n      not(0x1f)\n      0x1f\n      dup3\n      add\n      and\n      dup3\n      add\n      dup1\n      0x40\n      mstore\n      pop\n      dup2\n      add\n      swap1\n      tag_74\n      swap2\n      swap1\n      tag_75\n      jump\t// in\n    tag_74:\n        /* \"controller/processing/ProcessingController.sol\":1402:1444  return warehouseDatabase.getAllWarehouse() */\n      swap1\n      pop\n        /* \"controller/processing/ProcessingController.sol\":1323:1452  function getAllWarehouse() public view returns (Warehouse[] memory) {... */\n      swap1\n      jump\t// out\n        /* \"abstract/Ownable.sol\":2204:2442  function transferOwnership(address newOwner) public virtual onlyOwner {... */\n    tag_46:\n        /* \"abstract/Ownable.sol\":1175:1188  _checkOwner() */\n      tag_77\n        /* \"abstract/Ownable.sol\":1175:1186  _checkOwner */\n      tag_68\n        /* \"abstract/Ownable.sol\":1175:1188  _checkOwner() */\n      jump\t// in\n    tag_77:\n        /* \"abstract/Ownable.sol\":2327:2328  0 */\n      0x00\n        /* \"abstract/Ownable.sol\":2307:2329  newOwner != address(0) */\n      0xffffffffffffffffffffffffffffffffffffffff\n      and\n        /* \"abstract/Ownable.sol\":2307:2315  newOwner */\n      dup2\n        /* \"abstract/Ownable.sol\":2307:2329  newOwner != address(0) */\n      0xffffffffffffffffffffffffffffffffffffffff\n      and\n      sub\n        /* \"abstract/Ownable.sol\":2285:2395  require(... */\n      tag_79\n      jumpi\n      mload(0x40)\n      0x08c379a000000000000000000000000000000000000000000000000000000000\n      dup2\n      mstore\n      0x04\n      add\n      tag_80\n      swap1\n      tag_81\n      jump\t// in\n    tag_80:\n      mload(0x40)\n      dup1\n      swap2\n      sub\n      swap1\n      revert\n    tag_79:\n        /* \"abstract/Ownable.sol\":2406:2434  _transferOwnership(newOwner) */\n      tag_82\n        /* \"abstract/Ownable.sol\":2425:2433  newOwner */\n      dup2\n        /* \"abstract/Ownable.sol\":2406:2424  _transferOwnership */\n      tag_83\n        /* \"abstract/Ownable.sol\":2406:2434  _transferOwnership(newOwner) */\n      jump\t// in\n    tag_82:\n        /* \"abstract/Ownable.sol\":2204:2442  function transferOwnership(address newOwner) public virtual onlyOwner {... */\n      pop\n      jump\t// out\n        /* \"@openzeppelin/contracts/utils/Context.sol\":640:736  function _msgSender() internal view virtual returns (address) {... */\n    tag_49:\n        /* \"@openzeppelin/contracts/utils/Context.sol\":693:700  address */\n      0x00\n        /* \"@openzeppelin/contracts/utils/Context.sol\":719:729  msg.sender */\n      caller\n        /* \"@openzeppelin/contracts/utils/Context.sol\":712:729  return msg.sender */\n      swap1\n      pop\n        /* \"@openzeppelin/contracts/utils/Context.sol\":640:736  function _msgSender() internal view virtual returns (address) {... */\n      swap1\n      jump\t// out\n        /* \"abstract/Ownable.sol\":1454:1584  function _checkOwner() internal view virtual {... */\n    tag_68:\n        /* \"abstract/Ownable.sol\":1529:1539  msg.sender */\n      caller\n        /* \"abstract/Ownable.sol\":1518:1539  owner() == msg.sender */\n      0xffffffffffffffffffffffffffffffffffffffff\n      and\n        /* \"abstract/Ownable.sol\":1518:1525  owner() */\n      tag_86\n        /* \"abstract/Ownable.sol\":1518:1523  owner */\n      tag_36\n        /* \"abstract/Ownable.sol\":1518:1525  owner() */\n      jump\t// in\n    tag_86:\n        /* \"abstract/Ownable.sol\":1518:1539  owner() == msg.sender */\n      0xffffffffffffffffffffffffffffffffffffffff\n      and\n      eq\n        /* \"abstract/Ownable.sol\":1510:1576  require(owner() == msg.sender, \"Ownable: caller is not the owner\") */\n      tag_87\n      jumpi\n      mload(0x40)\n      0x08c379a000000000000000000000000000000000000000000000000000000000\n      dup2\n      mstore\n      0x04\n      add\n      tag_88\n      swap1\n      tag_89\n      jump\t// in\n    tag_88:\n      mload(0x40)\n      dup1\n      swap2\n      sub\n      swap1\n      revert\n    tag_87:\n        /* \"abstract/Ownable.sol\":1454:1584  function _checkOwner() internal view virtual {... */\n      jump\t// out\n        /* \"abstract/Ownable.sol\":2602:2793  function _transferOwnership(address newOwner) internal virtual {... */\n    tag_83:\n        /* \"abstract/Ownable.sol\":2676:2692  address oldOwner */\n      0x00\n        /* \"abstract/Ownable.sol\":2695:2701  _owner */\n      dup1\n      0x00\n      swap1\n      sload\n      swap1\n      0x0100\n      exp\n      swap1\n      div\n      0xffffffffffffffffffffffffffffffffffffffff\n      and\n        /* \"abstract/Ownable.sol\":2676:2701  address oldOwner = _owner */\n      swap1\n      pop\n        /* \"abstract/Ownable.sol\":2721:2729  newOwner */\n      dup2\n        /* \"abstract/Ownable.sol\":2712:2718  _owner */\n      0x00\n      dup1\n        /* \"abstract/Ownable.sol\":2712:2729  _owner = newOwner */\n      0x0100\n      exp\n      dup2\n      sload\n      dup2\n      0xffffffffffffffffffffffffffffffffffffffff\n      mul\n      not\n      and\n      swap1\n      dup4\n      0xffffffffffffffffffffffffffffffffffffffff\n      and\n      mul\n      or\n      swap1\n      sstore\n      pop\n        /* \"abstract/Ownable.sol\":2776:2784  newOwner */\n      dup2\n        /* \"abstract/Ownable.sol\":2745:2785  OwnershipTransferred(oldOwner, newOwner) */\n      0xffffffffffffffffffffffffffffffffffffffff\n      and\n        /* \"abstract/Ownable.sol\":2766:2774  oldOwner */\n      dup2\n        /* \"abstract/Ownable.sol\":2745:2785  OwnershipTransferred(oldOwner, newOwner) */\n      0xffffffffffffffffffffffffffffffffffffffff\n      and\n      0x8be0079c531659141344cd1fd0a4f28419497f9722a3daafe3b4186f6b6457e0\n      mload(0x40)\n      mload(0x40)\n      dup1\n      swap2\n      sub\n      swap1\n      log3\n        /* \"abstract/Ownable.sol\":2665:2793  {... */\n      pop\n        /* \"abstract/Ownable.sol\":2602:2793  function _transferOwnership(address newOwner) internal virtual {... */\n      pop\n      jump\t// out\n        /* \"#utility.yul\":7:82   */\n    tag_91:\n        /* \"#utility.yul\":40:46   */\n      0x00\n        /* \"#utility.yul\":73:75   */\n      0x40\n        /* \"#utility.yul\":67:76   */\n      mload\n        /* \"#utility.yul\":57:76   */\n      swap1\n      pop\n        /* \"#utility.yul\":7:82   */\n      swap1\n      jump\t// out\n        /* \"#utility.yul\":88:205   */\n    tag_92:\n        /* \"#utility.yul\":197:198   */\n      0x00\n        /* \"#utility.yul\":194:195   */\n      dup1\n        /* \"#utility.yul\":187:199   */\n      revert\n        /* \"#utility.yul\":211:328   */\n    tag_93:\n        /* \"#utility.yul\":320:321   */\n      0x00\n        /* \"#utility.yul\":317:318   */\n      dup1\n        /* \"#utility.yul\":310:322   */\n      revert\n        /* \"#utility.yul\":334:451   */\n    tag_94:\n        /* \"#utility.yul\":443:444   */\n      0x00\n        /* \"#utility.yul\":440:441   */\n      dup1\n        /* \"#utility.yul\":433:445   */\n      revert\n        /* \"#utility.yul\":457:574   */\n    tag_95:\n        /* \"#utility.yul\":566:567   */\n      0x00\n        /* \"#utility.yul\":563:564   */\n      dup1\n        /* \"#utility.yul\":556:568   */\n      revert\n        /* \"#utility.yul\":580:682   */\n    tag_96:\n        /* \"#utility.yul\":621:627   */\n      0x00\n        /* \"#utility.yul\":672:674   */\n      0x1f\n        /* \"#utility.yul\":668:675   */\n      not\n        /* \"#utility.yul\":663:665   */\n      0x1f\n        /* \"#utility.yul\":656:661   */\n      dup4\n        /* \"#utility.yul\":652:666   */\n      add\n        /* \"#utility.yul\":648:676   */\n      and\n        /* \"#utility.yul\":638:676   */\n      swap1\n      pop\n        /* \"#utility.yul\":580:682   */\n      swap2\n      swap1\n      pop\n      jump\t// out\n        /* \"#utility.yul\":688:868   */\n    tag_97:\n        /* \"#utility.yul\":736:813   */\n      0x4e487b7100000000000000000000000000000000000000000000000000000000\n        /* \"#utility.yul\":733:734   */\n      0x00\n        /* \"#utility.yul\":726:814   */\n      mstore\n        /* \"#utility.yul\":833:837   */\n      0x41\n        /* \"#utility.yul\":830:831   */\n      0x04\n        /* \"#utility.yul\":823:838   */\n      mstore\n        /* \"#utility.yul\":857:861   */\n      0x24\n        /* \"#utility.yul\":854:855   */\n      0x00\n        /* \"#utility.yul\":847:862   */\n      revert\n        /* \"#utility.yul\":874:1155   */\n    tag_98:\n        /* \"#utility.yul\":957:984   */\n      tag_174\n        /* \"#utility.yul\":979:983   */\n      dup3\n        /* \"#utility.yul\":957:984   */\n      tag_96\n      jump\t// in\n    tag_174:\n        /* \"#utility.yul\":949:955   */\n      dup2\n        /* \"#utility.yul\":945:985   */\n      add\n        /* \"#utility.yul\":1087:1093   */\n      dup2\n        /* \"#utility.yul\":1075:1085   */\n      dup2\n        /* \"#utility.yul\":1072:1094   */\n      lt\n        /* \"#utility.yul\":1051:1069   */\n      0xffffffffffffffff\n        /* \"#utility.yul\":1039:1049   */\n      dup3\n        /* \"#utility.yul\":1036:1070   */\n      gt\n        /* \"#utility.yul\":1033:1095   */\n      or\n        /* \"#utility.yul\":1030:1118   */\n      iszero\n      tag_175\n      jumpi\n        /* \"#utility.yul\":1098:1116   */\n      tag_176\n      tag_97\n      jump\t// in\n    tag_176:\n        /* \"#utility.yul\":1030:1118   */\n    tag_175:\n        /* \"#utility.yul\":1138:1148   */\n      dup1\n        /* \"#utility.yul\":1134:1136   */\n      0x40\n        /* \"#utility.yul\":1127:1149   */\n      mstore\n        /* \"#utility.yul\":917:1155   */\n      pop\n        /* \"#utility.yul\":874:1155   */\n      pop\n      pop\n      jump\t// out\n        /* \"#utility.yul\":1161:1290   */\n    tag_99:\n        /* \"#utility.yul\":1195:1201   */\n      0x00\n        /* \"#utility.yul\":1222:1242   */\n      tag_178\n      tag_91\n      jump\t// in\n    tag_178:\n        /* \"#utility.yul\":1212:1242   */\n      swap1\n      pop\n        /* \"#utility.yul\":1251:1284   */\n      tag_179\n        /* \"#utility.yul\":1279:1283   */\n      dup3\n        /* \"#utility.yul\":1271:1277   */\n      dup3\n        /* \"#utility.yul\":1251:1284   */\n      tag_98\n      jump\t// in\n    tag_179:\n        /* \"#utility.yul\":1161:1290   */\n      swap2\n      swap1\n      pop\n      jump\t// out\n        /* \"#utility.yul\":1296:1604   */\n    tag_100:\n        /* \"#utility.yul\":1358:1362   */\n      0x00\n        /* \"#utility.yul\":1448:1466   */\n      0xffffffffffffffff\n        /* \"#utility.yul\":1440:1446   */\n      dup3\n        /* \"#utility.yul\":1437:1467   */\n      gt\n        /* \"#utility.yul\":1434:1490   */\n      iszero\n      tag_181\n      jumpi\n        /* \"#utility.yul\":1470:1488   */\n      tag_182\n      tag_97\n      jump\t// in\n    tag_182:\n        /* \"#utility.yul\":1434:1490   */\n    tag_181:\n        /* \"#utility.yul\":1508:1537   */\n      tag_183\n        /* \"#utility.yul\":1530:1536   */\n      dup3\n        /* \"#utility.yul\":1508:1537   */\n      tag_96\n      jump\t// in\n    tag_183:\n        /* \"#utility.yul\":1500:1537   */\n      swap1\n      pop\n        /* \"#utility.yul\":1592:1596   */\n      0x20\n        /* \"#utility.yul\":1586:1590   */\n      dup2\n        /* \"#utility.yul\":1582:1597   */\n      add\n        /* \"#utility.yul\":1574:1597   */\n      swap1\n      pop\n        /* \"#utility.yul\":1296:1604   */\n      swap2\n      swap1\n      pop\n      jump\t// out\n        /* \"#utility.yul\":1610:1756   */\n    tag_101:\n        /* \"#utility.yul\":1707:1713   */\n      dup3\n        /* \"#utility.yul\":1702:1705   */\n      dup2\n        /* \"#utility.yul\":1697:1700   */\n      dup4\n        /* \"#utility.yul\":1684:1714   */\n      calldatacopy\n        /* \"#utility.yul\":1748:1749   */\n      0x00\n        /* \"#utility.yul\":1739:1745   */\n      dup4\n        /* \"#utility.yul\":1734:1737   */\n      dup4\n        /* \"#utility.yul\":1730:1746   */\n      add\n        /* \"#utility.yul\":1723:1750   */\n      mstore\n        /* \"#utility.yul\":1610:1756   */\n      pop\n      pop\n      pop\n      jump\t// out\n        /* \"#utility.yul\":1762:2187   */\n    tag_102:\n        /* \"#utility.yul\":1840:1845   */\n      0x00\n        /* \"#utility.yul\":1865:1931   */\n      tag_186\n        /* \"#utility.yul\":1881:1930   */\n      tag_187\n        /* \"#utility.yul\":1923:1929   */\n      dup5\n        /* \"#utility.yul\":1881:1930   */\n      tag_100\n      jump\t// in\n    tag_187:\n        /* \"#utility.yul\":1865:1931   */\n      tag_99\n      jump\t// in\n    tag_186:\n        /* \"#utility.yul\":1856:1931   */\n      swap1\n      pop\n        /* \"#utility.yul\":1954:1960   */\n      dup3\n        /* \"#utility.yul\":1947:1952   */\n      dup2\n        /* \"#utility.yul\":1940:1961   */\n      mstore\n        /* \"#utility.yul\":1992:1996   */\n      0x20\n        /* \"#utility.yul\":1985:1990   */\n      dup2\n        /* \"#utility.yul\":1981:1997   */\n      add\n        /* \"#utility.yul\":2030:2033   */\n      dup5\n        /* \"#utility.yul\":2021:2027   */\n      dup5\n        /* \"#utility.yul\":2016:2019   */\n      dup5\n        /* \"#utility.yul\":2012:2028   */\n      add\n        /* \"#utility.yul\":2009:2034   */\n      gt\n        /* \"#utility.yul\":2006:2118   */\n      iszero\n      tag_188\n      jumpi\n        /* \"#utility.yul\":2037:2116   */\n      tag_189\n      tag_95\n      jump\t// in\n    tag_189:\n        /* \"#utility.yul\":2006:2118   */\n    tag_188:\n        /* \"#utility.yul\":2127:2181   */\n      tag_190\n        /* \"#utility.yul\":2174:2180   */\n      dup5\n        /* \"#utility.yul\":2169:2172   */\n      dup3\n        /* \"#utility.yul\":2164:2167   */\n      dup6\n        /* \"#utility.yul\":2127:2181   */\n      tag_101\n      jump\t// in\n    tag_190:\n        /* \"#utility.yul\":1846:2187   */\n      pop\n        /* \"#utility.yul\":1762:2187   */\n      swap4\n      swap3\n      pop\n      pop\n      pop\n      jump\t// out\n        /* \"#utility.yul\":2207:2547   */\n    tag_103:\n        /* \"#utility.yul\":2263:2268   */\n      0x00\n        /* \"#utility.yul\":2312:2315   */\n      dup3\n        /* \"#utility.yul\":2305:2309   */\n      0x1f\n        /* \"#utility.yul\":2297:2303   */\n      dup4\n        /* \"#utility.yul\":2293:2310   */\n      add\n        /* \"#utility.yul\":2289:2316   */\n      slt\n        /* \"#utility.yul\":2279:2401   */\n      tag_192\n      jumpi\n        /* \"#utility.yul\":2320:2399   */\n      tag_193\n      tag_94\n      jump\t// in\n    tag_193:\n        /* \"#utility.yul\":2279:2401   */\n    tag_192:\n        /* \"#utility.yul\":2437:2443   */\n      dup2\n        /* \"#utility.yul\":2424:2444   */\n      calldataload\n        /* \"#utility.yul\":2462:2541   */\n      tag_194\n        /* \"#utility.yul\":2537:2540   */\n      dup5\n        /* \"#utility.yul\":2529:2535   */\n      dup3\n        /* \"#utility.yul\":2522:2526   */\n      0x20\n        /* \"#utility.yul\":2514:2520   */\n      dup7\n        /* \"#utility.yul\":2510:2527   */\n      add\n        /* \"#utility.yul\":2462:2541   */\n      tag_102\n      jump\t// in\n    tag_194:\n        /* \"#utility.yul\":2453:2541   */\n      swap2\n      pop\n        /* \"#utility.yul\":2269:2547   */\n      pop\n        /* \"#utility.yul\":2207:2547   */\n      swap3\n      swap2\n      pop\n      pop\n      jump\t// out\n        /* \"#utility.yul\":2553:2630   */\n    tag_104:\n        /* \"#utility.yul\":2590:2597   */\n      0x00\n        /* \"#utility.yul\":2619:2624   */\n      dup2\n        /* \"#utility.yul\":2608:2624   */\n      swap1\n      pop\n        /* \"#utility.yul\":2553:2630   */\n      swap2\n      swap1\n      pop\n      jump\t// out\n        /* \"#utility.yul\":2636:2758   */\n    tag_105:\n        /* \"#utility.yul\":2709:2733   */\n      tag_197\n        /* \"#utility.yul\":2727:2732   */\n      dup2\n        /* \"#utility.yul\":2709:2733   */\n      tag_104\n      jump\t// in\n    tag_197:\n        /* \"#utility.yul\":2702:2707   */\n      dup2\n        /* \"#utility.yul\":2699:2734   */\n      eq\n        /* \"#utility.yul\":2689:2752   */\n      tag_198\n      jumpi\n        /* \"#utility.yul\":2748:2749   */\n      0x00\n        /* \"#utility.yul\":2745:2746   */\n      dup1\n        /* \"#utility.yul\":2738:2750   */\n      revert\n        /* \"#utility.yul\":2689:2752   */\n    tag_198:\n        /* \"#utility.yul\":2636:2758   */\n      pop\n      jump\t// out\n        /* \"#utility.yul\":2764:2903   */\n    tag_106:\n        /* \"#utility.yul\":2810:2815   */\n      0x00\n        /* \"#utility.yul\":2848:2854   */\n      dup2\n        /* \"#utility.yul\":2835:2855   */\n      calldataload\n        /* \"#utility.yul\":2826:2855   */\n      swap1\n      pop\n        /* \"#utility.yul\":2864:2897   */\n      tag_200\n        /* \"#utility.yul\":2891:2896   */\n      dup2\n        /* \"#utility.yul\":2864:2897   */\n      tag_105\n      jump\t// in\n    tag_200:\n        /* \"#utility.yul\":2764:2903   */\n      swap3\n      swap2\n      pop\n      pop\n      jump\t// out\n        /* \"#utility.yul\":2909:4214   */\n    tag_15:\n        /* \"#utility.yul\":3025:3031   */\n      0x00\n        /* \"#utility.yul\":3033:3039   */\n      dup1\n        /* \"#utility.yul\":3041:3047   */\n      0x00\n        /* \"#utility.yul\":3049:3055   */\n      dup1\n        /* \"#utility.yul\":3098:3101   */\n      0x80\n        /* \"#utility.yul\":3086:3095   */\n      dup6\n        /* \"#utility.yul\":3077:3084   */\n      dup8\n        /* \"#utility.yul\":3073:3096   */\n      sub\n        /* \"#utility.yul\":3069:3102   */\n      slt\n        /* \"#utility.yul\":3066:3186   */\n      iszero\n      tag_202\n      jumpi\n        /* \"#utility.yul\":3105:3184   */\n      tag_203\n      tag_92\n      jump\t// in\n    tag_203:\n        /* \"#utility.yul\":3066:3186   */\n    tag_202:\n        /* \"#utility.yul\":3253:3254   */\n      0x00\n        /* \"#utility.yul\":3242:3251   */\n      dup6\n        /* \"#utility.yul\":3238:3255   */\n      add\n        /* \"#utility.yul\":3225:3256   */\n      calldataload\n        /* \"#utility.yul\":3283:3301   */\n      0xffffffffffffffff\n        /* \"#utility.yul\":3275:3281   */\n      dup2\n        /* \"#utility.yul\":3272:3302   */\n      gt\n        /* \"#utility.yul\":3269:3386   */\n      iszero\n      tag_204\n      jumpi\n        /* \"#utility.yul\":3305:3384   */\n      tag_205\n      tag_93\n      jump\t// in\n    tag_205:\n        /* \"#utility.yul\":3269:3386   */\n    tag_204:\n        /* \"#utility.yul\":3410:3473   */\n      tag_206\n        /* \"#utility.yul\":3465:3472   */\n      dup8\n        /* \"#utility.yul\":3456:3462   */\n      dup3\n        /* \"#utility.yul\":3445:3454   */\n      dup9\n        /* \"#utility.yul\":3441:3463   */\n      add\n        /* \"#utility.yul\":3410:3473   */\n      tag_103\n      jump\t// in\n    tag_206:\n        /* \"#utility.yul\":3400:3473   */\n      swap5\n      pop\n        /* \"#utility.yul\":3196:3483   */\n      pop\n        /* \"#utility.yul\":3550:3552   */\n      0x20\n        /* \"#utility.yul\":3539:3548   */\n      dup6\n        /* \"#utility.yul\":3535:3553   */\n      add\n        /* \"#utility.yul\":3522:3554   */\n      calldataload\n        /* \"#utility.yul\":3581:3599   */\n      0xffffffffffffffff\n        /* \"#utility.yul\":3573:3579   */\n      dup2\n        /* \"#utility.yul\":3570:3600   */\n      gt\n        /* \"#utility.yul\":3567:3684   */\n      iszero\n      tag_207\n      jumpi\n        /* \"#utility.yul\":3603:3682   */\n      tag_208\n      tag_93\n      jump\t// in\n    tag_208:\n        /* \"#utility.yul\":3567:3684   */\n    tag_207:\n        /* \"#utility.yul\":3708:3771   */\n      tag_209\n        /* \"#utility.yul\":3763:3770   */\n      dup8\n        /* \"#utility.yul\":3754:3760   */\n      dup3\n        /* \"#utility.yul\":3743:3752   */\n      dup9\n        /* \"#utility.yul\":3739:3761   */\n      add\n        /* \"#utility.yul\":3708:3771   */\n      tag_103\n      jump\t// in\n    tag_209:\n        /* \"#utility.yul\":3698:3771   */\n      swap4\n      pop\n        /* \"#utility.yul\":3493:3781   */\n      pop\n        /* \"#utility.yul\":3820:3822   */\n      0x40\n        /* \"#utility.yul\":3846:3899   */\n      tag_210\n        /* \"#utility.yul\":3891:3898   */\n      dup8\n        /* \"#utility.yul\":3882:3888   */\n      dup3\n        /* \"#utility.yul\":3871:3880   */\n      dup9\n        /* \"#utility.yul\":3867:3889   */\n      add\n        /* \"#utility.yul\":3846:3899   */\n      tag_106\n      jump\t// in\n    tag_210:\n        /* \"#utility.yul\":3836:3899   */\n      swap3\n      pop\n        /* \"#utility.yul\":3791:3909   */\n      pop\n        /* \"#utility.yul\":3976:3978   */\n      0x60\n        /* \"#utility.yul\":3965:3974   */\n      dup6\n        /* \"#utility.yul\":3961:3979   */\n      add\n        /* \"#utility.yul\":3948:3980   */\n      calldataload\n        /* \"#utility.yul\":4007:4025   */\n      0xffffffffffffffff\n        /* \"#utility.yul\":3999:4005   */\n      dup2\n        /* \"#utility.yul\":3996:4026   */\n      gt\n        /* \"#utility.yul\":3993:4110   */\n      iszero\n      tag_211\n      jumpi\n        /* \"#utility.yul\":4029:4108   */\n      tag_212\n      tag_93\n      jump\t// in\n    tag_212:\n        /* \"#utility.yul\":3993:4110   */\n    tag_211:\n        /* \"#utility.yul\":4134:4197   */\n      tag_213\n        /* \"#utility.yul\":4189:4196   */\n      dup8\n        /* \"#utility.yul\":4180:4186   */\n      dup3\n        /* \"#utility.yul\":4169:4178   */\n      dup9\n        /* \"#utility.yul\":4165:4187   */\n      add\n        /* \"#utility.yul\":4134:4197   */\n      tag_103\n      jump\t// in\n    tag_213:\n        /* \"#utility.yul\":4124:4197   */\n      swap2\n      pop\n        /* \"#utility.yul\":3919:4207   */\n      pop\n        /* \"#utility.yul\":2909:4214   */\n      swap3\n      swap6\n      swap2\n      swap5\n      pop\n      swap3\n      pop\n      jump\t// out\n        /* \"#utility.yul\":4220:4346   */\n    tag_107:\n        /* \"#utility.yul\":4257:4264   */\n      0x00\n        /* \"#utility.yul\":4297:4339   */\n      0xffffffffffffffffffffffffffffffffffffffff\n        /* \"#utility.yul\":4290:4295   */\n      dup3\n        /* \"#utility.yul\":4286:4340   */\n      and\n        /* \"#utility.yul\":4275:4340   */\n      swap1\n      pop\n        /* \"#utility.yul\":4220:4346   */\n      swap2\n      swap1\n      pop\n      jump\t// out\n        /* \"#utility.yul\":4352:4412   */\n    tag_108:\n        /* \"#utility.yul\":4380:4383   */\n      0x00\n        /* \"#utility.yul\":4401:4406   */\n      dup2\n        /* \"#utility.yul\":4394:4406   */\n      swap1\n      pop\n        /* \"#utility.yul\":4352:4412   */\n      swap2\n      swap1\n      pop\n      jump\t// out\n        /* \"#utility.yul\":4418:4560   */\n    tag_109:\n        /* \"#utility.yul\":4468:4477   */\n      0x00\n        /* \"#utility.yul\":4501:4554   */\n      tag_217\n        /* \"#utility.yul\":4519:4553   */\n      tag_218\n        /* \"#utility.yul\":4528:4552   */\n      tag_219\n        /* \"#utility.yul\":4546:4551   */\n      dup5\n        /* \"#utility.yul\":4528:4552   */\n      tag_107\n      jump\t// in\n    tag_219:\n        /* \"#utility.yul\":4519:4553   */\n      tag_108\n      jump\t// in\n    tag_218:\n        /* \"#utility.yul\":4501:4554   */\n      tag_107\n      jump\t// in\n    tag_217:\n        /* \"#utility.yul\":4488:4554   */\n      swap1\n      pop\n        /* \"#utility.yul\":4418:4560   */\n      swap2\n      swap1\n      pop\n      jump\t// out\n        /* \"#utility.yul\":4566:4692   */\n    tag_110:\n        /* \"#utility.yul\":4616:4625   */\n      0x00\n        /* \"#utility.yul\":4649:4686   */\n      tag_221\n        /* \"#utility.yul\":4680:4685   */\n      dup3\n        /* \"#utility.yul\":4649:4686   */\n      tag_109\n      jump\t// in\n    tag_221:\n        /* \"#utility.yul\":4636:4686   */\n      swap1\n      pop\n        /* \"#utility.yul\":4566:4692   */\n      swap2\n      swap1\n      pop\n      jump\t// out\n        /* \"#utility.yul\":4698:4849   */\n    tag_111:\n        /* \"#utility.yul\":4773:4782   */\n      0x00\n        /* \"#utility.yul\":4806:4843   */\n      tag_223\n        /* \"#utility.yul\":4837:4842   */\n      dup3\n        /* \"#utility.yul\":4806:4843   */\n      tag_110\n      jump\t// in\n    tag_223:\n        /* \"#utility.yul\":4793:4843   */\n      swap1\n      pop\n        /* \"#utility.yul\":4698:4849   */\n      swap2\n      swap1\n      pop\n      jump\t// out\n        /* \"#utility.yul\":4855:5036   */\n    tag_112:\n        /* \"#utility.yul\":4967:5029   */\n      tag_225\n        /* \"#utility.yul\":5023:5028   */\n      dup2\n        /* \"#utility.yul\":4967:5029   */\n      tag_111\n      jump\t// in\n    tag_225:\n        /* \"#utility.yul\":4962:4965   */\n      dup3\n        /* \"#utility.yul\":4955:5030   */\n      mstore\n        /* \"#utility.yul\":4855:5036   */\n      pop\n      pop\n      jump\t// out\n        /* \"#utility.yul\":5042:5314   */\n    tag_20:\n        /* \"#utility.yul\":5160:5164   */\n      0x00\n        /* \"#utility.yul\":5198:5200   */\n      0x20\n        /* \"#utility.yul\":5187:5196   */\n      dup3\n        /* \"#utility.yul\":5183:5201   */\n      add\n        /* \"#utility.yul\":5175:5201   */\n      swap1\n      pop\n        /* \"#utility.yul\":5211:5307   */\n      tag_227\n        /* \"#utility.yul\":5304:5305   */\n      0x00\n        /* \"#utility.yul\":5293:5302   */\n      dup4\n        /* \"#utility.yul\":5289:5306   */\n      add\n        /* \"#utility.yul\":5280:5286   */\n      dup5\n        /* \"#utility.yul\":5211:5307   */\n      tag_112\n      jump\t// in\n    tag_227:\n        /* \"#utility.yul\":5042:5314   */\n      swap3\n      swap2\n      pop\n      pop\n      jump\t// out\n        /* \"#utility.yul\":5320:5829   */\n    tag_23:\n        /* \"#utility.yul\":5389:5395   */\n      0x00\n        /* \"#utility.yul\":5438:5440   */\n      0x20\n        /* \"#utility.yul\":5426:5435   */\n      dup3\n        /* \"#utility.yul\":5417:5424   */\n      dup5\n        /* \"#utility.yul\":5413:5436   */\n      sub\n        /* \"#utility.yul\":5409:5441   */\n      slt\n        /* \"#utility.yul\":5406:5525   */\n      iszero\n      tag_229\n      jumpi\n        /* \"#utility.yul\":5444:5523   */\n      tag_230\n      tag_92\n      jump\t// in\n    tag_230:\n        /* \"#utility.yul\":5406:5525   */\n    tag_229:\n        /* \"#utility.yul\":5592:5593   */\n      0x00\n        /* \"#utility.yul\":5581:5590   */\n      dup3\n        /* \"#utility.yul\":5577:5594   */\n      add\n        /* \"#utility.yul\":5564:5595   */\n      calldataload\n        /* \"#utility.yul\":5622:5640   */\n      0xffffffffffffffff\n        /* \"#utility.yul\":5614:5620   */\n      dup2\n        /* \"#utility.yul\":5611:5641   */\n      gt\n        /* \"#utility.yul\":5608:5725   */\n      iszero\n      tag_231\n      jumpi\n        /* \"#utility.yul\":5644:5723   */\n      tag_232\n      tag_93\n      jump\t// in\n    tag_232:\n        /* \"#utility.yul\":5608:5725   */\n    tag_231:\n        /* \"#utility.yul\":5749:5812   */\n      tag_233\n        /* \"#utility.yul\":5804:5811   */\n      dup5\n        /* \"#utility.yul\":5795:5801   */\n      dup3\n        /* \"#utility.yul\":5784:5793   */\n      dup6\n        /* \"#utility.yul\":5780:5802   */\n      add\n        /* \"#utility.yul\":5749:5812   */\n      tag_103\n      jump\t// in\n    tag_233:\n        /* \"#utility.yul\":5739:5812   */\n      swap2\n      pop\n        /* \"#utility.yul\":5535:5822   */\n      pop\n        /* \"#utility.yul\":5320:5829   */\n      swap3\n      swap2\n      pop\n      pop\n      jump\t// out\n        /* \"#utility.yul\":5835:5973   */\n    tag_113:\n        /* \"#utility.yul\":5926:5932   */\n      0x00\n        /* \"#utility.yul\":5960:5965   */\n      dup2\n        /* \"#utility.yul\":5954:5966   */\n      mload\n        /* \"#utility.yul\":5944:5966   */\n      swap1\n      pop\n        /* \"#utility.yul\":5835:5973   */\n      swap2\n      swap1\n      pop\n      jump\t// out\n        /* \"#utility.yul\":5979:6187   */\n    tag_114:\n        /* \"#utility.yul\":6102:6113   */\n      0x00\n        /* \"#utility.yul\":6136:6142   */\n      dup3\n        /* \"#utility.yul\":6131:6134   */\n      dup3\n        /* \"#utility.yul\":6124:6143   */\n      mstore\n        /* \"#utility.yul\":6176:6180   */\n      0x20\n        /* \"#utility.yul\":6171:6174   */\n      dup3\n        /* \"#utility.yul\":6167:6181   */\n      add\n        /* \"#utility.yul\":6152:6181   */\n      swap1\n      pop\n        /* \"#utility.yul\":5979:6187   */\n      swap3\n      swap2\n      pop\n      pop\n      jump\t// out\n        /* \"#utility.yul\":6193:6349   */\n    tag_115:\n        /* \"#utility.yul\":6284:6288   */\n      0x00\n        /* \"#utility.yul\":6307:6310   */\n      dup2\n        /* \"#utility.yul\":6299:6310   */\n      swap1\n      pop\n        /* \"#utility.yul\":6337:6341   */\n      0x20\n        /* \"#utility.yul\":6332:6335   */\n      dup3\n        /* \"#utility.yul\":6328:6342   */\n      add\n        /* \"#utility.yul\":6320:6342   */\n      swap1\n      pop\n        /* \"#utility.yul\":6193:6349   */\n      swap2\n      swap1\n      pop\n      jump\t// out\n        /* \"#utility.yul\":6355:6463   */\n    tag_116:\n        /* \"#utility.yul\":6432:6456   */\n      tag_238\n        /* \"#utility.yul\":6450:6455   */\n      dup2\n        /* \"#utility.yul\":6432:6456   */\n      tag_104\n      jump\t// in\n    tag_238:\n        /* \"#utility.yul\":6427:6430   */\n      dup3\n        /* \"#utility.yul\":6420:6457   */\n      mstore\n        /* \"#utility.yul\":6355:6463   */\n      pop\n      pop\n      jump\t// out\n        /* \"#utility.yul\":6469:6568   */\n    tag_117:\n        /* \"#utility.yul\":6521:6527   */\n      0x00\n        /* \"#utility.yul\":6555:6560   */\n      dup2\n        /* \"#utility.yul\":6549:6561   */\n      mload\n        /* \"#utility.yul\":6539:6561   */\n      swap1\n      pop\n        /* \"#utility.yul\":6469:6568   */\n      swap2\n      swap1\n      pop\n      jump\t// out\n        /* \"#utility.yul\":6574:6733   */\n    tag_118:\n        /* \"#utility.yul\":6648:6659   */\n      0x00\n        /* \"#utility.yul\":6682:6688   */\n      dup3\n        /* \"#utility.yul\":6677:6680   */\n      dup3\n        /* \"#utility.yul\":6670:6689   */\n      mstore\n        /* \"#utility.yul\":6722:6726   */\n      0x20\n        /* \"#utility.yul\":6717:6720   */\n      dup3\n        /* \"#utility.yul\":6713:6727   */\n      add\n        /* \"#utility.yul\":6698:6727   */\n      swap1\n      pop\n        /* \"#utility.yul\":6574:6733   */\n      swap3\n      swap2\n      pop\n      pop\n      jump\t// out\n        /* \"#utility.yul\":6739:6985   */\n    tag_119:\n        /* \"#utility.yul\":6820:6821   */\n      0x00\n        /* \"#utility.yul\":6830:6943   */\n    tag_242:\n        /* \"#utility.yul\":6844:6850   */\n      dup4\n        /* \"#utility.yul\":6841:6842   */\n      dup2\n        /* \"#utility.yul\":6838:6851   */\n      lt\n        /* \"#utility.yul\":6830:6943   */\n      iszero\n      tag_244\n      jumpi\n        /* \"#utility.yul\":6929:6930   */\n      dup1\n        /* \"#utility.yul\":6924:6927   */\n      dup3\n        /* \"#utility.yul\":6920:6931   */\n      add\n        /* \"#utility.yul\":6914:6932   */\n      mload\n        /* \"#utility.yul\":6910:6911   */\n      dup2\n        /* \"#utility.yul\":6905:6908   */\n      dup5\n        /* \"#utility.yul\":6901:6912   */\n      add\n        /* \"#utility.yul\":6894:6933   */\n      mstore\n        /* \"#utility.yul\":6866:6868   */\n      0x20\n        /* \"#utility.yul\":6863:6864   */\n      dup2\n        /* \"#utility.yul\":6859:6869   */\n      add\n        /* \"#utility.yul\":6854:6869   */\n      swap1\n      pop\n        /* \"#utility.yul\":6830:6943   */\n      jump(tag_242)\n    tag_244:\n        /* \"#utility.yul\":6977:6978   */\n      0x00\n        /* \"#utility.yul\":6968:6974   */\n      dup5\n        /* \"#utility.yul\":6963:6966   */\n      dup5\n        /* \"#utility.yul\":6959:6975   */\n      add\n        /* \"#utility.yul\":6952:6979   */\n      mstore\n        /* \"#utility.yul\":6801:6985   */\n      pop\n        /* \"#utility.yul\":6739:6985   */\n      pop\n      pop\n      pop\n      jump\t// out\n        /* \"#utility.yul\":6991:7348   */\n    tag_120:\n        /* \"#utility.yul\":7069:7072   */\n      0x00\n        /* \"#utility.yul\":7097:7136   */\n      tag_246\n        /* \"#utility.yul\":7130:7135   */\n      dup3\n        /* \"#utility.yul\":7097:7136   */\n      tag_117\n      jump\t// in\n    tag_246:\n        /* \"#utility.yul\":7152:7213   */\n      tag_247\n        /* \"#utility.yul\":7206:7212   */\n      dup2\n        /* \"#utility.yul\":7201:7204   */\n      dup6\n        /* \"#utility.yul\":7152:7213   */\n      tag_118\n      jump\t// in\n    tag_247:\n        /* \"#utility.yul\":7145:7213   */\n      swap4\n      pop\n        /* \"#utility.yul\":7222:7287   */\n      tag_248\n        /* \"#utility.yul\":7280:7286   */\n      dup2\n        /* \"#utility.yul\":7275:7278   */\n      dup6\n        /* \"#utility.yul\":7268:7272   */\n      0x20\n        /* \"#utility.yul\":7261:7266   */\n      dup7\n        /* \"#utility.yul\":7257:7273   */\n      add\n        /* \"#utility.yul\":7222:7287   */\n      tag_119\n      jump\t// in\n    tag_248:\n        /* \"#utility.yul\":7312:7341   */\n      tag_249\n        /* \"#utility.yul\":7334:7340   */\n      dup2\n        /* \"#utility.yul\":7312:7341   */\n      tag_96\n      jump\t// in\n    tag_249:\n        /* \"#utility.yul\":7307:7310   */\n      dup5\n        /* \"#utility.yul\":7303:7342   */\n      add\n        /* \"#utility.yul\":7296:7342   */\n      swap2\n      pop\n        /* \"#utility.yul\":7073:7348   */\n      pop\n        /* \"#utility.yul\":6991:7348   */\n      swap3\n      swap2\n      pop\n      pop\n      jump\t// out\n        /* \"#utility.yul\":7354:7450   */\n    tag_121:\n        /* \"#utility.yul\":7391:7398   */\n      0x00\n        /* \"#utility.yul\":7420:7444   */\n      tag_251\n        /* \"#utility.yul\":7438:7443   */\n      dup3\n        /* \"#utility.yul\":7420:7444   */\n      tag_107\n      jump\t// in\n    tag_251:\n        /* \"#utility.yul\":7409:7444   */\n      swap1\n      pop\n        /* \"#utility.yul\":7354:7450   */\n      swap2\n      swap1\n      pop\n      jump\t// out\n        /* \"#utility.yul\":7456:7564   */\n    tag_122:\n        /* \"#utility.yul\":7533:7557   */\n      tag_253\n        /* \"#utility.yul\":7551:7556   */\n      dup2\n        /* \"#utility.yul\":7533:7557   */\n      tag_121\n      jump\t// in\n    tag_253:\n        /* \"#utility.yul\":7528:7531   */\n      dup3\n        /* \"#utility.yul\":7521:7558   */\n      mstore\n        /* \"#utility.yul\":7456:7564   */\n      pop\n      pop\n      jump\t// out\n        /* \"#utility.yul\":7570:7660   */\n    tag_123:\n        /* \"#utility.yul\":7604:7611   */\n      0x00\n        /* \"#utility.yul\":7647:7652   */\n      dup2\n        /* \"#utility.yul\":7640:7653   */\n      iszero\n        /* \"#utility.yul\":7633:7654   */\n      iszero\n        /* \"#utility.yul\":7622:7654   */\n      swap1\n      pop\n        /* \"#utility.yul\":7570:7660   */\n      swap2\n      swap1\n      pop\n      jump\t// out\n        /* \"#utility.yul\":7666:7765   */\n    tag_124:\n        /* \"#utility.yul\":7737:7758   */\n      tag_256\n        /* \"#utility.yul\":7752:7757   */\n      dup2\n        /* \"#utility.yul\":7737:7758   */\n      tag_123\n      jump\t// in\n    tag_256:\n        /* \"#utility.yul\":7732:7735   */\n      dup3\n        /* \"#utility.yul\":7725:7759   */\n      mstore\n        /* \"#utility.yul\":7666:7765   */\n      pop\n      pop\n      jump\t// out\n        /* \"#utility.yul\":7811:9460   */\n    tag_125:\n        /* \"#utility.yul\":7918:7921   */\n      0x00\n        /* \"#utility.yul\":7954:7958   */\n      0xe0\n        /* \"#utility.yul\":7949:7952   */\n      dup4\n        /* \"#utility.yul\":7945:7959   */\n      add\n        /* \"#utility.yul\":8044:8048   */\n      0x00\n        /* \"#utility.yul\":8037:8042   */\n      dup4\n        /* \"#utility.yul\":8033:8049   */\n      add\n        /* \"#utility.yul\":8027:8050   */\n      mload\n        /* \"#utility.yul\":8063:8126   */\n      tag_258\n        /* \"#utility.yul\":8120:8124   */\n      0x00\n        /* \"#utility.yul\":8115:8118   */\n      dup7\n        /* \"#utility.yul\":8111:8125   */\n      add\n        /* \"#utility.yul\":8097:8109   */\n      dup3\n        /* \"#utility.yul\":8063:8126   */\n      tag_116\n      jump\t// in\n    tag_258:\n        /* \"#utility.yul\":7969:8136   */\n      pop\n        /* \"#utility.yul\":8222:8226   */\n      0x20\n        /* \"#utility.yul\":8215:8220   */\n      dup4\n        /* \"#utility.yul\":8211:8227   */\n      add\n        /* \"#utility.yul\":8205:8228   */\n      mload\n        /* \"#utility.yul\":8275:8278   */\n      dup5\n        /* \"#utility.yul\":8269:8273   */\n      dup3\n        /* \"#utility.yul\":8265:8279   */\n      sub\n        /* \"#utility.yul\":8258:8262   */\n      0x20\n        /* \"#utility.yul\":8253:8256   */\n      dup7\n        /* \"#utility.yul\":8249:8263   */\n      add\n        /* \"#utility.yul\":8242:8280   */\n      mstore\n        /* \"#utility.yul\":8301:8374   */\n      tag_259\n        /* \"#utility.yul\":8369:8373   */\n      dup3\n        /* \"#utility.yul\":8355:8367   */\n      dup3\n        /* \"#utility.yul\":8301:8374   */\n      tag_120\n      jump\t// in\n    tag_259:\n        /* \"#utility.yul\":8293:8374   */\n      swap2\n      pop\n        /* \"#utility.yul\":8146:8385   */\n      pop\n        /* \"#utility.yul\":8474:8478   */\n      0x40\n        /* \"#utility.yul\":8467:8472   */\n      dup4\n        /* \"#utility.yul\":8463:8479   */\n      add\n        /* \"#utility.yul\":8457:8480   */\n      mload\n        /* \"#utility.yul\":8493:8556   */\n      tag_260\n        /* \"#utility.yul\":8550:8554   */\n      0x40\n        /* \"#utility.yul\":8545:8548   */\n      dup7\n        /* \"#utility.yul\":8541:8555   */\n      add\n        /* \"#utility.yul\":8527:8539   */\n      dup3\n        /* \"#utility.yul\":8493:8556   */\n      tag_122\n      jump\t// in\n    tag_260:\n        /* \"#utility.yul\":8395:8566   */\n      pop\n        /* \"#utility.yul\":8654:8658   */\n      0x60\n        /* \"#utility.yul\":8647:8652   */\n      dup4\n        /* \"#utility.yul\":8643:8659   */\n      add\n        /* \"#utility.yul\":8637:8660   */\n      mload\n        /* \"#utility.yul\":8707:8710   */\n      dup5\n        /* \"#utility.yul\":8701:8705   */\n      dup3\n        /* \"#utility.yul\":8697:8711   */\n      sub\n        /* \"#utility.yul\":8690:8694   */\n      0x60\n        /* \"#utility.yul\":8685:8688   */\n      dup7\n        /* \"#utility.yul\":8681:8695   */\n      add\n        /* \"#utility.yul\":8674:8712   */\n      mstore\n        /* \"#utility.yul\":8733:8806   */\n      tag_261\n        /* \"#utility.yul\":8801:8805   */\n      dup3\n        /* \"#utility.yul\":8787:8799   */\n      dup3\n        /* \"#utility.yul\":8733:8806   */\n      tag_120\n      jump\t// in\n    tag_261:\n        /* \"#utility.yul\":8725:8806   */\n      swap2\n      pop\n        /* \"#utility.yul\":8576:8817   */\n      pop\n        /* \"#utility.yul\":8906:8910   */\n      0x80\n        /* \"#utility.yul\":8899:8904   */\n      dup4\n        /* \"#utility.yul\":8895:8911   */\n      add\n        /* \"#utility.yul\":8889:8912   */\n      mload\n        /* \"#utility.yul\":8925:8988   */\n      tag_262\n        /* \"#utility.yul\":8982:8986   */\n      0x80\n        /* \"#utility.yul\":8977:8980   */\n      dup7\n        /* \"#utility.yul\":8973:8987   */\n      add\n        /* \"#utility.yul\":8959:8971   */\n      dup3\n        /* \"#utility.yul\":8925:8988   */\n      tag_116\n      jump\t// in\n    tag_262:\n        /* \"#utility.yul\":8827:8998   */\n      pop\n        /* \"#utility.yul\":9090:9094   */\n      0xa0\n        /* \"#utility.yul\":9083:9088   */\n      dup4\n        /* \"#utility.yul\":9079:9095   */\n      add\n        /* \"#utility.yul\":9073:9096   */\n      mload\n        /* \"#utility.yul\":9143:9146   */\n      dup5\n        /* \"#utility.yul\":9137:9141   */\n      dup3\n        /* \"#utility.yul\":9133:9147   */\n      sub\n        /* \"#utility.yul\":9126:9130   */\n      0xa0\n        /* \"#utility.yul\":9121:9124   */\n      dup7\n        /* \"#utility.yul\":9117:9131   */\n      add\n        /* \"#utility.yul\":9110:9148   */\n      mstore\n        /* \"#utility.yul\":9169:9242   */\n      tag_263\n        /* \"#utility.yul\":9237:9241   */\n      dup3\n        /* \"#utility.yul\":9223:9235   */\n      dup3\n        /* \"#utility.yul\":9169:9242   */\n      tag_120\n      jump\t// in\n    tag_263:\n        /* \"#utility.yul\":9161:9242   */\n      swap2\n      pop\n        /* \"#utility.yul\":9008:9253   */\n      pop\n        /* \"#utility.yul\":9347:9351   */\n      0xc0\n        /* \"#utility.yul\":9340:9345   */\n      dup4\n        /* \"#utility.yul\":9336:9352   */\n      add\n        /* \"#utility.yul\":9330:9353   */\n      mload\n        /* \"#utility.yul\":9366:9423   */\n      tag_264\n        /* \"#utility.yul\":9417:9421   */\n      0xc0\n        /* \"#utility.yul\":9412:9415   */\n      dup7\n        /* \"#utility.yul\":9408:9422   */\n      add\n        /* \"#utility.yul\":9394:9406   */\n      dup3\n        /* \"#utility.yul\":9366:9423   */\n      tag_124\n      jump\t// in\n    tag_264:\n        /* \"#utility.yul\":9263:9433   */\n      pop\n        /* \"#utility.yul\":9450:9454   */\n      dup1\n        /* \"#utility.yul\":9443:9454   */\n      swap2\n      pop\n        /* \"#utility.yul\":7923:9460   */\n      pop\n        /* \"#utility.yul\":7811:9460   */\n      swap3\n      swap2\n      pop\n      pop\n      jump\t// out\n        /* \"#utility.yul\":9466:9718   */\n    tag_126:\n        /* \"#utility.yul\":9583:9593   */\n      0x00\n        /* \"#utility.yul\":9618:9712   */\n      tag_266\n        /* \"#utility.yul\":9708:9711   */\n      dup4\n        /* \"#utility.yul\":9700:9706   */\n      dup4\n        /* \"#utility.yul\":9618:9712   */\n      tag_125\n      jump\t// in\n    tag_266:\n        /* \"#utility.yul\":9604:9712   */\n      swap1\n      pop\n        /* \"#utility.yul\":9466:9718   */\n      swap3\n      swap2\n      pop\n      pop\n      jump\t// out\n        /* \"#utility.yul\":9724:9861   */\n    tag_127:\n        /* \"#utility.yul\":9818:9822   */\n      0x00\n        /* \"#utility.yul\":9850:9854   */\n      0x20\n        /* \"#utility.yul\":9845:9848   */\n      dup3\n        /* \"#utility.yul\":9841:9855   */\n      add\n        /* \"#utility.yul\":9833:9855   */\n      swap1\n      pop\n        /* \"#utility.yul\":9724:9861   */\n      swap2\n      swap1\n      pop\n      jump\t// out\n        /* \"#utility.yul\":9911:11014   */\n    tag_128:\n        /* \"#utility.yul\":10078:10081   */\n      0x00\n        /* \"#utility.yul\":10107:10185   */\n      tag_269\n        /* \"#utility.yul\":10179:10184   */\n      dup3\n        /* \"#utility.yul\":10107:10185   */\n      tag_113\n      jump\t// in\n    tag_269:\n        /* \"#utility.yul\":10201:10311   */\n      tag_270\n        /* \"#utility.yul\":10304:10310   */\n      dup2\n        /* \"#utility.yul\":10299:10302   */\n      dup6\n        /* \"#utility.yul\":10201:10311   */\n      tag_114\n      jump\t// in\n    tag_270:\n        /* \"#utility.yul\":10194:10311   */\n      swap4\n      pop\n        /* \"#utility.yul\":10337:10340   */\n      dup4\n        /* \"#utility.yul\":10382:10386   */\n      0x20\n        /* \"#utility.yul\":10374:10380   */\n      dup3\n        /* \"#utility.yul\":10370:10387   */\n      mul\n        /* \"#utility.yul\":10365:10368   */\n      dup6\n        /* \"#utility.yul\":10361:10388   */\n      add\n        /* \"#utility.yul\":10412:10492   */\n      tag_271\n        /* \"#utility.yul\":10486:10491   */\n      dup6\n        /* \"#utility.yul\":10412:10492   */\n      tag_115\n      jump\t// in\n    tag_271:\n        /* \"#utility.yul\":10515:10522   */\n      dup1\n        /* \"#utility.yul\":10546:10547   */\n      0x00\n        /* \"#utility.yul\":10531:10969   */\n    tag_272:\n        /* \"#utility.yul\":10556:10562   */\n      dup6\n        /* \"#utility.yul\":10553:10554   */\n      dup2\n        /* \"#utility.yul\":10550:10563   */\n      lt\n        /* \"#utility.yul\":10531:10969   */\n      iszero\n      tag_274\n      jumpi\n        /* \"#utility.yul\":10627:10636   */\n      dup5\n        /* \"#utility.yul\":10621:10625   */\n      dup5\n        /* \"#utility.yul\":10617:10637   */\n      sub\n        /* \"#utility.yul\":10612:10615   */\n      dup10\n        /* \"#utility.yul\":10605:10638   */\n      mstore\n        /* \"#utility.yul\":10678:10684   */\n      dup2\n        /* \"#utility.yul\":10672:10685   */\n      mload\n        /* \"#utility.yul\":10706:10818   */\n      tag_275\n        /* \"#utility.yul\":10813:10817   */\n      dup6\n        /* \"#utility.yul\":10798:10811   */\n      dup3\n        /* \"#utility.yul\":10706:10818   */\n      tag_126\n      jump\t// in\n    tag_275:\n        /* \"#utility.yul\":10698:10818   */\n      swap5\n      pop\n        /* \"#utility.yul\":10841:10925   */\n      tag_276\n        /* \"#utility.yul\":10918:10924   */\n      dup4\n        /* \"#utility.yul\":10841:10925   */\n      tag_127\n      jump\t// in\n    tag_276:\n        /* \"#utility.yul\":10831:10925   */\n      swap3\n      pop\n        /* \"#utility.yul\":10954:10958   */\n      0x20\n        /* \"#utility.yul\":10949:10952   */\n      dup11\n        /* \"#utility.yul\":10945:10959   */\n      add\n        /* \"#utility.yul\":10938:10959   */\n      swap10\n      pop\n        /* \"#utility.yul\":10591:10969   */\n      pop\n        /* \"#utility.yul\":10578:10579   */\n      0x01\n        /* \"#utility.yul\":10575:10576   */\n      dup2\n        /* \"#utility.yul\":10571:10580   */\n      add\n        /* \"#utility.yul\":10566:10580   */\n      swap1\n      pop\n        /* \"#utility.yul\":10531:10969   */\n      jump(tag_272)\n    tag_274:\n        /* \"#utility.yul\":10535:10549   */\n      pop\n        /* \"#utility.yul\":10985:10989   */\n      dup3\n        /* \"#utility.yul\":10978:10989   */\n      swap8\n      pop\n        /* \"#utility.yul\":11005:11008   */\n      dup8\n        /* \"#utility.yul\":10998:11008   */\n      swap6\n      pop\n        /* \"#utility.yul\":10083:11014   */\n      pop\n      pop\n      pop\n      pop\n      pop\n        /* \"#utility.yul\":9911:11014   */\n      swap3\n      swap2\n      pop\n      pop\n      jump\t// out\n        /* \"#utility.yul\":11020:11489   */\n    tag_28:\n        /* \"#utility.yul\":11211:11215   */\n      0x00\n        /* \"#utility.yul\":11249:11251   */\n      0x20\n        /* \"#utility.yul\":11238:11247   */\n      dup3\n        /* \"#utility.yul\":11234:11252   */\n      add\n        /* \"#utility.yul\":11226:11252   */\n      swap1\n      pop\n        /* \"#utility.yul\":11298:11307   */\n      dup2\n        /* \"#utility.yul\":11292:11296   */\n      dup2\n        /* \"#utility.yul\":11288:11308   */\n      sub\n        /* \"#utility.yul\":11284:11285   */\n      0x00\n        /* \"#utility.yul\":11273:11282   */\n      dup4\n        /* \"#utility.yul\":11269:11286   */\n      add\n        /* \"#utility.yul\":11262:11309   */\n      mstore\n        /* \"#utility.yul\":11326:11482   */\n      tag_278\n        /* \"#utility.yul\":11477:11481   */\n      dup2\n        /* \"#utility.yul\":11468:11474   */\n      dup5\n        /* \"#utility.yul\":11326:11482   */\n      tag_128\n      jump\t// in\n    tag_278:\n        /* \"#utility.yul\":11318:11482   */\n      swap1\n      pop\n        /* \"#utility.yul\":11020:11489   */\n      swap3\n      swap2\n      pop\n      pop\n      jump\t// out\n        /* \"#utility.yul\":11495:11644   */\n    tag_129:\n        /* \"#utility.yul\":11568:11577   */\n      0x00\n        /* \"#utility.yul\":11601:11638   */\n      tag_280\n        /* \"#utility.yul\":11632:11637   */\n      dup3\n        /* \"#utility.yul\":11601:11638   */\n      tag_110\n      jump\t// in\n    tag_280:\n        /* \"#utility.yul\":11588:11638   */\n      swap1\n      pop\n        /* \"#utility.yul\":11495:11644   */\n      swap2\n      swap1\n      pop\n      jump\t// out\n        /* \"#utility.yul\":11650:11827   */\n    tag_130:\n        /* \"#utility.yul\":11760:11820   */\n      tag_282\n        /* \"#utility.yul\":11814:11819   */\n      dup2\n        /* \"#utility.yul\":11760:11820   */\n      tag_129\n      jump\t// in\n    tag_282:\n        /* \"#utility.yul\":11755:11758   */\n      dup3\n        /* \"#utility.yul\":11748:11821   */\n      mstore\n        /* \"#utility.yul\":11650:11827   */\n      pop\n      pop\n      jump\t// out\n        /* \"#utility.yul\":11833:12101   */\n    tag_34:\n        /* \"#utility.yul\":11949:11953   */\n      0x00\n        /* \"#utility.yul\":11987:11989   */\n      0x20\n        /* \"#utility.yul\":11976:11985   */\n      dup3\n        /* \"#utility.yul\":11972:11990   */\n      add\n        /* \"#utility.yul\":11964:11990   */\n      swap1\n      pop\n        /* \"#utility.yul\":12000:12094   */\n      tag_284\n        /* \"#utility.yul\":12091:12092   */\n      0x00\n        /* \"#utility.yul\":12080:12089   */\n      dup4\n        /* \"#utility.yul\":12076:12093   */\n      add\n        /* \"#utility.yul\":12067:12073   */\n      dup5\n        /* \"#utility.yul\":12000:12094   */\n      tag_130\n      jump\t// in\n    tag_284:\n        /* \"#utility.yul\":11833:12101   */\n      swap3\n      swap2\n      pop\n      pop\n      jump\t// out\n        /* \"#utility.yul\":12107:12225   */\n    tag_131:\n        /* \"#utility.yul\":12194:12218   */\n      tag_286\n        /* \"#utility.yul\":12212:12217   */\n      dup2\n        /* \"#utility.yul\":12194:12218   */\n      tag_121\n      jump\t// in\n    tag_286:\n        /* \"#utility.yul\":12189:12192   */\n      dup3\n        /* \"#utility.yul\":12182:12219   */\n      mstore\n        /* \"#utility.yul\":12107:12225   */\n      pop\n      pop\n      jump\t// out\n        /* \"#utility.yul\":12231:12453   */\n    tag_38:\n        /* \"#utility.yul\":12324:12328   */\n      0x00\n        /* \"#utility.yul\":12362:12364   */\n      0x20\n        /* \"#utility.yul\":12351:12360   */\n      dup3\n        /* \"#utility.yul\":12347:12365   */\n      add\n        /* \"#utility.yul\":12339:12365   */\n      swap1\n      pop\n        /* \"#utility.yul\":12375:12446   */\n      tag_288\n        /* \"#utility.yul\":12443:12444   */\n      0x00\n        /* \"#utility.yul\":12432:12441   */\n      dup4\n        /* \"#utility.yul\":12428:12445   */\n      add\n        /* \"#utility.yul\":12419:12425   */\n      dup5\n        /* \"#utility.yul\":12375:12446   */\n      tag_131\n      jump\t// in\n    tag_288:\n        /* \"#utility.yul\":12231:12453   */\n      swap3\n      swap2\n      pop\n      pop\n      jump\t// out\n        /* \"#utility.yul\":12459:12599   */\n    tag_132:\n        /* \"#utility.yul\":12552:12558   */\n      0x00\n        /* \"#utility.yul\":12586:12591   */\n      dup2\n        /* \"#utility.yul\":12580:12592   */\n      mload\n        /* \"#utility.yul\":12570:12592   */\n      swap1\n      pop\n        /* \"#utility.yul\":12459:12599   */\n      swap2\n      swap1\n      pop\n      jump\t// out\n        /* \"#utility.yul\":12605:12815   */\n    tag_133:\n        /* \"#utility.yul\":12730:12741   */\n      0x00\n        /* \"#utility.yul\":12764:12770   */\n      dup3\n        /* \"#utility.yul\":12759:12762   */\n      dup3\n        /* \"#utility.yul\":12752:12771   */\n      mstore\n        /* \"#utility.yul\":12804:12808   */\n      0x20\n        /* \"#utility.yul\":12799:12802   */\n      dup3\n        /* \"#utility.yul\":12795:12809   */\n      add\n        /* \"#utility.yul\":12780:12809   */\n      swap1\n      pop\n        /* \"#utility.yul\":12605:12815   */\n      swap3\n      swap2\n      pop\n      pop\n      jump\t// out\n        /* \"#utility.yul\":12821:12979   */\n    tag_134:\n        /* \"#utility.yul\":12914:12918   */\n      0x00\n        /* \"#utility.yul\":12937:12940   */\n      dup2\n        /* \"#utility.yul\":12929:12940   */\n      swap1\n      pop\n        /* \"#utility.yul\":12967:12971   */\n      0x20\n        /* \"#utility.yul\":12962:12965   */\n      dup3\n        /* \"#utility.yul\":12958:12972   */\n      add\n        /* \"#utility.yul\":12950:12972   */\n      swap1\n      pop\n        /* \"#utility.yul\":12821:12979   */\n      swap2\n      swap1\n      pop\n      jump\t// out\n        /* \"#utility.yul\":13029:13828   */\n    tag_135:\n        /* \"#utility.yul\":13140:13143   */\n      0x00\n        /* \"#utility.yul\":13176:13180   */\n      0x60\n        /* \"#utility.yul\":13171:13174   */\n      dup4\n        /* \"#utility.yul\":13167:13181   */\n      add\n        /* \"#utility.yul\":13270:13274   */\n      0x00\n        /* \"#utility.yul\":13263:13268   */\n      dup4\n        /* \"#utility.yul\":13259:13275   */\n      add\n        /* \"#utility.yul\":13253:13276   */\n      mload\n        /* \"#utility.yul\":13289:13352   */\n      tag_293\n        /* \"#utility.yul\":13346:13350   */\n      0x00\n        /* \"#utility.yul\":13341:13344   */\n      dup7\n        /* \"#utility.yul\":13337:13351   */\n      add\n        /* \"#utility.yul\":13323:13335   */\n      dup3\n        /* \"#utility.yul\":13289:13352   */\n      tag_116\n      jump\t// in\n    tag_293:\n        /* \"#utility.yul\":13191:13362   */\n      pop\n        /* \"#utility.yul\":13456:13460   */\n      0x20\n        /* \"#utility.yul\":13449:13454   */\n      dup4\n        /* \"#utility.yul\":13445:13461   */\n      add\n        /* \"#utility.yul\":13439:13462   */\n      mload\n        /* \"#utility.yul\":13509:13512   */\n      dup5\n        /* \"#utility.yul\":13503:13507   */\n      dup3\n        /* \"#utility.yul\":13499:13513   */\n      sub\n        /* \"#utility.yul\":13492:13496   */\n      0x20\n        /* \"#utility.yul\":13487:13490   */\n      dup7\n        /* \"#utility.yul\":13483:13497   */\n      add\n        /* \"#utility.yul\":13476:13514   */\n      mstore\n        /* \"#utility.yul\":13535:13608   */\n      tag_294\n        /* \"#utility.yul\":13603:13607   */\n      dup3\n        /* \"#utility.yul\":13589:13601   */\n      dup3\n        /* \"#utility.yul\":13535:13608   */\n      tag_120\n      jump\t// in\n    tag_294:\n        /* \"#utility.yul\":13527:13608   */\n      swap2\n      pop\n        /* \"#utility.yul\":13372:13619   */\n      pop\n        /* \"#utility.yul\":13715:13719   */\n      0x40\n        /* \"#utility.yul\":13708:13713   */\n      dup4\n        /* \"#utility.yul\":13704:13720   */\n      add\n        /* \"#utility.yul\":13698:13721   */\n      mload\n        /* \"#utility.yul\":13734:13791   */\n      tag_295\n        /* \"#utility.yul\":13785:13789   */\n      0x40\n        /* \"#utility.yul\":13780:13783   */\n      dup7\n        /* \"#utility.yul\":13776:13790   */\n      add\n        /* \"#utility.yul\":13762:13774   */\n      dup3\n        /* \"#utility.yul\":13734:13791   */\n      tag_124\n      jump\t// in\n    tag_295:\n        /* \"#utility.yul\":13629:13801   */\n      pop\n        /* \"#utility.yul\":13818:13822   */\n      dup1\n        /* \"#utility.yul\":13811:13822   */\n      swap2\n      pop\n        /* \"#utility.yul\":13145:13828   */\n      pop\n        /* \"#utility.yul\":13029:13828   */\n      swap3\n      swap2\n      pop\n      pop\n      jump\t// out\n        /* \"#utility.yul\":13834:14094   */\n    tag_136:\n        /* \"#utility.yul\":13955:13965   */\n      0x00\n        /* \"#utility.yul\":13990:14088   */\n      tag_297\n        /* \"#utility.yul\":14084:14087   */\n      dup4\n        /* \"#utility.yul\":14076:14082   */\n      dup4\n        /* \"#utility.yul\":13990:14088   */\n      tag_135\n      jump\t// in\n    tag_297:\n        /* \"#utility.yul\":13976:14088   */\n      swap1\n      pop\n        /* \"#utility.yul\":13834:14094   */\n      swap3\n      swap2\n      pop\n      pop\n      jump\t// out\n        /* \"#utility.yul\":14100:14239   */\n    tag_137:\n        /* \"#utility.yul\":14196:14200   */\n      0x00\n        /* \"#utility.yul\":14228:14232   */\n      0x20\n        /* \"#utility.yul\":14223:14226   */\n      dup3\n        /* \"#utility.yul\":14219:14233   */\n      add\n        /* \"#utility.yul\":14211:14233   */\n      swap1\n      pop\n        /* \"#utility.yul\":14100:14239   */\n      swap2\n      swap1\n      pop\n      jump\t// out\n        /* \"#utility.yul\":14293:15412   */\n    tag_138:\n        /* \"#utility.yul\":14464:14467   */\n      0x00\n        /* \"#utility.yul\":14493:14573   */\n      tag_300\n        /* \"#utility.yul\":14567:14572   */\n      dup3\n        /* \"#utility.yul\":14493:14573   */\n      tag_132\n      jump\t// in\n    tag_300:\n        /* \"#utility.yul\":14589:14701   */\n      tag_301\n        /* \"#utility.yul\":14694:14700   */\n      dup2\n        /* \"#utility.yul\":14689:14692   */\n      dup6\n        /* \"#utility.yul\":14589:14701   */\n      tag_133\n      jump\t// in\n    tag_301:\n        /* \"#utility.yul\":14582:14701   */\n      swap4\n      pop\n        /* \"#utility.yul\":14727:14730   */\n      dup4\n        /* \"#utility.yul\":14772:14776   */\n      0x20\n        /* \"#utility.yul\":14764:14770   */\n      dup3\n        /* \"#utility.yul\":14760:14777   */\n      mul\n        /* \"#utility.yul\":14755:14758   */\n      dup6\n        /* \"#utility.yul\":14751:14778   */\n      add\n        /* \"#utility.yul\":14802:14884   */\n      tag_302\n        /* \"#utility.yul\":14878:14883   */\n      dup6\n        /* \"#utility.yul\":14802:14884   */\n      tag_134\n      jump\t// in\n    tag_302:\n        /* \"#utility.yul\":14907:14914   */\n      dup1\n        /* \"#utility.yul\":14938:14939   */\n      0x00\n        /* \"#utility.yul\":14923:15367   */\n    tag_303:\n        /* \"#utility.yul\":14948:14954   */\n      dup6\n        /* \"#utility.yul\":14945:14946   */\n      dup2\n        /* \"#utility.yul\":14942:14955   */\n      lt\n        /* \"#utility.yul\":14923:15367   */\n      iszero\n      tag_305\n      jumpi\n        /* \"#utility.yul\":15019:15028   */\n      dup5\n        /* \"#utility.yul\":15013:15017   */\n      dup5\n        /* \"#utility.yul\":15009:15029   */\n      sub\n        /* \"#utility.yul\":15004:15007   */\n      dup10\n        /* \"#utility.yul\":14997:15030   */\n      mstore\n        /* \"#utility.yul\":15070:15076   */\n      dup2\n        /* \"#utility.yul\":15064:15077   */\n      mload\n        /* \"#utility.yul\":15098:15214   */\n      tag_306\n        /* \"#utility.yul\":15209:15213   */\n      dup6\n        /* \"#utility.yul\":15194:15207   */\n      dup3\n        /* \"#utility.yul\":15098:15214   */\n      tag_136\n      jump\t// in\n    tag_306:\n        /* \"#utility.yul\":15090:15214   */\n      swap5\n      pop\n        /* \"#utility.yul\":15237:15323   */\n      tag_307\n        /* \"#utility.yul\":15316:15322   */\n      dup4\n        /* \"#utility.yul\":15237:15323   */\n      tag_137\n      jump\t// in\n    tag_307:\n        /* \"#utility.yul\":15227:15323   */\n      swap3\n      pop\n        /* \"#utility.yul\":15352:15356   */\n      0x20\n        /* \"#utility.yul\":15347:15350   */\n      dup11\n        /* \"#utility.yul\":15343:15357   */\n      add\n        /* \"#utility.yul\":15336:15357   */\n      swap10\n      pop\n        /* \"#utility.yul\":14983:15367   */\n      pop\n        /* \"#utility.yul\":14970:14971   */\n      0x01\n        /* \"#utility.yul\":14967:14968   */\n      dup2\n        /* \"#utility.yul\":14963:14972   */\n      add\n        /* \"#utility.yul\":14958:14972   */\n      swap1\n      pop\n        /* \"#utility.yul\":14923:15367   */\n      jump(tag_303)\n    tag_305:\n        /* \"#utility.yul\":14927:14941   */\n      pop\n        /* \"#utility.yul\":15383:15387   */\n      dup3\n        /* \"#utility.yul\":15376:15387   */\n      swap8\n      pop\n        /* \"#utility.yul\":15403:15406   */\n      dup8\n        /* \"#utility.yul\":15396:15406   */\n      swap6\n      pop\n        /* \"#utility.yul\":14469:15412   */\n      pop\n      pop\n      pop\n      pop\n      pop\n        /* \"#utility.yul\":14293:15412   */\n      swap3\n      swap2\n      pop\n      pop\n      jump\t// out\n        /* \"#utility.yul\":15418:15895   */\n    tag_42:\n        /* \"#utility.yul\":15613:15617   */\n      0x00\n        /* \"#utility.yul\":15651:15653   */\n      0x20\n        /* \"#utility.yul\":15640:15649   */\n      dup3\n        /* \"#utility.yul\":15636:15654   */\n      add\n        /* \"#utility.yul\":15628:15654   */\n      swap1\n      pop\n        /* \"#utility.yul\":15700:15709   */\n      dup2\n        /* \"#utility.yul\":15694:15698   */\n      dup2\n        /* \"#utility.yul\":15690:15710   */\n      sub\n        /* \"#utility.yul\":15686:15687   */\n      0x00\n        /* \"#utility.yul\":15675:15684   */\n      dup4\n        /* \"#utility.yul\":15671:15688   */\n      add\n        /* \"#utility.yul\":15664:15711   */\n      mstore\n        /* \"#utility.yul\":15728:15888   */\n      tag_309\n        /* \"#utility.yul\":15883:15887   */\n      dup2\n        /* \"#utility.yul\":15874:15880   */\n      dup5\n        /* \"#utility.yul\":15728:15888   */\n      tag_138\n      jump\t// in\n    tag_309:\n        /* \"#utility.yul\":15720:15888   */\n      swap1\n      pop\n        /* \"#utility.yul\":15418:15895   */\n      swap3\n      swap2\n      pop\n      pop\n      jump\t// out\n        /* \"#utility.yul\":15901:16023   */\n    tag_139:\n        /* \"#utility.yul\":15974:15998   */\n      tag_311\n        /* \"#utility.yul\":15992:15997   */\n      dup2\n        /* \"#utility.yul\":15974:15998   */\n      tag_121\n      jump\t// in\n    tag_311:\n        /* \"#utility.yul\":15967:15972   */\n      dup2\n        /* \"#utility.yul\":15964:15999   */\n      eq\n        /* \"#utility.yul\":15954:16017   */\n      tag_312\n      jumpi\n        /* \"#utility.yul\":16013:16014   */\n      0x00\n        /* \"#utility.yul\":16010:16011   */\n      dup1\n        /* \"#utility.yul\":16003:16015   */\n      revert\n        /* \"#utility.yul\":15954:16017   */\n    tag_312:\n        /* \"#utility.yul\":15901:16023   */\n      pop\n      jump\t// out\n        /* \"#utility.yul\":16029:16168   */\n    tag_140:\n        /* \"#utility.yul\":16075:16080   */\n      0x00\n        /* \"#utility.yul\":16113:16119   */\n      dup2\n        /* \"#utility.yul\":16100:16120   */\n      calldataload\n        /* \"#utility.yul\":16091:16120   */\n      swap1\n      pop\n        /* \"#utility.yul\":16129:16162   */\n      tag_314\n        /* \"#utility.yul\":16156:16161   */\n      dup2\n        /* \"#utility.yul\":16129:16162   */\n      tag_139\n      jump\t// in\n    tag_314:\n        /* \"#utility.yul\":16029:16168   */\n      swap3\n      swap2\n      pop\n      pop\n      jump\t// out\n        /* \"#utility.yul\":16174:16503   */\n    tag_45:\n        /* \"#utility.yul\":16233:16239   */\n      0x00\n        /* \"#utility.yul\":16282:16284   */\n      0x20\n        /* \"#utility.yul\":16270:16279   */\n      dup3\n        /* \"#utility.yul\":16261:16268   */\n      dup5\n        /* \"#utility.yul\":16257:16280   */\n      sub\n        /* \"#utility.yul\":16253:16285   */\n      slt\n        /* \"#utility.yul\":16250:16369   */\n      iszero\n      tag_316\n      jumpi\n        /* \"#utility.yul\":16288:16367   */\n      tag_317\n      tag_92\n      jump\t// in\n    tag_317:\n        /* \"#utility.yul\":16250:16369   */\n    tag_316:\n        /* \"#utility.yul\":16408:16409   */\n      0x00\n        /* \"#utility.yul\":16433:16486   */\n      tag_318\n        /* \"#utility.yul\":16478:16485   */\n      dup5\n        /* \"#utility.yul\":16469:16475   */\n      dup3\n        /* \"#utility.yul\":16458:16467   */\n      dup6\n        /* \"#utility.yul\":16454:16476   */\n      add\n        /* \"#utility.yul\":16433:16486   */\n      tag_140\n      jump\t// in\n    tag_318:\n        /* \"#utility.yul\":16423:16486   */\n      swap2\n      pop\n        /* \"#utility.yul\":16379:16496   */\n      pop\n        /* \"#utility.yul\":16174:16503   */\n      swap3\n      swap2\n      pop\n      pop\n      jump\t// out\n        /* \"#utility.yul\":16549:18208   */\n    tag_141:\n        /* \"#utility.yul\":16666:16669   */\n      0x00\n        /* \"#utility.yul\":16702:16706   */\n      0xe0\n        /* \"#utility.yul\":16697:16700   */\n      dup4\n        /* \"#utility.yul\":16693:16707   */\n      add\n        /* \"#utility.yul\":16792:16796   */\n      0x00\n        /* \"#utility.yul\":16785:16790   */\n      dup4\n        /* \"#utility.yul\":16781:16797   */\n      add\n        /* \"#utility.yul\":16775:16798   */\n      mload\n        /* \"#utility.yul\":16811:16874   */\n      tag_320\n        /* \"#utility.yul\":16868:16872   */\n      0x00\n        /* \"#utility.yul\":16863:16866   */\n      dup7\n        /* \"#utility.yul\":16859:16873   */\n      add\n        /* \"#utility.yul\":16845:16857   */\n      dup3\n        /* \"#utility.yul\":16811:16874   */\n      tag_116\n      jump\t// in\n    tag_320:\n        /* \"#utility.yul\":16717:16884   */\n      pop\n        /* \"#utility.yul\":16970:16974   */\n      0x20\n        /* \"#utility.yul\":16963:16968   */\n      dup4\n        /* \"#utility.yul\":16959:16975   */\n      add\n        /* \"#utility.yul\":16953:16976   */\n      mload\n        /* \"#utility.yul\":17023:17026   */\n      dup5\n        /* \"#utility.yul\":17017:17021   */\n      dup3\n        /* \"#utility.yul\":17013:17027   */\n      sub\n        /* \"#utility.yul\":17006:17010   */\n      0x20\n        /* \"#utility.yul\":17001:17004   */\n      dup7\n        /* \"#utility.yul\":16997:17011   */\n      add\n        /* \"#utility.yul\":16990:17028   */\n      mstore\n        /* \"#utility.yul\":17049:17122   */\n      tag_321\n        /* \"#utility.yul\":17117:17121   */\n      dup3\n        /* \"#utility.yul\":17103:17115   */\n      dup3\n        /* \"#utility.yul\":17049:17122   */\n      tag_120\n      jump\t// in\n    tag_321:\n        /* \"#utility.yul\":17041:17122   */\n      swap2\n      pop\n        /* \"#utility.yul\":16894:17133   */\n      pop\n        /* \"#utility.yul\":17222:17226   */\n      0x40\n        /* \"#utility.yul\":17215:17220   */\n      dup4\n        /* \"#utility.yul\":17211:17227   */\n      add\n        /* \"#utility.yul\":17205:17228   */\n      mload\n        /* \"#utility.yul\":17241:17304   */\n      tag_322\n        /* \"#utility.yul\":17298:17302   */\n      0x40\n        /* \"#utility.yul\":17293:17296   */\n      dup7\n        /* \"#utility.yul\":17289:17303   */\n      add\n        /* \"#utility.yul\":17275:17287   */\n      dup3\n        /* \"#utility.yul\":17241:17304   */\n      tag_122\n      jump\t// in\n    tag_322:\n        /* \"#utility.yul\":17143:17314   */\n      pop\n        /* \"#utility.yul\":17402:17406   */\n      0x60\n        /* \"#utility.yul\":17395:17400   */\n      dup4\n        /* \"#utility.yul\":17391:17407   */\n      add\n        /* \"#utility.yul\":17385:17408   */\n      mload\n        /* \"#utility.yul\":17455:17458   */\n      dup5\n        /* \"#utility.yul\":17449:17453   */\n      dup3\n        /* \"#utility.yul\":17445:17459   */\n      sub\n        /* \"#utility.yul\":17438:17442   */\n      0x60\n        /* \"#utility.yul\":17433:17436   */\n      dup7\n        /* \"#utility.yul\":17429:17443   */\n      add\n        /* \"#utility.yul\":17422:17460   */\n      mstore\n        /* \"#utility.yul\":17481:17554   */\n      tag_323\n        /* \"#utility.yul\":17549:17553   */\n      dup3\n        /* \"#utility.yul\":17535:17547   */\n      dup3\n        /* \"#utility.yul\":17481:17554   */\n      tag_120\n      jump\t// in\n    tag_323:\n        /* \"#utility.yul\":17473:17554   */\n      swap2\n      pop\n        /* \"#utility.yul\":17324:17565   */\n      pop\n        /* \"#utility.yul\":17654:17658   */\n      0x80\n        /* \"#utility.yul\":17647:17652   */\n      dup4\n        /* \"#utility.yul\":17643:17659   */\n      add\n        /* \"#utility.yul\":17637:17660   */\n      mload\n        /* \"#utility.yul\":17673:17736   */\n      tag_324\n        /* \"#utility.yul\":17730:17734   */\n      0x80\n        /* \"#utility.yul\":17725:17728   */\n      dup7\n        /* \"#utility.yul\":17721:17735   */\n      add\n        /* \"#utility.yul\":17707:17719   */\n      dup3\n        /* \"#utility.yul\":17673:17736   */\n      tag_116\n      jump\t// in\n    tag_324:\n        /* \"#utility.yul\":17575:17746   */\n      pop\n        /* \"#utility.yul\":17838:17842   */\n      0xa0\n        /* \"#utility.yul\":17831:17836   */\n      dup4\n        /* \"#utility.yul\":17827:17843   */\n      add\n        /* \"#utility.yul\":17821:17844   */\n      mload\n        /* \"#utility.yul\":17891:17894   */\n      dup5\n        /* \"#utility.yul\":17885:17889   */\n      dup3\n        /* \"#utility.yul\":17881:17895   */\n      sub\n        /* \"#utility.yul\":17874:17878   */\n      0xa0\n        /* \"#utility.yul\":17869:17872   */\n      dup7\n        /* \"#utility.yul\":17865:17879   */\n      add\n        /* \"#utility.yul\":17858:17896   */\n      mstore\n        /* \"#utility.yul\":17917:17990   */\n      tag_325\n        /* \"#utility.yul\":17985:17989   */\n      dup3\n        /* \"#utility.yul\":17971:17983   */\n      dup3\n        /* \"#utility.yul\":17917:17990   */\n      tag_120\n      jump\t// in\n    tag_325:\n        /* \"#utility.yul\":17909:17990   */\n      swap2\n      pop\n        /* \"#utility.yul\":17756:18001   */\n      pop\n        /* \"#utility.yul\":18095:18099   */\n      0xc0\n        /* \"#utility.yul\":18088:18093   */\n      dup4\n        /* \"#utility.yul\":18084:18100   */\n      add\n        /* \"#utility.yul\":18078:18101   */\n      mload\n        /* \"#utility.yul\":18114:18171   */\n      tag_326\n        /* \"#utility.yul\":18165:18169   */\n      0xc0\n        /* \"#utility.yul\":18160:18163   */\n      dup7\n        /* \"#utility.yul\":18156:18170   */\n      add\n        /* \"#utility.yul\":18142:18154   */\n      dup3\n        /* \"#utility.yul\":18114:18171   */\n      tag_124\n      jump\t// in\n    tag_326:\n        /* \"#utility.yul\":18011:18181   */\n      pop\n        /* \"#utility.yul\":18198:18202   */\n      dup1\n        /* \"#utility.yul\":18191:18202   */\n      swap2\n      pop\n        /* \"#utility.yul\":16671:18208   */\n      pop\n        /* \"#utility.yul\":16549:18208   */\n      swap3\n      swap2\n      pop\n      pop\n      jump\t// out\n        /* \"#utility.yul\":18214:18583   */\n    tag_51:\n        /* \"#utility.yul\":18355:18359   */\n      0x00\n        /* \"#utility.yul\":18393:18395   */\n      0x20\n        /* \"#utility.yul\":18382:18391   */\n      dup3\n        /* \"#utility.yul\":18378:18396   */\n      add\n        /* \"#utility.yul\":18370:18396   */\n      swap1\n      pop\n        /* \"#utility.yul\":18442:18451   */\n      dup2\n        /* \"#utility.yul\":18436:18440   */\n      dup2\n        /* \"#utility.yul\":18432:18452   */\n      sub\n        /* \"#utility.yul\":18428:18429   */\n      0x00\n        /* \"#utility.yul\":18417:18426   */\n      dup4\n        /* \"#utility.yul\":18413:18430   */\n      add\n        /* \"#utility.yul\":18406:18453   */\n      mstore\n        /* \"#utility.yul\":18470:18576   */\n      tag_328\n        /* \"#utility.yul\":18571:18575   */\n      dup2\n        /* \"#utility.yul\":18562:18568   */\n      dup5\n        /* \"#utility.yul\":18470:18576   */\n      tag_141\n      jump\t// in\n    tag_328:\n        /* \"#utility.yul\":18462:18576   */\n      swap1\n      pop\n        /* \"#utility.yul\":18214:18583   */\n      swap3\n      swap2\n      pop\n      pop\n      jump\t// out\n        /* \"#utility.yul\":18633:19442   */\n    tag_142:\n        /* \"#utility.yul\":18754:18757   */\n      0x00\n        /* \"#utility.yul\":18790:18794   */\n      0x60\n        /* \"#utility.yul\":18785:18788   */\n      dup4\n        /* \"#utility.yul\":18781:18795   */\n      add\n        /* \"#utility.yul\":18884:18888   */\n      0x00\n        /* \"#utility.yul\":18877:18882   */\n      dup4\n        /* \"#utility.yul\":18873:18889   */\n      add\n        /* \"#utility.yul\":18867:18890   */\n      mload\n        /* \"#utility.yul\":18903:18966   */\n      tag_330\n        /* \"#utility.yul\":18960:18964   */\n      0x00\n        /* \"#utility.yul\":18955:18958   */\n      dup7\n        /* \"#utility.yul\":18951:18965   */\n      add\n        /* \"#utility.yul\":18937:18949   */\n      dup3\n        /* \"#utility.yul\":18903:18966   */\n      tag_116\n      jump\t// in\n    tag_330:\n        /* \"#utility.yul\":18805:18976   */\n      pop\n        /* \"#utility.yul\":19070:19074   */\n      0x20\n        /* \"#utility.yul\":19063:19068   */\n      dup4\n        /* \"#utility.yul\":19059:19075   */\n      add\n        /* \"#utility.yul\":19053:19076   */\n      mload\n        /* \"#utility.yul\":19123:19126   */\n      dup5\n        /* \"#utility.yul\":19117:19121   */\n      dup3\n        /* \"#utility.yul\":19113:19127   */\n      sub\n        /* \"#utility.yul\":19106:19110   */\n      0x20\n        /* \"#utility.yul\":19101:19104   */\n      dup7\n        /* \"#utility.yul\":19097:19111   */\n      add\n        /* \"#utility.yul\":19090:19128   */\n      mstore\n        /* \"#utility.yul\":19149:19222   */\n      tag_331\n        /* \"#utility.yul\":19217:19221   */\n      dup3\n        /* \"#utility.yul\":19203:19215   */\n      dup3\n        /* \"#utility.yul\":19149:19222   */\n      tag_120\n      jump\t// in\n    tag_331:\n        /* \"#utility.yul\":19141:19222   */\n      swap2\n      pop\n        /* \"#utility.yul\":18986:19233   */\n      pop\n        /* \"#utility.yul\":19329:19333   */\n      0x40\n        /* \"#utility.yul\":19322:19327   */\n      dup4\n        /* \"#utility.yul\":19318:19334   */\n      add\n        /* \"#utility.yul\":19312:19335   */\n      mload\n        /* \"#utility.yul\":19348:19405   */\n      tag_332\n        /* \"#utility.yul\":19399:19403   */\n      0x40\n        /* \"#utility.yul\":19394:19397   */\n      dup7\n        /* \"#utility.yul\":19390:19404   */\n      add\n        /* \"#utility.yul\":19376:19388   */\n      dup3\n        /* \"#utility.yul\":19348:19405   */\n      tag_124\n      jump\t// in\n    tag_332:\n        /* \"#utility.yul\":19243:19415   */\n      pop\n        /* \"#utility.yul\":19432:19436   */\n      dup1\n        /* \"#utility.yul\":19425:19436   */\n      swap2\n      pop\n        /* \"#utility.yul\":18759:19442   */\n      pop\n        /* \"#utility.yul\":18633:19442   */\n      swap3\n      swap2\n      pop\n      pop\n      jump\t// out\n        /* \"#utility.yul\":19448:19825   */\n    tag_57:\n        /* \"#utility.yul\":19593:19597   */\n      0x00\n        /* \"#utility.yul\":19631:19633   */\n      0x20\n        /* \"#utility.yul\":19620:19629   */\n      dup3\n        /* \"#utility.yul\":19616:19634   */\n      add\n        /* \"#utility.yul\":19608:19634   */\n      swap1\n      pop\n        /* \"#utility.yul\":19680:19689   */\n      dup2\n        /* \"#utility.yul\":19674:19678   */\n      dup2\n        /* \"#utility.yul\":19670:19690   */\n      sub\n        /* \"#utility.yul\":19666:19667   */\n      0x00\n        /* \"#utility.yul\":19655:19664   */\n      dup4\n        /* \"#utility.yul\":19651:19668   */\n      add\n        /* \"#utility.yul\":19644:19691   */\n      mstore\n        /* \"#utility.yul\":19708:19818   */\n      tag_334\n        /* \"#utility.yul\":19813:19817   */\n      dup2\n        /* \"#utility.yul\":19804:19810   */\n      dup5\n        /* \"#utility.yul\":19708:19818   */\n      tag_142\n      jump\t// in\n    tag_334:\n        /* \"#utility.yul\":19700:19818   */\n      swap1\n      pop\n        /* \"#utility.yul\":19448:19825   */\n      swap3\n      swap2\n      pop\n      pop\n      jump\t// out\n        /* \"#utility.yul\":19831:20166   */\n    tag_143:\n        /* \"#utility.yul\":19932:19936   */\n      0x00\n        /* \"#utility.yul\":20022:20040   */\n      0xffffffffffffffff\n        /* \"#utility.yul\":20014:20020   */\n      dup3\n        /* \"#utility.yul\":20011:20041   */\n      gt\n        /* \"#utility.yul\":20008:20064   */\n      iszero\n      tag_336\n      jumpi\n        /* \"#utility.yul\":20044:20062   */\n      tag_337\n      tag_97\n      jump\t// in\n    tag_337:\n        /* \"#utility.yul\":20008:20064   */\n    tag_336:\n        /* \"#utility.yul\":20094:20098   */\n      0x20\n        /* \"#utility.yul\":20086:20092   */\n      dup3\n        /* \"#utility.yul\":20082:20099   */\n      mul\n        /* \"#utility.yul\":20074:20099   */\n      swap1\n      pop\n        /* \"#utility.yul\":20154:20158   */\n      0x20\n        /* \"#utility.yul\":20148:20152   */\n      dup2\n        /* \"#utility.yul\":20144:20159   */\n      add\n        /* \"#utility.yul\":20136:20159   */\n      swap1\n      pop\n        /* \"#utility.yul\":19831:20166   */\n      swap2\n      swap1\n      pop\n      jump\t// out\n        /* \"#utility.yul\":20172:20289   */\n    tag_144:\n        /* \"#utility.yul\":20281:20282   */\n      0x00\n        /* \"#utility.yul\":20278:20279   */\n      dup1\n        /* \"#utility.yul\":20271:20283   */\n      revert\n        /* \"#utility.yul\":20295:20412   */\n    tag_145:\n        /* \"#utility.yul\":20404:20405   */\n      0x00\n        /* \"#utility.yul\":20401:20402   */\n      dup1\n        /* \"#utility.yul\":20394:20406   */\n      revert\n        /* \"#utility.yul\":20418:20535   */\n    tag_146:\n        /* \"#utility.yul\":20527:20528   */\n      0x00\n        /* \"#utility.yul\":20524:20525   */\n      dup1\n        /* \"#utility.yul\":20517:20529   */\n      revert\n        /* \"#utility.yul\":20541:20684   */\n    tag_147:\n        /* \"#utility.yul\":20598:20603   */\n      0x00\n        /* \"#utility.yul\":20629:20635   */\n      dup2\n        /* \"#utility.yul\":20623:20636   */\n      mload\n        /* \"#utility.yul\":20614:20636   */\n      swap1\n      pop\n        /* \"#utility.yul\":20645:20678   */\n      tag_342\n        /* \"#utility.yul\":20672:20677   */\n      dup2\n        /* \"#utility.yul\":20645:20678   */\n      tag_105\n      jump\t// in\n    tag_342:\n        /* \"#utility.yul\":20541:20684   */\n      swap3\n      swap2\n      pop\n      pop\n      jump\t// out\n        /* \"#utility.yul\":20690:21124   */\n    tag_148:\n        /* \"#utility.yul\":20779:20784   */\n      0x00\n        /* \"#utility.yul\":20804:20870   */\n      tag_344\n        /* \"#utility.yul\":20820:20869   */\n      tag_345\n        /* \"#utility.yul\":20862:20868   */\n      dup5\n        /* \"#utility.yul\":20820:20869   */\n      tag_100\n      jump\t// in\n    tag_345:\n        /* \"#utility.yul\":20804:20870   */\n      tag_99\n      jump\t// in\n    tag_344:\n        /* \"#utility.yul\":20795:20870   */\n      swap1\n      pop\n        /* \"#utility.yul\":20893:20899   */\n      dup3\n        /* \"#utility.yul\":20886:20891   */\n      dup2\n        /* \"#utility.yul\":20879:20900   */\n      mstore\n        /* \"#utility.yul\":20931:20935   */\n      0x20\n        /* \"#utility.yul\":20924:20929   */\n      dup2\n        /* \"#utility.yul\":20920:20936   */\n      add\n        /* \"#utility.yul\":20969:20972   */\n      dup5\n        /* \"#utility.yul\":20960:20966   */\n      dup5\n        /* \"#utility.yul\":20955:20958   */\n      dup5\n        /* \"#utility.yul\":20951:20967   */\n      add\n        /* \"#utility.yul\":20948:20973   */\n      gt\n        /* \"#utility.yul\":20945:21057   */\n      iszero\n      tag_346\n      jumpi\n        /* \"#utility.yul\":20976:21055   */\n      tag_347\n      tag_95\n      jump\t// in\n    tag_347:\n        /* \"#utility.yul\":20945:21057   */\n    tag_346:\n        /* \"#utility.yul\":21066:21118   */\n      tag_348\n        /* \"#utility.yul\":21111:21117   */\n      dup5\n        /* \"#utility.yul\":21106:21109   */\n      dup3\n        /* \"#utility.yul\":21101:21104   */\n      dup6\n        /* \"#utility.yul\":21066:21118   */\n      tag_119\n      jump\t// in\n    tag_348:\n        /* \"#utility.yul\":20785:21124   */\n      pop\n        /* \"#utility.yul\":20690:21124   */\n      swap4\n      swap3\n      pop\n      pop\n      pop\n      jump\t// out\n        /* \"#utility.yul\":21144:21499   */\n    tag_149:\n        /* \"#utility.yul\":21211:21216   */\n      0x00\n        /* \"#utility.yul\":21260:21263   */\n      dup3\n        /* \"#utility.yul\":21253:21257   */\n      0x1f\n        /* \"#utility.yul\":21245:21251   */\n      dup4\n        /* \"#utility.yul\":21241:21258   */\n      add\n        /* \"#utility.yul\":21237:21264   */\n      slt\n        /* \"#utility.yul\":21227:21349   */\n      tag_350\n      jumpi\n        /* \"#utility.yul\":21268:21347   */\n      tag_351\n      tag_94\n      jump\t// in\n    tag_351:\n        /* \"#utility.yul\":21227:21349   */\n    tag_350:\n        /* \"#utility.yul\":21378:21384   */\n      dup2\n        /* \"#utility.yul\":21372:21385   */\n      mload\n        /* \"#utility.yul\":21403:21493   */\n      tag_352\n        /* \"#utility.yul\":21489:21492   */\n      dup5\n        /* \"#utility.yul\":21481:21487   */\n      dup3\n        /* \"#utility.yul\":21474:21478   */\n      0x20\n        /* \"#utility.yul\":21466:21472   */\n      dup7\n        /* \"#utility.yul\":21462:21479   */\n      add\n        /* \"#utility.yul\":21403:21493   */\n      tag_148\n      jump\t// in\n    tag_352:\n        /* \"#utility.yul\":21394:21493   */\n      swap2\n      pop\n        /* \"#utility.yul\":21217:21499   */\n      pop\n        /* \"#utility.yul\":21144:21499   */\n      swap3\n      swap2\n      pop\n      pop\n      jump\t// out\n        /* \"#utility.yul\":21505:21648   */\n    tag_150:\n        /* \"#utility.yul\":21562:21567   */\n      0x00\n        /* \"#utility.yul\":21593:21599   */\n      dup2\n        /* \"#utility.yul\":21587:21600   */\n      mload\n        /* \"#utility.yul\":21578:21600   */\n      swap1\n      pop\n        /* \"#utility.yul\":21609:21642   */\n      tag_354\n        /* \"#utility.yul\":21636:21641   */\n      dup2\n        /* \"#utility.yul\":21609:21642   */\n      tag_139\n      jump\t// in\n    tag_354:\n        /* \"#utility.yul\":21505:21648   */\n      swap3\n      swap2\n      pop\n      pop\n      jump\t// out\n        /* \"#utility.yul\":21654:21770   */\n    tag_151:\n        /* \"#utility.yul\":21724:21745   */\n      tag_356\n        /* \"#utility.yul\":21739:21744   */\n      dup2\n        /* \"#utility.yul\":21724:21745   */\n      tag_123\n      jump\t// in\n    tag_356:\n        /* \"#utility.yul\":21717:21722   */\n      dup2\n        /* \"#utility.yul\":21714:21746   */\n      eq\n        /* \"#utility.yul\":21704:21764   */\n      tag_357\n      jumpi\n        /* \"#utility.yul\":21760:21761   */\n      0x00\n        /* \"#utility.yul\":21757:21758   */\n      dup1\n        /* \"#utility.yul\":21750:21762   */\n      revert\n        /* \"#utility.yul\":21704:21764   */\n    tag_357:\n        /* \"#utility.yul\":21654:21770   */\n      pop\n      jump\t// out\n        /* \"#utility.yul\":21776:21913   */\n    tag_152:\n        /* \"#utility.yul\":21830:21835   */\n      0x00\n        /* \"#utility.yul\":21861:21867   */\n      dup2\n        /* \"#utility.yul\":21855:21868   */\n      mload\n        /* \"#utility.yul\":21846:21868   */\n      swap1\n      pop\n        /* \"#utility.yul\":21877:21907   */\n      tag_359\n        /* \"#utility.yul\":21901:21906   */\n      dup2\n        /* \"#utility.yul\":21877:21907   */\n      tag_151\n      jump\t// in\n    tag_359:\n        /* \"#utility.yul\":21776:21913   */\n      swap3\n      swap2\n      pop\n      pop\n      jump\t// out\n        /* \"#utility.yul\":21941:23945   */\n    tag_153:\n        /* \"#utility.yul\":22025:22030   */\n      0x00\n        /* \"#utility.yul\":22069:22073   */\n      0xe0\n        /* \"#utility.yul\":22057:22066   */\n      dup3\n        /* \"#utility.yul\":22052:22055   */\n      dup5\n        /* \"#utility.yul\":22048:22067   */\n      sub\n        /* \"#utility.yul\":22044:22074   */\n      slt\n        /* \"#utility.yul\":22041:22158   */\n      iszero\n      tag_361\n      jumpi\n        /* \"#utility.yul\":22077:22156   */\n      tag_362\n      tag_145\n      jump\t// in\n    tag_362:\n        /* \"#utility.yul\":22041:22158   */\n    tag_361:\n        /* \"#utility.yul\":22176:22197   */\n      tag_363\n        /* \"#utility.yul\":22192:22196   */\n      0xe0\n        /* \"#utility.yul\":22176:22197   */\n      tag_99\n      jump\t// in\n    tag_363:\n        /* \"#utility.yul\":22167:22197   */\n      swap1\n      pop\n        /* \"#utility.yul\":22259:22260   */\n      0x00\n        /* \"#utility.yul\":22299:22359   */\n      tag_364\n        /* \"#utility.yul\":22355:22358   */\n      dup5\n        /* \"#utility.yul\":22346:22352   */\n      dup3\n        /* \"#utility.yul\":22335:22344   */\n      dup6\n        /* \"#utility.yul\":22331:22353   */\n      add\n        /* \"#utility.yul\":22299:22359   */\n      tag_147\n      jump\t// in\n    tag_364:\n        /* \"#utility.yul\":22292:22296   */\n      0x00\n        /* \"#utility.yul\":22285:22290   */\n      dup4\n        /* \"#utility.yul\":22281:22297   */\n      add\n        /* \"#utility.yul\":22274:22360   */\n      mstore\n        /* \"#utility.yul\":22207:22371   */\n      pop\n        /* \"#utility.yul\":22455:22457   */\n      0x20\n        /* \"#utility.yul\":22444:22453   */\n      dup3\n        /* \"#utility.yul\":22440:22458   */\n      add\n        /* \"#utility.yul\":22434:22459   */\n      mload\n        /* \"#utility.yul\":22486:22504   */\n      0xffffffffffffffff\n        /* \"#utility.yul\":22478:22484   */\n      dup2\n        /* \"#utility.yul\":22475:22505   */\n      gt\n        /* \"#utility.yul\":22472:22589   */\n      iszero\n      tag_365\n      jumpi\n        /* \"#utility.yul\":22508:22587   */\n      tag_366\n      tag_146\n      jump\t// in\n    tag_366:\n        /* \"#utility.yul\":22472:22589   */\n    tag_365:\n        /* \"#utility.yul\":22628:22698   */\n      tag_367\n        /* \"#utility.yul\":22694:22697   */\n      dup5\n        /* \"#utility.yul\":22685:22691   */\n      dup3\n        /* \"#utility.yul\":22674:22683   */\n      dup6\n        /* \"#utility.yul\":22670:22692   */\n      add\n        /* \"#utility.yul\":22628:22698   */\n      tag_149\n      jump\t// in\n    tag_367:\n        /* \"#utility.yul\":22621:22625   */\n      0x20\n        /* \"#utility.yul\":22614:22619   */\n      dup4\n        /* \"#utility.yul\":22610:22626   */\n      add\n        /* \"#utility.yul\":22603:22699   */\n      mstore\n        /* \"#utility.yul\":22381:22710   */\n      pop\n        /* \"#utility.yul\":22776:22778   */\n      0x40\n        /* \"#utility.yul\":22817:22877   */\n      tag_368\n        /* \"#utility.yul\":22873:22876   */\n      dup5\n        /* \"#utility.yul\":22864:22870   */\n      dup3\n        /* \"#utility.yul\":22853:22862   */\n      dup6\n        /* \"#utility.yul\":22849:22871   */\n      add\n        /* \"#utility.yul\":22817:22877   */\n      tag_150\n      jump\t// in\n    tag_368:\n        /* \"#utility.yul\":22810:22814   */\n      0x40\n        /* \"#utility.yul\":22803:22808   */\n      dup4\n        /* \"#utility.yul\":22799:22815   */\n      add\n        /* \"#utility.yul\":22792:22878   */\n      mstore\n        /* \"#utility.yul\":22720:22889   */\n      pop\n        /* \"#utility.yul\":22975:22977   */\n      0x60\n        /* \"#utility.yul\":22964:22973   */\n      dup3\n        /* \"#utility.yul\":22960:22978   */\n      add\n        /* \"#utility.yul\":22954:22979   */\n      mload\n        /* \"#utility.yul\":23006:23024   */\n      0xffffffffffffffff\n        /* \"#utility.yul\":22998:23004   */\n      dup2\n        /* \"#utility.yul\":22995:23025   */\n      gt\n        /* \"#utility.yul\":22992:23109   */\n      iszero\n      tag_369\n      jumpi\n        /* \"#utility.yul\":23028:23107   */\n      tag_370\n      tag_146\n      jump\t// in\n    tag_370:\n        /* \"#utility.yul\":22992:23109   */\n    tag_369:\n        /* \"#utility.yul\":23148:23218   */\n      tag_371\n        /* \"#utility.yul\":23214:23217   */\n      dup5\n        /* \"#utility.yul\":23205:23211   */\n      dup3\n        /* \"#utility.yul\":23194:23203   */\n      dup6\n        /* \"#utility.yul\":23190:23212   */\n      add\n        /* \"#utility.yul\":23148:23218   */\n      tag_149\n      jump\t// in\n    tag_371:\n        /* \"#utility.yul\":23141:23145   */\n      0x60\n        /* \"#utility.yul\":23134:23139   */\n      dup4\n        /* \"#utility.yul\":23130:23146   */\n      add\n        /* \"#utility.yul\":23123:23219   */\n      mstore\n        /* \"#utility.yul\":22899:23230   */\n      pop\n        /* \"#utility.yul\":23296:23299   */\n      0x80\n        /* \"#utility.yul\":23338:23398   */\n      tag_372\n        /* \"#utility.yul\":23394:23397   */\n      dup5\n        /* \"#utility.yul\":23385:23391   */\n      dup3\n        /* \"#utility.yul\":23374:23383   */\n      dup6\n        /* \"#utility.yul\":23370:23392   */\n      add\n        /* \"#utility.yul\":23338:23398   */\n      tag_147\n      jump\t// in\n    tag_372:\n        /* \"#utility.yul\":23331:23335   */\n      0x80\n        /* \"#utility.yul\":23324:23329   */\n      dup4\n        /* \"#utility.yul\":23320:23336   */\n      add\n        /* \"#utility.yul\":23313:23399   */\n      mstore\n        /* \"#utility.yul\":23240:23410   */\n      pop\n        /* \"#utility.yul\":23500:23503   */\n      0xa0\n        /* \"#utility.yul\":23489:23498   */\n      dup3\n        /* \"#utility.yul\":23485:23504   */\n      add\n        /* \"#utility.yul\":23479:23505   */\n      mload\n        /* \"#utility.yul\":23532:23550   */\n      0xffffffffffffffff\n        /* \"#utility.yul\":23524:23530   */\n      dup2\n        /* \"#utility.yul\":23521:23551   */\n      gt\n        /* \"#utility.yul\":23518:23635   */\n      iszero\n      tag_373\n      jumpi\n        /* \"#utility.yul\":23554:23633   */\n      tag_374\n      tag_146\n      jump\t// in\n    tag_374:\n        /* \"#utility.yul\":23518:23635   */\n    tag_373:\n        /* \"#utility.yul\":23674:23744   */\n      tag_375\n        /* \"#utility.yul\":23740:23743   */\n      dup5\n        /* \"#utility.yul\":23731:23737   */\n      dup3\n        /* \"#utility.yul\":23720:23729   */\n      dup6\n        /* \"#utility.yul\":23716:23738   */\n      add\n        /* \"#utility.yul\":23674:23744   */\n      tag_149\n      jump\t// in\n    tag_375:\n        /* \"#utility.yul\":23667:23671   */\n      0xa0\n        /* \"#utility.yul\":23660:23665   */\n      dup4\n        /* \"#utility.yul\":23656:23672   */\n      add\n        /* \"#utility.yul\":23649:23745   */\n      mstore\n        /* \"#utility.yul\":23420:23756   */\n      pop\n        /* \"#utility.yul\":23827:23830   */\n      0xc0\n        /* \"#utility.yul\":23869:23926   */\n      tag_376\n        /* \"#utility.yul\":23922:23925   */\n      dup5\n        /* \"#utility.yul\":23913:23919   */\n      dup3\n        /* \"#utility.yul\":23902:23911   */\n      dup6\n        /* \"#utility.yul\":23898:23920   */\n      add\n        /* \"#utility.yul\":23869:23926   */\n      tag_152\n      jump\t// in\n    tag_376:\n        /* \"#utility.yul\":23862:23866   */\n      0xc0\n        /* \"#utility.yul\":23855:23860   */\n      dup4\n        /* \"#utility.yul\":23851:23867   */\n      add\n        /* \"#utility.yul\":23844:23927   */\n      mstore\n        /* \"#utility.yul\":23766:23938   */\n      pop\n        /* \"#utility.yul\":21941:23945   */\n      swap3\n      swap2\n      pop\n      pop\n      jump\t// out\n        /* \"#utility.yul\":23975:24977   */\n    tag_154:\n        /* \"#utility.yul\":24106:24111   */\n      0x00\n        /* \"#utility.yul\":24131:24236   */\n      tag_378\n        /* \"#utility.yul\":24147:24235   */\n      tag_379\n        /* \"#utility.yul\":24228:24234   */\n      dup5\n        /* \"#utility.yul\":24147:24235   */\n      tag_143\n      jump\t// in\n    tag_379:\n        /* \"#utility.yul\":24131:24236   */\n      tag_99\n      jump\t// in\n    tag_378:\n        /* \"#utility.yul\":24122:24236   */\n      swap1\n      pop\n        /* \"#utility.yul\":24256:24261   */\n      dup1\n        /* \"#utility.yul\":24285:24291   */\n      dup4\n        /* \"#utility.yul\":24278:24283   */\n      dup3\n        /* \"#utility.yul\":24271:24292   */\n      mstore\n        /* \"#utility.yul\":24319:24323   */\n      0x20\n        /* \"#utility.yul\":24312:24317   */\n      dup3\n        /* \"#utility.yul\":24308:24324   */\n      add\n        /* \"#utility.yul\":24301:24324   */\n      swap1\n      pop\n        /* \"#utility.yul\":24372:24376   */\n      0x20\n        /* \"#utility.yul\":24364:24370   */\n      dup5\n        /* \"#utility.yul\":24360:24377   */\n      mul\n        /* \"#utility.yul\":24352:24358   */\n      dup4\n        /* \"#utility.yul\":24348:24378   */\n      add\n        /* \"#utility.yul\":24401:24404   */\n      dup6\n        /* \"#utility.yul\":24393:24399   */\n      dup2\n        /* \"#utility.yul\":24390:24405   */\n      gt\n        /* \"#utility.yul\":24387:24509   */\n      iszero\n      tag_380\n      jumpi\n        /* \"#utility.yul\":24420:24499   */\n      tag_381\n      tag_144\n      jump\t// in\n    tag_381:\n        /* \"#utility.yul\":24387:24509   */\n    tag_380:\n        /* \"#utility.yul\":24535:24541   */\n      dup4\n        /* \"#utility.yul\":24518:24971   */\n    tag_382:\n        /* \"#utility.yul\":24552:24558   */\n      dup2\n        /* \"#utility.yul\":24547:24550   */\n      dup2\n        /* \"#utility.yul\":24544:24559   */\n      lt\n        /* \"#utility.yul\":24518:24971   */\n      iszero\n      tag_384\n      jumpi\n        /* \"#utility.yul\":24634:24637   */\n      dup1\n        /* \"#utility.yul\":24628:24638   */\n      mload\n        /* \"#utility.yul\":24670:24688   */\n      0xffffffffffffffff\n        /* \"#utility.yul\":24657:24668   */\n      dup2\n        /* \"#utility.yul\":24654:24689   */\n      gt\n        /* \"#utility.yul\":24651:24773   */\n      iszero\n      tag_385\n      jumpi\n        /* \"#utility.yul\":24692:24771   */\n      tag_386\n      tag_94\n      jump\t// in\n    tag_386:\n        /* \"#utility.yul\":24651:24773   */\n    tag_385:\n        /* \"#utility.yul\":24816:24827   */\n      dup1\n        /* \"#utility.yul\":24808:24814   */\n      dup7\n        /* \"#utility.yul\":24804:24828   */\n      add\n        /* \"#utility.yul\":24854:24926   */\n      tag_387\n        /* \"#utility.yul\":24922:24925   */\n      dup10\n        /* \"#utility.yul\":24910:24920   */\n      dup3\n        /* \"#utility.yul\":24854:24926   */\n      tag_153\n      jump\t// in\n    tag_387:\n        /* \"#utility.yul\":24849:24852   */\n      dup6\n        /* \"#utility.yul\":24842:24927   */\n      mstore\n        /* \"#utility.yul\":24956:24960   */\n      0x20\n        /* \"#utility.yul\":24951:24954   */\n      dup6\n        /* \"#utility.yul\":24947:24961   */\n      add\n        /* \"#utility.yul\":24940:24961   */\n      swap5\n      pop\n        /* \"#utility.yul\":24594:24971   */\n      pop\n      pop\n        /* \"#utility.yul\":24578:24582   */\n      0x20\n        /* \"#utility.yul\":24573:24576   */\n      dup2\n        /* \"#utility.yul\":24569:24583   */\n      add\n        /* \"#utility.yul\":24562:24583   */\n      swap1\n      pop\n        /* \"#utility.yul\":24518:24971   */\n      jump(tag_382)\n    tag_384:\n        /* \"#utility.yul\":24522:24543   */\n      pop\n        /* \"#utility.yul\":24112:24977   */\n      pop\n      pop\n        /* \"#utility.yul\":23975:24977   */\n      swap4\n      swap3\n      pop\n      pop\n      pop\n      jump\t// out\n        /* \"#utility.yul\":25007:25440   */\n    tag_155:\n        /* \"#utility.yul\":25113:25118   */\n      0x00\n        /* \"#utility.yul\":25162:25165   */\n      dup3\n        /* \"#utility.yul\":25155:25159   */\n      0x1f\n        /* \"#utility.yul\":25147:25153   */\n      dup4\n        /* \"#utility.yul\":25143:25160   */\n      add\n        /* \"#utility.yul\":25139:25166   */\n      slt\n        /* \"#utility.yul\":25129:25251   */\n      tag_389\n      jumpi\n        /* \"#utility.yul\":25170:25249   */\n      tag_390\n      tag_94\n      jump\t// in\n    tag_390:\n        /* \"#utility.yul\":25129:25251   */\n    tag_389:\n        /* \"#utility.yul\":25280:25286   */\n      dup2\n        /* \"#utility.yul\":25274:25287   */\n      mload\n        /* \"#utility.yul\":25305:25434   */\n      tag_391\n        /* \"#utility.yul\":25430:25433   */\n      dup5\n        /* \"#utility.yul\":25422:25428   */\n      dup3\n        /* \"#utility.yul\":25415:25419   */\n      0x20\n        /* \"#utility.yul\":25407:25413   */\n      dup7\n        /* \"#utility.yul\":25403:25420   */\n      add\n        /* \"#utility.yul\":25305:25434   */\n      tag_154\n      jump\t// in\n    tag_391:\n        /* \"#utility.yul\":25296:25434   */\n      swap2\n      pop\n        /* \"#utility.yul\":25119:25440   */\n      pop\n        /* \"#utility.yul\":25007:25440   */\n      swap3\n      swap2\n      pop\n      pop\n      jump\t// out\n        /* \"#utility.yul\":25446:26048   */\n    tag_65:\n        /* \"#utility.yul\":25565:25571   */\n      0x00\n        /* \"#utility.yul\":25614:25616   */\n      0x20\n        /* \"#utility.yul\":25602:25611   */\n      dup3\n        /* \"#utility.yul\":25593:25600   */\n      dup5\n        /* \"#utility.yul\":25589:25612   */\n      sub\n        /* \"#utility.yul\":25585:25617   */\n      slt\n        /* \"#utility.yul\":25582:25701   */\n      iszero\n      tag_393\n      jumpi\n        /* \"#utility.yul\":25620:25699   */\n      tag_394\n      tag_92\n      jump\t// in\n    tag_394:\n        /* \"#utility.yul\":25582:25701   */\n    tag_393:\n        /* \"#utility.yul\":25761:25762   */\n      0x00\n        /* \"#utility.yul\":25750:25759   */\n      dup3\n        /* \"#utility.yul\":25746:25763   */\n      add\n        /* \"#utility.yul\":25740:25764   */\n      mload\n        /* \"#utility.yul\":25791:25809   */\n      0xffffffffffffffff\n        /* \"#utility.yul\":25783:25789   */\n      dup2\n        /* \"#utility.yul\":25780:25810   */\n      gt\n        /* \"#utility.yul\":25777:25894   */\n      iszero\n      tag_395\n      jumpi\n        /* \"#utility.yul\":25813:25892   */\n      tag_396\n      tag_93\n      jump\t// in\n    tag_396:\n        /* \"#utility.yul\":25777:25894   */\n    tag_395:\n        /* \"#utility.yul\":25918:26031   */\n      tag_397\n        /* \"#utility.yul\":26023:26030   */\n      dup5\n        /* \"#utility.yul\":26014:26020   */\n      dup3\n        /* \"#utility.yul\":26003:26012   */\n      dup6\n        /* \"#utility.yul\":25999:26021   */\n      add\n        /* \"#utility.yul\":25918:26031   */\n      tag_155\n      jump\t// in\n    tag_397:\n        /* \"#utility.yul\":25908:26031   */\n      swap2\n      pop\n        /* \"#utility.yul\":25711:26041   */\n      pop\n        /* \"#utility.yul\":25446:26048   */\n      swap3\n      swap2\n      pop\n      pop\n      jump\t// out\n        /* \"#utility.yul\":26054:26391   */\n    tag_156:\n        /* \"#utility.yul\":26157:26161   */\n      0x00\n        /* \"#utility.yul\":26247:26265   */\n      0xffffffffffffffff\n        /* \"#utility.yul\":26239:26245   */\n      dup3\n        /* \"#utility.yul\":26236:26266   */\n      gt\n        /* \"#utility.yul\":26233:26289   */\n      iszero\n      tag_399\n      jumpi\n        /* \"#utility.yul\":26269:26287   */\n      tag_400\n      tag_97\n      jump\t// in\n    tag_400:\n        /* \"#utility.yul\":26233:26289   */\n    tag_399:\n        /* \"#utility.yul\":26319:26323   */\n      0x20\n        /* \"#utility.yul\":26311:26317   */\n      dup3\n        /* \"#utility.yul\":26307:26324   */\n      mul\n        /* \"#utility.yul\":26299:26324   */\n      swap1\n      pop\n        /* \"#utility.yul\":26379:26383   */\n      0x20\n        /* \"#utility.yul\":26373:26377   */\n      dup2\n        /* \"#utility.yul\":26369:26384   */\n      add\n        /* \"#utility.yul\":26361:26384   */\n      swap1\n      pop\n        /* \"#utility.yul\":26054:26391   */\n      swap2\n      swap1\n      pop\n      jump\t// out\n        /* \"#utility.yul\":26421:27394   */\n    tag_157:\n        /* \"#utility.yul\":26507:26512   */\n      0x00\n        /* \"#utility.yul\":26551:26555   */\n      0x60\n        /* \"#utility.yul\":26539:26548   */\n      dup3\n        /* \"#utility.yul\":26534:26537   */\n      dup5\n        /* \"#utility.yul\":26530:26549   */\n      sub\n        /* \"#utility.yul\":26526:26556   */\n      slt\n        /* \"#utility.yul\":26523:26640   */\n      iszero\n      tag_402\n      jumpi\n        /* \"#utility.yul\":26559:26638   */\n      tag_403\n      tag_145\n      jump\t// in\n    tag_403:\n        /* \"#utility.yul\":26523:26640   */\n    tag_402:\n        /* \"#utility.yul\":26658:26679   */\n      tag_404\n        /* \"#utility.yul\":26674:26678   */\n      0x60\n        /* \"#utility.yul\":26658:26679   */\n      tag_99\n      jump\t// in\n    tag_404:\n        /* \"#utility.yul\":26649:26679   */\n      swap1\n      pop\n        /* \"#utility.yul\":26745:26746   */\n      0x00\n        /* \"#utility.yul\":26785:26845   */\n      tag_405\n        /* \"#utility.yul\":26841:26844   */\n      dup5\n        /* \"#utility.yul\":26832:26838   */\n      dup3\n        /* \"#utility.yul\":26821:26830   */\n      dup6\n        /* \"#utility.yul\":26817:26839   */\n      add\n        /* \"#utility.yul\":26785:26845   */\n      tag_147\n      jump\t// in\n    tag_405:\n        /* \"#utility.yul\":26778:26782   */\n      0x00\n        /* \"#utility.yul\":26771:26776   */\n      dup4\n        /* \"#utility.yul\":26767:26783   */\n      add\n        /* \"#utility.yul\":26760:26846   */\n      mstore\n        /* \"#utility.yul\":26689:26857   */\n      pop\n        /* \"#utility.yul\":26949:26951   */\n      0x20\n        /* \"#utility.yul\":26938:26947   */\n      dup3\n        /* \"#utility.yul\":26934:26952   */\n      add\n        /* \"#utility.yul\":26928:26953   */\n      mload\n        /* \"#utility.yul\":26980:26998   */\n      0xffffffffffffffff\n        /* \"#utility.yul\":26972:26978   */\n      dup2\n        /* \"#utility.yul\":26969:26999   */\n      gt\n        /* \"#utility.yul\":26966:27083   */\n      iszero\n      tag_406\n      jumpi\n        /* \"#utility.yul\":27002:27081   */\n      tag_407\n      tag_146\n      jump\t// in\n    tag_407:\n        /* \"#utility.yul\":26966:27083   */\n    tag_406:\n        /* \"#utility.yul\":27122:27192   */\n      tag_408\n        /* \"#utility.yul\":27188:27191   */\n      dup5\n        /* \"#utility.yul\":27179:27185   */\n      dup3\n        /* \"#utility.yul\":27168:27177   */\n      dup6\n        /* \"#utility.yul\":27164:27186   */\n      add\n        /* \"#utility.yul\":27122:27192   */\n      tag_149\n      jump\t// in\n    tag_408:\n        /* \"#utility.yul\":27115:27119   */\n      0x20\n        /* \"#utility.yul\":27108:27113   */\n      dup4\n        /* \"#utility.yul\":27104:27120   */\n      add\n        /* \"#utility.yul\":27097:27193   */\n      mstore\n        /* \"#utility.yul\":26867:27204   */\n      pop\n        /* \"#utility.yul\":27277:27279   */\n      0x40\n        /* \"#utility.yul\":27318:27375   */\n      tag_409\n        /* \"#utility.yul\":27371:27374   */\n      dup5\n        /* \"#utility.yul\":27362:27368   */\n      dup3\n        /* \"#utility.yul\":27351:27360   */\n      dup6\n        /* \"#utility.yul\":27347:27369   */\n      add\n        /* \"#utility.yul\":27318:27375   */\n      tag_152\n      jump\t// in\n    tag_409:\n        /* \"#utility.yul\":27311:27315   */\n      0x40\n        /* \"#utility.yul\":27304:27309   */\n      dup4\n        /* \"#utility.yul\":27300:27316   */\n      add\n        /* \"#utility.yul\":27293:27376   */\n      mstore\n        /* \"#utility.yul\":27214:27387   */\n      pop\n        /* \"#utility.yul\":26421:27394   */\n      swap3\n      swap2\n      pop\n      pop\n      jump\t// out\n        /* \"#utility.yul\":27426:28434   */\n    tag_158:\n        /* \"#utility.yul\":27559:27564   */\n      0x00\n        /* \"#utility.yul\":27584:27691   */\n      tag_411\n        /* \"#utility.yul\":27600:27690   */\n      tag_412\n        /* \"#utility.yul\":27683:27689   */\n      dup5\n        /* \"#utility.yul\":27600:27690   */\n      tag_156\n      jump\t// in\n    tag_412:\n        /* \"#utility.yul\":27584:27691   */\n      tag_99\n      jump\t// in\n    tag_411:\n        /* \"#utility.yul\":27575:27691   */\n      swap1\n      pop\n        /* \"#utility.yul\":27711:27716   */\n      dup1\n        /* \"#utility.yul\":27740:27746   */\n      dup4\n        /* \"#utility.yul\":27733:27738   */\n      dup3\n        /* \"#utility.yul\":27726:27747   */\n      mstore\n        /* \"#utility.yul\":27774:27778   */\n      0x20\n        /* \"#utility.yul\":27767:27772   */\n      dup3\n        /* \"#utility.yul\":27763:27779   */\n      add\n        /* \"#utility.yul\":27756:27779   */\n      swap1\n      pop\n        /* \"#utility.yul\":27827:27831   */\n      0x20\n        /* \"#utility.yul\":27819:27825   */\n      dup5\n        /* \"#utility.yul\":27815:27832   */\n      mul\n        /* \"#utility.yul\":27807:27813   */\n      dup4\n        /* \"#utility.yul\":27803:27833   */\n      add\n        /* \"#utility.yul\":27856:27859   */\n      dup6\n        /* \"#utility.yul\":27848:27854   */\n      dup2\n        /* \"#utility.yul\":27845:27860   */\n      gt\n        /* \"#utility.yul\":27842:27964   */\n      iszero\n      tag_413\n      jumpi\n        /* \"#utility.yul\":27875:27954   */\n      tag_414\n      tag_144\n      jump\t// in\n    tag_414:\n        /* \"#utility.yul\":27842:27964   */\n    tag_413:\n        /* \"#utility.yul\":27990:27996   */\n      dup4\n        /* \"#utility.yul\":27973:28428   */\n    tag_415:\n        /* \"#utility.yul\":28007:28013   */\n      dup2\n        /* \"#utility.yul\":28002:28005   */\n      dup2\n        /* \"#utility.yul\":27999:28014   */\n      lt\n        /* \"#utility.yul\":27973:28428   */\n      iszero\n      tag_417\n      jumpi\n        /* \"#utility.yul\":28089:28092   */\n      dup1\n        /* \"#utility.yul\":28083:28093   */\n      mload\n        /* \"#utility.yul\":28125:28143   */\n      0xffffffffffffffff\n        /* \"#utility.yul\":28112:28123   */\n      dup2\n        /* \"#utility.yul\":28109:28144   */\n      gt\n        /* \"#utility.yul\":28106:28228   */\n      iszero\n      tag_418\n      jumpi\n        /* \"#utility.yul\":28147:28226   */\n      tag_419\n      tag_94\n      jump\t// in\n    tag_419:\n        /* \"#utility.yul\":28106:28228   */\n    tag_418:\n        /* \"#utility.yul\":28271:28282   */\n      dup1\n        /* \"#utility.yul\":28263:28269   */\n      dup7\n        /* \"#utility.yul\":28259:28283   */\n      add\n        /* \"#utility.yul\":28309:28383   */\n      tag_420\n        /* \"#utility.yul\":28379:28382   */\n      dup10\n        /* \"#utility.yul\":28367:28377   */\n      dup3\n        /* \"#utility.yul\":28309:28383   */\n      tag_157\n      jump\t// in\n    tag_420:\n        /* \"#utility.yul\":28304:28307   */\n      dup6\n        /* \"#utility.yul\":28297:28384   */\n      mstore\n        /* \"#utility.yul\":28413:28417   */\n      0x20\n        /* \"#utility.yul\":28408:28411   */\n      dup6\n        /* \"#utility.yul\":28404:28418   */\n      add\n        /* \"#utility.yul\":28397:28418   */\n      swap5\n      pop\n        /* \"#utility.yul\":28049:28428   */\n      pop\n      pop\n        /* \"#utility.yul\":28033:28037   */\n      0x20\n        /* \"#utility.yul\":28028:28031   */\n      dup2\n        /* \"#utility.yul\":28024:28038   */\n      add\n        /* \"#utility.yul\":28017:28038   */\n      swap1\n      pop\n        /* \"#utility.yul\":27973:28428   */\n      jump(tag_415)\n    tag_417:\n        /* \"#utility.yul\":27977:27998   */\n      pop\n        /* \"#utility.yul\":27565:28434   */\n      pop\n      pop\n        /* \"#utility.yul\":27426:28434   */\n      swap4\n      swap3\n      pop\n      pop\n      pop\n      jump\t// out\n        /* \"#utility.yul\":28466:28903   */\n    tag_159:\n        /* \"#utility.yul\":28574:28579   */\n      0x00\n        /* \"#utility.yul\":28623:28626   */\n      dup3\n        /* \"#utility.yul\":28616:28620   */\n      0x1f\n        /* \"#utility.yul\":28608:28614   */\n      dup4\n        /* \"#utility.yul\":28604:28621   */\n      add\n        /* \"#utility.yul\":28600:28627   */\n      slt\n        /* \"#utility.yul\":28590:28712   */\n      tag_422\n      jumpi\n        /* \"#utility.yul\":28631:28710   */\n      tag_423\n      tag_94\n      jump\t// in\n    tag_423:\n        /* \"#utility.yul\":28590:28712   */\n    tag_422:\n        /* \"#utility.yul\":28741:28747   */\n      dup2\n        /* \"#utility.yul\":28735:28748   */\n      mload\n        /* \"#utility.yul\":28766:28897   */\n      tag_424\n        /* \"#utility.yul\":28893:28896   */\n      dup5\n        /* \"#utility.yul\":28885:28891   */\n      dup3\n        /* \"#utility.yul\":28878:28882   */\n      0x20\n        /* \"#utility.yul\":28870:28876   */\n      dup7\n        /* \"#utility.yul\":28866:28883   */\n      add\n        /* \"#utility.yul\":28766:28897   */\n      tag_158\n      jump\t// in\n    tag_424:\n        /* \"#utility.yul\":28757:28897   */\n      swap2\n      pop\n        /* \"#utility.yul\":28580:28903   */\n      pop\n        /* \"#utility.yul\":28466:28903   */\n      swap3\n      swap2\n      pop\n      pop\n      jump\t// out\n        /* \"#utility.yul\":28909:29515   */\n    tag_75:\n        /* \"#utility.yul\":29030:29036   */\n      0x00\n        /* \"#utility.yul\":29079:29081   */\n      0x20\n        /* \"#utility.yul\":29067:29076   */\n      dup3\n        /* \"#utility.yul\":29058:29065   */\n      dup5\n        /* \"#utility.yul\":29054:29077   */\n      sub\n        /* \"#utility.yul\":29050:29082   */\n      slt\n        /* \"#utility.yul\":29047:29166   */\n      iszero\n      tag_426\n      jumpi\n        /* \"#utility.yul\":29085:29164   */\n      tag_427\n      tag_92\n      jump\t// in\n    tag_427:\n        /* \"#utility.yul\":29047:29166   */\n    tag_426:\n        /* \"#utility.yul\":29226:29227   */\n      0x00\n        /* \"#utility.yul\":29215:29224   */\n      dup3\n        /* \"#utility.yul\":29211:29228   */\n      add\n        /* \"#utility.yul\":29205:29229   */\n      mload\n        /* \"#utility.yul\":29256:29274   */\n      0xffffffffffffffff\n        /* \"#utility.yul\":29248:29254   */\n      dup2\n        /* \"#utility.yul\":29245:29275   */\n      gt\n        /* \"#utility.yul\":29242:29359   */\n      iszero\n      tag_428\n      jumpi\n        /* \"#utility.yul\":29278:29357   */\n      tag_429\n      tag_93\n      jump\t// in\n    tag_429:\n        /* \"#utility.yul\":29242:29359   */\n    tag_428:\n        /* \"#utility.yul\":29383:29498   */\n      tag_430\n        /* \"#utility.yul\":29490:29497   */\n      dup5\n        /* \"#utility.yul\":29481:29487   */\n      dup3\n        /* \"#utility.yul\":29470:29479   */\n      dup6\n        /* \"#utility.yul\":29466:29488   */\n      add\n        /* \"#utility.yul\":29383:29498   */\n      tag_159\n      jump\t// in\n    tag_430:\n        /* \"#utility.yul\":29373:29498   */\n      swap2\n      pop\n        /* \"#utility.yul\":29176:29508   */\n      pop\n        /* \"#utility.yul\":28909:29515   */\n      swap3\n      swap2\n      pop\n      pop\n      jump\t// out\n        /* \"#utility.yul\":29521:29690   */\n    tag_160:\n        /* \"#utility.yul\":29605:29616   */\n      0x00\n        /* \"#utility.yul\":29639:29645   */\n      dup3\n        /* \"#utility.yul\":29634:29637   */\n      dup3\n        /* \"#utility.yul\":29627:29646   */\n      mstore\n        /* \"#utility.yul\":29679:29683   */\n      0x20\n        /* \"#utility.yul\":29674:29677   */\n      dup3\n        /* \"#utility.yul\":29670:29684   */\n      add\n        /* \"#utility.yul\":29655:29684   */\n      swap1\n      pop\n        /* \"#utility.yul\":29521:29690   */\n      swap3\n      swap2\n      pop\n      pop\n      jump\t// out\n        /* \"#utility.yul\":29696:29921   */\n    tag_161:\n        /* \"#utility.yul\":29836:29870   */\n      0x4f776e61626c653a206e6577206f776e657220697320746865207a65726f2061\n        /* \"#utility.yul\":29832:29833   */\n      0x00\n        /* \"#utility.yul\":29824:29830   */\n      dup3\n        /* \"#utility.yul\":29820:29834   */\n      add\n        /* \"#utility.yul\":29813:29871   */\n      mstore\n        /* \"#utility.yul\":29905:29913   */\n      0x6464726573730000000000000000000000000000000000000000000000000000\n        /* \"#utility.yul\":29900:29902   */\n      0x20\n        /* \"#utility.yul\":29892:29898   */\n      dup3\n        /* \"#utility.yul\":29888:29903   */\n      add\n        /* \"#utility.yul\":29881:29914   */\n      mstore\n        /* \"#utility.yul\":29696:29921   */\n      pop\n      jump\t// out\n        /* \"#utility.yul\":29927:30293   */\n    tag_162:\n        /* \"#utility.yul\":30069:30072   */\n      0x00\n        /* \"#utility.yul\":30090:30157   */\n      tag_434\n        /* \"#utility.yul\":30154:30156   */\n      0x26\n        /* \"#utility.yul\":30149:30152   */\n      dup4\n        /* \"#utility.yul\":30090:30157   */\n      tag_160\n      jump\t// in\n    tag_434:\n        /* \"#utility.yul\":30083:30157   */\n      swap2\n      pop\n        /* \"#utility.yul\":30166:30259   */\n      tag_435\n        /* \"#utility.yul\":30255:30258   */\n      dup3\n        /* \"#utility.yul\":30166:30259   */\n      tag_161\n      jump\t// in\n    tag_435:\n        /* \"#utility.yul\":30284:30286   */\n      0x40\n        /* \"#utility.yul\":30279:30282   */\n      dup3\n        /* \"#utility.yul\":30275:30287   */\n      add\n        /* \"#utility.yul\":30268:30287   */\n      swap1\n      pop\n        /* \"#utility.yul\":29927:30293   */\n      swap2\n      swap1\n      pop\n      jump\t// out\n        /* \"#utility.yul\":30299:30718   */\n    tag_81:\n        /* \"#utility.yul\":30465:30469   */\n      0x00\n        /* \"#utility.yul\":30503:30505   */\n      0x20\n        /* \"#utility.yul\":30492:30501   */\n      dup3\n        /* \"#utility.yul\":30488:30506   */\n      add\n        /* \"#utility.yul\":30480:30506   */\n      swap1\n      pop\n        /* \"#utility.yul\":30552:30561   */\n      dup2\n        /* \"#utility.yul\":30546:30550   */\n      dup2\n        /* \"#utility.yul\":30542:30562   */\n      sub\n        /* \"#utility.yul\":30538:30539   */\n      0x00\n        /* \"#utility.yul\":30527:30536   */\n      dup4\n        /* \"#utility.yul\":30523:30540   */\n      add\n        /* \"#utility.yul\":30516:30563   */\n      mstore\n        /* \"#utility.yul\":30580:30711   */\n      tag_437\n        /* \"#utility.yul\":30706:30710   */\n      dup2\n        /* \"#utility.yul\":30580:30711   */\n      tag_162\n      jump\t// in\n    tag_437:\n        /* \"#utility.yul\":30572:30711   */\n      swap1\n      pop\n        /* \"#utility.yul\":30299:30718   */\n      swap2\n      swap1\n      pop\n      jump\t// out\n        /* \"#utility.yul\":30724:30906   */\n    tag_163:\n        /* \"#utility.yul\":30864:30898   */\n      0x4f776e61626c653a2063616c6c6572206973206e6f7420746865206f776e6572\n        /* \"#utility.yul\":30860:30861   */\n      0x00\n        /* \"#utility.yul\":30852:30858   */\n      dup3\n        /* \"#utility.yul\":30848:30862   */\n      add\n        /* \"#utility.yul\":30841:30899   */\n      mstore\n        /* \"#utility.yul\":30724:30906   */\n      pop\n      jump\t// out\n        /* \"#utility.yul\":30912:31278   */\n    tag_164:\n        /* \"#utility.yul\":31054:31057   */\n      0x00\n        /* \"#utility.yul\":31075:31142   */\n      tag_440\n        /* \"#utility.yul\":31139:31141   */\n      0x20\n        /* \"#utility.yul\":31134:31137   */\n      dup4\n        /* \"#utility.yul\":31075:31142   */\n      tag_160\n      jump\t// in\n    tag_440:\n        /* \"#utility.yul\":31068:31142   */\n      swap2\n      pop\n        /* \"#utility.yul\":31151:31244   */\n      tag_441\n        /* \"#utility.yul\":31240:31243   */\n      dup3\n        /* \"#utility.yul\":31151:31244   */\n      tag_163\n      jump\t// in\n    tag_441:\n        /* \"#utility.yul\":31269:31271   */\n      0x20\n        /* \"#utility.yul\":31264:31267   */\n      dup3\n        /* \"#utility.yul\":31260:31272   */\n      add\n        /* \"#utility.yul\":31253:31272   */\n      swap1\n      pop\n        /* \"#utility.yul\":30912:31278   */\n      swap2\n      swap1\n      pop\n      jump\t// out\n        /* \"#utility.yul\":31284:31703   */\n    tag_89:\n        /* \"#utility.yul\":31450:31454   */\n      0x00\n        /* \"#utility.yul\":31488:31490   */\n      0x20\n        /* \"#utility.yul\":31477:31486   */\n      dup3\n        /* \"#utility.yul\":31473:31491   */\n      add\n        /* \"#utility.yul\":31465:31491   */\n      swap1\n      pop\n        /* \"#utility.yul\":31537:31546   */\n      dup2\n        /* \"#utility.yul\":31531:31535   */\n      dup2\n        /* \"#utility.yul\":31527:31547   */\n      sub\n        /* \"#utility.yul\":31523:31524   */\n      0x00\n        /* \"#utility.yul\":31512:31521   */\n      dup4\n        /* \"#utility.yul\":31508:31525   */\n      add\n        /* \"#utility.yul\":31501:31548   */\n      mstore\n        /* \"#utility.yul\":31565:31696   */\n      tag_443\n        /* \"#utility.yul\":31691:31695   */\n      dup2\n        /* \"#utility.yul\":31565:31696   */\n      tag_164\n      jump\t// in\n    tag_443:\n        /* \"#utility.yul\":31557:31696   */\n      swap1\n      pop\n        /* \"#utility.yul\":31284:31703   */\n      swap2\n      swap1\n      pop\n      jump\t// out\n\n    auxdata: 0xa264697066735822122096d622b4382f72e855e0b84831d8042124afa1377852ff8c5594b937f4b732c064736f6c63430008110033\n}\n",
				"bytecode": {
					"linkReferences": {},
					"object": "60806040523480156200001157600080fd5b50604051620017353803806200173583398181016040528101906200003791906200016f565b8082336000806101000a81548173ffffffffffffffffffffffffffffffffffffffff021916908373ffffffffffffffffffffffffffffffffffffffff16021790555080600160006101000a81548173ffffffffffffffffffffffffffffffffffffffff021916908373ffffffffffffffffffffffffffffffffffffffff1602179055505080600260006101000a81548173ffffffffffffffffffffffffffffffffffffffff021916908373ffffffffffffffffffffffffffffffffffffffff160217905550505050620001b6565b600080fd5b600073ffffffffffffffffffffffffffffffffffffffff82169050919050565b600062000137826200010a565b9050919050565b62000149816200012a565b81146200015557600080fd5b50565b60008151905062000169816200013e565b92915050565b6000806040838503121562000189576200018862000105565b5b6000620001998582860162000158565b9250506020620001ac8582860162000158565b9150509250929050565b61156f80620001c66000396000f3fe608060405234801561001057600080fd5b50600436106100935760003560e01c806383197ef01161006657806383197ef01461010c578063851e12a0146101165780638da5cb5b14610134578063a855a58914610152578063f2fde38b1461017057610093565b8063388783a8146100985780633ff328cb146100b4578063460f6c7e146100d257806369f205f2146100ee575b600080fd5b6100b260048036038101906100ad9190610852565b61018c565b005b6100bc610278565b6040516100c9919061098c565b60405180910390f35b6100ec60048036038101906100e791906109a7565b61029e565b005b6100f6610352565b6040516101039190610c26565b60405180910390f35b6101146103ef565b005b61011e610410565b60405161012b9190610c69565b60405180910390f35b61013c610436565b6040516101499190610c93565b60405180910390f35b61015a61045f565b6040516101679190610dc0565b60405180910390f35b61018a60048036038101906101859190610e0e565b6104fc565b005b60006040518060e00160405280600081526020018681526020016101ae61057f565b73ffffffffffffffffffffffffffffffffffffffff168152602001858152602001848152602001838152602001600015158152509050600260009054906101000a900473ffffffffffffffffffffffffffffffffffffffff1673ffffffffffffffffffffffffffffffffffffffff166321100a56826040518263ffffffff1660e01b815260040161023f9190610ee5565b600060405180830381600087803b15801561025957600080fd5b505af115801561026d573d6000803e3d6000fd5b505050505050505050565b600160009054906101000a900473ffffffffffffffffffffffffffffffffffffffff1681565b6000604051806060016040528060008152602001838152602001600015158152509050600160009054906101000a900473ffffffffffffffffffffffffffffffffffffffff1673ffffffffffffffffffffffffffffffffffffffff166317f3b9a0826040518263ffffffff1660e01b815260040161031c9190610f57565b600060405180830381600087803b15801561033657600080fd5b505af115801561034a573d6000803e3d6000fd5b505050505050565b6060600260009054906101000a900473ffffffffffffffffffffffffffffffffffffffff1673ffffffffffffffffffffffffffffffffffffffff166369f205f26040518163ffffffff1660e01b8152600401600060405180830381865afa1580156103c1573d6000803e3d6000fd5b505050506040513d6000823e3d601f19601f820116820180604052508101906103ea9190611237565b905090565b6103f7610587565b3073ffffffffffffffffffffffffffffffffffffffff16ff5b600260009054906101000a900473ffffffffffffffffffffffffffffffffffffffff1681565b60008060009054906101000a900473ffffffffffffffffffffffffffffffffffffffff16905090565b6060600160009054906101000a900473ffffffffffffffffffffffffffffffffffffffff1673ffffffffffffffffffffffffffffffffffffffff1663a855a5896040518163ffffffff1660e01b8152600401600060405180830381865afa1580156104ce573d6000803e3d6000fd5b505050506040513d6000823e3d601f19601f820116820180604052508101906104f791906113e1565b905090565b610504610587565b600073ffffffffffffffffffffffffffffffffffffffff168173ffffffffffffffffffffffffffffffffffffffff1603610573576040517f08c379a000000000000000000000000000000000000000000000000000000000815260040161056a906114ad565b60405180910390fd5b61057c816105fe565b50565b600033905090565b3373ffffffffffffffffffffffffffffffffffffffff166105a6610436565b73ffffffffffffffffffffffffffffffffffffffff16146105fc576040517f08c379a00000000000000000000000000000000000000000000000000000000081526004016105f390611519565b60405180910390fd5b565b60008060009054906101000a900473ffffffffffffffffffffffffffffffffffffffff169050816000806101000a81548173ffffffffffffffffffffffffffffffffffffffff021916908373ffffffffffffffffffffffffffffffffffffffff1602179055508173ffffffffffffffffffffffffffffffffffffffff168173ffffffffffffffffffffffffffffffffffffffff167f8be0079c531659141344cd1fd0a4f28419497f9722a3daafe3b4186f6b6457e060405160405180910390a35050565b6000604051905090565b600080fd5b600080fd5b600080fd5b600080fd5b6000601f19601f8301169050919050565b7f4e487b7100000000000000000000000000000000000000000000000000000000600052604160045260246000fd5b610729826106e0565b810181811067ffffffffffffffff82111715610748576107476106f1565b5b80604052505050565b600061075b6106c2565b90506107678282610720565b919050565b600067ffffffffffffffff821115610787576107866106f1565b5b610790826106e0565b9050602081019050919050565b82818337600083830152505050565b60006107bf6107ba8461076c565b610751565b9050828152602081018484840111156107db576107da6106db565b5b6107e684828561079d565b509392505050565b600082601f830112610803576108026106d6565b5b81356108138482602086016107ac565b91505092915050565b6000819050919050565b61082f8161081c565b811461083a57600080fd5b50565b60008135905061084c81610826565b92915050565b6000806000806080858703121561086c5761086b6106cc565b5b600085013567ffffffffffffffff81111561088a576108896106d1565b5b610896878288016107ee565b945050602085013567ffffffffffffffff8111156108b7576108b66106d1565b5b6108c3878288016107ee565b93505060406108d48782880161083d565b925050606085013567ffffffffffffffff8111156108f5576108f46106d1565b5b610901878288016107ee565b91505092959194509250565b600073ffffffffffffffffffffffffffffffffffffffff82169050919050565b6000819050919050565b600061095261094d6109488461090d565b61092d565b61090d565b9050919050565b600061096482610937565b9050919050565b600061097682610959565b9050919050565b6109868161096b565b82525050565b60006020820190506109a1600083018461097d565b92915050565b6000602082840312156109bd576109bc6106cc565b5b600082013567ffffffffffffffff8111156109db576109da6106d1565b5b6109e7848285016107ee565b91505092915050565b600081519050919050565b600082825260208201905092915050565b6000819050602082019050919050565b610a258161081c565b82525050565b600081519050919050565b600082825260208201905092915050565b60005b83811015610a65578082015181840152602081019050610a4a565b60008484015250505050565b6000610a7c82610a2b565b610a868185610a36565b9350610a96818560208601610a47565b610a9f816106e0565b840191505092915050565b6000610ab58261090d565b9050919050565b610ac581610aaa565b82525050565b60008115159050919050565b610ae081610acb565b82525050565b600060e083016000830151610afe6000860182610a1c565b5060208301518482036020860152610b168282610a71565b9150506040830151610b2b6040860182610abc565b5060608301518482036060860152610b438282610a71565b9150506080830151610b586080860182610a1c565b5060a083015184820360a0860152610b708282610a71565b91505060c0830151610b8560c0860182610ad7565b508091505092915050565b6000610b9c8383610ae6565b905092915050565b6000602082019050919050565b6000610bbc826109f0565b610bc681856109fb565b935083602082028501610bd885610a0c565b8060005b85811015610c145784840389528151610bf58582610b90565b9450610c0083610ba4565b925060208a01995050600181019050610bdc565b50829750879550505050505092915050565b60006020820190508181036000830152610c408184610bb1565b905092915050565b6000610c5382610959565b9050919050565b610c6381610c48565b82525050565b6000602082019050610c7e6000830184610c5a565b92915050565b610c8d81610aaa565b82525050565b6000602082019050610ca86000830184610c84565b92915050565b600081519050919050565b600082825260208201905092915050565b6000819050602082019050919050565b6000606083016000830151610cf26000860182610a1c565b5060208301518482036020860152610d0a8282610a71565b9150506040830151610d1f6040860182610ad7565b508091505092915050565b6000610d368383610cda565b905092915050565b6000602082019050919050565b6000610d5682610cae565b610d608185610cb9565b935083602082028501610d7285610cca565b8060005b85811015610dae5784840389528151610d8f8582610d2a565b9450610d9a83610d3e565b925060208a01995050600181019050610d76565b50829750879550505050505092915050565b60006020820190508181036000830152610dda8184610d4b565b905092915050565b610deb81610aaa565b8114610df657600080fd5b50565b600081359050610e0881610de2565b92915050565b600060208284031215610e2457610e236106cc565b5b6000610e3284828501610df9565b91505092915050565b600060e083016000830151610e536000860182610a1c565b5060208301518482036020860152610e6b8282610a71565b9150506040830151610e806040860182610abc565b5060608301518482036060860152610e988282610a71565b9150506080830151610ead6080860182610a1c565b5060a083015184820360a0860152610ec58282610a71565b91505060c0830151610eda60c0860182610ad7565b508091505092915050565b60006020820190508181036000830152610eff8184610e3b565b905092915050565b6000606083016000830151610f1f6000860182610a1c565b5060208301518482036020860152610f378282610a71565b9150506040830151610f4c6040860182610ad7565b508091505092915050565b60006020820190508181036000830152610f718184610f07565b905092915050565b600067ffffffffffffffff821115610f9457610f936106f1565b5b602082029050602081019050919050565b600080fd5b600080fd5b600080fd5b600081519050610fc381610826565b92915050565b6000610fdc610fd78461076c565b610751565b905082815260208101848484011115610ff857610ff76106db565b5b611003848285610a47565b509392505050565b600082601f8301126110205761101f6106d6565b5b8151611030848260208601610fc9565b91505092915050565b60008151905061104881610de2565b92915050565b61105781610acb565b811461106257600080fd5b50565b6000815190506110748161104e565b92915050565b600060e082840312156110905761108f610faa565b5b61109a60e0610751565b905060006110aa84828501610fb4565b600083015250602082015167ffffffffffffffff8111156110ce576110cd610faf565b5b6110da8482850161100b565b60208301525060406110ee84828501611039565b604083015250606082015167ffffffffffffffff81111561111257611111610faf565b5b61111e8482850161100b565b606083015250608061113284828501610fb4565b60808301525060a082015167ffffffffffffffff81111561115657611155610faf565b5b6111628482850161100b565b60a08301525060c061117684828501611065565b60c08301525092915050565b600061119561119084610f79565b610751565b905080838252602082019050602084028301858111156111b8576111b7610fa5565b5b835b818110156111ff57805167ffffffffffffffff8111156111dd576111dc6106d6565b5b8086016111ea898261107a565b855260208501945050506020810190506111ba565b5050509392505050565b600082601f83011261121e5761121d6106d6565b5b815161122e848260208601611182565b91505092915050565b60006020828403121561124d5761124c6106cc565b5b600082015167ffffffffffffffff81111561126b5761126a6106d1565b5b61127784828501611209565b91505092915050565b600067ffffffffffffffff82111561129b5761129a6106f1565b5b602082029050602081019050919050565b6000606082840312156112c2576112c1610faa565b5b6112cc6060610751565b905060006112dc84828501610fb4565b600083015250602082015167ffffffffffffffff811115611300576112ff610faf565b5b61130c8482850161100b565b602083015250604061132084828501611065565b60408301525092915050565b600061133f61133a84611280565b610751565b9050808382526020820190506020840283018581111561136257611361610fa5565b5b835b818110156113a957805167ffffffffffffffff811115611387576113866106d6565b5b80860161139489826112ac565b85526020850194505050602081019050611364565b5050509392505050565b600082601f8301126113c8576113c76106d6565b5b81516113d884826020860161132c565b91505092915050565b6000602082840312156113f7576113f66106cc565b5b600082015167ffffffffffffffff811115611415576114146106d1565b5b611421848285016113b3565b91505092915050565b600082825260208201905092915050565b7f4f776e61626c653a206e6577206f776e657220697320746865207a65726f206160008201527f6464726573730000000000000000000000000000000000000000000000000000602082015250565b600061149760268361142a565b91506114a28261143b565b604082019050919050565b600060208201905081810360008301526114c68161148a565b9050919050565b7f4f776e61626c653a2063616c6c6572206973206e6f7420746865206f776e6572600082015250565b600061150360208361142a565b915061150e826114cd565b602082019050919050565b60006020820190508181036000830152611532816114f6565b905091905056fea264697066735822122096d622b4382f72e855e0b84831d8042124afa1377852ff8c5594b937f4b732c064736f6c63430008110033",
					"opcodes": "PUSH1 0x80 PUSH1 0x40 MSTORE CALLVALUE DUP1 ISZERO PUSH3 0x11 JUMPI PUSH1 0x0 DUP1 REVERT JUMPDEST POP PUSH1 0x40 MLOAD PUSH3 0x1735 CODESIZE SUB DUP1 PUSH3 0x1735 DUP4 CODECOPY DUP2 DUP2 ADD PUSH1 0x40 MSTORE DUP2 ADD SWAP1 PUSH3 0x37 SWAP2 SWAP1 PUSH3 0x16F JUMP JUMPDEST DUP1 DUP3 CALLER PUSH1 0x0 DUP1 PUSH2 0x100 EXP DUP2 SLOAD DUP2 PUSH20 0xFFFFFFFFFFFFFFFFFFFFFFFFFFFFFFFFFFFFFFFF MUL NOT AND SWAP1 DUP4 PUSH20 0xFFFFFFFFFFFFFFFFFFFFFFFFFFFFFFFFFFFFFFFF AND MUL OR SWAP1 SSTORE POP DUP1 PUSH1 0x1 PUSH1 0x0 PUSH2 0x100 EXP DUP2 SLOAD DUP2 PUSH20 0xFFFFFFFFFFFFFFFFFFFFFFFFFFFFFFFFFFFFFFFF MUL NOT AND SWAP1 DUP4 PUSH20 0xFFFFFFFFFFFFFFFFFFFFFFFFFFFFFFFFFFFFFFFF AND MUL OR SWAP1 SSTORE POP POP DUP1 PUSH1 0x2 PUSH1 0x0 PUSH2 0x100 EXP DUP2 SLOAD DUP2 PUSH20 0xFFFFFFFFFFFFFFFFFFFFFFFFFFFFFFFFFFFFFFFF MUL NOT AND SWAP1 DUP4 PUSH20 0xFFFFFFFFFFFFFFFFFFFFFFFFFFFFFFFFFFFFFFFF AND MUL OR SWAP1 SSTORE POP POP POP POP PUSH3 0x1B6 JUMP JUMPDEST PUSH1 0x0 DUP1 REVERT JUMPDEST PUSH1 0x0 PUSH20 0xFFFFFFFFFFFFFFFFFFFFFFFFFFFFFFFFFFFFFFFF DUP3 AND SWAP1 POP SWAP2 SWAP1 POP JUMP JUMPDEST PUSH1 0x0 PUSH3 0x137 DUP3 PUSH3 0x10A JUMP JUMPDEST SWAP1 POP SWAP2 SWAP1 POP JUMP JUMPDEST PUSH3 0x149 DUP2 PUSH3 0x12A JUMP JUMPDEST DUP2 EQ PUSH3 0x155 JUMPI PUSH1 0x0 DUP1 REVERT JUMPDEST POP JUMP JUMPDEST PUSH1 0x0 DUP2 MLOAD SWAP1 POP PUSH3 0x169 DUP2 PUSH3 0x13E JUMP JUMPDEST SWAP3 SWAP2 POP POP JUMP JUMPDEST PUSH1 0x0 DUP1 PUSH1 0x40 DUP4 DUP6 SUB SLT ISZERO PUSH3 0x189 JUMPI PUSH3 0x188 PUSH3 0x105 JUMP JUMPDEST JUMPDEST PUSH1 0x0 PUSH3 0x199 DUP6 DUP3 DUP7 ADD PUSH3 0x158 JUMP JUMPDEST SWAP3 POP POP PUSH1 0x20 PUSH3 0x1AC DUP6 DUP3 DUP7 ADD PUSH3 0x158 JUMP JUMPDEST SWAP2 POP POP SWAP3 POP SWAP3 SWAP1 POP JUMP JUMPDEST PUSH2 0x156F DUP1 PUSH3 0x1C6 PUSH1 0x0 CODECOPY PUSH1 0x0 RETURN INVALID PUSH1 0x80 PUSH1 0x40 MSTORE CALLVALUE DUP1 ISZERO PUSH2 0x10 JUMPI PUSH1 0x0 DUP1 REVERT JUMPDEST POP PUSH1 0x4 CALLDATASIZE LT PUSH2 0x93 JUMPI PUSH1 0x0 CALLDATALOAD PUSH1 0xE0 SHR DUP1 PUSH4 0x83197EF0 GT PUSH2 0x66 JUMPI DUP1 PUSH4 0x83197EF0 EQ PUSH2 0x10C JUMPI DUP1 PUSH4 0x851E12A0 EQ PUSH2 0x116 JUMPI DUP1 PUSH4 0x8DA5CB5B EQ PUSH2 0x134 JUMPI DUP1 PUSH4 0xA855A589 EQ PUSH2 0x152 JUMPI DUP1 PUSH4 0xF2FDE38B EQ PUSH2 0x170 JUMPI PUSH2 0x93 JUMP JUMPDEST DUP1 PUSH4 0x388783A8 EQ PUSH2 0x98 JUMPI DUP1 PUSH4 0x3FF328CB EQ PUSH2 0xB4 JUMPI DUP1 PUSH4 0x460F6C7E EQ PUSH2 0xD2 JUMPI DUP1 PUSH4 0x69F205F2 EQ PUSH2 0xEE JUMPI JUMPDEST PUSH1 0x0 DUP1 REVERT JUMPDEST PUSH2 0xB2 PUSH1 0x4 DUP1 CALLDATASIZE SUB DUP2 ADD SWAP1 PUSH2 0xAD SWAP2 SWAP1 PUSH2 0x852 JUMP JUMPDEST PUSH2 0x18C JUMP JUMPDEST STOP JUMPDEST PUSH2 0xBC PUSH2 0x278 JUMP JUMPDEST PUSH1 0x40 MLOAD PUSH2 0xC9 SWAP2 SWAP1 PUSH2 0x98C JUMP JUMPDEST PUSH1 0x40 MLOAD DUP1 SWAP2 SUB SWAP1 RETURN JUMPDEST PUSH2 0xEC PUSH1 0x4 DUP1 CALLDATASIZE SUB DUP2 ADD SWAP1 PUSH2 0xE7 SWAP2 SWAP1 PUSH2 0x9A7 JUMP JUMPDEST PUSH2 0x29E JUMP JUMPDEST STOP JUMPDEST PUSH2 0xF6 PUSH2 0x352 JUMP JUMPDEST PUSH1 0x40 MLOAD PUSH2 0x103 SWAP2 SWAP1 PUSH2 0xC26 JUMP JUMPDEST PUSH1 0x40 MLOAD DUP1 SWAP2 SUB SWAP1 RETURN JUMPDEST PUSH2 0x114 PUSH2 0x3EF JUMP JUMPDEST STOP JUMPDEST PUSH2 0x11E PUSH2 0x410 JUMP JUMPDEST PUSH1 0x40 MLOAD PUSH2 0x12B SWAP2 SWAP1 PUSH2 0xC69 JUMP JUMPDEST PUSH1 0x40 MLOAD DUP1 SWAP2 SUB SWAP1 RETURN JUMPDEST PUSH2 0x13C PUSH2 0x436 JUMP JUMPDEST PUSH1 0x40 MLOAD PUSH2 0x149 SWAP2 SWAP1 PUSH2 0xC93 JUMP JUMPDEST PUSH1 0x40 MLOAD DUP1 SWAP2 SUB SWAP1 RETURN JUMPDEST PUSH2 0x15A PUSH2 0x45F JUMP JUMPDEST PUSH1 0x40 MLOAD PUSH2 0x167 SWAP2 SWAP1 PUSH2 0xDC0 JUMP JUMPDEST PUSH1 0x40 MLOAD DUP1 SWAP2 SUB SWAP1 RETURN JUMPDEST PUSH2 0x18A PUSH1 0x4 DUP1 CALLDATASIZE SUB DUP2 ADD SWAP1 PUSH2 0x185 SWAP2 SWAP1 PUSH2 0xE0E JUMP JUMPDEST PUSH2 0x4FC JUMP JUMPDEST STOP JUMPDEST PUSH1 0x0 PUSH1 0x40 MLOAD DUP1 PUSH1 0xE0 ADD PUSH1 0x40 MSTORE DUP1 PUSH1 0x0 DUP2 MSTORE PUSH1 0x20 ADD DUP7 DUP2 MSTORE PUSH1 0x20 ADD PUSH2 0x1AE PUSH2 0x57F JUMP JUMPDEST PUSH20 0xFFFFFFFFFFFFFFFFFFFFFFFFFFFFFFFFFFFFFFFF AND DUP2 MSTORE PUSH1 0x20 ADD DUP6 DUP2 MSTORE PUSH1 0x20 ADD DUP5 DUP2 MSTORE PUSH1 0x20 ADD DUP4 DUP2 MSTORE PUSH1 0x20 ADD PUSH1 0x0 ISZERO ISZERO DUP2 MSTORE POP SWAP1 POP PUSH1 0x2 PUSH1 0x0 SWAP1 SLOAD SWAP1 PUSH2 0x100 EXP SWAP1 DIV PUSH20 0xFFFFFFFFFFFFFFFFFFFFFFFFFFFFFFFFFFFFFFFF AND PUSH20 0xFFFFFFFFFFFFFFFFFFFFFFFFFFFFFFFFFFFFFFFF AND PUSH4 0x21100A56 DUP3 PUSH1 0x40 MLOAD DUP3 PUSH4 0xFFFFFFFF AND PUSH1 0xE0 SHL DUP2 MSTORE PUSH1 0x4 ADD PUSH2 0x23F SWAP2 SWAP1 PUSH2 0xEE5 JUMP JUMPDEST PUSH1 0x0 PUSH1 0x40 MLOAD DUP1 DUP4 SUB DUP2 PUSH1 0x0 DUP8 DUP1 EXTCODESIZE ISZERO DUP1 ISZERO PUSH2 0x259 JUMPI PUSH1 0x0 DUP1 REVERT JUMPDEST POP GAS CALL ISZERO DUP1 ISZERO PUSH2 0x26D JUMPI RETURNDATASIZE PUSH1 0x0 DUP1 RETURNDATACOPY RETURNDATASIZE PUSH1 0x0 REVERT JUMPDEST POP POP POP POP POP POP POP POP POP JUMP JUMPDEST PUSH1 0x1 PUSH1 0x0 SWAP1 SLOAD SWAP1 PUSH2 0x100 EXP SWAP1 DIV PUSH20 0xFFFFFFFFFFFFFFFFFFFFFFFFFFFFFFFFFFFFFFFF AND DUP2 JUMP JUMPDEST PUSH1 0x0 PUSH1 0x40 MLOAD DUP1 PUSH1 0x60 ADD PUSH1 0x40 MSTORE DUP1 PUSH1 0x0 DUP2 MSTORE PUSH1 0x20 ADD DUP4 DUP2 MSTORE PUSH1 0x20 ADD PUSH1 0x0 ISZERO ISZERO DUP2 MSTORE POP SWAP1 POP PUSH1 0x1 PUSH1 0x0 SWAP1 SLOAD SWAP1 PUSH2 0x100 EXP SWAP1 DIV PUSH20 0xFFFFFFFFFFFFFFFFFFFFFFFFFFFFFFFFFFFFFFFF AND PUSH20 0xFFFFFFFFFFFFFFFFFFFFFFFFFFFFFFFFFFFFFFFF AND PUSH4 0x17F3B9A0 DUP3 PUSH1 0x40 MLOAD DUP3 PUSH4 0xFFFFFFFF AND PUSH1 0xE0 SHL DUP2 MSTORE PUSH1 0x4 ADD PUSH2 0x31C SWAP2 SWAP1 PUSH2 0xF57 JUMP JUMPDEST PUSH1 0x0 PUSH1 0x40 MLOAD DUP1 DUP4 SUB DUP2 PUSH1 0x0 DUP8 DUP1 EXTCODESIZE ISZERO DUP1 ISZERO PUSH2 0x336 JUMPI PUSH1 0x0 DUP1 REVERT JUMPDEST POP GAS CALL ISZERO DUP1 ISZERO PUSH2 0x34A JUMPI RETURNDATASIZE PUSH1 0x0 DUP1 RETURNDATACOPY RETURNDATASIZE PUSH1 0x0 REVERT JUMPDEST POP POP POP POP POP POP JUMP JUMPDEST PUSH1 0x60 PUSH1 0x2 PUSH1 0x0 SWAP1 SLOAD SWAP1 PUSH2 0x100 EXP SWAP1 DIV PUSH20 0xFFFFFFFFFFFFFFFFFFFFFFFFFFFFFFFFFFFFFFFF AND PUSH20 0xFFFFFFFFFFFFFFFFFFFFFFFFFFFFFFFFFFFFFFFF AND PUSH4 0x69F205F2 PUSH1 0x40 MLOAD DUP2 PUSH4 0xFFFFFFFF AND PUSH1 0xE0 SHL DUP2 MSTORE PUSH1 0x4 ADD PUSH1 0x0 PUSH1 0x40 MLOAD DUP1 DUP4 SUB DUP2 DUP7 GAS STATICCALL ISZERO DUP1 ISZERO PUSH2 0x3C1 JUMPI RETURNDATASIZE PUSH1 0x0 DUP1 RETURNDATACOPY RETURNDATASIZE PUSH1 0x0 REVERT JUMPDEST POP POP POP POP PUSH1 0x40 MLOAD RETURNDATASIZE PUSH1 0x0 DUP3 RETURNDATACOPY RETURNDATASIZE PUSH1 0x1F NOT PUSH1 0x1F DUP3 ADD AND DUP3 ADD DUP1 PUSH1 0x40 MSTORE POP DUP2 ADD SWAP1 PUSH2 0x3EA SWAP2 SWAP1 PUSH2 0x1237 JUMP JUMPDEST SWAP1 POP SWAP1 JUMP JUMPDEST PUSH2 0x3F7 PUSH2 0x587 JUMP JUMPDEST ADDRESS PUSH20 0xFFFFFFFFFFFFFFFFFFFFFFFFFFFFFFFFFFFFFFFF AND SELFDESTRUCT JUMPDEST PUSH1 0x2 PUSH1 0x0 SWAP1 SLOAD SWAP1 PUSH2 0x100 EXP SWAP1 DIV PUSH20 0xFFFFFFFFFFFFFFFFFFFFFFFFFFFFFFFFFFFFFFFF AND DUP2 JUMP JUMPDEST PUSH1 0x0 DUP1 PUSH1 0x0 SWAP1 SLOAD SWAP1 PUSH2 0x100 EXP SWAP1 DIV PUSH20 0xFFFFFFFFFFFFFFFFFFFFFFFFFFFFFFFFFFFFFFFF AND SWAP1 POP SWAP1 JUMP JUMPDEST PUSH1 0x60 PUSH1 0x1 PUSH1 0x0 SWAP1 SLOAD SWAP1 PUSH2 0x100 EXP SWAP1 DIV PUSH20 0xFFFFFFFFFFFFFFFFFFFFFFFFFFFFFFFFFFFFFFFF AND PUSH20 0xFFFFFFFFFFFFFFFFFFFFFFFFFFFFFFFFFFFFFFFF AND PUSH4 0xA855A589 PUSH1 0x40 MLOAD DUP2 PUSH4 0xFFFFFFFF AND PUSH1 0xE0 SHL DUP2 MSTORE PUSH1 0x4 ADD PUSH1 0x0 PUSH1 0x40 MLOAD DUP1 DUP4 SUB DUP2 DUP7 GAS STATICCALL ISZERO DUP1 ISZERO PUSH2 0x4CE JUMPI RETURNDATASIZE PUSH1 0x0 DUP1 RETURNDATACOPY RETURNDATASIZE PUSH1 0x0 REVERT JUMPDEST POP POP POP POP PUSH1 0x40 MLOAD RETURNDATASIZE PUSH1 0x0 DUP3 RETURNDATACOPY RETURNDATASIZE PUSH1 0x1F NOT PUSH1 0x1F DUP3 ADD AND DUP3 ADD DUP1 PUSH1 0x40 MSTORE POP DUP2 ADD SWAP1 PUSH2 0x4F7 SWAP2 SWAP1 PUSH2 0x13E1 JUMP JUMPDEST SWAP1 POP SWAP1 JUMP JUMPDEST PUSH2 0x504 PUSH2 0x587 JUMP JUMPDEST PUSH1 0x0 PUSH20 0xFFFFFFFFFFFFFFFFFFFFFFFFFFFFFFFFFFFFFFFF AND DUP2 PUSH20 0xFFFFFFFFFFFFFFFFFFFFFFFFFFFFFFFFFFFFFFFF AND SUB PUSH2 0x573 JUMPI PUSH1 0x40 MLOAD PUSH32 0x8C379A000000000000000000000000000000000000000000000000000000000 DUP2 MSTORE PUSH1 0x4 ADD PUSH2 0x56A SWAP1 PUSH2 0x14AD JUMP JUMPDEST PUSH1 0x40 MLOAD DUP1 SWAP2 SUB SWAP1 REVERT JUMPDEST PUSH2 0x57C DUP2 PUSH2 0x5FE JUMP JUMPDEST POP JUMP JUMPDEST PUSH1 0x0 CALLER SWAP1 POP SWAP1 JUMP JUMPDEST CALLER PUSH20 0xFFFFFFFFFFFFFFFFFFFFFFFFFFFFFFFFFFFFFFFF AND PUSH2 0x5A6 PUSH2 0x436 JUMP JUMPDEST PUSH20 0xFFFFFFFFFFFFFFFFFFFFFFFFFFFFFFFFFFFFFFFF AND EQ PUSH2 0x5FC JUMPI PUSH1 0x40 MLOAD PUSH32 0x8C379A000000000000000000000000000000000000000000000000000000000 DUP2 MSTORE PUSH1 0x4 ADD PUSH2 0x5F3 SWAP1 PUSH2 0x1519 JUMP JUMPDEST PUSH1 0x40 MLOAD DUP1 SWAP2 SUB SWAP1 REVERT JUMPDEST JUMP JUMPDEST PUSH1 0x0 DUP1 PUSH1 0x0 SWAP1 SLOAD SWAP1 PUSH2 0x100 EXP SWAP1 DIV PUSH20 0xFFFFFFFFFFFFFFFFFFFFFFFFFFFFFFFFFFFFFFFF AND SWAP1 POP DUP2 PUSH1 0x0 DUP1 PUSH2 0x100 EXP DUP2 SLOAD DUP2 PUSH20 0xFFFFFFFFFFFFFFFFFFFFFFFFFFFFFFFFFFFFFFFF MUL NOT AND SWAP1 DUP4 PUSH20 0xFFFFFFFFFFFFFFFFFFFFFFFFFFFFFFFFFFFFFFFF AND MUL OR SWAP1 SSTORE POP DUP2 PUSH20 0xFFFFFFFFFFFFFFFFFFFFFFFFFFFFFFFFFFFFFFFF AND DUP2 PUSH20 0xFFFFFFFFFFFFFFFFFFFFFFFFFFFFFFFFFFFFFFFF AND PUSH32 0x8BE0079C531659141344CD1FD0A4F28419497F9722A3DAAFE3B4186F6B6457E0 PUSH1 0x40 MLOAD PUSH1 0x40 MLOAD DUP1 SWAP2 SUB SWAP1 LOG3 POP POP JUMP JUMPDEST PUSH1 0x0 PUSH1 0x40 MLOAD SWAP1 POP SWAP1 JUMP JUMPDEST PUSH1 0x0 DUP1 REVERT JUMPDEST PUSH1 0x0 DUP1 REVERT JUMPDEST PUSH1 0x0 DUP1 REVERT JUMPDEST PUSH1 0x0 DUP1 REVERT JUMPDEST PUSH1 0x0 PUSH1 0x1F NOT PUSH1 0x1F DUP4 ADD AND SWAP1 POP SWAP2 SWAP1 POP JUMP JUMPDEST PUSH32 0x4E487B7100000000000000000000000000000000000000000000000000000000 PUSH1 0x0 MSTORE PUSH1 0x41 PUSH1 0x4 MSTORE PUSH1 0x24 PUSH1 0x0 REVERT JUMPDEST PUSH2 0x729 DUP3 PUSH2 0x6E0 JUMP JUMPDEST DUP2 ADD DUP2 DUP2 LT PUSH8 0xFFFFFFFFFFFFFFFF DUP3 GT OR ISZERO PUSH2 0x748 JUMPI PUSH2 0x747 PUSH2 0x6F1 JUMP JUMPDEST JUMPDEST DUP1 PUSH1 0x40 MSTORE POP POP POP JUMP JUMPDEST PUSH1 0x0 PUSH2 0x75B PUSH2 0x6C2 JUMP JUMPDEST SWAP1 POP PUSH2 0x767 DUP3 DUP3 PUSH2 0x720 JUMP JUMPDEST SWAP2 SWAP1 POP JUMP JUMPDEST PUSH1 0x0 PUSH8 0xFFFFFFFFFFFFFFFF DUP3 GT ISZERO PUSH2 0x787 JUMPI PUSH2 0x786 PUSH2 0x6F1 JUMP JUMPDEST JUMPDEST PUSH2 0x790 DUP3 PUSH2 0x6E0 JUMP JUMPDEST SWAP1 POP PUSH1 0x20 DUP2 ADD SWAP1 POP SWAP2 SWAP1 POP JUMP JUMPDEST DUP3 DUP2 DUP4 CALLDATACOPY PUSH1 0x0 DUP4 DUP4 ADD MSTORE POP POP POP JUMP JUMPDEST PUSH1 0x0 PUSH2 0x7BF PUSH2 0x7BA DUP5 PUSH2 0x76C JUMP JUMPDEST PUSH2 0x751 JUMP JUMPDEST SWAP1 POP DUP3 DUP2 MSTORE PUSH1 0x20 DUP2 ADD DUP5 DUP5 DUP5 ADD GT ISZERO PUSH2 0x7DB JUMPI PUSH2 0x7DA PUSH2 0x6DB JUMP JUMPDEST JUMPDEST PUSH2 0x7E6 DUP5 DUP3 DUP6 PUSH2 0x79D JUMP JUMPDEST POP SWAP4 SWAP3 POP POP POP JUMP JUMPDEST PUSH1 0x0 DUP3 PUSH1 0x1F DUP4 ADD SLT PUSH2 0x803 JUMPI PUSH2 0x802 PUSH2 0x6D6 JUMP JUMPDEST JUMPDEST DUP2 CALLDATALOAD PUSH2 0x813 DUP5 DUP3 PUSH1 0x20 DUP7 ADD PUSH2 0x7AC JUMP JUMPDEST SWAP2 POP POP SWAP3 SWAP2 POP POP JUMP JUMPDEST PUSH1 0x0 DUP2 SWAP1 POP SWAP2 SWAP1 POP JUMP JUMPDEST PUSH2 0x82F DUP2 PUSH2 0x81C JUMP JUMPDEST DUP2 EQ PUSH2 0x83A JUMPI PUSH1 0x0 DUP1 REVERT JUMPDEST POP JUMP JUMPDEST PUSH1 0x0 DUP2 CALLDATALOAD SWAP1 POP PUSH2 0x84C DUP2 PUSH2 0x826 JUMP JUMPDEST SWAP3 SWAP2 POP POP JUMP JUMPDEST PUSH1 0x0 DUP1 PUSH1 0x0 DUP1 PUSH1 0x80 DUP6 DUP8 SUB SLT ISZERO PUSH2 0x86C JUMPI PUSH2 0x86B PUSH2 0x6CC JUMP JUMPDEST JUMPDEST PUSH1 0x0 DUP6 ADD CALLDATALOAD PUSH8 0xFFFFFFFFFFFFFFFF DUP2 GT ISZERO PUSH2 0x88A JUMPI PUSH2 0x889 PUSH2 0x6D1 JUMP JUMPDEST JUMPDEST PUSH2 0x896 DUP8 DUP3 DUP9 ADD PUSH2 0x7EE JUMP JUMPDEST SWAP5 POP POP PUSH1 0x20 DUP6 ADD CALLDATALOAD PUSH8 0xFFFFFFFFFFFFFFFF DUP2 GT ISZERO PUSH2 0x8B7 JUMPI PUSH2 0x8B6 PUSH2 0x6D1 JUMP JUMPDEST JUMPDEST PUSH2 0x8C3 DUP8 DUP3 DUP9 ADD PUSH2 0x7EE JUMP JUMPDEST SWAP4 POP POP PUSH1 0x40 PUSH2 0x8D4 DUP8 DUP3 DUP9 ADD PUSH2 0x83D JUMP JUMPDEST SWAP3 POP POP PUSH1 0x60 DUP6 ADD CALLDATALOAD PUSH8 0xFFFFFFFFFFFFFFFF DUP2 GT ISZERO PUSH2 0x8F5 JUMPI PUSH2 0x8F4 PUSH2 0x6D1 JUMP JUMPDEST JUMPDEST PUSH2 0x901 DUP8 DUP3 DUP9 ADD PUSH2 0x7EE JUMP JUMPDEST SWAP2 POP POP SWAP3 SWAP6 SWAP2 SWAP5 POP SWAP3 POP JUMP JUMPDEST PUSH1 0x0 PUSH20 0xFFFFFFFFFFFFFFFFFFFFFFFFFFFFFFFFFFFFFFFF DUP3 AND SWAP1 POP SWAP2 SWAP1 POP JUMP JUMPDEST PUSH1 0x0 DUP2 SWAP1 POP SWAP2 SWAP1 POP JUMP JUMPDEST PUSH1 0x0 PUSH2 0x952 PUSH2 0x94D PUSH2 0x948 DUP5 PUSH2 0x90D JUMP JUMPDEST PUSH2 0x92D JUMP JUMPDEST PUSH2 0x90D JUMP JUMPDEST SWAP1 POP SWAP2 SWAP1 POP JUMP JUMPDEST PUSH1 0x0 PUSH2 0x964 DUP3 PUSH2 0x937 JUMP JUMPDEST SWAP1 POP SWAP2 SWAP1 POP JUMP JUMPDEST PUSH1 0x0 PUSH2 0x976 DUP3 PUSH2 0x959 JUMP JUMPDEST SWAP1 POP SWAP2 SWAP1 POP JUMP JUMPDEST PUSH2 0x986 DUP2 PUSH2 0x96B JUMP JUMPDEST DUP3 MSTORE POP POP JUMP JUMPDEST PUSH1 0x0 PUSH1 0x20 DUP3 ADD SWAP1 POP PUSH2 0x9A1 PUSH1 0x0 DUP4 ADD DUP5 PUSH2 0x97D JUMP JUMPDEST SWAP3 SWAP2 POP POP JUMP JUMPDEST PUSH1 0x0 PUSH1 0x20 DUP3 DUP5 SUB SLT ISZERO PUSH2 0x9BD JUMPI PUSH2 0x9BC PUSH2 0x6CC JUMP JUMPDEST JUMPDEST PUSH1 0x0 DUP3 ADD CALLDATALOAD PUSH8 0xFFFFFFFFFFFFFFFF DUP2 GT ISZERO PUSH2 0x9DB JUMPI PUSH2 0x9DA PUSH2 0x6D1 JUMP JUMPDEST JUMPDEST PUSH2 0x9E7 DUP5 DUP3 DUP6 ADD PUSH2 0x7EE JUMP JUMPDEST SWAP2 POP POP SWAP3 SWAP2 POP POP JUMP JUMPDEST PUSH1 0x0 DUP2 MLOAD SWAP1 POP SWAP2 SWAP1 POP JUMP JUMPDEST PUSH1 0x0 DUP3 DUP3 MSTORE PUSH1 0x20 DUP3 ADD SWAP1 POP SWAP3 SWAP2 POP POP JUMP JUMPDEST PUSH1 0x0 DUP2 SWAP1 POP PUSH1 0x20 DUP3 ADD SWAP1 POP SWAP2 SWAP1 POP JUMP JUMPDEST PUSH2 0xA25 DUP2 PUSH2 0x81C JUMP JUMPDEST DUP3 MSTORE POP POP JUMP JUMPDEST PUSH1 0x0 DUP2 MLOAD SWAP1 POP SWAP2 SWAP1 POP JUMP JUMPDEST PUSH1 0x0 DUP3 DUP3 MSTORE PUSH1 0x20 DUP3 ADD SWAP1 POP SWAP3 SWAP2 POP POP JUMP JUMPDEST PUSH1 0x0 JUMPDEST DUP4 DUP2 LT ISZERO PUSH2 0xA65 JUMPI DUP1 DUP3 ADD MLOAD DUP2 DUP5 ADD MSTORE PUSH1 0x20 DUP2 ADD SWAP1 POP PUSH2 0xA4A JUMP JUMPDEST PUSH1 0x0 DUP5 DUP5 ADD MSTORE POP POP POP POP JUMP JUMPDEST PUSH1 0x0 PUSH2 0xA7C DUP3 PUSH2 0xA2B JUMP JUMPDEST PUSH2 0xA86 DUP2 DUP6 PUSH2 0xA36 JUMP JUMPDEST SWAP4 POP PUSH2 0xA96 DUP2 DUP6 PUSH1 0x20 DUP7 ADD PUSH2 0xA47 JUMP JUMPDEST PUSH2 0xA9F DUP2 PUSH2 0x6E0 JUMP JUMPDEST DUP5 ADD SWAP2 POP POP SWAP3 SWAP2 POP POP JUMP JUMPDEST PUSH1 0x0 PUSH2 0xAB5 DUP3 PUSH2 0x90D JUMP JUMPDEST SWAP1 POP SWAP2 SWAP1 POP JUMP JUMPDEST PUSH2 0xAC5 DUP2 PUSH2 0xAAA JUMP JUMPDEST DUP3 MSTORE POP POP JUMP JUMPDEST PUSH1 0x0 DUP2 ISZERO ISZERO SWAP1 POP SWAP2 SWAP1 POP JUMP JUMPDEST PUSH2 0xAE0 DUP2 PUSH2 0xACB JUMP JUMPDEST DUP3 MSTORE POP POP JUMP JUMPDEST PUSH1 0x0 PUSH1 0xE0 DUP4 ADD PUSH1 0x0 DUP4 ADD MLOAD PUSH2 0xAFE PUSH1 0x0 DUP7 ADD DUP3 PUSH2 0xA1C JUMP JUMPDEST POP PUSH1 0x20 DUP4 ADD MLOAD DUP5 DUP3 SUB PUSH1 0x20 DUP7 ADD MSTORE PUSH2 0xB16 DUP3 DUP3 PUSH2 0xA71 JUMP JUMPDEST SWAP2 POP POP PUSH1 0x40 DUP4 ADD MLOAD PUSH2 0xB2B PUSH1 0x40 DUP7 ADD DUP3 PUSH2 0xABC JUMP JUMPDEST POP PUSH1 0x60 DUP4 ADD MLOAD DUP5 DUP3 SUB PUSH1 0x60 DUP7 ADD MSTORE PUSH2 0xB43 DUP3 DUP3 PUSH2 0xA71 JUMP JUMPDEST SWAP2 POP POP PUSH1 0x80 DUP4 ADD MLOAD PUSH2 0xB58 PUSH1 0x80 DUP7 ADD DUP3 PUSH2 0xA1C JUMP JUMPDEST POP PUSH1 0xA0 DUP4 ADD MLOAD DUP5 DUP3 SUB PUSH1 0xA0 DUP7 ADD MSTORE PUSH2 0xB70 DUP3 DUP3 PUSH2 0xA71 JUMP JUMPDEST SWAP2 POP POP PUSH1 0xC0 DUP4 ADD MLOAD PUSH2 0xB85 PUSH1 0xC0 DUP7 ADD DUP3 PUSH2 0xAD7 JUMP JUMPDEST POP DUP1 SWAP2 POP POP SWAP3 SWAP2 POP POP JUMP JUMPDEST PUSH1 0x0 PUSH2 0xB9C DUP4 DUP4 PUSH2 0xAE6 JUMP JUMPDEST SWAP1 POP SWAP3 SWAP2 POP POP JUMP JUMPDEST PUSH1 0x0 PUSH1 0x20 DUP3 ADD SWAP1 POP SWAP2 SWAP1 POP JUMP JUMPDEST PUSH1 0x0 PUSH2 0xBBC DUP3 PUSH2 0x9F0 JUMP JUMPDEST PUSH2 0xBC6 DUP2 DUP6 PUSH2 0x9FB JUMP JUMPDEST SWAP4 POP DUP4 PUSH1 0x20 DUP3 MUL DUP6 ADD PUSH2 0xBD8 DUP6 PUSH2 0xA0C JUMP JUMPDEST DUP1 PUSH1 0x0 JUMPDEST DUP6 DUP2 LT ISZERO PUSH2 0xC14 JUMPI DUP5 DUP5 SUB DUP10 MSTORE DUP2 MLOAD PUSH2 0xBF5 DUP6 DUP3 PUSH2 0xB90 JUMP JUMPDEST SWAP5 POP PUSH2 0xC00 DUP4 PUSH2 0xBA4 JUMP JUMPDEST SWAP3 POP PUSH1 0x20 DUP11 ADD SWAP10 POP POP PUSH1 0x1 DUP2 ADD SWAP1 POP PUSH2 0xBDC JUMP JUMPDEST POP DUP3 SWAP8 POP DUP8 SWAP6 POP POP POP POP POP POP SWAP3 SWAP2 POP POP JUMP JUMPDEST PUSH1 0x0 PUSH1 0x20 DUP3 ADD SWAP1 POP DUP2 DUP2 SUB PUSH1 0x0 DUP4 ADD MSTORE PUSH2 0xC40 DUP2 DUP5 PUSH2 0xBB1 JUMP JUMPDEST SWAP1 POP SWAP3 SWAP2 POP POP JUMP JUMPDEST PUSH1 0x0 PUSH2 0xC53 DUP3 PUSH2 0x959 JUMP JUMPDEST SWAP1 POP SWAP2 SWAP1 POP JUMP JUMPDEST PUSH2 0xC63 DUP2 PUSH2 0xC48 JUMP JUMPDEST DUP3 MSTORE POP POP JUMP JUMPDEST PUSH1 0x0 PUSH1 0x20 DUP3 ADD SWAP1 POP PUSH2 0xC7E PUSH1 0x0 DUP4 ADD DUP5 PUSH2 0xC5A JUMP JUMPDEST SWAP3 SWAP2 POP POP JUMP JUMPDEST PUSH2 0xC8D DUP2 PUSH2 0xAAA JUMP JUMPDEST DUP3 MSTORE POP POP JUMP JUMPDEST PUSH1 0x0 PUSH1 0x20 DUP3 ADD SWAP1 POP PUSH2 0xCA8 PUSH1 0x0 DUP4 ADD DUP5 PUSH2 0xC84 JUMP JUMPDEST SWAP3 SWAP2 POP POP JUMP JUMPDEST PUSH1 0x0 DUP2 MLOAD SWAP1 POP SWAP2 SWAP1 POP JUMP JUMPDEST PUSH1 0x0 DUP3 DUP3 MSTORE PUSH1 0x20 DUP3 ADD SWAP1 POP SWAP3 SWAP2 POP POP JUMP JUMPDEST PUSH1 0x0 DUP2 SWAP1 POP PUSH1 0x20 DUP3 ADD SWAP1 POP SWAP2 SWAP1 POP JUMP JUMPDEST PUSH1 0x0 PUSH1 0x60 DUP4 ADD PUSH1 0x0 DUP4 ADD MLOAD PUSH2 0xCF2 PUSH1 0x0 DUP7 ADD DUP3 PUSH2 0xA1C JUMP JUMPDEST POP PUSH1 0x20 DUP4 ADD MLOAD DUP5 DUP3 SUB PUSH1 0x20 DUP7 ADD MSTORE PUSH2 0xD0A DUP3 DUP3 PUSH2 0xA71 JUMP JUMPDEST SWAP2 POP POP PUSH1 0x40 DUP4 ADD MLOAD PUSH2 0xD1F PUSH1 0x40 DUP7 ADD DUP3 PUSH2 0xAD7 JUMP JUMPDEST POP DUP1 SWAP2 POP POP SWAP3 SWAP2 POP POP JUMP JUMPDEST PUSH1 0x0 PUSH2 0xD36 DUP4 DUP4 PUSH2 0xCDA JUMP JUMPDEST SWAP1 POP SWAP3 SWAP2 POP POP JUMP JUMPDEST PUSH1 0x0 PUSH1 0x20 DUP3 ADD SWAP1 POP SWAP2 SWAP1 POP JUMP JUMPDEST PUSH1 0x0 PUSH2 0xD56 DUP3 PUSH2 0xCAE JUMP JUMPDEST PUSH2 0xD60 DUP2 DUP6 PUSH2 0xCB9 JUMP JUMPDEST SWAP4 POP DUP4 PUSH1 0x20 DUP3 MUL DUP6 ADD PUSH2 0xD72 DUP6 PUSH2 0xCCA JUMP JUMPDEST DUP1 PUSH1 0x0 JUMPDEST DUP6 DUP2 LT ISZERO PUSH2 0xDAE JUMPI DUP5 DUP5 SUB DUP10 MSTORE DUP2 MLOAD PUSH2 0xD8F DUP6 DUP3 PUSH2 0xD2A JUMP JUMPDEST SWAP5 POP PUSH2 0xD9A DUP4 PUSH2 0xD3E JUMP JUMPDEST SWAP3 POP PUSH1 0x20 DUP11 ADD SWAP10 POP POP PUSH1 0x1 DUP2 ADD SWAP1 POP PUSH2 0xD76 JUMP JUMPDEST POP DUP3 SWAP8 POP DUP8 SWAP6 POP POP POP POP POP POP SWAP3 SWAP2 POP POP JUMP JUMPDEST PUSH1 0x0 PUSH1 0x20 DUP3 ADD SWAP1 POP DUP2 DUP2 SUB PUSH1 0x0 DUP4 ADD MSTORE PUSH2 0xDDA DUP2 DUP5 PUSH2 0xD4B JUMP JUMPDEST SWAP1 POP SWAP3 SWAP2 POP POP JUMP JUMPDEST PUSH2 0xDEB DUP2 PUSH2 0xAAA JUMP JUMPDEST DUP2 EQ PUSH2 0xDF6 JUMPI PUSH1 0x0 DUP1 REVERT JUMPDEST POP JUMP JUMPDEST PUSH1 0x0 DUP2 CALLDATALOAD SWAP1 POP PUSH2 0xE08 DUP2 PUSH2 0xDE2 JUMP JUMPDEST SWAP3 SWAP2 POP POP JUMP JUMPDEST PUSH1 0x0 PUSH1 0x20 DUP3 DUP5 SUB SLT ISZERO PUSH2 0xE24 JUMPI PUSH2 0xE23 PUSH2 0x6CC JUMP JUMPDEST JUMPDEST PUSH1 0x0 PUSH2 0xE32 DUP5 DUP3 DUP6 ADD PUSH2 0xDF9 JUMP JUMPDEST SWAP2 POP POP SWAP3 SWAP2 POP POP JUMP JUMPDEST PUSH1 0x0 PUSH1 0xE0 DUP4 ADD PUSH1 0x0 DUP4 ADD MLOAD PUSH2 0xE53 PUSH1 0x0 DUP7 ADD DUP3 PUSH2 0xA1C JUMP JUMPDEST POP PUSH1 0x20 DUP4 ADD MLOAD DUP5 DUP3 SUB PUSH1 0x20 DUP7 ADD MSTORE PUSH2 0xE6B DUP3 DUP3 PUSH2 0xA71 JUMP JUMPDEST SWAP2 POP POP PUSH1 0x40 DUP4 ADD MLOAD PUSH2 0xE80 PUSH1 0x40 DUP7 ADD DUP3 PUSH2 0xABC JUMP JUMPDEST POP PUSH1 0x60 DUP4 ADD MLOAD DUP5 DUP3 SUB PUSH1 0x60 DUP7 ADD MSTORE PUSH2 0xE98 DUP3 DUP3 PUSH2 0xA71 JUMP JUMPDEST SWAP2 POP POP PUSH1 0x80 DUP4 ADD MLOAD PUSH2 0xEAD PUSH1 0x80 DUP7 ADD DUP3 PUSH2 0xA1C JUMP JUMPDEST POP PUSH1 0xA0 DUP4 ADD MLOAD DUP5 DUP3 SUB PUSH1 0xA0 DUP7 ADD MSTORE PUSH2 0xEC5 DUP3 DUP3 PUSH2 0xA71 JUMP JUMPDEST SWAP2 POP POP PUSH1 0xC0 DUP4 ADD MLOAD PUSH2 0xEDA PUSH1 0xC0 DUP7 ADD DUP3 PUSH2 0xAD7 JUMP JUMPDEST POP DUP1 SWAP2 POP POP SWAP3 SWAP2 POP POP JUMP JUMPDEST PUSH1 0x0 PUSH1 0x20 DUP3 ADD SWAP1 POP DUP2 DUP2 SUB PUSH1 0x0 DUP4 ADD MSTORE PUSH2 0xEFF DUP2 DUP5 PUSH2 0xE3B JUMP JUMPDEST SWAP1 POP SWAP3 SWAP2 POP POP JUMP JUMPDEST PUSH1 0x0 PUSH1 0x60 DUP4 ADD PUSH1 0x0 DUP4 ADD MLOAD PUSH2 0xF1F PUSH1 0x0 DUP7 ADD DUP3 PUSH2 0xA1C JUMP JUMPDEST POP PUSH1 0x20 DUP4 ADD MLOAD DUP5 DUP3 SUB PUSH1 0x20 DUP7 ADD MSTORE PUSH2 0xF37 DUP3 DUP3 PUSH2 0xA71 JUMP JUMPDEST SWAP2 POP POP PUSH1 0x40 DUP4 ADD MLOAD PUSH2 0xF4C PUSH1 0x40 DUP7 ADD DUP3 PUSH2 0xAD7 JUMP JUMPDEST POP DUP1 SWAP2 POP POP SWAP3 SWAP2 POP POP JUMP JUMPDEST PUSH1 0x0 PUSH1 0x20 DUP3 ADD SWAP1 POP DUP2 DUP2 SUB PUSH1 0x0 DUP4 ADD MSTORE PUSH2 0xF71 DUP2 DUP5 PUSH2 0xF07 JUMP JUMPDEST SWAP1 POP SWAP3 SWAP2 POP POP JUMP JUMPDEST PUSH1 0x0 PUSH8 0xFFFFFFFFFFFFFFFF DUP3 GT ISZERO PUSH2 0xF94 JUMPI PUSH2 0xF93 PUSH2 0x6F1 JUMP JUMPDEST JUMPDEST PUSH1 0x20 DUP3 MUL SWAP1 POP PUSH1 0x20 DUP2 ADD SWAP1 POP SWAP2 SWAP1 POP JUMP JUMPDEST PUSH1 0x0 DUP1 REVERT JUMPDEST PUSH1 0x0 DUP1 REVERT JUMPDEST PUSH1 0x0 DUP1 REVERT JUMPDEST PUSH1 0x0 DUP2 MLOAD SWAP1 POP PUSH2 0xFC3 DUP2 PUSH2 0x826 JUMP JUMPDEST SWAP3 SWAP2 POP POP JUMP JUMPDEST PUSH1 0x0 PUSH2 0xFDC PUSH2 0xFD7 DUP5 PUSH2 0x76C JUMP JUMPDEST PUSH2 0x751 JUMP JUMPDEST SWAP1 POP DUP3 DUP2 MSTORE PUSH1 0x20 DUP2 ADD DUP5 DUP5 DUP5 ADD GT ISZERO PUSH2 0xFF8 JUMPI PUSH2 0xFF7 PUSH2 0x6DB JUMP JUMPDEST JUMPDEST PUSH2 0x1003 DUP5 DUP3 DUP6 PUSH2 0xA47 JUMP JUMPDEST POP SWAP4 SWAP3 POP POP POP JUMP JUMPDEST PUSH1 0x0 DUP3 PUSH1 0x1F DUP4 ADD SLT PUSH2 0x1020 JUMPI PUSH2 0x101F PUSH2 0x6D6 JUMP JUMPDEST JUMPDEST DUP2 MLOAD PUSH2 0x1030 DUP5 DUP3 PUSH1 0x20 DUP7 ADD PUSH2 0xFC9 JUMP JUMPDEST SWAP2 POP POP SWAP3 SWAP2 POP POP JUMP JUMPDEST PUSH1 0x0 DUP2 MLOAD SWAP1 POP PUSH2 0x1048 DUP2 PUSH2 0xDE2 JUMP JUMPDEST SWAP3 SWAP2 POP POP JUMP JUMPDEST PUSH2 0x1057 DUP2 PUSH2 0xACB JUMP JUMPDEST DUP2 EQ PUSH2 0x1062 JUMPI PUSH1 0x0 DUP1 REVERT JUMPDEST POP JUMP JUMPDEST PUSH1 0x0 DUP2 MLOAD SWAP1 POP PUSH2 0x1074 DUP2 PUSH2 0x104E JUMP JUMPDEST SWAP3 SWAP2 POP POP JUMP JUMPDEST PUSH1 0x0 PUSH1 0xE0 DUP3 DUP5 SUB SLT ISZERO PUSH2 0x1090 JUMPI PUSH2 0x108F PUSH2 0xFAA JUMP JUMPDEST JUMPDEST PUSH2 0x109A PUSH1 0xE0 PUSH2 0x751 JUMP JUMPDEST SWAP1 POP PUSH1 0x0 PUSH2 0x10AA DUP5 DUP3 DUP6 ADD PUSH2 0xFB4 JUMP JUMPDEST PUSH1 0x0 DUP4 ADD MSTORE POP PUSH1 0x20 DUP3 ADD MLOAD PUSH8 0xFFFFFFFFFFFFFFFF DUP2 GT ISZERO PUSH2 0x10CE JUMPI PUSH2 0x10CD PUSH2 0xFAF JUMP JUMPDEST JUMPDEST PUSH2 0x10DA DUP5 DUP3 DUP6 ADD PUSH2 0x100B JUMP JUMPDEST PUSH1 0x20 DUP4 ADD MSTORE POP PUSH1 0x40 PUSH2 0x10EE DUP5 DUP3 DUP6 ADD PUSH2 0x1039 JUMP JUMPDEST PUSH1 0x40 DUP4 ADD MSTORE POP PUSH1 0x60 DUP3 ADD MLOAD PUSH8 0xFFFFFFFFFFFFFFFF DUP2 GT ISZERO PUSH2 0x1112 JUMPI PUSH2 0x1111 PUSH2 0xFAF JUMP JUMPDEST JUMPDEST PUSH2 0x111E DUP5 DUP3 DUP6 ADD PUSH2 0x100B JUMP JUMPDEST PUSH1 0x60 DUP4 ADD MSTORE POP PUSH1 0x80 PUSH2 0x1132 DUP5 DUP3 DUP6 ADD PUSH2 0xFB4 JUMP JUMPDEST PUSH1 0x80 DUP4 ADD MSTORE POP PUSH1 0xA0 DUP3 ADD MLOAD PUSH8 0xFFFFFFFFFFFFFFFF DUP2 GT ISZERO PUSH2 0x1156 JUMPI PUSH2 0x1155 PUSH2 0xFAF JUMP JUMPDEST JUMPDEST PUSH2 0x1162 DUP5 DUP3 DUP6 ADD PUSH2 0x100B JUMP JUMPDEST PUSH1 0xA0 DUP4 ADD MSTORE POP PUSH1 0xC0 PUSH2 0x1176 DUP5 DUP3 DUP6 ADD PUSH2 0x1065 JUMP JUMPDEST PUSH1 0xC0 DUP4 ADD MSTORE POP SWAP3 SWAP2 POP POP JUMP JUMPDEST PUSH1 0x0 PUSH2 0x1195 PUSH2 0x1190 DUP5 PUSH2 0xF79 JUMP JUMPDEST PUSH2 0x751 JUMP JUMPDEST SWAP1 POP DUP1 DUP4 DUP3 MSTORE PUSH1 0x20 DUP3 ADD SWAP1 POP PUSH1 0x20 DUP5 MUL DUP4 ADD DUP6 DUP2 GT ISZERO PUSH2 0x11B8 JUMPI PUSH2 0x11B7 PUSH2 0xFA5 JUMP JUMPDEST JUMPDEST DUP4 JUMPDEST DUP2 DUP2 LT ISZERO PUSH2 0x11FF JUMPI DUP1 MLOAD PUSH8 0xFFFFFFFFFFFFFFFF DUP2 GT ISZERO PUSH2 0x11DD JUMPI PUSH2 0x11DC PUSH2 0x6D6 JUMP JUMPDEST JUMPDEST DUP1 DUP7 ADD PUSH2 0x11EA DUP10 DUP3 PUSH2 0x107A JUMP JUMPDEST DUP6 MSTORE PUSH1 0x20 DUP6 ADD SWAP5 POP POP POP PUSH1 0x20 DUP2 ADD SWAP1 POP PUSH2 0x11BA JUMP JUMPDEST POP POP POP SWAP4 SWAP3 POP POP POP JUMP JUMPDEST PUSH1 0x0 DUP3 PUSH1 0x1F DUP4 ADD SLT PUSH2 0x121E JUMPI PUSH2 0x121D PUSH2 0x6D6 JUMP JUMPDEST JUMPDEST DUP2 MLOAD PUSH2 0x122E DUP5 DUP3 PUSH1 0x20 DUP7 ADD PUSH2 0x1182 JUMP JUMPDEST SWAP2 POP POP SWAP3 SWAP2 POP POP JUMP JUMPDEST PUSH1 0x0 PUSH1 0x20 DUP3 DUP5 SUB SLT ISZERO PUSH2 0x124D JUMPI PUSH2 0x124C PUSH2 0x6CC JUMP JUMPDEST JUMPDEST PUSH1 0x0 DUP3 ADD MLOAD PUSH8 0xFFFFFFFFFFFFFFFF DUP2 GT ISZERO PUSH2 0x126B JUMPI PUSH2 0x126A PUSH2 0x6D1 JUMP JUMPDEST JUMPDEST PUSH2 0x1277 DUP5 DUP3 DUP6 ADD PUSH2 0x1209 JUMP JUMPDEST SWAP2 POP POP SWAP3 SWAP2 POP POP JUMP JUMPDEST PUSH1 0x0 PUSH8 0xFFFFFFFFFFFFFFFF DUP3 GT ISZERO PUSH2 0x129B JUMPI PUSH2 0x129A PUSH2 0x6F1 JUMP JUMPDEST JUMPDEST PUSH1 0x20 DUP3 MUL SWAP1 POP PUSH1 0x20 DUP2 ADD SWAP1 POP SWAP2 SWAP1 POP JUMP JUMPDEST PUSH1 0x0 PUSH1 0x60 DUP3 DUP5 SUB SLT ISZERO PUSH2 0x12C2 JUMPI PUSH2 0x12C1 PUSH2 0xFAA JUMP JUMPDEST JUMPDEST PUSH2 0x12CC PUSH1 0x60 PUSH2 0x751 JUMP JUMPDEST SWAP1 POP PUSH1 0x0 PUSH2 0x12DC DUP5 DUP3 DUP6 ADD PUSH2 0xFB4 JUMP JUMPDEST PUSH1 0x0 DUP4 ADD MSTORE POP PUSH1 0x20 DUP3 ADD MLOAD PUSH8 0xFFFFFFFFFFFFFFFF DUP2 GT ISZERO PUSH2 0x1300 JUMPI PUSH2 0x12FF PUSH2 0xFAF JUMP JUMPDEST JUMPDEST PUSH2 0x130C DUP5 DUP3 DUP6 ADD PUSH2 0x100B JUMP JUMPDEST PUSH1 0x20 DUP4 ADD MSTORE POP PUSH1 0x40 PUSH2 0x1320 DUP5 DUP3 DUP6 ADD PUSH2 0x1065 JUMP JUMPDEST PUSH1 0x40 DUP4 ADD MSTORE POP SWAP3 SWAP2 POP POP JUMP JUMPDEST PUSH1 0x0 PUSH2 0x133F PUSH2 0x133A DUP5 PUSH2 0x1280 JUMP JUMPDEST PUSH2 0x751 JUMP JUMPDEST SWAP1 POP DUP1 DUP4 DUP3 MSTORE PUSH1 0x20 DUP3 ADD SWAP1 POP PUSH1 0x20 DUP5 MUL DUP4 ADD DUP6 DUP2 GT ISZERO PUSH2 0x1362 JUMPI PUSH2 0x1361 PUSH2 0xFA5 JUMP JUMPDEST JUMPDEST DUP4 JUMPDEST DUP2 DUP2 LT ISZERO PUSH2 0x13A9 JUMPI DUP1 MLOAD PUSH8 0xFFFFFFFFFFFFFFFF DUP2 GT ISZERO PUSH2 0x1387 JUMPI PUSH2 0x1386 PUSH2 0x6D6 JUMP JUMPDEST JUMPDEST DUP1 DUP7 ADD PUSH2 0x1394 DUP10 DUP3 PUSH2 0x12AC JUMP JUMPDEST DUP6 MSTORE PUSH1 0x20 DUP6 ADD SWAP5 POP POP POP PUSH1 0x20 DUP2 ADD SWAP1 POP PUSH2 0x1364 JUMP JUMPDEST POP POP POP SWAP4 SWAP3 POP POP POP JUMP JUMPDEST PUSH1 0x0 DUP3 PUSH1 0x1F DUP4 ADD SLT PUSH2 0x13C8 JUMPI PUSH2 0x13C7 PUSH2 0x6D6 JUMP JUMPDEST JUMPDEST DUP2 MLOAD PUSH2 0x13D8 DUP5 DUP3 PUSH1 0x20 DUP7 ADD PUSH2 0x132C JUMP JUMPDEST SWAP2 POP POP SWAP3 SWAP2 POP POP JUMP JUMPDEST PUSH1 0x0 PUSH1 0x20 DUP3 DUP5 SUB SLT ISZERO PUSH2 0x13F7 JUMPI PUSH2 0x13F6 PUSH2 0x6CC JUMP JUMPDEST JUMPDEST PUSH1 0x0 DUP3 ADD MLOAD PUSH8 0xFFFFFFFFFFFFFFFF DUP2 GT ISZERO PUSH2 0x1415 JUMPI PUSH2 0x1414 PUSH2 0x6D1 JUMP JUMPDEST JUMPDEST PUSH2 0x1421 DUP5 DUP3 DUP6 ADD PUSH2 0x13B3 JUMP JUMPDEST SWAP2 POP POP SWAP3 SWAP2 POP POP JUMP JUMPDEST PUSH1 0x0 DUP3 DUP3 MSTORE PUSH1 0x20 DUP3 ADD SWAP1 POP SWAP3 SWAP2 POP POP JUMP JUMPDEST PUSH32 0x4F776E61626C653A206E6577206F776E657220697320746865207A65726F2061 PUSH1 0x0 DUP3 ADD MSTORE PUSH32 0x6464726573730000000000000000000000000000000000000000000000000000 PUSH1 0x20 DUP3 ADD MSTORE POP JUMP JUMPDEST PUSH1 0x0 PUSH2 0x1497 PUSH1 0x26 DUP4 PUSH2 0x142A JUMP JUMPDEST SWAP2 POP PUSH2 0x14A2 DUP3 PUSH2 0x143B JUMP JUMPDEST PUSH1 0x40 DUP3 ADD SWAP1 POP SWAP2 SWAP1 POP JUMP JUMPDEST PUSH1 0x0 PUSH1 0x20 DUP3 ADD SWAP1 POP DUP2 DUP2 SUB PUSH1 0x0 DUP4 ADD MSTORE PUSH2 0x14C6 DUP2 PUSH2 0x148A JUMP JUMPDEST SWAP1 POP SWAP2 SWAP1 POP JUMP JUMPDEST PUSH32 0x4F776E61626C653A2063616C6C6572206973206E6F7420746865206F776E6572 PUSH1 0x0 DUP3 ADD MSTORE POP JUMP JUMPDEST PUSH1 0x0 PUSH2 0x1503 PUSH1 0x20 DUP4 PUSH2 0x142A JUMP JUMPDEST SWAP2 POP PUSH2 0x150E DUP3 PUSH2 0x14CD JUMP JUMPDEST PUSH1 0x20 DUP3 ADD SWAP1 POP SWAP2 SWAP1 POP JUMP JUMPDEST PUSH1 0x0 PUSH1 0x20 DUP3 ADD SWAP1 POP DUP2 DUP2 SUB PUSH1 0x0 DUP4 ADD MSTORE PUSH2 0x1532 DUP2 PUSH2 0x14F6 JUMP JUMPDEST SWAP1 POP SWAP2 SWAP1 POP JUMP INVALID LOG2 PUSH5 0x6970667358 0x22 SLT KECCAK256 SWAP7 0xD6 0x22 0xB4 CODESIZE 0x2F PUSH19 0xE855E0B84831D8042124AFA1377852FF8C5594 0xB9 CALLDATACOPY DELEGATECALL 0xB7 ORIGIN 0xC0 PUSH5 0x736F6C6343 STOP ADDMOD GT STOP CALLER "
				},
				"gasEstimates": {
					"creation": {
						"codeDepositCost": "1097400",
						"executionCost": "infinite",
						"totalCost": "infinite"
					},
					"external": {
						"addIngress(string,string,uint256,string)": "infinite",
						"addWarehouse(string)": "infinite",
						"destroy()": "29972",
						"getAllIngress()": "infinite",
						"getAllWarehouse()": "infinite",
						"ingressDatabase()": "infinite",
						"owner()": "2566",
						"transferOwnership(address)": "30797",
						"warehouseDatabase()": "infinite"
					}
				},
				"methodIdentifiers": {
					"addIngress(string,string,uint256,string)": "388783a8",
					"addWarehouse(string)": "460f6c7e",
					"destroy()": "83197ef0",
					"getAllIngress()": "69f205f2",
					"getAllWarehouse()": "a855a589",
					"ingressDatabase()": "851e12a0",
					"owner()": "8da5cb5b",
					"transferOwnership(address)": "f2fde38b",
					"warehouseDatabase()": "3ff328cb"
				}
			},
			"storageLayout": {
				"storage": [
					{
						"astId": 30,
						"contract": "controller/processing/ProcessingController.sol:ProcessingController",
						"label": "_owner",
						"offset": 0,
						"slot": "0",
						"type": "t_address"
					},
					{
						"astId": 274,
						"contract": "controller/processing/ProcessingController.sol:ProcessingController",
						"label": "warehouseDatabase",
						"offset": 0,
						"slot": "1",
						"type": "t_contract(WarehouseDatabase)513"
					},
					{
						"astId": 254,
						"contract": "controller/processing/ProcessingController.sol:ProcessingController",
						"label": "ingressDatabase",
						"offset": 0,
						"slot": "2",
						"type": "t_contract(IngressDatabase)400"
					}
				],
				"types": {
					"t_address": {
						"encoding": "inplace",
						"label": "address",
						"numberOfBytes": "20"
					},
					"t_contract(IngressDatabase)400": {
						"encoding": "inplace",
						"label": "contract IngressDatabase",
						"numberOfBytes": "20"
					},
					"t_contract(WarehouseDatabase)513": {
						"encoding": "inplace",
						"label": "contract WarehouseDatabase",
						"numberOfBytes": "20"
					}
				}
			},
			"userdoc": {
				"kind": "user",
				"methods": {},
				"version": 1
			}
		}
	}
}