{
	"data": {
		"bytecode": {
			"linkReferences": {},
			"object": "60806040523480156200001157600080fd5b50604051620039173803806200391783398181016040528101906200003791906200012b565b80336000806101000a81548173ffffffffffffffffffffffffffffffffffffffff021916908373ffffffffffffffffffffffffffffffffffffffff16021790555080600160006101000a81548173ffffffffffffffffffffffffffffffffffffffff021916908373ffffffffffffffffffffffffffffffffffffffff16021790555050506200015d565b600080fd5b600073ffffffffffffffffffffffffffffffffffffffff82169050919050565b6000620000f382620000c6565b9050919050565b6200010581620000e6565b81146200011157600080fd5b50565b6000815190506200012581620000fa565b92915050565b600060208284031215620001445762000143620000c1565b5b6000620001548482850162000114565b91505092915050565b6137aa806200016d6000396000f3fe608060405234801561001057600080fd5b50600436106101165760003560e01c806383197ef0116100a2578063b34e97e811610071578063b34e97e8146102f9578063bc46f80f14610317578063c2965ac814610335578063f2fde38b14610353578063f7082e741461036f57610116565b806383197ef0146102835780638da5cb5b1461028d5780638edbcf65146102ab578063ab4e3e75146102db57610116565b8063348900c5116100e9578063348900c5146101b757806339dcbefa146101d55780633cb71d7614610205578063407382851461022357806346fcf4da1461025357610116565b806313ca24e81461011b5780631418f7d71461014b578063166be2531461017b57806325e9b22814610199575b600080fd5b61013560048036038101906101309190611613565b61038d565b6040516101429190611681565b60405180910390f35b610165600480360381019061016091906117f5565b6104c9565b6040516101729190611681565b60405180910390f35b610183610605565b6040516101909190611a3d565b60405180910390f35b6101a16106d0565b6040516101ae9190611b63565b60405180910390f35b6101bf61079b565b6040516101cc9190611d41565b60405180910390f35b6101ef60048036038101906101ea9190611e18565b6108df565b6040516101fc9190611681565b60405180910390f35b61020d610a29565b60405161021a9190611fc6565b60405180910390f35b61023d60048036038101906102389190611fe8565b610af4565b60405161024a9190611681565b60405180910390f35b61026d60048036038101906102689190612074565b610c37565b60405161027a9190611681565b60405180910390f35b61028b610d93565b005b610295610db4565b6040516102a291906120fe565b60405180910390f35b6102c560048036038101906102c09190612119565b610ddd565b6040516102d29190611681565b60405180910390f35b6102e3610ef8565b6040516102f09190611681565b60405180910390f35b610301611046565b60405161030e919061219b565b60405180910390f35b61031f6111ff565b60405161032c919061238a565b60405180910390f35b61033d6112ca565b60405161034a919061251e565b60405180910390f35b61036d6004803603810190610368919061256c565b611395565b005b610377611418565b60405161038491906125f8565b60405180910390f35b6000610397610ef8565b6103d6576040517f08c379a00000000000000000000000000000000000000000000000000000000081526004016103cd90612696565b60405180910390fd5b6000604051806080016040528060008152602001868152602001858152602001848152509050600160009054906101000a900473ffffffffffffffffffffffffffffffffffffffff1673ffffffffffffffffffffffffffffffffffffffff16631d988d60827f8e1604a838d0f1a9b2cda14a099e4ceb08e966cc6e05e8296f67b02d61a79f0960001b6040518363ffffffff1660e01b815260040161047c929190612724565b6020604051808303816000875af115801561049b573d6000803e3d6000fd5b505050506040513d601f19601f820116820180604052508101906104bf9190612779565b9150509392505050565b60006104d3610ef8565b610512576040517f08c379a000000000000000000000000000000000000000000000000000000000815260040161050990612696565b60405180910390fd5b6000604051806080016040528060008152602001868152602001858152602001848152509050600160009054906101000a900473ffffffffffffffffffffffffffffffffffffffff1673ffffffffffffffffffffffffffffffffffffffff1663eb1042bf827f8e1604a838d0f1a9b2cda14a099e4ceb08e966cc6e05e8296f67b02d61a79f0960001b6040518363ffffffff1660e01b81526004016105b8929190612809565b6020604051808303816000875af11580156105d7573d6000803e3d6000fd5b505050506040513d601f19601f820116820180604052508101906105fb9190612779565b9150509392505050565b6060600160009054906101000a900473ffffffffffffffffffffffffffffffffffffffff1673ffffffffffffffffffffffffffffffffffffffff1663639d43f37f8e1604a838d0f1a9b2cda14a099e4ceb08e966cc6e05e8296f67b02d61a79f0960001b6040518263ffffffff1660e01b81526004016106859190612839565b600060405180830381865afa1580156106a2573d6000803e3d6000fd5b505050506040513d6000823e3d601f19601f820116820180604052508101906106cb9190612a80565b905090565b6060600160009054906101000a900473ffffffffffffffffffffffffffffffffffffffff1673ffffffffffffffffffffffffffffffffffffffff16633609010e7f8e1604a838d0f1a9b2cda14a099e4ceb08e966cc6e05e8296f67b02d61a79f0960001b6040518263ffffffff1660e01b81526004016107509190612839565b600060405180830381865afa15801561076d573d6000803e3d6000fd5b505050506040513d6000823e3d601f19601f820116820180604052508101906107969190612c04565b905090565b60606000600160009054906101000a900473ffffffffffffffffffffffffffffffffffffffff1673ffffffffffffffffffffffffffffffffffffffff1663776364a77f8e1604a838d0f1a9b2cda14a099e4ceb08e966cc6e05e8296f67b02d61a79f0960001b6040518263ffffffff1660e01b815260040161081d9190612839565b600060405180830381865afa15801561083a573d6000803e3d6000fd5b505050506040513d6000823e3d601f19601f820116820180604052508101906108639190612dc2565b905060005b81518110156108d757600082828151811061088657610885612e0b565b5b60200260200101516020019073ffffffffffffffffffffffffffffffffffffffff16908173ffffffffffffffffffffffffffffffffffffffff168152505080806108cf90612e69565b915050610868565b508091505090565b60006108e9610ef8565b610928576040517f08c379a000000000000000000000000000000000000000000000000000000000815260040161091f90612696565b60405180910390fd5b60006040518060c0016040528060008152602001888152602001878152602001868152602001858152602001848152509050600160009054906101000a900473ffffffffffffffffffffffffffffffffffffffff1673ffffffffffffffffffffffffffffffffffffffff1663c508a36e827f8e1604a838d0f1a9b2cda14a099e4ceb08e966cc6e05e8296f67b02d61a79f0960001b6040518363ffffffff1660e01b81526004016109da929190612f3a565b6020604051808303816000875af11580156109f9573d6000803e3d6000fd5b505050506040513d601f19601f82011682018060405250810190610a1d9190612779565b91505095945050505050565b6060600160009054906101000a900473ffffffffffffffffffffffffffffffffffffffff1673ffffffffffffffffffffffffffffffffffffffff16631d769a9e7f8e1604a838d0f1a9b2cda14a099e4ceb08e966cc6e05e8296f67b02d61a79f0960001b6040518263ffffffff1660e01b8152600401610aa99190612839565b600060405180830381865afa158015610ac6573d6000803e3d6000fd5b505050506040513d6000823e3d601f19601f82011682018060405250810190610aef91906130b9565b905090565b6000610afe610ef8565b610b3d576040517f08c379a0000000000000000000000000000000000000000000000000000000008152600401610b3490612696565b60405180910390fd5b60006040518060a0016040528060008152602001878152602001868152602001858152602001848152509050600160009054906101000a900473ffffffffffffffffffffffffffffffffffffffff1673ffffffffffffffffffffffffffffffffffffffff16634269e28b827f8e1604a838d0f1a9b2cda14a099e4ceb08e966cc6e05e8296f67b02d61a79f0960001b6040518363ffffffff1660e01b8152600401610be992919061316a565b6020604051808303816000875af1158015610c08573d6000803e3d6000fd5b505050506040513d601f19601f82011682018060405250810190610c2c9190612779565b915050949350505050565b6000610c41610ef8565b610c80576040517f08c379a0000000000000000000000000000000000000000000000000000000008152600401610c7790612696565b60405180910390fd5b60006040518060c0016040528060008152602001888152602001876002811115610cad57610cac611bf2565b5b8152602001868152602001858152602001848152509050600160009054906101000a900473ffffffffffffffffffffffffffffffffffffffff1673ffffffffffffffffffffffffffffffffffffffff1663ba03fe92827f8e1604a838d0f1a9b2cda14a099e4ceb08e966cc6e05e8296f67b02d61a79f0960001b6040518363ffffffff1660e01b8152600401610d4492919061320e565b6020604051808303816000875af1158015610d63573d6000803e3d6000fd5b505050506040513d601f19601f82011682018060405250810190610d879190612779565b91505095945050505050565b610d9b61143e565b3073ffffffffffffffffffffffffffffffffffffffff16ff5b60008060009054906101000a900473ffffffffffffffffffffffffffffffffffffffff16905090565b6000806040518060800160405280600081526020013373ffffffffffffffffffffffffffffffffffffffff16815260200160016002811115610e2257610e21611bf2565b5b8152602001848152509050600160009054906101000a900473ffffffffffffffffffffffffffffffffffffffff1673ffffffffffffffffffffffffffffffffffffffff166386e9bacf827f8e1604a838d0f1a9b2cda14a099e4ceb08e966cc6e05e8296f67b02d61a79f0960001b6040518363ffffffff1660e01b8152600401610ead929190613237565b6020604051808303816000875af1158015610ecc573d6000803e3d6000fd5b505050506040513d601f19601f82011682018060405250810190610ef09190612779565b915050919050565b600080600160009054906101000a900473ffffffffffffffffffffffffffffffffffffffff1673ffffffffffffffffffffffffffffffffffffffff1663776364a77f8e1604a838d0f1a9b2cda14a099e4ceb08e966cc6e05e8296f67b02d61a79f0960001b6040518263ffffffff1660e01b8152600401610f799190612839565b600060405180830381865afa158015610f96573d6000803e3d6000fd5b505050506040513d6000823e3d601f19601f82011682018060405250810190610fbf9190612dc2565b905060005b815181101561103c573373ffffffffffffffffffffffffffffffffffffffff16828281518110610ff757610ff6612e0b565b5b60200260200101516020015173ffffffffffffffffffffffffffffffffffffffff160361102957600192505050611043565b808061103490612e69565b915050610fc4565b5060009150505b90565b61104e611579565b6000600160009054906101000a900473ffffffffffffffffffffffffffffffffffffffff1673ffffffffffffffffffffffffffffffffffffffff1663776364a77f8e1604a838d0f1a9b2cda14a099e4ceb08e966cc6e05e8296f67b02d61a79f0960001b6040518263ffffffff1660e01b81526004016110ce9190612839565b600060405180830381865afa1580156110eb573d6000803e3d6000fd5b505050506040513d6000823e3d601f19601f820116820180604052508101906111149190612dc2565b905060005b81518110156111aa573373ffffffffffffffffffffffffffffffffffffffff1682828151811061114c5761114b612e0b565b5b60200260200101516020015173ffffffffffffffffffffffffffffffffffffffff16036111975781818151811061118657611185612e0b565b5b6020026020010151925050506111fc565b80806111a290612e69565b915050611119565b50604051806080016040528060008152602001600073ffffffffffffffffffffffffffffffffffffffff168152602001600060028111156111ee576111ed611bf2565b5b815260200160008152509150505b90565b6060600160009054906101000a900473ffffffffffffffffffffffffffffffffffffffff1673ffffffffffffffffffffffffffffffffffffffff166348c1b2cd7f8e1604a838d0f1a9b2cda14a099e4ceb08e966cc6e05e8296f67b02d61a79f0960001b6040518263ffffffff1660e01b815260040161127f9190612839565b600060405180830381865afa15801561129c573d6000803e3d6000fd5b505050506040513d6000823e3d601f19601f820116820180604052508101906112c5919061346c565b905090565b6060600160009054906101000a900473ffffffffffffffffffffffffffffffffffffffff1673ffffffffffffffffffffffffffffffffffffffff1663552436b37f8e1604a838d0f1a9b2cda14a099e4ceb08e966cc6e05e8296f67b02d61a79f0960001b6040518263ffffffff1660e01b815260040161134a9190612839565b600060405180830381865afa158015611367573d6000803e3d6000fd5b505050506040513d6000823e3d601f19601f82011682018060405250810190611390919061362d565b905090565b61139d61143e565b600073ffffffffffffffffffffffffffffffffffffffff168173ffffffffffffffffffffffffffffffffffffffff160361140c576040517f08c379a0000000000000000000000000000000000000000000000000000000008152600401611403906136e8565b60405180910390fd5b611415816114b5565b50565b600160009054906101000a900473ffffffffffffffffffffffffffffffffffffffff1681565b3373ffffffffffffffffffffffffffffffffffffffff1661145d610db4565b73ffffffffffffffffffffffffffffffffffffffff16146114b3576040517f08c379a00000000000000000000000000000000000000000000000000000000081526004016114aa90613754565b60405180910390fd5b565b60008060009054906101000a900473ffffffffffffffffffffffffffffffffffffffff169050816000806101000a81548173ffffffffffffffffffffffffffffffffffffffff021916908373ffffffffffffffffffffffffffffffffffffffff1602179055508173ffffffffffffffffffffffffffffffffffffffff168173ffffffffffffffffffffffffffffffffffffffff167f8be0079c531659141344cd1fd0a4f28419497f9722a3daafe3b4186f6b6457e060405160405180910390a35050565b604051806080016040528060008152602001600073ffffffffffffffffffffffffffffffffffffffff168152602001600060028111156115bc576115bb611bf2565b5b8152602001600081525090565b6000604051905090565b600080fd5b600080fd5b6000819050919050565b6115f0816115dd565b81146115fb57600080fd5b50565b60008135905061160d816115e7565b92915050565b60008060006060848603121561162c5761162b6115d3565b5b600061163a868287016115fe565b935050602061164b868287016115fe565b925050604061165c868287016115fe565b9150509250925092565b60008115159050919050565b61167b81611666565b82525050565b60006020820190506116966000830184611672565b92915050565b600080fd5b6000601f19601f8301169050919050565b7f4e487b7100000000000000000000000000000000000000000000000000000000600052604160045260246000fd5b6116ea826116a1565b810181811067ffffffffffffffff82111715611709576117086116b2565b5b80604052505050565b600061171c6115c9565b905061172882826116e1565b919050565b600067ffffffffffffffff821115611748576117476116b2565b5b602082029050602081019050919050565b600080fd5b600061177161176c8461172d565b611712565b9050808382526020820190506020840283018581111561179457611793611759565b5b835b818110156117bd57806117a988826115fe565b845260208401935050602081019050611796565b5050509392505050565b600082601f8301126117dc576117db61169c565b5b81356117ec84826020860161175e565b91505092915050565b60008060006060848603121561180e5761180d6115d3565b5b600061181c868287016115fe565b935050602061182d868287016115fe565b925050604084013567ffffffffffffffff81111561184e5761184d6115d8565b5b61185a868287016117c7565b9150509250925092565b600081519050919050565b600082825260208201905092915050565b6000819050602082019050919050565b611899816115dd565b82525050565b600081519050919050565b600082825260208201905092915050565b60005b838110156118d95780820151818401526020810190506118be565b60008484015250505050565b60006118f08261189f565b6118fa81856118aa565b935061190a8185602086016118bb565b611913816116a1565b840191505092915050565b600060c0830160008301516119366000860182611890565b5060208301516119496020860182611890565b506040830151848203604086015261196182826118e5565b91505060608301516119766060860182611890565b5060808301516119896080860182611890565b5060a083015161199c60a0860182611890565b508091505092915050565b60006119b3838361191e565b905092915050565b6000602082019050919050565b60006119d382611864565b6119dd818561186f565b9350836020820285016119ef85611880565b8060005b85811015611a2b5784840389528151611a0c85826119a7565b9450611a17836119bb565b925060208a019950506001810190506119f3565b50829750879550505050505092915050565b60006020820190508181036000830152611a5781846119c8565b905092915050565b600081519050919050565b600082825260208201905092915050565b6000819050602082019050919050565b608082016000820151611aa16000850182611890565b506020820151611ab46020850182611890565b506040820151611ac76040850182611890565b506060820151611ada6060850182611890565b50505050565b6000611aec8383611a8b565b60808301905092915050565b6000602082019050919050565b6000611b1082611a5f565b611b1a8185611a6a565b9350611b2583611a7b565b8060005b83811015611b56578151611b3d8882611ae0565b9750611b4883611af8565b925050600181019050611b29565b5085935050505092915050565b60006020820190508181036000830152611b7d8184611b05565b905092915050565b600081519050919050565b600082825260208201905092915050565b6000819050602082019050919050565b600073ffffffffffffffffffffffffffffffffffffffff82169050919050565b6000611bdc82611bb1565b9050919050565b611bec81611bd1565b82525050565b7f4e487b7100000000000000000000000000000000000000000000000000000000600052602160045260246000fd5b60038110611c3257611c31611bf2565b5b50565b6000819050611c4382611c21565b919050565b6000611c5382611c35565b9050919050565b611c6381611c48565b82525050565b608082016000820151611c7f6000850182611890565b506020820151611c926020850182611be3565b506040820151611ca56040850182611c5a565b506060820151611cb86060850182611890565b50505050565b6000611cca8383611c69565b60808301905092915050565b6000602082019050919050565b6000611cee82611b85565b611cf88185611b90565b9350611d0383611ba1565b8060005b83811015611d34578151611d1b8882611cbe565b9750611d2683611cd6565b925050600181019050611d07565b5085935050505092915050565b60006020820190508181036000830152611d5b8184611ce3565b905092915050565b600080fd5b600067ffffffffffffffff821115611d8357611d826116b2565b5b611d8c826116a1565b9050602081019050919050565b82818337600083830152505050565b6000611dbb611db684611d68565b611712565b905082815260208101848484011115611dd757611dd6611d63565b5b611de2848285611d99565b509392505050565b600082601f830112611dff57611dfe61169c565b5b8135611e0f848260208601611da8565b91505092915050565b600080600080600060a08688031215611e3457611e336115d3565b5b6000611e42888289016115fe565b955050602086013567ffffffffffffffff811115611e6357611e626115d8565b5b611e6f88828901611dea565b9450506040611e80888289016115fe565b9350506060611e91888289016115fe565b9250506080611ea2888289016115fe565b9150509295509295909350565b600081519050919050565b600082825260208201905092915050565b6000819050602082019050919050565b60a082016000820151611ef16000850182611890565b506020820151611f046020850182611890565b506040820151611f176040850182611890565b506060820151611f2a6060850182611890565b506080820151611f3d6080850182611890565b50505050565b6000611f4f8383611edb565b60a08301905092915050565b6000602082019050919050565b6000611f7382611eaf565b611f7d8185611eba565b9350611f8883611ecb565b8060005b83811015611fb9578151611fa08882611f43565b9750611fab83611f5b565b925050600181019050611f8c565b5085935050505092915050565b60006020820190508181036000830152611fe08184611f68565b905092915050565b60008060008060808587031215612002576120016115d3565b5b6000612010878288016115fe565b9450506020612021878288016115fe565b9350506040612032878288016115fe565b9250506060612043878288016115fe565b91505092959194509250565b6003811061205c57600080fd5b50565b60008135905061206e8161204f565b92915050565b600080600080600060a086880312156120905761208f6115d3565b5b600061209e888289016115fe565b95505060206120af8882890161205f565b94505060406120c0888289016115fe565b93505060606120d1888289016115fe565b92505060806120e2888289016115fe565b9150509295509295909350565b6120f881611bd1565b82525050565b600060208201905061211360008301846120ef565b92915050565b60006020828403121561212f5761212e6115d3565b5b600061213d848285016115fe565b91505092915050565b60808201600082015161215c6000850182611890565b50602082015161216f6020850182611be3565b5060408201516121826040850182611c5a565b5060608201516121956060850182611890565b50505050565b60006080820190506121b06000830184612146565b92915050565b600081519050919050565b600082825260208201905092915050565b6000819050602082019050919050565b600081519050919050565b600082825260208201905092915050565b6000819050602082019050919050565b600061221a8383611890565b60208301905092915050565b6000602082019050919050565b600061223e826121e2565b61224881856121ed565b9350612253836121fe565b8060005b8381101561228457815161226b888261220e565b975061227683612226565b925050600181019050612257565b5085935050505092915050565b60006080830160008301516122a96000860182611890565b5060208301516122bc6020860182611890565b5060408301516122cf6040860182611890565b50606083015184820360608601526122e78282612233565b9150508091505092915050565b60006123008383612291565b905092915050565b6000602082019050919050565b6000612320826121b6565b61232a81856121c1565b93508360208202850161233c856121d2565b8060005b85811015612378578484038952815161235985826122f4565b945061236483612308565b925060208a01995050600181019050612340565b50829750879550505050505092915050565b600060208201905081810360008301526123a48184612315565b905092915050565b600081519050919050565b600082825260208201905092915050565b6000819050602082019050919050565b600381106123e9576123e8611bf2565b5b50565b60008190506123fa826123d8565b919050565b600061240a826123ec565b9050919050565b61241a816123ff565b82525050565b60c0820160008201516124366000850182611890565b5060208201516124496020850182611890565b50604082015161245c6040850182612411565b50606082015161246f6060850182611890565b5060808201516124826080850182611890565b5060a082015161249560a0850182611890565b50505050565b60006124a78383612420565b60c08301905092915050565b6000602082019050919050565b60006124cb826123ac565b6124d581856123b7565b93506124e0836123c8565b8060005b838110156125115781516124f8888261249b565b9750612503836124b3565b9250506001810190506124e4565b5085935050505092915050565b6000602082019050818103600083015261253881846124c0565b905092915050565b61254981611bd1565b811461255457600080fd5b50565b60008135905061256681612540565b92915050565b600060208284031215612582576125816115d3565b5b600061259084828501612557565b91505092915050565b6000819050919050565b60006125be6125b96125b484611bb1565b612599565b611bb1565b9050919050565b60006125d0826125a3565b9050919050565b60006125e2826125c5565b9050919050565b6125f2816125d7565b82525050565b600060208201905061260d60008301846125e9565b92915050565b600082825260208201905092915050565b7f4661726d65724461746162617365437572736f723a206f6e6c79496e7370656360008201527f746f720000000000000000000000000000000000000000000000000000000000602082015250565b6000612680602383612613565b915061268b82612624565b604082019050919050565b600060208201905081810360008301526126af81612673565b9050919050565b6080820160008201516126cc6000850182611890565b5060208201516126df6020850182611890565b5060408201516126f26040850182611890565b5060608201516127056060850182611890565b50505050565b6000819050919050565b61271e8161270b565b82525050565b600060a08201905061273960008301856126b6565b6127466080830184612715565b9392505050565b61275681611666565b811461276157600080fd5b50565b6000815190506127738161274d565b92915050565b60006020828403121561278f5761278e6115d3565b5b600061279d84828501612764565b91505092915050565b60006080830160008301516127be6000860182611890565b5060208301516127d16020860182611890565b5060408301516127e46040860182611890565b50606083015184820360608601526127fc8282612233565b9150508091505092915050565b6000604082019050818103600083015261282381856127a6565b90506128326020830184612715565b9392505050565b600060208201905061284e6000830184612715565b92915050565b600067ffffffffffffffff82111561286f5761286e6116b2565b5b602082029050602081019050919050565b600080fd5b600080fd5b600081519050612899816115e7565b92915050565b60006128b26128ad84611d68565b611712565b9050828152602081018484840111156128ce576128cd611d63565b5b6128d98482856118bb565b509392505050565b600082601f8301126128f6576128f561169c565b5b815161290684826020860161289f565b91505092915050565b600060c0828403121561292557612924612880565b5b61292f60c0611712565b9050600061293f8482850161288a565b60008301525060206129538482850161288a565b602083015250604082015167ffffffffffffffff81111561297757612976612885565b5b612983848285016128e1565b60408301525060606129978482850161288a565b60608301525060806129ab8482850161288a565b60808301525060a06129bf8482850161288a565b60a08301525092915050565b60006129de6129d984612854565b611712565b90508083825260208201905060208402830185811115612a0157612a00611759565b5b835b81811015612a4857805167ffffffffffffffff811115612a2657612a2561169c565b5b808601612a33898261290f565b85526020850194505050602081019050612a03565b5050509392505050565b600082601f830112612a6757612a6661169c565b5b8151612a778482602086016129cb565b91505092915050565b600060208284031215612a9657612a956115d3565b5b600082015167ffffffffffffffff811115612ab457612ab36115d8565b5b612ac084828501612a52565b91505092915050565b600067ffffffffffffffff821115612ae457612ae36116b2565b5b602082029050602081019050919050565b600060808284031215612b0b57612b0a612880565b5b612b156080611712565b90506000612b258482850161288a565b6000830152506020612b398482850161288a565b6020830152506040612b4d8482850161288a565b6040830152506060612b618482850161288a565b60608301525092915050565b6000612b80612b7b84612ac9565b611712565b90508083825260208201905060808402830185811115612ba357612ba2611759565b5b835b81811015612bcc5780612bb88882612af5565b845260208401935050608081019050612ba5565b5050509392505050565b600082601f830112612beb57612bea61169c565b5b8151612bfb848260208601612b6d565b91505092915050565b600060208284031215612c1a57612c196115d3565b5b600082015167ffffffffffffffff811115612c3857612c376115d8565b5b612c4484828501612bd6565b91505092915050565b600067ffffffffffffffff821115612c6857612c676116b2565b5b602082029050602081019050919050565b600081519050612c8881612540565b92915050565b60038110612c9b57600080fd5b50565b600081519050612cad81612c8e565b92915050565b600060808284031215612cc957612cc8612880565b5b612cd36080611712565b90506000612ce38482850161288a565b6000830152506020612cf784828501612c79565b6020830152506040612d0b84828501612c9e565b6040830152506060612d1f8482850161288a565b60608301525092915050565b6000612d3e612d3984612c4d565b611712565b90508083825260208201905060808402830185811115612d6157612d60611759565b5b835b81811015612d8a5780612d768882612cb3565b845260208401935050608081019050612d63565b5050509392505050565b600082601f830112612da957612da861169c565b5b8151612db9848260208601612d2b565b91505092915050565b600060208284031215612dd857612dd76115d3565b5b600082015167ffffffffffffffff811115612df657612df56115d8565b5b612e0284828501612d94565b91505092915050565b7f4e487b7100000000000000000000000000000000000000000000000000000000600052603260045260246000fd5b7f4e487b7100000000000000000000000000000000000000000000000000000000600052601160045260246000fd5b6000612e74826115dd565b91507fffffffffffffffffffffffffffffffffffffffffffffffffffffffffffffffff8203612ea657612ea5612e3a565b5b600182019050919050565b600060c083016000830151612ec96000860182611890565b506020830151612edc6020860182611890565b5060408301518482036040860152612ef482826118e5565b9150506060830151612f096060860182611890565b506080830151612f1c6080860182611890565b5060a0830151612f2f60a0860182611890565b508091505092915050565b60006040820190508181036000830152612f548185612eb1565b9050612f636020830184612715565b9392505050565b600067ffffffffffffffff821115612f8557612f846116b2565b5b602082029050602081019050919050565b600060a08284031215612fac57612fab612880565b5b612fb660a0611712565b90506000612fc68482850161288a565b6000830152506020612fda8482850161288a565b6020830152506040612fee8482850161288a565b60408301525060606130028482850161288a565b60608301525060806130168482850161288a565b60808301525092915050565b600061303561303084612f6a565b611712565b90508083825260208201905060a0840283018581111561305857613057611759565b5b835b81811015613081578061306d8882612f96565b84526020840193505060a08101905061305a565b5050509392505050565b600082601f8301126130a05761309f61169c565b5b81516130b0848260208601613022565b91505092915050565b6000602082840312156130cf576130ce6115d3565b5b600082015167ffffffffffffffff8111156130ed576130ec6115d8565b5b6130f98482850161308b565b91505092915050565b60a0820160008201516131186000850182611890565b50602082015161312b6020850182611890565b50604082015161313e6040850182611890565b5060608201516131516060850182611890565b5060808201516131646080850182611890565b50505050565b600060c08201905061317f6000830185613102565b61318c60a0830184612715565b9392505050565b60c0820160008201516131a96000850182611890565b5060208201516131bc6020850182611890565b5060408201516131cf6040850182612411565b5060608201516131e26060850182611890565b5060808201516131f56080850182611890565b5060a082015161320860a0850182611890565b50505050565b600060e0820190506132236000830185613193565b61323060c0830184612715565b9392505050565b600060a08201905061324c6000830185612146565b6132596080830184612715565b9392505050565b600067ffffffffffffffff82111561327b5761327a6116b2565b5b602082029050602081019050919050565b600061329f61329a8461172d565b611712565b905080838252602082019050602084028301858111156132c2576132c1611759565b5b835b818110156132eb57806132d7888261288a565b8452602084019350506020810190506132c4565b5050509392505050565b600082601f83011261330a5761330961169c565b5b815161331a84826020860161328c565b91505092915050565b60006080828403121561333957613338612880565b5b6133436080611712565b905060006133538482850161288a565b60008301525060206133678482850161288a565b602083015250604061337b8482850161288a565b604083015250606082015167ffffffffffffffff81111561339f5761339e612885565b5b6133ab848285016132f5565b60608301525092915050565b60006133ca6133c584613260565b611712565b905080838252602082019050602084028301858111156133ed576133ec611759565b5b835b8181101561343457805167ffffffffffffffff8111156134125761341161169c565b5b80860161341f8982613323565b855260208501945050506020810190506133ef565b5050509392505050565b600082601f8301126134535761345261169c565b5b81516134638482602086016133b7565b91505092915050565b600060208284031215613482576134816115d3565b5b600082015167ffffffffffffffff8111156134a05761349f6115d8565b5b6134ac8482850161343e565b91505092915050565b600067ffffffffffffffff8211156134d0576134cf6116b2565b5b602082029050602081019050919050565b6000815190506134f08161204f565b92915050565b600060c0828403121561350c5761350b612880565b5b61351660c0611712565b905060006135268482850161288a565b600083015250602061353a8482850161288a565b602083015250604061354e848285016134e1565b60408301525060606135628482850161288a565b60608301525060806135768482850161288a565b60808301525060a061358a8482850161288a565b60a08301525092915050565b60006135a96135a4846134b5565b611712565b90508083825260208201905060c084028301858111156135cc576135cb611759565b5b835b818110156135f557806135e188826134f6565b84526020840193505060c0810190506135ce565b5050509392505050565b600082601f8301126136145761361361169c565b5b8151613624848260208601613596565b91505092915050565b600060208284031215613643576136426115d3565b5b600082015167ffffffffffffffff811115613661576136606115d8565b5b61366d848285016135ff565b91505092915050565b7f4f776e61626c653a206e6577206f776e657220697320746865207a65726f206160008201527f6464726573730000000000000000000000000000000000000000000000000000602082015250565b60006136d2602683612613565b91506136dd82613676565b604082019050919050565b60006020820190508181036000830152613701816136c5565b9050919050565b7f4f776e61626c653a2063616c6c6572206973206e6f7420746865206f776e6572600082015250565b600061373e602083612613565b915061374982613708565b602082019050919050565b6000602082019050818103600083015261376d81613731565b905091905056fea26469706673582212208d9b03fdc7afc65383fb8c17637da33b57c66e579337f09e0bbb3e469c46fb1f64736f6c63430008110033",
			"opcodes": "PUSH1 0x80 PUSH1 0x40 MSTORE CALLVALUE DUP1 ISZERO PUSH3 0x11 JUMPI PUSH1 0x0 DUP1 REVERT JUMPDEST POP PUSH1 0x40 MLOAD PUSH3 0x3917 CODESIZE SUB DUP1 PUSH3 0x3917 DUP4 CODECOPY DUP2 DUP2 ADD PUSH1 0x40 MSTORE DUP2 ADD SWAP1 PUSH3 0x37 SWAP2 SWAP1 PUSH3 0x12B JUMP JUMPDEST DUP1 CALLER PUSH1 0x0 DUP1 PUSH2 0x100 EXP DUP2 SLOAD DUP2 PUSH20 0xFFFFFFFFFFFFFFFFFFFFFFFFFFFFFFFFFFFFFFFF MUL NOT AND SWAP1 DUP4 PUSH20 0xFFFFFFFFFFFFFFFFFFFFFFFFFFFFFFFFFFFFFFFF AND MUL OR SWAP1 SSTORE POP DUP1 PUSH1 0x1 PUSH1 0x0 PUSH2 0x100 EXP DUP2 SLOAD DUP2 PUSH20 0xFFFFFFFFFFFFFFFFFFFFFFFFFFFFFFFFFFFFFFFF MUL NOT AND SWAP1 DUP4 PUSH20 0xFFFFFFFFFFFFFFFFFFFFFFFFFFFFFFFFFFFFFFFF AND MUL OR SWAP1 SSTORE POP POP POP PUSH3 0x15D JUMP JUMPDEST PUSH1 0x0 DUP1 REVERT JUMPDEST PUSH1 0x0 PUSH20 0xFFFFFFFFFFFFFFFFFFFFFFFFFFFFFFFFFFFFFFFF DUP3 AND SWAP1 POP SWAP2 SWAP1 POP JUMP JUMPDEST PUSH1 0x0 PUSH3 0xF3 DUP3 PUSH3 0xC6 JUMP JUMPDEST SWAP1 POP SWAP2 SWAP1 POP JUMP JUMPDEST PUSH3 0x105 DUP2 PUSH3 0xE6 JUMP JUMPDEST DUP2 EQ PUSH3 0x111 JUMPI PUSH1 0x0 DUP1 REVERT JUMPDEST POP JUMP JUMPDEST PUSH1 0x0 DUP2 MLOAD SWAP1 POP PUSH3 0x125 DUP2 PUSH3 0xFA JUMP JUMPDEST SWAP3 SWAP2 POP POP JUMP JUMPDEST PUSH1 0x0 PUSH1 0x20 DUP3 DUP5 SUB SLT ISZERO PUSH3 0x144 JUMPI PUSH3 0x143 PUSH3 0xC1 JUMP JUMPDEST JUMPDEST PUSH1 0x0 PUSH3 0x154 DUP5 DUP3 DUP6 ADD PUSH3 0x114 JUMP JUMPDEST SWAP2 POP POP SWAP3 SWAP2 POP POP JUMP JUMPDEST PUSH2 0x37AA DUP1 PUSH3 0x16D PUSH1 0x0 CODECOPY PUSH1 0x0 RETURN INVALID PUSH1 0x80 PUSH1 0x40 MSTORE CALLVALUE DUP1 ISZERO PUSH2 0x10 JUMPI PUSH1 0x0 DUP1 REVERT JUMPDEST POP PUSH1 0x4 CALLDATASIZE LT PUSH2 0x116 JUMPI PUSH1 0x0 CALLDATALOAD PUSH1 0xE0 SHR DUP1 PUSH4 0x83197EF0 GT PUSH2 0xA2 JUMPI DUP1 PUSH4 0xB34E97E8 GT PUSH2 0x71 JUMPI DUP1 PUSH4 0xB34E97E8 EQ PUSH2 0x2F9 JUMPI DUP1 PUSH4 0xBC46F80F EQ PUSH2 0x317 JUMPI DUP1 PUSH4 0xC2965AC8 EQ PUSH2 0x335 JUMPI DUP1 PUSH4 0xF2FDE38B EQ PUSH2 0x353 JUMPI DUP1 PUSH4 0xF7082E74 EQ PUSH2 0x36F JUMPI PUSH2 0x116 JUMP JUMPDEST DUP1 PUSH4 0x83197EF0 EQ PUSH2 0x283 JUMPI DUP1 PUSH4 0x8DA5CB5B EQ PUSH2 0x28D JUMPI DUP1 PUSH4 0x8EDBCF65 EQ PUSH2 0x2AB JUMPI DUP1 PUSH4 0xAB4E3E75 EQ PUSH2 0x2DB JUMPI PUSH2 0x116 JUMP JUMPDEST DUP1 PUSH4 0x348900C5 GT PUSH2 0xE9 JUMPI DUP1 PUSH4 0x348900C5 EQ PUSH2 0x1B7 JUMPI DUP1 PUSH4 0x39DCBEFA EQ PUSH2 0x1D5 JUMPI DUP1 PUSH4 0x3CB71D76 EQ PUSH2 0x205 JUMPI DUP1 PUSH4 0x40738285 EQ PUSH2 0x223 JUMPI DUP1 PUSH4 0x46FCF4DA EQ PUSH2 0x253 JUMPI PUSH2 0x116 JUMP JUMPDEST DUP1 PUSH4 0x13CA24E8 EQ PUSH2 0x11B JUMPI DUP1 PUSH4 0x1418F7D7 EQ PUSH2 0x14B JUMPI DUP1 PUSH4 0x166BE253 EQ PUSH2 0x17B JUMPI DUP1 PUSH4 0x25E9B228 EQ PUSH2 0x199 JUMPI JUMPDEST PUSH1 0x0 DUP1 REVERT JUMPDEST PUSH2 0x135 PUSH1 0x4 DUP1 CALLDATASIZE SUB DUP2 ADD SWAP1 PUSH2 0x130 SWAP2 SWAP1 PUSH2 0x1613 JUMP JUMPDEST PUSH2 0x38D JUMP JUMPDEST PUSH1 0x40 MLOAD PUSH2 0x142 SWAP2 SWAP1 PUSH2 0x1681 JUMP JUMPDEST PUSH1 0x40 MLOAD DUP1 SWAP2 SUB SWAP1 RETURN JUMPDEST PUSH2 0x165 PUSH1 0x4 DUP1 CALLDATASIZE SUB DUP2 ADD SWAP1 PUSH2 0x160 SWAP2 SWAP1 PUSH2 0x17F5 JUMP JUMPDEST PUSH2 0x4C9 JUMP JUMPDEST PUSH1 0x40 MLOAD PUSH2 0x172 SWAP2 SWAP1 PUSH2 0x1681 JUMP JUMPDEST PUSH1 0x40 MLOAD DUP1 SWAP2 SUB SWAP1 RETURN JUMPDEST PUSH2 0x183 PUSH2 0x605 JUMP JUMPDEST PUSH1 0x40 MLOAD PUSH2 0x190 SWAP2 SWAP1 PUSH2 0x1A3D JUMP JUMPDEST PUSH1 0x40 MLOAD DUP1 SWAP2 SUB SWAP1 RETURN JUMPDEST PUSH2 0x1A1 PUSH2 0x6D0 JUMP JUMPDEST PUSH1 0x40 MLOAD PUSH2 0x1AE SWAP2 SWAP1 PUSH2 0x1B63 JUMP JUMPDEST PUSH1 0x40 MLOAD DUP1 SWAP2 SUB SWAP1 RETURN JUMPDEST PUSH2 0x1BF PUSH2 0x79B JUMP JUMPDEST PUSH1 0x40 MLOAD PUSH2 0x1CC SWAP2 SWAP1 PUSH2 0x1D41 JUMP JUMPDEST PUSH1 0x40 MLOAD DUP1 SWAP2 SUB SWAP1 RETURN JUMPDEST PUSH2 0x1EF PUSH1 0x4 DUP1 CALLDATASIZE SUB DUP2 ADD SWAP1 PUSH2 0x1EA SWAP2 SWAP1 PUSH2 0x1E18 JUMP JUMPDEST PUSH2 0x8DF JUMP JUMPDEST PUSH1 0x40 MLOAD PUSH2 0x1FC SWAP2 SWAP1 PUSH2 0x1681 JUMP JUMPDEST PUSH1 0x40 MLOAD DUP1 SWAP2 SUB SWAP1 RETURN JUMPDEST PUSH2 0x20D PUSH2 0xA29 JUMP JUMPDEST PUSH1 0x40 MLOAD PUSH2 0x21A SWAP2 SWAP1 PUSH2 0x1FC6 JUMP JUMPDEST PUSH1 0x40 MLOAD DUP1 SWAP2 SUB SWAP1 RETURN JUMPDEST PUSH2 0x23D PUSH1 0x4 DUP1 CALLDATASIZE SUB DUP2 ADD SWAP1 PUSH2 0x238 SWAP2 SWAP1 PUSH2 0x1FE8 JUMP JUMPDEST PUSH2 0xAF4 JUMP JUMPDEST PUSH1 0x40 MLOAD PUSH2 0x24A SWAP2 SWAP1 PUSH2 0x1681 JUMP JUMPDEST PUSH1 0x40 MLOAD DUP1 SWAP2 SUB SWAP1 RETURN JUMPDEST PUSH2 0x26D PUSH1 0x4 DUP1 CALLDATASIZE SUB DUP2 ADD SWAP1 PUSH2 0x268 SWAP2 SWAP1 PUSH2 0x2074 JUMP JUMPDEST PUSH2 0xC37 JUMP JUMPDEST PUSH1 0x40 MLOAD PUSH2 0x27A SWAP2 SWAP1 PUSH2 0x1681 JUMP JUMPDEST PUSH1 0x40 MLOAD DUP1 SWAP2 SUB SWAP1 RETURN JUMPDEST PUSH2 0x28B PUSH2 0xD93 JUMP JUMPDEST STOP JUMPDEST PUSH2 0x295 PUSH2 0xDB4 JUMP JUMPDEST PUSH1 0x40 MLOAD PUSH2 0x2A2 SWAP2 SWAP1 PUSH2 0x20FE JUMP JUMPDEST PUSH1 0x40 MLOAD DUP1 SWAP2 SUB SWAP1 RETURN JUMPDEST PUSH2 0x2C5 PUSH1 0x4 DUP1 CALLDATASIZE SUB DUP2 ADD SWAP1 PUSH2 0x2C0 SWAP2 SWAP1 PUSH2 0x2119 JUMP JUMPDEST PUSH2 0xDDD JUMP JUMPDEST PUSH1 0x40 MLOAD PUSH2 0x2D2 SWAP2 SWAP1 PUSH2 0x1681 JUMP JUMPDEST PUSH1 0x40 MLOAD DUP1 SWAP2 SUB SWAP1 RETURN JUMPDEST PUSH2 0x2E3 PUSH2 0xEF8 JUMP JUMPDEST PUSH1 0x40 MLOAD PUSH2 0x2F0 SWAP2 SWAP1 PUSH2 0x1681 JUMP JUMPDEST PUSH1 0x40 MLOAD DUP1 SWAP2 SUB SWAP1 RETURN JUMPDEST PUSH2 0x301 PUSH2 0x1046 JUMP JUMPDEST PUSH1 0x40 MLOAD PUSH2 0x30E SWAP2 SWAP1 PUSH2 0x219B JUMP JUMPDEST PUSH1 0x40 MLOAD DUP1 SWAP2 SUB SWAP1 RETURN JUMPDEST PUSH2 0x31F PUSH2 0x11FF JUMP JUMPDEST PUSH1 0x40 MLOAD PUSH2 0x32C SWAP2 SWAP1 PUSH2 0x238A JUMP JUMPDEST PUSH1 0x40 MLOAD DUP1 SWAP2 SUB SWAP1 RETURN JUMPDEST PUSH2 0x33D PUSH2 0x12CA JUMP JUMPDEST PUSH1 0x40 MLOAD PUSH2 0x34A SWAP2 SWAP1 PUSH2 0x251E JUMP JUMPDEST PUSH1 0x40 MLOAD DUP1 SWAP2 SUB SWAP1 RETURN JUMPDEST PUSH2 0x36D PUSH1 0x4 DUP1 CALLDATASIZE SUB DUP2 ADD SWAP1 PUSH2 0x368 SWAP2 SWAP1 PUSH2 0x256C JUMP JUMPDEST PUSH2 0x1395 JUMP JUMPDEST STOP JUMPDEST PUSH2 0x377 PUSH2 0x1418 JUMP JUMPDEST PUSH1 0x40 MLOAD PUSH2 0x384 SWAP2 SWAP1 PUSH2 0x25F8 JUMP JUMPDEST PUSH1 0x40 MLOAD DUP1 SWAP2 SUB SWAP1 RETURN JUMPDEST PUSH1 0x0 PUSH2 0x397 PUSH2 0xEF8 JUMP JUMPDEST PUSH2 0x3D6 JUMPI PUSH1 0x40 MLOAD PUSH32 0x8C379A000000000000000000000000000000000000000000000000000000000 DUP2 MSTORE PUSH1 0x4 ADD PUSH2 0x3CD SWAP1 PUSH2 0x2696 JUMP JUMPDEST PUSH1 0x40 MLOAD DUP1 SWAP2 SUB SWAP1 REVERT JUMPDEST PUSH1 0x0 PUSH1 0x40 MLOAD DUP1 PUSH1 0x80 ADD PUSH1 0x40 MSTORE DUP1 PUSH1 0x0 DUP2 MSTORE PUSH1 0x20 ADD DUP7 DUP2 MSTORE PUSH1 0x20 ADD DUP6 DUP2 MSTORE PUSH1 0x20 ADD DUP5 DUP2 MSTORE POP SWAP1 POP PUSH1 0x1 PUSH1 0x0 SWAP1 SLOAD SWAP1 PUSH2 0x100 EXP SWAP1 DIV PUSH20 0xFFFFFFFFFFFFFFFFFFFFFFFFFFFFFFFFFFFFFFFF AND PUSH20 0xFFFFFFFFFFFFFFFFFFFFFFFFFFFFFFFFFFFFFFFF AND PUSH4 0x1D988D60 DUP3 PUSH32 0x8E1604A838D0F1A9B2CDA14A099E4CEB08E966CC6E05E8296F67B02D61A79F09 PUSH1 0x0 SHL PUSH1 0x40 MLOAD DUP4 PUSH4 0xFFFFFFFF AND PUSH1 0xE0 SHL DUP2 MSTORE PUSH1 0x4 ADD PUSH2 0x47C SWAP3 SWAP2 SWAP1 PUSH2 0x2724 JUMP JUMPDEST PUSH1 0x20 PUSH1 0x40 MLOAD DUP1 DUP4 SUB DUP2 PUSH1 0x0 DUP8 GAS CALL ISZERO DUP1 ISZERO PUSH2 0x49B JUMPI RETURNDATASIZE PUSH1 0x0 DUP1 RETURNDATACOPY RETURNDATASIZE PUSH1 0x0 REVERT JUMPDEST POP POP POP POP PUSH1 0x40 MLOAD RETURNDATASIZE PUSH1 0x1F NOT PUSH1 0x1F DUP3 ADD AND DUP3 ADD DUP1 PUSH1 0x40 MSTORE POP DUP2 ADD SWAP1 PUSH2 0x4BF SWAP2 SWAP1 PUSH2 0x2779 JUMP JUMPDEST SWAP2 POP POP SWAP4 SWAP3 POP POP POP JUMP JUMPDEST PUSH1 0x0 PUSH2 0x4D3 PUSH2 0xEF8 JUMP JUMPDEST PUSH2 0x512 JUMPI PUSH1 0x40 MLOAD PUSH32 0x8C379A000000000000000000000000000000000000000000000000000000000 DUP2 MSTORE PUSH1 0x4 ADD PUSH2 0x509 SWAP1 PUSH2 0x2696 JUMP JUMPDEST PUSH1 0x40 MLOAD DUP1 SWAP2 SUB SWAP1 REVERT JUMPDEST PUSH1 0x0 PUSH1 0x40 MLOAD DUP1 PUSH1 0x80 ADD PUSH1 0x40 MSTORE DUP1 PUSH1 0x0 DUP2 MSTORE PUSH1 0x20 ADD DUP7 DUP2 MSTORE PUSH1 0x20 ADD DUP6 DUP2 MSTORE PUSH1 0x20 ADD DUP5 DUP2 MSTORE POP SWAP1 POP PUSH1 0x1 PUSH1 0x0 SWAP1 SLOAD SWAP1 PUSH2 0x100 EXP SWAP1 DIV PUSH20 0xFFFFFFFFFFFFFFFFFFFFFFFFFFFFFFFFFFFFFFFF AND PUSH20 0xFFFFFFFFFFFFFFFFFFFFFFFFFFFFFFFFFFFFFFFF AND PUSH4 0xEB1042BF DUP3 PUSH32 0x8E1604A838D0F1A9B2CDA14A099E4CEB08E966CC6E05E8296F67B02D61A79F09 PUSH1 0x0 SHL PUSH1 0x40 MLOAD DUP4 PUSH4 0xFFFFFFFF AND PUSH1 0xE0 SHL DUP2 MSTORE PUSH1 0x4 ADD PUSH2 0x5B8 SWAP3 SWAP2 SWAP1 PUSH2 0x2809 JUMP JUMPDEST PUSH1 0x20 PUSH1 0x40 MLOAD DUP1 DUP4 SUB DUP2 PUSH1 0x0 DUP8 GAS CALL ISZERO DUP1 ISZERO PUSH2 0x5D7 JUMPI RETURNDATASIZE PUSH1 0x0 DUP1 RETURNDATACOPY RETURNDATASIZE PUSH1 0x0 REVERT JUMPDEST POP POP POP POP PUSH1 0x40 MLOAD RETURNDATASIZE PUSH1 0x1F NOT PUSH1 0x1F DUP3 ADD AND DUP3 ADD DUP1 PUSH1 0x40 MSTORE POP DUP2 ADD SWAP1 PUSH2 0x5FB SWAP2 SWAP1 PUSH2 0x2779 JUMP JUMPDEST SWAP2 POP POP SWAP4 SWAP3 POP POP POP JUMP JUMPDEST PUSH1 0x60 PUSH1 0x1 PUSH1 0x0 SWAP1 SLOAD SWAP1 PUSH2 0x100 EXP SWAP1 DIV PUSH20 0xFFFFFFFFFFFFFFFFFFFFFFFFFFFFFFFFFFFFFFFF AND PUSH20 0xFFFFFFFFFFFFFFFFFFFFFFFFFFFFFFFFFFFFFFFF AND PUSH4 0x639D43F3 PUSH32 0x8E1604A838D0F1A9B2CDA14A099E4CEB08E966CC6E05E8296F67B02D61A79F09 PUSH1 0x0 SHL PUSH1 0x40 MLOAD DUP3 PUSH4 0xFFFFFFFF AND PUSH1 0xE0 SHL DUP2 MSTORE PUSH1 0x4 ADD PUSH2 0x685 SWAP2 SWAP1 PUSH2 0x2839 JUMP JUMPDEST PUSH1 0x0 PUSH1 0x40 MLOAD DUP1 DUP4 SUB DUP2 DUP7 GAS STATICCALL ISZERO DUP1 ISZERO PUSH2 0x6A2 JUMPI RETURNDATASIZE PUSH1 0x0 DUP1 RETURNDATACOPY RETURNDATASIZE PUSH1 0x0 REVERT JUMPDEST POP POP POP POP PUSH1 0x40 MLOAD RETURNDATASIZE PUSH1 0x0 DUP3 RETURNDATACOPY RETURNDATASIZE PUSH1 0x1F NOT PUSH1 0x1F DUP3 ADD AND DUP3 ADD DUP1 PUSH1 0x40 MSTORE POP DUP2 ADD SWAP1 PUSH2 0x6CB SWAP2 SWAP1 PUSH2 0x2A80 JUMP JUMPDEST SWAP1 POP SWAP1 JUMP JUMPDEST PUSH1 0x60 PUSH1 0x1 PUSH1 0x0 SWAP1 SLOAD SWAP1 PUSH2 0x100 EXP SWAP1 DIV PUSH20 0xFFFFFFFFFFFFFFFFFFFFFFFFFFFFFFFFFFFFFFFF AND PUSH20 0xFFFFFFFFFFFFFFFFFFFFFFFFFFFFFFFFFFFFFFFF AND PUSH4 0x3609010E PUSH32 0x8E1604A838D0F1A9B2CDA14A099E4CEB08E966CC6E05E8296F67B02D61A79F09 PUSH1 0x0 SHL PUSH1 0x40 MLOAD DUP3 PUSH4 0xFFFFFFFF AND PUSH1 0xE0 SHL DUP2 MSTORE PUSH1 0x4 ADD PUSH2 0x750 SWAP2 SWAP1 PUSH2 0x2839 JUMP JUMPDEST PUSH1 0x0 PUSH1 0x40 MLOAD DUP1 DUP4 SUB DUP2 DUP7 GAS STATICCALL ISZERO DUP1 ISZERO PUSH2 0x76D JUMPI RETURNDATASIZE PUSH1 0x0 DUP1 RETURNDATACOPY RETURNDATASIZE PUSH1 0x0 REVERT JUMPDEST POP POP POP POP PUSH1 0x40 MLOAD RETURNDATASIZE PUSH1 0x0 DUP3 RETURNDATACOPY RETURNDATASIZE PUSH1 0x1F NOT PUSH1 0x1F DUP3 ADD AND DUP3 ADD DUP1 PUSH1 0x40 MSTORE POP DUP2 ADD SWAP1 PUSH2 0x796 SWAP2 SWAP1 PUSH2 0x2C04 JUMP JUMPDEST SWAP1 POP SWAP1 JUMP JUMPDEST PUSH1 0x60 PUSH1 0x0 PUSH1 0x1 PUSH1 0x0 SWAP1 SLOAD SWAP1 PUSH2 0x100 EXP SWAP1 DIV PUSH20 0xFFFFFFFFFFFFFFFFFFFFFFFFFFFFFFFFFFFFFFFF AND PUSH20 0xFFFFFFFFFFFFFFFFFFFFFFFFFFFFFFFFFFFFFFFF AND PUSH4 0x776364A7 PUSH32 0x8E1604A838D0F1A9B2CDA14A099E4CEB08E966CC6E05E8296F67B02D61A79F09 PUSH1 0x0 SHL PUSH1 0x40 MLOAD DUP3 PUSH4 0xFFFFFFFF AND PUSH1 0xE0 SHL DUP2 MSTORE PUSH1 0x4 ADD PUSH2 0x81D SWAP2 SWAP1 PUSH2 0x2839 JUMP JUMPDEST PUSH1 0x0 PUSH1 0x40 MLOAD DUP1 DUP4 SUB DUP2 DUP7 GAS STATICCALL ISZERO DUP1 ISZERO PUSH2 0x83A JUMPI RETURNDATASIZE PUSH1 0x0 DUP1 RETURNDATACOPY RETURNDATASIZE PUSH1 0x0 REVERT JUMPDEST POP POP POP POP PUSH1 0x40 MLOAD RETURNDATASIZE PUSH1 0x0 DUP3 RETURNDATACOPY RETURNDATASIZE PUSH1 0x1F NOT PUSH1 0x1F DUP3 ADD AND DUP3 ADD DUP1 PUSH1 0x40 MSTORE POP DUP2 ADD SWAP1 PUSH2 0x863 SWAP2 SWAP1 PUSH2 0x2DC2 JUMP JUMPDEST SWAP1 POP PUSH1 0x0 JUMPDEST DUP2 MLOAD DUP2 LT ISZERO PUSH2 0x8D7 JUMPI PUSH1 0x0 DUP3 DUP3 DUP2 MLOAD DUP2 LT PUSH2 0x886 JUMPI PUSH2 0x885 PUSH2 0x2E0B JUMP JUMPDEST JUMPDEST PUSH1 0x20 MUL PUSH1 0x20 ADD ADD MLOAD PUSH1 0x20 ADD SWAP1 PUSH20 0xFFFFFFFFFFFFFFFFFFFFFFFFFFFFFFFFFFFFFFFF AND SWAP1 DUP2 PUSH20 0xFFFFFFFFFFFFFFFFFFFFFFFFFFFFFFFFFFFFFFFF AND DUP2 MSTORE POP POP DUP1 DUP1 PUSH2 0x8CF SWAP1 PUSH2 0x2E69 JUMP JUMPDEST SWAP2 POP POP PUSH2 0x868 JUMP JUMPDEST POP DUP1 SWAP2 POP POP SWAP1 JUMP JUMPDEST PUSH1 0x0 PUSH2 0x8E9 PUSH2 0xEF8 JUMP JUMPDEST PUSH2 0x928 JUMPI PUSH1 0x40 MLOAD PUSH32 0x8C379A000000000000000000000000000000000000000000000000000000000 DUP2 MSTORE PUSH1 0x4 ADD PUSH2 0x91F SWAP1 PUSH2 0x2696 JUMP JUMPDEST PUSH1 0x40 MLOAD DUP1 SWAP2 SUB SWAP1 REVERT JUMPDEST PUSH1 0x0 PUSH1 0x40 MLOAD DUP1 PUSH1 0xC0 ADD PUSH1 0x40 MSTORE DUP1 PUSH1 0x0 DUP2 MSTORE PUSH1 0x20 ADD DUP9 DUP2 MSTORE PUSH1 0x20 ADD DUP8 DUP2 MSTORE PUSH1 0x20 ADD DUP7 DUP2 MSTORE PUSH1 0x20 ADD DUP6 DUP2 MSTORE PUSH1 0x20 ADD DUP5 DUP2 MSTORE POP SWAP1 POP PUSH1 0x1 PUSH1 0x0 SWAP1 SLOAD SWAP1 PUSH2 0x100 EXP SWAP1 DIV PUSH20 0xFFFFFFFFFFFFFFFFFFFFFFFFFFFFFFFFFFFFFFFF AND PUSH20 0xFFFFFFFFFFFFFFFFFFFFFFFFFFFFFFFFFFFFFFFF AND PUSH4 0xC508A36E DUP3 PUSH32 0x8E1604A838D0F1A9B2CDA14A099E4CEB08E966CC6E05E8296F67B02D61A79F09 PUSH1 0x0 SHL PUSH1 0x40 MLOAD DUP4 PUSH4 0xFFFFFFFF AND PUSH1 0xE0 SHL DUP2 MSTORE PUSH1 0x4 ADD PUSH2 0x9DA SWAP3 SWAP2 SWAP1 PUSH2 0x2F3A JUMP JUMPDEST PUSH1 0x20 PUSH1 0x40 MLOAD DUP1 DUP4 SUB DUP2 PUSH1 0x0 DUP8 GAS CALL ISZERO DUP1 ISZERO PUSH2 0x9F9 JUMPI RETURNDATASIZE PUSH1 0x0 DUP1 RETURNDATACOPY RETURNDATASIZE PUSH1 0x0 REVERT JUMPDEST POP POP POP POP PUSH1 0x40 MLOAD RETURNDATASIZE PUSH1 0x1F NOT PUSH1 0x1F DUP3 ADD AND DUP3 ADD DUP1 PUSH1 0x40 MSTORE POP DUP2 ADD SWAP1 PUSH2 0xA1D SWAP2 SWAP1 PUSH2 0x2779 JUMP JUMPDEST SWAP2 POP POP SWAP6 SWAP5 POP POP POP POP POP JUMP JUMPDEST PUSH1 0x60 PUSH1 0x1 PUSH1 0x0 SWAP1 SLOAD SWAP1 PUSH2 0x100 EXP SWAP1 DIV PUSH20 0xFFFFFFFFFFFFFFFFFFFFFFFFFFFFFFFFFFFFFFFF AND PUSH20 0xFFFFFFFFFFFFFFFFFFFFFFFFFFFFFFFFFFFFFFFF AND PUSH4 0x1D769A9E PUSH32 0x8E1604A838D0F1A9B2CDA14A099E4CEB08E966CC6E05E8296F67B02D61A79F09 PUSH1 0x0 SHL PUSH1 0x40 MLOAD DUP3 PUSH4 0xFFFFFFFF AND PUSH1 0xE0 SHL DUP2 MSTORE PUSH1 0x4 ADD PUSH2 0xAA9 SWAP2 SWAP1 PUSH2 0x2839 JUMP JUMPDEST PUSH1 0x0 PUSH1 0x40 MLOAD DUP1 DUP4 SUB DUP2 DUP7 GAS STATICCALL ISZERO DUP1 ISZERO PUSH2 0xAC6 JUMPI RETURNDATASIZE PUSH1 0x0 DUP1 RETURNDATACOPY RETURNDATASIZE PUSH1 0x0 REVERT JUMPDEST POP POP POP POP PUSH1 0x40 MLOAD RETURNDATASIZE PUSH1 0x0 DUP3 RETURNDATACOPY RETURNDATASIZE PUSH1 0x1F NOT PUSH1 0x1F DUP3 ADD AND DUP3 ADD DUP1 PUSH1 0x40 MSTORE POP DUP2 ADD SWAP1 PUSH2 0xAEF SWAP2 SWAP1 PUSH2 0x30B9 JUMP JUMPDEST SWAP1 POP SWAP1 JUMP JUMPDEST PUSH1 0x0 PUSH2 0xAFE PUSH2 0xEF8 JUMP JUMPDEST PUSH2 0xB3D JUMPI PUSH1 0x40 MLOAD PUSH32 0x8C379A000000000000000000000000000000000000000000000000000000000 DUP2 MSTORE PUSH1 0x4 ADD PUSH2 0xB34 SWAP1 PUSH2 0x2696 JUMP JUMPDEST PUSH1 0x40 MLOAD DUP1 SWAP2 SUB SWAP1 REVERT JUMPDEST PUSH1 0x0 PUSH1 0x40 MLOAD DUP1 PUSH1 0xA0 ADD PUSH1 0x40 MSTORE DUP1 PUSH1 0x0 DUP2 MSTORE PUSH1 0x20 ADD DUP8 DUP2 MSTORE PUSH1 0x20 ADD DUP7 DUP2 MSTORE PUSH1 0x20 ADD DUP6 DUP2 MSTORE PUSH1 0x20 ADD DUP5 DUP2 MSTORE POP SWAP1 POP PUSH1 0x1 PUSH1 0x0 SWAP1 SLOAD SWAP1 PUSH2 0x100 EXP SWAP1 DIV PUSH20 0xFFFFFFFFFFFFFFFFFFFFFFFFFFFFFFFFFFFFFFFF AND PUSH20 0xFFFFFFFFFFFFFFFFFFFFFFFFFFFFFFFFFFFFFFFF AND PUSH4 0x4269E28B DUP3 PUSH32 0x8E1604A838D0F1A9B2CDA14A099E4CEB08E966CC6E05E8296F67B02D61A79F09 PUSH1 0x0 SHL PUSH1 0x40 MLOAD DUP4 PUSH4 0xFFFFFFFF AND PUSH1 0xE0 SHL DUP2 MSTORE PUSH1 0x4 ADD PUSH2 0xBE9 SWAP3 SWAP2 SWAP1 PUSH2 0x316A JUMP JUMPDEST PUSH1 0x20 PUSH1 0x40 MLOAD DUP1 DUP4 SUB DUP2 PUSH1 0x0 DUP8 GAS CALL ISZERO DUP1 ISZERO PUSH2 0xC08 JUMPI RETURNDATASIZE PUSH1 0x0 DUP1 RETURNDATACOPY RETURNDATASIZE PUSH1 0x0 REVERT JUMPDEST POP POP POP POP PUSH1 0x40 MLOAD RETURNDATASIZE PUSH1 0x1F NOT PUSH1 0x1F DUP3 ADD AND DUP3 ADD DUP1 PUSH1 0x40 MSTORE POP DUP2 ADD SWAP1 PUSH2 0xC2C SWAP2 SWAP1 PUSH2 0x2779 JUMP JUMPDEST SWAP2 POP POP SWAP5 SWAP4 POP POP POP POP JUMP JUMPDEST PUSH1 0x0 PUSH2 0xC41 PUSH2 0xEF8 JUMP JUMPDEST PUSH2 0xC80 JUMPI PUSH1 0x40 MLOAD PUSH32 0x8C379A000000000000000000000000000000000000000000000000000000000 DUP2 MSTORE PUSH1 0x4 ADD PUSH2 0xC77 SWAP1 PUSH2 0x2696 JUMP JUMPDEST PUSH1 0x40 MLOAD DUP1 SWAP2 SUB SWAP1 REVERT JUMPDEST PUSH1 0x0 PUSH1 0x40 MLOAD DUP1 PUSH1 0xC0 ADD PUSH1 0x40 MSTORE DUP1 PUSH1 0x0 DUP2 MSTORE PUSH1 0x20 ADD DUP9 DUP2 MSTORE PUSH1 0x20 ADD DUP8 PUSH1 0x2 DUP2 GT ISZERO PUSH2 0xCAD JUMPI PUSH2 0xCAC PUSH2 0x1BF2 JUMP JUMPDEST JUMPDEST DUP2 MSTORE PUSH1 0x20 ADD DUP7 DUP2 MSTORE PUSH1 0x20 ADD DUP6 DUP2 MSTORE PUSH1 0x20 ADD DUP5 DUP2 MSTORE POP SWAP1 POP PUSH1 0x1 PUSH1 0x0 SWAP1 SLOAD SWAP1 PUSH2 0x100 EXP SWAP1 DIV PUSH20 0xFFFFFFFFFFFFFFFFFFFFFFFFFFFFFFFFFFFFFFFF AND PUSH20 0xFFFFFFFFFFFFFFFFFFFFFFFFFFFFFFFFFFFFFFFF AND PUSH4 0xBA03FE92 DUP3 PUSH32 0x8E1604A838D0F1A9B2CDA14A099E4CEB08E966CC6E05E8296F67B02D61A79F09 PUSH1 0x0 SHL PUSH1 0x40 MLOAD DUP4 PUSH4 0xFFFFFFFF AND PUSH1 0xE0 SHL DUP2 MSTORE PUSH1 0x4 ADD PUSH2 0xD44 SWAP3 SWAP2 SWAP1 PUSH2 0x320E JUMP JUMPDEST PUSH1 0x20 PUSH1 0x40 MLOAD DUP1 DUP4 SUB DUP2 PUSH1 0x0 DUP8 GAS CALL ISZERO DUP1 ISZERO PUSH2 0xD63 JUMPI RETURNDATASIZE PUSH1 0x0 DUP1 RETURNDATACOPY RETURNDATASIZE PUSH1 0x0 REVERT JUMPDEST POP POP POP POP PUSH1 0x40 MLOAD RETURNDATASIZE PUSH1 0x1F NOT PUSH1 0x1F DUP3 ADD AND DUP3 ADD DUP1 PUSH1 0x40 MSTORE POP DUP2 ADD SWAP1 PUSH2 0xD87 SWAP2 SWAP1 PUSH2 0x2779 JUMP JUMPDEST SWAP2 POP POP SWAP6 SWAP5 POP POP POP POP POP JUMP JUMPDEST PUSH2 0xD9B PUSH2 0x143E JUMP JUMPDEST ADDRESS PUSH20 0xFFFFFFFFFFFFFFFFFFFFFFFFFFFFFFFFFFFFFFFF AND SELFDESTRUCT JUMPDEST PUSH1 0x0 DUP1 PUSH1 0x0 SWAP1 SLOAD SWAP1 PUSH2 0x100 EXP SWAP1 DIV PUSH20 0xFFFFFFFFFFFFFFFFFFFFFFFFFFFFFFFFFFFFFFFF AND SWAP1 POP SWAP1 JUMP JUMPDEST PUSH1 0x0 DUP1 PUSH1 0x40 MLOAD DUP1 PUSH1 0x80 ADD PUSH1 0x40 MSTORE DUP1 PUSH1 0x0 DUP2 MSTORE PUSH1 0x20 ADD CALLER PUSH20 0xFFFFFFFFFFFFFFFFFFFFFFFFFFFFFFFFFFFFFFFF AND DUP2 MSTORE PUSH1 0x20 ADD PUSH1 0x1 PUSH1 0x2 DUP2 GT ISZERO PUSH2 0xE22 JUMPI PUSH2 0xE21 PUSH2 0x1BF2 JUMP JUMPDEST JUMPDEST DUP2 MSTORE PUSH1 0x20 ADD DUP5 DUP2 MSTORE POP SWAP1 POP PUSH1 0x1 PUSH1 0x0 SWAP1 SLOAD SWAP1 PUSH2 0x100 EXP SWAP1 DIV PUSH20 0xFFFFFFFFFFFFFFFFFFFFFFFFFFFFFFFFFFFFFFFF AND PUSH20 0xFFFFFFFFFFFFFFFFFFFFFFFFFFFFFFFFFFFFFFFF AND PUSH4 0x86E9BACF DUP3 PUSH32 0x8E1604A838D0F1A9B2CDA14A099E4CEB08E966CC6E05E8296F67B02D61A79F09 PUSH1 0x0 SHL PUSH1 0x40 MLOAD DUP4 PUSH4 0xFFFFFFFF AND PUSH1 0xE0 SHL DUP2 MSTORE PUSH1 0x4 ADD PUSH2 0xEAD SWAP3 SWAP2 SWAP1 PUSH2 0x3237 JUMP JUMPDEST PUSH1 0x20 PUSH1 0x40 MLOAD DUP1 DUP4 SUB DUP2 PUSH1 0x0 DUP8 GAS CALL ISZERO DUP1 ISZERO PUSH2 0xECC JUMPI RETURNDATASIZE PUSH1 0x0 DUP1 RETURNDATACOPY RETURNDATASIZE PUSH1 0x0 REVERT JUMPDEST POP POP POP POP PUSH1 0x40 MLOAD RETURNDATASIZE PUSH1 0x1F NOT PUSH1 0x1F DUP3 ADD AND DUP3 ADD DUP1 PUSH1 0x40 MSTORE POP DUP2 ADD SWAP1 PUSH2 0xEF0 SWAP2 SWAP1 PUSH2 0x2779 JUMP JUMPDEST SWAP2 POP POP SWAP2 SWAP1 POP JUMP JUMPDEST PUSH1 0x0 DUP1 PUSH1 0x1 PUSH1 0x0 SWAP1 SLOAD SWAP1 PUSH2 0x100 EXP SWAP1 DIV PUSH20 0xFFFFFFFFFFFFFFFFFFFFFFFFFFFFFFFFFFFFFFFF AND PUSH20 0xFFFFFFFFFFFFFFFFFFFFFFFFFFFFFFFFFFFFFFFF AND PUSH4 0x776364A7 PUSH32 0x8E1604A838D0F1A9B2CDA14A099E4CEB08E966CC6E05E8296F67B02D61A79F09 PUSH1 0x0 SHL PUSH1 0x40 MLOAD DUP3 PUSH4 0xFFFFFFFF AND PUSH1 0xE0 SHL DUP2 MSTORE PUSH1 0x4 ADD PUSH2 0xF79 SWAP2 SWAP1 PUSH2 0x2839 JUMP JUMPDEST PUSH1 0x0 PUSH1 0x40 MLOAD DUP1 DUP4 SUB DUP2 DUP7 GAS STATICCALL ISZERO DUP1 ISZERO PUSH2 0xF96 JUMPI RETURNDATASIZE PUSH1 0x0 DUP1 RETURNDATACOPY RETURNDATASIZE PUSH1 0x0 REVERT JUMPDEST POP POP POP POP PUSH1 0x40 MLOAD RETURNDATASIZE PUSH1 0x0 DUP3 RETURNDATACOPY RETURNDATASIZE PUSH1 0x1F NOT PUSH1 0x1F DUP3 ADD AND DUP3 ADD DUP1 PUSH1 0x40 MSTORE POP DUP2 ADD SWAP1 PUSH2 0xFBF SWAP2 SWAP1 PUSH2 0x2DC2 JUMP JUMPDEST SWAP1 POP PUSH1 0x0 JUMPDEST DUP2 MLOAD DUP2 LT ISZERO PUSH2 0x103C JUMPI CALLER PUSH20 0xFFFFFFFFFFFFFFFFFFFFFFFFFFFFFFFFFFFFFFFF AND DUP3 DUP3 DUP2 MLOAD DUP2 LT PUSH2 0xFF7 JUMPI PUSH2 0xFF6 PUSH2 0x2E0B JUMP JUMPDEST JUMPDEST PUSH1 0x20 MUL PUSH1 0x20 ADD ADD MLOAD PUSH1 0x20 ADD MLOAD PUSH20 0xFFFFFFFFFFFFFFFFFFFFFFFFFFFFFFFFFFFFFFFF AND SUB PUSH2 0x1029 JUMPI PUSH1 0x1 SWAP3 POP POP POP PUSH2 0x1043 JUMP JUMPDEST DUP1 DUP1 PUSH2 0x1034 SWAP1 PUSH2 0x2E69 JUMP JUMPDEST SWAP2 POP POP PUSH2 0xFC4 JUMP JUMPDEST POP PUSH1 0x0 SWAP2 POP POP JUMPDEST SWAP1 JUMP JUMPDEST PUSH2 0x104E PUSH2 0x1579 JUMP JUMPDEST PUSH1 0x0 PUSH1 0x1 PUSH1 0x0 SWAP1 SLOAD SWAP1 PUSH2 0x100 EXP SWAP1 DIV PUSH20 0xFFFFFFFFFFFFFFFFFFFFFFFFFFFFFFFFFFFFFFFF AND PUSH20 0xFFFFFFFFFFFFFFFFFFFFFFFFFFFFFFFFFFFFFFFF AND PUSH4 0x776364A7 PUSH32 0x8E1604A838D0F1A9B2CDA14A099E4CEB08E966CC6E05E8296F67B02D61A79F09 PUSH1 0x0 SHL PUSH1 0x40 MLOAD DUP3 PUSH4 0xFFFFFFFF AND PUSH1 0xE0 SHL DUP2 MSTORE PUSH1 0x4 ADD PUSH2 0x10CE SWAP2 SWAP1 PUSH2 0x2839 JUMP JUMPDEST PUSH1 0x0 PUSH1 0x40 MLOAD DUP1 DUP4 SUB DUP2 DUP7 GAS STATICCALL ISZERO DUP1 ISZERO PUSH2 0x10EB JUMPI RETURNDATASIZE PUSH1 0x0 DUP1 RETURNDATACOPY RETURNDATASIZE PUSH1 0x0 REVERT JUMPDEST POP POP POP POP PUSH1 0x40 MLOAD RETURNDATASIZE PUSH1 0x0 DUP3 RETURNDATACOPY RETURNDATASIZE PUSH1 0x1F NOT PUSH1 0x1F DUP3 ADD AND DUP3 ADD DUP1 PUSH1 0x40 MSTORE POP DUP2 ADD SWAP1 PUSH2 0x1114 SWAP2 SWAP1 PUSH2 0x2DC2 JUMP JUMPDEST SWAP1 POP PUSH1 0x0 JUMPDEST DUP2 MLOAD DUP2 LT ISZERO PUSH2 0x11AA JUMPI CALLER PUSH20 0xFFFFFFFFFFFFFFFFFFFFFFFFFFFFFFFFFFFFFFFF AND DUP3 DUP3 DUP2 MLOAD DUP2 LT PUSH2 0x114C JUMPI PUSH2 0x114B PUSH2 0x2E0B JUMP JUMPDEST JUMPDEST PUSH1 0x20 MUL PUSH1 0x20 ADD ADD MLOAD PUSH1 0x20 ADD MLOAD PUSH20 0xFFFFFFFFFFFFFFFFFFFFFFFFFFFFFFFFFFFFFFFF AND SUB PUSH2 0x1197 JUMPI DUP2 DUP2 DUP2 MLOAD DUP2 LT PUSH2 0x1186 JUMPI PUSH2 0x1185 PUSH2 0x2E0B JUMP JUMPDEST JUMPDEST PUSH1 0x20 MUL PUSH1 0x20 ADD ADD MLOAD SWAP3 POP POP POP PUSH2 0x11FC JUMP JUMPDEST DUP1 DUP1 PUSH2 0x11A2 SWAP1 PUSH2 0x2E69 JUMP JUMPDEST SWAP2 POP POP PUSH2 0x1119 JUMP JUMPDEST POP PUSH1 0x40 MLOAD DUP1 PUSH1 0x80 ADD PUSH1 0x40 MSTORE DUP1 PUSH1 0x0 DUP2 MSTORE PUSH1 0x20 ADD PUSH1 0x0 PUSH20 0xFFFFFFFFFFFFFFFFFFFFFFFFFFFFFFFFFFFFFFFF AND DUP2 MSTORE PUSH1 0x20 ADD PUSH1 0x0 PUSH1 0x2 DUP2 GT ISZERO PUSH2 0x11EE JUMPI PUSH2 0x11ED PUSH2 0x1BF2 JUMP JUMPDEST JUMPDEST DUP2 MSTORE PUSH1 0x20 ADD PUSH1 0x0 DUP2 MSTORE POP SWAP2 POP POP JUMPDEST SWAP1 JUMP JUMPDEST PUSH1 0x60 PUSH1 0x1 PUSH1 0x0 SWAP1 SLOAD SWAP1 PUSH2 0x100 EXP SWAP1 DIV PUSH20 0xFFFFFFFFFFFFFFFFFFFFFFFFFFFFFFFFFFFFFFFF AND PUSH20 0xFFFFFFFFFFFFFFFFFFFFFFFFFFFFFFFFFFFFFFFF AND PUSH4 0x48C1B2CD PUSH32 0x8E1604A838D0F1A9B2CDA14A099E4CEB08E966CC6E05E8296F67B02D61A79F09 PUSH1 0x0 SHL PUSH1 0x40 MLOAD DUP3 PUSH4 0xFFFFFFFF AND PUSH1 0xE0 SHL DUP2 MSTORE PUSH1 0x4 ADD PUSH2 0x127F SWAP2 SWAP1 PUSH2 0x2839 JUMP JUMPDEST PUSH1 0x0 PUSH1 0x40 MLOAD DUP1 DUP4 SUB DUP2 DUP7 GAS STATICCALL ISZERO DUP1 ISZERO PUSH2 0x129C JUMPI RETURNDATASIZE PUSH1 0x0 DUP1 RETURNDATACOPY RETURNDATASIZE PUSH1 0x0 REVERT JUMPDEST POP POP POP POP PUSH1 0x40 MLOAD RETURNDATASIZE PUSH1 0x0 DUP3 RETURNDATACOPY RETURNDATASIZE PUSH1 0x1F NOT PUSH1 0x1F DUP3 ADD AND DUP3 ADD DUP1 PUSH1 0x40 MSTORE POP DUP2 ADD SWAP1 PUSH2 0x12C5 SWAP2 SWAP1 PUSH2 0x346C JUMP JUMPDEST SWAP1 POP SWAP1 JUMP JUMPDEST PUSH1 0x60 PUSH1 0x1 PUSH1 0x0 SWAP1 SLOAD SWAP1 PUSH2 0x100 EXP SWAP1 DIV PUSH20 0xFFFFFFFFFFFFFFFFFFFFFFFFFFFFFFFFFFFFFFFF AND PUSH20 0xFFFFFFFFFFFFFFFFFFFFFFFFFFFFFFFFFFFFFFFF AND PUSH4 0x552436B3 PUSH32 0x8E1604A838D0F1A9B2CDA14A099E4CEB08E966CC6E05E8296F67B02D61A79F09 PUSH1 0x0 SHL PUSH1 0x40 MLOAD DUP3 PUSH4 0xFFFFFFFF AND PUSH1 0xE0 SHL DUP2 MSTORE PUSH1 0x4 ADD PUSH2 0x134A SWAP2 SWAP1 PUSH2 0x2839 JUMP JUMPDEST PUSH1 0x0 PUSH1 0x40 MLOAD DUP1 DUP4 SUB DUP2 DUP7 GAS STATICCALL ISZERO DUP1 ISZERO PUSH2 0x1367 JUMPI RETURNDATASIZE PUSH1 0x0 DUP1 RETURNDATACOPY RETURNDATASIZE PUSH1 0x0 REVERT JUMPDEST POP POP POP POP PUSH1 0x40 MLOAD RETURNDATASIZE PUSH1 0x0 DUP3 RETURNDATACOPY RETURNDATASIZE PUSH1 0x1F NOT PUSH1 0x1F DUP3 ADD AND DUP3 ADD DUP1 PUSH1 0x40 MSTORE POP DUP2 ADD SWAP1 PUSH2 0x1390 SWAP2 SWAP1 PUSH2 0x362D JUMP JUMPDEST SWAP1 POP SWAP1 JUMP JUMPDEST PUSH2 0x139D PUSH2 0x143E JUMP JUMPDEST PUSH1 0x0 PUSH20 0xFFFFFFFFFFFFFFFFFFFFFFFFFFFFFFFFFFFFFFFF AND DUP2 PUSH20 0xFFFFFFFFFFFFFFFFFFFFFFFFFFFFFFFFFFFFFFFF AND SUB PUSH2 0x140C JUMPI PUSH1 0x40 MLOAD PUSH32 0x8C379A000000000000000000000000000000000000000000000000000000000 DUP2 MSTORE PUSH1 0x4 ADD PUSH2 0x1403 SWAP1 PUSH2 0x36E8 JUMP JUMPDEST PUSH1 0x40 MLOAD DUP1 SWAP2 SUB SWAP1 REVERT JUMPDEST PUSH2 0x1415 DUP2 PUSH2 0x14B5 JUMP JUMPDEST POP JUMP JUMPDEST PUSH1 0x1 PUSH1 0x0 SWAP1 SLOAD SWAP1 PUSH2 0x100 EXP SWAP1 DIV PUSH20 0xFFFFFFFFFFFFFFFFFFFFFFFFFFFFFFFFFFFFFFFF AND DUP2 JUMP JUMPDEST CALLER PUSH20 0xFFFFFFFFFFFFFFFFFFFFFFFFFFFFFFFFFFFFFFFF AND PUSH2 0x145D PUSH2 0xDB4 JUMP JUMPDEST PUSH20 0xFFFFFFFFFFFFFFFFFFFFFFFFFFFFFFFFFFFFFFFF AND EQ PUSH2 0x14B3 JUMPI PUSH1 0x40 MLOAD PUSH32 0x8C379A000000000000000000000000000000000000000000000000000000000 DUP2 MSTORE PUSH1 0x4 ADD PUSH2 0x14AA SWAP1 PUSH2 0x3754 JUMP JUMPDEST PUSH1 0x40 MLOAD DUP1 SWAP2 SUB SWAP1 REVERT JUMPDEST JUMP JUMPDEST PUSH1 0x0 DUP1 PUSH1 0x0 SWAP1 SLOAD SWAP1 PUSH2 0x100 EXP SWAP1 DIV PUSH20 0xFFFFFFFFFFFFFFFFFFFFFFFFFFFFFFFFFFFFFFFF AND SWAP1 POP DUP2 PUSH1 0x0 DUP1 PUSH2 0x100 EXP DUP2 SLOAD DUP2 PUSH20 0xFFFFFFFFFFFFFFFFFFFFFFFFFFFFFFFFFFFFFFFF MUL NOT AND SWAP1 DUP4 PUSH20 0xFFFFFFFFFFFFFFFFFFFFFFFFFFFFFFFFFFFFFFFF AND MUL OR SWAP1 SSTORE POP DUP2 PUSH20 0xFFFFFFFFFFFFFFFFFFFFFFFFFFFFFFFFFFFFFFFF AND DUP2 PUSH20 0xFFFFFFFFFFFFFFFFFFFFFFFFFFFFFFFFFFFFFFFF AND PUSH32 0x8BE0079C531659141344CD1FD0A4F28419497F9722A3DAAFE3B4186F6B6457E0 PUSH1 0x40 MLOAD PUSH1 0x40 MLOAD DUP1 SWAP2 SUB SWAP1 LOG3 POP POP JUMP JUMPDEST PUSH1 0x40 MLOAD DUP1 PUSH1 0x80 ADD PUSH1 0x40 MSTORE DUP1 PUSH1 0x0 DUP2 MSTORE PUSH1 0x20 ADD PUSH1 0x0 PUSH20 0xFFFFFFFFFFFFFFFFFFFFFFFFFFFFFFFFFFFFFFFF AND DUP2 MSTORE PUSH1 0x20 ADD PUSH1 0x0 PUSH1 0x2 DUP2 GT ISZERO PUSH2 0x15BC JUMPI PUSH2 0x15BB PUSH2 0x1BF2 JUMP JUMPDEST JUMPDEST DUP2 MSTORE PUSH1 0x20 ADD PUSH1 0x0 DUP2 MSTORE POP SWAP1 JUMP JUMPDEST PUSH1 0x0 PUSH1 0x40 MLOAD SWAP1 POP SWAP1 JUMP JUMPDEST PUSH1 0x0 DUP1 REVERT JUMPDEST PUSH1 0x0 DUP1 REVERT JUMPDEST PUSH1 0x0 DUP2 SWAP1 POP SWAP2 SWAP1 POP JUMP JUMPDEST PUSH2 0x15F0 DUP2 PUSH2 0x15DD JUMP JUMPDEST DUP2 EQ PUSH2 0x15FB JUMPI PUSH1 0x0 DUP1 REVERT JUMPDEST POP JUMP JUMPDEST PUSH1 0x0 DUP2 CALLDATALOAD SWAP1 POP PUSH2 0x160D DUP2 PUSH2 0x15E7 JUMP JUMPDEST SWAP3 SWAP2 POP POP JUMP JUMPDEST PUSH1 0x0 DUP1 PUSH1 0x0 PUSH1 0x60 DUP5 DUP7 SUB SLT ISZERO PUSH2 0x162C JUMPI PUSH2 0x162B PUSH2 0x15D3 JUMP JUMPDEST JUMPDEST PUSH1 0x0 PUSH2 0x163A DUP7 DUP3 DUP8 ADD PUSH2 0x15FE JUMP JUMPDEST SWAP4 POP POP PUSH1 0x20 PUSH2 0x164B DUP7 DUP3 DUP8 ADD PUSH2 0x15FE JUMP JUMPDEST SWAP3 POP POP PUSH1 0x40 PUSH2 0x165C DUP7 DUP3 DUP8 ADD PUSH2 0x15FE JUMP JUMPDEST SWAP2 POP POP SWAP3 POP SWAP3 POP SWAP3 JUMP JUMPDEST PUSH1 0x0 DUP2 ISZERO ISZERO SWAP1 POP SWAP2 SWAP1 POP JUMP JUMPDEST PUSH2 0x167B DUP2 PUSH2 0x1666 JUMP JUMPDEST DUP3 MSTORE POP POP JUMP JUMPDEST PUSH1 0x0 PUSH1 0x20 DUP3 ADD SWAP1 POP PUSH2 0x1696 PUSH1 0x0 DUP4 ADD DUP5 PUSH2 0x1672 JUMP JUMPDEST SWAP3 SWAP2 POP POP JUMP JUMPDEST PUSH1 0x0 DUP1 REVERT JUMPDEST PUSH1 0x0 PUSH1 0x1F NOT PUSH1 0x1F DUP4 ADD AND SWAP1 POP SWAP2 SWAP1 POP JUMP JUMPDEST PUSH32 0x4E487B7100000000000000000000000000000000000000000000000000000000 PUSH1 0x0 MSTORE PUSH1 0x41 PUSH1 0x4 MSTORE PUSH1 0x24 PUSH1 0x0 REVERT JUMPDEST PUSH2 0x16EA DUP3 PUSH2 0x16A1 JUMP JUMPDEST DUP2 ADD DUP2 DUP2 LT PUSH8 0xFFFFFFFFFFFFFFFF DUP3 GT OR ISZERO PUSH2 0x1709 JUMPI PUSH2 0x1708 PUSH2 0x16B2 JUMP JUMPDEST JUMPDEST DUP1 PUSH1 0x40 MSTORE POP POP POP JUMP JUMPDEST PUSH1 0x0 PUSH2 0x171C PUSH2 0x15C9 JUMP JUMPDEST SWAP1 POP PUSH2 0x1728 DUP3 DUP3 PUSH2 0x16E1 JUMP JUMPDEST SWAP2 SWAP1 POP JUMP JUMPDEST PUSH1 0x0 PUSH8 0xFFFFFFFFFFFFFFFF DUP3 GT ISZERO PUSH2 0x1748 JUMPI PUSH2 0x1747 PUSH2 0x16B2 JUMP JUMPDEST JUMPDEST PUSH1 0x20 DUP3 MUL SWAP1 POP PUSH1 0x20 DUP2 ADD SWAP1 POP SWAP2 SWAP1 POP JUMP JUMPDEST PUSH1 0x0 DUP1 REVERT JUMPDEST PUSH1 0x0 PUSH2 0x1771 PUSH2 0x176C DUP5 PUSH2 0x172D JUMP JUMPDEST PUSH2 0x1712 JUMP JUMPDEST SWAP1 POP DUP1 DUP4 DUP3 MSTORE PUSH1 0x20 DUP3 ADD SWAP1 POP PUSH1 0x20 DUP5 MUL DUP4 ADD DUP6 DUP2 GT ISZERO PUSH2 0x1794 JUMPI PUSH2 0x1793 PUSH2 0x1759 JUMP JUMPDEST JUMPDEST DUP4 JUMPDEST DUP2 DUP2 LT ISZERO PUSH2 0x17BD JUMPI DUP1 PUSH2 0x17A9 DUP9 DUP3 PUSH2 0x15FE JUMP JUMPDEST DUP5 MSTORE PUSH1 0x20 DUP5 ADD SWAP4 POP POP PUSH1 0x20 DUP2 ADD SWAP1 POP PUSH2 0x1796 JUMP JUMPDEST POP POP POP SWAP4 SWAP3 POP POP POP JUMP JUMPDEST PUSH1 0x0 DUP3 PUSH1 0x1F DUP4 ADD SLT PUSH2 0x17DC JUMPI PUSH2 0x17DB PUSH2 0x169C JUMP JUMPDEST JUMPDEST DUP2 CALLDATALOAD PUSH2 0x17EC DUP5 DUP3 PUSH1 0x20 DUP7 ADD PUSH2 0x175E JUMP JUMPDEST SWAP2 POP POP SWAP3 SWAP2 POP POP JUMP JUMPDEST PUSH1 0x0 DUP1 PUSH1 0x0 PUSH1 0x60 DUP5 DUP7 SUB SLT ISZERO PUSH2 0x180E JUMPI PUSH2 0x180D PUSH2 0x15D3 JUMP JUMPDEST JUMPDEST PUSH1 0x0 PUSH2 0x181C DUP7 DUP3 DUP8 ADD PUSH2 0x15FE JUMP JUMPDEST SWAP4 POP POP PUSH1 0x20 PUSH2 0x182D DUP7 DUP3 DUP8 ADD PUSH2 0x15FE JUMP JUMPDEST SWAP3 POP POP PUSH1 0x40 DUP5 ADD CALLDATALOAD PUSH8 0xFFFFFFFFFFFFFFFF DUP2 GT ISZERO PUSH2 0x184E JUMPI PUSH2 0x184D PUSH2 0x15D8 JUMP JUMPDEST JUMPDEST PUSH2 0x185A DUP7 DUP3 DUP8 ADD PUSH2 0x17C7 JUMP JUMPDEST SWAP2 POP POP SWAP3 POP SWAP3 POP SWAP3 JUMP JUMPDEST PUSH1 0x0 DUP2 MLOAD SWAP1 POP SWAP2 SWAP1 POP JUMP JUMPDEST PUSH1 0x0 DUP3 DUP3 MSTORE PUSH1 0x20 DUP3 ADD SWAP1 POP SWAP3 SWAP2 POP POP JUMP JUMPDEST PUSH1 0x0 DUP2 SWAP1 POP PUSH1 0x20 DUP3 ADD SWAP1 POP SWAP2 SWAP1 POP JUMP JUMPDEST PUSH2 0x1899 DUP2 PUSH2 0x15DD JUMP JUMPDEST DUP3 MSTORE POP POP JUMP JUMPDEST PUSH1 0x0 DUP2 MLOAD SWAP1 POP SWAP2 SWAP1 POP JUMP JUMPDEST PUSH1 0x0 DUP3 DUP3 MSTORE PUSH1 0x20 DUP3 ADD SWAP1 POP SWAP3 SWAP2 POP POP JUMP JUMPDEST PUSH1 0x0 JUMPDEST DUP4 DUP2 LT ISZERO PUSH2 0x18D9 JUMPI DUP1 DUP3 ADD MLOAD DUP2 DUP5 ADD MSTORE PUSH1 0x20 DUP2 ADD SWAP1 POP PUSH2 0x18BE JUMP JUMPDEST PUSH1 0x0 DUP5 DUP5 ADD MSTORE POP POP POP POP JUMP JUMPDEST PUSH1 0x0 PUSH2 0x18F0 DUP3 PUSH2 0x189F JUMP JUMPDEST PUSH2 0x18FA DUP2 DUP6 PUSH2 0x18AA JUMP JUMPDEST SWAP4 POP PUSH2 0x190A DUP2 DUP6 PUSH1 0x20 DUP7 ADD PUSH2 0x18BB JUMP JUMPDEST PUSH2 0x1913 DUP2 PUSH2 0x16A1 JUMP JUMPDEST DUP5 ADD SWAP2 POP POP SWAP3 SWAP2 POP POP JUMP JUMPDEST PUSH1 0x0 PUSH1 0xC0 DUP4 ADD PUSH1 0x0 DUP4 ADD MLOAD PUSH2 0x1936 PUSH1 0x0 DUP7 ADD DUP3 PUSH2 0x1890 JUMP JUMPDEST POP PUSH1 0x20 DUP4 ADD MLOAD PUSH2 0x1949 PUSH1 0x20 DUP7 ADD DUP3 PUSH2 0x1890 JUMP JUMPDEST POP PUSH1 0x40 DUP4 ADD MLOAD DUP5 DUP3 SUB PUSH1 0x40 DUP7 ADD MSTORE PUSH2 0x1961 DUP3 DUP3 PUSH2 0x18E5 JUMP JUMPDEST SWAP2 POP POP PUSH1 0x60 DUP4 ADD MLOAD PUSH2 0x1976 PUSH1 0x60 DUP7 ADD DUP3 PUSH2 0x1890 JUMP JUMPDEST POP PUSH1 0x80 DUP4 ADD MLOAD PUSH2 0x1989 PUSH1 0x80 DUP7 ADD DUP3 PUSH2 0x1890 JUMP JUMPDEST POP PUSH1 0xA0 DUP4 ADD MLOAD PUSH2 0x199C PUSH1 0xA0 DUP7 ADD DUP3 PUSH2 0x1890 JUMP JUMPDEST POP DUP1 SWAP2 POP POP SWAP3 SWAP2 POP POP JUMP JUMPDEST PUSH1 0x0 PUSH2 0x19B3 DUP4 DUP4 PUSH2 0x191E JUMP JUMPDEST SWAP1 POP SWAP3 SWAP2 POP POP JUMP JUMPDEST PUSH1 0x0 PUSH1 0x20 DUP3 ADD SWAP1 POP SWAP2 SWAP1 POP JUMP JUMPDEST PUSH1 0x0 PUSH2 0x19D3 DUP3 PUSH2 0x1864 JUMP JUMPDEST PUSH2 0x19DD DUP2 DUP6 PUSH2 0x186F JUMP JUMPDEST SWAP4 POP DUP4 PUSH1 0x20 DUP3 MUL DUP6 ADD PUSH2 0x19EF DUP6 PUSH2 0x1880 JUMP JUMPDEST DUP1 PUSH1 0x0 JUMPDEST DUP6 DUP2 LT ISZERO PUSH2 0x1A2B JUMPI DUP5 DUP5 SUB DUP10 MSTORE DUP2 MLOAD PUSH2 0x1A0C DUP6 DUP3 PUSH2 0x19A7 JUMP JUMPDEST SWAP5 POP PUSH2 0x1A17 DUP4 PUSH2 0x19BB JUMP JUMPDEST SWAP3 POP PUSH1 0x20 DUP11 ADD SWAP10 POP POP PUSH1 0x1 DUP2 ADD SWAP1 POP PUSH2 0x19F3 JUMP JUMPDEST POP DUP3 SWAP8 POP DUP8 SWAP6 POP POP POP POP POP POP SWAP3 SWAP2 POP POP JUMP JUMPDEST PUSH1 0x0 PUSH1 0x20 DUP3 ADD SWAP1 POP DUP2 DUP2 SUB PUSH1 0x0 DUP4 ADD MSTORE PUSH2 0x1A57 DUP2 DUP5 PUSH2 0x19C8 JUMP JUMPDEST SWAP1 POP SWAP3 SWAP2 POP POP JUMP JUMPDEST PUSH1 0x0 DUP2 MLOAD SWAP1 POP SWAP2 SWAP1 POP JUMP JUMPDEST PUSH1 0x0 DUP3 DUP3 MSTORE PUSH1 0x20 DUP3 ADD SWAP1 POP SWAP3 SWAP2 POP POP JUMP JUMPDEST PUSH1 0x0 DUP2 SWAP1 POP PUSH1 0x20 DUP3 ADD SWAP1 POP SWAP2 SWAP1 POP JUMP JUMPDEST PUSH1 0x80 DUP3 ADD PUSH1 0x0 DUP3 ADD MLOAD PUSH2 0x1AA1 PUSH1 0x0 DUP6 ADD DUP3 PUSH2 0x1890 JUMP JUMPDEST POP PUSH1 0x20 DUP3 ADD MLOAD PUSH2 0x1AB4 PUSH1 0x20 DUP6 ADD DUP3 PUSH2 0x1890 JUMP JUMPDEST POP PUSH1 0x40 DUP3 ADD MLOAD PUSH2 0x1AC7 PUSH1 0x40 DUP6 ADD DUP3 PUSH2 0x1890 JUMP JUMPDEST POP PUSH1 0x60 DUP3 ADD MLOAD PUSH2 0x1ADA PUSH1 0x60 DUP6 ADD DUP3 PUSH2 0x1890 JUMP JUMPDEST POP POP POP POP JUMP JUMPDEST PUSH1 0x0 PUSH2 0x1AEC DUP4 DUP4 PUSH2 0x1A8B JUMP JUMPDEST PUSH1 0x80 DUP4 ADD SWAP1 POP SWAP3 SWAP2 POP POP JUMP JUMPDEST PUSH1 0x0 PUSH1 0x20 DUP3 ADD SWAP1 POP SWAP2 SWAP1 POP JUMP JUMPDEST PUSH1 0x0 PUSH2 0x1B10 DUP3 PUSH2 0x1A5F JUMP JUMPDEST PUSH2 0x1B1A DUP2 DUP6 PUSH2 0x1A6A JUMP JUMPDEST SWAP4 POP PUSH2 0x1B25 DUP4 PUSH2 0x1A7B JUMP JUMPDEST DUP1 PUSH1 0x0 JUMPDEST DUP4 DUP2 LT ISZERO PUSH2 0x1B56 JUMPI DUP2 MLOAD PUSH2 0x1B3D DUP9 DUP3 PUSH2 0x1AE0 JUMP JUMPDEST SWAP8 POP PUSH2 0x1B48 DUP4 PUSH2 0x1AF8 JUMP JUMPDEST SWAP3 POP POP PUSH1 0x1 DUP2 ADD SWAP1 POP PUSH2 0x1B29 JUMP JUMPDEST POP DUP6 SWAP4 POP POP POP POP SWAP3 SWAP2 POP POP JUMP JUMPDEST PUSH1 0x0 PUSH1 0x20 DUP3 ADD SWAP1 POP DUP2 DUP2 SUB PUSH1 0x0 DUP4 ADD MSTORE PUSH2 0x1B7D DUP2 DUP5 PUSH2 0x1B05 JUMP JUMPDEST SWAP1 POP SWAP3 SWAP2 POP POP JUMP JUMPDEST PUSH1 0x0 DUP2 MLOAD SWAP1 POP SWAP2 SWAP1 POP JUMP JUMPDEST PUSH1 0x0 DUP3 DUP3 MSTORE PUSH1 0x20 DUP3 ADD SWAP1 POP SWAP3 SWAP2 POP POP JUMP JUMPDEST PUSH1 0x0 DUP2 SWAP1 POP PUSH1 0x20 DUP3 ADD SWAP1 POP SWAP2 SWAP1 POP JUMP JUMPDEST PUSH1 0x0 PUSH20 0xFFFFFFFFFFFFFFFFFFFFFFFFFFFFFFFFFFFFFFFF DUP3 AND SWAP1 POP SWAP2 SWAP1 POP JUMP JUMPDEST PUSH1 0x0 PUSH2 0x1BDC DUP3 PUSH2 0x1BB1 JUMP JUMPDEST SWAP1 POP SWAP2 SWAP1 POP JUMP JUMPDEST PUSH2 0x1BEC DUP2 PUSH2 0x1BD1 JUMP JUMPDEST DUP3 MSTORE POP POP JUMP JUMPDEST PUSH32 0x4E487B7100000000000000000000000000000000000000000000000000000000 PUSH1 0x0 MSTORE PUSH1 0x21 PUSH1 0x4 MSTORE PUSH1 0x24 PUSH1 0x0 REVERT JUMPDEST PUSH1 0x3 DUP2 LT PUSH2 0x1C32 JUMPI PUSH2 0x1C31 PUSH2 0x1BF2 JUMP JUMPDEST JUMPDEST POP JUMP JUMPDEST PUSH1 0x0 DUP2 SWAP1 POP PUSH2 0x1C43 DUP3 PUSH2 0x1C21 JUMP JUMPDEST SWAP2 SWAP1 POP JUMP JUMPDEST PUSH1 0x0 PUSH2 0x1C53 DUP3 PUSH2 0x1C35 JUMP JUMPDEST SWAP1 POP SWAP2 SWAP1 POP JUMP JUMPDEST PUSH2 0x1C63 DUP2 PUSH2 0x1C48 JUMP JUMPDEST DUP3 MSTORE POP POP JUMP JUMPDEST PUSH1 0x80 DUP3 ADD PUSH1 0x0 DUP3 ADD MLOAD PUSH2 0x1C7F PUSH1 0x0 DUP6 ADD DUP3 PUSH2 0x1890 JUMP JUMPDEST POP PUSH1 0x20 DUP3 ADD MLOAD PUSH2 0x1C92 PUSH1 0x20 DUP6 ADD DUP3 PUSH2 0x1BE3 JUMP JUMPDEST POP PUSH1 0x40 DUP3 ADD MLOAD PUSH2 0x1CA5 PUSH1 0x40 DUP6 ADD DUP3 PUSH2 0x1C5A JUMP JUMPDEST POP PUSH1 0x60 DUP3 ADD MLOAD PUSH2 0x1CB8 PUSH1 0x60 DUP6 ADD DUP3 PUSH2 0x1890 JUMP JUMPDEST POP POP POP POP JUMP JUMPDEST PUSH1 0x0 PUSH2 0x1CCA DUP4 DUP4 PUSH2 0x1C69 JUMP JUMPDEST PUSH1 0x80 DUP4 ADD SWAP1 POP SWAP3 SWAP2 POP POP JUMP JUMPDEST PUSH1 0x0 PUSH1 0x20 DUP3 ADD SWAP1 POP SWAP2 SWAP1 POP JUMP JUMPDEST PUSH1 0x0 PUSH2 0x1CEE DUP3 PUSH2 0x1B85 JUMP JUMPDEST PUSH2 0x1CF8 DUP2 DUP6 PUSH2 0x1B90 JUMP JUMPDEST SWAP4 POP PUSH2 0x1D03 DUP4 PUSH2 0x1BA1 JUMP JUMPDEST DUP1 PUSH1 0x0 JUMPDEST DUP4 DUP2 LT ISZERO PUSH2 0x1D34 JUMPI DUP2 MLOAD PUSH2 0x1D1B DUP9 DUP3 PUSH2 0x1CBE JUMP JUMPDEST SWAP8 POP PUSH2 0x1D26 DUP4 PUSH2 0x1CD6 JUMP JUMPDEST SWAP3 POP POP PUSH1 0x1 DUP2 ADD SWAP1 POP PUSH2 0x1D07 JUMP JUMPDEST POP DUP6 SWAP4 POP POP POP POP SWAP3 SWAP2 POP POP JUMP JUMPDEST PUSH1 0x0 PUSH1 0x20 DUP3 ADD SWAP1 POP DUP2 DUP2 SUB PUSH1 0x0 DUP4 ADD MSTORE PUSH2 0x1D5B DUP2 DUP5 PUSH2 0x1CE3 JUMP JUMPDEST SWAP1 POP SWAP3 SWAP2 POP POP JUMP JUMPDEST PUSH1 0x0 DUP1 REVERT JUMPDEST PUSH1 0x0 PUSH8 0xFFFFFFFFFFFFFFFF DUP3 GT ISZERO PUSH2 0x1D83 JUMPI PUSH2 0x1D82 PUSH2 0x16B2 JUMP JUMPDEST JUMPDEST PUSH2 0x1D8C DUP3 PUSH2 0x16A1 JUMP JUMPDEST SWAP1 POP PUSH1 0x20 DUP2 ADD SWAP1 POP SWAP2 SWAP1 POP JUMP JUMPDEST DUP3 DUP2 DUP4 CALLDATACOPY PUSH1 0x0 DUP4 DUP4 ADD MSTORE POP POP POP JUMP JUMPDEST PUSH1 0x0 PUSH2 0x1DBB PUSH2 0x1DB6 DUP5 PUSH2 0x1D68 JUMP JUMPDEST PUSH2 0x1712 JUMP JUMPDEST SWAP1 POP DUP3 DUP2 MSTORE PUSH1 0x20 DUP2 ADD DUP5 DUP5 DUP5 ADD GT ISZERO PUSH2 0x1DD7 JUMPI PUSH2 0x1DD6 PUSH2 0x1D63 JUMP JUMPDEST JUMPDEST PUSH2 0x1DE2 DUP5 DUP3 DUP6 PUSH2 0x1D99 JUMP JUMPDEST POP SWAP4 SWAP3 POP POP POP JUMP JUMPDEST PUSH1 0x0 DUP3 PUSH1 0x1F DUP4 ADD SLT PUSH2 0x1DFF JUMPI PUSH2 0x1DFE PUSH2 0x169C JUMP JUMPDEST JUMPDEST DUP2 CALLDATALOAD PUSH2 0x1E0F DUP5 DUP3 PUSH1 0x20 DUP7 ADD PUSH2 0x1DA8 JUMP JUMPDEST SWAP2 POP POP SWAP3 SWAP2 POP POP JUMP JUMPDEST PUSH1 0x0 DUP1 PUSH1 0x0 DUP1 PUSH1 0x0 PUSH1 0xA0 DUP7 DUP9 SUB SLT ISZERO PUSH2 0x1E34 JUMPI PUSH2 0x1E33 PUSH2 0x15D3 JUMP JUMPDEST JUMPDEST PUSH1 0x0 PUSH2 0x1E42 DUP9 DUP3 DUP10 ADD PUSH2 0x15FE JUMP JUMPDEST SWAP6 POP POP PUSH1 0x20 DUP7 ADD CALLDATALOAD PUSH8 0xFFFFFFFFFFFFFFFF DUP2 GT ISZERO PUSH2 0x1E63 JUMPI PUSH2 0x1E62 PUSH2 0x15D8 JUMP JUMPDEST JUMPDEST PUSH2 0x1E6F DUP9 DUP3 DUP10 ADD PUSH2 0x1DEA JUMP JUMPDEST SWAP5 POP POP PUSH1 0x40 PUSH2 0x1E80 DUP9 DUP3 DUP10 ADD PUSH2 0x15FE JUMP JUMPDEST SWAP4 POP POP PUSH1 0x60 PUSH2 0x1E91 DUP9 DUP3 DUP10 ADD PUSH2 0x15FE JUMP JUMPDEST SWAP3 POP POP PUSH1 0x80 PUSH2 0x1EA2 DUP9 DUP3 DUP10 ADD PUSH2 0x15FE JUMP JUMPDEST SWAP2 POP POP SWAP3 SWAP6 POP SWAP3 SWAP6 SWAP1 SWAP4 POP JUMP JUMPDEST PUSH1 0x0 DUP2 MLOAD SWAP1 POP SWAP2 SWAP1 POP JUMP JUMPDEST PUSH1 0x0 DUP3 DUP3 MSTORE PUSH1 0x20 DUP3 ADD SWAP1 POP SWAP3 SWAP2 POP POP JUMP JUMPDEST PUSH1 0x0 DUP2 SWAP1 POP PUSH1 0x20 DUP3 ADD SWAP1 POP SWAP2 SWAP1 POP JUMP JUMPDEST PUSH1 0xA0 DUP3 ADD PUSH1 0x0 DUP3 ADD MLOAD PUSH2 0x1EF1 PUSH1 0x0 DUP6 ADD DUP3 PUSH2 0x1890 JUMP JUMPDEST POP PUSH1 0x20 DUP3 ADD MLOAD PUSH2 0x1F04 PUSH1 0x20 DUP6 ADD DUP3 PUSH2 0x1890 JUMP JUMPDEST POP PUSH1 0x40 DUP3 ADD MLOAD PUSH2 0x1F17 PUSH1 0x40 DUP6 ADD DUP3 PUSH2 0x1890 JUMP JUMPDEST POP PUSH1 0x60 DUP3 ADD MLOAD PUSH2 0x1F2A PUSH1 0x60 DUP6 ADD DUP3 PUSH2 0x1890 JUMP JUMPDEST POP PUSH1 0x80 DUP3 ADD MLOAD PUSH2 0x1F3D PUSH1 0x80 DUP6 ADD DUP3 PUSH2 0x1890 JUMP JUMPDEST POP POP POP POP JUMP JUMPDEST PUSH1 0x0 PUSH2 0x1F4F DUP4 DUP4 PUSH2 0x1EDB JUMP JUMPDEST PUSH1 0xA0 DUP4 ADD SWAP1 POP SWAP3 SWAP2 POP POP JUMP JUMPDEST PUSH1 0x0 PUSH1 0x20 DUP3 ADD SWAP1 POP SWAP2 SWAP1 POP JUMP JUMPDEST PUSH1 0x0 PUSH2 0x1F73 DUP3 PUSH2 0x1EAF JUMP JUMPDEST PUSH2 0x1F7D DUP2 DUP6 PUSH2 0x1EBA JUMP JUMPDEST SWAP4 POP PUSH2 0x1F88 DUP4 PUSH2 0x1ECB JUMP JUMPDEST DUP1 PUSH1 0x0 JUMPDEST DUP4 DUP2 LT ISZERO PUSH2 0x1FB9 JUMPI DUP2 MLOAD PUSH2 0x1FA0 DUP9 DUP3 PUSH2 0x1F43 JUMP JUMPDEST SWAP8 POP PUSH2 0x1FAB DUP4 PUSH2 0x1F5B JUMP JUMPDEST SWAP3 POP POP PUSH1 0x1 DUP2 ADD SWAP1 POP PUSH2 0x1F8C JUMP JUMPDEST POP DUP6 SWAP4 POP POP POP POP SWAP3 SWAP2 POP POP JUMP JUMPDEST PUSH1 0x0 PUSH1 0x20 DUP3 ADD SWAP1 POP DUP2 DUP2 SUB PUSH1 0x0 DUP4 ADD MSTORE PUSH2 0x1FE0 DUP2 DUP5 PUSH2 0x1F68 JUMP JUMPDEST SWAP1 POP SWAP3 SWAP2 POP POP JUMP JUMPDEST PUSH1 0x0 DUP1 PUSH1 0x0 DUP1 PUSH1 0x80 DUP6 DUP8 SUB SLT ISZERO PUSH2 0x2002 JUMPI PUSH2 0x2001 PUSH2 0x15D3 JUMP JUMPDEST JUMPDEST PUSH1 0x0 PUSH2 0x2010 DUP8 DUP3 DUP9 ADD PUSH2 0x15FE JUMP JUMPDEST SWAP5 POP POP PUSH1 0x20 PUSH2 0x2021 DUP8 DUP3 DUP9 ADD PUSH2 0x15FE JUMP JUMPDEST SWAP4 POP POP PUSH1 0x40 PUSH2 0x2032 DUP8 DUP3 DUP9 ADD PUSH2 0x15FE JUMP JUMPDEST SWAP3 POP POP PUSH1 0x60 PUSH2 0x2043 DUP8 DUP3 DUP9 ADD PUSH2 0x15FE JUMP JUMPDEST SWAP2 POP POP SWAP3 SWAP6 SWAP2 SWAP5 POP SWAP3 POP JUMP JUMPDEST PUSH1 0x3 DUP2 LT PUSH2 0x205C JUMPI PUSH1 0x0 DUP1 REVERT JUMPDEST POP JUMP JUMPDEST PUSH1 0x0 DUP2 CALLDATALOAD SWAP1 POP PUSH2 0x206E DUP2 PUSH2 0x204F JUMP JUMPDEST SWAP3 SWAP2 POP POP JUMP JUMPDEST PUSH1 0x0 DUP1 PUSH1 0x0 DUP1 PUSH1 0x0 PUSH1 0xA0 DUP7 DUP9 SUB SLT ISZERO PUSH2 0x2090 JUMPI PUSH2 0x208F PUSH2 0x15D3 JUMP JUMPDEST JUMPDEST PUSH1 0x0 PUSH2 0x209E DUP9 DUP3 DUP10 ADD PUSH2 0x15FE JUMP JUMPDEST SWAP6 POP POP PUSH1 0x20 PUSH2 0x20AF DUP9 DUP3 DUP10 ADD PUSH2 0x205F JUMP JUMPDEST SWAP5 POP POP PUSH1 0x40 PUSH2 0x20C0 DUP9 DUP3 DUP10 ADD PUSH2 0x15FE JUMP JUMPDEST SWAP4 POP POP PUSH1 0x60 PUSH2 0x20D1 DUP9 DUP3 DUP10 ADD PUSH2 0x15FE JUMP JUMPDEST SWAP3 POP POP PUSH1 0x80 PUSH2 0x20E2 DUP9 DUP3 DUP10 ADD PUSH2 0x15FE JUMP JUMPDEST SWAP2 POP POP SWAP3 SWAP6 POP SWAP3 SWAP6 SWAP1 SWAP4 POP JUMP JUMPDEST PUSH2 0x20F8 DUP2 PUSH2 0x1BD1 JUMP JUMPDEST DUP3 MSTORE POP POP JUMP JUMPDEST PUSH1 0x0 PUSH1 0x20 DUP3 ADD SWAP1 POP PUSH2 0x2113 PUSH1 0x0 DUP4 ADD DUP5 PUSH2 0x20EF JUMP JUMPDEST SWAP3 SWAP2 POP POP JUMP JUMPDEST PUSH1 0x0 PUSH1 0x20 DUP3 DUP5 SUB SLT ISZERO PUSH2 0x212F JUMPI PUSH2 0x212E PUSH2 0x15D3 JUMP JUMPDEST JUMPDEST PUSH1 0x0 PUSH2 0x213D DUP5 DUP3 DUP6 ADD PUSH2 0x15FE JUMP JUMPDEST SWAP2 POP POP SWAP3 SWAP2 POP POP JUMP JUMPDEST PUSH1 0x80 DUP3 ADD PUSH1 0x0 DUP3 ADD MLOAD PUSH2 0x215C PUSH1 0x0 DUP6 ADD DUP3 PUSH2 0x1890 JUMP JUMPDEST POP PUSH1 0x20 DUP3 ADD MLOAD PUSH2 0x216F PUSH1 0x20 DUP6 ADD DUP3 PUSH2 0x1BE3 JUMP JUMPDEST POP PUSH1 0x40 DUP3 ADD MLOAD PUSH2 0x2182 PUSH1 0x40 DUP6 ADD DUP3 PUSH2 0x1C5A JUMP JUMPDEST POP PUSH1 0x60 DUP3 ADD MLOAD PUSH2 0x2195 PUSH1 0x60 DUP6 ADD DUP3 PUSH2 0x1890 JUMP JUMPDEST POP POP POP POP JUMP JUMPDEST PUSH1 0x0 PUSH1 0x80 DUP3 ADD SWAP1 POP PUSH2 0x21B0 PUSH1 0x0 DUP4 ADD DUP5 PUSH2 0x2146 JUMP JUMPDEST SWAP3 SWAP2 POP POP JUMP JUMPDEST PUSH1 0x0 DUP2 MLOAD SWAP1 POP SWAP2 SWAP1 POP JUMP JUMPDEST PUSH1 0x0 DUP3 DUP3 MSTORE PUSH1 0x20 DUP3 ADD SWAP1 POP SWAP3 SWAP2 POP POP JUMP JUMPDEST PUSH1 0x0 DUP2 SWAP1 POP PUSH1 0x20 DUP3 ADD SWAP1 POP SWAP2 SWAP1 POP JUMP JUMPDEST PUSH1 0x0 DUP2 MLOAD SWAP1 POP SWAP2 SWAP1 POP JUMP JUMPDEST PUSH1 0x0 DUP3 DUP3 MSTORE PUSH1 0x20 DUP3 ADD SWAP1 POP SWAP3 SWAP2 POP POP JUMP JUMPDEST PUSH1 0x0 DUP2 SWAP1 POP PUSH1 0x20 DUP3 ADD SWAP1 POP SWAP2 SWAP1 POP JUMP JUMPDEST PUSH1 0x0 PUSH2 0x221A DUP4 DUP4 PUSH2 0x1890 JUMP JUMPDEST PUSH1 0x20 DUP4 ADD SWAP1 POP SWAP3 SWAP2 POP POP JUMP JUMPDEST PUSH1 0x0 PUSH1 0x20 DUP3 ADD SWAP1 POP SWAP2 SWAP1 POP JUMP JUMPDEST PUSH1 0x0 PUSH2 0x223E DUP3 PUSH2 0x21E2 JUMP JUMPDEST PUSH2 0x2248 DUP2 DUP6 PUSH2 0x21ED JUMP JUMPDEST SWAP4 POP PUSH2 0x2253 DUP4 PUSH2 0x21FE JUMP JUMPDEST DUP1 PUSH1 0x0 JUMPDEST DUP4 DUP2 LT ISZERO PUSH2 0x2284 JUMPI DUP2 MLOAD PUSH2 0x226B DUP9 DUP3 PUSH2 0x220E JUMP JUMPDEST SWAP8 POP PUSH2 0x2276 DUP4 PUSH2 0x2226 JUMP JUMPDEST SWAP3 POP POP PUSH1 0x1 DUP2 ADD SWAP1 POP PUSH2 0x2257 JUMP JUMPDEST POP DUP6 SWAP4 POP POP POP POP SWAP3 SWAP2 POP POP JUMP JUMPDEST PUSH1 0x0 PUSH1 0x80 DUP4 ADD PUSH1 0x0 DUP4 ADD MLOAD PUSH2 0x22A9 PUSH1 0x0 DUP7 ADD DUP3 PUSH2 0x1890 JUMP JUMPDEST POP PUSH1 0x20 DUP4 ADD MLOAD PUSH2 0x22BC PUSH1 0x20 DUP7 ADD DUP3 PUSH2 0x1890 JUMP JUMPDEST POP PUSH1 0x40 DUP4 ADD MLOAD PUSH2 0x22CF PUSH1 0x40 DUP7 ADD DUP3 PUSH2 0x1890 JUMP JUMPDEST POP PUSH1 0x60 DUP4 ADD MLOAD DUP5 DUP3 SUB PUSH1 0x60 DUP7 ADD MSTORE PUSH2 0x22E7 DUP3 DUP3 PUSH2 0x2233 JUMP JUMPDEST SWAP2 POP POP DUP1 SWAP2 POP POP SWAP3 SWAP2 POP POP JUMP JUMPDEST PUSH1 0x0 PUSH2 0x2300 DUP4 DUP4 PUSH2 0x2291 JUMP JUMPDEST SWAP1 POP SWAP3 SWAP2 POP POP JUMP JUMPDEST PUSH1 0x0 PUSH1 0x20 DUP3 ADD SWAP1 POP SWAP2 SWAP1 POP JUMP JUMPDEST PUSH1 0x0 PUSH2 0x2320 DUP3 PUSH2 0x21B6 JUMP JUMPDEST PUSH2 0x232A DUP2 DUP6 PUSH2 0x21C1 JUMP JUMPDEST SWAP4 POP DUP4 PUSH1 0x20 DUP3 MUL DUP6 ADD PUSH2 0x233C DUP6 PUSH2 0x21D2 JUMP JUMPDEST DUP1 PUSH1 0x0 JUMPDEST DUP6 DUP2 LT ISZERO PUSH2 0x2378 JUMPI DUP5 DUP5 SUB DUP10 MSTORE DUP2 MLOAD PUSH2 0x2359 DUP6 DUP3 PUSH2 0x22F4 JUMP JUMPDEST SWAP5 POP PUSH2 0x2364 DUP4 PUSH2 0x2308 JUMP JUMPDEST SWAP3 POP PUSH1 0x20 DUP11 ADD SWAP10 POP POP PUSH1 0x1 DUP2 ADD SWAP1 POP PUSH2 0x2340 JUMP JUMPDEST POP DUP3 SWAP8 POP DUP8 SWAP6 POP POP POP POP POP POP SWAP3 SWAP2 POP POP JUMP JUMPDEST PUSH1 0x0 PUSH1 0x20 DUP3 ADD SWAP1 POP DUP2 DUP2 SUB PUSH1 0x0 DUP4 ADD MSTORE PUSH2 0x23A4 DUP2 DUP5 PUSH2 0x2315 JUMP JUMPDEST SWAP1 POP SWAP3 SWAP2 POP POP JUMP JUMPDEST PUSH1 0x0 DUP2 MLOAD SWAP1 POP SWAP2 SWAP1 POP JUMP JUMPDEST PUSH1 0x0 DUP3 DUP3 MSTORE PUSH1 0x20 DUP3 ADD SWAP1 POP SWAP3 SWAP2 POP POP JUMP JUMPDEST PUSH1 0x0 DUP2 SWAP1 POP PUSH1 0x20 DUP3 ADD SWAP1 POP SWAP2 SWAP1 POP JUMP JUMPDEST PUSH1 0x3 DUP2 LT PUSH2 0x23E9 JUMPI PUSH2 0x23E8 PUSH2 0x1BF2 JUMP JUMPDEST JUMPDEST POP JUMP JUMPDEST PUSH1 0x0 DUP2 SWAP1 POP PUSH2 0x23FA DUP3 PUSH2 0x23D8 JUMP JUMPDEST SWAP2 SWAP1 POP JUMP JUMPDEST PUSH1 0x0 PUSH2 0x240A DUP3 PUSH2 0x23EC JUMP JUMPDEST SWAP1 POP SWAP2 SWAP1 POP JUMP JUMPDEST PUSH2 0x241A DUP2 PUSH2 0x23FF JUMP JUMPDEST DUP3 MSTORE POP POP JUMP JUMPDEST PUSH1 0xC0 DUP3 ADD PUSH1 0x0 DUP3 ADD MLOAD PUSH2 0x2436 PUSH1 0x0 DUP6 ADD DUP3 PUSH2 0x1890 JUMP JUMPDEST POP PUSH1 0x20 DUP3 ADD MLOAD PUSH2 0x2449 PUSH1 0x20 DUP6 ADD DUP3 PUSH2 0x1890 JUMP JUMPDEST POP PUSH1 0x40 DUP3 ADD MLOAD PUSH2 0x245C PUSH1 0x40 DUP6 ADD DUP3 PUSH2 0x2411 JUMP JUMPDEST POP PUSH1 0x60 DUP3 ADD MLOAD PUSH2 0x246F PUSH1 0x60 DUP6 ADD DUP3 PUSH2 0x1890 JUMP JUMPDEST POP PUSH1 0x80 DUP3 ADD MLOAD PUSH2 0x2482 PUSH1 0x80 DUP6 ADD DUP3 PUSH2 0x1890 JUMP JUMPDEST POP PUSH1 0xA0 DUP3 ADD MLOAD PUSH2 0x2495 PUSH1 0xA0 DUP6 ADD DUP3 PUSH2 0x1890 JUMP JUMPDEST POP POP POP POP JUMP JUMPDEST PUSH1 0x0 PUSH2 0x24A7 DUP4 DUP4 PUSH2 0x2420 JUMP JUMPDEST PUSH1 0xC0 DUP4 ADD SWAP1 POP SWAP3 SWAP2 POP POP JUMP JUMPDEST PUSH1 0x0 PUSH1 0x20 DUP3 ADD SWAP1 POP SWAP2 SWAP1 POP JUMP JUMPDEST PUSH1 0x0 PUSH2 0x24CB DUP3 PUSH2 0x23AC JUMP JUMPDEST PUSH2 0x24D5 DUP2 DUP6 PUSH2 0x23B7 JUMP JUMPDEST SWAP4 POP PUSH2 0x24E0 DUP4 PUSH2 0x23C8 JUMP JUMPDEST DUP1 PUSH1 0x0 JUMPDEST DUP4 DUP2 LT ISZERO PUSH2 0x2511 JUMPI DUP2 MLOAD PUSH2 0x24F8 DUP9 DUP3 PUSH2 0x249B JUMP JUMPDEST SWAP8 POP PUSH2 0x2503 DUP4 PUSH2 0x24B3 JUMP JUMPDEST SWAP3 POP POP PUSH1 0x1 DUP2 ADD SWAP1 POP PUSH2 0x24E4 JUMP JUMPDEST POP DUP6 SWAP4 POP POP POP POP SWAP3 SWAP2 POP POP JUMP JUMPDEST PUSH1 0x0 PUSH1 0x20 DUP3 ADD SWAP1 POP DUP2 DUP2 SUB PUSH1 0x0 DUP4 ADD MSTORE PUSH2 0x2538 DUP2 DUP5 PUSH2 0x24C0 JUMP JUMPDEST SWAP1 POP SWAP3 SWAP2 POP POP JUMP JUMPDEST PUSH2 0x2549 DUP2 PUSH2 0x1BD1 JUMP JUMPDEST DUP2 EQ PUSH2 0x2554 JUMPI PUSH1 0x0 DUP1 REVERT JUMPDEST POP JUMP JUMPDEST PUSH1 0x0 DUP2 CALLDATALOAD SWAP1 POP PUSH2 0x2566 DUP2 PUSH2 0x2540 JUMP JUMPDEST SWAP3 SWAP2 POP POP JUMP JUMPDEST PUSH1 0x0 PUSH1 0x20 DUP3 DUP5 SUB SLT ISZERO PUSH2 0x2582 JUMPI PUSH2 0x2581 PUSH2 0x15D3 JUMP JUMPDEST JUMPDEST PUSH1 0x0 PUSH2 0x2590 DUP5 DUP3 DUP6 ADD PUSH2 0x2557 JUMP JUMPDEST SWAP2 POP POP SWAP3 SWAP2 POP POP JUMP JUMPDEST PUSH1 0x0 DUP2 SWAP1 POP SWAP2 SWAP1 POP JUMP JUMPDEST PUSH1 0x0 PUSH2 0x25BE PUSH2 0x25B9 PUSH2 0x25B4 DUP5 PUSH2 0x1BB1 JUMP JUMPDEST PUSH2 0x2599 JUMP JUMPDEST PUSH2 0x1BB1 JUMP JUMPDEST SWAP1 POP SWAP2 SWAP1 POP JUMP JUMPDEST PUSH1 0x0 PUSH2 0x25D0 DUP3 PUSH2 0x25A3 JUMP JUMPDEST SWAP1 POP SWAP2 SWAP1 POP JUMP JUMPDEST PUSH1 0x0 PUSH2 0x25E2 DUP3 PUSH2 0x25C5 JUMP JUMPDEST SWAP1 POP SWAP2 SWAP1 POP JUMP JUMPDEST PUSH2 0x25F2 DUP2 PUSH2 0x25D7 JUMP JUMPDEST DUP3 MSTORE POP POP JUMP JUMPDEST PUSH1 0x0 PUSH1 0x20 DUP3 ADD SWAP1 POP PUSH2 0x260D PUSH1 0x0 DUP4 ADD DUP5 PUSH2 0x25E9 JUMP JUMPDEST SWAP3 SWAP2 POP POP JUMP JUMPDEST PUSH1 0x0 DUP3 DUP3 MSTORE PUSH1 0x20 DUP3 ADD SWAP1 POP SWAP3 SWAP2 POP POP JUMP JUMPDEST PUSH32 0x4661726D65724461746162617365437572736F723A206F6E6C79496E73706563 PUSH1 0x0 DUP3 ADD MSTORE PUSH32 0x746F720000000000000000000000000000000000000000000000000000000000 PUSH1 0x20 DUP3 ADD MSTORE POP JUMP JUMPDEST PUSH1 0x0 PUSH2 0x2680 PUSH1 0x23 DUP4 PUSH2 0x2613 JUMP JUMPDEST SWAP2 POP PUSH2 0x268B DUP3 PUSH2 0x2624 JUMP JUMPDEST PUSH1 0x40 DUP3 ADD SWAP1 POP SWAP2 SWAP1 POP JUMP JUMPDEST PUSH1 0x0 PUSH1 0x20 DUP3 ADD SWAP1 POP DUP2 DUP2 SUB PUSH1 0x0 DUP4 ADD MSTORE PUSH2 0x26AF DUP2 PUSH2 0x2673 JUMP JUMPDEST SWAP1 POP SWAP2 SWAP1 POP JUMP JUMPDEST PUSH1 0x80 DUP3 ADD PUSH1 0x0 DUP3 ADD MLOAD PUSH2 0x26CC PUSH1 0x0 DUP6 ADD DUP3 PUSH2 0x1890 JUMP JUMPDEST POP PUSH1 0x20 DUP3 ADD MLOAD PUSH2 0x26DF PUSH1 0x20 DUP6 ADD DUP3 PUSH2 0x1890 JUMP JUMPDEST POP PUSH1 0x40 DUP3 ADD MLOAD PUSH2 0x26F2 PUSH1 0x40 DUP6 ADD DUP3 PUSH2 0x1890 JUMP JUMPDEST POP PUSH1 0x60 DUP3 ADD MLOAD PUSH2 0x2705 PUSH1 0x60 DUP6 ADD DUP3 PUSH2 0x1890 JUMP JUMPDEST POP POP POP POP JUMP JUMPDEST PUSH1 0x0 DUP2 SWAP1 POP SWAP2 SWAP1 POP JUMP JUMPDEST PUSH2 0x271E DUP2 PUSH2 0x270B JUMP JUMPDEST DUP3 MSTORE POP POP JUMP JUMPDEST PUSH1 0x0 PUSH1 0xA0 DUP3 ADD SWAP1 POP PUSH2 0x2739 PUSH1 0x0 DUP4 ADD DUP6 PUSH2 0x26B6 JUMP JUMPDEST PUSH2 0x2746 PUSH1 0x80 DUP4 ADD DUP5 PUSH2 0x2715 JUMP JUMPDEST SWAP4 SWAP3 POP POP POP JUMP JUMPDEST PUSH2 0x2756 DUP2 PUSH2 0x1666 JUMP JUMPDEST DUP2 EQ PUSH2 0x2761 JUMPI PUSH1 0x0 DUP1 REVERT JUMPDEST POP JUMP JUMPDEST PUSH1 0x0 DUP2 MLOAD SWAP1 POP PUSH2 0x2773 DUP2 PUSH2 0x274D JUMP JUMPDEST SWAP3 SWAP2 POP POP JUMP JUMPDEST PUSH1 0x0 PUSH1 0x20 DUP3 DUP5 SUB SLT ISZERO PUSH2 0x278F JUMPI PUSH2 0x278E PUSH2 0x15D3 JUMP JUMPDEST JUMPDEST PUSH1 0x0 PUSH2 0x279D DUP5 DUP3 DUP6 ADD PUSH2 0x2764 JUMP JUMPDEST SWAP2 POP POP SWAP3 SWAP2 POP POP JUMP JUMPDEST PUSH1 0x0 PUSH1 0x80 DUP4 ADD PUSH1 0x0 DUP4 ADD MLOAD PUSH2 0x27BE PUSH1 0x0 DUP7 ADD DUP3 PUSH2 0x1890 JUMP JUMPDEST POP PUSH1 0x20 DUP4 ADD MLOAD PUSH2 0x27D1 PUSH1 0x20 DUP7 ADD DUP3 PUSH2 0x1890 JUMP JUMPDEST POP PUSH1 0x40 DUP4 ADD MLOAD PUSH2 0x27E4 PUSH1 0x40 DUP7 ADD DUP3 PUSH2 0x1890 JUMP JUMPDEST POP PUSH1 0x60 DUP4 ADD MLOAD DUP5 DUP3 SUB PUSH1 0x60 DUP7 ADD MSTORE PUSH2 0x27FC DUP3 DUP3 PUSH2 0x2233 JUMP JUMPDEST SWAP2 POP POP DUP1 SWAP2 POP POP SWAP3 SWAP2 POP POP JUMP JUMPDEST PUSH1 0x0 PUSH1 0x40 DUP3 ADD SWAP1 POP DUP2 DUP2 SUB PUSH1 0x0 DUP4 ADD MSTORE PUSH2 0x2823 DUP2 DUP6 PUSH2 0x27A6 JUMP JUMPDEST SWAP1 POP PUSH2 0x2832 PUSH1 0x20 DUP4 ADD DUP5 PUSH2 0x2715 JUMP JUMPDEST SWAP4 SWAP3 POP POP POP JUMP JUMPDEST PUSH1 0x0 PUSH1 0x20 DUP3 ADD SWAP1 POP PUSH2 0x284E PUSH1 0x0 DUP4 ADD DUP5 PUSH2 0x2715 JUMP JUMPDEST SWAP3 SWAP2 POP POP JUMP JUMPDEST PUSH1 0x0 PUSH8 0xFFFFFFFFFFFFFFFF DUP3 GT ISZERO PUSH2 0x286F JUMPI PUSH2 0x286E PUSH2 0x16B2 JUMP JUMPDEST JUMPDEST PUSH1 0x20 DUP3 MUL SWAP1 POP PUSH1 0x20 DUP2 ADD SWAP1 POP SWAP2 SWAP1 POP JUMP JUMPDEST PUSH1 0x0 DUP1 REVERT JUMPDEST PUSH1 0x0 DUP1 REVERT JUMPDEST PUSH1 0x0 DUP2 MLOAD SWAP1 POP PUSH2 0x2899 DUP2 PUSH2 0x15E7 JUMP JUMPDEST SWAP3 SWAP2 POP POP JUMP JUMPDEST PUSH1 0x0 PUSH2 0x28B2 PUSH2 0x28AD DUP5 PUSH2 0x1D68 JUMP JUMPDEST PUSH2 0x1712 JUMP JUMPDEST SWAP1 POP DUP3 DUP2 MSTORE PUSH1 0x20 DUP2 ADD DUP5 DUP5 DUP5 ADD GT ISZERO PUSH2 0x28CE JUMPI PUSH2 0x28CD PUSH2 0x1D63 JUMP JUMPDEST JUMPDEST PUSH2 0x28D9 DUP5 DUP3 DUP6 PUSH2 0x18BB JUMP JUMPDEST POP SWAP4 SWAP3 POP POP POP JUMP JUMPDEST PUSH1 0x0 DUP3 PUSH1 0x1F DUP4 ADD SLT PUSH2 0x28F6 JUMPI PUSH2 0x28F5 PUSH2 0x169C JUMP JUMPDEST JUMPDEST DUP2 MLOAD PUSH2 0x2906 DUP5 DUP3 PUSH1 0x20 DUP7 ADD PUSH2 0x289F JUMP JUMPDEST SWAP2 POP POP SWAP3 SWAP2 POP POP JUMP JUMPDEST PUSH1 0x0 PUSH1 0xC0 DUP3 DUP5 SUB SLT ISZERO PUSH2 0x2925 JUMPI PUSH2 0x2924 PUSH2 0x2880 JUMP JUMPDEST JUMPDEST PUSH2 0x292F PUSH1 0xC0 PUSH2 0x1712 JUMP JUMPDEST SWAP1 POP PUSH1 0x0 PUSH2 0x293F DUP5 DUP3 DUP6 ADD PUSH2 0x288A JUMP JUMPDEST PUSH1 0x0 DUP4 ADD MSTORE POP PUSH1 0x20 PUSH2 0x2953 DUP5 DUP3 DUP6 ADD PUSH2 0x288A JUMP JUMPDEST PUSH1 0x20 DUP4 ADD MSTORE POP PUSH1 0x40 DUP3 ADD MLOAD PUSH8 0xFFFFFFFFFFFFFFFF DUP2 GT ISZERO PUSH2 0x2977 JUMPI PUSH2 0x2976 PUSH2 0x2885 JUMP JUMPDEST JUMPDEST PUSH2 0x2983 DUP5 DUP3 DUP6 ADD PUSH2 0x28E1 JUMP JUMPDEST PUSH1 0x40 DUP4 ADD MSTORE POP PUSH1 0x60 PUSH2 0x2997 DUP5 DUP3 DUP6 ADD PUSH2 0x288A JUMP JUMPDEST PUSH1 0x60 DUP4 ADD MSTORE POP PUSH1 0x80 PUSH2 0x29AB DUP5 DUP3 DUP6 ADD PUSH2 0x288A JUMP JUMPDEST PUSH1 0x80 DUP4 ADD MSTORE POP PUSH1 0xA0 PUSH2 0x29BF DUP5 DUP3 DUP6 ADD PUSH2 0x288A JUMP JUMPDEST PUSH1 0xA0 DUP4 ADD MSTORE POP SWAP3 SWAP2 POP POP JUMP JUMPDEST PUSH1 0x0 PUSH2 0x29DE PUSH2 0x29D9 DUP5 PUSH2 0x2854 JUMP JUMPDEST PUSH2 0x1712 JUMP JUMPDEST SWAP1 POP DUP1 DUP4 DUP3 MSTORE PUSH1 0x20 DUP3 ADD SWAP1 POP PUSH1 0x20 DUP5 MUL DUP4 ADD DUP6 DUP2 GT ISZERO PUSH2 0x2A01 JUMPI PUSH2 0x2A00 PUSH2 0x1759 JUMP JUMPDEST JUMPDEST DUP4 JUMPDEST DUP2 DUP2 LT ISZERO PUSH2 0x2A48 JUMPI DUP1 MLOAD PUSH8 0xFFFFFFFFFFFFFFFF DUP2 GT ISZERO PUSH2 0x2A26 JUMPI PUSH2 0x2A25 PUSH2 0x169C JUMP JUMPDEST JUMPDEST DUP1 DUP7 ADD PUSH2 0x2A33 DUP10 DUP3 PUSH2 0x290F JUMP JUMPDEST DUP6 MSTORE PUSH1 0x20 DUP6 ADD SWAP5 POP POP POP PUSH1 0x20 DUP2 ADD SWAP1 POP PUSH2 0x2A03 JUMP JUMPDEST POP POP POP SWAP4 SWAP3 POP POP POP JUMP JUMPDEST PUSH1 0x0 DUP3 PUSH1 0x1F DUP4 ADD SLT PUSH2 0x2A67 JUMPI PUSH2 0x2A66 PUSH2 0x169C JUMP JUMPDEST JUMPDEST DUP2 MLOAD PUSH2 0x2A77 DUP5 DUP3 PUSH1 0x20 DUP7 ADD PUSH2 0x29CB JUMP JUMPDEST SWAP2 POP POP SWAP3 SWAP2 POP POP JUMP JUMPDEST PUSH1 0x0 PUSH1 0x20 DUP3 DUP5 SUB SLT ISZERO PUSH2 0x2A96 JUMPI PUSH2 0x2A95 PUSH2 0x15D3 JUMP JUMPDEST JUMPDEST PUSH1 0x0 DUP3 ADD MLOAD PUSH8 0xFFFFFFFFFFFFFFFF DUP2 GT ISZERO PUSH2 0x2AB4 JUMPI PUSH2 0x2AB3 PUSH2 0x15D8 JUMP JUMPDEST JUMPDEST PUSH2 0x2AC0 DUP5 DUP3 DUP6 ADD PUSH2 0x2A52 JUMP JUMPDEST SWAP2 POP POP SWAP3 SWAP2 POP POP JUMP JUMPDEST PUSH1 0x0 PUSH8 0xFFFFFFFFFFFFFFFF DUP3 GT ISZERO PUSH2 0x2AE4 JUMPI PUSH2 0x2AE3 PUSH2 0x16B2 JUMP JUMPDEST JUMPDEST PUSH1 0x20 DUP3 MUL SWAP1 POP PUSH1 0x20 DUP2 ADD SWAP1 POP SWAP2 SWAP1 POP JUMP JUMPDEST PUSH1 0x0 PUSH1 0x80 DUP3 DUP5 SUB SLT ISZERO PUSH2 0x2B0B JUMPI PUSH2 0x2B0A PUSH2 0x2880 JUMP JUMPDEST JUMPDEST PUSH2 0x2B15 PUSH1 0x80 PUSH2 0x1712 JUMP JUMPDEST SWAP1 POP PUSH1 0x0 PUSH2 0x2B25 DUP5 DUP3 DUP6 ADD PUSH2 0x288A JUMP JUMPDEST PUSH1 0x0 DUP4 ADD MSTORE POP PUSH1 0x20 PUSH2 0x2B39 DUP5 DUP3 DUP6 ADD PUSH2 0x288A JUMP JUMPDEST PUSH1 0x20 DUP4 ADD MSTORE POP PUSH1 0x40 PUSH2 0x2B4D DUP5 DUP3 DUP6 ADD PUSH2 0x288A JUMP JUMPDEST PUSH1 0x40 DUP4 ADD MSTORE POP PUSH1 0x60 PUSH2 0x2B61 DUP5 DUP3 DUP6 ADD PUSH2 0x288A JUMP JUMPDEST PUSH1 0x60 DUP4 ADD MSTORE POP SWAP3 SWAP2 POP POP JUMP JUMPDEST PUSH1 0x0 PUSH2 0x2B80 PUSH2 0x2B7B DUP5 PUSH2 0x2AC9 JUMP JUMPDEST PUSH2 0x1712 JUMP JUMPDEST SWAP1 POP DUP1 DUP4 DUP3 MSTORE PUSH1 0x20 DUP3 ADD SWAP1 POP PUSH1 0x80 DUP5 MUL DUP4 ADD DUP6 DUP2 GT ISZERO PUSH2 0x2BA3 JUMPI PUSH2 0x2BA2 PUSH2 0x1759 JUMP JUMPDEST JUMPDEST DUP4 JUMPDEST DUP2 DUP2 LT ISZERO PUSH2 0x2BCC JUMPI DUP1 PUSH2 0x2BB8 DUP9 DUP3 PUSH2 0x2AF5 JUMP JUMPDEST DUP5 MSTORE PUSH1 0x20 DUP5 ADD SWAP4 POP POP PUSH1 0x80 DUP2 ADD SWAP1 POP PUSH2 0x2BA5 JUMP JUMPDEST POP POP POP SWAP4 SWAP3 POP POP POP JUMP JUMPDEST PUSH1 0x0 DUP3 PUSH1 0x1F DUP4 ADD SLT PUSH2 0x2BEB JUMPI PUSH2 0x2BEA PUSH2 0x169C JUMP JUMPDEST JUMPDEST DUP2 MLOAD PUSH2 0x2BFB DUP5 DUP3 PUSH1 0x20 DUP7 ADD PUSH2 0x2B6D JUMP JUMPDEST SWAP2 POP POP SWAP3 SWAP2 POP POP JUMP JUMPDEST PUSH1 0x0 PUSH1 0x20 DUP3 DUP5 SUB SLT ISZERO PUSH2 0x2C1A JUMPI PUSH2 0x2C19 PUSH2 0x15D3 JUMP JUMPDEST JUMPDEST PUSH1 0x0 DUP3 ADD MLOAD PUSH8 0xFFFFFFFFFFFFFFFF DUP2 GT ISZERO PUSH2 0x2C38 JUMPI PUSH2 0x2C37 PUSH2 0x15D8 JUMP JUMPDEST JUMPDEST PUSH2 0x2C44 DUP5 DUP3 DUP6 ADD PUSH2 0x2BD6 JUMP JUMPDEST SWAP2 POP POP SWAP3 SWAP2 POP POP JUMP JUMPDEST PUSH1 0x0 PUSH8 0xFFFFFFFFFFFFFFFF DUP3 GT ISZERO PUSH2 0x2C68 JUMPI PUSH2 0x2C67 PUSH2 0x16B2 JUMP JUMPDEST JUMPDEST PUSH1 0x20 DUP3 MUL SWAP1 POP PUSH1 0x20 DUP2 ADD SWAP1 POP SWAP2 SWAP1 POP JUMP JUMPDEST PUSH1 0x0 DUP2 MLOAD SWAP1 POP PUSH2 0x2C88 DUP2 PUSH2 0x2540 JUMP JUMPDEST SWAP3 SWAP2 POP POP JUMP JUMPDEST PUSH1 0x3 DUP2 LT PUSH2 0x2C9B JUMPI PUSH1 0x0 DUP1 REVERT JUMPDEST POP JUMP JUMPDEST PUSH1 0x0 DUP2 MLOAD SWAP1 POP PUSH2 0x2CAD DUP2 PUSH2 0x2C8E JUMP JUMPDEST SWAP3 SWAP2 POP POP JUMP JUMPDEST PUSH1 0x0 PUSH1 0x80 DUP3 DUP5 SUB SLT ISZERO PUSH2 0x2CC9 JUMPI PUSH2 0x2CC8 PUSH2 0x2880 JUMP JUMPDEST JUMPDEST PUSH2 0x2CD3 PUSH1 0x80 PUSH2 0x1712 JUMP JUMPDEST SWAP1 POP PUSH1 0x0 PUSH2 0x2CE3 DUP5 DUP3 DUP6 ADD PUSH2 0x288A JUMP JUMPDEST PUSH1 0x0 DUP4 ADD MSTORE POP PUSH1 0x20 PUSH2 0x2CF7 DUP5 DUP3 DUP6 ADD PUSH2 0x2C79 JUMP JUMPDEST PUSH1 0x20 DUP4 ADD MSTORE POP PUSH1 0x40 PUSH2 0x2D0B DUP5 DUP3 DUP6 ADD PUSH2 0x2C9E JUMP JUMPDEST PUSH1 0x40 DUP4 ADD MSTORE POP PUSH1 0x60 PUSH2 0x2D1F DUP5 DUP3 DUP6 ADD PUSH2 0x288A JUMP JUMPDEST PUSH1 0x60 DUP4 ADD MSTORE POP SWAP3 SWAP2 POP POP JUMP JUMPDEST PUSH1 0x0 PUSH2 0x2D3E PUSH2 0x2D39 DUP5 PUSH2 0x2C4D JUMP JUMPDEST PUSH2 0x1712 JUMP JUMPDEST SWAP1 POP DUP1 DUP4 DUP3 MSTORE PUSH1 0x20 DUP3 ADD SWAP1 POP PUSH1 0x80 DUP5 MUL DUP4 ADD DUP6 DUP2 GT ISZERO PUSH2 0x2D61 JUMPI PUSH2 0x2D60 PUSH2 0x1759 JUMP JUMPDEST JUMPDEST DUP4 JUMPDEST DUP2 DUP2 LT ISZERO PUSH2 0x2D8A JUMPI DUP1 PUSH2 0x2D76 DUP9 DUP3 PUSH2 0x2CB3 JUMP JUMPDEST DUP5 MSTORE PUSH1 0x20 DUP5 ADD SWAP4 POP POP PUSH1 0x80 DUP2 ADD SWAP1 POP PUSH2 0x2D63 JUMP JUMPDEST POP POP POP SWAP4 SWAP3 POP POP POP JUMP JUMPDEST PUSH1 0x0 DUP3 PUSH1 0x1F DUP4 ADD SLT PUSH2 0x2DA9 JUMPI PUSH2 0x2DA8 PUSH2 0x169C JUMP JUMPDEST JUMPDEST DUP2 MLOAD PUSH2 0x2DB9 DUP5 DUP3 PUSH1 0x20 DUP7 ADD PUSH2 0x2D2B JUMP JUMPDEST SWAP2 POP POP SWAP3 SWAP2 POP POP JUMP JUMPDEST PUSH1 0x0 PUSH1 0x20 DUP3 DUP5 SUB SLT ISZERO PUSH2 0x2DD8 JUMPI PUSH2 0x2DD7 PUSH2 0x15D3 JUMP JUMPDEST JUMPDEST PUSH1 0x0 DUP3 ADD MLOAD PUSH8 0xFFFFFFFFFFFFFFFF DUP2 GT ISZERO PUSH2 0x2DF6 JUMPI PUSH2 0x2DF5 PUSH2 0x15D8 JUMP JUMPDEST JUMPDEST PUSH2 0x2E02 DUP5 DUP3 DUP6 ADD PUSH2 0x2D94 JUMP JUMPDEST SWAP2 POP POP SWAP3 SWAP2 POP POP JUMP JUMPDEST PUSH32 0x4E487B7100000000000000000000000000000000000000000000000000000000 PUSH1 0x0 MSTORE PUSH1 0x32 PUSH1 0x4 MSTORE PUSH1 0x24 PUSH1 0x0 REVERT JUMPDEST PUSH32 0x4E487B7100000000000000000000000000000000000000000000000000000000 PUSH1 0x0 MSTORE PUSH1 0x11 PUSH1 0x4 MSTORE PUSH1 0x24 PUSH1 0x0 REVERT JUMPDEST PUSH1 0x0 PUSH2 0x2E74 DUP3 PUSH2 0x15DD JUMP JUMPDEST SWAP2 POP PUSH32 0xFFFFFFFFFFFFFFFFFFFFFFFFFFFFFFFFFFFFFFFFFFFFFFFFFFFFFFFFFFFFFFFF DUP3 SUB PUSH2 0x2EA6 JUMPI PUSH2 0x2EA5 PUSH2 0x2E3A JUMP JUMPDEST JUMPDEST PUSH1 0x1 DUP3 ADD SWAP1 POP SWAP2 SWAP1 POP JUMP JUMPDEST PUSH1 0x0 PUSH1 0xC0 DUP4 ADD PUSH1 0x0 DUP4 ADD MLOAD PUSH2 0x2EC9 PUSH1 0x0 DUP7 ADD DUP3 PUSH2 0x1890 JUMP JUMPDEST POP PUSH1 0x20 DUP4 ADD MLOAD PUSH2 0x2EDC PUSH1 0x20 DUP7 ADD DUP3 PUSH2 0x1890 JUMP JUMPDEST POP PUSH1 0x40 DUP4 ADD MLOAD DUP5 DUP3 SUB PUSH1 0x40 DUP7 ADD MSTORE PUSH2 0x2EF4 DUP3 DUP3 PUSH2 0x18E5 JUMP JUMPDEST SWAP2 POP POP PUSH1 0x60 DUP4 ADD MLOAD PUSH2 0x2F09 PUSH1 0x60 DUP7 ADD DUP3 PUSH2 0x1890 JUMP JUMPDEST POP PUSH1 0x80 DUP4 ADD MLOAD PUSH2 0x2F1C PUSH1 0x80 DUP7 ADD DUP3 PUSH2 0x1890 JUMP JUMPDEST POP PUSH1 0xA0 DUP4 ADD MLOAD PUSH2 0x2F2F PUSH1 0xA0 DUP7 ADD DUP3 PUSH2 0x1890 JUMP JUMPDEST POP DUP1 SWAP2 POP POP SWAP3 SWAP2 POP POP JUMP JUMPDEST PUSH1 0x0 PUSH1 0x40 DUP3 ADD SWAP1 POP DUP2 DUP2 SUB PUSH1 0x0 DUP4 ADD MSTORE PUSH2 0x2F54 DUP2 DUP6 PUSH2 0x2EB1 JUMP JUMPDEST SWAP1 POP PUSH2 0x2F63 PUSH1 0x20 DUP4 ADD DUP5 PUSH2 0x2715 JUMP JUMPDEST SWAP4 SWAP3 POP POP POP JUMP JUMPDEST PUSH1 0x0 PUSH8 0xFFFFFFFFFFFFFFFF DUP3 GT ISZERO PUSH2 0x2F85 JUMPI PUSH2 0x2F84 PUSH2 0x16B2 JUMP JUMPDEST JUMPDEST PUSH1 0x20 DUP3 MUL SWAP1 POP PUSH1 0x20 DUP2 ADD SWAP1 POP SWAP2 SWAP1 POP JUMP JUMPDEST PUSH1 0x0 PUSH1 0xA0 DUP3 DUP5 SUB SLT ISZERO PUSH2 0x2FAC JUMPI PUSH2 0x2FAB PUSH2 0x2880 JUMP JUMPDEST JUMPDEST PUSH2 0x2FB6 PUSH1 0xA0 PUSH2 0x1712 JUMP JUMPDEST SWAP1 POP PUSH1 0x0 PUSH2 0x2FC6 DUP5 DUP3 DUP6 ADD PUSH2 0x288A JUMP JUMPDEST PUSH1 0x0 DUP4 ADD MSTORE POP PUSH1 0x20 PUSH2 0x2FDA DUP5 DUP3 DUP6 ADD PUSH2 0x288A JUMP JUMPDEST PUSH1 0x20 DUP4 ADD MSTORE POP PUSH1 0x40 PUSH2 0x2FEE DUP5 DUP3 DUP6 ADD PUSH2 0x288A JUMP JUMPDEST PUSH1 0x40 DUP4 ADD MSTORE POP PUSH1 0x60 PUSH2 0x3002 DUP5 DUP3 DUP6 ADD PUSH2 0x288A JUMP JUMPDEST PUSH1 0x60 DUP4 ADD MSTORE POP PUSH1 0x80 PUSH2 0x3016 DUP5 DUP3 DUP6 ADD PUSH2 0x288A JUMP JUMPDEST PUSH1 0x80 DUP4 ADD MSTORE POP SWAP3 SWAP2 POP POP JUMP JUMPDEST PUSH1 0x0 PUSH2 0x3035 PUSH2 0x3030 DUP5 PUSH2 0x2F6A JUMP JUMPDEST PUSH2 0x1712 JUMP JUMPDEST SWAP1 POP DUP1 DUP4 DUP3 MSTORE PUSH1 0x20 DUP3 ADD SWAP1 POP PUSH1 0xA0 DUP5 MUL DUP4 ADD DUP6 DUP2 GT ISZERO PUSH2 0x3058 JUMPI PUSH2 0x3057 PUSH2 0x1759 JUMP JUMPDEST JUMPDEST DUP4 JUMPDEST DUP2 DUP2 LT ISZERO PUSH2 0x3081 JUMPI DUP1 PUSH2 0x306D DUP9 DUP3 PUSH2 0x2F96 JUMP JUMPDEST DUP5 MSTORE PUSH1 0x20 DUP5 ADD SWAP4 POP POP PUSH1 0xA0 DUP2 ADD SWAP1 POP PUSH2 0x305A JUMP JUMPDEST POP POP POP SWAP4 SWAP3 POP POP POP JUMP JUMPDEST PUSH1 0x0 DUP3 PUSH1 0x1F DUP4 ADD SLT PUSH2 0x30A0 JUMPI PUSH2 0x309F PUSH2 0x169C JUMP JUMPDEST JUMPDEST DUP2 MLOAD PUSH2 0x30B0 DUP5 DUP3 PUSH1 0x20 DUP7 ADD PUSH2 0x3022 JUMP JUMPDEST SWAP2 POP POP SWAP3 SWAP2 POP POP JUMP JUMPDEST PUSH1 0x0 PUSH1 0x20 DUP3 DUP5 SUB SLT ISZERO PUSH2 0x30CF JUMPI PUSH2 0x30CE PUSH2 0x15D3 JUMP JUMPDEST JUMPDEST PUSH1 0x0 DUP3 ADD MLOAD PUSH8 0xFFFFFFFFFFFFFFFF DUP2 GT ISZERO PUSH2 0x30ED JUMPI PUSH2 0x30EC PUSH2 0x15D8 JUMP JUMPDEST JUMPDEST PUSH2 0x30F9 DUP5 DUP3 DUP6 ADD PUSH2 0x308B JUMP JUMPDEST SWAP2 POP POP SWAP3 SWAP2 POP POP JUMP JUMPDEST PUSH1 0xA0 DUP3 ADD PUSH1 0x0 DUP3 ADD MLOAD PUSH2 0x3118 PUSH1 0x0 DUP6 ADD DUP3 PUSH2 0x1890 JUMP JUMPDEST POP PUSH1 0x20 DUP3 ADD MLOAD PUSH2 0x312B PUSH1 0x20 DUP6 ADD DUP3 PUSH2 0x1890 JUMP JUMPDEST POP PUSH1 0x40 DUP3 ADD MLOAD PUSH2 0x313E PUSH1 0x40 DUP6 ADD DUP3 PUSH2 0x1890 JUMP JUMPDEST POP PUSH1 0x60 DUP3 ADD MLOAD PUSH2 0x3151 PUSH1 0x60 DUP6 ADD DUP3 PUSH2 0x1890 JUMP JUMPDEST POP PUSH1 0x80 DUP3 ADD MLOAD PUSH2 0x3164 PUSH1 0x80 DUP6 ADD DUP3 PUSH2 0x1890 JUMP JUMPDEST POP POP POP POP JUMP JUMPDEST PUSH1 0x0 PUSH1 0xC0 DUP3 ADD SWAP1 POP PUSH2 0x317F PUSH1 0x0 DUP4 ADD DUP6 PUSH2 0x3102 JUMP JUMPDEST PUSH2 0x318C PUSH1 0xA0 DUP4 ADD DUP5 PUSH2 0x2715 JUMP JUMPDEST SWAP4 SWAP3 POP POP POP JUMP JUMPDEST PUSH1 0xC0 DUP3 ADD PUSH1 0x0 DUP3 ADD MLOAD PUSH2 0x31A9 PUSH1 0x0 DUP6 ADD DUP3 PUSH2 0x1890 JUMP JUMPDEST POP PUSH1 0x20 DUP3 ADD MLOAD PUSH2 0x31BC PUSH1 0x20 DUP6 ADD DUP3 PUSH2 0x1890 JUMP JUMPDEST POP PUSH1 0x40 DUP3 ADD MLOAD PUSH2 0x31CF PUSH1 0x40 DUP6 ADD DUP3 PUSH2 0x2411 JUMP JUMPDEST POP PUSH1 0x60 DUP3 ADD MLOAD PUSH2 0x31E2 PUSH1 0x60 DUP6 ADD DUP3 PUSH2 0x1890 JUMP JUMPDEST POP PUSH1 0x80 DUP3 ADD MLOAD PUSH2 0x31F5 PUSH1 0x80 DUP6 ADD DUP3 PUSH2 0x1890 JUMP JUMPDEST POP PUSH1 0xA0 DUP3 ADD MLOAD PUSH2 0x3208 PUSH1 0xA0 DUP6 ADD DUP3 PUSH2 0x1890 JUMP JUMPDEST POP POP POP POP JUMP JUMPDEST PUSH1 0x0 PUSH1 0xE0 DUP3 ADD SWAP1 POP PUSH2 0x3223 PUSH1 0x0 DUP4 ADD DUP6 PUSH2 0x3193 JUMP JUMPDEST PUSH2 0x3230 PUSH1 0xC0 DUP4 ADD DUP5 PUSH2 0x2715 JUMP JUMPDEST SWAP4 SWAP3 POP POP POP JUMP JUMPDEST PUSH1 0x0 PUSH1 0xA0 DUP3 ADD SWAP1 POP PUSH2 0x324C PUSH1 0x0 DUP4 ADD DUP6 PUSH2 0x2146 JUMP JUMPDEST PUSH2 0x3259 PUSH1 0x80 DUP4 ADD DUP5 PUSH2 0x2715 JUMP JUMPDEST SWAP4 SWAP3 POP POP POP JUMP JUMPDEST PUSH1 0x0 PUSH8 0xFFFFFFFFFFFFFFFF DUP3 GT ISZERO PUSH2 0x327B JUMPI PUSH2 0x327A PUSH2 0x16B2 JUMP JUMPDEST JUMPDEST PUSH1 0x20 DUP3 MUL SWAP1 POP PUSH1 0x20 DUP2 ADD SWAP1 POP SWAP2 SWAP1 POP JUMP JUMPDEST PUSH1 0x0 PUSH2 0x329F PUSH2 0x329A DUP5 PUSH2 0x172D JUMP JUMPDEST PUSH2 0x1712 JUMP JUMPDEST SWAP1 POP DUP1 DUP4 DUP3 MSTORE PUSH1 0x20 DUP3 ADD SWAP1 POP PUSH1 0x20 DUP5 MUL DUP4 ADD DUP6 DUP2 GT ISZERO PUSH2 0x32C2 JUMPI PUSH2 0x32C1 PUSH2 0x1759 JUMP JUMPDEST JUMPDEST DUP4 JUMPDEST DUP2 DUP2 LT ISZERO PUSH2 0x32EB JUMPI DUP1 PUSH2 0x32D7 DUP9 DUP3 PUSH2 0x288A JUMP JUMPDEST DUP5 MSTORE PUSH1 0x20 DUP5 ADD SWAP4 POP POP PUSH1 0x20 DUP2 ADD SWAP1 POP PUSH2 0x32C4 JUMP JUMPDEST POP POP POP SWAP4 SWAP3 POP POP POP JUMP JUMPDEST PUSH1 0x0 DUP3 PUSH1 0x1F DUP4 ADD SLT PUSH2 0x330A JUMPI PUSH2 0x3309 PUSH2 0x169C JUMP JUMPDEST JUMPDEST DUP2 MLOAD PUSH2 0x331A DUP5 DUP3 PUSH1 0x20 DUP7 ADD PUSH2 0x328C JUMP JUMPDEST SWAP2 POP POP SWAP3 SWAP2 POP POP JUMP JUMPDEST PUSH1 0x0 PUSH1 0x80 DUP3 DUP5 SUB SLT ISZERO PUSH2 0x3339 JUMPI PUSH2 0x3338 PUSH2 0x2880 JUMP JUMPDEST JUMPDEST PUSH2 0x3343 PUSH1 0x80 PUSH2 0x1712 JUMP JUMPDEST SWAP1 POP PUSH1 0x0 PUSH2 0x3353 DUP5 DUP3 DUP6 ADD PUSH2 0x288A JUMP JUMPDEST PUSH1 0x0 DUP4 ADD MSTORE POP PUSH1 0x20 PUSH2 0x3367 DUP5 DUP3 DUP6 ADD PUSH2 0x288A JUMP JUMPDEST PUSH1 0x20 DUP4 ADD MSTORE POP PUSH1 0x40 PUSH2 0x337B DUP5 DUP3 DUP6 ADD PUSH2 0x288A JUMP JUMPDEST PUSH1 0x40 DUP4 ADD MSTORE POP PUSH1 0x60 DUP3 ADD MLOAD PUSH8 0xFFFFFFFFFFFFFFFF DUP2 GT ISZERO PUSH2 0x339F JUMPI PUSH2 0x339E PUSH2 0x2885 JUMP JUMPDEST JUMPDEST PUSH2 0x33AB DUP5 DUP3 DUP6 ADD PUSH2 0x32F5 JUMP JUMPDEST PUSH1 0x60 DUP4 ADD MSTORE POP SWAP3 SWAP2 POP POP JUMP JUMPDEST PUSH1 0x0 PUSH2 0x33CA PUSH2 0x33C5 DUP5 PUSH2 0x3260 JUMP JUMPDEST PUSH2 0x1712 JUMP JUMPDEST SWAP1 POP DUP1 DUP4 DUP3 MSTORE PUSH1 0x20 DUP3 ADD SWAP1 POP PUSH1 0x20 DUP5 MUL DUP4 ADD DUP6 DUP2 GT ISZERO PUSH2 0x33ED JUMPI PUSH2 0x33EC PUSH2 0x1759 JUMP JUMPDEST JUMPDEST DUP4 JUMPDEST DUP2 DUP2 LT ISZERO PUSH2 0x3434 JUMPI DUP1 MLOAD PUSH8 0xFFFFFFFFFFFFFFFF DUP2 GT ISZERO PUSH2 0x3412 JUMPI PUSH2 0x3411 PUSH2 0x169C JUMP JUMPDEST JUMPDEST DUP1 DUP7 ADD PUSH2 0x341F DUP10 DUP3 PUSH2 0x3323 JUMP JUMPDEST DUP6 MSTORE PUSH1 0x20 DUP6 ADD SWAP5 POP POP POP PUSH1 0x20 DUP2 ADD SWAP1 POP PUSH2 0x33EF JUMP JUMPDEST POP POP POP SWAP4 SWAP3 POP POP POP JUMP JUMPDEST PUSH1 0x0 DUP3 PUSH1 0x1F DUP4 ADD SLT PUSH2 0x3453 JUMPI PUSH2 0x3452 PUSH2 0x169C JUMP JUMPDEST JUMPDEST DUP2 MLOAD PUSH2 0x3463 DUP5 DUP3 PUSH1 0x20 DUP7 ADD PUSH2 0x33B7 JUMP JUMPDEST SWAP2 POP POP SWAP3 SWAP2 POP POP JUMP JUMPDEST PUSH1 0x0 PUSH1 0x20 DUP3 DUP5 SUB SLT ISZERO PUSH2 0x3482 JUMPI PUSH2 0x3481 PUSH2 0x15D3 JUMP JUMPDEST JUMPDEST PUSH1 0x0 DUP3 ADD MLOAD PUSH8 0xFFFFFFFFFFFFFFFF DUP2 GT ISZERO PUSH2 0x34A0 JUMPI PUSH2 0x349F PUSH2 0x15D8 JUMP JUMPDEST JUMPDEST PUSH2 0x34AC DUP5 DUP3 DUP6 ADD PUSH2 0x343E JUMP JUMPDEST SWAP2 POP POP SWAP3 SWAP2 POP POP JUMP JUMPDEST PUSH1 0x0 PUSH8 0xFFFFFFFFFFFFFFFF DUP3 GT ISZERO PUSH2 0x34D0 JUMPI PUSH2 0x34CF PUSH2 0x16B2 JUMP JUMPDEST JUMPDEST PUSH1 0x20 DUP3 MUL SWAP1 POP PUSH1 0x20 DUP2 ADD SWAP1 POP SWAP2 SWAP1 POP JUMP JUMPDEST PUSH1 0x0 DUP2 MLOAD SWAP1 POP PUSH2 0x34F0 DUP2 PUSH2 0x204F JUMP JUMPDEST SWAP3 SWAP2 POP POP JUMP JUMPDEST PUSH1 0x0 PUSH1 0xC0 DUP3 DUP5 SUB SLT ISZERO PUSH2 0x350C JUMPI PUSH2 0x350B PUSH2 0x2880 JUMP JUMPDEST JUMPDEST PUSH2 0x3516 PUSH1 0xC0 PUSH2 0x1712 JUMP JUMPDEST SWAP1 POP PUSH1 0x0 PUSH2 0x3526 DUP5 DUP3 DUP6 ADD PUSH2 0x288A JUMP JUMPDEST PUSH1 0x0 DUP4 ADD MSTORE POP PUSH1 0x20 PUSH2 0x353A DUP5 DUP3 DUP6 ADD PUSH2 0x288A JUMP JUMPDEST PUSH1 0x20 DUP4 ADD MSTORE POP PUSH1 0x40 PUSH2 0x354E DUP5 DUP3 DUP6 ADD PUSH2 0x34E1 JUMP JUMPDEST PUSH1 0x40 DUP4 ADD MSTORE POP PUSH1 0x60 PUSH2 0x3562 DUP5 DUP3 DUP6 ADD PUSH2 0x288A JUMP JUMPDEST PUSH1 0x60 DUP4 ADD MSTORE POP PUSH1 0x80 PUSH2 0x3576 DUP5 DUP3 DUP6 ADD PUSH2 0x288A JUMP JUMPDEST PUSH1 0x80 DUP4 ADD MSTORE POP PUSH1 0xA0 PUSH2 0x358A DUP5 DUP3 DUP6 ADD PUSH2 0x288A JUMP JUMPDEST PUSH1 0xA0 DUP4 ADD MSTORE POP SWAP3 SWAP2 POP POP JUMP JUMPDEST PUSH1 0x0 PUSH2 0x35A9 PUSH2 0x35A4 DUP5 PUSH2 0x34B5 JUMP JUMPDEST PUSH2 0x1712 JUMP JUMPDEST SWAP1 POP DUP1 DUP4 DUP3 MSTORE PUSH1 0x20 DUP3 ADD SWAP1 POP PUSH1 0xC0 DUP5 MUL DUP4 ADD DUP6 DUP2 GT ISZERO PUSH2 0x35CC JUMPI PUSH2 0x35CB PUSH2 0x1759 JUMP JUMPDEST JUMPDEST DUP4 JUMPDEST DUP2 DUP2 LT ISZERO PUSH2 0x35F5 JUMPI DUP1 PUSH2 0x35E1 DUP9 DUP3 PUSH2 0x34F6 JUMP JUMPDEST DUP5 MSTORE PUSH1 0x20 DUP5 ADD SWAP4 POP POP PUSH1 0xC0 DUP2 ADD SWAP1 POP PUSH2 0x35CE JUMP JUMPDEST POP POP POP SWAP4 SWAP3 POP POP POP JUMP JUMPDEST PUSH1 0x0 DUP3 PUSH1 0x1F DUP4 ADD SLT PUSH2 0x3614 JUMPI PUSH2 0x3613 PUSH2 0x169C JUMP JUMPDEST JUMPDEST DUP2 MLOAD PUSH2 0x3624 DUP5 DUP3 PUSH1 0x20 DUP7 ADD PUSH2 0x3596 JUMP JUMPDEST SWAP2 POP POP SWAP3 SWAP2 POP POP JUMP JUMPDEST PUSH1 0x0 PUSH1 0x20 DUP3 DUP5 SUB SLT ISZERO PUSH2 0x3643 JUMPI PUSH2 0x3642 PUSH2 0x15D3 JUMP JUMPDEST JUMPDEST PUSH1 0x0 DUP3 ADD MLOAD PUSH8 0xFFFFFFFFFFFFFFFF DUP2 GT ISZERO PUSH2 0x3661 JUMPI PUSH2 0x3660 PUSH2 0x15D8 JUMP JUMPDEST JUMPDEST PUSH2 0x366D DUP5 DUP3 DUP6 ADD PUSH2 0x35FF JUMP JUMPDEST SWAP2 POP POP SWAP3 SWAP2 POP POP JUMP JUMPDEST PUSH32 0x4F776E61626C653A206E6577206F776E657220697320746865207A65726F2061 PUSH1 0x0 DUP3 ADD MSTORE PUSH32 0x6464726573730000000000000000000000000000000000000000000000000000 PUSH1 0x20 DUP3 ADD MSTORE POP JUMP JUMPDEST PUSH1 0x0 PUSH2 0x36D2 PUSH1 0x26 DUP4 PUSH2 0x2613 JUMP JUMPDEST SWAP2 POP PUSH2 0x36DD DUP3 PUSH2 0x3676 JUMP JUMPDEST PUSH1 0x40 DUP3 ADD SWAP1 POP SWAP2 SWAP1 POP JUMP JUMPDEST PUSH1 0x0 PUSH1 0x20 DUP3 ADD SWAP1 POP DUP2 DUP2 SUB PUSH1 0x0 DUP4 ADD MSTORE PUSH2 0x3701 DUP2 PUSH2 0x36C5 JUMP JUMPDEST SWAP1 POP SWAP2 SWAP1 POP JUMP JUMPDEST PUSH32 0x4F776E61626C653A2063616C6C6572206973206E6F7420746865206F776E6572 PUSH1 0x0 DUP3 ADD MSTORE POP JUMP JUMPDEST PUSH1 0x0 PUSH2 0x373E PUSH1 0x20 DUP4 PUSH2 0x2613 JUMP JUMPDEST SWAP2 POP PUSH2 0x3749 DUP3 PUSH2 0x3708 JUMP JUMPDEST PUSH1 0x20 DUP3 ADD SWAP1 POP SWAP2 SWAP1 POP JUMP JUMPDEST PUSH1 0x0 PUSH1 0x20 DUP3 ADD SWAP1 POP DUP2 DUP2 SUB PUSH1 0x0 DUP4 ADD MSTORE PUSH2 0x376D DUP2 PUSH2 0x3731 JUMP JUMPDEST SWAP1 POP SWAP2 SWAP1 POP JUMP INVALID LOG2 PUSH5 0x6970667358 0x22 SLT KECCAK256 DUP14 SWAP12 SUB REVERT 0xC7 0xAF 0xC6 MSTORE8 DUP4 0xFB DUP13 OR PUSH4 0x7DA33B57 0xC6 PUSH15 0x579337F09E0BBB3E469C46FB1F6473 PUSH16 0x6C634300081100330000000000000000 "
		},
		"gasEstimates": {
			"creation": {
				"codeDepositCost": "2850000",
				"executionCost": "infinite",
				"totalCost": "infinite"
			},
			"external": {
				"addFarmer(uint256,string,uint256,uint256,uint256)": "infinite",
				"addFolWarehouse(uint256,uint256,uint256,uint256)": "infinite",
				"addHarvest(uint256,uint256,uint256)": "infinite",
				"addInspector(uint256)": "infinite",
				"addPlant(uint256,uint8,uint256,uint256,uint256)": "infinite",
				"addPrepare(uint256,uint256,uint256[])": "infinite",
				"checkInspector()": "infinite",
				"destroy()": "29995",
				"farmerDatabase()": "infinite",
				"getListFarmer()": "infinite",
				"getListFolWarehouse()": "infinite",
				"getListHarvest()": "infinite",
				"getListInspector()": "infinite",
				"getListPlant()": "infinite",
				"getListPrepare()": "infinite",
				"login()": "infinite",
				"owner()": "2567",
				"transferOwnership(address)": "30797"
			}
		},
		"methodIdentifiers": {
			"addFarmer(uint256,string,uint256,uint256,uint256)": "39dcbefa",
			"addFolWarehouse(uint256,uint256,uint256,uint256)": "40738285",
			"addHarvest(uint256,uint256,uint256)": "13ca24e8",
			"addInspector(uint256)": "8edbcf65",
			"addPlant(uint256,uint8,uint256,uint256,uint256)": "46fcf4da",
			"addPrepare(uint256,uint256,uint256[])": "1418f7d7",
			"checkInspector()": "ab4e3e75",
			"destroy()": "83197ef0",
			"farmerDatabase()": "f7082e74",
			"getListFarmer()": "166be253",
			"getListFolWarehouse()": "3cb71d76",
			"getListHarvest()": "25e9b228",
			"getListInspector()": "348900c5",
			"getListPlant()": "c2965ac8",
			"getListPrepare()": "bc46f80f",
			"login()": "b34e97e8",
			"owner()": "8da5cb5b",
			"transferOwnership(address)": "f2fde38b"
		}
	},
	"abi": [
		{
			"inputs": [
				{
					"internalType": "address",
					"name": "farmerDatabaseContractAddress",
					"type": "address"
				}
			],
			"stateMutability": "nonpayable",
			"type": "constructor"
		},
		{
			"anonymous": false,
			"inputs": [
				{
					"indexed": true,
					"internalType": "address",
					"name": "previousOwner",
					"type": "address"
				},
				{
					"indexed": true,
					"internalType": "address",
					"name": "newOwner",
					"type": "address"
				}
			],
			"name": "OwnershipTransferred",
			"type": "event"
		},
		{
			"inputs": [
				{
					"internalType": "uint256",
					"name": "famrerIdentifyId",
					"type": "uint256"
				},
				{
					"internalType": "string",
					"name": "farmerName",
					"type": "string"
				},
				{
					"internalType": "uint256",
					"name": "farmerPhone",
					"type": "uint256"
				},
				{
					"internalType": "uint256",
					"name": "famrerAddress",
					"type": "uint256"
				},
				{
					"internalType": "uint256",
					"name": "category",
					"type": "uint256"
				}
			],
			"name": "addFarmer",
			"outputs": [
				{
					"internalType": "bool",
					"name": "",
					"type": "bool"
				}
			],
			"stateMutability": "nonpayable",
			"type": "function"
		},
		{
			"inputs": [
				{
					"internalType": "uint256",
					"name": "prepareId",
					"type": "uint256"
				},
				{
					"internalType": "uint256",
					"name": "category",
					"type": "uint256"
				},
				{
					"internalType": "uint256",
					"name": "time",
					"type": "uint256"
				},
				{
					"internalType": "uint256",
					"name": "quantity",
					"type": "uint256"
				}
			],
			"name": "addFolWarehouse",
			"outputs": [
				{
					"internalType": "bool",
					"name": "",
					"type": "bool"
				}
			],
			"stateMutability": "nonpayable",
			"type": "function"
		},
		{
			"inputs": [
				{
					"internalType": "uint256",
					"name": "farmerId",
					"type": "uint256"
				},
				{
					"internalType": "uint256",
					"name": "category",
					"type": "uint256"
				},
				{
					"internalType": "uint256",
					"name": "plantId",
					"type": "uint256"
				}
			],
			"name": "addHarvest",
			"outputs": [
				{
					"internalType": "bool",
					"name": "",
					"type": "bool"
				}
			],
			"stateMutability": "nonpayable",
			"type": "function"
		},
		{
			"inputs": [
				{
					"internalType": "uint256",
					"name": "category",
					"type": "uint256"
				}
			],
			"name": "addInspector",
			"outputs": [
				{
					"internalType": "bool",
					"name": "",
					"type": "bool"
				}
			],
			"stateMutability": "nonpayable",
			"type": "function"
		},
		{
			"inputs": [
				{
					"internalType": "uint256",
					"name": "farmerId",
					"type": "uint256"
				},
				{
					"internalType": "enum CATEGORY",
					"name": "category",
					"type": "uint8"
				},
				{
					"internalType": "uint256",
					"name": "testTime",
					"type": "uint256"
				},
				{
					"internalType": "uint256",
					"name": "area",
					"type": "uint256"
				},
				{
					"internalType": "uint256",
					"name": "production",
					"type": "uint256"
				}
			],
			"name": "addPlant",
			"outputs": [
				{
					"internalType": "bool",
					"name": "",
					"type": "bool"
				}
			],
			"stateMutability": "nonpayable",
			"type": "function"
		},
		{
			"inputs": [
				{
					"internalType": "uint256",
					"name": "farmerId",
					"type": "uint256"
				},
				{
					"internalType": "uint256",
					"name": "category",
					"type": "uint256"
				},
				{
					"internalType": "uint256[]",
					"name": "listHarvestId",
					"type": "uint256[]"
				}
			],
			"name": "addPrepare",
			"outputs": [
				{
					"internalType": "bool",
					"name": "",
					"type": "bool"
				}
			],
			"stateMutability": "nonpayable",
			"type": "function"
		},
		{
			"inputs": [],
			"name": "checkInspector",
			"outputs": [
				{
					"internalType": "bool",
					"name": "",
					"type": "bool"
				}
			],
			"stateMutability": "view",
			"type": "function"
		},
		{
			"inputs": [],
			"name": "destroy",
			"outputs": [],
			"stateMutability": "nonpayable",
			"type": "function"
		},
		{
			"inputs": [],
			"name": "farmerDatabase",
			"outputs": [
				{
					"internalType": "contract FarmerDatabase",
					"name": "",
					"type": "address"
				}
			],
			"stateMutability": "view",
			"type": "function"
		},
		{
			"inputs": [],
			"name": "getListFarmer",
			"outputs": [
				{
					"components": [
						{
							"internalType": "uint256",
							"name": "farmerId",
							"type": "uint256"
						},
						{
							"internalType": "uint256",
							"name": "famrerIdentifyId",
							"type": "uint256"
						},
						{
							"internalType": "string",
							"name": "farmerName",
							"type": "string"
						},
						{
							"internalType": "uint256",
							"name": "farmerPhone",
							"type": "uint256"
						},
						{
							"internalType": "uint256",
							"name": "famrerAddress",
							"type": "uint256"
						},
						{
							"internalType": "uint256",
							"name": "category",
							"type": "uint256"
						}
					],
					"internalType": "struct Farmer[]",
					"name": "",
					"type": "tuple[]"
				}
			],
			"stateMutability": "view",
			"type": "function"
		},
		{
			"inputs": [],
			"name": "getListFolWarehouse",
			"outputs": [
				{
					"components": [
						{
							"internalType": "uint256",
							"name": "batchId",
							"type": "uint256"
						},
						{
							"internalType": "uint256",
							"name": "prepareId",
							"type": "uint256"
						},
						{
							"internalType": "uint256",
							"name": "category",
							"type": "uint256"
						},
						{
							"internalType": "uint256",
							"name": "time",
							"type": "uint256"
						},
						{
							"internalType": "uint256",
							"name": "quantity",
							"type": "uint256"
						}
					],
					"internalType": "struct FolWarehouse[]",
					"name": "",
					"type": "tuple[]"
				}
			],
			"stateMutability": "view",
			"type": "function"
		},
		{
			"inputs": [],
			"name": "getListHarvest",
			"outputs": [
				{
					"components": [
						{
							"internalType": "uint256",
							"name": "harvestId",
							"type": "uint256"
						},
						{
							"internalType": "uint256",
							"name": "farmerId",
							"type": "uint256"
						},
						{
							"internalType": "uint256",
							"name": "category",
							"type": "uint256"
						},
						{
							"internalType": "uint256",
							"name": "plantId",
							"type": "uint256"
						}
					],
					"internalType": "struct Harvest[]",
					"name": "",
					"type": "tuple[]"
				}
			],
			"stateMutability": "view",
			"type": "function"
		},
		{
			"inputs": [],
			"name": "getListInspector",
			"outputs": [
				{
					"components": [
						{
							"internalType": "uint256",
							"name": "inspectorId",
							"type": "uint256"
						},
						{
							"internalType": "address",
							"name": "inspectorAddress",
							"type": "address"
						},
						{
							"internalType": "enum AccountType",
							"name": "accountType",
							"type": "uint8"
						},
						{
							"internalType": "uint256",
							"name": "category",
							"type": "uint256"
						}
					],
					"internalType": "struct Inspector[]",
					"name": "",
					"type": "tuple[]"
				}
			],
			"stateMutability": "view",
			"type": "function"
		},
		{
			"inputs": [],
			"name": "getListPlant",
			"outputs": [
				{
					"components": [
						{
							"internalType": "uint256",
							"name": "plantId",
							"type": "uint256"
						},
						{
							"internalType": "uint256",
							"name": "farmerId",
							"type": "uint256"
						},
						{
							"internalType": "enum CATEGORY",
							"name": "category",
							"type": "uint8"
						},
						{
							"internalType": "uint256",
							"name": "testTime",
							"type": "uint256"
						},
						{
							"internalType": "uint256",
							"name": "area",
							"type": "uint256"
						},
						{
							"internalType": "uint256",
							"name": "production",
							"type": "uint256"
						}
					],
					"internalType": "struct Plant[]",
					"name": "",
					"type": "tuple[]"
				}
			],
			"stateMutability": "view",
			"type": "function"
		},
		{
			"inputs": [],
			"name": "getListPrepare",
			"outputs": [
				{
					"components": [
						{
							"internalType": "uint256",
							"name": "prepareId",
							"type": "uint256"
						},
						{
							"internalType": "uint256",
							"name": "farmerId",
							"type": "uint256"
						},
						{
							"internalType": "uint256",
							"name": "category",
							"type": "uint256"
						},
						{
							"internalType": "uint256[]",
							"name": "listHarvestId",
							"type": "uint256[]"
						}
					],
					"internalType": "struct Prepare[]",
					"name": "",
					"type": "tuple[]"
				}
			],
			"stateMutability": "view",
			"type": "function"
		},
		{
			"inputs": [],
			"name": "login",
			"outputs": [
				{
					"components": [
						{
							"internalType": "uint256",
							"name": "inspectorId",
							"type": "uint256"
						},
						{
							"internalType": "address",
							"name": "inspectorAddress",
							"type": "address"
						},
						{
							"internalType": "enum AccountType",
							"name": "accountType",
							"type": "uint8"
						},
						{
							"internalType": "uint256",
							"name": "category",
							"type": "uint256"
						}
					],
					"internalType": "struct Inspector",
					"name": "",
					"type": "tuple"
				}
			],
			"stateMutability": "view",
			"type": "function"
		},
		{
			"inputs": [],
			"name": "owner",
			"outputs": [
				{
					"internalType": "address",
					"name": "",
					"type": "address"
				}
			],
			"stateMutability": "view",
			"type": "function"
		},
		{
			"inputs": [
				{
					"internalType": "address",
					"name": "newOwner",
					"type": "address"
				}
			],
			"name": "transferOwnership",
			"outputs": [],
			"stateMutability": "nonpayable",
			"type": "function"
		}
	]
}