{
	"data": {
		"bytecode": {
			"linkReferences": {},
			"object": "60806040523480156200001157600080fd5b5060405162002dee38038062002dee83398181016040528101906200003791906200012b565b80336000806101000a81548173ffffffffffffffffffffffffffffffffffffffff021916908373ffffffffffffffffffffffffffffffffffffffff16021790555080600160006101000a81548173ffffffffffffffffffffffffffffffffffffffff021916908373ffffffffffffffffffffffffffffffffffffffff16021790555050506200015d565b600080fd5b600073ffffffffffffffffffffffffffffffffffffffff82169050919050565b6000620000f382620000c6565b9050919050565b6200010581620000e6565b81146200011157600080fd5b50565b6000815190506200012581620000fa565b92915050565b600060208284031215620001445762000143620000c1565b5b6000620001548482850162000114565b91505092915050565b612c81806200016d6000396000f3fe608060405234801561001057600080fd5b50600436106100f55760003560e01c806346fcf4da11610097578063bc46f80f11610066578063bc46f80f1461029c578063c2965ac8146102ba578063f2fde38b146102d8578063f7082e74146102f4576100f5565b806346fcf4da1461021457806383197ef0146102445780638da5cb5b1461024e5780638edbcf651461026c576100f5565b806325e9b228116100d357806325e9b2281461017857806339dcbefa146101965780633cb71d76146101c657806340738285146101e4576100f5565b806313ca24e8146100fa5780631418f7d71461012a578063166be2531461015a575b600080fd5b610114600480360381019061010f9190610f7c565b610312565b6040516101219190610fea565b60405180910390f35b610144600480360381019061013f919061115e565b610406565b6040516101519190610fea565b60405180910390f35b6101626104fa565b60405161016f91906113a6565b60405180910390f35b6101806105c5565b60405161018d91906114cc565b60405180910390f35b6101b060048036038101906101ab91906115a3565b610690565b6040516101bd9190610fea565b60405180910390f35b6101ce610792565b6040516101db9190611751565b60405180910390f35b6101fe60048036038101906101f99190611773565b61085d565b60405161020b9190610fea565b60405180910390f35b61022e600480360381019061022991906117ff565b610958565b60405161023b9190610fea565b60405180910390f35b61024c610a6c565b005b610256610a8d565b60405161026391906118bb565b60405180910390f35b610286600480360381019061028191906118d6565b610ab6565b6040516102939190610fea565b60405180910390f35b6102a4610bb8565b6040516102b19190611ad7565b60405180910390f35b6102c2610c83565b6040516102cf9190611c9a565b60405180910390f35b6102f260048036038101906102ed9190611ce8565b610d4e565b005b6102fc610dd1565b6040516103099190611d74565b60405180910390f35b600080604051806080016040528060008152602001868152602001858152602001848152509050600160009054906101000a900473ffffffffffffffffffffffffffffffffffffffff1673ffffffffffffffffffffffffffffffffffffffff16631d988d60827f8e1604a838d0f1a9b2cda14a099e4ceb08e966cc6e05e8296f67b02d61a79f0960001b6040518363ffffffff1660e01b81526004016103b9929190611dfd565b6020604051808303816000875af11580156103d8573d6000803e3d6000fd5b505050506040513d601f19601f820116820180604052508101906103fc9190611e52565b9150509392505050565b600080604051806080016040528060008152602001868152602001858152602001848152509050600160009054906101000a900473ffffffffffffffffffffffffffffffffffffffff1673ffffffffffffffffffffffffffffffffffffffff1663eb1042bf827f8e1604a838d0f1a9b2cda14a099e4ceb08e966cc6e05e8296f67b02d61a79f0960001b6040518363ffffffff1660e01b81526004016104ad929190611ee2565b6020604051808303816000875af11580156104cc573d6000803e3d6000fd5b505050506040513d601f19601f820116820180604052508101906104f09190611e52565b9150509392505050565b6060600160009054906101000a900473ffffffffffffffffffffffffffffffffffffffff1673ffffffffffffffffffffffffffffffffffffffff1663639d43f37f8e1604a838d0f1a9b2cda14a099e4ceb08e966cc6e05e8296f67b02d61a79f0960001b6040518263ffffffff1660e01b815260040161057a9190611f12565b600060405180830381865afa158015610597573d6000803e3d6000fd5b505050506040513d6000823e3d601f19601f820116820180604052508101906105c09190612159565b905090565b6060600160009054906101000a900473ffffffffffffffffffffffffffffffffffffffff1673ffffffffffffffffffffffffffffffffffffffff16633609010e7f8e1604a838d0f1a9b2cda14a099e4ceb08e966cc6e05e8296f67b02d61a79f0960001b6040518263ffffffff1660e01b81526004016106459190611f12565b600060405180830381865afa158015610662573d6000803e3d6000fd5b505050506040513d6000823e3d601f19601f8201168201806040525081019061068b91906122dd565b905090565b6000806040518060c0016040528060008152602001888152602001878152602001868152602001858152602001848152509050600160009054906101000a900473ffffffffffffffffffffffffffffffffffffffff1673ffffffffffffffffffffffffffffffffffffffff1663c508a36e827f8e1604a838d0f1a9b2cda14a099e4ceb08e966cc6e05e8296f67b02d61a79f0960001b6040518363ffffffff1660e01b81526004016107439291906123af565b6020604051808303816000875af1158015610762573d6000803e3d6000fd5b505050506040513d601f19601f820116820180604052508101906107869190611e52565b91505095945050505050565b6060600160009054906101000a900473ffffffffffffffffffffffffffffffffffffffff1673ffffffffffffffffffffffffffffffffffffffff16631d769a9e7f8e1604a838d0f1a9b2cda14a099e4ceb08e966cc6e05e8296f67b02d61a79f0960001b6040518263ffffffff1660e01b81526004016108129190611f12565b600060405180830381865afa15801561082f573d6000803e3d6000fd5b505050506040513d6000823e3d601f19601f82011682018060405250810190610858919061252e565b905090565b6000806040518060a0016040528060008152602001878152602001868152602001858152602001848152509050600160009054906101000a900473ffffffffffffffffffffffffffffffffffffffff1673ffffffffffffffffffffffffffffffffffffffff16634269e28b827f8e1604a838d0f1a9b2cda14a099e4ceb08e966cc6e05e8296f67b02d61a79f0960001b6040518363ffffffff1660e01b815260040161090a9291906125df565b6020604051808303816000875af1158015610929573d6000803e3d6000fd5b505050506040513d601f19601f8201168201806040525081019061094d9190611e52565b915050949350505050565b6000806040518060c001604052806000815260200188815260200187600281111561098657610985611b25565b5b8152602001868152602001858152602001848152509050600160009054906101000a900473ffffffffffffffffffffffffffffffffffffffff1673ffffffffffffffffffffffffffffffffffffffff1663ba03fe92827f8e1604a838d0f1a9b2cda14a099e4ceb08e966cc6e05e8296f67b02d61a79f0960001b6040518363ffffffff1660e01b8152600401610a1d929190612683565b6020604051808303816000875af1158015610a3c573d6000803e3d6000fd5b505050506040513d601f19601f82011682018060405250810190610a609190611e52565b91505095945050505050565b610a74610df7565b3073ffffffffffffffffffffffffffffffffffffffff16ff5b60008060009054906101000a900473ffffffffffffffffffffffffffffffffffffffff16905090565b6000806040518060600160405280600081526020013373ffffffffffffffffffffffffffffffffffffffff168152602001848152509050600160009054906101000a900473ffffffffffffffffffffffffffffffffffffffff1673ffffffffffffffffffffffffffffffffffffffff1663e075ca01827f8e1604a838d0f1a9b2cda14a099e4ceb08e966cc6e05e8296f67b02d61a79f0960001b6040518363ffffffff1660e01b8152600401610b6d9291906126fd565b6020604051808303816000875af1158015610b8c573d6000803e3d6000fd5b505050506040513d601f19601f82011682018060405250810190610bb09190611e52565b915050919050565b6060600160009054906101000a900473ffffffffffffffffffffffffffffffffffffffff1673ffffffffffffffffffffffffffffffffffffffff166348c1b2cd7f8e1604a838d0f1a9b2cda14a099e4ceb08e966cc6e05e8296f67b02d61a79f0960001b6040518263ffffffff1660e01b8152600401610c389190611f12565b600060405180830381865afa158015610c55573d6000803e3d6000fd5b505050506040513d6000823e3d601f19601f82011682018060405250810190610c7e9190612932565b905090565b6060600160009054906101000a900473ffffffffffffffffffffffffffffffffffffffff1673ffffffffffffffffffffffffffffffffffffffff1663552436b37f8e1604a838d0f1a9b2cda14a099e4ceb08e966cc6e05e8296f67b02d61a79f0960001b6040518263ffffffff1660e01b8152600401610d039190611f12565b600060405180830381865afa158015610d20573d6000803e3d6000fd5b505050506040513d6000823e3d601f19601f82011682018060405250810190610d499190612af3565b905090565b610d56610df7565b600073ffffffffffffffffffffffffffffffffffffffff168173ffffffffffffffffffffffffffffffffffffffff1603610dc5576040517f08c379a0000000000000000000000000000000000000000000000000000000008152600401610dbc90612bbf565b60405180910390fd5b610dce81610e6e565b50565b600160009054906101000a900473ffffffffffffffffffffffffffffffffffffffff1681565b3373ffffffffffffffffffffffffffffffffffffffff16610e16610a8d565b73ffffffffffffffffffffffffffffffffffffffff1614610e6c576040517f08c379a0000000000000000000000000000000000000000000000000000000008152600401610e6390612c2b565b60405180910390fd5b565b60008060009054906101000a900473ffffffffffffffffffffffffffffffffffffffff169050816000806101000a81548173ffffffffffffffffffffffffffffffffffffffff021916908373ffffffffffffffffffffffffffffffffffffffff1602179055508173ffffffffffffffffffffffffffffffffffffffff168173ffffffffffffffffffffffffffffffffffffffff167f8be0079c531659141344cd1fd0a4f28419497f9722a3daafe3b4186f6b6457e060405160405180910390a35050565b6000604051905090565b600080fd5b600080fd5b6000819050919050565b610f5981610f46565b8114610f6457600080fd5b50565b600081359050610f7681610f50565b92915050565b600080600060608486031215610f9557610f94610f3c565b5b6000610fa386828701610f67565b9350506020610fb486828701610f67565b9250506040610fc586828701610f67565b9150509250925092565b60008115159050919050565b610fe481610fcf565b82525050565b6000602082019050610fff6000830184610fdb565b92915050565b600080fd5b6000601f19601f8301169050919050565b7f4e487b7100000000000000000000000000000000000000000000000000000000600052604160045260246000fd5b6110538261100a565b810181811067ffffffffffffffff821117156110725761107161101b565b5b80604052505050565b6000611085610f32565b9050611091828261104a565b919050565b600067ffffffffffffffff8211156110b1576110b061101b565b5b602082029050602081019050919050565b600080fd5b60006110da6110d584611096565b61107b565b905080838252602082019050602084028301858111156110fd576110fc6110c2565b5b835b8181101561112657806111128882610f67565b8452602084019350506020810190506110ff565b5050509392505050565b600082601f83011261114557611144611005565b5b81356111558482602086016110c7565b91505092915050565b60008060006060848603121561117757611176610f3c565b5b600061118586828701610f67565b935050602061119686828701610f67565b925050604084013567ffffffffffffffff8111156111b7576111b6610f41565b5b6111c386828701611130565b9150509250925092565b600081519050919050565b600082825260208201905092915050565b6000819050602082019050919050565b61120281610f46565b82525050565b600081519050919050565b600082825260208201905092915050565b60005b83811015611242578082015181840152602081019050611227565b60008484015250505050565b600061125982611208565b6112638185611213565b9350611273818560208601611224565b61127c8161100a565b840191505092915050565b600060c08301600083015161129f60008601826111f9565b5060208301516112b260208601826111f9565b50604083015184820360408601526112ca828261124e565b91505060608301516112df60608601826111f9565b5060808301516112f260808601826111f9565b5060a083015161130560a08601826111f9565b508091505092915050565b600061131c8383611287565b905092915050565b6000602082019050919050565b600061133c826111cd565b61134681856111d8565b935083602082028501611358856111e9565b8060005b8581101561139457848403895281516113758582611310565b945061138083611324565b925060208a0199505060018101905061135c565b50829750879550505050505092915050565b600060208201905081810360008301526113c08184611331565b905092915050565b600081519050919050565b600082825260208201905092915050565b6000819050602082019050919050565b60808201600082015161140a60008501826111f9565b50602082015161141d60208501826111f9565b50604082015161143060408501826111f9565b50606082015161144360608501826111f9565b50505050565b600061145583836113f4565b60808301905092915050565b6000602082019050919050565b6000611479826113c8565b61148381856113d3565b935061148e836113e4565b8060005b838110156114bf5781516114a68882611449565b97506114b183611461565b925050600181019050611492565b5085935050505092915050565b600060208201905081810360008301526114e6818461146e565b905092915050565b600080fd5b600067ffffffffffffffff82111561150e5761150d61101b565b5b6115178261100a565b9050602081019050919050565b82818337600083830152505050565b6000611546611541846114f3565b61107b565b905082815260208101848484011115611562576115616114ee565b5b61156d848285611524565b509392505050565b600082601f83011261158a57611589611005565b5b813561159a848260208601611533565b91505092915050565b600080600080600060a086880312156115bf576115be610f3c565b5b60006115cd88828901610f67565b955050602086013567ffffffffffffffff8111156115ee576115ed610f41565b5b6115fa88828901611575565b945050604061160b88828901610f67565b935050606061161c88828901610f67565b925050608061162d88828901610f67565b9150509295509295909350565b600081519050919050565b600082825260208201905092915050565b6000819050602082019050919050565b60a08201600082015161167c60008501826111f9565b50602082015161168f60208501826111f9565b5060408201516116a260408501826111f9565b5060608201516116b560608501826111f9565b5060808201516116c860808501826111f9565b50505050565b60006116da8383611666565b60a08301905092915050565b6000602082019050919050565b60006116fe8261163a565b6117088185611645565b935061171383611656565b8060005b8381101561174457815161172b88826116ce565b9750611736836116e6565b925050600181019050611717565b5085935050505092915050565b6000602082019050818103600083015261176b81846116f3565b905092915050565b6000806000806080858703121561178d5761178c610f3c565b5b600061179b87828801610f67565b94505060206117ac87828801610f67565b93505060406117bd87828801610f67565b92505060606117ce87828801610f67565b91505092959194509250565b600381106117e757600080fd5b50565b6000813590506117f9816117da565b92915050565b600080600080600060a0868803121561181b5761181a610f3c565b5b600061182988828901610f67565b955050602061183a888289016117ea565b945050604061184b88828901610f67565b935050606061185c88828901610f67565b925050608061186d88828901610f67565b9150509295509295909350565b600073ffffffffffffffffffffffffffffffffffffffff82169050919050565b60006118a58261187a565b9050919050565b6118b58161189a565b82525050565b60006020820190506118d060008301846118ac565b92915050565b6000602082840312156118ec576118eb610f3c565b5b60006118fa84828501610f67565b91505092915050565b600081519050919050565b600082825260208201905092915050565b6000819050602082019050919050565b600081519050919050565b600082825260208201905092915050565b6000819050602082019050919050565b600061196783836111f9565b60208301905092915050565b6000602082019050919050565b600061198b8261192f565b611995818561193a565b93506119a08361194b565b8060005b838110156119d15781516119b8888261195b565b97506119c383611973565b9250506001810190506119a4565b5085935050505092915050565b60006080830160008301516119f660008601826111f9565b506020830151611a0960208601826111f9565b506040830151611a1c60408601826111f9565b5060608301518482036060860152611a348282611980565b9150508091505092915050565b6000611a4d83836119de565b905092915050565b6000602082019050919050565b6000611a6d82611903565b611a77818561190e565b935083602082028501611a898561191f565b8060005b85811015611ac55784840389528151611aa68582611a41565b9450611ab183611a55565b925060208a01995050600181019050611a8d565b50829750879550505050505092915050565b60006020820190508181036000830152611af18184611a62565b905092915050565b600081519050919050565b600082825260208201905092915050565b6000819050602082019050919050565b7f4e487b7100000000000000000000000000000000000000000000000000000000600052602160045260246000fd5b60038110611b6557611b64611b25565b5b50565b6000819050611b7682611b54565b919050565b6000611b8682611b68565b9050919050565b611b9681611b7b565b82525050565b60c082016000820151611bb260008501826111f9565b506020820151611bc560208501826111f9565b506040820151611bd86040850182611b8d565b506060820151611beb60608501826111f9565b506080820151611bfe60808501826111f9565b5060a0820151611c1160a08501826111f9565b50505050565b6000611c238383611b9c565b60c08301905092915050565b6000602082019050919050565b6000611c4782611af9565b611c518185611b04565b9350611c5c83611b15565b8060005b83811015611c8d578151611c748882611c17565b9750611c7f83611c2f565b925050600181019050611c60565b5085935050505092915050565b60006020820190508181036000830152611cb48184611c3c565b905092915050565b611cc58161189a565b8114611cd057600080fd5b50565b600081359050611ce281611cbc565b92915050565b600060208284031215611cfe57611cfd610f3c565b5b6000611d0c84828501611cd3565b91505092915050565b6000819050919050565b6000611d3a611d35611d308461187a565b611d15565b61187a565b9050919050565b6000611d4c82611d1f565b9050919050565b6000611d5e82611d41565b9050919050565b611d6e81611d53565b82525050565b6000602082019050611d896000830184611d65565b92915050565b608082016000820151611da560008501826111f9565b506020820151611db860208501826111f9565b506040820151611dcb60408501826111f9565b506060820151611dde60608501826111f9565b50505050565b6000819050919050565b611df781611de4565b82525050565b600060a082019050611e126000830185611d8f565b611e1f6080830184611dee565b9392505050565b611e2f81610fcf565b8114611e3a57600080fd5b50565b600081519050611e4c81611e26565b92915050565b600060208284031215611e6857611e67610f3c565b5b6000611e7684828501611e3d565b91505092915050565b6000608083016000830151611e9760008601826111f9565b506020830151611eaa60208601826111f9565b506040830151611ebd60408601826111f9565b5060608301518482036060860152611ed58282611980565b9150508091505092915050565b60006040820190508181036000830152611efc8185611e7f565b9050611f0b6020830184611dee565b9392505050565b6000602082019050611f276000830184611dee565b92915050565b600067ffffffffffffffff821115611f4857611f4761101b565b5b602082029050602081019050919050565b600080fd5b600080fd5b600081519050611f7281610f50565b92915050565b6000611f8b611f86846114f3565b61107b565b905082815260208101848484011115611fa757611fa66114ee565b5b611fb2848285611224565b509392505050565b600082601f830112611fcf57611fce611005565b5b8151611fdf848260208601611f78565b91505092915050565b600060c08284031215611ffe57611ffd611f59565b5b61200860c061107b565b9050600061201884828501611f63565b600083015250602061202c84828501611f63565b602083015250604082015167ffffffffffffffff8111156120505761204f611f5e565b5b61205c84828501611fba565b604083015250606061207084828501611f63565b606083015250608061208484828501611f63565b60808301525060a061209884828501611f63565b60a08301525092915050565b60006120b76120b284611f2d565b61107b565b905080838252602082019050602084028301858111156120da576120d96110c2565b5b835b8181101561212157805167ffffffffffffffff8111156120ff576120fe611005565b5b80860161210c8982611fe8565b855260208501945050506020810190506120dc565b5050509392505050565b600082601f8301126121405761213f611005565b5b81516121508482602086016120a4565b91505092915050565b60006020828403121561216f5761216e610f3c565b5b600082015167ffffffffffffffff81111561218d5761218c610f41565b5b6121998482850161212b565b91505092915050565b600067ffffffffffffffff8211156121bd576121bc61101b565b5b602082029050602081019050919050565b6000608082840312156121e4576121e3611f59565b5b6121ee608061107b565b905060006121fe84828501611f63565b600083015250602061221284828501611f63565b602083015250604061222684828501611f63565b604083015250606061223a84828501611f63565b60608301525092915050565b6000612259612254846121a2565b61107b565b9050808382526020820190506080840283018581111561227c5761227b6110c2565b5b835b818110156122a5578061229188826121ce565b84526020840193505060808101905061227e565b5050509392505050565b600082601f8301126122c4576122c3611005565b5b81516122d4848260208601612246565b91505092915050565b6000602082840312156122f3576122f2610f3c565b5b600082015167ffffffffffffffff81111561231157612310610f41565b5b61231d848285016122af565b91505092915050565b600060c08301600083015161233e60008601826111f9565b50602083015161235160208601826111f9565b5060408301518482036040860152612369828261124e565b915050606083015161237e60608601826111f9565b50608083015161239160808601826111f9565b5060a08301516123a460a08601826111f9565b508091505092915050565b600060408201905081810360008301526123c98185612326565b90506123d86020830184611dee565b9392505050565b600067ffffffffffffffff8211156123fa576123f961101b565b5b602082029050602081019050919050565b600060a0828403121561242157612420611f59565b5b61242b60a061107b565b9050600061243b84828501611f63565b600083015250602061244f84828501611f63565b602083015250604061246384828501611f63565b604083015250606061247784828501611f63565b606083015250608061248b84828501611f63565b60808301525092915050565b60006124aa6124a5846123df565b61107b565b90508083825260208201905060a084028301858111156124cd576124cc6110c2565b5b835b818110156124f657806124e2888261240b565b84526020840193505060a0810190506124cf565b5050509392505050565b600082601f83011261251557612514611005565b5b8151612525848260208601612497565b91505092915050565b60006020828403121561254457612543610f3c565b5b600082015167ffffffffffffffff81111561256257612561610f41565b5b61256e84828501612500565b91505092915050565b60a08201600082015161258d60008501826111f9565b5060208201516125a060208501826111f9565b5060408201516125b360408501826111f9565b5060608201516125c660608501826111f9565b5060808201516125d960808501826111f9565b50505050565b600060c0820190506125f46000830185612577565b61260160a0830184611dee565b9392505050565b60c08201600082015161261e60008501826111f9565b50602082015161263160208501826111f9565b5060408201516126446040850182611b8d565b50606082015161265760608501826111f9565b50608082015161266a60808501826111f9565b5060a082015161267d60a08501826111f9565b50505050565b600060e0820190506126986000830185612608565b6126a560c0830184611dee565b9392505050565b6126b58161189a565b82525050565b6060820160008201516126d160008501826111f9565b5060208201516126e460208501826126ac565b5060408201516126f760408501826111f9565b50505050565b600060808201905061271260008301856126bb565b61271f6060830184611dee565b9392505050565b600067ffffffffffffffff8211156127415761274061101b565b5b602082029050602081019050919050565b600061276561276084611096565b61107b565b90508083825260208201905060208402830185811115612788576127876110c2565b5b835b818110156127b1578061279d8882611f63565b84526020840193505060208101905061278a565b5050509392505050565b600082601f8301126127d0576127cf611005565b5b81516127e0848260208601612752565b91505092915050565b6000608082840312156127ff576127fe611f59565b5b612809608061107b565b9050600061281984828501611f63565b600083015250602061282d84828501611f63565b602083015250604061284184828501611f63565b604083015250606082015167ffffffffffffffff81111561286557612864611f5e565b5b612871848285016127bb565b60608301525092915050565b600061289061288b84612726565b61107b565b905080838252602082019050602084028301858111156128b3576128b26110c2565b5b835b818110156128fa57805167ffffffffffffffff8111156128d8576128d7611005565b5b8086016128e589826127e9565b855260208501945050506020810190506128b5565b5050509392505050565b600082601f83011261291957612918611005565b5b815161292984826020860161287d565b91505092915050565b60006020828403121561294857612947610f3c565b5b600082015167ffffffffffffffff81111561296657612965610f41565b5b61297284828501612904565b91505092915050565b600067ffffffffffffffff8211156129965761299561101b565b5b602082029050602081019050919050565b6000815190506129b6816117da565b92915050565b600060c082840312156129d2576129d1611f59565b5b6129dc60c061107b565b905060006129ec84828501611f63565b6000830152506020612a0084828501611f63565b6020830152506040612a14848285016129a7565b6040830152506060612a2884828501611f63565b6060830152506080612a3c84828501611f63565b60808301525060a0612a5084828501611f63565b60a08301525092915050565b6000612a6f612a6a8461297b565b61107b565b90508083825260208201905060c08402830185811115612a9257612a916110c2565b5b835b81811015612abb5780612aa788826129bc565b84526020840193505060c081019050612a94565b5050509392505050565b600082601f830112612ada57612ad9611005565b5b8151612aea848260208601612a5c565b91505092915050565b600060208284031215612b0957612b08610f3c565b5b600082015167ffffffffffffffff811115612b2757612b26610f41565b5b612b3384828501612ac5565b91505092915050565b600082825260208201905092915050565b7f4f776e61626c653a206e6577206f776e657220697320746865207a65726f206160008201527f6464726573730000000000000000000000000000000000000000000000000000602082015250565b6000612ba9602683612b3c565b9150612bb482612b4d565b604082019050919050565b60006020820190508181036000830152612bd881612b9c565b9050919050565b7f4f776e61626c653a2063616c6c6572206973206e6f7420746865206f776e6572600082015250565b6000612c15602083612b3c565b9150612c2082612bdf565b602082019050919050565b60006020820190508181036000830152612c4481612c08565b905091905056fea2646970667358221220dc019425104b5f4deac05d9a8fd40bc5d27e9501a5ff229be0bddf04e093eca464736f6c63430008110033",
			"opcodes": "PUSH1 0x80 PUSH1 0x40 MSTORE CALLVALUE DUP1 ISZERO PUSH3 0x11 JUMPI PUSH1 0x0 DUP1 REVERT JUMPDEST POP PUSH1 0x40 MLOAD PUSH3 0x2DEE CODESIZE SUB DUP1 PUSH3 0x2DEE DUP4 CODECOPY DUP2 DUP2 ADD PUSH1 0x40 MSTORE DUP2 ADD SWAP1 PUSH3 0x37 SWAP2 SWAP1 PUSH3 0x12B JUMP JUMPDEST DUP1 CALLER PUSH1 0x0 DUP1 PUSH2 0x100 EXP DUP2 SLOAD DUP2 PUSH20 0xFFFFFFFFFFFFFFFFFFFFFFFFFFFFFFFFFFFFFFFF MUL NOT AND SWAP1 DUP4 PUSH20 0xFFFFFFFFFFFFFFFFFFFFFFFFFFFFFFFFFFFFFFFF AND MUL OR SWAP1 SSTORE POP DUP1 PUSH1 0x1 PUSH1 0x0 PUSH2 0x100 EXP DUP2 SLOAD DUP2 PUSH20 0xFFFFFFFFFFFFFFFFFFFFFFFFFFFFFFFFFFFFFFFF MUL NOT AND SWAP1 DUP4 PUSH20 0xFFFFFFFFFFFFFFFFFFFFFFFFFFFFFFFFFFFFFFFF AND MUL OR SWAP1 SSTORE POP POP POP PUSH3 0x15D JUMP JUMPDEST PUSH1 0x0 DUP1 REVERT JUMPDEST PUSH1 0x0 PUSH20 0xFFFFFFFFFFFFFFFFFFFFFFFFFFFFFFFFFFFFFFFF DUP3 AND SWAP1 POP SWAP2 SWAP1 POP JUMP JUMPDEST PUSH1 0x0 PUSH3 0xF3 DUP3 PUSH3 0xC6 JUMP JUMPDEST SWAP1 POP SWAP2 SWAP1 POP JUMP JUMPDEST PUSH3 0x105 DUP2 PUSH3 0xE6 JUMP JUMPDEST DUP2 EQ PUSH3 0x111 JUMPI PUSH1 0x0 DUP1 REVERT JUMPDEST POP JUMP JUMPDEST PUSH1 0x0 DUP2 MLOAD SWAP1 POP PUSH3 0x125 DUP2 PUSH3 0xFA JUMP JUMPDEST SWAP3 SWAP2 POP POP JUMP JUMPDEST PUSH1 0x0 PUSH1 0x20 DUP3 DUP5 SUB SLT ISZERO PUSH3 0x144 JUMPI PUSH3 0x143 PUSH3 0xC1 JUMP JUMPDEST JUMPDEST PUSH1 0x0 PUSH3 0x154 DUP5 DUP3 DUP6 ADD PUSH3 0x114 JUMP JUMPDEST SWAP2 POP POP SWAP3 SWAP2 POP POP JUMP JUMPDEST PUSH2 0x2C81 DUP1 PUSH3 0x16D PUSH1 0x0 CODECOPY PUSH1 0x0 RETURN INVALID PUSH1 0x80 PUSH1 0x40 MSTORE CALLVALUE DUP1 ISZERO PUSH2 0x10 JUMPI PUSH1 0x0 DUP1 REVERT JUMPDEST POP PUSH1 0x4 CALLDATASIZE LT PUSH2 0xF5 JUMPI PUSH1 0x0 CALLDATALOAD PUSH1 0xE0 SHR DUP1 PUSH4 0x46FCF4DA GT PUSH2 0x97 JUMPI DUP1 PUSH4 0xBC46F80F GT PUSH2 0x66 JUMPI DUP1 PUSH4 0xBC46F80F EQ PUSH2 0x29C JUMPI DUP1 PUSH4 0xC2965AC8 EQ PUSH2 0x2BA JUMPI DUP1 PUSH4 0xF2FDE38B EQ PUSH2 0x2D8 JUMPI DUP1 PUSH4 0xF7082E74 EQ PUSH2 0x2F4 JUMPI PUSH2 0xF5 JUMP JUMPDEST DUP1 PUSH4 0x46FCF4DA EQ PUSH2 0x214 JUMPI DUP1 PUSH4 0x83197EF0 EQ PUSH2 0x244 JUMPI DUP1 PUSH4 0x8DA5CB5B EQ PUSH2 0x24E JUMPI DUP1 PUSH4 0x8EDBCF65 EQ PUSH2 0x26C JUMPI PUSH2 0xF5 JUMP JUMPDEST DUP1 PUSH4 0x25E9B228 GT PUSH2 0xD3 JUMPI DUP1 PUSH4 0x25E9B228 EQ PUSH2 0x178 JUMPI DUP1 PUSH4 0x39DCBEFA EQ PUSH2 0x196 JUMPI DUP1 PUSH4 0x3CB71D76 EQ PUSH2 0x1C6 JUMPI DUP1 PUSH4 0x40738285 EQ PUSH2 0x1E4 JUMPI PUSH2 0xF5 JUMP JUMPDEST DUP1 PUSH4 0x13CA24E8 EQ PUSH2 0xFA JUMPI DUP1 PUSH4 0x1418F7D7 EQ PUSH2 0x12A JUMPI DUP1 PUSH4 0x166BE253 EQ PUSH2 0x15A JUMPI JUMPDEST PUSH1 0x0 DUP1 REVERT JUMPDEST PUSH2 0x114 PUSH1 0x4 DUP1 CALLDATASIZE SUB DUP2 ADD SWAP1 PUSH2 0x10F SWAP2 SWAP1 PUSH2 0xF7C JUMP JUMPDEST PUSH2 0x312 JUMP JUMPDEST PUSH1 0x40 MLOAD PUSH2 0x121 SWAP2 SWAP1 PUSH2 0xFEA JUMP JUMPDEST PUSH1 0x40 MLOAD DUP1 SWAP2 SUB SWAP1 RETURN JUMPDEST PUSH2 0x144 PUSH1 0x4 DUP1 CALLDATASIZE SUB DUP2 ADD SWAP1 PUSH2 0x13F SWAP2 SWAP1 PUSH2 0x115E JUMP JUMPDEST PUSH2 0x406 JUMP JUMPDEST PUSH1 0x40 MLOAD PUSH2 0x151 SWAP2 SWAP1 PUSH2 0xFEA JUMP JUMPDEST PUSH1 0x40 MLOAD DUP1 SWAP2 SUB SWAP1 RETURN JUMPDEST PUSH2 0x162 PUSH2 0x4FA JUMP JUMPDEST PUSH1 0x40 MLOAD PUSH2 0x16F SWAP2 SWAP1 PUSH2 0x13A6 JUMP JUMPDEST PUSH1 0x40 MLOAD DUP1 SWAP2 SUB SWAP1 RETURN JUMPDEST PUSH2 0x180 PUSH2 0x5C5 JUMP JUMPDEST PUSH1 0x40 MLOAD PUSH2 0x18D SWAP2 SWAP1 PUSH2 0x14CC JUMP JUMPDEST PUSH1 0x40 MLOAD DUP1 SWAP2 SUB SWAP1 RETURN JUMPDEST PUSH2 0x1B0 PUSH1 0x4 DUP1 CALLDATASIZE SUB DUP2 ADD SWAP1 PUSH2 0x1AB SWAP2 SWAP1 PUSH2 0x15A3 JUMP JUMPDEST PUSH2 0x690 JUMP JUMPDEST PUSH1 0x40 MLOAD PUSH2 0x1BD SWAP2 SWAP1 PUSH2 0xFEA JUMP JUMPDEST PUSH1 0x40 MLOAD DUP1 SWAP2 SUB SWAP1 RETURN JUMPDEST PUSH2 0x1CE PUSH2 0x792 JUMP JUMPDEST PUSH1 0x40 MLOAD PUSH2 0x1DB SWAP2 SWAP1 PUSH2 0x1751 JUMP JUMPDEST PUSH1 0x40 MLOAD DUP1 SWAP2 SUB SWAP1 RETURN JUMPDEST PUSH2 0x1FE PUSH1 0x4 DUP1 CALLDATASIZE SUB DUP2 ADD SWAP1 PUSH2 0x1F9 SWAP2 SWAP1 PUSH2 0x1773 JUMP JUMPDEST PUSH2 0x85D JUMP JUMPDEST PUSH1 0x40 MLOAD PUSH2 0x20B SWAP2 SWAP1 PUSH2 0xFEA JUMP JUMPDEST PUSH1 0x40 MLOAD DUP1 SWAP2 SUB SWAP1 RETURN JUMPDEST PUSH2 0x22E PUSH1 0x4 DUP1 CALLDATASIZE SUB DUP2 ADD SWAP1 PUSH2 0x229 SWAP2 SWAP1 PUSH2 0x17FF JUMP JUMPDEST PUSH2 0x958 JUMP JUMPDEST PUSH1 0x40 MLOAD PUSH2 0x23B SWAP2 SWAP1 PUSH2 0xFEA JUMP JUMPDEST PUSH1 0x40 MLOAD DUP1 SWAP2 SUB SWAP1 RETURN JUMPDEST PUSH2 0x24C PUSH2 0xA6C JUMP JUMPDEST STOP JUMPDEST PUSH2 0x256 PUSH2 0xA8D JUMP JUMPDEST PUSH1 0x40 MLOAD PUSH2 0x263 SWAP2 SWAP1 PUSH2 0x18BB JUMP JUMPDEST PUSH1 0x40 MLOAD DUP1 SWAP2 SUB SWAP1 RETURN JUMPDEST PUSH2 0x286 PUSH1 0x4 DUP1 CALLDATASIZE SUB DUP2 ADD SWAP1 PUSH2 0x281 SWAP2 SWAP1 PUSH2 0x18D6 JUMP JUMPDEST PUSH2 0xAB6 JUMP JUMPDEST PUSH1 0x40 MLOAD PUSH2 0x293 SWAP2 SWAP1 PUSH2 0xFEA JUMP JUMPDEST PUSH1 0x40 MLOAD DUP1 SWAP2 SUB SWAP1 RETURN JUMPDEST PUSH2 0x2A4 PUSH2 0xBB8 JUMP JUMPDEST PUSH1 0x40 MLOAD PUSH2 0x2B1 SWAP2 SWAP1 PUSH2 0x1AD7 JUMP JUMPDEST PUSH1 0x40 MLOAD DUP1 SWAP2 SUB SWAP1 RETURN JUMPDEST PUSH2 0x2C2 PUSH2 0xC83 JUMP JUMPDEST PUSH1 0x40 MLOAD PUSH2 0x2CF SWAP2 SWAP1 PUSH2 0x1C9A JUMP JUMPDEST PUSH1 0x40 MLOAD DUP1 SWAP2 SUB SWAP1 RETURN JUMPDEST PUSH2 0x2F2 PUSH1 0x4 DUP1 CALLDATASIZE SUB DUP2 ADD SWAP1 PUSH2 0x2ED SWAP2 SWAP1 PUSH2 0x1CE8 JUMP JUMPDEST PUSH2 0xD4E JUMP JUMPDEST STOP JUMPDEST PUSH2 0x2FC PUSH2 0xDD1 JUMP JUMPDEST PUSH1 0x40 MLOAD PUSH2 0x309 SWAP2 SWAP1 PUSH2 0x1D74 JUMP JUMPDEST PUSH1 0x40 MLOAD DUP1 SWAP2 SUB SWAP1 RETURN JUMPDEST PUSH1 0x0 DUP1 PUSH1 0x40 MLOAD DUP1 PUSH1 0x80 ADD PUSH1 0x40 MSTORE DUP1 PUSH1 0x0 DUP2 MSTORE PUSH1 0x20 ADD DUP7 DUP2 MSTORE PUSH1 0x20 ADD DUP6 DUP2 MSTORE PUSH1 0x20 ADD DUP5 DUP2 MSTORE POP SWAP1 POP PUSH1 0x1 PUSH1 0x0 SWAP1 SLOAD SWAP1 PUSH2 0x100 EXP SWAP1 DIV PUSH20 0xFFFFFFFFFFFFFFFFFFFFFFFFFFFFFFFFFFFFFFFF AND PUSH20 0xFFFFFFFFFFFFFFFFFFFFFFFFFFFFFFFFFFFFFFFF AND PUSH4 0x1D988D60 DUP3 PUSH32 0x8E1604A838D0F1A9B2CDA14A099E4CEB08E966CC6E05E8296F67B02D61A79F09 PUSH1 0x0 SHL PUSH1 0x40 MLOAD DUP4 PUSH4 0xFFFFFFFF AND PUSH1 0xE0 SHL DUP2 MSTORE PUSH1 0x4 ADD PUSH2 0x3B9 SWAP3 SWAP2 SWAP1 PUSH2 0x1DFD JUMP JUMPDEST PUSH1 0x20 PUSH1 0x40 MLOAD DUP1 DUP4 SUB DUP2 PUSH1 0x0 DUP8 GAS CALL ISZERO DUP1 ISZERO PUSH2 0x3D8 JUMPI RETURNDATASIZE PUSH1 0x0 DUP1 RETURNDATACOPY RETURNDATASIZE PUSH1 0x0 REVERT JUMPDEST POP POP POP POP PUSH1 0x40 MLOAD RETURNDATASIZE PUSH1 0x1F NOT PUSH1 0x1F DUP3 ADD AND DUP3 ADD DUP1 PUSH1 0x40 MSTORE POP DUP2 ADD SWAP1 PUSH2 0x3FC SWAP2 SWAP1 PUSH2 0x1E52 JUMP JUMPDEST SWAP2 POP POP SWAP4 SWAP3 POP POP POP JUMP JUMPDEST PUSH1 0x0 DUP1 PUSH1 0x40 MLOAD DUP1 PUSH1 0x80 ADD PUSH1 0x40 MSTORE DUP1 PUSH1 0x0 DUP2 MSTORE PUSH1 0x20 ADD DUP7 DUP2 MSTORE PUSH1 0x20 ADD DUP6 DUP2 MSTORE PUSH1 0x20 ADD DUP5 DUP2 MSTORE POP SWAP1 POP PUSH1 0x1 PUSH1 0x0 SWAP1 SLOAD SWAP1 PUSH2 0x100 EXP SWAP1 DIV PUSH20 0xFFFFFFFFFFFFFFFFFFFFFFFFFFFFFFFFFFFFFFFF AND PUSH20 0xFFFFFFFFFFFFFFFFFFFFFFFFFFFFFFFFFFFFFFFF AND PUSH4 0xEB1042BF DUP3 PUSH32 0x8E1604A838D0F1A9B2CDA14A099E4CEB08E966CC6E05E8296F67B02D61A79F09 PUSH1 0x0 SHL PUSH1 0x40 MLOAD DUP4 PUSH4 0xFFFFFFFF AND PUSH1 0xE0 SHL DUP2 MSTORE PUSH1 0x4 ADD PUSH2 0x4AD SWAP3 SWAP2 SWAP1 PUSH2 0x1EE2 JUMP JUMPDEST PUSH1 0x20 PUSH1 0x40 MLOAD DUP1 DUP4 SUB DUP2 PUSH1 0x0 DUP8 GAS CALL ISZERO DUP1 ISZERO PUSH2 0x4CC JUMPI RETURNDATASIZE PUSH1 0x0 DUP1 RETURNDATACOPY RETURNDATASIZE PUSH1 0x0 REVERT JUMPDEST POP POP POP POP PUSH1 0x40 MLOAD RETURNDATASIZE PUSH1 0x1F NOT PUSH1 0x1F DUP3 ADD AND DUP3 ADD DUP1 PUSH1 0x40 MSTORE POP DUP2 ADD SWAP1 PUSH2 0x4F0 SWAP2 SWAP1 PUSH2 0x1E52 JUMP JUMPDEST SWAP2 POP POP SWAP4 SWAP3 POP POP POP JUMP JUMPDEST PUSH1 0x60 PUSH1 0x1 PUSH1 0x0 SWAP1 SLOAD SWAP1 PUSH2 0x100 EXP SWAP1 DIV PUSH20 0xFFFFFFFFFFFFFFFFFFFFFFFFFFFFFFFFFFFFFFFF AND PUSH20 0xFFFFFFFFFFFFFFFFFFFFFFFFFFFFFFFFFFFFFFFF AND PUSH4 0x639D43F3 PUSH32 0x8E1604A838D0F1A9B2CDA14A099E4CEB08E966CC6E05E8296F67B02D61A79F09 PUSH1 0x0 SHL PUSH1 0x40 MLOAD DUP3 PUSH4 0xFFFFFFFF AND PUSH1 0xE0 SHL DUP2 MSTORE PUSH1 0x4 ADD PUSH2 0x57A SWAP2 SWAP1 PUSH2 0x1F12 JUMP JUMPDEST PUSH1 0x0 PUSH1 0x40 MLOAD DUP1 DUP4 SUB DUP2 DUP7 GAS STATICCALL ISZERO DUP1 ISZERO PUSH2 0x597 JUMPI RETURNDATASIZE PUSH1 0x0 DUP1 RETURNDATACOPY RETURNDATASIZE PUSH1 0x0 REVERT JUMPDEST POP POP POP POP PUSH1 0x40 MLOAD RETURNDATASIZE PUSH1 0x0 DUP3 RETURNDATACOPY RETURNDATASIZE PUSH1 0x1F NOT PUSH1 0x1F DUP3 ADD AND DUP3 ADD DUP1 PUSH1 0x40 MSTORE POP DUP2 ADD SWAP1 PUSH2 0x5C0 SWAP2 SWAP1 PUSH2 0x2159 JUMP JUMPDEST SWAP1 POP SWAP1 JUMP JUMPDEST PUSH1 0x60 PUSH1 0x1 PUSH1 0x0 SWAP1 SLOAD SWAP1 PUSH2 0x100 EXP SWAP1 DIV PUSH20 0xFFFFFFFFFFFFFFFFFFFFFFFFFFFFFFFFFFFFFFFF AND PUSH20 0xFFFFFFFFFFFFFFFFFFFFFFFFFFFFFFFFFFFFFFFF AND PUSH4 0x3609010E PUSH32 0x8E1604A838D0F1A9B2CDA14A099E4CEB08E966CC6E05E8296F67B02D61A79F09 PUSH1 0x0 SHL PUSH1 0x40 MLOAD DUP3 PUSH4 0xFFFFFFFF AND PUSH1 0xE0 SHL DUP2 MSTORE PUSH1 0x4 ADD PUSH2 0x645 SWAP2 SWAP1 PUSH2 0x1F12 JUMP JUMPDEST PUSH1 0x0 PUSH1 0x40 MLOAD DUP1 DUP4 SUB DUP2 DUP7 GAS STATICCALL ISZERO DUP1 ISZERO PUSH2 0x662 JUMPI RETURNDATASIZE PUSH1 0x0 DUP1 RETURNDATACOPY RETURNDATASIZE PUSH1 0x0 REVERT JUMPDEST POP POP POP POP PUSH1 0x40 MLOAD RETURNDATASIZE PUSH1 0x0 DUP3 RETURNDATACOPY RETURNDATASIZE PUSH1 0x1F NOT PUSH1 0x1F DUP3 ADD AND DUP3 ADD DUP1 PUSH1 0x40 MSTORE POP DUP2 ADD SWAP1 PUSH2 0x68B SWAP2 SWAP1 PUSH2 0x22DD JUMP JUMPDEST SWAP1 POP SWAP1 JUMP JUMPDEST PUSH1 0x0 DUP1 PUSH1 0x40 MLOAD DUP1 PUSH1 0xC0 ADD PUSH1 0x40 MSTORE DUP1 PUSH1 0x0 DUP2 MSTORE PUSH1 0x20 ADD DUP9 DUP2 MSTORE PUSH1 0x20 ADD DUP8 DUP2 MSTORE PUSH1 0x20 ADD DUP7 DUP2 MSTORE PUSH1 0x20 ADD DUP6 DUP2 MSTORE PUSH1 0x20 ADD DUP5 DUP2 MSTORE POP SWAP1 POP PUSH1 0x1 PUSH1 0x0 SWAP1 SLOAD SWAP1 PUSH2 0x100 EXP SWAP1 DIV PUSH20 0xFFFFFFFFFFFFFFFFFFFFFFFFFFFFFFFFFFFFFFFF AND PUSH20 0xFFFFFFFFFFFFFFFFFFFFFFFFFFFFFFFFFFFFFFFF AND PUSH4 0xC508A36E DUP3 PUSH32 0x8E1604A838D0F1A9B2CDA14A099E4CEB08E966CC6E05E8296F67B02D61A79F09 PUSH1 0x0 SHL PUSH1 0x40 MLOAD DUP4 PUSH4 0xFFFFFFFF AND PUSH1 0xE0 SHL DUP2 MSTORE PUSH1 0x4 ADD PUSH2 0x743 SWAP3 SWAP2 SWAP1 PUSH2 0x23AF JUMP JUMPDEST PUSH1 0x20 PUSH1 0x40 MLOAD DUP1 DUP4 SUB DUP2 PUSH1 0x0 DUP8 GAS CALL ISZERO DUP1 ISZERO PUSH2 0x762 JUMPI RETURNDATASIZE PUSH1 0x0 DUP1 RETURNDATACOPY RETURNDATASIZE PUSH1 0x0 REVERT JUMPDEST POP POP POP POP PUSH1 0x40 MLOAD RETURNDATASIZE PUSH1 0x1F NOT PUSH1 0x1F DUP3 ADD AND DUP3 ADD DUP1 PUSH1 0x40 MSTORE POP DUP2 ADD SWAP1 PUSH2 0x786 SWAP2 SWAP1 PUSH2 0x1E52 JUMP JUMPDEST SWAP2 POP POP SWAP6 SWAP5 POP POP POP POP POP JUMP JUMPDEST PUSH1 0x60 PUSH1 0x1 PUSH1 0x0 SWAP1 SLOAD SWAP1 PUSH2 0x100 EXP SWAP1 DIV PUSH20 0xFFFFFFFFFFFFFFFFFFFFFFFFFFFFFFFFFFFFFFFF AND PUSH20 0xFFFFFFFFFFFFFFFFFFFFFFFFFFFFFFFFFFFFFFFF AND PUSH4 0x1D769A9E PUSH32 0x8E1604A838D0F1A9B2CDA14A099E4CEB08E966CC6E05E8296F67B02D61A79F09 PUSH1 0x0 SHL PUSH1 0x40 MLOAD DUP3 PUSH4 0xFFFFFFFF AND PUSH1 0xE0 SHL DUP2 MSTORE PUSH1 0x4 ADD PUSH2 0x812 SWAP2 SWAP1 PUSH2 0x1F12 JUMP JUMPDEST PUSH1 0x0 PUSH1 0x40 MLOAD DUP1 DUP4 SUB DUP2 DUP7 GAS STATICCALL ISZERO DUP1 ISZERO PUSH2 0x82F JUMPI RETURNDATASIZE PUSH1 0x0 DUP1 RETURNDATACOPY RETURNDATASIZE PUSH1 0x0 REVERT JUMPDEST POP POP POP POP PUSH1 0x40 MLOAD RETURNDATASIZE PUSH1 0x0 DUP3 RETURNDATACOPY RETURNDATASIZE PUSH1 0x1F NOT PUSH1 0x1F DUP3 ADD AND DUP3 ADD DUP1 PUSH1 0x40 MSTORE POP DUP2 ADD SWAP1 PUSH2 0x858 SWAP2 SWAP1 PUSH2 0x252E JUMP JUMPDEST SWAP1 POP SWAP1 JUMP JUMPDEST PUSH1 0x0 DUP1 PUSH1 0x40 MLOAD DUP1 PUSH1 0xA0 ADD PUSH1 0x40 MSTORE DUP1 PUSH1 0x0 DUP2 MSTORE PUSH1 0x20 ADD DUP8 DUP2 MSTORE PUSH1 0x20 ADD DUP7 DUP2 MSTORE PUSH1 0x20 ADD DUP6 DUP2 MSTORE PUSH1 0x20 ADD DUP5 DUP2 MSTORE POP SWAP1 POP PUSH1 0x1 PUSH1 0x0 SWAP1 SLOAD SWAP1 PUSH2 0x100 EXP SWAP1 DIV PUSH20 0xFFFFFFFFFFFFFFFFFFFFFFFFFFFFFFFFFFFFFFFF AND PUSH20 0xFFFFFFFFFFFFFFFFFFFFFFFFFFFFFFFFFFFFFFFF AND PUSH4 0x4269E28B DUP3 PUSH32 0x8E1604A838D0F1A9B2CDA14A099E4CEB08E966CC6E05E8296F67B02D61A79F09 PUSH1 0x0 SHL PUSH1 0x40 MLOAD DUP4 PUSH4 0xFFFFFFFF AND PUSH1 0xE0 SHL DUP2 MSTORE PUSH1 0x4 ADD PUSH2 0x90A SWAP3 SWAP2 SWAP1 PUSH2 0x25DF JUMP JUMPDEST PUSH1 0x20 PUSH1 0x40 MLOAD DUP1 DUP4 SUB DUP2 PUSH1 0x0 DUP8 GAS CALL ISZERO DUP1 ISZERO PUSH2 0x929 JUMPI RETURNDATASIZE PUSH1 0x0 DUP1 RETURNDATACOPY RETURNDATASIZE PUSH1 0x0 REVERT JUMPDEST POP POP POP POP PUSH1 0x40 MLOAD RETURNDATASIZE PUSH1 0x1F NOT PUSH1 0x1F DUP3 ADD AND DUP3 ADD DUP1 PUSH1 0x40 MSTORE POP DUP2 ADD SWAP1 PUSH2 0x94D SWAP2 SWAP1 PUSH2 0x1E52 JUMP JUMPDEST SWAP2 POP POP SWAP5 SWAP4 POP POP POP POP JUMP JUMPDEST PUSH1 0x0 DUP1 PUSH1 0x40 MLOAD DUP1 PUSH1 0xC0 ADD PUSH1 0x40 MSTORE DUP1 PUSH1 0x0 DUP2 MSTORE PUSH1 0x20 ADD DUP9 DUP2 MSTORE PUSH1 0x20 ADD DUP8 PUSH1 0x2 DUP2 GT ISZERO PUSH2 0x986 JUMPI PUSH2 0x985 PUSH2 0x1B25 JUMP JUMPDEST JUMPDEST DUP2 MSTORE PUSH1 0x20 ADD DUP7 DUP2 MSTORE PUSH1 0x20 ADD DUP6 DUP2 MSTORE PUSH1 0x20 ADD DUP5 DUP2 MSTORE POP SWAP1 POP PUSH1 0x1 PUSH1 0x0 SWAP1 SLOAD SWAP1 PUSH2 0x100 EXP SWAP1 DIV PUSH20 0xFFFFFFFFFFFFFFFFFFFFFFFFFFFFFFFFFFFFFFFF AND PUSH20 0xFFFFFFFFFFFFFFFFFFFFFFFFFFFFFFFFFFFFFFFF AND PUSH4 0xBA03FE92 DUP3 PUSH32 0x8E1604A838D0F1A9B2CDA14A099E4CEB08E966CC6E05E8296F67B02D61A79F09 PUSH1 0x0 SHL PUSH1 0x40 MLOAD DUP4 PUSH4 0xFFFFFFFF AND PUSH1 0xE0 SHL DUP2 MSTORE PUSH1 0x4 ADD PUSH2 0xA1D SWAP3 SWAP2 SWAP1 PUSH2 0x2683 JUMP JUMPDEST PUSH1 0x20 PUSH1 0x40 MLOAD DUP1 DUP4 SUB DUP2 PUSH1 0x0 DUP8 GAS CALL ISZERO DUP1 ISZERO PUSH2 0xA3C JUMPI RETURNDATASIZE PUSH1 0x0 DUP1 RETURNDATACOPY RETURNDATASIZE PUSH1 0x0 REVERT JUMPDEST POP POP POP POP PUSH1 0x40 MLOAD RETURNDATASIZE PUSH1 0x1F NOT PUSH1 0x1F DUP3 ADD AND DUP3 ADD DUP1 PUSH1 0x40 MSTORE POP DUP2 ADD SWAP1 PUSH2 0xA60 SWAP2 SWAP1 PUSH2 0x1E52 JUMP JUMPDEST SWAP2 POP POP SWAP6 SWAP5 POP POP POP POP POP JUMP JUMPDEST PUSH2 0xA74 PUSH2 0xDF7 JUMP JUMPDEST ADDRESS PUSH20 0xFFFFFFFFFFFFFFFFFFFFFFFFFFFFFFFFFFFFFFFF AND SELFDESTRUCT JUMPDEST PUSH1 0x0 DUP1 PUSH1 0x0 SWAP1 SLOAD SWAP1 PUSH2 0x100 EXP SWAP1 DIV PUSH20 0xFFFFFFFFFFFFFFFFFFFFFFFFFFFFFFFFFFFFFFFF AND SWAP1 POP SWAP1 JUMP JUMPDEST PUSH1 0x0 DUP1 PUSH1 0x40 MLOAD DUP1 PUSH1 0x60 ADD PUSH1 0x40 MSTORE DUP1 PUSH1 0x0 DUP2 MSTORE PUSH1 0x20 ADD CALLER PUSH20 0xFFFFFFFFFFFFFFFFFFFFFFFFFFFFFFFFFFFFFFFF AND DUP2 MSTORE PUSH1 0x20 ADD DUP5 DUP2 MSTORE POP SWAP1 POP PUSH1 0x1 PUSH1 0x0 SWAP1 SLOAD SWAP1 PUSH2 0x100 EXP SWAP1 DIV PUSH20 0xFFFFFFFFFFFFFFFFFFFFFFFFFFFFFFFFFFFFFFFF AND PUSH20 0xFFFFFFFFFFFFFFFFFFFFFFFFFFFFFFFFFFFFFFFF AND PUSH4 0xE075CA01 DUP3 PUSH32 0x8E1604A838D0F1A9B2CDA14A099E4CEB08E966CC6E05E8296F67B02D61A79F09 PUSH1 0x0 SHL PUSH1 0x40 MLOAD DUP4 PUSH4 0xFFFFFFFF AND PUSH1 0xE0 SHL DUP2 MSTORE PUSH1 0x4 ADD PUSH2 0xB6D SWAP3 SWAP2 SWAP1 PUSH2 0x26FD JUMP JUMPDEST PUSH1 0x20 PUSH1 0x40 MLOAD DUP1 DUP4 SUB DUP2 PUSH1 0x0 DUP8 GAS CALL ISZERO DUP1 ISZERO PUSH2 0xB8C JUMPI RETURNDATASIZE PUSH1 0x0 DUP1 RETURNDATACOPY RETURNDATASIZE PUSH1 0x0 REVERT JUMPDEST POP POP POP POP PUSH1 0x40 MLOAD RETURNDATASIZE PUSH1 0x1F NOT PUSH1 0x1F DUP3 ADD AND DUP3 ADD DUP1 PUSH1 0x40 MSTORE POP DUP2 ADD SWAP1 PUSH2 0xBB0 SWAP2 SWAP1 PUSH2 0x1E52 JUMP JUMPDEST SWAP2 POP POP SWAP2 SWAP1 POP JUMP JUMPDEST PUSH1 0x60 PUSH1 0x1 PUSH1 0x0 SWAP1 SLOAD SWAP1 PUSH2 0x100 EXP SWAP1 DIV PUSH20 0xFFFFFFFFFFFFFFFFFFFFFFFFFFFFFFFFFFFFFFFF AND PUSH20 0xFFFFFFFFFFFFFFFFFFFFFFFFFFFFFFFFFFFFFFFF AND PUSH4 0x48C1B2CD PUSH32 0x8E1604A838D0F1A9B2CDA14A099E4CEB08E966CC6E05E8296F67B02D61A79F09 PUSH1 0x0 SHL PUSH1 0x40 MLOAD DUP3 PUSH4 0xFFFFFFFF AND PUSH1 0xE0 SHL DUP2 MSTORE PUSH1 0x4 ADD PUSH2 0xC38 SWAP2 SWAP1 PUSH2 0x1F12 JUMP JUMPDEST PUSH1 0x0 PUSH1 0x40 MLOAD DUP1 DUP4 SUB DUP2 DUP7 GAS STATICCALL ISZERO DUP1 ISZERO PUSH2 0xC55 JUMPI RETURNDATASIZE PUSH1 0x0 DUP1 RETURNDATACOPY RETURNDATASIZE PUSH1 0x0 REVERT JUMPDEST POP POP POP POP PUSH1 0x40 MLOAD RETURNDATASIZE PUSH1 0x0 DUP3 RETURNDATACOPY RETURNDATASIZE PUSH1 0x1F NOT PUSH1 0x1F DUP3 ADD AND DUP3 ADD DUP1 PUSH1 0x40 MSTORE POP DUP2 ADD SWAP1 PUSH2 0xC7E SWAP2 SWAP1 PUSH2 0x2932 JUMP JUMPDEST SWAP1 POP SWAP1 JUMP JUMPDEST PUSH1 0x60 PUSH1 0x1 PUSH1 0x0 SWAP1 SLOAD SWAP1 PUSH2 0x100 EXP SWAP1 DIV PUSH20 0xFFFFFFFFFFFFFFFFFFFFFFFFFFFFFFFFFFFFFFFF AND PUSH20 0xFFFFFFFFFFFFFFFFFFFFFFFFFFFFFFFFFFFFFFFF AND PUSH4 0x552436B3 PUSH32 0x8E1604A838D0F1A9B2CDA14A099E4CEB08E966CC6E05E8296F67B02D61A79F09 PUSH1 0x0 SHL PUSH1 0x40 MLOAD DUP3 PUSH4 0xFFFFFFFF AND PUSH1 0xE0 SHL DUP2 MSTORE PUSH1 0x4 ADD PUSH2 0xD03 SWAP2 SWAP1 PUSH2 0x1F12 JUMP JUMPDEST PUSH1 0x0 PUSH1 0x40 MLOAD DUP1 DUP4 SUB DUP2 DUP7 GAS STATICCALL ISZERO DUP1 ISZERO PUSH2 0xD20 JUMPI RETURNDATASIZE PUSH1 0x0 DUP1 RETURNDATACOPY RETURNDATASIZE PUSH1 0x0 REVERT JUMPDEST POP POP POP POP PUSH1 0x40 MLOAD RETURNDATASIZE PUSH1 0x0 DUP3 RETURNDATACOPY RETURNDATASIZE PUSH1 0x1F NOT PUSH1 0x1F DUP3 ADD AND DUP3 ADD DUP1 PUSH1 0x40 MSTORE POP DUP2 ADD SWAP1 PUSH2 0xD49 SWAP2 SWAP1 PUSH2 0x2AF3 JUMP JUMPDEST SWAP1 POP SWAP1 JUMP JUMPDEST PUSH2 0xD56 PUSH2 0xDF7 JUMP JUMPDEST PUSH1 0x0 PUSH20 0xFFFFFFFFFFFFFFFFFFFFFFFFFFFFFFFFFFFFFFFF AND DUP2 PUSH20 0xFFFFFFFFFFFFFFFFFFFFFFFFFFFFFFFFFFFFFFFF AND SUB PUSH2 0xDC5 JUMPI PUSH1 0x40 MLOAD PUSH32 0x8C379A000000000000000000000000000000000000000000000000000000000 DUP2 MSTORE PUSH1 0x4 ADD PUSH2 0xDBC SWAP1 PUSH2 0x2BBF JUMP JUMPDEST PUSH1 0x40 MLOAD DUP1 SWAP2 SUB SWAP1 REVERT JUMPDEST PUSH2 0xDCE DUP2 PUSH2 0xE6E JUMP JUMPDEST POP JUMP JUMPDEST PUSH1 0x1 PUSH1 0x0 SWAP1 SLOAD SWAP1 PUSH2 0x100 EXP SWAP1 DIV PUSH20 0xFFFFFFFFFFFFFFFFFFFFFFFFFFFFFFFFFFFFFFFF AND DUP2 JUMP JUMPDEST CALLER PUSH20 0xFFFFFFFFFFFFFFFFFFFFFFFFFFFFFFFFFFFFFFFF AND PUSH2 0xE16 PUSH2 0xA8D JUMP JUMPDEST PUSH20 0xFFFFFFFFFFFFFFFFFFFFFFFFFFFFFFFFFFFFFFFF AND EQ PUSH2 0xE6C JUMPI PUSH1 0x40 MLOAD PUSH32 0x8C379A000000000000000000000000000000000000000000000000000000000 DUP2 MSTORE PUSH1 0x4 ADD PUSH2 0xE63 SWAP1 PUSH2 0x2C2B JUMP JUMPDEST PUSH1 0x40 MLOAD DUP1 SWAP2 SUB SWAP1 REVERT JUMPDEST JUMP JUMPDEST PUSH1 0x0 DUP1 PUSH1 0x0 SWAP1 SLOAD SWAP1 PUSH2 0x100 EXP SWAP1 DIV PUSH20 0xFFFFFFFFFFFFFFFFFFFFFFFFFFFFFFFFFFFFFFFF AND SWAP1 POP DUP2 PUSH1 0x0 DUP1 PUSH2 0x100 EXP DUP2 SLOAD DUP2 PUSH20 0xFFFFFFFFFFFFFFFFFFFFFFFFFFFFFFFFFFFFFFFF MUL NOT AND SWAP1 DUP4 PUSH20 0xFFFFFFFFFFFFFFFFFFFFFFFFFFFFFFFFFFFFFFFF AND MUL OR SWAP1 SSTORE POP DUP2 PUSH20 0xFFFFFFFFFFFFFFFFFFFFFFFFFFFFFFFFFFFFFFFF AND DUP2 PUSH20 0xFFFFFFFFFFFFFFFFFFFFFFFFFFFFFFFFFFFFFFFF AND PUSH32 0x8BE0079C531659141344CD1FD0A4F28419497F9722A3DAAFE3B4186F6B6457E0 PUSH1 0x40 MLOAD PUSH1 0x40 MLOAD DUP1 SWAP2 SUB SWAP1 LOG3 POP POP JUMP JUMPDEST PUSH1 0x0 PUSH1 0x40 MLOAD SWAP1 POP SWAP1 JUMP JUMPDEST PUSH1 0x0 DUP1 REVERT JUMPDEST PUSH1 0x0 DUP1 REVERT JUMPDEST PUSH1 0x0 DUP2 SWAP1 POP SWAP2 SWAP1 POP JUMP JUMPDEST PUSH2 0xF59 DUP2 PUSH2 0xF46 JUMP JUMPDEST DUP2 EQ PUSH2 0xF64 JUMPI PUSH1 0x0 DUP1 REVERT JUMPDEST POP JUMP JUMPDEST PUSH1 0x0 DUP2 CALLDATALOAD SWAP1 POP PUSH2 0xF76 DUP2 PUSH2 0xF50 JUMP JUMPDEST SWAP3 SWAP2 POP POP JUMP JUMPDEST PUSH1 0x0 DUP1 PUSH1 0x0 PUSH1 0x60 DUP5 DUP7 SUB SLT ISZERO PUSH2 0xF95 JUMPI PUSH2 0xF94 PUSH2 0xF3C JUMP JUMPDEST JUMPDEST PUSH1 0x0 PUSH2 0xFA3 DUP7 DUP3 DUP8 ADD PUSH2 0xF67 JUMP JUMPDEST SWAP4 POP POP PUSH1 0x20 PUSH2 0xFB4 DUP7 DUP3 DUP8 ADD PUSH2 0xF67 JUMP JUMPDEST SWAP3 POP POP PUSH1 0x40 PUSH2 0xFC5 DUP7 DUP3 DUP8 ADD PUSH2 0xF67 JUMP JUMPDEST SWAP2 POP POP SWAP3 POP SWAP3 POP SWAP3 JUMP JUMPDEST PUSH1 0x0 DUP2 ISZERO ISZERO SWAP1 POP SWAP2 SWAP1 POP JUMP JUMPDEST PUSH2 0xFE4 DUP2 PUSH2 0xFCF JUMP JUMPDEST DUP3 MSTORE POP POP JUMP JUMPDEST PUSH1 0x0 PUSH1 0x20 DUP3 ADD SWAP1 POP PUSH2 0xFFF PUSH1 0x0 DUP4 ADD DUP5 PUSH2 0xFDB JUMP JUMPDEST SWAP3 SWAP2 POP POP JUMP JUMPDEST PUSH1 0x0 DUP1 REVERT JUMPDEST PUSH1 0x0 PUSH1 0x1F NOT PUSH1 0x1F DUP4 ADD AND SWAP1 POP SWAP2 SWAP1 POP JUMP JUMPDEST PUSH32 0x4E487B7100000000000000000000000000000000000000000000000000000000 PUSH1 0x0 MSTORE PUSH1 0x41 PUSH1 0x4 MSTORE PUSH1 0x24 PUSH1 0x0 REVERT JUMPDEST PUSH2 0x1053 DUP3 PUSH2 0x100A JUMP JUMPDEST DUP2 ADD DUP2 DUP2 LT PUSH8 0xFFFFFFFFFFFFFFFF DUP3 GT OR ISZERO PUSH2 0x1072 JUMPI PUSH2 0x1071 PUSH2 0x101B JUMP JUMPDEST JUMPDEST DUP1 PUSH1 0x40 MSTORE POP POP POP JUMP JUMPDEST PUSH1 0x0 PUSH2 0x1085 PUSH2 0xF32 JUMP JUMPDEST SWAP1 POP PUSH2 0x1091 DUP3 DUP3 PUSH2 0x104A JUMP JUMPDEST SWAP2 SWAP1 POP JUMP JUMPDEST PUSH1 0x0 PUSH8 0xFFFFFFFFFFFFFFFF DUP3 GT ISZERO PUSH2 0x10B1 JUMPI PUSH2 0x10B0 PUSH2 0x101B JUMP JUMPDEST JUMPDEST PUSH1 0x20 DUP3 MUL SWAP1 POP PUSH1 0x20 DUP2 ADD SWAP1 POP SWAP2 SWAP1 POP JUMP JUMPDEST PUSH1 0x0 DUP1 REVERT JUMPDEST PUSH1 0x0 PUSH2 0x10DA PUSH2 0x10D5 DUP5 PUSH2 0x1096 JUMP JUMPDEST PUSH2 0x107B JUMP JUMPDEST SWAP1 POP DUP1 DUP4 DUP3 MSTORE PUSH1 0x20 DUP3 ADD SWAP1 POP PUSH1 0x20 DUP5 MUL DUP4 ADD DUP6 DUP2 GT ISZERO PUSH2 0x10FD JUMPI PUSH2 0x10FC PUSH2 0x10C2 JUMP JUMPDEST JUMPDEST DUP4 JUMPDEST DUP2 DUP2 LT ISZERO PUSH2 0x1126 JUMPI DUP1 PUSH2 0x1112 DUP9 DUP3 PUSH2 0xF67 JUMP JUMPDEST DUP5 MSTORE PUSH1 0x20 DUP5 ADD SWAP4 POP POP PUSH1 0x20 DUP2 ADD SWAP1 POP PUSH2 0x10FF JUMP JUMPDEST POP POP POP SWAP4 SWAP3 POP POP POP JUMP JUMPDEST PUSH1 0x0 DUP3 PUSH1 0x1F DUP4 ADD SLT PUSH2 0x1145 JUMPI PUSH2 0x1144 PUSH2 0x1005 JUMP JUMPDEST JUMPDEST DUP2 CALLDATALOAD PUSH2 0x1155 DUP5 DUP3 PUSH1 0x20 DUP7 ADD PUSH2 0x10C7 JUMP JUMPDEST SWAP2 POP POP SWAP3 SWAP2 POP POP JUMP JUMPDEST PUSH1 0x0 DUP1 PUSH1 0x0 PUSH1 0x60 DUP5 DUP7 SUB SLT ISZERO PUSH2 0x1177 JUMPI PUSH2 0x1176 PUSH2 0xF3C JUMP JUMPDEST JUMPDEST PUSH1 0x0 PUSH2 0x1185 DUP7 DUP3 DUP8 ADD PUSH2 0xF67 JUMP JUMPDEST SWAP4 POP POP PUSH1 0x20 PUSH2 0x1196 DUP7 DUP3 DUP8 ADD PUSH2 0xF67 JUMP JUMPDEST SWAP3 POP POP PUSH1 0x40 DUP5 ADD CALLDATALOAD PUSH8 0xFFFFFFFFFFFFFFFF DUP2 GT ISZERO PUSH2 0x11B7 JUMPI PUSH2 0x11B6 PUSH2 0xF41 JUMP JUMPDEST JUMPDEST PUSH2 0x11C3 DUP7 DUP3 DUP8 ADD PUSH2 0x1130 JUMP JUMPDEST SWAP2 POP POP SWAP3 POP SWAP3 POP SWAP3 JUMP JUMPDEST PUSH1 0x0 DUP2 MLOAD SWAP1 POP SWAP2 SWAP1 POP JUMP JUMPDEST PUSH1 0x0 DUP3 DUP3 MSTORE PUSH1 0x20 DUP3 ADD SWAP1 POP SWAP3 SWAP2 POP POP JUMP JUMPDEST PUSH1 0x0 DUP2 SWAP1 POP PUSH1 0x20 DUP3 ADD SWAP1 POP SWAP2 SWAP1 POP JUMP JUMPDEST PUSH2 0x1202 DUP2 PUSH2 0xF46 JUMP JUMPDEST DUP3 MSTORE POP POP JUMP JUMPDEST PUSH1 0x0 DUP2 MLOAD SWAP1 POP SWAP2 SWAP1 POP JUMP JUMPDEST PUSH1 0x0 DUP3 DUP3 MSTORE PUSH1 0x20 DUP3 ADD SWAP1 POP SWAP3 SWAP2 POP POP JUMP JUMPDEST PUSH1 0x0 JUMPDEST DUP4 DUP2 LT ISZERO PUSH2 0x1242 JUMPI DUP1 DUP3 ADD MLOAD DUP2 DUP5 ADD MSTORE PUSH1 0x20 DUP2 ADD SWAP1 POP PUSH2 0x1227 JUMP JUMPDEST PUSH1 0x0 DUP5 DUP5 ADD MSTORE POP POP POP POP JUMP JUMPDEST PUSH1 0x0 PUSH2 0x1259 DUP3 PUSH2 0x1208 JUMP JUMPDEST PUSH2 0x1263 DUP2 DUP6 PUSH2 0x1213 JUMP JUMPDEST SWAP4 POP PUSH2 0x1273 DUP2 DUP6 PUSH1 0x20 DUP7 ADD PUSH2 0x1224 JUMP JUMPDEST PUSH2 0x127C DUP2 PUSH2 0x100A JUMP JUMPDEST DUP5 ADD SWAP2 POP POP SWAP3 SWAP2 POP POP JUMP JUMPDEST PUSH1 0x0 PUSH1 0xC0 DUP4 ADD PUSH1 0x0 DUP4 ADD MLOAD PUSH2 0x129F PUSH1 0x0 DUP7 ADD DUP3 PUSH2 0x11F9 JUMP JUMPDEST POP PUSH1 0x20 DUP4 ADD MLOAD PUSH2 0x12B2 PUSH1 0x20 DUP7 ADD DUP3 PUSH2 0x11F9 JUMP JUMPDEST POP PUSH1 0x40 DUP4 ADD MLOAD DUP5 DUP3 SUB PUSH1 0x40 DUP7 ADD MSTORE PUSH2 0x12CA DUP3 DUP3 PUSH2 0x124E JUMP JUMPDEST SWAP2 POP POP PUSH1 0x60 DUP4 ADD MLOAD PUSH2 0x12DF PUSH1 0x60 DUP7 ADD DUP3 PUSH2 0x11F9 JUMP JUMPDEST POP PUSH1 0x80 DUP4 ADD MLOAD PUSH2 0x12F2 PUSH1 0x80 DUP7 ADD DUP3 PUSH2 0x11F9 JUMP JUMPDEST POP PUSH1 0xA0 DUP4 ADD MLOAD PUSH2 0x1305 PUSH1 0xA0 DUP7 ADD DUP3 PUSH2 0x11F9 JUMP JUMPDEST POP DUP1 SWAP2 POP POP SWAP3 SWAP2 POP POP JUMP JUMPDEST PUSH1 0x0 PUSH2 0x131C DUP4 DUP4 PUSH2 0x1287 JUMP JUMPDEST SWAP1 POP SWAP3 SWAP2 POP POP JUMP JUMPDEST PUSH1 0x0 PUSH1 0x20 DUP3 ADD SWAP1 POP SWAP2 SWAP1 POP JUMP JUMPDEST PUSH1 0x0 PUSH2 0x133C DUP3 PUSH2 0x11CD JUMP JUMPDEST PUSH2 0x1346 DUP2 DUP6 PUSH2 0x11D8 JUMP JUMPDEST SWAP4 POP DUP4 PUSH1 0x20 DUP3 MUL DUP6 ADD PUSH2 0x1358 DUP6 PUSH2 0x11E9 JUMP JUMPDEST DUP1 PUSH1 0x0 JUMPDEST DUP6 DUP2 LT ISZERO PUSH2 0x1394 JUMPI DUP5 DUP5 SUB DUP10 MSTORE DUP2 MLOAD PUSH2 0x1375 DUP6 DUP3 PUSH2 0x1310 JUMP JUMPDEST SWAP5 POP PUSH2 0x1380 DUP4 PUSH2 0x1324 JUMP JUMPDEST SWAP3 POP PUSH1 0x20 DUP11 ADD SWAP10 POP POP PUSH1 0x1 DUP2 ADD SWAP1 POP PUSH2 0x135C JUMP JUMPDEST POP DUP3 SWAP8 POP DUP8 SWAP6 POP POP POP POP POP POP SWAP3 SWAP2 POP POP JUMP JUMPDEST PUSH1 0x0 PUSH1 0x20 DUP3 ADD SWAP1 POP DUP2 DUP2 SUB PUSH1 0x0 DUP4 ADD MSTORE PUSH2 0x13C0 DUP2 DUP5 PUSH2 0x1331 JUMP JUMPDEST SWAP1 POP SWAP3 SWAP2 POP POP JUMP JUMPDEST PUSH1 0x0 DUP2 MLOAD SWAP1 POP SWAP2 SWAP1 POP JUMP JUMPDEST PUSH1 0x0 DUP3 DUP3 MSTORE PUSH1 0x20 DUP3 ADD SWAP1 POP SWAP3 SWAP2 POP POP JUMP JUMPDEST PUSH1 0x0 DUP2 SWAP1 POP PUSH1 0x20 DUP3 ADD SWAP1 POP SWAP2 SWAP1 POP JUMP JUMPDEST PUSH1 0x80 DUP3 ADD PUSH1 0x0 DUP3 ADD MLOAD PUSH2 0x140A PUSH1 0x0 DUP6 ADD DUP3 PUSH2 0x11F9 JUMP JUMPDEST POP PUSH1 0x20 DUP3 ADD MLOAD PUSH2 0x141D PUSH1 0x20 DUP6 ADD DUP3 PUSH2 0x11F9 JUMP JUMPDEST POP PUSH1 0x40 DUP3 ADD MLOAD PUSH2 0x1430 PUSH1 0x40 DUP6 ADD DUP3 PUSH2 0x11F9 JUMP JUMPDEST POP PUSH1 0x60 DUP3 ADD MLOAD PUSH2 0x1443 PUSH1 0x60 DUP6 ADD DUP3 PUSH2 0x11F9 JUMP JUMPDEST POP POP POP POP JUMP JUMPDEST PUSH1 0x0 PUSH2 0x1455 DUP4 DUP4 PUSH2 0x13F4 JUMP JUMPDEST PUSH1 0x80 DUP4 ADD SWAP1 POP SWAP3 SWAP2 POP POP JUMP JUMPDEST PUSH1 0x0 PUSH1 0x20 DUP3 ADD SWAP1 POP SWAP2 SWAP1 POP JUMP JUMPDEST PUSH1 0x0 PUSH2 0x1479 DUP3 PUSH2 0x13C8 JUMP JUMPDEST PUSH2 0x1483 DUP2 DUP6 PUSH2 0x13D3 JUMP JUMPDEST SWAP4 POP PUSH2 0x148E DUP4 PUSH2 0x13E4 JUMP JUMPDEST DUP1 PUSH1 0x0 JUMPDEST DUP4 DUP2 LT ISZERO PUSH2 0x14BF JUMPI DUP2 MLOAD PUSH2 0x14A6 DUP9 DUP3 PUSH2 0x1449 JUMP JUMPDEST SWAP8 POP PUSH2 0x14B1 DUP4 PUSH2 0x1461 JUMP JUMPDEST SWAP3 POP POP PUSH1 0x1 DUP2 ADD SWAP1 POP PUSH2 0x1492 JUMP JUMPDEST POP DUP6 SWAP4 POP POP POP POP SWAP3 SWAP2 POP POP JUMP JUMPDEST PUSH1 0x0 PUSH1 0x20 DUP3 ADD SWAP1 POP DUP2 DUP2 SUB PUSH1 0x0 DUP4 ADD MSTORE PUSH2 0x14E6 DUP2 DUP5 PUSH2 0x146E JUMP JUMPDEST SWAP1 POP SWAP3 SWAP2 POP POP JUMP JUMPDEST PUSH1 0x0 DUP1 REVERT JUMPDEST PUSH1 0x0 PUSH8 0xFFFFFFFFFFFFFFFF DUP3 GT ISZERO PUSH2 0x150E JUMPI PUSH2 0x150D PUSH2 0x101B JUMP JUMPDEST JUMPDEST PUSH2 0x1517 DUP3 PUSH2 0x100A JUMP JUMPDEST SWAP1 POP PUSH1 0x20 DUP2 ADD SWAP1 POP SWAP2 SWAP1 POP JUMP JUMPDEST DUP3 DUP2 DUP4 CALLDATACOPY PUSH1 0x0 DUP4 DUP4 ADD MSTORE POP POP POP JUMP JUMPDEST PUSH1 0x0 PUSH2 0x1546 PUSH2 0x1541 DUP5 PUSH2 0x14F3 JUMP JUMPDEST PUSH2 0x107B JUMP JUMPDEST SWAP1 POP DUP3 DUP2 MSTORE PUSH1 0x20 DUP2 ADD DUP5 DUP5 DUP5 ADD GT ISZERO PUSH2 0x1562 JUMPI PUSH2 0x1561 PUSH2 0x14EE JUMP JUMPDEST JUMPDEST PUSH2 0x156D DUP5 DUP3 DUP6 PUSH2 0x1524 JUMP JUMPDEST POP SWAP4 SWAP3 POP POP POP JUMP JUMPDEST PUSH1 0x0 DUP3 PUSH1 0x1F DUP4 ADD SLT PUSH2 0x158A JUMPI PUSH2 0x1589 PUSH2 0x1005 JUMP JUMPDEST JUMPDEST DUP2 CALLDATALOAD PUSH2 0x159A DUP5 DUP3 PUSH1 0x20 DUP7 ADD PUSH2 0x1533 JUMP JUMPDEST SWAP2 POP POP SWAP3 SWAP2 POP POP JUMP JUMPDEST PUSH1 0x0 DUP1 PUSH1 0x0 DUP1 PUSH1 0x0 PUSH1 0xA0 DUP7 DUP9 SUB SLT ISZERO PUSH2 0x15BF JUMPI PUSH2 0x15BE PUSH2 0xF3C JUMP JUMPDEST JUMPDEST PUSH1 0x0 PUSH2 0x15CD DUP9 DUP3 DUP10 ADD PUSH2 0xF67 JUMP JUMPDEST SWAP6 POP POP PUSH1 0x20 DUP7 ADD CALLDATALOAD PUSH8 0xFFFFFFFFFFFFFFFF DUP2 GT ISZERO PUSH2 0x15EE JUMPI PUSH2 0x15ED PUSH2 0xF41 JUMP JUMPDEST JUMPDEST PUSH2 0x15FA DUP9 DUP3 DUP10 ADD PUSH2 0x1575 JUMP JUMPDEST SWAP5 POP POP PUSH1 0x40 PUSH2 0x160B DUP9 DUP3 DUP10 ADD PUSH2 0xF67 JUMP JUMPDEST SWAP4 POP POP PUSH1 0x60 PUSH2 0x161C DUP9 DUP3 DUP10 ADD PUSH2 0xF67 JUMP JUMPDEST SWAP3 POP POP PUSH1 0x80 PUSH2 0x162D DUP9 DUP3 DUP10 ADD PUSH2 0xF67 JUMP JUMPDEST SWAP2 POP POP SWAP3 SWAP6 POP SWAP3 SWAP6 SWAP1 SWAP4 POP JUMP JUMPDEST PUSH1 0x0 DUP2 MLOAD SWAP1 POP SWAP2 SWAP1 POP JUMP JUMPDEST PUSH1 0x0 DUP3 DUP3 MSTORE PUSH1 0x20 DUP3 ADD SWAP1 POP SWAP3 SWAP2 POP POP JUMP JUMPDEST PUSH1 0x0 DUP2 SWAP1 POP PUSH1 0x20 DUP3 ADD SWAP1 POP SWAP2 SWAP1 POP JUMP JUMPDEST PUSH1 0xA0 DUP3 ADD PUSH1 0x0 DUP3 ADD MLOAD PUSH2 0x167C PUSH1 0x0 DUP6 ADD DUP3 PUSH2 0x11F9 JUMP JUMPDEST POP PUSH1 0x20 DUP3 ADD MLOAD PUSH2 0x168F PUSH1 0x20 DUP6 ADD DUP3 PUSH2 0x11F9 JUMP JUMPDEST POP PUSH1 0x40 DUP3 ADD MLOAD PUSH2 0x16A2 PUSH1 0x40 DUP6 ADD DUP3 PUSH2 0x11F9 JUMP JUMPDEST POP PUSH1 0x60 DUP3 ADD MLOAD PUSH2 0x16B5 PUSH1 0x60 DUP6 ADD DUP3 PUSH2 0x11F9 JUMP JUMPDEST POP PUSH1 0x80 DUP3 ADD MLOAD PUSH2 0x16C8 PUSH1 0x80 DUP6 ADD DUP3 PUSH2 0x11F9 JUMP JUMPDEST POP POP POP POP JUMP JUMPDEST PUSH1 0x0 PUSH2 0x16DA DUP4 DUP4 PUSH2 0x1666 JUMP JUMPDEST PUSH1 0xA0 DUP4 ADD SWAP1 POP SWAP3 SWAP2 POP POP JUMP JUMPDEST PUSH1 0x0 PUSH1 0x20 DUP3 ADD SWAP1 POP SWAP2 SWAP1 POP JUMP JUMPDEST PUSH1 0x0 PUSH2 0x16FE DUP3 PUSH2 0x163A JUMP JUMPDEST PUSH2 0x1708 DUP2 DUP6 PUSH2 0x1645 JUMP JUMPDEST SWAP4 POP PUSH2 0x1713 DUP4 PUSH2 0x1656 JUMP JUMPDEST DUP1 PUSH1 0x0 JUMPDEST DUP4 DUP2 LT ISZERO PUSH2 0x1744 JUMPI DUP2 MLOAD PUSH2 0x172B DUP9 DUP3 PUSH2 0x16CE JUMP JUMPDEST SWAP8 POP PUSH2 0x1736 DUP4 PUSH2 0x16E6 JUMP JUMPDEST SWAP3 POP POP PUSH1 0x1 DUP2 ADD SWAP1 POP PUSH2 0x1717 JUMP JUMPDEST POP DUP6 SWAP4 POP POP POP POP SWAP3 SWAP2 POP POP JUMP JUMPDEST PUSH1 0x0 PUSH1 0x20 DUP3 ADD SWAP1 POP DUP2 DUP2 SUB PUSH1 0x0 DUP4 ADD MSTORE PUSH2 0x176B DUP2 DUP5 PUSH2 0x16F3 JUMP JUMPDEST SWAP1 POP SWAP3 SWAP2 POP POP JUMP JUMPDEST PUSH1 0x0 DUP1 PUSH1 0x0 DUP1 PUSH1 0x80 DUP6 DUP8 SUB SLT ISZERO PUSH2 0x178D JUMPI PUSH2 0x178C PUSH2 0xF3C JUMP JUMPDEST JUMPDEST PUSH1 0x0 PUSH2 0x179B DUP8 DUP3 DUP9 ADD PUSH2 0xF67 JUMP JUMPDEST SWAP5 POP POP PUSH1 0x20 PUSH2 0x17AC DUP8 DUP3 DUP9 ADD PUSH2 0xF67 JUMP JUMPDEST SWAP4 POP POP PUSH1 0x40 PUSH2 0x17BD DUP8 DUP3 DUP9 ADD PUSH2 0xF67 JUMP JUMPDEST SWAP3 POP POP PUSH1 0x60 PUSH2 0x17CE DUP8 DUP3 DUP9 ADD PUSH2 0xF67 JUMP JUMPDEST SWAP2 POP POP SWAP3 SWAP6 SWAP2 SWAP5 POP SWAP3 POP JUMP JUMPDEST PUSH1 0x3 DUP2 LT PUSH2 0x17E7 JUMPI PUSH1 0x0 DUP1 REVERT JUMPDEST POP JUMP JUMPDEST PUSH1 0x0 DUP2 CALLDATALOAD SWAP1 POP PUSH2 0x17F9 DUP2 PUSH2 0x17DA JUMP JUMPDEST SWAP3 SWAP2 POP POP JUMP JUMPDEST PUSH1 0x0 DUP1 PUSH1 0x0 DUP1 PUSH1 0x0 PUSH1 0xA0 DUP7 DUP9 SUB SLT ISZERO PUSH2 0x181B JUMPI PUSH2 0x181A PUSH2 0xF3C JUMP JUMPDEST JUMPDEST PUSH1 0x0 PUSH2 0x1829 DUP9 DUP3 DUP10 ADD PUSH2 0xF67 JUMP JUMPDEST SWAP6 POP POP PUSH1 0x20 PUSH2 0x183A DUP9 DUP3 DUP10 ADD PUSH2 0x17EA JUMP JUMPDEST SWAP5 POP POP PUSH1 0x40 PUSH2 0x184B DUP9 DUP3 DUP10 ADD PUSH2 0xF67 JUMP JUMPDEST SWAP4 POP POP PUSH1 0x60 PUSH2 0x185C DUP9 DUP3 DUP10 ADD PUSH2 0xF67 JUMP JUMPDEST SWAP3 POP POP PUSH1 0x80 PUSH2 0x186D DUP9 DUP3 DUP10 ADD PUSH2 0xF67 JUMP JUMPDEST SWAP2 POP POP SWAP3 SWAP6 POP SWAP3 SWAP6 SWAP1 SWAP4 POP JUMP JUMPDEST PUSH1 0x0 PUSH20 0xFFFFFFFFFFFFFFFFFFFFFFFFFFFFFFFFFFFFFFFF DUP3 AND SWAP1 POP SWAP2 SWAP1 POP JUMP JUMPDEST PUSH1 0x0 PUSH2 0x18A5 DUP3 PUSH2 0x187A JUMP JUMPDEST SWAP1 POP SWAP2 SWAP1 POP JUMP JUMPDEST PUSH2 0x18B5 DUP2 PUSH2 0x189A JUMP JUMPDEST DUP3 MSTORE POP POP JUMP JUMPDEST PUSH1 0x0 PUSH1 0x20 DUP3 ADD SWAP1 POP PUSH2 0x18D0 PUSH1 0x0 DUP4 ADD DUP5 PUSH2 0x18AC JUMP JUMPDEST SWAP3 SWAP2 POP POP JUMP JUMPDEST PUSH1 0x0 PUSH1 0x20 DUP3 DUP5 SUB SLT ISZERO PUSH2 0x18EC JUMPI PUSH2 0x18EB PUSH2 0xF3C JUMP JUMPDEST JUMPDEST PUSH1 0x0 PUSH2 0x18FA DUP5 DUP3 DUP6 ADD PUSH2 0xF67 JUMP JUMPDEST SWAP2 POP POP SWAP3 SWAP2 POP POP JUMP JUMPDEST PUSH1 0x0 DUP2 MLOAD SWAP1 POP SWAP2 SWAP1 POP JUMP JUMPDEST PUSH1 0x0 DUP3 DUP3 MSTORE PUSH1 0x20 DUP3 ADD SWAP1 POP SWAP3 SWAP2 POP POP JUMP JUMPDEST PUSH1 0x0 DUP2 SWAP1 POP PUSH1 0x20 DUP3 ADD SWAP1 POP SWAP2 SWAP1 POP JUMP JUMPDEST PUSH1 0x0 DUP2 MLOAD SWAP1 POP SWAP2 SWAP1 POP JUMP JUMPDEST PUSH1 0x0 DUP3 DUP3 MSTORE PUSH1 0x20 DUP3 ADD SWAP1 POP SWAP3 SWAP2 POP POP JUMP JUMPDEST PUSH1 0x0 DUP2 SWAP1 POP PUSH1 0x20 DUP3 ADD SWAP1 POP SWAP2 SWAP1 POP JUMP JUMPDEST PUSH1 0x0 PUSH2 0x1967 DUP4 DUP4 PUSH2 0x11F9 JUMP JUMPDEST PUSH1 0x20 DUP4 ADD SWAP1 POP SWAP3 SWAP2 POP POP JUMP JUMPDEST PUSH1 0x0 PUSH1 0x20 DUP3 ADD SWAP1 POP SWAP2 SWAP1 POP JUMP JUMPDEST PUSH1 0x0 PUSH2 0x198B DUP3 PUSH2 0x192F JUMP JUMPDEST PUSH2 0x1995 DUP2 DUP6 PUSH2 0x193A JUMP JUMPDEST SWAP4 POP PUSH2 0x19A0 DUP4 PUSH2 0x194B JUMP JUMPDEST DUP1 PUSH1 0x0 JUMPDEST DUP4 DUP2 LT ISZERO PUSH2 0x19D1 JUMPI DUP2 MLOAD PUSH2 0x19B8 DUP9 DUP3 PUSH2 0x195B JUMP JUMPDEST SWAP8 POP PUSH2 0x19C3 DUP4 PUSH2 0x1973 JUMP JUMPDEST SWAP3 POP POP PUSH1 0x1 DUP2 ADD SWAP1 POP PUSH2 0x19A4 JUMP JUMPDEST POP DUP6 SWAP4 POP POP POP POP SWAP3 SWAP2 POP POP JUMP JUMPDEST PUSH1 0x0 PUSH1 0x80 DUP4 ADD PUSH1 0x0 DUP4 ADD MLOAD PUSH2 0x19F6 PUSH1 0x0 DUP7 ADD DUP3 PUSH2 0x11F9 JUMP JUMPDEST POP PUSH1 0x20 DUP4 ADD MLOAD PUSH2 0x1A09 PUSH1 0x20 DUP7 ADD DUP3 PUSH2 0x11F9 JUMP JUMPDEST POP PUSH1 0x40 DUP4 ADD MLOAD PUSH2 0x1A1C PUSH1 0x40 DUP7 ADD DUP3 PUSH2 0x11F9 JUMP JUMPDEST POP PUSH1 0x60 DUP4 ADD MLOAD DUP5 DUP3 SUB PUSH1 0x60 DUP7 ADD MSTORE PUSH2 0x1A34 DUP3 DUP3 PUSH2 0x1980 JUMP JUMPDEST SWAP2 POP POP DUP1 SWAP2 POP POP SWAP3 SWAP2 POP POP JUMP JUMPDEST PUSH1 0x0 PUSH2 0x1A4D DUP4 DUP4 PUSH2 0x19DE JUMP JUMPDEST SWAP1 POP SWAP3 SWAP2 POP POP JUMP JUMPDEST PUSH1 0x0 PUSH1 0x20 DUP3 ADD SWAP1 POP SWAP2 SWAP1 POP JUMP JUMPDEST PUSH1 0x0 PUSH2 0x1A6D DUP3 PUSH2 0x1903 JUMP JUMPDEST PUSH2 0x1A77 DUP2 DUP6 PUSH2 0x190E JUMP JUMPDEST SWAP4 POP DUP4 PUSH1 0x20 DUP3 MUL DUP6 ADD PUSH2 0x1A89 DUP6 PUSH2 0x191F JUMP JUMPDEST DUP1 PUSH1 0x0 JUMPDEST DUP6 DUP2 LT ISZERO PUSH2 0x1AC5 JUMPI DUP5 DUP5 SUB DUP10 MSTORE DUP2 MLOAD PUSH2 0x1AA6 DUP6 DUP3 PUSH2 0x1A41 JUMP JUMPDEST SWAP5 POP PUSH2 0x1AB1 DUP4 PUSH2 0x1A55 JUMP JUMPDEST SWAP3 POP PUSH1 0x20 DUP11 ADD SWAP10 POP POP PUSH1 0x1 DUP2 ADD SWAP1 POP PUSH2 0x1A8D JUMP JUMPDEST POP DUP3 SWAP8 POP DUP8 SWAP6 POP POP POP POP POP POP SWAP3 SWAP2 POP POP JUMP JUMPDEST PUSH1 0x0 PUSH1 0x20 DUP3 ADD SWAP1 POP DUP2 DUP2 SUB PUSH1 0x0 DUP4 ADD MSTORE PUSH2 0x1AF1 DUP2 DUP5 PUSH2 0x1A62 JUMP JUMPDEST SWAP1 POP SWAP3 SWAP2 POP POP JUMP JUMPDEST PUSH1 0x0 DUP2 MLOAD SWAP1 POP SWAP2 SWAP1 POP JUMP JUMPDEST PUSH1 0x0 DUP3 DUP3 MSTORE PUSH1 0x20 DUP3 ADD SWAP1 POP SWAP3 SWAP2 POP POP JUMP JUMPDEST PUSH1 0x0 DUP2 SWAP1 POP PUSH1 0x20 DUP3 ADD SWAP1 POP SWAP2 SWAP1 POP JUMP JUMPDEST PUSH32 0x4E487B7100000000000000000000000000000000000000000000000000000000 PUSH1 0x0 MSTORE PUSH1 0x21 PUSH1 0x4 MSTORE PUSH1 0x24 PUSH1 0x0 REVERT JUMPDEST PUSH1 0x3 DUP2 LT PUSH2 0x1B65 JUMPI PUSH2 0x1B64 PUSH2 0x1B25 JUMP JUMPDEST JUMPDEST POP JUMP JUMPDEST PUSH1 0x0 DUP2 SWAP1 POP PUSH2 0x1B76 DUP3 PUSH2 0x1B54 JUMP JUMPDEST SWAP2 SWAP1 POP JUMP JUMPDEST PUSH1 0x0 PUSH2 0x1B86 DUP3 PUSH2 0x1B68 JUMP JUMPDEST SWAP1 POP SWAP2 SWAP1 POP JUMP JUMPDEST PUSH2 0x1B96 DUP2 PUSH2 0x1B7B JUMP JUMPDEST DUP3 MSTORE POP POP JUMP JUMPDEST PUSH1 0xC0 DUP3 ADD PUSH1 0x0 DUP3 ADD MLOAD PUSH2 0x1BB2 PUSH1 0x0 DUP6 ADD DUP3 PUSH2 0x11F9 JUMP JUMPDEST POP PUSH1 0x20 DUP3 ADD MLOAD PUSH2 0x1BC5 PUSH1 0x20 DUP6 ADD DUP3 PUSH2 0x11F9 JUMP JUMPDEST POP PUSH1 0x40 DUP3 ADD MLOAD PUSH2 0x1BD8 PUSH1 0x40 DUP6 ADD DUP3 PUSH2 0x1B8D JUMP JUMPDEST POP PUSH1 0x60 DUP3 ADD MLOAD PUSH2 0x1BEB PUSH1 0x60 DUP6 ADD DUP3 PUSH2 0x11F9 JUMP JUMPDEST POP PUSH1 0x80 DUP3 ADD MLOAD PUSH2 0x1BFE PUSH1 0x80 DUP6 ADD DUP3 PUSH2 0x11F9 JUMP JUMPDEST POP PUSH1 0xA0 DUP3 ADD MLOAD PUSH2 0x1C11 PUSH1 0xA0 DUP6 ADD DUP3 PUSH2 0x11F9 JUMP JUMPDEST POP POP POP POP JUMP JUMPDEST PUSH1 0x0 PUSH2 0x1C23 DUP4 DUP4 PUSH2 0x1B9C JUMP JUMPDEST PUSH1 0xC0 DUP4 ADD SWAP1 POP SWAP3 SWAP2 POP POP JUMP JUMPDEST PUSH1 0x0 PUSH1 0x20 DUP3 ADD SWAP1 POP SWAP2 SWAP1 POP JUMP JUMPDEST PUSH1 0x0 PUSH2 0x1C47 DUP3 PUSH2 0x1AF9 JUMP JUMPDEST PUSH2 0x1C51 DUP2 DUP6 PUSH2 0x1B04 JUMP JUMPDEST SWAP4 POP PUSH2 0x1C5C DUP4 PUSH2 0x1B15 JUMP JUMPDEST DUP1 PUSH1 0x0 JUMPDEST DUP4 DUP2 LT ISZERO PUSH2 0x1C8D JUMPI DUP2 MLOAD PUSH2 0x1C74 DUP9 DUP3 PUSH2 0x1C17 JUMP JUMPDEST SWAP8 POP PUSH2 0x1C7F DUP4 PUSH2 0x1C2F JUMP JUMPDEST SWAP3 POP POP PUSH1 0x1 DUP2 ADD SWAP1 POP PUSH2 0x1C60 JUMP JUMPDEST POP DUP6 SWAP4 POP POP POP POP SWAP3 SWAP2 POP POP JUMP JUMPDEST PUSH1 0x0 PUSH1 0x20 DUP3 ADD SWAP1 POP DUP2 DUP2 SUB PUSH1 0x0 DUP4 ADD MSTORE PUSH2 0x1CB4 DUP2 DUP5 PUSH2 0x1C3C JUMP JUMPDEST SWAP1 POP SWAP3 SWAP2 POP POP JUMP JUMPDEST PUSH2 0x1CC5 DUP2 PUSH2 0x189A JUMP JUMPDEST DUP2 EQ PUSH2 0x1CD0 JUMPI PUSH1 0x0 DUP1 REVERT JUMPDEST POP JUMP JUMPDEST PUSH1 0x0 DUP2 CALLDATALOAD SWAP1 POP PUSH2 0x1CE2 DUP2 PUSH2 0x1CBC JUMP JUMPDEST SWAP3 SWAP2 POP POP JUMP JUMPDEST PUSH1 0x0 PUSH1 0x20 DUP3 DUP5 SUB SLT ISZERO PUSH2 0x1CFE JUMPI PUSH2 0x1CFD PUSH2 0xF3C JUMP JUMPDEST JUMPDEST PUSH1 0x0 PUSH2 0x1D0C DUP5 DUP3 DUP6 ADD PUSH2 0x1CD3 JUMP JUMPDEST SWAP2 POP POP SWAP3 SWAP2 POP POP JUMP JUMPDEST PUSH1 0x0 DUP2 SWAP1 POP SWAP2 SWAP1 POP JUMP JUMPDEST PUSH1 0x0 PUSH2 0x1D3A PUSH2 0x1D35 PUSH2 0x1D30 DUP5 PUSH2 0x187A JUMP JUMPDEST PUSH2 0x1D15 JUMP JUMPDEST PUSH2 0x187A JUMP JUMPDEST SWAP1 POP SWAP2 SWAP1 POP JUMP JUMPDEST PUSH1 0x0 PUSH2 0x1D4C DUP3 PUSH2 0x1D1F JUMP JUMPDEST SWAP1 POP SWAP2 SWAP1 POP JUMP JUMPDEST PUSH1 0x0 PUSH2 0x1D5E DUP3 PUSH2 0x1D41 JUMP JUMPDEST SWAP1 POP SWAP2 SWAP1 POP JUMP JUMPDEST PUSH2 0x1D6E DUP2 PUSH2 0x1D53 JUMP JUMPDEST DUP3 MSTORE POP POP JUMP JUMPDEST PUSH1 0x0 PUSH1 0x20 DUP3 ADD SWAP1 POP PUSH2 0x1D89 PUSH1 0x0 DUP4 ADD DUP5 PUSH2 0x1D65 JUMP JUMPDEST SWAP3 SWAP2 POP POP JUMP JUMPDEST PUSH1 0x80 DUP3 ADD PUSH1 0x0 DUP3 ADD MLOAD PUSH2 0x1DA5 PUSH1 0x0 DUP6 ADD DUP3 PUSH2 0x11F9 JUMP JUMPDEST POP PUSH1 0x20 DUP3 ADD MLOAD PUSH2 0x1DB8 PUSH1 0x20 DUP6 ADD DUP3 PUSH2 0x11F9 JUMP JUMPDEST POP PUSH1 0x40 DUP3 ADD MLOAD PUSH2 0x1DCB PUSH1 0x40 DUP6 ADD DUP3 PUSH2 0x11F9 JUMP JUMPDEST POP PUSH1 0x60 DUP3 ADD MLOAD PUSH2 0x1DDE PUSH1 0x60 DUP6 ADD DUP3 PUSH2 0x11F9 JUMP JUMPDEST POP POP POP POP JUMP JUMPDEST PUSH1 0x0 DUP2 SWAP1 POP SWAP2 SWAP1 POP JUMP JUMPDEST PUSH2 0x1DF7 DUP2 PUSH2 0x1DE4 JUMP JUMPDEST DUP3 MSTORE POP POP JUMP JUMPDEST PUSH1 0x0 PUSH1 0xA0 DUP3 ADD SWAP1 POP PUSH2 0x1E12 PUSH1 0x0 DUP4 ADD DUP6 PUSH2 0x1D8F JUMP JUMPDEST PUSH2 0x1E1F PUSH1 0x80 DUP4 ADD DUP5 PUSH2 0x1DEE JUMP JUMPDEST SWAP4 SWAP3 POP POP POP JUMP JUMPDEST PUSH2 0x1E2F DUP2 PUSH2 0xFCF JUMP JUMPDEST DUP2 EQ PUSH2 0x1E3A JUMPI PUSH1 0x0 DUP1 REVERT JUMPDEST POP JUMP JUMPDEST PUSH1 0x0 DUP2 MLOAD SWAP1 POP PUSH2 0x1E4C DUP2 PUSH2 0x1E26 JUMP JUMPDEST SWAP3 SWAP2 POP POP JUMP JUMPDEST PUSH1 0x0 PUSH1 0x20 DUP3 DUP5 SUB SLT ISZERO PUSH2 0x1E68 JUMPI PUSH2 0x1E67 PUSH2 0xF3C JUMP JUMPDEST JUMPDEST PUSH1 0x0 PUSH2 0x1E76 DUP5 DUP3 DUP6 ADD PUSH2 0x1E3D JUMP JUMPDEST SWAP2 POP POP SWAP3 SWAP2 POP POP JUMP JUMPDEST PUSH1 0x0 PUSH1 0x80 DUP4 ADD PUSH1 0x0 DUP4 ADD MLOAD PUSH2 0x1E97 PUSH1 0x0 DUP7 ADD DUP3 PUSH2 0x11F9 JUMP JUMPDEST POP PUSH1 0x20 DUP4 ADD MLOAD PUSH2 0x1EAA PUSH1 0x20 DUP7 ADD DUP3 PUSH2 0x11F9 JUMP JUMPDEST POP PUSH1 0x40 DUP4 ADD MLOAD PUSH2 0x1EBD PUSH1 0x40 DUP7 ADD DUP3 PUSH2 0x11F9 JUMP JUMPDEST POP PUSH1 0x60 DUP4 ADD MLOAD DUP5 DUP3 SUB PUSH1 0x60 DUP7 ADD MSTORE PUSH2 0x1ED5 DUP3 DUP3 PUSH2 0x1980 JUMP JUMPDEST SWAP2 POP POP DUP1 SWAP2 POP POP SWAP3 SWAP2 POP POP JUMP JUMPDEST PUSH1 0x0 PUSH1 0x40 DUP3 ADD SWAP1 POP DUP2 DUP2 SUB PUSH1 0x0 DUP4 ADD MSTORE PUSH2 0x1EFC DUP2 DUP6 PUSH2 0x1E7F JUMP JUMPDEST SWAP1 POP PUSH2 0x1F0B PUSH1 0x20 DUP4 ADD DUP5 PUSH2 0x1DEE JUMP JUMPDEST SWAP4 SWAP3 POP POP POP JUMP JUMPDEST PUSH1 0x0 PUSH1 0x20 DUP3 ADD SWAP1 POP PUSH2 0x1F27 PUSH1 0x0 DUP4 ADD DUP5 PUSH2 0x1DEE JUMP JUMPDEST SWAP3 SWAP2 POP POP JUMP JUMPDEST PUSH1 0x0 PUSH8 0xFFFFFFFFFFFFFFFF DUP3 GT ISZERO PUSH2 0x1F48 JUMPI PUSH2 0x1F47 PUSH2 0x101B JUMP JUMPDEST JUMPDEST PUSH1 0x20 DUP3 MUL SWAP1 POP PUSH1 0x20 DUP2 ADD SWAP1 POP SWAP2 SWAP1 POP JUMP JUMPDEST PUSH1 0x0 DUP1 REVERT JUMPDEST PUSH1 0x0 DUP1 REVERT JUMPDEST PUSH1 0x0 DUP2 MLOAD SWAP1 POP PUSH2 0x1F72 DUP2 PUSH2 0xF50 JUMP JUMPDEST SWAP3 SWAP2 POP POP JUMP JUMPDEST PUSH1 0x0 PUSH2 0x1F8B PUSH2 0x1F86 DUP5 PUSH2 0x14F3 JUMP JUMPDEST PUSH2 0x107B JUMP JUMPDEST SWAP1 POP DUP3 DUP2 MSTORE PUSH1 0x20 DUP2 ADD DUP5 DUP5 DUP5 ADD GT ISZERO PUSH2 0x1FA7 JUMPI PUSH2 0x1FA6 PUSH2 0x14EE JUMP JUMPDEST JUMPDEST PUSH2 0x1FB2 DUP5 DUP3 DUP6 PUSH2 0x1224 JUMP JUMPDEST POP SWAP4 SWAP3 POP POP POP JUMP JUMPDEST PUSH1 0x0 DUP3 PUSH1 0x1F DUP4 ADD SLT PUSH2 0x1FCF JUMPI PUSH2 0x1FCE PUSH2 0x1005 JUMP JUMPDEST JUMPDEST DUP2 MLOAD PUSH2 0x1FDF DUP5 DUP3 PUSH1 0x20 DUP7 ADD PUSH2 0x1F78 JUMP JUMPDEST SWAP2 POP POP SWAP3 SWAP2 POP POP JUMP JUMPDEST PUSH1 0x0 PUSH1 0xC0 DUP3 DUP5 SUB SLT ISZERO PUSH2 0x1FFE JUMPI PUSH2 0x1FFD PUSH2 0x1F59 JUMP JUMPDEST JUMPDEST PUSH2 0x2008 PUSH1 0xC0 PUSH2 0x107B JUMP JUMPDEST SWAP1 POP PUSH1 0x0 PUSH2 0x2018 DUP5 DUP3 DUP6 ADD PUSH2 0x1F63 JUMP JUMPDEST PUSH1 0x0 DUP4 ADD MSTORE POP PUSH1 0x20 PUSH2 0x202C DUP5 DUP3 DUP6 ADD PUSH2 0x1F63 JUMP JUMPDEST PUSH1 0x20 DUP4 ADD MSTORE POP PUSH1 0x40 DUP3 ADD MLOAD PUSH8 0xFFFFFFFFFFFFFFFF DUP2 GT ISZERO PUSH2 0x2050 JUMPI PUSH2 0x204F PUSH2 0x1F5E JUMP JUMPDEST JUMPDEST PUSH2 0x205C DUP5 DUP3 DUP6 ADD PUSH2 0x1FBA JUMP JUMPDEST PUSH1 0x40 DUP4 ADD MSTORE POP PUSH1 0x60 PUSH2 0x2070 DUP5 DUP3 DUP6 ADD PUSH2 0x1F63 JUMP JUMPDEST PUSH1 0x60 DUP4 ADD MSTORE POP PUSH1 0x80 PUSH2 0x2084 DUP5 DUP3 DUP6 ADD PUSH2 0x1F63 JUMP JUMPDEST PUSH1 0x80 DUP4 ADD MSTORE POP PUSH1 0xA0 PUSH2 0x2098 DUP5 DUP3 DUP6 ADD PUSH2 0x1F63 JUMP JUMPDEST PUSH1 0xA0 DUP4 ADD MSTORE POP SWAP3 SWAP2 POP POP JUMP JUMPDEST PUSH1 0x0 PUSH2 0x20B7 PUSH2 0x20B2 DUP5 PUSH2 0x1F2D JUMP JUMPDEST PUSH2 0x107B JUMP JUMPDEST SWAP1 POP DUP1 DUP4 DUP3 MSTORE PUSH1 0x20 DUP3 ADD SWAP1 POP PUSH1 0x20 DUP5 MUL DUP4 ADD DUP6 DUP2 GT ISZERO PUSH2 0x20DA JUMPI PUSH2 0x20D9 PUSH2 0x10C2 JUMP JUMPDEST JUMPDEST DUP4 JUMPDEST DUP2 DUP2 LT ISZERO PUSH2 0x2121 JUMPI DUP1 MLOAD PUSH8 0xFFFFFFFFFFFFFFFF DUP2 GT ISZERO PUSH2 0x20FF JUMPI PUSH2 0x20FE PUSH2 0x1005 JUMP JUMPDEST JUMPDEST DUP1 DUP7 ADD PUSH2 0x210C DUP10 DUP3 PUSH2 0x1FE8 JUMP JUMPDEST DUP6 MSTORE PUSH1 0x20 DUP6 ADD SWAP5 POP POP POP PUSH1 0x20 DUP2 ADD SWAP1 POP PUSH2 0x20DC JUMP JUMPDEST POP POP POP SWAP4 SWAP3 POP POP POP JUMP JUMPDEST PUSH1 0x0 DUP3 PUSH1 0x1F DUP4 ADD SLT PUSH2 0x2140 JUMPI PUSH2 0x213F PUSH2 0x1005 JUMP JUMPDEST JUMPDEST DUP2 MLOAD PUSH2 0x2150 DUP5 DUP3 PUSH1 0x20 DUP7 ADD PUSH2 0x20A4 JUMP JUMPDEST SWAP2 POP POP SWAP3 SWAP2 POP POP JUMP JUMPDEST PUSH1 0x0 PUSH1 0x20 DUP3 DUP5 SUB SLT ISZERO PUSH2 0x216F JUMPI PUSH2 0x216E PUSH2 0xF3C JUMP JUMPDEST JUMPDEST PUSH1 0x0 DUP3 ADD MLOAD PUSH8 0xFFFFFFFFFFFFFFFF DUP2 GT ISZERO PUSH2 0x218D JUMPI PUSH2 0x218C PUSH2 0xF41 JUMP JUMPDEST JUMPDEST PUSH2 0x2199 DUP5 DUP3 DUP6 ADD PUSH2 0x212B JUMP JUMPDEST SWAP2 POP POP SWAP3 SWAP2 POP POP JUMP JUMPDEST PUSH1 0x0 PUSH8 0xFFFFFFFFFFFFFFFF DUP3 GT ISZERO PUSH2 0x21BD JUMPI PUSH2 0x21BC PUSH2 0x101B JUMP JUMPDEST JUMPDEST PUSH1 0x20 DUP3 MUL SWAP1 POP PUSH1 0x20 DUP2 ADD SWAP1 POP SWAP2 SWAP1 POP JUMP JUMPDEST PUSH1 0x0 PUSH1 0x80 DUP3 DUP5 SUB SLT ISZERO PUSH2 0x21E4 JUMPI PUSH2 0x21E3 PUSH2 0x1F59 JUMP JUMPDEST JUMPDEST PUSH2 0x21EE PUSH1 0x80 PUSH2 0x107B JUMP JUMPDEST SWAP1 POP PUSH1 0x0 PUSH2 0x21FE DUP5 DUP3 DUP6 ADD PUSH2 0x1F63 JUMP JUMPDEST PUSH1 0x0 DUP4 ADD MSTORE POP PUSH1 0x20 PUSH2 0x2212 DUP5 DUP3 DUP6 ADD PUSH2 0x1F63 JUMP JUMPDEST PUSH1 0x20 DUP4 ADD MSTORE POP PUSH1 0x40 PUSH2 0x2226 DUP5 DUP3 DUP6 ADD PUSH2 0x1F63 JUMP JUMPDEST PUSH1 0x40 DUP4 ADD MSTORE POP PUSH1 0x60 PUSH2 0x223A DUP5 DUP3 DUP6 ADD PUSH2 0x1F63 JUMP JUMPDEST PUSH1 0x60 DUP4 ADD MSTORE POP SWAP3 SWAP2 POP POP JUMP JUMPDEST PUSH1 0x0 PUSH2 0x2259 PUSH2 0x2254 DUP5 PUSH2 0x21A2 JUMP JUMPDEST PUSH2 0x107B JUMP JUMPDEST SWAP1 POP DUP1 DUP4 DUP3 MSTORE PUSH1 0x20 DUP3 ADD SWAP1 POP PUSH1 0x80 DUP5 MUL DUP4 ADD DUP6 DUP2 GT ISZERO PUSH2 0x227C JUMPI PUSH2 0x227B PUSH2 0x10C2 JUMP JUMPDEST JUMPDEST DUP4 JUMPDEST DUP2 DUP2 LT ISZERO PUSH2 0x22A5 JUMPI DUP1 PUSH2 0x2291 DUP9 DUP3 PUSH2 0x21CE JUMP JUMPDEST DUP5 MSTORE PUSH1 0x20 DUP5 ADD SWAP4 POP POP PUSH1 0x80 DUP2 ADD SWAP1 POP PUSH2 0x227E JUMP JUMPDEST POP POP POP SWAP4 SWAP3 POP POP POP JUMP JUMPDEST PUSH1 0x0 DUP3 PUSH1 0x1F DUP4 ADD SLT PUSH2 0x22C4 JUMPI PUSH2 0x22C3 PUSH2 0x1005 JUMP JUMPDEST JUMPDEST DUP2 MLOAD PUSH2 0x22D4 DUP5 DUP3 PUSH1 0x20 DUP7 ADD PUSH2 0x2246 JUMP JUMPDEST SWAP2 POP POP SWAP3 SWAP2 POP POP JUMP JUMPDEST PUSH1 0x0 PUSH1 0x20 DUP3 DUP5 SUB SLT ISZERO PUSH2 0x22F3 JUMPI PUSH2 0x22F2 PUSH2 0xF3C JUMP JUMPDEST JUMPDEST PUSH1 0x0 DUP3 ADD MLOAD PUSH8 0xFFFFFFFFFFFFFFFF DUP2 GT ISZERO PUSH2 0x2311 JUMPI PUSH2 0x2310 PUSH2 0xF41 JUMP JUMPDEST JUMPDEST PUSH2 0x231D DUP5 DUP3 DUP6 ADD PUSH2 0x22AF JUMP JUMPDEST SWAP2 POP POP SWAP3 SWAP2 POP POP JUMP JUMPDEST PUSH1 0x0 PUSH1 0xC0 DUP4 ADD PUSH1 0x0 DUP4 ADD MLOAD PUSH2 0x233E PUSH1 0x0 DUP7 ADD DUP3 PUSH2 0x11F9 JUMP JUMPDEST POP PUSH1 0x20 DUP4 ADD MLOAD PUSH2 0x2351 PUSH1 0x20 DUP7 ADD DUP3 PUSH2 0x11F9 JUMP JUMPDEST POP PUSH1 0x40 DUP4 ADD MLOAD DUP5 DUP3 SUB PUSH1 0x40 DUP7 ADD MSTORE PUSH2 0x2369 DUP3 DUP3 PUSH2 0x124E JUMP JUMPDEST SWAP2 POP POP PUSH1 0x60 DUP4 ADD MLOAD PUSH2 0x237E PUSH1 0x60 DUP7 ADD DUP3 PUSH2 0x11F9 JUMP JUMPDEST POP PUSH1 0x80 DUP4 ADD MLOAD PUSH2 0x2391 PUSH1 0x80 DUP7 ADD DUP3 PUSH2 0x11F9 JUMP JUMPDEST POP PUSH1 0xA0 DUP4 ADD MLOAD PUSH2 0x23A4 PUSH1 0xA0 DUP7 ADD DUP3 PUSH2 0x11F9 JUMP JUMPDEST POP DUP1 SWAP2 POP POP SWAP3 SWAP2 POP POP JUMP JUMPDEST PUSH1 0x0 PUSH1 0x40 DUP3 ADD SWAP1 POP DUP2 DUP2 SUB PUSH1 0x0 DUP4 ADD MSTORE PUSH2 0x23C9 DUP2 DUP6 PUSH2 0x2326 JUMP JUMPDEST SWAP1 POP PUSH2 0x23D8 PUSH1 0x20 DUP4 ADD DUP5 PUSH2 0x1DEE JUMP JUMPDEST SWAP4 SWAP3 POP POP POP JUMP JUMPDEST PUSH1 0x0 PUSH8 0xFFFFFFFFFFFFFFFF DUP3 GT ISZERO PUSH2 0x23FA JUMPI PUSH2 0x23F9 PUSH2 0x101B JUMP JUMPDEST JUMPDEST PUSH1 0x20 DUP3 MUL SWAP1 POP PUSH1 0x20 DUP2 ADD SWAP1 POP SWAP2 SWAP1 POP JUMP JUMPDEST PUSH1 0x0 PUSH1 0xA0 DUP3 DUP5 SUB SLT ISZERO PUSH2 0x2421 JUMPI PUSH2 0x2420 PUSH2 0x1F59 JUMP JUMPDEST JUMPDEST PUSH2 0x242B PUSH1 0xA0 PUSH2 0x107B JUMP JUMPDEST SWAP1 POP PUSH1 0x0 PUSH2 0x243B DUP5 DUP3 DUP6 ADD PUSH2 0x1F63 JUMP JUMPDEST PUSH1 0x0 DUP4 ADD MSTORE POP PUSH1 0x20 PUSH2 0x244F DUP5 DUP3 DUP6 ADD PUSH2 0x1F63 JUMP JUMPDEST PUSH1 0x20 DUP4 ADD MSTORE POP PUSH1 0x40 PUSH2 0x2463 DUP5 DUP3 DUP6 ADD PUSH2 0x1F63 JUMP JUMPDEST PUSH1 0x40 DUP4 ADD MSTORE POP PUSH1 0x60 PUSH2 0x2477 DUP5 DUP3 DUP6 ADD PUSH2 0x1F63 JUMP JUMPDEST PUSH1 0x60 DUP4 ADD MSTORE POP PUSH1 0x80 PUSH2 0x248B DUP5 DUP3 DUP6 ADD PUSH2 0x1F63 JUMP JUMPDEST PUSH1 0x80 DUP4 ADD MSTORE POP SWAP3 SWAP2 POP POP JUMP JUMPDEST PUSH1 0x0 PUSH2 0x24AA PUSH2 0x24A5 DUP5 PUSH2 0x23DF JUMP JUMPDEST PUSH2 0x107B JUMP JUMPDEST SWAP1 POP DUP1 DUP4 DUP3 MSTORE PUSH1 0x20 DUP3 ADD SWAP1 POP PUSH1 0xA0 DUP5 MUL DUP4 ADD DUP6 DUP2 GT ISZERO PUSH2 0x24CD JUMPI PUSH2 0x24CC PUSH2 0x10C2 JUMP JUMPDEST JUMPDEST DUP4 JUMPDEST DUP2 DUP2 LT ISZERO PUSH2 0x24F6 JUMPI DUP1 PUSH2 0x24E2 DUP9 DUP3 PUSH2 0x240B JUMP JUMPDEST DUP5 MSTORE PUSH1 0x20 DUP5 ADD SWAP4 POP POP PUSH1 0xA0 DUP2 ADD SWAP1 POP PUSH2 0x24CF JUMP JUMPDEST POP POP POP SWAP4 SWAP3 POP POP POP JUMP JUMPDEST PUSH1 0x0 DUP3 PUSH1 0x1F DUP4 ADD SLT PUSH2 0x2515 JUMPI PUSH2 0x2514 PUSH2 0x1005 JUMP JUMPDEST JUMPDEST DUP2 MLOAD PUSH2 0x2525 DUP5 DUP3 PUSH1 0x20 DUP7 ADD PUSH2 0x2497 JUMP JUMPDEST SWAP2 POP POP SWAP3 SWAP2 POP POP JUMP JUMPDEST PUSH1 0x0 PUSH1 0x20 DUP3 DUP5 SUB SLT ISZERO PUSH2 0x2544 JUMPI PUSH2 0x2543 PUSH2 0xF3C JUMP JUMPDEST JUMPDEST PUSH1 0x0 DUP3 ADD MLOAD PUSH8 0xFFFFFFFFFFFFFFFF DUP2 GT ISZERO PUSH2 0x2562 JUMPI PUSH2 0x2561 PUSH2 0xF41 JUMP JUMPDEST JUMPDEST PUSH2 0x256E DUP5 DUP3 DUP6 ADD PUSH2 0x2500 JUMP JUMPDEST SWAP2 POP POP SWAP3 SWAP2 POP POP JUMP JUMPDEST PUSH1 0xA0 DUP3 ADD PUSH1 0x0 DUP3 ADD MLOAD PUSH2 0x258D PUSH1 0x0 DUP6 ADD DUP3 PUSH2 0x11F9 JUMP JUMPDEST POP PUSH1 0x20 DUP3 ADD MLOAD PUSH2 0x25A0 PUSH1 0x20 DUP6 ADD DUP3 PUSH2 0x11F9 JUMP JUMPDEST POP PUSH1 0x40 DUP3 ADD MLOAD PUSH2 0x25B3 PUSH1 0x40 DUP6 ADD DUP3 PUSH2 0x11F9 JUMP JUMPDEST POP PUSH1 0x60 DUP3 ADD MLOAD PUSH2 0x25C6 PUSH1 0x60 DUP6 ADD DUP3 PUSH2 0x11F9 JUMP JUMPDEST POP PUSH1 0x80 DUP3 ADD MLOAD PUSH2 0x25D9 PUSH1 0x80 DUP6 ADD DUP3 PUSH2 0x11F9 JUMP JUMPDEST POP POP POP POP JUMP JUMPDEST PUSH1 0x0 PUSH1 0xC0 DUP3 ADD SWAP1 POP PUSH2 0x25F4 PUSH1 0x0 DUP4 ADD DUP6 PUSH2 0x2577 JUMP JUMPDEST PUSH2 0x2601 PUSH1 0xA0 DUP4 ADD DUP5 PUSH2 0x1DEE JUMP JUMPDEST SWAP4 SWAP3 POP POP POP JUMP JUMPDEST PUSH1 0xC0 DUP3 ADD PUSH1 0x0 DUP3 ADD MLOAD PUSH2 0x261E PUSH1 0x0 DUP6 ADD DUP3 PUSH2 0x11F9 JUMP JUMPDEST POP PUSH1 0x20 DUP3 ADD MLOAD PUSH2 0x2631 PUSH1 0x20 DUP6 ADD DUP3 PUSH2 0x11F9 JUMP JUMPDEST POP PUSH1 0x40 DUP3 ADD MLOAD PUSH2 0x2644 PUSH1 0x40 DUP6 ADD DUP3 PUSH2 0x1B8D JUMP JUMPDEST POP PUSH1 0x60 DUP3 ADD MLOAD PUSH2 0x2657 PUSH1 0x60 DUP6 ADD DUP3 PUSH2 0x11F9 JUMP JUMPDEST POP PUSH1 0x80 DUP3 ADD MLOAD PUSH2 0x266A PUSH1 0x80 DUP6 ADD DUP3 PUSH2 0x11F9 JUMP JUMPDEST POP PUSH1 0xA0 DUP3 ADD MLOAD PUSH2 0x267D PUSH1 0xA0 DUP6 ADD DUP3 PUSH2 0x11F9 JUMP JUMPDEST POP POP POP POP JUMP JUMPDEST PUSH1 0x0 PUSH1 0xE0 DUP3 ADD SWAP1 POP PUSH2 0x2698 PUSH1 0x0 DUP4 ADD DUP6 PUSH2 0x2608 JUMP JUMPDEST PUSH2 0x26A5 PUSH1 0xC0 DUP4 ADD DUP5 PUSH2 0x1DEE JUMP JUMPDEST SWAP4 SWAP3 POP POP POP JUMP JUMPDEST PUSH2 0x26B5 DUP2 PUSH2 0x189A JUMP JUMPDEST DUP3 MSTORE POP POP JUMP JUMPDEST PUSH1 0x60 DUP3 ADD PUSH1 0x0 DUP3 ADD MLOAD PUSH2 0x26D1 PUSH1 0x0 DUP6 ADD DUP3 PUSH2 0x11F9 JUMP JUMPDEST POP PUSH1 0x20 DUP3 ADD MLOAD PUSH2 0x26E4 PUSH1 0x20 DUP6 ADD DUP3 PUSH2 0x26AC JUMP JUMPDEST POP PUSH1 0x40 DUP3 ADD MLOAD PUSH2 0x26F7 PUSH1 0x40 DUP6 ADD DUP3 PUSH2 0x11F9 JUMP JUMPDEST POP POP POP POP JUMP JUMPDEST PUSH1 0x0 PUSH1 0x80 DUP3 ADD SWAP1 POP PUSH2 0x2712 PUSH1 0x0 DUP4 ADD DUP6 PUSH2 0x26BB JUMP JUMPDEST PUSH2 0x271F PUSH1 0x60 DUP4 ADD DUP5 PUSH2 0x1DEE JUMP JUMPDEST SWAP4 SWAP3 POP POP POP JUMP JUMPDEST PUSH1 0x0 PUSH8 0xFFFFFFFFFFFFFFFF DUP3 GT ISZERO PUSH2 0x2741 JUMPI PUSH2 0x2740 PUSH2 0x101B JUMP JUMPDEST JUMPDEST PUSH1 0x20 DUP3 MUL SWAP1 POP PUSH1 0x20 DUP2 ADD SWAP1 POP SWAP2 SWAP1 POP JUMP JUMPDEST PUSH1 0x0 PUSH2 0x2765 PUSH2 0x2760 DUP5 PUSH2 0x1096 JUMP JUMPDEST PUSH2 0x107B JUMP JUMPDEST SWAP1 POP DUP1 DUP4 DUP3 MSTORE PUSH1 0x20 DUP3 ADD SWAP1 POP PUSH1 0x20 DUP5 MUL DUP4 ADD DUP6 DUP2 GT ISZERO PUSH2 0x2788 JUMPI PUSH2 0x2787 PUSH2 0x10C2 JUMP JUMPDEST JUMPDEST DUP4 JUMPDEST DUP2 DUP2 LT ISZERO PUSH2 0x27B1 JUMPI DUP1 PUSH2 0x279D DUP9 DUP3 PUSH2 0x1F63 JUMP JUMPDEST DUP5 MSTORE PUSH1 0x20 DUP5 ADD SWAP4 POP POP PUSH1 0x20 DUP2 ADD SWAP1 POP PUSH2 0x278A JUMP JUMPDEST POP POP POP SWAP4 SWAP3 POP POP POP JUMP JUMPDEST PUSH1 0x0 DUP3 PUSH1 0x1F DUP4 ADD SLT PUSH2 0x27D0 JUMPI PUSH2 0x27CF PUSH2 0x1005 JUMP JUMPDEST JUMPDEST DUP2 MLOAD PUSH2 0x27E0 DUP5 DUP3 PUSH1 0x20 DUP7 ADD PUSH2 0x2752 JUMP JUMPDEST SWAP2 POP POP SWAP3 SWAP2 POP POP JUMP JUMPDEST PUSH1 0x0 PUSH1 0x80 DUP3 DUP5 SUB SLT ISZERO PUSH2 0x27FF JUMPI PUSH2 0x27FE PUSH2 0x1F59 JUMP JUMPDEST JUMPDEST PUSH2 0x2809 PUSH1 0x80 PUSH2 0x107B JUMP JUMPDEST SWAP1 POP PUSH1 0x0 PUSH2 0x2819 DUP5 DUP3 DUP6 ADD PUSH2 0x1F63 JUMP JUMPDEST PUSH1 0x0 DUP4 ADD MSTORE POP PUSH1 0x20 PUSH2 0x282D DUP5 DUP3 DUP6 ADD PUSH2 0x1F63 JUMP JUMPDEST PUSH1 0x20 DUP4 ADD MSTORE POP PUSH1 0x40 PUSH2 0x2841 DUP5 DUP3 DUP6 ADD PUSH2 0x1F63 JUMP JUMPDEST PUSH1 0x40 DUP4 ADD MSTORE POP PUSH1 0x60 DUP3 ADD MLOAD PUSH8 0xFFFFFFFFFFFFFFFF DUP2 GT ISZERO PUSH2 0x2865 JUMPI PUSH2 0x2864 PUSH2 0x1F5E JUMP JUMPDEST JUMPDEST PUSH2 0x2871 DUP5 DUP3 DUP6 ADD PUSH2 0x27BB JUMP JUMPDEST PUSH1 0x60 DUP4 ADD MSTORE POP SWAP3 SWAP2 POP POP JUMP JUMPDEST PUSH1 0x0 PUSH2 0x2890 PUSH2 0x288B DUP5 PUSH2 0x2726 JUMP JUMPDEST PUSH2 0x107B JUMP JUMPDEST SWAP1 POP DUP1 DUP4 DUP3 MSTORE PUSH1 0x20 DUP3 ADD SWAP1 POP PUSH1 0x20 DUP5 MUL DUP4 ADD DUP6 DUP2 GT ISZERO PUSH2 0x28B3 JUMPI PUSH2 0x28B2 PUSH2 0x10C2 JUMP JUMPDEST JUMPDEST DUP4 JUMPDEST DUP2 DUP2 LT ISZERO PUSH2 0x28FA JUMPI DUP1 MLOAD PUSH8 0xFFFFFFFFFFFFFFFF DUP2 GT ISZERO PUSH2 0x28D8 JUMPI PUSH2 0x28D7 PUSH2 0x1005 JUMP JUMPDEST JUMPDEST DUP1 DUP7 ADD PUSH2 0x28E5 DUP10 DUP3 PUSH2 0x27E9 JUMP JUMPDEST DUP6 MSTORE PUSH1 0x20 DUP6 ADD SWAP5 POP POP POP PUSH1 0x20 DUP2 ADD SWAP1 POP PUSH2 0x28B5 JUMP JUMPDEST POP POP POP SWAP4 SWAP3 POP POP POP JUMP JUMPDEST PUSH1 0x0 DUP3 PUSH1 0x1F DUP4 ADD SLT PUSH2 0x2919 JUMPI PUSH2 0x2918 PUSH2 0x1005 JUMP JUMPDEST JUMPDEST DUP2 MLOAD PUSH2 0x2929 DUP5 DUP3 PUSH1 0x20 DUP7 ADD PUSH2 0x287D JUMP JUMPDEST SWAP2 POP POP SWAP3 SWAP2 POP POP JUMP JUMPDEST PUSH1 0x0 PUSH1 0x20 DUP3 DUP5 SUB SLT ISZERO PUSH2 0x2948 JUMPI PUSH2 0x2947 PUSH2 0xF3C JUMP JUMPDEST JUMPDEST PUSH1 0x0 DUP3 ADD MLOAD PUSH8 0xFFFFFFFFFFFFFFFF DUP2 GT ISZERO PUSH2 0x2966 JUMPI PUSH2 0x2965 PUSH2 0xF41 JUMP JUMPDEST JUMPDEST PUSH2 0x2972 DUP5 DUP3 DUP6 ADD PUSH2 0x2904 JUMP JUMPDEST SWAP2 POP POP SWAP3 SWAP2 POP POP JUMP JUMPDEST PUSH1 0x0 PUSH8 0xFFFFFFFFFFFFFFFF DUP3 GT ISZERO PUSH2 0x2996 JUMPI PUSH2 0x2995 PUSH2 0x101B JUMP JUMPDEST JUMPDEST PUSH1 0x20 DUP3 MUL SWAP1 POP PUSH1 0x20 DUP2 ADD SWAP1 POP SWAP2 SWAP1 POP JUMP JUMPDEST PUSH1 0x0 DUP2 MLOAD SWAP1 POP PUSH2 0x29B6 DUP2 PUSH2 0x17DA JUMP JUMPDEST SWAP3 SWAP2 POP POP JUMP JUMPDEST PUSH1 0x0 PUSH1 0xC0 DUP3 DUP5 SUB SLT ISZERO PUSH2 0x29D2 JUMPI PUSH2 0x29D1 PUSH2 0x1F59 JUMP JUMPDEST JUMPDEST PUSH2 0x29DC PUSH1 0xC0 PUSH2 0x107B JUMP JUMPDEST SWAP1 POP PUSH1 0x0 PUSH2 0x29EC DUP5 DUP3 DUP6 ADD PUSH2 0x1F63 JUMP JUMPDEST PUSH1 0x0 DUP4 ADD MSTORE POP PUSH1 0x20 PUSH2 0x2A00 DUP5 DUP3 DUP6 ADD PUSH2 0x1F63 JUMP JUMPDEST PUSH1 0x20 DUP4 ADD MSTORE POP PUSH1 0x40 PUSH2 0x2A14 DUP5 DUP3 DUP6 ADD PUSH2 0x29A7 JUMP JUMPDEST PUSH1 0x40 DUP4 ADD MSTORE POP PUSH1 0x60 PUSH2 0x2A28 DUP5 DUP3 DUP6 ADD PUSH2 0x1F63 JUMP JUMPDEST PUSH1 0x60 DUP4 ADD MSTORE POP PUSH1 0x80 PUSH2 0x2A3C DUP5 DUP3 DUP6 ADD PUSH2 0x1F63 JUMP JUMPDEST PUSH1 0x80 DUP4 ADD MSTORE POP PUSH1 0xA0 PUSH2 0x2A50 DUP5 DUP3 DUP6 ADD PUSH2 0x1F63 JUMP JUMPDEST PUSH1 0xA0 DUP4 ADD MSTORE POP SWAP3 SWAP2 POP POP JUMP JUMPDEST PUSH1 0x0 PUSH2 0x2A6F PUSH2 0x2A6A DUP5 PUSH2 0x297B JUMP JUMPDEST PUSH2 0x107B JUMP JUMPDEST SWAP1 POP DUP1 DUP4 DUP3 MSTORE PUSH1 0x20 DUP3 ADD SWAP1 POP PUSH1 0xC0 DUP5 MUL DUP4 ADD DUP6 DUP2 GT ISZERO PUSH2 0x2A92 JUMPI PUSH2 0x2A91 PUSH2 0x10C2 JUMP JUMPDEST JUMPDEST DUP4 JUMPDEST DUP2 DUP2 LT ISZERO PUSH2 0x2ABB JUMPI DUP1 PUSH2 0x2AA7 DUP9 DUP3 PUSH2 0x29BC JUMP JUMPDEST DUP5 MSTORE PUSH1 0x20 DUP5 ADD SWAP4 POP POP PUSH1 0xC0 DUP2 ADD SWAP1 POP PUSH2 0x2A94 JUMP JUMPDEST POP POP POP SWAP4 SWAP3 POP POP POP JUMP JUMPDEST PUSH1 0x0 DUP3 PUSH1 0x1F DUP4 ADD SLT PUSH2 0x2ADA JUMPI PUSH2 0x2AD9 PUSH2 0x1005 JUMP JUMPDEST JUMPDEST DUP2 MLOAD PUSH2 0x2AEA DUP5 DUP3 PUSH1 0x20 DUP7 ADD PUSH2 0x2A5C JUMP JUMPDEST SWAP2 POP POP SWAP3 SWAP2 POP POP JUMP JUMPDEST PUSH1 0x0 PUSH1 0x20 DUP3 DUP5 SUB SLT ISZERO PUSH2 0x2B09 JUMPI PUSH2 0x2B08 PUSH2 0xF3C JUMP JUMPDEST JUMPDEST PUSH1 0x0 DUP3 ADD MLOAD PUSH8 0xFFFFFFFFFFFFFFFF DUP2 GT ISZERO PUSH2 0x2B27 JUMPI PUSH2 0x2B26 PUSH2 0xF41 JUMP JUMPDEST JUMPDEST PUSH2 0x2B33 DUP5 DUP3 DUP6 ADD PUSH2 0x2AC5 JUMP JUMPDEST SWAP2 POP POP SWAP3 SWAP2 POP POP JUMP JUMPDEST PUSH1 0x0 DUP3 DUP3 MSTORE PUSH1 0x20 DUP3 ADD SWAP1 POP SWAP3 SWAP2 POP POP JUMP JUMPDEST PUSH32 0x4F776E61626C653A206E6577206F776E657220697320746865207A65726F2061 PUSH1 0x0 DUP3 ADD MSTORE PUSH32 0x6464726573730000000000000000000000000000000000000000000000000000 PUSH1 0x20 DUP3 ADD MSTORE POP JUMP JUMPDEST PUSH1 0x0 PUSH2 0x2BA9 PUSH1 0x26 DUP4 PUSH2 0x2B3C JUMP JUMPDEST SWAP2 POP PUSH2 0x2BB4 DUP3 PUSH2 0x2B4D JUMP JUMPDEST PUSH1 0x40 DUP3 ADD SWAP1 POP SWAP2 SWAP1 POP JUMP JUMPDEST PUSH1 0x0 PUSH1 0x20 DUP3 ADD SWAP1 POP DUP2 DUP2 SUB PUSH1 0x0 DUP4 ADD MSTORE PUSH2 0x2BD8 DUP2 PUSH2 0x2B9C JUMP JUMPDEST SWAP1 POP SWAP2 SWAP1 POP JUMP JUMPDEST PUSH32 0x4F776E61626C653A2063616C6C6572206973206E6F7420746865206F776E6572 PUSH1 0x0 DUP3 ADD MSTORE POP JUMP JUMPDEST PUSH1 0x0 PUSH2 0x2C15 PUSH1 0x20 DUP4 PUSH2 0x2B3C JUMP JUMPDEST SWAP2 POP PUSH2 0x2C20 DUP3 PUSH2 0x2BDF JUMP JUMPDEST PUSH1 0x20 DUP3 ADD SWAP1 POP SWAP2 SWAP1 POP JUMP JUMPDEST PUSH1 0x0 PUSH1 0x20 DUP3 ADD SWAP1 POP DUP2 DUP2 SUB PUSH1 0x0 DUP4 ADD MSTORE PUSH2 0x2C44 DUP2 PUSH2 0x2C08 JUMP JUMPDEST SWAP1 POP SWAP2 SWAP1 POP JUMP INVALID LOG2 PUSH5 0x6970667358 0x22 SLT KECCAK256 0xDC ADD SWAP5 0x25 LT 0x4B 0x5F 0x4D 0xEA 0xC0 0x5D SWAP11 DUP16 0xD4 SIGNEXTEND 0xC5 0xD2 PUSH31 0x9501A5FF229BE0BDDF04E093ECA464736F6C63430008110033000000000000 "
		},
		"gasEstimates": {
			"creation": {
				"codeDepositCost": "2278600",
				"executionCost": "infinite",
				"totalCost": "infinite"
			},
			"external": {
				"addFarmer(uint256,string,uint256,uint256,uint256)": "infinite",
				"addFolWarehouse(uint256,uint256,uint256,uint256)": "infinite",
				"addHarvest(uint256,uint256,uint256)": "infinite",
				"addInspector(uint256)": "infinite",
				"addPlant(uint256,uint8,uint256,uint256,uint256)": "infinite",
				"addPrepare(uint256,uint256,uint256[])": "infinite",
				"destroy()": "30017",
				"farmerDatabase()": "infinite",
				"getListFarmer()": "infinite",
				"getListFolWarehouse()": "infinite",
				"getListHarvest()": "infinite",
				"getListPlant()": "infinite",
				"getListPrepare()": "infinite",
				"owner()": "2589",
				"transferOwnership(address)": "30775"
			}
		},
		"methodIdentifiers": {
			"addFarmer(uint256,string,uint256,uint256,uint256)": "39dcbefa",
			"addFolWarehouse(uint256,uint256,uint256,uint256)": "40738285",
			"addHarvest(uint256,uint256,uint256)": "13ca24e8",
			"addInspector(uint256)": "8edbcf65",
			"addPlant(uint256,uint8,uint256,uint256,uint256)": "46fcf4da",
			"addPrepare(uint256,uint256,uint256[])": "1418f7d7",
			"destroy()": "83197ef0",
			"farmerDatabase()": "f7082e74",
			"getListFarmer()": "166be253",
			"getListFolWarehouse()": "3cb71d76",
			"getListHarvest()": "25e9b228",
			"getListPlant()": "c2965ac8",
			"getListPrepare()": "bc46f80f",
			"owner()": "8da5cb5b",
			"transferOwnership(address)": "f2fde38b"
		}
	},
	"abi": [
		{
			"inputs": [
				{
					"internalType": "address",
					"name": "farmerDatabaseContractAddress",
					"type": "address"
				}
			],
			"stateMutability": "nonpayable",
			"type": "constructor"
		},
		{
			"anonymous": false,
			"inputs": [
				{
					"indexed": true,
					"internalType": "address",
					"name": "previousOwner",
					"type": "address"
				},
				{
					"indexed": true,
					"internalType": "address",
					"name": "newOwner",
					"type": "address"
				}
			],
			"name": "OwnershipTransferred",
			"type": "event"
		},
		{
			"inputs": [
				{
					"internalType": "uint256",
					"name": "famrerIdentifyId",
					"type": "uint256"
				},
				{
					"internalType": "string",
					"name": "farmerName",
					"type": "string"
				},
				{
					"internalType": "uint256",
					"name": "farmerPhone",
					"type": "uint256"
				},
				{
					"internalType": "uint256",
					"name": "famrerAddress",
					"type": "uint256"
				},
				{
					"internalType": "uint256",
					"name": "category",
					"type": "uint256"
				}
			],
			"name": "addFarmer",
			"outputs": [
				{
					"internalType": "bool",
					"name": "",
					"type": "bool"
				}
			],
			"stateMutability": "nonpayable",
			"type": "function"
		},
		{
			"inputs": [
				{
					"internalType": "uint256",
					"name": "prepareId",
					"type": "uint256"
				},
				{
					"internalType": "uint256",
					"name": "category",
					"type": "uint256"
				},
				{
					"internalType": "uint256",
					"name": "time",
					"type": "uint256"
				},
				{
					"internalType": "uint256",
					"name": "quantity",
					"type": "uint256"
				}
			],
			"name": "addFolWarehouse",
			"outputs": [
				{
					"internalType": "bool",
					"name": "",
					"type": "bool"
				}
			],
			"stateMutability": "nonpayable",
			"type": "function"
		},
		{
			"inputs": [
				{
					"internalType": "uint256",
					"name": "farmerId",
					"type": "uint256"
				},
				{
					"internalType": "uint256",
					"name": "category",
					"type": "uint256"
				},
				{
					"internalType": "uint256",
					"name": "plantId",
					"type": "uint256"
				}
			],
			"name": "addHarvest",
			"outputs": [
				{
					"internalType": "bool",
					"name": "",
					"type": "bool"
				}
			],
			"stateMutability": "nonpayable",
			"type": "function"
		},
		{
			"inputs": [
				{
					"internalType": "uint256",
					"name": "category",
					"type": "uint256"
				}
			],
			"name": "addInspector",
			"outputs": [
				{
					"internalType": "bool",
					"name": "",
					"type": "bool"
				}
			],
			"stateMutability": "nonpayable",
			"type": "function"
		},
		{
			"inputs": [
				{
					"internalType": "uint256",
					"name": "farmerId",
					"type": "uint256"
				},
				{
					"internalType": "enum CATEGORY",
					"name": "category",
					"type": "uint8"
				},
				{
					"internalType": "uint256",
					"name": "testTime",
					"type": "uint256"
				},
				{
					"internalType": "uint256",
					"name": "area",
					"type": "uint256"
				},
				{
					"internalType": "uint256",
					"name": "production",
					"type": "uint256"
				}
			],
			"name": "addPlant",
			"outputs": [
				{
					"internalType": "bool",
					"name": "",
					"type": "bool"
				}
			],
			"stateMutability": "nonpayable",
			"type": "function"
		},
		{
			"inputs": [
				{
					"internalType": "uint256",
					"name": "farmerId",
					"type": "uint256"
				},
				{
					"internalType": "uint256",
					"name": "category",
					"type": "uint256"
				},
				{
					"internalType": "uint256[]",
					"name": "listHarvestId",
					"type": "uint256[]"
				}
			],
			"name": "addPrepare",
			"outputs": [
				{
					"internalType": "bool",
					"name": "",
					"type": "bool"
				}
			],
			"stateMutability": "nonpayable",
			"type": "function"
		},
		{
			"inputs": [],
			"name": "destroy",
			"outputs": [],
			"stateMutability": "nonpayable",
			"type": "function"
		},
		{
			"inputs": [],
			"name": "farmerDatabase",
			"outputs": [
				{
					"internalType": "contract FarmerDatabase",
					"name": "",
					"type": "address"
				}
			],
			"stateMutability": "view",
			"type": "function"
		},
		{
			"inputs": [],
			"name": "getListFarmer",
			"outputs": [
				{
					"components": [
						{
							"internalType": "uint256",
							"name": "farmerId",
							"type": "uint256"
						},
						{
							"internalType": "uint256",
							"name": "famrerIdentifyId",
							"type": "uint256"
						},
						{
							"internalType": "string",
							"name": "farmerName",
							"type": "string"
						},
						{
							"internalType": "uint256",
							"name": "farmerPhone",
							"type": "uint256"
						},
						{
							"internalType": "uint256",
							"name": "famrerAddress",
							"type": "uint256"
						},
						{
							"internalType": "uint256",
							"name": "category",
							"type": "uint256"
						}
					],
					"internalType": "struct Farmer[]",
					"name": "",
					"type": "tuple[]"
				}
			],
			"stateMutability": "view",
			"type": "function"
		},
		{
			"inputs": [],
			"name": "getListFolWarehouse",
			"outputs": [
				{
					"components": [
						{
							"internalType": "uint256",
							"name": "batchId",
							"type": "uint256"
						},
						{
							"internalType": "uint256",
							"name": "prepareId",
							"type": "uint256"
						},
						{
							"internalType": "uint256",
							"name": "category",
							"type": "uint256"
						},
						{
							"internalType": "uint256",
							"name": "time",
							"type": "uint256"
						},
						{
							"internalType": "uint256",
							"name": "quantity",
							"type": "uint256"
						}
					],
					"internalType": "struct FolWarehouse[]",
					"name": "",
					"type": "tuple[]"
				}
			],
			"stateMutability": "view",
			"type": "function"
		},
		{
			"inputs": [],
			"name": "getListHarvest",
			"outputs": [
				{
					"components": [
						{
							"internalType": "uint256",
							"name": "harvestId",
							"type": "uint256"
						},
						{
							"internalType": "uint256",
							"name": "farmerId",
							"type": "uint256"
						},
						{
							"internalType": "uint256",
							"name": "category",
							"type": "uint256"
						},
						{
							"internalType": "uint256",
							"name": "plantId",
							"type": "uint256"
						}
					],
					"internalType": "struct Harvest[]",
					"name": "",
					"type": "tuple[]"
				}
			],
			"stateMutability": "view",
			"type": "function"
		},
		{
			"inputs": [],
			"name": "getListPlant",
			"outputs": [
				{
					"components": [
						{
							"internalType": "uint256",
							"name": "plantId",
							"type": "uint256"
						},
						{
							"internalType": "uint256",
							"name": "farmerId",
							"type": "uint256"
						},
						{
							"internalType": "enum CATEGORY",
							"name": "category",
							"type": "uint8"
						},
						{
							"internalType": "uint256",
							"name": "testTime",
							"type": "uint256"
						},
						{
							"internalType": "uint256",
							"name": "area",
							"type": "uint256"
						},
						{
							"internalType": "uint256",
							"name": "production",
							"type": "uint256"
						}
					],
					"internalType": "struct Plant[]",
					"name": "",
					"type": "tuple[]"
				}
			],
			"stateMutability": "view",
			"type": "function"
		},
		{
			"inputs": [],
			"name": "getListPrepare",
			"outputs": [
				{
					"components": [
						{
							"internalType": "uint256",
							"name": "prepareId",
							"type": "uint256"
						},
						{
							"internalType": "uint256",
							"name": "farmerId",
							"type": "uint256"
						},
						{
							"internalType": "uint256",
							"name": "category",
							"type": "uint256"
						},
						{
							"internalType": "uint256[]",
							"name": "listHarvestId",
							"type": "uint256[]"
						}
					],
					"internalType": "struct Prepare[]",
					"name": "",
					"type": "tuple[]"
				}
			],
			"stateMutability": "view",
			"type": "function"
		},
		{
			"inputs": [],
			"name": "owner",
			"outputs": [
				{
					"internalType": "address",
					"name": "",
					"type": "address"
				}
			],
			"stateMutability": "view",
			"type": "function"
		},
		{
			"inputs": [
				{
					"internalType": "address",
					"name": "newOwner",
					"type": "address"
				}
			],
			"name": "transferOwnership",
			"outputs": [],
			"stateMutability": "nonpayable",
			"type": "function"
		}
	]
}