{
	"data": {
		"bytecode": {
			"linkReferences": {},
			"object": "6080604052600060025534801561001557600080fd5b50336000806101000a81548173ffffffffffffffffffffffffffffffffffffffff021916908373ffffffffffffffffffffffffffffffffffffffff1602179055506113ca806100656000396000f3fe608060405234801561001057600080fd5b506004361061007d5760003560e01c806383b08b8a1161005b57806383b08b8a146100c65780638da5cb5b146100e2578063ee416d5b14610100578063f2fde38b1461011c5761007d565b80634d0a5dbd1461008257806369f205f21461009e57806383197ef0146100bc575b600080fd5b61009c6004803603810190610097919061088c565b610138565b005b6100a6610228565b6040516100b39190610ac8565b60405180910390f35b6100c46103ef565b005b6100e060048036038101906100db9190610d3d565b610410565b005b6100ea610558565b6040516100f79190610d95565b60405180910390f35b61011a60048036038101906101159190610db0565b610581565b005b6101366004803603810190610131919061088c565b610654565b005b6101406106d7565b600360008273ffffffffffffffffffffffffffffffffffffffff1673ffffffffffffffffffffffffffffffffffffffff16815260200190815260200160002060009054906101000a900460ff16156101cd576040517f08c379a00000000000000000000000000000000000000000000000000000000081526004016101c490610e60565b60405180910390fd5b6001600360008373ffffffffffffffffffffffffffffffffffffffff1673ffffffffffffffffffffffffffffffffffffffff16815260200190815260200160002060006101000a81548160ff02191690831515021790555050565b60606003600061023661074e565b73ffffffffffffffffffffffffffffffffffffffff1673ffffffffffffffffffffffffffffffffffffffff16815260200190815260200160002060009054906101000a900460ff166102bd576040517f08c379a00000000000000000000000000000000000000000000000000000000081526004016102b490610ef2565b60405180910390fd5b6001805480602002602001604051908101604052809291908181526020016000905b828210156103e657838290600052602060002090600602016040518060c00160405290816000820154815260200160018201548152602001600282015481526020016003820154815260200160048201805461033a90610f41565b80601f016020809104026020016040519081016040528092919081815260200182805461036690610f41565b80156103b35780601f10610388576101008083540402835291602001916103b3565b820191906000526020600020905b81548152906001019060200180831161039657829003601f168201915b505050505081526020016005820160009054906101000a900460ff161515151581525050815260200190600101906102df565b50505050905090565b6103f76106d7565b3073ffffffffffffffffffffffffffffffffffffffff16ff5b6003600061041c61074e565b73ffffffffffffffffffffffffffffffffffffffff1673ffffffffffffffffffffffffffffffffffffffff16815260200190815260200160002060009054906101000a900460ff166104a3576040517f08c379a000000000000000000000000000000000000000000000000000000000815260040161049a90610ef2565b60405180910390fd5b6000600260008154809291906104b890610fa1565b9190505590508082600001818152505060018290806001815401808255809150506001900390600052602060002090600602016000909190919091506000820151816000015560208201518160010155604082015181600201556060820151816003015560808201518160040190816105319190611195565b5060a08201518160050160006101000a81548160ff02191690831515021790555050505050565b60008060009054906101000a900473ffffffffffffffffffffffffffffffffffffffff16905090565b6003600061058d61074e565b73ffffffffffffffffffffffffffffffffffffffff1673ffffffffffffffffffffffffffffffffffffffff16815260200190815260200160002060009054906101000a900460ff16610614576040517f08c379a000000000000000000000000000000000000000000000000000000000815260040161060b90610ef2565b60405180910390fd5b600180828154811061062957610628611267565b5b906000526020600020906006020160050160006101000a81548160ff02191690831515021790555050565b61065c6106d7565b600073ffffffffffffffffffffffffffffffffffffffff168173ffffffffffffffffffffffffffffffffffffffff16036106cb576040517f08c379a00000000000000000000000000000000000000000000000000000000081526004016106c290611308565b60405180910390fd5b6106d481610756565b50565b3373ffffffffffffffffffffffffffffffffffffffff166106f6610558565b73ffffffffffffffffffffffffffffffffffffffff161461074c576040517f08c379a000000000000000000000000000000000000000000000000000000000815260040161074390611374565b60405180910390fd5b565b600033905090565b60008060009054906101000a900473ffffffffffffffffffffffffffffffffffffffff169050816000806101000a81548173ffffffffffffffffffffffffffffffffffffffff021916908373ffffffffffffffffffffffffffffffffffffffff1602179055508173ffffffffffffffffffffffffffffffffffffffff168173ffffffffffffffffffffffffffffffffffffffff167f8be0079c531659141344cd1fd0a4f28419497f9722a3daafe3b4186f6b6457e060405160405180910390a35050565b6000604051905090565b600080fd5b600080fd5b600073ffffffffffffffffffffffffffffffffffffffff82169050919050565b60006108598261082e565b9050919050565b6108698161084e565b811461087457600080fd5b50565b60008135905061088681610860565b92915050565b6000602082840312156108a2576108a1610824565b5b60006108b084828501610877565b91505092915050565b600081519050919050565b600082825260208201905092915050565b6000819050602082019050919050565b6000819050919050565b6108f8816108e5565b82525050565b600081519050919050565b600082825260208201905092915050565b60005b8381101561093857808201518184015260208101905061091d565b60008484015250505050565b6000601f19601f8301169050919050565b6000610960826108fe565b61096a8185610909565b935061097a81856020860161091a565b61098381610944565b840191505092915050565b60008115159050919050565b6109a38161098e565b82525050565b600060c0830160008301516109c160008601826108ef565b5060208301516109d460208601826108ef565b5060408301516109e760408601826108ef565b5060608301516109fa60608601826108ef565b5060808301518482036080860152610a128282610955565b91505060a0830151610a2760a086018261099a565b508091505092915050565b6000610a3e83836109a9565b905092915050565b6000602082019050919050565b6000610a5e826108b9565b610a6881856108c4565b935083602082028501610a7a856108d5565b8060005b85811015610ab65784840389528151610a978582610a32565b9450610aa283610a46565b925060208a01995050600181019050610a7e565b50829750879550505050505092915050565b60006020820190508181036000830152610ae28184610a53565b905092915050565b600080fd5b7f4e487b7100000000000000000000000000000000000000000000000000000000600052604160045260246000fd5b610b2782610944565b810181811067ffffffffffffffff82111715610b4657610b45610aef565b5b80604052505050565b6000610b5961081a565b9050610b658282610b1e565b919050565b600080fd5b610b78816108e5565b8114610b8357600080fd5b50565b600081359050610b9581610b6f565b92915050565b600080fd5b600080fd5b600067ffffffffffffffff821115610bc057610bbf610aef565b5b610bc982610944565b9050602081019050919050565b82818337600083830152505050565b6000610bf8610bf384610ba5565b610b4f565b905082815260208101848484011115610c1457610c13610ba0565b5b610c1f848285610bd6565b509392505050565b600082601f830112610c3c57610c3b610b9b565b5b8135610c4c848260208601610be5565b91505092915050565b610c5e8161098e565b8114610c6957600080fd5b50565b600081359050610c7b81610c55565b92915050565b600060c08284031215610c9757610c96610aea565b5b610ca160c0610b4f565b90506000610cb184828501610b86565b6000830152506020610cc584828501610b86565b6020830152506040610cd984828501610b86565b6040830152506060610ced84828501610b86565b606083015250608082013567ffffffffffffffff811115610d1157610d10610b6a565b5b610d1d84828501610c27565b60808301525060a0610d3184828501610c6c565b60a08301525092915050565b600060208284031215610d5357610d52610824565b5b600082013567ffffffffffffffff811115610d7157610d70610829565b5b610d7d84828501610c81565b91505092915050565b610d8f8161084e565b82525050565b6000602082019050610daa6000830184610d86565b92915050565b600060208284031215610dc657610dc5610824565b5b6000610dd484828501610b86565b91505092915050565b600082825260208201905092915050565b7f496e677265737344617461626173653a207065726d697373696f6e206861732060008201527f6265656e206772616e7465640000000000000000000000000000000000000000602082015250565b6000610e4a602c83610ddd565b9150610e5582610dee565b604082019050919050565b60006020820190508181036000830152610e7981610e3d565b9050919050565b7f496e677265737344617461626173653a206f6e6c7920636f6e7472616374207760008201527f686963682061726520616c6c6f77656400000000000000000000000000000000602082015250565b6000610edc603083610ddd565b9150610ee782610e80565b604082019050919050565b60006020820190508181036000830152610f0b81610ecf565b9050919050565b7f4e487b7100000000000000000000000000000000000000000000000000000000600052602260045260246000fd5b60006002820490506001821680610f5957607f821691505b602082108103610f6c57610f6b610f12565b5b50919050565b7f4e487b7100000000000000000000000000000000000000000000000000000000600052601160045260246000fd5b6000610fac826108e5565b91507fffffffffffffffffffffffffffffffffffffffffffffffffffffffffffffffff8203610fde57610fdd610f72565b5b600182019050919050565b60008190508160005260206000209050919050565b60006020601f8301049050919050565b600082821b905092915050565b60006008830261104b7fffffffffffffffffffffffffffffffffffffffffffffffffffffffffffffffff8261100e565b611055868361100e565b95508019841693508086168417925050509392505050565b6000819050919050565b600061109261108d611088846108e5565b61106d565b6108e5565b9050919050565b6000819050919050565b6110ac83611077565b6110c06110b882611099565b84845461101b565b825550505050565b600090565b6110d56110c8565b6110e08184846110a3565b505050565b5b81811015611104576110f96000826110cd565b6001810190506110e6565b5050565b601f8211156111495761111a81610fe9565b61112384610ffe565b81016020851015611132578190505b61114661113e85610ffe565b8301826110e5565b50505b505050565b600082821c905092915050565b600061116c6000198460080261114e565b1980831691505092915050565b6000611185838361115b565b9150826002028217905092915050565b61119e826108fe565b67ffffffffffffffff8111156111b7576111b6610aef565b5b6111c18254610f41565b6111cc828285611108565b600060209050601f8311600181146111ff57600084156111ed578287015190505b6111f78582611179565b86555061125f565b601f19841661120d86610fe9565b60005b8281101561123557848901518255600182019150602085019450602081019050611210565b86831015611252578489015161124e601f89168261115b565b8355505b6001600288020188555050505b505050505050565b7f4e487b7100000000000000000000000000000000000000000000000000000000600052603260045260246000fd5b7f4f776e61626c653a206e6577206f776e657220697320746865207a65726f206160008201527f6464726573730000000000000000000000000000000000000000000000000000602082015250565b60006112f2602683610ddd565b91506112fd82611296565b604082019050919050565b60006020820190508181036000830152611321816112e5565b9050919050565b7f4f776e61626c653a2063616c6c6572206973206e6f7420746865206f776e6572600082015250565b600061135e602083610ddd565b915061136982611328565b602082019050919050565b6000602082019050818103600083015261138d81611351565b905091905056fea26469706673582212202ff1ffdf89cd361fe5325afb6022076474cda33ab8747a65570e6fcf7dbec84364736f6c63430008110033",
			"opcodes": "PUSH1 0x80 PUSH1 0x40 MSTORE PUSH1 0x0 PUSH1 0x2 SSTORE CALLVALUE DUP1 ISZERO PUSH2 0x15 JUMPI PUSH1 0x0 DUP1 REVERT JUMPDEST POP CALLER PUSH1 0x0 DUP1 PUSH2 0x100 EXP DUP2 SLOAD DUP2 PUSH20 0xFFFFFFFFFFFFFFFFFFFFFFFFFFFFFFFFFFFFFFFF MUL NOT AND SWAP1 DUP4 PUSH20 0xFFFFFFFFFFFFFFFFFFFFFFFFFFFFFFFFFFFFFFFF AND MUL OR SWAP1 SSTORE POP PUSH2 0x13CA DUP1 PUSH2 0x65 PUSH1 0x0 CODECOPY PUSH1 0x0 RETURN INVALID PUSH1 0x80 PUSH1 0x40 MSTORE CALLVALUE DUP1 ISZERO PUSH2 0x10 JUMPI PUSH1 0x0 DUP1 REVERT JUMPDEST POP PUSH1 0x4 CALLDATASIZE LT PUSH2 0x7D JUMPI PUSH1 0x0 CALLDATALOAD PUSH1 0xE0 SHR DUP1 PUSH4 0x83B08B8A GT PUSH2 0x5B JUMPI DUP1 PUSH4 0x83B08B8A EQ PUSH2 0xC6 JUMPI DUP1 PUSH4 0x8DA5CB5B EQ PUSH2 0xE2 JUMPI DUP1 PUSH4 0xEE416D5B EQ PUSH2 0x100 JUMPI DUP1 PUSH4 0xF2FDE38B EQ PUSH2 0x11C JUMPI PUSH2 0x7D JUMP JUMPDEST DUP1 PUSH4 0x4D0A5DBD EQ PUSH2 0x82 JUMPI DUP1 PUSH4 0x69F205F2 EQ PUSH2 0x9E JUMPI DUP1 PUSH4 0x83197EF0 EQ PUSH2 0xBC JUMPI JUMPDEST PUSH1 0x0 DUP1 REVERT JUMPDEST PUSH2 0x9C PUSH1 0x4 DUP1 CALLDATASIZE SUB DUP2 ADD SWAP1 PUSH2 0x97 SWAP2 SWAP1 PUSH2 0x88C JUMP JUMPDEST PUSH2 0x138 JUMP JUMPDEST STOP JUMPDEST PUSH2 0xA6 PUSH2 0x228 JUMP JUMPDEST PUSH1 0x40 MLOAD PUSH2 0xB3 SWAP2 SWAP1 PUSH2 0xAC8 JUMP JUMPDEST PUSH1 0x40 MLOAD DUP1 SWAP2 SUB SWAP1 RETURN JUMPDEST PUSH2 0xC4 PUSH2 0x3EF JUMP JUMPDEST STOP JUMPDEST PUSH2 0xE0 PUSH1 0x4 DUP1 CALLDATASIZE SUB DUP2 ADD SWAP1 PUSH2 0xDB SWAP2 SWAP1 PUSH2 0xD3D JUMP JUMPDEST PUSH2 0x410 JUMP JUMPDEST STOP JUMPDEST PUSH2 0xEA PUSH2 0x558 JUMP JUMPDEST PUSH1 0x40 MLOAD PUSH2 0xF7 SWAP2 SWAP1 PUSH2 0xD95 JUMP JUMPDEST PUSH1 0x40 MLOAD DUP1 SWAP2 SUB SWAP1 RETURN JUMPDEST PUSH2 0x11A PUSH1 0x4 DUP1 CALLDATASIZE SUB DUP2 ADD SWAP1 PUSH2 0x115 SWAP2 SWAP1 PUSH2 0xDB0 JUMP JUMPDEST PUSH2 0x581 JUMP JUMPDEST STOP JUMPDEST PUSH2 0x136 PUSH1 0x4 DUP1 CALLDATASIZE SUB DUP2 ADD SWAP1 PUSH2 0x131 SWAP2 SWAP1 PUSH2 0x88C JUMP JUMPDEST PUSH2 0x654 JUMP JUMPDEST STOP JUMPDEST PUSH2 0x140 PUSH2 0x6D7 JUMP JUMPDEST PUSH1 0x3 PUSH1 0x0 DUP3 PUSH20 0xFFFFFFFFFFFFFFFFFFFFFFFFFFFFFFFFFFFFFFFF AND PUSH20 0xFFFFFFFFFFFFFFFFFFFFFFFFFFFFFFFFFFFFFFFF AND DUP2 MSTORE PUSH1 0x20 ADD SWAP1 DUP2 MSTORE PUSH1 0x20 ADD PUSH1 0x0 KECCAK256 PUSH1 0x0 SWAP1 SLOAD SWAP1 PUSH2 0x100 EXP SWAP1 DIV PUSH1 0xFF AND ISZERO PUSH2 0x1CD JUMPI PUSH1 0x40 MLOAD PUSH32 0x8C379A000000000000000000000000000000000000000000000000000000000 DUP2 MSTORE PUSH1 0x4 ADD PUSH2 0x1C4 SWAP1 PUSH2 0xE60 JUMP JUMPDEST PUSH1 0x40 MLOAD DUP1 SWAP2 SUB SWAP1 REVERT JUMPDEST PUSH1 0x1 PUSH1 0x3 PUSH1 0x0 DUP4 PUSH20 0xFFFFFFFFFFFFFFFFFFFFFFFFFFFFFFFFFFFFFFFF AND PUSH20 0xFFFFFFFFFFFFFFFFFFFFFFFFFFFFFFFFFFFFFFFF AND DUP2 MSTORE PUSH1 0x20 ADD SWAP1 DUP2 MSTORE PUSH1 0x20 ADD PUSH1 0x0 KECCAK256 PUSH1 0x0 PUSH2 0x100 EXP DUP2 SLOAD DUP2 PUSH1 0xFF MUL NOT AND SWAP1 DUP4 ISZERO ISZERO MUL OR SWAP1 SSTORE POP POP JUMP JUMPDEST PUSH1 0x60 PUSH1 0x3 PUSH1 0x0 PUSH2 0x236 PUSH2 0x74E JUMP JUMPDEST PUSH20 0xFFFFFFFFFFFFFFFFFFFFFFFFFFFFFFFFFFFFFFFF AND PUSH20 0xFFFFFFFFFFFFFFFFFFFFFFFFFFFFFFFFFFFFFFFF AND DUP2 MSTORE PUSH1 0x20 ADD SWAP1 DUP2 MSTORE PUSH1 0x20 ADD PUSH1 0x0 KECCAK256 PUSH1 0x0 SWAP1 SLOAD SWAP1 PUSH2 0x100 EXP SWAP1 DIV PUSH1 0xFF AND PUSH2 0x2BD JUMPI PUSH1 0x40 MLOAD PUSH32 0x8C379A000000000000000000000000000000000000000000000000000000000 DUP2 MSTORE PUSH1 0x4 ADD PUSH2 0x2B4 SWAP1 PUSH2 0xEF2 JUMP JUMPDEST PUSH1 0x40 MLOAD DUP1 SWAP2 SUB SWAP1 REVERT JUMPDEST PUSH1 0x1 DUP1 SLOAD DUP1 PUSH1 0x20 MUL PUSH1 0x20 ADD PUSH1 0x40 MLOAD SWAP1 DUP2 ADD PUSH1 0x40 MSTORE DUP1 SWAP3 SWAP2 SWAP1 DUP2 DUP2 MSTORE PUSH1 0x20 ADD PUSH1 0x0 SWAP1 JUMPDEST DUP3 DUP3 LT ISZERO PUSH2 0x3E6 JUMPI DUP4 DUP3 SWAP1 PUSH1 0x0 MSTORE PUSH1 0x20 PUSH1 0x0 KECCAK256 SWAP1 PUSH1 0x6 MUL ADD PUSH1 0x40 MLOAD DUP1 PUSH1 0xC0 ADD PUSH1 0x40 MSTORE SWAP1 DUP2 PUSH1 0x0 DUP3 ADD SLOAD DUP2 MSTORE PUSH1 0x20 ADD PUSH1 0x1 DUP3 ADD SLOAD DUP2 MSTORE PUSH1 0x20 ADD PUSH1 0x2 DUP3 ADD SLOAD DUP2 MSTORE PUSH1 0x20 ADD PUSH1 0x3 DUP3 ADD SLOAD DUP2 MSTORE PUSH1 0x20 ADD PUSH1 0x4 DUP3 ADD DUP1 SLOAD PUSH2 0x33A SWAP1 PUSH2 0xF41 JUMP JUMPDEST DUP1 PUSH1 0x1F ADD PUSH1 0x20 DUP1 SWAP2 DIV MUL PUSH1 0x20 ADD PUSH1 0x40 MLOAD SWAP1 DUP2 ADD PUSH1 0x40 MSTORE DUP1 SWAP3 SWAP2 SWAP1 DUP2 DUP2 MSTORE PUSH1 0x20 ADD DUP3 DUP1 SLOAD PUSH2 0x366 SWAP1 PUSH2 0xF41 JUMP JUMPDEST DUP1 ISZERO PUSH2 0x3B3 JUMPI DUP1 PUSH1 0x1F LT PUSH2 0x388 JUMPI PUSH2 0x100 DUP1 DUP4 SLOAD DIV MUL DUP4 MSTORE SWAP2 PUSH1 0x20 ADD SWAP2 PUSH2 0x3B3 JUMP JUMPDEST DUP3 ADD SWAP2 SWAP1 PUSH1 0x0 MSTORE PUSH1 0x20 PUSH1 0x0 KECCAK256 SWAP1 JUMPDEST DUP2 SLOAD DUP2 MSTORE SWAP1 PUSH1 0x1 ADD SWAP1 PUSH1 0x20 ADD DUP1 DUP4 GT PUSH2 0x396 JUMPI DUP3 SWAP1 SUB PUSH1 0x1F AND DUP3 ADD SWAP2 JUMPDEST POP POP POP POP POP DUP2 MSTORE PUSH1 0x20 ADD PUSH1 0x5 DUP3 ADD PUSH1 0x0 SWAP1 SLOAD SWAP1 PUSH2 0x100 EXP SWAP1 DIV PUSH1 0xFF AND ISZERO ISZERO ISZERO ISZERO DUP2 MSTORE POP POP DUP2 MSTORE PUSH1 0x20 ADD SWAP1 PUSH1 0x1 ADD SWAP1 PUSH2 0x2DF JUMP JUMPDEST POP POP POP POP SWAP1 POP SWAP1 JUMP JUMPDEST PUSH2 0x3F7 PUSH2 0x6D7 JUMP JUMPDEST ADDRESS PUSH20 0xFFFFFFFFFFFFFFFFFFFFFFFFFFFFFFFFFFFFFFFF AND SELFDESTRUCT JUMPDEST PUSH1 0x3 PUSH1 0x0 PUSH2 0x41C PUSH2 0x74E JUMP JUMPDEST PUSH20 0xFFFFFFFFFFFFFFFFFFFFFFFFFFFFFFFFFFFFFFFF AND PUSH20 0xFFFFFFFFFFFFFFFFFFFFFFFFFFFFFFFFFFFFFFFF AND DUP2 MSTORE PUSH1 0x20 ADD SWAP1 DUP2 MSTORE PUSH1 0x20 ADD PUSH1 0x0 KECCAK256 PUSH1 0x0 SWAP1 SLOAD SWAP1 PUSH2 0x100 EXP SWAP1 DIV PUSH1 0xFF AND PUSH2 0x4A3 JUMPI PUSH1 0x40 MLOAD PUSH32 0x8C379A000000000000000000000000000000000000000000000000000000000 DUP2 MSTORE PUSH1 0x4 ADD PUSH2 0x49A SWAP1 PUSH2 0xEF2 JUMP JUMPDEST PUSH1 0x40 MLOAD DUP1 SWAP2 SUB SWAP1 REVERT JUMPDEST PUSH1 0x0 PUSH1 0x2 PUSH1 0x0 DUP2 SLOAD DUP1 SWAP3 SWAP2 SWAP1 PUSH2 0x4B8 SWAP1 PUSH2 0xFA1 JUMP JUMPDEST SWAP2 SWAP1 POP SSTORE SWAP1 POP DUP1 DUP3 PUSH1 0x0 ADD DUP2 DUP2 MSTORE POP POP PUSH1 0x1 DUP3 SWAP1 DUP1 PUSH1 0x1 DUP2 SLOAD ADD DUP1 DUP3 SSTORE DUP1 SWAP2 POP POP PUSH1 0x1 SWAP1 SUB SWAP1 PUSH1 0x0 MSTORE PUSH1 0x20 PUSH1 0x0 KECCAK256 SWAP1 PUSH1 0x6 MUL ADD PUSH1 0x0 SWAP1 SWAP2 SWAP1 SWAP2 SWAP1 SWAP2 POP PUSH1 0x0 DUP3 ADD MLOAD DUP2 PUSH1 0x0 ADD SSTORE PUSH1 0x20 DUP3 ADD MLOAD DUP2 PUSH1 0x1 ADD SSTORE PUSH1 0x40 DUP3 ADD MLOAD DUP2 PUSH1 0x2 ADD SSTORE PUSH1 0x60 DUP3 ADD MLOAD DUP2 PUSH1 0x3 ADD SSTORE PUSH1 0x80 DUP3 ADD MLOAD DUP2 PUSH1 0x4 ADD SWAP1 DUP2 PUSH2 0x531 SWAP2 SWAP1 PUSH2 0x1195 JUMP JUMPDEST POP PUSH1 0xA0 DUP3 ADD MLOAD DUP2 PUSH1 0x5 ADD PUSH1 0x0 PUSH2 0x100 EXP DUP2 SLOAD DUP2 PUSH1 0xFF MUL NOT AND SWAP1 DUP4 ISZERO ISZERO MUL OR SWAP1 SSTORE POP POP POP POP POP JUMP JUMPDEST PUSH1 0x0 DUP1 PUSH1 0x0 SWAP1 SLOAD SWAP1 PUSH2 0x100 EXP SWAP1 DIV PUSH20 0xFFFFFFFFFFFFFFFFFFFFFFFFFFFFFFFFFFFFFFFF AND SWAP1 POP SWAP1 JUMP JUMPDEST PUSH1 0x3 PUSH1 0x0 PUSH2 0x58D PUSH2 0x74E JUMP JUMPDEST PUSH20 0xFFFFFFFFFFFFFFFFFFFFFFFFFFFFFFFFFFFFFFFF AND PUSH20 0xFFFFFFFFFFFFFFFFFFFFFFFFFFFFFFFFFFFFFFFF AND DUP2 MSTORE PUSH1 0x20 ADD SWAP1 DUP2 MSTORE PUSH1 0x20 ADD PUSH1 0x0 KECCAK256 PUSH1 0x0 SWAP1 SLOAD SWAP1 PUSH2 0x100 EXP SWAP1 DIV PUSH1 0xFF AND PUSH2 0x614 JUMPI PUSH1 0x40 MLOAD PUSH32 0x8C379A000000000000000000000000000000000000000000000000000000000 DUP2 MSTORE PUSH1 0x4 ADD PUSH2 0x60B SWAP1 PUSH2 0xEF2 JUMP JUMPDEST PUSH1 0x40 MLOAD DUP1 SWAP2 SUB SWAP1 REVERT JUMPDEST PUSH1 0x1 DUP1 DUP3 DUP2 SLOAD DUP2 LT PUSH2 0x629 JUMPI PUSH2 0x628 PUSH2 0x1267 JUMP JUMPDEST JUMPDEST SWAP1 PUSH1 0x0 MSTORE PUSH1 0x20 PUSH1 0x0 KECCAK256 SWAP1 PUSH1 0x6 MUL ADD PUSH1 0x5 ADD PUSH1 0x0 PUSH2 0x100 EXP DUP2 SLOAD DUP2 PUSH1 0xFF MUL NOT AND SWAP1 DUP4 ISZERO ISZERO MUL OR SWAP1 SSTORE POP POP JUMP JUMPDEST PUSH2 0x65C PUSH2 0x6D7 JUMP JUMPDEST PUSH1 0x0 PUSH20 0xFFFFFFFFFFFFFFFFFFFFFFFFFFFFFFFFFFFFFFFF AND DUP2 PUSH20 0xFFFFFFFFFFFFFFFFFFFFFFFFFFFFFFFFFFFFFFFF AND SUB PUSH2 0x6CB JUMPI PUSH1 0x40 MLOAD PUSH32 0x8C379A000000000000000000000000000000000000000000000000000000000 DUP2 MSTORE PUSH1 0x4 ADD PUSH2 0x6C2 SWAP1 PUSH2 0x1308 JUMP JUMPDEST PUSH1 0x40 MLOAD DUP1 SWAP2 SUB SWAP1 REVERT JUMPDEST PUSH2 0x6D4 DUP2 PUSH2 0x756 JUMP JUMPDEST POP JUMP JUMPDEST CALLER PUSH20 0xFFFFFFFFFFFFFFFFFFFFFFFFFFFFFFFFFFFFFFFF AND PUSH2 0x6F6 PUSH2 0x558 JUMP JUMPDEST PUSH20 0xFFFFFFFFFFFFFFFFFFFFFFFFFFFFFFFFFFFFFFFF AND EQ PUSH2 0x74C JUMPI PUSH1 0x40 MLOAD PUSH32 0x8C379A000000000000000000000000000000000000000000000000000000000 DUP2 MSTORE PUSH1 0x4 ADD PUSH2 0x743 SWAP1 PUSH2 0x1374 JUMP JUMPDEST PUSH1 0x40 MLOAD DUP1 SWAP2 SUB SWAP1 REVERT JUMPDEST JUMP JUMPDEST PUSH1 0x0 CALLER SWAP1 POP SWAP1 JUMP JUMPDEST PUSH1 0x0 DUP1 PUSH1 0x0 SWAP1 SLOAD SWAP1 PUSH2 0x100 EXP SWAP1 DIV PUSH20 0xFFFFFFFFFFFFFFFFFFFFFFFFFFFFFFFFFFFFFFFF AND SWAP1 POP DUP2 PUSH1 0x0 DUP1 PUSH2 0x100 EXP DUP2 SLOAD DUP2 PUSH20 0xFFFFFFFFFFFFFFFFFFFFFFFFFFFFFFFFFFFFFFFF MUL NOT AND SWAP1 DUP4 PUSH20 0xFFFFFFFFFFFFFFFFFFFFFFFFFFFFFFFFFFFFFFFF AND MUL OR SWAP1 SSTORE POP DUP2 PUSH20 0xFFFFFFFFFFFFFFFFFFFFFFFFFFFFFFFFFFFFFFFF AND DUP2 PUSH20 0xFFFFFFFFFFFFFFFFFFFFFFFFFFFFFFFFFFFFFFFF AND PUSH32 0x8BE0079C531659141344CD1FD0A4F28419497F9722A3DAAFE3B4186F6B6457E0 PUSH1 0x40 MLOAD PUSH1 0x40 MLOAD DUP1 SWAP2 SUB SWAP1 LOG3 POP POP JUMP JUMPDEST PUSH1 0x0 PUSH1 0x40 MLOAD SWAP1 POP SWAP1 JUMP JUMPDEST PUSH1 0x0 DUP1 REVERT JUMPDEST PUSH1 0x0 DUP1 REVERT JUMPDEST PUSH1 0x0 PUSH20 0xFFFFFFFFFFFFFFFFFFFFFFFFFFFFFFFFFFFFFFFF DUP3 AND SWAP1 POP SWAP2 SWAP1 POP JUMP JUMPDEST PUSH1 0x0 PUSH2 0x859 DUP3 PUSH2 0x82E JUMP JUMPDEST SWAP1 POP SWAP2 SWAP1 POP JUMP JUMPDEST PUSH2 0x869 DUP2 PUSH2 0x84E JUMP JUMPDEST DUP2 EQ PUSH2 0x874 JUMPI PUSH1 0x0 DUP1 REVERT JUMPDEST POP JUMP JUMPDEST PUSH1 0x0 DUP2 CALLDATALOAD SWAP1 POP PUSH2 0x886 DUP2 PUSH2 0x860 JUMP JUMPDEST SWAP3 SWAP2 POP POP JUMP JUMPDEST PUSH1 0x0 PUSH1 0x20 DUP3 DUP5 SUB SLT ISZERO PUSH2 0x8A2 JUMPI PUSH2 0x8A1 PUSH2 0x824 JUMP JUMPDEST JUMPDEST PUSH1 0x0 PUSH2 0x8B0 DUP5 DUP3 DUP6 ADD PUSH2 0x877 JUMP JUMPDEST SWAP2 POP POP SWAP3 SWAP2 POP POP JUMP JUMPDEST PUSH1 0x0 DUP2 MLOAD SWAP1 POP SWAP2 SWAP1 POP JUMP JUMPDEST PUSH1 0x0 DUP3 DUP3 MSTORE PUSH1 0x20 DUP3 ADD SWAP1 POP SWAP3 SWAP2 POP POP JUMP JUMPDEST PUSH1 0x0 DUP2 SWAP1 POP PUSH1 0x20 DUP3 ADD SWAP1 POP SWAP2 SWAP1 POP JUMP JUMPDEST PUSH1 0x0 DUP2 SWAP1 POP SWAP2 SWAP1 POP JUMP JUMPDEST PUSH2 0x8F8 DUP2 PUSH2 0x8E5 JUMP JUMPDEST DUP3 MSTORE POP POP JUMP JUMPDEST PUSH1 0x0 DUP2 MLOAD SWAP1 POP SWAP2 SWAP1 POP JUMP JUMPDEST PUSH1 0x0 DUP3 DUP3 MSTORE PUSH1 0x20 DUP3 ADD SWAP1 POP SWAP3 SWAP2 POP POP JUMP JUMPDEST PUSH1 0x0 JUMPDEST DUP4 DUP2 LT ISZERO PUSH2 0x938 JUMPI DUP1 DUP3 ADD MLOAD DUP2 DUP5 ADD MSTORE PUSH1 0x20 DUP2 ADD SWAP1 POP PUSH2 0x91D JUMP JUMPDEST PUSH1 0x0 DUP5 DUP5 ADD MSTORE POP POP POP POP JUMP JUMPDEST PUSH1 0x0 PUSH1 0x1F NOT PUSH1 0x1F DUP4 ADD AND SWAP1 POP SWAP2 SWAP1 POP JUMP JUMPDEST PUSH1 0x0 PUSH2 0x960 DUP3 PUSH2 0x8FE JUMP JUMPDEST PUSH2 0x96A DUP2 DUP6 PUSH2 0x909 JUMP JUMPDEST SWAP4 POP PUSH2 0x97A DUP2 DUP6 PUSH1 0x20 DUP7 ADD PUSH2 0x91A JUMP JUMPDEST PUSH2 0x983 DUP2 PUSH2 0x944 JUMP JUMPDEST DUP5 ADD SWAP2 POP POP SWAP3 SWAP2 POP POP JUMP JUMPDEST PUSH1 0x0 DUP2 ISZERO ISZERO SWAP1 POP SWAP2 SWAP1 POP JUMP JUMPDEST PUSH2 0x9A3 DUP2 PUSH2 0x98E JUMP JUMPDEST DUP3 MSTORE POP POP JUMP JUMPDEST PUSH1 0x0 PUSH1 0xC0 DUP4 ADD PUSH1 0x0 DUP4 ADD MLOAD PUSH2 0x9C1 PUSH1 0x0 DUP7 ADD DUP3 PUSH2 0x8EF JUMP JUMPDEST POP PUSH1 0x20 DUP4 ADD MLOAD PUSH2 0x9D4 PUSH1 0x20 DUP7 ADD DUP3 PUSH2 0x8EF JUMP JUMPDEST POP PUSH1 0x40 DUP4 ADD MLOAD PUSH2 0x9E7 PUSH1 0x40 DUP7 ADD DUP3 PUSH2 0x8EF JUMP JUMPDEST POP PUSH1 0x60 DUP4 ADD MLOAD PUSH2 0x9FA PUSH1 0x60 DUP7 ADD DUP3 PUSH2 0x8EF JUMP JUMPDEST POP PUSH1 0x80 DUP4 ADD MLOAD DUP5 DUP3 SUB PUSH1 0x80 DUP7 ADD MSTORE PUSH2 0xA12 DUP3 DUP3 PUSH2 0x955 JUMP JUMPDEST SWAP2 POP POP PUSH1 0xA0 DUP4 ADD MLOAD PUSH2 0xA27 PUSH1 0xA0 DUP7 ADD DUP3 PUSH2 0x99A JUMP JUMPDEST POP DUP1 SWAP2 POP POP SWAP3 SWAP2 POP POP JUMP JUMPDEST PUSH1 0x0 PUSH2 0xA3E DUP4 DUP4 PUSH2 0x9A9 JUMP JUMPDEST SWAP1 POP SWAP3 SWAP2 POP POP JUMP JUMPDEST PUSH1 0x0 PUSH1 0x20 DUP3 ADD SWAP1 POP SWAP2 SWAP1 POP JUMP JUMPDEST PUSH1 0x0 PUSH2 0xA5E DUP3 PUSH2 0x8B9 JUMP JUMPDEST PUSH2 0xA68 DUP2 DUP6 PUSH2 0x8C4 JUMP JUMPDEST SWAP4 POP DUP4 PUSH1 0x20 DUP3 MUL DUP6 ADD PUSH2 0xA7A DUP6 PUSH2 0x8D5 JUMP JUMPDEST DUP1 PUSH1 0x0 JUMPDEST DUP6 DUP2 LT ISZERO PUSH2 0xAB6 JUMPI DUP5 DUP5 SUB DUP10 MSTORE DUP2 MLOAD PUSH2 0xA97 DUP6 DUP3 PUSH2 0xA32 JUMP JUMPDEST SWAP5 POP PUSH2 0xAA2 DUP4 PUSH2 0xA46 JUMP JUMPDEST SWAP3 POP PUSH1 0x20 DUP11 ADD SWAP10 POP POP PUSH1 0x1 DUP2 ADD SWAP1 POP PUSH2 0xA7E JUMP JUMPDEST POP DUP3 SWAP8 POP DUP8 SWAP6 POP POP POP POP POP POP SWAP3 SWAP2 POP POP JUMP JUMPDEST PUSH1 0x0 PUSH1 0x20 DUP3 ADD SWAP1 POP DUP2 DUP2 SUB PUSH1 0x0 DUP4 ADD MSTORE PUSH2 0xAE2 DUP2 DUP5 PUSH2 0xA53 JUMP JUMPDEST SWAP1 POP SWAP3 SWAP2 POP POP JUMP JUMPDEST PUSH1 0x0 DUP1 REVERT JUMPDEST PUSH32 0x4E487B7100000000000000000000000000000000000000000000000000000000 PUSH1 0x0 MSTORE PUSH1 0x41 PUSH1 0x4 MSTORE PUSH1 0x24 PUSH1 0x0 REVERT JUMPDEST PUSH2 0xB27 DUP3 PUSH2 0x944 JUMP JUMPDEST DUP2 ADD DUP2 DUP2 LT PUSH8 0xFFFFFFFFFFFFFFFF DUP3 GT OR ISZERO PUSH2 0xB46 JUMPI PUSH2 0xB45 PUSH2 0xAEF JUMP JUMPDEST JUMPDEST DUP1 PUSH1 0x40 MSTORE POP POP POP JUMP JUMPDEST PUSH1 0x0 PUSH2 0xB59 PUSH2 0x81A JUMP JUMPDEST SWAP1 POP PUSH2 0xB65 DUP3 DUP3 PUSH2 0xB1E JUMP JUMPDEST SWAP2 SWAP1 POP JUMP JUMPDEST PUSH1 0x0 DUP1 REVERT JUMPDEST PUSH2 0xB78 DUP2 PUSH2 0x8E5 JUMP JUMPDEST DUP2 EQ PUSH2 0xB83 JUMPI PUSH1 0x0 DUP1 REVERT JUMPDEST POP JUMP JUMPDEST PUSH1 0x0 DUP2 CALLDATALOAD SWAP1 POP PUSH2 0xB95 DUP2 PUSH2 0xB6F JUMP JUMPDEST SWAP3 SWAP2 POP POP JUMP JUMPDEST PUSH1 0x0 DUP1 REVERT JUMPDEST PUSH1 0x0 DUP1 REVERT JUMPDEST PUSH1 0x0 PUSH8 0xFFFFFFFFFFFFFFFF DUP3 GT ISZERO PUSH2 0xBC0 JUMPI PUSH2 0xBBF PUSH2 0xAEF JUMP JUMPDEST JUMPDEST PUSH2 0xBC9 DUP3 PUSH2 0x944 JUMP JUMPDEST SWAP1 POP PUSH1 0x20 DUP2 ADD SWAP1 POP SWAP2 SWAP1 POP JUMP JUMPDEST DUP3 DUP2 DUP4 CALLDATACOPY PUSH1 0x0 DUP4 DUP4 ADD MSTORE POP POP POP JUMP JUMPDEST PUSH1 0x0 PUSH2 0xBF8 PUSH2 0xBF3 DUP5 PUSH2 0xBA5 JUMP JUMPDEST PUSH2 0xB4F JUMP JUMPDEST SWAP1 POP DUP3 DUP2 MSTORE PUSH1 0x20 DUP2 ADD DUP5 DUP5 DUP5 ADD GT ISZERO PUSH2 0xC14 JUMPI PUSH2 0xC13 PUSH2 0xBA0 JUMP JUMPDEST JUMPDEST PUSH2 0xC1F DUP5 DUP3 DUP6 PUSH2 0xBD6 JUMP JUMPDEST POP SWAP4 SWAP3 POP POP POP JUMP JUMPDEST PUSH1 0x0 DUP3 PUSH1 0x1F DUP4 ADD SLT PUSH2 0xC3C JUMPI PUSH2 0xC3B PUSH2 0xB9B JUMP JUMPDEST JUMPDEST DUP2 CALLDATALOAD PUSH2 0xC4C DUP5 DUP3 PUSH1 0x20 DUP7 ADD PUSH2 0xBE5 JUMP JUMPDEST SWAP2 POP POP SWAP3 SWAP2 POP POP JUMP JUMPDEST PUSH2 0xC5E DUP2 PUSH2 0x98E JUMP JUMPDEST DUP2 EQ PUSH2 0xC69 JUMPI PUSH1 0x0 DUP1 REVERT JUMPDEST POP JUMP JUMPDEST PUSH1 0x0 DUP2 CALLDATALOAD SWAP1 POP PUSH2 0xC7B DUP2 PUSH2 0xC55 JUMP JUMPDEST SWAP3 SWAP2 POP POP JUMP JUMPDEST PUSH1 0x0 PUSH1 0xC0 DUP3 DUP5 SUB SLT ISZERO PUSH2 0xC97 JUMPI PUSH2 0xC96 PUSH2 0xAEA JUMP JUMPDEST JUMPDEST PUSH2 0xCA1 PUSH1 0xC0 PUSH2 0xB4F JUMP JUMPDEST SWAP1 POP PUSH1 0x0 PUSH2 0xCB1 DUP5 DUP3 DUP6 ADD PUSH2 0xB86 JUMP JUMPDEST PUSH1 0x0 DUP4 ADD MSTORE POP PUSH1 0x20 PUSH2 0xCC5 DUP5 DUP3 DUP6 ADD PUSH2 0xB86 JUMP JUMPDEST PUSH1 0x20 DUP4 ADD MSTORE POP PUSH1 0x40 PUSH2 0xCD9 DUP5 DUP3 DUP6 ADD PUSH2 0xB86 JUMP JUMPDEST PUSH1 0x40 DUP4 ADD MSTORE POP PUSH1 0x60 PUSH2 0xCED DUP5 DUP3 DUP6 ADD PUSH2 0xB86 JUMP JUMPDEST PUSH1 0x60 DUP4 ADD MSTORE POP PUSH1 0x80 DUP3 ADD CALLDATALOAD PUSH8 0xFFFFFFFFFFFFFFFF DUP2 GT ISZERO PUSH2 0xD11 JUMPI PUSH2 0xD10 PUSH2 0xB6A JUMP JUMPDEST JUMPDEST PUSH2 0xD1D DUP5 DUP3 DUP6 ADD PUSH2 0xC27 JUMP JUMPDEST PUSH1 0x80 DUP4 ADD MSTORE POP PUSH1 0xA0 PUSH2 0xD31 DUP5 DUP3 DUP6 ADD PUSH2 0xC6C JUMP JUMPDEST PUSH1 0xA0 DUP4 ADD MSTORE POP SWAP3 SWAP2 POP POP JUMP JUMPDEST PUSH1 0x0 PUSH1 0x20 DUP3 DUP5 SUB SLT ISZERO PUSH2 0xD53 JUMPI PUSH2 0xD52 PUSH2 0x824 JUMP JUMPDEST JUMPDEST PUSH1 0x0 DUP3 ADD CALLDATALOAD PUSH8 0xFFFFFFFFFFFFFFFF DUP2 GT ISZERO PUSH2 0xD71 JUMPI PUSH2 0xD70 PUSH2 0x829 JUMP JUMPDEST JUMPDEST PUSH2 0xD7D DUP5 DUP3 DUP6 ADD PUSH2 0xC81 JUMP JUMPDEST SWAP2 POP POP SWAP3 SWAP2 POP POP JUMP JUMPDEST PUSH2 0xD8F DUP2 PUSH2 0x84E JUMP JUMPDEST DUP3 MSTORE POP POP JUMP JUMPDEST PUSH1 0x0 PUSH1 0x20 DUP3 ADD SWAP1 POP PUSH2 0xDAA PUSH1 0x0 DUP4 ADD DUP5 PUSH2 0xD86 JUMP JUMPDEST SWAP3 SWAP2 POP POP JUMP JUMPDEST PUSH1 0x0 PUSH1 0x20 DUP3 DUP5 SUB SLT ISZERO PUSH2 0xDC6 JUMPI PUSH2 0xDC5 PUSH2 0x824 JUMP JUMPDEST JUMPDEST PUSH1 0x0 PUSH2 0xDD4 DUP5 DUP3 DUP6 ADD PUSH2 0xB86 JUMP JUMPDEST SWAP2 POP POP SWAP3 SWAP2 POP POP JUMP JUMPDEST PUSH1 0x0 DUP3 DUP3 MSTORE PUSH1 0x20 DUP3 ADD SWAP1 POP SWAP3 SWAP2 POP POP JUMP JUMPDEST PUSH32 0x496E677265737344617461626173653A207065726D697373696F6E2068617320 PUSH1 0x0 DUP3 ADD MSTORE PUSH32 0x6265656E206772616E7465640000000000000000000000000000000000000000 PUSH1 0x20 DUP3 ADD MSTORE POP JUMP JUMPDEST PUSH1 0x0 PUSH2 0xE4A PUSH1 0x2C DUP4 PUSH2 0xDDD JUMP JUMPDEST SWAP2 POP PUSH2 0xE55 DUP3 PUSH2 0xDEE JUMP JUMPDEST PUSH1 0x40 DUP3 ADD SWAP1 POP SWAP2 SWAP1 POP JUMP JUMPDEST PUSH1 0x0 PUSH1 0x20 DUP3 ADD SWAP1 POP DUP2 DUP2 SUB PUSH1 0x0 DUP4 ADD MSTORE PUSH2 0xE79 DUP2 PUSH2 0xE3D JUMP JUMPDEST SWAP1 POP SWAP2 SWAP1 POP JUMP JUMPDEST PUSH32 0x496E677265737344617461626173653A206F6E6C7920636F6E74726163742077 PUSH1 0x0 DUP3 ADD MSTORE PUSH32 0x686963682061726520616C6C6F77656400000000000000000000000000000000 PUSH1 0x20 DUP3 ADD MSTORE POP JUMP JUMPDEST PUSH1 0x0 PUSH2 0xEDC PUSH1 0x30 DUP4 PUSH2 0xDDD JUMP JUMPDEST SWAP2 POP PUSH2 0xEE7 DUP3 PUSH2 0xE80 JUMP JUMPDEST PUSH1 0x40 DUP3 ADD SWAP1 POP SWAP2 SWAP1 POP JUMP JUMPDEST PUSH1 0x0 PUSH1 0x20 DUP3 ADD SWAP1 POP DUP2 DUP2 SUB PUSH1 0x0 DUP4 ADD MSTORE PUSH2 0xF0B DUP2 PUSH2 0xECF JUMP JUMPDEST SWAP1 POP SWAP2 SWAP1 POP JUMP JUMPDEST PUSH32 0x4E487B7100000000000000000000000000000000000000000000000000000000 PUSH1 0x0 MSTORE PUSH1 0x22 PUSH1 0x4 MSTORE PUSH1 0x24 PUSH1 0x0 REVERT JUMPDEST PUSH1 0x0 PUSH1 0x2 DUP3 DIV SWAP1 POP PUSH1 0x1 DUP3 AND DUP1 PUSH2 0xF59 JUMPI PUSH1 0x7F DUP3 AND SWAP2 POP JUMPDEST PUSH1 0x20 DUP3 LT DUP2 SUB PUSH2 0xF6C JUMPI PUSH2 0xF6B PUSH2 0xF12 JUMP JUMPDEST JUMPDEST POP SWAP2 SWAP1 POP JUMP JUMPDEST PUSH32 0x4E487B7100000000000000000000000000000000000000000000000000000000 PUSH1 0x0 MSTORE PUSH1 0x11 PUSH1 0x4 MSTORE PUSH1 0x24 PUSH1 0x0 REVERT JUMPDEST PUSH1 0x0 PUSH2 0xFAC DUP3 PUSH2 0x8E5 JUMP JUMPDEST SWAP2 POP PUSH32 0xFFFFFFFFFFFFFFFFFFFFFFFFFFFFFFFFFFFFFFFFFFFFFFFFFFFFFFFFFFFFFFFF DUP3 SUB PUSH2 0xFDE JUMPI PUSH2 0xFDD PUSH2 0xF72 JUMP JUMPDEST JUMPDEST PUSH1 0x1 DUP3 ADD SWAP1 POP SWAP2 SWAP1 POP JUMP JUMPDEST PUSH1 0x0 DUP2 SWAP1 POP DUP2 PUSH1 0x0 MSTORE PUSH1 0x20 PUSH1 0x0 KECCAK256 SWAP1 POP SWAP2 SWAP1 POP JUMP JUMPDEST PUSH1 0x0 PUSH1 0x20 PUSH1 0x1F DUP4 ADD DIV SWAP1 POP SWAP2 SWAP1 POP JUMP JUMPDEST PUSH1 0x0 DUP3 DUP3 SHL SWAP1 POP SWAP3 SWAP2 POP POP JUMP JUMPDEST PUSH1 0x0 PUSH1 0x8 DUP4 MUL PUSH2 0x104B PUSH32 0xFFFFFFFFFFFFFFFFFFFFFFFFFFFFFFFFFFFFFFFFFFFFFFFFFFFFFFFFFFFFFFFF DUP3 PUSH2 0x100E JUMP JUMPDEST PUSH2 0x1055 DUP7 DUP4 PUSH2 0x100E JUMP JUMPDEST SWAP6 POP DUP1 NOT DUP5 AND SWAP4 POP DUP1 DUP7 AND DUP5 OR SWAP3 POP POP POP SWAP4 SWAP3 POP POP POP JUMP JUMPDEST PUSH1 0x0 DUP2 SWAP1 POP SWAP2 SWAP1 POP JUMP JUMPDEST PUSH1 0x0 PUSH2 0x1092 PUSH2 0x108D PUSH2 0x1088 DUP5 PUSH2 0x8E5 JUMP JUMPDEST PUSH2 0x106D JUMP JUMPDEST PUSH2 0x8E5 JUMP JUMPDEST SWAP1 POP SWAP2 SWAP1 POP JUMP JUMPDEST PUSH1 0x0 DUP2 SWAP1 POP SWAP2 SWAP1 POP JUMP JUMPDEST PUSH2 0x10AC DUP4 PUSH2 0x1077 JUMP JUMPDEST PUSH2 0x10C0 PUSH2 0x10B8 DUP3 PUSH2 0x1099 JUMP JUMPDEST DUP5 DUP5 SLOAD PUSH2 0x101B JUMP JUMPDEST DUP3 SSTORE POP POP POP POP JUMP JUMPDEST PUSH1 0x0 SWAP1 JUMP JUMPDEST PUSH2 0x10D5 PUSH2 0x10C8 JUMP JUMPDEST PUSH2 0x10E0 DUP2 DUP5 DUP5 PUSH2 0x10A3 JUMP JUMPDEST POP POP POP JUMP JUMPDEST JUMPDEST DUP2 DUP2 LT ISZERO PUSH2 0x1104 JUMPI PUSH2 0x10F9 PUSH1 0x0 DUP3 PUSH2 0x10CD JUMP JUMPDEST PUSH1 0x1 DUP2 ADD SWAP1 POP PUSH2 0x10E6 JUMP JUMPDEST POP POP JUMP JUMPDEST PUSH1 0x1F DUP3 GT ISZERO PUSH2 0x1149 JUMPI PUSH2 0x111A DUP2 PUSH2 0xFE9 JUMP JUMPDEST PUSH2 0x1123 DUP5 PUSH2 0xFFE JUMP JUMPDEST DUP2 ADD PUSH1 0x20 DUP6 LT ISZERO PUSH2 0x1132 JUMPI DUP2 SWAP1 POP JUMPDEST PUSH2 0x1146 PUSH2 0x113E DUP6 PUSH2 0xFFE JUMP JUMPDEST DUP4 ADD DUP3 PUSH2 0x10E5 JUMP JUMPDEST POP POP JUMPDEST POP POP POP JUMP JUMPDEST PUSH1 0x0 DUP3 DUP3 SHR SWAP1 POP SWAP3 SWAP2 POP POP JUMP JUMPDEST PUSH1 0x0 PUSH2 0x116C PUSH1 0x0 NOT DUP5 PUSH1 0x8 MUL PUSH2 0x114E JUMP JUMPDEST NOT DUP1 DUP4 AND SWAP2 POP POP SWAP3 SWAP2 POP POP JUMP JUMPDEST PUSH1 0x0 PUSH2 0x1185 DUP4 DUP4 PUSH2 0x115B JUMP JUMPDEST SWAP2 POP DUP3 PUSH1 0x2 MUL DUP3 OR SWAP1 POP SWAP3 SWAP2 POP POP JUMP JUMPDEST PUSH2 0x119E DUP3 PUSH2 0x8FE JUMP JUMPDEST PUSH8 0xFFFFFFFFFFFFFFFF DUP2 GT ISZERO PUSH2 0x11B7 JUMPI PUSH2 0x11B6 PUSH2 0xAEF JUMP JUMPDEST JUMPDEST PUSH2 0x11C1 DUP3 SLOAD PUSH2 0xF41 JUMP JUMPDEST PUSH2 0x11CC DUP3 DUP3 DUP6 PUSH2 0x1108 JUMP JUMPDEST PUSH1 0x0 PUSH1 0x20 SWAP1 POP PUSH1 0x1F DUP4 GT PUSH1 0x1 DUP2 EQ PUSH2 0x11FF JUMPI PUSH1 0x0 DUP5 ISZERO PUSH2 0x11ED JUMPI DUP3 DUP8 ADD MLOAD SWAP1 POP JUMPDEST PUSH2 0x11F7 DUP6 DUP3 PUSH2 0x1179 JUMP JUMPDEST DUP7 SSTORE POP PUSH2 0x125F JUMP JUMPDEST PUSH1 0x1F NOT DUP5 AND PUSH2 0x120D DUP7 PUSH2 0xFE9 JUMP JUMPDEST PUSH1 0x0 JUMPDEST DUP3 DUP2 LT ISZERO PUSH2 0x1235 JUMPI DUP5 DUP10 ADD MLOAD DUP3 SSTORE PUSH1 0x1 DUP3 ADD SWAP2 POP PUSH1 0x20 DUP6 ADD SWAP5 POP PUSH1 0x20 DUP2 ADD SWAP1 POP PUSH2 0x1210 JUMP JUMPDEST DUP7 DUP4 LT ISZERO PUSH2 0x1252 JUMPI DUP5 DUP10 ADD MLOAD PUSH2 0x124E PUSH1 0x1F DUP10 AND DUP3 PUSH2 0x115B JUMP JUMPDEST DUP4 SSTORE POP JUMPDEST PUSH1 0x1 PUSH1 0x2 DUP9 MUL ADD DUP9 SSTORE POP POP POP JUMPDEST POP POP POP POP POP POP JUMP JUMPDEST PUSH32 0x4E487B7100000000000000000000000000000000000000000000000000000000 PUSH1 0x0 MSTORE PUSH1 0x32 PUSH1 0x4 MSTORE PUSH1 0x24 PUSH1 0x0 REVERT JUMPDEST PUSH32 0x4F776E61626C653A206E6577206F776E657220697320746865207A65726F2061 PUSH1 0x0 DUP3 ADD MSTORE PUSH32 0x6464726573730000000000000000000000000000000000000000000000000000 PUSH1 0x20 DUP3 ADD MSTORE POP JUMP JUMPDEST PUSH1 0x0 PUSH2 0x12F2 PUSH1 0x26 DUP4 PUSH2 0xDDD JUMP JUMPDEST SWAP2 POP PUSH2 0x12FD DUP3 PUSH2 0x1296 JUMP JUMPDEST PUSH1 0x40 DUP3 ADD SWAP1 POP SWAP2 SWAP1 POP JUMP JUMPDEST PUSH1 0x0 PUSH1 0x20 DUP3 ADD SWAP1 POP DUP2 DUP2 SUB PUSH1 0x0 DUP4 ADD MSTORE PUSH2 0x1321 DUP2 PUSH2 0x12E5 JUMP JUMPDEST SWAP1 POP SWAP2 SWAP1 POP JUMP JUMPDEST PUSH32 0x4F776E61626C653A2063616C6C6572206973206E6F7420746865206F776E6572 PUSH1 0x0 DUP3 ADD MSTORE POP JUMP JUMPDEST PUSH1 0x0 PUSH2 0x135E PUSH1 0x20 DUP4 PUSH2 0xDDD JUMP JUMPDEST SWAP2 POP PUSH2 0x1369 DUP3 PUSH2 0x1328 JUMP JUMPDEST PUSH1 0x20 DUP3 ADD SWAP1 POP SWAP2 SWAP1 POP JUMP JUMPDEST PUSH1 0x0 PUSH1 0x20 DUP3 ADD SWAP1 POP DUP2 DUP2 SUB PUSH1 0x0 DUP4 ADD MSTORE PUSH2 0x138D DUP2 PUSH2 0x1351 JUMP JUMPDEST SWAP1 POP SWAP2 SWAP1 POP JUMP INVALID LOG2 PUSH5 0x6970667358 0x22 SLT KECCAK256 0x2F CALL SELFDESTRUCT 0xDF DUP10 0xCD CALLDATASIZE 0x1F 0xE5 ORIGIN GAS 0xFB PUSH1 0x22 SMOD PUSH5 0x74CDA33AB8 PUSH21 0x7A65570E6FCF7DBEC84364736F6C63430008110033 "
		},
		"gasEstimates": {
			"creation": {
				"codeDepositCost": "1013200",
				"executionCost": "30326",
				"totalCost": "1043526"
			},
			"external": {
				"addChecked(uint256)": "29191",
				"addIngress((uint256,uint256,uint256,uint256,string,bool))": "infinite",
				"addPermission(address)": "29288",
				"destroy()": "30017",
				"getAllIngress()": "infinite",
				"owner()": "2544",
				"transferOwnership(address)": "30775"
			}
		},
		"methodIdentifiers": {
			"addChecked(uint256)": "ee416d5b",
			"addIngress((uint256,uint256,uint256,uint256,string,bool))": "83b08b8a",
			"addPermission(address)": "4d0a5dbd",
			"destroy()": "83197ef0",
			"getAllIngress()": "69f205f2",
			"owner()": "8da5cb5b",
			"transferOwnership(address)": "f2fde38b"
		}
	},
	"abi": [
		{
			"inputs": [],
			"stateMutability": "nonpayable",
			"type": "constructor"
		},
		{
			"anonymous": false,
			"inputs": [
				{
					"indexed": true,
					"internalType": "address",
					"name": "previousOwner",
					"type": "address"
				},
				{
					"indexed": true,
					"internalType": "address",
					"name": "newOwner",
					"type": "address"
				}
			],
			"name": "OwnershipTransferred",
			"type": "event"
		},
		{
			"inputs": [
				{
					"internalType": "uint256",
					"name": "ingressId",
					"type": "uint256"
				}
			],
			"name": "addChecked",
			"outputs": [],
			"stateMutability": "nonpayable",
			"type": "function"
		},
		{
			"inputs": [
				{
					"components": [
						{
							"internalType": "uint256",
							"name": "batchId",
							"type": "uint256"
						},
						{
							"internalType": "uint256",
							"name": "userId",
							"type": "uint256"
						},
						{
							"internalType": "uint256",
							"name": "farmerId",
							"type": "uint256"
						},
						{
							"internalType": "uint256",
							"name": "ingressDate",
							"type": "uint256"
						},
						{
							"internalType": "string",
							"name": "ingressAddress",
							"type": "string"
						},
						{
							"internalType": "bool",
							"name": "ingressIsChecked",
							"type": "bool"
						}
					],
					"internalType": "struct Ingress",
					"name": "ingress",
					"type": "tuple"
				}
			],
			"name": "addIngress",
			"outputs": [],
			"stateMutability": "nonpayable",
			"type": "function"
		},
		{
			"inputs": [
				{
					"internalType": "address",
					"name": "contractPermission",
					"type": "address"
				}
			],
			"name": "addPermission",
			"outputs": [],
			"stateMutability": "nonpayable",
			"type": "function"
		},
		{
			"inputs": [],
			"name": "destroy",
			"outputs": [],
			"stateMutability": "nonpayable",
			"type": "function"
		},
		{
			"inputs": [],
			"name": "getAllIngress",
			"outputs": [
				{
					"components": [
						{
							"internalType": "uint256",
							"name": "batchId",
							"type": "uint256"
						},
						{
							"internalType": "uint256",
							"name": "userId",
							"type": "uint256"
						},
						{
							"internalType": "uint256",
							"name": "farmerId",
							"type": "uint256"
						},
						{
							"internalType": "uint256",
							"name": "ingressDate",
							"type": "uint256"
						},
						{
							"internalType": "string",
							"name": "ingressAddress",
							"type": "string"
						},
						{
							"internalType": "bool",
							"name": "ingressIsChecked",
							"type": "bool"
						}
					],
					"internalType": "struct Ingress[]",
					"name": "",
					"type": "tuple[]"
				}
			],
			"stateMutability": "view",
			"type": "function"
		},
		{
			"inputs": [],
			"name": "owner",
			"outputs": [
				{
					"internalType": "address",
					"name": "",
					"type": "address"
				}
			],
			"stateMutability": "view",
			"type": "function"
		},
		{
			"inputs": [
				{
					"internalType": "address",
					"name": "newOwner",
					"type": "address"
				}
			],
			"name": "transferOwnership",
			"outputs": [],
			"stateMutability": "nonpayable",
			"type": "function"
		}
	]
}