{
	"database/processing/RoughDatabase.sol": {
		"RoughDatabase": {
			"abi": [
				{
					"inputs": [],
					"stateMutability": "nonpayable",
					"type": "constructor"
				},
				{
					"anonymous": false,
					"inputs": [
						{
							"indexed": true,
							"internalType": "address",
							"name": "previousOwner",
							"type": "address"
						},
						{
							"indexed": true,
							"internalType": "address",
							"name": "newOwner",
							"type": "address"
						}
					],
					"name": "OwnershipTransferred",
					"type": "event"
				},
				{
					"inputs": [
						{
							"internalType": "uint256",
							"name": "RoughId",
							"type": "uint256"
						}
					],
					"name": "addChecked",
					"outputs": [],
					"stateMutability": "nonpayable",
					"type": "function"
				},
				{
					"inputs": [
						{
							"internalType": "address",
							"name": "contractPermission",
							"type": "address"
						}
					],
					"name": "addPermission",
					"outputs": [],
					"stateMutability": "nonpayable",
					"type": "function"
				},
				{
					"inputs": [
						{
							"components": [
								{
									"internalType": "uint256",
									"name": "batchId",
									"type": "uint256"
								},
								{
									"internalType": "string",
									"name": "userName",
									"type": "string"
								},
								{
									"internalType": "address",
									"name": "userAddress",
									"type": "address"
								},
								{
									"internalType": "uint256",
									"name": "roughDate",
									"type": "uint256"
								},
								{
									"internalType": "string",
									"name": "roughAdress",
									"type": "string"
								},
								{
									"internalType": "bool",
									"name": "roughIsChecked",
									"type": "bool"
								}
							],
							"internalType": "struct Rough",
							"name": "item",
							"type": "tuple"
						}
					],
					"name": "addRough",
					"outputs": [],
					"stateMutability": "nonpayable",
					"type": "function"
				},
				{
					"inputs": [],
					"name": "destroy",
					"outputs": [],
					"stateMutability": "nonpayable",
					"type": "function"
				},
				{
					"inputs": [],
					"name": "getAllRough",
					"outputs": [
						{
							"components": [
								{
									"internalType": "uint256",
									"name": "batchId",
									"type": "uint256"
								},
								{
									"internalType": "string",
									"name": "userName",
									"type": "string"
								},
								{
									"internalType": "address",
									"name": "userAddress",
									"type": "address"
								},
								{
									"internalType": "uint256",
									"name": "roughDate",
									"type": "uint256"
								},
								{
									"internalType": "string",
									"name": "roughAdress",
									"type": "string"
								},
								{
									"internalType": "bool",
									"name": "roughIsChecked",
									"type": "bool"
								}
							],
							"internalType": "struct Rough[]",
							"name": "",
							"type": "tuple[]"
						}
					],
					"stateMutability": "view",
					"type": "function"
				},
				{
					"inputs": [],
					"name": "owner",
					"outputs": [
						{
							"internalType": "address",
							"name": "",
							"type": "address"
						}
					],
					"stateMutability": "view",
					"type": "function"
				},
				{
					"inputs": [
						{
							"internalType": "address",
							"name": "newOwner",
							"type": "address"
						}
					],
					"name": "transferOwnership",
					"outputs": [],
					"stateMutability": "nonpayable",
					"type": "function"
				}
			],
			"devdoc": {
				"kind": "dev",
				"methods": {
					"owner()": {
						"details": "Returns the address of the current owner."
					},
					"transferOwnership(address)": {
						"details": "Transfers ownership of the contract to a new account (`newOwner`). Can only be called by the current owner."
					}
				},
				"version": 1
			},
			"evm": {
				"assembly": "    /* \"database/processing/RoughDatabase.sol\":182:1168  contract RoughDatabase is Ownable {... */\n  mstore(0x40, 0x80)\n    /* \"database/processing/RoughDatabase.sol\":492:518  constructor() Ownable() {} */\n  callvalue\n  dup1\n  iszero\n  tag_1\n  jumpi\n  0x00\n  dup1\n  revert\ntag_1:\n  pop\n    /* \"abstract/Ownable.sol\":1032:1042  msg.sender */\n  caller\n    /* \"abstract/Ownable.sol\":1023:1029  _owner */\n  0x00\n  dup1\n    /* \"abstract/Ownable.sol\":1023:1042  _owner = msg.sender */\n  0x0100\n  exp\n  dup2\n  sload\n  dup2\n  0xffffffffffffffffffffffffffffffffffffffff\n  mul\n  not\n  and\n  swap1\n  dup4\n  0xffffffffffffffffffffffffffffffffffffffff\n  and\n  mul\n  or\n  swap1\n  sstore\n  pop\n    /* \"database/processing/RoughDatabase.sol\":182:1168  contract RoughDatabase is Ownable {... */\n  dataSize(sub_0)\n  dup1\n  dataOffset(sub_0)\n  0x00\n  codecopy\n  0x00\n  return\nstop\n\nsub_0: assembly {\n        /* \"database/processing/RoughDatabase.sol\":182:1168  contract RoughDatabase is Ownable {... */\n      mstore(0x40, 0x80)\n      callvalue\n      dup1\n      iszero\n      tag_1\n      jumpi\n      0x00\n      dup1\n      revert\n    tag_1:\n      pop\n      jumpi(tag_2, lt(calldatasize, 0x04))\n      shr(0xe0, calldataload(0x00))\n      dup1\n      0x8da5cb5b\n      gt\n      tag_10\n      jumpi\n      dup1\n      0x8da5cb5b\n      eq\n      tag_6\n      jumpi\n      dup1\n      0xee416d5b\n      eq\n      tag_7\n      jumpi\n      dup1\n      0xeea1e481\n      eq\n      tag_8\n      jumpi\n      dup1\n      0xf2fde38b\n      eq\n      tag_9\n      jumpi\n      jump(tag_2)\n    tag_10:\n      dup1\n      0x1f9c0c6f\n      eq\n      tag_3\n      jumpi\n      dup1\n      0x4d0a5dbd\n      eq\n      tag_4\n      jumpi\n      dup1\n      0x83197ef0\n      eq\n      tag_5\n      jumpi\n    tag_2:\n      0x00\n      dup1\n      revert\n        /* \"database/processing/RoughDatabase.sol\":1018:1165  function getAllRough()... */\n    tag_3:\n      tag_11\n      tag_12\n      jump\t// in\n    tag_11:\n      mload(0x40)\n      tag_13\n      swap2\n      swap1\n      tag_14\n      jump\t// in\n    tag_13:\n      mload(0x40)\n      dup1\n      swap2\n      sub\n      swap1\n      return\n        /* \"database/processing/RoughDatabase.sol\":526:786  function addPermission(address contractPermission) public onlyOwner {... */\n    tag_4:\n      tag_15\n      0x04\n      dup1\n      calldatasize\n      sub\n      dup2\n      add\n      swap1\n      tag_16\n      swap2\n      swap1\n      tag_17\n      jump\t// in\n    tag_16:\n      tag_18\n      jump\t// in\n    tag_15:\n      stop\n        /* \"abstract/Ownable.sol\":2801:2892  function destroy() public onlyOwner {... */\n    tag_5:\n      tag_19\n      tag_20\n      jump\t// in\n    tag_19:\n      stop\n        /* \"abstract/Ownable.sol\":1289:1376  function owner() public view virtual returns (address) {... */\n    tag_6:\n      tag_21\n      tag_22\n      jump\t// in\n    tag_21:\n      mload(0x40)\n      tag_23\n      swap2\n      swap1\n      tag_24\n      jump\t// in\n    tag_23:\n      mload(0x40)\n      dup1\n      swap2\n      sub\n      swap1\n      return\n        /* \"database/processing/RoughDatabase.sol\":896:1010  function addChecked(uint256 RoughId) public onlyPermissions {... */\n    tag_7:\n      tag_25\n      0x04\n      dup1\n      calldatasize\n      sub\n      dup2\n      add\n      swap1\n      tag_26\n      swap2\n      swap1\n      tag_27\n      jump\t// in\n    tag_26:\n      tag_28\n      jump\t// in\n    tag_25:\n      stop\n        /* \"database/processing/RoughDatabase.sol\":794:888  function addRough(Rough memory item) public onlyPermissions {... */\n    tag_8:\n      tag_29\n      0x04\n      dup1\n      calldatasize\n      sub\n      dup2\n      add\n      swap1\n      tag_30\n      swap2\n      swap1\n      tag_31\n      jump\t// in\n    tag_30:\n      tag_32\n      jump\t// in\n    tag_29:\n      stop\n        /* \"abstract/Ownable.sol\":2204:2442  function transferOwnership(address newOwner) public virtual onlyOwner {... */\n    tag_9:\n      tag_33\n      0x04\n      dup1\n      calldatasize\n      sub\n      dup2\n      add\n      swap1\n      tag_34\n      swap2\n      swap1\n      tag_17\n      jump\t// in\n    tag_34:\n      tag_35\n      jump\t// in\n    tag_33:\n      stop\n        /* \"database/processing/RoughDatabase.sol\":1018:1165  function getAllRough()... */\n    tag_12:\n        /* \"database/processing/RoughDatabase.sol\":1114:1128  Rough[] memory */\n      0x60\n        /* \"database/processing/RoughDatabase.sol\":365:376  permissions */\n      0x02\n        /* \"database/processing/RoughDatabase.sol\":365:390  permissions[_msgSender()] */\n      0x00\n        /* \"database/processing/RoughDatabase.sol\":377:389  _msgSender() */\n      tag_37\n        /* \"database/processing/RoughDatabase.sol\":377:387  _msgSender */\n      tag_38\n        /* \"database/processing/RoughDatabase.sol\":377:389  _msgSender() */\n      jump\t// in\n    tag_37:\n        /* \"database/processing/RoughDatabase.sol\":365:390  permissions[_msgSender()] */\n      0xffffffffffffffffffffffffffffffffffffffff\n      and\n      0xffffffffffffffffffffffffffffffffffffffff\n      and\n      dup2\n      mstore\n      0x20\n      add\n      swap1\n      dup2\n      mstore\n      0x20\n      add\n      0x00\n      keccak256\n      0x00\n      swap1\n      sload\n      swap1\n      0x0100\n      exp\n      swap1\n      div\n      0xff\n      and\n        /* \"database/processing/RoughDatabase.sol\":343:464  require(... */\n      tag_39\n      jumpi\n      mload(0x40)\n      0x08c379a000000000000000000000000000000000000000000000000000000000\n      dup2\n      mstore\n      0x04\n      add\n      tag_40\n      swap1\n      tag_41\n      jump\t// in\n    tag_40:\n      mload(0x40)\n      dup1\n      swap2\n      sub\n      swap1\n      revert\n    tag_39:\n        /* \"database/processing/RoughDatabase.sol\":1153:1157  list */\n      0x01\n        /* \"database/processing/RoughDatabase.sol\":1146:1157  return list */\n      dup1\n      sload\n      dup1\n      0x20\n      mul\n      0x20\n      add\n      mload(0x40)\n      swap1\n      dup2\n      add\n      0x40\n      mstore\n      dup1\n      swap3\n      swap2\n      swap1\n      dup2\n      dup2\n      mstore\n      0x20\n      add\n      0x00\n      swap1\n    tag_43:\n      dup3\n      dup3\n      lt\n      iszero\n      tag_44\n      jumpi\n      dup4\n      dup3\n      swap1\n      0x00\n      mstore\n      keccak256(0x00, 0x20)\n      swap1\n      0x06\n      mul\n      add\n      mload(0x40)\n      dup1\n      0xc0\n      add\n      0x40\n      mstore\n      swap1\n      dup2\n      0x00\n      dup3\n      add\n      sload\n      dup2\n      mstore\n      0x20\n      add\n      0x01\n      dup3\n      add\n      dup1\n      sload\n      tag_46\n      swap1\n      tag_47\n      jump\t// in\n    tag_46:\n      dup1\n      0x1f\n      add\n      0x20\n      dup1\n      swap2\n      div\n      mul\n      0x20\n      add\n      mload(0x40)\n      swap1\n      dup2\n      add\n      0x40\n      mstore\n      dup1\n      swap3\n      swap2\n      swap1\n      dup2\n      dup2\n      mstore\n      0x20\n      add\n      dup3\n      dup1\n      sload\n      tag_48\n      swap1\n      tag_47\n      jump\t// in\n    tag_48:\n      dup1\n      iszero\n      tag_49\n      jumpi\n      dup1\n      0x1f\n      lt\n      tag_50\n      jumpi\n      0x0100\n      dup1\n      dup4\n      sload\n      div\n      mul\n      dup4\n      mstore\n      swap2\n      0x20\n      add\n      swap2\n      jump(tag_49)\n    tag_50:\n      dup3\n      add\n      swap2\n      swap1\n      0x00\n      mstore\n      keccak256(0x00, 0x20)\n      swap1\n    tag_51:\n      dup2\n      sload\n      dup2\n      mstore\n      swap1\n      0x01\n      add\n      swap1\n      0x20\n      add\n      dup1\n      dup4\n      gt\n      tag_51\n      jumpi\n      dup3\n      swap1\n      sub\n      0x1f\n      and\n      dup3\n      add\n      swap2\n    tag_49:\n      pop\n      pop\n      pop\n      pop\n      pop\n      dup2\n      mstore\n      0x20\n      add\n      0x02\n      dup3\n      add\n      0x00\n      swap1\n      sload\n      swap1\n      0x0100\n      exp\n      swap1\n      div\n      0xffffffffffffffffffffffffffffffffffffffff\n      and\n      0xffffffffffffffffffffffffffffffffffffffff\n      and\n      0xffffffffffffffffffffffffffffffffffffffff\n      and\n      dup2\n      mstore\n      0x20\n      add\n      0x03\n      dup3\n      add\n      sload\n      dup2\n      mstore\n      0x20\n      add\n      0x04\n      dup3\n      add\n      dup1\n      sload\n      tag_52\n      swap1\n      tag_47\n      jump\t// in\n    tag_52:\n      dup1\n      0x1f\n      add\n      0x20\n      dup1\n      swap2\n      div\n      mul\n      0x20\n      add\n      mload(0x40)\n      swap1\n      dup2\n      add\n      0x40\n      mstore\n      dup1\n      swap3\n      swap2\n      swap1\n      dup2\n      dup2\n      mstore\n      0x20\n      add\n      dup3\n      dup1\n      sload\n      tag_53\n      swap1\n      tag_47\n      jump\t// in\n    tag_53:\n      dup1\n      iszero\n      tag_54\n      jumpi\n      dup1\n      0x1f\n      lt\n      tag_55\n      jumpi\n      0x0100\n      dup1\n      dup4\n      sload\n      div\n      mul\n      dup4\n      mstore\n      swap2\n      0x20\n      add\n      swap2\n      jump(tag_54)\n    tag_55:\n      dup3\n      add\n      swap2\n      swap1\n      0x00\n      mstore\n      keccak256(0x00, 0x20)\n      swap1\n    tag_56:\n      dup2\n      sload\n      dup2\n      mstore\n      swap1\n      0x01\n      add\n      swap1\n      0x20\n      add\n      dup1\n      dup4\n      gt\n      tag_56\n      jumpi\n      dup3\n      swap1\n      sub\n      0x1f\n      and\n      dup3\n      add\n      swap2\n    tag_54:\n      pop\n      pop\n      pop\n      pop\n      pop\n      dup2\n      mstore\n      0x20\n      add\n      0x05\n      dup3\n      add\n      0x00\n      swap1\n      sload\n      swap1\n      0x0100\n      exp\n      swap1\n      div\n      0xff\n      and\n      iszero\n      iszero\n      iszero\n      iszero\n      dup2\n      mstore\n      pop\n      pop\n      dup2\n      mstore\n      0x20\n      add\n      swap1\n      0x01\n      add\n      swap1\n      jump(tag_43)\n    tag_44:\n      pop\n      pop\n      pop\n      pop\n      swap1\n      pop\n        /* \"database/processing/RoughDatabase.sol\":1018:1165  function getAllRough()... */\n      swap1\n      jump\t// out\n        /* \"database/processing/RoughDatabase.sol\":526:786  function addPermission(address contractPermission) public onlyOwner {... */\n    tag_18:\n        /* \"abstract/Ownable.sol\":1175:1188  _checkOwner() */\n      tag_58\n        /* \"abstract/Ownable.sol\":1175:1186  _checkOwner */\n      tag_59\n        /* \"abstract/Ownable.sol\":1175:1188  _checkOwner() */\n      jump\t// in\n    tag_58:\n        /* \"database/processing/RoughDatabase.sol\":628:639  permissions */\n      0x02\n        /* \"database/processing/RoughDatabase.sol\":628:659  permissions[contractPermission] */\n      0x00\n        /* \"database/processing/RoughDatabase.sol\":640:658  contractPermission */\n      dup3\n        /* \"database/processing/RoughDatabase.sol\":628:659  permissions[contractPermission] */\n      0xffffffffffffffffffffffffffffffffffffffff\n      and\n      0xffffffffffffffffffffffffffffffffffffffff\n      and\n      dup2\n      mstore\n      0x20\n      add\n      swap1\n      dup2\n      mstore\n      0x20\n      add\n      0x00\n      keccak256\n      0x00\n      swap1\n      sload\n      swap1\n      0x0100\n      exp\n      swap1\n      div\n      0xff\n      and\n        /* \"database/processing/RoughDatabase.sol\":627:659  !permissions[contractPermission] */\n      iszero\n        /* \"database/processing/RoughDatabase.sol\":605:729  require(... */\n      tag_61\n      jumpi\n      mload(0x40)\n      0x08c379a000000000000000000000000000000000000000000000000000000000\n      dup2\n      mstore\n      0x04\n      add\n      tag_62\n      swap1\n      tag_63\n      jump\t// in\n    tag_62:\n      mload(0x40)\n      dup1\n      swap2\n      sub\n      swap1\n      revert\n    tag_61:\n        /* \"database/processing/RoughDatabase.sol\":774:778  true */\n      0x01\n        /* \"database/processing/RoughDatabase.sol\":740:751  permissions */\n      0x02\n        /* \"database/processing/RoughDatabase.sol\":740:771  permissions[contractPermission] */\n      0x00\n        /* \"database/processing/RoughDatabase.sol\":752:770  contractPermission */\n      dup4\n        /* \"database/processing/RoughDatabase.sol\":740:771  permissions[contractPermission] */\n      0xffffffffffffffffffffffffffffffffffffffff\n      and\n      0xffffffffffffffffffffffffffffffffffffffff\n      and\n      dup2\n      mstore\n      0x20\n      add\n      swap1\n      dup2\n      mstore\n      0x20\n      add\n      0x00\n      keccak256\n      0x00\n        /* \"database/processing/RoughDatabase.sol\":740:778  permissions[contractPermission] = true */\n      0x0100\n      exp\n      dup2\n      sload\n      dup2\n      0xff\n      mul\n      not\n      and\n      swap1\n      dup4\n      iszero\n      iszero\n      mul\n      or\n      swap1\n      sstore\n      pop\n        /* \"database/processing/RoughDatabase.sol\":526:786  function addPermission(address contractPermission) public onlyOwner {... */\n      pop\n      jump\t// out\n        /* \"abstract/Ownable.sol\":2801:2892  function destroy() public onlyOwner {... */\n    tag_20:\n        /* \"abstract/Ownable.sol\":1175:1188  _checkOwner() */\n      tag_65\n        /* \"abstract/Ownable.sol\":1175:1186  _checkOwner */\n      tag_59\n        /* \"abstract/Ownable.sol\":1175:1188  _checkOwner() */\n      jump\t// in\n    tag_65:\n        /* \"abstract/Ownable.sol\":2877:2881  this */\n      address\n        /* \"abstract/Ownable.sol\":2848:2884  selfdestruct(payable(address(this))) */\n      0xffffffffffffffffffffffffffffffffffffffff\n      and\n      selfdestruct\n        /* \"abstract/Ownable.sol\":1289:1376  function owner() public view virtual returns (address) {... */\n    tag_22:\n        /* \"abstract/Ownable.sol\":1335:1342  address */\n      0x00\n        /* \"abstract/Ownable.sol\":1362:1368  _owner */\n      dup1\n      0x00\n      swap1\n      sload\n      swap1\n      0x0100\n      exp\n      swap1\n      div\n      0xffffffffffffffffffffffffffffffffffffffff\n      and\n        /* \"abstract/Ownable.sol\":1355:1368  return _owner */\n      swap1\n      pop\n        /* \"abstract/Ownable.sol\":1289:1376  function owner() public view virtual returns (address) {... */\n      swap1\n      jump\t// out\n        /* \"database/processing/RoughDatabase.sol\":896:1010  function addChecked(uint256 RoughId) public onlyPermissions {... */\n    tag_28:\n        /* \"database/processing/RoughDatabase.sol\":365:376  permissions */\n      0x02\n        /* \"database/processing/RoughDatabase.sol\":365:390  permissions[_msgSender()] */\n      0x00\n        /* \"database/processing/RoughDatabase.sol\":377:389  _msgSender() */\n      tag_69\n        /* \"database/processing/RoughDatabase.sol\":377:387  _msgSender */\n      tag_38\n        /* \"database/processing/RoughDatabase.sol\":377:389  _msgSender() */\n      jump\t// in\n    tag_69:\n        /* \"database/processing/RoughDatabase.sol\":365:390  permissions[_msgSender()] */\n      0xffffffffffffffffffffffffffffffffffffffff\n      and\n      0xffffffffffffffffffffffffffffffffffffffff\n      and\n      dup2\n      mstore\n      0x20\n      add\n      swap1\n      dup2\n      mstore\n      0x20\n      add\n      0x00\n      keccak256\n      0x00\n      swap1\n      sload\n      swap1\n      0x0100\n      exp\n      swap1\n      div\n      0xff\n      and\n        /* \"database/processing/RoughDatabase.sol\":343:464  require(... */\n      tag_70\n      jumpi\n      mload(0x40)\n      0x08c379a000000000000000000000000000000000000000000000000000000000\n      dup2\n      mstore\n      0x04\n      add\n      tag_71\n      swap1\n      tag_41\n      jump\t// in\n    tag_71:\n      mload(0x40)\n      dup1\n      swap2\n      sub\n      swap1\n      revert\n    tag_70:\n        /* \"database/processing/RoughDatabase.sol\":998:1002  true */\n      0x01\n        /* \"database/processing/RoughDatabase.sol\":967:971  list */\n      dup1\n        /* \"database/processing/RoughDatabase.sol\":972:979  RoughId */\n      dup3\n        /* \"database/processing/RoughDatabase.sol\":967:980  list[RoughId] */\n      dup2\n      sload\n      dup2\n      lt\n      tag_73\n      jumpi\n      tag_74\n      tag_75\n      jump\t// in\n    tag_74:\n    tag_73:\n      swap1\n      0x00\n      mstore\n      keccak256(0x00, 0x20)\n      swap1\n      0x06\n      mul\n      add\n        /* \"database/processing/RoughDatabase.sol\":967:995  list[RoughId].roughIsChecked */\n      0x05\n      add\n      0x00\n        /* \"database/processing/RoughDatabase.sol\":967:1002  list[RoughId].roughIsChecked = true */\n      0x0100\n      exp\n      dup2\n      sload\n      dup2\n      0xff\n      mul\n      not\n      and\n      swap1\n      dup4\n      iszero\n      iszero\n      mul\n      or\n      swap1\n      sstore\n      pop\n        /* \"database/processing/RoughDatabase.sol\":896:1010  function addChecked(uint256 RoughId) public onlyPermissions {... */\n      pop\n      jump\t// out\n        /* \"database/processing/RoughDatabase.sol\":794:888  function addRough(Rough memory item) public onlyPermissions {... */\n    tag_32:\n        /* \"database/processing/RoughDatabase.sol\":365:376  permissions */\n      0x02\n        /* \"database/processing/RoughDatabase.sol\":365:390  permissions[_msgSender()] */\n      0x00\n        /* \"database/processing/RoughDatabase.sol\":377:389  _msgSender() */\n      tag_78\n        /* \"database/processing/RoughDatabase.sol\":377:387  _msgSender */\n      tag_38\n        /* \"database/processing/RoughDatabase.sol\":377:389  _msgSender() */\n      jump\t// in\n    tag_78:\n        /* \"database/processing/RoughDatabase.sol\":365:390  permissions[_msgSender()] */\n      0xffffffffffffffffffffffffffffffffffffffff\n      and\n      0xffffffffffffffffffffffffffffffffffffffff\n      and\n      dup2\n      mstore\n      0x20\n      add\n      swap1\n      dup2\n      mstore\n      0x20\n      add\n      0x00\n      keccak256\n      0x00\n      swap1\n      sload\n      swap1\n      0x0100\n      exp\n      swap1\n      div\n      0xff\n      and\n        /* \"database/processing/RoughDatabase.sol\":343:464  require(... */\n      tag_79\n      jumpi\n      mload(0x40)\n      0x08c379a000000000000000000000000000000000000000000000000000000000\n      dup2\n      mstore\n      0x04\n      add\n      tag_80\n      swap1\n      tag_41\n      jump\t// in\n    tag_80:\n      mload(0x40)\n      dup1\n      swap2\n      sub\n      swap1\n      revert\n    tag_79:\n        /* \"database/processing/RoughDatabase.sol\":865:869  list */\n      0x01\n        /* \"database/processing/RoughDatabase.sol\":875:879  item */\n      dup2\n        /* \"database/processing/RoughDatabase.sol\":865:880  list.push(item) */\n      swap1\n      dup1\n      0x01\n      dup2\n      sload\n      add\n      dup1\n      dup3\n      sstore\n      dup1\n      swap2\n      pop\n      pop\n      0x01\n      swap1\n      sub\n      swap1\n      0x00\n      mstore\n      keccak256(0x00, 0x20)\n      swap1\n      0x06\n      mul\n      add\n      0x00\n      swap1\n      swap2\n      swap1\n      swap2\n      swap1\n      swap2\n      pop\n      0x00\n      dup3\n      add\n      mload\n      dup2\n      0x00\n      add\n      sstore\n      0x20\n      dup3\n      add\n      mload\n      dup2\n      0x01\n      add\n      swap1\n      dup2\n      tag_83\n      swap2\n      swap1\n      tag_84\n      jump\t// in\n    tag_83:\n      pop\n      0x40\n      dup3\n      add\n      mload\n      dup2\n      0x02\n      add\n      exp(0x0100, 0x00)\n      dup2\n      sload\n      dup2\n      0xffffffffffffffffffffffffffffffffffffffff\n      mul\n      not\n      and\n      swap1\n      dup4\n      0xffffffffffffffffffffffffffffffffffffffff\n      and\n      mul\n      or\n      swap1\n      sstore\n      pop\n      0x60\n      dup3\n      add\n      mload\n      dup2\n      0x03\n      add\n      sstore\n      0x80\n      dup3\n      add\n      mload\n      dup2\n      0x04\n      add\n      swap1\n      dup2\n      tag_85\n      swap2\n      swap1\n      tag_84\n      jump\t// in\n    tag_85:\n      pop\n      0xa0\n      dup3\n      add\n      mload\n      dup2\n      0x05\n      add\n      exp(0x0100, 0x00)\n      dup2\n      sload\n      dup2\n      0xff\n      mul\n      not\n      and\n      swap1\n      dup4\n      iszero\n      iszero\n      mul\n      or\n      swap1\n      sstore\n      pop\n      pop\n      pop\n        /* \"database/processing/RoughDatabase.sol\":794:888  function addRough(Rough memory item) public onlyPermissions {... */\n      pop\n      jump\t// out\n        /* \"abstract/Ownable.sol\":2204:2442  function transferOwnership(address newOwner) public virtual onlyOwner {... */\n    tag_35:\n        /* \"abstract/Ownable.sol\":1175:1188  _checkOwner() */\n      tag_87\n        /* \"abstract/Ownable.sol\":1175:1186  _checkOwner */\n      tag_59\n        /* \"abstract/Ownable.sol\":1175:1188  _checkOwner() */\n      jump\t// in\n    tag_87:\n        /* \"abstract/Ownable.sol\":2327:2328  0 */\n      0x00\n        /* \"abstract/Ownable.sol\":2307:2329  newOwner != address(0) */\n      0xffffffffffffffffffffffffffffffffffffffff\n      and\n        /* \"abstract/Ownable.sol\":2307:2315  newOwner */\n      dup2\n        /* \"abstract/Ownable.sol\":2307:2329  newOwner != address(0) */\n      0xffffffffffffffffffffffffffffffffffffffff\n      and\n      sub\n        /* \"abstract/Ownable.sol\":2285:2395  require(... */\n      tag_89\n      jumpi\n      mload(0x40)\n      0x08c379a000000000000000000000000000000000000000000000000000000000\n      dup2\n      mstore\n      0x04\n      add\n      tag_90\n      swap1\n      tag_91\n      jump\t// in\n    tag_90:\n      mload(0x40)\n      dup1\n      swap2\n      sub\n      swap1\n      revert\n    tag_89:\n        /* \"abstract/Ownable.sol\":2406:2434  _transferOwnership(newOwner) */\n      tag_92\n        /* \"abstract/Ownable.sol\":2425:2433  newOwner */\n      dup2\n        /* \"abstract/Ownable.sol\":2406:2424  _transferOwnership */\n      tag_93\n        /* \"abstract/Ownable.sol\":2406:2434  _transferOwnership(newOwner) */\n      jump\t// in\n    tag_92:\n        /* \"abstract/Ownable.sol\":2204:2442  function transferOwnership(address newOwner) public virtual onlyOwner {... */\n      pop\n      jump\t// out\n        /* \"@openzeppelin/contracts/utils/Context.sol\":640:736  function _msgSender() internal view virtual returns (address) {... */\n    tag_38:\n        /* \"@openzeppelin/contracts/utils/Context.sol\":693:700  address */\n      0x00\n        /* \"@openzeppelin/contracts/utils/Context.sol\":719:729  msg.sender */\n      caller\n        /* \"@openzeppelin/contracts/utils/Context.sol\":712:729  return msg.sender */\n      swap1\n      pop\n        /* \"@openzeppelin/contracts/utils/Context.sol\":640:736  function _msgSender() internal view virtual returns (address) {... */\n      swap1\n      jump\t// out\n        /* \"abstract/Ownable.sol\":1454:1584  function _checkOwner() internal view virtual {... */\n    tag_59:\n        /* \"abstract/Ownable.sol\":1529:1539  msg.sender */\n      caller\n        /* \"abstract/Ownable.sol\":1518:1539  owner() == msg.sender */\n      0xffffffffffffffffffffffffffffffffffffffff\n      and\n        /* \"abstract/Ownable.sol\":1518:1525  owner() */\n      tag_96\n        /* \"abstract/Ownable.sol\":1518:1523  owner */\n      tag_22\n        /* \"abstract/Ownable.sol\":1518:1525  owner() */\n      jump\t// in\n    tag_96:\n        /* \"abstract/Ownable.sol\":1518:1539  owner() == msg.sender */\n      0xffffffffffffffffffffffffffffffffffffffff\n      and\n      eq\n        /* \"abstract/Ownable.sol\":1510:1576  require(owner() == msg.sender, \"Ownable: caller is not the owner\") */\n      tag_97\n      jumpi\n      mload(0x40)\n      0x08c379a000000000000000000000000000000000000000000000000000000000\n      dup2\n      mstore\n      0x04\n      add\n      tag_98\n      swap1\n      tag_99\n      jump\t// in\n    tag_98:\n      mload(0x40)\n      dup1\n      swap2\n      sub\n      swap1\n      revert\n    tag_97:\n        /* \"abstract/Ownable.sol\":1454:1584  function _checkOwner() internal view virtual {... */\n      jump\t// out\n        /* \"abstract/Ownable.sol\":2602:2793  function _transferOwnership(address newOwner) internal virtual {... */\n    tag_93:\n        /* \"abstract/Ownable.sol\":2676:2692  address oldOwner */\n      0x00\n        /* \"abstract/Ownable.sol\":2695:2701  _owner */\n      dup1\n      0x00\n      swap1\n      sload\n      swap1\n      0x0100\n      exp\n      swap1\n      div\n      0xffffffffffffffffffffffffffffffffffffffff\n      and\n        /* \"abstract/Ownable.sol\":2676:2701  address oldOwner = _owner */\n      swap1\n      pop\n        /* \"abstract/Ownable.sol\":2721:2729  newOwner */\n      dup2\n        /* \"abstract/Ownable.sol\":2712:2718  _owner */\n      0x00\n      dup1\n        /* \"abstract/Ownable.sol\":2712:2729  _owner = newOwner */\n      0x0100\n      exp\n      dup2\n      sload\n      dup2\n      0xffffffffffffffffffffffffffffffffffffffff\n      mul\n      not\n      and\n      swap1\n      dup4\n      0xffffffffffffffffffffffffffffffffffffffff\n      and\n      mul\n      or\n      swap1\n      sstore\n      pop\n        /* \"abstract/Ownable.sol\":2776:2784  newOwner */\n      dup2\n        /* \"abstract/Ownable.sol\":2745:2785  OwnershipTransferred(oldOwner, newOwner) */\n      0xffffffffffffffffffffffffffffffffffffffff\n      and\n        /* \"abstract/Ownable.sol\":2766:2774  oldOwner */\n      dup2\n        /* \"abstract/Ownable.sol\":2745:2785  OwnershipTransferred(oldOwner, newOwner) */\n      0xffffffffffffffffffffffffffffffffffffffff\n      and\n      0x8be0079c531659141344cd1fd0a4f28419497f9722a3daafe3b4186f6b6457e0\n      mload(0x40)\n      mload(0x40)\n      dup1\n      swap2\n      sub\n      swap1\n      log3\n        /* \"abstract/Ownable.sol\":2665:2793  {... */\n      pop\n        /* \"abstract/Ownable.sol\":2602:2793  function _transferOwnership(address newOwner) internal virtual {... */\n      pop\n      jump\t// out\n        /* \"#utility.yul\":7:143   */\n    tag_101:\n        /* \"#utility.yul\":96:102   */\n      0x00\n        /* \"#utility.yul\":130:135   */\n      dup2\n        /* \"#utility.yul\":124:136   */\n      mload\n        /* \"#utility.yul\":114:136   */\n      swap1\n      pop\n        /* \"#utility.yul\":7:143   */\n      swap2\n      swap1\n      pop\n      jump\t// out\n        /* \"#utility.yul\":149:355   */\n    tag_102:\n        /* \"#utility.yul\":270:281   */\n      0x00\n        /* \"#utility.yul\":304:310   */\n      dup3\n        /* \"#utility.yul\":299:302   */\n      dup3\n        /* \"#utility.yul\":292:311   */\n      mstore\n        /* \"#utility.yul\":344:348   */\n      0x20\n        /* \"#utility.yul\":339:342   */\n      dup3\n        /* \"#utility.yul\":335:349   */\n      add\n        /* \"#utility.yul\":320:349   */\n      swap1\n      pop\n        /* \"#utility.yul\":149:355   */\n      swap3\n      swap2\n      pop\n      pop\n      jump\t// out\n        /* \"#utility.yul\":361:515   */\n    tag_103:\n        /* \"#utility.yul\":450:454   */\n      0x00\n        /* \"#utility.yul\":473:476   */\n      dup2\n        /* \"#utility.yul\":465:476   */\n      swap1\n      pop\n        /* \"#utility.yul\":503:507   */\n      0x20\n        /* \"#utility.yul\":498:501   */\n      dup3\n        /* \"#utility.yul\":494:508   */\n      add\n        /* \"#utility.yul\":486:508   */\n      swap1\n      pop\n        /* \"#utility.yul\":361:515   */\n      swap2\n      swap1\n      pop\n      jump\t// out\n        /* \"#utility.yul\":521:598   */\n    tag_104:\n        /* \"#utility.yul\":558:565   */\n      0x00\n        /* \"#utility.yul\":587:592   */\n      dup2\n        /* \"#utility.yul\":576:592   */\n      swap1\n      pop\n        /* \"#utility.yul\":521:598   */\n      swap2\n      swap1\n      pop\n      jump\t// out\n        /* \"#utility.yul\":604:712   */\n    tag_105:\n        /* \"#utility.yul\":681:705   */\n      tag_173\n        /* \"#utility.yul\":699:704   */\n      dup2\n        /* \"#utility.yul\":681:705   */\n      tag_104\n      jump\t// in\n    tag_173:\n        /* \"#utility.yul\":676:679   */\n      dup3\n        /* \"#utility.yul\":669:706   */\n      mstore\n        /* \"#utility.yul\":604:712   */\n      pop\n      pop\n      jump\t// out\n        /* \"#utility.yul\":718:817   */\n    tag_106:\n        /* \"#utility.yul\":770:776   */\n      0x00\n        /* \"#utility.yul\":804:809   */\n      dup2\n        /* \"#utility.yul\":798:810   */\n      mload\n        /* \"#utility.yul\":788:810   */\n      swap1\n      pop\n        /* \"#utility.yul\":718:817   */\n      swap2\n      swap1\n      pop\n      jump\t// out\n        /* \"#utility.yul\":823:982   */\n    tag_107:\n        /* \"#utility.yul\":897:908   */\n      0x00\n        /* \"#utility.yul\":931:937   */\n      dup3\n        /* \"#utility.yul\":926:929   */\n      dup3\n        /* \"#utility.yul\":919:938   */\n      mstore\n        /* \"#utility.yul\":971:975   */\n      0x20\n        /* \"#utility.yul\":966:969   */\n      dup3\n        /* \"#utility.yul\":962:976   */\n      add\n        /* \"#utility.yul\":947:976   */\n      swap1\n      pop\n        /* \"#utility.yul\":823:982   */\n      swap3\n      swap2\n      pop\n      pop\n      jump\t// out\n        /* \"#utility.yul\":988:1234   */\n    tag_108:\n        /* \"#utility.yul\":1069:1070   */\n      0x00\n        /* \"#utility.yul\":1079:1192   */\n    tag_177:\n        /* \"#utility.yul\":1093:1099   */\n      dup4\n        /* \"#utility.yul\":1090:1091   */\n      dup2\n        /* \"#utility.yul\":1087:1100   */\n      lt\n        /* \"#utility.yul\":1079:1192   */\n      iszero\n      tag_179\n      jumpi\n        /* \"#utility.yul\":1178:1179   */\n      dup1\n        /* \"#utility.yul\":1173:1176   */\n      dup3\n        /* \"#utility.yul\":1169:1180   */\n      add\n        /* \"#utility.yul\":1163:1181   */\n      mload\n        /* \"#utility.yul\":1159:1160   */\n      dup2\n        /* \"#utility.yul\":1154:1157   */\n      dup5\n        /* \"#utility.yul\":1150:1161   */\n      add\n        /* \"#utility.yul\":1143:1182   */\n      mstore\n        /* \"#utility.yul\":1115:1117   */\n      0x20\n        /* \"#utility.yul\":1112:1113   */\n      dup2\n        /* \"#utility.yul\":1108:1118   */\n      add\n        /* \"#utility.yul\":1103:1118   */\n      swap1\n      pop\n        /* \"#utility.yul\":1079:1192   */\n      jump(tag_177)\n    tag_179:\n        /* \"#utility.yul\":1226:1227   */\n      0x00\n        /* \"#utility.yul\":1217:1223   */\n      dup5\n        /* \"#utility.yul\":1212:1215   */\n      dup5\n        /* \"#utility.yul\":1208:1224   */\n      add\n        /* \"#utility.yul\":1201:1228   */\n      mstore\n        /* \"#utility.yul\":1050:1234   */\n      pop\n        /* \"#utility.yul\":988:1234   */\n      pop\n      pop\n      pop\n      jump\t// out\n        /* \"#utility.yul\":1240:1342   */\n    tag_109:\n        /* \"#utility.yul\":1281:1287   */\n      0x00\n        /* \"#utility.yul\":1332:1334   */\n      0x1f\n        /* \"#utility.yul\":1328:1335   */\n      not\n        /* \"#utility.yul\":1323:1325   */\n      0x1f\n        /* \"#utility.yul\":1316:1321   */\n      dup4\n        /* \"#utility.yul\":1312:1326   */\n      add\n        /* \"#utility.yul\":1308:1336   */\n      and\n        /* \"#utility.yul\":1298:1336   */\n      swap1\n      pop\n        /* \"#utility.yul\":1240:1342   */\n      swap2\n      swap1\n      pop\n      jump\t// out\n        /* \"#utility.yul\":1348:1705   */\n    tag_110:\n        /* \"#utility.yul\":1426:1429   */\n      0x00\n        /* \"#utility.yul\":1454:1493   */\n      tag_182\n        /* \"#utility.yul\":1487:1492   */\n      dup3\n        /* \"#utility.yul\":1454:1493   */\n      tag_106\n      jump\t// in\n    tag_182:\n        /* \"#utility.yul\":1509:1570   */\n      tag_183\n        /* \"#utility.yul\":1563:1569   */\n      dup2\n        /* \"#utility.yul\":1558:1561   */\n      dup6\n        /* \"#utility.yul\":1509:1570   */\n      tag_107\n      jump\t// in\n    tag_183:\n        /* \"#utility.yul\":1502:1570   */\n      swap4\n      pop\n        /* \"#utility.yul\":1579:1644   */\n      tag_184\n        /* \"#utility.yul\":1637:1643   */\n      dup2\n        /* \"#utility.yul\":1632:1635   */\n      dup6\n        /* \"#utility.yul\":1625:1629   */\n      0x20\n        /* \"#utility.yul\":1618:1623   */\n      dup7\n        /* \"#utility.yul\":1614:1630   */\n      add\n        /* \"#utility.yul\":1579:1644   */\n      tag_108\n      jump\t// in\n    tag_184:\n        /* \"#utility.yul\":1669:1698   */\n      tag_185\n        /* \"#utility.yul\":1691:1697   */\n      dup2\n        /* \"#utility.yul\":1669:1698   */\n      tag_109\n      jump\t// in\n    tag_185:\n        /* \"#utility.yul\":1664:1667   */\n      dup5\n        /* \"#utility.yul\":1660:1699   */\n      add\n        /* \"#utility.yul\":1653:1699   */\n      swap2\n      pop\n        /* \"#utility.yul\":1430:1705   */\n      pop\n        /* \"#utility.yul\":1348:1705   */\n      swap3\n      swap2\n      pop\n      pop\n      jump\t// out\n        /* \"#utility.yul\":1711:1837   */\n    tag_111:\n        /* \"#utility.yul\":1748:1755   */\n      0x00\n        /* \"#utility.yul\":1788:1830   */\n      0xffffffffffffffffffffffffffffffffffffffff\n        /* \"#utility.yul\":1781:1786   */\n      dup3\n        /* \"#utility.yul\":1777:1831   */\n      and\n        /* \"#utility.yul\":1766:1831   */\n      swap1\n      pop\n        /* \"#utility.yul\":1711:1837   */\n      swap2\n      swap1\n      pop\n      jump\t// out\n        /* \"#utility.yul\":1843:1939   */\n    tag_112:\n        /* \"#utility.yul\":1880:1887   */\n      0x00\n        /* \"#utility.yul\":1909:1933   */\n      tag_188\n        /* \"#utility.yul\":1927:1932   */\n      dup3\n        /* \"#utility.yul\":1909:1933   */\n      tag_111\n      jump\t// in\n    tag_188:\n        /* \"#utility.yul\":1898:1933   */\n      swap1\n      pop\n        /* \"#utility.yul\":1843:1939   */\n      swap2\n      swap1\n      pop\n      jump\t// out\n        /* \"#utility.yul\":1945:2053   */\n    tag_113:\n        /* \"#utility.yul\":2022:2046   */\n      tag_190\n        /* \"#utility.yul\":2040:2045   */\n      dup2\n        /* \"#utility.yul\":2022:2046   */\n      tag_112\n      jump\t// in\n    tag_190:\n        /* \"#utility.yul\":2017:2020   */\n      dup3\n        /* \"#utility.yul\":2010:2047   */\n      mstore\n        /* \"#utility.yul\":1945:2053   */\n      pop\n      pop\n      jump\t// out\n        /* \"#utility.yul\":2059:2149   */\n    tag_114:\n        /* \"#utility.yul\":2093:2100   */\n      0x00\n        /* \"#utility.yul\":2136:2141   */\n      dup2\n        /* \"#utility.yul\":2129:2142   */\n      iszero\n        /* \"#utility.yul\":2122:2143   */\n      iszero\n        /* \"#utility.yul\":2111:2143   */\n      swap1\n      pop\n        /* \"#utility.yul\":2059:2149   */\n      swap2\n      swap1\n      pop\n      jump\t// out\n        /* \"#utility.yul\":2155:2254   */\n    tag_115:\n        /* \"#utility.yul\":2226:2247   */\n      tag_193\n        /* \"#utility.yul\":2241:2246   */\n      dup2\n        /* \"#utility.yul\":2226:2247   */\n      tag_114\n      jump\t// in\n    tag_193:\n        /* \"#utility.yul\":2221:2224   */\n      dup3\n        /* \"#utility.yul\":2214:2248   */\n      mstore\n        /* \"#utility.yul\":2155:2254   */\n      pop\n      pop\n      jump\t// out\n        /* \"#utility.yul\":2296:3683   */\n    tag_116:\n        /* \"#utility.yul\":2399:2402   */\n      0x00\n        /* \"#utility.yul\":2435:2439   */\n      0xc0\n        /* \"#utility.yul\":2430:2433   */\n      dup4\n        /* \"#utility.yul\":2426:2440   */\n      add\n        /* \"#utility.yul\":2525:2529   */\n      0x00\n        /* \"#utility.yul\":2518:2523   */\n      dup4\n        /* \"#utility.yul\":2514:2530   */\n      add\n        /* \"#utility.yul\":2508:2531   */\n      mload\n        /* \"#utility.yul\":2544:2607   */\n      tag_195\n        /* \"#utility.yul\":2601:2605   */\n      0x00\n        /* \"#utility.yul\":2596:2599   */\n      dup7\n        /* \"#utility.yul\":2592:2606   */\n      add\n        /* \"#utility.yul\":2578:2590   */\n      dup3\n        /* \"#utility.yul\":2544:2607   */\n      tag_105\n      jump\t// in\n    tag_195:\n        /* \"#utility.yul\":2450:2617   */\n      pop\n        /* \"#utility.yul\":2703:2707   */\n      0x20\n        /* \"#utility.yul\":2696:2701   */\n      dup4\n        /* \"#utility.yul\":2692:2708   */\n      add\n        /* \"#utility.yul\":2686:2709   */\n      mload\n        /* \"#utility.yul\":2756:2759   */\n      dup5\n        /* \"#utility.yul\":2750:2754   */\n      dup3\n        /* \"#utility.yul\":2746:2760   */\n      sub\n        /* \"#utility.yul\":2739:2743   */\n      0x20\n        /* \"#utility.yul\":2734:2737   */\n      dup7\n        /* \"#utility.yul\":2730:2744   */\n      add\n        /* \"#utility.yul\":2723:2761   */\n      mstore\n        /* \"#utility.yul\":2782:2855   */\n      tag_196\n        /* \"#utility.yul\":2850:2854   */\n      dup3\n        /* \"#utility.yul\":2836:2848   */\n      dup3\n        /* \"#utility.yul\":2782:2855   */\n      tag_110\n      jump\t// in\n    tag_196:\n        /* \"#utility.yul\":2774:2855   */\n      swap2\n      pop\n        /* \"#utility.yul\":2627:2866   */\n      pop\n        /* \"#utility.yul\":2955:2959   */\n      0x40\n        /* \"#utility.yul\":2948:2953   */\n      dup4\n        /* \"#utility.yul\":2944:2960   */\n      add\n        /* \"#utility.yul\":2938:2961   */\n      mload\n        /* \"#utility.yul\":2974:3037   */\n      tag_197\n        /* \"#utility.yul\":3031:3035   */\n      0x40\n        /* \"#utility.yul\":3026:3029   */\n      dup7\n        /* \"#utility.yul\":3022:3036   */\n      add\n        /* \"#utility.yul\":3008:3020   */\n      dup3\n        /* \"#utility.yul\":2974:3037   */\n      tag_113\n      jump\t// in\n    tag_197:\n        /* \"#utility.yul\":2876:3047   */\n      pop\n        /* \"#utility.yul\":3134:3138   */\n      0x60\n        /* \"#utility.yul\":3127:3132   */\n      dup4\n        /* \"#utility.yul\":3123:3139   */\n      add\n        /* \"#utility.yul\":3117:3140   */\n      mload\n        /* \"#utility.yul\":3153:3216   */\n      tag_198\n        /* \"#utility.yul\":3210:3214   */\n      0x60\n        /* \"#utility.yul\":3205:3208   */\n      dup7\n        /* \"#utility.yul\":3201:3215   */\n      add\n        /* \"#utility.yul\":3187:3199   */\n      dup3\n        /* \"#utility.yul\":3153:3216   */\n      tag_105\n      jump\t// in\n    tag_198:\n        /* \"#utility.yul\":3057:3226   */\n      pop\n        /* \"#utility.yul\":3315:3319   */\n      0x80\n        /* \"#utility.yul\":3308:3313   */\n      dup4\n        /* \"#utility.yul\":3304:3320   */\n      add\n        /* \"#utility.yul\":3298:3321   */\n      mload\n        /* \"#utility.yul\":3368:3371   */\n      dup5\n        /* \"#utility.yul\":3362:3366   */\n      dup3\n        /* \"#utility.yul\":3358:3372   */\n      sub\n        /* \"#utility.yul\":3351:3355   */\n      0x80\n        /* \"#utility.yul\":3346:3349   */\n      dup7\n        /* \"#utility.yul\":3342:3356   */\n      add\n        /* \"#utility.yul\":3335:3373   */\n      mstore\n        /* \"#utility.yul\":3394:3467   */\n      tag_199\n        /* \"#utility.yul\":3462:3466   */\n      dup3\n        /* \"#utility.yul\":3448:3460   */\n      dup3\n        /* \"#utility.yul\":3394:3467   */\n      tag_110\n      jump\t// in\n    tag_199:\n        /* \"#utility.yul\":3386:3467   */\n      swap2\n      pop\n        /* \"#utility.yul\":3236:3478   */\n      pop\n        /* \"#utility.yul\":3570:3574   */\n      0xa0\n        /* \"#utility.yul\":3563:3568   */\n      dup4\n        /* \"#utility.yul\":3559:3575   */\n      add\n        /* \"#utility.yul\":3553:3576   */\n      mload\n        /* \"#utility.yul\":3589:3646   */\n      tag_200\n        /* \"#utility.yul\":3640:3644   */\n      0xa0\n        /* \"#utility.yul\":3635:3638   */\n      dup7\n        /* \"#utility.yul\":3631:3645   */\n      add\n        /* \"#utility.yul\":3617:3629   */\n      dup3\n        /* \"#utility.yul\":3589:3646   */\n      tag_115\n      jump\t// in\n    tag_200:\n        /* \"#utility.yul\":3488:3656   */\n      pop\n        /* \"#utility.yul\":3673:3677   */\n      dup1\n        /* \"#utility.yul\":3666:3677   */\n      swap2\n      pop\n        /* \"#utility.yul\":2404:3683   */\n      pop\n        /* \"#utility.yul\":2296:3683   */\n      swap3\n      swap2\n      pop\n      pop\n      jump\t// out\n        /* \"#utility.yul\":3689:3933   */\n    tag_117:\n        /* \"#utility.yul\":3802:3812   */\n      0x00\n        /* \"#utility.yul\":3837:3927   */\n      tag_202\n        /* \"#utility.yul\":3923:3926   */\n      dup4\n        /* \"#utility.yul\":3915:3921   */\n      dup4\n        /* \"#utility.yul\":3837:3927   */\n      tag_116\n      jump\t// in\n    tag_202:\n        /* \"#utility.yul\":3823:3927   */\n      swap1\n      pop\n        /* \"#utility.yul\":3689:3933   */\n      swap3\n      swap2\n      pop\n      pop\n      jump\t// out\n        /* \"#utility.yul\":3939:4074   */\n    tag_118:\n        /* \"#utility.yul\":4031:4035   */\n      0x00\n        /* \"#utility.yul\":4063:4067   */\n      0x20\n        /* \"#utility.yul\":4058:4061   */\n      dup3\n        /* \"#utility.yul\":4054:4068   */\n      add\n        /* \"#utility.yul\":4046:4068   */\n      swap1\n      pop\n        /* \"#utility.yul\":3939:4074   */\n      swap2\n      swap1\n      pop\n      jump\t// out\n        /* \"#utility.yul\":4120:5207   */\n    tag_119:\n        /* \"#utility.yul\":4283:4286   */\n      0x00\n        /* \"#utility.yul\":4312:4388   */\n      tag_205\n        /* \"#utility.yul\":4382:4387   */\n      dup3\n        /* \"#utility.yul\":4312:4388   */\n      tag_101\n      jump\t// in\n    tag_205:\n        /* \"#utility.yul\":4404:4512   */\n      tag_206\n        /* \"#utility.yul\":4505:4511   */\n      dup2\n        /* \"#utility.yul\":4500:4503   */\n      dup6\n        /* \"#utility.yul\":4404:4512   */\n      tag_102\n      jump\t// in\n    tag_206:\n        /* \"#utility.yul\":4397:4512   */\n      swap4\n      pop\n        /* \"#utility.yul\":4538:4541   */\n      dup4\n        /* \"#utility.yul\":4583:4587   */\n      0x20\n        /* \"#utility.yul\":4575:4581   */\n      dup3\n        /* \"#utility.yul\":4571:4588   */\n      mul\n        /* \"#utility.yul\":4566:4569   */\n      dup6\n        /* \"#utility.yul\":4562:4589   */\n      add\n        /* \"#utility.yul\":4613:4691   */\n      tag_207\n        /* \"#utility.yul\":4685:4690   */\n      dup6\n        /* \"#utility.yul\":4613:4691   */\n      tag_103\n      jump\t// in\n    tag_207:\n        /* \"#utility.yul\":4714:4721   */\n      dup1\n        /* \"#utility.yul\":4745:4746   */\n      0x00\n        /* \"#utility.yul\":4730:5162   */\n    tag_208:\n        /* \"#utility.yul\":4755:4761   */\n      dup6\n        /* \"#utility.yul\":4752:4753   */\n      dup2\n        /* \"#utility.yul\":4749:4762   */\n      lt\n        /* \"#utility.yul\":4730:5162   */\n      iszero\n      tag_210\n      jumpi\n        /* \"#utility.yul\":4826:4835   */\n      dup5\n        /* \"#utility.yul\":4820:4824   */\n      dup5\n        /* \"#utility.yul\":4816:4836   */\n      sub\n        /* \"#utility.yul\":4811:4814   */\n      dup10\n        /* \"#utility.yul\":4804:4837   */\n      mstore\n        /* \"#utility.yul\":4877:4883   */\n      dup2\n        /* \"#utility.yul\":4871:4884   */\n      mload\n        /* \"#utility.yul\":4905:5013   */\n      tag_211\n        /* \"#utility.yul\":5008:5012   */\n      dup6\n        /* \"#utility.yul\":4993:5006   */\n      dup3\n        /* \"#utility.yul\":4905:5013   */\n      tag_117\n      jump\t// in\n    tag_211:\n        /* \"#utility.yul\":4897:5013   */\n      swap5\n      pop\n        /* \"#utility.yul\":5036:5118   */\n      tag_212\n        /* \"#utility.yul\":5111:5117   */\n      dup4\n        /* \"#utility.yul\":5036:5118   */\n      tag_118\n      jump\t// in\n    tag_212:\n        /* \"#utility.yul\":5026:5118   */\n      swap3\n      pop\n        /* \"#utility.yul\":5147:5151   */\n      0x20\n        /* \"#utility.yul\":5142:5145   */\n      dup11\n        /* \"#utility.yul\":5138:5152   */\n      add\n        /* \"#utility.yul\":5131:5152   */\n      swap10\n      pop\n        /* \"#utility.yul\":4790:5162   */\n      pop\n        /* \"#utility.yul\":4777:4778   */\n      0x01\n        /* \"#utility.yul\":4774:4775   */\n      dup2\n        /* \"#utility.yul\":4770:4779   */\n      add\n        /* \"#utility.yul\":4765:4779   */\n      swap1\n      pop\n        /* \"#utility.yul\":4730:5162   */\n      jump(tag_208)\n    tag_210:\n        /* \"#utility.yul\":4734:4748   */\n      pop\n        /* \"#utility.yul\":5178:5182   */\n      dup3\n        /* \"#utility.yul\":5171:5182   */\n      swap8\n      pop\n        /* \"#utility.yul\":5198:5201   */\n      dup8\n        /* \"#utility.yul\":5191:5201   */\n      swap6\n      pop\n        /* \"#utility.yul\":4288:5207   */\n      pop\n      pop\n      pop\n      pop\n      pop\n        /* \"#utility.yul\":4120:5207   */\n      swap3\n      swap2\n      pop\n      pop\n      jump\t// out\n        /* \"#utility.yul\":5213:5674   */\n    tag_14:\n        /* \"#utility.yul\":5400:5404   */\n      0x00\n        /* \"#utility.yul\":5438:5440   */\n      0x20\n        /* \"#utility.yul\":5427:5436   */\n      dup3\n        /* \"#utility.yul\":5423:5441   */\n      add\n        /* \"#utility.yul\":5415:5441   */\n      swap1\n      pop\n        /* \"#utility.yul\":5487:5496   */\n      dup2\n        /* \"#utility.yul\":5481:5485   */\n      dup2\n        /* \"#utility.yul\":5477:5497   */\n      sub\n        /* \"#utility.yul\":5473:5474   */\n      0x00\n        /* \"#utility.yul\":5462:5471   */\n      dup4\n        /* \"#utility.yul\":5458:5475   */\n      add\n        /* \"#utility.yul\":5451:5498   */\n      mstore\n        /* \"#utility.yul\":5515:5667   */\n      tag_214\n        /* \"#utility.yul\":5662:5666   */\n      dup2\n        /* \"#utility.yul\":5653:5659   */\n      dup5\n        /* \"#utility.yul\":5515:5667   */\n      tag_119\n      jump\t// in\n    tag_214:\n        /* \"#utility.yul\":5507:5667   */\n      swap1\n      pop\n        /* \"#utility.yul\":5213:5674   */\n      swap3\n      swap2\n      pop\n      pop\n      jump\t// out\n        /* \"#utility.yul\":5680:5755   */\n    tag_120:\n        /* \"#utility.yul\":5713:5719   */\n      0x00\n        /* \"#utility.yul\":5746:5748   */\n      0x40\n        /* \"#utility.yul\":5740:5749   */\n      mload\n        /* \"#utility.yul\":5730:5749   */\n      swap1\n      pop\n        /* \"#utility.yul\":5680:5755   */\n      swap1\n      jump\t// out\n        /* \"#utility.yul\":5761:5878   */\n    tag_121:\n        /* \"#utility.yul\":5870:5871   */\n      0x00\n        /* \"#utility.yul\":5867:5868   */\n      dup1\n        /* \"#utility.yul\":5860:5872   */\n      revert\n        /* \"#utility.yul\":5884:6001   */\n    tag_122:\n        /* \"#utility.yul\":5993:5994   */\n      0x00\n        /* \"#utility.yul\":5990:5991   */\n      dup1\n        /* \"#utility.yul\":5983:5995   */\n      revert\n        /* \"#utility.yul\":6007:6129   */\n    tag_123:\n        /* \"#utility.yul\":6080:6104   */\n      tag_219\n        /* \"#utility.yul\":6098:6103   */\n      dup2\n        /* \"#utility.yul\":6080:6104   */\n      tag_112\n      jump\t// in\n    tag_219:\n        /* \"#utility.yul\":6073:6078   */\n      dup2\n        /* \"#utility.yul\":6070:6105   */\n      eq\n        /* \"#utility.yul\":6060:6123   */\n      tag_220\n      jumpi\n        /* \"#utility.yul\":6119:6120   */\n      0x00\n        /* \"#utility.yul\":6116:6117   */\n      dup1\n        /* \"#utility.yul\":6109:6121   */\n      revert\n        /* \"#utility.yul\":6060:6123   */\n    tag_220:\n        /* \"#utility.yul\":6007:6129   */\n      pop\n      jump\t// out\n        /* \"#utility.yul\":6135:6274   */\n    tag_124:\n        /* \"#utility.yul\":6181:6186   */\n      0x00\n        /* \"#utility.yul\":6219:6225   */\n      dup2\n        /* \"#utility.yul\":6206:6226   */\n      calldataload\n        /* \"#utility.yul\":6197:6226   */\n      swap1\n      pop\n        /* \"#utility.yul\":6235:6268   */\n      tag_222\n        /* \"#utility.yul\":6262:6267   */\n      dup2\n        /* \"#utility.yul\":6235:6268   */\n      tag_123\n      jump\t// in\n    tag_222:\n        /* \"#utility.yul\":6135:6274   */\n      swap3\n      swap2\n      pop\n      pop\n      jump\t// out\n        /* \"#utility.yul\":6280:6609   */\n    tag_17:\n        /* \"#utility.yul\":6339:6345   */\n      0x00\n        /* \"#utility.yul\":6388:6390   */\n      0x20\n        /* \"#utility.yul\":6376:6385   */\n      dup3\n        /* \"#utility.yul\":6367:6374   */\n      dup5\n        /* \"#utility.yul\":6363:6386   */\n      sub\n        /* \"#utility.yul\":6359:6391   */\n      slt\n        /* \"#utility.yul\":6356:6475   */\n      iszero\n      tag_224\n      jumpi\n        /* \"#utility.yul\":6394:6473   */\n      tag_225\n      tag_121\n      jump\t// in\n    tag_225:\n        /* \"#utility.yul\":6356:6475   */\n    tag_224:\n        /* \"#utility.yul\":6514:6515   */\n      0x00\n        /* \"#utility.yul\":6539:6592   */\n      tag_226\n        /* \"#utility.yul\":6584:6591   */\n      dup5\n        /* \"#utility.yul\":6575:6581   */\n      dup3\n        /* \"#utility.yul\":6564:6573   */\n      dup6\n        /* \"#utility.yul\":6560:6582   */\n      add\n        /* \"#utility.yul\":6539:6592   */\n      tag_124\n      jump\t// in\n    tag_226:\n        /* \"#utility.yul\":6529:6592   */\n      swap2\n      pop\n        /* \"#utility.yul\":6485:6602   */\n      pop\n        /* \"#utility.yul\":6280:6609   */\n      swap3\n      swap2\n      pop\n      pop\n      jump\t// out\n        /* \"#utility.yul\":6615:6733   */\n    tag_125:\n        /* \"#utility.yul\":6702:6726   */\n      tag_228\n        /* \"#utility.yul\":6720:6725   */\n      dup2\n        /* \"#utility.yul\":6702:6726   */\n      tag_112\n      jump\t// in\n    tag_228:\n        /* \"#utility.yul\":6697:6700   */\n      dup3\n        /* \"#utility.yul\":6690:6727   */\n      mstore\n        /* \"#utility.yul\":6615:6733   */\n      pop\n      pop\n      jump\t// out\n        /* \"#utility.yul\":6739:6961   */\n    tag_24:\n        /* \"#utility.yul\":6832:6836   */\n      0x00\n        /* \"#utility.yul\":6870:6872   */\n      0x20\n        /* \"#utility.yul\":6859:6868   */\n      dup3\n        /* \"#utility.yul\":6855:6873   */\n      add\n        /* \"#utility.yul\":6847:6873   */\n      swap1\n      pop\n        /* \"#utility.yul\":6883:6954   */\n      tag_230\n        /* \"#utility.yul\":6951:6952   */\n      0x00\n        /* \"#utility.yul\":6940:6949   */\n      dup4\n        /* \"#utility.yul\":6936:6953   */\n      add\n        /* \"#utility.yul\":6927:6933   */\n      dup5\n        /* \"#utility.yul\":6883:6954   */\n      tag_125\n      jump\t// in\n    tag_230:\n        /* \"#utility.yul\":6739:6961   */\n      swap3\n      swap2\n      pop\n      pop\n      jump\t// out\n        /* \"#utility.yul\":6967:7089   */\n    tag_126:\n        /* \"#utility.yul\":7040:7064   */\n      tag_232\n        /* \"#utility.yul\":7058:7063   */\n      dup2\n        /* \"#utility.yul\":7040:7064   */\n      tag_104\n      jump\t// in\n    tag_232:\n        /* \"#utility.yul\":7033:7038   */\n      dup2\n        /* \"#utility.yul\":7030:7065   */\n      eq\n        /* \"#utility.yul\":7020:7083   */\n      tag_233\n      jumpi\n        /* \"#utility.yul\":7079:7080   */\n      0x00\n        /* \"#utility.yul\":7076:7077   */\n      dup1\n        /* \"#utility.yul\":7069:7081   */\n      revert\n        /* \"#utility.yul\":7020:7083   */\n    tag_233:\n        /* \"#utility.yul\":6967:7089   */\n      pop\n      jump\t// out\n        /* \"#utility.yul\":7095:7234   */\n    tag_127:\n        /* \"#utility.yul\":7141:7146   */\n      0x00\n        /* \"#utility.yul\":7179:7185   */\n      dup2\n        /* \"#utility.yul\":7166:7186   */\n      calldataload\n        /* \"#utility.yul\":7157:7186   */\n      swap1\n      pop\n        /* \"#utility.yul\":7195:7228   */\n      tag_235\n        /* \"#utility.yul\":7222:7227   */\n      dup2\n        /* \"#utility.yul\":7195:7228   */\n      tag_126\n      jump\t// in\n    tag_235:\n        /* \"#utility.yul\":7095:7234   */\n      swap3\n      swap2\n      pop\n      pop\n      jump\t// out\n        /* \"#utility.yul\":7240:7569   */\n    tag_27:\n        /* \"#utility.yul\":7299:7305   */\n      0x00\n        /* \"#utility.yul\":7348:7350   */\n      0x20\n        /* \"#utility.yul\":7336:7345   */\n      dup3\n        /* \"#utility.yul\":7327:7334   */\n      dup5\n        /* \"#utility.yul\":7323:7346   */\n      sub\n        /* \"#utility.yul\":7319:7351   */\n      slt\n        /* \"#utility.yul\":7316:7435   */\n      iszero\n      tag_237\n      jumpi\n        /* \"#utility.yul\":7354:7433   */\n      tag_238\n      tag_121\n      jump\t// in\n    tag_238:\n        /* \"#utility.yul\":7316:7435   */\n    tag_237:\n        /* \"#utility.yul\":7474:7475   */\n      0x00\n        /* \"#utility.yul\":7499:7552   */\n      tag_239\n        /* \"#utility.yul\":7544:7551   */\n      dup5\n        /* \"#utility.yul\":7535:7541   */\n      dup3\n        /* \"#utility.yul\":7524:7533   */\n      dup6\n        /* \"#utility.yul\":7520:7542   */\n      add\n        /* \"#utility.yul\":7499:7552   */\n      tag_127\n      jump\t// in\n    tag_239:\n        /* \"#utility.yul\":7489:7552   */\n      swap2\n      pop\n        /* \"#utility.yul\":7445:7562   */\n      pop\n        /* \"#utility.yul\":7240:7569   */\n      swap3\n      swap2\n      pop\n      pop\n      jump\t// out\n        /* \"#utility.yul\":7575:7692   */\n    tag_128:\n        /* \"#utility.yul\":7684:7685   */\n      0x00\n        /* \"#utility.yul\":7681:7682   */\n      dup1\n        /* \"#utility.yul\":7674:7686   */\n      revert\n        /* \"#utility.yul\":7698:7878   */\n    tag_129:\n        /* \"#utility.yul\":7746:7823   */\n      0x4e487b7100000000000000000000000000000000000000000000000000000000\n        /* \"#utility.yul\":7743:7744   */\n      0x00\n        /* \"#utility.yul\":7736:7824   */\n      mstore\n        /* \"#utility.yul\":7843:7847   */\n      0x41\n        /* \"#utility.yul\":7840:7841   */\n      0x04\n        /* \"#utility.yul\":7833:7848   */\n      mstore\n        /* \"#utility.yul\":7867:7871   */\n      0x24\n        /* \"#utility.yul\":7864:7865   */\n      0x00\n        /* \"#utility.yul\":7857:7872   */\n      revert\n        /* \"#utility.yul\":7884:8165   */\n    tag_130:\n        /* \"#utility.yul\":7967:7994   */\n      tag_243\n        /* \"#utility.yul\":7989:7993   */\n      dup3\n        /* \"#utility.yul\":7967:7994   */\n      tag_109\n      jump\t// in\n    tag_243:\n        /* \"#utility.yul\":7959:7965   */\n      dup2\n        /* \"#utility.yul\":7955:7995   */\n      add\n        /* \"#utility.yul\":8097:8103   */\n      dup2\n        /* \"#utility.yul\":8085:8095   */\n      dup2\n        /* \"#utility.yul\":8082:8104   */\n      lt\n        /* \"#utility.yul\":8061:8079   */\n      0xffffffffffffffff\n        /* \"#utility.yul\":8049:8059   */\n      dup3\n        /* \"#utility.yul\":8046:8080   */\n      gt\n        /* \"#utility.yul\":8043:8105   */\n      or\n        /* \"#utility.yul\":8040:8128   */\n      iszero\n      tag_244\n      jumpi\n        /* \"#utility.yul\":8108:8126   */\n      tag_245\n      tag_129\n      jump\t// in\n    tag_245:\n        /* \"#utility.yul\":8040:8128   */\n    tag_244:\n        /* \"#utility.yul\":8148:8158   */\n      dup1\n        /* \"#utility.yul\":8144:8146   */\n      0x40\n        /* \"#utility.yul\":8137:8159   */\n      mstore\n        /* \"#utility.yul\":7927:8165   */\n      pop\n        /* \"#utility.yul\":7884:8165   */\n      pop\n      pop\n      jump\t// out\n        /* \"#utility.yul\":8171:8300   */\n    tag_131:\n        /* \"#utility.yul\":8205:8211   */\n      0x00\n        /* \"#utility.yul\":8232:8252   */\n      tag_247\n      tag_120\n      jump\t// in\n    tag_247:\n        /* \"#utility.yul\":8222:8252   */\n      swap1\n      pop\n        /* \"#utility.yul\":8261:8294   */\n      tag_248\n        /* \"#utility.yul\":8289:8293   */\n      dup3\n        /* \"#utility.yul\":8281:8287   */\n      dup3\n        /* \"#utility.yul\":8261:8294   */\n      tag_130\n      jump\t// in\n    tag_248:\n        /* \"#utility.yul\":8171:8300   */\n      swap2\n      swap1\n      pop\n      jump\t// out\n        /* \"#utility.yul\":8306:8423   */\n    tag_132:\n        /* \"#utility.yul\":8415:8416   */\n      0x00\n        /* \"#utility.yul\":8412:8413   */\n      dup1\n        /* \"#utility.yul\":8405:8417   */\n      revert\n        /* \"#utility.yul\":8429:8546   */\n    tag_133:\n        /* \"#utility.yul\":8538:8539   */\n      0x00\n        /* \"#utility.yul\":8535:8536   */\n      dup1\n        /* \"#utility.yul\":8528:8540   */\n      revert\n        /* \"#utility.yul\":8552:8669   */\n    tag_134:\n        /* \"#utility.yul\":8661:8662   */\n      0x00\n        /* \"#utility.yul\":8658:8659   */\n      dup1\n        /* \"#utility.yul\":8651:8663   */\n      revert\n        /* \"#utility.yul\":8675:8983   */\n    tag_135:\n        /* \"#utility.yul\":8737:8741   */\n      0x00\n        /* \"#utility.yul\":8827:8845   */\n      0xffffffffffffffff\n        /* \"#utility.yul\":8819:8825   */\n      dup3\n        /* \"#utility.yul\":8816:8846   */\n      gt\n        /* \"#utility.yul\":8813:8869   */\n      iszero\n      tag_253\n      jumpi\n        /* \"#utility.yul\":8849:8867   */\n      tag_254\n      tag_129\n      jump\t// in\n    tag_254:\n        /* \"#utility.yul\":8813:8869   */\n    tag_253:\n        /* \"#utility.yul\":8887:8916   */\n      tag_255\n        /* \"#utility.yul\":8909:8915   */\n      dup3\n        /* \"#utility.yul\":8887:8916   */\n      tag_109\n      jump\t// in\n    tag_255:\n        /* \"#utility.yul\":8879:8916   */\n      swap1\n      pop\n        /* \"#utility.yul\":8971:8975   */\n      0x20\n        /* \"#utility.yul\":8965:8969   */\n      dup2\n        /* \"#utility.yul\":8961:8976   */\n      add\n        /* \"#utility.yul\":8953:8976   */\n      swap1\n      pop\n        /* \"#utility.yul\":8675:8983   */\n      swap2\n      swap1\n      pop\n      jump\t// out\n        /* \"#utility.yul\":8989:9135   */\n    tag_136:\n        /* \"#utility.yul\":9086:9092   */\n      dup3\n        /* \"#utility.yul\":9081:9084   */\n      dup2\n        /* \"#utility.yul\":9076:9079   */\n      dup4\n        /* \"#utility.yul\":9063:9093   */\n      calldatacopy\n        /* \"#utility.yul\":9127:9128   */\n      0x00\n        /* \"#utility.yul\":9118:9124   */\n      dup4\n        /* \"#utility.yul\":9113:9116   */\n      dup4\n        /* \"#utility.yul\":9109:9125   */\n      add\n        /* \"#utility.yul\":9102:9129   */\n      mstore\n        /* \"#utility.yul\":8989:9135   */\n      pop\n      pop\n      pop\n      jump\t// out\n        /* \"#utility.yul\":9141:9566   */\n    tag_137:\n        /* \"#utility.yul\":9219:9224   */\n      0x00\n        /* \"#utility.yul\":9244:9310   */\n      tag_258\n        /* \"#utility.yul\":9260:9309   */\n      tag_259\n        /* \"#utility.yul\":9302:9308   */\n      dup5\n        /* \"#utility.yul\":9260:9309   */\n      tag_135\n      jump\t// in\n    tag_259:\n        /* \"#utility.yul\":9244:9310   */\n      tag_131\n      jump\t// in\n    tag_258:\n        /* \"#utility.yul\":9235:9310   */\n      swap1\n      pop\n        /* \"#utility.yul\":9333:9339   */\n      dup3\n        /* \"#utility.yul\":9326:9331   */\n      dup2\n        /* \"#utility.yul\":9319:9340   */\n      mstore\n        /* \"#utility.yul\":9371:9375   */\n      0x20\n        /* \"#utility.yul\":9364:9369   */\n      dup2\n        /* \"#utility.yul\":9360:9376   */\n      add\n        /* \"#utility.yul\":9409:9412   */\n      dup5\n        /* \"#utility.yul\":9400:9406   */\n      dup5\n        /* \"#utility.yul\":9395:9398   */\n      dup5\n        /* \"#utility.yul\":9391:9407   */\n      add\n        /* \"#utility.yul\":9388:9413   */\n      gt\n        /* \"#utility.yul\":9385:9497   */\n      iszero\n      tag_260\n      jumpi\n        /* \"#utility.yul\":9416:9495   */\n      tag_261\n      tag_134\n      jump\t// in\n    tag_261:\n        /* \"#utility.yul\":9385:9497   */\n    tag_260:\n        /* \"#utility.yul\":9506:9560   */\n      tag_262\n        /* \"#utility.yul\":9553:9559   */\n      dup5\n        /* \"#utility.yul\":9548:9551   */\n      dup3\n        /* \"#utility.yul\":9543:9546   */\n      dup6\n        /* \"#utility.yul\":9506:9560   */\n      tag_136\n      jump\t// in\n    tag_262:\n        /* \"#utility.yul\":9225:9566   */\n      pop\n        /* \"#utility.yul\":9141:9566   */\n      swap4\n      swap3\n      pop\n      pop\n      pop\n      jump\t// out\n        /* \"#utility.yul\":9586:9926   */\n    tag_138:\n        /* \"#utility.yul\":9642:9647   */\n      0x00\n        /* \"#utility.yul\":9691:9694   */\n      dup3\n        /* \"#utility.yul\":9684:9688   */\n      0x1f\n        /* \"#utility.yul\":9676:9682   */\n      dup4\n        /* \"#utility.yul\":9672:9689   */\n      add\n        /* \"#utility.yul\":9668:9695   */\n      slt\n        /* \"#utility.yul\":9658:9780   */\n      tag_264\n      jumpi\n        /* \"#utility.yul\":9699:9778   */\n      tag_265\n      tag_133\n      jump\t// in\n    tag_265:\n        /* \"#utility.yul\":9658:9780   */\n    tag_264:\n        /* \"#utility.yul\":9816:9822   */\n      dup2\n        /* \"#utility.yul\":9803:9823   */\n      calldataload\n        /* \"#utility.yul\":9841:9920   */\n      tag_266\n        /* \"#utility.yul\":9916:9919   */\n      dup5\n        /* \"#utility.yul\":9908:9914   */\n      dup3\n        /* \"#utility.yul\":9901:9905   */\n      0x20\n        /* \"#utility.yul\":9893:9899   */\n      dup7\n        /* \"#utility.yul\":9889:9906   */\n      add\n        /* \"#utility.yul\":9841:9920   */\n      tag_137\n      jump\t// in\n    tag_266:\n        /* \"#utility.yul\":9832:9920   */\n      swap2\n      pop\n        /* \"#utility.yul\":9648:9926   */\n      pop\n        /* \"#utility.yul\":9586:9926   */\n      swap3\n      swap2\n      pop\n      pop\n      jump\t// out\n        /* \"#utility.yul\":9932:10048   */\n    tag_139:\n        /* \"#utility.yul\":10002:10023   */\n      tag_268\n        /* \"#utility.yul\":10017:10022   */\n      dup2\n        /* \"#utility.yul\":10002:10023   */\n      tag_114\n      jump\t// in\n    tag_268:\n        /* \"#utility.yul\":9995:10000   */\n      dup2\n        /* \"#utility.yul\":9992:10024   */\n      eq\n        /* \"#utility.yul\":9982:10042   */\n      tag_269\n      jumpi\n        /* \"#utility.yul\":10038:10039   */\n      0x00\n        /* \"#utility.yul\":10035:10036   */\n      dup1\n        /* \"#utility.yul\":10028:10040   */\n      revert\n        /* \"#utility.yul\":9982:10042   */\n    tag_269:\n        /* \"#utility.yul\":9932:10048   */\n      pop\n      jump\t// out\n        /* \"#utility.yul\":10054:10187   */\n    tag_140:\n        /* \"#utility.yul\":10097:10102   */\n      0x00\n        /* \"#utility.yul\":10135:10141   */\n      dup2\n        /* \"#utility.yul\":10122:10142   */\n      calldataload\n        /* \"#utility.yul\":10113:10142   */\n      swap1\n      pop\n        /* \"#utility.yul\":10151:10181   */\n      tag_271\n        /* \"#utility.yul\":10175:10180   */\n      dup2\n        /* \"#utility.yul\":10151:10181   */\n      tag_139\n      jump\t// in\n    tag_271:\n        /* \"#utility.yul\":10054:10187   */\n      swap3\n      swap2\n      pop\n      pop\n      jump\t// out\n        /* \"#utility.yul\":10213:11803   */\n    tag_141:\n        /* \"#utility.yul\":10284:10289   */\n      0x00\n        /* \"#utility.yul\":10328:10332   */\n      0xc0\n        /* \"#utility.yul\":10316:10325   */\n      dup3\n        /* \"#utility.yul\":10311:10314   */\n      dup5\n        /* \"#utility.yul\":10307:10326   */\n      sub\n        /* \"#utility.yul\":10303:10333   */\n      slt\n        /* \"#utility.yul\":10300:10417   */\n      iszero\n      tag_273\n      jumpi\n        /* \"#utility.yul\":10336:10415   */\n      tag_274\n      tag_128\n      jump\t// in\n    tag_274:\n        /* \"#utility.yul\":10300:10417   */\n    tag_273:\n        /* \"#utility.yul\":10435:10456   */\n      tag_275\n        /* \"#utility.yul\":10451:10455   */\n      0xc0\n        /* \"#utility.yul\":10435:10456   */\n      tag_131\n      jump\t// in\n    tag_275:\n        /* \"#utility.yul\":10426:10456   */\n      swap1\n      pop\n        /* \"#utility.yul\":10518:10519   */\n      0x00\n        /* \"#utility.yul\":10558:10607   */\n      tag_276\n        /* \"#utility.yul\":10603:10606   */\n      dup5\n        /* \"#utility.yul\":10594:10600   */\n      dup3\n        /* \"#utility.yul\":10583:10592   */\n      dup6\n        /* \"#utility.yul\":10579:10601   */\n      add\n        /* \"#utility.yul\":10558:10607   */\n      tag_127\n      jump\t// in\n    tag_276:\n        /* \"#utility.yul\":10551:10555   */\n      0x00\n        /* \"#utility.yul\":10544:10549   */\n      dup4\n        /* \"#utility.yul\":10540:10556   */\n      add\n        /* \"#utility.yul\":10533:10608   */\n      mstore\n        /* \"#utility.yul\":10466:10619   */\n      pop\n        /* \"#utility.yul\":10710:10712   */\n      0x20\n        /* \"#utility.yul\":10699:10708   */\n      dup3\n        /* \"#utility.yul\":10695:10713   */\n      add\n        /* \"#utility.yul\":10682:10714   */\n      calldataload\n        /* \"#utility.yul\":10741:10759   */\n      0xffffffffffffffff\n        /* \"#utility.yul\":10733:10739   */\n      dup2\n        /* \"#utility.yul\":10730:10760   */\n      gt\n        /* \"#utility.yul\":10727:10844   */\n      iszero\n      tag_277\n      jumpi\n        /* \"#utility.yul\":10763:10842   */\n      tag_278\n      tag_132\n      jump\t// in\n    tag_278:\n        /* \"#utility.yul\":10727:10844   */\n    tag_277:\n        /* \"#utility.yul\":10883:10942   */\n      tag_279\n        /* \"#utility.yul\":10938:10941   */\n      dup5\n        /* \"#utility.yul\":10929:10935   */\n      dup3\n        /* \"#utility.yul\":10918:10927   */\n      dup6\n        /* \"#utility.yul\":10914:10936   */\n      add\n        /* \"#utility.yul\":10883:10942   */\n      tag_138\n      jump\t// in\n    tag_279:\n        /* \"#utility.yul\":10876:10880   */\n      0x20\n        /* \"#utility.yul\":10869:10874   */\n      dup4\n        /* \"#utility.yul\":10865:10881   */\n      add\n        /* \"#utility.yul\":10858:10943   */\n      mstore\n        /* \"#utility.yul\":10629:10954   */\n      pop\n        /* \"#utility.yul\":11020:11022   */\n      0x40\n        /* \"#utility.yul\":11061:11110   */\n      tag_280\n        /* \"#utility.yul\":11106:11109   */\n      dup5\n        /* \"#utility.yul\":11097:11103   */\n      dup3\n        /* \"#utility.yul\":11086:11095   */\n      dup6\n        /* \"#utility.yul\":11082:11104   */\n      add\n        /* \"#utility.yul\":11061:11110   */\n      tag_124\n      jump\t// in\n    tag_280:\n        /* \"#utility.yul\":11054:11058   */\n      0x40\n        /* \"#utility.yul\":11047:11052   */\n      dup4\n        /* \"#utility.yul\":11043:11059   */\n      add\n        /* \"#utility.yul\":11036:11111   */\n      mstore\n        /* \"#utility.yul\":10964:11122   */\n      pop\n        /* \"#utility.yul\":11186:11188   */\n      0x60\n        /* \"#utility.yul\":11227:11276   */\n      tag_281\n        /* \"#utility.yul\":11272:11275   */\n      dup5\n        /* \"#utility.yul\":11263:11269   */\n      dup3\n        /* \"#utility.yul\":11252:11261   */\n      dup6\n        /* \"#utility.yul\":11248:11270   */\n      add\n        /* \"#utility.yul\":11227:11276   */\n      tag_127\n      jump\t// in\n    tag_281:\n        /* \"#utility.yul\":11220:11224   */\n      0x60\n        /* \"#utility.yul\":11213:11218   */\n      dup4\n        /* \"#utility.yul\":11209:11225   */\n      add\n        /* \"#utility.yul\":11202:11277   */\n      mstore\n        /* \"#utility.yul\":11132:11288   */\n      pop\n        /* \"#utility.yul\":11382:11385   */\n      0x80\n        /* \"#utility.yul\":11371:11380   */\n      dup3\n        /* \"#utility.yul\":11367:11386   */\n      add\n        /* \"#utility.yul\":11354:11387   */\n      calldataload\n        /* \"#utility.yul\":11414:11432   */\n      0xffffffffffffffff\n        /* \"#utility.yul\":11406:11412   */\n      dup2\n        /* \"#utility.yul\":11403:11433   */\n      gt\n        /* \"#utility.yul\":11400:11517   */\n      iszero\n      tag_282\n      jumpi\n        /* \"#utility.yul\":11436:11515   */\n      tag_283\n      tag_132\n      jump\t// in\n    tag_283:\n        /* \"#utility.yul\":11400:11517   */\n    tag_282:\n        /* \"#utility.yul\":11556:11615   */\n      tag_284\n        /* \"#utility.yul\":11611:11614   */\n      dup5\n        /* \"#utility.yul\":11602:11608   */\n      dup3\n        /* \"#utility.yul\":11591:11600   */\n      dup6\n        /* \"#utility.yul\":11587:11609   */\n      add\n        /* \"#utility.yul\":11556:11615   */\n      tag_138\n      jump\t// in\n    tag_284:\n        /* \"#utility.yul\":11549:11553   */\n      0x80\n        /* \"#utility.yul\":11542:11547   */\n      dup4\n        /* \"#utility.yul\":11538:11554   */\n      add\n        /* \"#utility.yul\":11531:11616   */\n      mstore\n        /* \"#utility.yul\":11298:11627   */\n      pop\n        /* \"#utility.yul\":11696:11699   */\n      0xa0\n        /* \"#utility.yul\":11738:11784   */\n      tag_285\n        /* \"#utility.yul\":11780:11783   */\n      dup5\n        /* \"#utility.yul\":11771:11777   */\n      dup3\n        /* \"#utility.yul\":11760:11769   */\n      dup6\n        /* \"#utility.yul\":11756:11778   */\n      add\n        /* \"#utility.yul\":11738:11784   */\n      tag_140\n      jump\t// in\n    tag_285:\n        /* \"#utility.yul\":11731:11735   */\n      0xa0\n        /* \"#utility.yul\":11724:11729   */\n      dup4\n        /* \"#utility.yul\":11720:11736   */\n      add\n        /* \"#utility.yul\":11713:11785   */\n      mstore\n        /* \"#utility.yul\":11637:11796   */\n      pop\n        /* \"#utility.yul\":10213:11803   */\n      swap3\n      swap2\n      pop\n      pop\n      jump\t// out\n        /* \"#utility.yul\":11809:12342   */\n    tag_31:\n        /* \"#utility.yul\":11890:11896   */\n      0x00\n        /* \"#utility.yul\":11939:11941   */\n      0x20\n        /* \"#utility.yul\":11927:11936   */\n      dup3\n        /* \"#utility.yul\":11918:11925   */\n      dup5\n        /* \"#utility.yul\":11914:11937   */\n      sub\n        /* \"#utility.yul\":11910:11942   */\n      slt\n        /* \"#utility.yul\":11907:12026   */\n      iszero\n      tag_287\n      jumpi\n        /* \"#utility.yul\":11945:12024   */\n      tag_288\n      tag_121\n      jump\t// in\n    tag_288:\n        /* \"#utility.yul\":11907:12026   */\n    tag_287:\n        /* \"#utility.yul\":12093:12094   */\n      0x00\n        /* \"#utility.yul\":12082:12091   */\n      dup3\n        /* \"#utility.yul\":12078:12095   */\n      add\n        /* \"#utility.yul\":12065:12096   */\n      calldataload\n        /* \"#utility.yul\":12123:12141   */\n      0xffffffffffffffff\n        /* \"#utility.yul\":12115:12121   */\n      dup2\n        /* \"#utility.yul\":12112:12142   */\n      gt\n        /* \"#utility.yul\":12109:12226   */\n      iszero\n      tag_289\n      jumpi\n        /* \"#utility.yul\":12145:12224   */\n      tag_290\n      tag_122\n      jump\t// in\n    tag_290:\n        /* \"#utility.yul\":12109:12226   */\n    tag_289:\n        /* \"#utility.yul\":12250:12325   */\n      tag_291\n        /* \"#utility.yul\":12317:12324   */\n      dup5\n        /* \"#utility.yul\":12308:12314   */\n      dup3\n        /* \"#utility.yul\":12297:12306   */\n      dup6\n        /* \"#utility.yul\":12293:12315   */\n      add\n        /* \"#utility.yul\":12250:12325   */\n      tag_141\n      jump\t// in\n    tag_291:\n        /* \"#utility.yul\":12240:12325   */\n      swap2\n      pop\n        /* \"#utility.yul\":12036:12335   */\n      pop\n        /* \"#utility.yul\":11809:12342   */\n      swap3\n      swap2\n      pop\n      pop\n      jump\t// out\n        /* \"#utility.yul\":12348:12517   */\n    tag_142:\n        /* \"#utility.yul\":12432:12443   */\n      0x00\n        /* \"#utility.yul\":12466:12472   */\n      dup3\n        /* \"#utility.yul\":12461:12464   */\n      dup3\n        /* \"#utility.yul\":12454:12473   */\n      mstore\n        /* \"#utility.yul\":12506:12510   */\n      0x20\n        /* \"#utility.yul\":12501:12504   */\n      dup3\n        /* \"#utility.yul\":12497:12511   */\n      add\n        /* \"#utility.yul\":12482:12511   */\n      swap1\n      pop\n        /* \"#utility.yul\":12348:12517   */\n      swap3\n      swap2\n      pop\n      pop\n      jump\t// out\n        /* \"#utility.yul\":12523:12756   */\n    tag_143:\n        /* \"#utility.yul\":12663:12697   */\n      0x526f75676844617461626173653a206f6e6c7920636f6e747261637420776869\n        /* \"#utility.yul\":12659:12660   */\n      0x00\n        /* \"#utility.yul\":12651:12657   */\n      dup3\n        /* \"#utility.yul\":12647:12661   */\n      add\n        /* \"#utility.yul\":12640:12698   */\n      mstore\n        /* \"#utility.yul\":12732:12748   */\n      0x63682061726520616c6c6f776564000000000000000000000000000000000000\n        /* \"#utility.yul\":12727:12729   */\n      0x20\n        /* \"#utility.yul\":12719:12725   */\n      dup3\n        /* \"#utility.yul\":12715:12730   */\n      add\n        /* \"#utility.yul\":12708:12749   */\n      mstore\n        /* \"#utility.yul\":12523:12756   */\n      pop\n      jump\t// out\n        /* \"#utility.yul\":12762:13128   */\n    tag_144:\n        /* \"#utility.yul\":12904:12907   */\n      0x00\n        /* \"#utility.yul\":12925:12992   */\n      tag_295\n        /* \"#utility.yul\":12989:12991   */\n      0x2e\n        /* \"#utility.yul\":12984:12987   */\n      dup4\n        /* \"#utility.yul\":12925:12992   */\n      tag_142\n      jump\t// in\n    tag_295:\n        /* \"#utility.yul\":12918:12992   */\n      swap2\n      pop\n        /* \"#utility.yul\":13001:13094   */\n      tag_296\n        /* \"#utility.yul\":13090:13093   */\n      dup3\n        /* \"#utility.yul\":13001:13094   */\n      tag_143\n      jump\t// in\n    tag_296:\n        /* \"#utility.yul\":13119:13121   */\n      0x40\n        /* \"#utility.yul\":13114:13117   */\n      dup3\n        /* \"#utility.yul\":13110:13122   */\n      add\n        /* \"#utility.yul\":13103:13122   */\n      swap1\n      pop\n        /* \"#utility.yul\":12762:13128   */\n      swap2\n      swap1\n      pop\n      jump\t// out\n        /* \"#utility.yul\":13134:13553   */\n    tag_41:\n        /* \"#utility.yul\":13300:13304   */\n      0x00\n        /* \"#utility.yul\":13338:13340   */\n      0x20\n        /* \"#utility.yul\":13327:13336   */\n      dup3\n        /* \"#utility.yul\":13323:13341   */\n      add\n        /* \"#utility.yul\":13315:13341   */\n      swap1\n      pop\n        /* \"#utility.yul\":13387:13396   */\n      dup2\n        /* \"#utility.yul\":13381:13385   */\n      dup2\n        /* \"#utility.yul\":13377:13397   */\n      sub\n        /* \"#utility.yul\":13373:13374   */\n      0x00\n        /* \"#utility.yul\":13362:13371   */\n      dup4\n        /* \"#utility.yul\":13358:13375   */\n      add\n        /* \"#utility.yul\":13351:13398   */\n      mstore\n        /* \"#utility.yul\":13415:13546   */\n      tag_298\n        /* \"#utility.yul\":13541:13545   */\n      dup2\n        /* \"#utility.yul\":13415:13546   */\n      tag_144\n      jump\t// in\n    tag_298:\n        /* \"#utility.yul\":13407:13546   */\n      swap1\n      pop\n        /* \"#utility.yul\":13134:13553   */\n      swap2\n      swap1\n      pop\n      jump\t// out\n        /* \"#utility.yul\":13559:13739   */\n    tag_145:\n        /* \"#utility.yul\":13607:13684   */\n      0x4e487b7100000000000000000000000000000000000000000000000000000000\n        /* \"#utility.yul\":13604:13605   */\n      0x00\n        /* \"#utility.yul\":13597:13685   */\n      mstore\n        /* \"#utility.yul\":13704:13708   */\n      0x22\n        /* \"#utility.yul\":13701:13702   */\n      0x04\n        /* \"#utility.yul\":13694:13709   */\n      mstore\n        /* \"#utility.yul\":13728:13732   */\n      0x24\n        /* \"#utility.yul\":13725:13726   */\n      0x00\n        /* \"#utility.yul\":13718:13733   */\n      revert\n        /* \"#utility.yul\":13745:14065   */\n    tag_47:\n        /* \"#utility.yul\":13789:13795   */\n      0x00\n        /* \"#utility.yul\":13826:13827   */\n      0x02\n        /* \"#utility.yul\":13820:13824   */\n      dup3\n        /* \"#utility.yul\":13816:13828   */\n      div\n        /* \"#utility.yul\":13806:13828   */\n      swap1\n      pop\n        /* \"#utility.yul\":13873:13874   */\n      0x01\n        /* \"#utility.yul\":13867:13871   */\n      dup3\n        /* \"#utility.yul\":13863:13875   */\n      and\n        /* \"#utility.yul\":13894:13912   */\n      dup1\n        /* \"#utility.yul\":13884:13965   */\n      tag_301\n      jumpi\n        /* \"#utility.yul\":13950:13954   */\n      0x7f\n        /* \"#utility.yul\":13942:13948   */\n      dup3\n        /* \"#utility.yul\":13938:13955   */\n      and\n        /* \"#utility.yul\":13928:13955   */\n      swap2\n      pop\n        /* \"#utility.yul\":13884:13965   */\n    tag_301:\n        /* \"#utility.yul\":14012:14014   */\n      0x20\n        /* \"#utility.yul\":14004:14010   */\n      dup3\n        /* \"#utility.yul\":14001:14015   */\n      lt\n        /* \"#utility.yul\":13981:13999   */\n      dup2\n        /* \"#utility.yul\":13978:14016   */\n      sub\n        /* \"#utility.yul\":13975:14059   */\n      tag_302\n      jumpi\n        /* \"#utility.yul\":14031:14049   */\n      tag_303\n      tag_145\n      jump\t// in\n    tag_303:\n        /* \"#utility.yul\":13975:14059   */\n    tag_302:\n        /* \"#utility.yul\":13796:14065   */\n      pop\n        /* \"#utility.yul\":13745:14065   */\n      swap2\n      swap1\n      pop\n      jump\t// out\n        /* \"#utility.yul\":14071:14300   */\n    tag_146:\n        /* \"#utility.yul\":14211:14245   */\n      0x526f75676844617461626173653a207065726d697373696f6e20686173206265\n        /* \"#utility.yul\":14207:14208   */\n      0x00\n        /* \"#utility.yul\":14199:14205   */\n      dup3\n        /* \"#utility.yul\":14195:14209   */\n      add\n        /* \"#utility.yul\":14188:14246   */\n      mstore\n        /* \"#utility.yul\":14280:14292   */\n      0x656e206772616e74656400000000000000000000000000000000000000000000\n        /* \"#utility.yul\":14275:14277   */\n      0x20\n        /* \"#utility.yul\":14267:14273   */\n      dup3\n        /* \"#utility.yul\":14263:14278   */\n      add\n        /* \"#utility.yul\":14256:14293   */\n      mstore\n        /* \"#utility.yul\":14071:14300   */\n      pop\n      jump\t// out\n        /* \"#utility.yul\":14306:14672   */\n    tag_147:\n        /* \"#utility.yul\":14448:14451   */\n      0x00\n        /* \"#utility.yul\":14469:14536   */\n      tag_306\n        /* \"#utility.yul\":14533:14535   */\n      0x2a\n        /* \"#utility.yul\":14528:14531   */\n      dup4\n        /* \"#utility.yul\":14469:14536   */\n      tag_142\n      jump\t// in\n    tag_306:\n        /* \"#utility.yul\":14462:14536   */\n      swap2\n      pop\n        /* \"#utility.yul\":14545:14638   */\n      tag_307\n        /* \"#utility.yul\":14634:14637   */\n      dup3\n        /* \"#utility.yul\":14545:14638   */\n      tag_146\n      jump\t// in\n    tag_307:\n        /* \"#utility.yul\":14663:14665   */\n      0x40\n        /* \"#utility.yul\":14658:14661   */\n      dup3\n        /* \"#utility.yul\":14654:14666   */\n      add\n        /* \"#utility.yul\":14647:14666   */\n      swap1\n      pop\n        /* \"#utility.yul\":14306:14672   */\n      swap2\n      swap1\n      pop\n      jump\t// out\n        /* \"#utility.yul\":14678:15097   */\n    tag_63:\n        /* \"#utility.yul\":14844:14848   */\n      0x00\n        /* \"#utility.yul\":14882:14884   */\n      0x20\n        /* \"#utility.yul\":14871:14880   */\n      dup3\n        /* \"#utility.yul\":14867:14885   */\n      add\n        /* \"#utility.yul\":14859:14885   */\n      swap1\n      pop\n        /* \"#utility.yul\":14931:14940   */\n      dup2\n        /* \"#utility.yul\":14925:14929   */\n      dup2\n        /* \"#utility.yul\":14921:14941   */\n      sub\n        /* \"#utility.yul\":14917:14918   */\n      0x00\n        /* \"#utility.yul\":14906:14915   */\n      dup4\n        /* \"#utility.yul\":14902:14919   */\n      add\n        /* \"#utility.yul\":14895:14942   */\n      mstore\n        /* \"#utility.yul\":14959:15090   */\n      tag_309\n        /* \"#utility.yul\":15085:15089   */\n      dup2\n        /* \"#utility.yul\":14959:15090   */\n      tag_147\n      jump\t// in\n    tag_309:\n        /* \"#utility.yul\":14951:15090   */\n      swap1\n      pop\n        /* \"#utility.yul\":14678:15097   */\n      swap2\n      swap1\n      pop\n      jump\t// out\n        /* \"#utility.yul\":15103:15283   */\n    tag_75:\n        /* \"#utility.yul\":15151:15228   */\n      0x4e487b7100000000000000000000000000000000000000000000000000000000\n        /* \"#utility.yul\":15148:15149   */\n      0x00\n        /* \"#utility.yul\":15141:15229   */\n      mstore\n        /* \"#utility.yul\":15248:15252   */\n      0x32\n        /* \"#utility.yul\":15245:15246   */\n      0x04\n        /* \"#utility.yul\":15238:15253   */\n      mstore\n        /* \"#utility.yul\":15272:15276   */\n      0x24\n        /* \"#utility.yul\":15269:15270   */\n      0x00\n        /* \"#utility.yul\":15262:15277   */\n      revert\n        /* \"#utility.yul\":15289:15430   */\n    tag_148:\n        /* \"#utility.yul\":15338:15342   */\n      0x00\n        /* \"#utility.yul\":15361:15364   */\n      dup2\n        /* \"#utility.yul\":15353:15364   */\n      swap1\n      pop\n        /* \"#utility.yul\":15384:15387   */\n      dup2\n        /* \"#utility.yul\":15381:15382   */\n      0x00\n        /* \"#utility.yul\":15374:15388   */\n      mstore\n        /* \"#utility.yul\":15418:15422   */\n      0x20\n        /* \"#utility.yul\":15415:15416   */\n      0x00\n        /* \"#utility.yul\":15405:15423   */\n      keccak256\n        /* \"#utility.yul\":15397:15423   */\n      swap1\n      pop\n        /* \"#utility.yul\":15289:15430   */\n      swap2\n      swap1\n      pop\n      jump\t// out\n        /* \"#utility.yul\":15436:15529   */\n    tag_149:\n        /* \"#utility.yul\":15473:15479   */\n      0x00\n        /* \"#utility.yul\":15520:15522   */\n      0x20\n        /* \"#utility.yul\":15515:15517   */\n      0x1f\n        /* \"#utility.yul\":15508:15513   */\n      dup4\n        /* \"#utility.yul\":15504:15518   */\n      add\n        /* \"#utility.yul\":15500:15523   */\n      div\n        /* \"#utility.yul\":15490:15523   */\n      swap1\n      pop\n        /* \"#utility.yul\":15436:15529   */\n      swap2\n      swap1\n      pop\n      jump\t// out\n        /* \"#utility.yul\":15535:15642   */\n    tag_150:\n        /* \"#utility.yul\":15579:15587   */\n      0x00\n        /* \"#utility.yul\":15629:15634   */\n      dup3\n        /* \"#utility.yul\":15623:15627   */\n      dup3\n        /* \"#utility.yul\":15619:15635   */\n      shl\n        /* \"#utility.yul\":15598:15635   */\n      swap1\n      pop\n        /* \"#utility.yul\":15535:15642   */\n      swap3\n      swap2\n      pop\n      pop\n      jump\t// out\n        /* \"#utility.yul\":15648:16041   */\n    tag_151:\n        /* \"#utility.yul\":15717:15723   */\n      0x00\n        /* \"#utility.yul\":15767:15768   */\n      0x08\n        /* \"#utility.yul\":15755:15765   */\n      dup4\n        /* \"#utility.yul\":15751:15769   */\n      mul\n        /* \"#utility.yul\":15790:15887   */\n      tag_315\n        /* \"#utility.yul\":15820:15886   */\n      0xffffffffffffffffffffffffffffffffffffffffffffffffffffffffffffffff\n        /* \"#utility.yul\":15809:15818   */\n      dup3\n        /* \"#utility.yul\":15790:15887   */\n      tag_150\n      jump\t// in\n    tag_315:\n        /* \"#utility.yul\":15908:15947   */\n      tag_316\n        /* \"#utility.yul\":15938:15946   */\n      dup7\n        /* \"#utility.yul\":15927:15936   */\n      dup4\n        /* \"#utility.yul\":15908:15947   */\n      tag_150\n      jump\t// in\n    tag_316:\n        /* \"#utility.yul\":15896:15947   */\n      swap6\n      pop\n        /* \"#utility.yul\":15980:15984   */\n      dup1\n        /* \"#utility.yul\":15976:15985   */\n      not\n        /* \"#utility.yul\":15969:15974   */\n      dup5\n        /* \"#utility.yul\":15965:15986   */\n      and\n        /* \"#utility.yul\":15956:15986   */\n      swap4\n      pop\n        /* \"#utility.yul\":16029:16033   */\n      dup1\n        /* \"#utility.yul\":16019:16027   */\n      dup7\n        /* \"#utility.yul\":16015:16034   */\n      and\n        /* \"#utility.yul\":16008:16013   */\n      dup5\n        /* \"#utility.yul\":16005:16035   */\n      or\n        /* \"#utility.yul\":15995:16035   */\n      swap3\n      pop\n        /* \"#utility.yul\":15724:16041   */\n      pop\n      pop\n        /* \"#utility.yul\":15648:16041   */\n      swap4\n      swap3\n      pop\n      pop\n      pop\n      jump\t// out\n        /* \"#utility.yul\":16047:16107   */\n    tag_152:\n        /* \"#utility.yul\":16075:16078   */\n      0x00\n        /* \"#utility.yul\":16096:16101   */\n      dup2\n        /* \"#utility.yul\":16089:16101   */\n      swap1\n      pop\n        /* \"#utility.yul\":16047:16107   */\n      swap2\n      swap1\n      pop\n      jump\t// out\n        /* \"#utility.yul\":16113:16255   */\n    tag_153:\n        /* \"#utility.yul\":16163:16172   */\n      0x00\n        /* \"#utility.yul\":16196:16249   */\n      tag_319\n        /* \"#utility.yul\":16214:16248   */\n      tag_320\n        /* \"#utility.yul\":16223:16247   */\n      tag_321\n        /* \"#utility.yul\":16241:16246   */\n      dup5\n        /* \"#utility.yul\":16223:16247   */\n      tag_104\n      jump\t// in\n    tag_321:\n        /* \"#utility.yul\":16214:16248   */\n      tag_152\n      jump\t// in\n    tag_320:\n        /* \"#utility.yul\":16196:16249   */\n      tag_104\n      jump\t// in\n    tag_319:\n        /* \"#utility.yul\":16183:16249   */\n      swap1\n      pop\n        /* \"#utility.yul\":16113:16255   */\n      swap2\n      swap1\n      pop\n      jump\t// out\n        /* \"#utility.yul\":16261:16336   */\n    tag_154:\n        /* \"#utility.yul\":16304:16307   */\n      0x00\n        /* \"#utility.yul\":16325:16330   */\n      dup2\n        /* \"#utility.yul\":16318:16330   */\n      swap1\n      pop\n        /* \"#utility.yul\":16261:16336   */\n      swap2\n      swap1\n      pop\n      jump\t// out\n        /* \"#utility.yul\":16342:16611   */\n    tag_155:\n        /* \"#utility.yul\":16452:16491   */\n      tag_324\n        /* \"#utility.yul\":16483:16490   */\n      dup4\n        /* \"#utility.yul\":16452:16491   */\n      tag_153\n      jump\t// in\n    tag_324:\n        /* \"#utility.yul\":16513:16604   */\n      tag_325\n        /* \"#utility.yul\":16562:16603   */\n      tag_326\n        /* \"#utility.yul\":16586:16602   */\n      dup3\n        /* \"#utility.yul\":16562:16603   */\n      tag_154\n      jump\t// in\n    tag_326:\n        /* \"#utility.yul\":16554:16560   */\n      dup5\n        /* \"#utility.yul\":16547:16551   */\n      dup5\n        /* \"#utility.yul\":16541:16552   */\n      sload\n        /* \"#utility.yul\":16513:16604   */\n      tag_151\n      jump\t// in\n    tag_325:\n        /* \"#utility.yul\":16507:16511   */\n      dup3\n        /* \"#utility.yul\":16500:16605   */\n      sstore\n        /* \"#utility.yul\":16418:16611   */\n      pop\n        /* \"#utility.yul\":16342:16611   */\n      pop\n      pop\n      pop\n      jump\t// out\n        /* \"#utility.yul\":16617:16690   */\n    tag_156:\n        /* \"#utility.yul\":16662:16665   */\n      0x00\n        /* \"#utility.yul\":16617:16690   */\n      swap1\n      jump\t// out\n        /* \"#utility.yul\":16696:16885   */\n    tag_157:\n        /* \"#utility.yul\":16773:16805   */\n      tag_329\n      tag_156\n      jump\t// in\n    tag_329:\n        /* \"#utility.yul\":16814:16879   */\n      tag_330\n        /* \"#utility.yul\":16872:16878   */\n      dup2\n        /* \"#utility.yul\":16864:16870   */\n      dup5\n        /* \"#utility.yul\":16858:16862   */\n      dup5\n        /* \"#utility.yul\":16814:16879   */\n      tag_155\n      jump\t// in\n    tag_330:\n        /* \"#utility.yul\":16749:16885   */\n      pop\n        /* \"#utility.yul\":16696:16885   */\n      pop\n      pop\n      jump\t// out\n        /* \"#utility.yul\":16891:17077   */\n    tag_158:\n        /* \"#utility.yul\":16951:17071   */\n    tag_332:\n        /* \"#utility.yul\":16968:16971   */\n      dup2\n        /* \"#utility.yul\":16961:16966   */\n      dup2\n        /* \"#utility.yul\":16958:16972   */\n      lt\n        /* \"#utility.yul\":16951:17071   */\n      iszero\n      tag_334\n      jumpi\n        /* \"#utility.yul\":17022:17061   */\n      tag_335\n        /* \"#utility.yul\":17059:17060   */\n      0x00\n        /* \"#utility.yul\":17052:17057   */\n      dup3\n        /* \"#utility.yul\":17022:17061   */\n      tag_157\n      jump\t// in\n    tag_335:\n        /* \"#utility.yul\":16995:16996   */\n      0x01\n        /* \"#utility.yul\":16988:16993   */\n      dup2\n        /* \"#utility.yul\":16984:16997   */\n      add\n        /* \"#utility.yul\":16975:16997   */\n      swap1\n      pop\n        /* \"#utility.yul\":16951:17071   */\n      jump(tag_332)\n    tag_334:\n        /* \"#utility.yul\":16891:17077   */\n      pop\n      pop\n      jump\t// out\n        /* \"#utility.yul\":17083:17626   */\n    tag_159:\n        /* \"#utility.yul\":17184:17186   */\n      0x1f\n        /* \"#utility.yul\":17179:17182   */\n      dup3\n        /* \"#utility.yul\":17176:17187   */\n      gt\n        /* \"#utility.yul\":17173:17619   */\n      iszero\n      tag_337\n      jumpi\n        /* \"#utility.yul\":17218:17256   */\n      tag_338\n        /* \"#utility.yul\":17250:17255   */\n      dup2\n        /* \"#utility.yul\":17218:17256   */\n      tag_148\n      jump\t// in\n    tag_338:\n        /* \"#utility.yul\":17302:17331   */\n      tag_339\n        /* \"#utility.yul\":17320:17330   */\n      dup5\n        /* \"#utility.yul\":17302:17331   */\n      tag_149\n      jump\t// in\n    tag_339:\n        /* \"#utility.yul\":17292:17300   */\n      dup2\n        /* \"#utility.yul\":17288:17332   */\n      add\n        /* \"#utility.yul\":17485:17487   */\n      0x20\n        /* \"#utility.yul\":17473:17483   */\n      dup6\n        /* \"#utility.yul\":17470:17488   */\n      lt\n        /* \"#utility.yul\":17467:17516   */\n      iszero\n      tag_340\n      jumpi\n        /* \"#utility.yul\":17506:17514   */\n      dup2\n        /* \"#utility.yul\":17491:17514   */\n      swap1\n      pop\n        /* \"#utility.yul\":17467:17516   */\n    tag_340:\n        /* \"#utility.yul\":17529:17609   */\n      tag_341\n        /* \"#utility.yul\":17585:17607   */\n      tag_342\n        /* \"#utility.yul\":17603:17606   */\n      dup6\n        /* \"#utility.yul\":17585:17607   */\n      tag_149\n      jump\t// in\n    tag_342:\n        /* \"#utility.yul\":17575:17583   */\n      dup4\n        /* \"#utility.yul\":17571:17608   */\n      add\n        /* \"#utility.yul\":17558:17569   */\n      dup3\n        /* \"#utility.yul\":17529:17609   */\n      tag_158\n      jump\t// in\n    tag_341:\n        /* \"#utility.yul\":17188:17619   */\n      pop\n      pop\n        /* \"#utility.yul\":17173:17619   */\n    tag_337:\n        /* \"#utility.yul\":17083:17626   */\n      pop\n      pop\n      pop\n      jump\t// out\n        /* \"#utility.yul\":17632:17749   */\n    tag_160:\n        /* \"#utility.yul\":17686:17694   */\n      0x00\n        /* \"#utility.yul\":17736:17741   */\n      dup3\n        /* \"#utility.yul\":17730:17734   */\n      dup3\n        /* \"#utility.yul\":17726:17742   */\n      shr\n        /* \"#utility.yul\":17705:17742   */\n      swap1\n      pop\n        /* \"#utility.yul\":17632:17749   */\n      swap3\n      swap2\n      pop\n      pop\n      jump\t// out\n        /* \"#utility.yul\":17755:17924   */\n    tag_161:\n        /* \"#utility.yul\":17799:17805   */\n      0x00\n        /* \"#utility.yul\":17832:17883   */\n      tag_345\n        /* \"#utility.yul\":17880:17881   */\n      0x00\n        /* \"#utility.yul\":17876:17882   */\n      not\n        /* \"#utility.yul\":17868:17873   */\n      dup5\n        /* \"#utility.yul\":17865:17866   */\n      0x08\n        /* \"#utility.yul\":17861:17874   */\n      mul\n        /* \"#utility.yul\":17832:17883   */\n      tag_160\n      jump\t// in\n    tag_345:\n        /* \"#utility.yul\":17828:17884   */\n      not\n        /* \"#utility.yul\":17913:17917   */\n      dup1\n        /* \"#utility.yul\":17907:17911   */\n      dup4\n        /* \"#utility.yul\":17903:17918   */\n      and\n        /* \"#utility.yul\":17893:17918   */\n      swap2\n      pop\n        /* \"#utility.yul\":17806:17924   */\n      pop\n        /* \"#utility.yul\":17755:17924   */\n      swap3\n      swap2\n      pop\n      pop\n      jump\t// out\n        /* \"#utility.yul\":17929:18224   */\n    tag_162:\n        /* \"#utility.yul\":18005:18009   */\n      0x00\n        /* \"#utility.yul\":18151:18180   */\n      tag_347\n        /* \"#utility.yul\":18176:18179   */\n      dup4\n        /* \"#utility.yul\":18170:18174   */\n      dup4\n        /* \"#utility.yul\":18151:18180   */\n      tag_161\n      jump\t// in\n    tag_347:\n        /* \"#utility.yul\":18143:18180   */\n      swap2\n      pop\n        /* \"#utility.yul\":18213:18216   */\n      dup3\n        /* \"#utility.yul\":18210:18211   */\n      0x02\n        /* \"#utility.yul\":18206:18217   */\n      mul\n        /* \"#utility.yul\":18200:18204   */\n      dup3\n        /* \"#utility.yul\":18197:18218   */\n      or\n        /* \"#utility.yul\":18189:18218   */\n      swap1\n      pop\n        /* \"#utility.yul\":17929:18224   */\n      swap3\n      swap2\n      pop\n      pop\n      jump\t// out\n        /* \"#utility.yul\":18229:19624   */\n    tag_84:\n        /* \"#utility.yul\":18346:18383   */\n      tag_349\n        /* \"#utility.yul\":18379:18382   */\n      dup3\n        /* \"#utility.yul\":18346:18383   */\n      tag_106\n      jump\t// in\n    tag_349:\n        /* \"#utility.yul\":18448:18466   */\n      0xffffffffffffffff\n        /* \"#utility.yul\":18440:18446   */\n      dup2\n        /* \"#utility.yul\":18437:18467   */\n      gt\n        /* \"#utility.yul\":18434:18490   */\n      iszero\n      tag_350\n      jumpi\n        /* \"#utility.yul\":18470:18488   */\n      tag_351\n      tag_129\n      jump\t// in\n    tag_351:\n        /* \"#utility.yul\":18434:18490   */\n    tag_350:\n        /* \"#utility.yul\":18514:18552   */\n      tag_352\n        /* \"#utility.yul\":18546:18550   */\n      dup3\n        /* \"#utility.yul\":18540:18551   */\n      sload\n        /* \"#utility.yul\":18514:18552   */\n      tag_47\n      jump\t// in\n    tag_352:\n        /* \"#utility.yul\":18599:18666   */\n      tag_353\n        /* \"#utility.yul\":18659:18665   */\n      dup3\n        /* \"#utility.yul\":18651:18657   */\n      dup3\n        /* \"#utility.yul\":18645:18649   */\n      dup6\n        /* \"#utility.yul\":18599:18666   */\n      tag_159\n      jump\t// in\n    tag_353:\n        /* \"#utility.yul\":18693:18694   */\n      0x00\n        /* \"#utility.yul\":18717:18721   */\n      0x20\n        /* \"#utility.yul\":18704:18721   */\n      swap1\n      pop\n        /* \"#utility.yul\":18749:18751   */\n      0x1f\n        /* \"#utility.yul\":18741:18747   */\n      dup4\n        /* \"#utility.yul\":18738:18752   */\n      gt\n        /* \"#utility.yul\":18766:18767   */\n      0x01\n        /* \"#utility.yul\":18761:19379   */\n      dup2\n      eq\n      tag_355\n      jumpi\n        /* \"#utility.yul\":19423:19424   */\n      0x00\n        /* \"#utility.yul\":19440:19446   */\n      dup5\n        /* \"#utility.yul\":19437:19514   */\n      iszero\n      tag_356\n      jumpi\n        /* \"#utility.yul\":19489:19498   */\n      dup3\n        /* \"#utility.yul\":19484:19487   */\n      dup8\n        /* \"#utility.yul\":19480:19499   */\n      add\n        /* \"#utility.yul\":19474:19500   */\n      mload\n        /* \"#utility.yul\":19465:19500   */\n      swap1\n      pop\n        /* \"#utility.yul\":19437:19514   */\n    tag_356:\n        /* \"#utility.yul\":19540:19607   */\n      tag_357\n        /* \"#utility.yul\":19600:19606   */\n      dup6\n        /* \"#utility.yul\":19593:19598   */\n      dup3\n        /* \"#utility.yul\":19540:19607   */\n      tag_162\n      jump\t// in\n    tag_357:\n        /* \"#utility.yul\":19534:19538   */\n      dup7\n        /* \"#utility.yul\":19527:19608   */\n      sstore\n        /* \"#utility.yul\":19396:19618   */\n      pop\n        /* \"#utility.yul\":18731:19618   */\n      jump(tag_354)\n        /* \"#utility.yul\":18761:19379   */\n    tag_355:\n        /* \"#utility.yul\":18813:18817   */\n      0x1f\n        /* \"#utility.yul\":18809:18818   */\n      not\n        /* \"#utility.yul\":18801:18807   */\n      dup5\n        /* \"#utility.yul\":18797:18819   */\n      and\n        /* \"#utility.yul\":18847:18884   */\n      tag_358\n        /* \"#utility.yul\":18879:18883   */\n      dup7\n        /* \"#utility.yul\":18847:18884   */\n      tag_148\n      jump\t// in\n    tag_358:\n        /* \"#utility.yul\":18906:18907   */\n      0x00\n        /* \"#utility.yul\":18920:19128   */\n    tag_359:\n        /* \"#utility.yul\":18934:18941   */\n      dup3\n        /* \"#utility.yul\":18931:18932   */\n      dup2\n        /* \"#utility.yul\":18928:18942   */\n      lt\n        /* \"#utility.yul\":18920:19128   */\n      iszero\n      tag_361\n      jumpi\n        /* \"#utility.yul\":19013:19022   */\n      dup5\n        /* \"#utility.yul\":19008:19011   */\n      dup10\n        /* \"#utility.yul\":19004:19023   */\n      add\n        /* \"#utility.yul\":18998:19024   */\n      mload\n        /* \"#utility.yul\":18990:18996   */\n      dup3\n        /* \"#utility.yul\":18983:19025   */\n      sstore\n        /* \"#utility.yul\":19064:19065   */\n      0x01\n        /* \"#utility.yul\":19056:19062   */\n      dup3\n        /* \"#utility.yul\":19052:19066   */\n      add\n        /* \"#utility.yul\":19042:19066   */\n      swap2\n      pop\n        /* \"#utility.yul\":19111:19113   */\n      0x20\n        /* \"#utility.yul\":19100:19109   */\n      dup6\n        /* \"#utility.yul\":19096:19114   */\n      add\n        /* \"#utility.yul\":19083:19114   */\n      swap5\n      pop\n        /* \"#utility.yul\":18957:18961   */\n      0x20\n        /* \"#utility.yul\":18954:18955   */\n      dup2\n        /* \"#utility.yul\":18950:18962   */\n      add\n        /* \"#utility.yul\":18945:18962   */\n      swap1\n      pop\n        /* \"#utility.yul\":18920:19128   */\n      jump(tag_359)\n    tag_361:\n        /* \"#utility.yul\":19156:19162   */\n      dup7\n        /* \"#utility.yul\":19147:19154   */\n      dup4\n        /* \"#utility.yul\":19144:19163   */\n      lt\n        /* \"#utility.yul\":19141:19320   */\n      iszero\n      tag_362\n      jumpi\n        /* \"#utility.yul\":19214:19223   */\n      dup5\n        /* \"#utility.yul\":19209:19212   */\n      dup10\n        /* \"#utility.yul\":19205:19224   */\n      add\n        /* \"#utility.yul\":19199:19225   */\n      mload\n        /* \"#utility.yul\":19257:19305   */\n      tag_363\n        /* \"#utility.yul\":19299:19303   */\n      0x1f\n        /* \"#utility.yul\":19291:19297   */\n      dup10\n        /* \"#utility.yul\":19287:19304   */\n      and\n        /* \"#utility.yul\":19276:19285   */\n      dup3\n        /* \"#utility.yul\":19257:19305   */\n      tag_161\n      jump\t// in\n    tag_363:\n        /* \"#utility.yul\":19249:19255   */\n      dup4\n        /* \"#utility.yul\":19242:19306   */\n      sstore\n        /* \"#utility.yul\":19164:19320   */\n      pop\n        /* \"#utility.yul\":19141:19320   */\n    tag_362:\n        /* \"#utility.yul\":19366:19367   */\n      0x01\n        /* \"#utility.yul\":19362:19363   */\n      0x02\n        /* \"#utility.yul\":19354:19360   */\n      dup9\n        /* \"#utility.yul\":19350:19364   */\n      mul\n        /* \"#utility.yul\":19346:19368   */\n      add\n        /* \"#utility.yul\":19340:19344   */\n      dup9\n        /* \"#utility.yul\":19333:19369   */\n      sstore\n        /* \"#utility.yul\":18768:19379   */\n      pop\n      pop\n      pop\n        /* \"#utility.yul\":18731:19618   */\n    tag_354:\n      pop\n        /* \"#utility.yul\":18321:19624   */\n      pop\n      pop\n      pop\n        /* \"#utility.yul\":18229:19624   */\n      pop\n      pop\n      jump\t// out\n        /* \"#utility.yul\":19630:19855   */\n    tag_163:\n        /* \"#utility.yul\":19770:19804   */\n      0x4f776e61626c653a206e6577206f776e657220697320746865207a65726f2061\n        /* \"#utility.yul\":19766:19767   */\n      0x00\n        /* \"#utility.yul\":19758:19764   */\n      dup3\n        /* \"#utility.yul\":19754:19768   */\n      add\n        /* \"#utility.yul\":19747:19805   */\n      mstore\n        /* \"#utility.yul\":19839:19847   */\n      0x6464726573730000000000000000000000000000000000000000000000000000\n        /* \"#utility.yul\":19834:19836   */\n      0x20\n        /* \"#utility.yul\":19826:19832   */\n      dup3\n        /* \"#utility.yul\":19822:19837   */\n      add\n        /* \"#utility.yul\":19815:19848   */\n      mstore\n        /* \"#utility.yul\":19630:19855   */\n      pop\n      jump\t// out\n        /* \"#utility.yul\":19861:20227   */\n    tag_164:\n        /* \"#utility.yul\":20003:20006   */\n      0x00\n        /* \"#utility.yul\":20024:20091   */\n      tag_366\n        /* \"#utility.yul\":20088:20090   */\n      0x26\n        /* \"#utility.yul\":20083:20086   */\n      dup4\n        /* \"#utility.yul\":20024:20091   */\n      tag_142\n      jump\t// in\n    tag_366:\n        /* \"#utility.yul\":20017:20091   */\n      swap2\n      pop\n        /* \"#utility.yul\":20100:20193   */\n      tag_367\n        /* \"#utility.yul\":20189:20192   */\n      dup3\n        /* \"#utility.yul\":20100:20193   */\n      tag_163\n      jump\t// in\n    tag_367:\n        /* \"#utility.yul\":20218:20220   */\n      0x40\n        /* \"#utility.yul\":20213:20216   */\n      dup3\n        /* \"#utility.yul\":20209:20221   */\n      add\n        /* \"#utility.yul\":20202:20221   */\n      swap1\n      pop\n        /* \"#utility.yul\":19861:20227   */\n      swap2\n      swap1\n      pop\n      jump\t// out\n        /* \"#utility.yul\":20233:20652   */\n    tag_91:\n        /* \"#utility.yul\":20399:20403   */\n      0x00\n        /* \"#utility.yul\":20437:20439   */\n      0x20\n        /* \"#utility.yul\":20426:20435   */\n      dup3\n        /* \"#utility.yul\":20422:20440   */\n      add\n        /* \"#utility.yul\":20414:20440   */\n      swap1\n      pop\n        /* \"#utility.yul\":20486:20495   */\n      dup2\n        /* \"#utility.yul\":20480:20484   */\n      dup2\n        /* \"#utility.yul\":20476:20496   */\n      sub\n        /* \"#utility.yul\":20472:20473   */\n      0x00\n        /* \"#utility.yul\":20461:20470   */\n      dup4\n        /* \"#utility.yul\":20457:20474   */\n      add\n        /* \"#utility.yul\":20450:20497   */\n      mstore\n        /* \"#utility.yul\":20514:20645   */\n      tag_369\n        /* \"#utility.yul\":20640:20644   */\n      dup2\n        /* \"#utility.yul\":20514:20645   */\n      tag_164\n      jump\t// in\n    tag_369:\n        /* \"#utility.yul\":20506:20645   */\n      swap1\n      pop\n        /* \"#utility.yul\":20233:20652   */\n      swap2\n      swap1\n      pop\n      jump\t// out\n        /* \"#utility.yul\":20658:20840   */\n    tag_165:\n        /* \"#utility.yul\":20798:20832   */\n      0x4f776e61626c653a2063616c6c6572206973206e6f7420746865206f776e6572\n        /* \"#utility.yul\":20794:20795   */\n      0x00\n        /* \"#utility.yul\":20786:20792   */\n      dup3\n        /* \"#utility.yul\":20782:20796   */\n      add\n        /* \"#utility.yul\":20775:20833   */\n      mstore\n        /* \"#utility.yul\":20658:20840   */\n      pop\n      jump\t// out\n        /* \"#utility.yul\":20846:21212   */\n    tag_166:\n        /* \"#utility.yul\":20988:20991   */\n      0x00\n        /* \"#utility.yul\":21009:21076   */\n      tag_372\n        /* \"#utility.yul\":21073:21075   */\n      0x20\n        /* \"#utility.yul\":21068:21071   */\n      dup4\n        /* \"#utility.yul\":21009:21076   */\n      tag_142\n      jump\t// in\n    tag_372:\n        /* \"#utility.yul\":21002:21076   */\n      swap2\n      pop\n        /* \"#utility.yul\":21085:21178   */\n      tag_373\n        /* \"#utility.yul\":21174:21177   */\n      dup3\n        /* \"#utility.yul\":21085:21178   */\n      tag_165\n      jump\t// in\n    tag_373:\n        /* \"#utility.yul\":21203:21205   */\n      0x20\n        /* \"#utility.yul\":21198:21201   */\n      dup3\n        /* \"#utility.yul\":21194:21206   */\n      add\n        /* \"#utility.yul\":21187:21206   */\n      swap1\n      pop\n        /* \"#utility.yul\":20846:21212   */\n      swap2\n      swap1\n      pop\n      jump\t// out\n        /* \"#utility.yul\":21218:21637   */\n    tag_99:\n        /* \"#utility.yul\":21384:21388   */\n      0x00\n        /* \"#utility.yul\":21422:21424   */\n      0x20\n        /* \"#utility.yul\":21411:21420   */\n      dup3\n        /* \"#utility.yul\":21407:21425   */\n      add\n        /* \"#utility.yul\":21399:21425   */\n      swap1\n      pop\n        /* \"#utility.yul\":21471:21480   */\n      dup2\n        /* \"#utility.yul\":21465:21469   */\n      dup2\n        /* \"#utility.yul\":21461:21481   */\n      sub\n        /* \"#utility.yul\":21457:21458   */\n      0x00\n        /* \"#utility.yul\":21446:21455   */\n      dup4\n        /* \"#utility.yul\":21442:21459   */\n      add\n        /* \"#utility.yul\":21435:21482   */\n      mstore\n        /* \"#utility.yul\":21499:21630   */\n      tag_375\n        /* \"#utility.yul\":21625:21629   */\n      dup2\n        /* \"#utility.yul\":21499:21630   */\n      tag_166\n      jump\t// in\n    tag_375:\n        /* \"#utility.yul\":21491:21630   */\n      swap1\n      pop\n        /* \"#utility.yul\":21218:21637   */\n      swap2\n      swap1\n      pop\n      jump\t// out\n\n    auxdata: 0xa2646970667358221220424132aefe3bdc0fab2492afbe361a5f237a38637ead0050de5fb29db348d78f64736f6c63430008110033\n}\n",
				"bytecode": {
					"linkReferences": {},
					"object": "608060405234801561001057600080fd5b50336000806101000a81548173ffffffffffffffffffffffffffffffffffffffff021916908373ffffffffffffffffffffffffffffffffffffffff16021790555061147c806100606000396000f3fe608060405234801561001057600080fd5b506004361061007d5760003560e01c80638da5cb5b1161005b5780638da5cb5b146100c6578063ee416d5b146100e4578063eea1e48114610100578063f2fde38b1461011c5761007d565b80631f9c0c6f146100825780634d0a5dbd146100a057806383197ef0146100bc575b600080fd5b61008a610138565b6040516100979190610b68565b60405180910390f35b6100ba60048036038101906100b59190610bca565b6103d3565b005b6100c46104c3565b005b6100ce6104e4565b6040516100db9190610c06565b60405180910390f35b6100fe60048036038101906100f99190610c4d565b61050d565b005b61011a60048036038101906101159190610ebd565b6105e0565b005b61013660048036038101906101319190610bca565b61074b565b005b6060600260006101466107ce565b73ffffffffffffffffffffffffffffffffffffffff1673ffffffffffffffffffffffffffffffffffffffff16815260200190815260200160002060009054906101000a900460ff166101cd576040517f08c379a00000000000000000000000000000000000000000000000000000000081526004016101c490610f89565b60405180910390fd5b6001805480602002602001604051908101604052809291908181526020016000905b828210156103ca57838290600052602060002090600602016040518060c00160405290816000820154815260200160018201805461022c90610fd8565b80601f016020809104026020016040519081016040528092919081815260200182805461025890610fd8565b80156102a55780601f1061027a576101008083540402835291602001916102a5565b820191906000526020600020905b81548152906001019060200180831161028857829003601f168201915b505050505081526020016002820160009054906101000a900473ffffffffffffffffffffffffffffffffffffffff1673ffffffffffffffffffffffffffffffffffffffff1673ffffffffffffffffffffffffffffffffffffffff1681526020016003820154815260200160048201805461031e90610fd8565b80601f016020809104026020016040519081016040528092919081815260200182805461034a90610fd8565b80156103975780601f1061036c57610100808354040283529160200191610397565b820191906000526020600020905b81548152906001019060200180831161037a57829003601f168201915b505050505081526020016005820160009054906101000a900460ff161515151581525050815260200190600101906101ef565b50505050905090565b6103db6107d6565b600260008273ffffffffffffffffffffffffffffffffffffffff1673ffffffffffffffffffffffffffffffffffffffff16815260200190815260200160002060009054906101000a900460ff1615610468576040517f08c379a000000000000000000000000000000000000000000000000000000000815260040161045f9061107b565b60405180910390fd5b6001600260008373ffffffffffffffffffffffffffffffffffffffff1673ffffffffffffffffffffffffffffffffffffffff16815260200190815260200160002060006101000a81548160ff02191690831515021790555050565b6104cb6107d6565b3073ffffffffffffffffffffffffffffffffffffffff16ff5b60008060009054906101000a900473ffffffffffffffffffffffffffffffffffffffff16905090565b600260006105196107ce565b73ffffffffffffffffffffffffffffffffffffffff1673ffffffffffffffffffffffffffffffffffffffff16815260200190815260200160002060009054906101000a900460ff166105a0576040517f08c379a000000000000000000000000000000000000000000000000000000000815260040161059790610f89565b60405180910390fd5b60018082815481106105b5576105b461109b565b5b906000526020600020906006020160050160006101000a81548160ff02191690831515021790555050565b600260006105ec6107ce565b73ffffffffffffffffffffffffffffffffffffffff1673ffffffffffffffffffffffffffffffffffffffff16815260200190815260200160002060009054906101000a900460ff16610673576040517f08c379a000000000000000000000000000000000000000000000000000000000815260040161066a90610f89565b60405180910390fd5b60018190806001815401808255809150506001900390600052602060002090600602016000909190919091506000820151816000015560208201518160010190816106be9190611276565b5060408201518160020160006101000a81548173ffffffffffffffffffffffffffffffffffffffff021916908373ffffffffffffffffffffffffffffffffffffffff1602179055506060820151816003015560808201518160040190816107259190611276565b5060a08201518160050160006101000a81548160ff021916908315150217905550505050565b6107536107d6565b600073ffffffffffffffffffffffffffffffffffffffff168173ffffffffffffffffffffffffffffffffffffffff16036107c2576040517f08c379a00000000000000000000000000000000000000000000000000000000081526004016107b9906113ba565b60405180910390fd5b6107cb8161084d565b50565b600033905090565b3373ffffffffffffffffffffffffffffffffffffffff166107f56104e4565b73ffffffffffffffffffffffffffffffffffffffff161461084b576040517f08c379a000000000000000000000000000000000000000000000000000000000815260040161084290611426565b60405180910390fd5b565b60008060009054906101000a900473ffffffffffffffffffffffffffffffffffffffff169050816000806101000a81548173ffffffffffffffffffffffffffffffffffffffff021916908373ffffffffffffffffffffffffffffffffffffffff1602179055508173ffffffffffffffffffffffffffffffffffffffff168173ffffffffffffffffffffffffffffffffffffffff167f8be0079c531659141344cd1fd0a4f28419497f9722a3daafe3b4186f6b6457e060405160405180910390a35050565b600081519050919050565b600082825260208201905092915050565b6000819050602082019050919050565b6000819050919050565b6109508161093d565b82525050565b600081519050919050565b600082825260208201905092915050565b60005b83811015610990578082015181840152602081019050610975565b60008484015250505050565b6000601f19601f8301169050919050565b60006109b882610956565b6109c28185610961565b93506109d2818560208601610972565b6109db8161099c565b840191505092915050565b600073ffffffffffffffffffffffffffffffffffffffff82169050919050565b6000610a11826109e6565b9050919050565b610a2181610a06565b82525050565b60008115159050919050565b610a3c81610a27565b82525050565b600060c083016000830151610a5a6000860182610947565b5060208301518482036020860152610a7282826109ad565b9150506040830151610a876040860182610a18565b506060830151610a9a6060860182610947565b5060808301518482036080860152610ab282826109ad565b91505060a0830151610ac760a0860182610a33565b508091505092915050565b6000610ade8383610a42565b905092915050565b6000602082019050919050565b6000610afe82610911565b610b08818561091c565b935083602082028501610b1a8561092d565b8060005b85811015610b565784840389528151610b378582610ad2565b9450610b4283610ae6565b925060208a01995050600181019050610b1e565b50829750879550505050505092915050565b60006020820190508181036000830152610b828184610af3565b905092915050565b6000604051905090565b600080fd5b600080fd5b610ba781610a06565b8114610bb257600080fd5b50565b600081359050610bc481610b9e565b92915050565b600060208284031215610be057610bdf610b94565b5b6000610bee84828501610bb5565b91505092915050565b610c0081610a06565b82525050565b6000602082019050610c1b6000830184610bf7565b92915050565b610c2a8161093d565b8114610c3557600080fd5b50565b600081359050610c4781610c21565b92915050565b600060208284031215610c6357610c62610b94565b5b6000610c7184828501610c38565b91505092915050565b600080fd5b7f4e487b7100000000000000000000000000000000000000000000000000000000600052604160045260246000fd5b610cb78261099c565b810181811067ffffffffffffffff82111715610cd657610cd5610c7f565b5b80604052505050565b6000610ce9610b8a565b9050610cf58282610cae565b919050565b600080fd5b600080fd5b600080fd5b600067ffffffffffffffff821115610d2457610d23610c7f565b5b610d2d8261099c565b9050602081019050919050565b82818337600083830152505050565b6000610d5c610d5784610d09565b610cdf565b905082815260208101848484011115610d7857610d77610d04565b5b610d83848285610d3a565b509392505050565b600082601f830112610da057610d9f610cff565b5b8135610db0848260208601610d49565b91505092915050565b610dc281610a27565b8114610dcd57600080fd5b50565b600081359050610ddf81610db9565b92915050565b600060c08284031215610dfb57610dfa610c7a565b5b610e0560c0610cdf565b90506000610e1584828501610c38565b600083015250602082013567ffffffffffffffff811115610e3957610e38610cfa565b5b610e4584828501610d8b565b6020830152506040610e5984828501610bb5565b6040830152506060610e6d84828501610c38565b606083015250608082013567ffffffffffffffff811115610e9157610e90610cfa565b5b610e9d84828501610d8b565b60808301525060a0610eb184828501610dd0565b60a08301525092915050565b600060208284031215610ed357610ed2610b94565b5b600082013567ffffffffffffffff811115610ef157610ef0610b99565b5b610efd84828501610de5565b91505092915050565b600082825260208201905092915050565b7f526f75676844617461626173653a206f6e6c7920636f6e74726163742077686960008201527f63682061726520616c6c6f776564000000000000000000000000000000000000602082015250565b6000610f73602e83610f06565b9150610f7e82610f17565b604082019050919050565b60006020820190508181036000830152610fa281610f66565b9050919050565b7f4e487b7100000000000000000000000000000000000000000000000000000000600052602260045260246000fd5b60006002820490506001821680610ff057607f821691505b60208210810361100357611002610fa9565b5b50919050565b7f526f75676844617461626173653a207065726d697373696f6e2068617320626560008201527f656e206772616e74656400000000000000000000000000000000000000000000602082015250565b6000611065602a83610f06565b915061107082611009565b604082019050919050565b6000602082019050818103600083015261109481611058565b9050919050565b7f4e487b7100000000000000000000000000000000000000000000000000000000600052603260045260246000fd5b60008190508160005260206000209050919050565b60006020601f8301049050919050565b600082821b905092915050565b60006008830261112c7fffffffffffffffffffffffffffffffffffffffffffffffffffffffffffffffff826110ef565b61113686836110ef565b95508019841693508086168417925050509392505050565b6000819050919050565b600061117361116e6111698461093d565b61114e565b61093d565b9050919050565b6000819050919050565b61118d83611158565b6111a16111998261117a565b8484546110fc565b825550505050565b600090565b6111b66111a9565b6111c1818484611184565b505050565b5b818110156111e5576111da6000826111ae565b6001810190506111c7565b5050565b601f82111561122a576111fb816110ca565b611204846110df565b81016020851015611213578190505b61122761121f856110df565b8301826111c6565b50505b505050565b600082821c905092915050565b600061124d6000198460080261122f565b1980831691505092915050565b6000611266838361123c565b9150826002028217905092915050565b61127f82610956565b67ffffffffffffffff81111561129857611297610c7f565b5b6112a28254610fd8565b6112ad8282856111e9565b600060209050601f8311600181146112e057600084156112ce578287015190505b6112d8858261125a565b865550611340565b601f1984166112ee866110ca565b60005b82811015611316578489015182556001820191506020850194506020810190506112f1565b86831015611333578489015161132f601f89168261123c565b8355505b6001600288020188555050505b505050505050565b7f4f776e61626c653a206e6577206f776e657220697320746865207a65726f206160008201527f6464726573730000000000000000000000000000000000000000000000000000602082015250565b60006113a4602683610f06565b91506113af82611348565b604082019050919050565b600060208201905081810360008301526113d381611397565b9050919050565b7f4f776e61626c653a2063616c6c6572206973206e6f7420746865206f776e6572600082015250565b6000611410602083610f06565b915061141b826113da565b602082019050919050565b6000602082019050818103600083015261143f81611403565b905091905056fea2646970667358221220424132aefe3bdc0fab2492afbe361a5f237a38637ead0050de5fb29db348d78f64736f6c63430008110033",
					"opcodes": "PUSH1 0x80 PUSH1 0x40 MSTORE CALLVALUE DUP1 ISZERO PUSH2 0x10 JUMPI PUSH1 0x0 DUP1 REVERT JUMPDEST POP CALLER PUSH1 0x0 DUP1 PUSH2 0x100 EXP DUP2 SLOAD DUP2 PUSH20 0xFFFFFFFFFFFFFFFFFFFFFFFFFFFFFFFFFFFFFFFF MUL NOT AND SWAP1 DUP4 PUSH20 0xFFFFFFFFFFFFFFFFFFFFFFFFFFFFFFFFFFFFFFFF AND MUL OR SWAP1 SSTORE POP PUSH2 0x147C DUP1 PUSH2 0x60 PUSH1 0x0 CODECOPY PUSH1 0x0 RETURN INVALID PUSH1 0x80 PUSH1 0x40 MSTORE CALLVALUE DUP1 ISZERO PUSH2 0x10 JUMPI PUSH1 0x0 DUP1 REVERT JUMPDEST POP PUSH1 0x4 CALLDATASIZE LT PUSH2 0x7D JUMPI PUSH1 0x0 CALLDATALOAD PUSH1 0xE0 SHR DUP1 PUSH4 0x8DA5CB5B GT PUSH2 0x5B JUMPI DUP1 PUSH4 0x8DA5CB5B EQ PUSH2 0xC6 JUMPI DUP1 PUSH4 0xEE416D5B EQ PUSH2 0xE4 JUMPI DUP1 PUSH4 0xEEA1E481 EQ PUSH2 0x100 JUMPI DUP1 PUSH4 0xF2FDE38B EQ PUSH2 0x11C JUMPI PUSH2 0x7D JUMP JUMPDEST DUP1 PUSH4 0x1F9C0C6F EQ PUSH2 0x82 JUMPI DUP1 PUSH4 0x4D0A5DBD EQ PUSH2 0xA0 JUMPI DUP1 PUSH4 0x83197EF0 EQ PUSH2 0xBC JUMPI JUMPDEST PUSH1 0x0 DUP1 REVERT JUMPDEST PUSH2 0x8A PUSH2 0x138 JUMP JUMPDEST PUSH1 0x40 MLOAD PUSH2 0x97 SWAP2 SWAP1 PUSH2 0xB68 JUMP JUMPDEST PUSH1 0x40 MLOAD DUP1 SWAP2 SUB SWAP1 RETURN JUMPDEST PUSH2 0xBA PUSH1 0x4 DUP1 CALLDATASIZE SUB DUP2 ADD SWAP1 PUSH2 0xB5 SWAP2 SWAP1 PUSH2 0xBCA JUMP JUMPDEST PUSH2 0x3D3 JUMP JUMPDEST STOP JUMPDEST PUSH2 0xC4 PUSH2 0x4C3 JUMP JUMPDEST STOP JUMPDEST PUSH2 0xCE PUSH2 0x4E4 JUMP JUMPDEST PUSH1 0x40 MLOAD PUSH2 0xDB SWAP2 SWAP1 PUSH2 0xC06 JUMP JUMPDEST PUSH1 0x40 MLOAD DUP1 SWAP2 SUB SWAP1 RETURN JUMPDEST PUSH2 0xFE PUSH1 0x4 DUP1 CALLDATASIZE SUB DUP2 ADD SWAP1 PUSH2 0xF9 SWAP2 SWAP1 PUSH2 0xC4D JUMP JUMPDEST PUSH2 0x50D JUMP JUMPDEST STOP JUMPDEST PUSH2 0x11A PUSH1 0x4 DUP1 CALLDATASIZE SUB DUP2 ADD SWAP1 PUSH2 0x115 SWAP2 SWAP1 PUSH2 0xEBD JUMP JUMPDEST PUSH2 0x5E0 JUMP JUMPDEST STOP JUMPDEST PUSH2 0x136 PUSH1 0x4 DUP1 CALLDATASIZE SUB DUP2 ADD SWAP1 PUSH2 0x131 SWAP2 SWAP1 PUSH2 0xBCA JUMP JUMPDEST PUSH2 0x74B JUMP JUMPDEST STOP JUMPDEST PUSH1 0x60 PUSH1 0x2 PUSH1 0x0 PUSH2 0x146 PUSH2 0x7CE JUMP JUMPDEST PUSH20 0xFFFFFFFFFFFFFFFFFFFFFFFFFFFFFFFFFFFFFFFF AND PUSH20 0xFFFFFFFFFFFFFFFFFFFFFFFFFFFFFFFFFFFFFFFF AND DUP2 MSTORE PUSH1 0x20 ADD SWAP1 DUP2 MSTORE PUSH1 0x20 ADD PUSH1 0x0 KECCAK256 PUSH1 0x0 SWAP1 SLOAD SWAP1 PUSH2 0x100 EXP SWAP1 DIV PUSH1 0xFF AND PUSH2 0x1CD JUMPI PUSH1 0x40 MLOAD PUSH32 0x8C379A000000000000000000000000000000000000000000000000000000000 DUP2 MSTORE PUSH1 0x4 ADD PUSH2 0x1C4 SWAP1 PUSH2 0xF89 JUMP JUMPDEST PUSH1 0x40 MLOAD DUP1 SWAP2 SUB SWAP1 REVERT JUMPDEST PUSH1 0x1 DUP1 SLOAD DUP1 PUSH1 0x20 MUL PUSH1 0x20 ADD PUSH1 0x40 MLOAD SWAP1 DUP2 ADD PUSH1 0x40 MSTORE DUP1 SWAP3 SWAP2 SWAP1 DUP2 DUP2 MSTORE PUSH1 0x20 ADD PUSH1 0x0 SWAP1 JUMPDEST DUP3 DUP3 LT ISZERO PUSH2 0x3CA JUMPI DUP4 DUP3 SWAP1 PUSH1 0x0 MSTORE PUSH1 0x20 PUSH1 0x0 KECCAK256 SWAP1 PUSH1 0x6 MUL ADD PUSH1 0x40 MLOAD DUP1 PUSH1 0xC0 ADD PUSH1 0x40 MSTORE SWAP1 DUP2 PUSH1 0x0 DUP3 ADD SLOAD DUP2 MSTORE PUSH1 0x20 ADD PUSH1 0x1 DUP3 ADD DUP1 SLOAD PUSH2 0x22C SWAP1 PUSH2 0xFD8 JUMP JUMPDEST DUP1 PUSH1 0x1F ADD PUSH1 0x20 DUP1 SWAP2 DIV MUL PUSH1 0x20 ADD PUSH1 0x40 MLOAD SWAP1 DUP2 ADD PUSH1 0x40 MSTORE DUP1 SWAP3 SWAP2 SWAP1 DUP2 DUP2 MSTORE PUSH1 0x20 ADD DUP3 DUP1 SLOAD PUSH2 0x258 SWAP1 PUSH2 0xFD8 JUMP JUMPDEST DUP1 ISZERO PUSH2 0x2A5 JUMPI DUP1 PUSH1 0x1F LT PUSH2 0x27A JUMPI PUSH2 0x100 DUP1 DUP4 SLOAD DIV MUL DUP4 MSTORE SWAP2 PUSH1 0x20 ADD SWAP2 PUSH2 0x2A5 JUMP JUMPDEST DUP3 ADD SWAP2 SWAP1 PUSH1 0x0 MSTORE PUSH1 0x20 PUSH1 0x0 KECCAK256 SWAP1 JUMPDEST DUP2 SLOAD DUP2 MSTORE SWAP1 PUSH1 0x1 ADD SWAP1 PUSH1 0x20 ADD DUP1 DUP4 GT PUSH2 0x288 JUMPI DUP3 SWAP1 SUB PUSH1 0x1F AND DUP3 ADD SWAP2 JUMPDEST POP POP POP POP POP DUP2 MSTORE PUSH1 0x20 ADD PUSH1 0x2 DUP3 ADD PUSH1 0x0 SWAP1 SLOAD SWAP1 PUSH2 0x100 EXP SWAP1 DIV PUSH20 0xFFFFFFFFFFFFFFFFFFFFFFFFFFFFFFFFFFFFFFFF AND PUSH20 0xFFFFFFFFFFFFFFFFFFFFFFFFFFFFFFFFFFFFFFFF AND PUSH20 0xFFFFFFFFFFFFFFFFFFFFFFFFFFFFFFFFFFFFFFFF AND DUP2 MSTORE PUSH1 0x20 ADD PUSH1 0x3 DUP3 ADD SLOAD DUP2 MSTORE PUSH1 0x20 ADD PUSH1 0x4 DUP3 ADD DUP1 SLOAD PUSH2 0x31E SWAP1 PUSH2 0xFD8 JUMP JUMPDEST DUP1 PUSH1 0x1F ADD PUSH1 0x20 DUP1 SWAP2 DIV MUL PUSH1 0x20 ADD PUSH1 0x40 MLOAD SWAP1 DUP2 ADD PUSH1 0x40 MSTORE DUP1 SWAP3 SWAP2 SWAP1 DUP2 DUP2 MSTORE PUSH1 0x20 ADD DUP3 DUP1 SLOAD PUSH2 0x34A SWAP1 PUSH2 0xFD8 JUMP JUMPDEST DUP1 ISZERO PUSH2 0x397 JUMPI DUP1 PUSH1 0x1F LT PUSH2 0x36C JUMPI PUSH2 0x100 DUP1 DUP4 SLOAD DIV MUL DUP4 MSTORE SWAP2 PUSH1 0x20 ADD SWAP2 PUSH2 0x397 JUMP JUMPDEST DUP3 ADD SWAP2 SWAP1 PUSH1 0x0 MSTORE PUSH1 0x20 PUSH1 0x0 KECCAK256 SWAP1 JUMPDEST DUP2 SLOAD DUP2 MSTORE SWAP1 PUSH1 0x1 ADD SWAP1 PUSH1 0x20 ADD DUP1 DUP4 GT PUSH2 0x37A JUMPI DUP3 SWAP1 SUB PUSH1 0x1F AND DUP3 ADD SWAP2 JUMPDEST POP POP POP POP POP DUP2 MSTORE PUSH1 0x20 ADD PUSH1 0x5 DUP3 ADD PUSH1 0x0 SWAP1 SLOAD SWAP1 PUSH2 0x100 EXP SWAP1 DIV PUSH1 0xFF AND ISZERO ISZERO ISZERO ISZERO DUP2 MSTORE POP POP DUP2 MSTORE PUSH1 0x20 ADD SWAP1 PUSH1 0x1 ADD SWAP1 PUSH2 0x1EF JUMP JUMPDEST POP POP POP POP SWAP1 POP SWAP1 JUMP JUMPDEST PUSH2 0x3DB PUSH2 0x7D6 JUMP JUMPDEST PUSH1 0x2 PUSH1 0x0 DUP3 PUSH20 0xFFFFFFFFFFFFFFFFFFFFFFFFFFFFFFFFFFFFFFFF AND PUSH20 0xFFFFFFFFFFFFFFFFFFFFFFFFFFFFFFFFFFFFFFFF AND DUP2 MSTORE PUSH1 0x20 ADD SWAP1 DUP2 MSTORE PUSH1 0x20 ADD PUSH1 0x0 KECCAK256 PUSH1 0x0 SWAP1 SLOAD SWAP1 PUSH2 0x100 EXP SWAP1 DIV PUSH1 0xFF AND ISZERO PUSH2 0x468 JUMPI PUSH1 0x40 MLOAD PUSH32 0x8C379A000000000000000000000000000000000000000000000000000000000 DUP2 MSTORE PUSH1 0x4 ADD PUSH2 0x45F SWAP1 PUSH2 0x107B JUMP JUMPDEST PUSH1 0x40 MLOAD DUP1 SWAP2 SUB SWAP1 REVERT JUMPDEST PUSH1 0x1 PUSH1 0x2 PUSH1 0x0 DUP4 PUSH20 0xFFFFFFFFFFFFFFFFFFFFFFFFFFFFFFFFFFFFFFFF AND PUSH20 0xFFFFFFFFFFFFFFFFFFFFFFFFFFFFFFFFFFFFFFFF AND DUP2 MSTORE PUSH1 0x20 ADD SWAP1 DUP2 MSTORE PUSH1 0x20 ADD PUSH1 0x0 KECCAK256 PUSH1 0x0 PUSH2 0x100 EXP DUP2 SLOAD DUP2 PUSH1 0xFF MUL NOT AND SWAP1 DUP4 ISZERO ISZERO MUL OR SWAP1 SSTORE POP POP JUMP JUMPDEST PUSH2 0x4CB PUSH2 0x7D6 JUMP JUMPDEST ADDRESS PUSH20 0xFFFFFFFFFFFFFFFFFFFFFFFFFFFFFFFFFFFFFFFF AND SELFDESTRUCT JUMPDEST PUSH1 0x0 DUP1 PUSH1 0x0 SWAP1 SLOAD SWAP1 PUSH2 0x100 EXP SWAP1 DIV PUSH20 0xFFFFFFFFFFFFFFFFFFFFFFFFFFFFFFFFFFFFFFFF AND SWAP1 POP SWAP1 JUMP JUMPDEST PUSH1 0x2 PUSH1 0x0 PUSH2 0x519 PUSH2 0x7CE JUMP JUMPDEST PUSH20 0xFFFFFFFFFFFFFFFFFFFFFFFFFFFFFFFFFFFFFFFF AND PUSH20 0xFFFFFFFFFFFFFFFFFFFFFFFFFFFFFFFFFFFFFFFF AND DUP2 MSTORE PUSH1 0x20 ADD SWAP1 DUP2 MSTORE PUSH1 0x20 ADD PUSH1 0x0 KECCAK256 PUSH1 0x0 SWAP1 SLOAD SWAP1 PUSH2 0x100 EXP SWAP1 DIV PUSH1 0xFF AND PUSH2 0x5A0 JUMPI PUSH1 0x40 MLOAD PUSH32 0x8C379A000000000000000000000000000000000000000000000000000000000 DUP2 MSTORE PUSH1 0x4 ADD PUSH2 0x597 SWAP1 PUSH2 0xF89 JUMP JUMPDEST PUSH1 0x40 MLOAD DUP1 SWAP2 SUB SWAP1 REVERT JUMPDEST PUSH1 0x1 DUP1 DUP3 DUP2 SLOAD DUP2 LT PUSH2 0x5B5 JUMPI PUSH2 0x5B4 PUSH2 0x109B JUMP JUMPDEST JUMPDEST SWAP1 PUSH1 0x0 MSTORE PUSH1 0x20 PUSH1 0x0 KECCAK256 SWAP1 PUSH1 0x6 MUL ADD PUSH1 0x5 ADD PUSH1 0x0 PUSH2 0x100 EXP DUP2 SLOAD DUP2 PUSH1 0xFF MUL NOT AND SWAP1 DUP4 ISZERO ISZERO MUL OR SWAP1 SSTORE POP POP JUMP JUMPDEST PUSH1 0x2 PUSH1 0x0 PUSH2 0x5EC PUSH2 0x7CE JUMP JUMPDEST PUSH20 0xFFFFFFFFFFFFFFFFFFFFFFFFFFFFFFFFFFFFFFFF AND PUSH20 0xFFFFFFFFFFFFFFFFFFFFFFFFFFFFFFFFFFFFFFFF AND DUP2 MSTORE PUSH1 0x20 ADD SWAP1 DUP2 MSTORE PUSH1 0x20 ADD PUSH1 0x0 KECCAK256 PUSH1 0x0 SWAP1 SLOAD SWAP1 PUSH2 0x100 EXP SWAP1 DIV PUSH1 0xFF AND PUSH2 0x673 JUMPI PUSH1 0x40 MLOAD PUSH32 0x8C379A000000000000000000000000000000000000000000000000000000000 DUP2 MSTORE PUSH1 0x4 ADD PUSH2 0x66A SWAP1 PUSH2 0xF89 JUMP JUMPDEST PUSH1 0x40 MLOAD DUP1 SWAP2 SUB SWAP1 REVERT JUMPDEST PUSH1 0x1 DUP2 SWAP1 DUP1 PUSH1 0x1 DUP2 SLOAD ADD DUP1 DUP3 SSTORE DUP1 SWAP2 POP POP PUSH1 0x1 SWAP1 SUB SWAP1 PUSH1 0x0 MSTORE PUSH1 0x20 PUSH1 0x0 KECCAK256 SWAP1 PUSH1 0x6 MUL ADD PUSH1 0x0 SWAP1 SWAP2 SWAP1 SWAP2 SWAP1 SWAP2 POP PUSH1 0x0 DUP3 ADD MLOAD DUP2 PUSH1 0x0 ADD SSTORE PUSH1 0x20 DUP3 ADD MLOAD DUP2 PUSH1 0x1 ADD SWAP1 DUP2 PUSH2 0x6BE SWAP2 SWAP1 PUSH2 0x1276 JUMP JUMPDEST POP PUSH1 0x40 DUP3 ADD MLOAD DUP2 PUSH1 0x2 ADD PUSH1 0x0 PUSH2 0x100 EXP DUP2 SLOAD DUP2 PUSH20 0xFFFFFFFFFFFFFFFFFFFFFFFFFFFFFFFFFFFFFFFF MUL NOT AND SWAP1 DUP4 PUSH20 0xFFFFFFFFFFFFFFFFFFFFFFFFFFFFFFFFFFFFFFFF AND MUL OR SWAP1 SSTORE POP PUSH1 0x60 DUP3 ADD MLOAD DUP2 PUSH1 0x3 ADD SSTORE PUSH1 0x80 DUP3 ADD MLOAD DUP2 PUSH1 0x4 ADD SWAP1 DUP2 PUSH2 0x725 SWAP2 SWAP1 PUSH2 0x1276 JUMP JUMPDEST POP PUSH1 0xA0 DUP3 ADD MLOAD DUP2 PUSH1 0x5 ADD PUSH1 0x0 PUSH2 0x100 EXP DUP2 SLOAD DUP2 PUSH1 0xFF MUL NOT AND SWAP1 DUP4 ISZERO ISZERO MUL OR SWAP1 SSTORE POP POP POP POP JUMP JUMPDEST PUSH2 0x753 PUSH2 0x7D6 JUMP JUMPDEST PUSH1 0x0 PUSH20 0xFFFFFFFFFFFFFFFFFFFFFFFFFFFFFFFFFFFFFFFF AND DUP2 PUSH20 0xFFFFFFFFFFFFFFFFFFFFFFFFFFFFFFFFFFFFFFFF AND SUB PUSH2 0x7C2 JUMPI PUSH1 0x40 MLOAD PUSH32 0x8C379A000000000000000000000000000000000000000000000000000000000 DUP2 MSTORE PUSH1 0x4 ADD PUSH2 0x7B9 SWAP1 PUSH2 0x13BA JUMP JUMPDEST PUSH1 0x40 MLOAD DUP1 SWAP2 SUB SWAP1 REVERT JUMPDEST PUSH2 0x7CB DUP2 PUSH2 0x84D JUMP JUMPDEST POP JUMP JUMPDEST PUSH1 0x0 CALLER SWAP1 POP SWAP1 JUMP JUMPDEST CALLER PUSH20 0xFFFFFFFFFFFFFFFFFFFFFFFFFFFFFFFFFFFFFFFF AND PUSH2 0x7F5 PUSH2 0x4E4 JUMP JUMPDEST PUSH20 0xFFFFFFFFFFFFFFFFFFFFFFFFFFFFFFFFFFFFFFFF AND EQ PUSH2 0x84B JUMPI PUSH1 0x40 MLOAD PUSH32 0x8C379A000000000000000000000000000000000000000000000000000000000 DUP2 MSTORE PUSH1 0x4 ADD PUSH2 0x842 SWAP1 PUSH2 0x1426 JUMP JUMPDEST PUSH1 0x40 MLOAD DUP1 SWAP2 SUB SWAP1 REVERT JUMPDEST JUMP JUMPDEST PUSH1 0x0 DUP1 PUSH1 0x0 SWAP1 SLOAD SWAP1 PUSH2 0x100 EXP SWAP1 DIV PUSH20 0xFFFFFFFFFFFFFFFFFFFFFFFFFFFFFFFFFFFFFFFF AND SWAP1 POP DUP2 PUSH1 0x0 DUP1 PUSH2 0x100 EXP DUP2 SLOAD DUP2 PUSH20 0xFFFFFFFFFFFFFFFFFFFFFFFFFFFFFFFFFFFFFFFF MUL NOT AND SWAP1 DUP4 PUSH20 0xFFFFFFFFFFFFFFFFFFFFFFFFFFFFFFFFFFFFFFFF AND MUL OR SWAP1 SSTORE POP DUP2 PUSH20 0xFFFFFFFFFFFFFFFFFFFFFFFFFFFFFFFFFFFFFFFF AND DUP2 PUSH20 0xFFFFFFFFFFFFFFFFFFFFFFFFFFFFFFFFFFFFFFFF AND PUSH32 0x8BE0079C531659141344CD1FD0A4F28419497F9722A3DAAFE3B4186F6B6457E0 PUSH1 0x40 MLOAD PUSH1 0x40 MLOAD DUP1 SWAP2 SUB SWAP1 LOG3 POP POP JUMP JUMPDEST PUSH1 0x0 DUP2 MLOAD SWAP1 POP SWAP2 SWAP1 POP JUMP JUMPDEST PUSH1 0x0 DUP3 DUP3 MSTORE PUSH1 0x20 DUP3 ADD SWAP1 POP SWAP3 SWAP2 POP POP JUMP JUMPDEST PUSH1 0x0 DUP2 SWAP1 POP PUSH1 0x20 DUP3 ADD SWAP1 POP SWAP2 SWAP1 POP JUMP JUMPDEST PUSH1 0x0 DUP2 SWAP1 POP SWAP2 SWAP1 POP JUMP JUMPDEST PUSH2 0x950 DUP2 PUSH2 0x93D JUMP JUMPDEST DUP3 MSTORE POP POP JUMP JUMPDEST PUSH1 0x0 DUP2 MLOAD SWAP1 POP SWAP2 SWAP1 POP JUMP JUMPDEST PUSH1 0x0 DUP3 DUP3 MSTORE PUSH1 0x20 DUP3 ADD SWAP1 POP SWAP3 SWAP2 POP POP JUMP JUMPDEST PUSH1 0x0 JUMPDEST DUP4 DUP2 LT ISZERO PUSH2 0x990 JUMPI DUP1 DUP3 ADD MLOAD DUP2 DUP5 ADD MSTORE PUSH1 0x20 DUP2 ADD SWAP1 POP PUSH2 0x975 JUMP JUMPDEST PUSH1 0x0 DUP5 DUP5 ADD MSTORE POP POP POP POP JUMP JUMPDEST PUSH1 0x0 PUSH1 0x1F NOT PUSH1 0x1F DUP4 ADD AND SWAP1 POP SWAP2 SWAP1 POP JUMP JUMPDEST PUSH1 0x0 PUSH2 0x9B8 DUP3 PUSH2 0x956 JUMP JUMPDEST PUSH2 0x9C2 DUP2 DUP6 PUSH2 0x961 JUMP JUMPDEST SWAP4 POP PUSH2 0x9D2 DUP2 DUP6 PUSH1 0x20 DUP7 ADD PUSH2 0x972 JUMP JUMPDEST PUSH2 0x9DB DUP2 PUSH2 0x99C JUMP JUMPDEST DUP5 ADD SWAP2 POP POP SWAP3 SWAP2 POP POP JUMP JUMPDEST PUSH1 0x0 PUSH20 0xFFFFFFFFFFFFFFFFFFFFFFFFFFFFFFFFFFFFFFFF DUP3 AND SWAP1 POP SWAP2 SWAP1 POP JUMP JUMPDEST PUSH1 0x0 PUSH2 0xA11 DUP3 PUSH2 0x9E6 JUMP JUMPDEST SWAP1 POP SWAP2 SWAP1 POP JUMP JUMPDEST PUSH2 0xA21 DUP2 PUSH2 0xA06 JUMP JUMPDEST DUP3 MSTORE POP POP JUMP JUMPDEST PUSH1 0x0 DUP2 ISZERO ISZERO SWAP1 POP SWAP2 SWAP1 POP JUMP JUMPDEST PUSH2 0xA3C DUP2 PUSH2 0xA27 JUMP JUMPDEST DUP3 MSTORE POP POP JUMP JUMPDEST PUSH1 0x0 PUSH1 0xC0 DUP4 ADD PUSH1 0x0 DUP4 ADD MLOAD PUSH2 0xA5A PUSH1 0x0 DUP7 ADD DUP3 PUSH2 0x947 JUMP JUMPDEST POP PUSH1 0x20 DUP4 ADD MLOAD DUP5 DUP3 SUB PUSH1 0x20 DUP7 ADD MSTORE PUSH2 0xA72 DUP3 DUP3 PUSH2 0x9AD JUMP JUMPDEST SWAP2 POP POP PUSH1 0x40 DUP4 ADD MLOAD PUSH2 0xA87 PUSH1 0x40 DUP7 ADD DUP3 PUSH2 0xA18 JUMP JUMPDEST POP PUSH1 0x60 DUP4 ADD MLOAD PUSH2 0xA9A PUSH1 0x60 DUP7 ADD DUP3 PUSH2 0x947 JUMP JUMPDEST POP PUSH1 0x80 DUP4 ADD MLOAD DUP5 DUP3 SUB PUSH1 0x80 DUP7 ADD MSTORE PUSH2 0xAB2 DUP3 DUP3 PUSH2 0x9AD JUMP JUMPDEST SWAP2 POP POP PUSH1 0xA0 DUP4 ADD MLOAD PUSH2 0xAC7 PUSH1 0xA0 DUP7 ADD DUP3 PUSH2 0xA33 JUMP JUMPDEST POP DUP1 SWAP2 POP POP SWAP3 SWAP2 POP POP JUMP JUMPDEST PUSH1 0x0 PUSH2 0xADE DUP4 DUP4 PUSH2 0xA42 JUMP JUMPDEST SWAP1 POP SWAP3 SWAP2 POP POP JUMP JUMPDEST PUSH1 0x0 PUSH1 0x20 DUP3 ADD SWAP1 POP SWAP2 SWAP1 POP JUMP JUMPDEST PUSH1 0x0 PUSH2 0xAFE DUP3 PUSH2 0x911 JUMP JUMPDEST PUSH2 0xB08 DUP2 DUP6 PUSH2 0x91C JUMP JUMPDEST SWAP4 POP DUP4 PUSH1 0x20 DUP3 MUL DUP6 ADD PUSH2 0xB1A DUP6 PUSH2 0x92D JUMP JUMPDEST DUP1 PUSH1 0x0 JUMPDEST DUP6 DUP2 LT ISZERO PUSH2 0xB56 JUMPI DUP5 DUP5 SUB DUP10 MSTORE DUP2 MLOAD PUSH2 0xB37 DUP6 DUP3 PUSH2 0xAD2 JUMP JUMPDEST SWAP5 POP PUSH2 0xB42 DUP4 PUSH2 0xAE6 JUMP JUMPDEST SWAP3 POP PUSH1 0x20 DUP11 ADD SWAP10 POP POP PUSH1 0x1 DUP2 ADD SWAP1 POP PUSH2 0xB1E JUMP JUMPDEST POP DUP3 SWAP8 POP DUP8 SWAP6 POP POP POP POP POP POP SWAP3 SWAP2 POP POP JUMP JUMPDEST PUSH1 0x0 PUSH1 0x20 DUP3 ADD SWAP1 POP DUP2 DUP2 SUB PUSH1 0x0 DUP4 ADD MSTORE PUSH2 0xB82 DUP2 DUP5 PUSH2 0xAF3 JUMP JUMPDEST SWAP1 POP SWAP3 SWAP2 POP POP JUMP JUMPDEST PUSH1 0x0 PUSH1 0x40 MLOAD SWAP1 POP SWAP1 JUMP JUMPDEST PUSH1 0x0 DUP1 REVERT JUMPDEST PUSH1 0x0 DUP1 REVERT JUMPDEST PUSH2 0xBA7 DUP2 PUSH2 0xA06 JUMP JUMPDEST DUP2 EQ PUSH2 0xBB2 JUMPI PUSH1 0x0 DUP1 REVERT JUMPDEST POP JUMP JUMPDEST PUSH1 0x0 DUP2 CALLDATALOAD SWAP1 POP PUSH2 0xBC4 DUP2 PUSH2 0xB9E JUMP JUMPDEST SWAP3 SWAP2 POP POP JUMP JUMPDEST PUSH1 0x0 PUSH1 0x20 DUP3 DUP5 SUB SLT ISZERO PUSH2 0xBE0 JUMPI PUSH2 0xBDF PUSH2 0xB94 JUMP JUMPDEST JUMPDEST PUSH1 0x0 PUSH2 0xBEE DUP5 DUP3 DUP6 ADD PUSH2 0xBB5 JUMP JUMPDEST SWAP2 POP POP SWAP3 SWAP2 POP POP JUMP JUMPDEST PUSH2 0xC00 DUP2 PUSH2 0xA06 JUMP JUMPDEST DUP3 MSTORE POP POP JUMP JUMPDEST PUSH1 0x0 PUSH1 0x20 DUP3 ADD SWAP1 POP PUSH2 0xC1B PUSH1 0x0 DUP4 ADD DUP5 PUSH2 0xBF7 JUMP JUMPDEST SWAP3 SWAP2 POP POP JUMP JUMPDEST PUSH2 0xC2A DUP2 PUSH2 0x93D JUMP JUMPDEST DUP2 EQ PUSH2 0xC35 JUMPI PUSH1 0x0 DUP1 REVERT JUMPDEST POP JUMP JUMPDEST PUSH1 0x0 DUP2 CALLDATALOAD SWAP1 POP PUSH2 0xC47 DUP2 PUSH2 0xC21 JUMP JUMPDEST SWAP3 SWAP2 POP POP JUMP JUMPDEST PUSH1 0x0 PUSH1 0x20 DUP3 DUP5 SUB SLT ISZERO PUSH2 0xC63 JUMPI PUSH2 0xC62 PUSH2 0xB94 JUMP JUMPDEST JUMPDEST PUSH1 0x0 PUSH2 0xC71 DUP5 DUP3 DUP6 ADD PUSH2 0xC38 JUMP JUMPDEST SWAP2 POP POP SWAP3 SWAP2 POP POP JUMP JUMPDEST PUSH1 0x0 DUP1 REVERT JUMPDEST PUSH32 0x4E487B7100000000000000000000000000000000000000000000000000000000 PUSH1 0x0 MSTORE PUSH1 0x41 PUSH1 0x4 MSTORE PUSH1 0x24 PUSH1 0x0 REVERT JUMPDEST PUSH2 0xCB7 DUP3 PUSH2 0x99C JUMP JUMPDEST DUP2 ADD DUP2 DUP2 LT PUSH8 0xFFFFFFFFFFFFFFFF DUP3 GT OR ISZERO PUSH2 0xCD6 JUMPI PUSH2 0xCD5 PUSH2 0xC7F JUMP JUMPDEST JUMPDEST DUP1 PUSH1 0x40 MSTORE POP POP POP JUMP JUMPDEST PUSH1 0x0 PUSH2 0xCE9 PUSH2 0xB8A JUMP JUMPDEST SWAP1 POP PUSH2 0xCF5 DUP3 DUP3 PUSH2 0xCAE JUMP JUMPDEST SWAP2 SWAP1 POP JUMP JUMPDEST PUSH1 0x0 DUP1 REVERT JUMPDEST PUSH1 0x0 DUP1 REVERT JUMPDEST PUSH1 0x0 DUP1 REVERT JUMPDEST PUSH1 0x0 PUSH8 0xFFFFFFFFFFFFFFFF DUP3 GT ISZERO PUSH2 0xD24 JUMPI PUSH2 0xD23 PUSH2 0xC7F JUMP JUMPDEST JUMPDEST PUSH2 0xD2D DUP3 PUSH2 0x99C JUMP JUMPDEST SWAP1 POP PUSH1 0x20 DUP2 ADD SWAP1 POP SWAP2 SWAP1 POP JUMP JUMPDEST DUP3 DUP2 DUP4 CALLDATACOPY PUSH1 0x0 DUP4 DUP4 ADD MSTORE POP POP POP JUMP JUMPDEST PUSH1 0x0 PUSH2 0xD5C PUSH2 0xD57 DUP5 PUSH2 0xD09 JUMP JUMPDEST PUSH2 0xCDF JUMP JUMPDEST SWAP1 POP DUP3 DUP2 MSTORE PUSH1 0x20 DUP2 ADD DUP5 DUP5 DUP5 ADD GT ISZERO PUSH2 0xD78 JUMPI PUSH2 0xD77 PUSH2 0xD04 JUMP JUMPDEST JUMPDEST PUSH2 0xD83 DUP5 DUP3 DUP6 PUSH2 0xD3A JUMP JUMPDEST POP SWAP4 SWAP3 POP POP POP JUMP JUMPDEST PUSH1 0x0 DUP3 PUSH1 0x1F DUP4 ADD SLT PUSH2 0xDA0 JUMPI PUSH2 0xD9F PUSH2 0xCFF JUMP JUMPDEST JUMPDEST DUP2 CALLDATALOAD PUSH2 0xDB0 DUP5 DUP3 PUSH1 0x20 DUP7 ADD PUSH2 0xD49 JUMP JUMPDEST SWAP2 POP POP SWAP3 SWAP2 POP POP JUMP JUMPDEST PUSH2 0xDC2 DUP2 PUSH2 0xA27 JUMP JUMPDEST DUP2 EQ PUSH2 0xDCD JUMPI PUSH1 0x0 DUP1 REVERT JUMPDEST POP JUMP JUMPDEST PUSH1 0x0 DUP2 CALLDATALOAD SWAP1 POP PUSH2 0xDDF DUP2 PUSH2 0xDB9 JUMP JUMPDEST SWAP3 SWAP2 POP POP JUMP JUMPDEST PUSH1 0x0 PUSH1 0xC0 DUP3 DUP5 SUB SLT ISZERO PUSH2 0xDFB JUMPI PUSH2 0xDFA PUSH2 0xC7A JUMP JUMPDEST JUMPDEST PUSH2 0xE05 PUSH1 0xC0 PUSH2 0xCDF JUMP JUMPDEST SWAP1 POP PUSH1 0x0 PUSH2 0xE15 DUP5 DUP3 DUP6 ADD PUSH2 0xC38 JUMP JUMPDEST PUSH1 0x0 DUP4 ADD MSTORE POP PUSH1 0x20 DUP3 ADD CALLDATALOAD PUSH8 0xFFFFFFFFFFFFFFFF DUP2 GT ISZERO PUSH2 0xE39 JUMPI PUSH2 0xE38 PUSH2 0xCFA JUMP JUMPDEST JUMPDEST PUSH2 0xE45 DUP5 DUP3 DUP6 ADD PUSH2 0xD8B JUMP JUMPDEST PUSH1 0x20 DUP4 ADD MSTORE POP PUSH1 0x40 PUSH2 0xE59 DUP5 DUP3 DUP6 ADD PUSH2 0xBB5 JUMP JUMPDEST PUSH1 0x40 DUP4 ADD MSTORE POP PUSH1 0x60 PUSH2 0xE6D DUP5 DUP3 DUP6 ADD PUSH2 0xC38 JUMP JUMPDEST PUSH1 0x60 DUP4 ADD MSTORE POP PUSH1 0x80 DUP3 ADD CALLDATALOAD PUSH8 0xFFFFFFFFFFFFFFFF DUP2 GT ISZERO PUSH2 0xE91 JUMPI PUSH2 0xE90 PUSH2 0xCFA JUMP JUMPDEST JUMPDEST PUSH2 0xE9D DUP5 DUP3 DUP6 ADD PUSH2 0xD8B JUMP JUMPDEST PUSH1 0x80 DUP4 ADD MSTORE POP PUSH1 0xA0 PUSH2 0xEB1 DUP5 DUP3 DUP6 ADD PUSH2 0xDD0 JUMP JUMPDEST PUSH1 0xA0 DUP4 ADD MSTORE POP SWAP3 SWAP2 POP POP JUMP JUMPDEST PUSH1 0x0 PUSH1 0x20 DUP3 DUP5 SUB SLT ISZERO PUSH2 0xED3 JUMPI PUSH2 0xED2 PUSH2 0xB94 JUMP JUMPDEST JUMPDEST PUSH1 0x0 DUP3 ADD CALLDATALOAD PUSH8 0xFFFFFFFFFFFFFFFF DUP2 GT ISZERO PUSH2 0xEF1 JUMPI PUSH2 0xEF0 PUSH2 0xB99 JUMP JUMPDEST JUMPDEST PUSH2 0xEFD DUP5 DUP3 DUP6 ADD PUSH2 0xDE5 JUMP JUMPDEST SWAP2 POP POP SWAP3 SWAP2 POP POP JUMP JUMPDEST PUSH1 0x0 DUP3 DUP3 MSTORE PUSH1 0x20 DUP3 ADD SWAP1 POP SWAP3 SWAP2 POP POP JUMP JUMPDEST PUSH32 0x526F75676844617461626173653A206F6E6C7920636F6E747261637420776869 PUSH1 0x0 DUP3 ADD MSTORE PUSH32 0x63682061726520616C6C6F776564000000000000000000000000000000000000 PUSH1 0x20 DUP3 ADD MSTORE POP JUMP JUMPDEST PUSH1 0x0 PUSH2 0xF73 PUSH1 0x2E DUP4 PUSH2 0xF06 JUMP JUMPDEST SWAP2 POP PUSH2 0xF7E DUP3 PUSH2 0xF17 JUMP JUMPDEST PUSH1 0x40 DUP3 ADD SWAP1 POP SWAP2 SWAP1 POP JUMP JUMPDEST PUSH1 0x0 PUSH1 0x20 DUP3 ADD SWAP1 POP DUP2 DUP2 SUB PUSH1 0x0 DUP4 ADD MSTORE PUSH2 0xFA2 DUP2 PUSH2 0xF66 JUMP JUMPDEST SWAP1 POP SWAP2 SWAP1 POP JUMP JUMPDEST PUSH32 0x4E487B7100000000000000000000000000000000000000000000000000000000 PUSH1 0x0 MSTORE PUSH1 0x22 PUSH1 0x4 MSTORE PUSH1 0x24 PUSH1 0x0 REVERT JUMPDEST PUSH1 0x0 PUSH1 0x2 DUP3 DIV SWAP1 POP PUSH1 0x1 DUP3 AND DUP1 PUSH2 0xFF0 JUMPI PUSH1 0x7F DUP3 AND SWAP2 POP JUMPDEST PUSH1 0x20 DUP3 LT DUP2 SUB PUSH2 0x1003 JUMPI PUSH2 0x1002 PUSH2 0xFA9 JUMP JUMPDEST JUMPDEST POP SWAP2 SWAP1 POP JUMP JUMPDEST PUSH32 0x526F75676844617461626173653A207065726D697373696F6E20686173206265 PUSH1 0x0 DUP3 ADD MSTORE PUSH32 0x656E206772616E74656400000000000000000000000000000000000000000000 PUSH1 0x20 DUP3 ADD MSTORE POP JUMP JUMPDEST PUSH1 0x0 PUSH2 0x1065 PUSH1 0x2A DUP4 PUSH2 0xF06 JUMP JUMPDEST SWAP2 POP PUSH2 0x1070 DUP3 PUSH2 0x1009 JUMP JUMPDEST PUSH1 0x40 DUP3 ADD SWAP1 POP SWAP2 SWAP1 POP JUMP JUMPDEST PUSH1 0x0 PUSH1 0x20 DUP3 ADD SWAP1 POP DUP2 DUP2 SUB PUSH1 0x0 DUP4 ADD MSTORE PUSH2 0x1094 DUP2 PUSH2 0x1058 JUMP JUMPDEST SWAP1 POP SWAP2 SWAP1 POP JUMP JUMPDEST PUSH32 0x4E487B7100000000000000000000000000000000000000000000000000000000 PUSH1 0x0 MSTORE PUSH1 0x32 PUSH1 0x4 MSTORE PUSH1 0x24 PUSH1 0x0 REVERT JUMPDEST PUSH1 0x0 DUP2 SWAP1 POP DUP2 PUSH1 0x0 MSTORE PUSH1 0x20 PUSH1 0x0 KECCAK256 SWAP1 POP SWAP2 SWAP1 POP JUMP JUMPDEST PUSH1 0x0 PUSH1 0x20 PUSH1 0x1F DUP4 ADD DIV SWAP1 POP SWAP2 SWAP1 POP JUMP JUMPDEST PUSH1 0x0 DUP3 DUP3 SHL SWAP1 POP SWAP3 SWAP2 POP POP JUMP JUMPDEST PUSH1 0x0 PUSH1 0x8 DUP4 MUL PUSH2 0x112C PUSH32 0xFFFFFFFFFFFFFFFFFFFFFFFFFFFFFFFFFFFFFFFFFFFFFFFFFFFFFFFFFFFFFFFF DUP3 PUSH2 0x10EF JUMP JUMPDEST PUSH2 0x1136 DUP7 DUP4 PUSH2 0x10EF JUMP JUMPDEST SWAP6 POP DUP1 NOT DUP5 AND SWAP4 POP DUP1 DUP7 AND DUP5 OR SWAP3 POP POP POP SWAP4 SWAP3 POP POP POP JUMP JUMPDEST PUSH1 0x0 DUP2 SWAP1 POP SWAP2 SWAP1 POP JUMP JUMPDEST PUSH1 0x0 PUSH2 0x1173 PUSH2 0x116E PUSH2 0x1169 DUP5 PUSH2 0x93D JUMP JUMPDEST PUSH2 0x114E JUMP JUMPDEST PUSH2 0x93D JUMP JUMPDEST SWAP1 POP SWAP2 SWAP1 POP JUMP JUMPDEST PUSH1 0x0 DUP2 SWAP1 POP SWAP2 SWAP1 POP JUMP JUMPDEST PUSH2 0x118D DUP4 PUSH2 0x1158 JUMP JUMPDEST PUSH2 0x11A1 PUSH2 0x1199 DUP3 PUSH2 0x117A JUMP JUMPDEST DUP5 DUP5 SLOAD PUSH2 0x10FC JUMP JUMPDEST DUP3 SSTORE POP POP POP POP JUMP JUMPDEST PUSH1 0x0 SWAP1 JUMP JUMPDEST PUSH2 0x11B6 PUSH2 0x11A9 JUMP JUMPDEST PUSH2 0x11C1 DUP2 DUP5 DUP5 PUSH2 0x1184 JUMP JUMPDEST POP POP POP JUMP JUMPDEST JUMPDEST DUP2 DUP2 LT ISZERO PUSH2 0x11E5 JUMPI PUSH2 0x11DA PUSH1 0x0 DUP3 PUSH2 0x11AE JUMP JUMPDEST PUSH1 0x1 DUP2 ADD SWAP1 POP PUSH2 0x11C7 JUMP JUMPDEST POP POP JUMP JUMPDEST PUSH1 0x1F DUP3 GT ISZERO PUSH2 0x122A JUMPI PUSH2 0x11FB DUP2 PUSH2 0x10CA JUMP JUMPDEST PUSH2 0x1204 DUP5 PUSH2 0x10DF JUMP JUMPDEST DUP2 ADD PUSH1 0x20 DUP6 LT ISZERO PUSH2 0x1213 JUMPI DUP2 SWAP1 POP JUMPDEST PUSH2 0x1227 PUSH2 0x121F DUP6 PUSH2 0x10DF JUMP JUMPDEST DUP4 ADD DUP3 PUSH2 0x11C6 JUMP JUMPDEST POP POP JUMPDEST POP POP POP JUMP JUMPDEST PUSH1 0x0 DUP3 DUP3 SHR SWAP1 POP SWAP3 SWAP2 POP POP JUMP JUMPDEST PUSH1 0x0 PUSH2 0x124D PUSH1 0x0 NOT DUP5 PUSH1 0x8 MUL PUSH2 0x122F JUMP JUMPDEST NOT DUP1 DUP4 AND SWAP2 POP POP SWAP3 SWAP2 POP POP JUMP JUMPDEST PUSH1 0x0 PUSH2 0x1266 DUP4 DUP4 PUSH2 0x123C JUMP JUMPDEST SWAP2 POP DUP3 PUSH1 0x2 MUL DUP3 OR SWAP1 POP SWAP3 SWAP2 POP POP JUMP JUMPDEST PUSH2 0x127F DUP3 PUSH2 0x956 JUMP JUMPDEST PUSH8 0xFFFFFFFFFFFFFFFF DUP2 GT ISZERO PUSH2 0x1298 JUMPI PUSH2 0x1297 PUSH2 0xC7F JUMP JUMPDEST JUMPDEST PUSH2 0x12A2 DUP3 SLOAD PUSH2 0xFD8 JUMP JUMPDEST PUSH2 0x12AD DUP3 DUP3 DUP6 PUSH2 0x11E9 JUMP JUMPDEST PUSH1 0x0 PUSH1 0x20 SWAP1 POP PUSH1 0x1F DUP4 GT PUSH1 0x1 DUP2 EQ PUSH2 0x12E0 JUMPI PUSH1 0x0 DUP5 ISZERO PUSH2 0x12CE JUMPI DUP3 DUP8 ADD MLOAD SWAP1 POP JUMPDEST PUSH2 0x12D8 DUP6 DUP3 PUSH2 0x125A JUMP JUMPDEST DUP7 SSTORE POP PUSH2 0x1340 JUMP JUMPDEST PUSH1 0x1F NOT DUP5 AND PUSH2 0x12EE DUP7 PUSH2 0x10CA JUMP JUMPDEST PUSH1 0x0 JUMPDEST DUP3 DUP2 LT ISZERO PUSH2 0x1316 JUMPI DUP5 DUP10 ADD MLOAD DUP3 SSTORE PUSH1 0x1 DUP3 ADD SWAP2 POP PUSH1 0x20 DUP6 ADD SWAP5 POP PUSH1 0x20 DUP2 ADD SWAP1 POP PUSH2 0x12F1 JUMP JUMPDEST DUP7 DUP4 LT ISZERO PUSH2 0x1333 JUMPI DUP5 DUP10 ADD MLOAD PUSH2 0x132F PUSH1 0x1F DUP10 AND DUP3 PUSH2 0x123C JUMP JUMPDEST DUP4 SSTORE POP JUMPDEST PUSH1 0x1 PUSH1 0x2 DUP9 MUL ADD DUP9 SSTORE POP POP POP JUMPDEST POP POP POP POP POP POP JUMP JUMPDEST PUSH32 0x4F776E61626C653A206E6577206F776E657220697320746865207A65726F2061 PUSH1 0x0 DUP3 ADD MSTORE PUSH32 0x6464726573730000000000000000000000000000000000000000000000000000 PUSH1 0x20 DUP3 ADD MSTORE POP JUMP JUMPDEST PUSH1 0x0 PUSH2 0x13A4 PUSH1 0x26 DUP4 PUSH2 0xF06 JUMP JUMPDEST SWAP2 POP PUSH2 0x13AF DUP3 PUSH2 0x1348 JUMP JUMPDEST PUSH1 0x40 DUP3 ADD SWAP1 POP SWAP2 SWAP1 POP JUMP JUMPDEST PUSH1 0x0 PUSH1 0x20 DUP3 ADD SWAP1 POP DUP2 DUP2 SUB PUSH1 0x0 DUP4 ADD MSTORE PUSH2 0x13D3 DUP2 PUSH2 0x1397 JUMP JUMPDEST SWAP1 POP SWAP2 SWAP1 POP JUMP JUMPDEST PUSH32 0x4F776E61626C653A2063616C6C6572206973206E6F7420746865206F776E6572 PUSH1 0x0 DUP3 ADD MSTORE POP JUMP JUMPDEST PUSH1 0x0 PUSH2 0x1410 PUSH1 0x20 DUP4 PUSH2 0xF06 JUMP JUMPDEST SWAP2 POP PUSH2 0x141B DUP3 PUSH2 0x13DA JUMP JUMPDEST PUSH1 0x20 DUP3 ADD SWAP1 POP SWAP2 SWAP1 POP JUMP JUMPDEST PUSH1 0x0 PUSH1 0x20 DUP3 ADD SWAP1 POP DUP2 DUP2 SUB PUSH1 0x0 DUP4 ADD MSTORE PUSH2 0x143F DUP2 PUSH2 0x1403 JUMP JUMPDEST SWAP1 POP SWAP2 SWAP1 POP JUMP INVALID LOG2 PUSH5 0x6970667358 0x22 SLT KECCAK256 TIMESTAMP COINBASE ORIGIN 0xAE INVALID EXTCODESIZE 0xDC 0xF 0xAB 0x24 SWAP3 0xAF 0xBE CALLDATASIZE BYTE 0x5F 0x23 PUSH27 0x38637EAD0050DE5FB29DB348D78F64736F6C634300081100330000 "
				},
				"gasEstimates": {
					"creation": {
						"codeDepositCost": "1048800",
						"executionCost": "25353",
						"totalCost": "1074153"
					},
					"external": {
						"addChecked(uint256)": "29169",
						"addPermission(address)": "29310",
						"addRough((uint256,string,address,uint256,string,bool))": "infinite",
						"destroy()": "30017",
						"getAllRough()": "infinite",
						"owner()": "2522",
						"transferOwnership(address)": "30775"
					}
				},
				"methodIdentifiers": {
					"addChecked(uint256)": "ee416d5b",
					"addPermission(address)": "4d0a5dbd",
					"addRough((uint256,string,address,uint256,string,bool))": "eea1e481",
					"destroy()": "83197ef0",
					"getAllRough()": "1f9c0c6f",
					"owner()": "8da5cb5b",
					"transferOwnership(address)": "f2fde38b"
				}
			},
			"storageLayout": {
				"storage": [
					{
						"astId": 30,
						"contract": "database/processing/RoughDatabase.sol:RoughDatabase",
						"label": "_owner",
						"offset": 0,
						"slot": "0",
						"type": "t_address"
					},
					{
						"astId": 149,
						"contract": "database/processing/RoughDatabase.sol:RoughDatabase",
						"label": "list",
						"offset": 0,
						"slot": "1",
						"type": "t_array(t_struct(Rough)251_storage)dyn_storage"
					},
					{
						"astId": 153,
						"contract": "database/processing/RoughDatabase.sol:RoughDatabase",
						"label": "permissions",
						"offset": 0,
						"slot": "2",
						"type": "t_mapping(t_address,t_bool)"
					}
				],
				"types": {
					"t_address": {
						"encoding": "inplace",
						"label": "address",
						"numberOfBytes": "20"
					},
					"t_array(t_struct(Rough)251_storage)dyn_storage": {
						"base": "t_struct(Rough)251_storage",
						"encoding": "dynamic_array",
						"label": "struct Rough[]",
						"numberOfBytes": "32"
					},
					"t_bool": {
						"encoding": "inplace",
						"label": "bool",
						"numberOfBytes": "1"
					},
					"t_mapping(t_address,t_bool)": {
						"encoding": "mapping",
						"key": "t_address",
						"label": "mapping(address => bool)",
						"numberOfBytes": "32",
						"value": "t_bool"
					},
					"t_string_storage": {
						"encoding": "bytes",
						"label": "string",
						"numberOfBytes": "32"
					},
					"t_struct(Rough)251_storage": {
						"encoding": "inplace",
						"label": "struct Rough",
						"members": [
							{
								"astId": 240,
								"contract": "database/processing/RoughDatabase.sol:RoughDatabase",
								"label": "batchId",
								"offset": 0,
								"slot": "0",
								"type": "t_uint256"
							},
							{
								"astId": 242,
								"contract": "database/processing/RoughDatabase.sol:RoughDatabase",
								"label": "userName",
								"offset": 0,
								"slot": "1",
								"type": "t_string_storage"
							},
							{
								"astId": 244,
								"contract": "database/processing/RoughDatabase.sol:RoughDatabase",
								"label": "userAddress",
								"offset": 0,
								"slot": "2",
								"type": "t_address"
							},
							{
								"astId": 246,
								"contract": "database/processing/RoughDatabase.sol:RoughDatabase",
								"label": "roughDate",
								"offset": 0,
								"slot": "3",
								"type": "t_uint256"
							},
							{
								"astId": 248,
								"contract": "database/processing/RoughDatabase.sol:RoughDatabase",
								"label": "roughAdress",
								"offset": 0,
								"slot": "4",
								"type": "t_string_storage"
							},
							{
								"astId": 250,
								"contract": "database/processing/RoughDatabase.sol:RoughDatabase",
								"label": "roughIsChecked",
								"offset": 0,
								"slot": "5",
								"type": "t_bool"
							}
						],
						"numberOfBytes": "192"
					},
					"t_uint256": {
						"encoding": "inplace",
						"label": "uint256",
						"numberOfBytes": "32"
					}
				}
			},
			"userdoc": {
				"kind": "user",
				"methods": {},
				"version": 1
			}
		}
	}
}