{
	"database/processing/ProcessingDatabase.sol": {
		"ProcessingDatabase": {
			"abi": [
				{
					"inputs": [],
					"stateMutability": "nonpayable",
					"type": "constructor"
				},
				{
					"anonymous": false,
					"inputs": [
						{
							"indexed": true,
							"internalType": "address",
							"name": "previousOwner",
							"type": "address"
						},
						{
							"indexed": true,
							"internalType": "address",
							"name": "newOwner",
							"type": "address"
						}
					],
					"name": "OwnershipTransferred",
					"type": "event"
				},
				{
					"inputs": [
						{
							"components": [
								{
									"internalType": "uint256",
									"name": "batchId",
									"type": "uint256"
								},
								{
									"internalType": "uint256",
									"name": "processingId",
									"type": "uint256"
								},
								{
									"internalType": "uint256",
									"name": "category",
									"type": "uint256"
								},
								{
									"internalType": "uint256",
									"name": "time",
									"type": "uint256"
								},
								{
									"internalType": "uint256",
									"name": "quantity",
									"type": "uint256"
								}
							],
							"internalType": "struct FolWarehouse",
							"name": "item",
							"type": "tuple"
						},
						{
							"internalType": "bytes32",
							"name": "secret",
							"type": "bytes32"
						}
					],
					"name": "addFolWarehouse",
					"outputs": [
						{
							"internalType": "bool",
							"name": "",
							"type": "bool"
						}
					],
					"stateMutability": "nonpayable",
					"type": "function"
				},
				{
					"inputs": [
						{
							"components": [
								{
									"internalType": "uint256",
									"name": "inspectorId",
									"type": "uint256"
								},
								{
									"internalType": "address",
									"name": "inspectorAddress",
									"type": "address"
								},
								{
									"internalType": "enum AccountType",
									"name": "accountType",
									"type": "uint8"
								},
								{
									"internalType": "uint256",
									"name": "category",
									"type": "uint256"
								}
							],
							"internalType": "struct Inspector",
							"name": "item",
							"type": "tuple"
						},
						{
							"internalType": "bytes32",
							"name": "secret",
							"type": "bytes32"
						}
					],
					"name": "addInspector",
					"outputs": [
						{
							"internalType": "bool",
							"name": "",
							"type": "bool"
						}
					],
					"stateMutability": "nonpayable",
					"type": "function"
				},
				{
					"inputs": [
						{
							"components": [
								{
									"internalType": "uint256",
									"name": "batchId",
									"type": "uint256"
								},
								{
									"internalType": "uint256",
									"name": "processorId",
									"type": "uint256"
								},
								{
									"internalType": "uint256[]",
									"name": "listbatchId",
									"type": "uint256[]"
								},
								{
									"internalType": "uint256",
									"name": "category",
									"type": "uint256"
								},
								{
									"internalType": "uint256",
									"name": "time",
									"type": "uint256"
								},
								{
									"internalType": "uint256",
									"name": "quantity",
									"type": "uint256"
								}
							],
							"internalType": "struct PreWarehouse",
							"name": "item",
							"type": "tuple"
						},
						{
							"internalType": "bytes32",
							"name": "secret",
							"type": "bytes32"
						}
					],
					"name": "addPreWarehouse",
					"outputs": [
						{
							"internalType": "bool",
							"name": "",
							"type": "bool"
						}
					],
					"stateMutability": "nonpayable",
					"type": "function"
				},
				{
					"inputs": [
						{
							"components": [
								{
									"internalType": "uint256",
									"name": "processingId",
									"type": "uint256"
								},
								{
									"internalType": "uint256",
									"name": "processorId",
									"type": "uint256"
								},
								{
									"internalType": "uint256",
									"name": "category",
									"type": "uint256"
								},
								{
									"internalType": "uint256[]",
									"name": "listBatchId",
									"type": "uint256[]"
								}
							],
							"internalType": "struct Processing",
							"name": "item",
							"type": "tuple"
						},
						{
							"internalType": "bytes32",
							"name": "secret",
							"type": "bytes32"
						}
					],
					"name": "addProcessing",
					"outputs": [
						{
							"internalType": "bool",
							"name": "",
							"type": "bool"
						}
					],
					"stateMutability": "nonpayable",
					"type": "function"
				},
				{
					"inputs": [
						{
							"components": [
								{
									"internalType": "uint256",
									"name": "processorId",
									"type": "uint256"
								},
								{
									"internalType": "address",
									"name": "processorAddress",
									"type": "address"
								},
								{
									"internalType": "uint256",
									"name": "category",
									"type": "uint256"
								}
							],
							"internalType": "struct Processor",
							"name": "item",
							"type": "tuple"
						},
						{
							"internalType": "bytes32",
							"name": "secret",
							"type": "bytes32"
						}
					],
					"name": "addProcessor",
					"outputs": [
						{
							"internalType": "bool",
							"name": "",
							"type": "bool"
						}
					],
					"stateMutability": "nonpayable",
					"type": "function"
				},
				{
					"inputs": [],
					"name": "destroy",
					"outputs": [],
					"stateMutability": "nonpayable",
					"type": "function"
				},
				{
					"inputs": [
						{
							"internalType": "bytes32",
							"name": "secret",
							"type": "bytes32"
						}
					],
					"name": "getListFolWarehouse",
					"outputs": [
						{
							"components": [
								{
									"internalType": "uint256",
									"name": "batchId",
									"type": "uint256"
								},
								{
									"internalType": "uint256",
									"name": "processingId",
									"type": "uint256"
								},
								{
									"internalType": "uint256",
									"name": "category",
									"type": "uint256"
								},
								{
									"internalType": "uint256",
									"name": "time",
									"type": "uint256"
								},
								{
									"internalType": "uint256",
									"name": "quantity",
									"type": "uint256"
								}
							],
							"internalType": "struct FolWarehouse[]",
							"name": "",
							"type": "tuple[]"
						}
					],
					"stateMutability": "view",
					"type": "function"
				},
				{
					"inputs": [
						{
							"internalType": "bytes32",
							"name": "secret",
							"type": "bytes32"
						}
					],
					"name": "getListInspector",
					"outputs": [
						{
							"components": [
								{
									"internalType": "uint256",
									"name": "inspectorId",
									"type": "uint256"
								},
								{
									"internalType": "address",
									"name": "inspectorAddress",
									"type": "address"
								},
								{
									"internalType": "enum AccountType",
									"name": "accountType",
									"type": "uint8"
								},
								{
									"internalType": "uint256",
									"name": "category",
									"type": "uint256"
								}
							],
							"internalType": "struct Inspector[]",
							"name": "",
							"type": "tuple[]"
						}
					],
					"stateMutability": "view",
					"type": "function"
				},
				{
					"inputs": [
						{
							"internalType": "bytes32",
							"name": "secret",
							"type": "bytes32"
						}
					],
					"name": "getListPreWarehouse",
					"outputs": [
						{
							"components": [
								{
									"internalType": "uint256",
									"name": "batchId",
									"type": "uint256"
								},
								{
									"internalType": "uint256",
									"name": "processorId",
									"type": "uint256"
								},
								{
									"internalType": "uint256[]",
									"name": "listbatchId",
									"type": "uint256[]"
								},
								{
									"internalType": "uint256",
									"name": "category",
									"type": "uint256"
								},
								{
									"internalType": "uint256",
									"name": "time",
									"type": "uint256"
								},
								{
									"internalType": "uint256",
									"name": "quantity",
									"type": "uint256"
								}
							],
							"internalType": "struct PreWarehouse[]",
							"name": "",
							"type": "tuple[]"
						}
					],
					"stateMutability": "view",
					"type": "function"
				},
				{
					"inputs": [
						{
							"internalType": "bytes32",
							"name": "secret",
							"type": "bytes32"
						}
					],
					"name": "getListProcessing",
					"outputs": [
						{
							"components": [
								{
									"internalType": "uint256",
									"name": "processingId",
									"type": "uint256"
								},
								{
									"internalType": "uint256",
									"name": "processorId",
									"type": "uint256"
								},
								{
									"internalType": "uint256",
									"name": "category",
									"type": "uint256"
								},
								{
									"internalType": "uint256[]",
									"name": "listBatchId",
									"type": "uint256[]"
								}
							],
							"internalType": "struct Processing[]",
							"name": "",
							"type": "tuple[]"
						}
					],
					"stateMutability": "view",
					"type": "function"
				},
				{
					"inputs": [
						{
							"internalType": "bytes32",
							"name": "secret",
							"type": "bytes32"
						}
					],
					"name": "getListProcessor",
					"outputs": [
						{
							"components": [
								{
									"internalType": "uint256",
									"name": "processorId",
									"type": "uint256"
								},
								{
									"internalType": "address",
									"name": "processorAddress",
									"type": "address"
								},
								{
									"internalType": "uint256",
									"name": "category",
									"type": "uint256"
								}
							],
							"internalType": "struct Processor[]",
							"name": "",
							"type": "tuple[]"
						}
					],
					"stateMutability": "view",
					"type": "function"
				},
				{
					"inputs": [],
					"name": "owner",
					"outputs": [
						{
							"internalType": "address",
							"name": "",
							"type": "address"
						}
					],
					"stateMutability": "view",
					"type": "function"
				},
				{
					"inputs": [
						{
							"internalType": "address",
							"name": "newOwner",
							"type": "address"
						}
					],
					"name": "transferOwnership",
					"outputs": [],
					"stateMutability": "nonpayable",
					"type": "function"
				}
			],
			"devdoc": {
				"kind": "dev",
				"methods": {
					"owner()": {
						"details": "Returns the address of the current owner."
					},
					"transferOwnership(address)": {
						"details": "Transfers ownership of the contract to a new account (`newOwner`). Can only be called by the current owner."
					}
				},
				"version": 1
			},
			"evm": {
				"assembly": "    /* \"database/processing/ProcessingDatabase.sol\":659:3372  contract ProcessingDatabase is Ownable {... */\n  mstore(0x40, 0x80)\n    /* \"database/processing/ProcessingDatabase.sol\":914:940  constructor() Ownable() {} */\n  callvalue\n  dup1\n  iszero\n  tag_1\n  jumpi\n  0x00\n  dup1\n  revert\ntag_1:\n  pop\n    /* \"abstract/Ownable.sol\":932:942  msg.sender */\n  caller\n    /* \"abstract/Ownable.sol\":923:929  _owner */\n  0x00\n  dup1\n    /* \"abstract/Ownable.sol\":923:942  _owner = msg.sender */\n  0x0100\n  exp\n  dup2\n  sload\n  dup2\n  0xffffffffffffffffffffffffffffffffffffffff\n  mul\n  not\n  and\n  swap1\n  dup4\n  0xffffffffffffffffffffffffffffffffffffffff\n  and\n  mul\n  or\n  swap1\n  sstore\n  pop\n    /* \"database/processing/ProcessingDatabase.sol\":659:3372  contract ProcessingDatabase is Ownable {... */\n  dataSize(sub_0)\n  dup1\n  dataOffset(sub_0)\n  0x00\n  codecopy\n  0x00\n  return\nstop\n\nsub_0: assembly {\n        /* \"database/processing/ProcessingDatabase.sol\":659:3372  contract ProcessingDatabase is Ownable {... */\n      mstore(0x40, 0x80)\n      callvalue\n      dup1\n      iszero\n      tag_1\n      jumpi\n      0x00\n      dup1\n      revert\n    tag_1:\n      pop\n      jumpi(tag_2, lt(calldatasize, 0x04))\n      shr(0xe0, calldataload(0x00))\n      dup1\n      0x4269e28b\n      gt\n      tag_16\n      jumpi\n      dup1\n      0x86e9bacf\n      gt\n      tag_17\n      jumpi\n      dup1\n      0x86e9bacf\n      eq\n      tag_12\n      jumpi\n      dup1\n      0x8da5cb5b\n      eq\n      tag_13\n      jumpi\n      dup1\n      0xcb7c5c50\n      eq\n      tag_14\n      jumpi\n      dup1\n      0xf2fde38b\n      eq\n      tag_15\n      jumpi\n      jump(tag_2)\n    tag_17:\n      dup1\n      0x4269e28b\n      eq\n      tag_9\n      jumpi\n      dup1\n      0x776364a7\n      eq\n      tag_10\n      jumpi\n      dup1\n      0x83197ef0\n      eq\n      tag_11\n      jumpi\n      jump(tag_2)\n    tag_16:\n      dup1\n      0x021ca464\n      eq\n      tag_3\n      jumpi\n      dup1\n      0x03970403\n      eq\n      tag_4\n      jumpi\n      dup1\n      0x1d769a9e\n      eq\n      tag_5\n      jumpi\n      dup1\n      0x270b3869\n      eq\n      tag_6\n      jumpi\n      dup1\n      0x2ae72d06\n      eq\n      tag_7\n      jumpi\n      dup1\n      0x318ee31a\n      eq\n      tag_8\n      jumpi\n    tag_2:\n      0x00\n      dup1\n      revert\n        /* \"database/processing/ProcessingDatabase.sol\":2162:2414  function addProcessing(Processing memory item, bytes32 secret)... */\n    tag_3:\n      tag_18\n      0x04\n      dup1\n      calldatasize\n      sub\n      dup2\n      add\n      swap1\n      tag_19\n      swap2\n      swap1\n      tag_20\n      jump\t// in\n    tag_19:\n      tag_21\n      jump\t// in\n    tag_18:\n      mload(0x40)\n      tag_22\n      swap2\n      swap1\n      tag_23\n      jump\t// in\n    tag_22:\n      mload(0x40)\n      dup1\n      swap2\n      sub\n      swap1\n      return\n        /* \"database/processing/ProcessingDatabase.sol\":3186:3370  function getListProcessing(bytes32 secret)... */\n    tag_4:\n      tag_24\n      0x04\n      dup1\n      calldatasize\n      sub\n      dup2\n      add\n      swap1\n      tag_25\n      swap2\n      swap1\n      tag_26\n      jump\t// in\n    tag_25:\n      tag_27\n      jump\t// in\n    tag_24:\n      mload(0x40)\n      tag_28\n      swap2\n      swap1\n      tag_29\n      jump\t// in\n    tag_28:\n      mload(0x40)\n      dup1\n      swap2\n      sub\n      swap1\n      return\n        /* \"database/processing/ProcessingDatabase.sol\":2990:3180  function getListFolWarehouse(bytes32 secret)... */\n    tag_5:\n      tag_30\n      0x04\n      dup1\n      calldatasize\n      sub\n      dup2\n      add\n      swap1\n      tag_31\n      swap2\n      swap1\n      tag_26\n      jump\t// in\n    tag_31:\n      tag_32\n      jump\t// in\n    tag_30:\n      mload(0x40)\n      tag_33\n      swap2\n      swap1\n      tag_34\n      jump\t// in\n    tag_33:\n      mload(0x40)\n      dup1\n      swap2\n      sub\n      swap1\n      return\n        /* \"database/processing/ProcessingDatabase.sol\":2794:2984  function getListPreWarehouse(bytes32 secret)... */\n    tag_6:\n      tag_35\n      0x04\n      dup1\n      calldatasize\n      sub\n      dup2\n      add\n      swap1\n      tag_36\n      swap2\n      swap1\n      tag_26\n      jump\t// in\n    tag_36:\n      tag_37\n      jump\t// in\n    tag_35:\n      mload(0x40)\n      tag_38\n      swap2\n      swap1\n      tag_39\n      jump\t// in\n    tag_38:\n      mload(0x40)\n      dup1\n      swap2\n      sub\n      swap1\n      return\n        /* \"database/processing/ProcessingDatabase.sol\":2607:2788  function getListProcessor(bytes32 secret)... */\n    tag_7:\n      tag_40\n      0x04\n      dup1\n      calldatasize\n      sub\n      dup2\n      add\n      swap1\n      tag_41\n      swap2\n      swap1\n      tag_26\n      jump\t// in\n    tag_41:\n      tag_42\n      jump\t// in\n    tag_40:\n      mload(0x40)\n      tag_43\n      swap2\n      swap1\n      tag_44\n      jump\t// in\n    tag_43:\n      mload(0x40)\n      dup1\n      swap2\n      sub\n      swap1\n      return\n        /* \"database/processing/ProcessingDatabase.sol\":1387:1634  function addProcessor(Processor memory item, bytes32 secret)... */\n    tag_8:\n      tag_45\n      0x04\n      dup1\n      calldatasize\n      sub\n      dup2\n      add\n      swap1\n      tag_46\n      swap2\n      swap1\n      tag_47\n      jump\t// in\n    tag_46:\n      tag_48\n      jump\t// in\n    tag_45:\n      mload(0x40)\n      tag_49\n      swap2\n      swap1\n      tag_23\n      jump\t// in\n    tag_49:\n      mload(0x40)\n      dup1\n      swap2\n      sub\n      swap1\n      return\n        /* \"database/processing/ProcessingDatabase.sol\":1901:2156  function addFolWarehouse(FolWarehouse memory item, bytes32 secret)... */\n    tag_9:\n      tag_50\n      0x04\n      dup1\n      calldatasize\n      sub\n      dup2\n      add\n      swap1\n      tag_51\n      swap2\n      swap1\n      tag_52\n      jump\t// in\n    tag_51:\n      tag_53\n      jump\t// in\n    tag_50:\n      mload(0x40)\n      tag_54\n      swap2\n      swap1\n      tag_23\n      jump\t// in\n    tag_54:\n      mload(0x40)\n      dup1\n      swap2\n      sub\n      swap1\n      return\n        /* \"database/processing/ProcessingDatabase.sol\":2420:2601  function getListInspector(bytes32 secret)... */\n    tag_10:\n      tag_55\n      0x04\n      dup1\n      calldatasize\n      sub\n      dup2\n      add\n      swap1\n      tag_56\n      swap2\n      swap1\n      tag_26\n      jump\t// in\n    tag_56:\n      tag_57\n      jump\t// in\n    tag_55:\n      mload(0x40)\n      tag_58\n      swap2\n      swap1\n      tag_59\n      jump\t// in\n    tag_58:\n      mload(0x40)\n      dup1\n      swap2\n      sub\n      swap1\n      return\n        /* \"abstract/Ownable.sol\":2642:2731  function destroy() public onlyOwner {... */\n    tag_11:\n      tag_60\n      tag_61\n      jump\t// in\n    tag_60:\n      stop\n        /* \"database/processing/ProcessingDatabase.sol\":1134:1381  function addInspector(Inspector memory item, bytes32 secret)... */\n    tag_12:\n      tag_62\n      0x04\n      dup1\n      calldatasize\n      sub\n      dup2\n      add\n      swap1\n      tag_63\n      swap2\n      swap1\n      tag_64\n      jump\t// in\n    tag_63:\n      tag_65\n      jump\t// in\n    tag_62:\n      mload(0x40)\n      tag_66\n      swap2\n      swap1\n      tag_23\n      jump\t// in\n    tag_66:\n      mload(0x40)\n      dup1\n      swap2\n      sub\n      swap1\n      return\n        /* \"abstract/Ownable.sol\":1175:1260  function owner() public view virtual returns (address) {... */\n    tag_13:\n      tag_67\n      tag_68\n      jump\t// in\n    tag_67:\n      mload(0x40)\n      tag_69\n      swap2\n      swap1\n      tag_70\n      jump\t// in\n    tag_69:\n      mload(0x40)\n      dup1\n      swap2\n      sub\n      swap1\n      return\n        /* \"database/processing/ProcessingDatabase.sol\":1640:1895  function addPreWarehouse(PreWarehouse memory item, bytes32 secret)... */\n    tag_14:\n      tag_71\n      0x04\n      dup1\n      calldatasize\n      sub\n      dup2\n      add\n      swap1\n      tag_72\n      swap2\n      swap1\n      tag_73\n      jump\t// in\n    tag_72:\n      tag_74\n      jump\t// in\n    tag_71:\n      mload(0x40)\n      tag_75\n      swap2\n      swap1\n      tag_23\n      jump\t// in\n    tag_75:\n      mload(0x40)\n      dup1\n      swap2\n      sub\n      swap1\n      return\n        /* \"abstract/Ownable.sol\":2063:2295  function transferOwnership(address newOwner) public virtual onlyOwner {... */\n    tag_15:\n      tag_76\n      0x04\n      dup1\n      calldatasize\n      sub\n      dup2\n      add\n      swap1\n      tag_77\n      swap2\n      swap1\n      tag_78\n      jump\t// in\n    tag_77:\n      tag_79\n      jump\t// in\n    tag_76:\n      stop\n        /* \"database/processing/ProcessingDatabase.sol\":2162:2414  function addProcessing(Processing memory item, bytes32 secret)... */\n    tag_21:\n        /* \"database/processing/ProcessingDatabase.sol\":2290:2294  bool */\n      0x00\n        /* \"database/processing/ProcessingDatabase.sol\":2265:2271  secret */\n      dup2\n        /* \"constant/SecretKey.sol\":232:298  0x8e1604a838d0f1a9b2cda14a099e4ceb08e966cc6e05e8296f67b02d61a79f09 */\n      0x8e1604a838d0f1a9b2cda14a099e4ceb08e966cc6e05e8296f67b02d61a79f09\n        /* \"database/processing/ProcessingDatabase.sol\":1027:1039  DATABASE_KEY */\n      0x00\n      shl\n        /* \"database/processing/ProcessingDatabase.sol\":1018:1023  value */\n      dup2\n        /* \"database/processing/ProcessingDatabase.sol\":1018:1039  value == DATABASE_KEY */\n      eq\n        /* \"database/processing/ProcessingDatabase.sol\":997:1110  require(... */\n      tag_81\n      jumpi\n      mload(0x40)\n      0x08c379a000000000000000000000000000000000000000000000000000000000\n      dup2\n      mstore\n      0x04\n      add\n      tag_82\n      swap1\n      tag_83\n      jump\t// in\n    tag_82:\n      mload(0x40)\n      dup1\n      swap2\n      sub\n      swap1\n      revert\n    tag_81:\n        /* \"database/processing/ProcessingDatabase.sol\":2330:2344  listProcessing */\n      0x03\n        /* \"database/processing/ProcessingDatabase.sol\":2330:2351  listProcessing.length */\n      dup1\n      sload\n      swap1\n      pop\n        /* \"database/processing/ProcessingDatabase.sol\":2310:2314  item */\n      dup5\n        /* \"database/processing/ProcessingDatabase.sol\":2310:2327  item.processingId */\n      0x00\n      add\n        /* \"database/processing/ProcessingDatabase.sol\":2310:2351  item.processingId = listProcessing.length */\n      dup2\n      dup2\n      mstore\n      pop\n      pop\n        /* \"database/processing/ProcessingDatabase.sol\":2361:2375  listProcessing */\n      0x03\n        /* \"database/processing/ProcessingDatabase.sol\":2381:2385  item */\n      dup5\n        /* \"database/processing/ProcessingDatabase.sol\":2361:2386  listProcessing.push(item) */\n      swap1\n      dup1\n      0x01\n      dup2\n      sload\n      add\n      dup1\n      dup3\n      sstore\n      dup1\n      swap2\n      pop\n      pop\n      0x01\n      swap1\n      sub\n      swap1\n      0x00\n      mstore\n      keccak256(0x00, 0x20)\n      swap1\n      0x04\n      mul\n      add\n      0x00\n      swap1\n      swap2\n      swap1\n      swap2\n      swap1\n      swap2\n      pop\n      0x00\n      dup3\n      add\n      mload\n      dup2\n      0x00\n      add\n      sstore\n      0x20\n      dup3\n      add\n      mload\n      dup2\n      0x01\n      add\n      sstore\n      0x40\n      dup3\n      add\n      mload\n      dup2\n      0x02\n      add\n      sstore\n      0x60\n      dup3\n      add\n      mload\n      dup2\n      0x03\n      add\n      swap1\n      dup1\n      mload\n      swap1\n      0x20\n      add\n      swap1\n      tag_86\n      swap3\n      swap2\n      swap1\n      tag_87\n      jump\t// in\n    tag_86:\n      pop\n      pop\n      pop\n        /* \"database/processing/ProcessingDatabase.sol\":2403:2407  true */\n      0x01\n        /* \"database/processing/ProcessingDatabase.sol\":2396:2407  return true */\n      swap2\n      pop\n        /* \"database/processing/ProcessingDatabase.sol\":2162:2414  function addProcessing(Processing memory item, bytes32 secret)... */\n      pop\n      swap3\n      swap2\n      pop\n      pop\n      jump\t// out\n        /* \"database/processing/ProcessingDatabase.sol\":3186:3370  function getListProcessing(bytes32 secret)... */\n    tag_27:\n        /* \"database/processing/ProcessingDatabase.sol\":3307:3326  Processing[] memory */\n      0x60\n        /* \"database/processing/ProcessingDatabase.sol\":3282:3288  secret */\n      dup2\n        /* \"constant/SecretKey.sol\":232:298  0x8e1604a838d0f1a9b2cda14a099e4ceb08e966cc6e05e8296f67b02d61a79f09 */\n      0x8e1604a838d0f1a9b2cda14a099e4ceb08e966cc6e05e8296f67b02d61a79f09\n        /* \"database/processing/ProcessingDatabase.sol\":1027:1039  DATABASE_KEY */\n      0x00\n      shl\n        /* \"database/processing/ProcessingDatabase.sol\":1018:1023  value */\n      dup2\n        /* \"database/processing/ProcessingDatabase.sol\":1018:1039  value == DATABASE_KEY */\n      eq\n        /* \"database/processing/ProcessingDatabase.sol\":997:1110  require(... */\n      tag_89\n      jumpi\n      mload(0x40)\n      0x08c379a000000000000000000000000000000000000000000000000000000000\n      dup2\n      mstore\n      0x04\n      add\n      tag_90\n      swap1\n      tag_83\n      jump\t// in\n    tag_90:\n      mload(0x40)\n      dup1\n      swap2\n      sub\n      swap1\n      revert\n    tag_89:\n        /* \"database/processing/ProcessingDatabase.sol\":3349:3363  listProcessing */\n      0x03\n        /* \"database/processing/ProcessingDatabase.sol\":3342:3363  return listProcessing */\n      dup1\n      sload\n      dup1\n      0x20\n      mul\n      0x20\n      add\n      mload(0x40)\n      swap1\n      dup2\n      add\n      0x40\n      mstore\n      dup1\n      swap3\n      swap2\n      swap1\n      dup2\n      dup2\n      mstore\n      0x20\n      add\n      0x00\n      swap1\n    tag_92:\n      dup3\n      dup3\n      lt\n      iszero\n      tag_93\n      jumpi\n      dup4\n      dup3\n      swap1\n      0x00\n      mstore\n      keccak256(0x00, 0x20)\n      swap1\n      0x04\n      mul\n      add\n      mload(0x40)\n      dup1\n      0x80\n      add\n      0x40\n      mstore\n      swap1\n      dup2\n      0x00\n      dup3\n      add\n      sload\n      dup2\n      mstore\n      0x20\n      add\n      0x01\n      dup3\n      add\n      sload\n      dup2\n      mstore\n      0x20\n      add\n      0x02\n      dup3\n      add\n      sload\n      dup2\n      mstore\n      0x20\n      add\n      0x03\n      dup3\n      add\n      dup1\n      sload\n      dup1\n      0x20\n      mul\n      0x20\n      add\n      mload(0x40)\n      swap1\n      dup2\n      add\n      0x40\n      mstore\n      dup1\n      swap3\n      swap2\n      swap1\n      dup2\n      dup2\n      mstore\n      0x20\n      add\n      dup3\n      dup1\n      sload\n      dup1\n      iszero\n      tag_95\n      jumpi\n      0x20\n      mul\n      dup3\n      add\n      swap2\n      swap1\n      0x00\n      mstore\n      keccak256(0x00, 0x20)\n      swap1\n    tag_96:\n      dup2\n      sload\n      dup2\n      mstore\n      0x20\n      add\n      swap1\n      0x01\n      add\n      swap1\n      dup1\n      dup4\n      gt\n      tag_96\n      jumpi\n    tag_95:\n      pop\n      pop\n      pop\n      pop\n      pop\n      dup2\n      mstore\n      pop\n      pop\n      dup2\n      mstore\n      0x20\n      add\n      swap1\n      0x01\n      add\n      swap1\n      jump(tag_92)\n    tag_93:\n      pop\n      pop\n      pop\n      pop\n      swap2\n      pop\n        /* \"database/processing/ProcessingDatabase.sol\":3186:3370  function getListProcessing(bytes32 secret)... */\n      pop\n      swap2\n      swap1\n      pop\n      jump\t// out\n        /* \"database/processing/ProcessingDatabase.sol\":2990:3180  function getListFolWarehouse(bytes32 secret)... */\n    tag_32:\n        /* \"database/processing/ProcessingDatabase.sol\":3113:3134  FolWarehouse[] memory */\n      0x60\n        /* \"database/processing/ProcessingDatabase.sol\":3088:3094  secret */\n      dup2\n        /* \"constant/SecretKey.sol\":232:298  0x8e1604a838d0f1a9b2cda14a099e4ceb08e966cc6e05e8296f67b02d61a79f09 */\n      0x8e1604a838d0f1a9b2cda14a099e4ceb08e966cc6e05e8296f67b02d61a79f09\n        /* \"database/processing/ProcessingDatabase.sol\":1027:1039  DATABASE_KEY */\n      0x00\n      shl\n        /* \"database/processing/ProcessingDatabase.sol\":1018:1023  value */\n      dup2\n        /* \"database/processing/ProcessingDatabase.sol\":1018:1039  value == DATABASE_KEY */\n      eq\n        /* \"database/processing/ProcessingDatabase.sol\":997:1110  require(... */\n      tag_98\n      jumpi\n      mload(0x40)\n      0x08c379a000000000000000000000000000000000000000000000000000000000\n      dup2\n      mstore\n      0x04\n      add\n      tag_99\n      swap1\n      tag_83\n      jump\t// in\n    tag_99:\n      mload(0x40)\n      dup1\n      swap2\n      sub\n      swap1\n      revert\n    tag_98:\n        /* \"database/processing/ProcessingDatabase.sol\":3157:3173  listFolWarehouse */\n      0x04\n        /* \"database/processing/ProcessingDatabase.sol\":3150:3173  return listFolWarehouse */\n      dup1\n      sload\n      dup1\n      0x20\n      mul\n      0x20\n      add\n      mload(0x40)\n      swap1\n      dup2\n      add\n      0x40\n      mstore\n      dup1\n      swap3\n      swap2\n      swap1\n      dup2\n      dup2\n      mstore\n      0x20\n      add\n      0x00\n      swap1\n    tag_101:\n      dup3\n      dup3\n      lt\n      iszero\n      tag_102\n      jumpi\n      dup4\n      dup3\n      swap1\n      0x00\n      mstore\n      keccak256(0x00, 0x20)\n      swap1\n      0x05\n      mul\n      add\n      mload(0x40)\n      dup1\n      0xa0\n      add\n      0x40\n      mstore\n      swap1\n      dup2\n      0x00\n      dup3\n      add\n      sload\n      dup2\n      mstore\n      0x20\n      add\n      0x01\n      dup3\n      add\n      sload\n      dup2\n      mstore\n      0x20\n      add\n      0x02\n      dup3\n      add\n      sload\n      dup2\n      mstore\n      0x20\n      add\n      0x03\n      dup3\n      add\n      sload\n      dup2\n      mstore\n      0x20\n      add\n      0x04\n      dup3\n      add\n      sload\n      dup2\n      mstore\n      pop\n      pop\n      dup2\n      mstore\n      0x20\n      add\n      swap1\n      0x01\n      add\n      swap1\n      jump(tag_101)\n    tag_102:\n      pop\n      pop\n      pop\n      pop\n      swap2\n      pop\n        /* \"database/processing/ProcessingDatabase.sol\":2990:3180  function getListFolWarehouse(bytes32 secret)... */\n      pop\n      swap2\n      swap1\n      pop\n      jump\t// out\n        /* \"database/processing/ProcessingDatabase.sol\":2794:2984  function getListPreWarehouse(bytes32 secret)... */\n    tag_37:\n        /* \"database/processing/ProcessingDatabase.sol\":2917:2938  PreWarehouse[] memory */\n      0x60\n        /* \"database/processing/ProcessingDatabase.sol\":2892:2898  secret */\n      dup2\n        /* \"constant/SecretKey.sol\":232:298  0x8e1604a838d0f1a9b2cda14a099e4ceb08e966cc6e05e8296f67b02d61a79f09 */\n      0x8e1604a838d0f1a9b2cda14a099e4ceb08e966cc6e05e8296f67b02d61a79f09\n        /* \"database/processing/ProcessingDatabase.sol\":1027:1039  DATABASE_KEY */\n      0x00\n      shl\n        /* \"database/processing/ProcessingDatabase.sol\":1018:1023  value */\n      dup2\n        /* \"database/processing/ProcessingDatabase.sol\":1018:1039  value == DATABASE_KEY */\n      eq\n        /* \"database/processing/ProcessingDatabase.sol\":997:1110  require(... */\n      tag_105\n      jumpi\n      mload(0x40)\n      0x08c379a000000000000000000000000000000000000000000000000000000000\n      dup2\n      mstore\n      0x04\n      add\n      tag_106\n      swap1\n      tag_83\n      jump\t// in\n    tag_106:\n      mload(0x40)\n      dup1\n      swap2\n      sub\n      swap1\n      revert\n    tag_105:\n        /* \"database/processing/ProcessingDatabase.sol\":2961:2977  listPreWarehouse */\n      0x05\n        /* \"database/processing/ProcessingDatabase.sol\":2954:2977  return listPreWarehouse */\n      dup1\n      sload\n      dup1\n      0x20\n      mul\n      0x20\n      add\n      mload(0x40)\n      swap1\n      dup2\n      add\n      0x40\n      mstore\n      dup1\n      swap3\n      swap2\n      swap1\n      dup2\n      dup2\n      mstore\n      0x20\n      add\n      0x00\n      swap1\n    tag_108:\n      dup3\n      dup3\n      lt\n      iszero\n      tag_109\n      jumpi\n      dup4\n      dup3\n      swap1\n      0x00\n      mstore\n      keccak256(0x00, 0x20)\n      swap1\n      0x06\n      mul\n      add\n      mload(0x40)\n      dup1\n      0xc0\n      add\n      0x40\n      mstore\n      swap1\n      dup2\n      0x00\n      dup3\n      add\n      sload\n      dup2\n      mstore\n      0x20\n      add\n      0x01\n      dup3\n      add\n      sload\n      dup2\n      mstore\n      0x20\n      add\n      0x02\n      dup3\n      add\n      dup1\n      sload\n      dup1\n      0x20\n      mul\n      0x20\n      add\n      mload(0x40)\n      swap1\n      dup2\n      add\n      0x40\n      mstore\n      dup1\n      swap3\n      swap2\n      swap1\n      dup2\n      dup2\n      mstore\n      0x20\n      add\n      dup3\n      dup1\n      sload\n      dup1\n      iszero\n      tag_111\n      jumpi\n      0x20\n      mul\n      dup3\n      add\n      swap2\n      swap1\n      0x00\n      mstore\n      keccak256(0x00, 0x20)\n      swap1\n    tag_112:\n      dup2\n      sload\n      dup2\n      mstore\n      0x20\n      add\n      swap1\n      0x01\n      add\n      swap1\n      dup1\n      dup4\n      gt\n      tag_112\n      jumpi\n    tag_111:\n      pop\n      pop\n      pop\n      pop\n      pop\n      dup2\n      mstore\n      0x20\n      add\n      0x03\n      dup3\n      add\n      sload\n      dup2\n      mstore\n      0x20\n      add\n      0x04\n      dup3\n      add\n      sload\n      dup2\n      mstore\n      0x20\n      add\n      0x05\n      dup3\n      add\n      sload\n      dup2\n      mstore\n      pop\n      pop\n      dup2\n      mstore\n      0x20\n      add\n      swap1\n      0x01\n      add\n      swap1\n      jump(tag_108)\n    tag_109:\n      pop\n      pop\n      pop\n      pop\n      swap2\n      pop\n        /* \"database/processing/ProcessingDatabase.sol\":2794:2984  function getListPreWarehouse(bytes32 secret)... */\n      pop\n      swap2\n      swap1\n      pop\n      jump\t// out\n        /* \"database/processing/ProcessingDatabase.sol\":2607:2788  function getListProcessor(bytes32 secret)... */\n    tag_42:\n        /* \"database/processing/ProcessingDatabase.sol\":2727:2745  Processor[] memory */\n      0x60\n        /* \"database/processing/ProcessingDatabase.sol\":2702:2708  secret */\n      dup2\n        /* \"constant/SecretKey.sol\":232:298  0x8e1604a838d0f1a9b2cda14a099e4ceb08e966cc6e05e8296f67b02d61a79f09 */\n      0x8e1604a838d0f1a9b2cda14a099e4ceb08e966cc6e05e8296f67b02d61a79f09\n        /* \"database/processing/ProcessingDatabase.sol\":1027:1039  DATABASE_KEY */\n      0x00\n      shl\n        /* \"database/processing/ProcessingDatabase.sol\":1018:1023  value */\n      dup2\n        /* \"database/processing/ProcessingDatabase.sol\":1018:1039  value == DATABASE_KEY */\n      eq\n        /* \"database/processing/ProcessingDatabase.sol\":997:1110  require(... */\n      tag_114\n      jumpi\n      mload(0x40)\n      0x08c379a000000000000000000000000000000000000000000000000000000000\n      dup2\n      mstore\n      0x04\n      add\n      tag_115\n      swap1\n      tag_83\n      jump\t// in\n    tag_115:\n      mload(0x40)\n      dup1\n      swap2\n      sub\n      swap1\n      revert\n    tag_114:\n        /* \"database/processing/ProcessingDatabase.sol\":2768:2781  listProcessor */\n      0x02\n        /* \"database/processing/ProcessingDatabase.sol\":2761:2781  return listProcessor */\n      dup1\n      sload\n      dup1\n      0x20\n      mul\n      0x20\n      add\n      mload(0x40)\n      swap1\n      dup2\n      add\n      0x40\n      mstore\n      dup1\n      swap3\n      swap2\n      swap1\n      dup2\n      dup2\n      mstore\n      0x20\n      add\n      0x00\n      swap1\n    tag_117:\n      dup3\n      dup3\n      lt\n      iszero\n      tag_118\n      jumpi\n      dup4\n      dup3\n      swap1\n      0x00\n      mstore\n      keccak256(0x00, 0x20)\n      swap1\n      0x03\n      mul\n      add\n      mload(0x40)\n      dup1\n      0x60\n      add\n      0x40\n      mstore\n      swap1\n      dup2\n      0x00\n      dup3\n      add\n      sload\n      dup2\n      mstore\n      0x20\n      add\n      0x01\n      dup3\n      add\n      0x00\n      swap1\n      sload\n      swap1\n      0x0100\n      exp\n      swap1\n      div\n      0xffffffffffffffffffffffffffffffffffffffff\n      and\n      0xffffffffffffffffffffffffffffffffffffffff\n      and\n      0xffffffffffffffffffffffffffffffffffffffff\n      and\n      dup2\n      mstore\n      0x20\n      add\n      0x02\n      dup3\n      add\n      sload\n      dup2\n      mstore\n      pop\n      pop\n      dup2\n      mstore\n      0x20\n      add\n      swap1\n      0x01\n      add\n      swap1\n      jump(tag_117)\n    tag_118:\n      pop\n      pop\n      pop\n      pop\n      swap2\n      pop\n        /* \"database/processing/ProcessingDatabase.sol\":2607:2788  function getListProcessor(bytes32 secret)... */\n      pop\n      swap2\n      swap1\n      pop\n      jump\t// out\n        /* \"database/processing/ProcessingDatabase.sol\":1387:1634  function addProcessor(Processor memory item, bytes32 secret)... */\n    tag_48:\n        /* \"database/processing/ProcessingDatabase.sol\":1513:1517  bool */\n      0x00\n        /* \"database/processing/ProcessingDatabase.sol\":1488:1494  secret */\n      dup2\n        /* \"constant/SecretKey.sol\":232:298  0x8e1604a838d0f1a9b2cda14a099e4ceb08e966cc6e05e8296f67b02d61a79f09 */\n      0x8e1604a838d0f1a9b2cda14a099e4ceb08e966cc6e05e8296f67b02d61a79f09\n        /* \"database/processing/ProcessingDatabase.sol\":1027:1039  DATABASE_KEY */\n      0x00\n      shl\n        /* \"database/processing/ProcessingDatabase.sol\":1018:1023  value */\n      dup2\n        /* \"database/processing/ProcessingDatabase.sol\":1018:1039  value == DATABASE_KEY */\n      eq\n        /* \"database/processing/ProcessingDatabase.sol\":997:1110  require(... */\n      tag_121\n      jumpi\n      mload(0x40)\n      0x08c379a000000000000000000000000000000000000000000000000000000000\n      dup2\n      mstore\n      0x04\n      add\n      tag_122\n      swap1\n      tag_83\n      jump\t// in\n    tag_122:\n      mload(0x40)\n      dup1\n      swap2\n      sub\n      swap1\n      revert\n    tag_121:\n        /* \"database/processing/ProcessingDatabase.sol\":1552:1565  listProcessor */\n      0x02\n        /* \"database/processing/ProcessingDatabase.sol\":1552:1572  listProcessor.length */\n      dup1\n      sload\n      swap1\n      pop\n        /* \"database/processing/ProcessingDatabase.sol\":1533:1537  item */\n      dup5\n        /* \"database/processing/ProcessingDatabase.sol\":1533:1549  item.processorId */\n      0x00\n      add\n        /* \"database/processing/ProcessingDatabase.sol\":1533:1572  item.processorId = listProcessor.length */\n      dup2\n      dup2\n      mstore\n      pop\n      pop\n        /* \"database/processing/ProcessingDatabase.sol\":1582:1595  listProcessor */\n      0x02\n        /* \"database/processing/ProcessingDatabase.sol\":1601:1605  item */\n      dup5\n        /* \"database/processing/ProcessingDatabase.sol\":1582:1606  listProcessor.push(item) */\n      swap1\n      dup1\n      0x01\n      dup2\n      sload\n      add\n      dup1\n      dup3\n      sstore\n      dup1\n      swap2\n      pop\n      pop\n      0x01\n      swap1\n      sub\n      swap1\n      0x00\n      mstore\n      keccak256(0x00, 0x20)\n      swap1\n      0x03\n      mul\n      add\n      0x00\n      swap1\n      swap2\n      swap1\n      swap2\n      swap1\n      swap2\n      pop\n      0x00\n      dup3\n      add\n      mload\n      dup2\n      0x00\n      add\n      sstore\n      0x20\n      dup3\n      add\n      mload\n      dup2\n      0x01\n      add\n      exp(0x0100, 0x00)\n      dup2\n      sload\n      dup2\n      0xffffffffffffffffffffffffffffffffffffffff\n      mul\n      not\n      and\n      swap1\n      dup4\n      0xffffffffffffffffffffffffffffffffffffffff\n      and\n      mul\n      or\n      swap1\n      sstore\n      pop\n      0x40\n      dup3\n      add\n      mload\n      dup2\n      0x02\n      add\n      sstore\n      pop\n      pop\n        /* \"database/processing/ProcessingDatabase.sol\":1623:1627  true */\n      0x01\n        /* \"database/processing/ProcessingDatabase.sol\":1616:1627  return true */\n      swap2\n      pop\n        /* \"database/processing/ProcessingDatabase.sol\":1387:1634  function addProcessor(Processor memory item, bytes32 secret)... */\n      pop\n      swap3\n      swap2\n      pop\n      pop\n      jump\t// out\n        /* \"database/processing/ProcessingDatabase.sol\":1901:2156  function addFolWarehouse(FolWarehouse memory item, bytes32 secret)... */\n    tag_53:\n        /* \"database/processing/ProcessingDatabase.sol\":2033:2037  bool */\n      0x00\n        /* \"database/processing/ProcessingDatabase.sol\":2008:2014  secret */\n      dup2\n        /* \"constant/SecretKey.sol\":232:298  0x8e1604a838d0f1a9b2cda14a099e4ceb08e966cc6e05e8296f67b02d61a79f09 */\n      0x8e1604a838d0f1a9b2cda14a099e4ceb08e966cc6e05e8296f67b02d61a79f09\n        /* \"database/processing/ProcessingDatabase.sol\":1027:1039  DATABASE_KEY */\n      0x00\n      shl\n        /* \"database/processing/ProcessingDatabase.sol\":1018:1023  value */\n      dup2\n        /* \"database/processing/ProcessingDatabase.sol\":1018:1039  value == DATABASE_KEY */\n      eq\n        /* \"database/processing/ProcessingDatabase.sol\":997:1110  require(... */\n      tag_126\n      jumpi\n      mload(0x40)\n      0x08c379a000000000000000000000000000000000000000000000000000000000\n      dup2\n      mstore\n      0x04\n      add\n      tag_127\n      swap1\n      tag_83\n      jump\t// in\n    tag_127:\n      mload(0x40)\n      dup1\n      swap2\n      sub\n      swap1\n      revert\n    tag_126:\n        /* \"database/processing/ProcessingDatabase.sol\":2068:2084  listFolWarehouse */\n      0x04\n        /* \"database/processing/ProcessingDatabase.sol\":2068:2091  listFolWarehouse.length */\n      dup1\n      sload\n      swap1\n      pop\n        /* \"database/processing/ProcessingDatabase.sol\":2053:2057  item */\n      dup5\n        /* \"database/processing/ProcessingDatabase.sol\":2053:2065  item.batchId */\n      0x00\n      add\n        /* \"database/processing/ProcessingDatabase.sol\":2053:2091  item.batchId = listFolWarehouse.length */\n      dup2\n      dup2\n      mstore\n      pop\n      pop\n        /* \"database/processing/ProcessingDatabase.sol\":2101:2117  listFolWarehouse */\n      0x04\n        /* \"database/processing/ProcessingDatabase.sol\":2123:2127  item */\n      dup5\n        /* \"database/processing/ProcessingDatabase.sol\":2101:2128  listFolWarehouse.push(item) */\n      swap1\n      dup1\n      0x01\n      dup2\n      sload\n      add\n      dup1\n      dup3\n      sstore\n      dup1\n      swap2\n      pop\n      pop\n      0x01\n      swap1\n      sub\n      swap1\n      0x00\n      mstore\n      keccak256(0x00, 0x20)\n      swap1\n      0x05\n      mul\n      add\n      0x00\n      swap1\n      swap2\n      swap1\n      swap2\n      swap1\n      swap2\n      pop\n      0x00\n      dup3\n      add\n      mload\n      dup2\n      0x00\n      add\n      sstore\n      0x20\n      dup3\n      add\n      mload\n      dup2\n      0x01\n      add\n      sstore\n      0x40\n      dup3\n      add\n      mload\n      dup2\n      0x02\n      add\n      sstore\n      0x60\n      dup3\n      add\n      mload\n      dup2\n      0x03\n      add\n      sstore\n      0x80\n      dup3\n      add\n      mload\n      dup2\n      0x04\n      add\n      sstore\n      pop\n      pop\n        /* \"database/processing/ProcessingDatabase.sol\":2145:2149  true */\n      0x01\n        /* \"database/processing/ProcessingDatabase.sol\":2138:2149  return true */\n      swap2\n      pop\n        /* \"database/processing/ProcessingDatabase.sol\":1901:2156  function addFolWarehouse(FolWarehouse memory item, bytes32 secret)... */\n      pop\n      swap3\n      swap2\n      pop\n      pop\n      jump\t// out\n        /* \"database/processing/ProcessingDatabase.sol\":2420:2601  function getListInspector(bytes32 secret)... */\n    tag_57:\n        /* \"database/processing/ProcessingDatabase.sol\":2540:2558  Inspector[] memory */\n      0x60\n        /* \"database/processing/ProcessingDatabase.sol\":2515:2521  secret */\n      dup2\n        /* \"constant/SecretKey.sol\":232:298  0x8e1604a838d0f1a9b2cda14a099e4ceb08e966cc6e05e8296f67b02d61a79f09 */\n      0x8e1604a838d0f1a9b2cda14a099e4ceb08e966cc6e05e8296f67b02d61a79f09\n        /* \"database/processing/ProcessingDatabase.sol\":1027:1039  DATABASE_KEY */\n      0x00\n      shl\n        /* \"database/processing/ProcessingDatabase.sol\":1018:1023  value */\n      dup2\n        /* \"database/processing/ProcessingDatabase.sol\":1018:1039  value == DATABASE_KEY */\n      eq\n        /* \"database/processing/ProcessingDatabase.sol\":997:1110  require(... */\n      tag_131\n      jumpi\n      mload(0x40)\n      0x08c379a000000000000000000000000000000000000000000000000000000000\n      dup2\n      mstore\n      0x04\n      add\n      tag_132\n      swap1\n      tag_83\n      jump\t// in\n    tag_132:\n      mload(0x40)\n      dup1\n      swap2\n      sub\n      swap1\n      revert\n    tag_131:\n        /* \"database/processing/ProcessingDatabase.sol\":2581:2594  listInspector */\n      0x01\n        /* \"database/processing/ProcessingDatabase.sol\":2574:2594  return listInspector */\n      dup1\n      sload\n      dup1\n      0x20\n      mul\n      0x20\n      add\n      mload(0x40)\n      swap1\n      dup2\n      add\n      0x40\n      mstore\n      dup1\n      swap3\n      swap2\n      swap1\n      dup2\n      dup2\n      mstore\n      0x20\n      add\n      0x00\n      swap1\n    tag_134:\n      dup3\n      dup3\n      lt\n      iszero\n      tag_135\n      jumpi\n      dup4\n      dup3\n      swap1\n      0x00\n      mstore\n      keccak256(0x00, 0x20)\n      swap1\n      0x03\n      mul\n      add\n      mload(0x40)\n      dup1\n      0x80\n      add\n      0x40\n      mstore\n      swap1\n      dup2\n      0x00\n      dup3\n      add\n      sload\n      dup2\n      mstore\n      0x20\n      add\n      0x01\n      dup3\n      add\n      0x00\n      swap1\n      sload\n      swap1\n      0x0100\n      exp\n      swap1\n      div\n      0xffffffffffffffffffffffffffffffffffffffff\n      and\n      0xffffffffffffffffffffffffffffffffffffffff\n      and\n      0xffffffffffffffffffffffffffffffffffffffff\n      and\n      dup2\n      mstore\n      0x20\n      add\n      0x01\n      dup3\n      add\n      0x14\n      swap1\n      sload\n      swap1\n      0x0100\n      exp\n      swap1\n      div\n      0xff\n      and\n      0x02\n      dup2\n      gt\n      iszero\n      tag_137\n      jumpi\n      tag_138\n      tag_139\n      jump\t// in\n    tag_138:\n    tag_137:\n      0x02\n      dup2\n      gt\n      iszero\n      tag_140\n      jumpi\n      tag_141\n      tag_139\n      jump\t// in\n    tag_141:\n    tag_140:\n      dup2\n      mstore\n      0x20\n      add\n      0x02\n      dup3\n      add\n      sload\n      dup2\n      mstore\n      pop\n      pop\n      dup2\n      mstore\n      0x20\n      add\n      swap1\n      0x01\n      add\n      swap1\n      jump(tag_134)\n    tag_135:\n      pop\n      pop\n      pop\n      pop\n      swap2\n      pop\n        /* \"database/processing/ProcessingDatabase.sol\":2420:2601  function getListInspector(bytes32 secret)... */\n      pop\n      swap2\n      swap1\n      pop\n      jump\t// out\n        /* \"abstract/Ownable.sol\":2642:2731  function destroy() public onlyOwner {... */\n    tag_61:\n        /* \"abstract/Ownable.sol\":1068:1081  _checkOwner() */\n      tag_143\n        /* \"abstract/Ownable.sol\":1068:1079  _checkOwner */\n      tag_144\n        /* \"abstract/Ownable.sol\":1068:1081  _checkOwner() */\n      jump\t// in\n    tag_143:\n        /* \"abstract/Ownable.sol\":2717:2721  this */\n      address\n        /* \"abstract/Ownable.sol\":2688:2724  selfdestruct(payable(address(this))) */\n      0xffffffffffffffffffffffffffffffffffffffff\n      and\n      selfdestruct\n        /* \"database/processing/ProcessingDatabase.sol\":1134:1381  function addInspector(Inspector memory item, bytes32 secret)... */\n    tag_65:\n        /* \"database/processing/ProcessingDatabase.sol\":1260:1264  bool */\n      0x00\n        /* \"database/processing/ProcessingDatabase.sol\":1235:1241  secret */\n      dup2\n        /* \"constant/SecretKey.sol\":232:298  0x8e1604a838d0f1a9b2cda14a099e4ceb08e966cc6e05e8296f67b02d61a79f09 */\n      0x8e1604a838d0f1a9b2cda14a099e4ceb08e966cc6e05e8296f67b02d61a79f09\n        /* \"database/processing/ProcessingDatabase.sol\":1027:1039  DATABASE_KEY */\n      0x00\n      shl\n        /* \"database/processing/ProcessingDatabase.sol\":1018:1023  value */\n      dup2\n        /* \"database/processing/ProcessingDatabase.sol\":1018:1039  value == DATABASE_KEY */\n      eq\n        /* \"database/processing/ProcessingDatabase.sol\":997:1110  require(... */\n      tag_147\n      jumpi\n      mload(0x40)\n      0x08c379a000000000000000000000000000000000000000000000000000000000\n      dup2\n      mstore\n      0x04\n      add\n      tag_148\n      swap1\n      tag_83\n      jump\t// in\n    tag_148:\n      mload(0x40)\n      dup1\n      swap2\n      sub\n      swap1\n      revert\n    tag_147:\n        /* \"database/processing/ProcessingDatabase.sol\":1299:1312  listInspector */\n      0x01\n        /* \"database/processing/ProcessingDatabase.sol\":1299:1319  listInspector.length */\n      dup1\n      sload\n      swap1\n      pop\n        /* \"database/processing/ProcessingDatabase.sol\":1280:1284  item */\n      dup5\n        /* \"database/processing/ProcessingDatabase.sol\":1280:1296  item.inspectorId */\n      0x00\n      add\n        /* \"database/processing/ProcessingDatabase.sol\":1280:1319  item.inspectorId = listInspector.length */\n      dup2\n      dup2\n      mstore\n      pop\n      pop\n        /* \"database/processing/ProcessingDatabase.sol\":1329:1342  listInspector */\n      0x01\n        /* \"database/processing/ProcessingDatabase.sol\":1348:1352  item */\n      dup5\n        /* \"database/processing/ProcessingDatabase.sol\":1329:1353  listInspector.push(item) */\n      swap1\n      dup1\n      0x01\n      dup2\n      sload\n      add\n      dup1\n      dup3\n      sstore\n      dup1\n      swap2\n      pop\n      pop\n      0x01\n      swap1\n      sub\n      swap1\n      0x00\n      mstore\n      keccak256(0x00, 0x20)\n      swap1\n      0x03\n      mul\n      add\n      0x00\n      swap1\n      swap2\n      swap1\n      swap2\n      swap1\n      swap2\n      pop\n      0x00\n      dup3\n      add\n      mload\n      dup2\n      0x00\n      add\n      sstore\n      0x20\n      dup3\n      add\n      mload\n      dup2\n      0x01\n      add\n      exp(0x0100, 0x00)\n      dup2\n      sload\n      dup2\n      0xffffffffffffffffffffffffffffffffffffffff\n      mul\n      not\n      and\n      swap1\n      dup4\n      0xffffffffffffffffffffffffffffffffffffffff\n      and\n      mul\n      or\n      swap1\n      sstore\n      pop\n      0x40\n      dup3\n      add\n      mload\n      dup2\n      0x01\n      add\n      exp(0x0100, 0x14)\n      dup2\n      sload\n      dup2\n      0xff\n      mul\n      not\n      and\n      swap1\n      dup4\n      0x02\n      dup2\n      gt\n      iszero\n      tag_151\n      jumpi\n      tag_152\n      tag_139\n      jump\t// in\n    tag_152:\n    tag_151:\n      mul\n      or\n      swap1\n      sstore\n      pop\n      0x60\n      dup3\n      add\n      mload\n      dup2\n      0x02\n      add\n      sstore\n      pop\n      pop\n        /* \"database/processing/ProcessingDatabase.sol\":1370:1374  true */\n      0x01\n        /* \"database/processing/ProcessingDatabase.sol\":1363:1374  return true */\n      swap2\n      pop\n        /* \"database/processing/ProcessingDatabase.sol\":1134:1381  function addInspector(Inspector memory item, bytes32 secret)... */\n      pop\n      swap3\n      swap2\n      pop\n      pop\n      jump\t// out\n        /* \"abstract/Ownable.sol\":1175:1260  function owner() public view virtual returns (address) {... */\n    tag_68:\n        /* \"abstract/Ownable.sol\":1221:1228  address */\n      0x00\n        /* \"abstract/Ownable.sol\":1247:1253  _owner */\n      dup1\n      0x00\n      swap1\n      sload\n      swap1\n      0x0100\n      exp\n      swap1\n      div\n      0xffffffffffffffffffffffffffffffffffffffff\n      and\n        /* \"abstract/Ownable.sol\":1240:1253  return _owner */\n      swap1\n      pop\n        /* \"abstract/Ownable.sol\":1175:1260  function owner() public view virtual returns (address) {... */\n      swap1\n      jump\t// out\n        /* \"database/processing/ProcessingDatabase.sol\":1640:1895  function addPreWarehouse(PreWarehouse memory item, bytes32 secret)... */\n    tag_74:\n        /* \"database/processing/ProcessingDatabase.sol\":1772:1776  bool */\n      0x00\n        /* \"database/processing/ProcessingDatabase.sol\":1747:1753  secret */\n      dup2\n        /* \"constant/SecretKey.sol\":232:298  0x8e1604a838d0f1a9b2cda14a099e4ceb08e966cc6e05e8296f67b02d61a79f09 */\n      0x8e1604a838d0f1a9b2cda14a099e4ceb08e966cc6e05e8296f67b02d61a79f09\n        /* \"database/processing/ProcessingDatabase.sol\":1027:1039  DATABASE_KEY */\n      0x00\n      shl\n        /* \"database/processing/ProcessingDatabase.sol\":1018:1023  value */\n      dup2\n        /* \"database/processing/ProcessingDatabase.sol\":1018:1039  value == DATABASE_KEY */\n      eq\n        /* \"database/processing/ProcessingDatabase.sol\":997:1110  require(... */\n      tag_155\n      jumpi\n      mload(0x40)\n      0x08c379a000000000000000000000000000000000000000000000000000000000\n      dup2\n      mstore\n      0x04\n      add\n      tag_156\n      swap1\n      tag_83\n      jump\t// in\n    tag_156:\n      mload(0x40)\n      dup1\n      swap2\n      sub\n      swap1\n      revert\n    tag_155:\n        /* \"database/processing/ProcessingDatabase.sol\":1807:1823  listPreWarehouse */\n      0x05\n        /* \"database/processing/ProcessingDatabase.sol\":1807:1830  listPreWarehouse.length */\n      dup1\n      sload\n      swap1\n      pop\n        /* \"database/processing/ProcessingDatabase.sol\":1792:1796  item */\n      dup5\n        /* \"database/processing/ProcessingDatabase.sol\":1792:1804  item.batchId */\n      0x00\n      add\n        /* \"database/processing/ProcessingDatabase.sol\":1792:1830  item.batchId = listPreWarehouse.length */\n      dup2\n      dup2\n      mstore\n      pop\n      pop\n        /* \"database/processing/ProcessingDatabase.sol\":1840:1856  listPreWarehouse */\n      0x05\n        /* \"database/processing/ProcessingDatabase.sol\":1862:1866  item */\n      dup5\n        /* \"database/processing/ProcessingDatabase.sol\":1840:1867  listPreWarehouse.push(item) */\n      swap1\n      dup1\n      0x01\n      dup2\n      sload\n      add\n      dup1\n      dup3\n      sstore\n      dup1\n      swap2\n      pop\n      pop\n      0x01\n      swap1\n      sub\n      swap1\n      0x00\n      mstore\n      keccak256(0x00, 0x20)\n      swap1\n      0x06\n      mul\n      add\n      0x00\n      swap1\n      swap2\n      swap1\n      swap2\n      swap1\n      swap2\n      pop\n      0x00\n      dup3\n      add\n      mload\n      dup2\n      0x00\n      add\n      sstore\n      0x20\n      dup3\n      add\n      mload\n      dup2\n      0x01\n      add\n      sstore\n      0x40\n      dup3\n      add\n      mload\n      dup2\n      0x02\n      add\n      swap1\n      dup1\n      mload\n      swap1\n      0x20\n      add\n      swap1\n      tag_159\n      swap3\n      swap2\n      swap1\n      tag_87\n      jump\t// in\n    tag_159:\n      pop\n      0x60\n      dup3\n      add\n      mload\n      dup2\n      0x03\n      add\n      sstore\n      0x80\n      dup3\n      add\n      mload\n      dup2\n      0x04\n      add\n      sstore\n      0xa0\n      dup3\n      add\n      mload\n      dup2\n      0x05\n      add\n      sstore\n      pop\n      pop\n        /* \"database/processing/ProcessingDatabase.sol\":1884:1888  true */\n      0x01\n        /* \"database/processing/ProcessingDatabase.sol\":1877:1888  return true */\n      swap2\n      pop\n        /* \"database/processing/ProcessingDatabase.sol\":1640:1895  function addPreWarehouse(PreWarehouse memory item, bytes32 secret)... */\n      pop\n      swap3\n      swap2\n      pop\n      pop\n      jump\t// out\n        /* \"abstract/Ownable.sol\":2063:2295  function transferOwnership(address newOwner) public virtual onlyOwner {... */\n    tag_79:\n        /* \"abstract/Ownable.sol\":1068:1081  _checkOwner() */\n      tag_161\n        /* \"abstract/Ownable.sol\":1068:1079  _checkOwner */\n      tag_144\n        /* \"abstract/Ownable.sol\":1068:1081  _checkOwner() */\n      jump\t// in\n    tag_161:\n        /* \"abstract/Ownable.sol\":2184:2185  0 */\n      0x00\n        /* \"abstract/Ownable.sol\":2164:2186  newOwner != address(0) */\n      0xffffffffffffffffffffffffffffffffffffffff\n      and\n        /* \"abstract/Ownable.sol\":2164:2172  newOwner */\n      dup2\n        /* \"abstract/Ownable.sol\":2164:2186  newOwner != address(0) */\n      0xffffffffffffffffffffffffffffffffffffffff\n      and\n      sub\n        /* \"abstract/Ownable.sol\":2143:2250  require(... */\n      tag_163\n      jumpi\n      mload(0x40)\n      0x08c379a000000000000000000000000000000000000000000000000000000000\n      dup2\n      mstore\n      0x04\n      add\n      tag_164\n      swap1\n      tag_165\n      jump\t// in\n    tag_164:\n      mload(0x40)\n      dup1\n      swap2\n      sub\n      swap1\n      revert\n    tag_163:\n        /* \"abstract/Ownable.sol\":2260:2288  _transferOwnership(newOwner) */\n      tag_166\n        /* \"abstract/Ownable.sol\":2279:2287  newOwner */\n      dup2\n        /* \"abstract/Ownable.sol\":2260:2278  _transferOwnership */\n      tag_167\n        /* \"abstract/Ownable.sol\":2260:2288  _transferOwnership(newOwner) */\n      jump\t// in\n    tag_166:\n        /* \"abstract/Ownable.sol\":2063:2295  function transferOwnership(address newOwner) public virtual onlyOwner {... */\n      pop\n      jump\t// out\n        /* \"abstract/Ownable.sol\":1333:1461  function _checkOwner() internal view virtual {... */\n    tag_144:\n        /* \"abstract/Ownable.sol\":1407:1417  msg.sender */\n      caller\n        /* \"abstract/Ownable.sol\":1396:1417  owner() == msg.sender */\n      0xffffffffffffffffffffffffffffffffffffffff\n      and\n        /* \"abstract/Ownable.sol\":1396:1403  owner() */\n      tag_169\n        /* \"abstract/Ownable.sol\":1396:1401  owner */\n      tag_68\n        /* \"abstract/Ownable.sol\":1396:1403  owner() */\n      jump\t// in\n    tag_169:\n        /* \"abstract/Ownable.sol\":1396:1417  owner() == msg.sender */\n      0xffffffffffffffffffffffffffffffffffffffff\n      and\n      eq\n        /* \"abstract/Ownable.sol\":1388:1454  require(owner() == msg.sender, \"Ownable: caller is not the owner\") */\n      tag_170\n      jumpi\n      mload(0x40)\n      0x08c379a000000000000000000000000000000000000000000000000000000000\n      dup2\n      mstore\n      0x04\n      add\n      tag_171\n      swap1\n      tag_172\n      jump\t// in\n    tag_171:\n      mload(0x40)\n      dup1\n      swap2\n      sub\n      swap1\n      revert\n    tag_170:\n        /* \"abstract/Ownable.sol\":1333:1461  function _checkOwner() internal view virtual {... */\n      jump\t// out\n        /* \"abstract/Ownable.sol\":2449:2636  function _transferOwnership(address newOwner) internal virtual {... */\n    tag_167:\n        /* \"abstract/Ownable.sol\":2522:2538  address oldOwner */\n      0x00\n        /* \"abstract/Ownable.sol\":2541:2547  _owner */\n      dup1\n      0x00\n      swap1\n      sload\n      swap1\n      0x0100\n      exp\n      swap1\n      div\n      0xffffffffffffffffffffffffffffffffffffffff\n      and\n        /* \"abstract/Ownable.sol\":2522:2547  address oldOwner = _owner */\n      swap1\n      pop\n        /* \"abstract/Ownable.sol\":2566:2574  newOwner */\n      dup2\n        /* \"abstract/Ownable.sol\":2557:2563  _owner */\n      0x00\n      dup1\n        /* \"abstract/Ownable.sol\":2557:2574  _owner = newOwner */\n      0x0100\n      exp\n      dup2\n      sload\n      dup2\n      0xffffffffffffffffffffffffffffffffffffffff\n      mul\n      not\n      and\n      swap1\n      dup4\n      0xffffffffffffffffffffffffffffffffffffffff\n      and\n      mul\n      or\n      swap1\n      sstore\n      pop\n        /* \"abstract/Ownable.sol\":2620:2628  newOwner */\n      dup2\n        /* \"abstract/Ownable.sol\":2589:2629  OwnershipTransferred(oldOwner, newOwner) */\n      0xffffffffffffffffffffffffffffffffffffffff\n      and\n        /* \"abstract/Ownable.sol\":2610:2618  oldOwner */\n      dup2\n        /* \"abstract/Ownable.sol\":2589:2629  OwnershipTransferred(oldOwner, newOwner) */\n      0xffffffffffffffffffffffffffffffffffffffff\n      and\n      0x8be0079c531659141344cd1fd0a4f28419497f9722a3daafe3b4186f6b6457e0\n      mload(0x40)\n      mload(0x40)\n      dup1\n      swap2\n      sub\n      swap1\n      log3\n        /* \"abstract/Ownable.sol\":2512:2636  {... */\n      pop\n        /* \"abstract/Ownable.sol\":2449:2636  function _transferOwnership(address newOwner) internal virtual {... */\n      pop\n      jump\t// out\n    tag_87:\n      dup3\n      dup1\n      sload\n      dup3\n      dup3\n      sstore\n      swap1\n      0x00\n      mstore\n      keccak256(0x00, 0x20)\n      swap1\n      dup2\n      add\n      swap3\n      dup3\n      iszero\n      tag_174\n      jumpi\n      swap2\n      0x20\n      mul\n      dup3\n      add\n    tag_175:\n      dup3\n      dup2\n      gt\n      iszero\n      tag_176\n      jumpi\n      dup3\n      mload\n      dup3\n      sstore\n      swap2\n      0x20\n      add\n      swap2\n      swap1\n      0x01\n      add\n      swap1\n      jump(tag_175)\n    tag_176:\n    tag_174:\n      pop\n      swap1\n      pop\n      tag_177\n      swap2\n      swap1\n      tag_178\n      jump\t// in\n    tag_177:\n      pop\n      swap1\n      jump\t// out\n    tag_178:\n    tag_179:\n      dup1\n      dup3\n      gt\n      iszero\n      tag_180\n      jumpi\n      0x00\n      dup2\n      0x00\n      swap1\n      sstore\n      pop\n      0x01\n      add\n      jump(tag_179)\n    tag_180:\n      pop\n      swap1\n      jump\t// out\n        /* \"#utility.yul\":7:82   */\n    tag_181:\n        /* \"#utility.yul\":40:46   */\n      0x00\n        /* \"#utility.yul\":73:75   */\n      0x40\n        /* \"#utility.yul\":67:76   */\n      mload\n        /* \"#utility.yul\":57:76   */\n      swap1\n      pop\n        /* \"#utility.yul\":7:82   */\n      swap1\n      jump\t// out\n        /* \"#utility.yul\":88:205   */\n    tag_182:\n        /* \"#utility.yul\":197:198   */\n      0x00\n        /* \"#utility.yul\":194:195   */\n      dup1\n        /* \"#utility.yul\":187:199   */\n      revert\n        /* \"#utility.yul\":211:328   */\n    tag_183:\n        /* \"#utility.yul\":320:321   */\n      0x00\n        /* \"#utility.yul\":317:318   */\n      dup1\n        /* \"#utility.yul\":310:322   */\n      revert\n        /* \"#utility.yul\":334:451   */\n    tag_184:\n        /* \"#utility.yul\":443:444   */\n      0x00\n        /* \"#utility.yul\":440:441   */\n      dup1\n        /* \"#utility.yul\":433:445   */\n      revert\n        /* \"#utility.yul\":457:559   */\n    tag_185:\n        /* \"#utility.yul\":498:504   */\n      0x00\n        /* \"#utility.yul\":549:551   */\n      0x1f\n        /* \"#utility.yul\":545:552   */\n      not\n        /* \"#utility.yul\":540:542   */\n      0x1f\n        /* \"#utility.yul\":533:538   */\n      dup4\n        /* \"#utility.yul\":529:543   */\n      add\n        /* \"#utility.yul\":525:553   */\n      and\n        /* \"#utility.yul\":515:553   */\n      swap1\n      pop\n        /* \"#utility.yul\":457:559   */\n      swap2\n      swap1\n      pop\n      jump\t// out\n        /* \"#utility.yul\":565:745   */\n    tag_186:\n        /* \"#utility.yul\":613:690   */\n      0x4e487b7100000000000000000000000000000000000000000000000000000000\n        /* \"#utility.yul\":610:611   */\n      0x00\n        /* \"#utility.yul\":603:691   */\n      mstore\n        /* \"#utility.yul\":710:714   */\n      0x41\n        /* \"#utility.yul\":707:708   */\n      0x04\n        /* \"#utility.yul\":700:715   */\n      mstore\n        /* \"#utility.yul\":734:738   */\n      0x24\n        /* \"#utility.yul\":731:732   */\n      0x00\n        /* \"#utility.yul\":724:739   */\n      revert\n        /* \"#utility.yul\":751:1032   */\n    tag_187:\n        /* \"#utility.yul\":834:861   */\n      tag_277\n        /* \"#utility.yul\":856:860   */\n      dup3\n        /* \"#utility.yul\":834:861   */\n      tag_185\n      jump\t// in\n    tag_277:\n        /* \"#utility.yul\":826:832   */\n      dup2\n        /* \"#utility.yul\":822:862   */\n      add\n        /* \"#utility.yul\":964:970   */\n      dup2\n        /* \"#utility.yul\":952:962   */\n      dup2\n        /* \"#utility.yul\":949:971   */\n      lt\n        /* \"#utility.yul\":928:946   */\n      0xffffffffffffffff\n        /* \"#utility.yul\":916:926   */\n      dup3\n        /* \"#utility.yul\":913:947   */\n      gt\n        /* \"#utility.yul\":910:972   */\n      or\n        /* \"#utility.yul\":907:995   */\n      iszero\n      tag_278\n      jumpi\n        /* \"#utility.yul\":975:993   */\n      tag_279\n      tag_186\n      jump\t// in\n    tag_279:\n        /* \"#utility.yul\":907:995   */\n    tag_278:\n        /* \"#utility.yul\":1015:1025   */\n      dup1\n        /* \"#utility.yul\":1011:1013   */\n      0x40\n        /* \"#utility.yul\":1004:1026   */\n      mstore\n        /* \"#utility.yul\":794:1032   */\n      pop\n        /* \"#utility.yul\":751:1032   */\n      pop\n      pop\n      jump\t// out\n        /* \"#utility.yul\":1038:1167   */\n    tag_188:\n        /* \"#utility.yul\":1072:1078   */\n      0x00\n        /* \"#utility.yul\":1099:1119   */\n      tag_281\n      tag_181\n      jump\t// in\n    tag_281:\n        /* \"#utility.yul\":1089:1119   */\n      swap1\n      pop\n        /* \"#utility.yul\":1128:1161   */\n      tag_282\n        /* \"#utility.yul\":1156:1160   */\n      dup3\n        /* \"#utility.yul\":1148:1154   */\n      dup3\n        /* \"#utility.yul\":1128:1161   */\n      tag_187\n      jump\t// in\n    tag_282:\n        /* \"#utility.yul\":1038:1167   */\n      swap2\n      swap1\n      pop\n      jump\t// out\n        /* \"#utility.yul\":1173:1290   */\n    tag_189:\n        /* \"#utility.yul\":1282:1283   */\n      0x00\n        /* \"#utility.yul\":1279:1280   */\n      dup1\n        /* \"#utility.yul\":1272:1284   */\n      revert\n        /* \"#utility.yul\":1296:1373   */\n    tag_190:\n        /* \"#utility.yul\":1333:1340   */\n      0x00\n        /* \"#utility.yul\":1362:1367   */\n      dup2\n        /* \"#utility.yul\":1351:1367   */\n      swap1\n      pop\n        /* \"#utility.yul\":1296:1373   */\n      swap2\n      swap1\n      pop\n      jump\t// out\n        /* \"#utility.yul\":1379:1501   */\n    tag_191:\n        /* \"#utility.yul\":1452:1476   */\n      tag_286\n        /* \"#utility.yul\":1470:1475   */\n      dup2\n        /* \"#utility.yul\":1452:1476   */\n      tag_190\n      jump\t// in\n    tag_286:\n        /* \"#utility.yul\":1445:1450   */\n      dup2\n        /* \"#utility.yul\":1442:1477   */\n      eq\n        /* \"#utility.yul\":1432:1495   */\n      tag_287\n      jumpi\n        /* \"#utility.yul\":1491:1492   */\n      0x00\n        /* \"#utility.yul\":1488:1489   */\n      dup1\n        /* \"#utility.yul\":1481:1493   */\n      revert\n        /* \"#utility.yul\":1432:1495   */\n    tag_287:\n        /* \"#utility.yul\":1379:1501   */\n      pop\n      jump\t// out\n        /* \"#utility.yul\":1507:1646   */\n    tag_192:\n        /* \"#utility.yul\":1553:1558   */\n      0x00\n        /* \"#utility.yul\":1591:1597   */\n      dup2\n        /* \"#utility.yul\":1578:1598   */\n      calldataload\n        /* \"#utility.yul\":1569:1598   */\n      swap1\n      pop\n        /* \"#utility.yul\":1607:1640   */\n      tag_289\n        /* \"#utility.yul\":1634:1639   */\n      dup2\n        /* \"#utility.yul\":1607:1640   */\n      tag_191\n      jump\t// in\n    tag_289:\n        /* \"#utility.yul\":1507:1646   */\n      swap3\n      swap2\n      pop\n      pop\n      jump\t// out\n        /* \"#utility.yul\":1652:1769   */\n    tag_193:\n        /* \"#utility.yul\":1761:1762   */\n      0x00\n        /* \"#utility.yul\":1758:1759   */\n      dup1\n        /* \"#utility.yul\":1751:1763   */\n      revert\n        /* \"#utility.yul\":1775:2086   */\n    tag_194:\n        /* \"#utility.yul\":1852:1856   */\n      0x00\n        /* \"#utility.yul\":1942:1960   */\n      0xffffffffffffffff\n        /* \"#utility.yul\":1934:1940   */\n      dup3\n        /* \"#utility.yul\":1931:1961   */\n      gt\n        /* \"#utility.yul\":1928:1984   */\n      iszero\n      tag_292\n      jumpi\n        /* \"#utility.yul\":1964:1982   */\n      tag_293\n      tag_186\n      jump\t// in\n    tag_293:\n        /* \"#utility.yul\":1928:1984   */\n    tag_292:\n        /* \"#utility.yul\":2014:2018   */\n      0x20\n        /* \"#utility.yul\":2006:2012   */\n      dup3\n        /* \"#utility.yul\":2002:2019   */\n      mul\n        /* \"#utility.yul\":1994:2019   */\n      swap1\n      pop\n        /* \"#utility.yul\":2074:2078   */\n      0x20\n        /* \"#utility.yul\":2068:2072   */\n      dup2\n        /* \"#utility.yul\":2064:2079   */\n      add\n        /* \"#utility.yul\":2056:2079   */\n      swap1\n      pop\n        /* \"#utility.yul\":1775:2086   */\n      swap2\n      swap1\n      pop\n      jump\t// out\n        /* \"#utility.yul\":2092:2209   */\n    tag_195:\n        /* \"#utility.yul\":2201:2202   */\n      0x00\n        /* \"#utility.yul\":2198:2199   */\n      dup1\n        /* \"#utility.yul\":2191:2203   */\n      revert\n        /* \"#utility.yul\":2232:2942   */\n    tag_196:\n        /* \"#utility.yul\":2328:2333   */\n      0x00\n        /* \"#utility.yul\":2353:2434   */\n      tag_296\n        /* \"#utility.yul\":2369:2433   */\n      tag_297\n        /* \"#utility.yul\":2426:2432   */\n      dup5\n        /* \"#utility.yul\":2369:2433   */\n      tag_194\n      jump\t// in\n    tag_297:\n        /* \"#utility.yul\":2353:2434   */\n      tag_188\n      jump\t// in\n    tag_296:\n        /* \"#utility.yul\":2344:2434   */\n      swap1\n      pop\n        /* \"#utility.yul\":2454:2459   */\n      dup1\n        /* \"#utility.yul\":2483:2489   */\n      dup4\n        /* \"#utility.yul\":2476:2481   */\n      dup3\n        /* \"#utility.yul\":2469:2490   */\n      mstore\n        /* \"#utility.yul\":2517:2521   */\n      0x20\n        /* \"#utility.yul\":2510:2515   */\n      dup3\n        /* \"#utility.yul\":2506:2522   */\n      add\n        /* \"#utility.yul\":2499:2522   */\n      swap1\n      pop\n        /* \"#utility.yul\":2570:2574   */\n      0x20\n        /* \"#utility.yul\":2562:2568   */\n      dup5\n        /* \"#utility.yul\":2558:2575   */\n      mul\n        /* \"#utility.yul\":2550:2556   */\n      dup4\n        /* \"#utility.yul\":2546:2576   */\n      add\n        /* \"#utility.yul\":2599:2602   */\n      dup6\n        /* \"#utility.yul\":2591:2597   */\n      dup2\n        /* \"#utility.yul\":2588:2603   */\n      gt\n        /* \"#utility.yul\":2585:2707   */\n      iszero\n      tag_298\n      jumpi\n        /* \"#utility.yul\":2618:2697   */\n      tag_299\n      tag_195\n      jump\t// in\n    tag_299:\n        /* \"#utility.yul\":2585:2707   */\n    tag_298:\n        /* \"#utility.yul\":2733:2739   */\n      dup4\n        /* \"#utility.yul\":2716:2936   */\n    tag_300:\n        /* \"#utility.yul\":2750:2756   */\n      dup2\n        /* \"#utility.yul\":2745:2748   */\n      dup2\n        /* \"#utility.yul\":2742:2757   */\n      lt\n        /* \"#utility.yul\":2716:2936   */\n      iszero\n      tag_302\n      jumpi\n        /* \"#utility.yul\":2825:2828   */\n      dup1\n        /* \"#utility.yul\":2854:2891   */\n      tag_303\n        /* \"#utility.yul\":2887:2890   */\n      dup9\n        /* \"#utility.yul\":2875:2885   */\n      dup3\n        /* \"#utility.yul\":2854:2891   */\n      tag_192\n      jump\t// in\n    tag_303:\n        /* \"#utility.yul\":2849:2852   */\n      dup5\n        /* \"#utility.yul\":2842:2892   */\n      mstore\n        /* \"#utility.yul\":2921:2925   */\n      0x20\n        /* \"#utility.yul\":2916:2919   */\n      dup5\n        /* \"#utility.yul\":2912:2926   */\n      add\n        /* \"#utility.yul\":2905:2926   */\n      swap4\n      pop\n        /* \"#utility.yul\":2792:2936   */\n      pop\n        /* \"#utility.yul\":2776:2780   */\n      0x20\n        /* \"#utility.yul\":2771:2774   */\n      dup2\n        /* \"#utility.yul\":2767:2781   */\n      add\n        /* \"#utility.yul\":2760:2781   */\n      swap1\n      pop\n        /* \"#utility.yul\":2716:2936   */\n      jump(tag_300)\n    tag_302:\n        /* \"#utility.yul\":2720:2741   */\n      pop\n        /* \"#utility.yul\":2334:2942   */\n      pop\n      pop\n        /* \"#utility.yul\":2232:2942   */\n      swap4\n      swap3\n      pop\n      pop\n      pop\n      jump\t// out\n        /* \"#utility.yul\":2965:3335   */\n    tag_197:\n        /* \"#utility.yul\":3036:3041   */\n      0x00\n        /* \"#utility.yul\":3085:3088   */\n      dup3\n        /* \"#utility.yul\":3078:3082   */\n      0x1f\n        /* \"#utility.yul\":3070:3076   */\n      dup4\n        /* \"#utility.yul\":3066:3083   */\n      add\n        /* \"#utility.yul\":3062:3089   */\n      slt\n        /* \"#utility.yul\":3052:3174   */\n      tag_305\n      jumpi\n        /* \"#utility.yul\":3093:3172   */\n      tag_306\n      tag_193\n      jump\t// in\n    tag_306:\n        /* \"#utility.yul\":3052:3174   */\n    tag_305:\n        /* \"#utility.yul\":3210:3216   */\n      dup2\n        /* \"#utility.yul\":3197:3217   */\n      calldataload\n        /* \"#utility.yul\":3235:3329   */\n      tag_307\n        /* \"#utility.yul\":3325:3328   */\n      dup5\n        /* \"#utility.yul\":3317:3323   */\n      dup3\n        /* \"#utility.yul\":3310:3314   */\n      0x20\n        /* \"#utility.yul\":3302:3308   */\n      dup7\n        /* \"#utility.yul\":3298:3315   */\n      add\n        /* \"#utility.yul\":3235:3329   */\n      tag_196\n      jump\t// in\n    tag_307:\n        /* \"#utility.yul\":3226:3329   */\n      swap2\n      pop\n        /* \"#utility.yul\":3042:3335   */\n      pop\n        /* \"#utility.yul\":2965:3335   */\n      swap3\n      swap2\n      pop\n      pop\n      jump\t// out\n        /* \"#utility.yul\":3366:4475   */\n    tag_198:\n        /* \"#utility.yul\":3442:3447   */\n      0x00\n        /* \"#utility.yul\":3486:3490   */\n      0x80\n        /* \"#utility.yul\":3474:3483   */\n      dup3\n        /* \"#utility.yul\":3469:3472   */\n      dup5\n        /* \"#utility.yul\":3465:3484   */\n      sub\n        /* \"#utility.yul\":3461:3491   */\n      slt\n        /* \"#utility.yul\":3458:3575   */\n      iszero\n      tag_309\n      jumpi\n        /* \"#utility.yul\":3494:3573   */\n      tag_310\n      tag_184\n      jump\t// in\n    tag_310:\n        /* \"#utility.yul\":3458:3575   */\n    tag_309:\n        /* \"#utility.yul\":3593:3614   */\n      tag_311\n        /* \"#utility.yul\":3609:3613   */\n      0x80\n        /* \"#utility.yul\":3593:3614   */\n      tag_188\n      jump\t// in\n    tag_311:\n        /* \"#utility.yul\":3584:3614   */\n      swap1\n      pop\n        /* \"#utility.yul\":3681:3682   */\n      0x00\n        /* \"#utility.yul\":3721:3770   */\n      tag_312\n        /* \"#utility.yul\":3766:3769   */\n      dup5\n        /* \"#utility.yul\":3757:3763   */\n      dup3\n        /* \"#utility.yul\":3746:3755   */\n      dup6\n        /* \"#utility.yul\":3742:3764   */\n      add\n        /* \"#utility.yul\":3721:3770   */\n      tag_192\n      jump\t// in\n    tag_312:\n        /* \"#utility.yul\":3714:3718   */\n      0x00\n        /* \"#utility.yul\":3707:3712   */\n      dup4\n        /* \"#utility.yul\":3703:3719   */\n      add\n        /* \"#utility.yul\":3696:3771   */\n      mstore\n        /* \"#utility.yul\":3624:3782   */\n      pop\n        /* \"#utility.yul\":3848:3850   */\n      0x20\n        /* \"#utility.yul\":3889:3938   */\n      tag_313\n        /* \"#utility.yul\":3934:3937   */\n      dup5\n        /* \"#utility.yul\":3925:3931   */\n      dup3\n        /* \"#utility.yul\":3914:3923   */\n      dup6\n        /* \"#utility.yul\":3910:3932   */\n      add\n        /* \"#utility.yul\":3889:3938   */\n      tag_192\n      jump\t// in\n    tag_313:\n        /* \"#utility.yul\":3882:3886   */\n      0x20\n        /* \"#utility.yul\":3875:3880   */\n      dup4\n        /* \"#utility.yul\":3871:3887   */\n      add\n        /* \"#utility.yul\":3864:3939   */\n      mstore\n        /* \"#utility.yul\":3792:3950   */\n      pop\n        /* \"#utility.yul\":4013:4015   */\n      0x40\n        /* \"#utility.yul\":4054:4103   */\n      tag_314\n        /* \"#utility.yul\":4099:4102   */\n      dup5\n        /* \"#utility.yul\":4090:4096   */\n      dup3\n        /* \"#utility.yul\":4079:4088   */\n      dup6\n        /* \"#utility.yul\":4075:4097   */\n      add\n        /* \"#utility.yul\":4054:4103   */\n      tag_192\n      jump\t// in\n    tag_314:\n        /* \"#utility.yul\":4047:4051   */\n      0x40\n        /* \"#utility.yul\":4040:4045   */\n      dup4\n        /* \"#utility.yul\":4036:4052   */\n      add\n        /* \"#utility.yul\":4029:4104   */\n      mstore\n        /* \"#utility.yul\":3960:4115   */\n      pop\n        /* \"#utility.yul\":4209:4211   */\n      0x60\n        /* \"#utility.yul\":4198:4207   */\n      dup3\n        /* \"#utility.yul\":4194:4212   */\n      add\n        /* \"#utility.yul\":4181:4213   */\n      calldataload\n        /* \"#utility.yul\":4240:4258   */\n      0xffffffffffffffff\n        /* \"#utility.yul\":4232:4238   */\n      dup2\n        /* \"#utility.yul\":4229:4259   */\n      gt\n        /* \"#utility.yul\":4226:4343   */\n      iszero\n      tag_315\n      jumpi\n        /* \"#utility.yul\":4262:4341   */\n      tag_316\n      tag_189\n      jump\t// in\n    tag_316:\n        /* \"#utility.yul\":4226:4343   */\n    tag_315:\n        /* \"#utility.yul\":4382:4456   */\n      tag_317\n        /* \"#utility.yul\":4452:4455   */\n      dup5\n        /* \"#utility.yul\":4443:4449   */\n      dup3\n        /* \"#utility.yul\":4432:4441   */\n      dup6\n        /* \"#utility.yul\":4428:4450   */\n      add\n        /* \"#utility.yul\":4382:4456   */\n      tag_197\n      jump\t// in\n    tag_317:\n        /* \"#utility.yul\":4375:4379   */\n      0x60\n        /* \"#utility.yul\":4368:4373   */\n      dup4\n        /* \"#utility.yul\":4364:4380   */\n      add\n        /* \"#utility.yul\":4357:4457   */\n      mstore\n        /* \"#utility.yul\":4125:4468   */\n      pop\n        /* \"#utility.yul\":3366:4475   */\n      swap3\n      swap2\n      pop\n      pop\n      jump\t// out\n        /* \"#utility.yul\":4481:4558   */\n    tag_199:\n        /* \"#utility.yul\":4518:4525   */\n      0x00\n        /* \"#utility.yul\":4547:4552   */\n      dup2\n        /* \"#utility.yul\":4536:4552   */\n      swap1\n      pop\n        /* \"#utility.yul\":4481:4558   */\n      swap2\n      swap1\n      pop\n      jump\t// out\n        /* \"#utility.yul\":4564:4686   */\n    tag_200:\n        /* \"#utility.yul\":4637:4661   */\n      tag_320\n        /* \"#utility.yul\":4655:4660   */\n      dup2\n        /* \"#utility.yul\":4637:4661   */\n      tag_199\n      jump\t// in\n    tag_320:\n        /* \"#utility.yul\":4630:4635   */\n      dup2\n        /* \"#utility.yul\":4627:4662   */\n      eq\n        /* \"#utility.yul\":4617:4680   */\n      tag_321\n      jumpi\n        /* \"#utility.yul\":4676:4677   */\n      0x00\n        /* \"#utility.yul\":4673:4674   */\n      dup1\n        /* \"#utility.yul\":4666:4678   */\n      revert\n        /* \"#utility.yul\":4617:4680   */\n    tag_321:\n        /* \"#utility.yul\":4564:4686   */\n      pop\n      jump\t// out\n        /* \"#utility.yul\":4692:4831   */\n    tag_201:\n        /* \"#utility.yul\":4738:4743   */\n      0x00\n        /* \"#utility.yul\":4776:4782   */\n      dup2\n        /* \"#utility.yul\":4763:4783   */\n      calldataload\n        /* \"#utility.yul\":4754:4783   */\n      swap1\n      pop\n        /* \"#utility.yul\":4792:4825   */\n      tag_323\n        /* \"#utility.yul\":4819:4824   */\n      dup2\n        /* \"#utility.yul\":4792:4825   */\n      tag_200\n      jump\t// in\n    tag_323:\n        /* \"#utility.yul\":4692:4831   */\n      swap3\n      swap2\n      pop\n      pop\n      jump\t// out\n        /* \"#utility.yul\":4837:5525   */\n    tag_20:\n        /* \"#utility.yul\":4932:4938   */\n      0x00\n        /* \"#utility.yul\":4940:4946   */\n      dup1\n        /* \"#utility.yul\":4989:4991   */\n      0x40\n        /* \"#utility.yul\":4977:4986   */\n      dup4\n        /* \"#utility.yul\":4968:4975   */\n      dup6\n        /* \"#utility.yul\":4964:4987   */\n      sub\n        /* \"#utility.yul\":4960:4992   */\n      slt\n        /* \"#utility.yul\":4957:5076   */\n      iszero\n      tag_325\n      jumpi\n        /* \"#utility.yul\":4995:5074   */\n      tag_326\n      tag_182\n      jump\t// in\n    tag_326:\n        /* \"#utility.yul\":4957:5076   */\n    tag_325:\n        /* \"#utility.yul\":5143:5144   */\n      0x00\n        /* \"#utility.yul\":5132:5141   */\n      dup4\n        /* \"#utility.yul\":5128:5145   */\n      add\n        /* \"#utility.yul\":5115:5146   */\n      calldataload\n        /* \"#utility.yul\":5173:5191   */\n      0xffffffffffffffff\n        /* \"#utility.yul\":5165:5171   */\n      dup2\n        /* \"#utility.yul\":5162:5192   */\n      gt\n        /* \"#utility.yul\":5159:5276   */\n      iszero\n      tag_327\n      jumpi\n        /* \"#utility.yul\":5195:5274   */\n      tag_328\n      tag_183\n      jump\t// in\n    tag_328:\n        /* \"#utility.yul\":5159:5276   */\n    tag_327:\n        /* \"#utility.yul\":5300:5380   */\n      tag_329\n        /* \"#utility.yul\":5372:5379   */\n      dup6\n        /* \"#utility.yul\":5363:5369   */\n      dup3\n        /* \"#utility.yul\":5352:5361   */\n      dup7\n        /* \"#utility.yul\":5348:5370   */\n      add\n        /* \"#utility.yul\":5300:5380   */\n      tag_198\n      jump\t// in\n    tag_329:\n        /* \"#utility.yul\":5290:5380   */\n      swap3\n      pop\n        /* \"#utility.yul\":5086:5390   */\n      pop\n        /* \"#utility.yul\":5429:5431   */\n      0x20\n        /* \"#utility.yul\":5455:5508   */\n      tag_330\n        /* \"#utility.yul\":5500:5507   */\n      dup6\n        /* \"#utility.yul\":5491:5497   */\n      dup3\n        /* \"#utility.yul\":5480:5489   */\n      dup7\n        /* \"#utility.yul\":5476:5498   */\n      add\n        /* \"#utility.yul\":5455:5508   */\n      tag_201\n      jump\t// in\n    tag_330:\n        /* \"#utility.yul\":5445:5508   */\n      swap2\n      pop\n        /* \"#utility.yul\":5400:5518   */\n      pop\n        /* \"#utility.yul\":4837:5525   */\n      swap3\n      pop\n      swap3\n      swap1\n      pop\n      jump\t// out\n        /* \"#utility.yul\":5531:5621   */\n    tag_202:\n        /* \"#utility.yul\":5565:5572   */\n      0x00\n        /* \"#utility.yul\":5608:5613   */\n      dup2\n        /* \"#utility.yul\":5601:5614   */\n      iszero\n        /* \"#utility.yul\":5594:5615   */\n      iszero\n        /* \"#utility.yul\":5583:5615   */\n      swap1\n      pop\n        /* \"#utility.yul\":5531:5621   */\n      swap2\n      swap1\n      pop\n      jump\t// out\n        /* \"#utility.yul\":5627:5736   */\n    tag_203:\n        /* \"#utility.yul\":5708:5729   */\n      tag_333\n        /* \"#utility.yul\":5723:5728   */\n      dup2\n        /* \"#utility.yul\":5708:5729   */\n      tag_202\n      jump\t// in\n    tag_333:\n        /* \"#utility.yul\":5703:5706   */\n      dup3\n        /* \"#utility.yul\":5696:5730   */\n      mstore\n        /* \"#utility.yul\":5627:5736   */\n      pop\n      pop\n      jump\t// out\n        /* \"#utility.yul\":5742:5952   */\n    tag_23:\n        /* \"#utility.yul\":5829:5833   */\n      0x00\n        /* \"#utility.yul\":5867:5869   */\n      0x20\n        /* \"#utility.yul\":5856:5865   */\n      dup3\n        /* \"#utility.yul\":5852:5870   */\n      add\n        /* \"#utility.yul\":5844:5870   */\n      swap1\n      pop\n        /* \"#utility.yul\":5880:5945   */\n      tag_335\n        /* \"#utility.yul\":5942:5943   */\n      0x00\n        /* \"#utility.yul\":5931:5940   */\n      dup4\n        /* \"#utility.yul\":5927:5944   */\n      add\n        /* \"#utility.yul\":5918:5924   */\n      dup5\n        /* \"#utility.yul\":5880:5945   */\n      tag_203\n      jump\t// in\n    tag_335:\n        /* \"#utility.yul\":5742:5952   */\n      swap3\n      swap2\n      pop\n      pop\n      jump\t// out\n        /* \"#utility.yul\":5958:6287   */\n    tag_26:\n        /* \"#utility.yul\":6017:6023   */\n      0x00\n        /* \"#utility.yul\":6066:6068   */\n      0x20\n        /* \"#utility.yul\":6054:6063   */\n      dup3\n        /* \"#utility.yul\":6045:6052   */\n      dup5\n        /* \"#utility.yul\":6041:6064   */\n      sub\n        /* \"#utility.yul\":6037:6069   */\n      slt\n        /* \"#utility.yul\":6034:6153   */\n      iszero\n      tag_337\n      jumpi\n        /* \"#utility.yul\":6072:6151   */\n      tag_338\n      tag_182\n      jump\t// in\n    tag_338:\n        /* \"#utility.yul\":6034:6153   */\n    tag_337:\n        /* \"#utility.yul\":6192:6193   */\n      0x00\n        /* \"#utility.yul\":6217:6270   */\n      tag_339\n        /* \"#utility.yul\":6262:6269   */\n      dup5\n        /* \"#utility.yul\":6253:6259   */\n      dup3\n        /* \"#utility.yul\":6242:6251   */\n      dup6\n        /* \"#utility.yul\":6238:6260   */\n      add\n        /* \"#utility.yul\":6217:6270   */\n      tag_201\n      jump\t// in\n    tag_339:\n        /* \"#utility.yul\":6207:6270   */\n      swap2\n      pop\n        /* \"#utility.yul\":6163:6280   */\n      pop\n        /* \"#utility.yul\":5958:6287   */\n      swap3\n      swap2\n      pop\n      pop\n      jump\t// out\n        /* \"#utility.yul\":6293:6434   */\n    tag_204:\n        /* \"#utility.yul\":6387:6393   */\n      0x00\n        /* \"#utility.yul\":6421:6426   */\n      dup2\n        /* \"#utility.yul\":6415:6427   */\n      mload\n        /* \"#utility.yul\":6405:6427   */\n      swap1\n      pop\n        /* \"#utility.yul\":6293:6434   */\n      swap2\n      swap1\n      pop\n      jump\t// out\n        /* \"#utility.yul\":6440:6651   */\n    tag_205:\n        /* \"#utility.yul\":6566:6577   */\n      0x00\n        /* \"#utility.yul\":6600:6606   */\n      dup3\n        /* \"#utility.yul\":6595:6598   */\n      dup3\n        /* \"#utility.yul\":6588:6607   */\n      mstore\n        /* \"#utility.yul\":6640:6644   */\n      0x20\n        /* \"#utility.yul\":6635:6638   */\n      dup3\n        /* \"#utility.yul\":6631:6645   */\n      add\n        /* \"#utility.yul\":6616:6645   */\n      swap1\n      pop\n        /* \"#utility.yul\":6440:6651   */\n      swap3\n      swap2\n      pop\n      pop\n      jump\t// out\n        /* \"#utility.yul\":6657:6816   */\n    tag_206:\n        /* \"#utility.yul\":6751:6755   */\n      0x00\n        /* \"#utility.yul\":6774:6777   */\n      dup2\n        /* \"#utility.yul\":6766:6777   */\n      swap1\n      pop\n        /* \"#utility.yul\":6804:6808   */\n      0x20\n        /* \"#utility.yul\":6799:6802   */\n      dup3\n        /* \"#utility.yul\":6795:6809   */\n      add\n        /* \"#utility.yul\":6787:6809   */\n      swap1\n      pop\n        /* \"#utility.yul\":6657:6816   */\n      swap2\n      swap1\n      pop\n      jump\t// out\n        /* \"#utility.yul\":6822:6930   */\n    tag_207:\n        /* \"#utility.yul\":6899:6923   */\n      tag_344\n        /* \"#utility.yul\":6917:6922   */\n      dup2\n        /* \"#utility.yul\":6899:6923   */\n      tag_190\n      jump\t// in\n    tag_344:\n        /* \"#utility.yul\":6894:6897   */\n      dup3\n        /* \"#utility.yul\":6887:6924   */\n      mstore\n        /* \"#utility.yul\":6822:6930   */\n      pop\n      pop\n      jump\t// out\n        /* \"#utility.yul\":6936:7050   */\n    tag_208:\n        /* \"#utility.yul\":7003:7009   */\n      0x00\n        /* \"#utility.yul\":7037:7042   */\n      dup2\n        /* \"#utility.yul\":7031:7043   */\n      mload\n        /* \"#utility.yul\":7021:7043   */\n      swap1\n      pop\n        /* \"#utility.yul\":6936:7050   */\n      swap2\n      swap1\n      pop\n      jump\t// out\n        /* \"#utility.yul\":7056:7230   */\n    tag_209:\n        /* \"#utility.yul\":7145:7156   */\n      0x00\n        /* \"#utility.yul\":7179:7185   */\n      dup3\n        /* \"#utility.yul\":7174:7177   */\n      dup3\n        /* \"#utility.yul\":7167:7186   */\n      mstore\n        /* \"#utility.yul\":7219:7223   */\n      0x20\n        /* \"#utility.yul\":7214:7217   */\n      dup3\n        /* \"#utility.yul\":7210:7224   */\n      add\n        /* \"#utility.yul\":7195:7224   */\n      swap1\n      pop\n        /* \"#utility.yul\":7056:7230   */\n      swap3\n      swap2\n      pop\n      pop\n      jump\t// out\n        /* \"#utility.yul\":7236:7368   */\n    tag_210:\n        /* \"#utility.yul\":7303:7307   */\n      0x00\n        /* \"#utility.yul\":7326:7329   */\n      dup2\n        /* \"#utility.yul\":7318:7329   */\n      swap1\n      pop\n        /* \"#utility.yul\":7356:7360   */\n      0x20\n        /* \"#utility.yul\":7351:7354   */\n      dup3\n        /* \"#utility.yul\":7347:7361   */\n      add\n        /* \"#utility.yul\":7339:7361   */\n      swap1\n      pop\n        /* \"#utility.yul\":7236:7368   */\n      swap2\n      swap1\n      pop\n      jump\t// out\n        /* \"#utility.yul\":7374:7553   */\n    tag_211:\n        /* \"#utility.yul\":7443:7453   */\n      0x00\n        /* \"#utility.yul\":7464:7510   */\n      tag_349\n        /* \"#utility.yul\":7506:7509   */\n      dup4\n        /* \"#utility.yul\":7498:7504   */\n      dup4\n        /* \"#utility.yul\":7464:7510   */\n      tag_207\n      jump\t// in\n    tag_349:\n        /* \"#utility.yul\":7542:7546   */\n      0x20\n        /* \"#utility.yul\":7537:7540   */\n      dup4\n        /* \"#utility.yul\":7533:7547   */\n      add\n        /* \"#utility.yul\":7519:7547   */\n      swap1\n      pop\n        /* \"#utility.yul\":7374:7553   */\n      swap3\n      swap2\n      pop\n      pop\n      jump\t// out\n        /* \"#utility.yul\":7559:7672   */\n    tag_212:\n        /* \"#utility.yul\":7629:7633   */\n      0x00\n        /* \"#utility.yul\":7661:7665   */\n      0x20\n        /* \"#utility.yul\":7656:7659   */\n      dup3\n        /* \"#utility.yul\":7652:7666   */\n      add\n        /* \"#utility.yul\":7644:7666   */\n      swap1\n      pop\n        /* \"#utility.yul\":7559:7672   */\n      swap2\n      swap1\n      pop\n      jump\t// out\n        /* \"#utility.yul\":7708:8420   */\n    tag_213:\n        /* \"#utility.yul\":7817:7820   */\n      0x00\n        /* \"#utility.yul\":7846:7900   */\n      tag_352\n        /* \"#utility.yul\":7894:7899   */\n      dup3\n        /* \"#utility.yul\":7846:7900   */\n      tag_208\n      jump\t// in\n    tag_352:\n        /* \"#utility.yul\":7916:7992   */\n      tag_353\n        /* \"#utility.yul\":7985:7991   */\n      dup2\n        /* \"#utility.yul\":7980:7983   */\n      dup6\n        /* \"#utility.yul\":7916:7992   */\n      tag_209\n      jump\t// in\n    tag_353:\n        /* \"#utility.yul\":7909:7992   */\n      swap4\n      pop\n        /* \"#utility.yul\":8016:8072   */\n      tag_354\n        /* \"#utility.yul\":8066:8071   */\n      dup4\n        /* \"#utility.yul\":8016:8072   */\n      tag_210\n      jump\t// in\n    tag_354:\n        /* \"#utility.yul\":8095:8102   */\n      dup1\n        /* \"#utility.yul\":8126:8127   */\n      0x00\n        /* \"#utility.yul\":8111:8395   */\n    tag_355:\n        /* \"#utility.yul\":8136:8142   */\n      dup4\n        /* \"#utility.yul\":8133:8134   */\n      dup2\n        /* \"#utility.yul\":8130:8143   */\n      lt\n        /* \"#utility.yul\":8111:8395   */\n      iszero\n      tag_357\n      jumpi\n        /* \"#utility.yul\":8212:8218   */\n      dup2\n        /* \"#utility.yul\":8206:8219   */\n      mload\n        /* \"#utility.yul\":8239:8302   */\n      tag_358\n        /* \"#utility.yul\":8298:8301   */\n      dup9\n        /* \"#utility.yul\":8283:8296   */\n      dup3\n        /* \"#utility.yul\":8239:8302   */\n      tag_211\n      jump\t// in\n    tag_358:\n        /* \"#utility.yul\":8232:8302   */\n      swap8\n      pop\n        /* \"#utility.yul\":8325:8385   */\n      tag_359\n        /* \"#utility.yul\":8378:8384   */\n      dup4\n        /* \"#utility.yul\":8325:8385   */\n      tag_212\n      jump\t// in\n    tag_359:\n        /* \"#utility.yul\":8315:8385   */\n      swap3\n      pop\n        /* \"#utility.yul\":8171:8395   */\n      pop\n        /* \"#utility.yul\":8158:8159   */\n      0x01\n        /* \"#utility.yul\":8155:8156   */\n      dup2\n        /* \"#utility.yul\":8151:8160   */\n      add\n        /* \"#utility.yul\":8146:8160   */\n      swap1\n      pop\n        /* \"#utility.yul\":8111:8395   */\n      jump(tag_355)\n    tag_357:\n        /* \"#utility.yul\":8115:8129   */\n      pop\n        /* \"#utility.yul\":8411:8414   */\n      dup6\n        /* \"#utility.yul\":8404:8414   */\n      swap4\n      pop\n        /* \"#utility.yul\":7822:8420   */\n      pop\n      pop\n      pop\n        /* \"#utility.yul\":7708:8420   */\n      swap3\n      swap2\n      pop\n      pop\n      jump\t// out\n        /* \"#utility.yul\":8472:9476   */\n    tag_214:\n        /* \"#utility.yul\":8585:8588   */\n      0x00\n        /* \"#utility.yul\":8621:8625   */\n      0x80\n        /* \"#utility.yul\":8616:8619   */\n      dup4\n        /* \"#utility.yul\":8612:8626   */\n      add\n        /* \"#utility.yul\":8716:8720   */\n      0x00\n        /* \"#utility.yul\":8709:8714   */\n      dup4\n        /* \"#utility.yul\":8705:8721   */\n      add\n        /* \"#utility.yul\":8699:8722   */\n      mload\n        /* \"#utility.yul\":8735:8798   */\n      tag_361\n        /* \"#utility.yul\":8792:8796   */\n      0x00\n        /* \"#utility.yul\":8787:8790   */\n      dup7\n        /* \"#utility.yul\":8783:8797   */\n      add\n        /* \"#utility.yul\":8769:8781   */\n      dup3\n        /* \"#utility.yul\":8735:8798   */\n      tag_207\n      jump\t// in\n    tag_361:\n        /* \"#utility.yul\":8636:8808   */\n      pop\n        /* \"#utility.yul\":8897:8901   */\n      0x20\n        /* \"#utility.yul\":8890:8895   */\n      dup4\n        /* \"#utility.yul\":8886:8902   */\n      add\n        /* \"#utility.yul\":8880:8903   */\n      mload\n        /* \"#utility.yul\":8916:8979   */\n      tag_362\n        /* \"#utility.yul\":8973:8977   */\n      0x20\n        /* \"#utility.yul\":8968:8971   */\n      dup7\n        /* \"#utility.yul\":8964:8978   */\n      add\n        /* \"#utility.yul\":8950:8962   */\n      dup3\n        /* \"#utility.yul\":8916:8979   */\n      tag_207\n      jump\t// in\n    tag_362:\n        /* \"#utility.yul\":8818:8989   */\n      pop\n        /* \"#utility.yul\":9075:9079   */\n      0x40\n        /* \"#utility.yul\":9068:9073   */\n      dup4\n        /* \"#utility.yul\":9064:9080   */\n      add\n        /* \"#utility.yul\":9058:9081   */\n      mload\n        /* \"#utility.yul\":9094:9157   */\n      tag_363\n        /* \"#utility.yul\":9151:9155   */\n      0x40\n        /* \"#utility.yul\":9146:9149   */\n      dup7\n        /* \"#utility.yul\":9142:9156   */\n      add\n        /* \"#utility.yul\":9128:9140   */\n      dup3\n        /* \"#utility.yul\":9094:9157   */\n      tag_207\n      jump\t// in\n    tag_363:\n        /* \"#utility.yul\":8999:9167   */\n      pop\n        /* \"#utility.yul\":9256:9260   */\n      0x60\n        /* \"#utility.yul\":9249:9254   */\n      dup4\n        /* \"#utility.yul\":9245:9261   */\n      add\n        /* \"#utility.yul\":9239:9262   */\n      mload\n        /* \"#utility.yul\":9309:9312   */\n      dup5\n        /* \"#utility.yul\":9303:9307   */\n      dup3\n        /* \"#utility.yul\":9299:9313   */\n      sub\n        /* \"#utility.yul\":9292:9296   */\n      0x60\n        /* \"#utility.yul\":9287:9290   */\n      dup7\n        /* \"#utility.yul\":9283:9297   */\n      add\n        /* \"#utility.yul\":9276:9314   */\n      mstore\n        /* \"#utility.yul\":9335:9438   */\n      tag_364\n        /* \"#utility.yul\":9433:9437   */\n      dup3\n        /* \"#utility.yul\":9419:9431   */\n      dup3\n        /* \"#utility.yul\":9335:9438   */\n      tag_213\n      jump\t// in\n    tag_364:\n        /* \"#utility.yul\":9327:9438   */\n      swap2\n      pop\n        /* \"#utility.yul\":9177:9449   */\n      pop\n        /* \"#utility.yul\":9466:9470   */\n      dup1\n        /* \"#utility.yul\":9459:9470   */\n      swap2\n      pop\n        /* \"#utility.yul\":8590:9476   */\n      pop\n        /* \"#utility.yul\":8472:9476   */\n      swap3\n      swap2\n      pop\n      pop\n      jump\t// out\n        /* \"#utility.yul\":9482:9746   */\n    tag_215:\n        /* \"#utility.yul\":9605:9615   */\n      0x00\n        /* \"#utility.yul\":9640:9740   */\n      tag_366\n        /* \"#utility.yul\":9736:9739   */\n      dup4\n        /* \"#utility.yul\":9728:9734   */\n      dup4\n        /* \"#utility.yul\":9640:9740   */\n      tag_214\n      jump\t// in\n    tag_366:\n        /* \"#utility.yul\":9626:9740   */\n      swap1\n      pop\n        /* \"#utility.yul\":9482:9746   */\n      swap3\n      swap2\n      pop\n      pop\n      jump\t// out\n        /* \"#utility.yul\":9752:9892   */\n    tag_216:\n        /* \"#utility.yul\":9849:9853   */\n      0x00\n        /* \"#utility.yul\":9881:9885   */\n      0x20\n        /* \"#utility.yul\":9876:9879   */\n      dup3\n        /* \"#utility.yul\":9872:9886   */\n      add\n        /* \"#utility.yul\":9864:9886   */\n      swap1\n      pop\n        /* \"#utility.yul\":9752:9892   */\n      swap2\n      swap1\n      pop\n      jump\t// out\n        /* \"#utility.yul\":9948:11075   */\n    tag_217:\n        /* \"#utility.yul\":10121:10124   */\n      0x00\n        /* \"#utility.yul\":10150:10231   */\n      tag_369\n        /* \"#utility.yul\":10225:10230   */\n      dup3\n        /* \"#utility.yul\":10150:10231   */\n      tag_204\n      jump\t// in\n    tag_369:\n        /* \"#utility.yul\":10247:10360   */\n      tag_370\n        /* \"#utility.yul\":10353:10359   */\n      dup2\n        /* \"#utility.yul\":10348:10351   */\n      dup6\n        /* \"#utility.yul\":10247:10360   */\n      tag_205\n      jump\t// in\n    tag_370:\n        /* \"#utility.yul\":10240:10360   */\n      swap4\n      pop\n        /* \"#utility.yul\":10386:10389   */\n      dup4\n        /* \"#utility.yul\":10431:10435   */\n      0x20\n        /* \"#utility.yul\":10423:10429   */\n      dup3\n        /* \"#utility.yul\":10419:10436   */\n      mul\n        /* \"#utility.yul\":10414:10417   */\n      dup6\n        /* \"#utility.yul\":10410:10437   */\n      add\n        /* \"#utility.yul\":10461:10544   */\n      tag_371\n        /* \"#utility.yul\":10538:10543   */\n      dup6\n        /* \"#utility.yul\":10461:10544   */\n      tag_206\n      jump\t// in\n    tag_371:\n        /* \"#utility.yul\":10567:10574   */\n      dup1\n        /* \"#utility.yul\":10598:10599   */\n      0x00\n        /* \"#utility.yul\":10583:11030   */\n    tag_372:\n        /* \"#utility.yul\":10608:10614   */\n      dup6\n        /* \"#utility.yul\":10605:10606   */\n      dup2\n        /* \"#utility.yul\":10602:10615   */\n      lt\n        /* \"#utility.yul\":10583:11030   */\n      iszero\n      tag_374\n      jumpi\n        /* \"#utility.yul\":10679:10688   */\n      dup5\n        /* \"#utility.yul\":10673:10677   */\n      dup5\n        /* \"#utility.yul\":10669:10689   */\n      sub\n        /* \"#utility.yul\":10664:10667   */\n      dup10\n        /* \"#utility.yul\":10657:10690   */\n      mstore\n        /* \"#utility.yul\":10730:10736   */\n      dup2\n        /* \"#utility.yul\":10724:10737   */\n      mload\n        /* \"#utility.yul\":10758:10876   */\n      tag_375\n        /* \"#utility.yul\":10871:10875   */\n      dup6\n        /* \"#utility.yul\":10856:10869   */\n      dup3\n        /* \"#utility.yul\":10758:10876   */\n      tag_215\n      jump\t// in\n    tag_375:\n        /* \"#utility.yul\":10750:10876   */\n      swap5\n      pop\n        /* \"#utility.yul\":10899:10986   */\n      tag_376\n        /* \"#utility.yul\":10979:10985   */\n      dup4\n        /* \"#utility.yul\":10899:10986   */\n      tag_216\n      jump\t// in\n    tag_376:\n        /* \"#utility.yul\":10889:10986   */\n      swap3\n      pop\n        /* \"#utility.yul\":11015:11019   */\n      0x20\n        /* \"#utility.yul\":11010:11013   */\n      dup11\n        /* \"#utility.yul\":11006:11020   */\n      add\n        /* \"#utility.yul\":10999:11020   */\n      swap10\n      pop\n        /* \"#utility.yul\":10643:11030   */\n      pop\n        /* \"#utility.yul\":10630:10631   */\n      0x01\n        /* \"#utility.yul\":10627:10628   */\n      dup2\n        /* \"#utility.yul\":10623:10632   */\n      add\n        /* \"#utility.yul\":10618:10632   */\n      swap1\n      pop\n        /* \"#utility.yul\":10583:11030   */\n      jump(tag_372)\n    tag_374:\n        /* \"#utility.yul\":10587:10601   */\n      pop\n        /* \"#utility.yul\":11046:11050   */\n      dup3\n        /* \"#utility.yul\":11039:11050   */\n      swap8\n      pop\n        /* \"#utility.yul\":11066:11069   */\n      dup8\n        /* \"#utility.yul\":11059:11069   */\n      swap6\n      pop\n        /* \"#utility.yul\":10126:11075   */\n      pop\n      pop\n      pop\n      pop\n      pop\n        /* \"#utility.yul\":9948:11075   */\n      swap3\n      swap2\n      pop\n      pop\n      jump\t// out\n        /* \"#utility.yul\":11081:11562   */\n    tag_29:\n        /* \"#utility.yul\":11278:11282   */\n      0x00\n        /* \"#utility.yul\":11316:11318   */\n      0x20\n        /* \"#utility.yul\":11305:11314   */\n      dup3\n        /* \"#utility.yul\":11301:11319   */\n      add\n        /* \"#utility.yul\":11293:11319   */\n      swap1\n      pop\n        /* \"#utility.yul\":11365:11374   */\n      dup2\n        /* \"#utility.yul\":11359:11363   */\n      dup2\n        /* \"#utility.yul\":11355:11375   */\n      sub\n        /* \"#utility.yul\":11351:11352   */\n      0x00\n        /* \"#utility.yul\":11340:11349   */\n      dup4\n        /* \"#utility.yul\":11336:11353   */\n      add\n        /* \"#utility.yul\":11329:11376   */\n      mstore\n        /* \"#utility.yul\":11393:11555   */\n      tag_378\n        /* \"#utility.yul\":11550:11554   */\n      dup2\n        /* \"#utility.yul\":11541:11547   */\n      dup5\n        /* \"#utility.yul\":11393:11555   */\n      tag_217\n      jump\t// in\n    tag_378:\n        /* \"#utility.yul\":11385:11555   */\n      swap1\n      pop\n        /* \"#utility.yul\":11081:11562   */\n      swap3\n      swap2\n      pop\n      pop\n      jump\t// out\n        /* \"#utility.yul\":11568:11711   */\n    tag_218:\n        /* \"#utility.yul\":11664:11670   */\n      0x00\n        /* \"#utility.yul\":11698:11703   */\n      dup2\n        /* \"#utility.yul\":11692:11704   */\n      mload\n        /* \"#utility.yul\":11682:11704   */\n      swap1\n      pop\n        /* \"#utility.yul\":11568:11711   */\n      swap2\n      swap1\n      pop\n      jump\t// out\n        /* \"#utility.yul\":11717:11930   */\n    tag_219:\n        /* \"#utility.yul\":11845:11856   */\n      0x00\n        /* \"#utility.yul\":11879:11885   */\n      dup3\n        /* \"#utility.yul\":11874:11877   */\n      dup3\n        /* \"#utility.yul\":11867:11886   */\n      mstore\n        /* \"#utility.yul\":11919:11923   */\n      0x20\n        /* \"#utility.yul\":11914:11917   */\n      dup3\n        /* \"#utility.yul\":11910:11924   */\n      add\n        /* \"#utility.yul\":11895:11924   */\n      swap1\n      pop\n        /* \"#utility.yul\":11717:11930   */\n      swap3\n      swap2\n      pop\n      pop\n      jump\t// out\n        /* \"#utility.yul\":11936:12097   */\n    tag_220:\n        /* \"#utility.yul\":12032:12036   */\n      0x00\n        /* \"#utility.yul\":12055:12058   */\n      dup2\n        /* \"#utility.yul\":12047:12058   */\n      swap1\n      pop\n        /* \"#utility.yul\":12085:12089   */\n      0x20\n        /* \"#utility.yul\":12080:12083   */\n      dup3\n        /* \"#utility.yul\":12076:12090   */\n      add\n        /* \"#utility.yul\":12068:12090   */\n      swap1\n      pop\n        /* \"#utility.yul\":11936:12097   */\n      swap2\n      swap1\n      pop\n      jump\t// out\n        /* \"#utility.yul\":12153:13199   */\n    tag_221:\n        /* \"#utility.yul\":12298:12302   */\n      0xa0\n        /* \"#utility.yul\":12293:12296   */\n      dup3\n        /* \"#utility.yul\":12289:12303   */\n      add\n        /* \"#utility.yul\":12388:12392   */\n      0x00\n        /* \"#utility.yul\":12381:12386   */\n      dup3\n        /* \"#utility.yul\":12377:12393   */\n      add\n        /* \"#utility.yul\":12371:12394   */\n      mload\n        /* \"#utility.yul\":12407:12470   */\n      tag_383\n        /* \"#utility.yul\":12464:12468   */\n      0x00\n        /* \"#utility.yul\":12459:12462   */\n      dup6\n        /* \"#utility.yul\":12455:12469   */\n      add\n        /* \"#utility.yul\":12441:12453   */\n      dup3\n        /* \"#utility.yul\":12407:12470   */\n      tag_207\n      jump\t// in\n    tag_383:\n        /* \"#utility.yul\":12313:12480   */\n      pop\n        /* \"#utility.yul\":12570:12574   */\n      0x20\n        /* \"#utility.yul\":12563:12568   */\n      dup3\n        /* \"#utility.yul\":12559:12575   */\n      add\n        /* \"#utility.yul\":12553:12576   */\n      mload\n        /* \"#utility.yul\":12589:12652   */\n      tag_384\n        /* \"#utility.yul\":12646:12650   */\n      0x20\n        /* \"#utility.yul\":12641:12644   */\n      dup6\n        /* \"#utility.yul\":12637:12651   */\n      add\n        /* \"#utility.yul\":12623:12635   */\n      dup3\n        /* \"#utility.yul\":12589:12652   */\n      tag_207\n      jump\t// in\n    tag_384:\n        /* \"#utility.yul\":12490:12662   */\n      pop\n        /* \"#utility.yul\":12748:12752   */\n      0x40\n        /* \"#utility.yul\":12741:12746   */\n      dup3\n        /* \"#utility.yul\":12737:12753   */\n      add\n        /* \"#utility.yul\":12731:12754   */\n      mload\n        /* \"#utility.yul\":12767:12830   */\n      tag_385\n        /* \"#utility.yul\":12824:12828   */\n      0x40\n        /* \"#utility.yul\":12819:12822   */\n      dup6\n        /* \"#utility.yul\":12815:12829   */\n      add\n        /* \"#utility.yul\":12801:12813   */\n      dup3\n        /* \"#utility.yul\":12767:12830   */\n      tag_207\n      jump\t// in\n    tag_385:\n        /* \"#utility.yul\":12672:12840   */\n      pop\n        /* \"#utility.yul\":12922:12926   */\n      0x60\n        /* \"#utility.yul\":12915:12920   */\n      dup3\n        /* \"#utility.yul\":12911:12927   */\n      add\n        /* \"#utility.yul\":12905:12928   */\n      mload\n        /* \"#utility.yul\":12941:13004   */\n      tag_386\n        /* \"#utility.yul\":12998:13002   */\n      0x60\n        /* \"#utility.yul\":12993:12996   */\n      dup6\n        /* \"#utility.yul\":12989:13003   */\n      add\n        /* \"#utility.yul\":12975:12987   */\n      dup3\n        /* \"#utility.yul\":12941:13004   */\n      tag_207\n      jump\t// in\n    tag_386:\n        /* \"#utility.yul\":12850:13014   */\n      pop\n        /* \"#utility.yul\":13100:13104   */\n      0x80\n        /* \"#utility.yul\":13093:13098   */\n      dup3\n        /* \"#utility.yul\":13089:13105   */\n      add\n        /* \"#utility.yul\":13083:13106   */\n      mload\n        /* \"#utility.yul\":13119:13182   */\n      tag_387\n        /* \"#utility.yul\":13176:13180   */\n      0x80\n        /* \"#utility.yul\":13171:13174   */\n      dup6\n        /* \"#utility.yul\":13167:13181   */\n      add\n        /* \"#utility.yul\":13153:13165   */\n      dup3\n        /* \"#utility.yul\":13119:13182   */\n      tag_207\n      jump\t// in\n    tag_387:\n        /* \"#utility.yul\":13024:13192   */\n      pop\n        /* \"#utility.yul\":12267:13199   */\n      pop\n        /* \"#utility.yul\":12153:13199   */\n      pop\n      pop\n      jump\t// out\n        /* \"#utility.yul\":13205:13500   */\n    tag_222:\n        /* \"#utility.yul\":13332:13342   */\n      0x00\n        /* \"#utility.yul\":13353:13457   */\n      tag_389\n        /* \"#utility.yul\":13453:13456   */\n      dup4\n        /* \"#utility.yul\":13445:13451   */\n      dup4\n        /* \"#utility.yul\":13353:13457   */\n      tag_221\n      jump\t// in\n    tag_389:\n        /* \"#utility.yul\":13489:13493   */\n      0xa0\n        /* \"#utility.yul\":13484:13487   */\n      dup4\n        /* \"#utility.yul\":13480:13494   */\n      add\n        /* \"#utility.yul\":13466:13494   */\n      swap1\n      pop\n        /* \"#utility.yul\":13205:13500   */\n      swap3\n      swap2\n      pop\n      pop\n      jump\t// out\n        /* \"#utility.yul\":13506:13648   */\n    tag_223:\n        /* \"#utility.yul\":13605:13609   */\n      0x00\n        /* \"#utility.yul\":13637:13641   */\n      0x20\n        /* \"#utility.yul\":13632:13635   */\n      dup3\n        /* \"#utility.yul\":13628:13642   */\n      add\n        /* \"#utility.yul\":13620:13642   */\n      swap1\n      pop\n        /* \"#utility.yul\":13506:13648   */\n      swap2\n      swap1\n      pop\n      jump\t// out\n        /* \"#utility.yul\":13708:14672   */\n    tag_224:\n        /* \"#utility.yul\":13885:13888   */\n      0x00\n        /* \"#utility.yul\":13914:13997   */\n      tag_392\n        /* \"#utility.yul\":13991:13996   */\n      dup3\n        /* \"#utility.yul\":13914:13997   */\n      tag_218\n      jump\t// in\n    tag_392:\n        /* \"#utility.yul\":14013:14128   */\n      tag_393\n        /* \"#utility.yul\":14121:14127   */\n      dup2\n        /* \"#utility.yul\":14116:14119   */\n      dup6\n        /* \"#utility.yul\":14013:14128   */\n      tag_219\n      jump\t// in\n    tag_393:\n        /* \"#utility.yul\":14006:14128   */\n      swap4\n      pop\n        /* \"#utility.yul\":14152:14237   */\n      tag_394\n        /* \"#utility.yul\":14231:14236   */\n      dup4\n        /* \"#utility.yul\":14152:14237   */\n      tag_220\n      jump\t// in\n    tag_394:\n        /* \"#utility.yul\":14260:14267   */\n      dup1\n        /* \"#utility.yul\":14291:14292   */\n      0x00\n        /* \"#utility.yul\":14276:14647   */\n    tag_395:\n        /* \"#utility.yul\":14301:14307   */\n      dup4\n        /* \"#utility.yul\":14298:14299   */\n      dup2\n        /* \"#utility.yul\":14295:14308   */\n      lt\n        /* \"#utility.yul\":14276:14647   */\n      iszero\n      tag_397\n      jumpi\n        /* \"#utility.yul\":14377:14383   */\n      dup2\n        /* \"#utility.yul\":14371:14384   */\n      mload\n        /* \"#utility.yul\":14404:14525   */\n      tag_398\n        /* \"#utility.yul\":14521:14524   */\n      dup9\n        /* \"#utility.yul\":14506:14519   */\n      dup3\n        /* \"#utility.yul\":14404:14525   */\n      tag_222\n      jump\t// in\n    tag_398:\n        /* \"#utility.yul\":14397:14525   */\n      swap8\n      pop\n        /* \"#utility.yul\":14548:14637   */\n      tag_399\n        /* \"#utility.yul\":14630:14636   */\n      dup4\n        /* \"#utility.yul\":14548:14637   */\n      tag_223\n      jump\t// in\n    tag_399:\n        /* \"#utility.yul\":14538:14637   */\n      swap3\n      pop\n        /* \"#utility.yul\":14336:14647   */\n      pop\n        /* \"#utility.yul\":14323:14324   */\n      0x01\n        /* \"#utility.yul\":14320:14321   */\n      dup2\n        /* \"#utility.yul\":14316:14325   */\n      add\n        /* \"#utility.yul\":14311:14325   */\n      swap1\n      pop\n        /* \"#utility.yul\":14276:14647   */\n      jump(tag_395)\n    tag_397:\n        /* \"#utility.yul\":14280:14294   */\n      pop\n        /* \"#utility.yul\":14663:14666   */\n      dup6\n        /* \"#utility.yul\":14656:14666   */\n      swap4\n      pop\n        /* \"#utility.yul\":13890:14672   */\n      pop\n      pop\n      pop\n        /* \"#utility.yul\":13708:14672   */\n      swap3\n      swap2\n      pop\n      pop\n      jump\t// out\n        /* \"#utility.yul\":14678:15167   */\n    tag_34:\n        /* \"#utility.yul\":14879:14883   */\n      0x00\n        /* \"#utility.yul\":14917:14919   */\n      0x20\n        /* \"#utility.yul\":14906:14915   */\n      dup3\n        /* \"#utility.yul\":14902:14920   */\n      add\n        /* \"#utility.yul\":14894:14920   */\n      swap1\n      pop\n        /* \"#utility.yul\":14966:14975   */\n      dup2\n        /* \"#utility.yul\":14960:14964   */\n      dup2\n        /* \"#utility.yul\":14956:14976   */\n      sub\n        /* \"#utility.yul\":14952:14953   */\n      0x00\n        /* \"#utility.yul\":14941:14950   */\n      dup4\n        /* \"#utility.yul\":14937:14954   */\n      add\n        /* \"#utility.yul\":14930:14977   */\n      mstore\n        /* \"#utility.yul\":14994:15160   */\n      tag_401\n        /* \"#utility.yul\":15155:15159   */\n      dup2\n        /* \"#utility.yul\":15146:15152   */\n      dup5\n        /* \"#utility.yul\":14994:15160   */\n      tag_224\n      jump\t// in\n    tag_401:\n        /* \"#utility.yul\":14986:15160   */\n      swap1\n      pop\n        /* \"#utility.yul\":14678:15167   */\n      swap3\n      swap2\n      pop\n      pop\n      jump\t// out\n        /* \"#utility.yul\":15173:15316   */\n    tag_225:\n        /* \"#utility.yul\":15269:15275   */\n      0x00\n        /* \"#utility.yul\":15303:15308   */\n      dup2\n        /* \"#utility.yul\":15297:15309   */\n      mload\n        /* \"#utility.yul\":15287:15309   */\n      swap1\n      pop\n        /* \"#utility.yul\":15173:15316   */\n      swap2\n      swap1\n      pop\n      jump\t// out\n        /* \"#utility.yul\":15322:15535   */\n    tag_226:\n        /* \"#utility.yul\":15450:15461   */\n      0x00\n        /* \"#utility.yul\":15484:15490   */\n      dup3\n        /* \"#utility.yul\":15479:15482   */\n      dup3\n        /* \"#utility.yul\":15472:15491   */\n      mstore\n        /* \"#utility.yul\":15524:15528   */\n      0x20\n        /* \"#utility.yul\":15519:15522   */\n      dup3\n        /* \"#utility.yul\":15515:15529   */\n      add\n        /* \"#utility.yul\":15500:15529   */\n      swap1\n      pop\n        /* \"#utility.yul\":15322:15535   */\n      swap3\n      swap2\n      pop\n      pop\n      jump\t// out\n        /* \"#utility.yul\":15541:15702   */\n    tag_227:\n        /* \"#utility.yul\":15637:15641   */\n      0x00\n        /* \"#utility.yul\":15660:15663   */\n      dup2\n        /* \"#utility.yul\":15652:15663   */\n      swap1\n      pop\n        /* \"#utility.yul\":15690:15694   */\n      0x20\n        /* \"#utility.yul\":15685:15688   */\n      dup3\n        /* \"#utility.yul\":15681:15695   */\n      add\n        /* \"#utility.yul\":15673:15695   */\n      swap1\n      pop\n        /* \"#utility.yul\":15541:15702   */\n      swap2\n      swap1\n      pop\n      jump\t// out\n        /* \"#utility.yul\":15758:17113   */\n    tag_228:\n        /* \"#utility.yul\":15875:15878   */\n      0x00\n        /* \"#utility.yul\":15911:15915   */\n      0xc0\n        /* \"#utility.yul\":15906:15909   */\n      dup4\n        /* \"#utility.yul\":15902:15916   */\n      add\n        /* \"#utility.yul\":16001:16005   */\n      0x00\n        /* \"#utility.yul\":15994:15999   */\n      dup4\n        /* \"#utility.yul\":15990:16006   */\n      add\n        /* \"#utility.yul\":15984:16007   */\n      mload\n        /* \"#utility.yul\":16020:16083   */\n      tag_406\n        /* \"#utility.yul\":16077:16081   */\n      0x00\n        /* \"#utility.yul\":16072:16075   */\n      dup7\n        /* \"#utility.yul\":16068:16082   */\n      add\n        /* \"#utility.yul\":16054:16066   */\n      dup3\n        /* \"#utility.yul\":16020:16083   */\n      tag_207\n      jump\t// in\n    tag_406:\n        /* \"#utility.yul\":15926:16093   */\n      pop\n        /* \"#utility.yul\":16182:16186   */\n      0x20\n        /* \"#utility.yul\":16175:16180   */\n      dup4\n        /* \"#utility.yul\":16171:16187   */\n      add\n        /* \"#utility.yul\":16165:16188   */\n      mload\n        /* \"#utility.yul\":16201:16264   */\n      tag_407\n        /* \"#utility.yul\":16258:16262   */\n      0x20\n        /* \"#utility.yul\":16253:16256   */\n      dup7\n        /* \"#utility.yul\":16249:16263   */\n      add\n        /* \"#utility.yul\":16235:16247   */\n      dup3\n        /* \"#utility.yul\":16201:16264   */\n      tag_207\n      jump\t// in\n    tag_407:\n        /* \"#utility.yul\":16103:16274   */\n      pop\n        /* \"#utility.yul\":16363:16367   */\n      0x40\n        /* \"#utility.yul\":16356:16361   */\n      dup4\n        /* \"#utility.yul\":16352:16368   */\n      add\n        /* \"#utility.yul\":16346:16369   */\n      mload\n        /* \"#utility.yul\":16416:16419   */\n      dup5\n        /* \"#utility.yul\":16410:16414   */\n      dup3\n        /* \"#utility.yul\":16406:16420   */\n      sub\n        /* \"#utility.yul\":16399:16403   */\n      0x40\n        /* \"#utility.yul\":16394:16397   */\n      dup7\n        /* \"#utility.yul\":16390:16404   */\n      add\n        /* \"#utility.yul\":16383:16421   */\n      mstore\n        /* \"#utility.yul\":16442:16545   */\n      tag_408\n        /* \"#utility.yul\":16540:16544   */\n      dup3\n        /* \"#utility.yul\":16526:16538   */\n      dup3\n        /* \"#utility.yul\":16442:16545   */\n      tag_213\n      jump\t// in\n    tag_408:\n        /* \"#utility.yul\":16434:16545   */\n      swap2\n      pop\n        /* \"#utility.yul\":16284:16556   */\n      pop\n        /* \"#utility.yul\":16642:16646   */\n      0x60\n        /* \"#utility.yul\":16635:16640   */\n      dup4\n        /* \"#utility.yul\":16631:16647   */\n      add\n        /* \"#utility.yul\":16625:16648   */\n      mload\n        /* \"#utility.yul\":16661:16724   */\n      tag_409\n        /* \"#utility.yul\":16718:16722   */\n      0x60\n        /* \"#utility.yul\":16713:16716   */\n      dup7\n        /* \"#utility.yul\":16709:16723   */\n      add\n        /* \"#utility.yul\":16695:16707   */\n      dup3\n        /* \"#utility.yul\":16661:16724   */\n      tag_207\n      jump\t// in\n    tag_409:\n        /* \"#utility.yul\":16566:16734   */\n      pop\n        /* \"#utility.yul\":16816:16820   */\n      0x80\n        /* \"#utility.yul\":16809:16814   */\n      dup4\n        /* \"#utility.yul\":16805:16821   */\n      add\n        /* \"#utility.yul\":16799:16822   */\n      mload\n        /* \"#utility.yul\":16835:16898   */\n      tag_410\n        /* \"#utility.yul\":16892:16896   */\n      0x80\n        /* \"#utility.yul\":16887:16890   */\n      dup7\n        /* \"#utility.yul\":16883:16897   */\n      add\n        /* \"#utility.yul\":16869:16881   */\n      dup3\n        /* \"#utility.yul\":16835:16898   */\n      tag_207\n      jump\t// in\n    tag_410:\n        /* \"#utility.yul\":16744:16908   */\n      pop\n        /* \"#utility.yul\":16994:16998   */\n      0xa0\n        /* \"#utility.yul\":16987:16992   */\n      dup4\n        /* \"#utility.yul\":16983:16999   */\n      add\n        /* \"#utility.yul\":16977:17000   */\n      mload\n        /* \"#utility.yul\":17013:17076   */\n      tag_411\n        /* \"#utility.yul\":17070:17074   */\n      0xa0\n        /* \"#utility.yul\":17065:17068   */\n      dup7\n        /* \"#utility.yul\":17061:17075   */\n      add\n        /* \"#utility.yul\":17047:17059   */\n      dup3\n        /* \"#utility.yul\":17013:17076   */\n      tag_207\n      jump\t// in\n    tag_411:\n        /* \"#utility.yul\":16918:17086   */\n      pop\n        /* \"#utility.yul\":17103:17107   */\n      dup1\n        /* \"#utility.yul\":17096:17107   */\n      swap2\n      pop\n        /* \"#utility.yul\":15880:17113   */\n      pop\n        /* \"#utility.yul\":15758:17113   */\n      swap3\n      swap2\n      pop\n      pop\n      jump\t// out\n        /* \"#utility.yul\":17119:17391   */\n    tag_229:\n        /* \"#utility.yul\":17246:17256   */\n      0x00\n        /* \"#utility.yul\":17281:17385   */\n      tag_413\n        /* \"#utility.yul\":17381:17384   */\n      dup4\n        /* \"#utility.yul\":17373:17379   */\n      dup4\n        /* \"#utility.yul\":17281:17385   */\n      tag_228\n      jump\t// in\n    tag_413:\n        /* \"#utility.yul\":17267:17385   */\n      swap1\n      pop\n        /* \"#utility.yul\":17119:17391   */\n      swap3\n      swap2\n      pop\n      pop\n      jump\t// out\n        /* \"#utility.yul\":17397:17539   */\n    tag_230:\n        /* \"#utility.yul\":17496:17500   */\n      0x00\n        /* \"#utility.yul\":17528:17532   */\n      0x20\n        /* \"#utility.yul\":17523:17526   */\n      dup3\n        /* \"#utility.yul\":17519:17533   */\n      add\n        /* \"#utility.yul\":17511:17533   */\n      swap1\n      pop\n        /* \"#utility.yul\":17397:17539   */\n      swap2\n      swap1\n      pop\n      jump\t// out\n        /* \"#utility.yul\":17599:18742   */\n    tag_231:\n        /* \"#utility.yul\":17776:17779   */\n      0x00\n        /* \"#utility.yul\":17805:17888   */\n      tag_416\n        /* \"#utility.yul\":17882:17887   */\n      dup3\n        /* \"#utility.yul\":17805:17888   */\n      tag_225\n      jump\t// in\n    tag_416:\n        /* \"#utility.yul\":17904:18019   */\n      tag_417\n        /* \"#utility.yul\":18012:18018   */\n      dup2\n        /* \"#utility.yul\":18007:18010   */\n      dup6\n        /* \"#utility.yul\":17904:18019   */\n      tag_226\n      jump\t// in\n    tag_417:\n        /* \"#utility.yul\":17897:18019   */\n      swap4\n      pop\n        /* \"#utility.yul\":18045:18048   */\n      dup4\n        /* \"#utility.yul\":18090:18094   */\n      0x20\n        /* \"#utility.yul\":18082:18088   */\n      dup3\n        /* \"#utility.yul\":18078:18095   */\n      mul\n        /* \"#utility.yul\":18073:18076   */\n      dup6\n        /* \"#utility.yul\":18069:18096   */\n      add\n        /* \"#utility.yul\":18120:18205   */\n      tag_418\n        /* \"#utility.yul\":18199:18204   */\n      dup6\n        /* \"#utility.yul\":18120:18205   */\n      tag_227\n      jump\t// in\n    tag_418:\n        /* \"#utility.yul\":18228:18235   */\n      dup1\n        /* \"#utility.yul\":18259:18260   */\n      0x00\n        /* \"#utility.yul\":18244:18697   */\n    tag_419:\n        /* \"#utility.yul\":18269:18275   */\n      dup6\n        /* \"#utility.yul\":18266:18267   */\n      dup2\n        /* \"#utility.yul\":18263:18276   */\n      lt\n        /* \"#utility.yul\":18244:18697   */\n      iszero\n      tag_421\n      jumpi\n        /* \"#utility.yul\":18340:18349   */\n      dup5\n        /* \"#utility.yul\":18334:18338   */\n      dup5\n        /* \"#utility.yul\":18330:18350   */\n      sub\n        /* \"#utility.yul\":18325:18328   */\n      dup10\n        /* \"#utility.yul\":18318:18351   */\n      mstore\n        /* \"#utility.yul\":18391:18397   */\n      dup2\n        /* \"#utility.yul\":18385:18398   */\n      mload\n        /* \"#utility.yul\":18419:18541   */\n      tag_422\n        /* \"#utility.yul\":18536:18540   */\n      dup6\n        /* \"#utility.yul\":18521:18534   */\n      dup3\n        /* \"#utility.yul\":18419:18541   */\n      tag_229\n      jump\t// in\n    tag_422:\n        /* \"#utility.yul\":18411:18541   */\n      swap5\n      pop\n        /* \"#utility.yul\":18564:18653   */\n      tag_423\n        /* \"#utility.yul\":18646:18652   */\n      dup4\n        /* \"#utility.yul\":18564:18653   */\n      tag_230\n      jump\t// in\n    tag_423:\n        /* \"#utility.yul\":18554:18653   */\n      swap3\n      pop\n        /* \"#utility.yul\":18682:18686   */\n      0x20\n        /* \"#utility.yul\":18677:18680   */\n      dup11\n        /* \"#utility.yul\":18673:18687   */\n      add\n        /* \"#utility.yul\":18666:18687   */\n      swap10\n      pop\n        /* \"#utility.yul\":18304:18697   */\n      pop\n        /* \"#utility.yul\":18291:18292   */\n      0x01\n        /* \"#utility.yul\":18288:18289   */\n      dup2\n        /* \"#utility.yul\":18284:18293   */\n      add\n        /* \"#utility.yul\":18279:18293   */\n      swap1\n      pop\n        /* \"#utility.yul\":18244:18697   */\n      jump(tag_419)\n    tag_421:\n        /* \"#utility.yul\":18248:18262   */\n      pop\n        /* \"#utility.yul\":18713:18717   */\n      dup3\n        /* \"#utility.yul\":18706:18717   */\n      swap8\n      pop\n        /* \"#utility.yul\":18733:18736   */\n      dup8\n        /* \"#utility.yul\":18726:18736   */\n      swap6\n      pop\n        /* \"#utility.yul\":17781:18742   */\n      pop\n      pop\n      pop\n      pop\n      pop\n        /* \"#utility.yul\":17599:18742   */\n      swap3\n      swap2\n      pop\n      pop\n      jump\t// out\n        /* \"#utility.yul\":18748:19237   */\n    tag_39:\n        /* \"#utility.yul\":18949:18953   */\n      0x00\n        /* \"#utility.yul\":18987:18989   */\n      0x20\n        /* \"#utility.yul\":18976:18985   */\n      dup3\n        /* \"#utility.yul\":18972:18990   */\n      add\n        /* \"#utility.yul\":18964:18990   */\n      swap1\n      pop\n        /* \"#utility.yul\":19036:19045   */\n      dup2\n        /* \"#utility.yul\":19030:19034   */\n      dup2\n        /* \"#utility.yul\":19026:19046   */\n      sub\n        /* \"#utility.yul\":19022:19023   */\n      0x00\n        /* \"#utility.yul\":19011:19020   */\n      dup4\n        /* \"#utility.yul\":19007:19024   */\n      add\n        /* \"#utility.yul\":19000:19047   */\n      mstore\n        /* \"#utility.yul\":19064:19230   */\n      tag_425\n        /* \"#utility.yul\":19225:19229   */\n      dup2\n        /* \"#utility.yul\":19216:19222   */\n      dup5\n        /* \"#utility.yul\":19064:19230   */\n      tag_231\n      jump\t// in\n    tag_425:\n        /* \"#utility.yul\":19056:19230   */\n      swap1\n      pop\n        /* \"#utility.yul\":18748:19237   */\n      swap3\n      swap2\n      pop\n      pop\n      jump\t// out\n        /* \"#utility.yul\":19243:19383   */\n    tag_232:\n        /* \"#utility.yul\":19336:19342   */\n      0x00\n        /* \"#utility.yul\":19370:19375   */\n      dup2\n        /* \"#utility.yul\":19364:19376   */\n      mload\n        /* \"#utility.yul\":19354:19376   */\n      swap1\n      pop\n        /* \"#utility.yul\":19243:19383   */\n      swap2\n      swap1\n      pop\n      jump\t// out\n        /* \"#utility.yul\":19389:19599   */\n    tag_233:\n        /* \"#utility.yul\":19514:19525   */\n      0x00\n        /* \"#utility.yul\":19548:19554   */\n      dup3\n        /* \"#utility.yul\":19543:19546   */\n      dup3\n        /* \"#utility.yul\":19536:19555   */\n      mstore\n        /* \"#utility.yul\":19588:19592   */\n      0x20\n        /* \"#utility.yul\":19583:19586   */\n      dup3\n        /* \"#utility.yul\":19579:19593   */\n      add\n        /* \"#utility.yul\":19564:19593   */\n      swap1\n      pop\n        /* \"#utility.yul\":19389:19599   */\n      swap3\n      swap2\n      pop\n      pop\n      jump\t// out\n        /* \"#utility.yul\":19605:19763   */\n    tag_234:\n        /* \"#utility.yul\":19698:19702   */\n      0x00\n        /* \"#utility.yul\":19721:19724   */\n      dup2\n        /* \"#utility.yul\":19713:19724   */\n      swap1\n      pop\n        /* \"#utility.yul\":19751:19755   */\n      0x20\n        /* \"#utility.yul\":19746:19749   */\n      dup3\n        /* \"#utility.yul\":19742:19756   */\n      add\n        /* \"#utility.yul\":19734:19756   */\n      swap1\n      pop\n        /* \"#utility.yul\":19605:19763   */\n      swap2\n      swap1\n      pop\n      jump\t// out\n        /* \"#utility.yul\":19769:19895   */\n    tag_235:\n        /* \"#utility.yul\":19806:19813   */\n      0x00\n        /* \"#utility.yul\":19846:19888   */\n      0xffffffffffffffffffffffffffffffffffffffff\n        /* \"#utility.yul\":19839:19844   */\n      dup3\n        /* \"#utility.yul\":19835:19889   */\n      and\n        /* \"#utility.yul\":19824:19889   */\n      swap1\n      pop\n        /* \"#utility.yul\":19769:19895   */\n      swap2\n      swap1\n      pop\n      jump\t// out\n        /* \"#utility.yul\":19901:19997   */\n    tag_236:\n        /* \"#utility.yul\":19938:19945   */\n      0x00\n        /* \"#utility.yul\":19967:19991   */\n      tag_431\n        /* \"#utility.yul\":19985:19990   */\n      dup3\n        /* \"#utility.yul\":19967:19991   */\n      tag_235\n      jump\t// in\n    tag_431:\n        /* \"#utility.yul\":19956:19991   */\n      swap1\n      pop\n        /* \"#utility.yul\":19901:19997   */\n      swap2\n      swap1\n      pop\n      jump\t// out\n        /* \"#utility.yul\":20003:20111   */\n    tag_237:\n        /* \"#utility.yul\":20080:20104   */\n      tag_433\n        /* \"#utility.yul\":20098:20103   */\n      dup2\n        /* \"#utility.yul\":20080:20104   */\n      tag_236\n      jump\t// in\n    tag_433:\n        /* \"#utility.yul\":20075:20078   */\n      dup3\n        /* \"#utility.yul\":20068:20105   */\n      mstore\n        /* \"#utility.yul\":20003:20111   */\n      pop\n      pop\n      jump\t// out\n        /* \"#utility.yul\":20161:20857   */\n    tag_238:\n        /* \"#utility.yul\":20300:20304   */\n      0x60\n        /* \"#utility.yul\":20295:20298   */\n      dup3\n        /* \"#utility.yul\":20291:20305   */\n      add\n        /* \"#utility.yul\":20394:20398   */\n      0x00\n        /* \"#utility.yul\":20387:20392   */\n      dup3\n        /* \"#utility.yul\":20383:20399   */\n      add\n        /* \"#utility.yul\":20377:20400   */\n      mload\n        /* \"#utility.yul\":20413:20476   */\n      tag_435\n        /* \"#utility.yul\":20470:20474   */\n      0x00\n        /* \"#utility.yul\":20465:20468   */\n      dup6\n        /* \"#utility.yul\":20461:20475   */\n      add\n        /* \"#utility.yul\":20447:20459   */\n      dup3\n        /* \"#utility.yul\":20413:20476   */\n      tag_207\n      jump\t// in\n    tag_435:\n        /* \"#utility.yul\":20315:20486   */\n      pop\n        /* \"#utility.yul\":20580:20584   */\n      0x20\n        /* \"#utility.yul\":20573:20578   */\n      dup3\n        /* \"#utility.yul\":20569:20585   */\n      add\n        /* \"#utility.yul\":20563:20586   */\n      mload\n        /* \"#utility.yul\":20599:20662   */\n      tag_436\n        /* \"#utility.yul\":20656:20660   */\n      0x20\n        /* \"#utility.yul\":20651:20654   */\n      dup6\n        /* \"#utility.yul\":20647:20661   */\n      add\n        /* \"#utility.yul\":20633:20645   */\n      dup3\n        /* \"#utility.yul\":20599:20662   */\n      tag_237\n      jump\t// in\n    tag_436:\n        /* \"#utility.yul\":20496:20672   */\n      pop\n        /* \"#utility.yul\":20758:20762   */\n      0x40\n        /* \"#utility.yul\":20751:20756   */\n      dup3\n        /* \"#utility.yul\":20747:20763   */\n      add\n        /* \"#utility.yul\":20741:20764   */\n      mload\n        /* \"#utility.yul\":20777:20840   */\n      tag_437\n        /* \"#utility.yul\":20834:20838   */\n      0x40\n        /* \"#utility.yul\":20829:20832   */\n      dup6\n        /* \"#utility.yul\":20825:20839   */\n      add\n        /* \"#utility.yul\":20811:20823   */\n      dup3\n        /* \"#utility.yul\":20777:20840   */\n      tag_207\n      jump\t// in\n    tag_437:\n        /* \"#utility.yul\":20682:20850   */\n      pop\n        /* \"#utility.yul\":20269:20857   */\n      pop\n        /* \"#utility.yul\":20161:20857   */\n      pop\n      pop\n      jump\t// out\n        /* \"#utility.yul\":20863:21146   */\n    tag_239:\n        /* \"#utility.yul\":20984:20994   */\n      0x00\n        /* \"#utility.yul\":21005:21103   */\n      tag_439\n        /* \"#utility.yul\":21099:21102   */\n      dup4\n        /* \"#utility.yul\":21091:21097   */\n      dup4\n        /* \"#utility.yul\":21005:21103   */\n      tag_238\n      jump\t// in\n    tag_439:\n        /* \"#utility.yul\":21135:21139   */\n      0x60\n        /* \"#utility.yul\":21130:21133   */\n      dup4\n        /* \"#utility.yul\":21126:21140   */\n      add\n        /* \"#utility.yul\":21112:21140   */\n      swap1\n      pop\n        /* \"#utility.yul\":20863:21146   */\n      swap3\n      swap2\n      pop\n      pop\n      jump\t// out\n        /* \"#utility.yul\":21152:21291   */\n    tag_240:\n        /* \"#utility.yul\":21248:21252   */\n      0x00\n        /* \"#utility.yul\":21280:21284   */\n      0x20\n        /* \"#utility.yul\":21275:21278   */\n      dup3\n        /* \"#utility.yul\":21271:21285   */\n      add\n        /* \"#utility.yul\":21263:21285   */\n      swap1\n      pop\n        /* \"#utility.yul\":21152:21291   */\n      swap2\n      swap1\n      pop\n      jump\t// out\n        /* \"#utility.yul\":21345:22285   */\n    tag_241:\n        /* \"#utility.yul\":21516:21519   */\n      0x00\n        /* \"#utility.yul\":21545:21625   */\n      tag_442\n        /* \"#utility.yul\":21619:21624   */\n      dup3\n        /* \"#utility.yul\":21545:21625   */\n      tag_232\n      jump\t// in\n    tag_442:\n        /* \"#utility.yul\":21641:21753   */\n      tag_443\n        /* \"#utility.yul\":21746:21752   */\n      dup2\n        /* \"#utility.yul\":21741:21744   */\n      dup6\n        /* \"#utility.yul\":21641:21753   */\n      tag_233\n      jump\t// in\n    tag_443:\n        /* \"#utility.yul\":21634:21753   */\n      swap4\n      pop\n        /* \"#utility.yul\":21777:21859   */\n      tag_444\n        /* \"#utility.yul\":21853:21858   */\n      dup4\n        /* \"#utility.yul\":21777:21859   */\n      tag_234\n      jump\t// in\n    tag_444:\n        /* \"#utility.yul\":21882:21889   */\n      dup1\n        /* \"#utility.yul\":21913:21914   */\n      0x00\n        /* \"#utility.yul\":21898:22260   */\n    tag_445:\n        /* \"#utility.yul\":21923:21929   */\n      dup4\n        /* \"#utility.yul\":21920:21921   */\n      dup2\n        /* \"#utility.yul\":21917:21930   */\n      lt\n        /* \"#utility.yul\":21898:22260   */\n      iszero\n      tag_447\n      jumpi\n        /* \"#utility.yul\":21999:22005   */\n      dup2\n        /* \"#utility.yul\":21993:22006   */\n      mload\n        /* \"#utility.yul\":22026:22141   */\n      tag_448\n        /* \"#utility.yul\":22137:22140   */\n      dup9\n        /* \"#utility.yul\":22122:22135   */\n      dup3\n        /* \"#utility.yul\":22026:22141   */\n      tag_239\n      jump\t// in\n    tag_448:\n        /* \"#utility.yul\":22019:22141   */\n      swap8\n      pop\n        /* \"#utility.yul\":22164:22250   */\n      tag_449\n        /* \"#utility.yul\":22243:22249   */\n      dup4\n        /* \"#utility.yul\":22164:22250   */\n      tag_240\n      jump\t// in\n    tag_449:\n        /* \"#utility.yul\":22154:22250   */\n      swap3\n      pop\n        /* \"#utility.yul\":21958:22260   */\n      pop\n        /* \"#utility.yul\":21945:21946   */\n      0x01\n        /* \"#utility.yul\":21942:21943   */\n      dup2\n        /* \"#utility.yul\":21938:21947   */\n      add\n        /* \"#utility.yul\":21933:21947   */\n      swap1\n      pop\n        /* \"#utility.yul\":21898:22260   */\n      jump(tag_445)\n    tag_447:\n        /* \"#utility.yul\":21902:21916   */\n      pop\n        /* \"#utility.yul\":22276:22279   */\n      dup6\n        /* \"#utility.yul\":22269:22279   */\n      swap4\n      pop\n        /* \"#utility.yul\":21521:22285   */\n      pop\n      pop\n      pop\n        /* \"#utility.yul\":21345:22285   */\n      swap3\n      swap2\n      pop\n      pop\n      jump\t// out\n        /* \"#utility.yul\":22291:22768   */\n    tag_44:\n        /* \"#utility.yul\":22486:22490   */\n      0x00\n        /* \"#utility.yul\":22524:22526   */\n      0x20\n        /* \"#utility.yul\":22513:22522   */\n      dup3\n        /* \"#utility.yul\":22509:22527   */\n      add\n        /* \"#utility.yul\":22501:22527   */\n      swap1\n      pop\n        /* \"#utility.yul\":22573:22582   */\n      dup2\n        /* \"#utility.yul\":22567:22571   */\n      dup2\n        /* \"#utility.yul\":22563:22583   */\n      sub\n        /* \"#utility.yul\":22559:22560   */\n      0x00\n        /* \"#utility.yul\":22548:22557   */\n      dup4\n        /* \"#utility.yul\":22544:22561   */\n      add\n        /* \"#utility.yul\":22537:22584   */\n      mstore\n        /* \"#utility.yul\":22601:22761   */\n      tag_451\n        /* \"#utility.yul\":22756:22760   */\n      dup2\n        /* \"#utility.yul\":22747:22753   */\n      dup5\n        /* \"#utility.yul\":22601:22761   */\n      tag_241\n      jump\t// in\n    tag_451:\n        /* \"#utility.yul\":22593:22761   */\n      swap1\n      pop\n        /* \"#utility.yul\":22291:22768   */\n      swap3\n      swap2\n      pop\n      pop\n      jump\t// out\n        /* \"#utility.yul\":22774:22896   */\n    tag_242:\n        /* \"#utility.yul\":22847:22871   */\n      tag_453\n        /* \"#utility.yul\":22865:22870   */\n      dup2\n        /* \"#utility.yul\":22847:22871   */\n      tag_236\n      jump\t// in\n    tag_453:\n        /* \"#utility.yul\":22840:22845   */\n      dup2\n        /* \"#utility.yul\":22837:22872   */\n      eq\n        /* \"#utility.yul\":22827:22890   */\n      tag_454\n      jumpi\n        /* \"#utility.yul\":22886:22887   */\n      0x00\n        /* \"#utility.yul\":22883:22884   */\n      dup1\n        /* \"#utility.yul\":22876:22888   */\n      revert\n        /* \"#utility.yul\":22827:22890   */\n    tag_454:\n        /* \"#utility.yul\":22774:22896   */\n      pop\n      jump\t// out\n        /* \"#utility.yul\":22902:23041   */\n    tag_243:\n        /* \"#utility.yul\":22948:22953   */\n      0x00\n        /* \"#utility.yul\":22986:22992   */\n      dup2\n        /* \"#utility.yul\":22973:22993   */\n      calldataload\n        /* \"#utility.yul\":22964:22993   */\n      swap1\n      pop\n        /* \"#utility.yul\":23002:23035   */\n      tag_456\n        /* \"#utility.yul\":23029:23034   */\n      dup2\n        /* \"#utility.yul\":23002:23035   */\n      tag_242\n      jump\t// in\n    tag_456:\n        /* \"#utility.yul\":22902:23041   */\n      swap3\n      swap2\n      pop\n      pop\n      jump\t// out\n        /* \"#utility.yul\":23071:23830   */\n    tag_244:\n        /* \"#utility.yul\":23146:23151   */\n      0x00\n        /* \"#utility.yul\":23190:23194   */\n      0x60\n        /* \"#utility.yul\":23178:23187   */\n      dup3\n        /* \"#utility.yul\":23173:23176   */\n      dup5\n        /* \"#utility.yul\":23169:23188   */\n      sub\n        /* \"#utility.yul\":23165:23195   */\n      slt\n        /* \"#utility.yul\":23162:23279   */\n      iszero\n      tag_458\n      jumpi\n        /* \"#utility.yul\":23198:23277   */\n      tag_459\n      tag_184\n      jump\t// in\n    tag_459:\n        /* \"#utility.yul\":23162:23279   */\n    tag_458:\n        /* \"#utility.yul\":23297:23318   */\n      tag_460\n        /* \"#utility.yul\":23313:23317   */\n      0x60\n        /* \"#utility.yul\":23297:23318   */\n      tag_188\n      jump\t// in\n    tag_460:\n        /* \"#utility.yul\":23288:23318   */\n      swap1\n      pop\n        /* \"#utility.yul\":23384:23385   */\n      0x00\n        /* \"#utility.yul\":23424:23473   */\n      tag_461\n        /* \"#utility.yul\":23469:23472   */\n      dup5\n        /* \"#utility.yul\":23460:23466   */\n      dup3\n        /* \"#utility.yul\":23449:23458   */\n      dup6\n        /* \"#utility.yul\":23445:23467   */\n      add\n        /* \"#utility.yul\":23424:23473   */\n      tag_192\n      jump\t// in\n    tag_461:\n        /* \"#utility.yul\":23417:23421   */\n      0x00\n        /* \"#utility.yul\":23410:23415   */\n      dup4\n        /* \"#utility.yul\":23406:23422   */\n      add\n        /* \"#utility.yul\":23399:23474   */\n      mstore\n        /* \"#utility.yul\":23328:23485   */\n      pop\n        /* \"#utility.yul\":23556:23558   */\n      0x20\n        /* \"#utility.yul\":23597:23646   */\n      tag_462\n        /* \"#utility.yul\":23642:23645   */\n      dup5\n        /* \"#utility.yul\":23633:23639   */\n      dup3\n        /* \"#utility.yul\":23622:23631   */\n      dup6\n        /* \"#utility.yul\":23618:23640   */\n      add\n        /* \"#utility.yul\":23597:23646   */\n      tag_243\n      jump\t// in\n    tag_462:\n        /* \"#utility.yul\":23590:23594   */\n      0x20\n        /* \"#utility.yul\":23583:23588   */\n      dup4\n        /* \"#utility.yul\":23579:23595   */\n      add\n        /* \"#utility.yul\":23572:23647   */\n      mstore\n        /* \"#utility.yul\":23495:23658   */\n      pop\n        /* \"#utility.yul\":23721:23723   */\n      0x40\n        /* \"#utility.yul\":23762:23811   */\n      tag_463\n        /* \"#utility.yul\":23807:23810   */\n      dup5\n        /* \"#utility.yul\":23798:23804   */\n      dup3\n        /* \"#utility.yul\":23787:23796   */\n      dup6\n        /* \"#utility.yul\":23783:23805   */\n      add\n        /* \"#utility.yul\":23762:23811   */\n      tag_192\n      jump\t// in\n    tag_463:\n        /* \"#utility.yul\":23755:23759   */\n      0x40\n        /* \"#utility.yul\":23748:23753   */\n      dup4\n        /* \"#utility.yul\":23744:23760   */\n      add\n        /* \"#utility.yul\":23737:23812   */\n      mstore\n        /* \"#utility.yul\":23668:23823   */\n      pop\n        /* \"#utility.yul\":23071:23830   */\n      swap3\n      swap2\n      pop\n      pop\n      jump\t// out\n        /* \"#utility.yul\":23836:24363   */\n    tag_47:\n        /* \"#utility.yul\":23930:23936   */\n      0x00\n        /* \"#utility.yul\":23938:23944   */\n      dup1\n        /* \"#utility.yul\":23987:23990   */\n      0x80\n        /* \"#utility.yul\":23975:23984   */\n      dup4\n        /* \"#utility.yul\":23966:23973   */\n      dup6\n        /* \"#utility.yul\":23962:23985   */\n      sub\n        /* \"#utility.yul\":23958:23991   */\n      slt\n        /* \"#utility.yul\":23955:24075   */\n      iszero\n      tag_465\n      jumpi\n        /* \"#utility.yul\":23994:24073   */\n      tag_466\n      tag_182\n      jump\t// in\n    tag_466:\n        /* \"#utility.yul\":23955:24075   */\n    tag_465:\n        /* \"#utility.yul\":24114:24115   */\n      0x00\n        /* \"#utility.yul\":24139:24218   */\n      tag_467\n        /* \"#utility.yul\":24210:24217   */\n      dup6\n        /* \"#utility.yul\":24201:24207   */\n      dup3\n        /* \"#utility.yul\":24190:24199   */\n      dup7\n        /* \"#utility.yul\":24186:24208   */\n      add\n        /* \"#utility.yul\":24139:24218   */\n      tag_244\n      jump\t// in\n    tag_467:\n        /* \"#utility.yul\":24129:24218   */\n      swap3\n      pop\n        /* \"#utility.yul\":24085:24228   */\n      pop\n        /* \"#utility.yul\":24267:24269   */\n      0x60\n        /* \"#utility.yul\":24293:24346   */\n      tag_468\n        /* \"#utility.yul\":24338:24345   */\n      dup6\n        /* \"#utility.yul\":24329:24335   */\n      dup3\n        /* \"#utility.yul\":24318:24327   */\n      dup7\n        /* \"#utility.yul\":24314:24336   */\n      add\n        /* \"#utility.yul\":24293:24346   */\n      tag_201\n      jump\t// in\n    tag_468:\n        /* \"#utility.yul\":24283:24346   */\n      swap2\n      pop\n        /* \"#utility.yul\":24238:24356   */\n      pop\n        /* \"#utility.yul\":23836:24363   */\n      swap3\n      pop\n      swap3\n      swap1\n      pop\n      jump\t// out\n        /* \"#utility.yul\":24396:25477   */\n    tag_245:\n        /* \"#utility.yul\":24474:24479   */\n      0x00\n        /* \"#utility.yul\":24518:24522   */\n      0xa0\n        /* \"#utility.yul\":24506:24515   */\n      dup3\n        /* \"#utility.yul\":24501:24504   */\n      dup5\n        /* \"#utility.yul\":24497:24516   */\n      sub\n        /* \"#utility.yul\":24493:24523   */\n      slt\n        /* \"#utility.yul\":24490:24607   */\n      iszero\n      tag_470\n      jumpi\n        /* \"#utility.yul\":24526:24605   */\n      tag_471\n      tag_184\n      jump\t// in\n    tag_471:\n        /* \"#utility.yul\":24490:24607   */\n    tag_470:\n        /* \"#utility.yul\":24625:24646   */\n      tag_472\n        /* \"#utility.yul\":24641:24645   */\n      0xa0\n        /* \"#utility.yul\":24625:24646   */\n      tag_188\n      jump\t// in\n    tag_472:\n        /* \"#utility.yul\":24616:24646   */\n      swap1\n      pop\n        /* \"#utility.yul\":24708:24709   */\n      0x00\n        /* \"#utility.yul\":24748:24797   */\n      tag_473\n        /* \"#utility.yul\":24793:24796   */\n      dup5\n        /* \"#utility.yul\":24784:24790   */\n      dup3\n        /* \"#utility.yul\":24773:24782   */\n      dup6\n        /* \"#utility.yul\":24769:24791   */\n      add\n        /* \"#utility.yul\":24748:24797   */\n      tag_192\n      jump\t// in\n    tag_473:\n        /* \"#utility.yul\":24741:24745   */\n      0x00\n        /* \"#utility.yul\":24734:24739   */\n      dup4\n        /* \"#utility.yul\":24730:24746   */\n      add\n        /* \"#utility.yul\":24723:24798   */\n      mstore\n        /* \"#utility.yul\":24656:24809   */\n      pop\n        /* \"#utility.yul\":24876:24878   */\n      0x20\n        /* \"#utility.yul\":24917:24966   */\n      tag_474\n        /* \"#utility.yul\":24962:24965   */\n      dup5\n        /* \"#utility.yul\":24953:24959   */\n      dup3\n        /* \"#utility.yul\":24942:24951   */\n      dup6\n        /* \"#utility.yul\":24938:24960   */\n      add\n        /* \"#utility.yul\":24917:24966   */\n      tag_192\n      jump\t// in\n    tag_474:\n        /* \"#utility.yul\":24910:24914   */\n      0x20\n        /* \"#utility.yul\":24903:24908   */\n      dup4\n        /* \"#utility.yul\":24899:24915   */\n      add\n        /* \"#utility.yul\":24892:24967   */\n      mstore\n        /* \"#utility.yul\":24819:24978   */\n      pop\n        /* \"#utility.yul\":25041:25043   */\n      0x40\n        /* \"#utility.yul\":25082:25131   */\n      tag_475\n        /* \"#utility.yul\":25127:25130   */\n      dup5\n        /* \"#utility.yul\":25118:25124   */\n      dup3\n        /* \"#utility.yul\":25107:25116   */\n      dup6\n        /* \"#utility.yul\":25103:25125   */\n      add\n        /* \"#utility.yul\":25082:25131   */\n      tag_192\n      jump\t// in\n    tag_475:\n        /* \"#utility.yul\":25075:25079   */\n      0x40\n        /* \"#utility.yul\":25068:25073   */\n      dup4\n        /* \"#utility.yul\":25064:25080   */\n      add\n        /* \"#utility.yul\":25057:25132   */\n      mstore\n        /* \"#utility.yul\":24988:25143   */\n      pop\n        /* \"#utility.yul\":25202:25204   */\n      0x60\n        /* \"#utility.yul\":25243:25292   */\n      tag_476\n        /* \"#utility.yul\":25288:25291   */\n      dup5\n        /* \"#utility.yul\":25279:25285   */\n      dup3\n        /* \"#utility.yul\":25268:25277   */\n      dup6\n        /* \"#utility.yul\":25264:25286   */\n      add\n        /* \"#utility.yul\":25243:25292   */\n      tag_192\n      jump\t// in\n    tag_476:\n        /* \"#utility.yul\":25236:25240   */\n      0x60\n        /* \"#utility.yul\":25229:25234   */\n      dup4\n        /* \"#utility.yul\":25225:25241   */\n      add\n        /* \"#utility.yul\":25218:25293   */\n      mstore\n        /* \"#utility.yul\":25153:25304   */\n      pop\n        /* \"#utility.yul\":25367:25370   */\n      0x80\n        /* \"#utility.yul\":25409:25458   */\n      tag_477\n        /* \"#utility.yul\":25454:25457   */\n      dup5\n        /* \"#utility.yul\":25445:25451   */\n      dup3\n        /* \"#utility.yul\":25434:25443   */\n      dup6\n        /* \"#utility.yul\":25430:25452   */\n      add\n        /* \"#utility.yul\":25409:25458   */\n      tag_192\n      jump\t// in\n    tag_477:\n        /* \"#utility.yul\":25402:25406   */\n      0x80\n        /* \"#utility.yul\":25395:25400   */\n      dup4\n        /* \"#utility.yul\":25391:25407   */\n      add\n        /* \"#utility.yul\":25384:25459   */\n      mstore\n        /* \"#utility.yul\":25314:25470   */\n      pop\n        /* \"#utility.yul\":24396:25477   */\n      swap3\n      swap2\n      pop\n      pop\n      jump\t// out\n        /* \"#utility.yul\":25483:26017   */\n    tag_52:\n        /* \"#utility.yul\":25580:25586   */\n      0x00\n        /* \"#utility.yul\":25588:25594   */\n      dup1\n        /* \"#utility.yul\":25637:25640   */\n      0xc0\n        /* \"#utility.yul\":25625:25634   */\n      dup4\n        /* \"#utility.yul\":25616:25623   */\n      dup6\n        /* \"#utility.yul\":25612:25635   */\n      sub\n        /* \"#utility.yul\":25608:25641   */\n      slt\n        /* \"#utility.yul\":25605:25725   */\n      iszero\n      tag_479\n      jumpi\n        /* \"#utility.yul\":25644:25723   */\n      tag_480\n      tag_182\n      jump\t// in\n    tag_480:\n        /* \"#utility.yul\":25605:25725   */\n    tag_479:\n        /* \"#utility.yul\":25764:25765   */\n      0x00\n        /* \"#utility.yul\":25789:25871   */\n      tag_481\n        /* \"#utility.yul\":25863:25870   */\n      dup6\n        /* \"#utility.yul\":25854:25860   */\n      dup3\n        /* \"#utility.yul\":25843:25852   */\n      dup7\n        /* \"#utility.yul\":25839:25861   */\n      add\n        /* \"#utility.yul\":25789:25871   */\n      tag_245\n      jump\t// in\n    tag_481:\n        /* \"#utility.yul\":25779:25871   */\n      swap3\n      pop\n        /* \"#utility.yul\":25735:25881   */\n      pop\n        /* \"#utility.yul\":25920:25923   */\n      0xa0\n        /* \"#utility.yul\":25947:26000   */\n      tag_482\n        /* \"#utility.yul\":25992:25999   */\n      dup6\n        /* \"#utility.yul\":25983:25989   */\n      dup3\n        /* \"#utility.yul\":25972:25981   */\n      dup7\n        /* \"#utility.yul\":25968:25990   */\n      add\n        /* \"#utility.yul\":25947:26000   */\n      tag_201\n      jump\t// in\n    tag_482:\n        /* \"#utility.yul\":25937:26000   */\n      swap2\n      pop\n        /* \"#utility.yul\":25891:26010   */\n      pop\n        /* \"#utility.yul\":25483:26017   */\n      swap3\n      pop\n      swap3\n      swap1\n      pop\n      jump\t// out\n        /* \"#utility.yul\":26023:26163   */\n    tag_246:\n        /* \"#utility.yul\":26116:26122   */\n      0x00\n        /* \"#utility.yul\":26150:26155   */\n      dup2\n        /* \"#utility.yul\":26144:26156   */\n      mload\n        /* \"#utility.yul\":26134:26156   */\n      swap1\n      pop\n        /* \"#utility.yul\":26023:26163   */\n      swap2\n      swap1\n      pop\n      jump\t// out\n        /* \"#utility.yul\":26169:26379   */\n    tag_247:\n        /* \"#utility.yul\":26294:26305   */\n      0x00\n        /* \"#utility.yul\":26328:26334   */\n      dup3\n        /* \"#utility.yul\":26323:26326   */\n      dup3\n        /* \"#utility.yul\":26316:26335   */\n      mstore\n        /* \"#utility.yul\":26368:26372   */\n      0x20\n        /* \"#utility.yul\":26363:26366   */\n      dup3\n        /* \"#utility.yul\":26359:26373   */\n      add\n        /* \"#utility.yul\":26344:26373   */\n      swap1\n      pop\n        /* \"#utility.yul\":26169:26379   */\n      swap3\n      swap2\n      pop\n      pop\n      jump\t// out\n        /* \"#utility.yul\":26385:26543   */\n    tag_248:\n        /* \"#utility.yul\":26478:26482   */\n      0x00\n        /* \"#utility.yul\":26501:26504   */\n      dup2\n        /* \"#utility.yul\":26493:26504   */\n      swap1\n      pop\n        /* \"#utility.yul\":26531:26535   */\n      0x20\n        /* \"#utility.yul\":26526:26529   */\n      dup3\n        /* \"#utility.yul\":26522:26536   */\n      add\n        /* \"#utility.yul\":26514:26536   */\n      swap1\n      pop\n        /* \"#utility.yul\":26385:26543   */\n      swap2\n      swap1\n      pop\n      jump\t// out\n        /* \"#utility.yul\":26549:26729   */\n    tag_139:\n        /* \"#utility.yul\":26597:26674   */\n      0x4e487b7100000000000000000000000000000000000000000000000000000000\n        /* \"#utility.yul\":26594:26595   */\n      0x00\n        /* \"#utility.yul\":26587:26675   */\n      mstore\n        /* \"#utility.yul\":26694:26698   */\n      0x21\n        /* \"#utility.yul\":26691:26692   */\n      0x04\n        /* \"#utility.yul\":26684:26699   */\n      mstore\n        /* \"#utility.yul\":26718:26722   */\n      0x24\n        /* \"#utility.yul\":26715:26716   */\n      0x00\n        /* \"#utility.yul\":26708:26723   */\n      revert\n        /* \"#utility.yul\":26735:26855   */\n    tag_249:\n        /* \"#utility.yul\":26823:26824   */\n      0x03\n        /* \"#utility.yul\":26816:26821   */\n      dup2\n        /* \"#utility.yul\":26813:26825   */\n      lt\n        /* \"#utility.yul\":26803:26849   */\n      tag_488\n      jumpi\n        /* \"#utility.yul\":26829:26847   */\n      tag_489\n      tag_139\n      jump\t// in\n    tag_489:\n        /* \"#utility.yul\":26803:26849   */\n    tag_488:\n        /* \"#utility.yul\":26735:26855   */\n      pop\n      jump\t// out\n        /* \"#utility.yul\":26861:27002   */\n    tag_250:\n        /* \"#utility.yul\":26913:26920   */\n      0x00\n        /* \"#utility.yul\":26942:26947   */\n      dup2\n        /* \"#utility.yul\":26931:26947   */\n      swap1\n      pop\n        /* \"#utility.yul\":26948:26996   */\n      tag_491\n        /* \"#utility.yul\":26990:26995   */\n      dup3\n        /* \"#utility.yul\":26948:26996   */\n      tag_249\n      jump\t// in\n    tag_491:\n        /* \"#utility.yul\":26861:27002   */\n      swap2\n      swap1\n      pop\n      jump\t// out\n        /* \"#utility.yul\":27008:27149   */\n    tag_251:\n        /* \"#utility.yul\":27071:27080   */\n      0x00\n        /* \"#utility.yul\":27104:27143   */\n      tag_493\n        /* \"#utility.yul\":27137:27142   */\n      dup3\n        /* \"#utility.yul\":27104:27143   */\n      tag_250\n      jump\t// in\n    tag_493:\n        /* \"#utility.yul\":27091:27143   */\n      swap1\n      pop\n        /* \"#utility.yul\":27008:27149   */\n      swap2\n      swap1\n      pop\n      jump\t// out\n        /* \"#utility.yul\":27155:27302   */\n    tag_252:\n        /* \"#utility.yul\":27245:27295   */\n      tag_495\n        /* \"#utility.yul\":27289:27294   */\n      dup2\n        /* \"#utility.yul\":27245:27295   */\n      tag_251\n      jump\t// in\n    tag_495:\n        /* \"#utility.yul\":27240:27243   */\n      dup3\n        /* \"#utility.yul\":27233:27296   */\n      mstore\n        /* \"#utility.yul\":27155:27302   */\n      pop\n      pop\n      jump\t// out\n        /* \"#utility.yul\":27352:28242   */\n    tag_253:\n        /* \"#utility.yul\":27491:27495   */\n      0x80\n        /* \"#utility.yul\":27486:27489   */\n      dup3\n        /* \"#utility.yul\":27482:27496   */\n      add\n        /* \"#utility.yul\":27585:27589   */\n      0x00\n        /* \"#utility.yul\":27578:27583   */\n      dup3\n        /* \"#utility.yul\":27574:27590   */\n      add\n        /* \"#utility.yul\":27568:27591   */\n      mload\n        /* \"#utility.yul\":27604:27667   */\n      tag_497\n        /* \"#utility.yul\":27661:27665   */\n      0x00\n        /* \"#utility.yul\":27656:27659   */\n      dup6\n        /* \"#utility.yul\":27652:27666   */\n      add\n        /* \"#utility.yul\":27638:27650   */\n      dup3\n        /* \"#utility.yul\":27604:27667   */\n      tag_207\n      jump\t// in\n    tag_497:\n        /* \"#utility.yul\":27506:27677   */\n      pop\n        /* \"#utility.yul\":27771:27775   */\n      0x20\n        /* \"#utility.yul\":27764:27769   */\n      dup3\n        /* \"#utility.yul\":27760:27776   */\n      add\n        /* \"#utility.yul\":27754:27777   */\n      mload\n        /* \"#utility.yul\":27790:27853   */\n      tag_498\n        /* \"#utility.yul\":27847:27851   */\n      0x20\n        /* \"#utility.yul\":27842:27845   */\n      dup6\n        /* \"#utility.yul\":27838:27852   */\n      add\n        /* \"#utility.yul\":27824:27836   */\n      dup3\n        /* \"#utility.yul\":27790:27853   */\n      tag_237\n      jump\t// in\n    tag_498:\n        /* \"#utility.yul\":27687:27863   */\n      pop\n        /* \"#utility.yul\":27952:27956   */\n      0x40\n        /* \"#utility.yul\":27945:27950   */\n      dup3\n        /* \"#utility.yul\":27941:27957   */\n      add\n        /* \"#utility.yul\":27935:27958   */\n      mload\n        /* \"#utility.yul\":27971:28047   */\n      tag_499\n        /* \"#utility.yul\":28041:28045   */\n      0x40\n        /* \"#utility.yul\":28036:28039   */\n      dup6\n        /* \"#utility.yul\":28032:28046   */\n      add\n        /* \"#utility.yul\":28018:28030   */\n      dup3\n        /* \"#utility.yul\":27971:28047   */\n      tag_252\n      jump\t// in\n    tag_499:\n        /* \"#utility.yul\":27873:28057   */\n      pop\n        /* \"#utility.yul\":28143:28147   */\n      0x60\n        /* \"#utility.yul\":28136:28141   */\n      dup3\n        /* \"#utility.yul\":28132:28148   */\n      add\n        /* \"#utility.yul\":28126:28149   */\n      mload\n        /* \"#utility.yul\":28162:28225   */\n      tag_500\n        /* \"#utility.yul\":28219:28223   */\n      0x60\n        /* \"#utility.yul\":28214:28217   */\n      dup6\n        /* \"#utility.yul\":28210:28224   */\n      add\n        /* \"#utility.yul\":28196:28208   */\n      dup3\n        /* \"#utility.yul\":28162:28225   */\n      tag_207\n      jump\t// in\n    tag_500:\n        /* \"#utility.yul\":28067:28235   */\n      pop\n        /* \"#utility.yul\":27460:28242   */\n      pop\n        /* \"#utility.yul\":27352:28242   */\n      pop\n      pop\n      jump\t// out\n        /* \"#utility.yul\":28248:28531   */\n    tag_254:\n        /* \"#utility.yul\":28369:28379   */\n      0x00\n        /* \"#utility.yul\":28390:28488   */\n      tag_502\n        /* \"#utility.yul\":28484:28487   */\n      dup4\n        /* \"#utility.yul\":28476:28482   */\n      dup4\n        /* \"#utility.yul\":28390:28488   */\n      tag_253\n      jump\t// in\n    tag_502:\n        /* \"#utility.yul\":28520:28524   */\n      0x80\n        /* \"#utility.yul\":28515:28518   */\n      dup4\n        /* \"#utility.yul\":28511:28525   */\n      add\n        /* \"#utility.yul\":28497:28525   */\n      swap1\n      pop\n        /* \"#utility.yul\":28248:28531   */\n      swap3\n      swap2\n      pop\n      pop\n      jump\t// out\n        /* \"#utility.yul\":28537:28676   */\n    tag_255:\n        /* \"#utility.yul\":28633:28637   */\n      0x00\n        /* \"#utility.yul\":28665:28669   */\n      0x20\n        /* \"#utility.yul\":28660:28663   */\n      dup3\n        /* \"#utility.yul\":28656:28670   */\n      add\n        /* \"#utility.yul\":28648:28670   */\n      swap1\n      pop\n        /* \"#utility.yul\":28537:28676   */\n      swap2\n      swap1\n      pop\n      jump\t// out\n        /* \"#utility.yul\":28730:29670   */\n    tag_256:\n        /* \"#utility.yul\":28901:28904   */\n      0x00\n        /* \"#utility.yul\":28930:29010   */\n      tag_505\n        /* \"#utility.yul\":29004:29009   */\n      dup3\n        /* \"#utility.yul\":28930:29010   */\n      tag_246\n      jump\t// in\n    tag_505:\n        /* \"#utility.yul\":29026:29138   */\n      tag_506\n        /* \"#utility.yul\":29131:29137   */\n      dup2\n        /* \"#utility.yul\":29126:29129   */\n      dup6\n        /* \"#utility.yul\":29026:29138   */\n      tag_247\n      jump\t// in\n    tag_506:\n        /* \"#utility.yul\":29019:29138   */\n      swap4\n      pop\n        /* \"#utility.yul\":29162:29244   */\n      tag_507\n        /* \"#utility.yul\":29238:29243   */\n      dup4\n        /* \"#utility.yul\":29162:29244   */\n      tag_248\n      jump\t// in\n    tag_507:\n        /* \"#utility.yul\":29267:29274   */\n      dup1\n        /* \"#utility.yul\":29298:29299   */\n      0x00\n        /* \"#utility.yul\":29283:29645   */\n    tag_508:\n        /* \"#utility.yul\":29308:29314   */\n      dup4\n        /* \"#utility.yul\":29305:29306   */\n      dup2\n        /* \"#utility.yul\":29302:29315   */\n      lt\n        /* \"#utility.yul\":29283:29645   */\n      iszero\n      tag_510\n      jumpi\n        /* \"#utility.yul\":29384:29390   */\n      dup2\n        /* \"#utility.yul\":29378:29391   */\n      mload\n        /* \"#utility.yul\":29411:29526   */\n      tag_511\n        /* \"#utility.yul\":29522:29525   */\n      dup9\n        /* \"#utility.yul\":29507:29520   */\n      dup3\n        /* \"#utility.yul\":29411:29526   */\n      tag_254\n      jump\t// in\n    tag_511:\n        /* \"#utility.yul\":29404:29526   */\n      swap8\n      pop\n        /* \"#utility.yul\":29549:29635   */\n      tag_512\n        /* \"#utility.yul\":29628:29634   */\n      dup4\n        /* \"#utility.yul\":29549:29635   */\n      tag_255\n      jump\t// in\n    tag_512:\n        /* \"#utility.yul\":29539:29635   */\n      swap3\n      pop\n        /* \"#utility.yul\":29343:29645   */\n      pop\n        /* \"#utility.yul\":29330:29331   */\n      0x01\n        /* \"#utility.yul\":29327:29328   */\n      dup2\n        /* \"#utility.yul\":29323:29332   */\n      add\n        /* \"#utility.yul\":29318:29332   */\n      swap1\n      pop\n        /* \"#utility.yul\":29283:29645   */\n      jump(tag_508)\n    tag_510:\n        /* \"#utility.yul\":29287:29301   */\n      pop\n        /* \"#utility.yul\":29661:29664   */\n      dup6\n        /* \"#utility.yul\":29654:29664   */\n      swap4\n      pop\n        /* \"#utility.yul\":28906:29670   */\n      pop\n      pop\n      pop\n        /* \"#utility.yul\":28730:29670   */\n      swap3\n      swap2\n      pop\n      pop\n      jump\t// out\n        /* \"#utility.yul\":29676:30153   */\n    tag_59:\n        /* \"#utility.yul\":29871:29875   */\n      0x00\n        /* \"#utility.yul\":29909:29911   */\n      0x20\n        /* \"#utility.yul\":29898:29907   */\n      dup3\n        /* \"#utility.yul\":29894:29912   */\n      add\n        /* \"#utility.yul\":29886:29912   */\n      swap1\n      pop\n        /* \"#utility.yul\":29958:29967   */\n      dup2\n        /* \"#utility.yul\":29952:29956   */\n      dup2\n        /* \"#utility.yul\":29948:29968   */\n      sub\n        /* \"#utility.yul\":29944:29945   */\n      0x00\n        /* \"#utility.yul\":29933:29942   */\n      dup4\n        /* \"#utility.yul\":29929:29946   */\n      add\n        /* \"#utility.yul\":29922:29969   */\n      mstore\n        /* \"#utility.yul\":29986:30146   */\n      tag_514\n        /* \"#utility.yul\":30141:30145   */\n      dup2\n        /* \"#utility.yul\":30132:30138   */\n      dup5\n        /* \"#utility.yul\":29986:30146   */\n      tag_256\n      jump\t// in\n    tag_514:\n        /* \"#utility.yul\":29978:30146   */\n      swap1\n      pop\n        /* \"#utility.yul\":29676:30153   */\n      swap3\n      swap2\n      pop\n      pop\n      jump\t// out\n        /* \"#utility.yul\":30159:30273   */\n    tag_257:\n        /* \"#utility.yul\":30247:30248   */\n      0x03\n        /* \"#utility.yul\":30240:30245   */\n      dup2\n        /* \"#utility.yul\":30237:30249   */\n      lt\n        /* \"#utility.yul\":30227:30267   */\n      tag_516\n      jumpi\n        /* \"#utility.yul\":30263:30264   */\n      0x00\n        /* \"#utility.yul\":30260:30261   */\n      dup1\n        /* \"#utility.yul\":30253:30265   */\n      revert\n        /* \"#utility.yul\":30227:30267   */\n    tag_516:\n        /* \"#utility.yul\":30159:30273   */\n      pop\n      jump\t// out\n        /* \"#utility.yul\":30279:30448   */\n    tag_258:\n        /* \"#utility.yul\":30340:30345   */\n      0x00\n        /* \"#utility.yul\":30378:30384   */\n      dup2\n        /* \"#utility.yul\":30365:30385   */\n      calldataload\n        /* \"#utility.yul\":30356:30385   */\n      swap1\n      pop\n        /* \"#utility.yul\":30394:30442   */\n      tag_518\n        /* \"#utility.yul\":30436:30441   */\n      dup2\n        /* \"#utility.yul\":30394:30442   */\n      tag_257\n      jump\t// in\n    tag_518:\n        /* \"#utility.yul\":30279:30448   */\n      swap3\n      swap2\n      pop\n      pop\n      jump\t// out\n        /* \"#utility.yul\":30478:31420   */\n    tag_259:\n        /* \"#utility.yul\":30553:30558   */\n      0x00\n        /* \"#utility.yul\":30597:30601   */\n      0x80\n        /* \"#utility.yul\":30585:30594   */\n      dup3\n        /* \"#utility.yul\":30580:30583   */\n      dup5\n        /* \"#utility.yul\":30576:30595   */\n      sub\n        /* \"#utility.yul\":30572:30602   */\n      slt\n        /* \"#utility.yul\":30569:30686   */\n      iszero\n      tag_520\n      jumpi\n        /* \"#utility.yul\":30605:30684   */\n      tag_521\n      tag_184\n      jump\t// in\n    tag_521:\n        /* \"#utility.yul\":30569:30686   */\n    tag_520:\n        /* \"#utility.yul\":30704:30725   */\n      tag_522\n        /* \"#utility.yul\":30720:30724   */\n      0x80\n        /* \"#utility.yul\":30704:30725   */\n      tag_188\n      jump\t// in\n    tag_522:\n        /* \"#utility.yul\":30695:30725   */\n      swap1\n      pop\n        /* \"#utility.yul\":30791:30792   */\n      0x00\n        /* \"#utility.yul\":30831:30880   */\n      tag_523\n        /* \"#utility.yul\":30876:30879   */\n      dup5\n        /* \"#utility.yul\":30867:30873   */\n      dup3\n        /* \"#utility.yul\":30856:30865   */\n      dup6\n        /* \"#utility.yul\":30852:30874   */\n      add\n        /* \"#utility.yul\":30831:30880   */\n      tag_192\n      jump\t// in\n    tag_523:\n        /* \"#utility.yul\":30824:30828   */\n      0x00\n        /* \"#utility.yul\":30817:30822   */\n      dup4\n        /* \"#utility.yul\":30813:30829   */\n      add\n        /* \"#utility.yul\":30806:30881   */\n      mstore\n        /* \"#utility.yul\":30735:30892   */\n      pop\n        /* \"#utility.yul\":30963:30965   */\n      0x20\n        /* \"#utility.yul\":31004:31053   */\n      tag_524\n        /* \"#utility.yul\":31049:31052   */\n      dup5\n        /* \"#utility.yul\":31040:31046   */\n      dup3\n        /* \"#utility.yul\":31029:31038   */\n      dup6\n        /* \"#utility.yul\":31025:31047   */\n      add\n        /* \"#utility.yul\":31004:31053   */\n      tag_243\n      jump\t// in\n    tag_524:\n        /* \"#utility.yul\":30997:31001   */\n      0x20\n        /* \"#utility.yul\":30990:30995   */\n      dup4\n        /* \"#utility.yul\":30986:31002   */\n      add\n        /* \"#utility.yul\":30979:31054   */\n      mstore\n        /* \"#utility.yul\":30902:31065   */\n      pop\n        /* \"#utility.yul\":31131:31133   */\n      0x40\n        /* \"#utility.yul\":31172:31236   */\n      tag_525\n        /* \"#utility.yul\":31232:31235   */\n      dup5\n        /* \"#utility.yul\":31223:31229   */\n      dup3\n        /* \"#utility.yul\":31212:31221   */\n      dup6\n        /* \"#utility.yul\":31208:31230   */\n      add\n        /* \"#utility.yul\":31172:31236   */\n      tag_258\n      jump\t// in\n    tag_525:\n        /* \"#utility.yul\":31165:31169   */\n      0x40\n        /* \"#utility.yul\":31158:31163   */\n      dup4\n        /* \"#utility.yul\":31154:31170   */\n      add\n        /* \"#utility.yul\":31147:31237   */\n      mstore\n        /* \"#utility.yul\":31075:31248   */\n      pop\n        /* \"#utility.yul\":31311:31313   */\n      0x60\n        /* \"#utility.yul\":31352:31401   */\n      tag_526\n        /* \"#utility.yul\":31397:31400   */\n      dup5\n        /* \"#utility.yul\":31388:31394   */\n      dup3\n        /* \"#utility.yul\":31377:31386   */\n      dup6\n        /* \"#utility.yul\":31373:31395   */\n      add\n        /* \"#utility.yul\":31352:31401   */\n      tag_192\n      jump\t// in\n    tag_526:\n        /* \"#utility.yul\":31345:31349   */\n      0x60\n        /* \"#utility.yul\":31338:31343   */\n      dup4\n        /* \"#utility.yul\":31334:31350   */\n      add\n        /* \"#utility.yul\":31327:31402   */\n      mstore\n        /* \"#utility.yul\":31258:31413   */\n      pop\n        /* \"#utility.yul\":30478:31420   */\n      swap3\n      swap2\n      pop\n      pop\n      jump\t// out\n        /* \"#utility.yul\":31426:31954   */\n    tag_64:\n        /* \"#utility.yul\":31520:31526   */\n      0x00\n        /* \"#utility.yul\":31528:31534   */\n      dup1\n        /* \"#utility.yul\":31577:31580   */\n      0xa0\n        /* \"#utility.yul\":31565:31574   */\n      dup4\n        /* \"#utility.yul\":31556:31563   */\n      dup6\n        /* \"#utility.yul\":31552:31575   */\n      sub\n        /* \"#utility.yul\":31548:31581   */\n      slt\n        /* \"#utility.yul\":31545:31665   */\n      iszero\n      tag_528\n      jumpi\n        /* \"#utility.yul\":31584:31663   */\n      tag_529\n      tag_182\n      jump\t// in\n    tag_529:\n        /* \"#utility.yul\":31545:31665   */\n    tag_528:\n        /* \"#utility.yul\":31704:31705   */\n      0x00\n        /* \"#utility.yul\":31729:31808   */\n      tag_530\n        /* \"#utility.yul\":31800:31807   */\n      dup6\n        /* \"#utility.yul\":31791:31797   */\n      dup3\n        /* \"#utility.yul\":31780:31789   */\n      dup7\n        /* \"#utility.yul\":31776:31798   */\n      add\n        /* \"#utility.yul\":31729:31808   */\n      tag_259\n      jump\t// in\n    tag_530:\n        /* \"#utility.yul\":31719:31808   */\n      swap3\n      pop\n        /* \"#utility.yul\":31675:31818   */\n      pop\n        /* \"#utility.yul\":31857:31860   */\n      0x80\n        /* \"#utility.yul\":31884:31937   */\n      tag_531\n        /* \"#utility.yul\":31929:31936   */\n      dup6\n        /* \"#utility.yul\":31920:31926   */\n      dup3\n        /* \"#utility.yul\":31909:31918   */\n      dup7\n        /* \"#utility.yul\":31905:31927   */\n      add\n        /* \"#utility.yul\":31884:31937   */\n      tag_201\n      jump\t// in\n    tag_531:\n        /* \"#utility.yul\":31874:31937   */\n      swap2\n      pop\n        /* \"#utility.yul\":31828:31947   */\n      pop\n        /* \"#utility.yul\":31426:31954   */\n      swap3\n      pop\n      swap3\n      swap1\n      pop\n      jump\t// out\n        /* \"#utility.yul\":31960:32078   */\n    tag_260:\n        /* \"#utility.yul\":32047:32071   */\n      tag_533\n        /* \"#utility.yul\":32065:32070   */\n      dup2\n        /* \"#utility.yul\":32047:32071   */\n      tag_236\n      jump\t// in\n    tag_533:\n        /* \"#utility.yul\":32042:32045   */\n      dup3\n        /* \"#utility.yul\":32035:32072   */\n      mstore\n        /* \"#utility.yul\":31960:32078   */\n      pop\n      pop\n      jump\t// out\n        /* \"#utility.yul\":32084:32306   */\n    tag_70:\n        /* \"#utility.yul\":32177:32181   */\n      0x00\n        /* \"#utility.yul\":32215:32217   */\n      0x20\n        /* \"#utility.yul\":32204:32213   */\n      dup3\n        /* \"#utility.yul\":32200:32218   */\n      add\n        /* \"#utility.yul\":32192:32218   */\n      swap1\n      pop\n        /* \"#utility.yul\":32228:32299   */\n      tag_535\n        /* \"#utility.yul\":32296:32297   */\n      0x00\n        /* \"#utility.yul\":32285:32294   */\n      dup4\n        /* \"#utility.yul\":32281:32298   */\n      add\n        /* \"#utility.yul\":32272:32278   */\n      dup5\n        /* \"#utility.yul\":32228:32299   */\n      tag_260\n      jump\t// in\n    tag_535:\n        /* \"#utility.yul\":32084:32306   */\n      swap3\n      swap2\n      pop\n      pop\n      jump\t// out\n        /* \"#utility.yul\":32339:33773   */\n    tag_261:\n        /* \"#utility.yul\":32417:32422   */\n      0x00\n        /* \"#utility.yul\":32461:32465   */\n      0xc0\n        /* \"#utility.yul\":32449:32458   */\n      dup3\n        /* \"#utility.yul\":32444:32447   */\n      dup5\n        /* \"#utility.yul\":32440:32459   */\n      sub\n        /* \"#utility.yul\":32436:32466   */\n      slt\n        /* \"#utility.yul\":32433:32550   */\n      iszero\n      tag_537\n      jumpi\n        /* \"#utility.yul\":32469:32548   */\n      tag_538\n      tag_184\n      jump\t// in\n    tag_538:\n        /* \"#utility.yul\":32433:32550   */\n    tag_537:\n        /* \"#utility.yul\":32568:32589   */\n      tag_539\n        /* \"#utility.yul\":32584:32588   */\n      0xc0\n        /* \"#utility.yul\":32568:32589   */\n      tag_188\n      jump\t// in\n    tag_539:\n        /* \"#utility.yul\":32559:32589   */\n      swap1\n      pop\n        /* \"#utility.yul\":32651:32652   */\n      0x00\n        /* \"#utility.yul\":32691:32740   */\n      tag_540\n        /* \"#utility.yul\":32736:32739   */\n      dup5\n        /* \"#utility.yul\":32727:32733   */\n      dup3\n        /* \"#utility.yul\":32716:32725   */\n      dup6\n        /* \"#utility.yul\":32712:32734   */\n      add\n        /* \"#utility.yul\":32691:32740   */\n      tag_192\n      jump\t// in\n    tag_540:\n        /* \"#utility.yul\":32684:32688   */\n      0x00\n        /* \"#utility.yul\":32677:32682   */\n      dup4\n        /* \"#utility.yul\":32673:32689   */\n      add\n        /* \"#utility.yul\":32666:32741   */\n      mstore\n        /* \"#utility.yul\":32599:32752   */\n      pop\n        /* \"#utility.yul\":32818:32820   */\n      0x20\n        /* \"#utility.yul\":32859:32908   */\n      tag_541\n        /* \"#utility.yul\":32904:32907   */\n      dup5\n        /* \"#utility.yul\":32895:32901   */\n      dup3\n        /* \"#utility.yul\":32884:32893   */\n      dup6\n        /* \"#utility.yul\":32880:32902   */\n      add\n        /* \"#utility.yul\":32859:32908   */\n      tag_192\n      jump\t// in\n    tag_541:\n        /* \"#utility.yul\":32852:32856   */\n      0x20\n        /* \"#utility.yul\":32845:32850   */\n      dup4\n        /* \"#utility.yul\":32841:32857   */\n      add\n        /* \"#utility.yul\":32834:32909   */\n      mstore\n        /* \"#utility.yul\":32762:32920   */\n      pop\n        /* \"#utility.yul\":33014:33016   */\n      0x40\n        /* \"#utility.yul\":33003:33012   */\n      dup3\n        /* \"#utility.yul\":32999:33017   */\n      add\n        /* \"#utility.yul\":32986:33018   */\n      calldataload\n        /* \"#utility.yul\":33045:33063   */\n      0xffffffffffffffff\n        /* \"#utility.yul\":33037:33043   */\n      dup2\n        /* \"#utility.yul\":33034:33064   */\n      gt\n        /* \"#utility.yul\":33031:33148   */\n      iszero\n      tag_542\n      jumpi\n        /* \"#utility.yul\":33067:33146   */\n      tag_543\n      tag_189\n      jump\t// in\n    tag_543:\n        /* \"#utility.yul\":33031:33148   */\n    tag_542:\n        /* \"#utility.yul\":33187:33261   */\n      tag_544\n        /* \"#utility.yul\":33257:33260   */\n      dup5\n        /* \"#utility.yul\":33248:33254   */\n      dup3\n        /* \"#utility.yul\":33237:33246   */\n      dup6\n        /* \"#utility.yul\":33233:33255   */\n      add\n        /* \"#utility.yul\":33187:33261   */\n      tag_197\n      jump\t// in\n    tag_544:\n        /* \"#utility.yul\":33180:33184   */\n      0x40\n        /* \"#utility.yul\":33173:33178   */\n      dup4\n        /* \"#utility.yul\":33169:33185   */\n      add\n        /* \"#utility.yul\":33162:33262   */\n      mstore\n        /* \"#utility.yul\":32930:33273   */\n      pop\n        /* \"#utility.yul\":33336:33338   */\n      0x60\n        /* \"#utility.yul\":33377:33426   */\n      tag_545\n        /* \"#utility.yul\":33422:33425   */\n      dup5\n        /* \"#utility.yul\":33413:33419   */\n      dup3\n        /* \"#utility.yul\":33402:33411   */\n      dup6\n        /* \"#utility.yul\":33398:33420   */\n      add\n        /* \"#utility.yul\":33377:33426   */\n      tag_192\n      jump\t// in\n    tag_545:\n        /* \"#utility.yul\":33370:33374   */\n      0x60\n        /* \"#utility.yul\":33363:33368   */\n      dup4\n        /* \"#utility.yul\":33359:33375   */\n      add\n        /* \"#utility.yul\":33352:33427   */\n      mstore\n        /* \"#utility.yul\":33283:33438   */\n      pop\n        /* \"#utility.yul\":33497:33500   */\n      0x80\n        /* \"#utility.yul\":33539:33588   */\n      tag_546\n        /* \"#utility.yul\":33584:33587   */\n      dup5\n        /* \"#utility.yul\":33575:33581   */\n      dup3\n        /* \"#utility.yul\":33564:33573   */\n      dup6\n        /* \"#utility.yul\":33560:33582   */\n      add\n        /* \"#utility.yul\":33539:33588   */\n      tag_192\n      jump\t// in\n    tag_546:\n        /* \"#utility.yul\":33532:33536   */\n      0x80\n        /* \"#utility.yul\":33525:33530   */\n      dup4\n        /* \"#utility.yul\":33521:33537   */\n      add\n        /* \"#utility.yul\":33514:33589   */\n      mstore\n        /* \"#utility.yul\":33448:33600   */\n      pop\n        /* \"#utility.yul\":33663:33666   */\n      0xa0\n        /* \"#utility.yul\":33705:33754   */\n      tag_547\n        /* \"#utility.yul\":33750:33753   */\n      dup5\n        /* \"#utility.yul\":33741:33747   */\n      dup3\n        /* \"#utility.yul\":33730:33739   */\n      dup6\n        /* \"#utility.yul\":33726:33748   */\n      add\n        /* \"#utility.yul\":33705:33754   */\n      tag_192\n      jump\t// in\n    tag_547:\n        /* \"#utility.yul\":33698:33702   */\n      0xa0\n        /* \"#utility.yul\":33691:33696   */\n      dup4\n        /* \"#utility.yul\":33687:33703   */\n      add\n        /* \"#utility.yul\":33680:33755   */\n      mstore\n        /* \"#utility.yul\":33610:33766   */\n      pop\n        /* \"#utility.yul\":32339:33773   */\n      swap3\n      swap2\n      pop\n      pop\n      jump\t// out\n        /* \"#utility.yul\":33779:34471   */\n    tag_73:\n        /* \"#utility.yul\":33876:33882   */\n      0x00\n        /* \"#utility.yul\":33884:33890   */\n      dup1\n        /* \"#utility.yul\":33933:33935   */\n      0x40\n        /* \"#utility.yul\":33921:33930   */\n      dup4\n        /* \"#utility.yul\":33912:33919   */\n      dup6\n        /* \"#utility.yul\":33908:33931   */\n      sub\n        /* \"#utility.yul\":33904:33936   */\n      slt\n        /* \"#utility.yul\":33901:34020   */\n      iszero\n      tag_549\n      jumpi\n        /* \"#utility.yul\":33939:34018   */\n      tag_550\n      tag_182\n      jump\t// in\n    tag_550:\n        /* \"#utility.yul\":33901:34020   */\n    tag_549:\n        /* \"#utility.yul\":34087:34088   */\n      0x00\n        /* \"#utility.yul\":34076:34085   */\n      dup4\n        /* \"#utility.yul\":34072:34089   */\n      add\n        /* \"#utility.yul\":34059:34090   */\n      calldataload\n        /* \"#utility.yul\":34117:34135   */\n      0xffffffffffffffff\n        /* \"#utility.yul\":34109:34115   */\n      dup2\n        /* \"#utility.yul\":34106:34136   */\n      gt\n        /* \"#utility.yul\":34103:34220   */\n      iszero\n      tag_551\n      jumpi\n        /* \"#utility.yul\":34139:34218   */\n      tag_552\n      tag_183\n      jump\t// in\n    tag_552:\n        /* \"#utility.yul\":34103:34220   */\n    tag_551:\n        /* \"#utility.yul\":34244:34326   */\n      tag_553\n        /* \"#utility.yul\":34318:34325   */\n      dup6\n        /* \"#utility.yul\":34309:34315   */\n      dup3\n        /* \"#utility.yul\":34298:34307   */\n      dup7\n        /* \"#utility.yul\":34294:34316   */\n      add\n        /* \"#utility.yul\":34244:34326   */\n      tag_261\n      jump\t// in\n    tag_553:\n        /* \"#utility.yul\":34234:34326   */\n      swap3\n      pop\n        /* \"#utility.yul\":34030:34336   */\n      pop\n        /* \"#utility.yul\":34375:34377   */\n      0x20\n        /* \"#utility.yul\":34401:34454   */\n      tag_554\n        /* \"#utility.yul\":34446:34453   */\n      dup6\n        /* \"#utility.yul\":34437:34443   */\n      dup3\n        /* \"#utility.yul\":34426:34435   */\n      dup7\n        /* \"#utility.yul\":34422:34444   */\n      add\n        /* \"#utility.yul\":34401:34454   */\n      tag_201\n      jump\t// in\n    tag_554:\n        /* \"#utility.yul\":34391:34454   */\n      swap2\n      pop\n        /* \"#utility.yul\":34346:34464   */\n      pop\n        /* \"#utility.yul\":33779:34471   */\n      swap3\n      pop\n      swap3\n      swap1\n      pop\n      jump\t// out\n        /* \"#utility.yul\":34477:34806   */\n    tag_78:\n        /* \"#utility.yul\":34536:34542   */\n      0x00\n        /* \"#utility.yul\":34585:34587   */\n      0x20\n        /* \"#utility.yul\":34573:34582   */\n      dup3\n        /* \"#utility.yul\":34564:34571   */\n      dup5\n        /* \"#utility.yul\":34560:34583   */\n      sub\n        /* \"#utility.yul\":34556:34588   */\n      slt\n        /* \"#utility.yul\":34553:34672   */\n      iszero\n      tag_556\n      jumpi\n        /* \"#utility.yul\":34591:34670   */\n      tag_557\n      tag_182\n      jump\t// in\n    tag_557:\n        /* \"#utility.yul\":34553:34672   */\n    tag_556:\n        /* \"#utility.yul\":34711:34712   */\n      0x00\n        /* \"#utility.yul\":34736:34789   */\n      tag_558\n        /* \"#utility.yul\":34781:34788   */\n      dup5\n        /* \"#utility.yul\":34772:34778   */\n      dup3\n        /* \"#utility.yul\":34761:34770   */\n      dup6\n        /* \"#utility.yul\":34757:34779   */\n      add\n        /* \"#utility.yul\":34736:34789   */\n      tag_243\n      jump\t// in\n    tag_558:\n        /* \"#utility.yul\":34726:34789   */\n      swap2\n      pop\n        /* \"#utility.yul\":34682:34799   */\n      pop\n        /* \"#utility.yul\":34477:34806   */\n      swap3\n      swap2\n      pop\n      pop\n      jump\t// out\n        /* \"#utility.yul\":34812:34981   */\n    tag_262:\n        /* \"#utility.yul\":34896:34907   */\n      0x00\n        /* \"#utility.yul\":34930:34936   */\n      dup3\n        /* \"#utility.yul\":34925:34928   */\n      dup3\n        /* \"#utility.yul\":34918:34937   */\n      mstore\n        /* \"#utility.yul\":34970:34974   */\n      0x20\n        /* \"#utility.yul\":34965:34968   */\n      dup3\n        /* \"#utility.yul\":34961:34975   */\n      add\n        /* \"#utility.yul\":34946:34975   */\n      swap1\n      pop\n        /* \"#utility.yul\":34812:34981   */\n      swap3\n      swap2\n      pop\n      pop\n      jump\t// out\n        /* \"#utility.yul\":34987:35219   */\n    tag_263:\n        /* \"#utility.yul\":35127:35161   */\n      0x44617461626173652050726f63657373696e6744617461626173653a20536563\n        /* \"#utility.yul\":35123:35124   */\n      0x00\n        /* \"#utility.yul\":35115:35121   */\n      dup3\n        /* \"#utility.yul\":35111:35125   */\n      add\n        /* \"#utility.yul\":35104:35162   */\n      mstore\n        /* \"#utility.yul\":35196:35211   */\n      0x726574206b6579206572726f7200000000000000000000000000000000000000\n        /* \"#utility.yul\":35191:35193   */\n      0x20\n        /* \"#utility.yul\":35183:35189   */\n      dup3\n        /* \"#utility.yul\":35179:35194   */\n      add\n        /* \"#utility.yul\":35172:35212   */\n      mstore\n        /* \"#utility.yul\":34987:35219   */\n      pop\n      jump\t// out\n        /* \"#utility.yul\":35225:35591   */\n    tag_264:\n        /* \"#utility.yul\":35367:35370   */\n      0x00\n        /* \"#utility.yul\":35388:35455   */\n      tag_562\n        /* \"#utility.yul\":35452:35454   */\n      0x2d\n        /* \"#utility.yul\":35447:35450   */\n      dup4\n        /* \"#utility.yul\":35388:35455   */\n      tag_262\n      jump\t// in\n    tag_562:\n        /* \"#utility.yul\":35381:35455   */\n      swap2\n      pop\n        /* \"#utility.yul\":35464:35557   */\n      tag_563\n        /* \"#utility.yul\":35553:35556   */\n      dup3\n        /* \"#utility.yul\":35464:35557   */\n      tag_263\n      jump\t// in\n    tag_563:\n        /* \"#utility.yul\":35582:35584   */\n      0x40\n        /* \"#utility.yul\":35577:35580   */\n      dup3\n        /* \"#utility.yul\":35573:35585   */\n      add\n        /* \"#utility.yul\":35566:35585   */\n      swap1\n      pop\n        /* \"#utility.yul\":35225:35591   */\n      swap2\n      swap1\n      pop\n      jump\t// out\n        /* \"#utility.yul\":35597:36016   */\n    tag_83:\n        /* \"#utility.yul\":35763:35767   */\n      0x00\n        /* \"#utility.yul\":35801:35803   */\n      0x20\n        /* \"#utility.yul\":35790:35799   */\n      dup3\n        /* \"#utility.yul\":35786:35804   */\n      add\n        /* \"#utility.yul\":35778:35804   */\n      swap1\n      pop\n        /* \"#utility.yul\":35850:35859   */\n      dup2\n        /* \"#utility.yul\":35844:35848   */\n      dup2\n        /* \"#utility.yul\":35840:35860   */\n      sub\n        /* \"#utility.yul\":35836:35837   */\n      0x00\n        /* \"#utility.yul\":35825:35834   */\n      dup4\n        /* \"#utility.yul\":35821:35838   */\n      add\n        /* \"#utility.yul\":35814:35861   */\n      mstore\n        /* \"#utility.yul\":35878:36009   */\n      tag_565\n        /* \"#utility.yul\":36004:36008   */\n      dup2\n        /* \"#utility.yul\":35878:36009   */\n      tag_264\n      jump\t// in\n    tag_565:\n        /* \"#utility.yul\":35870:36009   */\n      swap1\n      pop\n        /* \"#utility.yul\":35597:36016   */\n      swap2\n      swap1\n      pop\n      jump\t// out\n        /* \"#utility.yul\":36022:36247   */\n    tag_265:\n        /* \"#utility.yul\":36162:36196   */\n      0x4f776e61626c653a206e6577206f776e657220697320746865207a65726f2061\n        /* \"#utility.yul\":36158:36159   */\n      0x00\n        /* \"#utility.yul\":36150:36156   */\n      dup3\n        /* \"#utility.yul\":36146:36160   */\n      add\n        /* \"#utility.yul\":36139:36197   */\n      mstore\n        /* \"#utility.yul\":36231:36239   */\n      0x6464726573730000000000000000000000000000000000000000000000000000\n        /* \"#utility.yul\":36226:36228   */\n      0x20\n        /* \"#utility.yul\":36218:36224   */\n      dup3\n        /* \"#utility.yul\":36214:36229   */\n      add\n        /* \"#utility.yul\":36207:36240   */\n      mstore\n        /* \"#utility.yul\":36022:36247   */\n      pop\n      jump\t// out\n        /* \"#utility.yul\":36253:36619   */\n    tag_266:\n        /* \"#utility.yul\":36395:36398   */\n      0x00\n        /* \"#utility.yul\":36416:36483   */\n      tag_568\n        /* \"#utility.yul\":36480:36482   */\n      0x26\n        /* \"#utility.yul\":36475:36478   */\n      dup4\n        /* \"#utility.yul\":36416:36483   */\n      tag_262\n      jump\t// in\n    tag_568:\n        /* \"#utility.yul\":36409:36483   */\n      swap2\n      pop\n        /* \"#utility.yul\":36492:36585   */\n      tag_569\n        /* \"#utility.yul\":36581:36584   */\n      dup3\n        /* \"#utility.yul\":36492:36585   */\n      tag_265\n      jump\t// in\n    tag_569:\n        /* \"#utility.yul\":36610:36612   */\n      0x40\n        /* \"#utility.yul\":36605:36608   */\n      dup3\n        /* \"#utility.yul\":36601:36613   */\n      add\n        /* \"#utility.yul\":36594:36613   */\n      swap1\n      pop\n        /* \"#utility.yul\":36253:36619   */\n      swap2\n      swap1\n      pop\n      jump\t// out\n        /* \"#utility.yul\":36625:37044   */\n    tag_165:\n        /* \"#utility.yul\":36791:36795   */\n      0x00\n        /* \"#utility.yul\":36829:36831   */\n      0x20\n        /* \"#utility.yul\":36818:36827   */\n      dup3\n        /* \"#utility.yul\":36814:36832   */\n      add\n        /* \"#utility.yul\":36806:36832   */\n      swap1\n      pop\n        /* \"#utility.yul\":36878:36887   */\n      dup2\n        /* \"#utility.yul\":36872:36876   */\n      dup2\n        /* \"#utility.yul\":36868:36888   */\n      sub\n        /* \"#utility.yul\":36864:36865   */\n      0x00\n        /* \"#utility.yul\":36853:36862   */\n      dup4\n        /* \"#utility.yul\":36849:36866   */\n      add\n        /* \"#utility.yul\":36842:36889   */\n      mstore\n        /* \"#utility.yul\":36906:37037   */\n      tag_571\n        /* \"#utility.yul\":37032:37036   */\n      dup2\n        /* \"#utility.yul\":36906:37037   */\n      tag_266\n      jump\t// in\n    tag_571:\n        /* \"#utility.yul\":36898:37037   */\n      swap1\n      pop\n        /* \"#utility.yul\":36625:37044   */\n      swap2\n      swap1\n      pop\n      jump\t// out\n        /* \"#utility.yul\":37050:37232   */\n    tag_267:\n        /* \"#utility.yul\":37190:37224   */\n      0x4f776e61626c653a2063616c6c6572206973206e6f7420746865206f776e6572\n        /* \"#utility.yul\":37186:37187   */\n      0x00\n        /* \"#utility.yul\":37178:37184   */\n      dup3\n        /* \"#utility.yul\":37174:37188   */\n      add\n        /* \"#utility.yul\":37167:37225   */\n      mstore\n        /* \"#utility.yul\":37050:37232   */\n      pop\n      jump\t// out\n        /* \"#utility.yul\":37238:37604   */\n    tag_268:\n        /* \"#utility.yul\":37380:37383   */\n      0x00\n        /* \"#utility.yul\":37401:37468   */\n      tag_574\n        /* \"#utility.yul\":37465:37467   */\n      0x20\n        /* \"#utility.yul\":37460:37463   */\n      dup4\n        /* \"#utility.yul\":37401:37468   */\n      tag_262\n      jump\t// in\n    tag_574:\n        /* \"#utility.yul\":37394:37468   */\n      swap2\n      pop\n        /* \"#utility.yul\":37477:37570   */\n      tag_575\n        /* \"#utility.yul\":37566:37569   */\n      dup3\n        /* \"#utility.yul\":37477:37570   */\n      tag_267\n      jump\t// in\n    tag_575:\n        /* \"#utility.yul\":37595:37597   */\n      0x20\n        /* \"#utility.yul\":37590:37593   */\n      dup3\n        /* \"#utility.yul\":37586:37598   */\n      add\n        /* \"#utility.yul\":37579:37598   */\n      swap1\n      pop\n        /* \"#utility.yul\":37238:37604   */\n      swap2\n      swap1\n      pop\n      jump\t// out\n        /* \"#utility.yul\":37610:38029   */\n    tag_172:\n        /* \"#utility.yul\":37776:37780   */\n      0x00\n        /* \"#utility.yul\":37814:37816   */\n      0x20\n        /* \"#utility.yul\":37803:37812   */\n      dup3\n        /* \"#utility.yul\":37799:37817   */\n      add\n        /* \"#utility.yul\":37791:37817   */\n      swap1\n      pop\n        /* \"#utility.yul\":37863:37872   */\n      dup2\n        /* \"#utility.yul\":37857:37861   */\n      dup2\n        /* \"#utility.yul\":37853:37873   */\n      sub\n        /* \"#utility.yul\":37849:37850   */\n      0x00\n        /* \"#utility.yul\":37838:37847   */\n      dup4\n        /* \"#utility.yul\":37834:37851   */\n      add\n        /* \"#utility.yul\":37827:37874   */\n      mstore\n        /* \"#utility.yul\":37891:38022   */\n      tag_577\n        /* \"#utility.yul\":38017:38021   */\n      dup2\n        /* \"#utility.yul\":37891:38022   */\n      tag_268\n      jump\t// in\n    tag_577:\n        /* \"#utility.yul\":37883:38022   */\n      swap1\n      pop\n        /* \"#utility.yul\":37610:38029   */\n      swap2\n      swap1\n      pop\n      jump\t// out\n\n    auxdata: 0xa264697066735822122005f61acf6faf95578f204448e9c5fadbf518774c9bcbf74771ee53a211ccbdc364736f6c63430008110033\n}\n",
				"bytecode": {
					"linkReferences": {},
					"object": "608060405234801561001057600080fd5b50336000806101000a81548173ffffffffffffffffffffffffffffffffffffffff021916908373ffffffffffffffffffffffffffffffffffffffff160217905550612136806100606000396000f3fe608060405234801561001057600080fd5b50600436106100cf5760003560e01c80634269e28b1161008c57806386e9bacf1161006657806386e9bacf1461025e5780638da5cb5b1461028e578063cb7c5c50146102ac578063f2fde38b146102dc576100cf565b80634269e28b146101f4578063776364a71461022457806383197ef014610254576100cf565b8063021ca464146100d457806303970403146101045780631d769a9e14610134578063270b3869146101645780632ae72d0614610194578063318ee31a146101c4575b600080fd5b6100ee60048036038101906100e9919061131c565b6102f8565b6040516100fb9190611393565b60405180910390f35b61011e600480360381019061011991906113ae565b6103e3565b60405161012b91906115be565b60405180910390f35b61014e600480360381019061014991906113ae565b610521565b60405161015b91906116f7565b60405180910390f35b61017e600480360381019061017991906113ae565b61061b565b60405161018b9190611864565b60405180910390f35b6101ae60048036038101906101a991906113ae565b61076d565b6040516101bb91906119b8565b60405180910390f35b6101de60048036038101906101d99190611a6a565b61089f565b6040516101eb9190611393565b60405180910390f35b61020e60048036038101906102099190611b36565b6109aa565b60405161021b9190611393565b60405180910390f35b61023e600480360381019061023991906113ae565b610a8c565b60405161024b9190611cf1565b60405180910390f35b61025c610bf9565b005b61027860048036038101906102739190611db0565b610c1a565b6040516102859190611393565b60405180910390f35b610296610d55565b6040516102a39190611dff565b60405180910390f35b6102c660048036038101906102c19190611ed6565b610d7e565b6040516102d39190611393565b60405180910390f35b6102f660048036038101906102f19190611f32565b610e7d565b005b6000817f8e1604a838d0f1a9b2cda14a099e4ceb08e966cc6e05e8296f67b02d61a79f0960001b8114610360576040517f08c379a000000000000000000000000000000000000000000000000000000000815260040161035790611fe2565b60405180910390fd5b600380549050846000018181525050600384908060018154018082558091505060019003906000526020600020906004020160009091909190915060008201518160000155602082015181600101556040820151816002015560608201518160030190805190602001906103d592919061103b565b505050600191505092915050565b6060817f8e1604a838d0f1a9b2cda14a099e4ceb08e966cc6e05e8296f67b02d61a79f0960001b811461044b576040517f08c379a000000000000000000000000000000000000000000000000000000000815260040161044290611fe2565b60405180910390fd5b6003805480602002602001604051908101604052809291908181526020016000905b828210156105155783829060005260206000209060040201604051806080016040529081600082015481526020016001820154815260200160028201548152602001600382018054806020026020016040519081016040528092919081815260200182805480156104fd57602002820191906000526020600020905b8154815260200190600101908083116104e9575b5050505050815250508152602001906001019061046d565b50505050915050919050565b6060817f8e1604a838d0f1a9b2cda14a099e4ceb08e966cc6e05e8296f67b02d61a79f0960001b8114610589576040517f08c379a000000000000000000000000000000000000000000000000000000000815260040161058090611fe2565b60405180910390fd5b6004805480602002602001604051908101604052809291908181526020016000905b8282101561060f57838290600052602060002090600502016040518060a001604052908160008201548152602001600182015481526020016002820154815260200160038201548152602001600482015481525050815260200190600101906105ab565b50505050915050919050565b6060817f8e1604a838d0f1a9b2cda14a099e4ceb08e966cc6e05e8296f67b02d61a79f0960001b8114610683576040517f08c379a000000000000000000000000000000000000000000000000000000000815260040161067a90611fe2565b60405180910390fd5b6005805480602002602001604051908101604052809291908181526020016000905b8282101561076157838290600052602060002090600602016040518060c001604052908160008201548152602001600182015481526020016002820180548060200260200160405190810160405280929190818152602001828054801561072b57602002820191906000526020600020905b815481526020019060010190808311610717575b505050505081526020016003820154815260200160048201548152602001600582015481525050815260200190600101906106a5565b50505050915050919050565b6060817f8e1604a838d0f1a9b2cda14a099e4ceb08e966cc6e05e8296f67b02d61a79f0960001b81146107d5576040517f08c379a00000000000000000000000000000000000000000000000000000000081526004016107cc90611fe2565b60405180910390fd5b6002805480602002602001604051908101604052809291908181526020016000905b828210156108935783829060005260206000209060030201604051806060016040529081600082015481526020016001820160009054906101000a900473ffffffffffffffffffffffffffffffffffffffff1673ffffffffffffffffffffffffffffffffffffffff1673ffffffffffffffffffffffffffffffffffffffff168152602001600282015481525050815260200190600101906107f7565b50505050915050919050565b6000817f8e1604a838d0f1a9b2cda14a099e4ceb08e966cc6e05e8296f67b02d61a79f0960001b8114610907576040517f08c379a00000000000000000000000000000000000000000000000000000000081526004016108fe90611fe2565b60405180910390fd5b60028054905084600001818152505060028490806001815401808255809150506001900390600052602060002090600302016000909190919091506000820151816000015560208201518160010160006101000a81548173ffffffffffffffffffffffffffffffffffffffff021916908373ffffffffffffffffffffffffffffffffffffffff160217905550604082015181600201555050600191505092915050565b6000817f8e1604a838d0f1a9b2cda14a099e4ceb08e966cc6e05e8296f67b02d61a79f0960001b8114610a12576040517f08c379a0000000000000000000000000000000000000000000000000000000008152600401610a0990611fe2565b60405180910390fd5b600480549050846000018181525050600484908060018154018082558091505060019003906000526020600020906005020160009091909190915060008201518160000155602082015181600101556040820151816002015560608201518160030155608082015181600401555050600191505092915050565b6060817f8e1604a838d0f1a9b2cda14a099e4ceb08e966cc6e05e8296f67b02d61a79f0960001b8114610af4576040517f08c379a0000000000000000000000000000000000000000000000000000000008152600401610aeb90611fe2565b60405180910390fd5b6001805480602002602001604051908101604052809291908181526020016000905b82821015610bed5783829060005260206000209060030201604051806080016040529081600082015481526020016001820160009054906101000a900473ffffffffffffffffffffffffffffffffffffffff1673ffffffffffffffffffffffffffffffffffffffff1673ffffffffffffffffffffffffffffffffffffffff1681526020016001820160149054906101000a900460ff166002811115610bbe57610bbd611ba2565b5b6002811115610bd057610bcf611ba2565b5b815260200160028201548152505081526020019060010190610b16565b50505050915050919050565b610c01610f00565b3073ffffffffffffffffffffffffffffffffffffffff16ff5b6000817f8e1604a838d0f1a9b2cda14a099e4ceb08e966cc6e05e8296f67b02d61a79f0960001b8114610c82576040517f08c379a0000000000000000000000000000000000000000000000000000000008152600401610c7990611fe2565b60405180910390fd5b60018054905084600001818152505060018490806001815401808255809150506001900390600052602060002090600302016000909190919091506000820151816000015560208201518160010160006101000a81548173ffffffffffffffffffffffffffffffffffffffff021916908373ffffffffffffffffffffffffffffffffffffffff16021790555060408201518160010160146101000a81548160ff02191690836002811115610d3957610d38611ba2565b5b0217905550606082015181600201555050600191505092915050565b60008060009054906101000a900473ffffffffffffffffffffffffffffffffffffffff16905090565b6000817f8e1604a838d0f1a9b2cda14a099e4ceb08e966cc6e05e8296f67b02d61a79f0960001b8114610de6576040517f08c379a0000000000000000000000000000000000000000000000000000000008152600401610ddd90611fe2565b60405180910390fd5b600580549050846000018181525050600584908060018154018082558091505060019003906000526020600020906006020160009091909190915060008201518160000155602082015181600101556040820151816002019080519060200190610e5192919061103b565b50606082015181600301556080820151816004015560a082015181600501555050600191505092915050565b610e85610f00565b600073ffffffffffffffffffffffffffffffffffffffff168173ffffffffffffffffffffffffffffffffffffffff1603610ef4576040517f08c379a0000000000000000000000000000000000000000000000000000000008152600401610eeb90612074565b60405180910390fd5b610efd81610f77565b50565b3373ffffffffffffffffffffffffffffffffffffffff16610f1f610d55565b73ffffffffffffffffffffffffffffffffffffffff1614610f75576040517f08c379a0000000000000000000000000000000000000000000000000000000008152600401610f6c906120e0565b60405180910390fd5b565b60008060009054906101000a900473ffffffffffffffffffffffffffffffffffffffff169050816000806101000a81548173ffffffffffffffffffffffffffffffffffffffff021916908373ffffffffffffffffffffffffffffffffffffffff1602179055508173ffffffffffffffffffffffffffffffffffffffff168173ffffffffffffffffffffffffffffffffffffffff167f8be0079c531659141344cd1fd0a4f28419497f9722a3daafe3b4186f6b6457e060405160405180910390a35050565b828054828255906000526020600020908101928215611077579160200282015b8281111561107657825182559160200191906001019061105b565b5b5090506110849190611088565b5090565b5b808211156110a1576000816000905550600101611089565b5090565b6000604051905090565b600080fd5b600080fd5b600080fd5b6000601f19601f8301169050919050565b7f4e487b7100000000000000000000000000000000000000000000000000000000600052604160045260246000fd5b611107826110be565b810181811067ffffffffffffffff82111715611126576111256110cf565b5b80604052505050565b60006111396110a5565b905061114582826110fe565b919050565b600080fd5b6000819050919050565b6111628161114f565b811461116d57600080fd5b50565b60008135905061117f81611159565b92915050565b600080fd5b600067ffffffffffffffff8211156111a5576111a46110cf565b5b602082029050602081019050919050565b600080fd5b60006111ce6111c98461118a565b61112f565b905080838252602082019050602084028301858111156111f1576111f06111b6565b5b835b8181101561121a57806112068882611170565b8452602084019350506020810190506111f3565b5050509392505050565b600082601f83011261123957611238611185565b5b81356112498482602086016111bb565b91505092915050565b600060808284031215611268576112676110b9565b5b611272608061112f565b9050600061128284828501611170565b600083015250602061129684828501611170565b60208301525060406112aa84828501611170565b604083015250606082013567ffffffffffffffff8111156112ce576112cd61114a565b5b6112da84828501611224565b60608301525092915050565b6000819050919050565b6112f9816112e6565b811461130457600080fd5b50565b600081359050611316816112f0565b92915050565b60008060408385031215611333576113326110af565b5b600083013567ffffffffffffffff811115611351576113506110b4565b5b61135d85828601611252565b925050602061136e85828601611307565b9150509250929050565b60008115159050919050565b61138d81611378565b82525050565b60006020820190506113a86000830184611384565b92915050565b6000602082840312156113c4576113c36110af565b5b60006113d284828501611307565b91505092915050565b600081519050919050565b600082825260208201905092915050565b6000819050602082019050919050565b6114108161114f565b82525050565b600081519050919050565b600082825260208201905092915050565b6000819050602082019050919050565b600061144e8383611407565b60208301905092915050565b6000602082019050919050565b600061147282611416565b61147c8185611421565b935061148783611432565b8060005b838110156114b857815161149f8882611442565b97506114aa8361145a565b92505060018101905061148b565b5085935050505092915050565b60006080830160008301516114dd6000860182611407565b5060208301516114f06020860182611407565b5060408301516115036040860182611407565b506060830151848203606086015261151b8282611467565b9150508091505092915050565b600061153483836114c5565b905092915050565b6000602082019050919050565b6000611554826113db565b61155e81856113e6565b935083602082028501611570856113f7565b8060005b858110156115ac578484038952815161158d8582611528565b94506115988361153c565b925060208a01995050600181019050611574565b50829750879550505050505092915050565b600060208201905081810360008301526115d88184611549565b905092915050565b600081519050919050565b600082825260208201905092915050565b6000819050602082019050919050565b60a0820160008201516116226000850182611407565b5060208201516116356020850182611407565b5060408201516116486040850182611407565b50606082015161165b6060850182611407565b50608082015161166e6080850182611407565b50505050565b6000611680838361160c565b60a08301905092915050565b6000602082019050919050565b60006116a4826115e0565b6116ae81856115eb565b93506116b9836115fc565b8060005b838110156116ea5781516116d18882611674565b97506116dc8361168c565b9250506001810190506116bd565b5085935050505092915050565b600060208201905081810360008301526117118184611699565b905092915050565b600081519050919050565b600082825260208201905092915050565b6000819050602082019050919050565b600060c08301600083015161175d6000860182611407565b5060208301516117706020860182611407565b50604083015184820360408601526117888282611467565b915050606083015161179d6060860182611407565b5060808301516117b06080860182611407565b5060a08301516117c360a0860182611407565b508091505092915050565b60006117da8383611745565b905092915050565b6000602082019050919050565b60006117fa82611719565b6118048185611724565b93508360208202850161181685611735565b8060005b85811015611852578484038952815161183385826117ce565b945061183e836117e2565b925060208a0199505060018101905061181a565b50829750879550505050505092915050565b6000602082019050818103600083015261187e81846117ef565b905092915050565b600081519050919050565b600082825260208201905092915050565b6000819050602082019050919050565b600073ffffffffffffffffffffffffffffffffffffffff82169050919050565b60006118dd826118b2565b9050919050565b6118ed816118d2565b82525050565b6060820160008201516119096000850182611407565b50602082015161191c60208501826118e4565b50604082015161192f6040850182611407565b50505050565b600061194183836118f3565b60608301905092915050565b6000602082019050919050565b600061196582611886565b61196f8185611891565b935061197a836118a2565b8060005b838110156119ab5781516119928882611935565b975061199d8361194d565b92505060018101905061197e565b5085935050505092915050565b600060208201905081810360008301526119d2818461195a565b905092915050565b6119e3816118d2565b81146119ee57600080fd5b50565b600081359050611a00816119da565b92915050565b600060608284031215611a1c57611a1b6110b9565b5b611a26606061112f565b90506000611a3684828501611170565b6000830152506020611a4a848285016119f1565b6020830152506040611a5e84828501611170565b60408301525092915050565b60008060808385031215611a8157611a806110af565b5b6000611a8f85828601611a06565b9250506060611aa085828601611307565b9150509250929050565b600060a08284031215611ac057611abf6110b9565b5b611aca60a061112f565b90506000611ada84828501611170565b6000830152506020611aee84828501611170565b6020830152506040611b0284828501611170565b6040830152506060611b1684828501611170565b6060830152506080611b2a84828501611170565b60808301525092915050565b60008060c08385031215611b4d57611b4c6110af565b5b6000611b5b85828601611aaa565b92505060a0611b6c85828601611307565b9150509250929050565b600081519050919050565b600082825260208201905092915050565b6000819050602082019050919050565b7f4e487b7100000000000000000000000000000000000000000000000000000000600052602160045260246000fd5b60038110611be257611be1611ba2565b5b50565b6000819050611bf382611bd1565b919050565b6000611c0382611be5565b9050919050565b611c1381611bf8565b82525050565b608082016000820151611c2f6000850182611407565b506020820151611c4260208501826118e4565b506040820151611c556040850182611c0a565b506060820151611c686060850182611407565b50505050565b6000611c7a8383611c19565b60808301905092915050565b6000602082019050919050565b6000611c9e82611b76565b611ca88185611b81565b9350611cb383611b92565b8060005b83811015611ce4578151611ccb8882611c6e565b9750611cd683611c86565b925050600181019050611cb7565b5085935050505092915050565b60006020820190508181036000830152611d0b8184611c93565b905092915050565b60038110611d2057600080fd5b50565b600081359050611d3281611d13565b92915050565b600060808284031215611d4e57611d4d6110b9565b5b611d58608061112f565b90506000611d6884828501611170565b6000830152506020611d7c848285016119f1565b6020830152506040611d9084828501611d23565b6040830152506060611da484828501611170565b60608301525092915050565b60008060a08385031215611dc757611dc66110af565b5b6000611dd585828601611d38565b9250506080611de685828601611307565b9150509250929050565b611df9816118d2565b82525050565b6000602082019050611e146000830184611df0565b92915050565b600060c08284031215611e3057611e2f6110b9565b5b611e3a60c061112f565b90506000611e4a84828501611170565b6000830152506020611e5e84828501611170565b602083015250604082013567ffffffffffffffff811115611e8257611e8161114a565b5b611e8e84828501611224565b6040830152506060611ea284828501611170565b6060830152506080611eb684828501611170565b60808301525060a0611eca84828501611170565b60a08301525092915050565b60008060408385031215611eed57611eec6110af565b5b600083013567ffffffffffffffff811115611f0b57611f0a6110b4565b5b611f1785828601611e1a565b9250506020611f2885828601611307565b9150509250929050565b600060208284031215611f4857611f476110af565b5b6000611f56848285016119f1565b91505092915050565b600082825260208201905092915050565b7f44617461626173652050726f63657373696e6744617461626173653a2053656360008201527f726574206b6579206572726f7200000000000000000000000000000000000000602082015250565b6000611fcc602d83611f5f565b9150611fd782611f70565b604082019050919050565b60006020820190508181036000830152611ffb81611fbf565b9050919050565b7f4f776e61626c653a206e6577206f776e657220697320746865207a65726f206160008201527f6464726573730000000000000000000000000000000000000000000000000000602082015250565b600061205e602683611f5f565b915061206982612002565b604082019050919050565b6000602082019050818103600083015261208d81612051565b9050919050565b7f4f776e61626c653a2063616c6c6572206973206e6f7420746865206f776e6572600082015250565b60006120ca602083611f5f565b91506120d582612094565b602082019050919050565b600060208201905081810360008301526120f9816120bd565b905091905056fea264697066735822122005f61acf6faf95578f204448e9c5fadbf518774c9bcbf74771ee53a211ccbdc364736f6c63430008110033",
					"opcodes": "PUSH1 0x80 PUSH1 0x40 MSTORE CALLVALUE DUP1 ISZERO PUSH2 0x10 JUMPI PUSH1 0x0 DUP1 REVERT JUMPDEST POP CALLER PUSH1 0x0 DUP1 PUSH2 0x100 EXP DUP2 SLOAD DUP2 PUSH20 0xFFFFFFFFFFFFFFFFFFFFFFFFFFFFFFFFFFFFFFFF MUL NOT AND SWAP1 DUP4 PUSH20 0xFFFFFFFFFFFFFFFFFFFFFFFFFFFFFFFFFFFFFFFF AND MUL OR SWAP1 SSTORE POP PUSH2 0x2136 DUP1 PUSH2 0x60 PUSH1 0x0 CODECOPY PUSH1 0x0 RETURN INVALID PUSH1 0x80 PUSH1 0x40 MSTORE CALLVALUE DUP1 ISZERO PUSH2 0x10 JUMPI PUSH1 0x0 DUP1 REVERT JUMPDEST POP PUSH1 0x4 CALLDATASIZE LT PUSH2 0xCF JUMPI PUSH1 0x0 CALLDATALOAD PUSH1 0xE0 SHR DUP1 PUSH4 0x4269E28B GT PUSH2 0x8C JUMPI DUP1 PUSH4 0x86E9BACF GT PUSH2 0x66 JUMPI DUP1 PUSH4 0x86E9BACF EQ PUSH2 0x25E JUMPI DUP1 PUSH4 0x8DA5CB5B EQ PUSH2 0x28E JUMPI DUP1 PUSH4 0xCB7C5C50 EQ PUSH2 0x2AC JUMPI DUP1 PUSH4 0xF2FDE38B EQ PUSH2 0x2DC JUMPI PUSH2 0xCF JUMP JUMPDEST DUP1 PUSH4 0x4269E28B EQ PUSH2 0x1F4 JUMPI DUP1 PUSH4 0x776364A7 EQ PUSH2 0x224 JUMPI DUP1 PUSH4 0x83197EF0 EQ PUSH2 0x254 JUMPI PUSH2 0xCF JUMP JUMPDEST DUP1 PUSH4 0x21CA464 EQ PUSH2 0xD4 JUMPI DUP1 PUSH4 0x3970403 EQ PUSH2 0x104 JUMPI DUP1 PUSH4 0x1D769A9E EQ PUSH2 0x134 JUMPI DUP1 PUSH4 0x270B3869 EQ PUSH2 0x164 JUMPI DUP1 PUSH4 0x2AE72D06 EQ PUSH2 0x194 JUMPI DUP1 PUSH4 0x318EE31A EQ PUSH2 0x1C4 JUMPI JUMPDEST PUSH1 0x0 DUP1 REVERT JUMPDEST PUSH2 0xEE PUSH1 0x4 DUP1 CALLDATASIZE SUB DUP2 ADD SWAP1 PUSH2 0xE9 SWAP2 SWAP1 PUSH2 0x131C JUMP JUMPDEST PUSH2 0x2F8 JUMP JUMPDEST PUSH1 0x40 MLOAD PUSH2 0xFB SWAP2 SWAP1 PUSH2 0x1393 JUMP JUMPDEST PUSH1 0x40 MLOAD DUP1 SWAP2 SUB SWAP1 RETURN JUMPDEST PUSH2 0x11E PUSH1 0x4 DUP1 CALLDATASIZE SUB DUP2 ADD SWAP1 PUSH2 0x119 SWAP2 SWAP1 PUSH2 0x13AE JUMP JUMPDEST PUSH2 0x3E3 JUMP JUMPDEST PUSH1 0x40 MLOAD PUSH2 0x12B SWAP2 SWAP1 PUSH2 0x15BE JUMP JUMPDEST PUSH1 0x40 MLOAD DUP1 SWAP2 SUB SWAP1 RETURN JUMPDEST PUSH2 0x14E PUSH1 0x4 DUP1 CALLDATASIZE SUB DUP2 ADD SWAP1 PUSH2 0x149 SWAP2 SWAP1 PUSH2 0x13AE JUMP JUMPDEST PUSH2 0x521 JUMP JUMPDEST PUSH1 0x40 MLOAD PUSH2 0x15B SWAP2 SWAP1 PUSH2 0x16F7 JUMP JUMPDEST PUSH1 0x40 MLOAD DUP1 SWAP2 SUB SWAP1 RETURN JUMPDEST PUSH2 0x17E PUSH1 0x4 DUP1 CALLDATASIZE SUB DUP2 ADD SWAP1 PUSH2 0x179 SWAP2 SWAP1 PUSH2 0x13AE JUMP JUMPDEST PUSH2 0x61B JUMP JUMPDEST PUSH1 0x40 MLOAD PUSH2 0x18B SWAP2 SWAP1 PUSH2 0x1864 JUMP JUMPDEST PUSH1 0x40 MLOAD DUP1 SWAP2 SUB SWAP1 RETURN JUMPDEST PUSH2 0x1AE PUSH1 0x4 DUP1 CALLDATASIZE SUB DUP2 ADD SWAP1 PUSH2 0x1A9 SWAP2 SWAP1 PUSH2 0x13AE JUMP JUMPDEST PUSH2 0x76D JUMP JUMPDEST PUSH1 0x40 MLOAD PUSH2 0x1BB SWAP2 SWAP1 PUSH2 0x19B8 JUMP JUMPDEST PUSH1 0x40 MLOAD DUP1 SWAP2 SUB SWAP1 RETURN JUMPDEST PUSH2 0x1DE PUSH1 0x4 DUP1 CALLDATASIZE SUB DUP2 ADD SWAP1 PUSH2 0x1D9 SWAP2 SWAP1 PUSH2 0x1A6A JUMP JUMPDEST PUSH2 0x89F JUMP JUMPDEST PUSH1 0x40 MLOAD PUSH2 0x1EB SWAP2 SWAP1 PUSH2 0x1393 JUMP JUMPDEST PUSH1 0x40 MLOAD DUP1 SWAP2 SUB SWAP1 RETURN JUMPDEST PUSH2 0x20E PUSH1 0x4 DUP1 CALLDATASIZE SUB DUP2 ADD SWAP1 PUSH2 0x209 SWAP2 SWAP1 PUSH2 0x1B36 JUMP JUMPDEST PUSH2 0x9AA JUMP JUMPDEST PUSH1 0x40 MLOAD PUSH2 0x21B SWAP2 SWAP1 PUSH2 0x1393 JUMP JUMPDEST PUSH1 0x40 MLOAD DUP1 SWAP2 SUB SWAP1 RETURN JUMPDEST PUSH2 0x23E PUSH1 0x4 DUP1 CALLDATASIZE SUB DUP2 ADD SWAP1 PUSH2 0x239 SWAP2 SWAP1 PUSH2 0x13AE JUMP JUMPDEST PUSH2 0xA8C JUMP JUMPDEST PUSH1 0x40 MLOAD PUSH2 0x24B SWAP2 SWAP1 PUSH2 0x1CF1 JUMP JUMPDEST PUSH1 0x40 MLOAD DUP1 SWAP2 SUB SWAP1 RETURN JUMPDEST PUSH2 0x25C PUSH2 0xBF9 JUMP JUMPDEST STOP JUMPDEST PUSH2 0x278 PUSH1 0x4 DUP1 CALLDATASIZE SUB DUP2 ADD SWAP1 PUSH2 0x273 SWAP2 SWAP1 PUSH2 0x1DB0 JUMP JUMPDEST PUSH2 0xC1A JUMP JUMPDEST PUSH1 0x40 MLOAD PUSH2 0x285 SWAP2 SWAP1 PUSH2 0x1393 JUMP JUMPDEST PUSH1 0x40 MLOAD DUP1 SWAP2 SUB SWAP1 RETURN JUMPDEST PUSH2 0x296 PUSH2 0xD55 JUMP JUMPDEST PUSH1 0x40 MLOAD PUSH2 0x2A3 SWAP2 SWAP1 PUSH2 0x1DFF JUMP JUMPDEST PUSH1 0x40 MLOAD DUP1 SWAP2 SUB SWAP1 RETURN JUMPDEST PUSH2 0x2C6 PUSH1 0x4 DUP1 CALLDATASIZE SUB DUP2 ADD SWAP1 PUSH2 0x2C1 SWAP2 SWAP1 PUSH2 0x1ED6 JUMP JUMPDEST PUSH2 0xD7E JUMP JUMPDEST PUSH1 0x40 MLOAD PUSH2 0x2D3 SWAP2 SWAP1 PUSH2 0x1393 JUMP JUMPDEST PUSH1 0x40 MLOAD DUP1 SWAP2 SUB SWAP1 RETURN JUMPDEST PUSH2 0x2F6 PUSH1 0x4 DUP1 CALLDATASIZE SUB DUP2 ADD SWAP1 PUSH2 0x2F1 SWAP2 SWAP1 PUSH2 0x1F32 JUMP JUMPDEST PUSH2 0xE7D JUMP JUMPDEST STOP JUMPDEST PUSH1 0x0 DUP2 PUSH32 0x8E1604A838D0F1A9B2CDA14A099E4CEB08E966CC6E05E8296F67B02D61A79F09 PUSH1 0x0 SHL DUP2 EQ PUSH2 0x360 JUMPI PUSH1 0x40 MLOAD PUSH32 0x8C379A000000000000000000000000000000000000000000000000000000000 DUP2 MSTORE PUSH1 0x4 ADD PUSH2 0x357 SWAP1 PUSH2 0x1FE2 JUMP JUMPDEST PUSH1 0x40 MLOAD DUP1 SWAP2 SUB SWAP1 REVERT JUMPDEST PUSH1 0x3 DUP1 SLOAD SWAP1 POP DUP5 PUSH1 0x0 ADD DUP2 DUP2 MSTORE POP POP PUSH1 0x3 DUP5 SWAP1 DUP1 PUSH1 0x1 DUP2 SLOAD ADD DUP1 DUP3 SSTORE DUP1 SWAP2 POP POP PUSH1 0x1 SWAP1 SUB SWAP1 PUSH1 0x0 MSTORE PUSH1 0x20 PUSH1 0x0 KECCAK256 SWAP1 PUSH1 0x4 MUL ADD PUSH1 0x0 SWAP1 SWAP2 SWAP1 SWAP2 SWAP1 SWAP2 POP PUSH1 0x0 DUP3 ADD MLOAD DUP2 PUSH1 0x0 ADD SSTORE PUSH1 0x20 DUP3 ADD MLOAD DUP2 PUSH1 0x1 ADD SSTORE PUSH1 0x40 DUP3 ADD MLOAD DUP2 PUSH1 0x2 ADD SSTORE PUSH1 0x60 DUP3 ADD MLOAD DUP2 PUSH1 0x3 ADD SWAP1 DUP1 MLOAD SWAP1 PUSH1 0x20 ADD SWAP1 PUSH2 0x3D5 SWAP3 SWAP2 SWAP1 PUSH2 0x103B JUMP JUMPDEST POP POP POP PUSH1 0x1 SWAP2 POP POP SWAP3 SWAP2 POP POP JUMP JUMPDEST PUSH1 0x60 DUP2 PUSH32 0x8E1604A838D0F1A9B2CDA14A099E4CEB08E966CC6E05E8296F67B02D61A79F09 PUSH1 0x0 SHL DUP2 EQ PUSH2 0x44B JUMPI PUSH1 0x40 MLOAD PUSH32 0x8C379A000000000000000000000000000000000000000000000000000000000 DUP2 MSTORE PUSH1 0x4 ADD PUSH2 0x442 SWAP1 PUSH2 0x1FE2 JUMP JUMPDEST PUSH1 0x40 MLOAD DUP1 SWAP2 SUB SWAP1 REVERT JUMPDEST PUSH1 0x3 DUP1 SLOAD DUP1 PUSH1 0x20 MUL PUSH1 0x20 ADD PUSH1 0x40 MLOAD SWAP1 DUP2 ADD PUSH1 0x40 MSTORE DUP1 SWAP3 SWAP2 SWAP1 DUP2 DUP2 MSTORE PUSH1 0x20 ADD PUSH1 0x0 SWAP1 JUMPDEST DUP3 DUP3 LT ISZERO PUSH2 0x515 JUMPI DUP4 DUP3 SWAP1 PUSH1 0x0 MSTORE PUSH1 0x20 PUSH1 0x0 KECCAK256 SWAP1 PUSH1 0x4 MUL ADD PUSH1 0x40 MLOAD DUP1 PUSH1 0x80 ADD PUSH1 0x40 MSTORE SWAP1 DUP2 PUSH1 0x0 DUP3 ADD SLOAD DUP2 MSTORE PUSH1 0x20 ADD PUSH1 0x1 DUP3 ADD SLOAD DUP2 MSTORE PUSH1 0x20 ADD PUSH1 0x2 DUP3 ADD SLOAD DUP2 MSTORE PUSH1 0x20 ADD PUSH1 0x3 DUP3 ADD DUP1 SLOAD DUP1 PUSH1 0x20 MUL PUSH1 0x20 ADD PUSH1 0x40 MLOAD SWAP1 DUP2 ADD PUSH1 0x40 MSTORE DUP1 SWAP3 SWAP2 SWAP1 DUP2 DUP2 MSTORE PUSH1 0x20 ADD DUP3 DUP1 SLOAD DUP1 ISZERO PUSH2 0x4FD JUMPI PUSH1 0x20 MUL DUP3 ADD SWAP2 SWAP1 PUSH1 0x0 MSTORE PUSH1 0x20 PUSH1 0x0 KECCAK256 SWAP1 JUMPDEST DUP2 SLOAD DUP2 MSTORE PUSH1 0x20 ADD SWAP1 PUSH1 0x1 ADD SWAP1 DUP1 DUP4 GT PUSH2 0x4E9 JUMPI JUMPDEST POP POP POP POP POP DUP2 MSTORE POP POP DUP2 MSTORE PUSH1 0x20 ADD SWAP1 PUSH1 0x1 ADD SWAP1 PUSH2 0x46D JUMP JUMPDEST POP POP POP POP SWAP2 POP POP SWAP2 SWAP1 POP JUMP JUMPDEST PUSH1 0x60 DUP2 PUSH32 0x8E1604A838D0F1A9B2CDA14A099E4CEB08E966CC6E05E8296F67B02D61A79F09 PUSH1 0x0 SHL DUP2 EQ PUSH2 0x589 JUMPI PUSH1 0x40 MLOAD PUSH32 0x8C379A000000000000000000000000000000000000000000000000000000000 DUP2 MSTORE PUSH1 0x4 ADD PUSH2 0x580 SWAP1 PUSH2 0x1FE2 JUMP JUMPDEST PUSH1 0x40 MLOAD DUP1 SWAP2 SUB SWAP1 REVERT JUMPDEST PUSH1 0x4 DUP1 SLOAD DUP1 PUSH1 0x20 MUL PUSH1 0x20 ADD PUSH1 0x40 MLOAD SWAP1 DUP2 ADD PUSH1 0x40 MSTORE DUP1 SWAP3 SWAP2 SWAP1 DUP2 DUP2 MSTORE PUSH1 0x20 ADD PUSH1 0x0 SWAP1 JUMPDEST DUP3 DUP3 LT ISZERO PUSH2 0x60F JUMPI DUP4 DUP3 SWAP1 PUSH1 0x0 MSTORE PUSH1 0x20 PUSH1 0x0 KECCAK256 SWAP1 PUSH1 0x5 MUL ADD PUSH1 0x40 MLOAD DUP1 PUSH1 0xA0 ADD PUSH1 0x40 MSTORE SWAP1 DUP2 PUSH1 0x0 DUP3 ADD SLOAD DUP2 MSTORE PUSH1 0x20 ADD PUSH1 0x1 DUP3 ADD SLOAD DUP2 MSTORE PUSH1 0x20 ADD PUSH1 0x2 DUP3 ADD SLOAD DUP2 MSTORE PUSH1 0x20 ADD PUSH1 0x3 DUP3 ADD SLOAD DUP2 MSTORE PUSH1 0x20 ADD PUSH1 0x4 DUP3 ADD SLOAD DUP2 MSTORE POP POP DUP2 MSTORE PUSH1 0x20 ADD SWAP1 PUSH1 0x1 ADD SWAP1 PUSH2 0x5AB JUMP JUMPDEST POP POP POP POP SWAP2 POP POP SWAP2 SWAP1 POP JUMP JUMPDEST PUSH1 0x60 DUP2 PUSH32 0x8E1604A838D0F1A9B2CDA14A099E4CEB08E966CC6E05E8296F67B02D61A79F09 PUSH1 0x0 SHL DUP2 EQ PUSH2 0x683 JUMPI PUSH1 0x40 MLOAD PUSH32 0x8C379A000000000000000000000000000000000000000000000000000000000 DUP2 MSTORE PUSH1 0x4 ADD PUSH2 0x67A SWAP1 PUSH2 0x1FE2 JUMP JUMPDEST PUSH1 0x40 MLOAD DUP1 SWAP2 SUB SWAP1 REVERT JUMPDEST PUSH1 0x5 DUP1 SLOAD DUP1 PUSH1 0x20 MUL PUSH1 0x20 ADD PUSH1 0x40 MLOAD SWAP1 DUP2 ADD PUSH1 0x40 MSTORE DUP1 SWAP3 SWAP2 SWAP1 DUP2 DUP2 MSTORE PUSH1 0x20 ADD PUSH1 0x0 SWAP1 JUMPDEST DUP3 DUP3 LT ISZERO PUSH2 0x761 JUMPI DUP4 DUP3 SWAP1 PUSH1 0x0 MSTORE PUSH1 0x20 PUSH1 0x0 KECCAK256 SWAP1 PUSH1 0x6 MUL ADD PUSH1 0x40 MLOAD DUP1 PUSH1 0xC0 ADD PUSH1 0x40 MSTORE SWAP1 DUP2 PUSH1 0x0 DUP3 ADD SLOAD DUP2 MSTORE PUSH1 0x20 ADD PUSH1 0x1 DUP3 ADD SLOAD DUP2 MSTORE PUSH1 0x20 ADD PUSH1 0x2 DUP3 ADD DUP1 SLOAD DUP1 PUSH1 0x20 MUL PUSH1 0x20 ADD PUSH1 0x40 MLOAD SWAP1 DUP2 ADD PUSH1 0x40 MSTORE DUP1 SWAP3 SWAP2 SWAP1 DUP2 DUP2 MSTORE PUSH1 0x20 ADD DUP3 DUP1 SLOAD DUP1 ISZERO PUSH2 0x72B JUMPI PUSH1 0x20 MUL DUP3 ADD SWAP2 SWAP1 PUSH1 0x0 MSTORE PUSH1 0x20 PUSH1 0x0 KECCAK256 SWAP1 JUMPDEST DUP2 SLOAD DUP2 MSTORE PUSH1 0x20 ADD SWAP1 PUSH1 0x1 ADD SWAP1 DUP1 DUP4 GT PUSH2 0x717 JUMPI JUMPDEST POP POP POP POP POP DUP2 MSTORE PUSH1 0x20 ADD PUSH1 0x3 DUP3 ADD SLOAD DUP2 MSTORE PUSH1 0x20 ADD PUSH1 0x4 DUP3 ADD SLOAD DUP2 MSTORE PUSH1 0x20 ADD PUSH1 0x5 DUP3 ADD SLOAD DUP2 MSTORE POP POP DUP2 MSTORE PUSH1 0x20 ADD SWAP1 PUSH1 0x1 ADD SWAP1 PUSH2 0x6A5 JUMP JUMPDEST POP POP POP POP SWAP2 POP POP SWAP2 SWAP1 POP JUMP JUMPDEST PUSH1 0x60 DUP2 PUSH32 0x8E1604A838D0F1A9B2CDA14A099E4CEB08E966CC6E05E8296F67B02D61A79F09 PUSH1 0x0 SHL DUP2 EQ PUSH2 0x7D5 JUMPI PUSH1 0x40 MLOAD PUSH32 0x8C379A000000000000000000000000000000000000000000000000000000000 DUP2 MSTORE PUSH1 0x4 ADD PUSH2 0x7CC SWAP1 PUSH2 0x1FE2 JUMP JUMPDEST PUSH1 0x40 MLOAD DUP1 SWAP2 SUB SWAP1 REVERT JUMPDEST PUSH1 0x2 DUP1 SLOAD DUP1 PUSH1 0x20 MUL PUSH1 0x20 ADD PUSH1 0x40 MLOAD SWAP1 DUP2 ADD PUSH1 0x40 MSTORE DUP1 SWAP3 SWAP2 SWAP1 DUP2 DUP2 MSTORE PUSH1 0x20 ADD PUSH1 0x0 SWAP1 JUMPDEST DUP3 DUP3 LT ISZERO PUSH2 0x893 JUMPI DUP4 DUP3 SWAP1 PUSH1 0x0 MSTORE PUSH1 0x20 PUSH1 0x0 KECCAK256 SWAP1 PUSH1 0x3 MUL ADD PUSH1 0x40 MLOAD DUP1 PUSH1 0x60 ADD PUSH1 0x40 MSTORE SWAP1 DUP2 PUSH1 0x0 DUP3 ADD SLOAD DUP2 MSTORE PUSH1 0x20 ADD PUSH1 0x1 DUP3 ADD PUSH1 0x0 SWAP1 SLOAD SWAP1 PUSH2 0x100 EXP SWAP1 DIV PUSH20 0xFFFFFFFFFFFFFFFFFFFFFFFFFFFFFFFFFFFFFFFF AND PUSH20 0xFFFFFFFFFFFFFFFFFFFFFFFFFFFFFFFFFFFFFFFF AND PUSH20 0xFFFFFFFFFFFFFFFFFFFFFFFFFFFFFFFFFFFFFFFF AND DUP2 MSTORE PUSH1 0x20 ADD PUSH1 0x2 DUP3 ADD SLOAD DUP2 MSTORE POP POP DUP2 MSTORE PUSH1 0x20 ADD SWAP1 PUSH1 0x1 ADD SWAP1 PUSH2 0x7F7 JUMP JUMPDEST POP POP POP POP SWAP2 POP POP SWAP2 SWAP1 POP JUMP JUMPDEST PUSH1 0x0 DUP2 PUSH32 0x8E1604A838D0F1A9B2CDA14A099E4CEB08E966CC6E05E8296F67B02D61A79F09 PUSH1 0x0 SHL DUP2 EQ PUSH2 0x907 JUMPI PUSH1 0x40 MLOAD PUSH32 0x8C379A000000000000000000000000000000000000000000000000000000000 DUP2 MSTORE PUSH1 0x4 ADD PUSH2 0x8FE SWAP1 PUSH2 0x1FE2 JUMP JUMPDEST PUSH1 0x40 MLOAD DUP1 SWAP2 SUB SWAP1 REVERT JUMPDEST PUSH1 0x2 DUP1 SLOAD SWAP1 POP DUP5 PUSH1 0x0 ADD DUP2 DUP2 MSTORE POP POP PUSH1 0x2 DUP5 SWAP1 DUP1 PUSH1 0x1 DUP2 SLOAD ADD DUP1 DUP3 SSTORE DUP1 SWAP2 POP POP PUSH1 0x1 SWAP1 SUB SWAP1 PUSH1 0x0 MSTORE PUSH1 0x20 PUSH1 0x0 KECCAK256 SWAP1 PUSH1 0x3 MUL ADD PUSH1 0x0 SWAP1 SWAP2 SWAP1 SWAP2 SWAP1 SWAP2 POP PUSH1 0x0 DUP3 ADD MLOAD DUP2 PUSH1 0x0 ADD SSTORE PUSH1 0x20 DUP3 ADD MLOAD DUP2 PUSH1 0x1 ADD PUSH1 0x0 PUSH2 0x100 EXP DUP2 SLOAD DUP2 PUSH20 0xFFFFFFFFFFFFFFFFFFFFFFFFFFFFFFFFFFFFFFFF MUL NOT AND SWAP1 DUP4 PUSH20 0xFFFFFFFFFFFFFFFFFFFFFFFFFFFFFFFFFFFFFFFF AND MUL OR SWAP1 SSTORE POP PUSH1 0x40 DUP3 ADD MLOAD DUP2 PUSH1 0x2 ADD SSTORE POP POP PUSH1 0x1 SWAP2 POP POP SWAP3 SWAP2 POP POP JUMP JUMPDEST PUSH1 0x0 DUP2 PUSH32 0x8E1604A838D0F1A9B2CDA14A099E4CEB08E966CC6E05E8296F67B02D61A79F09 PUSH1 0x0 SHL DUP2 EQ PUSH2 0xA12 JUMPI PUSH1 0x40 MLOAD PUSH32 0x8C379A000000000000000000000000000000000000000000000000000000000 DUP2 MSTORE PUSH1 0x4 ADD PUSH2 0xA09 SWAP1 PUSH2 0x1FE2 JUMP JUMPDEST PUSH1 0x40 MLOAD DUP1 SWAP2 SUB SWAP1 REVERT JUMPDEST PUSH1 0x4 DUP1 SLOAD SWAP1 POP DUP5 PUSH1 0x0 ADD DUP2 DUP2 MSTORE POP POP PUSH1 0x4 DUP5 SWAP1 DUP1 PUSH1 0x1 DUP2 SLOAD ADD DUP1 DUP3 SSTORE DUP1 SWAP2 POP POP PUSH1 0x1 SWAP1 SUB SWAP1 PUSH1 0x0 MSTORE PUSH1 0x20 PUSH1 0x0 KECCAK256 SWAP1 PUSH1 0x5 MUL ADD PUSH1 0x0 SWAP1 SWAP2 SWAP1 SWAP2 SWAP1 SWAP2 POP PUSH1 0x0 DUP3 ADD MLOAD DUP2 PUSH1 0x0 ADD SSTORE PUSH1 0x20 DUP3 ADD MLOAD DUP2 PUSH1 0x1 ADD SSTORE PUSH1 0x40 DUP3 ADD MLOAD DUP2 PUSH1 0x2 ADD SSTORE PUSH1 0x60 DUP3 ADD MLOAD DUP2 PUSH1 0x3 ADD SSTORE PUSH1 0x80 DUP3 ADD MLOAD DUP2 PUSH1 0x4 ADD SSTORE POP POP PUSH1 0x1 SWAP2 POP POP SWAP3 SWAP2 POP POP JUMP JUMPDEST PUSH1 0x60 DUP2 PUSH32 0x8E1604A838D0F1A9B2CDA14A099E4CEB08E966CC6E05E8296F67B02D61A79F09 PUSH1 0x0 SHL DUP2 EQ PUSH2 0xAF4 JUMPI PUSH1 0x40 MLOAD PUSH32 0x8C379A000000000000000000000000000000000000000000000000000000000 DUP2 MSTORE PUSH1 0x4 ADD PUSH2 0xAEB SWAP1 PUSH2 0x1FE2 JUMP JUMPDEST PUSH1 0x40 MLOAD DUP1 SWAP2 SUB SWAP1 REVERT JUMPDEST PUSH1 0x1 DUP1 SLOAD DUP1 PUSH1 0x20 MUL PUSH1 0x20 ADD PUSH1 0x40 MLOAD SWAP1 DUP2 ADD PUSH1 0x40 MSTORE DUP1 SWAP3 SWAP2 SWAP1 DUP2 DUP2 MSTORE PUSH1 0x20 ADD PUSH1 0x0 SWAP1 JUMPDEST DUP3 DUP3 LT ISZERO PUSH2 0xBED JUMPI DUP4 DUP3 SWAP1 PUSH1 0x0 MSTORE PUSH1 0x20 PUSH1 0x0 KECCAK256 SWAP1 PUSH1 0x3 MUL ADD PUSH1 0x40 MLOAD DUP1 PUSH1 0x80 ADD PUSH1 0x40 MSTORE SWAP1 DUP2 PUSH1 0x0 DUP3 ADD SLOAD DUP2 MSTORE PUSH1 0x20 ADD PUSH1 0x1 DUP3 ADD PUSH1 0x0 SWAP1 SLOAD SWAP1 PUSH2 0x100 EXP SWAP1 DIV PUSH20 0xFFFFFFFFFFFFFFFFFFFFFFFFFFFFFFFFFFFFFFFF AND PUSH20 0xFFFFFFFFFFFFFFFFFFFFFFFFFFFFFFFFFFFFFFFF AND PUSH20 0xFFFFFFFFFFFFFFFFFFFFFFFFFFFFFFFFFFFFFFFF AND DUP2 MSTORE PUSH1 0x20 ADD PUSH1 0x1 DUP3 ADD PUSH1 0x14 SWAP1 SLOAD SWAP1 PUSH2 0x100 EXP SWAP1 DIV PUSH1 0xFF AND PUSH1 0x2 DUP2 GT ISZERO PUSH2 0xBBE JUMPI PUSH2 0xBBD PUSH2 0x1BA2 JUMP JUMPDEST JUMPDEST PUSH1 0x2 DUP2 GT ISZERO PUSH2 0xBD0 JUMPI PUSH2 0xBCF PUSH2 0x1BA2 JUMP JUMPDEST JUMPDEST DUP2 MSTORE PUSH1 0x20 ADD PUSH1 0x2 DUP3 ADD SLOAD DUP2 MSTORE POP POP DUP2 MSTORE PUSH1 0x20 ADD SWAP1 PUSH1 0x1 ADD SWAP1 PUSH2 0xB16 JUMP JUMPDEST POP POP POP POP SWAP2 POP POP SWAP2 SWAP1 POP JUMP JUMPDEST PUSH2 0xC01 PUSH2 0xF00 JUMP JUMPDEST ADDRESS PUSH20 0xFFFFFFFFFFFFFFFFFFFFFFFFFFFFFFFFFFFFFFFF AND SELFDESTRUCT JUMPDEST PUSH1 0x0 DUP2 PUSH32 0x8E1604A838D0F1A9B2CDA14A099E4CEB08E966CC6E05E8296F67B02D61A79F09 PUSH1 0x0 SHL DUP2 EQ PUSH2 0xC82 JUMPI PUSH1 0x40 MLOAD PUSH32 0x8C379A000000000000000000000000000000000000000000000000000000000 DUP2 MSTORE PUSH1 0x4 ADD PUSH2 0xC79 SWAP1 PUSH2 0x1FE2 JUMP JUMPDEST PUSH1 0x40 MLOAD DUP1 SWAP2 SUB SWAP1 REVERT JUMPDEST PUSH1 0x1 DUP1 SLOAD SWAP1 POP DUP5 PUSH1 0x0 ADD DUP2 DUP2 MSTORE POP POP PUSH1 0x1 DUP5 SWAP1 DUP1 PUSH1 0x1 DUP2 SLOAD ADD DUP1 DUP3 SSTORE DUP1 SWAP2 POP POP PUSH1 0x1 SWAP1 SUB SWAP1 PUSH1 0x0 MSTORE PUSH1 0x20 PUSH1 0x0 KECCAK256 SWAP1 PUSH1 0x3 MUL ADD PUSH1 0x0 SWAP1 SWAP2 SWAP1 SWAP2 SWAP1 SWAP2 POP PUSH1 0x0 DUP3 ADD MLOAD DUP2 PUSH1 0x0 ADD SSTORE PUSH1 0x20 DUP3 ADD MLOAD DUP2 PUSH1 0x1 ADD PUSH1 0x0 PUSH2 0x100 EXP DUP2 SLOAD DUP2 PUSH20 0xFFFFFFFFFFFFFFFFFFFFFFFFFFFFFFFFFFFFFFFF MUL NOT AND SWAP1 DUP4 PUSH20 0xFFFFFFFFFFFFFFFFFFFFFFFFFFFFFFFFFFFFFFFF AND MUL OR SWAP1 SSTORE POP PUSH1 0x40 DUP3 ADD MLOAD DUP2 PUSH1 0x1 ADD PUSH1 0x14 PUSH2 0x100 EXP DUP2 SLOAD DUP2 PUSH1 0xFF MUL NOT AND SWAP1 DUP4 PUSH1 0x2 DUP2 GT ISZERO PUSH2 0xD39 JUMPI PUSH2 0xD38 PUSH2 0x1BA2 JUMP JUMPDEST JUMPDEST MUL OR SWAP1 SSTORE POP PUSH1 0x60 DUP3 ADD MLOAD DUP2 PUSH1 0x2 ADD SSTORE POP POP PUSH1 0x1 SWAP2 POP POP SWAP3 SWAP2 POP POP JUMP JUMPDEST PUSH1 0x0 DUP1 PUSH1 0x0 SWAP1 SLOAD SWAP1 PUSH2 0x100 EXP SWAP1 DIV PUSH20 0xFFFFFFFFFFFFFFFFFFFFFFFFFFFFFFFFFFFFFFFF AND SWAP1 POP SWAP1 JUMP JUMPDEST PUSH1 0x0 DUP2 PUSH32 0x8E1604A838D0F1A9B2CDA14A099E4CEB08E966CC6E05E8296F67B02D61A79F09 PUSH1 0x0 SHL DUP2 EQ PUSH2 0xDE6 JUMPI PUSH1 0x40 MLOAD PUSH32 0x8C379A000000000000000000000000000000000000000000000000000000000 DUP2 MSTORE PUSH1 0x4 ADD PUSH2 0xDDD SWAP1 PUSH2 0x1FE2 JUMP JUMPDEST PUSH1 0x40 MLOAD DUP1 SWAP2 SUB SWAP1 REVERT JUMPDEST PUSH1 0x5 DUP1 SLOAD SWAP1 POP DUP5 PUSH1 0x0 ADD DUP2 DUP2 MSTORE POP POP PUSH1 0x5 DUP5 SWAP1 DUP1 PUSH1 0x1 DUP2 SLOAD ADD DUP1 DUP3 SSTORE DUP1 SWAP2 POP POP PUSH1 0x1 SWAP1 SUB SWAP1 PUSH1 0x0 MSTORE PUSH1 0x20 PUSH1 0x0 KECCAK256 SWAP1 PUSH1 0x6 MUL ADD PUSH1 0x0 SWAP1 SWAP2 SWAP1 SWAP2 SWAP1 SWAP2 POP PUSH1 0x0 DUP3 ADD MLOAD DUP2 PUSH1 0x0 ADD SSTORE PUSH1 0x20 DUP3 ADD MLOAD DUP2 PUSH1 0x1 ADD SSTORE PUSH1 0x40 DUP3 ADD MLOAD DUP2 PUSH1 0x2 ADD SWAP1 DUP1 MLOAD SWAP1 PUSH1 0x20 ADD SWAP1 PUSH2 0xE51 SWAP3 SWAP2 SWAP1 PUSH2 0x103B JUMP JUMPDEST POP PUSH1 0x60 DUP3 ADD MLOAD DUP2 PUSH1 0x3 ADD SSTORE PUSH1 0x80 DUP3 ADD MLOAD DUP2 PUSH1 0x4 ADD SSTORE PUSH1 0xA0 DUP3 ADD MLOAD DUP2 PUSH1 0x5 ADD SSTORE POP POP PUSH1 0x1 SWAP2 POP POP SWAP3 SWAP2 POP POP JUMP JUMPDEST PUSH2 0xE85 PUSH2 0xF00 JUMP JUMPDEST PUSH1 0x0 PUSH20 0xFFFFFFFFFFFFFFFFFFFFFFFFFFFFFFFFFFFFFFFF AND DUP2 PUSH20 0xFFFFFFFFFFFFFFFFFFFFFFFFFFFFFFFFFFFFFFFF AND SUB PUSH2 0xEF4 JUMPI PUSH1 0x40 MLOAD PUSH32 0x8C379A000000000000000000000000000000000000000000000000000000000 DUP2 MSTORE PUSH1 0x4 ADD PUSH2 0xEEB SWAP1 PUSH2 0x2074 JUMP JUMPDEST PUSH1 0x40 MLOAD DUP1 SWAP2 SUB SWAP1 REVERT JUMPDEST PUSH2 0xEFD DUP2 PUSH2 0xF77 JUMP JUMPDEST POP JUMP JUMPDEST CALLER PUSH20 0xFFFFFFFFFFFFFFFFFFFFFFFFFFFFFFFFFFFFFFFF AND PUSH2 0xF1F PUSH2 0xD55 JUMP JUMPDEST PUSH20 0xFFFFFFFFFFFFFFFFFFFFFFFFFFFFFFFFFFFFFFFF AND EQ PUSH2 0xF75 JUMPI PUSH1 0x40 MLOAD PUSH32 0x8C379A000000000000000000000000000000000000000000000000000000000 DUP2 MSTORE PUSH1 0x4 ADD PUSH2 0xF6C SWAP1 PUSH2 0x20E0 JUMP JUMPDEST PUSH1 0x40 MLOAD DUP1 SWAP2 SUB SWAP1 REVERT JUMPDEST JUMP JUMPDEST PUSH1 0x0 DUP1 PUSH1 0x0 SWAP1 SLOAD SWAP1 PUSH2 0x100 EXP SWAP1 DIV PUSH20 0xFFFFFFFFFFFFFFFFFFFFFFFFFFFFFFFFFFFFFFFF AND SWAP1 POP DUP2 PUSH1 0x0 DUP1 PUSH2 0x100 EXP DUP2 SLOAD DUP2 PUSH20 0xFFFFFFFFFFFFFFFFFFFFFFFFFFFFFFFFFFFFFFFF MUL NOT AND SWAP1 DUP4 PUSH20 0xFFFFFFFFFFFFFFFFFFFFFFFFFFFFFFFFFFFFFFFF AND MUL OR SWAP1 SSTORE POP DUP2 PUSH20 0xFFFFFFFFFFFFFFFFFFFFFFFFFFFFFFFFFFFFFFFF AND DUP2 PUSH20 0xFFFFFFFFFFFFFFFFFFFFFFFFFFFFFFFFFFFFFFFF AND PUSH32 0x8BE0079C531659141344CD1FD0A4F28419497F9722A3DAAFE3B4186F6B6457E0 PUSH1 0x40 MLOAD PUSH1 0x40 MLOAD DUP1 SWAP2 SUB SWAP1 LOG3 POP POP JUMP JUMPDEST DUP3 DUP1 SLOAD DUP3 DUP3 SSTORE SWAP1 PUSH1 0x0 MSTORE PUSH1 0x20 PUSH1 0x0 KECCAK256 SWAP1 DUP2 ADD SWAP3 DUP3 ISZERO PUSH2 0x1077 JUMPI SWAP2 PUSH1 0x20 MUL DUP3 ADD JUMPDEST DUP3 DUP2 GT ISZERO PUSH2 0x1076 JUMPI DUP3 MLOAD DUP3 SSTORE SWAP2 PUSH1 0x20 ADD SWAP2 SWAP1 PUSH1 0x1 ADD SWAP1 PUSH2 0x105B JUMP JUMPDEST JUMPDEST POP SWAP1 POP PUSH2 0x1084 SWAP2 SWAP1 PUSH2 0x1088 JUMP JUMPDEST POP SWAP1 JUMP JUMPDEST JUMPDEST DUP1 DUP3 GT ISZERO PUSH2 0x10A1 JUMPI PUSH1 0x0 DUP2 PUSH1 0x0 SWAP1 SSTORE POP PUSH1 0x1 ADD PUSH2 0x1089 JUMP JUMPDEST POP SWAP1 JUMP JUMPDEST PUSH1 0x0 PUSH1 0x40 MLOAD SWAP1 POP SWAP1 JUMP JUMPDEST PUSH1 0x0 DUP1 REVERT JUMPDEST PUSH1 0x0 DUP1 REVERT JUMPDEST PUSH1 0x0 DUP1 REVERT JUMPDEST PUSH1 0x0 PUSH1 0x1F NOT PUSH1 0x1F DUP4 ADD AND SWAP1 POP SWAP2 SWAP1 POP JUMP JUMPDEST PUSH32 0x4E487B7100000000000000000000000000000000000000000000000000000000 PUSH1 0x0 MSTORE PUSH1 0x41 PUSH1 0x4 MSTORE PUSH1 0x24 PUSH1 0x0 REVERT JUMPDEST PUSH2 0x1107 DUP3 PUSH2 0x10BE JUMP JUMPDEST DUP2 ADD DUP2 DUP2 LT PUSH8 0xFFFFFFFFFFFFFFFF DUP3 GT OR ISZERO PUSH2 0x1126 JUMPI PUSH2 0x1125 PUSH2 0x10CF JUMP JUMPDEST JUMPDEST DUP1 PUSH1 0x40 MSTORE POP POP POP JUMP JUMPDEST PUSH1 0x0 PUSH2 0x1139 PUSH2 0x10A5 JUMP JUMPDEST SWAP1 POP PUSH2 0x1145 DUP3 DUP3 PUSH2 0x10FE JUMP JUMPDEST SWAP2 SWAP1 POP JUMP JUMPDEST PUSH1 0x0 DUP1 REVERT JUMPDEST PUSH1 0x0 DUP2 SWAP1 POP SWAP2 SWAP1 POP JUMP JUMPDEST PUSH2 0x1162 DUP2 PUSH2 0x114F JUMP JUMPDEST DUP2 EQ PUSH2 0x116D JUMPI PUSH1 0x0 DUP1 REVERT JUMPDEST POP JUMP JUMPDEST PUSH1 0x0 DUP2 CALLDATALOAD SWAP1 POP PUSH2 0x117F DUP2 PUSH2 0x1159 JUMP JUMPDEST SWAP3 SWAP2 POP POP JUMP JUMPDEST PUSH1 0x0 DUP1 REVERT JUMPDEST PUSH1 0x0 PUSH8 0xFFFFFFFFFFFFFFFF DUP3 GT ISZERO PUSH2 0x11A5 JUMPI PUSH2 0x11A4 PUSH2 0x10CF JUMP JUMPDEST JUMPDEST PUSH1 0x20 DUP3 MUL SWAP1 POP PUSH1 0x20 DUP2 ADD SWAP1 POP SWAP2 SWAP1 POP JUMP JUMPDEST PUSH1 0x0 DUP1 REVERT JUMPDEST PUSH1 0x0 PUSH2 0x11CE PUSH2 0x11C9 DUP5 PUSH2 0x118A JUMP JUMPDEST PUSH2 0x112F JUMP JUMPDEST SWAP1 POP DUP1 DUP4 DUP3 MSTORE PUSH1 0x20 DUP3 ADD SWAP1 POP PUSH1 0x20 DUP5 MUL DUP4 ADD DUP6 DUP2 GT ISZERO PUSH2 0x11F1 JUMPI PUSH2 0x11F0 PUSH2 0x11B6 JUMP JUMPDEST JUMPDEST DUP4 JUMPDEST DUP2 DUP2 LT ISZERO PUSH2 0x121A JUMPI DUP1 PUSH2 0x1206 DUP9 DUP3 PUSH2 0x1170 JUMP JUMPDEST DUP5 MSTORE PUSH1 0x20 DUP5 ADD SWAP4 POP POP PUSH1 0x20 DUP2 ADD SWAP1 POP PUSH2 0x11F3 JUMP JUMPDEST POP POP POP SWAP4 SWAP3 POP POP POP JUMP JUMPDEST PUSH1 0x0 DUP3 PUSH1 0x1F DUP4 ADD SLT PUSH2 0x1239 JUMPI PUSH2 0x1238 PUSH2 0x1185 JUMP JUMPDEST JUMPDEST DUP2 CALLDATALOAD PUSH2 0x1249 DUP5 DUP3 PUSH1 0x20 DUP7 ADD PUSH2 0x11BB JUMP JUMPDEST SWAP2 POP POP SWAP3 SWAP2 POP POP JUMP JUMPDEST PUSH1 0x0 PUSH1 0x80 DUP3 DUP5 SUB SLT ISZERO PUSH2 0x1268 JUMPI PUSH2 0x1267 PUSH2 0x10B9 JUMP JUMPDEST JUMPDEST PUSH2 0x1272 PUSH1 0x80 PUSH2 0x112F JUMP JUMPDEST SWAP1 POP PUSH1 0x0 PUSH2 0x1282 DUP5 DUP3 DUP6 ADD PUSH2 0x1170 JUMP JUMPDEST PUSH1 0x0 DUP4 ADD MSTORE POP PUSH1 0x20 PUSH2 0x1296 DUP5 DUP3 DUP6 ADD PUSH2 0x1170 JUMP JUMPDEST PUSH1 0x20 DUP4 ADD MSTORE POP PUSH1 0x40 PUSH2 0x12AA DUP5 DUP3 DUP6 ADD PUSH2 0x1170 JUMP JUMPDEST PUSH1 0x40 DUP4 ADD MSTORE POP PUSH1 0x60 DUP3 ADD CALLDATALOAD PUSH8 0xFFFFFFFFFFFFFFFF DUP2 GT ISZERO PUSH2 0x12CE JUMPI PUSH2 0x12CD PUSH2 0x114A JUMP JUMPDEST JUMPDEST PUSH2 0x12DA DUP5 DUP3 DUP6 ADD PUSH2 0x1224 JUMP JUMPDEST PUSH1 0x60 DUP4 ADD MSTORE POP SWAP3 SWAP2 POP POP JUMP JUMPDEST PUSH1 0x0 DUP2 SWAP1 POP SWAP2 SWAP1 POP JUMP JUMPDEST PUSH2 0x12F9 DUP2 PUSH2 0x12E6 JUMP JUMPDEST DUP2 EQ PUSH2 0x1304 JUMPI PUSH1 0x0 DUP1 REVERT JUMPDEST POP JUMP JUMPDEST PUSH1 0x0 DUP2 CALLDATALOAD SWAP1 POP PUSH2 0x1316 DUP2 PUSH2 0x12F0 JUMP JUMPDEST SWAP3 SWAP2 POP POP JUMP JUMPDEST PUSH1 0x0 DUP1 PUSH1 0x40 DUP4 DUP6 SUB SLT ISZERO PUSH2 0x1333 JUMPI PUSH2 0x1332 PUSH2 0x10AF JUMP JUMPDEST JUMPDEST PUSH1 0x0 DUP4 ADD CALLDATALOAD PUSH8 0xFFFFFFFFFFFFFFFF DUP2 GT ISZERO PUSH2 0x1351 JUMPI PUSH2 0x1350 PUSH2 0x10B4 JUMP JUMPDEST JUMPDEST PUSH2 0x135D DUP6 DUP3 DUP7 ADD PUSH2 0x1252 JUMP JUMPDEST SWAP3 POP POP PUSH1 0x20 PUSH2 0x136E DUP6 DUP3 DUP7 ADD PUSH2 0x1307 JUMP JUMPDEST SWAP2 POP POP SWAP3 POP SWAP3 SWAP1 POP JUMP JUMPDEST PUSH1 0x0 DUP2 ISZERO ISZERO SWAP1 POP SWAP2 SWAP1 POP JUMP JUMPDEST PUSH2 0x138D DUP2 PUSH2 0x1378 JUMP JUMPDEST DUP3 MSTORE POP POP JUMP JUMPDEST PUSH1 0x0 PUSH1 0x20 DUP3 ADD SWAP1 POP PUSH2 0x13A8 PUSH1 0x0 DUP4 ADD DUP5 PUSH2 0x1384 JUMP JUMPDEST SWAP3 SWAP2 POP POP JUMP JUMPDEST PUSH1 0x0 PUSH1 0x20 DUP3 DUP5 SUB SLT ISZERO PUSH2 0x13C4 JUMPI PUSH2 0x13C3 PUSH2 0x10AF JUMP JUMPDEST JUMPDEST PUSH1 0x0 PUSH2 0x13D2 DUP5 DUP3 DUP6 ADD PUSH2 0x1307 JUMP JUMPDEST SWAP2 POP POP SWAP3 SWAP2 POP POP JUMP JUMPDEST PUSH1 0x0 DUP2 MLOAD SWAP1 POP SWAP2 SWAP1 POP JUMP JUMPDEST PUSH1 0x0 DUP3 DUP3 MSTORE PUSH1 0x20 DUP3 ADD SWAP1 POP SWAP3 SWAP2 POP POP JUMP JUMPDEST PUSH1 0x0 DUP2 SWAP1 POP PUSH1 0x20 DUP3 ADD SWAP1 POP SWAP2 SWAP1 POP JUMP JUMPDEST PUSH2 0x1410 DUP2 PUSH2 0x114F JUMP JUMPDEST DUP3 MSTORE POP POP JUMP JUMPDEST PUSH1 0x0 DUP2 MLOAD SWAP1 POP SWAP2 SWAP1 POP JUMP JUMPDEST PUSH1 0x0 DUP3 DUP3 MSTORE PUSH1 0x20 DUP3 ADD SWAP1 POP SWAP3 SWAP2 POP POP JUMP JUMPDEST PUSH1 0x0 DUP2 SWAP1 POP PUSH1 0x20 DUP3 ADD SWAP1 POP SWAP2 SWAP1 POP JUMP JUMPDEST PUSH1 0x0 PUSH2 0x144E DUP4 DUP4 PUSH2 0x1407 JUMP JUMPDEST PUSH1 0x20 DUP4 ADD SWAP1 POP SWAP3 SWAP2 POP POP JUMP JUMPDEST PUSH1 0x0 PUSH1 0x20 DUP3 ADD SWAP1 POP SWAP2 SWAP1 POP JUMP JUMPDEST PUSH1 0x0 PUSH2 0x1472 DUP3 PUSH2 0x1416 JUMP JUMPDEST PUSH2 0x147C DUP2 DUP6 PUSH2 0x1421 JUMP JUMPDEST SWAP4 POP PUSH2 0x1487 DUP4 PUSH2 0x1432 JUMP JUMPDEST DUP1 PUSH1 0x0 JUMPDEST DUP4 DUP2 LT ISZERO PUSH2 0x14B8 JUMPI DUP2 MLOAD PUSH2 0x149F DUP9 DUP3 PUSH2 0x1442 JUMP JUMPDEST SWAP8 POP PUSH2 0x14AA DUP4 PUSH2 0x145A JUMP JUMPDEST SWAP3 POP POP PUSH1 0x1 DUP2 ADD SWAP1 POP PUSH2 0x148B JUMP JUMPDEST POP DUP6 SWAP4 POP POP POP POP SWAP3 SWAP2 POP POP JUMP JUMPDEST PUSH1 0x0 PUSH1 0x80 DUP4 ADD PUSH1 0x0 DUP4 ADD MLOAD PUSH2 0x14DD PUSH1 0x0 DUP7 ADD DUP3 PUSH2 0x1407 JUMP JUMPDEST POP PUSH1 0x20 DUP4 ADD MLOAD PUSH2 0x14F0 PUSH1 0x20 DUP7 ADD DUP3 PUSH2 0x1407 JUMP JUMPDEST POP PUSH1 0x40 DUP4 ADD MLOAD PUSH2 0x1503 PUSH1 0x40 DUP7 ADD DUP3 PUSH2 0x1407 JUMP JUMPDEST POP PUSH1 0x60 DUP4 ADD MLOAD DUP5 DUP3 SUB PUSH1 0x60 DUP7 ADD MSTORE PUSH2 0x151B DUP3 DUP3 PUSH2 0x1467 JUMP JUMPDEST SWAP2 POP POP DUP1 SWAP2 POP POP SWAP3 SWAP2 POP POP JUMP JUMPDEST PUSH1 0x0 PUSH2 0x1534 DUP4 DUP4 PUSH2 0x14C5 JUMP JUMPDEST SWAP1 POP SWAP3 SWAP2 POP POP JUMP JUMPDEST PUSH1 0x0 PUSH1 0x20 DUP3 ADD SWAP1 POP SWAP2 SWAP1 POP JUMP JUMPDEST PUSH1 0x0 PUSH2 0x1554 DUP3 PUSH2 0x13DB JUMP JUMPDEST PUSH2 0x155E DUP2 DUP6 PUSH2 0x13E6 JUMP JUMPDEST SWAP4 POP DUP4 PUSH1 0x20 DUP3 MUL DUP6 ADD PUSH2 0x1570 DUP6 PUSH2 0x13F7 JUMP JUMPDEST DUP1 PUSH1 0x0 JUMPDEST DUP6 DUP2 LT ISZERO PUSH2 0x15AC JUMPI DUP5 DUP5 SUB DUP10 MSTORE DUP2 MLOAD PUSH2 0x158D DUP6 DUP3 PUSH2 0x1528 JUMP JUMPDEST SWAP5 POP PUSH2 0x1598 DUP4 PUSH2 0x153C JUMP JUMPDEST SWAP3 POP PUSH1 0x20 DUP11 ADD SWAP10 POP POP PUSH1 0x1 DUP2 ADD SWAP1 POP PUSH2 0x1574 JUMP JUMPDEST POP DUP3 SWAP8 POP DUP8 SWAP6 POP POP POP POP POP POP SWAP3 SWAP2 POP POP JUMP JUMPDEST PUSH1 0x0 PUSH1 0x20 DUP3 ADD SWAP1 POP DUP2 DUP2 SUB PUSH1 0x0 DUP4 ADD MSTORE PUSH2 0x15D8 DUP2 DUP5 PUSH2 0x1549 JUMP JUMPDEST SWAP1 POP SWAP3 SWAP2 POP POP JUMP JUMPDEST PUSH1 0x0 DUP2 MLOAD SWAP1 POP SWAP2 SWAP1 POP JUMP JUMPDEST PUSH1 0x0 DUP3 DUP3 MSTORE PUSH1 0x20 DUP3 ADD SWAP1 POP SWAP3 SWAP2 POP POP JUMP JUMPDEST PUSH1 0x0 DUP2 SWAP1 POP PUSH1 0x20 DUP3 ADD SWAP1 POP SWAP2 SWAP1 POP JUMP JUMPDEST PUSH1 0xA0 DUP3 ADD PUSH1 0x0 DUP3 ADD MLOAD PUSH2 0x1622 PUSH1 0x0 DUP6 ADD DUP3 PUSH2 0x1407 JUMP JUMPDEST POP PUSH1 0x20 DUP3 ADD MLOAD PUSH2 0x1635 PUSH1 0x20 DUP6 ADD DUP3 PUSH2 0x1407 JUMP JUMPDEST POP PUSH1 0x40 DUP3 ADD MLOAD PUSH2 0x1648 PUSH1 0x40 DUP6 ADD DUP3 PUSH2 0x1407 JUMP JUMPDEST POP PUSH1 0x60 DUP3 ADD MLOAD PUSH2 0x165B PUSH1 0x60 DUP6 ADD DUP3 PUSH2 0x1407 JUMP JUMPDEST POP PUSH1 0x80 DUP3 ADD MLOAD PUSH2 0x166E PUSH1 0x80 DUP6 ADD DUP3 PUSH2 0x1407 JUMP JUMPDEST POP POP POP POP JUMP JUMPDEST PUSH1 0x0 PUSH2 0x1680 DUP4 DUP4 PUSH2 0x160C JUMP JUMPDEST PUSH1 0xA0 DUP4 ADD SWAP1 POP SWAP3 SWAP2 POP POP JUMP JUMPDEST PUSH1 0x0 PUSH1 0x20 DUP3 ADD SWAP1 POP SWAP2 SWAP1 POP JUMP JUMPDEST PUSH1 0x0 PUSH2 0x16A4 DUP3 PUSH2 0x15E0 JUMP JUMPDEST PUSH2 0x16AE DUP2 DUP6 PUSH2 0x15EB JUMP JUMPDEST SWAP4 POP PUSH2 0x16B9 DUP4 PUSH2 0x15FC JUMP JUMPDEST DUP1 PUSH1 0x0 JUMPDEST DUP4 DUP2 LT ISZERO PUSH2 0x16EA JUMPI DUP2 MLOAD PUSH2 0x16D1 DUP9 DUP3 PUSH2 0x1674 JUMP JUMPDEST SWAP8 POP PUSH2 0x16DC DUP4 PUSH2 0x168C JUMP JUMPDEST SWAP3 POP POP PUSH1 0x1 DUP2 ADD SWAP1 POP PUSH2 0x16BD JUMP JUMPDEST POP DUP6 SWAP4 POP POP POP POP SWAP3 SWAP2 POP POP JUMP JUMPDEST PUSH1 0x0 PUSH1 0x20 DUP3 ADD SWAP1 POP DUP2 DUP2 SUB PUSH1 0x0 DUP4 ADD MSTORE PUSH2 0x1711 DUP2 DUP5 PUSH2 0x1699 JUMP JUMPDEST SWAP1 POP SWAP3 SWAP2 POP POP JUMP JUMPDEST PUSH1 0x0 DUP2 MLOAD SWAP1 POP SWAP2 SWAP1 POP JUMP JUMPDEST PUSH1 0x0 DUP3 DUP3 MSTORE PUSH1 0x20 DUP3 ADD SWAP1 POP SWAP3 SWAP2 POP POP JUMP JUMPDEST PUSH1 0x0 DUP2 SWAP1 POP PUSH1 0x20 DUP3 ADD SWAP1 POP SWAP2 SWAP1 POP JUMP JUMPDEST PUSH1 0x0 PUSH1 0xC0 DUP4 ADD PUSH1 0x0 DUP4 ADD MLOAD PUSH2 0x175D PUSH1 0x0 DUP7 ADD DUP3 PUSH2 0x1407 JUMP JUMPDEST POP PUSH1 0x20 DUP4 ADD MLOAD PUSH2 0x1770 PUSH1 0x20 DUP7 ADD DUP3 PUSH2 0x1407 JUMP JUMPDEST POP PUSH1 0x40 DUP4 ADD MLOAD DUP5 DUP3 SUB PUSH1 0x40 DUP7 ADD MSTORE PUSH2 0x1788 DUP3 DUP3 PUSH2 0x1467 JUMP JUMPDEST SWAP2 POP POP PUSH1 0x60 DUP4 ADD MLOAD PUSH2 0x179D PUSH1 0x60 DUP7 ADD DUP3 PUSH2 0x1407 JUMP JUMPDEST POP PUSH1 0x80 DUP4 ADD MLOAD PUSH2 0x17B0 PUSH1 0x80 DUP7 ADD DUP3 PUSH2 0x1407 JUMP JUMPDEST POP PUSH1 0xA0 DUP4 ADD MLOAD PUSH2 0x17C3 PUSH1 0xA0 DUP7 ADD DUP3 PUSH2 0x1407 JUMP JUMPDEST POP DUP1 SWAP2 POP POP SWAP3 SWAP2 POP POP JUMP JUMPDEST PUSH1 0x0 PUSH2 0x17DA DUP4 DUP4 PUSH2 0x1745 JUMP JUMPDEST SWAP1 POP SWAP3 SWAP2 POP POP JUMP JUMPDEST PUSH1 0x0 PUSH1 0x20 DUP3 ADD SWAP1 POP SWAP2 SWAP1 POP JUMP JUMPDEST PUSH1 0x0 PUSH2 0x17FA DUP3 PUSH2 0x1719 JUMP JUMPDEST PUSH2 0x1804 DUP2 DUP6 PUSH2 0x1724 JUMP JUMPDEST SWAP4 POP DUP4 PUSH1 0x20 DUP3 MUL DUP6 ADD PUSH2 0x1816 DUP6 PUSH2 0x1735 JUMP JUMPDEST DUP1 PUSH1 0x0 JUMPDEST DUP6 DUP2 LT ISZERO PUSH2 0x1852 JUMPI DUP5 DUP5 SUB DUP10 MSTORE DUP2 MLOAD PUSH2 0x1833 DUP6 DUP3 PUSH2 0x17CE JUMP JUMPDEST SWAP5 POP PUSH2 0x183E DUP4 PUSH2 0x17E2 JUMP JUMPDEST SWAP3 POP PUSH1 0x20 DUP11 ADD SWAP10 POP POP PUSH1 0x1 DUP2 ADD SWAP1 POP PUSH2 0x181A JUMP JUMPDEST POP DUP3 SWAP8 POP DUP8 SWAP6 POP POP POP POP POP POP SWAP3 SWAP2 POP POP JUMP JUMPDEST PUSH1 0x0 PUSH1 0x20 DUP3 ADD SWAP1 POP DUP2 DUP2 SUB PUSH1 0x0 DUP4 ADD MSTORE PUSH2 0x187E DUP2 DUP5 PUSH2 0x17EF JUMP JUMPDEST SWAP1 POP SWAP3 SWAP2 POP POP JUMP JUMPDEST PUSH1 0x0 DUP2 MLOAD SWAP1 POP SWAP2 SWAP1 POP JUMP JUMPDEST PUSH1 0x0 DUP3 DUP3 MSTORE PUSH1 0x20 DUP3 ADD SWAP1 POP SWAP3 SWAP2 POP POP JUMP JUMPDEST PUSH1 0x0 DUP2 SWAP1 POP PUSH1 0x20 DUP3 ADD SWAP1 POP SWAP2 SWAP1 POP JUMP JUMPDEST PUSH1 0x0 PUSH20 0xFFFFFFFFFFFFFFFFFFFFFFFFFFFFFFFFFFFFFFFF DUP3 AND SWAP1 POP SWAP2 SWAP1 POP JUMP JUMPDEST PUSH1 0x0 PUSH2 0x18DD DUP3 PUSH2 0x18B2 JUMP JUMPDEST SWAP1 POP SWAP2 SWAP1 POP JUMP JUMPDEST PUSH2 0x18ED DUP2 PUSH2 0x18D2 JUMP JUMPDEST DUP3 MSTORE POP POP JUMP JUMPDEST PUSH1 0x60 DUP3 ADD PUSH1 0x0 DUP3 ADD MLOAD PUSH2 0x1909 PUSH1 0x0 DUP6 ADD DUP3 PUSH2 0x1407 JUMP JUMPDEST POP PUSH1 0x20 DUP3 ADD MLOAD PUSH2 0x191C PUSH1 0x20 DUP6 ADD DUP3 PUSH2 0x18E4 JUMP JUMPDEST POP PUSH1 0x40 DUP3 ADD MLOAD PUSH2 0x192F PUSH1 0x40 DUP6 ADD DUP3 PUSH2 0x1407 JUMP JUMPDEST POP POP POP POP JUMP JUMPDEST PUSH1 0x0 PUSH2 0x1941 DUP4 DUP4 PUSH2 0x18F3 JUMP JUMPDEST PUSH1 0x60 DUP4 ADD SWAP1 POP SWAP3 SWAP2 POP POP JUMP JUMPDEST PUSH1 0x0 PUSH1 0x20 DUP3 ADD SWAP1 POP SWAP2 SWAP1 POP JUMP JUMPDEST PUSH1 0x0 PUSH2 0x1965 DUP3 PUSH2 0x1886 JUMP JUMPDEST PUSH2 0x196F DUP2 DUP6 PUSH2 0x1891 JUMP JUMPDEST SWAP4 POP PUSH2 0x197A DUP4 PUSH2 0x18A2 JUMP JUMPDEST DUP1 PUSH1 0x0 JUMPDEST DUP4 DUP2 LT ISZERO PUSH2 0x19AB JUMPI DUP2 MLOAD PUSH2 0x1992 DUP9 DUP3 PUSH2 0x1935 JUMP JUMPDEST SWAP8 POP PUSH2 0x199D DUP4 PUSH2 0x194D JUMP JUMPDEST SWAP3 POP POP PUSH1 0x1 DUP2 ADD SWAP1 POP PUSH2 0x197E JUMP JUMPDEST POP DUP6 SWAP4 POP POP POP POP SWAP3 SWAP2 POP POP JUMP JUMPDEST PUSH1 0x0 PUSH1 0x20 DUP3 ADD SWAP1 POP DUP2 DUP2 SUB PUSH1 0x0 DUP4 ADD MSTORE PUSH2 0x19D2 DUP2 DUP5 PUSH2 0x195A JUMP JUMPDEST SWAP1 POP SWAP3 SWAP2 POP POP JUMP JUMPDEST PUSH2 0x19E3 DUP2 PUSH2 0x18D2 JUMP JUMPDEST DUP2 EQ PUSH2 0x19EE JUMPI PUSH1 0x0 DUP1 REVERT JUMPDEST POP JUMP JUMPDEST PUSH1 0x0 DUP2 CALLDATALOAD SWAP1 POP PUSH2 0x1A00 DUP2 PUSH2 0x19DA JUMP JUMPDEST SWAP3 SWAP2 POP POP JUMP JUMPDEST PUSH1 0x0 PUSH1 0x60 DUP3 DUP5 SUB SLT ISZERO PUSH2 0x1A1C JUMPI PUSH2 0x1A1B PUSH2 0x10B9 JUMP JUMPDEST JUMPDEST PUSH2 0x1A26 PUSH1 0x60 PUSH2 0x112F JUMP JUMPDEST SWAP1 POP PUSH1 0x0 PUSH2 0x1A36 DUP5 DUP3 DUP6 ADD PUSH2 0x1170 JUMP JUMPDEST PUSH1 0x0 DUP4 ADD MSTORE POP PUSH1 0x20 PUSH2 0x1A4A DUP5 DUP3 DUP6 ADD PUSH2 0x19F1 JUMP JUMPDEST PUSH1 0x20 DUP4 ADD MSTORE POP PUSH1 0x40 PUSH2 0x1A5E DUP5 DUP3 DUP6 ADD PUSH2 0x1170 JUMP JUMPDEST PUSH1 0x40 DUP4 ADD MSTORE POP SWAP3 SWAP2 POP POP JUMP JUMPDEST PUSH1 0x0 DUP1 PUSH1 0x80 DUP4 DUP6 SUB SLT ISZERO PUSH2 0x1A81 JUMPI PUSH2 0x1A80 PUSH2 0x10AF JUMP JUMPDEST JUMPDEST PUSH1 0x0 PUSH2 0x1A8F DUP6 DUP3 DUP7 ADD PUSH2 0x1A06 JUMP JUMPDEST SWAP3 POP POP PUSH1 0x60 PUSH2 0x1AA0 DUP6 DUP3 DUP7 ADD PUSH2 0x1307 JUMP JUMPDEST SWAP2 POP POP SWAP3 POP SWAP3 SWAP1 POP JUMP JUMPDEST PUSH1 0x0 PUSH1 0xA0 DUP3 DUP5 SUB SLT ISZERO PUSH2 0x1AC0 JUMPI PUSH2 0x1ABF PUSH2 0x10B9 JUMP JUMPDEST JUMPDEST PUSH2 0x1ACA PUSH1 0xA0 PUSH2 0x112F JUMP JUMPDEST SWAP1 POP PUSH1 0x0 PUSH2 0x1ADA DUP5 DUP3 DUP6 ADD PUSH2 0x1170 JUMP JUMPDEST PUSH1 0x0 DUP4 ADD MSTORE POP PUSH1 0x20 PUSH2 0x1AEE DUP5 DUP3 DUP6 ADD PUSH2 0x1170 JUMP JUMPDEST PUSH1 0x20 DUP4 ADD MSTORE POP PUSH1 0x40 PUSH2 0x1B02 DUP5 DUP3 DUP6 ADD PUSH2 0x1170 JUMP JUMPDEST PUSH1 0x40 DUP4 ADD MSTORE POP PUSH1 0x60 PUSH2 0x1B16 DUP5 DUP3 DUP6 ADD PUSH2 0x1170 JUMP JUMPDEST PUSH1 0x60 DUP4 ADD MSTORE POP PUSH1 0x80 PUSH2 0x1B2A DUP5 DUP3 DUP6 ADD PUSH2 0x1170 JUMP JUMPDEST PUSH1 0x80 DUP4 ADD MSTORE POP SWAP3 SWAP2 POP POP JUMP JUMPDEST PUSH1 0x0 DUP1 PUSH1 0xC0 DUP4 DUP6 SUB SLT ISZERO PUSH2 0x1B4D JUMPI PUSH2 0x1B4C PUSH2 0x10AF JUMP JUMPDEST JUMPDEST PUSH1 0x0 PUSH2 0x1B5B DUP6 DUP3 DUP7 ADD PUSH2 0x1AAA JUMP JUMPDEST SWAP3 POP POP PUSH1 0xA0 PUSH2 0x1B6C DUP6 DUP3 DUP7 ADD PUSH2 0x1307 JUMP JUMPDEST SWAP2 POP POP SWAP3 POP SWAP3 SWAP1 POP JUMP JUMPDEST PUSH1 0x0 DUP2 MLOAD SWAP1 POP SWAP2 SWAP1 POP JUMP JUMPDEST PUSH1 0x0 DUP3 DUP3 MSTORE PUSH1 0x20 DUP3 ADD SWAP1 POP SWAP3 SWAP2 POP POP JUMP JUMPDEST PUSH1 0x0 DUP2 SWAP1 POP PUSH1 0x20 DUP3 ADD SWAP1 POP SWAP2 SWAP1 POP JUMP JUMPDEST PUSH32 0x4E487B7100000000000000000000000000000000000000000000000000000000 PUSH1 0x0 MSTORE PUSH1 0x21 PUSH1 0x4 MSTORE PUSH1 0x24 PUSH1 0x0 REVERT JUMPDEST PUSH1 0x3 DUP2 LT PUSH2 0x1BE2 JUMPI PUSH2 0x1BE1 PUSH2 0x1BA2 JUMP JUMPDEST JUMPDEST POP JUMP JUMPDEST PUSH1 0x0 DUP2 SWAP1 POP PUSH2 0x1BF3 DUP3 PUSH2 0x1BD1 JUMP JUMPDEST SWAP2 SWAP1 POP JUMP JUMPDEST PUSH1 0x0 PUSH2 0x1C03 DUP3 PUSH2 0x1BE5 JUMP JUMPDEST SWAP1 POP SWAP2 SWAP1 POP JUMP JUMPDEST PUSH2 0x1C13 DUP2 PUSH2 0x1BF8 JUMP JUMPDEST DUP3 MSTORE POP POP JUMP JUMPDEST PUSH1 0x80 DUP3 ADD PUSH1 0x0 DUP3 ADD MLOAD PUSH2 0x1C2F PUSH1 0x0 DUP6 ADD DUP3 PUSH2 0x1407 JUMP JUMPDEST POP PUSH1 0x20 DUP3 ADD MLOAD PUSH2 0x1C42 PUSH1 0x20 DUP6 ADD DUP3 PUSH2 0x18E4 JUMP JUMPDEST POP PUSH1 0x40 DUP3 ADD MLOAD PUSH2 0x1C55 PUSH1 0x40 DUP6 ADD DUP3 PUSH2 0x1C0A JUMP JUMPDEST POP PUSH1 0x60 DUP3 ADD MLOAD PUSH2 0x1C68 PUSH1 0x60 DUP6 ADD DUP3 PUSH2 0x1407 JUMP JUMPDEST POP POP POP POP JUMP JUMPDEST PUSH1 0x0 PUSH2 0x1C7A DUP4 DUP4 PUSH2 0x1C19 JUMP JUMPDEST PUSH1 0x80 DUP4 ADD SWAP1 POP SWAP3 SWAP2 POP POP JUMP JUMPDEST PUSH1 0x0 PUSH1 0x20 DUP3 ADD SWAP1 POP SWAP2 SWAP1 POP JUMP JUMPDEST PUSH1 0x0 PUSH2 0x1C9E DUP3 PUSH2 0x1B76 JUMP JUMPDEST PUSH2 0x1CA8 DUP2 DUP6 PUSH2 0x1B81 JUMP JUMPDEST SWAP4 POP PUSH2 0x1CB3 DUP4 PUSH2 0x1B92 JUMP JUMPDEST DUP1 PUSH1 0x0 JUMPDEST DUP4 DUP2 LT ISZERO PUSH2 0x1CE4 JUMPI DUP2 MLOAD PUSH2 0x1CCB DUP9 DUP3 PUSH2 0x1C6E JUMP JUMPDEST SWAP8 POP PUSH2 0x1CD6 DUP4 PUSH2 0x1C86 JUMP JUMPDEST SWAP3 POP POP PUSH1 0x1 DUP2 ADD SWAP1 POP PUSH2 0x1CB7 JUMP JUMPDEST POP DUP6 SWAP4 POP POP POP POP SWAP3 SWAP2 POP POP JUMP JUMPDEST PUSH1 0x0 PUSH1 0x20 DUP3 ADD SWAP1 POP DUP2 DUP2 SUB PUSH1 0x0 DUP4 ADD MSTORE PUSH2 0x1D0B DUP2 DUP5 PUSH2 0x1C93 JUMP JUMPDEST SWAP1 POP SWAP3 SWAP2 POP POP JUMP JUMPDEST PUSH1 0x3 DUP2 LT PUSH2 0x1D20 JUMPI PUSH1 0x0 DUP1 REVERT JUMPDEST POP JUMP JUMPDEST PUSH1 0x0 DUP2 CALLDATALOAD SWAP1 POP PUSH2 0x1D32 DUP2 PUSH2 0x1D13 JUMP JUMPDEST SWAP3 SWAP2 POP POP JUMP JUMPDEST PUSH1 0x0 PUSH1 0x80 DUP3 DUP5 SUB SLT ISZERO PUSH2 0x1D4E JUMPI PUSH2 0x1D4D PUSH2 0x10B9 JUMP JUMPDEST JUMPDEST PUSH2 0x1D58 PUSH1 0x80 PUSH2 0x112F JUMP JUMPDEST SWAP1 POP PUSH1 0x0 PUSH2 0x1D68 DUP5 DUP3 DUP6 ADD PUSH2 0x1170 JUMP JUMPDEST PUSH1 0x0 DUP4 ADD MSTORE POP PUSH1 0x20 PUSH2 0x1D7C DUP5 DUP3 DUP6 ADD PUSH2 0x19F1 JUMP JUMPDEST PUSH1 0x20 DUP4 ADD MSTORE POP PUSH1 0x40 PUSH2 0x1D90 DUP5 DUP3 DUP6 ADD PUSH2 0x1D23 JUMP JUMPDEST PUSH1 0x40 DUP4 ADD MSTORE POP PUSH1 0x60 PUSH2 0x1DA4 DUP5 DUP3 DUP6 ADD PUSH2 0x1170 JUMP JUMPDEST PUSH1 0x60 DUP4 ADD MSTORE POP SWAP3 SWAP2 POP POP JUMP JUMPDEST PUSH1 0x0 DUP1 PUSH1 0xA0 DUP4 DUP6 SUB SLT ISZERO PUSH2 0x1DC7 JUMPI PUSH2 0x1DC6 PUSH2 0x10AF JUMP JUMPDEST JUMPDEST PUSH1 0x0 PUSH2 0x1DD5 DUP6 DUP3 DUP7 ADD PUSH2 0x1D38 JUMP JUMPDEST SWAP3 POP POP PUSH1 0x80 PUSH2 0x1DE6 DUP6 DUP3 DUP7 ADD PUSH2 0x1307 JUMP JUMPDEST SWAP2 POP POP SWAP3 POP SWAP3 SWAP1 POP JUMP JUMPDEST PUSH2 0x1DF9 DUP2 PUSH2 0x18D2 JUMP JUMPDEST DUP3 MSTORE POP POP JUMP JUMPDEST PUSH1 0x0 PUSH1 0x20 DUP3 ADD SWAP1 POP PUSH2 0x1E14 PUSH1 0x0 DUP4 ADD DUP5 PUSH2 0x1DF0 JUMP JUMPDEST SWAP3 SWAP2 POP POP JUMP JUMPDEST PUSH1 0x0 PUSH1 0xC0 DUP3 DUP5 SUB SLT ISZERO PUSH2 0x1E30 JUMPI PUSH2 0x1E2F PUSH2 0x10B9 JUMP JUMPDEST JUMPDEST PUSH2 0x1E3A PUSH1 0xC0 PUSH2 0x112F JUMP JUMPDEST SWAP1 POP PUSH1 0x0 PUSH2 0x1E4A DUP5 DUP3 DUP6 ADD PUSH2 0x1170 JUMP JUMPDEST PUSH1 0x0 DUP4 ADD MSTORE POP PUSH1 0x20 PUSH2 0x1E5E DUP5 DUP3 DUP6 ADD PUSH2 0x1170 JUMP JUMPDEST PUSH1 0x20 DUP4 ADD MSTORE POP PUSH1 0x40 DUP3 ADD CALLDATALOAD PUSH8 0xFFFFFFFFFFFFFFFF DUP2 GT ISZERO PUSH2 0x1E82 JUMPI PUSH2 0x1E81 PUSH2 0x114A JUMP JUMPDEST JUMPDEST PUSH2 0x1E8E DUP5 DUP3 DUP6 ADD PUSH2 0x1224 JUMP JUMPDEST PUSH1 0x40 DUP4 ADD MSTORE POP PUSH1 0x60 PUSH2 0x1EA2 DUP5 DUP3 DUP6 ADD PUSH2 0x1170 JUMP JUMPDEST PUSH1 0x60 DUP4 ADD MSTORE POP PUSH1 0x80 PUSH2 0x1EB6 DUP5 DUP3 DUP6 ADD PUSH2 0x1170 JUMP JUMPDEST PUSH1 0x80 DUP4 ADD MSTORE POP PUSH1 0xA0 PUSH2 0x1ECA DUP5 DUP3 DUP6 ADD PUSH2 0x1170 JUMP JUMPDEST PUSH1 0xA0 DUP4 ADD MSTORE POP SWAP3 SWAP2 POP POP JUMP JUMPDEST PUSH1 0x0 DUP1 PUSH1 0x40 DUP4 DUP6 SUB SLT ISZERO PUSH2 0x1EED JUMPI PUSH2 0x1EEC PUSH2 0x10AF JUMP JUMPDEST JUMPDEST PUSH1 0x0 DUP4 ADD CALLDATALOAD PUSH8 0xFFFFFFFFFFFFFFFF DUP2 GT ISZERO PUSH2 0x1F0B JUMPI PUSH2 0x1F0A PUSH2 0x10B4 JUMP JUMPDEST JUMPDEST PUSH2 0x1F17 DUP6 DUP3 DUP7 ADD PUSH2 0x1E1A JUMP JUMPDEST SWAP3 POP POP PUSH1 0x20 PUSH2 0x1F28 DUP6 DUP3 DUP7 ADD PUSH2 0x1307 JUMP JUMPDEST SWAP2 POP POP SWAP3 POP SWAP3 SWAP1 POP JUMP JUMPDEST PUSH1 0x0 PUSH1 0x20 DUP3 DUP5 SUB SLT ISZERO PUSH2 0x1F48 JUMPI PUSH2 0x1F47 PUSH2 0x10AF JUMP JUMPDEST JUMPDEST PUSH1 0x0 PUSH2 0x1F56 DUP5 DUP3 DUP6 ADD PUSH2 0x19F1 JUMP JUMPDEST SWAP2 POP POP SWAP3 SWAP2 POP POP JUMP JUMPDEST PUSH1 0x0 DUP3 DUP3 MSTORE PUSH1 0x20 DUP3 ADD SWAP1 POP SWAP3 SWAP2 POP POP JUMP JUMPDEST PUSH32 0x44617461626173652050726F63657373696E6744617461626173653A20536563 PUSH1 0x0 DUP3 ADD MSTORE PUSH32 0x726574206B6579206572726F7200000000000000000000000000000000000000 PUSH1 0x20 DUP3 ADD MSTORE POP JUMP JUMPDEST PUSH1 0x0 PUSH2 0x1FCC PUSH1 0x2D DUP4 PUSH2 0x1F5F JUMP JUMPDEST SWAP2 POP PUSH2 0x1FD7 DUP3 PUSH2 0x1F70 JUMP JUMPDEST PUSH1 0x40 DUP3 ADD SWAP1 POP SWAP2 SWAP1 POP JUMP JUMPDEST PUSH1 0x0 PUSH1 0x20 DUP3 ADD SWAP1 POP DUP2 DUP2 SUB PUSH1 0x0 DUP4 ADD MSTORE PUSH2 0x1FFB DUP2 PUSH2 0x1FBF JUMP JUMPDEST SWAP1 POP SWAP2 SWAP1 POP JUMP JUMPDEST PUSH32 0x4F776E61626C653A206E6577206F776E657220697320746865207A65726F2061 PUSH1 0x0 DUP3 ADD MSTORE PUSH32 0x6464726573730000000000000000000000000000000000000000000000000000 PUSH1 0x20 DUP3 ADD MSTORE POP JUMP JUMPDEST PUSH1 0x0 PUSH2 0x205E PUSH1 0x26 DUP4 PUSH2 0x1F5F JUMP JUMPDEST SWAP2 POP PUSH2 0x2069 DUP3 PUSH2 0x2002 JUMP JUMPDEST PUSH1 0x40 DUP3 ADD SWAP1 POP SWAP2 SWAP1 POP JUMP JUMPDEST PUSH1 0x0 PUSH1 0x20 DUP3 ADD SWAP1 POP DUP2 DUP2 SUB PUSH1 0x0 DUP4 ADD MSTORE PUSH2 0x208D DUP2 PUSH2 0x2051 JUMP JUMPDEST SWAP1 POP SWAP2 SWAP1 POP JUMP JUMPDEST PUSH32 0x4F776E61626C653A2063616C6C6572206973206E6F7420746865206F776E6572 PUSH1 0x0 DUP3 ADD MSTORE POP JUMP JUMPDEST PUSH1 0x0 PUSH2 0x20CA PUSH1 0x20 DUP4 PUSH2 0x1F5F JUMP JUMPDEST SWAP2 POP PUSH2 0x20D5 DUP3 PUSH2 0x2094 JUMP JUMPDEST PUSH1 0x20 DUP3 ADD SWAP1 POP SWAP2 SWAP1 POP JUMP JUMPDEST PUSH1 0x0 PUSH1 0x20 DUP3 ADD SWAP1 POP DUP2 DUP2 SUB PUSH1 0x0 DUP4 ADD MSTORE PUSH2 0x20F9 DUP2 PUSH2 0x20BD JUMP JUMPDEST SWAP1 POP SWAP2 SWAP1 POP JUMP INVALID LOG2 PUSH5 0x6970667358 0x22 SLT KECCAK256 SDIV 0xF6 BYTE 0xCF PUSH16 0xAF95578F204448E9C5FADBF518774C9B 0xCB 0xF7 SELFBALANCE PUSH18 0xEE53A211CCBDC364736F6C63430008110033 "
				},
				"gasEstimates": {
					"creation": {
						"codeDepositCost": "1700400",
						"executionCost": "26051",
						"totalCost": "1726451"
					},
					"external": {
						"addFolWarehouse((uint256,uint256,uint256,uint256,uint256),bytes32)": "infinite",
						"addInspector((uint256,address,uint8,uint256),bytes32)": "infinite",
						"addPreWarehouse((uint256,uint256,uint256[],uint256,uint256,uint256),bytes32)": "infinite",
						"addProcessing((uint256,uint256,uint256,uint256[]),bytes32)": "infinite",
						"addProcessor((uint256,address,uint256),bytes32)": "infinite",
						"destroy()": "30039",
						"getListFolWarehouse(bytes32)": "infinite",
						"getListInspector(bytes32)": "infinite",
						"getListPreWarehouse(bytes32)": "infinite",
						"getListProcessing(bytes32)": "infinite",
						"getListProcessor(bytes32)": "infinite",
						"owner()": "2566",
						"transferOwnership(address)": "30797"
					}
				},
				"methodIdentifiers": {
					"addFolWarehouse((uint256,uint256,uint256,uint256,uint256),bytes32)": "4269e28b",
					"addInspector((uint256,address,uint8,uint256),bytes32)": "86e9bacf",
					"addPreWarehouse((uint256,uint256,uint256[],uint256,uint256,uint256),bytes32)": "cb7c5c50",
					"addProcessing((uint256,uint256,uint256,uint256[]),bytes32)": "021ca464",
					"addProcessor((uint256,address,uint256),bytes32)": "318ee31a",
					"destroy()": "83197ef0",
					"getListFolWarehouse(bytes32)": "1d769a9e",
					"getListInspector(bytes32)": "776364a7",
					"getListPreWarehouse(bytes32)": "270b3869",
					"getListProcessing(bytes32)": "03970403",
					"getListProcessor(bytes32)": "2ae72d06",
					"owner()": "8da5cb5b",
					"transferOwnership(address)": "f2fde38b"
				}
			},
			"storageLayout": {
				"storage": [
					{
						"astId": 4,
						"contract": "database/processing/ProcessingDatabase.sol:ProcessingDatabase",
						"label": "_owner",
						"offset": 0,
						"slot": "0",
						"type": "t_address"
					},
					{
						"astId": 145,
						"contract": "database/processing/ProcessingDatabase.sol:ProcessingDatabase",
						"label": "listInspector",
						"offset": 0,
						"slot": "1",
						"type": "t_array(t_struct(Inspector)434_storage)dyn_storage"
					},
					{
						"astId": 149,
						"contract": "database/processing/ProcessingDatabase.sol:ProcessingDatabase",
						"label": "listProcessor",
						"offset": 0,
						"slot": "2",
						"type": "t_array(t_struct(Processor)471_storage)dyn_storage"
					},
					{
						"astId": 153,
						"contract": "database/processing/ProcessingDatabase.sol:ProcessingDatabase",
						"label": "listProcessing",
						"offset": 0,
						"slot": "3",
						"type": "t_array(t_struct(Processing)462_storage)dyn_storage"
					},
					{
						"astId": 157,
						"contract": "database/processing/ProcessingDatabase.sol:ProcessingDatabase",
						"label": "listFolWarehouse",
						"offset": 0,
						"slot": "4",
						"type": "t_array(t_struct(FolWarehouse)420_storage)dyn_storage"
					},
					{
						"astId": 161,
						"contract": "database/processing/ProcessingDatabase.sol:ProcessingDatabase",
						"label": "listPreWarehouse",
						"offset": 0,
						"slot": "5",
						"type": "t_array(t_struct(PreWarehouse)450_storage)dyn_storage"
					}
				],
				"types": {
					"t_address": {
						"encoding": "inplace",
						"label": "address",
						"numberOfBytes": "20"
					},
					"t_array(t_struct(FolWarehouse)420_storage)dyn_storage": {
						"base": "t_struct(FolWarehouse)420_storage",
						"encoding": "dynamic_array",
						"label": "struct FolWarehouse[]",
						"numberOfBytes": "32"
					},
					"t_array(t_struct(Inspector)434_storage)dyn_storage": {
						"base": "t_struct(Inspector)434_storage",
						"encoding": "dynamic_array",
						"label": "struct Inspector[]",
						"numberOfBytes": "32"
					},
					"t_array(t_struct(PreWarehouse)450_storage)dyn_storage": {
						"base": "t_struct(PreWarehouse)450_storage",
						"encoding": "dynamic_array",
						"label": "struct PreWarehouse[]",
						"numberOfBytes": "32"
					},
					"t_array(t_struct(Processing)462_storage)dyn_storage": {
						"base": "t_struct(Processing)462_storage",
						"encoding": "dynamic_array",
						"label": "struct Processing[]",
						"numberOfBytes": "32"
					},
					"t_array(t_struct(Processor)471_storage)dyn_storage": {
						"base": "t_struct(Processor)471_storage",
						"encoding": "dynamic_array",
						"label": "struct Processor[]",
						"numberOfBytes": "32"
					},
					"t_array(t_uint256)dyn_storage": {
						"base": "t_uint256",
						"encoding": "dynamic_array",
						"label": "uint256[]",
						"numberOfBytes": "32"
					},
					"t_enum(AccountType)407": {
						"encoding": "inplace",
						"label": "enum AccountType",
						"numberOfBytes": "1"
					},
					"t_struct(FolWarehouse)420_storage": {
						"encoding": "inplace",
						"label": "struct FolWarehouse",
						"members": [
							{
								"astId": 411,
								"contract": "database/processing/ProcessingDatabase.sol:ProcessingDatabase",
								"label": "batchId",
								"offset": 0,
								"slot": "0",
								"type": "t_uint256"
							},
							{
								"astId": 413,
								"contract": "database/processing/ProcessingDatabase.sol:ProcessingDatabase",
								"label": "processingId",
								"offset": 0,
								"slot": "1",
								"type": "t_uint256"
							},
							{
								"astId": 415,
								"contract": "database/processing/ProcessingDatabase.sol:ProcessingDatabase",
								"label": "category",
								"offset": 0,
								"slot": "2",
								"type": "t_uint256"
							},
							{
								"astId": 417,
								"contract": "database/processing/ProcessingDatabase.sol:ProcessingDatabase",
								"label": "time",
								"offset": 0,
								"slot": "3",
								"type": "t_uint256"
							},
							{
								"astId": 419,
								"contract": "database/processing/ProcessingDatabase.sol:ProcessingDatabase",
								"label": "quantity",
								"offset": 0,
								"slot": "4",
								"type": "t_uint256"
							}
						],
						"numberOfBytes": "160"
					},
					"t_struct(Inspector)434_storage": {
						"encoding": "inplace",
						"label": "struct Inspector",
						"members": [
							{
								"astId": 426,
								"contract": "database/processing/ProcessingDatabase.sol:ProcessingDatabase",
								"label": "inspectorId",
								"offset": 0,
								"slot": "0",
								"type": "t_uint256"
							},
							{
								"astId": 428,
								"contract": "database/processing/ProcessingDatabase.sol:ProcessingDatabase",
								"label": "inspectorAddress",
								"offset": 0,
								"slot": "1",
								"type": "t_address"
							},
							{
								"astId": 431,
								"contract": "database/processing/ProcessingDatabase.sol:ProcessingDatabase",
								"label": "accountType",
								"offset": 20,
								"slot": "1",
								"type": "t_enum(AccountType)407"
							},
							{
								"astId": 433,
								"contract": "database/processing/ProcessingDatabase.sol:ProcessingDatabase",
								"label": "category",
								"offset": 0,
								"slot": "2",
								"type": "t_uint256"
							}
						],
						"numberOfBytes": "96"
					},
					"t_struct(PreWarehouse)450_storage": {
						"encoding": "inplace",
						"label": "struct PreWarehouse",
						"members": [
							{
								"astId": 438,
								"contract": "database/processing/ProcessingDatabase.sol:ProcessingDatabase",
								"label": "batchId",
								"offset": 0,
								"slot": "0",
								"type": "t_uint256"
							},
							{
								"astId": 440,
								"contract": "database/processing/ProcessingDatabase.sol:ProcessingDatabase",
								"label": "processorId",
								"offset": 0,
								"slot": "1",
								"type": "t_uint256"
							},
							{
								"astId": 443,
								"contract": "database/processing/ProcessingDatabase.sol:ProcessingDatabase",
								"label": "listbatchId",
								"offset": 0,
								"slot": "2",
								"type": "t_array(t_uint256)dyn_storage"
							},
							{
								"astId": 445,
								"contract": "database/processing/ProcessingDatabase.sol:ProcessingDatabase",
								"label": "category",
								"offset": 0,
								"slot": "3",
								"type": "t_uint256"
							},
							{
								"astId": 447,
								"contract": "database/processing/ProcessingDatabase.sol:ProcessingDatabase",
								"label": "time",
								"offset": 0,
								"slot": "4",
								"type": "t_uint256"
							},
							{
								"astId": 449,
								"contract": "database/processing/ProcessingDatabase.sol:ProcessingDatabase",
								"label": "quantity",
								"offset": 0,
								"slot": "5",
								"type": "t_uint256"
							}
						],
						"numberOfBytes": "192"
					},
					"t_struct(Processing)462_storage": {
						"encoding": "inplace",
						"label": "struct Processing",
						"members": [
							{
								"astId": 454,
								"contract": "database/processing/ProcessingDatabase.sol:ProcessingDatabase",
								"label": "processingId",
								"offset": 0,
								"slot": "0",
								"type": "t_uint256"
							},
							{
								"astId": 456,
								"contract": "database/processing/ProcessingDatabase.sol:ProcessingDatabase",
								"label": "processorId",
								"offset": 0,
								"slot": "1",
								"type": "t_uint256"
							},
							{
								"astId": 458,
								"contract": "database/processing/ProcessingDatabase.sol:ProcessingDatabase",
								"label": "category",
								"offset": 0,
								"slot": "2",
								"type": "t_uint256"
							},
							{
								"astId": 461,
								"contract": "database/processing/ProcessingDatabase.sol:ProcessingDatabase",
								"label": "listBatchId",
								"offset": 0,
								"slot": "3",
								"type": "t_array(t_uint256)dyn_storage"
							}
						],
						"numberOfBytes": "128"
					},
					"t_struct(Processor)471_storage": {
						"encoding": "inplace",
						"label": "struct Processor",
						"members": [
							{
								"astId": 466,
								"contract": "database/processing/ProcessingDatabase.sol:ProcessingDatabase",
								"label": "processorId",
								"offset": 0,
								"slot": "0",
								"type": "t_uint256"
							},
							{
								"astId": 468,
								"contract": "database/processing/ProcessingDatabase.sol:ProcessingDatabase",
								"label": "processorAddress",
								"offset": 0,
								"slot": "1",
								"type": "t_address"
							},
							{
								"astId": 470,
								"contract": "database/processing/ProcessingDatabase.sol:ProcessingDatabase",
								"label": "category",
								"offset": 0,
								"slot": "2",
								"type": "t_uint256"
							}
						],
						"numberOfBytes": "96"
					},
					"t_uint256": {
						"encoding": "inplace",
						"label": "uint256",
						"numberOfBytes": "32"
					}
				}
			},
			"userdoc": {
				"kind": "user",
				"methods": {},
				"version": 1
			}
		}
	}
}