{
	"database/farmer/FarmerDatabase.sol": {
		"FarmerDatabase": {
			"abi": [
				{
					"inputs": [],
					"stateMutability": "nonpayable",
					"type": "constructor"
				},
				{
					"anonymous": false,
					"inputs": [
						{
							"indexed": true,
							"internalType": "address",
							"name": "previousOwner",
							"type": "address"
						},
						{
							"indexed": true,
							"internalType": "address",
							"name": "newOwner",
							"type": "address"
						}
					],
					"name": "OwnershipTransferred",
					"type": "event"
				},
				{
					"inputs": [
						{
							"components": [
								{
									"internalType": "uint256",
									"name": "farmerId",
									"type": "uint256"
								},
								{
									"internalType": "address",
									"name": "farmerAddress",
									"type": "address"
								},
								{
									"internalType": "uint256",
									"name": "category",
									"type": "uint256"
								}
							],
							"internalType": "struct Farmer",
							"name": "item",
							"type": "tuple"
						},
						{
							"internalType": "bytes32",
							"name": "secret",
							"type": "bytes32"
						}
					],
					"name": "addFarmer",
					"outputs": [
						{
							"internalType": "bool",
							"name": "",
							"type": "bool"
						}
					],
					"stateMutability": "nonpayable",
					"type": "function"
				},
				{
					"inputs": [],
					"name": "destroy",
					"outputs": [],
					"stateMutability": "nonpayable",
					"type": "function"
				},
				{
					"inputs": [],
					"name": "owner",
					"outputs": [
						{
							"internalType": "address",
							"name": "",
							"type": "address"
						}
					],
					"stateMutability": "view",
					"type": "function"
				},
				{
					"inputs": [
						{
							"internalType": "address",
							"name": "newOwner",
							"type": "address"
						}
					],
					"name": "transferOwnership",
					"outputs": [],
					"stateMutability": "nonpayable",
					"type": "function"
				}
			],
			"devdoc": {
				"kind": "dev",
				"methods": {
					"owner()": {
						"details": "Returns the address of the current owner."
					},
					"transferOwnership(address)": {
						"details": "Transfers ownership of the contract to a new account (`newOwner`). Can only be called by the current owner."
					}
				},
				"version": 1
			},
			"evm": {
				"assembly": "    /* \"database/farmer/FarmerDatabase.sol\":467:1331  contract FarmerDatabase is Ownable {... */\n  mstore(0x40, 0x80)\n    /* \"database/farmer/FarmerDatabase.sol\":648:674  constructor() Ownable() {} */\n  callvalue\n  dup1\n  iszero\n  tag_1\n  jumpi\n  0x00\n  dup1\n  revert\ntag_1:\n  pop\n    /* \"abstract/Ownable.sol\":932:942  msg.sender */\n  caller\n    /* \"abstract/Ownable.sol\":923:929  _owner */\n  0x00\n  dup1\n    /* \"abstract/Ownable.sol\":923:942  _owner = msg.sender */\n  0x0100\n  exp\n  dup2\n  sload\n  dup2\n  0xffffffffffffffffffffffffffffffffffffffff\n  mul\n  not\n  and\n  swap1\n  dup4\n  0xffffffffffffffffffffffffffffffffffffffff\n  and\n  mul\n  or\n  swap1\n  sstore\n  pop\n    /* \"database/farmer/FarmerDatabase.sol\":467:1331  contract FarmerDatabase is Ownable {... */\n  dataSize(sub_0)\n  dup1\n  dataOffset(sub_0)\n  0x00\n  codecopy\n  0x00\n  return\nstop\n\nsub_0: assembly {\n        /* \"database/farmer/FarmerDatabase.sol\":467:1331  contract FarmerDatabase is Ownable {... */\n      mstore(0x40, 0x80)\n      callvalue\n      dup1\n      iszero\n      tag_1\n      jumpi\n      0x00\n      dup1\n      revert\n    tag_1:\n      pop\n      jumpi(tag_2, lt(calldatasize, 0x04))\n      shr(0xe0, calldataload(0x00))\n      dup1\n      0x83197ef0\n      eq\n      tag_3\n      jumpi\n      dup1\n      0x8da5cb5b\n      eq\n      tag_4\n      jumpi\n      dup1\n      0xca697ccd\n      eq\n      tag_5\n      jumpi\n      dup1\n      0xf2fde38b\n      eq\n      tag_6\n      jumpi\n    tag_2:\n      0x00\n      dup1\n      revert\n        /* \"abstract/Ownable.sol\":2642:2731  function destroy() public onlyOwner {... */\n    tag_3:\n      tag_7\n      tag_8\n      jump\t// in\n    tag_7:\n      stop\n        /* \"abstract/Ownable.sol\":1175:1260  function owner() public view virtual returns (address) {... */\n    tag_4:\n      tag_9\n      tag_10\n      jump\t// in\n    tag_9:\n      mload(0x40)\n      tag_11\n      swap2\n      swap1\n      tag_12\n      jump\t// in\n    tag_11:\n      mload(0x40)\n      dup1\n      swap2\n      sub\n      swap1\n      return\n        /* \"database/farmer/FarmerDatabase.sol\":864:1096  function addFarmer(Farmer memory item, bytes32 secret)... */\n    tag_5:\n      tag_13\n      0x04\n      dup1\n      calldatasize\n      sub\n      dup2\n      add\n      swap1\n      tag_14\n      swap2\n      swap1\n      tag_15\n      jump\t// in\n    tag_14:\n      tag_16\n      jump\t// in\n    tag_13:\n      mload(0x40)\n      tag_17\n      swap2\n      swap1\n      tag_18\n      jump\t// in\n    tag_17:\n      mload(0x40)\n      dup1\n      swap2\n      sub\n      swap1\n      return\n        /* \"abstract/Ownable.sol\":2063:2295  function transferOwnership(address newOwner) public virtual onlyOwner {... */\n    tag_6:\n      tag_19\n      0x04\n      dup1\n      calldatasize\n      sub\n      dup2\n      add\n      swap1\n      tag_20\n      swap2\n      swap1\n      tag_21\n      jump\t// in\n    tag_20:\n      tag_22\n      jump\t// in\n    tag_19:\n      stop\n        /* \"abstract/Ownable.sol\":2642:2731  function destroy() public onlyOwner {... */\n    tag_8:\n        /* \"abstract/Ownable.sol\":1068:1081  _checkOwner() */\n      tag_24\n        /* \"abstract/Ownable.sol\":1068:1079  _checkOwner */\n      tag_25\n        /* \"abstract/Ownable.sol\":1068:1081  _checkOwner() */\n      jump\t// in\n    tag_24:\n        /* \"abstract/Ownable.sol\":2717:2721  this */\n      address\n        /* \"abstract/Ownable.sol\":2688:2724  selfdestruct(payable(address(this))) */\n      0xffffffffffffffffffffffffffffffffffffffff\n      and\n      selfdestruct\n        /* \"abstract/Ownable.sol\":1175:1260  function owner() public view virtual returns (address) {... */\n    tag_10:\n        /* \"abstract/Ownable.sol\":1221:1228  address */\n      0x00\n        /* \"abstract/Ownable.sol\":1247:1253  _owner */\n      dup1\n      0x00\n      swap1\n      sload\n      swap1\n      0x0100\n      exp\n      swap1\n      div\n      0xffffffffffffffffffffffffffffffffffffffff\n      and\n        /* \"abstract/Ownable.sol\":1240:1253  return _owner */\n      swap1\n      pop\n        /* \"abstract/Ownable.sol\":1175:1260  function owner() public view virtual returns (address) {... */\n      swap1\n      jump\t// out\n        /* \"database/farmer/FarmerDatabase.sol\":864:1096  function addFarmer(Farmer memory item, bytes32 secret)... */\n    tag_16:\n        /* \"database/farmer/FarmerDatabase.sol\":984:988  bool */\n      0x00\n        /* \"database/farmer/FarmerDatabase.sol\":959:965  secret */\n      dup2\n        /* \"constant/SecretKey.sol\":232:298  0x8e1604a838d0f1a9b2cda14a099e4ceb08e966cc6e05e8296f67b02d61a79f09 */\n      0x8e1604a838d0f1a9b2cda14a099e4ceb08e966cc6e05e8296f67b02d61a79f09\n        /* \"database/farmer/FarmerDatabase.sol\":761:773  DATABASE_KEY */\n      0x00\n      shl\n        /* \"database/farmer/FarmerDatabase.sol\":752:757  value */\n      dup2\n        /* \"database/farmer/FarmerDatabase.sol\":752:773  value == DATABASE_KEY */\n      eq\n        /* \"database/farmer/FarmerDatabase.sol\":731:840  require(... */\n      tag_29\n      jumpi\n      mload(0x40)\n      0x08c379a000000000000000000000000000000000000000000000000000000000\n      dup2\n      mstore\n      0x04\n      add\n      tag_30\n      swap1\n      tag_31\n      jump\t// in\n    tag_30:\n      mload(0x40)\n      dup1\n      swap2\n      sub\n      swap1\n      revert\n    tag_29:\n        /* \"database/farmer/FarmerDatabase.sol\":1020:1030  listFarmer */\n      0x01\n        /* \"database/farmer/FarmerDatabase.sol\":1020:1037  listFarmer.length */\n      dup1\n      sload\n      swap1\n      pop\n        /* \"database/farmer/FarmerDatabase.sol\":1004:1008  item */\n      dup5\n        /* \"database/farmer/FarmerDatabase.sol\":1004:1017  item.farmerId */\n      0x00\n      add\n        /* \"database/farmer/FarmerDatabase.sol\":1004:1037  item.farmerId = listFarmer.length */\n      dup2\n      dup2\n      mstore\n      pop\n      pop\n        /* \"database/farmer/FarmerDatabase.sol\":1047:1057  listFarmer */\n      0x01\n        /* \"database/farmer/FarmerDatabase.sol\":1063:1067  item */\n      dup5\n        /* \"database/farmer/FarmerDatabase.sol\":1047:1068  listFarmer.push(item) */\n      swap1\n      dup1\n      0x01\n      dup2\n      sload\n      add\n      dup1\n      dup3\n      sstore\n      dup1\n      swap2\n      pop\n      pop\n      0x01\n      swap1\n      sub\n      swap1\n      0x00\n      mstore\n      keccak256(0x00, 0x20)\n      swap1\n      0x03\n      mul\n      add\n      0x00\n      swap1\n      swap2\n      swap1\n      swap2\n      swap1\n      swap2\n      pop\n      0x00\n      dup3\n      add\n      mload\n      dup2\n      0x00\n      add\n      sstore\n      0x20\n      dup3\n      add\n      mload\n      dup2\n      0x01\n      add\n      exp(0x0100, 0x00)\n      dup2\n      sload\n      dup2\n      0xffffffffffffffffffffffffffffffffffffffff\n      mul\n      not\n      and\n      swap1\n      dup4\n      0xffffffffffffffffffffffffffffffffffffffff\n      and\n      mul\n      or\n      swap1\n      sstore\n      pop\n      0x40\n      dup3\n      add\n      mload\n      dup2\n      0x02\n      add\n      sstore\n      pop\n      pop\n        /* \"database/farmer/FarmerDatabase.sol\":1085:1089  true */\n      0x01\n        /* \"database/farmer/FarmerDatabase.sol\":1078:1089  return true */\n      swap2\n      pop\n        /* \"database/farmer/FarmerDatabase.sol\":864:1096  function addFarmer(Farmer memory item, bytes32 secret)... */\n      pop\n      swap3\n      swap2\n      pop\n      pop\n      jump\t// out\n        /* \"abstract/Ownable.sol\":2063:2295  function transferOwnership(address newOwner) public virtual onlyOwner {... */\n    tag_22:\n        /* \"abstract/Ownable.sol\":1068:1081  _checkOwner() */\n      tag_35\n        /* \"abstract/Ownable.sol\":1068:1079  _checkOwner */\n      tag_25\n        /* \"abstract/Ownable.sol\":1068:1081  _checkOwner() */\n      jump\t// in\n    tag_35:\n        /* \"abstract/Ownable.sol\":2184:2185  0 */\n      0x00\n        /* \"abstract/Ownable.sol\":2164:2186  newOwner != address(0) */\n      0xffffffffffffffffffffffffffffffffffffffff\n      and\n        /* \"abstract/Ownable.sol\":2164:2172  newOwner */\n      dup2\n        /* \"abstract/Ownable.sol\":2164:2186  newOwner != address(0) */\n      0xffffffffffffffffffffffffffffffffffffffff\n      and\n      sub\n        /* \"abstract/Ownable.sol\":2143:2250  require(... */\n      tag_37\n      jumpi\n      mload(0x40)\n      0x08c379a000000000000000000000000000000000000000000000000000000000\n      dup2\n      mstore\n      0x04\n      add\n      tag_38\n      swap1\n      tag_39\n      jump\t// in\n    tag_38:\n      mload(0x40)\n      dup1\n      swap2\n      sub\n      swap1\n      revert\n    tag_37:\n        /* \"abstract/Ownable.sol\":2260:2288  _transferOwnership(newOwner) */\n      tag_40\n        /* \"abstract/Ownable.sol\":2279:2287  newOwner */\n      dup2\n        /* \"abstract/Ownable.sol\":2260:2278  _transferOwnership */\n      tag_41\n        /* \"abstract/Ownable.sol\":2260:2288  _transferOwnership(newOwner) */\n      jump\t// in\n    tag_40:\n        /* \"abstract/Ownable.sol\":2063:2295  function transferOwnership(address newOwner) public virtual onlyOwner {... */\n      pop\n      jump\t// out\n        /* \"abstract/Ownable.sol\":1333:1461  function _checkOwner() internal view virtual {... */\n    tag_25:\n        /* \"abstract/Ownable.sol\":1407:1417  msg.sender */\n      caller\n        /* \"abstract/Ownable.sol\":1396:1417  owner() == msg.sender */\n      0xffffffffffffffffffffffffffffffffffffffff\n      and\n        /* \"abstract/Ownable.sol\":1396:1403  owner() */\n      tag_43\n        /* \"abstract/Ownable.sol\":1396:1401  owner */\n      tag_10\n        /* \"abstract/Ownable.sol\":1396:1403  owner() */\n      jump\t// in\n    tag_43:\n        /* \"abstract/Ownable.sol\":1396:1417  owner() == msg.sender */\n      0xffffffffffffffffffffffffffffffffffffffff\n      and\n      eq\n        /* \"abstract/Ownable.sol\":1388:1454  require(owner() == msg.sender, \"Ownable: caller is not the owner\") */\n      tag_44\n      jumpi\n      mload(0x40)\n      0x08c379a000000000000000000000000000000000000000000000000000000000\n      dup2\n      mstore\n      0x04\n      add\n      tag_45\n      swap1\n      tag_46\n      jump\t// in\n    tag_45:\n      mload(0x40)\n      dup1\n      swap2\n      sub\n      swap1\n      revert\n    tag_44:\n        /* \"abstract/Ownable.sol\":1333:1461  function _checkOwner() internal view virtual {... */\n      jump\t// out\n        /* \"abstract/Ownable.sol\":2449:2636  function _transferOwnership(address newOwner) internal virtual {... */\n    tag_41:\n        /* \"abstract/Ownable.sol\":2522:2538  address oldOwner */\n      0x00\n        /* \"abstract/Ownable.sol\":2541:2547  _owner */\n      dup1\n      0x00\n      swap1\n      sload\n      swap1\n      0x0100\n      exp\n      swap1\n      div\n      0xffffffffffffffffffffffffffffffffffffffff\n      and\n        /* \"abstract/Ownable.sol\":2522:2547  address oldOwner = _owner */\n      swap1\n      pop\n        /* \"abstract/Ownable.sol\":2566:2574  newOwner */\n      dup2\n        /* \"abstract/Ownable.sol\":2557:2563  _owner */\n      0x00\n      dup1\n        /* \"abstract/Ownable.sol\":2557:2574  _owner = newOwner */\n      0x0100\n      exp\n      dup2\n      sload\n      dup2\n      0xffffffffffffffffffffffffffffffffffffffff\n      mul\n      not\n      and\n      swap1\n      dup4\n      0xffffffffffffffffffffffffffffffffffffffff\n      and\n      mul\n      or\n      swap1\n      sstore\n      pop\n        /* \"abstract/Ownable.sol\":2620:2628  newOwner */\n      dup2\n        /* \"abstract/Ownable.sol\":2589:2629  OwnershipTransferred(oldOwner, newOwner) */\n      0xffffffffffffffffffffffffffffffffffffffff\n      and\n        /* \"abstract/Ownable.sol\":2610:2618  oldOwner */\n      dup2\n        /* \"abstract/Ownable.sol\":2589:2629  OwnershipTransferred(oldOwner, newOwner) */\n      0xffffffffffffffffffffffffffffffffffffffff\n      and\n      0x8be0079c531659141344cd1fd0a4f28419497f9722a3daafe3b4186f6b6457e0\n      mload(0x40)\n      mload(0x40)\n      dup1\n      swap2\n      sub\n      swap1\n      log3\n        /* \"abstract/Ownable.sol\":2512:2636  {... */\n      pop\n        /* \"abstract/Ownable.sol\":2449:2636  function _transferOwnership(address newOwner) internal virtual {... */\n      pop\n      jump\t// out\n        /* \"#utility.yul\":7:133   */\n    tag_48:\n        /* \"#utility.yul\":44:51   */\n      0x00\n        /* \"#utility.yul\":84:126   */\n      0xffffffffffffffffffffffffffffffffffffffff\n        /* \"#utility.yul\":77:82   */\n      dup3\n        /* \"#utility.yul\":73:127   */\n      and\n        /* \"#utility.yul\":62:127   */\n      swap1\n      pop\n        /* \"#utility.yul\":7:133   */\n      swap2\n      swap1\n      pop\n      jump\t// out\n        /* \"#utility.yul\":139:235   */\n    tag_49:\n        /* \"#utility.yul\":176:183   */\n      0x00\n        /* \"#utility.yul\":205:229   */\n      tag_81\n        /* \"#utility.yul\":223:228   */\n      dup3\n        /* \"#utility.yul\":205:229   */\n      tag_48\n      jump\t// in\n    tag_81:\n        /* \"#utility.yul\":194:229   */\n      swap1\n      pop\n        /* \"#utility.yul\":139:235   */\n      swap2\n      swap1\n      pop\n      jump\t// out\n        /* \"#utility.yul\":241:359   */\n    tag_50:\n        /* \"#utility.yul\":328:352   */\n      tag_83\n        /* \"#utility.yul\":346:351   */\n      dup2\n        /* \"#utility.yul\":328:352   */\n      tag_49\n      jump\t// in\n    tag_83:\n        /* \"#utility.yul\":323:326   */\n      dup3\n        /* \"#utility.yul\":316:353   */\n      mstore\n        /* \"#utility.yul\":241:359   */\n      pop\n      pop\n      jump\t// out\n        /* \"#utility.yul\":365:587   */\n    tag_12:\n        /* \"#utility.yul\":458:462   */\n      0x00\n        /* \"#utility.yul\":496:498   */\n      0x20\n        /* \"#utility.yul\":485:494   */\n      dup3\n        /* \"#utility.yul\":481:499   */\n      add\n        /* \"#utility.yul\":473:499   */\n      swap1\n      pop\n        /* \"#utility.yul\":509:580   */\n      tag_85\n        /* \"#utility.yul\":577:578   */\n      0x00\n        /* \"#utility.yul\":566:575   */\n      dup4\n        /* \"#utility.yul\":562:579   */\n      add\n        /* \"#utility.yul\":553:559   */\n      dup5\n        /* \"#utility.yul\":509:580   */\n      tag_50\n      jump\t// in\n    tag_85:\n        /* \"#utility.yul\":365:587   */\n      swap3\n      swap2\n      pop\n      pop\n      jump\t// out\n        /* \"#utility.yul\":593:668   */\n    tag_51:\n        /* \"#utility.yul\":626:632   */\n      0x00\n        /* \"#utility.yul\":659:661   */\n      0x40\n        /* \"#utility.yul\":653:662   */\n      mload\n        /* \"#utility.yul\":643:662   */\n      swap1\n      pop\n        /* \"#utility.yul\":593:668   */\n      swap1\n      jump\t// out\n        /* \"#utility.yul\":674:791   */\n    tag_52:\n        /* \"#utility.yul\":783:784   */\n      0x00\n        /* \"#utility.yul\":780:781   */\n      dup1\n        /* \"#utility.yul\":773:785   */\n      revert\n        /* \"#utility.yul\":920:1037   */\n    tag_54:\n        /* \"#utility.yul\":1029:1030   */\n      0x00\n        /* \"#utility.yul\":1026:1027   */\n      dup1\n        /* \"#utility.yul\":1019:1031   */\n      revert\n        /* \"#utility.yul\":1043:1145   */\n    tag_55:\n        /* \"#utility.yul\":1084:1090   */\n      0x00\n        /* \"#utility.yul\":1135:1137   */\n      0x1f\n        /* \"#utility.yul\":1131:1138   */\n      not\n        /* \"#utility.yul\":1126:1128   */\n      0x1f\n        /* \"#utility.yul\":1119:1124   */\n      dup4\n        /* \"#utility.yul\":1115:1129   */\n      add\n        /* \"#utility.yul\":1111:1139   */\n      and\n        /* \"#utility.yul\":1101:1139   */\n      swap1\n      pop\n        /* \"#utility.yul\":1043:1145   */\n      swap2\n      swap1\n      pop\n      jump\t// out\n        /* \"#utility.yul\":1151:1331   */\n    tag_56:\n        /* \"#utility.yul\":1199:1276   */\n      0x4e487b7100000000000000000000000000000000000000000000000000000000\n        /* \"#utility.yul\":1196:1197   */\n      0x00\n        /* \"#utility.yul\":1189:1277   */\n      mstore\n        /* \"#utility.yul\":1296:1300   */\n      0x41\n        /* \"#utility.yul\":1293:1294   */\n      0x04\n        /* \"#utility.yul\":1286:1301   */\n      mstore\n        /* \"#utility.yul\":1320:1324   */\n      0x24\n        /* \"#utility.yul\":1317:1318   */\n      0x00\n        /* \"#utility.yul\":1310:1325   */\n      revert\n        /* \"#utility.yul\":1337:1618   */\n    tag_57:\n        /* \"#utility.yul\":1420:1447   */\n      tag_93\n        /* \"#utility.yul\":1442:1446   */\n      dup3\n        /* \"#utility.yul\":1420:1447   */\n      tag_55\n      jump\t// in\n    tag_93:\n        /* \"#utility.yul\":1412:1418   */\n      dup2\n        /* \"#utility.yul\":1408:1448   */\n      add\n        /* \"#utility.yul\":1550:1556   */\n      dup2\n        /* \"#utility.yul\":1538:1548   */\n      dup2\n        /* \"#utility.yul\":1535:1557   */\n      lt\n        /* \"#utility.yul\":1514:1532   */\n      0xffffffffffffffff\n        /* \"#utility.yul\":1502:1512   */\n      dup3\n        /* \"#utility.yul\":1499:1533   */\n      gt\n        /* \"#utility.yul\":1496:1558   */\n      or\n        /* \"#utility.yul\":1493:1581   */\n      iszero\n      tag_94\n      jumpi\n        /* \"#utility.yul\":1561:1579   */\n      tag_95\n      tag_56\n      jump\t// in\n    tag_95:\n        /* \"#utility.yul\":1493:1581   */\n    tag_94:\n        /* \"#utility.yul\":1601:1611   */\n      dup1\n        /* \"#utility.yul\":1597:1599   */\n      0x40\n        /* \"#utility.yul\":1590:1612   */\n      mstore\n        /* \"#utility.yul\":1380:1618   */\n      pop\n        /* \"#utility.yul\":1337:1618   */\n      pop\n      pop\n      jump\t// out\n        /* \"#utility.yul\":1624:1753   */\n    tag_58:\n        /* \"#utility.yul\":1658:1664   */\n      0x00\n        /* \"#utility.yul\":1685:1705   */\n      tag_97\n      tag_51\n      jump\t// in\n    tag_97:\n        /* \"#utility.yul\":1675:1705   */\n      swap1\n      pop\n        /* \"#utility.yul\":1714:1747   */\n      tag_98\n        /* \"#utility.yul\":1742:1746   */\n      dup3\n        /* \"#utility.yul\":1734:1740   */\n      dup3\n        /* \"#utility.yul\":1714:1747   */\n      tag_57\n      jump\t// in\n    tag_98:\n        /* \"#utility.yul\":1624:1753   */\n      swap2\n      swap1\n      pop\n      jump\t// out\n        /* \"#utility.yul\":1882:1959   */\n    tag_60:\n        /* \"#utility.yul\":1919:1926   */\n      0x00\n        /* \"#utility.yul\":1948:1953   */\n      dup2\n        /* \"#utility.yul\":1937:1953   */\n      swap1\n      pop\n        /* \"#utility.yul\":1882:1959   */\n      swap2\n      swap1\n      pop\n      jump\t// out\n        /* \"#utility.yul\":1965:2087   */\n    tag_61:\n        /* \"#utility.yul\":2038:2062   */\n      tag_102\n        /* \"#utility.yul\":2056:2061   */\n      dup2\n        /* \"#utility.yul\":2038:2062   */\n      tag_60\n      jump\t// in\n    tag_102:\n        /* \"#utility.yul\":2031:2036   */\n      dup2\n        /* \"#utility.yul\":2028:2063   */\n      eq\n        /* \"#utility.yul\":2018:2081   */\n      tag_103\n      jumpi\n        /* \"#utility.yul\":2077:2078   */\n      0x00\n        /* \"#utility.yul\":2074:2075   */\n      dup1\n        /* \"#utility.yul\":2067:2079   */\n      revert\n        /* \"#utility.yul\":2018:2081   */\n    tag_103:\n        /* \"#utility.yul\":1965:2087   */\n      pop\n      jump\t// out\n        /* \"#utility.yul\":2093:2232   */\n    tag_62:\n        /* \"#utility.yul\":2139:2144   */\n      0x00\n        /* \"#utility.yul\":2177:2183   */\n      dup2\n        /* \"#utility.yul\":2164:2184   */\n      calldataload\n        /* \"#utility.yul\":2155:2184   */\n      swap1\n      pop\n        /* \"#utility.yul\":2193:2226   */\n      tag_105\n        /* \"#utility.yul\":2220:2225   */\n      dup2\n        /* \"#utility.yul\":2193:2226   */\n      tag_61\n      jump\t// in\n    tag_105:\n        /* \"#utility.yul\":2093:2232   */\n      swap3\n      swap2\n      pop\n      pop\n      jump\t// out\n        /* \"#utility.yul\":2238:2360   */\n    tag_63:\n        /* \"#utility.yul\":2311:2335   */\n      tag_107\n        /* \"#utility.yul\":2329:2334   */\n      dup2\n        /* \"#utility.yul\":2311:2335   */\n      tag_49\n      jump\t// in\n    tag_107:\n        /* \"#utility.yul\":2304:2309   */\n      dup2\n        /* \"#utility.yul\":2301:2336   */\n      eq\n        /* \"#utility.yul\":2291:2354   */\n      tag_108\n      jumpi\n        /* \"#utility.yul\":2350:2351   */\n      0x00\n        /* \"#utility.yul\":2347:2348   */\n      dup1\n        /* \"#utility.yul\":2340:2352   */\n      revert\n        /* \"#utility.yul\":2291:2354   */\n    tag_108:\n        /* \"#utility.yul\":2238:2360   */\n      pop\n      jump\t// out\n        /* \"#utility.yul\":2366:2505   */\n    tag_64:\n        /* \"#utility.yul\":2412:2417   */\n      0x00\n        /* \"#utility.yul\":2450:2456   */\n      dup2\n        /* \"#utility.yul\":2437:2457   */\n      calldataload\n        /* \"#utility.yul\":2428:2457   */\n      swap1\n      pop\n        /* \"#utility.yul\":2466:2499   */\n      tag_110\n        /* \"#utility.yul\":2493:2498   */\n      dup2\n        /* \"#utility.yul\":2466:2499   */\n      tag_63\n      jump\t// in\n    tag_110:\n        /* \"#utility.yul\":2366:2505   */\n      swap3\n      swap2\n      pop\n      pop\n      jump\t// out\n        /* \"#utility.yul\":2532:3282   */\n    tag_65:\n        /* \"#utility.yul\":2604:2609   */\n      0x00\n        /* \"#utility.yul\":2648:2652   */\n      0x60\n        /* \"#utility.yul\":2636:2645   */\n      dup3\n        /* \"#utility.yul\":2631:2634   */\n      dup5\n        /* \"#utility.yul\":2627:2646   */\n      sub\n        /* \"#utility.yul\":2623:2653   */\n      slt\n        /* \"#utility.yul\":2620:2737   */\n      iszero\n      tag_112\n      jumpi\n        /* \"#utility.yul\":2656:2735   */\n      tag_113\n      tag_54\n      jump\t// in\n    tag_113:\n        /* \"#utility.yul\":2620:2737   */\n    tag_112:\n        /* \"#utility.yul\":2755:2776   */\n      tag_114\n        /* \"#utility.yul\":2771:2775   */\n      0x60\n        /* \"#utility.yul\":2755:2776   */\n      tag_58\n      jump\t// in\n    tag_114:\n        /* \"#utility.yul\":2746:2776   */\n      swap1\n      pop\n        /* \"#utility.yul\":2839:2840   */\n      0x00\n        /* \"#utility.yul\":2879:2928   */\n      tag_115\n        /* \"#utility.yul\":2924:2927   */\n      dup5\n        /* \"#utility.yul\":2915:2921   */\n      dup3\n        /* \"#utility.yul\":2904:2913   */\n      dup6\n        /* \"#utility.yul\":2900:2922   */\n      add\n        /* \"#utility.yul\":2879:2928   */\n      tag_62\n      jump\t// in\n    tag_115:\n        /* \"#utility.yul\":2872:2876   */\n      0x00\n        /* \"#utility.yul\":2865:2870   */\n      dup4\n        /* \"#utility.yul\":2861:2877   */\n      add\n        /* \"#utility.yul\":2854:2929   */\n      mstore\n        /* \"#utility.yul\":2786:2940   */\n      pop\n        /* \"#utility.yul\":3008:3010   */\n      0x20\n        /* \"#utility.yul\":3049:3098   */\n      tag_116\n        /* \"#utility.yul\":3094:3097   */\n      dup5\n        /* \"#utility.yul\":3085:3091   */\n      dup3\n        /* \"#utility.yul\":3074:3083   */\n      dup6\n        /* \"#utility.yul\":3070:3092   */\n      add\n        /* \"#utility.yul\":3049:3098   */\n      tag_64\n      jump\t// in\n    tag_116:\n        /* \"#utility.yul\":3042:3046   */\n      0x20\n        /* \"#utility.yul\":3035:3040   */\n      dup4\n        /* \"#utility.yul\":3031:3047   */\n      add\n        /* \"#utility.yul\":3024:3099   */\n      mstore\n        /* \"#utility.yul\":2950:3110   */\n      pop\n        /* \"#utility.yul\":3173:3175   */\n      0x40\n        /* \"#utility.yul\":3214:3263   */\n      tag_117\n        /* \"#utility.yul\":3259:3262   */\n      dup5\n        /* \"#utility.yul\":3250:3256   */\n      dup3\n        /* \"#utility.yul\":3239:3248   */\n      dup6\n        /* \"#utility.yul\":3235:3257   */\n      add\n        /* \"#utility.yul\":3214:3263   */\n      tag_62\n      jump\t// in\n    tag_117:\n        /* \"#utility.yul\":3207:3211   */\n      0x40\n        /* \"#utility.yul\":3200:3205   */\n      dup4\n        /* \"#utility.yul\":3196:3212   */\n      add\n        /* \"#utility.yul\":3189:3264   */\n      mstore\n        /* \"#utility.yul\":3120:3275   */\n      pop\n        /* \"#utility.yul\":2532:3282   */\n      swap3\n      swap2\n      pop\n      pop\n      jump\t// out\n        /* \"#utility.yul\":3288:3365   */\n    tag_66:\n        /* \"#utility.yul\":3325:3332   */\n      0x00\n        /* \"#utility.yul\":3354:3359   */\n      dup2\n        /* \"#utility.yul\":3343:3359   */\n      swap1\n      pop\n        /* \"#utility.yul\":3288:3365   */\n      swap2\n      swap1\n      pop\n      jump\t// out\n        /* \"#utility.yul\":3371:3493   */\n    tag_67:\n        /* \"#utility.yul\":3444:3468   */\n      tag_120\n        /* \"#utility.yul\":3462:3467   */\n      dup2\n        /* \"#utility.yul\":3444:3468   */\n      tag_66\n      jump\t// in\n    tag_120:\n        /* \"#utility.yul\":3437:3442   */\n      dup2\n        /* \"#utility.yul\":3434:3469   */\n      eq\n        /* \"#utility.yul\":3424:3487   */\n      tag_121\n      jumpi\n        /* \"#utility.yul\":3483:3484   */\n      0x00\n        /* \"#utility.yul\":3480:3481   */\n      dup1\n        /* \"#utility.yul\":3473:3485   */\n      revert\n        /* \"#utility.yul\":3424:3487   */\n    tag_121:\n        /* \"#utility.yul\":3371:3493   */\n      pop\n      jump\t// out\n        /* \"#utility.yul\":3499:3638   */\n    tag_68:\n        /* \"#utility.yul\":3545:3550   */\n      0x00\n        /* \"#utility.yul\":3583:3589   */\n      dup2\n        /* \"#utility.yul\":3570:3590   */\n      calldataload\n        /* \"#utility.yul\":3561:3590   */\n      swap1\n      pop\n        /* \"#utility.yul\":3599:3632   */\n      tag_123\n        /* \"#utility.yul\":3626:3631   */\n      dup2\n        /* \"#utility.yul\":3599:3632   */\n      tag_67\n      jump\t// in\n    tag_123:\n        /* \"#utility.yul\":3499:3638   */\n      swap3\n      swap2\n      pop\n      pop\n      jump\t// out\n        /* \"#utility.yul\":3644:4165   */\n    tag_15:\n        /* \"#utility.yul\":3735:3741   */\n      0x00\n        /* \"#utility.yul\":3743:3749   */\n      dup1\n        /* \"#utility.yul\":3792:3795   */\n      0x80\n        /* \"#utility.yul\":3780:3789   */\n      dup4\n        /* \"#utility.yul\":3771:3778   */\n      dup6\n        /* \"#utility.yul\":3767:3790   */\n      sub\n        /* \"#utility.yul\":3763:3796   */\n      slt\n        /* \"#utility.yul\":3760:3880   */\n      iszero\n      tag_125\n      jumpi\n        /* \"#utility.yul\":3799:3878   */\n      tag_126\n      tag_52\n      jump\t// in\n    tag_126:\n        /* \"#utility.yul\":3760:3880   */\n    tag_125:\n        /* \"#utility.yul\":3919:3920   */\n      0x00\n        /* \"#utility.yul\":3944:4020   */\n      tag_127\n        /* \"#utility.yul\":4012:4019   */\n      dup6\n        /* \"#utility.yul\":4003:4009   */\n      dup3\n        /* \"#utility.yul\":3992:4001   */\n      dup7\n        /* \"#utility.yul\":3988:4010   */\n      add\n        /* \"#utility.yul\":3944:4020   */\n      tag_65\n      jump\t// in\n    tag_127:\n        /* \"#utility.yul\":3934:4020   */\n      swap3\n      pop\n        /* \"#utility.yul\":3890:4030   */\n      pop\n        /* \"#utility.yul\":4069:4071   */\n      0x60\n        /* \"#utility.yul\":4095:4148   */\n      tag_128\n        /* \"#utility.yul\":4140:4147   */\n      dup6\n        /* \"#utility.yul\":4131:4137   */\n      dup3\n        /* \"#utility.yul\":4120:4129   */\n      dup7\n        /* \"#utility.yul\":4116:4138   */\n      add\n        /* \"#utility.yul\":4095:4148   */\n      tag_68\n      jump\t// in\n    tag_128:\n        /* \"#utility.yul\":4085:4148   */\n      swap2\n      pop\n        /* \"#utility.yul\":4040:4158   */\n      pop\n        /* \"#utility.yul\":3644:4165   */\n      swap3\n      pop\n      swap3\n      swap1\n      pop\n      jump\t// out\n        /* \"#utility.yul\":4171:4261   */\n    tag_69:\n        /* \"#utility.yul\":4205:4212   */\n      0x00\n        /* \"#utility.yul\":4248:4253   */\n      dup2\n        /* \"#utility.yul\":4241:4254   */\n      iszero\n        /* \"#utility.yul\":4234:4255   */\n      iszero\n        /* \"#utility.yul\":4223:4255   */\n      swap1\n      pop\n        /* \"#utility.yul\":4171:4261   */\n      swap2\n      swap1\n      pop\n      jump\t// out\n        /* \"#utility.yul\":4267:4376   */\n    tag_70:\n        /* \"#utility.yul\":4348:4369   */\n      tag_131\n        /* \"#utility.yul\":4363:4368   */\n      dup2\n        /* \"#utility.yul\":4348:4369   */\n      tag_69\n      jump\t// in\n    tag_131:\n        /* \"#utility.yul\":4343:4346   */\n      dup3\n        /* \"#utility.yul\":4336:4370   */\n      mstore\n        /* \"#utility.yul\":4267:4376   */\n      pop\n      pop\n      jump\t// out\n        /* \"#utility.yul\":4382:4592   */\n    tag_18:\n        /* \"#utility.yul\":4469:4473   */\n      0x00\n        /* \"#utility.yul\":4507:4509   */\n      0x20\n        /* \"#utility.yul\":4496:4505   */\n      dup3\n        /* \"#utility.yul\":4492:4510   */\n      add\n        /* \"#utility.yul\":4484:4510   */\n      swap1\n      pop\n        /* \"#utility.yul\":4520:4585   */\n      tag_133\n        /* \"#utility.yul\":4582:4583   */\n      0x00\n        /* \"#utility.yul\":4571:4580   */\n      dup4\n        /* \"#utility.yul\":4567:4584   */\n      add\n        /* \"#utility.yul\":4558:4564   */\n      dup5\n        /* \"#utility.yul\":4520:4585   */\n      tag_70\n      jump\t// in\n    tag_133:\n        /* \"#utility.yul\":4382:4592   */\n      swap3\n      swap2\n      pop\n      pop\n      jump\t// out\n        /* \"#utility.yul\":4598:4927   */\n    tag_21:\n        /* \"#utility.yul\":4657:4663   */\n      0x00\n        /* \"#utility.yul\":4706:4708   */\n      0x20\n        /* \"#utility.yul\":4694:4703   */\n      dup3\n        /* \"#utility.yul\":4685:4692   */\n      dup5\n        /* \"#utility.yul\":4681:4704   */\n      sub\n        /* \"#utility.yul\":4677:4709   */\n      slt\n        /* \"#utility.yul\":4674:4793   */\n      iszero\n      tag_135\n      jumpi\n        /* \"#utility.yul\":4712:4791   */\n      tag_136\n      tag_52\n      jump\t// in\n    tag_136:\n        /* \"#utility.yul\":4674:4793   */\n    tag_135:\n        /* \"#utility.yul\":4832:4833   */\n      0x00\n        /* \"#utility.yul\":4857:4910   */\n      tag_137\n        /* \"#utility.yul\":4902:4909   */\n      dup5\n        /* \"#utility.yul\":4893:4899   */\n      dup3\n        /* \"#utility.yul\":4882:4891   */\n      dup6\n        /* \"#utility.yul\":4878:4900   */\n      add\n        /* \"#utility.yul\":4857:4910   */\n      tag_64\n      jump\t// in\n    tag_137:\n        /* \"#utility.yul\":4847:4910   */\n      swap2\n      pop\n        /* \"#utility.yul\":4803:4920   */\n      pop\n        /* \"#utility.yul\":4598:4927   */\n      swap3\n      swap2\n      pop\n      pop\n      jump\t// out\n        /* \"#utility.yul\":4933:5102   */\n    tag_71:\n        /* \"#utility.yul\":5017:5028   */\n      0x00\n        /* \"#utility.yul\":5051:5057   */\n      dup3\n        /* \"#utility.yul\":5046:5049   */\n      dup3\n        /* \"#utility.yul\":5039:5058   */\n      mstore\n        /* \"#utility.yul\":5091:5095   */\n      0x20\n        /* \"#utility.yul\":5086:5089   */\n      dup3\n        /* \"#utility.yul\":5082:5096   */\n      add\n        /* \"#utility.yul\":5067:5096   */\n      swap1\n      pop\n        /* \"#utility.yul\":4933:5102   */\n      swap3\n      swap2\n      pop\n      pop\n      jump\t// out\n        /* \"#utility.yul\":5108:5336   */\n    tag_72:\n        /* \"#utility.yul\":5248:5282   */\n      0x4461746162617365204661726d657244617461626173653a2053656372657420\n        /* \"#utility.yul\":5244:5245   */\n      0x00\n        /* \"#utility.yul\":5236:5242   */\n      dup3\n        /* \"#utility.yul\":5232:5246   */\n      add\n        /* \"#utility.yul\":5225:5283   */\n      mstore\n        /* \"#utility.yul\":5317:5328   */\n      0x6b6579206572726f720000000000000000000000000000000000000000000000\n        /* \"#utility.yul\":5312:5314   */\n      0x20\n        /* \"#utility.yul\":5304:5310   */\n      dup3\n        /* \"#utility.yul\":5300:5315   */\n      add\n        /* \"#utility.yul\":5293:5329   */\n      mstore\n        /* \"#utility.yul\":5108:5336   */\n      pop\n      jump\t// out\n        /* \"#utility.yul\":5342:5708   */\n    tag_73:\n        /* \"#utility.yul\":5484:5487   */\n      0x00\n        /* \"#utility.yul\":5505:5572   */\n      tag_141\n        /* \"#utility.yul\":5569:5571   */\n      0x29\n        /* \"#utility.yul\":5564:5567   */\n      dup4\n        /* \"#utility.yul\":5505:5572   */\n      tag_71\n      jump\t// in\n    tag_141:\n        /* \"#utility.yul\":5498:5572   */\n      swap2\n      pop\n        /* \"#utility.yul\":5581:5674   */\n      tag_142\n        /* \"#utility.yul\":5670:5673   */\n      dup3\n        /* \"#utility.yul\":5581:5674   */\n      tag_72\n      jump\t// in\n    tag_142:\n        /* \"#utility.yul\":5699:5701   */\n      0x40\n        /* \"#utility.yul\":5694:5697   */\n      dup3\n        /* \"#utility.yul\":5690:5702   */\n      add\n        /* \"#utility.yul\":5683:5702   */\n      swap1\n      pop\n        /* \"#utility.yul\":5342:5708   */\n      swap2\n      swap1\n      pop\n      jump\t// out\n        /* \"#utility.yul\":5714:6133   */\n    tag_31:\n        /* \"#utility.yul\":5880:5884   */\n      0x00\n        /* \"#utility.yul\":5918:5920   */\n      0x20\n        /* \"#utility.yul\":5907:5916   */\n      dup3\n        /* \"#utility.yul\":5903:5921   */\n      add\n        /* \"#utility.yul\":5895:5921   */\n      swap1\n      pop\n        /* \"#utility.yul\":5967:5976   */\n      dup2\n        /* \"#utility.yul\":5961:5965   */\n      dup2\n        /* \"#utility.yul\":5957:5977   */\n      sub\n        /* \"#utility.yul\":5953:5954   */\n      0x00\n        /* \"#utility.yul\":5942:5951   */\n      dup4\n        /* \"#utility.yul\":5938:5955   */\n      add\n        /* \"#utility.yul\":5931:5978   */\n      mstore\n        /* \"#utility.yul\":5995:6126   */\n      tag_144\n        /* \"#utility.yul\":6121:6125   */\n      dup2\n        /* \"#utility.yul\":5995:6126   */\n      tag_73\n      jump\t// in\n    tag_144:\n        /* \"#utility.yul\":5987:6126   */\n      swap1\n      pop\n        /* \"#utility.yul\":5714:6133   */\n      swap2\n      swap1\n      pop\n      jump\t// out\n        /* \"#utility.yul\":6139:6364   */\n    tag_74:\n        /* \"#utility.yul\":6279:6313   */\n      0x4f776e61626c653a206e6577206f776e657220697320746865207a65726f2061\n        /* \"#utility.yul\":6275:6276   */\n      0x00\n        /* \"#utility.yul\":6267:6273   */\n      dup3\n        /* \"#utility.yul\":6263:6277   */\n      add\n        /* \"#utility.yul\":6256:6314   */\n      mstore\n        /* \"#utility.yul\":6348:6356   */\n      0x6464726573730000000000000000000000000000000000000000000000000000\n        /* \"#utility.yul\":6343:6345   */\n      0x20\n        /* \"#utility.yul\":6335:6341   */\n      dup3\n        /* \"#utility.yul\":6331:6346   */\n      add\n        /* \"#utility.yul\":6324:6357   */\n      mstore\n        /* \"#utility.yul\":6139:6364   */\n      pop\n      jump\t// out\n        /* \"#utility.yul\":6370:6736   */\n    tag_75:\n        /* \"#utility.yul\":6512:6515   */\n      0x00\n        /* \"#utility.yul\":6533:6600   */\n      tag_147\n        /* \"#utility.yul\":6597:6599   */\n      0x26\n        /* \"#utility.yul\":6592:6595   */\n      dup4\n        /* \"#utility.yul\":6533:6600   */\n      tag_71\n      jump\t// in\n    tag_147:\n        /* \"#utility.yul\":6526:6600   */\n      swap2\n      pop\n        /* \"#utility.yul\":6609:6702   */\n      tag_148\n        /* \"#utility.yul\":6698:6701   */\n      dup3\n        /* \"#utility.yul\":6609:6702   */\n      tag_74\n      jump\t// in\n    tag_148:\n        /* \"#utility.yul\":6727:6729   */\n      0x40\n        /* \"#utility.yul\":6722:6725   */\n      dup3\n        /* \"#utility.yul\":6718:6730   */\n      add\n        /* \"#utility.yul\":6711:6730   */\n      swap1\n      pop\n        /* \"#utility.yul\":6370:6736   */\n      swap2\n      swap1\n      pop\n      jump\t// out\n        /* \"#utility.yul\":6742:7161   */\n    tag_39:\n        /* \"#utility.yul\":6908:6912   */\n      0x00\n        /* \"#utility.yul\":6946:6948   */\n      0x20\n        /* \"#utility.yul\":6935:6944   */\n      dup3\n        /* \"#utility.yul\":6931:6949   */\n      add\n        /* \"#utility.yul\":6923:6949   */\n      swap1\n      pop\n        /* \"#utility.yul\":6995:7004   */\n      dup2\n        /* \"#utility.yul\":6989:6993   */\n      dup2\n        /* \"#utility.yul\":6985:7005   */\n      sub\n        /* \"#utility.yul\":6981:6982   */\n      0x00\n        /* \"#utility.yul\":6970:6979   */\n      dup4\n        /* \"#utility.yul\":6966:6983   */\n      add\n        /* \"#utility.yul\":6959:7006   */\n      mstore\n        /* \"#utility.yul\":7023:7154   */\n      tag_150\n        /* \"#utility.yul\":7149:7153   */\n      dup2\n        /* \"#utility.yul\":7023:7154   */\n      tag_75\n      jump\t// in\n    tag_150:\n        /* \"#utility.yul\":7015:7154   */\n      swap1\n      pop\n        /* \"#utility.yul\":6742:7161   */\n      swap2\n      swap1\n      pop\n      jump\t// out\n        /* \"#utility.yul\":7167:7349   */\n    tag_76:\n        /* \"#utility.yul\":7307:7341   */\n      0x4f776e61626c653a2063616c6c6572206973206e6f7420746865206f776e6572\n        /* \"#utility.yul\":7303:7304   */\n      0x00\n        /* \"#utility.yul\":7295:7301   */\n      dup3\n        /* \"#utility.yul\":7291:7305   */\n      add\n        /* \"#utility.yul\":7284:7342   */\n      mstore\n        /* \"#utility.yul\":7167:7349   */\n      pop\n      jump\t// out\n        /* \"#utility.yul\":7355:7721   */\n    tag_77:\n        /* \"#utility.yul\":7497:7500   */\n      0x00\n        /* \"#utility.yul\":7518:7585   */\n      tag_153\n        /* \"#utility.yul\":7582:7584   */\n      0x20\n        /* \"#utility.yul\":7577:7580   */\n      dup4\n        /* \"#utility.yul\":7518:7585   */\n      tag_71\n      jump\t// in\n    tag_153:\n        /* \"#utility.yul\":7511:7585   */\n      swap2\n      pop\n        /* \"#utility.yul\":7594:7687   */\n      tag_154\n        /* \"#utility.yul\":7683:7686   */\n      dup3\n        /* \"#utility.yul\":7594:7687   */\n      tag_76\n      jump\t// in\n    tag_154:\n        /* \"#utility.yul\":7712:7714   */\n      0x20\n        /* \"#utility.yul\":7707:7710   */\n      dup3\n        /* \"#utility.yul\":7703:7715   */\n      add\n        /* \"#utility.yul\":7696:7715   */\n      swap1\n      pop\n        /* \"#utility.yul\":7355:7721   */\n      swap2\n      swap1\n      pop\n      jump\t// out\n        /* \"#utility.yul\":7727:8146   */\n    tag_46:\n        /* \"#utility.yul\":7893:7897   */\n      0x00\n        /* \"#utility.yul\":7931:7933   */\n      0x20\n        /* \"#utility.yul\":7920:7929   */\n      dup3\n        /* \"#utility.yul\":7916:7934   */\n      add\n        /* \"#utility.yul\":7908:7934   */\n      swap1\n      pop\n        /* \"#utility.yul\":7980:7989   */\n      dup2\n        /* \"#utility.yul\":7974:7978   */\n      dup2\n        /* \"#utility.yul\":7970:7990   */\n      sub\n        /* \"#utility.yul\":7966:7967   */\n      0x00\n        /* \"#utility.yul\":7955:7964   */\n      dup4\n        /* \"#utility.yul\":7951:7968   */\n      add\n        /* \"#utility.yul\":7944:7991   */\n      mstore\n        /* \"#utility.yul\":8008:8139   */\n      tag_156\n        /* \"#utility.yul\":8134:8138   */\n      dup2\n        /* \"#utility.yul\":8008:8139   */\n      tag_77\n      jump\t// in\n    tag_156:\n        /* \"#utility.yul\":8000:8139   */\n      swap1\n      pop\n        /* \"#utility.yul\":7727:8146   */\n      swap2\n      swap1\n      pop\n      jump\t// out\n\n    auxdata: 0xa264697066735822122048abb2b63b4f8a043adeb400ce81e026e71560b6b661cf8110b4c9b46008cc1964736f6c63430008110033\n}\n",
				"bytecode": {
					"linkReferences": {},
					"object": "608060405234801561001057600080fd5b50336000806101000a81548173ffffffffffffffffffffffffffffffffffffffff021916908373ffffffffffffffffffffffffffffffffffffffff16021790555061084a806100606000396000f3fe608060405234801561001057600080fd5b506004361061004c5760003560e01c806383197ef0146100515780638da5cb5b1461005b578063ca697ccd14610079578063f2fde38b146100a9575b600080fd5b6100596100c5565b005b6100636100e6565b6040516100709190610419565b60405180910390f35b610093600480360381019061008e91906105d0565b61010f565b6040516100a0919061062b565b60405180910390f35b6100c360048036038101906100be9190610646565b61021a565b005b6100cd61029d565b3073ffffffffffffffffffffffffffffffffffffffff16ff5b60008060009054906101000a900473ffffffffffffffffffffffffffffffffffffffff16905090565b6000817f8e1604a838d0f1a9b2cda14a099e4ceb08e966cc6e05e8296f67b02d61a79f0960001b8114610177576040517f08c379a000000000000000000000000000000000000000000000000000000000815260040161016e906106f6565b60405180910390fd5b60018054905084600001818152505060018490806001815401808255809150506001900390600052602060002090600302016000909190919091506000820151816000015560208201518160010160006101000a81548173ffffffffffffffffffffffffffffffffffffffff021916908373ffffffffffffffffffffffffffffffffffffffff160217905550604082015181600201555050600191505092915050565b61022261029d565b600073ffffffffffffffffffffffffffffffffffffffff168173ffffffffffffffffffffffffffffffffffffffff1603610291576040517f08c379a000000000000000000000000000000000000000000000000000000000815260040161028890610788565b60405180910390fd5b61029a81610314565b50565b3373ffffffffffffffffffffffffffffffffffffffff166102bc6100e6565b73ffffffffffffffffffffffffffffffffffffffff1614610312576040517f08c379a0000000000000000000000000000000000000000000000000000000008152600401610309906107f4565b60405180910390fd5b565b60008060009054906101000a900473ffffffffffffffffffffffffffffffffffffffff169050816000806101000a81548173ffffffffffffffffffffffffffffffffffffffff021916908373ffffffffffffffffffffffffffffffffffffffff1602179055508173ffffffffffffffffffffffffffffffffffffffff168173ffffffffffffffffffffffffffffffffffffffff167f8be0079c531659141344cd1fd0a4f28419497f9722a3daafe3b4186f6b6457e060405160405180910390a35050565b600073ffffffffffffffffffffffffffffffffffffffff82169050919050565b6000610403826103d8565b9050919050565b610413816103f8565b82525050565b600060208201905061042e600083018461040a565b92915050565b6000604051905090565b600080fd5b600080fd5b6000601f19601f8301169050919050565b7f4e487b7100000000000000000000000000000000000000000000000000000000600052604160045260246000fd5b61049182610448565b810181811067ffffffffffffffff821117156104b0576104af610459565b5b80604052505050565b60006104c3610434565b90506104cf8282610488565b919050565b6000819050919050565b6104e7816104d4565b81146104f257600080fd5b50565b600081359050610504816104de565b92915050565b610513816103f8565b811461051e57600080fd5b50565b6000813590506105308161050a565b92915050565b60006060828403121561054c5761054b610443565b5b61055660606104b9565b90506000610566848285016104f5565b600083015250602061057a84828501610521565b602083015250604061058e848285016104f5565b60408301525092915050565b6000819050919050565b6105ad8161059a565b81146105b857600080fd5b50565b6000813590506105ca816105a4565b92915050565b600080608083850312156105e7576105e661043e565b5b60006105f585828601610536565b9250506060610606858286016105bb565b9150509250929050565b60008115159050919050565b61062581610610565b82525050565b6000602082019050610640600083018461061c565b92915050565b60006020828403121561065c5761065b61043e565b5b600061066a84828501610521565b91505092915050565b600082825260208201905092915050565b7f4461746162617365204661726d657244617461626173653a205365637265742060008201527f6b6579206572726f720000000000000000000000000000000000000000000000602082015250565b60006106e0602983610673565b91506106eb82610684565b604082019050919050565b6000602082019050818103600083015261070f816106d3565b9050919050565b7f4f776e61626c653a206e6577206f776e657220697320746865207a65726f206160008201527f6464726573730000000000000000000000000000000000000000000000000000602082015250565b6000610772602683610673565b915061077d82610716565b604082019050919050565b600060208201905081810360008301526107a181610765565b9050919050565b7f4f776e61626c653a2063616c6c6572206973206e6f7420746865206f776e6572600082015250565b60006107de602083610673565b91506107e9826107a8565b602082019050919050565b6000602082019050818103600083015261080d816107d1565b905091905056fea264697066735822122048abb2b63b4f8a043adeb400ce81e026e71560b6b661cf8110b4c9b46008cc1964736f6c63430008110033",
					"opcodes": "PUSH1 0x80 PUSH1 0x40 MSTORE CALLVALUE DUP1 ISZERO PUSH2 0x10 JUMPI PUSH1 0x0 DUP1 REVERT JUMPDEST POP CALLER PUSH1 0x0 DUP1 PUSH2 0x100 EXP DUP2 SLOAD DUP2 PUSH20 0xFFFFFFFFFFFFFFFFFFFFFFFFFFFFFFFFFFFFFFFF MUL NOT AND SWAP1 DUP4 PUSH20 0xFFFFFFFFFFFFFFFFFFFFFFFFFFFFFFFFFFFFFFFF AND MUL OR SWAP1 SSTORE POP PUSH2 0x84A DUP1 PUSH2 0x60 PUSH1 0x0 CODECOPY PUSH1 0x0 RETURN INVALID PUSH1 0x80 PUSH1 0x40 MSTORE CALLVALUE DUP1 ISZERO PUSH2 0x10 JUMPI PUSH1 0x0 DUP1 REVERT JUMPDEST POP PUSH1 0x4 CALLDATASIZE LT PUSH2 0x4C JUMPI PUSH1 0x0 CALLDATALOAD PUSH1 0xE0 SHR DUP1 PUSH4 0x83197EF0 EQ PUSH2 0x51 JUMPI DUP1 PUSH4 0x8DA5CB5B EQ PUSH2 0x5B JUMPI DUP1 PUSH4 0xCA697CCD EQ PUSH2 0x79 JUMPI DUP1 PUSH4 0xF2FDE38B EQ PUSH2 0xA9 JUMPI JUMPDEST PUSH1 0x0 DUP1 REVERT JUMPDEST PUSH2 0x59 PUSH2 0xC5 JUMP JUMPDEST STOP JUMPDEST PUSH2 0x63 PUSH2 0xE6 JUMP JUMPDEST PUSH1 0x40 MLOAD PUSH2 0x70 SWAP2 SWAP1 PUSH2 0x419 JUMP JUMPDEST PUSH1 0x40 MLOAD DUP1 SWAP2 SUB SWAP1 RETURN JUMPDEST PUSH2 0x93 PUSH1 0x4 DUP1 CALLDATASIZE SUB DUP2 ADD SWAP1 PUSH2 0x8E SWAP2 SWAP1 PUSH2 0x5D0 JUMP JUMPDEST PUSH2 0x10F JUMP JUMPDEST PUSH1 0x40 MLOAD PUSH2 0xA0 SWAP2 SWAP1 PUSH2 0x62B JUMP JUMPDEST PUSH1 0x40 MLOAD DUP1 SWAP2 SUB SWAP1 RETURN JUMPDEST PUSH2 0xC3 PUSH1 0x4 DUP1 CALLDATASIZE SUB DUP2 ADD SWAP1 PUSH2 0xBE SWAP2 SWAP1 PUSH2 0x646 JUMP JUMPDEST PUSH2 0x21A JUMP JUMPDEST STOP JUMPDEST PUSH2 0xCD PUSH2 0x29D JUMP JUMPDEST ADDRESS PUSH20 0xFFFFFFFFFFFFFFFFFFFFFFFFFFFFFFFFFFFFFFFF AND SELFDESTRUCT JUMPDEST PUSH1 0x0 DUP1 PUSH1 0x0 SWAP1 SLOAD SWAP1 PUSH2 0x100 EXP SWAP1 DIV PUSH20 0xFFFFFFFFFFFFFFFFFFFFFFFFFFFFFFFFFFFFFFFF AND SWAP1 POP SWAP1 JUMP JUMPDEST PUSH1 0x0 DUP2 PUSH32 0x8E1604A838D0F1A9B2CDA14A099E4CEB08E966CC6E05E8296F67B02D61A79F09 PUSH1 0x0 SHL DUP2 EQ PUSH2 0x177 JUMPI PUSH1 0x40 MLOAD PUSH32 0x8C379A000000000000000000000000000000000000000000000000000000000 DUP2 MSTORE PUSH1 0x4 ADD PUSH2 0x16E SWAP1 PUSH2 0x6F6 JUMP JUMPDEST PUSH1 0x40 MLOAD DUP1 SWAP2 SUB SWAP1 REVERT JUMPDEST PUSH1 0x1 DUP1 SLOAD SWAP1 POP DUP5 PUSH1 0x0 ADD DUP2 DUP2 MSTORE POP POP PUSH1 0x1 DUP5 SWAP1 DUP1 PUSH1 0x1 DUP2 SLOAD ADD DUP1 DUP3 SSTORE DUP1 SWAP2 POP POP PUSH1 0x1 SWAP1 SUB SWAP1 PUSH1 0x0 MSTORE PUSH1 0x20 PUSH1 0x0 KECCAK256 SWAP1 PUSH1 0x3 MUL ADD PUSH1 0x0 SWAP1 SWAP2 SWAP1 SWAP2 SWAP1 SWAP2 POP PUSH1 0x0 DUP3 ADD MLOAD DUP2 PUSH1 0x0 ADD SSTORE PUSH1 0x20 DUP3 ADD MLOAD DUP2 PUSH1 0x1 ADD PUSH1 0x0 PUSH2 0x100 EXP DUP2 SLOAD DUP2 PUSH20 0xFFFFFFFFFFFFFFFFFFFFFFFFFFFFFFFFFFFFFFFF MUL NOT AND SWAP1 DUP4 PUSH20 0xFFFFFFFFFFFFFFFFFFFFFFFFFFFFFFFFFFFFFFFF AND MUL OR SWAP1 SSTORE POP PUSH1 0x40 DUP3 ADD MLOAD DUP2 PUSH1 0x2 ADD SSTORE POP POP PUSH1 0x1 SWAP2 POP POP SWAP3 SWAP2 POP POP JUMP JUMPDEST PUSH2 0x222 PUSH2 0x29D JUMP JUMPDEST PUSH1 0x0 PUSH20 0xFFFFFFFFFFFFFFFFFFFFFFFFFFFFFFFFFFFFFFFF AND DUP2 PUSH20 0xFFFFFFFFFFFFFFFFFFFFFFFFFFFFFFFFFFFFFFFF AND SUB PUSH2 0x291 JUMPI PUSH1 0x40 MLOAD PUSH32 0x8C379A000000000000000000000000000000000000000000000000000000000 DUP2 MSTORE PUSH1 0x4 ADD PUSH2 0x288 SWAP1 PUSH2 0x788 JUMP JUMPDEST PUSH1 0x40 MLOAD DUP1 SWAP2 SUB SWAP1 REVERT JUMPDEST PUSH2 0x29A DUP2 PUSH2 0x314 JUMP JUMPDEST POP JUMP JUMPDEST CALLER PUSH20 0xFFFFFFFFFFFFFFFFFFFFFFFFFFFFFFFFFFFFFFFF AND PUSH2 0x2BC PUSH2 0xE6 JUMP JUMPDEST PUSH20 0xFFFFFFFFFFFFFFFFFFFFFFFFFFFFFFFFFFFFFFFF AND EQ PUSH2 0x312 JUMPI PUSH1 0x40 MLOAD PUSH32 0x8C379A000000000000000000000000000000000000000000000000000000000 DUP2 MSTORE PUSH1 0x4 ADD PUSH2 0x309 SWAP1 PUSH2 0x7F4 JUMP JUMPDEST PUSH1 0x40 MLOAD DUP1 SWAP2 SUB SWAP1 REVERT JUMPDEST JUMP JUMPDEST PUSH1 0x0 DUP1 PUSH1 0x0 SWAP1 SLOAD SWAP1 PUSH2 0x100 EXP SWAP1 DIV PUSH20 0xFFFFFFFFFFFFFFFFFFFFFFFFFFFFFFFFFFFFFFFF AND SWAP1 POP DUP2 PUSH1 0x0 DUP1 PUSH2 0x100 EXP DUP2 SLOAD DUP2 PUSH20 0xFFFFFFFFFFFFFFFFFFFFFFFFFFFFFFFFFFFFFFFF MUL NOT AND SWAP1 DUP4 PUSH20 0xFFFFFFFFFFFFFFFFFFFFFFFFFFFFFFFFFFFFFFFF AND MUL OR SWAP1 SSTORE POP DUP2 PUSH20 0xFFFFFFFFFFFFFFFFFFFFFFFFFFFFFFFFFFFFFFFF AND DUP2 PUSH20 0xFFFFFFFFFFFFFFFFFFFFFFFFFFFFFFFFFFFFFFFF AND PUSH32 0x8BE0079C531659141344CD1FD0A4F28419497F9722A3DAAFE3B4186F6B6457E0 PUSH1 0x40 MLOAD PUSH1 0x40 MLOAD DUP1 SWAP2 SUB SWAP1 LOG3 POP POP JUMP JUMPDEST PUSH1 0x0 PUSH20 0xFFFFFFFFFFFFFFFFFFFFFFFFFFFFFFFFFFFFFFFF DUP3 AND SWAP1 POP SWAP2 SWAP1 POP JUMP JUMPDEST PUSH1 0x0 PUSH2 0x403 DUP3 PUSH2 0x3D8 JUMP JUMPDEST SWAP1 POP SWAP2 SWAP1 POP JUMP JUMPDEST PUSH2 0x413 DUP2 PUSH2 0x3F8 JUMP JUMPDEST DUP3 MSTORE POP POP JUMP JUMPDEST PUSH1 0x0 PUSH1 0x20 DUP3 ADD SWAP1 POP PUSH2 0x42E PUSH1 0x0 DUP4 ADD DUP5 PUSH2 0x40A JUMP JUMPDEST SWAP3 SWAP2 POP POP JUMP JUMPDEST PUSH1 0x0 PUSH1 0x40 MLOAD SWAP1 POP SWAP1 JUMP JUMPDEST PUSH1 0x0 DUP1 REVERT JUMPDEST PUSH1 0x0 DUP1 REVERT JUMPDEST PUSH1 0x0 PUSH1 0x1F NOT PUSH1 0x1F DUP4 ADD AND SWAP1 POP SWAP2 SWAP1 POP JUMP JUMPDEST PUSH32 0x4E487B7100000000000000000000000000000000000000000000000000000000 PUSH1 0x0 MSTORE PUSH1 0x41 PUSH1 0x4 MSTORE PUSH1 0x24 PUSH1 0x0 REVERT JUMPDEST PUSH2 0x491 DUP3 PUSH2 0x448 JUMP JUMPDEST DUP2 ADD DUP2 DUP2 LT PUSH8 0xFFFFFFFFFFFFFFFF DUP3 GT OR ISZERO PUSH2 0x4B0 JUMPI PUSH2 0x4AF PUSH2 0x459 JUMP JUMPDEST JUMPDEST DUP1 PUSH1 0x40 MSTORE POP POP POP JUMP JUMPDEST PUSH1 0x0 PUSH2 0x4C3 PUSH2 0x434 JUMP JUMPDEST SWAP1 POP PUSH2 0x4CF DUP3 DUP3 PUSH2 0x488 JUMP JUMPDEST SWAP2 SWAP1 POP JUMP JUMPDEST PUSH1 0x0 DUP2 SWAP1 POP SWAP2 SWAP1 POP JUMP JUMPDEST PUSH2 0x4E7 DUP2 PUSH2 0x4D4 JUMP JUMPDEST DUP2 EQ PUSH2 0x4F2 JUMPI PUSH1 0x0 DUP1 REVERT JUMPDEST POP JUMP JUMPDEST PUSH1 0x0 DUP2 CALLDATALOAD SWAP1 POP PUSH2 0x504 DUP2 PUSH2 0x4DE JUMP JUMPDEST SWAP3 SWAP2 POP POP JUMP JUMPDEST PUSH2 0x513 DUP2 PUSH2 0x3F8 JUMP JUMPDEST DUP2 EQ PUSH2 0x51E JUMPI PUSH1 0x0 DUP1 REVERT JUMPDEST POP JUMP JUMPDEST PUSH1 0x0 DUP2 CALLDATALOAD SWAP1 POP PUSH2 0x530 DUP2 PUSH2 0x50A JUMP JUMPDEST SWAP3 SWAP2 POP POP JUMP JUMPDEST PUSH1 0x0 PUSH1 0x60 DUP3 DUP5 SUB SLT ISZERO PUSH2 0x54C JUMPI PUSH2 0x54B PUSH2 0x443 JUMP JUMPDEST JUMPDEST PUSH2 0x556 PUSH1 0x60 PUSH2 0x4B9 JUMP JUMPDEST SWAP1 POP PUSH1 0x0 PUSH2 0x566 DUP5 DUP3 DUP6 ADD PUSH2 0x4F5 JUMP JUMPDEST PUSH1 0x0 DUP4 ADD MSTORE POP PUSH1 0x20 PUSH2 0x57A DUP5 DUP3 DUP6 ADD PUSH2 0x521 JUMP JUMPDEST PUSH1 0x20 DUP4 ADD MSTORE POP PUSH1 0x40 PUSH2 0x58E DUP5 DUP3 DUP6 ADD PUSH2 0x4F5 JUMP JUMPDEST PUSH1 0x40 DUP4 ADD MSTORE POP SWAP3 SWAP2 POP POP JUMP JUMPDEST PUSH1 0x0 DUP2 SWAP1 POP SWAP2 SWAP1 POP JUMP JUMPDEST PUSH2 0x5AD DUP2 PUSH2 0x59A JUMP JUMPDEST DUP2 EQ PUSH2 0x5B8 JUMPI PUSH1 0x0 DUP1 REVERT JUMPDEST POP JUMP JUMPDEST PUSH1 0x0 DUP2 CALLDATALOAD SWAP1 POP PUSH2 0x5CA DUP2 PUSH2 0x5A4 JUMP JUMPDEST SWAP3 SWAP2 POP POP JUMP JUMPDEST PUSH1 0x0 DUP1 PUSH1 0x80 DUP4 DUP6 SUB SLT ISZERO PUSH2 0x5E7 JUMPI PUSH2 0x5E6 PUSH2 0x43E JUMP JUMPDEST JUMPDEST PUSH1 0x0 PUSH2 0x5F5 DUP6 DUP3 DUP7 ADD PUSH2 0x536 JUMP JUMPDEST SWAP3 POP POP PUSH1 0x60 PUSH2 0x606 DUP6 DUP3 DUP7 ADD PUSH2 0x5BB JUMP JUMPDEST SWAP2 POP POP SWAP3 POP SWAP3 SWAP1 POP JUMP JUMPDEST PUSH1 0x0 DUP2 ISZERO ISZERO SWAP1 POP SWAP2 SWAP1 POP JUMP JUMPDEST PUSH2 0x625 DUP2 PUSH2 0x610 JUMP JUMPDEST DUP3 MSTORE POP POP JUMP JUMPDEST PUSH1 0x0 PUSH1 0x20 DUP3 ADD SWAP1 POP PUSH2 0x640 PUSH1 0x0 DUP4 ADD DUP5 PUSH2 0x61C JUMP JUMPDEST SWAP3 SWAP2 POP POP JUMP JUMPDEST PUSH1 0x0 PUSH1 0x20 DUP3 DUP5 SUB SLT ISZERO PUSH2 0x65C JUMPI PUSH2 0x65B PUSH2 0x43E JUMP JUMPDEST JUMPDEST PUSH1 0x0 PUSH2 0x66A DUP5 DUP3 DUP6 ADD PUSH2 0x521 JUMP JUMPDEST SWAP2 POP POP SWAP3 SWAP2 POP POP JUMP JUMPDEST PUSH1 0x0 DUP3 DUP3 MSTORE PUSH1 0x20 DUP3 ADD SWAP1 POP SWAP3 SWAP2 POP POP JUMP JUMPDEST PUSH32 0x4461746162617365204661726D657244617461626173653A2053656372657420 PUSH1 0x0 DUP3 ADD MSTORE PUSH32 0x6B6579206572726F720000000000000000000000000000000000000000000000 PUSH1 0x20 DUP3 ADD MSTORE POP JUMP JUMPDEST PUSH1 0x0 PUSH2 0x6E0 PUSH1 0x29 DUP4 PUSH2 0x673 JUMP JUMPDEST SWAP2 POP PUSH2 0x6EB DUP3 PUSH2 0x684 JUMP JUMPDEST PUSH1 0x40 DUP3 ADD SWAP1 POP SWAP2 SWAP1 POP JUMP JUMPDEST PUSH1 0x0 PUSH1 0x20 DUP3 ADD SWAP1 POP DUP2 DUP2 SUB PUSH1 0x0 DUP4 ADD MSTORE PUSH2 0x70F DUP2 PUSH2 0x6D3 JUMP JUMPDEST SWAP1 POP SWAP2 SWAP1 POP JUMP JUMPDEST PUSH32 0x4F776E61626C653A206E6577206F776E657220697320746865207A65726F2061 PUSH1 0x0 DUP3 ADD MSTORE PUSH32 0x6464726573730000000000000000000000000000000000000000000000000000 PUSH1 0x20 DUP3 ADD MSTORE POP JUMP JUMPDEST PUSH1 0x0 PUSH2 0x772 PUSH1 0x26 DUP4 PUSH2 0x673 JUMP JUMPDEST SWAP2 POP PUSH2 0x77D DUP3 PUSH2 0x716 JUMP JUMPDEST PUSH1 0x40 DUP3 ADD SWAP1 POP SWAP2 SWAP1 POP JUMP JUMPDEST PUSH1 0x0 PUSH1 0x20 DUP3 ADD SWAP1 POP DUP2 DUP2 SUB PUSH1 0x0 DUP4 ADD MSTORE PUSH2 0x7A1 DUP2 PUSH2 0x765 JUMP JUMPDEST SWAP1 POP SWAP2 SWAP1 POP JUMP JUMPDEST PUSH32 0x4F776E61626C653A2063616C6C6572206973206E6F7420746865206F776E6572 PUSH1 0x0 DUP3 ADD MSTORE POP JUMP JUMPDEST PUSH1 0x0 PUSH2 0x7DE PUSH1 0x20 DUP4 PUSH2 0x673 JUMP JUMPDEST SWAP2 POP PUSH2 0x7E9 DUP3 PUSH2 0x7A8 JUMP JUMPDEST PUSH1 0x20 DUP3 ADD SWAP1 POP SWAP2 SWAP1 POP JUMP JUMPDEST PUSH1 0x0 PUSH1 0x20 DUP3 ADD SWAP1 POP DUP2 DUP2 SUB PUSH1 0x0 DUP4 ADD MSTORE PUSH2 0x80D DUP2 PUSH2 0x7D1 JUMP JUMPDEST SWAP1 POP SWAP2 SWAP1 POP JUMP INVALID LOG2 PUSH5 0x6970667358 0x22 SLT KECCAK256 BASEFEE 0xAB 0xB2 0xB6 EXTCODESIZE 0x4F DUP11 DIV GASPRICE 0xDE 0xB4 STOP 0xCE DUP2 0xE0 0x26 0xE7 ISZERO PUSH1 0xB6 0xB6 PUSH2 0xCF81 LT 0xB4 0xC9 0xB4 PUSH1 0x8 0xCC NOT PUSH5 0x736F6C6343 STOP ADDMOD GT STOP CALLER "
				},
				"gasEstimates": {
					"creation": {
						"codeDepositCost": "424400",
						"executionCost": "24727",
						"totalCost": "449127"
					},
					"external": {
						"addFarmer((uint256,address,uint256),bytes32)": "infinite",
						"destroy()": "29950",
						"owner()": "2522",
						"transferOwnership(address)": "30753"
					}
				},
				"methodIdentifiers": {
					"addFarmer((uint256,address,uint256),bytes32)": "ca697ccd",
					"destroy()": "83197ef0",
					"owner()": "8da5cb5b",
					"transferOwnership(address)": "f2fde38b"
				}
			},
			"storageLayout": {
				"storage": [
					{
						"astId": 4,
						"contract": "database/farmer/FarmerDatabase.sol:FarmerDatabase",
						"label": "_owner",
						"offset": 0,
						"slot": "0",
						"type": "t_address"
					},
					{
						"astId": 141,
						"contract": "database/farmer/FarmerDatabase.sol:FarmerDatabase",
						"label": "listFarmer",
						"offset": 0,
						"slot": "1",
						"type": "t_array(t_struct(Farmer)215_storage)dyn_storage"
					},
					{
						"astId": 145,
						"contract": "database/farmer/FarmerDatabase.sol:FarmerDatabase",
						"label": "listPlant",
						"offset": 0,
						"slot": "2",
						"type": "t_array(t_struct(Plant)256_storage)dyn_storage"
					},
					{
						"astId": 149,
						"contract": "database/farmer/FarmerDatabase.sol:FarmerDatabase",
						"label": "listHarvest",
						"offset": 0,
						"slot": "3",
						"type": "t_array(t_struct(Harvest)240_storage)dyn_storage"
					},
					{
						"astId": 153,
						"contract": "database/farmer/FarmerDatabase.sol:FarmerDatabase",
						"label": "listPrepare",
						"offset": 0,
						"slot": "4",
						"type": "t_array(t_struct(Prepare)268_storage)dyn_storage"
					},
					{
						"astId": 157,
						"contract": "database/farmer/FarmerDatabase.sol:FarmerDatabase",
						"label": "listFolWarehouse",
						"offset": 0,
						"slot": "5",
						"type": "t_array(t_struct(FolWarehouse)228_storage)dyn_storage"
					}
				],
				"types": {
					"t_address": {
						"encoding": "inplace",
						"label": "address",
						"numberOfBytes": "20"
					},
					"t_array(t_struct(Farmer)215_storage)dyn_storage": {
						"base": "t_struct(Farmer)215_storage",
						"encoding": "dynamic_array",
						"label": "struct Farmer[]",
						"numberOfBytes": "32"
					},
					"t_array(t_struct(FolWarehouse)228_storage)dyn_storage": {
						"base": "t_struct(FolWarehouse)228_storage",
						"encoding": "dynamic_array",
						"label": "struct FolWarehouse[]",
						"numberOfBytes": "32"
					},
					"t_array(t_struct(Harvest)240_storage)dyn_storage": {
						"base": "t_struct(Harvest)240_storage",
						"encoding": "dynamic_array",
						"label": "struct Harvest[]",
						"numberOfBytes": "32"
					},
					"t_array(t_struct(Plant)256_storage)dyn_storage": {
						"base": "t_struct(Plant)256_storage",
						"encoding": "dynamic_array",
						"label": "struct Plant[]",
						"numberOfBytes": "32"
					},
					"t_array(t_struct(Prepare)268_storage)dyn_storage": {
						"base": "t_struct(Prepare)268_storage",
						"encoding": "dynamic_array",
						"label": "struct Prepare[]",
						"numberOfBytes": "32"
					},
					"t_array(t_uint256)dyn_storage": {
						"base": "t_uint256",
						"encoding": "dynamic_array",
						"label": "uint256[]",
						"numberOfBytes": "32"
					},
					"t_enum(CATEGORY)246": {
						"encoding": "inplace",
						"label": "enum CATEGORY",
						"numberOfBytes": "1"
					},
					"t_struct(Farmer)215_storage": {
						"encoding": "inplace",
						"label": "struct Farmer",
						"members": [
							{
								"astId": 210,
								"contract": "database/farmer/FarmerDatabase.sol:FarmerDatabase",
								"label": "farmerId",
								"offset": 0,
								"slot": "0",
								"type": "t_uint256"
							},
							{
								"astId": 212,
								"contract": "database/farmer/FarmerDatabase.sol:FarmerDatabase",
								"label": "farmerAddress",
								"offset": 0,
								"slot": "1",
								"type": "t_address"
							},
							{
								"astId": 214,
								"contract": "database/farmer/FarmerDatabase.sol:FarmerDatabase",
								"label": "category",
								"offset": 0,
								"slot": "2",
								"type": "t_uint256"
							}
						],
						"numberOfBytes": "96"
					},
					"t_struct(FolWarehouse)228_storage": {
						"encoding": "inplace",
						"label": "struct FolWarehouse",
						"members": [
							{
								"astId": 219,
								"contract": "database/farmer/FarmerDatabase.sol:FarmerDatabase",
								"label": "batchId",
								"offset": 0,
								"slot": "0",
								"type": "t_uint256"
							},
							{
								"astId": 221,
								"contract": "database/farmer/FarmerDatabase.sol:FarmerDatabase",
								"label": "prepareId",
								"offset": 0,
								"slot": "1",
								"type": "t_uint256"
							},
							{
								"astId": 223,
								"contract": "database/farmer/FarmerDatabase.sol:FarmerDatabase",
								"label": "category",
								"offset": 0,
								"slot": "2",
								"type": "t_uint256"
							},
							{
								"astId": 225,
								"contract": "database/farmer/FarmerDatabase.sol:FarmerDatabase",
								"label": "time",
								"offset": 0,
								"slot": "3",
								"type": "t_uint256"
							},
							{
								"astId": 227,
								"contract": "database/farmer/FarmerDatabase.sol:FarmerDatabase",
								"label": "quantity",
								"offset": 0,
								"slot": "4",
								"type": "t_uint256"
							}
						],
						"numberOfBytes": "160"
					},
					"t_struct(Harvest)240_storage": {
						"encoding": "inplace",
						"label": "struct Harvest",
						"members": [
							{
								"astId": 232,
								"contract": "database/farmer/FarmerDatabase.sol:FarmerDatabase",
								"label": "harvestId",
								"offset": 0,
								"slot": "0",
								"type": "t_uint256"
							},
							{
								"astId": 234,
								"contract": "database/farmer/FarmerDatabase.sol:FarmerDatabase",
								"label": "farmerId",
								"offset": 0,
								"slot": "1",
								"type": "t_uint256"
							},
							{
								"astId": 236,
								"contract": "database/farmer/FarmerDatabase.sol:FarmerDatabase",
								"label": "category",
								"offset": 0,
								"slot": "2",
								"type": "t_uint256"
							},
							{
								"astId": 239,
								"contract": "database/farmer/FarmerDatabase.sol:FarmerDatabase",
								"label": "listPlantId",
								"offset": 0,
								"slot": "3",
								"type": "t_array(t_uint256)dyn_storage"
							}
						],
						"numberOfBytes": "128"
					},
					"t_struct(Plant)256_storage": {
						"encoding": "inplace",
						"label": "struct Plant",
						"members": [
							{
								"astId": 248,
								"contract": "database/farmer/FarmerDatabase.sol:FarmerDatabase",
								"label": "plantId",
								"offset": 0,
								"slot": "0",
								"type": "t_uint256"
							},
							{
								"astId": 250,
								"contract": "database/farmer/FarmerDatabase.sol:FarmerDatabase",
								"label": "farmerId",
								"offset": 0,
								"slot": "1",
								"type": "t_uint256"
							},
							{
								"astId": 253,
								"contract": "database/farmer/FarmerDatabase.sol:FarmerDatabase",
								"label": "category",
								"offset": 0,
								"slot": "2",
								"type": "t_enum(CATEGORY)246"
							},
							{
								"astId": 255,
								"contract": "database/farmer/FarmerDatabase.sol:FarmerDatabase",
								"label": "testTime",
								"offset": 0,
								"slot": "3",
								"type": "t_uint256"
							}
						],
						"numberOfBytes": "128"
					},
					"t_struct(Prepare)268_storage": {
						"encoding": "inplace",
						"label": "struct Prepare",
						"members": [
							{
								"astId": 260,
								"contract": "database/farmer/FarmerDatabase.sol:FarmerDatabase",
								"label": "prepareId",
								"offset": 0,
								"slot": "0",
								"type": "t_uint256"
							},
							{
								"astId": 262,
								"contract": "database/farmer/FarmerDatabase.sol:FarmerDatabase",
								"label": "farmerId",
								"offset": 0,
								"slot": "1",
								"type": "t_uint256"
							},
							{
								"astId": 264,
								"contract": "database/farmer/FarmerDatabase.sol:FarmerDatabase",
								"label": "category",
								"offset": 0,
								"slot": "2",
								"type": "t_uint256"
							},
							{
								"astId": 267,
								"contract": "database/farmer/FarmerDatabase.sol:FarmerDatabase",
								"label": "listHarvestId",
								"offset": 0,
								"slot": "3",
								"type": "t_array(t_uint256)dyn_storage"
							}
						],
						"numberOfBytes": "128"
					},
					"t_uint256": {
						"encoding": "inplace",
						"label": "uint256",
						"numberOfBytes": "32"
					}
				}
			},
			"userdoc": {
				"kind": "user",
				"methods": {},
				"version": 1
			}
		}
	}
}