{
	"controller/user/UserController.sol": {
		"UserController": {
			"abi": [
				{
					"inputs": [
						{
							"internalType": "address",
							"name": "userDatabaseContractAddress",
							"type": "address"
						}
					],
					"stateMutability": "nonpayable",
					"type": "constructor"
				},
				{
					"anonymous": false,
					"inputs": [
						{
							"indexed": true,
							"internalType": "address",
							"name": "previousOwner",
							"type": "address"
						},
						{
							"indexed": true,
							"internalType": "address",
							"name": "newOwner",
							"type": "address"
						}
					],
					"name": "OwnershipTransferred",
					"type": "event"
				},
				{
					"inputs": [
						{
							"internalType": "string",
							"name": "fullName",
							"type": "string"
						},
						{
							"internalType": "string",
							"name": "userCccd",
							"type": "string"
						},
						{
							"internalType": "string",
							"name": "userEmail",
							"type": "string"
						},
						{
							"internalType": "uint256",
							"name": "userCategory",
							"type": "uint256"
						}
					],
					"name": "addUser",
					"outputs": [],
					"stateMutability": "nonpayable",
					"type": "function"
				},
				{
					"inputs": [],
					"name": "checkExistUser",
					"outputs": [
						{
							"internalType": "bool",
							"name": "",
							"type": "bool"
						}
					],
					"stateMutability": "view",
					"type": "function"
				},
				{
					"inputs": [],
					"name": "destroy",
					"outputs": [],
					"stateMutability": "nonpayable",
					"type": "function"
				},
				{
					"inputs": [],
					"name": "getAllUser",
					"outputs": [
						{
							"components": [
								{
									"internalType": "uint256",
									"name": "userId",
									"type": "uint256"
								},
								{
									"internalType": "string",
									"name": "fullName",
									"type": "string"
								},
								{
									"internalType": "string",
									"name": "userCccd",
									"type": "string"
								},
								{
									"internalType": "string",
									"name": "userEmail",
									"type": "string"
								},
								{
									"internalType": "address",
									"name": "userAddress",
									"type": "address"
								},
								{
									"internalType": "uint256",
									"name": "userCategory",
									"type": "uint256"
								},
								{
									"internalType": "bool",
									"name": "userIsChecked",
									"type": "bool"
								}
							],
							"internalType": "struct User[]",
							"name": "",
							"type": "tuple[]"
						}
					],
					"stateMutability": "view",
					"type": "function"
				},
				{
					"inputs": [],
					"name": "login",
					"outputs": [
						{
							"components": [
								{
									"internalType": "uint256",
									"name": "userId",
									"type": "uint256"
								},
								{
									"internalType": "string",
									"name": "fullName",
									"type": "string"
								},
								{
									"internalType": "string",
									"name": "userCccd",
									"type": "string"
								},
								{
									"internalType": "string",
									"name": "userEmail",
									"type": "string"
								},
								{
									"internalType": "address",
									"name": "userAddress",
									"type": "address"
								},
								{
									"internalType": "uint256",
									"name": "userCategory",
									"type": "uint256"
								},
								{
									"internalType": "bool",
									"name": "userIsChecked",
									"type": "bool"
								}
							],
							"internalType": "struct User",
							"name": "",
							"type": "tuple"
						}
					],
					"stateMutability": "view",
					"type": "function"
				},
				{
					"inputs": [],
					"name": "owner",
					"outputs": [
						{
							"internalType": "address",
							"name": "",
							"type": "address"
						}
					],
					"stateMutability": "view",
					"type": "function"
				},
				{
					"inputs": [
						{
							"internalType": "address",
							"name": "newOwner",
							"type": "address"
						}
					],
					"name": "transferOwnership",
					"outputs": [],
					"stateMutability": "nonpayable",
					"type": "function"
				},
				{
					"inputs": [],
					"name": "userDatabase",
					"outputs": [
						{
							"internalType": "contract UserDatabase",
							"name": "",
							"type": "address"
						}
					],
					"stateMutability": "view",
					"type": "function"
				}
			],
			"devdoc": {
				"kind": "dev",
				"methods": {
					"owner()": {
						"details": "Returns the address of the current owner."
					},
					"transferOwnership(address)": {
						"details": "Transfers ownership of the contract to a new account (`newOwner`). Can only be called by the current owner."
					}
				},
				"version": 1
			},
			"evm": {
				"assembly": "    /* \"controller/user/UserController.sol\":252:1204  contract UserController is Ownable, UserDatabaseCursor {... */\n  mstore(0x40, 0x80)\n    /* \"controller/user/UserController.sol\":314:446  constructor(address userDatabaseContractAddress)... */\n  callvalue\n  dup1\n  iszero\n  tag_1\n  jumpi\n  0x00\n  dup1\n  revert\ntag_1:\n  pop\n  mload(0x40)\n  sub(codesize, bytecodeSize)\n  dup1\n  bytecodeSize\n  dup4\n  codecopy\n  dup2\n  dup2\n  add\n  0x40\n  mstore\n  dup2\n  add\n  swap1\n  tag_2\n  swap2\n  swap1\n  tag_3\n  jump\t// in\ntag_2:\n    /* \"controller/user/UserController.sol\":410:437  userDatabaseContractAddress */\n  dup1\n    /* \"abstract/Ownable.sol\":1032:1042  msg.sender */\n  caller\n    /* \"abstract/Ownable.sol\":1023:1029  _owner */\n  0x00\n  dup1\n    /* \"abstract/Ownable.sol\":1023:1042  _owner = msg.sender */\n  0x0100\n  exp\n  dup2\n  sload\n  dup2\n  0xffffffffffffffffffffffffffffffffffffffff\n  mul\n  not\n  and\n  swap1\n  dup4\n  0xffffffffffffffffffffffffffffffffffffffff\n  and\n  mul\n  or\n  swap1\n  sstore\n  pop\n    /* \"cursor/user/UserDatabaseCursor.sol\":340:345  value */\n  dup1\n    /* \"cursor/user/UserDatabaseCursor.sol\":312:324  userDatabase */\n  0x01\n  0x00\n    /* \"cursor/user/UserDatabaseCursor.sol\":312:346  userDatabase = UserDatabase(value) */\n  0x0100\n  exp\n  dup2\n  sload\n  dup2\n  0xffffffffffffffffffffffffffffffffffffffff\n  mul\n  not\n  and\n  swap1\n  dup4\n  0xffffffffffffffffffffffffffffffffffffffff\n  and\n  mul\n  or\n  swap1\n  sstore\n  pop\n    /* \"cursor/user/UserDatabaseCursor.sol\":274:354  constructor(address value) {... */\n  pop\n    /* \"controller/user/UserController.sol\":314:446  constructor(address userDatabaseContractAddress)... */\n  pop\n    /* \"controller/user/UserController.sol\":252:1204  contract UserController is Ownable, UserDatabaseCursor {... */\n  jump(tag_10)\n    /* \"#utility.yul\":88:205   */\ntag_12:\n    /* \"#utility.yul\":197:198   */\n  0x00\n    /* \"#utility.yul\":194:195   */\n  dup1\n    /* \"#utility.yul\":187:199   */\n  revert\n    /* \"#utility.yul\":334:460   */\ntag_14:\n    /* \"#utility.yul\":371:378   */\n  0x00\n    /* \"#utility.yul\":411:453   */\n  0xffffffffffffffffffffffffffffffffffffffff\n    /* \"#utility.yul\":404:409   */\n  dup3\n    /* \"#utility.yul\":400:454   */\n  and\n    /* \"#utility.yul\":389:454   */\n  swap1\n  pop\n    /* \"#utility.yul\":334:460   */\n  swap2\n  swap1\n  pop\n  jump\t// out\n    /* \"#utility.yul\":466:562   */\ntag_15:\n    /* \"#utility.yul\":503:510   */\n  0x00\n    /* \"#utility.yul\":532:556   */\n  tag_24\n    /* \"#utility.yul\":550:555   */\n  dup3\n    /* \"#utility.yul\":532:556   */\n  tag_14\n  jump\t// in\ntag_24:\n    /* \"#utility.yul\":521:556   */\n  swap1\n  pop\n    /* \"#utility.yul\":466:562   */\n  swap2\n  swap1\n  pop\n  jump\t// out\n    /* \"#utility.yul\":568:690   */\ntag_16:\n    /* \"#utility.yul\":641:665   */\n  tag_26\n    /* \"#utility.yul\":659:664   */\n  dup2\n    /* \"#utility.yul\":641:665   */\n  tag_15\n  jump\t// in\ntag_26:\n    /* \"#utility.yul\":634:639   */\n  dup2\n    /* \"#utility.yul\":631:666   */\n  eq\n    /* \"#utility.yul\":621:684   */\n  tag_27\n  jumpi\n    /* \"#utility.yul\":680:681   */\n  0x00\n    /* \"#utility.yul\":677:678   */\n  dup1\n    /* \"#utility.yul\":670:682   */\n  revert\n    /* \"#utility.yul\":621:684   */\ntag_27:\n    /* \"#utility.yul\":568:690   */\n  pop\n  jump\t// out\n    /* \"#utility.yul\":696:839   */\ntag_17:\n    /* \"#utility.yul\":753:758   */\n  0x00\n    /* \"#utility.yul\":784:790   */\n  dup2\n    /* \"#utility.yul\":778:791   */\n  mload\n    /* \"#utility.yul\":769:791   */\n  swap1\n  pop\n    /* \"#utility.yul\":800:833   */\n  tag_29\n    /* \"#utility.yul\":827:832   */\n  dup2\n    /* \"#utility.yul\":800:833   */\n  tag_16\n  jump\t// in\ntag_29:\n    /* \"#utility.yul\":696:839   */\n  swap3\n  swap2\n  pop\n  pop\n  jump\t// out\n    /* \"#utility.yul\":845:1196   */\ntag_3:\n    /* \"#utility.yul\":915:921   */\n  0x00\n    /* \"#utility.yul\":964:966   */\n  0x20\n    /* \"#utility.yul\":952:961   */\n  dup3\n    /* \"#utility.yul\":943:950   */\n  dup5\n    /* \"#utility.yul\":939:962   */\n  sub\n    /* \"#utility.yul\":935:967   */\n  slt\n    /* \"#utility.yul\":932:1051   */\n  iszero\n  tag_31\n  jumpi\n    /* \"#utility.yul\":970:1049   */\n  tag_32\n  tag_12\n  jump\t// in\ntag_32:\n    /* \"#utility.yul\":932:1051   */\ntag_31:\n    /* \"#utility.yul\":1090:1091   */\n  0x00\n    /* \"#utility.yul\":1115:1179   */\n  tag_33\n    /* \"#utility.yul\":1171:1178   */\n  dup5\n    /* \"#utility.yul\":1162:1168   */\n  dup3\n    /* \"#utility.yul\":1151:1160   */\n  dup6\n    /* \"#utility.yul\":1147:1169   */\n  add\n    /* \"#utility.yul\":1115:1179   */\n  tag_17\n  jump\t// in\ntag_33:\n    /* \"#utility.yul\":1105:1179   */\n  swap2\n  pop\n    /* \"#utility.yul\":1061:1189   */\n  pop\n    /* \"#utility.yul\":845:1196   */\n  swap3\n  swap2\n  pop\n  pop\n  jump\t// out\n    /* \"controller/user/UserController.sol\":252:1204  contract UserController is Ownable, UserDatabaseCursor {... */\ntag_10:\n  dataSize(sub_0)\n  dup1\n  dataOffset(sub_0)\n  0x00\n  codecopy\n  0x00\n  return\nstop\n\nsub_0: assembly {\n        /* \"controller/user/UserController.sol\":252:1204  contract UserController is Ownable, UserDatabaseCursor {... */\n      mstore(0x40, 0x80)\n      callvalue\n      dup1\n      iszero\n      tag_1\n      jumpi\n      0x00\n      dup1\n      revert\n    tag_1:\n      pop\n      jumpi(tag_2, lt(calldatasize, 0x04))\n      shr(0xe0, calldataload(0x00))\n      dup1\n      0x8da5cb5b\n      gt\n      tag_11\n      jumpi\n      dup1\n      0x8da5cb5b\n      eq\n      tag_7\n      jumpi\n      dup1\n      0xb34e97e8\n      eq\n      tag_8\n      jumpi\n      dup1\n      0xcef6b086\n      eq\n      tag_9\n      jumpi\n      dup1\n      0xf2fde38b\n      eq\n      tag_10\n      jumpi\n      jump(tag_2)\n    tag_11:\n      dup1\n      0x2a213fb8\n      eq\n      tag_3\n      jumpi\n      dup1\n      0x47531df8\n      eq\n      tag_4\n      jumpi\n      dup1\n      0x7de60fb9\n      eq\n      tag_5\n      jumpi\n      dup1\n      0x83197ef0\n      eq\n      tag_6\n      jumpi\n    tag_2:\n      0x00\n      dup1\n      revert\n        /* \"cursor/user/UserDatabaseCursor.sol\":541:811  function checkExistUser() public view returns (bool) {... */\n    tag_3:\n      tag_12\n      tag_13\n      jump\t// in\n    tag_12:\n      mload(0x40)\n      tag_14\n      swap2\n      swap1\n      tag_15\n      jump\t// in\n    tag_14:\n      mload(0x40)\n      dup1\n      swap2\n      sub\n      swap1\n      return\n        /* \"controller/user/UserController.sol\":1082:1201  function getAllUser() public view onlyOwner returns (User[] memory) {... */\n    tag_4:\n      tag_16\n      tag_17\n      jump\t// in\n    tag_16:\n      mload(0x40)\n      tag_18\n      swap2\n      swap1\n      tag_19\n      jump\t// in\n    tag_18:\n      mload(0x40)\n      dup1\n      swap2\n      sub\n      swap1\n      return\n        /* \"controller/user/UserController.sol\":773:1075  function addUser(string memory fullName,string memory userCccd, string memory userEmail, uint256 userCategory)... */\n    tag_5:\n      tag_20\n      0x04\n      dup1\n      calldatasize\n      sub\n      dup2\n      add\n      swap1\n      tag_21\n      swap2\n      swap1\n      tag_22\n      jump\t// in\n    tag_21:\n      tag_23\n      jump\t// in\n    tag_20:\n      stop\n        /* \"abstract/Ownable.sol\":2801:2892  function destroy() public onlyOwner {... */\n    tag_6:\n      tag_24\n      tag_25\n      jump\t// in\n    tag_24:\n      stop\n        /* \"abstract/Ownable.sol\":1289:1376  function owner() public view virtual returns (address) {... */\n    tag_7:\n      tag_26\n      tag_27\n      jump\t// in\n    tag_26:\n      mload(0x40)\n      tag_28\n      swap2\n      swap1\n      tag_29\n      jump\t// in\n    tag_28:\n      mload(0x40)\n      dup1\n      swap2\n      sub\n      swap1\n      return\n        /* \"controller/user/UserController.sol\":458:765  function login() public view returns (User memory) {... */\n    tag_8:\n      tag_30\n      tag_31\n      jump\t// in\n    tag_30:\n      mload(0x40)\n      tag_32\n      swap2\n      swap1\n      tag_33\n      jump\t// in\n    tag_32:\n      mload(0x40)\n      dup1\n      swap2\n      sub\n      swap1\n      return\n        /* \"cursor/user/UserDatabaseCursor.sol\":233:265  UserDatabase public userDatabase */\n    tag_9:\n      tag_34\n      tag_35\n      jump\t// in\n    tag_34:\n      mload(0x40)\n      tag_36\n      swap2\n      swap1\n      tag_37\n      jump\t// in\n    tag_36:\n      mload(0x40)\n      dup1\n      swap2\n      sub\n      swap1\n      return\n        /* \"abstract/Ownable.sol\":2204:2442  function transferOwnership(address newOwner) public virtual onlyOwner {... */\n    tag_10:\n      tag_38\n      0x04\n      dup1\n      calldatasize\n      sub\n      dup2\n      add\n      swap1\n      tag_39\n      swap2\n      swap1\n      tag_40\n      jump\t// in\n    tag_39:\n      tag_41\n      jump\t// in\n    tag_38:\n      stop\n        /* \"cursor/user/UserDatabaseCursor.sol\":541:811  function checkExistUser() public view returns (bool) {... */\n    tag_13:\n        /* \"cursor/user/UserDatabaseCursor.sol\":588:592  bool */\n      0x00\n        /* \"cursor/user/UserDatabaseCursor.sol\":605:623  User[] memory list */\n      dup1\n        /* \"cursor/user/UserDatabaseCursor.sol\":626:638  userDatabase */\n      0x01\n      0x00\n      swap1\n      sload\n      swap1\n      0x0100\n      exp\n      swap1\n      div\n      0xffffffffffffffffffffffffffffffffffffffff\n      and\n        /* \"cursor/user/UserDatabaseCursor.sol\":626:649  userDatabase.getAllUser */\n      0xffffffffffffffffffffffffffffffffffffffff\n      and\n      0x47531df8\n        /* \"cursor/user/UserDatabaseCursor.sol\":626:651  userDatabase.getAllUser() */\n      mload(0x40)\n      dup2\n      0xffffffff\n      and\n      0xe0\n      shl\n      dup2\n      mstore\n      0x04\n      add\n      0x00\n      mload(0x40)\n      dup1\n      dup4\n      sub\n      dup2\n      dup7\n      gas\n      staticcall\n      iszero\n      dup1\n      iszero\n      tag_44\n      jumpi\n      returndatasize\n      0x00\n      dup1\n      returndatacopy\n      revert(0x00, returndatasize)\n    tag_44:\n      pop\n      pop\n      pop\n      pop\n      mload(0x40)\n      returndatasize\n      0x00\n      dup3\n      returndatacopy\n      returndatasize\n      not(0x1f)\n      0x1f\n      dup3\n      add\n      and\n      dup3\n      add\n      dup1\n      0x40\n      mstore\n      pop\n      dup2\n      add\n      swap1\n      tag_45\n      swap2\n      swap1\n      tag_46\n      jump\t// in\n    tag_45:\n        /* \"cursor/user/UserDatabaseCursor.sol\":605:651  User[] memory list = userDatabase.getAllUser() */\n      swap1\n      pop\n        /* \"cursor/user/UserDatabaseCursor.sol\":667:676  uint256 i */\n      0x00\n        /* \"cursor/user/UserDatabaseCursor.sol\":662:781  for (uint256 i = 0; i < list.length; i++) {... */\n    tag_47:\n        /* \"cursor/user/UserDatabaseCursor.sol\":686:690  list */\n      dup2\n        /* \"cursor/user/UserDatabaseCursor.sol\":686:697  list.length */\n      mload\n        /* \"cursor/user/UserDatabaseCursor.sol\":682:683  i */\n      dup2\n        /* \"cursor/user/UserDatabaseCursor.sol\":682:697  i < list.length */\n      lt\n        /* \"cursor/user/UserDatabaseCursor.sol\":662:781  for (uint256 i = 0; i < list.length; i++) {... */\n      iszero\n      tag_48\n      jumpi\n        /* \"cursor/user/UserDatabaseCursor.sol\":746:756  msg.sender */\n      caller\n        /* \"cursor/user/UserDatabaseCursor.sol\":723:756  list[i].userAddress == msg.sender */\n      0xffffffffffffffffffffffffffffffffffffffff\n      and\n        /* \"cursor/user/UserDatabaseCursor.sol\":723:727  list */\n      dup3\n        /* \"cursor/user/UserDatabaseCursor.sol\":728:729  i */\n      dup3\n        /* \"cursor/user/UserDatabaseCursor.sol\":723:730  list[i] */\n      dup2\n      mload\n      dup2\n      lt\n      tag_50\n      jumpi\n      tag_51\n      tag_52\n      jump\t// in\n    tag_51:\n    tag_50:\n      0x20\n      mul\n      0x20\n      add\n      add\n      mload\n        /* \"cursor/user/UserDatabaseCursor.sol\":723:742  list[i].userAddress */\n      0x80\n      add\n      mload\n        /* \"cursor/user/UserDatabaseCursor.sol\":723:756  list[i].userAddress == msg.sender */\n      0xffffffffffffffffffffffffffffffffffffffff\n      and\n      sub\n        /* \"cursor/user/UserDatabaseCursor.sol\":719:769  if (list[i].userAddress == msg.sender) return true */\n      tag_53\n      jumpi\n        /* \"cursor/user/UserDatabaseCursor.sol\":765:769  true */\n      0x01\n        /* \"cursor/user/UserDatabaseCursor.sol\":758:769  return true */\n      swap3\n      pop\n      pop\n      pop\n      jump(tag_42)\n        /* \"cursor/user/UserDatabaseCursor.sol\":719:769  if (list[i].userAddress == msg.sender) return true */\n    tag_53:\n        /* \"cursor/user/UserDatabaseCursor.sol\":699:702  i++ */\n      dup1\n      dup1\n      tag_54\n      swap1\n      tag_55\n      jump\t// in\n    tag_54:\n      swap2\n      pop\n      pop\n        /* \"cursor/user/UserDatabaseCursor.sol\":662:781  for (uint256 i = 0; i < list.length; i++) {... */\n      jump(tag_47)\n    tag_48:\n      pop\n        /* \"cursor/user/UserDatabaseCursor.sol\":798:803  false */\n      0x00\n        /* \"cursor/user/UserDatabaseCursor.sol\":791:803  return false */\n      swap2\n      pop\n      pop\n        /* \"cursor/user/UserDatabaseCursor.sol\":541:811  function checkExistUser() public view returns (bool) {... */\n    tag_42:\n      swap1\n      jump\t// out\n        /* \"controller/user/UserController.sol\":1082:1201  function getAllUser() public view onlyOwner returns (User[] memory) {... */\n    tag_17:\n        /* \"controller/user/UserController.sol\":1135:1148  User[] memory */\n      0x60\n        /* \"abstract/Ownable.sol\":1175:1188  _checkOwner() */\n      tag_57\n        /* \"abstract/Ownable.sol\":1175:1186  _checkOwner */\n      tag_58\n        /* \"abstract/Ownable.sol\":1175:1188  _checkOwner() */\n      jump\t// in\n    tag_57:\n        /* \"controller/user/UserController.sol\":1168:1180  userDatabase */\n      0x01\n      0x00\n      swap1\n      sload\n      swap1\n      0x0100\n      exp\n      swap1\n      div\n      0xffffffffffffffffffffffffffffffffffffffff\n      and\n        /* \"controller/user/UserController.sol\":1168:1191  userDatabase.getAllUser */\n      0xffffffffffffffffffffffffffffffffffffffff\n      and\n      0x47531df8\n        /* \"controller/user/UserController.sol\":1168:1193  userDatabase.getAllUser() */\n      mload(0x40)\n      dup2\n      0xffffffff\n      and\n      0xe0\n      shl\n      dup2\n      mstore\n      0x04\n      add\n      0x00\n      mload(0x40)\n      dup1\n      dup4\n      sub\n      dup2\n      dup7\n      gas\n      staticcall\n      iszero\n      dup1\n      iszero\n      tag_61\n      jumpi\n      returndatasize\n      0x00\n      dup1\n      returndatacopy\n      revert(0x00, returndatasize)\n    tag_61:\n      pop\n      pop\n      pop\n      pop\n      mload(0x40)\n      returndatasize\n      0x00\n      dup3\n      returndatacopy\n      returndatasize\n      not(0x1f)\n      0x1f\n      dup3\n      add\n      and\n      dup3\n      add\n      dup1\n      0x40\n      mstore\n      pop\n      dup2\n      add\n      swap1\n      tag_62\n      swap2\n      swap1\n      tag_46\n      jump\t// in\n    tag_62:\n        /* \"controller/user/UserController.sol\":1161:1193  return userDatabase.getAllUser() */\n      swap1\n      pop\n        /* \"controller/user/UserController.sol\":1082:1201  function getAllUser() public view onlyOwner returns (User[] memory) {... */\n      swap1\n      jump\t// out\n        /* \"controller/user/UserController.sol\":773:1075  function addUser(string memory fullName,string memory userCccd, string memory userEmail, uint256 userCategory)... */\n    tag_23:\n        /* \"cursor/user/UserDatabaseCursor.sol\":424:440  checkExistUser() */\n      tag_64\n        /* \"cursor/user/UserDatabaseCursor.sol\":424:438  checkExistUser */\n      tag_13\n        /* \"cursor/user/UserDatabaseCursor.sol\":424:440  checkExistUser() */\n      jump\t// in\n    tag_64:\n        /* \"cursor/user/UserDatabaseCursor.sol\":423:440  !checkExistUser() */\n      iszero\n        /* \"cursor/user/UserDatabaseCursor.sol\":401:513  require(... */\n      tag_65\n      jumpi\n      mload(0x40)\n      0x08c379a000000000000000000000000000000000000000000000000000000000\n      dup2\n      mstore\n      0x04\n      add\n      tag_66\n      swap1\n      tag_67\n      jump\t// in\n    tag_66:\n      mload(0x40)\n      dup1\n      swap2\n      sub\n      swap1\n      revert\n    tag_65:\n        /* \"controller/user/UserController.sol\":942:958  User memory item */\n      0x00\n        /* \"controller/user/UserController.sol\":961:1030  User(0, fullName,userCccd,userEmail,_msgSender(), userCategory, true) */\n      mload(0x40)\n      dup1\n      0xe0\n      add\n      0x40\n      mstore\n      dup1\n        /* \"controller/user/UserController.sol\":966:967  0 */\n      0x00\n        /* \"controller/user/UserController.sol\":961:1030  User(0, fullName,userCccd,userEmail,_msgSender(), userCategory, true) */\n      dup2\n      mstore\n      0x20\n      add\n        /* \"controller/user/UserController.sol\":969:977  fullName */\n      dup7\n        /* \"controller/user/UserController.sol\":961:1030  User(0, fullName,userCccd,userEmail,_msgSender(), userCategory, true) */\n      dup2\n      mstore\n      0x20\n      add\n        /* \"controller/user/UserController.sol\":978:986  userCccd */\n      dup6\n        /* \"controller/user/UserController.sol\":961:1030  User(0, fullName,userCccd,userEmail,_msgSender(), userCategory, true) */\n      dup2\n      mstore\n      0x20\n      add\n        /* \"controller/user/UserController.sol\":987:996  userEmail */\n      dup5\n        /* \"controller/user/UserController.sol\":961:1030  User(0, fullName,userCccd,userEmail,_msgSender(), userCategory, true) */\n      dup2\n      mstore\n      0x20\n      add\n        /* \"controller/user/UserController.sol\":997:1009  _msgSender() */\n      tag_69\n        /* \"controller/user/UserController.sol\":997:1007  _msgSender */\n      tag_70\n        /* \"controller/user/UserController.sol\":997:1009  _msgSender() */\n      jump\t// in\n    tag_69:\n        /* \"controller/user/UserController.sol\":961:1030  User(0, fullName,userCccd,userEmail,_msgSender(), userCategory, true) */\n      0xffffffffffffffffffffffffffffffffffffffff\n      and\n      dup2\n      mstore\n      0x20\n      add\n        /* \"controller/user/UserController.sol\":1011:1023  userCategory */\n      dup4\n        /* \"controller/user/UserController.sol\":961:1030  User(0, fullName,userCccd,userEmail,_msgSender(), userCategory, true) */\n      dup2\n      mstore\n      0x20\n      add\n        /* \"controller/user/UserController.sol\":1025:1029  true */\n      0x01\n        /* \"controller/user/UserController.sol\":961:1030  User(0, fullName,userCccd,userEmail,_msgSender(), userCategory, true) */\n      iszero\n      iszero\n      dup2\n      mstore\n      pop\n        /* \"controller/user/UserController.sol\":942:1030  User memory item = User(0, fullName,userCccd,userEmail,_msgSender(), userCategory, true) */\n      swap1\n      pop\n        /* \"controller/user/UserController.sol\":1041:1053  userDatabase */\n      0x01\n      0x00\n      swap1\n      sload\n      swap1\n      0x0100\n      exp\n      swap1\n      div\n      0xffffffffffffffffffffffffffffffffffffffff\n      and\n        /* \"controller/user/UserController.sol\":1041:1061  userDatabase.addUser */\n      0xffffffffffffffffffffffffffffffffffffffff\n      and\n      0x51c2bed1\n        /* \"controller/user/UserController.sol\":1062:1066  item */\n      dup3\n        /* \"controller/user/UserController.sol\":1041:1067  userDatabase.addUser(item) */\n      mload(0x40)\n      dup3\n      0xffffffff\n      and\n      0xe0\n      shl\n      dup2\n      mstore\n      0x04\n      add\n      tag_71\n      swap2\n      swap1\n      tag_33\n      jump\t// in\n    tag_71:\n      0x00\n      mload(0x40)\n      dup1\n      dup4\n      sub\n      dup2\n      0x00\n      dup8\n      dup1\n      extcodesize\n      iszero\n      dup1\n      iszero\n      tag_72\n      jumpi\n      0x00\n      dup1\n      revert\n    tag_72:\n      pop\n      gas\n      call\n      iszero\n      dup1\n      iszero\n      tag_74\n      jumpi\n      returndatasize\n      0x00\n      dup1\n      returndatacopy\n      revert(0x00, returndatasize)\n    tag_74:\n      pop\n      pop\n      pop\n      pop\n        /* \"controller/user/UserController.sol\":931:1075  {... */\n      pop\n        /* \"controller/user/UserController.sol\":773:1075  function addUser(string memory fullName,string memory userCccd, string memory userEmail, uint256 userCategory)... */\n      pop\n      pop\n      pop\n      pop\n      jump\t// out\n        /* \"abstract/Ownable.sol\":2801:2892  function destroy() public onlyOwner {... */\n    tag_25:\n        /* \"abstract/Ownable.sol\":1175:1188  _checkOwner() */\n      tag_76\n        /* \"abstract/Ownable.sol\":1175:1186  _checkOwner */\n      tag_58\n        /* \"abstract/Ownable.sol\":1175:1188  _checkOwner() */\n      jump\t// in\n    tag_76:\n        /* \"abstract/Ownable.sol\":2877:2881  this */\n      address\n        /* \"abstract/Ownable.sol\":2848:2884  selfdestruct(payable(address(this))) */\n      0xffffffffffffffffffffffffffffffffffffffff\n      and\n      selfdestruct\n        /* \"abstract/Ownable.sol\":1289:1376  function owner() public view virtual returns (address) {... */\n    tag_27:\n        /* \"abstract/Ownable.sol\":1335:1342  address */\n      0x00\n        /* \"abstract/Ownable.sol\":1362:1368  _owner */\n      dup1\n      0x00\n      swap1\n      sload\n      swap1\n      0x0100\n      exp\n      swap1\n      div\n      0xffffffffffffffffffffffffffffffffffffffff\n      and\n        /* \"abstract/Ownable.sol\":1355:1368  return _owner */\n      swap1\n      pop\n        /* \"abstract/Ownable.sol\":1289:1376  function owner() public view virtual returns (address) {... */\n      swap1\n      jump\t// out\n        /* \"controller/user/UserController.sol\":458:765  function login() public view returns (User memory) {... */\n    tag_31:\n        /* \"controller/user/UserController.sol\":496:507  User memory */\n      tag_79\n      tag_80\n      jump\t// in\n    tag_79:\n        /* \"controller/user/UserController.sol\":520:538  User[] memory list */\n      0x00\n        /* \"controller/user/UserController.sol\":541:553  userDatabase */\n      0x01\n      0x00\n      swap1\n      sload\n      swap1\n      0x0100\n      exp\n      swap1\n      div\n      0xffffffffffffffffffffffffffffffffffffffff\n      and\n        /* \"controller/user/UserController.sol\":541:564  userDatabase.getAllUser */\n      0xffffffffffffffffffffffffffffffffffffffff\n      and\n      0x47531df8\n        /* \"controller/user/UserController.sol\":541:566  userDatabase.getAllUser() */\n      mload(0x40)\n      dup2\n      0xffffffff\n      and\n      0xe0\n      shl\n      dup2\n      mstore\n      0x04\n      add\n      0x00\n      mload(0x40)\n      dup1\n      dup4\n      sub\n      dup2\n      dup7\n      gas\n      staticcall\n      iszero\n      dup1\n      iszero\n      tag_83\n      jumpi\n      returndatasize\n      0x00\n      dup1\n      returndatacopy\n      revert(0x00, returndatasize)\n    tag_83:\n      pop\n      pop\n      pop\n      pop\n      mload(0x40)\n      returndatasize\n      0x00\n      dup3\n      returndatacopy\n      returndatasize\n      not(0x1f)\n      0x1f\n      dup3\n      add\n      and\n      dup3\n      add\n      dup1\n      0x40\n      mstore\n      pop\n      dup2\n      add\n      swap1\n      tag_84\n      swap2\n      swap1\n      tag_46\n      jump\t// in\n    tag_84:\n        /* \"controller/user/UserController.sol\":520:566  User[] memory list = userDatabase.getAllUser() */\n      swap1\n      pop\n        /* \"controller/user/UserController.sol\":582:591  uint256 i */\n      0x00\n        /* \"controller/user/UserController.sol\":577:701  for (uint256 i = 0; i < list.length; i++) {... */\n    tag_85:\n        /* \"controller/user/UserController.sol\":601:605  list */\n      dup2\n        /* \"controller/user/UserController.sol\":601:612  list.length */\n      mload\n        /* \"controller/user/UserController.sol\":597:598  i */\n      dup2\n        /* \"controller/user/UserController.sol\":597:612  i < list.length */\n      lt\n        /* \"controller/user/UserController.sol\":577:701  for (uint256 i = 0; i < list.length; i++) {... */\n      iszero\n      tag_86\n      jumpi\n        /* \"controller/user/UserController.sol\":661:673  _msgSender() */\n      tag_88\n        /* \"controller/user/UserController.sol\":661:671  _msgSender */\n      tag_70\n        /* \"controller/user/UserController.sol\":661:673  _msgSender() */\n      jump\t// in\n    tag_88:\n        /* \"controller/user/UserController.sol\":638:673  list[i].userAddress == _msgSender() */\n      0xffffffffffffffffffffffffffffffffffffffff\n      and\n        /* \"controller/user/UserController.sol\":638:642  list */\n      dup3\n        /* \"controller/user/UserController.sol\":643:644  i */\n      dup3\n        /* \"controller/user/UserController.sol\":638:645  list[i] */\n      dup2\n      mload\n      dup2\n      lt\n      tag_89\n      jumpi\n      tag_90\n      tag_52\n      jump\t// in\n    tag_90:\n    tag_89:\n      0x20\n      mul\n      0x20\n      add\n      add\n      mload\n        /* \"controller/user/UserController.sol\":638:657  list[i].userAddress */\n      0x80\n      add\n      mload\n        /* \"controller/user/UserController.sol\":638:673  list[i].userAddress == _msgSender() */\n      0xffffffffffffffffffffffffffffffffffffffff\n      and\n      sub\n        /* \"controller/user/UserController.sol\":634:689  if (list[i].userAddress == _msgSender()) return list[i] */\n      tag_91\n      jumpi\n        /* \"controller/user/UserController.sol\":682:686  list */\n      dup2\n        /* \"controller/user/UserController.sol\":687:688  i */\n      dup2\n        /* \"controller/user/UserController.sol\":682:689  list[i] */\n      dup2\n      mload\n      dup2\n      lt\n      tag_92\n      jumpi\n      tag_93\n      tag_52\n      jump\t// in\n    tag_93:\n    tag_92:\n      0x20\n      mul\n      0x20\n      add\n      add\n      mload\n        /* \"controller/user/UserController.sol\":675:689  return list[i] */\n      swap3\n      pop\n      pop\n      pop\n      jump(tag_81)\n        /* \"controller/user/UserController.sol\":634:689  if (list[i].userAddress == _msgSender()) return list[i] */\n    tag_91:\n        /* \"controller/user/UserController.sol\":614:617  i++ */\n      dup1\n      dup1\n      tag_94\n      swap1\n      tag_55\n      jump\t// in\n    tag_94:\n      swap2\n      pop\n      pop\n        /* \"controller/user/UserController.sol\":577:701  for (uint256 i = 0; i < list.length; i++) {... */\n      jump(tag_85)\n    tag_86:\n      pop\n        /* \"controller/user/UserController.sol\":718:757  User(0, \"\",\"\",\"\", address(0), 0, false) */\n      mload(0x40)\n      dup1\n      0xe0\n      add\n      0x40\n      mstore\n      dup1\n        /* \"controller/user/UserController.sol\":723:724  0 */\n      0x00\n        /* \"controller/user/UserController.sol\":718:757  User(0, \"\",\"\",\"\", address(0), 0, false) */\n      dup2\n      mstore\n      0x20\n      add\n      mload(0x40)\n      dup1\n      0x20\n      add\n      0x40\n      mstore\n      dup1\n      0x00\n      dup2\n      mstore\n      pop\n      dup2\n      mstore\n      0x20\n      add\n      mload(0x40)\n      dup1\n      0x20\n      add\n      0x40\n      mstore\n      dup1\n      0x00\n      dup2\n      mstore\n      pop\n      dup2\n      mstore\n      0x20\n      add\n      mload(0x40)\n      dup1\n      0x20\n      add\n      0x40\n      mstore\n      dup1\n      0x00\n      dup2\n      mstore\n      pop\n      dup2\n      mstore\n      0x20\n      add\n        /* \"controller/user/UserController.sol\":744:745  0 */\n      0x00\n        /* \"controller/user/UserController.sol\":718:757  User(0, \"\",\"\",\"\", address(0), 0, false) */\n      0xffffffffffffffffffffffffffffffffffffffff\n      and\n      dup2\n      mstore\n      0x20\n      add\n        /* \"controller/user/UserController.sol\":748:749  0 */\n      0x00\n        /* \"controller/user/UserController.sol\":718:757  User(0, \"\",\"\",\"\", address(0), 0, false) */\n      dup2\n      mstore\n      0x20\n      add\n        /* \"controller/user/UserController.sol\":751:756  false */\n      0x00\n        /* \"controller/user/UserController.sol\":718:757  User(0, \"\",\"\",\"\", address(0), 0, false) */\n      iszero\n      iszero\n      dup2\n      mstore\n      pop\n        /* \"controller/user/UserController.sol\":711:757  return User(0, \"\",\"\",\"\", address(0), 0, false) */\n      swap2\n      pop\n      pop\n        /* \"controller/user/UserController.sol\":458:765  function login() public view returns (User memory) {... */\n    tag_81:\n      swap1\n      jump\t// out\n        /* \"cursor/user/UserDatabaseCursor.sol\":233:265  UserDatabase public userDatabase */\n    tag_35:\n      0x01\n      0x00\n      swap1\n      sload\n      swap1\n      0x0100\n      exp\n      swap1\n      div\n      0xffffffffffffffffffffffffffffffffffffffff\n      and\n      dup2\n      jump\t// out\n        /* \"abstract/Ownable.sol\":2204:2442  function transferOwnership(address newOwner) public virtual onlyOwner {... */\n    tag_41:\n        /* \"abstract/Ownable.sol\":1175:1188  _checkOwner() */\n      tag_96\n        /* \"abstract/Ownable.sol\":1175:1186  _checkOwner */\n      tag_58\n        /* \"abstract/Ownable.sol\":1175:1188  _checkOwner() */\n      jump\t// in\n    tag_96:\n        /* \"abstract/Ownable.sol\":2327:2328  0 */\n      0x00\n        /* \"abstract/Ownable.sol\":2307:2329  newOwner != address(0) */\n      0xffffffffffffffffffffffffffffffffffffffff\n      and\n        /* \"abstract/Ownable.sol\":2307:2315  newOwner */\n      dup2\n        /* \"abstract/Ownable.sol\":2307:2329  newOwner != address(0) */\n      0xffffffffffffffffffffffffffffffffffffffff\n      and\n      sub\n        /* \"abstract/Ownable.sol\":2285:2395  require(... */\n      tag_98\n      jumpi\n      mload(0x40)\n      0x08c379a000000000000000000000000000000000000000000000000000000000\n      dup2\n      mstore\n      0x04\n      add\n      tag_99\n      swap1\n      tag_100\n      jump\t// in\n    tag_99:\n      mload(0x40)\n      dup1\n      swap2\n      sub\n      swap1\n      revert\n    tag_98:\n        /* \"abstract/Ownable.sol\":2406:2434  _transferOwnership(newOwner) */\n      tag_101\n        /* \"abstract/Ownable.sol\":2425:2433  newOwner */\n      dup2\n        /* \"abstract/Ownable.sol\":2406:2424  _transferOwnership */\n      tag_102\n        /* \"abstract/Ownable.sol\":2406:2434  _transferOwnership(newOwner) */\n      jump\t// in\n    tag_101:\n        /* \"abstract/Ownable.sol\":2204:2442  function transferOwnership(address newOwner) public virtual onlyOwner {... */\n      pop\n      jump\t// out\n        /* \"abstract/Ownable.sol\":1454:1584  function _checkOwner() internal view virtual {... */\n    tag_58:\n        /* \"abstract/Ownable.sol\":1529:1539  msg.sender */\n      caller\n        /* \"abstract/Ownable.sol\":1518:1539  owner() == msg.sender */\n      0xffffffffffffffffffffffffffffffffffffffff\n      and\n        /* \"abstract/Ownable.sol\":1518:1525  owner() */\n      tag_104\n        /* \"abstract/Ownable.sol\":1518:1523  owner */\n      tag_27\n        /* \"abstract/Ownable.sol\":1518:1525  owner() */\n      jump\t// in\n    tag_104:\n        /* \"abstract/Ownable.sol\":1518:1539  owner() == msg.sender */\n      0xffffffffffffffffffffffffffffffffffffffff\n      and\n      eq\n        /* \"abstract/Ownable.sol\":1510:1576  require(owner() == msg.sender, \"Ownable: caller is not the owner\") */\n      tag_105\n      jumpi\n      mload(0x40)\n      0x08c379a000000000000000000000000000000000000000000000000000000000\n      dup2\n      mstore\n      0x04\n      add\n      tag_106\n      swap1\n      tag_107\n      jump\t// in\n    tag_106:\n      mload(0x40)\n      dup1\n      swap2\n      sub\n      swap1\n      revert\n    tag_105:\n        /* \"abstract/Ownable.sol\":1454:1584  function _checkOwner() internal view virtual {... */\n      jump\t// out\n        /* \"@openzeppelin/contracts/utils/Context.sol\":640:736  function _msgSender() internal view virtual returns (address) {... */\n    tag_70:\n        /* \"@openzeppelin/contracts/utils/Context.sol\":693:700  address */\n      0x00\n        /* \"@openzeppelin/contracts/utils/Context.sol\":719:729  msg.sender */\n      caller\n        /* \"@openzeppelin/contracts/utils/Context.sol\":712:729  return msg.sender */\n      swap1\n      pop\n        /* \"@openzeppelin/contracts/utils/Context.sol\":640:736  function _msgSender() internal view virtual returns (address) {... */\n      swap1\n      jump\t// out\n        /* \"abstract/Ownable.sol\":2602:2793  function _transferOwnership(address newOwner) internal virtual {... */\n    tag_102:\n        /* \"abstract/Ownable.sol\":2676:2692  address oldOwner */\n      0x00\n        /* \"abstract/Ownable.sol\":2695:2701  _owner */\n      dup1\n      0x00\n      swap1\n      sload\n      swap1\n      0x0100\n      exp\n      swap1\n      div\n      0xffffffffffffffffffffffffffffffffffffffff\n      and\n        /* \"abstract/Ownable.sol\":2676:2701  address oldOwner = _owner */\n      swap1\n      pop\n        /* \"abstract/Ownable.sol\":2721:2729  newOwner */\n      dup2\n        /* \"abstract/Ownable.sol\":2712:2718  _owner */\n      0x00\n      dup1\n        /* \"abstract/Ownable.sol\":2712:2729  _owner = newOwner */\n      0x0100\n      exp\n      dup2\n      sload\n      dup2\n      0xffffffffffffffffffffffffffffffffffffffff\n      mul\n      not\n      and\n      swap1\n      dup4\n      0xffffffffffffffffffffffffffffffffffffffff\n      and\n      mul\n      or\n      swap1\n      sstore\n      pop\n        /* \"abstract/Ownable.sol\":2776:2784  newOwner */\n      dup2\n        /* \"abstract/Ownable.sol\":2745:2785  OwnershipTransferred(oldOwner, newOwner) */\n      0xffffffffffffffffffffffffffffffffffffffff\n      and\n        /* \"abstract/Ownable.sol\":2766:2774  oldOwner */\n      dup2\n        /* \"abstract/Ownable.sol\":2745:2785  OwnershipTransferred(oldOwner, newOwner) */\n      0xffffffffffffffffffffffffffffffffffffffff\n      and\n      0x8be0079c531659141344cd1fd0a4f28419497f9722a3daafe3b4186f6b6457e0\n      mload(0x40)\n      mload(0x40)\n      dup1\n      swap2\n      sub\n      swap1\n      log3\n        /* \"abstract/Ownable.sol\":2665:2793  {... */\n      pop\n        /* \"abstract/Ownable.sol\":2602:2793  function _transferOwnership(address newOwner) internal virtual {... */\n      pop\n      jump\t// out\n    tag_80:\n      mload(0x40)\n      dup1\n      0xe0\n      add\n      0x40\n      mstore\n      dup1\n      0x00\n      dup2\n      mstore\n      0x20\n      add\n      0x60\n      dup2\n      mstore\n      0x20\n      add\n      0x60\n      dup2\n      mstore\n      0x20\n      add\n      0x60\n      dup2\n      mstore\n      0x20\n      add\n      and(0xffffffffffffffffffffffffffffffffffffffff, 0x00)\n      dup2\n      mstore\n      0x20\n      add\n      0x00\n      dup2\n      mstore\n      0x20\n      add\n      iszero(iszero(0x00))\n      dup2\n      mstore\n      pop\n      swap1\n      jump\t// out\n        /* \"#utility.yul\":7:97   */\n    tag_110:\n        /* \"#utility.yul\":41:48   */\n      0x00\n        /* \"#utility.yul\":84:89   */\n      dup2\n        /* \"#utility.yul\":77:90   */\n      iszero\n        /* \"#utility.yul\":70:91   */\n      iszero\n        /* \"#utility.yul\":59:91   */\n      swap1\n      pop\n        /* \"#utility.yul\":7:97   */\n      swap2\n      swap1\n      pop\n      jump\t// out\n        /* \"#utility.yul\":103:212   */\n    tag_111:\n        /* \"#utility.yul\":184:205   */\n      tag_177\n        /* \"#utility.yul\":199:204   */\n      dup2\n        /* \"#utility.yul\":184:205   */\n      tag_110\n      jump\t// in\n    tag_177:\n        /* \"#utility.yul\":179:182   */\n      dup3\n        /* \"#utility.yul\":172:206   */\n      mstore\n        /* \"#utility.yul\":103:212   */\n      pop\n      pop\n      jump\t// out\n        /* \"#utility.yul\":218:428   */\n    tag_15:\n        /* \"#utility.yul\":305:309   */\n      0x00\n        /* \"#utility.yul\":343:345   */\n      0x20\n        /* \"#utility.yul\":332:341   */\n      dup3\n        /* \"#utility.yul\":328:346   */\n      add\n        /* \"#utility.yul\":320:346   */\n      swap1\n      pop\n        /* \"#utility.yul\":356:421   */\n      tag_179\n        /* \"#utility.yul\":418:419   */\n      0x00\n        /* \"#utility.yul\":407:416   */\n      dup4\n        /* \"#utility.yul\":403:420   */\n      add\n        /* \"#utility.yul\":394:400   */\n      dup5\n        /* \"#utility.yul\":356:421   */\n      tag_111\n      jump\t// in\n    tag_179:\n        /* \"#utility.yul\":218:428   */\n      swap3\n      swap2\n      pop\n      pop\n      jump\t// out\n        /* \"#utility.yul\":434:569   */\n    tag_112:\n        /* \"#utility.yul\":522:528   */\n      0x00\n        /* \"#utility.yul\":556:561   */\n      dup2\n        /* \"#utility.yul\":550:562   */\n      mload\n        /* \"#utility.yul\":540:562   */\n      swap1\n      pop\n        /* \"#utility.yul\":434:569   */\n      swap2\n      swap1\n      pop\n      jump\t// out\n        /* \"#utility.yul\":575:780   */\n    tag_113:\n        /* \"#utility.yul\":695:706   */\n      0x00\n        /* \"#utility.yul\":729:735   */\n      dup3\n        /* \"#utility.yul\":724:727   */\n      dup3\n        /* \"#utility.yul\":717:736   */\n      mstore\n        /* \"#utility.yul\":769:773   */\n      0x20\n        /* \"#utility.yul\":764:767   */\n      dup3\n        /* \"#utility.yul\":760:774   */\n      add\n        /* \"#utility.yul\":745:774   */\n      swap1\n      pop\n        /* \"#utility.yul\":575:780   */\n      swap3\n      swap2\n      pop\n      pop\n      jump\t// out\n        /* \"#utility.yul\":786:939   */\n    tag_114:\n        /* \"#utility.yul\":874:878   */\n      0x00\n        /* \"#utility.yul\":897:900   */\n      dup2\n        /* \"#utility.yul\":889:900   */\n      swap1\n      pop\n        /* \"#utility.yul\":927:931   */\n      0x20\n        /* \"#utility.yul\":922:925   */\n      dup3\n        /* \"#utility.yul\":918:932   */\n      add\n        /* \"#utility.yul\":910:932   */\n      swap1\n      pop\n        /* \"#utility.yul\":786:939   */\n      swap2\n      swap1\n      pop\n      jump\t// out\n        /* \"#utility.yul\":945:1022   */\n    tag_115:\n        /* \"#utility.yul\":982:989   */\n      0x00\n        /* \"#utility.yul\":1011:1016   */\n      dup2\n        /* \"#utility.yul\":1000:1016   */\n      swap1\n      pop\n        /* \"#utility.yul\":945:1022   */\n      swap2\n      swap1\n      pop\n      jump\t// out\n        /* \"#utility.yul\":1028:1136   */\n    tag_116:\n        /* \"#utility.yul\":1105:1129   */\n      tag_185\n        /* \"#utility.yul\":1123:1128   */\n      dup2\n        /* \"#utility.yul\":1105:1129   */\n      tag_115\n      jump\t// in\n    tag_185:\n        /* \"#utility.yul\":1100:1103   */\n      dup3\n        /* \"#utility.yul\":1093:1130   */\n      mstore\n        /* \"#utility.yul\":1028:1136   */\n      pop\n      pop\n      jump\t// out\n        /* \"#utility.yul\":1142:1241   */\n    tag_117:\n        /* \"#utility.yul\":1194:1200   */\n      0x00\n        /* \"#utility.yul\":1228:1233   */\n      dup2\n        /* \"#utility.yul\":1222:1234   */\n      mload\n        /* \"#utility.yul\":1212:1234   */\n      swap1\n      pop\n        /* \"#utility.yul\":1142:1241   */\n      swap2\n      swap1\n      pop\n      jump\t// out\n        /* \"#utility.yul\":1247:1406   */\n    tag_118:\n        /* \"#utility.yul\":1321:1332   */\n      0x00\n        /* \"#utility.yul\":1355:1361   */\n      dup3\n        /* \"#utility.yul\":1350:1353   */\n      dup3\n        /* \"#utility.yul\":1343:1362   */\n      mstore\n        /* \"#utility.yul\":1395:1399   */\n      0x20\n        /* \"#utility.yul\":1390:1393   */\n      dup3\n        /* \"#utility.yul\":1386:1400   */\n      add\n        /* \"#utility.yul\":1371:1400   */\n      swap1\n      pop\n        /* \"#utility.yul\":1247:1406   */\n      swap3\n      swap2\n      pop\n      pop\n      jump\t// out\n        /* \"#utility.yul\":1412:1658   */\n    tag_119:\n        /* \"#utility.yul\":1493:1494   */\n      0x00\n        /* \"#utility.yul\":1503:1616   */\n    tag_189:\n        /* \"#utility.yul\":1517:1523   */\n      dup4\n        /* \"#utility.yul\":1514:1515   */\n      dup2\n        /* \"#utility.yul\":1511:1524   */\n      lt\n        /* \"#utility.yul\":1503:1616   */\n      iszero\n      tag_191\n      jumpi\n        /* \"#utility.yul\":1602:1603   */\n      dup1\n        /* \"#utility.yul\":1597:1600   */\n      dup3\n        /* \"#utility.yul\":1593:1604   */\n      add\n        /* \"#utility.yul\":1587:1605   */\n      mload\n        /* \"#utility.yul\":1583:1584   */\n      dup2\n        /* \"#utility.yul\":1578:1581   */\n      dup5\n        /* \"#utility.yul\":1574:1585   */\n      add\n        /* \"#utility.yul\":1567:1606   */\n      mstore\n        /* \"#utility.yul\":1539:1541   */\n      0x20\n        /* \"#utility.yul\":1536:1537   */\n      dup2\n        /* \"#utility.yul\":1532:1542   */\n      add\n        /* \"#utility.yul\":1527:1542   */\n      swap1\n      pop\n        /* \"#utility.yul\":1503:1616   */\n      jump(tag_189)\n    tag_191:\n        /* \"#utility.yul\":1650:1651   */\n      0x00\n        /* \"#utility.yul\":1641:1647   */\n      dup5\n        /* \"#utility.yul\":1636:1639   */\n      dup5\n        /* \"#utility.yul\":1632:1648   */\n      add\n        /* \"#utility.yul\":1625:1652   */\n      mstore\n        /* \"#utility.yul\":1474:1658   */\n      pop\n        /* \"#utility.yul\":1412:1658   */\n      pop\n      pop\n      pop\n      jump\t// out\n        /* \"#utility.yul\":1664:1766   */\n    tag_120:\n        /* \"#utility.yul\":1705:1711   */\n      0x00\n        /* \"#utility.yul\":1756:1758   */\n      0x1f\n        /* \"#utility.yul\":1752:1759   */\n      not\n        /* \"#utility.yul\":1747:1749   */\n      0x1f\n        /* \"#utility.yul\":1740:1745   */\n      dup4\n        /* \"#utility.yul\":1736:1750   */\n      add\n        /* \"#utility.yul\":1732:1760   */\n      and\n        /* \"#utility.yul\":1722:1760   */\n      swap1\n      pop\n        /* \"#utility.yul\":1664:1766   */\n      swap2\n      swap1\n      pop\n      jump\t// out\n        /* \"#utility.yul\":1772:2129   */\n    tag_121:\n        /* \"#utility.yul\":1850:1853   */\n      0x00\n        /* \"#utility.yul\":1878:1917   */\n      tag_194\n        /* \"#utility.yul\":1911:1916   */\n      dup3\n        /* \"#utility.yul\":1878:1917   */\n      tag_117\n      jump\t// in\n    tag_194:\n        /* \"#utility.yul\":1933:1994   */\n      tag_195\n        /* \"#utility.yul\":1987:1993   */\n      dup2\n        /* \"#utility.yul\":1982:1985   */\n      dup6\n        /* \"#utility.yul\":1933:1994   */\n      tag_118\n      jump\t// in\n    tag_195:\n        /* \"#utility.yul\":1926:1994   */\n      swap4\n      pop\n        /* \"#utility.yul\":2003:2068   */\n      tag_196\n        /* \"#utility.yul\":2061:2067   */\n      dup2\n        /* \"#utility.yul\":2056:2059   */\n      dup6\n        /* \"#utility.yul\":2049:2053   */\n      0x20\n        /* \"#utility.yul\":2042:2047   */\n      dup7\n        /* \"#utility.yul\":2038:2054   */\n      add\n        /* \"#utility.yul\":2003:2068   */\n      tag_119\n      jump\t// in\n    tag_196:\n        /* \"#utility.yul\":2093:2122   */\n      tag_197\n        /* \"#utility.yul\":2115:2121   */\n      dup2\n        /* \"#utility.yul\":2093:2122   */\n      tag_120\n      jump\t// in\n    tag_197:\n        /* \"#utility.yul\":2088:2091   */\n      dup5\n        /* \"#utility.yul\":2084:2123   */\n      add\n        /* \"#utility.yul\":2077:2123   */\n      swap2\n      pop\n        /* \"#utility.yul\":1854:2129   */\n      pop\n        /* \"#utility.yul\":1772:2129   */\n      swap3\n      swap2\n      pop\n      pop\n      jump\t// out\n        /* \"#utility.yul\":2135:2261   */\n    tag_122:\n        /* \"#utility.yul\":2172:2179   */\n      0x00\n        /* \"#utility.yul\":2212:2254   */\n      0xffffffffffffffffffffffffffffffffffffffff\n        /* \"#utility.yul\":2205:2210   */\n      dup3\n        /* \"#utility.yul\":2201:2255   */\n      and\n        /* \"#utility.yul\":2190:2255   */\n      swap1\n      pop\n        /* \"#utility.yul\":2135:2261   */\n      swap2\n      swap1\n      pop\n      jump\t// out\n        /* \"#utility.yul\":2267:2363   */\n    tag_123:\n        /* \"#utility.yul\":2304:2311   */\n      0x00\n        /* \"#utility.yul\":2333:2357   */\n      tag_200\n        /* \"#utility.yul\":2351:2356   */\n      dup3\n        /* \"#utility.yul\":2333:2357   */\n      tag_122\n      jump\t// in\n    tag_200:\n        /* \"#utility.yul\":2322:2357   */\n      swap1\n      pop\n        /* \"#utility.yul\":2267:2363   */\n      swap2\n      swap1\n      pop\n      jump\t// out\n        /* \"#utility.yul\":2369:2477   */\n    tag_124:\n        /* \"#utility.yul\":2446:2470   */\n      tag_202\n        /* \"#utility.yul\":2464:2469   */\n      dup2\n        /* \"#utility.yul\":2446:2470   */\n      tag_123\n      jump\t// in\n    tag_202:\n        /* \"#utility.yul\":2441:2444   */\n      dup3\n        /* \"#utility.yul\":2434:2471   */\n      mstore\n        /* \"#utility.yul\":2369:2477   */\n      pop\n      pop\n      jump\t// out\n        /* \"#utility.yul\":2483:2582   */\n    tag_125:\n        /* \"#utility.yul\":2554:2575   */\n      tag_204\n        /* \"#utility.yul\":2569:2574   */\n      dup2\n        /* \"#utility.yul\":2554:2575   */\n      tag_110\n      jump\t// in\n    tag_204:\n        /* \"#utility.yul\":2549:2552   */\n      dup3\n        /* \"#utility.yul\":2542:2576   */\n      mstore\n        /* \"#utility.yul\":2483:2582   */\n      pop\n      pop\n      jump\t// out\n        /* \"#utility.yul\":2622:4255   */\n    tag_126:\n        /* \"#utility.yul\":2723:2726   */\n      0x00\n        /* \"#utility.yul\":2759:2763   */\n      0xe0\n        /* \"#utility.yul\":2754:2757   */\n      dup4\n        /* \"#utility.yul\":2750:2764   */\n      add\n        /* \"#utility.yul\":2848:2852   */\n      0x00\n        /* \"#utility.yul\":2841:2846   */\n      dup4\n        /* \"#utility.yul\":2837:2853   */\n      add\n        /* \"#utility.yul\":2831:2854   */\n      mload\n        /* \"#utility.yul\":2867:2930   */\n      tag_206\n        /* \"#utility.yul\":2924:2928   */\n      0x00\n        /* \"#utility.yul\":2919:2922   */\n      dup7\n        /* \"#utility.yul\":2915:2929   */\n      add\n        /* \"#utility.yul\":2901:2913   */\n      dup3\n        /* \"#utility.yul\":2867:2930   */\n      tag_116\n      jump\t// in\n    tag_206:\n        /* \"#utility.yul\":2774:2940   */\n      pop\n        /* \"#utility.yul\":3026:3030   */\n      0x20\n        /* \"#utility.yul\":3019:3024   */\n      dup4\n        /* \"#utility.yul\":3015:3031   */\n      add\n        /* \"#utility.yul\":3009:3032   */\n      mload\n        /* \"#utility.yul\":3079:3082   */\n      dup5\n        /* \"#utility.yul\":3073:3077   */\n      dup3\n        /* \"#utility.yul\":3069:3083   */\n      sub\n        /* \"#utility.yul\":3062:3066   */\n      0x20\n        /* \"#utility.yul\":3057:3060   */\n      dup7\n        /* \"#utility.yul\":3053:3067   */\n      add\n        /* \"#utility.yul\":3046:3084   */\n      mstore\n        /* \"#utility.yul\":3105:3178   */\n      tag_207\n        /* \"#utility.yul\":3173:3177   */\n      dup3\n        /* \"#utility.yul\":3159:3171   */\n      dup3\n        /* \"#utility.yul\":3105:3178   */\n      tag_121\n      jump\t// in\n    tag_207:\n        /* \"#utility.yul\":3097:3178   */\n      swap2\n      pop\n        /* \"#utility.yul\":2950:3189   */\n      pop\n        /* \"#utility.yul\":3275:3279   */\n      0x40\n        /* \"#utility.yul\":3268:3273   */\n      dup4\n        /* \"#utility.yul\":3264:3280   */\n      add\n        /* \"#utility.yul\":3258:3281   */\n      mload\n        /* \"#utility.yul\":3328:3331   */\n      dup5\n        /* \"#utility.yul\":3322:3326   */\n      dup3\n        /* \"#utility.yul\":3318:3332   */\n      sub\n        /* \"#utility.yul\":3311:3315   */\n      0x40\n        /* \"#utility.yul\":3306:3309   */\n      dup7\n        /* \"#utility.yul\":3302:3316   */\n      add\n        /* \"#utility.yul\":3295:3333   */\n      mstore\n        /* \"#utility.yul\":3354:3427   */\n      tag_208\n        /* \"#utility.yul\":3422:3426   */\n      dup3\n        /* \"#utility.yul\":3408:3420   */\n      dup3\n        /* \"#utility.yul\":3354:3427   */\n      tag_121\n      jump\t// in\n    tag_208:\n        /* \"#utility.yul\":3346:3427   */\n      swap2\n      pop\n        /* \"#utility.yul\":3199:3438   */\n      pop\n        /* \"#utility.yul\":3525:3529   */\n      0x60\n        /* \"#utility.yul\":3518:3523   */\n      dup4\n        /* \"#utility.yul\":3514:3530   */\n      add\n        /* \"#utility.yul\":3508:3531   */\n      mload\n        /* \"#utility.yul\":3578:3581   */\n      dup5\n        /* \"#utility.yul\":3572:3576   */\n      dup3\n        /* \"#utility.yul\":3568:3582   */\n      sub\n        /* \"#utility.yul\":3561:3565   */\n      0x60\n        /* \"#utility.yul\":3556:3559   */\n      dup7\n        /* \"#utility.yul\":3552:3566   */\n      add\n        /* \"#utility.yul\":3545:3583   */\n      mstore\n        /* \"#utility.yul\":3604:3677   */\n      tag_209\n        /* \"#utility.yul\":3672:3676   */\n      dup3\n        /* \"#utility.yul\":3658:3670   */\n      dup3\n        /* \"#utility.yul\":3604:3677   */\n      tag_121\n      jump\t// in\n    tag_209:\n        /* \"#utility.yul\":3596:3677   */\n      swap2\n      pop\n        /* \"#utility.yul\":3448:3688   */\n      pop\n        /* \"#utility.yul\":3777:3781   */\n      0x80\n        /* \"#utility.yul\":3770:3775   */\n      dup4\n        /* \"#utility.yul\":3766:3782   */\n      add\n        /* \"#utility.yul\":3760:3783   */\n      mload\n        /* \"#utility.yul\":3796:3859   */\n      tag_210\n        /* \"#utility.yul\":3853:3857   */\n      0x80\n        /* \"#utility.yul\":3848:3851   */\n      dup7\n        /* \"#utility.yul\":3844:3858   */\n      add\n        /* \"#utility.yul\":3830:3842   */\n      dup3\n        /* \"#utility.yul\":3796:3859   */\n      tag_124\n      jump\t// in\n    tag_210:\n        /* \"#utility.yul\":3698:3869   */\n      pop\n        /* \"#utility.yul\":3959:3963   */\n      0xa0\n        /* \"#utility.yul\":3952:3957   */\n      dup4\n        /* \"#utility.yul\":3948:3964   */\n      add\n        /* \"#utility.yul\":3942:3965   */\n      mload\n        /* \"#utility.yul\":3978:4041   */\n      tag_211\n        /* \"#utility.yul\":4035:4039   */\n      0xa0\n        /* \"#utility.yul\":4030:4033   */\n      dup7\n        /* \"#utility.yul\":4026:4040   */\n      add\n        /* \"#utility.yul\":4012:4024   */\n      dup3\n        /* \"#utility.yul\":3978:4041   */\n      tag_116\n      jump\t// in\n    tag_211:\n        /* \"#utility.yul\":3879:4051   */\n      pop\n        /* \"#utility.yul\":4142:4146   */\n      0xc0\n        /* \"#utility.yul\":4135:4140   */\n      dup4\n        /* \"#utility.yul\":4131:4147   */\n      add\n        /* \"#utility.yul\":4125:4148   */\n      mload\n        /* \"#utility.yul\":4161:4218   */\n      tag_212\n        /* \"#utility.yul\":4212:4216   */\n      0xc0\n        /* \"#utility.yul\":4207:4210   */\n      dup7\n        /* \"#utility.yul\":4203:4217   */\n      add\n        /* \"#utility.yul\":4189:4201   */\n      dup3\n        /* \"#utility.yul\":4161:4218   */\n      tag_125\n      jump\t// in\n    tag_212:\n        /* \"#utility.yul\":4061:4228   */\n      pop\n        /* \"#utility.yul\":4245:4249   */\n      dup1\n        /* \"#utility.yul\":4238:4249   */\n      swap2\n      pop\n        /* \"#utility.yul\":2728:4255   */\n      pop\n        /* \"#utility.yul\":2622:4255   */\n      swap3\n      swap2\n      pop\n      pop\n      jump\t// out\n        /* \"#utility.yul\":4261:4501   */\n    tag_127:\n        /* \"#utility.yul\":4372:4382   */\n      0x00\n        /* \"#utility.yul\":4407:4495   */\n      tag_214\n        /* \"#utility.yul\":4491:4494   */\n      dup4\n        /* \"#utility.yul\":4483:4489   */\n      dup4\n        /* \"#utility.yul\":4407:4495   */\n      tag_126\n      jump\t// in\n    tag_214:\n        /* \"#utility.yul\":4393:4495   */\n      swap1\n      pop\n        /* \"#utility.yul\":4261:4501   */\n      swap3\n      swap2\n      pop\n      pop\n      jump\t// out\n        /* \"#utility.yul\":4507:4641   */\n    tag_128:\n        /* \"#utility.yul\":4598:4602   */\n      0x00\n        /* \"#utility.yul\":4630:4634   */\n      0x20\n        /* \"#utility.yul\":4625:4628   */\n      dup3\n        /* \"#utility.yul\":4621:4635   */\n      add\n        /* \"#utility.yul\":4613:4635   */\n      swap1\n      pop\n        /* \"#utility.yul\":4507:4641   */\n      swap2\n      swap1\n      pop\n      jump\t// out\n        /* \"#utility.yul\":4685:5764   */\n    tag_129:\n        /* \"#utility.yul\":4846:4849   */\n      0x00\n        /* \"#utility.yul\":4875:4950   */\n      tag_217\n        /* \"#utility.yul\":4944:4949   */\n      dup3\n        /* \"#utility.yul\":4875:4950   */\n      tag_112\n      jump\t// in\n    tag_217:\n        /* \"#utility.yul\":4966:5073   */\n      tag_218\n        /* \"#utility.yul\":5066:5072   */\n      dup2\n        /* \"#utility.yul\":5061:5064   */\n      dup6\n        /* \"#utility.yul\":4966:5073   */\n      tag_113\n      jump\t// in\n    tag_218:\n        /* \"#utility.yul\":4959:5073   */\n      swap4\n      pop\n        /* \"#utility.yul\":5099:5102   */\n      dup4\n        /* \"#utility.yul\":5144:5148   */\n      0x20\n        /* \"#utility.yul\":5136:5142   */\n      dup3\n        /* \"#utility.yul\":5132:5149   */\n      mul\n        /* \"#utility.yul\":5127:5130   */\n      dup6\n        /* \"#utility.yul\":5123:5150   */\n      add\n        /* \"#utility.yul\":5174:5251   */\n      tag_219\n        /* \"#utility.yul\":5245:5250   */\n      dup6\n        /* \"#utility.yul\":5174:5251   */\n      tag_114\n      jump\t// in\n    tag_219:\n        /* \"#utility.yul\":5274:5281   */\n      dup1\n        /* \"#utility.yul\":5305:5306   */\n      0x00\n        /* \"#utility.yul\":5290:5719   */\n    tag_220:\n        /* \"#utility.yul\":5315:5321   */\n      dup6\n        /* \"#utility.yul\":5312:5313   */\n      dup2\n        /* \"#utility.yul\":5309:5322   */\n      lt\n        /* \"#utility.yul\":5290:5719   */\n      iszero\n      tag_222\n      jumpi\n        /* \"#utility.yul\":5386:5395   */\n      dup5\n        /* \"#utility.yul\":5380:5384   */\n      dup5\n        /* \"#utility.yul\":5376:5396   */\n      sub\n        /* \"#utility.yul\":5371:5374   */\n      dup10\n        /* \"#utility.yul\":5364:5397   */\n      mstore\n        /* \"#utility.yul\":5437:5443   */\n      dup2\n        /* \"#utility.yul\":5431:5444   */\n      mload\n        /* \"#utility.yul\":5465:5571   */\n      tag_223\n        /* \"#utility.yul\":5566:5570   */\n      dup6\n        /* \"#utility.yul\":5551:5564   */\n      dup3\n        /* \"#utility.yul\":5465:5571   */\n      tag_127\n      jump\t// in\n    tag_223:\n        /* \"#utility.yul\":5457:5571   */\n      swap5\n      pop\n        /* \"#utility.yul\":5594:5675   */\n      tag_224\n        /* \"#utility.yul\":5668:5674   */\n      dup4\n        /* \"#utility.yul\":5594:5675   */\n      tag_128\n      jump\t// in\n    tag_224:\n        /* \"#utility.yul\":5584:5675   */\n      swap3\n      pop\n        /* \"#utility.yul\":5704:5708   */\n      0x20\n        /* \"#utility.yul\":5699:5702   */\n      dup11\n        /* \"#utility.yul\":5695:5709   */\n      add\n        /* \"#utility.yul\":5688:5709   */\n      swap10\n      pop\n        /* \"#utility.yul\":5350:5719   */\n      pop\n        /* \"#utility.yul\":5337:5338   */\n      0x01\n        /* \"#utility.yul\":5334:5335   */\n      dup2\n        /* \"#utility.yul\":5330:5339   */\n      add\n        /* \"#utility.yul\":5325:5339   */\n      swap1\n      pop\n        /* \"#utility.yul\":5290:5719   */\n      jump(tag_220)\n    tag_222:\n        /* \"#utility.yul\":5294:5308   */\n      pop\n        /* \"#utility.yul\":5735:5739   */\n      dup3\n        /* \"#utility.yul\":5728:5739   */\n      swap8\n      pop\n        /* \"#utility.yul\":5755:5758   */\n      dup8\n        /* \"#utility.yul\":5748:5758   */\n      swap6\n      pop\n        /* \"#utility.yul\":4851:5764   */\n      pop\n      pop\n      pop\n      pop\n      pop\n        /* \"#utility.yul\":4685:5764   */\n      swap3\n      swap2\n      pop\n      pop\n      jump\t// out\n        /* \"#utility.yul\":5770:6227   */\n    tag_19:\n        /* \"#utility.yul\":5955:5959   */\n      0x00\n        /* \"#utility.yul\":5993:5995   */\n      0x20\n        /* \"#utility.yul\":5982:5991   */\n      dup3\n        /* \"#utility.yul\":5978:5996   */\n      add\n        /* \"#utility.yul\":5970:5996   */\n      swap1\n      pop\n        /* \"#utility.yul\":6042:6051   */\n      dup2\n        /* \"#utility.yul\":6036:6040   */\n      dup2\n        /* \"#utility.yul\":6032:6052   */\n      sub\n        /* \"#utility.yul\":6028:6029   */\n      0x00\n        /* \"#utility.yul\":6017:6026   */\n      dup4\n        /* \"#utility.yul\":6013:6030   */\n      add\n        /* \"#utility.yul\":6006:6053   */\n      mstore\n        /* \"#utility.yul\":6070:6220   */\n      tag_226\n        /* \"#utility.yul\":6215:6219   */\n      dup2\n        /* \"#utility.yul\":6206:6212   */\n      dup5\n        /* \"#utility.yul\":6070:6220   */\n      tag_129\n      jump\t// in\n    tag_226:\n        /* \"#utility.yul\":6062:6220   */\n      swap1\n      pop\n        /* \"#utility.yul\":5770:6227   */\n      swap3\n      swap2\n      pop\n      pop\n      jump\t// out\n        /* \"#utility.yul\":6233:6308   */\n    tag_130:\n        /* \"#utility.yul\":6266:6272   */\n      0x00\n        /* \"#utility.yul\":6299:6301   */\n      0x40\n        /* \"#utility.yul\":6293:6302   */\n      mload\n        /* \"#utility.yul\":6283:6302   */\n      swap1\n      pop\n        /* \"#utility.yul\":6233:6308   */\n      swap1\n      jump\t// out\n        /* \"#utility.yul\":6314:6431   */\n    tag_131:\n        /* \"#utility.yul\":6423:6424   */\n      0x00\n        /* \"#utility.yul\":6420:6421   */\n      dup1\n        /* \"#utility.yul\":6413:6425   */\n      revert\n        /* \"#utility.yul\":6437:6554   */\n    tag_132:\n        /* \"#utility.yul\":6546:6547   */\n      0x00\n        /* \"#utility.yul\":6543:6544   */\n      dup1\n        /* \"#utility.yul\":6536:6548   */\n      revert\n        /* \"#utility.yul\":6560:6677   */\n    tag_133:\n        /* \"#utility.yul\":6669:6670   */\n      0x00\n        /* \"#utility.yul\":6666:6667   */\n      dup1\n        /* \"#utility.yul\":6659:6671   */\n      revert\n        /* \"#utility.yul\":6683:6800   */\n    tag_134:\n        /* \"#utility.yul\":6792:6793   */\n      0x00\n        /* \"#utility.yul\":6789:6790   */\n      dup1\n        /* \"#utility.yul\":6782:6794   */\n      revert\n        /* \"#utility.yul\":6806:6986   */\n    tag_135:\n        /* \"#utility.yul\":6854:6931   */\n      0x4e487b7100000000000000000000000000000000000000000000000000000000\n        /* \"#utility.yul\":6851:6852   */\n      0x00\n        /* \"#utility.yul\":6844:6932   */\n      mstore\n        /* \"#utility.yul\":6951:6955   */\n      0x41\n        /* \"#utility.yul\":6948:6949   */\n      0x04\n        /* \"#utility.yul\":6941:6956   */\n      mstore\n        /* \"#utility.yul\":6975:6979   */\n      0x24\n        /* \"#utility.yul\":6972:6973   */\n      0x00\n        /* \"#utility.yul\":6965:6980   */\n      revert\n        /* \"#utility.yul\":6992:7273   */\n    tag_136:\n        /* \"#utility.yul\":7075:7102   */\n      tag_234\n        /* \"#utility.yul\":7097:7101   */\n      dup3\n        /* \"#utility.yul\":7075:7102   */\n      tag_120\n      jump\t// in\n    tag_234:\n        /* \"#utility.yul\":7067:7073   */\n      dup2\n        /* \"#utility.yul\":7063:7103   */\n      add\n        /* \"#utility.yul\":7205:7211   */\n      dup2\n        /* \"#utility.yul\":7193:7203   */\n      dup2\n        /* \"#utility.yul\":7190:7212   */\n      lt\n        /* \"#utility.yul\":7169:7187   */\n      0xffffffffffffffff\n        /* \"#utility.yul\":7157:7167   */\n      dup3\n        /* \"#utility.yul\":7154:7188   */\n      gt\n        /* \"#utility.yul\":7151:7213   */\n      or\n        /* \"#utility.yul\":7148:7236   */\n      iszero\n      tag_235\n      jumpi\n        /* \"#utility.yul\":7216:7234   */\n      tag_236\n      tag_135\n      jump\t// in\n    tag_236:\n        /* \"#utility.yul\":7148:7236   */\n    tag_235:\n        /* \"#utility.yul\":7256:7266   */\n      dup1\n        /* \"#utility.yul\":7252:7254   */\n      0x40\n        /* \"#utility.yul\":7245:7267   */\n      mstore\n        /* \"#utility.yul\":7035:7273   */\n      pop\n        /* \"#utility.yul\":6992:7273   */\n      pop\n      pop\n      jump\t// out\n        /* \"#utility.yul\":7279:7408   */\n    tag_137:\n        /* \"#utility.yul\":7313:7319   */\n      0x00\n        /* \"#utility.yul\":7340:7360   */\n      tag_238\n      tag_130\n      jump\t// in\n    tag_238:\n        /* \"#utility.yul\":7330:7360   */\n      swap1\n      pop\n        /* \"#utility.yul\":7369:7402   */\n      tag_239\n        /* \"#utility.yul\":7397:7401   */\n      dup3\n        /* \"#utility.yul\":7389:7395   */\n      dup3\n        /* \"#utility.yul\":7369:7402   */\n      tag_136\n      jump\t// in\n    tag_239:\n        /* \"#utility.yul\":7279:7408   */\n      swap2\n      swap1\n      pop\n      jump\t// out\n        /* \"#utility.yul\":7414:7722   */\n    tag_138:\n        /* \"#utility.yul\":7476:7480   */\n      0x00\n        /* \"#utility.yul\":7566:7584   */\n      0xffffffffffffffff\n        /* \"#utility.yul\":7558:7564   */\n      dup3\n        /* \"#utility.yul\":7555:7585   */\n      gt\n        /* \"#utility.yul\":7552:7608   */\n      iszero\n      tag_241\n      jumpi\n        /* \"#utility.yul\":7588:7606   */\n      tag_242\n      tag_135\n      jump\t// in\n    tag_242:\n        /* \"#utility.yul\":7552:7608   */\n    tag_241:\n        /* \"#utility.yul\":7626:7655   */\n      tag_243\n        /* \"#utility.yul\":7648:7654   */\n      dup3\n        /* \"#utility.yul\":7626:7655   */\n      tag_120\n      jump\t// in\n    tag_243:\n        /* \"#utility.yul\":7618:7655   */\n      swap1\n      pop\n        /* \"#utility.yul\":7710:7714   */\n      0x20\n        /* \"#utility.yul\":7704:7708   */\n      dup2\n        /* \"#utility.yul\":7700:7715   */\n      add\n        /* \"#utility.yul\":7692:7715   */\n      swap1\n      pop\n        /* \"#utility.yul\":7414:7722   */\n      swap2\n      swap1\n      pop\n      jump\t// out\n        /* \"#utility.yul\":7728:7874   */\n    tag_139:\n        /* \"#utility.yul\":7825:7831   */\n      dup3\n        /* \"#utility.yul\":7820:7823   */\n      dup2\n        /* \"#utility.yul\":7815:7818   */\n      dup4\n        /* \"#utility.yul\":7802:7832   */\n      calldatacopy\n        /* \"#utility.yul\":7866:7867   */\n      0x00\n        /* \"#utility.yul\":7857:7863   */\n      dup4\n        /* \"#utility.yul\":7852:7855   */\n      dup4\n        /* \"#utility.yul\":7848:7864   */\n      add\n        /* \"#utility.yul\":7841:7868   */\n      mstore\n        /* \"#utility.yul\":7728:7874   */\n      pop\n      pop\n      pop\n      jump\t// out\n        /* \"#utility.yul\":7880:8305   */\n    tag_140:\n        /* \"#utility.yul\":7958:7963   */\n      0x00\n        /* \"#utility.yul\":7983:8049   */\n      tag_246\n        /* \"#utility.yul\":7999:8048   */\n      tag_247\n        /* \"#utility.yul\":8041:8047   */\n      dup5\n        /* \"#utility.yul\":7999:8048   */\n      tag_138\n      jump\t// in\n    tag_247:\n        /* \"#utility.yul\":7983:8049   */\n      tag_137\n      jump\t// in\n    tag_246:\n        /* \"#utility.yul\":7974:8049   */\n      swap1\n      pop\n        /* \"#utility.yul\":8072:8078   */\n      dup3\n        /* \"#utility.yul\":8065:8070   */\n      dup2\n        /* \"#utility.yul\":8058:8079   */\n      mstore\n        /* \"#utility.yul\":8110:8114   */\n      0x20\n        /* \"#utility.yul\":8103:8108   */\n      dup2\n        /* \"#utility.yul\":8099:8115   */\n      add\n        /* \"#utility.yul\":8148:8151   */\n      dup5\n        /* \"#utility.yul\":8139:8145   */\n      dup5\n        /* \"#utility.yul\":8134:8137   */\n      dup5\n        /* \"#utility.yul\":8130:8146   */\n      add\n        /* \"#utility.yul\":8127:8152   */\n      gt\n        /* \"#utility.yul\":8124:8236   */\n      iszero\n      tag_248\n      jumpi\n        /* \"#utility.yul\":8155:8234   */\n      tag_249\n      tag_134\n      jump\t// in\n    tag_249:\n        /* \"#utility.yul\":8124:8236   */\n    tag_248:\n        /* \"#utility.yul\":8245:8299   */\n      tag_250\n        /* \"#utility.yul\":8292:8298   */\n      dup5\n        /* \"#utility.yul\":8287:8290   */\n      dup3\n        /* \"#utility.yul\":8282:8285   */\n      dup6\n        /* \"#utility.yul\":8245:8299   */\n      tag_139\n      jump\t// in\n    tag_250:\n        /* \"#utility.yul\":7964:8305   */\n      pop\n        /* \"#utility.yul\":7880:8305   */\n      swap4\n      swap3\n      pop\n      pop\n      pop\n      jump\t// out\n        /* \"#utility.yul\":8325:8665   */\n    tag_141:\n        /* \"#utility.yul\":8381:8386   */\n      0x00\n        /* \"#utility.yul\":8430:8433   */\n      dup3\n        /* \"#utility.yul\":8423:8427   */\n      0x1f\n        /* \"#utility.yul\":8415:8421   */\n      dup4\n        /* \"#utility.yul\":8411:8428   */\n      add\n        /* \"#utility.yul\":8407:8434   */\n      slt\n        /* \"#utility.yul\":8397:8519   */\n      tag_252\n      jumpi\n        /* \"#utility.yul\":8438:8517   */\n      tag_253\n      tag_133\n      jump\t// in\n    tag_253:\n        /* \"#utility.yul\":8397:8519   */\n    tag_252:\n        /* \"#utility.yul\":8555:8561   */\n      dup2\n        /* \"#utility.yul\":8542:8562   */\n      calldataload\n        /* \"#utility.yul\":8580:8659   */\n      tag_254\n        /* \"#utility.yul\":8655:8658   */\n      dup5\n        /* \"#utility.yul\":8647:8653   */\n      dup3\n        /* \"#utility.yul\":8640:8644   */\n      0x20\n        /* \"#utility.yul\":8632:8638   */\n      dup7\n        /* \"#utility.yul\":8628:8645   */\n      add\n        /* \"#utility.yul\":8580:8659   */\n      tag_140\n      jump\t// in\n    tag_254:\n        /* \"#utility.yul\":8571:8659   */\n      swap2\n      pop\n        /* \"#utility.yul\":8387:8665   */\n      pop\n        /* \"#utility.yul\":8325:8665   */\n      swap3\n      swap2\n      pop\n      pop\n      jump\t// out\n        /* \"#utility.yul\":8671:8793   */\n    tag_142:\n        /* \"#utility.yul\":8744:8768   */\n      tag_256\n        /* \"#utility.yul\":8762:8767   */\n      dup2\n        /* \"#utility.yul\":8744:8768   */\n      tag_115\n      jump\t// in\n    tag_256:\n        /* \"#utility.yul\":8737:8742   */\n      dup2\n        /* \"#utility.yul\":8734:8769   */\n      eq\n        /* \"#utility.yul\":8724:8787   */\n      tag_257\n      jumpi\n        /* \"#utility.yul\":8783:8784   */\n      0x00\n        /* \"#utility.yul\":8780:8781   */\n      dup1\n        /* \"#utility.yul\":8773:8785   */\n      revert\n        /* \"#utility.yul\":8724:8787   */\n    tag_257:\n        /* \"#utility.yul\":8671:8793   */\n      pop\n      jump\t// out\n        /* \"#utility.yul\":8799:8938   */\n    tag_143:\n        /* \"#utility.yul\":8845:8850   */\n      0x00\n        /* \"#utility.yul\":8883:8889   */\n      dup2\n        /* \"#utility.yul\":8870:8890   */\n      calldataload\n        /* \"#utility.yul\":8861:8890   */\n      swap1\n      pop\n        /* \"#utility.yul\":8899:8932   */\n      tag_259\n        /* \"#utility.yul\":8926:8931   */\n      dup2\n        /* \"#utility.yul\":8899:8932   */\n      tag_142\n      jump\t// in\n    tag_259:\n        /* \"#utility.yul\":8799:8938   */\n      swap3\n      swap2\n      pop\n      pop\n      jump\t// out\n        /* \"#utility.yul\":8944:10249   */\n    tag_22:\n        /* \"#utility.yul\":9060:9066   */\n      0x00\n        /* \"#utility.yul\":9068:9074   */\n      dup1\n        /* \"#utility.yul\":9076:9082   */\n      0x00\n        /* \"#utility.yul\":9084:9090   */\n      dup1\n        /* \"#utility.yul\":9133:9136   */\n      0x80\n        /* \"#utility.yul\":9121:9130   */\n      dup6\n        /* \"#utility.yul\":9112:9119   */\n      dup8\n        /* \"#utility.yul\":9108:9131   */\n      sub\n        /* \"#utility.yul\":9104:9137   */\n      slt\n        /* \"#utility.yul\":9101:9221   */\n      iszero\n      tag_261\n      jumpi\n        /* \"#utility.yul\":9140:9219   */\n      tag_262\n      tag_131\n      jump\t// in\n    tag_262:\n        /* \"#utility.yul\":9101:9221   */\n    tag_261:\n        /* \"#utility.yul\":9288:9289   */\n      0x00\n        /* \"#utility.yul\":9277:9286   */\n      dup6\n        /* \"#utility.yul\":9273:9290   */\n      add\n        /* \"#utility.yul\":9260:9291   */\n      calldataload\n        /* \"#utility.yul\":9318:9336   */\n      0xffffffffffffffff\n        /* \"#utility.yul\":9310:9316   */\n      dup2\n        /* \"#utility.yul\":9307:9337   */\n      gt\n        /* \"#utility.yul\":9304:9421   */\n      iszero\n      tag_263\n      jumpi\n        /* \"#utility.yul\":9340:9419   */\n      tag_264\n      tag_132\n      jump\t// in\n    tag_264:\n        /* \"#utility.yul\":9304:9421   */\n    tag_263:\n        /* \"#utility.yul\":9445:9508   */\n      tag_265\n        /* \"#utility.yul\":9500:9507   */\n      dup8\n        /* \"#utility.yul\":9491:9497   */\n      dup3\n        /* \"#utility.yul\":9480:9489   */\n      dup9\n        /* \"#utility.yul\":9476:9498   */\n      add\n        /* \"#utility.yul\":9445:9508   */\n      tag_141\n      jump\t// in\n    tag_265:\n        /* \"#utility.yul\":9435:9508   */\n      swap5\n      pop\n        /* \"#utility.yul\":9231:9518   */\n      pop\n        /* \"#utility.yul\":9585:9587   */\n      0x20\n        /* \"#utility.yul\":9574:9583   */\n      dup6\n        /* \"#utility.yul\":9570:9588   */\n      add\n        /* \"#utility.yul\":9557:9589   */\n      calldataload\n        /* \"#utility.yul\":9616:9634   */\n      0xffffffffffffffff\n        /* \"#utility.yul\":9608:9614   */\n      dup2\n        /* \"#utility.yul\":9605:9635   */\n      gt\n        /* \"#utility.yul\":9602:9719   */\n      iszero\n      tag_266\n      jumpi\n        /* \"#utility.yul\":9638:9717   */\n      tag_267\n      tag_132\n      jump\t// in\n    tag_267:\n        /* \"#utility.yul\":9602:9719   */\n    tag_266:\n        /* \"#utility.yul\":9743:9806   */\n      tag_268\n        /* \"#utility.yul\":9798:9805   */\n      dup8\n        /* \"#utility.yul\":9789:9795   */\n      dup3\n        /* \"#utility.yul\":9778:9787   */\n      dup9\n        /* \"#utility.yul\":9774:9796   */\n      add\n        /* \"#utility.yul\":9743:9806   */\n      tag_141\n      jump\t// in\n    tag_268:\n        /* \"#utility.yul\":9733:9806   */\n      swap4\n      pop\n        /* \"#utility.yul\":9528:9816   */\n      pop\n        /* \"#utility.yul\":9883:9885   */\n      0x40\n        /* \"#utility.yul\":9872:9881   */\n      dup6\n        /* \"#utility.yul\":9868:9886   */\n      add\n        /* \"#utility.yul\":9855:9887   */\n      calldataload\n        /* \"#utility.yul\":9914:9932   */\n      0xffffffffffffffff\n        /* \"#utility.yul\":9906:9912   */\n      dup2\n        /* \"#utility.yul\":9903:9933   */\n      gt\n        /* \"#utility.yul\":9900:10017   */\n      iszero\n      tag_269\n      jumpi\n        /* \"#utility.yul\":9936:10015   */\n      tag_270\n      tag_132\n      jump\t// in\n    tag_270:\n        /* \"#utility.yul\":9900:10017   */\n    tag_269:\n        /* \"#utility.yul\":10041:10104   */\n      tag_271\n        /* \"#utility.yul\":10096:10103   */\n      dup8\n        /* \"#utility.yul\":10087:10093   */\n      dup3\n        /* \"#utility.yul\":10076:10085   */\n      dup9\n        /* \"#utility.yul\":10072:10094   */\n      add\n        /* \"#utility.yul\":10041:10104   */\n      tag_141\n      jump\t// in\n    tag_271:\n        /* \"#utility.yul\":10031:10104   */\n      swap3\n      pop\n        /* \"#utility.yul\":9826:10114   */\n      pop\n        /* \"#utility.yul\":10153:10155   */\n      0x60\n        /* \"#utility.yul\":10179:10232   */\n      tag_272\n        /* \"#utility.yul\":10224:10231   */\n      dup8\n        /* \"#utility.yul\":10215:10221   */\n      dup3\n        /* \"#utility.yul\":10204:10213   */\n      dup9\n        /* \"#utility.yul\":10200:10222   */\n      add\n        /* \"#utility.yul\":10179:10232   */\n      tag_143\n      jump\t// in\n    tag_272:\n        /* \"#utility.yul\":10169:10232   */\n      swap2\n      pop\n        /* \"#utility.yul\":10124:10242   */\n      pop\n        /* \"#utility.yul\":8944:10249   */\n      swap3\n      swap6\n      swap2\n      swap5\n      pop\n      swap3\n      pop\n      jump\t// out\n        /* \"#utility.yul\":10255:10373   */\n    tag_144:\n        /* \"#utility.yul\":10342:10366   */\n      tag_274\n        /* \"#utility.yul\":10360:10365   */\n      dup2\n        /* \"#utility.yul\":10342:10366   */\n      tag_123\n      jump\t// in\n    tag_274:\n        /* \"#utility.yul\":10337:10340   */\n      dup3\n        /* \"#utility.yul\":10330:10367   */\n      mstore\n        /* \"#utility.yul\":10255:10373   */\n      pop\n      pop\n      jump\t// out\n        /* \"#utility.yul\":10379:10601   */\n    tag_29:\n        /* \"#utility.yul\":10472:10476   */\n      0x00\n        /* \"#utility.yul\":10510:10512   */\n      0x20\n        /* \"#utility.yul\":10499:10508   */\n      dup3\n        /* \"#utility.yul\":10495:10513   */\n      add\n        /* \"#utility.yul\":10487:10513   */\n      swap1\n      pop\n        /* \"#utility.yul\":10523:10594   */\n      tag_276\n        /* \"#utility.yul\":10591:10592   */\n      0x00\n        /* \"#utility.yul\":10580:10589   */\n      dup4\n        /* \"#utility.yul\":10576:10593   */\n      add\n        /* \"#utility.yul\":10567:10573   */\n      dup5\n        /* \"#utility.yul\":10523:10594   */\n      tag_144\n      jump\t// in\n    tag_276:\n        /* \"#utility.yul\":10379:10601   */\n      swap3\n      swap2\n      pop\n      pop\n      jump\t// out\n        /* \"#utility.yul\":10641:12284   */\n    tag_145:\n        /* \"#utility.yul\":10752:10755   */\n      0x00\n        /* \"#utility.yul\":10788:10792   */\n      0xe0\n        /* \"#utility.yul\":10783:10786   */\n      dup4\n        /* \"#utility.yul\":10779:10793   */\n      add\n        /* \"#utility.yul\":10877:10881   */\n      0x00\n        /* \"#utility.yul\":10870:10875   */\n      dup4\n        /* \"#utility.yul\":10866:10882   */\n      add\n        /* \"#utility.yul\":10860:10883   */\n      mload\n        /* \"#utility.yul\":10896:10959   */\n      tag_278\n        /* \"#utility.yul\":10953:10957   */\n      0x00\n        /* \"#utility.yul\":10948:10951   */\n      dup7\n        /* \"#utility.yul\":10944:10958   */\n      add\n        /* \"#utility.yul\":10930:10942   */\n      dup3\n        /* \"#utility.yul\":10896:10959   */\n      tag_116\n      jump\t// in\n    tag_278:\n        /* \"#utility.yul\":10803:10969   */\n      pop\n        /* \"#utility.yul\":11055:11059   */\n      0x20\n        /* \"#utility.yul\":11048:11053   */\n      dup4\n        /* \"#utility.yul\":11044:11060   */\n      add\n        /* \"#utility.yul\":11038:11061   */\n      mload\n        /* \"#utility.yul\":11108:11111   */\n      dup5\n        /* \"#utility.yul\":11102:11106   */\n      dup3\n        /* \"#utility.yul\":11098:11112   */\n      sub\n        /* \"#utility.yul\":11091:11095   */\n      0x20\n        /* \"#utility.yul\":11086:11089   */\n      dup7\n        /* \"#utility.yul\":11082:11096   */\n      add\n        /* \"#utility.yul\":11075:11113   */\n      mstore\n        /* \"#utility.yul\":11134:11207   */\n      tag_279\n        /* \"#utility.yul\":11202:11206   */\n      dup3\n        /* \"#utility.yul\":11188:11200   */\n      dup3\n        /* \"#utility.yul\":11134:11207   */\n      tag_121\n      jump\t// in\n    tag_279:\n        /* \"#utility.yul\":11126:11207   */\n      swap2\n      pop\n        /* \"#utility.yul\":10979:11218   */\n      pop\n        /* \"#utility.yul\":11304:11308   */\n      0x40\n        /* \"#utility.yul\":11297:11302   */\n      dup4\n        /* \"#utility.yul\":11293:11309   */\n      add\n        /* \"#utility.yul\":11287:11310   */\n      mload\n        /* \"#utility.yul\":11357:11360   */\n      dup5\n        /* \"#utility.yul\":11351:11355   */\n      dup3\n        /* \"#utility.yul\":11347:11361   */\n      sub\n        /* \"#utility.yul\":11340:11344   */\n      0x40\n        /* \"#utility.yul\":11335:11338   */\n      dup7\n        /* \"#utility.yul\":11331:11345   */\n      add\n        /* \"#utility.yul\":11324:11362   */\n      mstore\n        /* \"#utility.yul\":11383:11456   */\n      tag_280\n        /* \"#utility.yul\":11451:11455   */\n      dup3\n        /* \"#utility.yul\":11437:11449   */\n      dup3\n        /* \"#utility.yul\":11383:11456   */\n      tag_121\n      jump\t// in\n    tag_280:\n        /* \"#utility.yul\":11375:11456   */\n      swap2\n      pop\n        /* \"#utility.yul\":11228:11467   */\n      pop\n        /* \"#utility.yul\":11554:11558   */\n      0x60\n        /* \"#utility.yul\":11547:11552   */\n      dup4\n        /* \"#utility.yul\":11543:11559   */\n      add\n        /* \"#utility.yul\":11537:11560   */\n      mload\n        /* \"#utility.yul\":11607:11610   */\n      dup5\n        /* \"#utility.yul\":11601:11605   */\n      dup3\n        /* \"#utility.yul\":11597:11611   */\n      sub\n        /* \"#utility.yul\":11590:11594   */\n      0x60\n        /* \"#utility.yul\":11585:11588   */\n      dup7\n        /* \"#utility.yul\":11581:11595   */\n      add\n        /* \"#utility.yul\":11574:11612   */\n      mstore\n        /* \"#utility.yul\":11633:11706   */\n      tag_281\n        /* \"#utility.yul\":11701:11705   */\n      dup3\n        /* \"#utility.yul\":11687:11699   */\n      dup3\n        /* \"#utility.yul\":11633:11706   */\n      tag_121\n      jump\t// in\n    tag_281:\n        /* \"#utility.yul\":11625:11706   */\n      swap2\n      pop\n        /* \"#utility.yul\":11477:11717   */\n      pop\n        /* \"#utility.yul\":11806:11810   */\n      0x80\n        /* \"#utility.yul\":11799:11804   */\n      dup4\n        /* \"#utility.yul\":11795:11811   */\n      add\n        /* \"#utility.yul\":11789:11812   */\n      mload\n        /* \"#utility.yul\":11825:11888   */\n      tag_282\n        /* \"#utility.yul\":11882:11886   */\n      0x80\n        /* \"#utility.yul\":11877:11880   */\n      dup7\n        /* \"#utility.yul\":11873:11887   */\n      add\n        /* \"#utility.yul\":11859:11871   */\n      dup3\n        /* \"#utility.yul\":11825:11888   */\n      tag_124\n      jump\t// in\n    tag_282:\n        /* \"#utility.yul\":11727:11898   */\n      pop\n        /* \"#utility.yul\":11988:11992   */\n      0xa0\n        /* \"#utility.yul\":11981:11986   */\n      dup4\n        /* \"#utility.yul\":11977:11993   */\n      add\n        /* \"#utility.yul\":11971:11994   */\n      mload\n        /* \"#utility.yul\":12007:12070   */\n      tag_283\n        /* \"#utility.yul\":12064:12068   */\n      0xa0\n        /* \"#utility.yul\":12059:12062   */\n      dup7\n        /* \"#utility.yul\":12055:12069   */\n      add\n        /* \"#utility.yul\":12041:12053   */\n      dup3\n        /* \"#utility.yul\":12007:12070   */\n      tag_116\n      jump\t// in\n    tag_283:\n        /* \"#utility.yul\":11908:12080   */\n      pop\n        /* \"#utility.yul\":12171:12175   */\n      0xc0\n        /* \"#utility.yul\":12164:12169   */\n      dup4\n        /* \"#utility.yul\":12160:12176   */\n      add\n        /* \"#utility.yul\":12154:12177   */\n      mload\n        /* \"#utility.yul\":12190:12247   */\n      tag_284\n        /* \"#utility.yul\":12241:12245   */\n      0xc0\n        /* \"#utility.yul\":12236:12239   */\n      dup7\n        /* \"#utility.yul\":12232:12246   */\n      add\n        /* \"#utility.yul\":12218:12230   */\n      dup3\n        /* \"#utility.yul\":12190:12247   */\n      tag_125\n      jump\t// in\n    tag_284:\n        /* \"#utility.yul\":12090:12257   */\n      pop\n        /* \"#utility.yul\":12274:12278   */\n      dup1\n        /* \"#utility.yul\":12267:12278   */\n      swap2\n      pop\n        /* \"#utility.yul\":10757:12284   */\n      pop\n        /* \"#utility.yul\":10641:12284   */\n      swap3\n      swap2\n      pop\n      pop\n      jump\t// out\n        /* \"#utility.yul\":12290:12647   */\n    tag_33:\n        /* \"#utility.yul\":12425:12429   */\n      0x00\n        /* \"#utility.yul\":12463:12465   */\n      0x20\n        /* \"#utility.yul\":12452:12461   */\n      dup3\n        /* \"#utility.yul\":12448:12466   */\n      add\n        /* \"#utility.yul\":12440:12466   */\n      swap1\n      pop\n        /* \"#utility.yul\":12512:12521   */\n      dup2\n        /* \"#utility.yul\":12506:12510   */\n      dup2\n        /* \"#utility.yul\":12502:12522   */\n      sub\n        /* \"#utility.yul\":12498:12499   */\n      0x00\n        /* \"#utility.yul\":12487:12496   */\n      dup4\n        /* \"#utility.yul\":12483:12500   */\n      add\n        /* \"#utility.yul\":12476:12523   */\n      mstore\n        /* \"#utility.yul\":12540:12640   */\n      tag_286\n        /* \"#utility.yul\":12635:12639   */\n      dup2\n        /* \"#utility.yul\":12626:12632   */\n      dup5\n        /* \"#utility.yul\":12540:12640   */\n      tag_145\n      jump\t// in\n    tag_286:\n        /* \"#utility.yul\":12532:12640   */\n      swap1\n      pop\n        /* \"#utility.yul\":12290:12647   */\n      swap3\n      swap2\n      pop\n      pop\n      jump\t// out\n        /* \"#utility.yul\":12653:12713   */\n    tag_146:\n        /* \"#utility.yul\":12681:12684   */\n      0x00\n        /* \"#utility.yul\":12702:12707   */\n      dup2\n        /* \"#utility.yul\":12695:12707   */\n      swap1\n      pop\n        /* \"#utility.yul\":12653:12713   */\n      swap2\n      swap1\n      pop\n      jump\t// out\n        /* \"#utility.yul\":12719:12861   */\n    tag_147:\n        /* \"#utility.yul\":12769:12778   */\n      0x00\n        /* \"#utility.yul\":12802:12855   */\n      tag_289\n        /* \"#utility.yul\":12820:12854   */\n      tag_290\n        /* \"#utility.yul\":12829:12853   */\n      tag_291\n        /* \"#utility.yul\":12847:12852   */\n      dup5\n        /* \"#utility.yul\":12829:12853   */\n      tag_122\n      jump\t// in\n    tag_291:\n        /* \"#utility.yul\":12820:12854   */\n      tag_146\n      jump\t// in\n    tag_290:\n        /* \"#utility.yul\":12802:12855   */\n      tag_122\n      jump\t// in\n    tag_289:\n        /* \"#utility.yul\":12789:12855   */\n      swap1\n      pop\n        /* \"#utility.yul\":12719:12861   */\n      swap2\n      swap1\n      pop\n      jump\t// out\n        /* \"#utility.yul\":12867:12993   */\n    tag_148:\n        /* \"#utility.yul\":12917:12926   */\n      0x00\n        /* \"#utility.yul\":12950:12987   */\n      tag_293\n        /* \"#utility.yul\":12981:12986   */\n      dup3\n        /* \"#utility.yul\":12950:12987   */\n      tag_147\n      jump\t// in\n    tag_293:\n        /* \"#utility.yul\":12937:12987   */\n      swap1\n      pop\n        /* \"#utility.yul\":12867:12993   */\n      swap2\n      swap1\n      pop\n      jump\t// out\n        /* \"#utility.yul\":12999:13145   */\n    tag_149:\n        /* \"#utility.yul\":13069:13078   */\n      0x00\n        /* \"#utility.yul\":13102:13139   */\n      tag_295\n        /* \"#utility.yul\":13133:13138   */\n      dup3\n        /* \"#utility.yul\":13102:13139   */\n      tag_148\n      jump\t// in\n    tag_295:\n        /* \"#utility.yul\":13089:13139   */\n      swap1\n      pop\n        /* \"#utility.yul\":12999:13145   */\n      swap2\n      swap1\n      pop\n      jump\t// out\n        /* \"#utility.yul\":13151:13322   */\n    tag_150:\n        /* \"#utility.yul\":13258:13315   */\n      tag_297\n        /* \"#utility.yul\":13309:13314   */\n      dup2\n        /* \"#utility.yul\":13258:13315   */\n      tag_149\n      jump\t// in\n    tag_297:\n        /* \"#utility.yul\":13253:13256   */\n      dup3\n        /* \"#utility.yul\":13246:13316   */\n      mstore\n        /* \"#utility.yul\":13151:13322   */\n      pop\n      pop\n      jump\t// out\n        /* \"#utility.yul\":13328:13590   */\n    tag_37:\n        /* \"#utility.yul\":13441:13445   */\n      0x00\n        /* \"#utility.yul\":13479:13481   */\n      0x20\n        /* \"#utility.yul\":13468:13477   */\n      dup3\n        /* \"#utility.yul\":13464:13482   */\n      add\n        /* \"#utility.yul\":13456:13482   */\n      swap1\n      pop\n        /* \"#utility.yul\":13492:13583   */\n      tag_299\n        /* \"#utility.yul\":13580:13581   */\n      0x00\n        /* \"#utility.yul\":13569:13578   */\n      dup4\n        /* \"#utility.yul\":13565:13582   */\n      add\n        /* \"#utility.yul\":13556:13562   */\n      dup5\n        /* \"#utility.yul\":13492:13583   */\n      tag_150\n      jump\t// in\n    tag_299:\n        /* \"#utility.yul\":13328:13590   */\n      swap3\n      swap2\n      pop\n      pop\n      jump\t// out\n        /* \"#utility.yul\":13596:13718   */\n    tag_151:\n        /* \"#utility.yul\":13669:13693   */\n      tag_301\n        /* \"#utility.yul\":13687:13692   */\n      dup2\n        /* \"#utility.yul\":13669:13693   */\n      tag_123\n      jump\t// in\n    tag_301:\n        /* \"#utility.yul\":13662:13667   */\n      dup2\n        /* \"#utility.yul\":13659:13694   */\n      eq\n        /* \"#utility.yul\":13649:13712   */\n      tag_302\n      jumpi\n        /* \"#utility.yul\":13708:13709   */\n      0x00\n        /* \"#utility.yul\":13705:13706   */\n      dup1\n        /* \"#utility.yul\":13698:13710   */\n      revert\n        /* \"#utility.yul\":13649:13712   */\n    tag_302:\n        /* \"#utility.yul\":13596:13718   */\n      pop\n      jump\t// out\n        /* \"#utility.yul\":13724:13863   */\n    tag_152:\n        /* \"#utility.yul\":13770:13775   */\n      0x00\n        /* \"#utility.yul\":13808:13814   */\n      dup2\n        /* \"#utility.yul\":13795:13815   */\n      calldataload\n        /* \"#utility.yul\":13786:13815   */\n      swap1\n      pop\n        /* \"#utility.yul\":13824:13857   */\n      tag_304\n        /* \"#utility.yul\":13851:13856   */\n      dup2\n        /* \"#utility.yul\":13824:13857   */\n      tag_151\n      jump\t// in\n    tag_304:\n        /* \"#utility.yul\":13724:13863   */\n      swap3\n      swap2\n      pop\n      pop\n      jump\t// out\n        /* \"#utility.yul\":13869:14198   */\n    tag_40:\n        /* \"#utility.yul\":13928:13934   */\n      0x00\n        /* \"#utility.yul\":13977:13979   */\n      0x20\n        /* \"#utility.yul\":13965:13974   */\n      dup3\n        /* \"#utility.yul\":13956:13963   */\n      dup5\n        /* \"#utility.yul\":13952:13975   */\n      sub\n        /* \"#utility.yul\":13948:13980   */\n      slt\n        /* \"#utility.yul\":13945:14064   */\n      iszero\n      tag_306\n      jumpi\n        /* \"#utility.yul\":13983:14062   */\n      tag_307\n      tag_131\n      jump\t// in\n    tag_307:\n        /* \"#utility.yul\":13945:14064   */\n    tag_306:\n        /* \"#utility.yul\":14103:14104   */\n      0x00\n        /* \"#utility.yul\":14128:14181   */\n      tag_308\n        /* \"#utility.yul\":14173:14180   */\n      dup5\n        /* \"#utility.yul\":14164:14170   */\n      dup3\n        /* \"#utility.yul\":14153:14162   */\n      dup6\n        /* \"#utility.yul\":14149:14171   */\n      add\n        /* \"#utility.yul\":14128:14181   */\n      tag_152\n      jump\t// in\n    tag_308:\n        /* \"#utility.yul\":14118:14181   */\n      swap2\n      pop\n        /* \"#utility.yul\":14074:14191   */\n      pop\n        /* \"#utility.yul\":13869:14198   */\n      swap3\n      swap2\n      pop\n      pop\n      jump\t// out\n        /* \"#utility.yul\":14204:14536   */\n    tag_153:\n        /* \"#utility.yul\":14302:14306   */\n      0x00\n        /* \"#utility.yul\":14392:14410   */\n      0xffffffffffffffff\n        /* \"#utility.yul\":14384:14390   */\n      dup3\n        /* \"#utility.yul\":14381:14411   */\n      gt\n        /* \"#utility.yul\":14378:14434   */\n      iszero\n      tag_310\n      jumpi\n        /* \"#utility.yul\":14414:14432   */\n      tag_311\n      tag_135\n      jump\t// in\n    tag_311:\n        /* \"#utility.yul\":14378:14434   */\n    tag_310:\n        /* \"#utility.yul\":14464:14468   */\n      0x20\n        /* \"#utility.yul\":14456:14462   */\n      dup3\n        /* \"#utility.yul\":14452:14469   */\n      mul\n        /* \"#utility.yul\":14444:14469   */\n      swap1\n      pop\n        /* \"#utility.yul\":14524:14528   */\n      0x20\n        /* \"#utility.yul\":14518:14522   */\n      dup2\n        /* \"#utility.yul\":14514:14529   */\n      add\n        /* \"#utility.yul\":14506:14529   */\n      swap1\n      pop\n        /* \"#utility.yul\":14204:14536   */\n      swap2\n      swap1\n      pop\n      jump\t// out\n        /* \"#utility.yul\":14542:14659   */\n    tag_154:\n        /* \"#utility.yul\":14651:14652   */\n      0x00\n        /* \"#utility.yul\":14648:14649   */\n      dup1\n        /* \"#utility.yul\":14641:14653   */\n      revert\n        /* \"#utility.yul\":14665:14782   */\n    tag_155:\n        /* \"#utility.yul\":14774:14775   */\n      0x00\n        /* \"#utility.yul\":14771:14772   */\n      dup1\n        /* \"#utility.yul\":14764:14776   */\n      revert\n        /* \"#utility.yul\":14788:14905   */\n    tag_156:\n        /* \"#utility.yul\":14897:14898   */\n      0x00\n        /* \"#utility.yul\":14894:14895   */\n      dup1\n        /* \"#utility.yul\":14887:14899   */\n      revert\n        /* \"#utility.yul\":14911:15054   */\n    tag_157:\n        /* \"#utility.yul\":14968:14973   */\n      0x00\n        /* \"#utility.yul\":14999:15005   */\n      dup2\n        /* \"#utility.yul\":14993:15006   */\n      mload\n        /* \"#utility.yul\":14984:15006   */\n      swap1\n      pop\n        /* \"#utility.yul\":15015:15048   */\n      tag_316\n        /* \"#utility.yul\":15042:15047   */\n      dup2\n        /* \"#utility.yul\":15015:15048   */\n      tag_142\n      jump\t// in\n    tag_316:\n        /* \"#utility.yul\":14911:15054   */\n      swap3\n      swap2\n      pop\n      pop\n      jump\t// out\n        /* \"#utility.yul\":15060:15494   */\n    tag_158:\n        /* \"#utility.yul\":15149:15154   */\n      0x00\n        /* \"#utility.yul\":15174:15240   */\n      tag_318\n        /* \"#utility.yul\":15190:15239   */\n      tag_319\n        /* \"#utility.yul\":15232:15238   */\n      dup5\n        /* \"#utility.yul\":15190:15239   */\n      tag_138\n      jump\t// in\n    tag_319:\n        /* \"#utility.yul\":15174:15240   */\n      tag_137\n      jump\t// in\n    tag_318:\n        /* \"#utility.yul\":15165:15240   */\n      swap1\n      pop\n        /* \"#utility.yul\":15263:15269   */\n      dup3\n        /* \"#utility.yul\":15256:15261   */\n      dup2\n        /* \"#utility.yul\":15249:15270   */\n      mstore\n        /* \"#utility.yul\":15301:15305   */\n      0x20\n        /* \"#utility.yul\":15294:15299   */\n      dup2\n        /* \"#utility.yul\":15290:15306   */\n      add\n        /* \"#utility.yul\":15339:15342   */\n      dup5\n        /* \"#utility.yul\":15330:15336   */\n      dup5\n        /* \"#utility.yul\":15325:15328   */\n      dup5\n        /* \"#utility.yul\":15321:15337   */\n      add\n        /* \"#utility.yul\":15318:15343   */\n      gt\n        /* \"#utility.yul\":15315:15427   */\n      iszero\n      tag_320\n      jumpi\n        /* \"#utility.yul\":15346:15425   */\n      tag_321\n      tag_134\n      jump\t// in\n    tag_321:\n        /* \"#utility.yul\":15315:15427   */\n    tag_320:\n        /* \"#utility.yul\":15436:15488   */\n      tag_322\n        /* \"#utility.yul\":15481:15487   */\n      dup5\n        /* \"#utility.yul\":15476:15479   */\n      dup3\n        /* \"#utility.yul\":15471:15474   */\n      dup6\n        /* \"#utility.yul\":15436:15488   */\n      tag_119\n      jump\t// in\n    tag_322:\n        /* \"#utility.yul\":15155:15494   */\n      pop\n        /* \"#utility.yul\":15060:15494   */\n      swap4\n      swap3\n      pop\n      pop\n      pop\n      jump\t// out\n        /* \"#utility.yul\":15514:15869   */\n    tag_159:\n        /* \"#utility.yul\":15581:15586   */\n      0x00\n        /* \"#utility.yul\":15630:15633   */\n      dup3\n        /* \"#utility.yul\":15623:15627   */\n      0x1f\n        /* \"#utility.yul\":15615:15621   */\n      dup4\n        /* \"#utility.yul\":15611:15628   */\n      add\n        /* \"#utility.yul\":15607:15634   */\n      slt\n        /* \"#utility.yul\":15597:15719   */\n      tag_324\n      jumpi\n        /* \"#utility.yul\":15638:15717   */\n      tag_325\n      tag_133\n      jump\t// in\n    tag_325:\n        /* \"#utility.yul\":15597:15719   */\n    tag_324:\n        /* \"#utility.yul\":15748:15754   */\n      dup2\n        /* \"#utility.yul\":15742:15755   */\n      mload\n        /* \"#utility.yul\":15773:15863   */\n      tag_326\n        /* \"#utility.yul\":15859:15862   */\n      dup5\n        /* \"#utility.yul\":15851:15857   */\n      dup3\n        /* \"#utility.yul\":15844:15848   */\n      0x20\n        /* \"#utility.yul\":15836:15842   */\n      dup7\n        /* \"#utility.yul\":15832:15849   */\n      add\n        /* \"#utility.yul\":15773:15863   */\n      tag_158\n      jump\t// in\n    tag_326:\n        /* \"#utility.yul\":15764:15863   */\n      swap2\n      pop\n        /* \"#utility.yul\":15587:15869   */\n      pop\n        /* \"#utility.yul\":15514:15869   */\n      swap3\n      swap2\n      pop\n      pop\n      jump\t// out\n        /* \"#utility.yul\":15875:16018   */\n    tag_160:\n        /* \"#utility.yul\":15932:15937   */\n      0x00\n        /* \"#utility.yul\":15963:15969   */\n      dup2\n        /* \"#utility.yul\":15957:15970   */\n      mload\n        /* \"#utility.yul\":15948:15970   */\n      swap1\n      pop\n        /* \"#utility.yul\":15979:16012   */\n      tag_328\n        /* \"#utility.yul\":16006:16011   */\n      dup2\n        /* \"#utility.yul\":15979:16012   */\n      tag_151\n      jump\t// in\n    tag_328:\n        /* \"#utility.yul\":15875:16018   */\n      swap3\n      swap2\n      pop\n      pop\n      jump\t// out\n        /* \"#utility.yul\":16024:16140   */\n    tag_161:\n        /* \"#utility.yul\":16094:16115   */\n      tag_330\n        /* \"#utility.yul\":16109:16114   */\n      dup2\n        /* \"#utility.yul\":16094:16115   */\n      tag_110\n      jump\t// in\n    tag_330:\n        /* \"#utility.yul\":16087:16092   */\n      dup2\n        /* \"#utility.yul\":16084:16116   */\n      eq\n        /* \"#utility.yul\":16074:16134   */\n      tag_331\n      jumpi\n        /* \"#utility.yul\":16130:16131   */\n      0x00\n        /* \"#utility.yul\":16127:16128   */\n      dup1\n        /* \"#utility.yul\":16120:16132   */\n      revert\n        /* \"#utility.yul\":16074:16134   */\n    tag_331:\n        /* \"#utility.yul\":16024:16140   */\n      pop\n      jump\t// out\n        /* \"#utility.yul\":16146:16283   */\n    tag_162:\n        /* \"#utility.yul\":16200:16205   */\n      0x00\n        /* \"#utility.yul\":16231:16237   */\n      dup2\n        /* \"#utility.yul\":16225:16238   */\n      mload\n        /* \"#utility.yul\":16216:16238   */\n      swap1\n      pop\n        /* \"#utility.yul\":16247:16277   */\n      tag_333\n        /* \"#utility.yul\":16271:16276   */\n      dup2\n        /* \"#utility.yul\":16247:16277   */\n      tag_161\n      jump\t// in\n    tag_333:\n        /* \"#utility.yul\":16146:16283   */\n      swap3\n      swap2\n      pop\n      pop\n      jump\t// out\n        /* \"#utility.yul\":16308:18299   */\n    tag_163:\n        /* \"#utility.yul\":16389:16394   */\n      0x00\n        /* \"#utility.yul\":16433:16437   */\n      0xe0\n        /* \"#utility.yul\":16421:16430   */\n      dup3\n        /* \"#utility.yul\":16416:16419   */\n      dup5\n        /* \"#utility.yul\":16412:16431   */\n      sub\n        /* \"#utility.yul\":16408:16438   */\n      slt\n        /* \"#utility.yul\":16405:16522   */\n      iszero\n      tag_335\n      jumpi\n        /* \"#utility.yul\":16441:16520   */\n      tag_336\n      tag_155\n      jump\t// in\n    tag_336:\n        /* \"#utility.yul\":16405:16522   */\n    tag_335:\n        /* \"#utility.yul\":16540:16561   */\n      tag_337\n        /* \"#utility.yul\":16556:16560   */\n      0xe0\n        /* \"#utility.yul\":16540:16561   */\n      tag_137\n      jump\t// in\n    tag_337:\n        /* \"#utility.yul\":16531:16561   */\n      swap1\n      pop\n        /* \"#utility.yul\":16622:16623   */\n      0x00\n        /* \"#utility.yul\":16662:16722   */\n      tag_338\n        /* \"#utility.yul\":16718:16721   */\n      dup5\n        /* \"#utility.yul\":16709:16715   */\n      dup3\n        /* \"#utility.yul\":16698:16707   */\n      dup6\n        /* \"#utility.yul\":16694:16716   */\n      add\n        /* \"#utility.yul\":16662:16722   */\n      tag_157\n      jump\t// in\n    tag_338:\n        /* \"#utility.yul\":16655:16659   */\n      0x00\n        /* \"#utility.yul\":16648:16653   */\n      dup4\n        /* \"#utility.yul\":16644:16660   */\n      add\n        /* \"#utility.yul\":16637:16723   */\n      mstore\n        /* \"#utility.yul\":16571:16734   */\n      pop\n        /* \"#utility.yul\":16818:16820   */\n      0x20\n        /* \"#utility.yul\":16807:16816   */\n      dup3\n        /* \"#utility.yul\":16803:16821   */\n      add\n        /* \"#utility.yul\":16797:16822   */\n      mload\n        /* \"#utility.yul\":16849:16867   */\n      0xffffffffffffffff\n        /* \"#utility.yul\":16841:16847   */\n      dup2\n        /* \"#utility.yul\":16838:16868   */\n      gt\n        /* \"#utility.yul\":16835:16952   */\n      iszero\n      tag_339\n      jumpi\n        /* \"#utility.yul\":16871:16950   */\n      tag_340\n      tag_156\n      jump\t// in\n    tag_340:\n        /* \"#utility.yul\":16835:16952   */\n    tag_339:\n        /* \"#utility.yul\":16991:17061   */\n      tag_341\n        /* \"#utility.yul\":17057:17060   */\n      dup5\n        /* \"#utility.yul\":17048:17054   */\n      dup3\n        /* \"#utility.yul\":17037:17046   */\n      dup6\n        /* \"#utility.yul\":17033:17055   */\n      add\n        /* \"#utility.yul\":16991:17061   */\n      tag_159\n      jump\t// in\n    tag_341:\n        /* \"#utility.yul\":16984:16988   */\n      0x20\n        /* \"#utility.yul\":16977:16982   */\n      dup4\n        /* \"#utility.yul\":16973:16989   */\n      add\n        /* \"#utility.yul\":16966:17062   */\n      mstore\n        /* \"#utility.yul\":16744:17073   */\n      pop\n        /* \"#utility.yul\":17157:17159   */\n      0x40\n        /* \"#utility.yul\":17146:17155   */\n      dup3\n        /* \"#utility.yul\":17142:17160   */\n      add\n        /* \"#utility.yul\":17136:17161   */\n      mload\n        /* \"#utility.yul\":17188:17206   */\n      0xffffffffffffffff\n        /* \"#utility.yul\":17180:17186   */\n      dup2\n        /* \"#utility.yul\":17177:17207   */\n      gt\n        /* \"#utility.yul\":17174:17291   */\n      iszero\n      tag_342\n      jumpi\n        /* \"#utility.yul\":17210:17289   */\n      tag_343\n      tag_156\n      jump\t// in\n    tag_343:\n        /* \"#utility.yul\":17174:17291   */\n    tag_342:\n        /* \"#utility.yul\":17330:17400   */\n      tag_344\n        /* \"#utility.yul\":17396:17399   */\n      dup5\n        /* \"#utility.yul\":17387:17393   */\n      dup3\n        /* \"#utility.yul\":17376:17385   */\n      dup6\n        /* \"#utility.yul\":17372:17394   */\n      add\n        /* \"#utility.yul\":17330:17400   */\n      tag_159\n      jump\t// in\n    tag_344:\n        /* \"#utility.yul\":17323:17327   */\n      0x40\n        /* \"#utility.yul\":17316:17321   */\n      dup4\n        /* \"#utility.yul\":17312:17328   */\n      add\n        /* \"#utility.yul\":17305:17401   */\n      mstore\n        /* \"#utility.yul\":17083:17412   */\n      pop\n        /* \"#utility.yul\":17497:17499   */\n      0x60\n        /* \"#utility.yul\":17486:17495   */\n      dup3\n        /* \"#utility.yul\":17482:17500   */\n      add\n        /* \"#utility.yul\":17476:17501   */\n      mload\n        /* \"#utility.yul\":17528:17546   */\n      0xffffffffffffffff\n        /* \"#utility.yul\":17520:17526   */\n      dup2\n        /* \"#utility.yul\":17517:17547   */\n      gt\n        /* \"#utility.yul\":17514:17631   */\n      iszero\n      tag_345\n      jumpi\n        /* \"#utility.yul\":17550:17629   */\n      tag_346\n      tag_156\n      jump\t// in\n    tag_346:\n        /* \"#utility.yul\":17514:17631   */\n    tag_345:\n        /* \"#utility.yul\":17670:17740   */\n      tag_347\n        /* \"#utility.yul\":17736:17739   */\n      dup5\n        /* \"#utility.yul\":17727:17733   */\n      dup3\n        /* \"#utility.yul\":17716:17725   */\n      dup6\n        /* \"#utility.yul\":17712:17734   */\n      add\n        /* \"#utility.yul\":17670:17740   */\n      tag_159\n      jump\t// in\n    tag_347:\n        /* \"#utility.yul\":17663:17667   */\n      0x60\n        /* \"#utility.yul\":17656:17661   */\n      dup4\n        /* \"#utility.yul\":17652:17668   */\n      add\n        /* \"#utility.yul\":17645:17741   */\n      mstore\n        /* \"#utility.yul\":17422:17752   */\n      pop\n        /* \"#utility.yul\":17818:17821   */\n      0x80\n        /* \"#utility.yul\":17860:17920   */\n      tag_348\n        /* \"#utility.yul\":17916:17919   */\n      dup5\n        /* \"#utility.yul\":17907:17913   */\n      dup3\n        /* \"#utility.yul\":17896:17905   */\n      dup6\n        /* \"#utility.yul\":17892:17914   */\n      add\n        /* \"#utility.yul\":17860:17920   */\n      tag_160\n      jump\t// in\n    tag_348:\n        /* \"#utility.yul\":17853:17857   */\n      0x80\n        /* \"#utility.yul\":17846:17851   */\n      dup4\n        /* \"#utility.yul\":17842:17858   */\n      add\n        /* \"#utility.yul\":17835:17921   */\n      mstore\n        /* \"#utility.yul\":17762:17932   */\n      pop\n        /* \"#utility.yul\":17999:18002   */\n      0xa0\n        /* \"#utility.yul\":18041:18101   */\n      tag_349\n        /* \"#utility.yul\":18097:18100   */\n      dup5\n        /* \"#utility.yul\":18088:18094   */\n      dup3\n        /* \"#utility.yul\":18077:18086   */\n      dup6\n        /* \"#utility.yul\":18073:18095   */\n      add\n        /* \"#utility.yul\":18041:18101   */\n      tag_157\n      jump\t// in\n    tag_349:\n        /* \"#utility.yul\":18034:18038   */\n      0xa0\n        /* \"#utility.yul\":18027:18032   */\n      dup4\n        /* \"#utility.yul\":18023:18039   */\n      add\n        /* \"#utility.yul\":18016:18102   */\n      mstore\n        /* \"#utility.yul\":17942:18113   */\n      pop\n        /* \"#utility.yul\":18181:18184   */\n      0xc0\n        /* \"#utility.yul\":18223:18280   */\n      tag_350\n        /* \"#utility.yul\":18276:18279   */\n      dup5\n        /* \"#utility.yul\":18267:18273   */\n      dup3\n        /* \"#utility.yul\":18256:18265   */\n      dup6\n        /* \"#utility.yul\":18252:18274   */\n      add\n        /* \"#utility.yul\":18223:18280   */\n      tag_162\n      jump\t// in\n    tag_350:\n        /* \"#utility.yul\":18216:18220   */\n      0xc0\n        /* \"#utility.yul\":18209:18214   */\n      dup4\n        /* \"#utility.yul\":18205:18221   */\n      add\n        /* \"#utility.yul\":18198:18281   */\n      mstore\n        /* \"#utility.yul\":18123:18292   */\n      pop\n        /* \"#utility.yul\":16308:18299   */\n      swap3\n      swap2\n      pop\n      pop\n      jump\t// out\n        /* \"#utility.yul\":18326:19319   */\n    tag_164:\n        /* \"#utility.yul\":18454:18459   */\n      0x00\n        /* \"#utility.yul\":18479:18581   */\n      tag_352\n        /* \"#utility.yul\":18495:18580   */\n      tag_353\n        /* \"#utility.yul\":18573:18579   */\n      dup5\n        /* \"#utility.yul\":18495:18580   */\n      tag_153\n      jump\t// in\n    tag_353:\n        /* \"#utility.yul\":18479:18581   */\n      tag_137\n      jump\t// in\n    tag_352:\n        /* \"#utility.yul\":18470:18581   */\n      swap1\n      pop\n        /* \"#utility.yul\":18601:18606   */\n      dup1\n        /* \"#utility.yul\":18630:18636   */\n      dup4\n        /* \"#utility.yul\":18623:18628   */\n      dup3\n        /* \"#utility.yul\":18616:18637   */\n      mstore\n        /* \"#utility.yul\":18664:18668   */\n      0x20\n        /* \"#utility.yul\":18657:18662   */\n      dup3\n        /* \"#utility.yul\":18653:18669   */\n      add\n        /* \"#utility.yul\":18646:18669   */\n      swap1\n      pop\n        /* \"#utility.yul\":18717:18721   */\n      0x20\n        /* \"#utility.yul\":18709:18715   */\n      dup5\n        /* \"#utility.yul\":18705:18722   */\n      mul\n        /* \"#utility.yul\":18697:18703   */\n      dup4\n        /* \"#utility.yul\":18693:18723   */\n      add\n        /* \"#utility.yul\":18746:18749   */\n      dup6\n        /* \"#utility.yul\":18738:18744   */\n      dup2\n        /* \"#utility.yul\":18735:18750   */\n      gt\n        /* \"#utility.yul\":18732:18854   */\n      iszero\n      tag_354\n      jumpi\n        /* \"#utility.yul\":18765:18844   */\n      tag_355\n      tag_154\n      jump\t// in\n    tag_355:\n        /* \"#utility.yul\":18732:18854   */\n    tag_354:\n        /* \"#utility.yul\":18880:18886   */\n      dup4\n        /* \"#utility.yul\":18863:19313   */\n    tag_356:\n        /* \"#utility.yul\":18897:18903   */\n      dup2\n        /* \"#utility.yul\":18892:18895   */\n      dup2\n        /* \"#utility.yul\":18889:18904   */\n      lt\n        /* \"#utility.yul\":18863:19313   */\n      iszero\n      tag_358\n      jumpi\n        /* \"#utility.yul\":18979:18982   */\n      dup1\n        /* \"#utility.yul\":18973:18983   */\n      mload\n        /* \"#utility.yul\":19015:19033   */\n      0xffffffffffffffff\n        /* \"#utility.yul\":19002:19013   */\n      dup2\n        /* \"#utility.yul\":18999:19034   */\n      gt\n        /* \"#utility.yul\":18996:19118   */\n      iszero\n      tag_359\n      jumpi\n        /* \"#utility.yul\":19037:19116   */\n      tag_360\n      tag_133\n      jump\t// in\n    tag_360:\n        /* \"#utility.yul\":18996:19118   */\n    tag_359:\n        /* \"#utility.yul\":19161:19172   */\n      dup1\n        /* \"#utility.yul\":19153:19159   */\n      dup7\n        /* \"#utility.yul\":19149:19173   */\n      add\n        /* \"#utility.yul\":19199:19268   */\n      tag_361\n        /* \"#utility.yul\":19264:19267   */\n      dup10\n        /* \"#utility.yul\":19252:19262   */\n      dup3\n        /* \"#utility.yul\":19199:19268   */\n      tag_163\n      jump\t// in\n    tag_361:\n        /* \"#utility.yul\":19194:19197   */\n      dup6\n        /* \"#utility.yul\":19187:19269   */\n      mstore\n        /* \"#utility.yul\":19298:19302   */\n      0x20\n        /* \"#utility.yul\":19293:19296   */\n      dup6\n        /* \"#utility.yul\":19289:19303   */\n      add\n        /* \"#utility.yul\":19282:19303   */\n      swap5\n      pop\n        /* \"#utility.yul\":18939:19313   */\n      pop\n      pop\n        /* \"#utility.yul\":18923:18927   */\n      0x20\n        /* \"#utility.yul\":18918:18921   */\n      dup2\n        /* \"#utility.yul\":18914:18928   */\n      add\n        /* \"#utility.yul\":18907:18928   */\n      swap1\n      pop\n        /* \"#utility.yul\":18863:19313   */\n      jump(tag_356)\n    tag_358:\n        /* \"#utility.yul\":18867:18888   */\n      pop\n        /* \"#utility.yul\":18460:19319   */\n      pop\n      pop\n        /* \"#utility.yul\":18326:19319   */\n      swap4\n      swap3\n      pop\n      pop\n      pop\n      jump\t// out\n        /* \"#utility.yul\":19346:19773   */\n    tag_165:\n        /* \"#utility.yul\":19449:19454   */\n      0x00\n        /* \"#utility.yul\":19498:19501   */\n      dup3\n        /* \"#utility.yul\":19491:19495   */\n      0x1f\n        /* \"#utility.yul\":19483:19489   */\n      dup4\n        /* \"#utility.yul\":19479:19496   */\n      add\n        /* \"#utility.yul\":19475:19502   */\n      slt\n        /* \"#utility.yul\":19465:19587   */\n      tag_363\n      jumpi\n        /* \"#utility.yul\":19506:19585   */\n      tag_364\n      tag_133\n      jump\t// in\n    tag_364:\n        /* \"#utility.yul\":19465:19587   */\n    tag_363:\n        /* \"#utility.yul\":19616:19622   */\n      dup2\n        /* \"#utility.yul\":19610:19623   */\n      mload\n        /* \"#utility.yul\":19641:19767   */\n      tag_365\n        /* \"#utility.yul\":19763:19766   */\n      dup5\n        /* \"#utility.yul\":19755:19761   */\n      dup3\n        /* \"#utility.yul\":19748:19752   */\n      0x20\n        /* \"#utility.yul\":19740:19746   */\n      dup7\n        /* \"#utility.yul\":19736:19753   */\n      add\n        /* \"#utility.yul\":19641:19767   */\n      tag_164\n      jump\t// in\n    tag_365:\n        /* \"#utility.yul\":19632:19767   */\n      swap2\n      pop\n        /* \"#utility.yul\":19455:19773   */\n      pop\n        /* \"#utility.yul\":19346:19773   */\n      swap3\n      swap2\n      pop\n      pop\n      jump\t// out\n        /* \"#utility.yul\":19779:20375   */\n    tag_46:\n        /* \"#utility.yul\":19895:19901   */\n      0x00\n        /* \"#utility.yul\":19944:19946   */\n      0x20\n        /* \"#utility.yul\":19932:19941   */\n      dup3\n        /* \"#utility.yul\":19923:19930   */\n      dup5\n        /* \"#utility.yul\":19919:19942   */\n      sub\n        /* \"#utility.yul\":19915:19947   */\n      slt\n        /* \"#utility.yul\":19912:20031   */\n      iszero\n      tag_367\n      jumpi\n        /* \"#utility.yul\":19950:20029   */\n      tag_368\n      tag_131\n      jump\t// in\n    tag_368:\n        /* \"#utility.yul\":19912:20031   */\n    tag_367:\n        /* \"#utility.yul\":20091:20092   */\n      0x00\n        /* \"#utility.yul\":20080:20089   */\n      dup3\n        /* \"#utility.yul\":20076:20093   */\n      add\n        /* \"#utility.yul\":20070:20094   */\n      mload\n        /* \"#utility.yul\":20121:20139   */\n      0xffffffffffffffff\n        /* \"#utility.yul\":20113:20119   */\n      dup2\n        /* \"#utility.yul\":20110:20140   */\n      gt\n        /* \"#utility.yul\":20107:20224   */\n      iszero\n      tag_369\n      jumpi\n        /* \"#utility.yul\":20143:20222   */\n      tag_370\n      tag_132\n      jump\t// in\n    tag_370:\n        /* \"#utility.yul\":20107:20224   */\n    tag_369:\n        /* \"#utility.yul\":20248:20358   */\n      tag_371\n        /* \"#utility.yul\":20350:20357   */\n      dup5\n        /* \"#utility.yul\":20341:20347   */\n      dup3\n        /* \"#utility.yul\":20330:20339   */\n      dup6\n        /* \"#utility.yul\":20326:20348   */\n      add\n        /* \"#utility.yul\":20248:20358   */\n      tag_165\n      jump\t// in\n    tag_371:\n        /* \"#utility.yul\":20238:20358   */\n      swap2\n      pop\n        /* \"#utility.yul\":20041:20368   */\n      pop\n        /* \"#utility.yul\":19779:20375   */\n      swap3\n      swap2\n      pop\n      pop\n      jump\t// out\n        /* \"#utility.yul\":20381:20561   */\n    tag_52:\n        /* \"#utility.yul\":20429:20506   */\n      0x4e487b7100000000000000000000000000000000000000000000000000000000\n        /* \"#utility.yul\":20426:20427   */\n      0x00\n        /* \"#utility.yul\":20419:20507   */\n      mstore\n        /* \"#utility.yul\":20526:20530   */\n      0x32\n        /* \"#utility.yul\":20523:20524   */\n      0x04\n        /* \"#utility.yul\":20516:20531   */\n      mstore\n        /* \"#utility.yul\":20550:20554   */\n      0x24\n        /* \"#utility.yul\":20547:20548   */\n      0x00\n        /* \"#utility.yul\":20540:20555   */\n      revert\n        /* \"#utility.yul\":20567:20747   */\n    tag_166:\n        /* \"#utility.yul\":20615:20692   */\n      0x4e487b7100000000000000000000000000000000000000000000000000000000\n        /* \"#utility.yul\":20612:20613   */\n      0x00\n        /* \"#utility.yul\":20605:20693   */\n      mstore\n        /* \"#utility.yul\":20712:20716   */\n      0x11\n        /* \"#utility.yul\":20709:20710   */\n      0x04\n        /* \"#utility.yul\":20702:20717   */\n      mstore\n        /* \"#utility.yul\":20736:20740   */\n      0x24\n        /* \"#utility.yul\":20733:20734   */\n      0x00\n        /* \"#utility.yul\":20726:20741   */\n      revert\n        /* \"#utility.yul\":20753:20986   */\n    tag_55:\n        /* \"#utility.yul\":20792:20795   */\n      0x00\n        /* \"#utility.yul\":20815:20839   */\n      tag_375\n        /* \"#utility.yul\":20833:20838   */\n      dup3\n        /* \"#utility.yul\":20815:20839   */\n      tag_115\n      jump\t// in\n    tag_375:\n        /* \"#utility.yul\":20806:20839   */\n      swap2\n      pop\n        /* \"#utility.yul\":20861:20927   */\n      0xffffffffffffffffffffffffffffffffffffffffffffffffffffffffffffffff\n        /* \"#utility.yul\":20854:20859   */\n      dup3\n        /* \"#utility.yul\":20851:20928   */\n      sub\n        /* \"#utility.yul\":20848:20951   */\n      tag_376\n      jumpi\n        /* \"#utility.yul\":20931:20949   */\n      tag_377\n      tag_166\n      jump\t// in\n    tag_377:\n        /* \"#utility.yul\":20848:20951   */\n    tag_376:\n        /* \"#utility.yul\":20978:20979   */\n      0x01\n        /* \"#utility.yul\":20971:20976   */\n      dup3\n        /* \"#utility.yul\":20967:20980   */\n      add\n        /* \"#utility.yul\":20960:20980   */\n      swap1\n      pop\n        /* \"#utility.yul\":20753:20986   */\n      swap2\n      swap1\n      pop\n      jump\t// out\n        /* \"#utility.yul\":20992:21161   */\n    tag_167:\n        /* \"#utility.yul\":21076:21087   */\n      0x00\n        /* \"#utility.yul\":21110:21116   */\n      dup3\n        /* \"#utility.yul\":21105:21108   */\n      dup3\n        /* \"#utility.yul\":21098:21117   */\n      mstore\n        /* \"#utility.yul\":21150:21154   */\n      0x20\n        /* \"#utility.yul\":21145:21148   */\n      dup3\n        /* \"#utility.yul\":21141:21155   */\n      add\n        /* \"#utility.yul\":21126:21155   */\n      swap1\n      pop\n        /* \"#utility.yul\":20992:21161   */\n      swap3\n      swap2\n      pop\n      pop\n      jump\t// out\n        /* \"#utility.yul\":21167:21399   */\n    tag_168:\n        /* \"#utility.yul\":21307:21341   */\n      0x557365724461746162617365437572736f723a203330303a20206f6e6c79206e\n        /* \"#utility.yul\":21303:21304   */\n      0x00\n        /* \"#utility.yul\":21295:21301   */\n      dup3\n        /* \"#utility.yul\":21291:21305   */\n      add\n        /* \"#utility.yul\":21284:21342   */\n      mstore\n        /* \"#utility.yul\":21376:21391   */\n      0x6f74206578697374207573657200000000000000000000000000000000000000\n        /* \"#utility.yul\":21371:21373   */\n      0x20\n        /* \"#utility.yul\":21363:21369   */\n      dup3\n        /* \"#utility.yul\":21359:21374   */\n      add\n        /* \"#utility.yul\":21352:21392   */\n      mstore\n        /* \"#utility.yul\":21167:21399   */\n      pop\n      jump\t// out\n        /* \"#utility.yul\":21405:21771   */\n    tag_169:\n        /* \"#utility.yul\":21547:21550   */\n      0x00\n        /* \"#utility.yul\":21568:21635   */\n      tag_381\n        /* \"#utility.yul\":21632:21634   */\n      0x2d\n        /* \"#utility.yul\":21627:21630   */\n      dup4\n        /* \"#utility.yul\":21568:21635   */\n      tag_167\n      jump\t// in\n    tag_381:\n        /* \"#utility.yul\":21561:21635   */\n      swap2\n      pop\n        /* \"#utility.yul\":21644:21737   */\n      tag_382\n        /* \"#utility.yul\":21733:21736   */\n      dup3\n        /* \"#utility.yul\":21644:21737   */\n      tag_168\n      jump\t// in\n    tag_382:\n        /* \"#utility.yul\":21762:21764   */\n      0x40\n        /* \"#utility.yul\":21757:21760   */\n      dup3\n        /* \"#utility.yul\":21753:21765   */\n      add\n        /* \"#utility.yul\":21746:21765   */\n      swap1\n      pop\n        /* \"#utility.yul\":21405:21771   */\n      swap2\n      swap1\n      pop\n      jump\t// out\n        /* \"#utility.yul\":21777:22196   */\n    tag_67:\n        /* \"#utility.yul\":21943:21947   */\n      0x00\n        /* \"#utility.yul\":21981:21983   */\n      0x20\n        /* \"#utility.yul\":21970:21979   */\n      dup3\n        /* \"#utility.yul\":21966:21984   */\n      add\n        /* \"#utility.yul\":21958:21984   */\n      swap1\n      pop\n        /* \"#utility.yul\":22030:22039   */\n      dup2\n        /* \"#utility.yul\":22024:22028   */\n      dup2\n        /* \"#utility.yul\":22020:22040   */\n      sub\n        /* \"#utility.yul\":22016:22017   */\n      0x00\n        /* \"#utility.yul\":22005:22014   */\n      dup4\n        /* \"#utility.yul\":22001:22018   */\n      add\n        /* \"#utility.yul\":21994:22041   */\n      mstore\n        /* \"#utility.yul\":22058:22189   */\n      tag_384\n        /* \"#utility.yul\":22184:22188   */\n      dup2\n        /* \"#utility.yul\":22058:22189   */\n      tag_169\n      jump\t// in\n    tag_384:\n        /* \"#utility.yul\":22050:22189   */\n      swap1\n      pop\n        /* \"#utility.yul\":21777:22196   */\n      swap2\n      swap1\n      pop\n      jump\t// out\n        /* \"#utility.yul\":22202:22427   */\n    tag_170:\n        /* \"#utility.yul\":22342:22376   */\n      0x4f776e61626c653a206e6577206f776e657220697320746865207a65726f2061\n        /* \"#utility.yul\":22338:22339   */\n      0x00\n        /* \"#utility.yul\":22330:22336   */\n      dup3\n        /* \"#utility.yul\":22326:22340   */\n      add\n        /* \"#utility.yul\":22319:22377   */\n      mstore\n        /* \"#utility.yul\":22411:22419   */\n      0x6464726573730000000000000000000000000000000000000000000000000000\n        /* \"#utility.yul\":22406:22408   */\n      0x20\n        /* \"#utility.yul\":22398:22404   */\n      dup3\n        /* \"#utility.yul\":22394:22409   */\n      add\n        /* \"#utility.yul\":22387:22420   */\n      mstore\n        /* \"#utility.yul\":22202:22427   */\n      pop\n      jump\t// out\n        /* \"#utility.yul\":22433:22799   */\n    tag_171:\n        /* \"#utility.yul\":22575:22578   */\n      0x00\n        /* \"#utility.yul\":22596:22663   */\n      tag_387\n        /* \"#utility.yul\":22660:22662   */\n      0x26\n        /* \"#utility.yul\":22655:22658   */\n      dup4\n        /* \"#utility.yul\":22596:22663   */\n      tag_167\n      jump\t// in\n    tag_387:\n        /* \"#utility.yul\":22589:22663   */\n      swap2\n      pop\n        /* \"#utility.yul\":22672:22765   */\n      tag_388\n        /* \"#utility.yul\":22761:22764   */\n      dup3\n        /* \"#utility.yul\":22672:22765   */\n      tag_170\n      jump\t// in\n    tag_388:\n        /* \"#utility.yul\":22790:22792   */\n      0x40\n        /* \"#utility.yul\":22785:22788   */\n      dup3\n        /* \"#utility.yul\":22781:22793   */\n      add\n        /* \"#utility.yul\":22774:22793   */\n      swap1\n      pop\n        /* \"#utility.yul\":22433:22799   */\n      swap2\n      swap1\n      pop\n      jump\t// out\n        /* \"#utility.yul\":22805:23224   */\n    tag_100:\n        /* \"#utility.yul\":22971:22975   */\n      0x00\n        /* \"#utility.yul\":23009:23011   */\n      0x20\n        /* \"#utility.yul\":22998:23007   */\n      dup3\n        /* \"#utility.yul\":22994:23012   */\n      add\n        /* \"#utility.yul\":22986:23012   */\n      swap1\n      pop\n        /* \"#utility.yul\":23058:23067   */\n      dup2\n        /* \"#utility.yul\":23052:23056   */\n      dup2\n        /* \"#utility.yul\":23048:23068   */\n      sub\n        /* \"#utility.yul\":23044:23045   */\n      0x00\n        /* \"#utility.yul\":23033:23042   */\n      dup4\n        /* \"#utility.yul\":23029:23046   */\n      add\n        /* \"#utility.yul\":23022:23069   */\n      mstore\n        /* \"#utility.yul\":23086:23217   */\n      tag_390\n        /* \"#utility.yul\":23212:23216   */\n      dup2\n        /* \"#utility.yul\":23086:23217   */\n      tag_171\n      jump\t// in\n    tag_390:\n        /* \"#utility.yul\":23078:23217   */\n      swap1\n      pop\n        /* \"#utility.yul\":22805:23224   */\n      swap2\n      swap1\n      pop\n      jump\t// out\n        /* \"#utility.yul\":23230:23412   */\n    tag_172:\n        /* \"#utility.yul\":23370:23404   */\n      0x4f776e61626c653a2063616c6c6572206973206e6f7420746865206f776e6572\n        /* \"#utility.yul\":23366:23367   */\n      0x00\n        /* \"#utility.yul\":23358:23364   */\n      dup3\n        /* \"#utility.yul\":23354:23368   */\n      add\n        /* \"#utility.yul\":23347:23405   */\n      mstore\n        /* \"#utility.yul\":23230:23412   */\n      pop\n      jump\t// out\n        /* \"#utility.yul\":23418:23784   */\n    tag_173:\n        /* \"#utility.yul\":23560:23563   */\n      0x00\n        /* \"#utility.yul\":23581:23648   */\n      tag_393\n        /* \"#utility.yul\":23645:23647   */\n      0x20\n        /* \"#utility.yul\":23640:23643   */\n      dup4\n        /* \"#utility.yul\":23581:23648   */\n      tag_167\n      jump\t// in\n    tag_393:\n        /* \"#utility.yul\":23574:23648   */\n      swap2\n      pop\n        /* \"#utility.yul\":23657:23750   */\n      tag_394\n        /* \"#utility.yul\":23746:23749   */\n      dup3\n        /* \"#utility.yul\":23657:23750   */\n      tag_172\n      jump\t// in\n    tag_394:\n        /* \"#utility.yul\":23775:23777   */\n      0x20\n        /* \"#utility.yul\":23770:23773   */\n      dup3\n        /* \"#utility.yul\":23766:23778   */\n      add\n        /* \"#utility.yul\":23759:23778   */\n      swap1\n      pop\n        /* \"#utility.yul\":23418:23784   */\n      swap2\n      swap1\n      pop\n      jump\t// out\n        /* \"#utility.yul\":23790:24209   */\n    tag_107:\n        /* \"#utility.yul\":23956:23960   */\n      0x00\n        /* \"#utility.yul\":23994:23996   */\n      0x20\n        /* \"#utility.yul\":23983:23992   */\n      dup3\n        /* \"#utility.yul\":23979:23997   */\n      add\n        /* \"#utility.yul\":23971:23997   */\n      swap1\n      pop\n        /* \"#utility.yul\":24043:24052   */\n      dup2\n        /* \"#utility.yul\":24037:24041   */\n      dup2\n        /* \"#utility.yul\":24033:24053   */\n      sub\n        /* \"#utility.yul\":24029:24030   */\n      0x00\n        /* \"#utility.yul\":24018:24027   */\n      dup4\n        /* \"#utility.yul\":24014:24031   */\n      add\n        /* \"#utility.yul\":24007:24054   */\n      mstore\n        /* \"#utility.yul\":24071:24202   */\n      tag_396\n        /* \"#utility.yul\":24197:24201   */\n      dup2\n        /* \"#utility.yul\":24071:24202   */\n      tag_173\n      jump\t// in\n    tag_396:\n        /* \"#utility.yul\":24063:24202   */\n      swap1\n      pop\n        /* \"#utility.yul\":23790:24209   */\n      swap2\n      swap1\n      pop\n      jump\t// out\n\n    auxdata: 0xa2646970667358221220a19f8b180f032a3c4ac2ea58fb3d1a8faea8e2d1e62f8fdc9a4dae12e2db1c9b64736f6c63430008110033\n}\n",
				"bytecode": {
					"linkReferences": {},
					"object": "60806040523480156200001157600080fd5b50604051620016513803806200165183398181016040528101906200003791906200012b565b80336000806101000a81548173ffffffffffffffffffffffffffffffffffffffff021916908373ffffffffffffffffffffffffffffffffffffffff16021790555080600160006101000a81548173ffffffffffffffffffffffffffffffffffffffff021916908373ffffffffffffffffffffffffffffffffffffffff16021790555050506200015d565b600080fd5b600073ffffffffffffffffffffffffffffffffffffffff82169050919050565b6000620000f382620000c6565b9050919050565b6200010581620000e6565b81146200011157600080fd5b50565b6000815190506200012581620000fa565b92915050565b600060208284031215620001445762000143620000c1565b5b6000620001548482850162000114565b91505092915050565b6114e4806200016d6000396000f3fe608060405234801561001057600080fd5b50600436106100885760003560e01c80638da5cb5b1161005b5780638da5cb5b146100ef578063b34e97e81461010d578063cef6b0861461012b578063f2fde38b1461014957610088565b80632a213fb81461008d57806347531df8146100ab5780637de60fb9146100c957806383197ef0146100e5575b600080fd5b610095610165565b6040516100a291906108c5565b60405180910390f35b6100b3610285565b6040516100c09190610b45565b60405180910390f35b6100e360048036038101906100de9190610cdc565b61032a565b005b6100ed61045e565b005b6100f761047f565b6040516101049190610da6565b60405180910390f35b6101156104a8565b6040516101229190610e6b565b60405180910390f35b610133610669565b6040516101409190610eec565b60405180910390f35b610163600480360381019061015e9190610f33565b61068f565b005b600080600160009054906101000a900473ffffffffffffffffffffffffffffffffffffffff1673ffffffffffffffffffffffffffffffffffffffff166347531df86040518163ffffffff1660e01b8152600401600060405180830381865afa1580156101d5573d6000803e3d6000fd5b505050506040513d6000823e3d601f19601f820116820180604052508101906101fe919061121e565b905060005b815181101561027b573373ffffffffffffffffffffffffffffffffffffffff1682828151811061023657610235611267565b5b60200260200101516080015173ffffffffffffffffffffffffffffffffffffffff160361026857600192505050610282565b8080610273906112c5565b915050610203565b5060009150505b90565b606061028f610712565b600160009054906101000a900473ffffffffffffffffffffffffffffffffffffffff1673ffffffffffffffffffffffffffffffffffffffff166347531df86040518163ffffffff1660e01b8152600401600060405180830381865afa1580156102fc573d6000803e3d6000fd5b505050506040513d6000823e3d601f19601f82011682018060405250810190610325919061121e565b905090565b610332610165565b15610372576040517f08c379a000000000000000000000000000000000000000000000000000000000815260040161036990611390565b60405180910390fd5b60006040518060e00160405280600081526020018681526020018581526020018481526020016103a0610789565b73ffffffffffffffffffffffffffffffffffffffff168152602001838152602001600115158152509050600160009054906101000a900473ffffffffffffffffffffffffffffffffffffffff1673ffffffffffffffffffffffffffffffffffffffff166351c2bed1826040518263ffffffff1660e01b81526004016104259190610e6b565b600060405180830381600087803b15801561043f57600080fd5b505af1158015610453573d6000803e3d6000fd5b505050505050505050565b610466610712565b3073ffffffffffffffffffffffffffffffffffffffff16ff5b60008060009054906101000a900473ffffffffffffffffffffffffffffffffffffffff16905090565b6104b0610855565b6000600160009054906101000a900473ffffffffffffffffffffffffffffffffffffffff1673ffffffffffffffffffffffffffffffffffffffff166347531df86040518163ffffffff1660e01b8152600401600060405180830381865afa15801561051f573d6000803e3d6000fd5b505050506040513d6000823e3d601f19601f82011682018060405250810190610548919061121e565b905060005b81518110156105e55761055e610789565b73ffffffffffffffffffffffffffffffffffffffff1682828151811061058757610586611267565b5b60200260200101516080015173ffffffffffffffffffffffffffffffffffffffff16036105d2578181815181106105c1576105c0611267565b5b602002602001015192505050610666565b80806105dd906112c5565b91505061054d565b506040518060e0016040528060008152602001604051806020016040528060008152508152602001604051806020016040528060008152508152602001604051806020016040528060008152508152602001600073ffffffffffffffffffffffffffffffffffffffff16815260200160008152602001600015158152509150505b90565b600160009054906101000a900473ffffffffffffffffffffffffffffffffffffffff1681565b610697610712565b600073ffffffffffffffffffffffffffffffffffffffff168173ffffffffffffffffffffffffffffffffffffffff1603610706576040517f08c379a00000000000000000000000000000000000000000000000000000000081526004016106fd90611422565b60405180910390fd5b61070f81610791565b50565b3373ffffffffffffffffffffffffffffffffffffffff1661073161047f565b73ffffffffffffffffffffffffffffffffffffffff1614610787576040517f08c379a000000000000000000000000000000000000000000000000000000000815260040161077e9061148e565b60405180910390fd5b565b600033905090565b60008060009054906101000a900473ffffffffffffffffffffffffffffffffffffffff169050816000806101000a81548173ffffffffffffffffffffffffffffffffffffffff021916908373ffffffffffffffffffffffffffffffffffffffff1602179055508173ffffffffffffffffffffffffffffffffffffffff168173ffffffffffffffffffffffffffffffffffffffff167f8be0079c531659141344cd1fd0a4f28419497f9722a3daafe3b4186f6b6457e060405160405180910390a35050565b6040518060e0016040528060008152602001606081526020016060815260200160608152602001600073ffffffffffffffffffffffffffffffffffffffff168152602001600081526020016000151581525090565b60008115159050919050565b6108bf816108aa565b82525050565b60006020820190506108da60008301846108b6565b92915050565b600081519050919050565b600082825260208201905092915050565b6000819050602082019050919050565b6000819050919050565b61091f8161090c565b82525050565b600081519050919050565b600082825260208201905092915050565b60005b8381101561095f578082015181840152602081019050610944565b60008484015250505050565b6000601f19601f8301169050919050565b600061098782610925565b6109918185610930565b93506109a1818560208601610941565b6109aa8161096b565b840191505092915050565b600073ffffffffffffffffffffffffffffffffffffffff82169050919050565b60006109e0826109b5565b9050919050565b6109f0816109d5565b82525050565b6109ff816108aa565b82525050565b600060e083016000830151610a1d6000860182610916565b5060208301518482036020860152610a35828261097c565b91505060408301518482036040860152610a4f828261097c565b91505060608301518482036060860152610a69828261097c565b9150506080830151610a7e60808601826109e7565b5060a0830151610a9160a0860182610916565b5060c0830151610aa460c08601826109f6565b508091505092915050565b6000610abb8383610a05565b905092915050565b6000602082019050919050565b6000610adb826108e0565b610ae581856108eb565b935083602082028501610af7856108fc565b8060005b85811015610b335784840389528151610b148582610aaf565b9450610b1f83610ac3565b925060208a01995050600181019050610afb565b50829750879550505050505092915050565b60006020820190508181036000830152610b5f8184610ad0565b905092915050565b6000604051905090565b600080fd5b600080fd5b600080fd5b600080fd5b7f4e487b7100000000000000000000000000000000000000000000000000000000600052604160045260246000fd5b610bbd8261096b565b810181811067ffffffffffffffff82111715610bdc57610bdb610b85565b5b80604052505050565b6000610bef610b67565b9050610bfb8282610bb4565b919050565b600067ffffffffffffffff821115610c1b57610c1a610b85565b5b610c248261096b565b9050602081019050919050565b82818337600083830152505050565b6000610c53610c4e84610c00565b610be5565b905082815260208101848484011115610c6f57610c6e610b80565b5b610c7a848285610c31565b509392505050565b600082601f830112610c9757610c96610b7b565b5b8135610ca7848260208601610c40565b91505092915050565b610cb98161090c565b8114610cc457600080fd5b50565b600081359050610cd681610cb0565b92915050565b60008060008060808587031215610cf657610cf5610b71565b5b600085013567ffffffffffffffff811115610d1457610d13610b76565b5b610d2087828801610c82565b945050602085013567ffffffffffffffff811115610d4157610d40610b76565b5b610d4d87828801610c82565b935050604085013567ffffffffffffffff811115610d6e57610d6d610b76565b5b610d7a87828801610c82565b9250506060610d8b87828801610cc7565b91505092959194509250565b610da0816109d5565b82525050565b6000602082019050610dbb6000830184610d97565b92915050565b600060e083016000830151610dd96000860182610916565b5060208301518482036020860152610df1828261097c565b91505060408301518482036040860152610e0b828261097c565b91505060608301518482036060860152610e25828261097c565b9150506080830151610e3a60808601826109e7565b5060a0830151610e4d60a0860182610916565b5060c0830151610e6060c08601826109f6565b508091505092915050565b60006020820190508181036000830152610e858184610dc1565b905092915050565b6000819050919050565b6000610eb2610ead610ea8846109b5565b610e8d565b6109b5565b9050919050565b6000610ec482610e97565b9050919050565b6000610ed682610eb9565b9050919050565b610ee681610ecb565b82525050565b6000602082019050610f016000830184610edd565b92915050565b610f10816109d5565b8114610f1b57600080fd5b50565b600081359050610f2d81610f07565b92915050565b600060208284031215610f4957610f48610b71565b5b6000610f5784828501610f1e565b91505092915050565b600067ffffffffffffffff821115610f7b57610f7a610b85565b5b602082029050602081019050919050565b600080fd5b600080fd5b600080fd5b600081519050610faa81610cb0565b92915050565b6000610fc3610fbe84610c00565b610be5565b905082815260208101848484011115610fdf57610fde610b80565b5b610fea848285610941565b509392505050565b600082601f83011261100757611006610b7b565b5b8151611017848260208601610fb0565b91505092915050565b60008151905061102f81610f07565b92915050565b61103e816108aa565b811461104957600080fd5b50565b60008151905061105b81611035565b92915050565b600060e0828403121561107757611076610f91565b5b61108160e0610be5565b9050600061109184828501610f9b565b600083015250602082015167ffffffffffffffff8111156110b5576110b4610f96565b5b6110c184828501610ff2565b602083015250604082015167ffffffffffffffff8111156110e5576110e4610f96565b5b6110f184828501610ff2565b604083015250606082015167ffffffffffffffff81111561111557611114610f96565b5b61112184828501610ff2565b606083015250608061113584828501611020565b60808301525060a061114984828501610f9b565b60a08301525060c061115d8482850161104c565b60c08301525092915050565b600061117c61117784610f60565b610be5565b9050808382526020820190506020840283018581111561119f5761119e610f8c565b5b835b818110156111e657805167ffffffffffffffff8111156111c4576111c3610b7b565b5b8086016111d18982611061565b855260208501945050506020810190506111a1565b5050509392505050565b600082601f83011261120557611204610b7b565b5b8151611215848260208601611169565b91505092915050565b60006020828403121561123457611233610b71565b5b600082015167ffffffffffffffff81111561125257611251610b76565b5b61125e848285016111f0565b91505092915050565b7f4e487b7100000000000000000000000000000000000000000000000000000000600052603260045260246000fd5b7f4e487b7100000000000000000000000000000000000000000000000000000000600052601160045260246000fd5b60006112d08261090c565b91507fffffffffffffffffffffffffffffffffffffffffffffffffffffffffffffffff820361130257611301611296565b5b600182019050919050565b600082825260208201905092915050565b7f557365724461746162617365437572736f723a203330303a20206f6e6c79206e60008201527f6f74206578697374207573657200000000000000000000000000000000000000602082015250565b600061137a602d8361130d565b91506113858261131e565b604082019050919050565b600060208201905081810360008301526113a98161136d565b9050919050565b7f4f776e61626c653a206e6577206f776e657220697320746865207a65726f206160008201527f6464726573730000000000000000000000000000000000000000000000000000602082015250565b600061140c60268361130d565b9150611417826113b0565b604082019050919050565b6000602082019050818103600083015261143b816113ff565b9050919050565b7f4f776e61626c653a2063616c6c6572206973206e6f7420746865206f776e6572600082015250565b600061147860208361130d565b915061148382611442565b602082019050919050565b600060208201905081810360008301526114a78161146b565b905091905056fea2646970667358221220a19f8b180f032a3c4ac2ea58fb3d1a8faea8e2d1e62f8fdc9a4dae12e2db1c9b64736f6c63430008110033",
					"opcodes": "PUSH1 0x80 PUSH1 0x40 MSTORE CALLVALUE DUP1 ISZERO PUSH3 0x11 JUMPI PUSH1 0x0 DUP1 REVERT JUMPDEST POP PUSH1 0x40 MLOAD PUSH3 0x1651 CODESIZE SUB DUP1 PUSH3 0x1651 DUP4 CODECOPY DUP2 DUP2 ADD PUSH1 0x40 MSTORE DUP2 ADD SWAP1 PUSH3 0x37 SWAP2 SWAP1 PUSH3 0x12B JUMP JUMPDEST DUP1 CALLER PUSH1 0x0 DUP1 PUSH2 0x100 EXP DUP2 SLOAD DUP2 PUSH20 0xFFFFFFFFFFFFFFFFFFFFFFFFFFFFFFFFFFFFFFFF MUL NOT AND SWAP1 DUP4 PUSH20 0xFFFFFFFFFFFFFFFFFFFFFFFFFFFFFFFFFFFFFFFF AND MUL OR SWAP1 SSTORE POP DUP1 PUSH1 0x1 PUSH1 0x0 PUSH2 0x100 EXP DUP2 SLOAD DUP2 PUSH20 0xFFFFFFFFFFFFFFFFFFFFFFFFFFFFFFFFFFFFFFFF MUL NOT AND SWAP1 DUP4 PUSH20 0xFFFFFFFFFFFFFFFFFFFFFFFFFFFFFFFFFFFFFFFF AND MUL OR SWAP1 SSTORE POP POP POP PUSH3 0x15D JUMP JUMPDEST PUSH1 0x0 DUP1 REVERT JUMPDEST PUSH1 0x0 PUSH20 0xFFFFFFFFFFFFFFFFFFFFFFFFFFFFFFFFFFFFFFFF DUP3 AND SWAP1 POP SWAP2 SWAP1 POP JUMP JUMPDEST PUSH1 0x0 PUSH3 0xF3 DUP3 PUSH3 0xC6 JUMP JUMPDEST SWAP1 POP SWAP2 SWAP1 POP JUMP JUMPDEST PUSH3 0x105 DUP2 PUSH3 0xE6 JUMP JUMPDEST DUP2 EQ PUSH3 0x111 JUMPI PUSH1 0x0 DUP1 REVERT JUMPDEST POP JUMP JUMPDEST PUSH1 0x0 DUP2 MLOAD SWAP1 POP PUSH3 0x125 DUP2 PUSH3 0xFA JUMP JUMPDEST SWAP3 SWAP2 POP POP JUMP JUMPDEST PUSH1 0x0 PUSH1 0x20 DUP3 DUP5 SUB SLT ISZERO PUSH3 0x144 JUMPI PUSH3 0x143 PUSH3 0xC1 JUMP JUMPDEST JUMPDEST PUSH1 0x0 PUSH3 0x154 DUP5 DUP3 DUP6 ADD PUSH3 0x114 JUMP JUMPDEST SWAP2 POP POP SWAP3 SWAP2 POP POP JUMP JUMPDEST PUSH2 0x14E4 DUP1 PUSH3 0x16D PUSH1 0x0 CODECOPY PUSH1 0x0 RETURN INVALID PUSH1 0x80 PUSH1 0x40 MSTORE CALLVALUE DUP1 ISZERO PUSH2 0x10 JUMPI PUSH1 0x0 DUP1 REVERT JUMPDEST POP PUSH1 0x4 CALLDATASIZE LT PUSH2 0x88 JUMPI PUSH1 0x0 CALLDATALOAD PUSH1 0xE0 SHR DUP1 PUSH4 0x8DA5CB5B GT PUSH2 0x5B JUMPI DUP1 PUSH4 0x8DA5CB5B EQ PUSH2 0xEF JUMPI DUP1 PUSH4 0xB34E97E8 EQ PUSH2 0x10D JUMPI DUP1 PUSH4 0xCEF6B086 EQ PUSH2 0x12B JUMPI DUP1 PUSH4 0xF2FDE38B EQ PUSH2 0x149 JUMPI PUSH2 0x88 JUMP JUMPDEST DUP1 PUSH4 0x2A213FB8 EQ PUSH2 0x8D JUMPI DUP1 PUSH4 0x47531DF8 EQ PUSH2 0xAB JUMPI DUP1 PUSH4 0x7DE60FB9 EQ PUSH2 0xC9 JUMPI DUP1 PUSH4 0x83197EF0 EQ PUSH2 0xE5 JUMPI JUMPDEST PUSH1 0x0 DUP1 REVERT JUMPDEST PUSH2 0x95 PUSH2 0x165 JUMP JUMPDEST PUSH1 0x40 MLOAD PUSH2 0xA2 SWAP2 SWAP1 PUSH2 0x8C5 JUMP JUMPDEST PUSH1 0x40 MLOAD DUP1 SWAP2 SUB SWAP1 RETURN JUMPDEST PUSH2 0xB3 PUSH2 0x285 JUMP JUMPDEST PUSH1 0x40 MLOAD PUSH2 0xC0 SWAP2 SWAP1 PUSH2 0xB45 JUMP JUMPDEST PUSH1 0x40 MLOAD DUP1 SWAP2 SUB SWAP1 RETURN JUMPDEST PUSH2 0xE3 PUSH1 0x4 DUP1 CALLDATASIZE SUB DUP2 ADD SWAP1 PUSH2 0xDE SWAP2 SWAP1 PUSH2 0xCDC JUMP JUMPDEST PUSH2 0x32A JUMP JUMPDEST STOP JUMPDEST PUSH2 0xED PUSH2 0x45E JUMP JUMPDEST STOP JUMPDEST PUSH2 0xF7 PUSH2 0x47F JUMP JUMPDEST PUSH1 0x40 MLOAD PUSH2 0x104 SWAP2 SWAP1 PUSH2 0xDA6 JUMP JUMPDEST PUSH1 0x40 MLOAD DUP1 SWAP2 SUB SWAP1 RETURN JUMPDEST PUSH2 0x115 PUSH2 0x4A8 JUMP JUMPDEST PUSH1 0x40 MLOAD PUSH2 0x122 SWAP2 SWAP1 PUSH2 0xE6B JUMP JUMPDEST PUSH1 0x40 MLOAD DUP1 SWAP2 SUB SWAP1 RETURN JUMPDEST PUSH2 0x133 PUSH2 0x669 JUMP JUMPDEST PUSH1 0x40 MLOAD PUSH2 0x140 SWAP2 SWAP1 PUSH2 0xEEC JUMP JUMPDEST PUSH1 0x40 MLOAD DUP1 SWAP2 SUB SWAP1 RETURN JUMPDEST PUSH2 0x163 PUSH1 0x4 DUP1 CALLDATASIZE SUB DUP2 ADD SWAP1 PUSH2 0x15E SWAP2 SWAP1 PUSH2 0xF33 JUMP JUMPDEST PUSH2 0x68F JUMP JUMPDEST STOP JUMPDEST PUSH1 0x0 DUP1 PUSH1 0x1 PUSH1 0x0 SWAP1 SLOAD SWAP1 PUSH2 0x100 EXP SWAP1 DIV PUSH20 0xFFFFFFFFFFFFFFFFFFFFFFFFFFFFFFFFFFFFFFFF AND PUSH20 0xFFFFFFFFFFFFFFFFFFFFFFFFFFFFFFFFFFFFFFFF AND PUSH4 0x47531DF8 PUSH1 0x40 MLOAD DUP2 PUSH4 0xFFFFFFFF AND PUSH1 0xE0 SHL DUP2 MSTORE PUSH1 0x4 ADD PUSH1 0x0 PUSH1 0x40 MLOAD DUP1 DUP4 SUB DUP2 DUP7 GAS STATICCALL ISZERO DUP1 ISZERO PUSH2 0x1D5 JUMPI RETURNDATASIZE PUSH1 0x0 DUP1 RETURNDATACOPY RETURNDATASIZE PUSH1 0x0 REVERT JUMPDEST POP POP POP POP PUSH1 0x40 MLOAD RETURNDATASIZE PUSH1 0x0 DUP3 RETURNDATACOPY RETURNDATASIZE PUSH1 0x1F NOT PUSH1 0x1F DUP3 ADD AND DUP3 ADD DUP1 PUSH1 0x40 MSTORE POP DUP2 ADD SWAP1 PUSH2 0x1FE SWAP2 SWAP1 PUSH2 0x121E JUMP JUMPDEST SWAP1 POP PUSH1 0x0 JUMPDEST DUP2 MLOAD DUP2 LT ISZERO PUSH2 0x27B JUMPI CALLER PUSH20 0xFFFFFFFFFFFFFFFFFFFFFFFFFFFFFFFFFFFFFFFF AND DUP3 DUP3 DUP2 MLOAD DUP2 LT PUSH2 0x236 JUMPI PUSH2 0x235 PUSH2 0x1267 JUMP JUMPDEST JUMPDEST PUSH1 0x20 MUL PUSH1 0x20 ADD ADD MLOAD PUSH1 0x80 ADD MLOAD PUSH20 0xFFFFFFFFFFFFFFFFFFFFFFFFFFFFFFFFFFFFFFFF AND SUB PUSH2 0x268 JUMPI PUSH1 0x1 SWAP3 POP POP POP PUSH2 0x282 JUMP JUMPDEST DUP1 DUP1 PUSH2 0x273 SWAP1 PUSH2 0x12C5 JUMP JUMPDEST SWAP2 POP POP PUSH2 0x203 JUMP JUMPDEST POP PUSH1 0x0 SWAP2 POP POP JUMPDEST SWAP1 JUMP JUMPDEST PUSH1 0x60 PUSH2 0x28F PUSH2 0x712 JUMP JUMPDEST PUSH1 0x1 PUSH1 0x0 SWAP1 SLOAD SWAP1 PUSH2 0x100 EXP SWAP1 DIV PUSH20 0xFFFFFFFFFFFFFFFFFFFFFFFFFFFFFFFFFFFFFFFF AND PUSH20 0xFFFFFFFFFFFFFFFFFFFFFFFFFFFFFFFFFFFFFFFF AND PUSH4 0x47531DF8 PUSH1 0x40 MLOAD DUP2 PUSH4 0xFFFFFFFF AND PUSH1 0xE0 SHL DUP2 MSTORE PUSH1 0x4 ADD PUSH1 0x0 PUSH1 0x40 MLOAD DUP1 DUP4 SUB DUP2 DUP7 GAS STATICCALL ISZERO DUP1 ISZERO PUSH2 0x2FC JUMPI RETURNDATASIZE PUSH1 0x0 DUP1 RETURNDATACOPY RETURNDATASIZE PUSH1 0x0 REVERT JUMPDEST POP POP POP POP PUSH1 0x40 MLOAD RETURNDATASIZE PUSH1 0x0 DUP3 RETURNDATACOPY RETURNDATASIZE PUSH1 0x1F NOT PUSH1 0x1F DUP3 ADD AND DUP3 ADD DUP1 PUSH1 0x40 MSTORE POP DUP2 ADD SWAP1 PUSH2 0x325 SWAP2 SWAP1 PUSH2 0x121E JUMP JUMPDEST SWAP1 POP SWAP1 JUMP JUMPDEST PUSH2 0x332 PUSH2 0x165 JUMP JUMPDEST ISZERO PUSH2 0x372 JUMPI PUSH1 0x40 MLOAD PUSH32 0x8C379A000000000000000000000000000000000000000000000000000000000 DUP2 MSTORE PUSH1 0x4 ADD PUSH2 0x369 SWAP1 PUSH2 0x1390 JUMP JUMPDEST PUSH1 0x40 MLOAD DUP1 SWAP2 SUB SWAP1 REVERT JUMPDEST PUSH1 0x0 PUSH1 0x40 MLOAD DUP1 PUSH1 0xE0 ADD PUSH1 0x40 MSTORE DUP1 PUSH1 0x0 DUP2 MSTORE PUSH1 0x20 ADD DUP7 DUP2 MSTORE PUSH1 0x20 ADD DUP6 DUP2 MSTORE PUSH1 0x20 ADD DUP5 DUP2 MSTORE PUSH1 0x20 ADD PUSH2 0x3A0 PUSH2 0x789 JUMP JUMPDEST PUSH20 0xFFFFFFFFFFFFFFFFFFFFFFFFFFFFFFFFFFFFFFFF AND DUP2 MSTORE PUSH1 0x20 ADD DUP4 DUP2 MSTORE PUSH1 0x20 ADD PUSH1 0x1 ISZERO ISZERO DUP2 MSTORE POP SWAP1 POP PUSH1 0x1 PUSH1 0x0 SWAP1 SLOAD SWAP1 PUSH2 0x100 EXP SWAP1 DIV PUSH20 0xFFFFFFFFFFFFFFFFFFFFFFFFFFFFFFFFFFFFFFFF AND PUSH20 0xFFFFFFFFFFFFFFFFFFFFFFFFFFFFFFFFFFFFFFFF AND PUSH4 0x51C2BED1 DUP3 PUSH1 0x40 MLOAD DUP3 PUSH4 0xFFFFFFFF AND PUSH1 0xE0 SHL DUP2 MSTORE PUSH1 0x4 ADD PUSH2 0x425 SWAP2 SWAP1 PUSH2 0xE6B JUMP JUMPDEST PUSH1 0x0 PUSH1 0x40 MLOAD DUP1 DUP4 SUB DUP2 PUSH1 0x0 DUP8 DUP1 EXTCODESIZE ISZERO DUP1 ISZERO PUSH2 0x43F JUMPI PUSH1 0x0 DUP1 REVERT JUMPDEST POP GAS CALL ISZERO DUP1 ISZERO PUSH2 0x453 JUMPI RETURNDATASIZE PUSH1 0x0 DUP1 RETURNDATACOPY RETURNDATASIZE PUSH1 0x0 REVERT JUMPDEST POP POP POP POP POP POP POP POP POP JUMP JUMPDEST PUSH2 0x466 PUSH2 0x712 JUMP JUMPDEST ADDRESS PUSH20 0xFFFFFFFFFFFFFFFFFFFFFFFFFFFFFFFFFFFFFFFF AND SELFDESTRUCT JUMPDEST PUSH1 0x0 DUP1 PUSH1 0x0 SWAP1 SLOAD SWAP1 PUSH2 0x100 EXP SWAP1 DIV PUSH20 0xFFFFFFFFFFFFFFFFFFFFFFFFFFFFFFFFFFFFFFFF AND SWAP1 POP SWAP1 JUMP JUMPDEST PUSH2 0x4B0 PUSH2 0x855 JUMP JUMPDEST PUSH1 0x0 PUSH1 0x1 PUSH1 0x0 SWAP1 SLOAD SWAP1 PUSH2 0x100 EXP SWAP1 DIV PUSH20 0xFFFFFFFFFFFFFFFFFFFFFFFFFFFFFFFFFFFFFFFF AND PUSH20 0xFFFFFFFFFFFFFFFFFFFFFFFFFFFFFFFFFFFFFFFF AND PUSH4 0x47531DF8 PUSH1 0x40 MLOAD DUP2 PUSH4 0xFFFFFFFF AND PUSH1 0xE0 SHL DUP2 MSTORE PUSH1 0x4 ADD PUSH1 0x0 PUSH1 0x40 MLOAD DUP1 DUP4 SUB DUP2 DUP7 GAS STATICCALL ISZERO DUP1 ISZERO PUSH2 0x51F JUMPI RETURNDATASIZE PUSH1 0x0 DUP1 RETURNDATACOPY RETURNDATASIZE PUSH1 0x0 REVERT JUMPDEST POP POP POP POP PUSH1 0x40 MLOAD RETURNDATASIZE PUSH1 0x0 DUP3 RETURNDATACOPY RETURNDATASIZE PUSH1 0x1F NOT PUSH1 0x1F DUP3 ADD AND DUP3 ADD DUP1 PUSH1 0x40 MSTORE POP DUP2 ADD SWAP1 PUSH2 0x548 SWAP2 SWAP1 PUSH2 0x121E JUMP JUMPDEST SWAP1 POP PUSH1 0x0 JUMPDEST DUP2 MLOAD DUP2 LT ISZERO PUSH2 0x5E5 JUMPI PUSH2 0x55E PUSH2 0x789 JUMP JUMPDEST PUSH20 0xFFFFFFFFFFFFFFFFFFFFFFFFFFFFFFFFFFFFFFFF AND DUP3 DUP3 DUP2 MLOAD DUP2 LT PUSH2 0x587 JUMPI PUSH2 0x586 PUSH2 0x1267 JUMP JUMPDEST JUMPDEST PUSH1 0x20 MUL PUSH1 0x20 ADD ADD MLOAD PUSH1 0x80 ADD MLOAD PUSH20 0xFFFFFFFFFFFFFFFFFFFFFFFFFFFFFFFFFFFFFFFF AND SUB PUSH2 0x5D2 JUMPI DUP2 DUP2 DUP2 MLOAD DUP2 LT PUSH2 0x5C1 JUMPI PUSH2 0x5C0 PUSH2 0x1267 JUMP JUMPDEST JUMPDEST PUSH1 0x20 MUL PUSH1 0x20 ADD ADD MLOAD SWAP3 POP POP POP PUSH2 0x666 JUMP JUMPDEST DUP1 DUP1 PUSH2 0x5DD SWAP1 PUSH2 0x12C5 JUMP JUMPDEST SWAP2 POP POP PUSH2 0x54D JUMP JUMPDEST POP PUSH1 0x40 MLOAD DUP1 PUSH1 0xE0 ADD PUSH1 0x40 MSTORE DUP1 PUSH1 0x0 DUP2 MSTORE PUSH1 0x20 ADD PUSH1 0x40 MLOAD DUP1 PUSH1 0x20 ADD PUSH1 0x40 MSTORE DUP1 PUSH1 0x0 DUP2 MSTORE POP DUP2 MSTORE PUSH1 0x20 ADD PUSH1 0x40 MLOAD DUP1 PUSH1 0x20 ADD PUSH1 0x40 MSTORE DUP1 PUSH1 0x0 DUP2 MSTORE POP DUP2 MSTORE PUSH1 0x20 ADD PUSH1 0x40 MLOAD DUP1 PUSH1 0x20 ADD PUSH1 0x40 MSTORE DUP1 PUSH1 0x0 DUP2 MSTORE POP DUP2 MSTORE PUSH1 0x20 ADD PUSH1 0x0 PUSH20 0xFFFFFFFFFFFFFFFFFFFFFFFFFFFFFFFFFFFFFFFF AND DUP2 MSTORE PUSH1 0x20 ADD PUSH1 0x0 DUP2 MSTORE PUSH1 0x20 ADD PUSH1 0x0 ISZERO ISZERO DUP2 MSTORE POP SWAP2 POP POP JUMPDEST SWAP1 JUMP JUMPDEST PUSH1 0x1 PUSH1 0x0 SWAP1 SLOAD SWAP1 PUSH2 0x100 EXP SWAP1 DIV PUSH20 0xFFFFFFFFFFFFFFFFFFFFFFFFFFFFFFFFFFFFFFFF AND DUP2 JUMP JUMPDEST PUSH2 0x697 PUSH2 0x712 JUMP JUMPDEST PUSH1 0x0 PUSH20 0xFFFFFFFFFFFFFFFFFFFFFFFFFFFFFFFFFFFFFFFF AND DUP2 PUSH20 0xFFFFFFFFFFFFFFFFFFFFFFFFFFFFFFFFFFFFFFFF AND SUB PUSH2 0x706 JUMPI PUSH1 0x40 MLOAD PUSH32 0x8C379A000000000000000000000000000000000000000000000000000000000 DUP2 MSTORE PUSH1 0x4 ADD PUSH2 0x6FD SWAP1 PUSH2 0x1422 JUMP JUMPDEST PUSH1 0x40 MLOAD DUP1 SWAP2 SUB SWAP1 REVERT JUMPDEST PUSH2 0x70F DUP2 PUSH2 0x791 JUMP JUMPDEST POP JUMP JUMPDEST CALLER PUSH20 0xFFFFFFFFFFFFFFFFFFFFFFFFFFFFFFFFFFFFFFFF AND PUSH2 0x731 PUSH2 0x47F JUMP JUMPDEST PUSH20 0xFFFFFFFFFFFFFFFFFFFFFFFFFFFFFFFFFFFFFFFF AND EQ PUSH2 0x787 JUMPI PUSH1 0x40 MLOAD PUSH32 0x8C379A000000000000000000000000000000000000000000000000000000000 DUP2 MSTORE PUSH1 0x4 ADD PUSH2 0x77E SWAP1 PUSH2 0x148E JUMP JUMPDEST PUSH1 0x40 MLOAD DUP1 SWAP2 SUB SWAP1 REVERT JUMPDEST JUMP JUMPDEST PUSH1 0x0 CALLER SWAP1 POP SWAP1 JUMP JUMPDEST PUSH1 0x0 DUP1 PUSH1 0x0 SWAP1 SLOAD SWAP1 PUSH2 0x100 EXP SWAP1 DIV PUSH20 0xFFFFFFFFFFFFFFFFFFFFFFFFFFFFFFFFFFFFFFFF AND SWAP1 POP DUP2 PUSH1 0x0 DUP1 PUSH2 0x100 EXP DUP2 SLOAD DUP2 PUSH20 0xFFFFFFFFFFFFFFFFFFFFFFFFFFFFFFFFFFFFFFFF MUL NOT AND SWAP1 DUP4 PUSH20 0xFFFFFFFFFFFFFFFFFFFFFFFFFFFFFFFFFFFFFFFF AND MUL OR SWAP1 SSTORE POP DUP2 PUSH20 0xFFFFFFFFFFFFFFFFFFFFFFFFFFFFFFFFFFFFFFFF AND DUP2 PUSH20 0xFFFFFFFFFFFFFFFFFFFFFFFFFFFFFFFFFFFFFFFF AND PUSH32 0x8BE0079C531659141344CD1FD0A4F28419497F9722A3DAAFE3B4186F6B6457E0 PUSH1 0x40 MLOAD PUSH1 0x40 MLOAD DUP1 SWAP2 SUB SWAP1 LOG3 POP POP JUMP JUMPDEST PUSH1 0x40 MLOAD DUP1 PUSH1 0xE0 ADD PUSH1 0x40 MSTORE DUP1 PUSH1 0x0 DUP2 MSTORE PUSH1 0x20 ADD PUSH1 0x60 DUP2 MSTORE PUSH1 0x20 ADD PUSH1 0x60 DUP2 MSTORE PUSH1 0x20 ADD PUSH1 0x60 DUP2 MSTORE PUSH1 0x20 ADD PUSH1 0x0 PUSH20 0xFFFFFFFFFFFFFFFFFFFFFFFFFFFFFFFFFFFFFFFF AND DUP2 MSTORE PUSH1 0x20 ADD PUSH1 0x0 DUP2 MSTORE PUSH1 0x20 ADD PUSH1 0x0 ISZERO ISZERO DUP2 MSTORE POP SWAP1 JUMP JUMPDEST PUSH1 0x0 DUP2 ISZERO ISZERO SWAP1 POP SWAP2 SWAP1 POP JUMP JUMPDEST PUSH2 0x8BF DUP2 PUSH2 0x8AA JUMP JUMPDEST DUP3 MSTORE POP POP JUMP JUMPDEST PUSH1 0x0 PUSH1 0x20 DUP3 ADD SWAP1 POP PUSH2 0x8DA PUSH1 0x0 DUP4 ADD DUP5 PUSH2 0x8B6 JUMP JUMPDEST SWAP3 SWAP2 POP POP JUMP JUMPDEST PUSH1 0x0 DUP2 MLOAD SWAP1 POP SWAP2 SWAP1 POP JUMP JUMPDEST PUSH1 0x0 DUP3 DUP3 MSTORE PUSH1 0x20 DUP3 ADD SWAP1 POP SWAP3 SWAP2 POP POP JUMP JUMPDEST PUSH1 0x0 DUP2 SWAP1 POP PUSH1 0x20 DUP3 ADD SWAP1 POP SWAP2 SWAP1 POP JUMP JUMPDEST PUSH1 0x0 DUP2 SWAP1 POP SWAP2 SWAP1 POP JUMP JUMPDEST PUSH2 0x91F DUP2 PUSH2 0x90C JUMP JUMPDEST DUP3 MSTORE POP POP JUMP JUMPDEST PUSH1 0x0 DUP2 MLOAD SWAP1 POP SWAP2 SWAP1 POP JUMP JUMPDEST PUSH1 0x0 DUP3 DUP3 MSTORE PUSH1 0x20 DUP3 ADD SWAP1 POP SWAP3 SWAP2 POP POP JUMP JUMPDEST PUSH1 0x0 JUMPDEST DUP4 DUP2 LT ISZERO PUSH2 0x95F JUMPI DUP1 DUP3 ADD MLOAD DUP2 DUP5 ADD MSTORE PUSH1 0x20 DUP2 ADD SWAP1 POP PUSH2 0x944 JUMP JUMPDEST PUSH1 0x0 DUP5 DUP5 ADD MSTORE POP POP POP POP JUMP JUMPDEST PUSH1 0x0 PUSH1 0x1F NOT PUSH1 0x1F DUP4 ADD AND SWAP1 POP SWAP2 SWAP1 POP JUMP JUMPDEST PUSH1 0x0 PUSH2 0x987 DUP3 PUSH2 0x925 JUMP JUMPDEST PUSH2 0x991 DUP2 DUP6 PUSH2 0x930 JUMP JUMPDEST SWAP4 POP PUSH2 0x9A1 DUP2 DUP6 PUSH1 0x20 DUP7 ADD PUSH2 0x941 JUMP JUMPDEST PUSH2 0x9AA DUP2 PUSH2 0x96B JUMP JUMPDEST DUP5 ADD SWAP2 POP POP SWAP3 SWAP2 POP POP JUMP JUMPDEST PUSH1 0x0 PUSH20 0xFFFFFFFFFFFFFFFFFFFFFFFFFFFFFFFFFFFFFFFF DUP3 AND SWAP1 POP SWAP2 SWAP1 POP JUMP JUMPDEST PUSH1 0x0 PUSH2 0x9E0 DUP3 PUSH2 0x9B5 JUMP JUMPDEST SWAP1 POP SWAP2 SWAP1 POP JUMP JUMPDEST PUSH2 0x9F0 DUP2 PUSH2 0x9D5 JUMP JUMPDEST DUP3 MSTORE POP POP JUMP JUMPDEST PUSH2 0x9FF DUP2 PUSH2 0x8AA JUMP JUMPDEST DUP3 MSTORE POP POP JUMP JUMPDEST PUSH1 0x0 PUSH1 0xE0 DUP4 ADD PUSH1 0x0 DUP4 ADD MLOAD PUSH2 0xA1D PUSH1 0x0 DUP7 ADD DUP3 PUSH2 0x916 JUMP JUMPDEST POP PUSH1 0x20 DUP4 ADD MLOAD DUP5 DUP3 SUB PUSH1 0x20 DUP7 ADD MSTORE PUSH2 0xA35 DUP3 DUP3 PUSH2 0x97C JUMP JUMPDEST SWAP2 POP POP PUSH1 0x40 DUP4 ADD MLOAD DUP5 DUP3 SUB PUSH1 0x40 DUP7 ADD MSTORE PUSH2 0xA4F DUP3 DUP3 PUSH2 0x97C JUMP JUMPDEST SWAP2 POP POP PUSH1 0x60 DUP4 ADD MLOAD DUP5 DUP3 SUB PUSH1 0x60 DUP7 ADD MSTORE PUSH2 0xA69 DUP3 DUP3 PUSH2 0x97C JUMP JUMPDEST SWAP2 POP POP PUSH1 0x80 DUP4 ADD MLOAD PUSH2 0xA7E PUSH1 0x80 DUP7 ADD DUP3 PUSH2 0x9E7 JUMP JUMPDEST POP PUSH1 0xA0 DUP4 ADD MLOAD PUSH2 0xA91 PUSH1 0xA0 DUP7 ADD DUP3 PUSH2 0x916 JUMP JUMPDEST POP PUSH1 0xC0 DUP4 ADD MLOAD PUSH2 0xAA4 PUSH1 0xC0 DUP7 ADD DUP3 PUSH2 0x9F6 JUMP JUMPDEST POP DUP1 SWAP2 POP POP SWAP3 SWAP2 POP POP JUMP JUMPDEST PUSH1 0x0 PUSH2 0xABB DUP4 DUP4 PUSH2 0xA05 JUMP JUMPDEST SWAP1 POP SWAP3 SWAP2 POP POP JUMP JUMPDEST PUSH1 0x0 PUSH1 0x20 DUP3 ADD SWAP1 POP SWAP2 SWAP1 POP JUMP JUMPDEST PUSH1 0x0 PUSH2 0xADB DUP3 PUSH2 0x8E0 JUMP JUMPDEST PUSH2 0xAE5 DUP2 DUP6 PUSH2 0x8EB JUMP JUMPDEST SWAP4 POP DUP4 PUSH1 0x20 DUP3 MUL DUP6 ADD PUSH2 0xAF7 DUP6 PUSH2 0x8FC JUMP JUMPDEST DUP1 PUSH1 0x0 JUMPDEST DUP6 DUP2 LT ISZERO PUSH2 0xB33 JUMPI DUP5 DUP5 SUB DUP10 MSTORE DUP2 MLOAD PUSH2 0xB14 DUP6 DUP3 PUSH2 0xAAF JUMP JUMPDEST SWAP5 POP PUSH2 0xB1F DUP4 PUSH2 0xAC3 JUMP JUMPDEST SWAP3 POP PUSH1 0x20 DUP11 ADD SWAP10 POP POP PUSH1 0x1 DUP2 ADD SWAP1 POP PUSH2 0xAFB JUMP JUMPDEST POP DUP3 SWAP8 POP DUP8 SWAP6 POP POP POP POP POP POP SWAP3 SWAP2 POP POP JUMP JUMPDEST PUSH1 0x0 PUSH1 0x20 DUP3 ADD SWAP1 POP DUP2 DUP2 SUB PUSH1 0x0 DUP4 ADD MSTORE PUSH2 0xB5F DUP2 DUP5 PUSH2 0xAD0 JUMP JUMPDEST SWAP1 POP SWAP3 SWAP2 POP POP JUMP JUMPDEST PUSH1 0x0 PUSH1 0x40 MLOAD SWAP1 POP SWAP1 JUMP JUMPDEST PUSH1 0x0 DUP1 REVERT JUMPDEST PUSH1 0x0 DUP1 REVERT JUMPDEST PUSH1 0x0 DUP1 REVERT JUMPDEST PUSH1 0x0 DUP1 REVERT JUMPDEST PUSH32 0x4E487B7100000000000000000000000000000000000000000000000000000000 PUSH1 0x0 MSTORE PUSH1 0x41 PUSH1 0x4 MSTORE PUSH1 0x24 PUSH1 0x0 REVERT JUMPDEST PUSH2 0xBBD DUP3 PUSH2 0x96B JUMP JUMPDEST DUP2 ADD DUP2 DUP2 LT PUSH8 0xFFFFFFFFFFFFFFFF DUP3 GT OR ISZERO PUSH2 0xBDC JUMPI PUSH2 0xBDB PUSH2 0xB85 JUMP JUMPDEST JUMPDEST DUP1 PUSH1 0x40 MSTORE POP POP POP JUMP JUMPDEST PUSH1 0x0 PUSH2 0xBEF PUSH2 0xB67 JUMP JUMPDEST SWAP1 POP PUSH2 0xBFB DUP3 DUP3 PUSH2 0xBB4 JUMP JUMPDEST SWAP2 SWAP1 POP JUMP JUMPDEST PUSH1 0x0 PUSH8 0xFFFFFFFFFFFFFFFF DUP3 GT ISZERO PUSH2 0xC1B JUMPI PUSH2 0xC1A PUSH2 0xB85 JUMP JUMPDEST JUMPDEST PUSH2 0xC24 DUP3 PUSH2 0x96B JUMP JUMPDEST SWAP1 POP PUSH1 0x20 DUP2 ADD SWAP1 POP SWAP2 SWAP1 POP JUMP JUMPDEST DUP3 DUP2 DUP4 CALLDATACOPY PUSH1 0x0 DUP4 DUP4 ADD MSTORE POP POP POP JUMP JUMPDEST PUSH1 0x0 PUSH2 0xC53 PUSH2 0xC4E DUP5 PUSH2 0xC00 JUMP JUMPDEST PUSH2 0xBE5 JUMP JUMPDEST SWAP1 POP DUP3 DUP2 MSTORE PUSH1 0x20 DUP2 ADD DUP5 DUP5 DUP5 ADD GT ISZERO PUSH2 0xC6F JUMPI PUSH2 0xC6E PUSH2 0xB80 JUMP JUMPDEST JUMPDEST PUSH2 0xC7A DUP5 DUP3 DUP6 PUSH2 0xC31 JUMP JUMPDEST POP SWAP4 SWAP3 POP POP POP JUMP JUMPDEST PUSH1 0x0 DUP3 PUSH1 0x1F DUP4 ADD SLT PUSH2 0xC97 JUMPI PUSH2 0xC96 PUSH2 0xB7B JUMP JUMPDEST JUMPDEST DUP2 CALLDATALOAD PUSH2 0xCA7 DUP5 DUP3 PUSH1 0x20 DUP7 ADD PUSH2 0xC40 JUMP JUMPDEST SWAP2 POP POP SWAP3 SWAP2 POP POP JUMP JUMPDEST PUSH2 0xCB9 DUP2 PUSH2 0x90C JUMP JUMPDEST DUP2 EQ PUSH2 0xCC4 JUMPI PUSH1 0x0 DUP1 REVERT JUMPDEST POP JUMP JUMPDEST PUSH1 0x0 DUP2 CALLDATALOAD SWAP1 POP PUSH2 0xCD6 DUP2 PUSH2 0xCB0 JUMP JUMPDEST SWAP3 SWAP2 POP POP JUMP JUMPDEST PUSH1 0x0 DUP1 PUSH1 0x0 DUP1 PUSH1 0x80 DUP6 DUP8 SUB SLT ISZERO PUSH2 0xCF6 JUMPI PUSH2 0xCF5 PUSH2 0xB71 JUMP JUMPDEST JUMPDEST PUSH1 0x0 DUP6 ADD CALLDATALOAD PUSH8 0xFFFFFFFFFFFFFFFF DUP2 GT ISZERO PUSH2 0xD14 JUMPI PUSH2 0xD13 PUSH2 0xB76 JUMP JUMPDEST JUMPDEST PUSH2 0xD20 DUP8 DUP3 DUP9 ADD PUSH2 0xC82 JUMP JUMPDEST SWAP5 POP POP PUSH1 0x20 DUP6 ADD CALLDATALOAD PUSH8 0xFFFFFFFFFFFFFFFF DUP2 GT ISZERO PUSH2 0xD41 JUMPI PUSH2 0xD40 PUSH2 0xB76 JUMP JUMPDEST JUMPDEST PUSH2 0xD4D DUP8 DUP3 DUP9 ADD PUSH2 0xC82 JUMP JUMPDEST SWAP4 POP POP PUSH1 0x40 DUP6 ADD CALLDATALOAD PUSH8 0xFFFFFFFFFFFFFFFF DUP2 GT ISZERO PUSH2 0xD6E JUMPI PUSH2 0xD6D PUSH2 0xB76 JUMP JUMPDEST JUMPDEST PUSH2 0xD7A DUP8 DUP3 DUP9 ADD PUSH2 0xC82 JUMP JUMPDEST SWAP3 POP POP PUSH1 0x60 PUSH2 0xD8B DUP8 DUP3 DUP9 ADD PUSH2 0xCC7 JUMP JUMPDEST SWAP2 POP POP SWAP3 SWAP6 SWAP2 SWAP5 POP SWAP3 POP JUMP JUMPDEST PUSH2 0xDA0 DUP2 PUSH2 0x9D5 JUMP JUMPDEST DUP3 MSTORE POP POP JUMP JUMPDEST PUSH1 0x0 PUSH1 0x20 DUP3 ADD SWAP1 POP PUSH2 0xDBB PUSH1 0x0 DUP4 ADD DUP5 PUSH2 0xD97 JUMP JUMPDEST SWAP3 SWAP2 POP POP JUMP JUMPDEST PUSH1 0x0 PUSH1 0xE0 DUP4 ADD PUSH1 0x0 DUP4 ADD MLOAD PUSH2 0xDD9 PUSH1 0x0 DUP7 ADD DUP3 PUSH2 0x916 JUMP JUMPDEST POP PUSH1 0x20 DUP4 ADD MLOAD DUP5 DUP3 SUB PUSH1 0x20 DUP7 ADD MSTORE PUSH2 0xDF1 DUP3 DUP3 PUSH2 0x97C JUMP JUMPDEST SWAP2 POP POP PUSH1 0x40 DUP4 ADD MLOAD DUP5 DUP3 SUB PUSH1 0x40 DUP7 ADD MSTORE PUSH2 0xE0B DUP3 DUP3 PUSH2 0x97C JUMP JUMPDEST SWAP2 POP POP PUSH1 0x60 DUP4 ADD MLOAD DUP5 DUP3 SUB PUSH1 0x60 DUP7 ADD MSTORE PUSH2 0xE25 DUP3 DUP3 PUSH2 0x97C JUMP JUMPDEST SWAP2 POP POP PUSH1 0x80 DUP4 ADD MLOAD PUSH2 0xE3A PUSH1 0x80 DUP7 ADD DUP3 PUSH2 0x9E7 JUMP JUMPDEST POP PUSH1 0xA0 DUP4 ADD MLOAD PUSH2 0xE4D PUSH1 0xA0 DUP7 ADD DUP3 PUSH2 0x916 JUMP JUMPDEST POP PUSH1 0xC0 DUP4 ADD MLOAD PUSH2 0xE60 PUSH1 0xC0 DUP7 ADD DUP3 PUSH2 0x9F6 JUMP JUMPDEST POP DUP1 SWAP2 POP POP SWAP3 SWAP2 POP POP JUMP JUMPDEST PUSH1 0x0 PUSH1 0x20 DUP3 ADD SWAP1 POP DUP2 DUP2 SUB PUSH1 0x0 DUP4 ADD MSTORE PUSH2 0xE85 DUP2 DUP5 PUSH2 0xDC1 JUMP JUMPDEST SWAP1 POP SWAP3 SWAP2 POP POP JUMP JUMPDEST PUSH1 0x0 DUP2 SWAP1 POP SWAP2 SWAP1 POP JUMP JUMPDEST PUSH1 0x0 PUSH2 0xEB2 PUSH2 0xEAD PUSH2 0xEA8 DUP5 PUSH2 0x9B5 JUMP JUMPDEST PUSH2 0xE8D JUMP JUMPDEST PUSH2 0x9B5 JUMP JUMPDEST SWAP1 POP SWAP2 SWAP1 POP JUMP JUMPDEST PUSH1 0x0 PUSH2 0xEC4 DUP3 PUSH2 0xE97 JUMP JUMPDEST SWAP1 POP SWAP2 SWAP1 POP JUMP JUMPDEST PUSH1 0x0 PUSH2 0xED6 DUP3 PUSH2 0xEB9 JUMP JUMPDEST SWAP1 POP SWAP2 SWAP1 POP JUMP JUMPDEST PUSH2 0xEE6 DUP2 PUSH2 0xECB JUMP JUMPDEST DUP3 MSTORE POP POP JUMP JUMPDEST PUSH1 0x0 PUSH1 0x20 DUP3 ADD SWAP1 POP PUSH2 0xF01 PUSH1 0x0 DUP4 ADD DUP5 PUSH2 0xEDD JUMP JUMPDEST SWAP3 SWAP2 POP POP JUMP JUMPDEST PUSH2 0xF10 DUP2 PUSH2 0x9D5 JUMP JUMPDEST DUP2 EQ PUSH2 0xF1B JUMPI PUSH1 0x0 DUP1 REVERT JUMPDEST POP JUMP JUMPDEST PUSH1 0x0 DUP2 CALLDATALOAD SWAP1 POP PUSH2 0xF2D DUP2 PUSH2 0xF07 JUMP JUMPDEST SWAP3 SWAP2 POP POP JUMP JUMPDEST PUSH1 0x0 PUSH1 0x20 DUP3 DUP5 SUB SLT ISZERO PUSH2 0xF49 JUMPI PUSH2 0xF48 PUSH2 0xB71 JUMP JUMPDEST JUMPDEST PUSH1 0x0 PUSH2 0xF57 DUP5 DUP3 DUP6 ADD PUSH2 0xF1E JUMP JUMPDEST SWAP2 POP POP SWAP3 SWAP2 POP POP JUMP JUMPDEST PUSH1 0x0 PUSH8 0xFFFFFFFFFFFFFFFF DUP3 GT ISZERO PUSH2 0xF7B JUMPI PUSH2 0xF7A PUSH2 0xB85 JUMP JUMPDEST JUMPDEST PUSH1 0x20 DUP3 MUL SWAP1 POP PUSH1 0x20 DUP2 ADD SWAP1 POP SWAP2 SWAP1 POP JUMP JUMPDEST PUSH1 0x0 DUP1 REVERT JUMPDEST PUSH1 0x0 DUP1 REVERT JUMPDEST PUSH1 0x0 DUP1 REVERT JUMPDEST PUSH1 0x0 DUP2 MLOAD SWAP1 POP PUSH2 0xFAA DUP2 PUSH2 0xCB0 JUMP JUMPDEST SWAP3 SWAP2 POP POP JUMP JUMPDEST PUSH1 0x0 PUSH2 0xFC3 PUSH2 0xFBE DUP5 PUSH2 0xC00 JUMP JUMPDEST PUSH2 0xBE5 JUMP JUMPDEST SWAP1 POP DUP3 DUP2 MSTORE PUSH1 0x20 DUP2 ADD DUP5 DUP5 DUP5 ADD GT ISZERO PUSH2 0xFDF JUMPI PUSH2 0xFDE PUSH2 0xB80 JUMP JUMPDEST JUMPDEST PUSH2 0xFEA DUP5 DUP3 DUP6 PUSH2 0x941 JUMP JUMPDEST POP SWAP4 SWAP3 POP POP POP JUMP JUMPDEST PUSH1 0x0 DUP3 PUSH1 0x1F DUP4 ADD SLT PUSH2 0x1007 JUMPI PUSH2 0x1006 PUSH2 0xB7B JUMP JUMPDEST JUMPDEST DUP2 MLOAD PUSH2 0x1017 DUP5 DUP3 PUSH1 0x20 DUP7 ADD PUSH2 0xFB0 JUMP JUMPDEST SWAP2 POP POP SWAP3 SWAP2 POP POP JUMP JUMPDEST PUSH1 0x0 DUP2 MLOAD SWAP1 POP PUSH2 0x102F DUP2 PUSH2 0xF07 JUMP JUMPDEST SWAP3 SWAP2 POP POP JUMP JUMPDEST PUSH2 0x103E DUP2 PUSH2 0x8AA JUMP JUMPDEST DUP2 EQ PUSH2 0x1049 JUMPI PUSH1 0x0 DUP1 REVERT JUMPDEST POP JUMP JUMPDEST PUSH1 0x0 DUP2 MLOAD SWAP1 POP PUSH2 0x105B DUP2 PUSH2 0x1035 JUMP JUMPDEST SWAP3 SWAP2 POP POP JUMP JUMPDEST PUSH1 0x0 PUSH1 0xE0 DUP3 DUP5 SUB SLT ISZERO PUSH2 0x1077 JUMPI PUSH2 0x1076 PUSH2 0xF91 JUMP JUMPDEST JUMPDEST PUSH2 0x1081 PUSH1 0xE0 PUSH2 0xBE5 JUMP JUMPDEST SWAP1 POP PUSH1 0x0 PUSH2 0x1091 DUP5 DUP3 DUP6 ADD PUSH2 0xF9B JUMP JUMPDEST PUSH1 0x0 DUP4 ADD MSTORE POP PUSH1 0x20 DUP3 ADD MLOAD PUSH8 0xFFFFFFFFFFFFFFFF DUP2 GT ISZERO PUSH2 0x10B5 JUMPI PUSH2 0x10B4 PUSH2 0xF96 JUMP JUMPDEST JUMPDEST PUSH2 0x10C1 DUP5 DUP3 DUP6 ADD PUSH2 0xFF2 JUMP JUMPDEST PUSH1 0x20 DUP4 ADD MSTORE POP PUSH1 0x40 DUP3 ADD MLOAD PUSH8 0xFFFFFFFFFFFFFFFF DUP2 GT ISZERO PUSH2 0x10E5 JUMPI PUSH2 0x10E4 PUSH2 0xF96 JUMP JUMPDEST JUMPDEST PUSH2 0x10F1 DUP5 DUP3 DUP6 ADD PUSH2 0xFF2 JUMP JUMPDEST PUSH1 0x40 DUP4 ADD MSTORE POP PUSH1 0x60 DUP3 ADD MLOAD PUSH8 0xFFFFFFFFFFFFFFFF DUP2 GT ISZERO PUSH2 0x1115 JUMPI PUSH2 0x1114 PUSH2 0xF96 JUMP JUMPDEST JUMPDEST PUSH2 0x1121 DUP5 DUP3 DUP6 ADD PUSH2 0xFF2 JUMP JUMPDEST PUSH1 0x60 DUP4 ADD MSTORE POP PUSH1 0x80 PUSH2 0x1135 DUP5 DUP3 DUP6 ADD PUSH2 0x1020 JUMP JUMPDEST PUSH1 0x80 DUP4 ADD MSTORE POP PUSH1 0xA0 PUSH2 0x1149 DUP5 DUP3 DUP6 ADD PUSH2 0xF9B JUMP JUMPDEST PUSH1 0xA0 DUP4 ADD MSTORE POP PUSH1 0xC0 PUSH2 0x115D DUP5 DUP3 DUP6 ADD PUSH2 0x104C JUMP JUMPDEST PUSH1 0xC0 DUP4 ADD MSTORE POP SWAP3 SWAP2 POP POP JUMP JUMPDEST PUSH1 0x0 PUSH2 0x117C PUSH2 0x1177 DUP5 PUSH2 0xF60 JUMP JUMPDEST PUSH2 0xBE5 JUMP JUMPDEST SWAP1 POP DUP1 DUP4 DUP3 MSTORE PUSH1 0x20 DUP3 ADD SWAP1 POP PUSH1 0x20 DUP5 MUL DUP4 ADD DUP6 DUP2 GT ISZERO PUSH2 0x119F JUMPI PUSH2 0x119E PUSH2 0xF8C JUMP JUMPDEST JUMPDEST DUP4 JUMPDEST DUP2 DUP2 LT ISZERO PUSH2 0x11E6 JUMPI DUP1 MLOAD PUSH8 0xFFFFFFFFFFFFFFFF DUP2 GT ISZERO PUSH2 0x11C4 JUMPI PUSH2 0x11C3 PUSH2 0xB7B JUMP JUMPDEST JUMPDEST DUP1 DUP7 ADD PUSH2 0x11D1 DUP10 DUP3 PUSH2 0x1061 JUMP JUMPDEST DUP6 MSTORE PUSH1 0x20 DUP6 ADD SWAP5 POP POP POP PUSH1 0x20 DUP2 ADD SWAP1 POP PUSH2 0x11A1 JUMP JUMPDEST POP POP POP SWAP4 SWAP3 POP POP POP JUMP JUMPDEST PUSH1 0x0 DUP3 PUSH1 0x1F DUP4 ADD SLT PUSH2 0x1205 JUMPI PUSH2 0x1204 PUSH2 0xB7B JUMP JUMPDEST JUMPDEST DUP2 MLOAD PUSH2 0x1215 DUP5 DUP3 PUSH1 0x20 DUP7 ADD PUSH2 0x1169 JUMP JUMPDEST SWAP2 POP POP SWAP3 SWAP2 POP POP JUMP JUMPDEST PUSH1 0x0 PUSH1 0x20 DUP3 DUP5 SUB SLT ISZERO PUSH2 0x1234 JUMPI PUSH2 0x1233 PUSH2 0xB71 JUMP JUMPDEST JUMPDEST PUSH1 0x0 DUP3 ADD MLOAD PUSH8 0xFFFFFFFFFFFFFFFF DUP2 GT ISZERO PUSH2 0x1252 JUMPI PUSH2 0x1251 PUSH2 0xB76 JUMP JUMPDEST JUMPDEST PUSH2 0x125E DUP5 DUP3 DUP6 ADD PUSH2 0x11F0 JUMP JUMPDEST SWAP2 POP POP SWAP3 SWAP2 POP POP JUMP JUMPDEST PUSH32 0x4E487B7100000000000000000000000000000000000000000000000000000000 PUSH1 0x0 MSTORE PUSH1 0x32 PUSH1 0x4 MSTORE PUSH1 0x24 PUSH1 0x0 REVERT JUMPDEST PUSH32 0x4E487B7100000000000000000000000000000000000000000000000000000000 PUSH1 0x0 MSTORE PUSH1 0x11 PUSH1 0x4 MSTORE PUSH1 0x24 PUSH1 0x0 REVERT JUMPDEST PUSH1 0x0 PUSH2 0x12D0 DUP3 PUSH2 0x90C JUMP JUMPDEST SWAP2 POP PUSH32 0xFFFFFFFFFFFFFFFFFFFFFFFFFFFFFFFFFFFFFFFFFFFFFFFFFFFFFFFFFFFFFFFF DUP3 SUB PUSH2 0x1302 JUMPI PUSH2 0x1301 PUSH2 0x1296 JUMP JUMPDEST JUMPDEST PUSH1 0x1 DUP3 ADD SWAP1 POP SWAP2 SWAP1 POP JUMP JUMPDEST PUSH1 0x0 DUP3 DUP3 MSTORE PUSH1 0x20 DUP3 ADD SWAP1 POP SWAP3 SWAP2 POP POP JUMP JUMPDEST PUSH32 0x557365724461746162617365437572736F723A203330303A20206F6E6C79206E PUSH1 0x0 DUP3 ADD MSTORE PUSH32 0x6F74206578697374207573657200000000000000000000000000000000000000 PUSH1 0x20 DUP3 ADD MSTORE POP JUMP JUMPDEST PUSH1 0x0 PUSH2 0x137A PUSH1 0x2D DUP4 PUSH2 0x130D JUMP JUMPDEST SWAP2 POP PUSH2 0x1385 DUP3 PUSH2 0x131E JUMP JUMPDEST PUSH1 0x40 DUP3 ADD SWAP1 POP SWAP2 SWAP1 POP JUMP JUMPDEST PUSH1 0x0 PUSH1 0x20 DUP3 ADD SWAP1 POP DUP2 DUP2 SUB PUSH1 0x0 DUP4 ADD MSTORE PUSH2 0x13A9 DUP2 PUSH2 0x136D JUMP JUMPDEST SWAP1 POP SWAP2 SWAP1 POP JUMP JUMPDEST PUSH32 0x4F776E61626C653A206E6577206F776E657220697320746865207A65726F2061 PUSH1 0x0 DUP3 ADD MSTORE PUSH32 0x6464726573730000000000000000000000000000000000000000000000000000 PUSH1 0x20 DUP3 ADD MSTORE POP JUMP JUMPDEST PUSH1 0x0 PUSH2 0x140C PUSH1 0x26 DUP4 PUSH2 0x130D JUMP JUMPDEST SWAP2 POP PUSH2 0x1417 DUP3 PUSH2 0x13B0 JUMP JUMPDEST PUSH1 0x40 DUP3 ADD SWAP1 POP SWAP2 SWAP1 POP JUMP JUMPDEST PUSH1 0x0 PUSH1 0x20 DUP3 ADD SWAP1 POP DUP2 DUP2 SUB PUSH1 0x0 DUP4 ADD MSTORE PUSH2 0x143B DUP2 PUSH2 0x13FF JUMP JUMPDEST SWAP1 POP SWAP2 SWAP1 POP JUMP JUMPDEST PUSH32 0x4F776E61626C653A2063616C6C6572206973206E6F7420746865206F776E6572 PUSH1 0x0 DUP3 ADD MSTORE POP JUMP JUMPDEST PUSH1 0x0 PUSH2 0x1478 PUSH1 0x20 DUP4 PUSH2 0x130D JUMP JUMPDEST SWAP2 POP PUSH2 0x1483 DUP3 PUSH2 0x1442 JUMP JUMPDEST PUSH1 0x20 DUP3 ADD SWAP1 POP SWAP2 SWAP1 POP JUMP JUMPDEST PUSH1 0x0 PUSH1 0x20 DUP3 ADD SWAP1 POP DUP2 DUP2 SUB PUSH1 0x0 DUP4 ADD MSTORE PUSH2 0x14A7 DUP2 PUSH2 0x146B JUMP JUMPDEST SWAP1 POP SWAP2 SWAP1 POP JUMP INVALID LOG2 PUSH5 0x6970667358 0x22 SLT KECCAK256 LOG1 SWAP16 DUP12 XOR 0xF SUB 0x2A EXTCODECOPY 0x4A 0xC2 0xEA PC 0xFB RETURNDATASIZE BYTE DUP16 0xAE 0xA8 0xE2 0xD1 0xE6 0x2F DUP16 0xDC SWAP11 0x4D 0xAE SLT 0xE2 0xDB SHR SWAP12 PUSH5 0x736F6C6343 STOP ADDMOD GT STOP CALLER "
				},
				"gasEstimates": {
					"creation": {
						"codeDepositCost": "1069600",
						"executionCost": "infinite",
						"totalCost": "infinite"
					},
					"external": {
						"addUser(string,string,string,uint256)": "infinite",
						"checkExistUser()": "infinite",
						"destroy()": "30039",
						"getAllUser()": "infinite",
						"login()": "infinite",
						"owner()": "2522",
						"transferOwnership(address)": "30775",
						"userDatabase()": "infinite"
					}
				},
				"methodIdentifiers": {
					"addUser(string,string,string,uint256)": "7de60fb9",
					"checkExistUser()": "2a213fb8",
					"destroy()": "83197ef0",
					"getAllUser()": "47531df8",
					"login()": "b34e97e8",
					"owner()": "8da5cb5b",
					"transferOwnership(address)": "f2fde38b",
					"userDatabase()": "cef6b086"
				}
			},
			"storageLayout": {
				"storage": [
					{
						"astId": 30,
						"contract": "controller/user/UserController.sol:UserController",
						"label": "_owner",
						"offset": 0,
						"slot": "0",
						"type": "t_address"
					},
					{
						"astId": 272,
						"contract": "controller/user/UserController.sol:UserController",
						"label": "userDatabase",
						"offset": 0,
						"slot": "1",
						"type": "t_contract(UserDatabase)449"
					}
				],
				"types": {
					"t_address": {
						"encoding": "inplace",
						"label": "address",
						"numberOfBytes": "20"
					},
					"t_contract(UserDatabase)449": {
						"encoding": "inplace",
						"label": "contract UserDatabase",
						"numberOfBytes": "20"
					}
				}
			},
			"userdoc": {
				"kind": "user",
				"methods": {},
				"version": 1
			}
		}
	}
}