{
	"database/user/UserDatabase.sol": {
		"UserDatabase": {
			"abi": [
				{
					"inputs": [],
					"stateMutability": "nonpayable",
					"type": "constructor"
				},
				{
					"anonymous": false,
					"inputs": [
						{
							"indexed": true,
							"internalType": "address",
							"name": "previousOwner",
							"type": "address"
						},
						{
							"indexed": true,
							"internalType": "address",
							"name": "newOwner",
							"type": "address"
						}
					],
					"name": "OwnershipTransferred",
					"type": "event"
				},
				{
					"inputs": [
						{
							"internalType": "uint256",
							"name": "userId",
							"type": "uint256"
						}
					],
					"name": "addChecked",
					"outputs": [],
					"stateMutability": "nonpayable",
					"type": "function"
				},
				{
					"inputs": [
						{
							"internalType": "address",
							"name": "contractPermission",
							"type": "address"
						}
					],
					"name": "addPermission",
					"outputs": [],
					"stateMutability": "nonpayable",
					"type": "function"
				},
				{
					"inputs": [
						{
							"components": [
								{
									"internalType": "uint256",
									"name": "userId",
									"type": "uint256"
								},
								{
									"internalType": "string",
									"name": "fullName",
									"type": "string"
								},
								{
									"internalType": "string",
									"name": "userCccd",
									"type": "string"
								},
								{
									"internalType": "string",
									"name": "userEmail",
									"type": "string"
								},
								{
									"internalType": "address",
									"name": "userAddress",
									"type": "address"
								},
								{
									"internalType": "uint256",
									"name": "userCategory",
									"type": "uint256"
								},
								{
									"internalType": "bool",
									"name": "userIsChecked",
									"type": "bool"
								}
							],
							"internalType": "struct User",
							"name": "user",
							"type": "tuple"
						}
					],
					"name": "addUser",
					"outputs": [],
					"stateMutability": "nonpayable",
					"type": "function"
				},
				{
					"inputs": [],
					"name": "destroy",
					"outputs": [],
					"stateMutability": "nonpayable",
					"type": "function"
				},
				{
					"inputs": [],
					"name": "getAllUser",
					"outputs": [
						{
							"components": [
								{
									"internalType": "uint256",
									"name": "userId",
									"type": "uint256"
								},
								{
									"internalType": "string",
									"name": "fullName",
									"type": "string"
								},
								{
									"internalType": "string",
									"name": "userCccd",
									"type": "string"
								},
								{
									"internalType": "string",
									"name": "userEmail",
									"type": "string"
								},
								{
									"internalType": "address",
									"name": "userAddress",
									"type": "address"
								},
								{
									"internalType": "uint256",
									"name": "userCategory",
									"type": "uint256"
								},
								{
									"internalType": "bool",
									"name": "userIsChecked",
									"type": "bool"
								}
							],
							"internalType": "struct User[]",
							"name": "",
							"type": "tuple[]"
						}
					],
					"stateMutability": "view",
					"type": "function"
				},
				{
					"inputs": [],
					"name": "owner",
					"outputs": [
						{
							"internalType": "address",
							"name": "",
							"type": "address"
						}
					],
					"stateMutability": "view",
					"type": "function"
				},
				{
					"inputs": [
						{
							"internalType": "address",
							"name": "newOwner",
							"type": "address"
						}
					],
					"name": "transferOwnership",
					"outputs": [],
					"stateMutability": "nonpayable",
					"type": "function"
				}
			],
			"devdoc": {
				"kind": "dev",
				"methods": {
					"owner()": {
						"details": "Returns the address of the current owner."
					},
					"transferOwnership(address)": {
						"details": "Transfers ownership of the contract to a new account (`newOwner`). Can only be called by the current owner."
					}
				},
				"version": 1
			},
			"evm": {
				"assembly": "    /* \"database/user/UserDatabase.sol\":174:1214  contract UserDatabase is Ownable {... */\n  mstore(0x40, 0x80)\n    /* \"database/user/UserDatabase.sol\":272:273  0 */\n  0x00\n    /* \"database/user/UserDatabase.sol\":240:273  uint256 private autoIncrement = 0 */\n  0x02\n  sstore\n    /* \"database/user/UserDatabase.sol\":521:547  constructor() Ownable() {} */\n  callvalue\n  dup1\n  iszero\n  tag_1\n  jumpi\n  0x00\n  dup1\n  revert\ntag_1:\n  pop\n    /* \"abstract/Ownable.sol\":1032:1042  msg.sender */\n  caller\n    /* \"abstract/Ownable.sol\":1023:1029  _owner */\n  0x00\n  dup1\n    /* \"abstract/Ownable.sol\":1023:1042  _owner = msg.sender */\n  0x0100\n  exp\n  dup2\n  sload\n  dup2\n  0xffffffffffffffffffffffffffffffffffffffff\n  mul\n  not\n  and\n  swap1\n  dup4\n  0xffffffffffffffffffffffffffffffffffffffff\n  and\n  mul\n  or\n  swap1\n  sstore\n  pop\n    /* \"database/user/UserDatabase.sol\":174:1214  contract UserDatabase is Ownable {... */\n  dataSize(sub_0)\n  dup1\n  dataOffset(sub_0)\n  0x00\n  codecopy\n  0x00\n  return\nstop\n\nsub_0: assembly {\n        /* \"database/user/UserDatabase.sol\":174:1214  contract UserDatabase is Ownable {... */\n      mstore(0x40, 0x80)\n      callvalue\n      dup1\n      iszero\n      tag_1\n      jumpi\n      0x00\n      dup1\n      revert\n    tag_1:\n      pop\n      jumpi(tag_2, lt(calldatasize, 0x04))\n      shr(0xe0, calldataload(0x00))\n      dup1\n      0x83197ef0\n      gt\n      tag_10\n      jumpi\n      dup1\n      0x83197ef0\n      eq\n      tag_6\n      jumpi\n      dup1\n      0x8da5cb5b\n      eq\n      tag_7\n      jumpi\n      dup1\n      0xee416d5b\n      eq\n      tag_8\n      jumpi\n      dup1\n      0xf2fde38b\n      eq\n      tag_9\n      jumpi\n      jump(tag_2)\n    tag_10:\n      dup1\n      0x47531df8\n      eq\n      tag_3\n      jumpi\n      dup1\n      0x4d0a5dbd\n      eq\n      tag_4\n      jumpi\n      dup1\n      0x51c2bed1\n      eq\n      tag_5\n      jumpi\n    tag_2:\n      0x00\n      dup1\n      revert\n        /* \"database/user/UserDatabase.sol\":1107:1211  function getAllUser() public view onlyPermissions returns (User[] memory) {... */\n    tag_3:\n      tag_11\n      tag_12\n      jump\t// in\n    tag_11:\n      mload(0x40)\n      tag_13\n      swap2\n      swap1\n      tag_14\n      jump\t// in\n    tag_13:\n      mload(0x40)\n      dup1\n      swap2\n      sub\n      swap1\n      return\n        /* \"database/user/UserDatabase.sol\":555:814  function addPermission(address contractPermission) public onlyOwner {... */\n    tag_4:\n      tag_15\n      0x04\n      dup1\n      calldatasize\n      sub\n      dup2\n      add\n      swap1\n      tag_16\n      swap2\n      swap1\n      tag_17\n      jump\t// in\n    tag_16:\n      tag_18\n      jump\t// in\n    tag_15:\n      stop\n        /* \"database/user/UserDatabase.sol\":822:980  function addUser(User memory user) public onlyPermissions {... */\n    tag_5:\n      tag_19\n      0x04\n      dup1\n      calldatasize\n      sub\n      dup2\n      add\n      swap1\n      tag_20\n      swap2\n      swap1\n      tag_21\n      jump\t// in\n    tag_20:\n      tag_22\n      jump\t// in\n    tag_19:\n      stop\n        /* \"abstract/Ownable.sol\":2801:2892  function destroy() public onlyOwner {... */\n    tag_6:\n      tag_23\n      tag_24\n      jump\t// in\n    tag_23:\n      stop\n        /* \"abstract/Ownable.sol\":1289:1376  function owner() public view virtual returns (address) {... */\n    tag_7:\n      tag_25\n      tag_26\n      jump\t// in\n    tag_25:\n      mload(0x40)\n      tag_27\n      swap2\n      swap1\n      tag_28\n      jump\t// in\n    tag_27:\n      mload(0x40)\n      dup1\n      swap2\n      sub\n      swap1\n      return\n        /* \"database/user/UserDatabase.sol\":988:1099  function addChecked(uint256 userId) public onlyPermissions {... */\n    tag_8:\n      tag_29\n      0x04\n      dup1\n      calldatasize\n      sub\n      dup2\n      add\n      swap1\n      tag_30\n      swap2\n      swap1\n      tag_31\n      jump\t// in\n    tag_30:\n      tag_32\n      jump\t// in\n    tag_29:\n      stop\n        /* \"abstract/Ownable.sol\":2204:2442  function transferOwnership(address newOwner) public virtual onlyOwner {... */\n    tag_9:\n      tag_33\n      0x04\n      dup1\n      calldatasize\n      sub\n      dup2\n      add\n      swap1\n      tag_34\n      swap2\n      swap1\n      tag_17\n      jump\t// in\n    tag_34:\n      tag_35\n      jump\t// in\n    tag_33:\n      stop\n        /* \"database/user/UserDatabase.sol\":1107:1211  function getAllUser() public view onlyPermissions returns (User[] memory) {... */\n    tag_12:\n        /* \"database/user/UserDatabase.sol\":1166:1179  User[] memory */\n      0x60\n        /* \"database/user/UserDatabase.sol\":395:406  permissions */\n      0x03\n        /* \"database/user/UserDatabase.sol\":395:420  permissions[_msgSender()] */\n      0x00\n        /* \"database/user/UserDatabase.sol\":407:419  _msgSender() */\n      tag_37\n        /* \"database/user/UserDatabase.sol\":407:417  _msgSender */\n      tag_38\n        /* \"database/user/UserDatabase.sol\":407:419  _msgSender() */\n      jump\t// in\n    tag_37:\n        /* \"database/user/UserDatabase.sol\":395:420  permissions[_msgSender()] */\n      0xffffffffffffffffffffffffffffffffffffffff\n      and\n      0xffffffffffffffffffffffffffffffffffffffff\n      and\n      dup2\n      mstore\n      0x20\n      add\n      swap1\n      dup2\n      mstore\n      0x20\n      add\n      0x00\n      keccak256\n      0x00\n      swap1\n      sload\n      swap1\n      0x0100\n      exp\n      swap1\n      div\n      0xff\n      and\n        /* \"database/user/UserDatabase.sol\":373:493  require(... */\n      tag_39\n      jumpi\n      mload(0x40)\n      0x08c379a000000000000000000000000000000000000000000000000000000000\n      dup2\n      mstore\n      0x04\n      add\n      tag_40\n      swap1\n      tag_41\n      jump\t// in\n    tag_40:\n      mload(0x40)\n      dup1\n      swap2\n      sub\n      swap1\n      revert\n    tag_39:\n        /* \"database/user/UserDatabase.sol\":1199:1203  list */\n      0x01\n        /* \"database/user/UserDatabase.sol\":1192:1203  return list */\n      dup1\n      sload\n      dup1\n      0x20\n      mul\n      0x20\n      add\n      mload(0x40)\n      swap1\n      dup2\n      add\n      0x40\n      mstore\n      dup1\n      swap3\n      swap2\n      swap1\n      dup2\n      dup2\n      mstore\n      0x20\n      add\n      0x00\n      swap1\n    tag_43:\n      dup3\n      dup3\n      lt\n      iszero\n      tag_44\n      jumpi\n      dup4\n      dup3\n      swap1\n      0x00\n      mstore\n      keccak256(0x00, 0x20)\n      swap1\n      0x07\n      mul\n      add\n      mload(0x40)\n      dup1\n      0xe0\n      add\n      0x40\n      mstore\n      swap1\n      dup2\n      0x00\n      dup3\n      add\n      sload\n      dup2\n      mstore\n      0x20\n      add\n      0x01\n      dup3\n      add\n      dup1\n      sload\n      tag_46\n      swap1\n      tag_47\n      jump\t// in\n    tag_46:\n      dup1\n      0x1f\n      add\n      0x20\n      dup1\n      swap2\n      div\n      mul\n      0x20\n      add\n      mload(0x40)\n      swap1\n      dup2\n      add\n      0x40\n      mstore\n      dup1\n      swap3\n      swap2\n      swap1\n      dup2\n      dup2\n      mstore\n      0x20\n      add\n      dup3\n      dup1\n      sload\n      tag_48\n      swap1\n      tag_47\n      jump\t// in\n    tag_48:\n      dup1\n      iszero\n      tag_49\n      jumpi\n      dup1\n      0x1f\n      lt\n      tag_50\n      jumpi\n      0x0100\n      dup1\n      dup4\n      sload\n      div\n      mul\n      dup4\n      mstore\n      swap2\n      0x20\n      add\n      swap2\n      jump(tag_49)\n    tag_50:\n      dup3\n      add\n      swap2\n      swap1\n      0x00\n      mstore\n      keccak256(0x00, 0x20)\n      swap1\n    tag_51:\n      dup2\n      sload\n      dup2\n      mstore\n      swap1\n      0x01\n      add\n      swap1\n      0x20\n      add\n      dup1\n      dup4\n      gt\n      tag_51\n      jumpi\n      dup3\n      swap1\n      sub\n      0x1f\n      and\n      dup3\n      add\n      swap2\n    tag_49:\n      pop\n      pop\n      pop\n      pop\n      pop\n      dup2\n      mstore\n      0x20\n      add\n      0x02\n      dup3\n      add\n      dup1\n      sload\n      tag_52\n      swap1\n      tag_47\n      jump\t// in\n    tag_52:\n      dup1\n      0x1f\n      add\n      0x20\n      dup1\n      swap2\n      div\n      mul\n      0x20\n      add\n      mload(0x40)\n      swap1\n      dup2\n      add\n      0x40\n      mstore\n      dup1\n      swap3\n      swap2\n      swap1\n      dup2\n      dup2\n      mstore\n      0x20\n      add\n      dup3\n      dup1\n      sload\n      tag_53\n      swap1\n      tag_47\n      jump\t// in\n    tag_53:\n      dup1\n      iszero\n      tag_54\n      jumpi\n      dup1\n      0x1f\n      lt\n      tag_55\n      jumpi\n      0x0100\n      dup1\n      dup4\n      sload\n      div\n      mul\n      dup4\n      mstore\n      swap2\n      0x20\n      add\n      swap2\n      jump(tag_54)\n    tag_55:\n      dup3\n      add\n      swap2\n      swap1\n      0x00\n      mstore\n      keccak256(0x00, 0x20)\n      swap1\n    tag_56:\n      dup2\n      sload\n      dup2\n      mstore\n      swap1\n      0x01\n      add\n      swap1\n      0x20\n      add\n      dup1\n      dup4\n      gt\n      tag_56\n      jumpi\n      dup3\n      swap1\n      sub\n      0x1f\n      and\n      dup3\n      add\n      swap2\n    tag_54:\n      pop\n      pop\n      pop\n      pop\n      pop\n      dup2\n      mstore\n      0x20\n      add\n      0x03\n      dup3\n      add\n      dup1\n      sload\n      tag_57\n      swap1\n      tag_47\n      jump\t// in\n    tag_57:\n      dup1\n      0x1f\n      add\n      0x20\n      dup1\n      swap2\n      div\n      mul\n      0x20\n      add\n      mload(0x40)\n      swap1\n      dup2\n      add\n      0x40\n      mstore\n      dup1\n      swap3\n      swap2\n      swap1\n      dup2\n      dup2\n      mstore\n      0x20\n      add\n      dup3\n      dup1\n      sload\n      tag_58\n      swap1\n      tag_47\n      jump\t// in\n    tag_58:\n      dup1\n      iszero\n      tag_59\n      jumpi\n      dup1\n      0x1f\n      lt\n      tag_60\n      jumpi\n      0x0100\n      dup1\n      dup4\n      sload\n      div\n      mul\n      dup4\n      mstore\n      swap2\n      0x20\n      add\n      swap2\n      jump(tag_59)\n    tag_60:\n      dup3\n      add\n      swap2\n      swap1\n      0x00\n      mstore\n      keccak256(0x00, 0x20)\n      swap1\n    tag_61:\n      dup2\n      sload\n      dup2\n      mstore\n      swap1\n      0x01\n      add\n      swap1\n      0x20\n      add\n      dup1\n      dup4\n      gt\n      tag_61\n      jumpi\n      dup3\n      swap1\n      sub\n      0x1f\n      and\n      dup3\n      add\n      swap2\n    tag_59:\n      pop\n      pop\n      pop\n      pop\n      pop\n      dup2\n      mstore\n      0x20\n      add\n      0x04\n      dup3\n      add\n      0x00\n      swap1\n      sload\n      swap1\n      0x0100\n      exp\n      swap1\n      div\n      0xffffffffffffffffffffffffffffffffffffffff\n      and\n      0xffffffffffffffffffffffffffffffffffffffff\n      and\n      0xffffffffffffffffffffffffffffffffffffffff\n      and\n      dup2\n      mstore\n      0x20\n      add\n      0x05\n      dup3\n      add\n      sload\n      dup2\n      mstore\n      0x20\n      add\n      0x06\n      dup3\n      add\n      0x00\n      swap1\n      sload\n      swap1\n      0x0100\n      exp\n      swap1\n      div\n      0xff\n      and\n      iszero\n      iszero\n      iszero\n      iszero\n      dup2\n      mstore\n      pop\n      pop\n      dup2\n      mstore\n      0x20\n      add\n      swap1\n      0x01\n      add\n      swap1\n      jump(tag_43)\n    tag_44:\n      pop\n      pop\n      pop\n      pop\n      swap1\n      pop\n        /* \"database/user/UserDatabase.sol\":1107:1211  function getAllUser() public view onlyPermissions returns (User[] memory) {... */\n      swap1\n      jump\t// out\n        /* \"database/user/UserDatabase.sol\":555:814  function addPermission(address contractPermission) public onlyOwner {... */\n    tag_18:\n        /* \"abstract/Ownable.sol\":1175:1188  _checkOwner() */\n      tag_63\n        /* \"abstract/Ownable.sol\":1175:1186  _checkOwner */\n      tag_64\n        /* \"abstract/Ownable.sol\":1175:1188  _checkOwner() */\n      jump\t// in\n    tag_63:\n        /* \"database/user/UserDatabase.sol\":657:668  permissions */\n      0x03\n        /* \"database/user/UserDatabase.sol\":657:688  permissions[contractPermission] */\n      0x00\n        /* \"database/user/UserDatabase.sol\":669:687  contractPermission */\n      dup3\n        /* \"database/user/UserDatabase.sol\":657:688  permissions[contractPermission] */\n      0xffffffffffffffffffffffffffffffffffffffff\n      and\n      0xffffffffffffffffffffffffffffffffffffffff\n      and\n      dup2\n      mstore\n      0x20\n      add\n      swap1\n      dup2\n      mstore\n      0x20\n      add\n      0x00\n      keccak256\n      0x00\n      swap1\n      sload\n      swap1\n      0x0100\n      exp\n      swap1\n      div\n      0xff\n      and\n        /* \"database/user/UserDatabase.sol\":656:688  !permissions[contractPermission] */\n      iszero\n        /* \"database/user/UserDatabase.sol\":634:757  require(... */\n      tag_66\n      jumpi\n      mload(0x40)\n      0x08c379a000000000000000000000000000000000000000000000000000000000\n      dup2\n      mstore\n      0x04\n      add\n      tag_67\n      swap1\n      tag_68\n      jump\t// in\n    tag_67:\n      mload(0x40)\n      dup1\n      swap2\n      sub\n      swap1\n      revert\n    tag_66:\n        /* \"database/user/UserDatabase.sol\":802:806  true */\n      0x01\n        /* \"database/user/UserDatabase.sol\":768:779  permissions */\n      0x03\n        /* \"database/user/UserDatabase.sol\":768:799  permissions[contractPermission] */\n      0x00\n        /* \"database/user/UserDatabase.sol\":780:798  contractPermission */\n      dup4\n        /* \"database/user/UserDatabase.sol\":768:799  permissions[contractPermission] */\n      0xffffffffffffffffffffffffffffffffffffffff\n      and\n      0xffffffffffffffffffffffffffffffffffffffff\n      and\n      dup2\n      mstore\n      0x20\n      add\n      swap1\n      dup2\n      mstore\n      0x20\n      add\n      0x00\n      keccak256\n      0x00\n        /* \"database/user/UserDatabase.sol\":768:806  permissions[contractPermission] = true */\n      0x0100\n      exp\n      dup2\n      sload\n      dup2\n      0xff\n      mul\n      not\n      and\n      swap1\n      dup4\n      iszero\n      iszero\n      mul\n      or\n      swap1\n      sstore\n      pop\n        /* \"database/user/UserDatabase.sol\":555:814  function addPermission(address contractPermission) public onlyOwner {... */\n      pop\n      jump\t// out\n        /* \"database/user/UserDatabase.sol\":822:980  function addUser(User memory user) public onlyPermissions {... */\n    tag_22:\n        /* \"database/user/UserDatabase.sol\":395:406  permissions */\n      0x03\n        /* \"database/user/UserDatabase.sol\":395:420  permissions[_msgSender()] */\n      0x00\n        /* \"database/user/UserDatabase.sol\":407:419  _msgSender() */\n      tag_70\n        /* \"database/user/UserDatabase.sol\":407:417  _msgSender */\n      tag_38\n        /* \"database/user/UserDatabase.sol\":407:419  _msgSender() */\n      jump\t// in\n    tag_70:\n        /* \"database/user/UserDatabase.sol\":395:420  permissions[_msgSender()] */\n      0xffffffffffffffffffffffffffffffffffffffff\n      and\n      0xffffffffffffffffffffffffffffffffffffffff\n      and\n      dup2\n      mstore\n      0x20\n      add\n      swap1\n      dup2\n      mstore\n      0x20\n      add\n      0x00\n      keccak256\n      0x00\n      swap1\n      sload\n      swap1\n      0x0100\n      exp\n      swap1\n      div\n      0xff\n      and\n        /* \"database/user/UserDatabase.sol\":373:493  require(... */\n      tag_71\n      jumpi\n      mload(0x40)\n      0x08c379a000000000000000000000000000000000000000000000000000000000\n      dup2\n      mstore\n      0x04\n      add\n      tag_72\n      swap1\n      tag_41\n      jump\t// in\n    tag_72:\n      mload(0x40)\n      dup1\n      swap2\n      sub\n      swap1\n      revert\n    tag_71:\n        /* \"database/user/UserDatabase.sol\":891:901  uint256 id */\n      0x00\n        /* \"database/user/UserDatabase.sol\":904:917  autoIncrement */\n      0x02\n      0x00\n        /* \"database/user/UserDatabase.sol\":904:919  autoIncrement++ */\n      dup2\n      sload\n      dup1\n      swap3\n      swap2\n      swap1\n      tag_74\n      swap1\n      tag_75\n      jump\t// in\n    tag_74:\n      swap2\n      swap1\n      pop\n      sstore\n        /* \"database/user/UserDatabase.sol\":891:919  uint256 id = autoIncrement++ */\n      swap1\n      pop\n        /* \"database/user/UserDatabase.sol\":944:946  id */\n      dup1\n        /* \"database/user/UserDatabase.sol\":930:934  user */\n      dup3\n        /* \"database/user/UserDatabase.sol\":930:941  user.userId */\n      0x00\n      add\n        /* \"database/user/UserDatabase.sol\":930:946  user.userId = id */\n      dup2\n      dup2\n      mstore\n      pop\n      pop\n        /* \"database/user/UserDatabase.sol\":957:961  list */\n      0x01\n        /* \"database/user/UserDatabase.sol\":967:971  user */\n      dup3\n        /* \"database/user/UserDatabase.sol\":957:972  list.push(user) */\n      swap1\n      dup1\n      0x01\n      dup2\n      sload\n      add\n      dup1\n      dup3\n      sstore\n      dup1\n      swap2\n      pop\n      pop\n      0x01\n      swap1\n      sub\n      swap1\n      0x00\n      mstore\n      keccak256(0x00, 0x20)\n      swap1\n      0x07\n      mul\n      add\n      0x00\n      swap1\n      swap2\n      swap1\n      swap2\n      swap1\n      swap2\n      pop\n      0x00\n      dup3\n      add\n      mload\n      dup2\n      0x00\n      add\n      sstore\n      0x20\n      dup3\n      add\n      mload\n      dup2\n      0x01\n      add\n      swap1\n      dup2\n      tag_77\n      swap2\n      swap1\n      tag_78\n      jump\t// in\n    tag_77:\n      pop\n      0x40\n      dup3\n      add\n      mload\n      dup2\n      0x02\n      add\n      swap1\n      dup2\n      tag_79\n      swap2\n      swap1\n      tag_78\n      jump\t// in\n    tag_79:\n      pop\n      0x60\n      dup3\n      add\n      mload\n      dup2\n      0x03\n      add\n      swap1\n      dup2\n      tag_80\n      swap2\n      swap1\n      tag_78\n      jump\t// in\n    tag_80:\n      pop\n      0x80\n      dup3\n      add\n      mload\n      dup2\n      0x04\n      add\n      exp(0x0100, 0x00)\n      dup2\n      sload\n      dup2\n      0xffffffffffffffffffffffffffffffffffffffff\n      mul\n      not\n      and\n      swap1\n      dup4\n      0xffffffffffffffffffffffffffffffffffffffff\n      and\n      mul\n      or\n      swap1\n      sstore\n      pop\n      0xa0\n      dup3\n      add\n      mload\n      dup2\n      0x05\n      add\n      sstore\n      0xc0\n      dup3\n      add\n      mload\n      dup2\n      0x06\n      add\n      exp(0x0100, 0x00)\n      dup2\n      sload\n      dup2\n      0xff\n      mul\n      not\n      and\n      swap1\n      dup4\n      iszero\n      iszero\n      mul\n      or\n      swap1\n      sstore\n      pop\n      pop\n      pop\n        /* \"database/user/UserDatabase.sol\":880:980  {... */\n      pop\n        /* \"database/user/UserDatabase.sol\":822:980  function addUser(User memory user) public onlyPermissions {... */\n      pop\n      jump\t// out\n        /* \"abstract/Ownable.sol\":2801:2892  function destroy() public onlyOwner {... */\n    tag_24:\n        /* \"abstract/Ownable.sol\":1175:1188  _checkOwner() */\n      tag_82\n        /* \"abstract/Ownable.sol\":1175:1186  _checkOwner */\n      tag_64\n        /* \"abstract/Ownable.sol\":1175:1188  _checkOwner() */\n      jump\t// in\n    tag_82:\n        /* \"abstract/Ownable.sol\":2877:2881  this */\n      address\n        /* \"abstract/Ownable.sol\":2848:2884  selfdestruct(payable(address(this))) */\n      0xffffffffffffffffffffffffffffffffffffffff\n      and\n      selfdestruct\n        /* \"abstract/Ownable.sol\":1289:1376  function owner() public view virtual returns (address) {... */\n    tag_26:\n        /* \"abstract/Ownable.sol\":1335:1342  address */\n      0x00\n        /* \"abstract/Ownable.sol\":1362:1368  _owner */\n      dup1\n      0x00\n      swap1\n      sload\n      swap1\n      0x0100\n      exp\n      swap1\n      div\n      0xffffffffffffffffffffffffffffffffffffffff\n      and\n        /* \"abstract/Ownable.sol\":1355:1368  return _owner */\n      swap1\n      pop\n        /* \"abstract/Ownable.sol\":1289:1376  function owner() public view virtual returns (address) {... */\n      swap1\n      jump\t// out\n        /* \"database/user/UserDatabase.sol\":988:1099  function addChecked(uint256 userId) public onlyPermissions {... */\n    tag_32:\n        /* \"database/user/UserDatabase.sol\":395:406  permissions */\n      0x03\n        /* \"database/user/UserDatabase.sol\":395:420  permissions[_msgSender()] */\n      0x00\n        /* \"database/user/UserDatabase.sol\":407:419  _msgSender() */\n      tag_86\n        /* \"database/user/UserDatabase.sol\":407:417  _msgSender */\n      tag_38\n        /* \"database/user/UserDatabase.sol\":407:419  _msgSender() */\n      jump\t// in\n    tag_86:\n        /* \"database/user/UserDatabase.sol\":395:420  permissions[_msgSender()] */\n      0xffffffffffffffffffffffffffffffffffffffff\n      and\n      0xffffffffffffffffffffffffffffffffffffffff\n      and\n      dup2\n      mstore\n      0x20\n      add\n      swap1\n      dup2\n      mstore\n      0x20\n      add\n      0x00\n      keccak256\n      0x00\n      swap1\n      sload\n      swap1\n      0x0100\n      exp\n      swap1\n      div\n      0xff\n      and\n        /* \"database/user/UserDatabase.sol\":373:493  require(... */\n      tag_87\n      jumpi\n      mload(0x40)\n      0x08c379a000000000000000000000000000000000000000000000000000000000\n      dup2\n      mstore\n      0x04\n      add\n      tag_88\n      swap1\n      tag_41\n      jump\t// in\n    tag_88:\n      mload(0x40)\n      dup1\n      swap2\n      sub\n      swap1\n      revert\n    tag_87:\n        /* \"database/user/UserDatabase.sol\":1087:1091  true */\n      0x01\n        /* \"database/user/UserDatabase.sol\":1058:1062  list */\n      dup1\n        /* \"database/user/UserDatabase.sol\":1063:1069  userId */\n      dup3\n        /* \"database/user/UserDatabase.sol\":1058:1070  list[userId] */\n      dup2\n      sload\n      dup2\n      lt\n      tag_90\n      jumpi\n      tag_91\n      tag_92\n      jump\t// in\n    tag_91:\n    tag_90:\n      swap1\n      0x00\n      mstore\n      keccak256(0x00, 0x20)\n      swap1\n      0x07\n      mul\n      add\n        /* \"database/user/UserDatabase.sol\":1058:1084  list[userId].userIsChecked */\n      0x06\n      add\n      0x00\n        /* \"database/user/UserDatabase.sol\":1058:1091  list[userId].userIsChecked = true */\n      0x0100\n      exp\n      dup2\n      sload\n      dup2\n      0xff\n      mul\n      not\n      and\n      swap1\n      dup4\n      iszero\n      iszero\n      mul\n      or\n      swap1\n      sstore\n      pop\n        /* \"database/user/UserDatabase.sol\":988:1099  function addChecked(uint256 userId) public onlyPermissions {... */\n      pop\n      jump\t// out\n        /* \"abstract/Ownable.sol\":2204:2442  function transferOwnership(address newOwner) public virtual onlyOwner {... */\n    tag_35:\n        /* \"abstract/Ownable.sol\":1175:1188  _checkOwner() */\n      tag_95\n        /* \"abstract/Ownable.sol\":1175:1186  _checkOwner */\n      tag_64\n        /* \"abstract/Ownable.sol\":1175:1188  _checkOwner() */\n      jump\t// in\n    tag_95:\n        /* \"abstract/Ownable.sol\":2327:2328  0 */\n      0x00\n        /* \"abstract/Ownable.sol\":2307:2329  newOwner != address(0) */\n      0xffffffffffffffffffffffffffffffffffffffff\n      and\n        /* \"abstract/Ownable.sol\":2307:2315  newOwner */\n      dup2\n        /* \"abstract/Ownable.sol\":2307:2329  newOwner != address(0) */\n      0xffffffffffffffffffffffffffffffffffffffff\n      and\n      sub\n        /* \"abstract/Ownable.sol\":2285:2395  require(... */\n      tag_97\n      jumpi\n      mload(0x40)\n      0x08c379a000000000000000000000000000000000000000000000000000000000\n      dup2\n      mstore\n      0x04\n      add\n      tag_98\n      swap1\n      tag_99\n      jump\t// in\n    tag_98:\n      mload(0x40)\n      dup1\n      swap2\n      sub\n      swap1\n      revert\n    tag_97:\n        /* \"abstract/Ownable.sol\":2406:2434  _transferOwnership(newOwner) */\n      tag_100\n        /* \"abstract/Ownable.sol\":2425:2433  newOwner */\n      dup2\n        /* \"abstract/Ownable.sol\":2406:2424  _transferOwnership */\n      tag_101\n        /* \"abstract/Ownable.sol\":2406:2434  _transferOwnership(newOwner) */\n      jump\t// in\n    tag_100:\n        /* \"abstract/Ownable.sol\":2204:2442  function transferOwnership(address newOwner) public virtual onlyOwner {... */\n      pop\n      jump\t// out\n        /* \"@openzeppelin/contracts/utils/Context.sol\":640:736  function _msgSender() internal view virtual returns (address) {... */\n    tag_38:\n        /* \"@openzeppelin/contracts/utils/Context.sol\":693:700  address */\n      0x00\n        /* \"@openzeppelin/contracts/utils/Context.sol\":719:729  msg.sender */\n      caller\n        /* \"@openzeppelin/contracts/utils/Context.sol\":712:729  return msg.sender */\n      swap1\n      pop\n        /* \"@openzeppelin/contracts/utils/Context.sol\":640:736  function _msgSender() internal view virtual returns (address) {... */\n      swap1\n      jump\t// out\n        /* \"abstract/Ownable.sol\":1454:1584  function _checkOwner() internal view virtual {... */\n    tag_64:\n        /* \"abstract/Ownable.sol\":1529:1539  msg.sender */\n      caller\n        /* \"abstract/Ownable.sol\":1518:1539  owner() == msg.sender */\n      0xffffffffffffffffffffffffffffffffffffffff\n      and\n        /* \"abstract/Ownable.sol\":1518:1525  owner() */\n      tag_104\n        /* \"abstract/Ownable.sol\":1518:1523  owner */\n      tag_26\n        /* \"abstract/Ownable.sol\":1518:1525  owner() */\n      jump\t// in\n    tag_104:\n        /* \"abstract/Ownable.sol\":1518:1539  owner() == msg.sender */\n      0xffffffffffffffffffffffffffffffffffffffff\n      and\n      eq\n        /* \"abstract/Ownable.sol\":1510:1576  require(owner() == msg.sender, \"Ownable: caller is not the owner\") */\n      tag_105\n      jumpi\n      mload(0x40)\n      0x08c379a000000000000000000000000000000000000000000000000000000000\n      dup2\n      mstore\n      0x04\n      add\n      tag_106\n      swap1\n      tag_107\n      jump\t// in\n    tag_106:\n      mload(0x40)\n      dup1\n      swap2\n      sub\n      swap1\n      revert\n    tag_105:\n        /* \"abstract/Ownable.sol\":1454:1584  function _checkOwner() internal view virtual {... */\n      jump\t// out\n        /* \"abstract/Ownable.sol\":2602:2793  function _transferOwnership(address newOwner) internal virtual {... */\n    tag_101:\n        /* \"abstract/Ownable.sol\":2676:2692  address oldOwner */\n      0x00\n        /* \"abstract/Ownable.sol\":2695:2701  _owner */\n      dup1\n      0x00\n      swap1\n      sload\n      swap1\n      0x0100\n      exp\n      swap1\n      div\n      0xffffffffffffffffffffffffffffffffffffffff\n      and\n        /* \"abstract/Ownable.sol\":2676:2701  address oldOwner = _owner */\n      swap1\n      pop\n        /* \"abstract/Ownable.sol\":2721:2729  newOwner */\n      dup2\n        /* \"abstract/Ownable.sol\":2712:2718  _owner */\n      0x00\n      dup1\n        /* \"abstract/Ownable.sol\":2712:2729  _owner = newOwner */\n      0x0100\n      exp\n      dup2\n      sload\n      dup2\n      0xffffffffffffffffffffffffffffffffffffffff\n      mul\n      not\n      and\n      swap1\n      dup4\n      0xffffffffffffffffffffffffffffffffffffffff\n      and\n      mul\n      or\n      swap1\n      sstore\n      pop\n        /* \"abstract/Ownable.sol\":2776:2784  newOwner */\n      dup2\n        /* \"abstract/Ownable.sol\":2745:2785  OwnershipTransferred(oldOwner, newOwner) */\n      0xffffffffffffffffffffffffffffffffffffffff\n      and\n        /* \"abstract/Ownable.sol\":2766:2774  oldOwner */\n      dup2\n        /* \"abstract/Ownable.sol\":2745:2785  OwnershipTransferred(oldOwner, newOwner) */\n      0xffffffffffffffffffffffffffffffffffffffff\n      and\n      0x8be0079c531659141344cd1fd0a4f28419497f9722a3daafe3b4186f6b6457e0\n      mload(0x40)\n      mload(0x40)\n      dup1\n      swap2\n      sub\n      swap1\n      log3\n        /* \"abstract/Ownable.sol\":2665:2793  {... */\n      pop\n        /* \"abstract/Ownable.sol\":2602:2793  function _transferOwnership(address newOwner) internal virtual {... */\n      pop\n      jump\t// out\n        /* \"#utility.yul\":7:142   */\n    tag_109:\n        /* \"#utility.yul\":95:101   */\n      0x00\n        /* \"#utility.yul\":129:134   */\n      dup2\n        /* \"#utility.yul\":123:135   */\n      mload\n        /* \"#utility.yul\":113:135   */\n      swap1\n      pop\n        /* \"#utility.yul\":7:142   */\n      swap2\n      swap1\n      pop\n      jump\t// out\n        /* \"#utility.yul\":148:353   */\n    tag_110:\n        /* \"#utility.yul\":268:279   */\n      0x00\n        /* \"#utility.yul\":302:308   */\n      dup3\n        /* \"#utility.yul\":297:300   */\n      dup3\n        /* \"#utility.yul\":290:309   */\n      mstore\n        /* \"#utility.yul\":342:346   */\n      0x20\n        /* \"#utility.yul\":337:340   */\n      dup3\n        /* \"#utility.yul\":333:347   */\n      add\n        /* \"#utility.yul\":318:347   */\n      swap1\n      pop\n        /* \"#utility.yul\":148:353   */\n      swap3\n      swap2\n      pop\n      pop\n      jump\t// out\n        /* \"#utility.yul\":359:512   */\n    tag_111:\n        /* \"#utility.yul\":447:451   */\n      0x00\n        /* \"#utility.yul\":470:473   */\n      dup2\n        /* \"#utility.yul\":462:473   */\n      swap1\n      pop\n        /* \"#utility.yul\":500:504   */\n      0x20\n        /* \"#utility.yul\":495:498   */\n      dup3\n        /* \"#utility.yul\":491:505   */\n      add\n        /* \"#utility.yul\":483:505   */\n      swap1\n      pop\n        /* \"#utility.yul\":359:512   */\n      swap2\n      swap1\n      pop\n      jump\t// out\n        /* \"#utility.yul\":518:595   */\n    tag_112:\n        /* \"#utility.yul\":555:562   */\n      0x00\n        /* \"#utility.yul\":584:589   */\n      dup2\n        /* \"#utility.yul\":573:589   */\n      swap1\n      pop\n        /* \"#utility.yul\":518:595   */\n      swap2\n      swap1\n      pop\n      jump\t// out\n        /* \"#utility.yul\":601:709   */\n    tag_113:\n        /* \"#utility.yul\":678:702   */\n      tag_182\n        /* \"#utility.yul\":696:701   */\n      dup2\n        /* \"#utility.yul\":678:702   */\n      tag_112\n      jump\t// in\n    tag_182:\n        /* \"#utility.yul\":673:676   */\n      dup3\n        /* \"#utility.yul\":666:703   */\n      mstore\n        /* \"#utility.yul\":601:709   */\n      pop\n      pop\n      jump\t// out\n        /* \"#utility.yul\":715:814   */\n    tag_114:\n        /* \"#utility.yul\":767:773   */\n      0x00\n        /* \"#utility.yul\":801:806   */\n      dup2\n        /* \"#utility.yul\":795:807   */\n      mload\n        /* \"#utility.yul\":785:807   */\n      swap1\n      pop\n        /* \"#utility.yul\":715:814   */\n      swap2\n      swap1\n      pop\n      jump\t// out\n        /* \"#utility.yul\":820:979   */\n    tag_115:\n        /* \"#utility.yul\":894:905   */\n      0x00\n        /* \"#utility.yul\":928:934   */\n      dup3\n        /* \"#utility.yul\":923:926   */\n      dup3\n        /* \"#utility.yul\":916:935   */\n      mstore\n        /* \"#utility.yul\":968:972   */\n      0x20\n        /* \"#utility.yul\":963:966   */\n      dup3\n        /* \"#utility.yul\":959:973   */\n      add\n        /* \"#utility.yul\":944:973   */\n      swap1\n      pop\n        /* \"#utility.yul\":820:979   */\n      swap3\n      swap2\n      pop\n      pop\n      jump\t// out\n        /* \"#utility.yul\":985:1231   */\n    tag_116:\n        /* \"#utility.yul\":1066:1067   */\n      0x00\n        /* \"#utility.yul\":1076:1189   */\n    tag_186:\n        /* \"#utility.yul\":1090:1096   */\n      dup4\n        /* \"#utility.yul\":1087:1088   */\n      dup2\n        /* \"#utility.yul\":1084:1097   */\n      lt\n        /* \"#utility.yul\":1076:1189   */\n      iszero\n      tag_188\n      jumpi\n        /* \"#utility.yul\":1175:1176   */\n      dup1\n        /* \"#utility.yul\":1170:1173   */\n      dup3\n        /* \"#utility.yul\":1166:1177   */\n      add\n        /* \"#utility.yul\":1160:1178   */\n      mload\n        /* \"#utility.yul\":1156:1157   */\n      dup2\n        /* \"#utility.yul\":1151:1154   */\n      dup5\n        /* \"#utility.yul\":1147:1158   */\n      add\n        /* \"#utility.yul\":1140:1179   */\n      mstore\n        /* \"#utility.yul\":1112:1114   */\n      0x20\n        /* \"#utility.yul\":1109:1110   */\n      dup2\n        /* \"#utility.yul\":1105:1115   */\n      add\n        /* \"#utility.yul\":1100:1115   */\n      swap1\n      pop\n        /* \"#utility.yul\":1076:1189   */\n      jump(tag_186)\n    tag_188:\n        /* \"#utility.yul\":1223:1224   */\n      0x00\n        /* \"#utility.yul\":1214:1220   */\n      dup5\n        /* \"#utility.yul\":1209:1212   */\n      dup5\n        /* \"#utility.yul\":1205:1221   */\n      add\n        /* \"#utility.yul\":1198:1225   */\n      mstore\n        /* \"#utility.yul\":1047:1231   */\n      pop\n        /* \"#utility.yul\":985:1231   */\n      pop\n      pop\n      pop\n      jump\t// out\n        /* \"#utility.yul\":1237:1339   */\n    tag_117:\n        /* \"#utility.yul\":1278:1284   */\n      0x00\n        /* \"#utility.yul\":1329:1331   */\n      0x1f\n        /* \"#utility.yul\":1325:1332   */\n      not\n        /* \"#utility.yul\":1320:1322   */\n      0x1f\n        /* \"#utility.yul\":1313:1318   */\n      dup4\n        /* \"#utility.yul\":1309:1323   */\n      add\n        /* \"#utility.yul\":1305:1333   */\n      and\n        /* \"#utility.yul\":1295:1333   */\n      swap1\n      pop\n        /* \"#utility.yul\":1237:1339   */\n      swap2\n      swap1\n      pop\n      jump\t// out\n        /* \"#utility.yul\":1345:1702   */\n    tag_118:\n        /* \"#utility.yul\":1423:1426   */\n      0x00\n        /* \"#utility.yul\":1451:1490   */\n      tag_191\n        /* \"#utility.yul\":1484:1489   */\n      dup3\n        /* \"#utility.yul\":1451:1490   */\n      tag_114\n      jump\t// in\n    tag_191:\n        /* \"#utility.yul\":1506:1567   */\n      tag_192\n        /* \"#utility.yul\":1560:1566   */\n      dup2\n        /* \"#utility.yul\":1555:1558   */\n      dup6\n        /* \"#utility.yul\":1506:1567   */\n      tag_115\n      jump\t// in\n    tag_192:\n        /* \"#utility.yul\":1499:1567   */\n      swap4\n      pop\n        /* \"#utility.yul\":1576:1641   */\n      tag_193\n        /* \"#utility.yul\":1634:1640   */\n      dup2\n        /* \"#utility.yul\":1629:1632   */\n      dup6\n        /* \"#utility.yul\":1622:1626   */\n      0x20\n        /* \"#utility.yul\":1615:1620   */\n      dup7\n        /* \"#utility.yul\":1611:1627   */\n      add\n        /* \"#utility.yul\":1576:1641   */\n      tag_116\n      jump\t// in\n    tag_193:\n        /* \"#utility.yul\":1666:1695   */\n      tag_194\n        /* \"#utility.yul\":1688:1694   */\n      dup2\n        /* \"#utility.yul\":1666:1695   */\n      tag_117\n      jump\t// in\n    tag_194:\n        /* \"#utility.yul\":1661:1664   */\n      dup5\n        /* \"#utility.yul\":1657:1696   */\n      add\n        /* \"#utility.yul\":1650:1696   */\n      swap2\n      pop\n        /* \"#utility.yul\":1427:1702   */\n      pop\n        /* \"#utility.yul\":1345:1702   */\n      swap3\n      swap2\n      pop\n      pop\n      jump\t// out\n        /* \"#utility.yul\":1708:1834   */\n    tag_119:\n        /* \"#utility.yul\":1745:1752   */\n      0x00\n        /* \"#utility.yul\":1785:1827   */\n      0xffffffffffffffffffffffffffffffffffffffff\n        /* \"#utility.yul\":1778:1783   */\n      dup3\n        /* \"#utility.yul\":1774:1828   */\n      and\n        /* \"#utility.yul\":1763:1828   */\n      swap1\n      pop\n        /* \"#utility.yul\":1708:1834   */\n      swap2\n      swap1\n      pop\n      jump\t// out\n        /* \"#utility.yul\":1840:1936   */\n    tag_120:\n        /* \"#utility.yul\":1877:1884   */\n      0x00\n        /* \"#utility.yul\":1906:1930   */\n      tag_197\n        /* \"#utility.yul\":1924:1929   */\n      dup3\n        /* \"#utility.yul\":1906:1930   */\n      tag_119\n      jump\t// in\n    tag_197:\n        /* \"#utility.yul\":1895:1930   */\n      swap1\n      pop\n        /* \"#utility.yul\":1840:1936   */\n      swap2\n      swap1\n      pop\n      jump\t// out\n        /* \"#utility.yul\":1942:2050   */\n    tag_121:\n        /* \"#utility.yul\":2019:2043   */\n      tag_199\n        /* \"#utility.yul\":2037:2042   */\n      dup2\n        /* \"#utility.yul\":2019:2043   */\n      tag_120\n      jump\t// in\n    tag_199:\n        /* \"#utility.yul\":2014:2017   */\n      dup3\n        /* \"#utility.yul\":2007:2044   */\n      mstore\n        /* \"#utility.yul\":1942:2050   */\n      pop\n      pop\n      jump\t// out\n        /* \"#utility.yul\":2056:2146   */\n    tag_122:\n        /* \"#utility.yul\":2090:2097   */\n      0x00\n        /* \"#utility.yul\":2133:2138   */\n      dup2\n        /* \"#utility.yul\":2126:2139   */\n      iszero\n        /* \"#utility.yul\":2119:2140   */\n      iszero\n        /* \"#utility.yul\":2108:2140   */\n      swap1\n      pop\n        /* \"#utility.yul\":2056:2146   */\n      swap2\n      swap1\n      pop\n      jump\t// out\n        /* \"#utility.yul\":2152:2251   */\n    tag_123:\n        /* \"#utility.yul\":2223:2244   */\n      tag_202\n        /* \"#utility.yul\":2238:2243   */\n      dup2\n        /* \"#utility.yul\":2223:2244   */\n      tag_122\n      jump\t// in\n    tag_202:\n        /* \"#utility.yul\":2218:2221   */\n      dup3\n        /* \"#utility.yul\":2211:2245   */\n      mstore\n        /* \"#utility.yul\":2152:2251   */\n      pop\n      pop\n      jump\t// out\n        /* \"#utility.yul\":2291:3924   */\n    tag_124:\n        /* \"#utility.yul\":2392:2395   */\n      0x00\n        /* \"#utility.yul\":2428:2432   */\n      0xe0\n        /* \"#utility.yul\":2423:2426   */\n      dup4\n        /* \"#utility.yul\":2419:2433   */\n      add\n        /* \"#utility.yul\":2517:2521   */\n      0x00\n        /* \"#utility.yul\":2510:2515   */\n      dup4\n        /* \"#utility.yul\":2506:2522   */\n      add\n        /* \"#utility.yul\":2500:2523   */\n      mload\n        /* \"#utility.yul\":2536:2599   */\n      tag_204\n        /* \"#utility.yul\":2593:2597   */\n      0x00\n        /* \"#utility.yul\":2588:2591   */\n      dup7\n        /* \"#utility.yul\":2584:2598   */\n      add\n        /* \"#utility.yul\":2570:2582   */\n      dup3\n        /* \"#utility.yul\":2536:2599   */\n      tag_113\n      jump\t// in\n    tag_204:\n        /* \"#utility.yul\":2443:2609   */\n      pop\n        /* \"#utility.yul\":2695:2699   */\n      0x20\n        /* \"#utility.yul\":2688:2693   */\n      dup4\n        /* \"#utility.yul\":2684:2700   */\n      add\n        /* \"#utility.yul\":2678:2701   */\n      mload\n        /* \"#utility.yul\":2748:2751   */\n      dup5\n        /* \"#utility.yul\":2742:2746   */\n      dup3\n        /* \"#utility.yul\":2738:2752   */\n      sub\n        /* \"#utility.yul\":2731:2735   */\n      0x20\n        /* \"#utility.yul\":2726:2729   */\n      dup7\n        /* \"#utility.yul\":2722:2736   */\n      add\n        /* \"#utility.yul\":2715:2753   */\n      mstore\n        /* \"#utility.yul\":2774:2847   */\n      tag_205\n        /* \"#utility.yul\":2842:2846   */\n      dup3\n        /* \"#utility.yul\":2828:2840   */\n      dup3\n        /* \"#utility.yul\":2774:2847   */\n      tag_118\n      jump\t// in\n    tag_205:\n        /* \"#utility.yul\":2766:2847   */\n      swap2\n      pop\n        /* \"#utility.yul\":2619:2858   */\n      pop\n        /* \"#utility.yul\":2944:2948   */\n      0x40\n        /* \"#utility.yul\":2937:2942   */\n      dup4\n        /* \"#utility.yul\":2933:2949   */\n      add\n        /* \"#utility.yul\":2927:2950   */\n      mload\n        /* \"#utility.yul\":2997:3000   */\n      dup5\n        /* \"#utility.yul\":2991:2995   */\n      dup3\n        /* \"#utility.yul\":2987:3001   */\n      sub\n        /* \"#utility.yul\":2980:2984   */\n      0x40\n        /* \"#utility.yul\":2975:2978   */\n      dup7\n        /* \"#utility.yul\":2971:2985   */\n      add\n        /* \"#utility.yul\":2964:3002   */\n      mstore\n        /* \"#utility.yul\":3023:3096   */\n      tag_206\n        /* \"#utility.yul\":3091:3095   */\n      dup3\n        /* \"#utility.yul\":3077:3089   */\n      dup3\n        /* \"#utility.yul\":3023:3096   */\n      tag_118\n      jump\t// in\n    tag_206:\n        /* \"#utility.yul\":3015:3096   */\n      swap2\n      pop\n        /* \"#utility.yul\":2868:3107   */\n      pop\n        /* \"#utility.yul\":3194:3198   */\n      0x60\n        /* \"#utility.yul\":3187:3192   */\n      dup4\n        /* \"#utility.yul\":3183:3199   */\n      add\n        /* \"#utility.yul\":3177:3200   */\n      mload\n        /* \"#utility.yul\":3247:3250   */\n      dup5\n        /* \"#utility.yul\":3241:3245   */\n      dup3\n        /* \"#utility.yul\":3237:3251   */\n      sub\n        /* \"#utility.yul\":3230:3234   */\n      0x60\n        /* \"#utility.yul\":3225:3228   */\n      dup7\n        /* \"#utility.yul\":3221:3235   */\n      add\n        /* \"#utility.yul\":3214:3252   */\n      mstore\n        /* \"#utility.yul\":3273:3346   */\n      tag_207\n        /* \"#utility.yul\":3341:3345   */\n      dup3\n        /* \"#utility.yul\":3327:3339   */\n      dup3\n        /* \"#utility.yul\":3273:3346   */\n      tag_118\n      jump\t// in\n    tag_207:\n        /* \"#utility.yul\":3265:3346   */\n      swap2\n      pop\n        /* \"#utility.yul\":3117:3357   */\n      pop\n        /* \"#utility.yul\":3446:3450   */\n      0x80\n        /* \"#utility.yul\":3439:3444   */\n      dup4\n        /* \"#utility.yul\":3435:3451   */\n      add\n        /* \"#utility.yul\":3429:3452   */\n      mload\n        /* \"#utility.yul\":3465:3528   */\n      tag_208\n        /* \"#utility.yul\":3522:3526   */\n      0x80\n        /* \"#utility.yul\":3517:3520   */\n      dup7\n        /* \"#utility.yul\":3513:3527   */\n      add\n        /* \"#utility.yul\":3499:3511   */\n      dup3\n        /* \"#utility.yul\":3465:3528   */\n      tag_121\n      jump\t// in\n    tag_208:\n        /* \"#utility.yul\":3367:3538   */\n      pop\n        /* \"#utility.yul\":3628:3632   */\n      0xa0\n        /* \"#utility.yul\":3621:3626   */\n      dup4\n        /* \"#utility.yul\":3617:3633   */\n      add\n        /* \"#utility.yul\":3611:3634   */\n      mload\n        /* \"#utility.yul\":3647:3710   */\n      tag_209\n        /* \"#utility.yul\":3704:3708   */\n      0xa0\n        /* \"#utility.yul\":3699:3702   */\n      dup7\n        /* \"#utility.yul\":3695:3709   */\n      add\n        /* \"#utility.yul\":3681:3693   */\n      dup3\n        /* \"#utility.yul\":3647:3710   */\n      tag_113\n      jump\t// in\n    tag_209:\n        /* \"#utility.yul\":3548:3720   */\n      pop\n        /* \"#utility.yul\":3811:3815   */\n      0xc0\n        /* \"#utility.yul\":3804:3809   */\n      dup4\n        /* \"#utility.yul\":3800:3816   */\n      add\n        /* \"#utility.yul\":3794:3817   */\n      mload\n        /* \"#utility.yul\":3830:3887   */\n      tag_210\n        /* \"#utility.yul\":3881:3885   */\n      0xc0\n        /* \"#utility.yul\":3876:3879   */\n      dup7\n        /* \"#utility.yul\":3872:3886   */\n      add\n        /* \"#utility.yul\":3858:3870   */\n      dup3\n        /* \"#utility.yul\":3830:3887   */\n      tag_123\n      jump\t// in\n    tag_210:\n        /* \"#utility.yul\":3730:3897   */\n      pop\n        /* \"#utility.yul\":3914:3918   */\n      dup1\n        /* \"#utility.yul\":3907:3918   */\n      swap2\n      pop\n        /* \"#utility.yul\":2397:3924   */\n      pop\n        /* \"#utility.yul\":2291:3924   */\n      swap3\n      swap2\n      pop\n      pop\n      jump\t// out\n        /* \"#utility.yul\":3930:4170   */\n    tag_125:\n        /* \"#utility.yul\":4041:4051   */\n      0x00\n        /* \"#utility.yul\":4076:4164   */\n      tag_212\n        /* \"#utility.yul\":4160:4163   */\n      dup4\n        /* \"#utility.yul\":4152:4158   */\n      dup4\n        /* \"#utility.yul\":4076:4164   */\n      tag_124\n      jump\t// in\n    tag_212:\n        /* \"#utility.yul\":4062:4164   */\n      swap1\n      pop\n        /* \"#utility.yul\":3930:4170   */\n      swap3\n      swap2\n      pop\n      pop\n      jump\t// out\n        /* \"#utility.yul\":4176:4310   */\n    tag_126:\n        /* \"#utility.yul\":4267:4271   */\n      0x00\n        /* \"#utility.yul\":4299:4303   */\n      0x20\n        /* \"#utility.yul\":4294:4297   */\n      dup3\n        /* \"#utility.yul\":4290:4304   */\n      add\n        /* \"#utility.yul\":4282:4304   */\n      swap1\n      pop\n        /* \"#utility.yul\":4176:4310   */\n      swap2\n      swap1\n      pop\n      jump\t// out\n        /* \"#utility.yul\":4354:5433   */\n    tag_127:\n        /* \"#utility.yul\":4515:4518   */\n      0x00\n        /* \"#utility.yul\":4544:4619   */\n      tag_215\n        /* \"#utility.yul\":4613:4618   */\n      dup3\n        /* \"#utility.yul\":4544:4619   */\n      tag_109\n      jump\t// in\n    tag_215:\n        /* \"#utility.yul\":4635:4742   */\n      tag_216\n        /* \"#utility.yul\":4735:4741   */\n      dup2\n        /* \"#utility.yul\":4730:4733   */\n      dup6\n        /* \"#utility.yul\":4635:4742   */\n      tag_110\n      jump\t// in\n    tag_216:\n        /* \"#utility.yul\":4628:4742   */\n      swap4\n      pop\n        /* \"#utility.yul\":4768:4771   */\n      dup4\n        /* \"#utility.yul\":4813:4817   */\n      0x20\n        /* \"#utility.yul\":4805:4811   */\n      dup3\n        /* \"#utility.yul\":4801:4818   */\n      mul\n        /* \"#utility.yul\":4796:4799   */\n      dup6\n        /* \"#utility.yul\":4792:4819   */\n      add\n        /* \"#utility.yul\":4843:4920   */\n      tag_217\n        /* \"#utility.yul\":4914:4919   */\n      dup6\n        /* \"#utility.yul\":4843:4920   */\n      tag_111\n      jump\t// in\n    tag_217:\n        /* \"#utility.yul\":4943:4950   */\n      dup1\n        /* \"#utility.yul\":4974:4975   */\n      0x00\n        /* \"#utility.yul\":4959:5388   */\n    tag_218:\n        /* \"#utility.yul\":4984:4990   */\n      dup6\n        /* \"#utility.yul\":4981:4982   */\n      dup2\n        /* \"#utility.yul\":4978:4991   */\n      lt\n        /* \"#utility.yul\":4959:5388   */\n      iszero\n      tag_220\n      jumpi\n        /* \"#utility.yul\":5055:5064   */\n      dup5\n        /* \"#utility.yul\":5049:5053   */\n      dup5\n        /* \"#utility.yul\":5045:5065   */\n      sub\n        /* \"#utility.yul\":5040:5043   */\n      dup10\n        /* \"#utility.yul\":5033:5066   */\n      mstore\n        /* \"#utility.yul\":5106:5112   */\n      dup2\n        /* \"#utility.yul\":5100:5113   */\n      mload\n        /* \"#utility.yul\":5134:5240   */\n      tag_221\n        /* \"#utility.yul\":5235:5239   */\n      dup6\n        /* \"#utility.yul\":5220:5233   */\n      dup3\n        /* \"#utility.yul\":5134:5240   */\n      tag_125\n      jump\t// in\n    tag_221:\n        /* \"#utility.yul\":5126:5240   */\n      swap5\n      pop\n        /* \"#utility.yul\":5263:5344   */\n      tag_222\n        /* \"#utility.yul\":5337:5343   */\n      dup4\n        /* \"#utility.yul\":5263:5344   */\n      tag_126\n      jump\t// in\n    tag_222:\n        /* \"#utility.yul\":5253:5344   */\n      swap3\n      pop\n        /* \"#utility.yul\":5373:5377   */\n      0x20\n        /* \"#utility.yul\":5368:5371   */\n      dup11\n        /* \"#utility.yul\":5364:5378   */\n      add\n        /* \"#utility.yul\":5357:5378   */\n      swap10\n      pop\n        /* \"#utility.yul\":5019:5388   */\n      pop\n        /* \"#utility.yul\":5006:5007   */\n      0x01\n        /* \"#utility.yul\":5003:5004   */\n      dup2\n        /* \"#utility.yul\":4999:5008   */\n      add\n        /* \"#utility.yul\":4994:5008   */\n      swap1\n      pop\n        /* \"#utility.yul\":4959:5388   */\n      jump(tag_218)\n    tag_220:\n        /* \"#utility.yul\":4963:4977   */\n      pop\n        /* \"#utility.yul\":5404:5408   */\n      dup3\n        /* \"#utility.yul\":5397:5408   */\n      swap8\n      pop\n        /* \"#utility.yul\":5424:5427   */\n      dup8\n        /* \"#utility.yul\":5417:5427   */\n      swap6\n      pop\n        /* \"#utility.yul\":4520:5433   */\n      pop\n      pop\n      pop\n      pop\n      pop\n        /* \"#utility.yul\":4354:5433   */\n      swap3\n      swap2\n      pop\n      pop\n      jump\t// out\n        /* \"#utility.yul\":5439:5896   */\n    tag_14:\n        /* \"#utility.yul\":5624:5628   */\n      0x00\n        /* \"#utility.yul\":5662:5664   */\n      0x20\n        /* \"#utility.yul\":5651:5660   */\n      dup3\n        /* \"#utility.yul\":5647:5665   */\n      add\n        /* \"#utility.yul\":5639:5665   */\n      swap1\n      pop\n        /* \"#utility.yul\":5711:5720   */\n      dup2\n        /* \"#utility.yul\":5705:5709   */\n      dup2\n        /* \"#utility.yul\":5701:5721   */\n      sub\n        /* \"#utility.yul\":5697:5698   */\n      0x00\n        /* \"#utility.yul\":5686:5695   */\n      dup4\n        /* \"#utility.yul\":5682:5699   */\n      add\n        /* \"#utility.yul\":5675:5722   */\n      mstore\n        /* \"#utility.yul\":5739:5889   */\n      tag_224\n        /* \"#utility.yul\":5884:5888   */\n      dup2\n        /* \"#utility.yul\":5875:5881   */\n      dup5\n        /* \"#utility.yul\":5739:5889   */\n      tag_127\n      jump\t// in\n    tag_224:\n        /* \"#utility.yul\":5731:5889   */\n      swap1\n      pop\n        /* \"#utility.yul\":5439:5896   */\n      swap3\n      swap2\n      pop\n      pop\n      jump\t// out\n        /* \"#utility.yul\":5902:5977   */\n    tag_128:\n        /* \"#utility.yul\":5935:5941   */\n      0x00\n        /* \"#utility.yul\":5968:5970   */\n      0x40\n        /* \"#utility.yul\":5962:5971   */\n      mload\n        /* \"#utility.yul\":5952:5971   */\n      swap1\n      pop\n        /* \"#utility.yul\":5902:5977   */\n      swap1\n      jump\t// out\n        /* \"#utility.yul\":5983:6100   */\n    tag_129:\n        /* \"#utility.yul\":6092:6093   */\n      0x00\n        /* \"#utility.yul\":6089:6090   */\n      dup1\n        /* \"#utility.yul\":6082:6094   */\n      revert\n        /* \"#utility.yul\":6106:6223   */\n    tag_130:\n        /* \"#utility.yul\":6215:6216   */\n      0x00\n        /* \"#utility.yul\":6212:6213   */\n      dup1\n        /* \"#utility.yul\":6205:6217   */\n      revert\n        /* \"#utility.yul\":6229:6351   */\n    tag_131:\n        /* \"#utility.yul\":6302:6326   */\n      tag_229\n        /* \"#utility.yul\":6320:6325   */\n      dup2\n        /* \"#utility.yul\":6302:6326   */\n      tag_120\n      jump\t// in\n    tag_229:\n        /* \"#utility.yul\":6295:6300   */\n      dup2\n        /* \"#utility.yul\":6292:6327   */\n      eq\n        /* \"#utility.yul\":6282:6345   */\n      tag_230\n      jumpi\n        /* \"#utility.yul\":6341:6342   */\n      0x00\n        /* \"#utility.yul\":6338:6339   */\n      dup1\n        /* \"#utility.yul\":6331:6343   */\n      revert\n        /* \"#utility.yul\":6282:6345   */\n    tag_230:\n        /* \"#utility.yul\":6229:6351   */\n      pop\n      jump\t// out\n        /* \"#utility.yul\":6357:6496   */\n    tag_132:\n        /* \"#utility.yul\":6403:6408   */\n      0x00\n        /* \"#utility.yul\":6441:6447   */\n      dup2\n        /* \"#utility.yul\":6428:6448   */\n      calldataload\n        /* \"#utility.yul\":6419:6448   */\n      swap1\n      pop\n        /* \"#utility.yul\":6457:6490   */\n      tag_232\n        /* \"#utility.yul\":6484:6489   */\n      dup2\n        /* \"#utility.yul\":6457:6490   */\n      tag_131\n      jump\t// in\n    tag_232:\n        /* \"#utility.yul\":6357:6496   */\n      swap3\n      swap2\n      pop\n      pop\n      jump\t// out\n        /* \"#utility.yul\":6502:6831   */\n    tag_17:\n        /* \"#utility.yul\":6561:6567   */\n      0x00\n        /* \"#utility.yul\":6610:6612   */\n      0x20\n        /* \"#utility.yul\":6598:6607   */\n      dup3\n        /* \"#utility.yul\":6589:6596   */\n      dup5\n        /* \"#utility.yul\":6585:6608   */\n      sub\n        /* \"#utility.yul\":6581:6613   */\n      slt\n        /* \"#utility.yul\":6578:6697   */\n      iszero\n      tag_234\n      jumpi\n        /* \"#utility.yul\":6616:6695   */\n      tag_235\n      tag_129\n      jump\t// in\n    tag_235:\n        /* \"#utility.yul\":6578:6697   */\n    tag_234:\n        /* \"#utility.yul\":6736:6737   */\n      0x00\n        /* \"#utility.yul\":6761:6814   */\n      tag_236\n        /* \"#utility.yul\":6806:6813   */\n      dup5\n        /* \"#utility.yul\":6797:6803   */\n      dup3\n        /* \"#utility.yul\":6786:6795   */\n      dup6\n        /* \"#utility.yul\":6782:6804   */\n      add\n        /* \"#utility.yul\":6761:6814   */\n      tag_132\n      jump\t// in\n    tag_236:\n        /* \"#utility.yul\":6751:6814   */\n      swap2\n      pop\n        /* \"#utility.yul\":6707:6824   */\n      pop\n        /* \"#utility.yul\":6502:6831   */\n      swap3\n      swap2\n      pop\n      pop\n      jump\t// out\n        /* \"#utility.yul\":6837:6954   */\n    tag_133:\n        /* \"#utility.yul\":6946:6947   */\n      0x00\n        /* \"#utility.yul\":6943:6944   */\n      dup1\n        /* \"#utility.yul\":6936:6948   */\n      revert\n        /* \"#utility.yul\":6960:7140   */\n    tag_134:\n        /* \"#utility.yul\":7008:7085   */\n      0x4e487b7100000000000000000000000000000000000000000000000000000000\n        /* \"#utility.yul\":7005:7006   */\n      0x00\n        /* \"#utility.yul\":6998:7086   */\n      mstore\n        /* \"#utility.yul\":7105:7109   */\n      0x41\n        /* \"#utility.yul\":7102:7103   */\n      0x04\n        /* \"#utility.yul\":7095:7110   */\n      mstore\n        /* \"#utility.yul\":7129:7133   */\n      0x24\n        /* \"#utility.yul\":7126:7127   */\n      0x00\n        /* \"#utility.yul\":7119:7134   */\n      revert\n        /* \"#utility.yul\":7146:7427   */\n    tag_135:\n        /* \"#utility.yul\":7229:7256   */\n      tag_240\n        /* \"#utility.yul\":7251:7255   */\n      dup3\n        /* \"#utility.yul\":7229:7256   */\n      tag_117\n      jump\t// in\n    tag_240:\n        /* \"#utility.yul\":7221:7227   */\n      dup2\n        /* \"#utility.yul\":7217:7257   */\n      add\n        /* \"#utility.yul\":7359:7365   */\n      dup2\n        /* \"#utility.yul\":7347:7357   */\n      dup2\n        /* \"#utility.yul\":7344:7366   */\n      lt\n        /* \"#utility.yul\":7323:7341   */\n      0xffffffffffffffff\n        /* \"#utility.yul\":7311:7321   */\n      dup3\n        /* \"#utility.yul\":7308:7342   */\n      gt\n        /* \"#utility.yul\":7305:7367   */\n      or\n        /* \"#utility.yul\":7302:7390   */\n      iszero\n      tag_241\n      jumpi\n        /* \"#utility.yul\":7370:7388   */\n      tag_242\n      tag_134\n      jump\t// in\n    tag_242:\n        /* \"#utility.yul\":7302:7390   */\n    tag_241:\n        /* \"#utility.yul\":7410:7420   */\n      dup1\n        /* \"#utility.yul\":7406:7408   */\n      0x40\n        /* \"#utility.yul\":7399:7421   */\n      mstore\n        /* \"#utility.yul\":7189:7427   */\n      pop\n        /* \"#utility.yul\":7146:7427   */\n      pop\n      pop\n      jump\t// out\n        /* \"#utility.yul\":7433:7562   */\n    tag_136:\n        /* \"#utility.yul\":7467:7473   */\n      0x00\n        /* \"#utility.yul\":7494:7514   */\n      tag_244\n      tag_128\n      jump\t// in\n    tag_244:\n        /* \"#utility.yul\":7484:7514   */\n      swap1\n      pop\n        /* \"#utility.yul\":7523:7556   */\n      tag_245\n        /* \"#utility.yul\":7551:7555   */\n      dup3\n        /* \"#utility.yul\":7543:7549   */\n      dup3\n        /* \"#utility.yul\":7523:7556   */\n      tag_135\n      jump\t// in\n    tag_245:\n        /* \"#utility.yul\":7433:7562   */\n      swap2\n      swap1\n      pop\n      jump\t// out\n        /* \"#utility.yul\":7568:7685   */\n    tag_137:\n        /* \"#utility.yul\":7677:7678   */\n      0x00\n        /* \"#utility.yul\":7674:7675   */\n      dup1\n        /* \"#utility.yul\":7667:7679   */\n      revert\n        /* \"#utility.yul\":7691:7813   */\n    tag_138:\n        /* \"#utility.yul\":7764:7788   */\n      tag_248\n        /* \"#utility.yul\":7782:7787   */\n      dup2\n        /* \"#utility.yul\":7764:7788   */\n      tag_112\n      jump\t// in\n    tag_248:\n        /* \"#utility.yul\":7757:7762   */\n      dup2\n        /* \"#utility.yul\":7754:7789   */\n      eq\n        /* \"#utility.yul\":7744:7807   */\n      tag_249\n      jumpi\n        /* \"#utility.yul\":7803:7804   */\n      0x00\n        /* \"#utility.yul\":7800:7801   */\n      dup1\n        /* \"#utility.yul\":7793:7805   */\n      revert\n        /* \"#utility.yul\":7744:7807   */\n    tag_249:\n        /* \"#utility.yul\":7691:7813   */\n      pop\n      jump\t// out\n        /* \"#utility.yul\":7819:7958   */\n    tag_139:\n        /* \"#utility.yul\":7865:7870   */\n      0x00\n        /* \"#utility.yul\":7903:7909   */\n      dup2\n        /* \"#utility.yul\":7890:7910   */\n      calldataload\n        /* \"#utility.yul\":7881:7910   */\n      swap1\n      pop\n        /* \"#utility.yul\":7919:7952   */\n      tag_251\n        /* \"#utility.yul\":7946:7951   */\n      dup2\n        /* \"#utility.yul\":7919:7952   */\n      tag_138\n      jump\t// in\n    tag_251:\n        /* \"#utility.yul\":7819:7958   */\n      swap3\n      swap2\n      pop\n      pop\n      jump\t// out\n        /* \"#utility.yul\":7964:8081   */\n    tag_140:\n        /* \"#utility.yul\":8073:8074   */\n      0x00\n        /* \"#utility.yul\":8070:8071   */\n      dup1\n        /* \"#utility.yul\":8063:8075   */\n      revert\n        /* \"#utility.yul\":8087:8204   */\n    tag_141:\n        /* \"#utility.yul\":8196:8197   */\n      0x00\n        /* \"#utility.yul\":8193:8194   */\n      dup1\n        /* \"#utility.yul\":8186:8198   */\n      revert\n        /* \"#utility.yul\":8210:8518   */\n    tag_142:\n        /* \"#utility.yul\":8272:8276   */\n      0x00\n        /* \"#utility.yul\":8362:8380   */\n      0xffffffffffffffff\n        /* \"#utility.yul\":8354:8360   */\n      dup3\n        /* \"#utility.yul\":8351:8381   */\n      gt\n        /* \"#utility.yul\":8348:8404   */\n      iszero\n      tag_255\n      jumpi\n        /* \"#utility.yul\":8384:8402   */\n      tag_256\n      tag_134\n      jump\t// in\n    tag_256:\n        /* \"#utility.yul\":8348:8404   */\n    tag_255:\n        /* \"#utility.yul\":8422:8451   */\n      tag_257\n        /* \"#utility.yul\":8444:8450   */\n      dup3\n        /* \"#utility.yul\":8422:8451   */\n      tag_117\n      jump\t// in\n    tag_257:\n        /* \"#utility.yul\":8414:8451   */\n      swap1\n      pop\n        /* \"#utility.yul\":8506:8510   */\n      0x20\n        /* \"#utility.yul\":8500:8504   */\n      dup2\n        /* \"#utility.yul\":8496:8511   */\n      add\n        /* \"#utility.yul\":8488:8511   */\n      swap1\n      pop\n        /* \"#utility.yul\":8210:8518   */\n      swap2\n      swap1\n      pop\n      jump\t// out\n        /* \"#utility.yul\":8524:8670   */\n    tag_143:\n        /* \"#utility.yul\":8621:8627   */\n      dup3\n        /* \"#utility.yul\":8616:8619   */\n      dup2\n        /* \"#utility.yul\":8611:8614   */\n      dup4\n        /* \"#utility.yul\":8598:8628   */\n      calldatacopy\n        /* \"#utility.yul\":8662:8663   */\n      0x00\n        /* \"#utility.yul\":8653:8659   */\n      dup4\n        /* \"#utility.yul\":8648:8651   */\n      dup4\n        /* \"#utility.yul\":8644:8660   */\n      add\n        /* \"#utility.yul\":8637:8664   */\n      mstore\n        /* \"#utility.yul\":8524:8670   */\n      pop\n      pop\n      pop\n      jump\t// out\n        /* \"#utility.yul\":8676:9101   */\n    tag_144:\n        /* \"#utility.yul\":8754:8759   */\n      0x00\n        /* \"#utility.yul\":8779:8845   */\n      tag_260\n        /* \"#utility.yul\":8795:8844   */\n      tag_261\n        /* \"#utility.yul\":8837:8843   */\n      dup5\n        /* \"#utility.yul\":8795:8844   */\n      tag_142\n      jump\t// in\n    tag_261:\n        /* \"#utility.yul\":8779:8845   */\n      tag_136\n      jump\t// in\n    tag_260:\n        /* \"#utility.yul\":8770:8845   */\n      swap1\n      pop\n        /* \"#utility.yul\":8868:8874   */\n      dup3\n        /* \"#utility.yul\":8861:8866   */\n      dup2\n        /* \"#utility.yul\":8854:8875   */\n      mstore\n        /* \"#utility.yul\":8906:8910   */\n      0x20\n        /* \"#utility.yul\":8899:8904   */\n      dup2\n        /* \"#utility.yul\":8895:8911   */\n      add\n        /* \"#utility.yul\":8944:8947   */\n      dup5\n        /* \"#utility.yul\":8935:8941   */\n      dup5\n        /* \"#utility.yul\":8930:8933   */\n      dup5\n        /* \"#utility.yul\":8926:8942   */\n      add\n        /* \"#utility.yul\":8923:8948   */\n      gt\n        /* \"#utility.yul\":8920:9032   */\n      iszero\n      tag_262\n      jumpi\n        /* \"#utility.yul\":8951:9030   */\n      tag_263\n      tag_141\n      jump\t// in\n    tag_263:\n        /* \"#utility.yul\":8920:9032   */\n    tag_262:\n        /* \"#utility.yul\":9041:9095   */\n      tag_264\n        /* \"#utility.yul\":9088:9094   */\n      dup5\n        /* \"#utility.yul\":9083:9086   */\n      dup3\n        /* \"#utility.yul\":9078:9081   */\n      dup6\n        /* \"#utility.yul\":9041:9095   */\n      tag_143\n      jump\t// in\n    tag_264:\n        /* \"#utility.yul\":8760:9101   */\n      pop\n        /* \"#utility.yul\":8676:9101   */\n      swap4\n      swap3\n      pop\n      pop\n      pop\n      jump\t// out\n        /* \"#utility.yul\":9121:9461   */\n    tag_145:\n        /* \"#utility.yul\":9177:9182   */\n      0x00\n        /* \"#utility.yul\":9226:9229   */\n      dup3\n        /* \"#utility.yul\":9219:9223   */\n      0x1f\n        /* \"#utility.yul\":9211:9217   */\n      dup4\n        /* \"#utility.yul\":9207:9224   */\n      add\n        /* \"#utility.yul\":9203:9230   */\n      slt\n        /* \"#utility.yul\":9193:9315   */\n      tag_266\n      jumpi\n        /* \"#utility.yul\":9234:9313   */\n      tag_267\n      tag_140\n      jump\t// in\n    tag_267:\n        /* \"#utility.yul\":9193:9315   */\n    tag_266:\n        /* \"#utility.yul\":9351:9357   */\n      dup2\n        /* \"#utility.yul\":9338:9358   */\n      calldataload\n        /* \"#utility.yul\":9376:9455   */\n      tag_268\n        /* \"#utility.yul\":9451:9454   */\n      dup5\n        /* \"#utility.yul\":9443:9449   */\n      dup3\n        /* \"#utility.yul\":9436:9440   */\n      0x20\n        /* \"#utility.yul\":9428:9434   */\n      dup7\n        /* \"#utility.yul\":9424:9441   */\n      add\n        /* \"#utility.yul\":9376:9455   */\n      tag_144\n      jump\t// in\n    tag_268:\n        /* \"#utility.yul\":9367:9455   */\n      swap2\n      pop\n        /* \"#utility.yul\":9183:9461   */\n      pop\n        /* \"#utility.yul\":9121:9461   */\n      swap3\n      swap2\n      pop\n      pop\n      jump\t// out\n        /* \"#utility.yul\":9467:9583   */\n    tag_146:\n        /* \"#utility.yul\":9537:9558   */\n      tag_270\n        /* \"#utility.yul\":9552:9557   */\n      dup2\n        /* \"#utility.yul\":9537:9558   */\n      tag_122\n      jump\t// in\n    tag_270:\n        /* \"#utility.yul\":9530:9535   */\n      dup2\n        /* \"#utility.yul\":9527:9559   */\n      eq\n        /* \"#utility.yul\":9517:9577   */\n      tag_271\n      jumpi\n        /* \"#utility.yul\":9573:9574   */\n      0x00\n        /* \"#utility.yul\":9570:9571   */\n      dup1\n        /* \"#utility.yul\":9563:9575   */\n      revert\n        /* \"#utility.yul\":9517:9577   */\n    tag_271:\n        /* \"#utility.yul\":9467:9583   */\n      pop\n      jump\t// out\n        /* \"#utility.yul\":9589:9722   */\n    tag_147:\n        /* \"#utility.yul\":9632:9637   */\n      0x00\n        /* \"#utility.yul\":9670:9676   */\n      dup2\n        /* \"#utility.yul\":9657:9677   */\n      calldataload\n        /* \"#utility.yul\":9648:9677   */\n      swap1\n      pop\n        /* \"#utility.yul\":9686:9716   */\n      tag_273\n        /* \"#utility.yul\":9710:9715   */\n      dup2\n        /* \"#utility.yul\":9686:9716   */\n      tag_146\n      jump\t// in\n    tag_273:\n        /* \"#utility.yul\":9589:9722   */\n      swap3\n      swap2\n      pop\n      pop\n      jump\t// out\n        /* \"#utility.yul\":9747:11671   */\n    tag_148:\n        /* \"#utility.yul\":9817:9822   */\n      0x00\n        /* \"#utility.yul\":9861:9865   */\n      0xe0\n        /* \"#utility.yul\":9849:9858   */\n      dup3\n        /* \"#utility.yul\":9844:9847   */\n      dup5\n        /* \"#utility.yul\":9840:9859   */\n      sub\n        /* \"#utility.yul\":9836:9866   */\n      slt\n        /* \"#utility.yul\":9833:9950   */\n      iszero\n      tag_275\n      jumpi\n        /* \"#utility.yul\":9869:9948   */\n      tag_276\n      tag_133\n      jump\t// in\n    tag_276:\n        /* \"#utility.yul\":9833:9950   */\n    tag_275:\n        /* \"#utility.yul\":9968:9989   */\n      tag_277\n        /* \"#utility.yul\":9984:9988   */\n      0xe0\n        /* \"#utility.yul\":9968:9989   */\n      tag_136\n      jump\t// in\n    tag_277:\n        /* \"#utility.yul\":9959:9989   */\n      swap1\n      pop\n        /* \"#utility.yul\":10050:10051   */\n      0x00\n        /* \"#utility.yul\":10090:10139   */\n      tag_278\n        /* \"#utility.yul\":10135:10138   */\n      dup5\n        /* \"#utility.yul\":10126:10132   */\n      dup3\n        /* \"#utility.yul\":10115:10124   */\n      dup6\n        /* \"#utility.yul\":10111:10133   */\n      add\n        /* \"#utility.yul\":10090:10139   */\n      tag_139\n      jump\t// in\n    tag_278:\n        /* \"#utility.yul\":10083:10087   */\n      0x00\n        /* \"#utility.yul\":10076:10081   */\n      dup4\n        /* \"#utility.yul\":10072:10088   */\n      add\n        /* \"#utility.yul\":10065:10140   */\n      mstore\n        /* \"#utility.yul\":9999:10151   */\n      pop\n        /* \"#utility.yul\":10242:10244   */\n      0x20\n        /* \"#utility.yul\":10231:10240   */\n      dup3\n        /* \"#utility.yul\":10227:10245   */\n      add\n        /* \"#utility.yul\":10214:10246   */\n      calldataload\n        /* \"#utility.yul\":10273:10291   */\n      0xffffffffffffffff\n        /* \"#utility.yul\":10265:10271   */\n      dup2\n        /* \"#utility.yul\":10262:10292   */\n      gt\n        /* \"#utility.yul\":10259:10376   */\n      iszero\n      tag_279\n      jumpi\n        /* \"#utility.yul\":10295:10374   */\n      tag_280\n      tag_137\n      jump\t// in\n    tag_280:\n        /* \"#utility.yul\":10259:10376   */\n    tag_279:\n        /* \"#utility.yul\":10415:10474   */\n      tag_281\n        /* \"#utility.yul\":10470:10473   */\n      dup5\n        /* \"#utility.yul\":10461:10467   */\n      dup3\n        /* \"#utility.yul\":10450:10459   */\n      dup6\n        /* \"#utility.yul\":10446:10468   */\n      add\n        /* \"#utility.yul\":10415:10474   */\n      tag_145\n      jump\t// in\n    tag_281:\n        /* \"#utility.yul\":10408:10412   */\n      0x20\n        /* \"#utility.yul\":10401:10406   */\n      dup4\n        /* \"#utility.yul\":10397:10413   */\n      add\n        /* \"#utility.yul\":10390:10475   */\n      mstore\n        /* \"#utility.yul\":10161:10486   */\n      pop\n        /* \"#utility.yul\":10577:10579   */\n      0x40\n        /* \"#utility.yul\":10566:10575   */\n      dup3\n        /* \"#utility.yul\":10562:10580   */\n      add\n        /* \"#utility.yul\":10549:10581   */\n      calldataload\n        /* \"#utility.yul\":10608:10626   */\n      0xffffffffffffffff\n        /* \"#utility.yul\":10600:10606   */\n      dup2\n        /* \"#utility.yul\":10597:10627   */\n      gt\n        /* \"#utility.yul\":10594:10711   */\n      iszero\n      tag_282\n      jumpi\n        /* \"#utility.yul\":10630:10709   */\n      tag_283\n      tag_137\n      jump\t// in\n    tag_283:\n        /* \"#utility.yul\":10594:10711   */\n    tag_282:\n        /* \"#utility.yul\":10750:10809   */\n      tag_284\n        /* \"#utility.yul\":10805:10808   */\n      dup5\n        /* \"#utility.yul\":10796:10802   */\n      dup3\n        /* \"#utility.yul\":10785:10794   */\n      dup6\n        /* \"#utility.yul\":10781:10803   */\n      add\n        /* \"#utility.yul\":10750:10809   */\n      tag_145\n      jump\t// in\n    tag_284:\n        /* \"#utility.yul\":10743:10747   */\n      0x40\n        /* \"#utility.yul\":10736:10741   */\n      dup4\n        /* \"#utility.yul\":10732:10748   */\n      add\n        /* \"#utility.yul\":10725:10810   */\n      mstore\n        /* \"#utility.yul\":10496:10821   */\n      pop\n        /* \"#utility.yul\":10913:10915   */\n      0x60\n        /* \"#utility.yul\":10902:10911   */\n      dup3\n        /* \"#utility.yul\":10898:10916   */\n      add\n        /* \"#utility.yul\":10885:10917   */\n      calldataload\n        /* \"#utility.yul\":10944:10962   */\n      0xffffffffffffffff\n        /* \"#utility.yul\":10936:10942   */\n      dup2\n        /* \"#utility.yul\":10933:10963   */\n      gt\n        /* \"#utility.yul\":10930:11047   */\n      iszero\n      tag_285\n      jumpi\n        /* \"#utility.yul\":10966:11045   */\n      tag_286\n      tag_137\n      jump\t// in\n    tag_286:\n        /* \"#utility.yul\":10930:11047   */\n    tag_285:\n        /* \"#utility.yul\":11086:11145   */\n      tag_287\n        /* \"#utility.yul\":11141:11144   */\n      dup5\n        /* \"#utility.yul\":11132:11138   */\n      dup3\n        /* \"#utility.yul\":11121:11130   */\n      dup6\n        /* \"#utility.yul\":11117:11139   */\n      add\n        /* \"#utility.yul\":11086:11145   */\n      tag_145\n      jump\t// in\n    tag_287:\n        /* \"#utility.yul\":11079:11083   */\n      0x60\n        /* \"#utility.yul\":11072:11077   */\n      dup4\n        /* \"#utility.yul\":11068:11084   */\n      add\n        /* \"#utility.yul\":11061:11146   */\n      mstore\n        /* \"#utility.yul\":10831:11157   */\n      pop\n        /* \"#utility.yul\":11223:11226   */\n      0x80\n        /* \"#utility.yul\":11265:11314   */\n      tag_288\n        /* \"#utility.yul\":11310:11313   */\n      dup5\n        /* \"#utility.yul\":11301:11307   */\n      dup3\n        /* \"#utility.yul\":11290:11299   */\n      dup6\n        /* \"#utility.yul\":11286:11308   */\n      add\n        /* \"#utility.yul\":11265:11314   */\n      tag_132\n      jump\t// in\n    tag_288:\n        /* \"#utility.yul\":11258:11262   */\n      0x80\n        /* \"#utility.yul\":11251:11256   */\n      dup4\n        /* \"#utility.yul\":11247:11263   */\n      add\n        /* \"#utility.yul\":11240:11315   */\n      mstore\n        /* \"#utility.yul\":11167:11326   */\n      pop\n        /* \"#utility.yul\":11393:11396   */\n      0xa0\n        /* \"#utility.yul\":11435:11484   */\n      tag_289\n        /* \"#utility.yul\":11480:11483   */\n      dup5\n        /* \"#utility.yul\":11471:11477   */\n      dup3\n        /* \"#utility.yul\":11460:11469   */\n      dup6\n        /* \"#utility.yul\":11456:11478   */\n      add\n        /* \"#utility.yul\":11435:11484   */\n      tag_139\n      jump\t// in\n    tag_289:\n        /* \"#utility.yul\":11428:11432   */\n      0xa0\n        /* \"#utility.yul\":11421:11426   */\n      dup4\n        /* \"#utility.yul\":11417:11433   */\n      add\n        /* \"#utility.yul\":11410:11485   */\n      mstore\n        /* \"#utility.yul\":11336:11496   */\n      pop\n        /* \"#utility.yul\":11564:11567   */\n      0xc0\n        /* \"#utility.yul\":11606:11652   */\n      tag_290\n        /* \"#utility.yul\":11648:11651   */\n      dup5\n        /* \"#utility.yul\":11639:11645   */\n      dup3\n        /* \"#utility.yul\":11628:11637   */\n      dup6\n        /* \"#utility.yul\":11624:11646   */\n      add\n        /* \"#utility.yul\":11606:11652   */\n      tag_147\n      jump\t// in\n    tag_290:\n        /* \"#utility.yul\":11599:11603   */\n      0xc0\n        /* \"#utility.yul\":11592:11597   */\n      dup4\n        /* \"#utility.yul\":11588:11604   */\n      add\n        /* \"#utility.yul\":11581:11653   */\n      mstore\n        /* \"#utility.yul\":11506:11664   */\n      pop\n        /* \"#utility.yul\":9747:11671   */\n      swap3\n      swap2\n      pop\n      pop\n      jump\t// out\n        /* \"#utility.yul\":11677:12208   */\n    tag_21:\n        /* \"#utility.yul\":11757:11763   */\n      0x00\n        /* \"#utility.yul\":11806:11808   */\n      0x20\n        /* \"#utility.yul\":11794:11803   */\n      dup3\n        /* \"#utility.yul\":11785:11792   */\n      dup5\n        /* \"#utility.yul\":11781:11804   */\n      sub\n        /* \"#utility.yul\":11777:11809   */\n      slt\n        /* \"#utility.yul\":11774:11893   */\n      iszero\n      tag_292\n      jumpi\n        /* \"#utility.yul\":11812:11891   */\n      tag_293\n      tag_129\n      jump\t// in\n    tag_293:\n        /* \"#utility.yul\":11774:11893   */\n    tag_292:\n        /* \"#utility.yul\":11960:11961   */\n      0x00\n        /* \"#utility.yul\":11949:11958   */\n      dup3\n        /* \"#utility.yul\":11945:11962   */\n      add\n        /* \"#utility.yul\":11932:11963   */\n      calldataload\n        /* \"#utility.yul\":11990:12008   */\n      0xffffffffffffffff\n        /* \"#utility.yul\":11982:11988   */\n      dup2\n        /* \"#utility.yul\":11979:12009   */\n      gt\n        /* \"#utility.yul\":11976:12093   */\n      iszero\n      tag_294\n      jumpi\n        /* \"#utility.yul\":12012:12091   */\n      tag_295\n      tag_130\n      jump\t// in\n    tag_295:\n        /* \"#utility.yul\":11976:12093   */\n    tag_294:\n        /* \"#utility.yul\":12117:12191   */\n      tag_296\n        /* \"#utility.yul\":12183:12190   */\n      dup5\n        /* \"#utility.yul\":12174:12180   */\n      dup3\n        /* \"#utility.yul\":12163:12172   */\n      dup6\n        /* \"#utility.yul\":12159:12181   */\n      add\n        /* \"#utility.yul\":12117:12191   */\n      tag_148\n      jump\t// in\n    tag_296:\n        /* \"#utility.yul\":12107:12191   */\n      swap2\n      pop\n        /* \"#utility.yul\":11903:12201   */\n      pop\n        /* \"#utility.yul\":11677:12208   */\n      swap3\n      swap2\n      pop\n      pop\n      jump\t// out\n        /* \"#utility.yul\":12214:12332   */\n    tag_149:\n        /* \"#utility.yul\":12301:12325   */\n      tag_298\n        /* \"#utility.yul\":12319:12324   */\n      dup2\n        /* \"#utility.yul\":12301:12325   */\n      tag_120\n      jump\t// in\n    tag_298:\n        /* \"#utility.yul\":12296:12299   */\n      dup3\n        /* \"#utility.yul\":12289:12326   */\n      mstore\n        /* \"#utility.yul\":12214:12332   */\n      pop\n      pop\n      jump\t// out\n        /* \"#utility.yul\":12338:12560   */\n    tag_28:\n        /* \"#utility.yul\":12431:12435   */\n      0x00\n        /* \"#utility.yul\":12469:12471   */\n      0x20\n        /* \"#utility.yul\":12458:12467   */\n      dup3\n        /* \"#utility.yul\":12454:12472   */\n      add\n        /* \"#utility.yul\":12446:12472   */\n      swap1\n      pop\n        /* \"#utility.yul\":12482:12553   */\n      tag_300\n        /* \"#utility.yul\":12550:12551   */\n      0x00\n        /* \"#utility.yul\":12539:12548   */\n      dup4\n        /* \"#utility.yul\":12535:12552   */\n      add\n        /* \"#utility.yul\":12526:12532   */\n      dup5\n        /* \"#utility.yul\":12482:12553   */\n      tag_149\n      jump\t// in\n    tag_300:\n        /* \"#utility.yul\":12338:12560   */\n      swap3\n      swap2\n      pop\n      pop\n      jump\t// out\n        /* \"#utility.yul\":12566:12895   */\n    tag_31:\n        /* \"#utility.yul\":12625:12631   */\n      0x00\n        /* \"#utility.yul\":12674:12676   */\n      0x20\n        /* \"#utility.yul\":12662:12671   */\n      dup3\n        /* \"#utility.yul\":12653:12660   */\n      dup5\n        /* \"#utility.yul\":12649:12672   */\n      sub\n        /* \"#utility.yul\":12645:12677   */\n      slt\n        /* \"#utility.yul\":12642:12761   */\n      iszero\n      tag_302\n      jumpi\n        /* \"#utility.yul\":12680:12759   */\n      tag_303\n      tag_129\n      jump\t// in\n    tag_303:\n        /* \"#utility.yul\":12642:12761   */\n    tag_302:\n        /* \"#utility.yul\":12800:12801   */\n      0x00\n        /* \"#utility.yul\":12825:12878   */\n      tag_304\n        /* \"#utility.yul\":12870:12877   */\n      dup5\n        /* \"#utility.yul\":12861:12867   */\n      dup3\n        /* \"#utility.yul\":12850:12859   */\n      dup6\n        /* \"#utility.yul\":12846:12868   */\n      add\n        /* \"#utility.yul\":12825:12878   */\n      tag_139\n      jump\t// in\n    tag_304:\n        /* \"#utility.yul\":12815:12878   */\n      swap2\n      pop\n        /* \"#utility.yul\":12771:12888   */\n      pop\n        /* \"#utility.yul\":12566:12895   */\n      swap3\n      swap2\n      pop\n      pop\n      jump\t// out\n        /* \"#utility.yul\":12901:13070   */\n    tag_150:\n        /* \"#utility.yul\":12985:12996   */\n      0x00\n        /* \"#utility.yul\":13019:13025   */\n      dup3\n        /* \"#utility.yul\":13014:13017   */\n      dup3\n        /* \"#utility.yul\":13007:13026   */\n      mstore\n        /* \"#utility.yul\":13059:13063   */\n      0x20\n        /* \"#utility.yul\":13054:13057   */\n      dup3\n        /* \"#utility.yul\":13050:13064   */\n      add\n        /* \"#utility.yul\":13035:13064   */\n      swap1\n      pop\n        /* \"#utility.yul\":12901:13070   */\n      swap3\n      swap2\n      pop\n      pop\n      jump\t// out\n        /* \"#utility.yul\":13076:13308   */\n    tag_151:\n        /* \"#utility.yul\":13216:13250   */\n      0x5573657244617461626173653a206f6e6c7920636f6e74726163742077686963\n        /* \"#utility.yul\":13212:13213   */\n      0x00\n        /* \"#utility.yul\":13204:13210   */\n      dup3\n        /* \"#utility.yul\":13200:13214   */\n      add\n        /* \"#utility.yul\":13193:13251   */\n      mstore\n        /* \"#utility.yul\":13285:13300   */\n      0x682061726520616c6c6f77656400000000000000000000000000000000000000\n        /* \"#utility.yul\":13280:13282   */\n      0x20\n        /* \"#utility.yul\":13272:13278   */\n      dup3\n        /* \"#utility.yul\":13268:13283   */\n      add\n        /* \"#utility.yul\":13261:13301   */\n      mstore\n        /* \"#utility.yul\":13076:13308   */\n      pop\n      jump\t// out\n        /* \"#utility.yul\":13314:13680   */\n    tag_152:\n        /* \"#utility.yul\":13456:13459   */\n      0x00\n        /* \"#utility.yul\":13477:13544   */\n      tag_308\n        /* \"#utility.yul\":13541:13543   */\n      0x2d\n        /* \"#utility.yul\":13536:13539   */\n      dup4\n        /* \"#utility.yul\":13477:13544   */\n      tag_150\n      jump\t// in\n    tag_308:\n        /* \"#utility.yul\":13470:13544   */\n      swap2\n      pop\n        /* \"#utility.yul\":13553:13646   */\n      tag_309\n        /* \"#utility.yul\":13642:13645   */\n      dup3\n        /* \"#utility.yul\":13553:13646   */\n      tag_151\n      jump\t// in\n    tag_309:\n        /* \"#utility.yul\":13671:13673   */\n      0x40\n        /* \"#utility.yul\":13666:13669   */\n      dup3\n        /* \"#utility.yul\":13662:13674   */\n      add\n        /* \"#utility.yul\":13655:13674   */\n      swap1\n      pop\n        /* \"#utility.yul\":13314:13680   */\n      swap2\n      swap1\n      pop\n      jump\t// out\n        /* \"#utility.yul\":13686:14105   */\n    tag_41:\n        /* \"#utility.yul\":13852:13856   */\n      0x00\n        /* \"#utility.yul\":13890:13892   */\n      0x20\n        /* \"#utility.yul\":13879:13888   */\n      dup3\n        /* \"#utility.yul\":13875:13893   */\n      add\n        /* \"#utility.yul\":13867:13893   */\n      swap1\n      pop\n        /* \"#utility.yul\":13939:13948   */\n      dup2\n        /* \"#utility.yul\":13933:13937   */\n      dup2\n        /* \"#utility.yul\":13929:13949   */\n      sub\n        /* \"#utility.yul\":13925:13926   */\n      0x00\n        /* \"#utility.yul\":13914:13923   */\n      dup4\n        /* \"#utility.yul\":13910:13927   */\n      add\n        /* \"#utility.yul\":13903:13950   */\n      mstore\n        /* \"#utility.yul\":13967:14098   */\n      tag_311\n        /* \"#utility.yul\":14093:14097   */\n      dup2\n        /* \"#utility.yul\":13967:14098   */\n      tag_152\n      jump\t// in\n    tag_311:\n        /* \"#utility.yul\":13959:14098   */\n      swap1\n      pop\n        /* \"#utility.yul\":13686:14105   */\n      swap2\n      swap1\n      pop\n      jump\t// out\n        /* \"#utility.yul\":14111:14291   */\n    tag_153:\n        /* \"#utility.yul\":14159:14236   */\n      0x4e487b7100000000000000000000000000000000000000000000000000000000\n        /* \"#utility.yul\":14156:14157   */\n      0x00\n        /* \"#utility.yul\":14149:14237   */\n      mstore\n        /* \"#utility.yul\":14256:14260   */\n      0x22\n        /* \"#utility.yul\":14253:14254   */\n      0x04\n        /* \"#utility.yul\":14246:14261   */\n      mstore\n        /* \"#utility.yul\":14280:14284   */\n      0x24\n        /* \"#utility.yul\":14277:14278   */\n      0x00\n        /* \"#utility.yul\":14270:14285   */\n      revert\n        /* \"#utility.yul\":14297:14617   */\n    tag_47:\n        /* \"#utility.yul\":14341:14347   */\n      0x00\n        /* \"#utility.yul\":14378:14379   */\n      0x02\n        /* \"#utility.yul\":14372:14376   */\n      dup3\n        /* \"#utility.yul\":14368:14380   */\n      div\n        /* \"#utility.yul\":14358:14380   */\n      swap1\n      pop\n        /* \"#utility.yul\":14425:14426   */\n      0x01\n        /* \"#utility.yul\":14419:14423   */\n      dup3\n        /* \"#utility.yul\":14415:14427   */\n      and\n        /* \"#utility.yul\":14446:14464   */\n      dup1\n        /* \"#utility.yul\":14436:14517   */\n      tag_314\n      jumpi\n        /* \"#utility.yul\":14502:14506   */\n      0x7f\n        /* \"#utility.yul\":14494:14500   */\n      dup3\n        /* \"#utility.yul\":14490:14507   */\n      and\n        /* \"#utility.yul\":14480:14507   */\n      swap2\n      pop\n        /* \"#utility.yul\":14436:14517   */\n    tag_314:\n        /* \"#utility.yul\":14564:14566   */\n      0x20\n        /* \"#utility.yul\":14556:14562   */\n      dup3\n        /* \"#utility.yul\":14553:14567   */\n      lt\n        /* \"#utility.yul\":14533:14551   */\n      dup2\n        /* \"#utility.yul\":14530:14568   */\n      sub\n        /* \"#utility.yul\":14527:14611   */\n      tag_315\n      jumpi\n        /* \"#utility.yul\":14583:14601   */\n      tag_316\n      tag_153\n      jump\t// in\n    tag_316:\n        /* \"#utility.yul\":14527:14611   */\n    tag_315:\n        /* \"#utility.yul\":14348:14617   */\n      pop\n        /* \"#utility.yul\":14297:14617   */\n      swap2\n      swap1\n      pop\n      jump\t// out\n        /* \"#utility.yul\":14623:14851   */\n    tag_154:\n        /* \"#utility.yul\":14763:14797   */\n      0x5573657244617461626173653a207065726d697373696f6e2068617320626565\n        /* \"#utility.yul\":14759:14760   */\n      0x00\n        /* \"#utility.yul\":14751:14757   */\n      dup3\n        /* \"#utility.yul\":14747:14761   */\n      add\n        /* \"#utility.yul\":14740:14798   */\n      mstore\n        /* \"#utility.yul\":14832:14843   */\n      0x6e206772616e7465640000000000000000000000000000000000000000000000\n        /* \"#utility.yul\":14827:14829   */\n      0x20\n        /* \"#utility.yul\":14819:14825   */\n      dup3\n        /* \"#utility.yul\":14815:14830   */\n      add\n        /* \"#utility.yul\":14808:14844   */\n      mstore\n        /* \"#utility.yul\":14623:14851   */\n      pop\n      jump\t// out\n        /* \"#utility.yul\":14857:15223   */\n    tag_155:\n        /* \"#utility.yul\":14999:15002   */\n      0x00\n        /* \"#utility.yul\":15020:15087   */\n      tag_319\n        /* \"#utility.yul\":15084:15086   */\n      0x29\n        /* \"#utility.yul\":15079:15082   */\n      dup4\n        /* \"#utility.yul\":15020:15087   */\n      tag_150\n      jump\t// in\n    tag_319:\n        /* \"#utility.yul\":15013:15087   */\n      swap2\n      pop\n        /* \"#utility.yul\":15096:15189   */\n      tag_320\n        /* \"#utility.yul\":15185:15188   */\n      dup3\n        /* \"#utility.yul\":15096:15189   */\n      tag_154\n      jump\t// in\n    tag_320:\n        /* \"#utility.yul\":15214:15216   */\n      0x40\n        /* \"#utility.yul\":15209:15212   */\n      dup3\n        /* \"#utility.yul\":15205:15217   */\n      add\n        /* \"#utility.yul\":15198:15217   */\n      swap1\n      pop\n        /* \"#utility.yul\":14857:15223   */\n      swap2\n      swap1\n      pop\n      jump\t// out\n        /* \"#utility.yul\":15229:15648   */\n    tag_68:\n        /* \"#utility.yul\":15395:15399   */\n      0x00\n        /* \"#utility.yul\":15433:15435   */\n      0x20\n        /* \"#utility.yul\":15422:15431   */\n      dup3\n        /* \"#utility.yul\":15418:15436   */\n      add\n        /* \"#utility.yul\":15410:15436   */\n      swap1\n      pop\n        /* \"#utility.yul\":15482:15491   */\n      dup2\n        /* \"#utility.yul\":15476:15480   */\n      dup2\n        /* \"#utility.yul\":15472:15492   */\n      sub\n        /* \"#utility.yul\":15468:15469   */\n      0x00\n        /* \"#utility.yul\":15457:15466   */\n      dup4\n        /* \"#utility.yul\":15453:15470   */\n      add\n        /* \"#utility.yul\":15446:15493   */\n      mstore\n        /* \"#utility.yul\":15510:15641   */\n      tag_322\n        /* \"#utility.yul\":15636:15640   */\n      dup2\n        /* \"#utility.yul\":15510:15641   */\n      tag_155\n      jump\t// in\n    tag_322:\n        /* \"#utility.yul\":15502:15641   */\n      swap1\n      pop\n        /* \"#utility.yul\":15229:15648   */\n      swap2\n      swap1\n      pop\n      jump\t// out\n        /* \"#utility.yul\":15654:15834   */\n    tag_156:\n        /* \"#utility.yul\":15702:15779   */\n      0x4e487b7100000000000000000000000000000000000000000000000000000000\n        /* \"#utility.yul\":15699:15700   */\n      0x00\n        /* \"#utility.yul\":15692:15780   */\n      mstore\n        /* \"#utility.yul\":15799:15803   */\n      0x11\n        /* \"#utility.yul\":15796:15797   */\n      0x04\n        /* \"#utility.yul\":15789:15804   */\n      mstore\n        /* \"#utility.yul\":15823:15827   */\n      0x24\n        /* \"#utility.yul\":15820:15821   */\n      0x00\n        /* \"#utility.yul\":15813:15828   */\n      revert\n        /* \"#utility.yul\":15840:16073   */\n    tag_75:\n        /* \"#utility.yul\":15879:15882   */\n      0x00\n        /* \"#utility.yul\":15902:15926   */\n      tag_325\n        /* \"#utility.yul\":15920:15925   */\n      dup3\n        /* \"#utility.yul\":15902:15926   */\n      tag_112\n      jump\t// in\n    tag_325:\n        /* \"#utility.yul\":15893:15926   */\n      swap2\n      pop\n        /* \"#utility.yul\":15948:16014   */\n      0xffffffffffffffffffffffffffffffffffffffffffffffffffffffffffffffff\n        /* \"#utility.yul\":15941:15946   */\n      dup3\n        /* \"#utility.yul\":15938:16015   */\n      sub\n        /* \"#utility.yul\":15935:16038   */\n      tag_326\n      jumpi\n        /* \"#utility.yul\":16018:16036   */\n      tag_327\n      tag_156\n      jump\t// in\n    tag_327:\n        /* \"#utility.yul\":15935:16038   */\n    tag_326:\n        /* \"#utility.yul\":16065:16066   */\n      0x01\n        /* \"#utility.yul\":16058:16063   */\n      dup3\n        /* \"#utility.yul\":16054:16067   */\n      add\n        /* \"#utility.yul\":16047:16067   */\n      swap1\n      pop\n        /* \"#utility.yul\":15840:16073   */\n      swap2\n      swap1\n      pop\n      jump\t// out\n        /* \"#utility.yul\":16079:16220   */\n    tag_157:\n        /* \"#utility.yul\":16128:16132   */\n      0x00\n        /* \"#utility.yul\":16151:16154   */\n      dup2\n        /* \"#utility.yul\":16143:16154   */\n      swap1\n      pop\n        /* \"#utility.yul\":16174:16177   */\n      dup2\n        /* \"#utility.yul\":16171:16172   */\n      0x00\n        /* \"#utility.yul\":16164:16178   */\n      mstore\n        /* \"#utility.yul\":16208:16212   */\n      0x20\n        /* \"#utility.yul\":16205:16206   */\n      0x00\n        /* \"#utility.yul\":16195:16213   */\n      keccak256\n        /* \"#utility.yul\":16187:16213   */\n      swap1\n      pop\n        /* \"#utility.yul\":16079:16220   */\n      swap2\n      swap1\n      pop\n      jump\t// out\n        /* \"#utility.yul\":16226:16319   */\n    tag_158:\n        /* \"#utility.yul\":16263:16269   */\n      0x00\n        /* \"#utility.yul\":16310:16312   */\n      0x20\n        /* \"#utility.yul\":16305:16307   */\n      0x1f\n        /* \"#utility.yul\":16298:16303   */\n      dup4\n        /* \"#utility.yul\":16294:16308   */\n      add\n        /* \"#utility.yul\":16290:16313   */\n      div\n        /* \"#utility.yul\":16280:16313   */\n      swap1\n      pop\n        /* \"#utility.yul\":16226:16319   */\n      swap2\n      swap1\n      pop\n      jump\t// out\n        /* \"#utility.yul\":16325:16432   */\n    tag_159:\n        /* \"#utility.yul\":16369:16377   */\n      0x00\n        /* \"#utility.yul\":16419:16424   */\n      dup3\n        /* \"#utility.yul\":16413:16417   */\n      dup3\n        /* \"#utility.yul\":16409:16425   */\n      shl\n        /* \"#utility.yul\":16388:16425   */\n      swap1\n      pop\n        /* \"#utility.yul\":16325:16432   */\n      swap3\n      swap2\n      pop\n      pop\n      jump\t// out\n        /* \"#utility.yul\":16438:16831   */\n    tag_160:\n        /* \"#utility.yul\":16507:16513   */\n      0x00\n        /* \"#utility.yul\":16557:16558   */\n      0x08\n        /* \"#utility.yul\":16545:16555   */\n      dup4\n        /* \"#utility.yul\":16541:16559   */\n      mul\n        /* \"#utility.yul\":16580:16677   */\n      tag_332\n        /* \"#utility.yul\":16610:16676   */\n      0xffffffffffffffffffffffffffffffffffffffffffffffffffffffffffffffff\n        /* \"#utility.yul\":16599:16608   */\n      dup3\n        /* \"#utility.yul\":16580:16677   */\n      tag_159\n      jump\t// in\n    tag_332:\n        /* \"#utility.yul\":16698:16737   */\n      tag_333\n        /* \"#utility.yul\":16728:16736   */\n      dup7\n        /* \"#utility.yul\":16717:16726   */\n      dup4\n        /* \"#utility.yul\":16698:16737   */\n      tag_159\n      jump\t// in\n    tag_333:\n        /* \"#utility.yul\":16686:16737   */\n      swap6\n      pop\n        /* \"#utility.yul\":16770:16774   */\n      dup1\n        /* \"#utility.yul\":16766:16775   */\n      not\n        /* \"#utility.yul\":16759:16764   */\n      dup5\n        /* \"#utility.yul\":16755:16776   */\n      and\n        /* \"#utility.yul\":16746:16776   */\n      swap4\n      pop\n        /* \"#utility.yul\":16819:16823   */\n      dup1\n        /* \"#utility.yul\":16809:16817   */\n      dup7\n        /* \"#utility.yul\":16805:16824   */\n      and\n        /* \"#utility.yul\":16798:16803   */\n      dup5\n        /* \"#utility.yul\":16795:16825   */\n      or\n        /* \"#utility.yul\":16785:16825   */\n      swap3\n      pop\n        /* \"#utility.yul\":16514:16831   */\n      pop\n      pop\n        /* \"#utility.yul\":16438:16831   */\n      swap4\n      swap3\n      pop\n      pop\n      pop\n      jump\t// out\n        /* \"#utility.yul\":16837:16897   */\n    tag_161:\n        /* \"#utility.yul\":16865:16868   */\n      0x00\n        /* \"#utility.yul\":16886:16891   */\n      dup2\n        /* \"#utility.yul\":16879:16891   */\n      swap1\n      pop\n        /* \"#utility.yul\":16837:16897   */\n      swap2\n      swap1\n      pop\n      jump\t// out\n        /* \"#utility.yul\":16903:17045   */\n    tag_162:\n        /* \"#utility.yul\":16953:16962   */\n      0x00\n        /* \"#utility.yul\":16986:17039   */\n      tag_336\n        /* \"#utility.yul\":17004:17038   */\n      tag_337\n        /* \"#utility.yul\":17013:17037   */\n      tag_338\n        /* \"#utility.yul\":17031:17036   */\n      dup5\n        /* \"#utility.yul\":17013:17037   */\n      tag_112\n      jump\t// in\n    tag_338:\n        /* \"#utility.yul\":17004:17038   */\n      tag_161\n      jump\t// in\n    tag_337:\n        /* \"#utility.yul\":16986:17039   */\n      tag_112\n      jump\t// in\n    tag_336:\n        /* \"#utility.yul\":16973:17039   */\n      swap1\n      pop\n        /* \"#utility.yul\":16903:17045   */\n      swap2\n      swap1\n      pop\n      jump\t// out\n        /* \"#utility.yul\":17051:17126   */\n    tag_163:\n        /* \"#utility.yul\":17094:17097   */\n      0x00\n        /* \"#utility.yul\":17115:17120   */\n      dup2\n        /* \"#utility.yul\":17108:17120   */\n      swap1\n      pop\n        /* \"#utility.yul\":17051:17126   */\n      swap2\n      swap1\n      pop\n      jump\t// out\n        /* \"#utility.yul\":17132:17401   */\n    tag_164:\n        /* \"#utility.yul\":17242:17281   */\n      tag_341\n        /* \"#utility.yul\":17273:17280   */\n      dup4\n        /* \"#utility.yul\":17242:17281   */\n      tag_162\n      jump\t// in\n    tag_341:\n        /* \"#utility.yul\":17303:17394   */\n      tag_342\n        /* \"#utility.yul\":17352:17393   */\n      tag_343\n        /* \"#utility.yul\":17376:17392   */\n      dup3\n        /* \"#utility.yul\":17352:17393   */\n      tag_163\n      jump\t// in\n    tag_343:\n        /* \"#utility.yul\":17344:17350   */\n      dup5\n        /* \"#utility.yul\":17337:17341   */\n      dup5\n        /* \"#utility.yul\":17331:17342   */\n      sload\n        /* \"#utility.yul\":17303:17394   */\n      tag_160\n      jump\t// in\n    tag_342:\n        /* \"#utility.yul\":17297:17301   */\n      dup3\n        /* \"#utility.yul\":17290:17395   */\n      sstore\n        /* \"#utility.yul\":17208:17401   */\n      pop\n        /* \"#utility.yul\":17132:17401   */\n      pop\n      pop\n      pop\n      jump\t// out\n        /* \"#utility.yul\":17407:17480   */\n    tag_165:\n        /* \"#utility.yul\":17452:17455   */\n      0x00\n        /* \"#utility.yul\":17407:17480   */\n      swap1\n      jump\t// out\n        /* \"#utility.yul\":17486:17675   */\n    tag_166:\n        /* \"#utility.yul\":17563:17595   */\n      tag_346\n      tag_165\n      jump\t// in\n    tag_346:\n        /* \"#utility.yul\":17604:17669   */\n      tag_347\n        /* \"#utility.yul\":17662:17668   */\n      dup2\n        /* \"#utility.yul\":17654:17660   */\n      dup5\n        /* \"#utility.yul\":17648:17652   */\n      dup5\n        /* \"#utility.yul\":17604:17669   */\n      tag_164\n      jump\t// in\n    tag_347:\n        /* \"#utility.yul\":17539:17675   */\n      pop\n        /* \"#utility.yul\":17486:17675   */\n      pop\n      pop\n      jump\t// out\n        /* \"#utility.yul\":17681:17867   */\n    tag_167:\n        /* \"#utility.yul\":17741:17861   */\n    tag_349:\n        /* \"#utility.yul\":17758:17761   */\n      dup2\n        /* \"#utility.yul\":17751:17756   */\n      dup2\n        /* \"#utility.yul\":17748:17762   */\n      lt\n        /* \"#utility.yul\":17741:17861   */\n      iszero\n      tag_351\n      jumpi\n        /* \"#utility.yul\":17812:17851   */\n      tag_352\n        /* \"#utility.yul\":17849:17850   */\n      0x00\n        /* \"#utility.yul\":17842:17847   */\n      dup3\n        /* \"#utility.yul\":17812:17851   */\n      tag_166\n      jump\t// in\n    tag_352:\n        /* \"#utility.yul\":17785:17786   */\n      0x01\n        /* \"#utility.yul\":17778:17783   */\n      dup2\n        /* \"#utility.yul\":17774:17787   */\n      add\n        /* \"#utility.yul\":17765:17787   */\n      swap1\n      pop\n        /* \"#utility.yul\":17741:17861   */\n      jump(tag_349)\n    tag_351:\n        /* \"#utility.yul\":17681:17867   */\n      pop\n      pop\n      jump\t// out\n        /* \"#utility.yul\":17873:18416   */\n    tag_168:\n        /* \"#utility.yul\":17974:17976   */\n      0x1f\n        /* \"#utility.yul\":17969:17972   */\n      dup3\n        /* \"#utility.yul\":17966:17977   */\n      gt\n        /* \"#utility.yul\":17963:18409   */\n      iszero\n      tag_354\n      jumpi\n        /* \"#utility.yul\":18008:18046   */\n      tag_355\n        /* \"#utility.yul\":18040:18045   */\n      dup2\n        /* \"#utility.yul\":18008:18046   */\n      tag_157\n      jump\t// in\n    tag_355:\n        /* \"#utility.yul\":18092:18121   */\n      tag_356\n        /* \"#utility.yul\":18110:18120   */\n      dup5\n        /* \"#utility.yul\":18092:18121   */\n      tag_158\n      jump\t// in\n    tag_356:\n        /* \"#utility.yul\":18082:18090   */\n      dup2\n        /* \"#utility.yul\":18078:18122   */\n      add\n        /* \"#utility.yul\":18275:18277   */\n      0x20\n        /* \"#utility.yul\":18263:18273   */\n      dup6\n        /* \"#utility.yul\":18260:18278   */\n      lt\n        /* \"#utility.yul\":18257:18306   */\n      iszero\n      tag_357\n      jumpi\n        /* \"#utility.yul\":18296:18304   */\n      dup2\n        /* \"#utility.yul\":18281:18304   */\n      swap1\n      pop\n        /* \"#utility.yul\":18257:18306   */\n    tag_357:\n        /* \"#utility.yul\":18319:18399   */\n      tag_358\n        /* \"#utility.yul\":18375:18397   */\n      tag_359\n        /* \"#utility.yul\":18393:18396   */\n      dup6\n        /* \"#utility.yul\":18375:18397   */\n      tag_158\n      jump\t// in\n    tag_359:\n        /* \"#utility.yul\":18365:18373   */\n      dup4\n        /* \"#utility.yul\":18361:18398   */\n      add\n        /* \"#utility.yul\":18348:18359   */\n      dup3\n        /* \"#utility.yul\":18319:18399   */\n      tag_167\n      jump\t// in\n    tag_358:\n        /* \"#utility.yul\":17978:18409   */\n      pop\n      pop\n        /* \"#utility.yul\":17963:18409   */\n    tag_354:\n        /* \"#utility.yul\":17873:18416   */\n      pop\n      pop\n      pop\n      jump\t// out\n        /* \"#utility.yul\":18422:18539   */\n    tag_169:\n        /* \"#utility.yul\":18476:18484   */\n      0x00\n        /* \"#utility.yul\":18526:18531   */\n      dup3\n        /* \"#utility.yul\":18520:18524   */\n      dup3\n        /* \"#utility.yul\":18516:18532   */\n      shr\n        /* \"#utility.yul\":18495:18532   */\n      swap1\n      pop\n        /* \"#utility.yul\":18422:18539   */\n      swap3\n      swap2\n      pop\n      pop\n      jump\t// out\n        /* \"#utility.yul\":18545:18714   */\n    tag_170:\n        /* \"#utility.yul\":18589:18595   */\n      0x00\n        /* \"#utility.yul\":18622:18673   */\n      tag_362\n        /* \"#utility.yul\":18670:18671   */\n      0x00\n        /* \"#utility.yul\":18666:18672   */\n      not\n        /* \"#utility.yul\":18658:18663   */\n      dup5\n        /* \"#utility.yul\":18655:18656   */\n      0x08\n        /* \"#utility.yul\":18651:18664   */\n      mul\n        /* \"#utility.yul\":18622:18673   */\n      tag_169\n      jump\t// in\n    tag_362:\n        /* \"#utility.yul\":18618:18674   */\n      not\n        /* \"#utility.yul\":18703:18707   */\n      dup1\n        /* \"#utility.yul\":18697:18701   */\n      dup4\n        /* \"#utility.yul\":18693:18708   */\n      and\n        /* \"#utility.yul\":18683:18708   */\n      swap2\n      pop\n        /* \"#utility.yul\":18596:18714   */\n      pop\n        /* \"#utility.yul\":18545:18714   */\n      swap3\n      swap2\n      pop\n      pop\n      jump\t// out\n        /* \"#utility.yul\":18719:19014   */\n    tag_171:\n        /* \"#utility.yul\":18795:18799   */\n      0x00\n        /* \"#utility.yul\":18941:18970   */\n      tag_364\n        /* \"#utility.yul\":18966:18969   */\n      dup4\n        /* \"#utility.yul\":18960:18964   */\n      dup4\n        /* \"#utility.yul\":18941:18970   */\n      tag_170\n      jump\t// in\n    tag_364:\n        /* \"#utility.yul\":18933:18970   */\n      swap2\n      pop\n        /* \"#utility.yul\":19003:19006   */\n      dup3\n        /* \"#utility.yul\":19000:19001   */\n      0x02\n        /* \"#utility.yul\":18996:19007   */\n      mul\n        /* \"#utility.yul\":18990:18994   */\n      dup3\n        /* \"#utility.yul\":18987:19008   */\n      or\n        /* \"#utility.yul\":18979:19008   */\n      swap1\n      pop\n        /* \"#utility.yul\":18719:19014   */\n      swap3\n      swap2\n      pop\n      pop\n      jump\t// out\n        /* \"#utility.yul\":19019:20414   */\n    tag_78:\n        /* \"#utility.yul\":19136:19173   */\n      tag_366\n        /* \"#utility.yul\":19169:19172   */\n      dup3\n        /* \"#utility.yul\":19136:19173   */\n      tag_114\n      jump\t// in\n    tag_366:\n        /* \"#utility.yul\":19238:19256   */\n      0xffffffffffffffff\n        /* \"#utility.yul\":19230:19236   */\n      dup2\n        /* \"#utility.yul\":19227:19257   */\n      gt\n        /* \"#utility.yul\":19224:19280   */\n      iszero\n      tag_367\n      jumpi\n        /* \"#utility.yul\":19260:19278   */\n      tag_368\n      tag_134\n      jump\t// in\n    tag_368:\n        /* \"#utility.yul\":19224:19280   */\n    tag_367:\n        /* \"#utility.yul\":19304:19342   */\n      tag_369\n        /* \"#utility.yul\":19336:19340   */\n      dup3\n        /* \"#utility.yul\":19330:19341   */\n      sload\n        /* \"#utility.yul\":19304:19342   */\n      tag_47\n      jump\t// in\n    tag_369:\n        /* \"#utility.yul\":19389:19456   */\n      tag_370\n        /* \"#utility.yul\":19449:19455   */\n      dup3\n        /* \"#utility.yul\":19441:19447   */\n      dup3\n        /* \"#utility.yul\":19435:19439   */\n      dup6\n        /* \"#utility.yul\":19389:19456   */\n      tag_168\n      jump\t// in\n    tag_370:\n        /* \"#utility.yul\":19483:19484   */\n      0x00\n        /* \"#utility.yul\":19507:19511   */\n      0x20\n        /* \"#utility.yul\":19494:19511   */\n      swap1\n      pop\n        /* \"#utility.yul\":19539:19541   */\n      0x1f\n        /* \"#utility.yul\":19531:19537   */\n      dup4\n        /* \"#utility.yul\":19528:19542   */\n      gt\n        /* \"#utility.yul\":19556:19557   */\n      0x01\n        /* \"#utility.yul\":19551:20169   */\n      dup2\n      eq\n      tag_372\n      jumpi\n        /* \"#utility.yul\":20213:20214   */\n      0x00\n        /* \"#utility.yul\":20230:20236   */\n      dup5\n        /* \"#utility.yul\":20227:20304   */\n      iszero\n      tag_373\n      jumpi\n        /* \"#utility.yul\":20279:20288   */\n      dup3\n        /* \"#utility.yul\":20274:20277   */\n      dup8\n        /* \"#utility.yul\":20270:20289   */\n      add\n        /* \"#utility.yul\":20264:20290   */\n      mload\n        /* \"#utility.yul\":20255:20290   */\n      swap1\n      pop\n        /* \"#utility.yul\":20227:20304   */\n    tag_373:\n        /* \"#utility.yul\":20330:20397   */\n      tag_374\n        /* \"#utility.yul\":20390:20396   */\n      dup6\n        /* \"#utility.yul\":20383:20388   */\n      dup3\n        /* \"#utility.yul\":20330:20397   */\n      tag_171\n      jump\t// in\n    tag_374:\n        /* \"#utility.yul\":20324:20328   */\n      dup7\n        /* \"#utility.yul\":20317:20398   */\n      sstore\n        /* \"#utility.yul\":20186:20408   */\n      pop\n        /* \"#utility.yul\":19521:20408   */\n      jump(tag_371)\n        /* \"#utility.yul\":19551:20169   */\n    tag_372:\n        /* \"#utility.yul\":19603:19607   */\n      0x1f\n        /* \"#utility.yul\":19599:19608   */\n      not\n        /* \"#utility.yul\":19591:19597   */\n      dup5\n        /* \"#utility.yul\":19587:19609   */\n      and\n        /* \"#utility.yul\":19637:19674   */\n      tag_375\n        /* \"#utility.yul\":19669:19673   */\n      dup7\n        /* \"#utility.yul\":19637:19674   */\n      tag_157\n      jump\t// in\n    tag_375:\n        /* \"#utility.yul\":19696:19697   */\n      0x00\n        /* \"#utility.yul\":19710:19918   */\n    tag_376:\n        /* \"#utility.yul\":19724:19731   */\n      dup3\n        /* \"#utility.yul\":19721:19722   */\n      dup2\n        /* \"#utility.yul\":19718:19732   */\n      lt\n        /* \"#utility.yul\":19710:19918   */\n      iszero\n      tag_378\n      jumpi\n        /* \"#utility.yul\":19803:19812   */\n      dup5\n        /* \"#utility.yul\":19798:19801   */\n      dup10\n        /* \"#utility.yul\":19794:19813   */\n      add\n        /* \"#utility.yul\":19788:19814   */\n      mload\n        /* \"#utility.yul\":19780:19786   */\n      dup3\n        /* \"#utility.yul\":19773:19815   */\n      sstore\n        /* \"#utility.yul\":19854:19855   */\n      0x01\n        /* \"#utility.yul\":19846:19852   */\n      dup3\n        /* \"#utility.yul\":19842:19856   */\n      add\n        /* \"#utility.yul\":19832:19856   */\n      swap2\n      pop\n        /* \"#utility.yul\":19901:19903   */\n      0x20\n        /* \"#utility.yul\":19890:19899   */\n      dup6\n        /* \"#utility.yul\":19886:19904   */\n      add\n        /* \"#utility.yul\":19873:19904   */\n      swap5\n      pop\n        /* \"#utility.yul\":19747:19751   */\n      0x20\n        /* \"#utility.yul\":19744:19745   */\n      dup2\n        /* \"#utility.yul\":19740:19752   */\n      add\n        /* \"#utility.yul\":19735:19752   */\n      swap1\n      pop\n        /* \"#utility.yul\":19710:19918   */\n      jump(tag_376)\n    tag_378:\n        /* \"#utility.yul\":19946:19952   */\n      dup7\n        /* \"#utility.yul\":19937:19944   */\n      dup4\n        /* \"#utility.yul\":19934:19953   */\n      lt\n        /* \"#utility.yul\":19931:20110   */\n      iszero\n      tag_379\n      jumpi\n        /* \"#utility.yul\":20004:20013   */\n      dup5\n        /* \"#utility.yul\":19999:20002   */\n      dup10\n        /* \"#utility.yul\":19995:20014   */\n      add\n        /* \"#utility.yul\":19989:20015   */\n      mload\n        /* \"#utility.yul\":20047:20095   */\n      tag_380\n        /* \"#utility.yul\":20089:20093   */\n      0x1f\n        /* \"#utility.yul\":20081:20087   */\n      dup10\n        /* \"#utility.yul\":20077:20094   */\n      and\n        /* \"#utility.yul\":20066:20075   */\n      dup3\n        /* \"#utility.yul\":20047:20095   */\n      tag_170\n      jump\t// in\n    tag_380:\n        /* \"#utility.yul\":20039:20045   */\n      dup4\n        /* \"#utility.yul\":20032:20096   */\n      sstore\n        /* \"#utility.yul\":19954:20110   */\n      pop\n        /* \"#utility.yul\":19931:20110   */\n    tag_379:\n        /* \"#utility.yul\":20156:20157   */\n      0x01\n        /* \"#utility.yul\":20152:20153   */\n      0x02\n        /* \"#utility.yul\":20144:20150   */\n      dup9\n        /* \"#utility.yul\":20140:20154   */\n      mul\n        /* \"#utility.yul\":20136:20158   */\n      add\n        /* \"#utility.yul\":20130:20134   */\n      dup9\n        /* \"#utility.yul\":20123:20159   */\n      sstore\n        /* \"#utility.yul\":19558:20169   */\n      pop\n      pop\n      pop\n        /* \"#utility.yul\":19521:20408   */\n    tag_371:\n      pop\n        /* \"#utility.yul\":19111:20414   */\n      pop\n      pop\n      pop\n        /* \"#utility.yul\":19019:20414   */\n      pop\n      pop\n      jump\t// out\n        /* \"#utility.yul\":20420:20600   */\n    tag_92:\n        /* \"#utility.yul\":20468:20545   */\n      0x4e487b7100000000000000000000000000000000000000000000000000000000\n        /* \"#utility.yul\":20465:20466   */\n      0x00\n        /* \"#utility.yul\":20458:20546   */\n      mstore\n        /* \"#utility.yul\":20565:20569   */\n      0x32\n        /* \"#utility.yul\":20562:20563   */\n      0x04\n        /* \"#utility.yul\":20555:20570   */\n      mstore\n        /* \"#utility.yul\":20589:20593   */\n      0x24\n        /* \"#utility.yul\":20586:20587   */\n      0x00\n        /* \"#utility.yul\":20579:20594   */\n      revert\n        /* \"#utility.yul\":20606:20831   */\n    tag_172:\n        /* \"#utility.yul\":20746:20780   */\n      0x4f776e61626c653a206e6577206f776e657220697320746865207a65726f2061\n        /* \"#utility.yul\":20742:20743   */\n      0x00\n        /* \"#utility.yul\":20734:20740   */\n      dup3\n        /* \"#utility.yul\":20730:20744   */\n      add\n        /* \"#utility.yul\":20723:20781   */\n      mstore\n        /* \"#utility.yul\":20815:20823   */\n      0x6464726573730000000000000000000000000000000000000000000000000000\n        /* \"#utility.yul\":20810:20812   */\n      0x20\n        /* \"#utility.yul\":20802:20808   */\n      dup3\n        /* \"#utility.yul\":20798:20813   */\n      add\n        /* \"#utility.yul\":20791:20824   */\n      mstore\n        /* \"#utility.yul\":20606:20831   */\n      pop\n      jump\t// out\n        /* \"#utility.yul\":20837:21203   */\n    tag_173:\n        /* \"#utility.yul\":20979:20982   */\n      0x00\n        /* \"#utility.yul\":21000:21067   */\n      tag_384\n        /* \"#utility.yul\":21064:21066   */\n      0x26\n        /* \"#utility.yul\":21059:21062   */\n      dup4\n        /* \"#utility.yul\":21000:21067   */\n      tag_150\n      jump\t// in\n    tag_384:\n        /* \"#utility.yul\":20993:21067   */\n      swap2\n      pop\n        /* \"#utility.yul\":21076:21169   */\n      tag_385\n        /* \"#utility.yul\":21165:21168   */\n      dup3\n        /* \"#utility.yul\":21076:21169   */\n      tag_172\n      jump\t// in\n    tag_385:\n        /* \"#utility.yul\":21194:21196   */\n      0x40\n        /* \"#utility.yul\":21189:21192   */\n      dup3\n        /* \"#utility.yul\":21185:21197   */\n      add\n        /* \"#utility.yul\":21178:21197   */\n      swap1\n      pop\n        /* \"#utility.yul\":20837:21203   */\n      swap2\n      swap1\n      pop\n      jump\t// out\n        /* \"#utility.yul\":21209:21628   */\n    tag_99:\n        /* \"#utility.yul\":21375:21379   */\n      0x00\n        /* \"#utility.yul\":21413:21415   */\n      0x20\n        /* \"#utility.yul\":21402:21411   */\n      dup3\n        /* \"#utility.yul\":21398:21416   */\n      add\n        /* \"#utility.yul\":21390:21416   */\n      swap1\n      pop\n        /* \"#utility.yul\":21462:21471   */\n      dup2\n        /* \"#utility.yul\":21456:21460   */\n      dup2\n        /* \"#utility.yul\":21452:21472   */\n      sub\n        /* \"#utility.yul\":21448:21449   */\n      0x00\n        /* \"#utility.yul\":21437:21446   */\n      dup4\n        /* \"#utility.yul\":21433:21450   */\n      add\n        /* \"#utility.yul\":21426:21473   */\n      mstore\n        /* \"#utility.yul\":21490:21621   */\n      tag_387\n        /* \"#utility.yul\":21616:21620   */\n      dup2\n        /* \"#utility.yul\":21490:21621   */\n      tag_173\n      jump\t// in\n    tag_387:\n        /* \"#utility.yul\":21482:21621   */\n      swap1\n      pop\n        /* \"#utility.yul\":21209:21628   */\n      swap2\n      swap1\n      pop\n      jump\t// out\n        /* \"#utility.yul\":21634:21816   */\n    tag_174:\n        /* \"#utility.yul\":21774:21808   */\n      0x4f776e61626c653a2063616c6c6572206973206e6f7420746865206f776e6572\n        /* \"#utility.yul\":21770:21771   */\n      0x00\n        /* \"#utility.yul\":21762:21768   */\n      dup3\n        /* \"#utility.yul\":21758:21772   */\n      add\n        /* \"#utility.yul\":21751:21809   */\n      mstore\n        /* \"#utility.yul\":21634:21816   */\n      pop\n      jump\t// out\n        /* \"#utility.yul\":21822:22188   */\n    tag_175:\n        /* \"#utility.yul\":21964:21967   */\n      0x00\n        /* \"#utility.yul\":21985:22052   */\n      tag_390\n        /* \"#utility.yul\":22049:22051   */\n      0x20\n        /* \"#utility.yul\":22044:22047   */\n      dup4\n        /* \"#utility.yul\":21985:22052   */\n      tag_150\n      jump\t// in\n    tag_390:\n        /* \"#utility.yul\":21978:22052   */\n      swap2\n      pop\n        /* \"#utility.yul\":22061:22154   */\n      tag_391\n        /* \"#utility.yul\":22150:22153   */\n      dup3\n        /* \"#utility.yul\":22061:22154   */\n      tag_174\n      jump\t// in\n    tag_391:\n        /* \"#utility.yul\":22179:22181   */\n      0x20\n        /* \"#utility.yul\":22174:22177   */\n      dup3\n        /* \"#utility.yul\":22170:22182   */\n      add\n        /* \"#utility.yul\":22163:22182   */\n      swap1\n      pop\n        /* \"#utility.yul\":21822:22188   */\n      swap2\n      swap1\n      pop\n      jump\t// out\n        /* \"#utility.yul\":22194:22613   */\n    tag_107:\n        /* \"#utility.yul\":22360:22364   */\n      0x00\n        /* \"#utility.yul\":22398:22400   */\n      0x20\n        /* \"#utility.yul\":22387:22396   */\n      dup3\n        /* \"#utility.yul\":22383:22401   */\n      add\n        /* \"#utility.yul\":22375:22401   */\n      swap1\n      pop\n        /* \"#utility.yul\":22447:22456   */\n      dup2\n        /* \"#utility.yul\":22441:22445   */\n      dup2\n        /* \"#utility.yul\":22437:22457   */\n      sub\n        /* \"#utility.yul\":22433:22434   */\n      0x00\n        /* \"#utility.yul\":22422:22431   */\n      dup4\n        /* \"#utility.yul\":22418:22435   */\n      add\n        /* \"#utility.yul\":22411:22458   */\n      mstore\n        /* \"#utility.yul\":22475:22606   */\n      tag_393\n        /* \"#utility.yul\":22601:22605   */\n      dup2\n        /* \"#utility.yul\":22475:22606   */\n      tag_175\n      jump\t// in\n    tag_393:\n        /* \"#utility.yul\":22467:22606   */\n      swap1\n      pop\n        /* \"#utility.yul\":22194:22613   */\n      swap2\n      swap1\n      pop\n      jump\t// out\n\n    auxdata: 0xa26469706673582212205edbecbd06b996a6219362f5ead51766b8623696da7174d6bd4aae454371fadc64736f6c63430008110033\n}\n",
				"bytecode": {
					"linkReferences": {},
					"object": "6080604052600060025534801561001557600080fd5b50336000806101000a81548173ffffffffffffffffffffffffffffffffffffffff021916908373ffffffffffffffffffffffffffffffffffffffff16021790555061160b806100656000396000f3fe608060405234801561001057600080fd5b506004361061007d5760003560e01c806383197ef01161005b57806383197ef0146100d85780638da5cb5b146100e2578063ee416d5b14610100578063f2fde38b1461011c5761007d565b806347531df8146100825780634d0a5dbd146100a057806351c2bed1146100bc575b600080fd5b61008a610138565b6040516100979190610c50565b60405180910390f35b6100ba60048036038101906100b59190610cb2565b610465565b005b6100d660048036038101906100d19190610f7e565b610555565b005b6100e06106fc565b005b6100ea61071d565b6040516100f79190610fd6565b60405180910390f35b61011a60048036038101906101159190610ff1565b610746565b005b61013660048036038101906101319190610cb2565b610819565b005b60606003600061014661089c565b73ffffffffffffffffffffffffffffffffffffffff1673ffffffffffffffffffffffffffffffffffffffff16815260200190815260200160002060009054906101000a900460ff166101cd576040517f08c379a00000000000000000000000000000000000000000000000000000000081526004016101c4906110a1565b60405180910390fd5b6001805480602002602001604051908101604052809291908181526020016000905b8282101561045c57838290600052602060002090600702016040518060e00160405290816000820154815260200160018201805461022c906110f0565b80601f0160208091040260200160405190810160405280929190818152602001828054610258906110f0565b80156102a55780601f1061027a576101008083540402835291602001916102a5565b820191906000526020600020905b81548152906001019060200180831161028857829003601f168201915b505050505081526020016002820180546102be906110f0565b80601f01602080910402602001604051908101604052809291908181526020018280546102ea906110f0565b80156103375780601f1061030c57610100808354040283529160200191610337565b820191906000526020600020905b81548152906001019060200180831161031a57829003601f168201915b50505050508152602001600382018054610350906110f0565b80601f016020809104026020016040519081016040528092919081815260200182805461037c906110f0565b80156103c95780601f1061039e576101008083540402835291602001916103c9565b820191906000526020600020905b8154815290600101906020018083116103ac57829003601f168201915b505050505081526020016004820160009054906101000a900473ffffffffffffffffffffffffffffffffffffffff1673ffffffffffffffffffffffffffffffffffffffff1673ffffffffffffffffffffffffffffffffffffffff168152602001600582015481526020016006820160009054906101000a900460ff161515151581525050815260200190600101906101ef565b50505050905090565b61046d6108a4565b600360008273ffffffffffffffffffffffffffffffffffffffff1673ffffffffffffffffffffffffffffffffffffffff16815260200190815260200160002060009054906101000a900460ff16156104fa576040517f08c379a00000000000000000000000000000000000000000000000000000000081526004016104f190611193565b60405180910390fd5b6001600360008373ffffffffffffffffffffffffffffffffffffffff1673ffffffffffffffffffffffffffffffffffffffff16815260200190815260200160002060006101000a81548160ff02191690831515021790555050565b6003600061056161089c565b73ffffffffffffffffffffffffffffffffffffffff1673ffffffffffffffffffffffffffffffffffffffff16815260200190815260200160002060009054906101000a900460ff166105e8576040517f08c379a00000000000000000000000000000000000000000000000000000000081526004016105df906110a1565b60405180910390fd5b6000600260008154809291906105fd906111e2565b91905055905080826000018181525050600182908060018154018082558091505060019003906000526020600020906007020160009091909190915060008201518160000155602082015181600101908161065891906113d6565b50604082015181600201908161066e91906113d6565b50606082015181600301908161068491906113d6565b5060808201518160040160006101000a81548173ffffffffffffffffffffffffffffffffffffffff021916908373ffffffffffffffffffffffffffffffffffffffff16021790555060a0820151816005015560c08201518160060160006101000a81548160ff02191690831515021790555050505050565b6107046108a4565b3073ffffffffffffffffffffffffffffffffffffffff16ff5b60008060009054906101000a900473ffffffffffffffffffffffffffffffffffffffff16905090565b6003600061075261089c565b73ffffffffffffffffffffffffffffffffffffffff1673ffffffffffffffffffffffffffffffffffffffff16815260200190815260200160002060009054906101000a900460ff166107d9576040517f08c379a00000000000000000000000000000000000000000000000000000000081526004016107d0906110a1565b60405180910390fd5b60018082815481106107ee576107ed6114a8565b5b906000526020600020906007020160060160006101000a81548160ff02191690831515021790555050565b6108216108a4565b600073ffffffffffffffffffffffffffffffffffffffff168173ffffffffffffffffffffffffffffffffffffffff1603610890576040517f08c379a000000000000000000000000000000000000000000000000000000000815260040161088790611549565b60405180910390fd5b6108998161091b565b50565b600033905090565b3373ffffffffffffffffffffffffffffffffffffffff166108c361071d565b73ffffffffffffffffffffffffffffffffffffffff1614610919576040517f08c379a0000000000000000000000000000000000000000000000000000000008152600401610910906115b5565b60405180910390fd5b565b60008060009054906101000a900473ffffffffffffffffffffffffffffffffffffffff169050816000806101000a81548173ffffffffffffffffffffffffffffffffffffffff021916908373ffffffffffffffffffffffffffffffffffffffff1602179055508173ffffffffffffffffffffffffffffffffffffffff168173ffffffffffffffffffffffffffffffffffffffff167f8be0079c531659141344cd1fd0a4f28419497f9722a3daafe3b4186f6b6457e060405160405180910390a35050565b600081519050919050565b600082825260208201905092915050565b6000819050602082019050919050565b6000819050919050565b610a1e81610a0b565b82525050565b600081519050919050565b600082825260208201905092915050565b60005b83811015610a5e578082015181840152602081019050610a43565b60008484015250505050565b6000601f19601f8301169050919050565b6000610a8682610a24565b610a908185610a2f565b9350610aa0818560208601610a40565b610aa981610a6a565b840191505092915050565b600073ffffffffffffffffffffffffffffffffffffffff82169050919050565b6000610adf82610ab4565b9050919050565b610aef81610ad4565b82525050565b60008115159050919050565b610b0a81610af5565b82525050565b600060e083016000830151610b286000860182610a15565b5060208301518482036020860152610b408282610a7b565b91505060408301518482036040860152610b5a8282610a7b565b91505060608301518482036060860152610b748282610a7b565b9150506080830151610b896080860182610ae6565b5060a0830151610b9c60a0860182610a15565b5060c0830151610baf60c0860182610b01565b508091505092915050565b6000610bc68383610b10565b905092915050565b6000602082019050919050565b6000610be6826109df565b610bf081856109ea565b935083602082028501610c02856109fb565b8060005b85811015610c3e5784840389528151610c1f8582610bba565b9450610c2a83610bce565b925060208a01995050600181019050610c06565b50829750879550505050505092915050565b60006020820190508181036000830152610c6a8184610bdb565b905092915050565b6000604051905090565b600080fd5b600080fd5b610c8f81610ad4565b8114610c9a57600080fd5b50565b600081359050610cac81610c86565b92915050565b600060208284031215610cc857610cc7610c7c565b5b6000610cd684828501610c9d565b91505092915050565b600080fd5b7f4e487b7100000000000000000000000000000000000000000000000000000000600052604160045260246000fd5b610d1c82610a6a565b810181811067ffffffffffffffff82111715610d3b57610d3a610ce4565b5b80604052505050565b6000610d4e610c72565b9050610d5a8282610d13565b919050565b600080fd5b610d6d81610a0b565b8114610d7857600080fd5b50565b600081359050610d8a81610d64565b92915050565b600080fd5b600080fd5b600067ffffffffffffffff821115610db557610db4610ce4565b5b610dbe82610a6a565b9050602081019050919050565b82818337600083830152505050565b6000610ded610de884610d9a565b610d44565b905082815260208101848484011115610e0957610e08610d95565b5b610e14848285610dcb565b509392505050565b600082601f830112610e3157610e30610d90565b5b8135610e41848260208601610dda565b91505092915050565b610e5381610af5565b8114610e5e57600080fd5b50565b600081359050610e7081610e4a565b92915050565b600060e08284031215610e8c57610e8b610cdf565b5b610e9660e0610d44565b90506000610ea684828501610d7b565b600083015250602082013567ffffffffffffffff811115610eca57610ec9610d5f565b5b610ed684828501610e1c565b602083015250604082013567ffffffffffffffff811115610efa57610ef9610d5f565b5b610f0684828501610e1c565b604083015250606082013567ffffffffffffffff811115610f2a57610f29610d5f565b5b610f3684828501610e1c565b6060830152506080610f4a84828501610c9d565b60808301525060a0610f5e84828501610d7b565b60a08301525060c0610f7284828501610e61565b60c08301525092915050565b600060208284031215610f9457610f93610c7c565b5b600082013567ffffffffffffffff811115610fb257610fb1610c81565b5b610fbe84828501610e76565b91505092915050565b610fd081610ad4565b82525050565b6000602082019050610feb6000830184610fc7565b92915050565b60006020828403121561100757611006610c7c565b5b600061101584828501610d7b565b91505092915050565b600082825260208201905092915050565b7f5573657244617461626173653a206f6e6c7920636f6e7472616374207768696360008201527f682061726520616c6c6f77656400000000000000000000000000000000000000602082015250565b600061108b602d8361101e565b91506110968261102f565b604082019050919050565b600060208201905081810360008301526110ba8161107e565b9050919050565b7f4e487b7100000000000000000000000000000000000000000000000000000000600052602260045260246000fd5b6000600282049050600182168061110857607f821691505b60208210810361111b5761111a6110c1565b5b50919050565b7f5573657244617461626173653a207065726d697373696f6e206861732062656560008201527f6e206772616e7465640000000000000000000000000000000000000000000000602082015250565b600061117d60298361101e565b915061118882611121565b604082019050919050565b600060208201905081810360008301526111ac81611170565b9050919050565b7f4e487b7100000000000000000000000000000000000000000000000000000000600052601160045260246000fd5b60006111ed82610a0b565b91507fffffffffffffffffffffffffffffffffffffffffffffffffffffffffffffffff820361121f5761121e6111b3565b5b600182019050919050565b60008190508160005260206000209050919050565b60006020601f8301049050919050565b600082821b905092915050565b60006008830261128c7fffffffffffffffffffffffffffffffffffffffffffffffffffffffffffffffff8261124f565b611296868361124f565b95508019841693508086168417925050509392505050565b6000819050919050565b60006112d36112ce6112c984610a0b565b6112ae565b610a0b565b9050919050565b6000819050919050565b6112ed836112b8565b6113016112f9826112da565b84845461125c565b825550505050565b600090565b611316611309565b6113218184846112e4565b505050565b5b818110156113455761133a60008261130e565b600181019050611327565b5050565b601f82111561138a5761135b8161122a565b6113648461123f565b81016020851015611373578190505b61138761137f8561123f565b830182611326565b50505b505050565b600082821c905092915050565b60006113ad6000198460080261138f565b1980831691505092915050565b60006113c6838361139c565b9150826002028217905092915050565b6113df82610a24565b67ffffffffffffffff8111156113f8576113f7610ce4565b5b61140282546110f0565b61140d828285611349565b600060209050601f831160018114611440576000841561142e578287015190505b61143885826113ba565b8655506114a0565b601f19841661144e8661122a565b60005b8281101561147657848901518255600182019150602085019450602081019050611451565b86831015611493578489015161148f601f89168261139c565b8355505b6001600288020188555050505b505050505050565b7f4e487b7100000000000000000000000000000000000000000000000000000000600052603260045260246000fd5b7f4f776e61626c653a206e6577206f776e657220697320746865207a65726f206160008201527f6464726573730000000000000000000000000000000000000000000000000000602082015250565b600061153360268361101e565b915061153e826114d7565b604082019050919050565b6000602082019050818103600083015261156281611526565b9050919050565b7f4f776e61626c653a2063616c6c6572206973206e6f7420746865206f776e6572600082015250565b600061159f60208361101e565b91506115aa82611569565b602082019050919050565b600060208201905081810360008301526115ce81611592565b905091905056fea26469706673582212205edbecbd06b996a6219362f5ead51766b8623696da7174d6bd4aae454371fadc64736f6c63430008110033",
					"opcodes": "PUSH1 0x80 PUSH1 0x40 MSTORE PUSH1 0x0 PUSH1 0x2 SSTORE CALLVALUE DUP1 ISZERO PUSH2 0x15 JUMPI PUSH1 0x0 DUP1 REVERT JUMPDEST POP CALLER PUSH1 0x0 DUP1 PUSH2 0x100 EXP DUP2 SLOAD DUP2 PUSH20 0xFFFFFFFFFFFFFFFFFFFFFFFFFFFFFFFFFFFFFFFF MUL NOT AND SWAP1 DUP4 PUSH20 0xFFFFFFFFFFFFFFFFFFFFFFFFFFFFFFFFFFFFFFFF AND MUL OR SWAP1 SSTORE POP PUSH2 0x160B DUP1 PUSH2 0x65 PUSH1 0x0 CODECOPY PUSH1 0x0 RETURN INVALID PUSH1 0x80 PUSH1 0x40 MSTORE CALLVALUE DUP1 ISZERO PUSH2 0x10 JUMPI PUSH1 0x0 DUP1 REVERT JUMPDEST POP PUSH1 0x4 CALLDATASIZE LT PUSH2 0x7D JUMPI PUSH1 0x0 CALLDATALOAD PUSH1 0xE0 SHR DUP1 PUSH4 0x83197EF0 GT PUSH2 0x5B JUMPI DUP1 PUSH4 0x83197EF0 EQ PUSH2 0xD8 JUMPI DUP1 PUSH4 0x8DA5CB5B EQ PUSH2 0xE2 JUMPI DUP1 PUSH4 0xEE416D5B EQ PUSH2 0x100 JUMPI DUP1 PUSH4 0xF2FDE38B EQ PUSH2 0x11C JUMPI PUSH2 0x7D JUMP JUMPDEST DUP1 PUSH4 0x47531DF8 EQ PUSH2 0x82 JUMPI DUP1 PUSH4 0x4D0A5DBD EQ PUSH2 0xA0 JUMPI DUP1 PUSH4 0x51C2BED1 EQ PUSH2 0xBC JUMPI JUMPDEST PUSH1 0x0 DUP1 REVERT JUMPDEST PUSH2 0x8A PUSH2 0x138 JUMP JUMPDEST PUSH1 0x40 MLOAD PUSH2 0x97 SWAP2 SWAP1 PUSH2 0xC50 JUMP JUMPDEST PUSH1 0x40 MLOAD DUP1 SWAP2 SUB SWAP1 RETURN JUMPDEST PUSH2 0xBA PUSH1 0x4 DUP1 CALLDATASIZE SUB DUP2 ADD SWAP1 PUSH2 0xB5 SWAP2 SWAP1 PUSH2 0xCB2 JUMP JUMPDEST PUSH2 0x465 JUMP JUMPDEST STOP JUMPDEST PUSH2 0xD6 PUSH1 0x4 DUP1 CALLDATASIZE SUB DUP2 ADD SWAP1 PUSH2 0xD1 SWAP2 SWAP1 PUSH2 0xF7E JUMP JUMPDEST PUSH2 0x555 JUMP JUMPDEST STOP JUMPDEST PUSH2 0xE0 PUSH2 0x6FC JUMP JUMPDEST STOP JUMPDEST PUSH2 0xEA PUSH2 0x71D JUMP JUMPDEST PUSH1 0x40 MLOAD PUSH2 0xF7 SWAP2 SWAP1 PUSH2 0xFD6 JUMP JUMPDEST PUSH1 0x40 MLOAD DUP1 SWAP2 SUB SWAP1 RETURN JUMPDEST PUSH2 0x11A PUSH1 0x4 DUP1 CALLDATASIZE SUB DUP2 ADD SWAP1 PUSH2 0x115 SWAP2 SWAP1 PUSH2 0xFF1 JUMP JUMPDEST PUSH2 0x746 JUMP JUMPDEST STOP JUMPDEST PUSH2 0x136 PUSH1 0x4 DUP1 CALLDATASIZE SUB DUP2 ADD SWAP1 PUSH2 0x131 SWAP2 SWAP1 PUSH2 0xCB2 JUMP JUMPDEST PUSH2 0x819 JUMP JUMPDEST STOP JUMPDEST PUSH1 0x60 PUSH1 0x3 PUSH1 0x0 PUSH2 0x146 PUSH2 0x89C JUMP JUMPDEST PUSH20 0xFFFFFFFFFFFFFFFFFFFFFFFFFFFFFFFFFFFFFFFF AND PUSH20 0xFFFFFFFFFFFFFFFFFFFFFFFFFFFFFFFFFFFFFFFF AND DUP2 MSTORE PUSH1 0x20 ADD SWAP1 DUP2 MSTORE PUSH1 0x20 ADD PUSH1 0x0 KECCAK256 PUSH1 0x0 SWAP1 SLOAD SWAP1 PUSH2 0x100 EXP SWAP1 DIV PUSH1 0xFF AND PUSH2 0x1CD JUMPI PUSH1 0x40 MLOAD PUSH32 0x8C379A000000000000000000000000000000000000000000000000000000000 DUP2 MSTORE PUSH1 0x4 ADD PUSH2 0x1C4 SWAP1 PUSH2 0x10A1 JUMP JUMPDEST PUSH1 0x40 MLOAD DUP1 SWAP2 SUB SWAP1 REVERT JUMPDEST PUSH1 0x1 DUP1 SLOAD DUP1 PUSH1 0x20 MUL PUSH1 0x20 ADD PUSH1 0x40 MLOAD SWAP1 DUP2 ADD PUSH1 0x40 MSTORE DUP1 SWAP3 SWAP2 SWAP1 DUP2 DUP2 MSTORE PUSH1 0x20 ADD PUSH1 0x0 SWAP1 JUMPDEST DUP3 DUP3 LT ISZERO PUSH2 0x45C JUMPI DUP4 DUP3 SWAP1 PUSH1 0x0 MSTORE PUSH1 0x20 PUSH1 0x0 KECCAK256 SWAP1 PUSH1 0x7 MUL ADD PUSH1 0x40 MLOAD DUP1 PUSH1 0xE0 ADD PUSH1 0x40 MSTORE SWAP1 DUP2 PUSH1 0x0 DUP3 ADD SLOAD DUP2 MSTORE PUSH1 0x20 ADD PUSH1 0x1 DUP3 ADD DUP1 SLOAD PUSH2 0x22C SWAP1 PUSH2 0x10F0 JUMP JUMPDEST DUP1 PUSH1 0x1F ADD PUSH1 0x20 DUP1 SWAP2 DIV MUL PUSH1 0x20 ADD PUSH1 0x40 MLOAD SWAP1 DUP2 ADD PUSH1 0x40 MSTORE DUP1 SWAP3 SWAP2 SWAP1 DUP2 DUP2 MSTORE PUSH1 0x20 ADD DUP3 DUP1 SLOAD PUSH2 0x258 SWAP1 PUSH2 0x10F0 JUMP JUMPDEST DUP1 ISZERO PUSH2 0x2A5 JUMPI DUP1 PUSH1 0x1F LT PUSH2 0x27A JUMPI PUSH2 0x100 DUP1 DUP4 SLOAD DIV MUL DUP4 MSTORE SWAP2 PUSH1 0x20 ADD SWAP2 PUSH2 0x2A5 JUMP JUMPDEST DUP3 ADD SWAP2 SWAP1 PUSH1 0x0 MSTORE PUSH1 0x20 PUSH1 0x0 KECCAK256 SWAP1 JUMPDEST DUP2 SLOAD DUP2 MSTORE SWAP1 PUSH1 0x1 ADD SWAP1 PUSH1 0x20 ADD DUP1 DUP4 GT PUSH2 0x288 JUMPI DUP3 SWAP1 SUB PUSH1 0x1F AND DUP3 ADD SWAP2 JUMPDEST POP POP POP POP POP DUP2 MSTORE PUSH1 0x20 ADD PUSH1 0x2 DUP3 ADD DUP1 SLOAD PUSH2 0x2BE SWAP1 PUSH2 0x10F0 JUMP JUMPDEST DUP1 PUSH1 0x1F ADD PUSH1 0x20 DUP1 SWAP2 DIV MUL PUSH1 0x20 ADD PUSH1 0x40 MLOAD SWAP1 DUP2 ADD PUSH1 0x40 MSTORE DUP1 SWAP3 SWAP2 SWAP1 DUP2 DUP2 MSTORE PUSH1 0x20 ADD DUP3 DUP1 SLOAD PUSH2 0x2EA SWAP1 PUSH2 0x10F0 JUMP JUMPDEST DUP1 ISZERO PUSH2 0x337 JUMPI DUP1 PUSH1 0x1F LT PUSH2 0x30C JUMPI PUSH2 0x100 DUP1 DUP4 SLOAD DIV MUL DUP4 MSTORE SWAP2 PUSH1 0x20 ADD SWAP2 PUSH2 0x337 JUMP JUMPDEST DUP3 ADD SWAP2 SWAP1 PUSH1 0x0 MSTORE PUSH1 0x20 PUSH1 0x0 KECCAK256 SWAP1 JUMPDEST DUP2 SLOAD DUP2 MSTORE SWAP1 PUSH1 0x1 ADD SWAP1 PUSH1 0x20 ADD DUP1 DUP4 GT PUSH2 0x31A JUMPI DUP3 SWAP1 SUB PUSH1 0x1F AND DUP3 ADD SWAP2 JUMPDEST POP POP POP POP POP DUP2 MSTORE PUSH1 0x20 ADD PUSH1 0x3 DUP3 ADD DUP1 SLOAD PUSH2 0x350 SWAP1 PUSH2 0x10F0 JUMP JUMPDEST DUP1 PUSH1 0x1F ADD PUSH1 0x20 DUP1 SWAP2 DIV MUL PUSH1 0x20 ADD PUSH1 0x40 MLOAD SWAP1 DUP2 ADD PUSH1 0x40 MSTORE DUP1 SWAP3 SWAP2 SWAP1 DUP2 DUP2 MSTORE PUSH1 0x20 ADD DUP3 DUP1 SLOAD PUSH2 0x37C SWAP1 PUSH2 0x10F0 JUMP JUMPDEST DUP1 ISZERO PUSH2 0x3C9 JUMPI DUP1 PUSH1 0x1F LT PUSH2 0x39E JUMPI PUSH2 0x100 DUP1 DUP4 SLOAD DIV MUL DUP4 MSTORE SWAP2 PUSH1 0x20 ADD SWAP2 PUSH2 0x3C9 JUMP JUMPDEST DUP3 ADD SWAP2 SWAP1 PUSH1 0x0 MSTORE PUSH1 0x20 PUSH1 0x0 KECCAK256 SWAP1 JUMPDEST DUP2 SLOAD DUP2 MSTORE SWAP1 PUSH1 0x1 ADD SWAP1 PUSH1 0x20 ADD DUP1 DUP4 GT PUSH2 0x3AC JUMPI DUP3 SWAP1 SUB PUSH1 0x1F AND DUP3 ADD SWAP2 JUMPDEST POP POP POP POP POP DUP2 MSTORE PUSH1 0x20 ADD PUSH1 0x4 DUP3 ADD PUSH1 0x0 SWAP1 SLOAD SWAP1 PUSH2 0x100 EXP SWAP1 DIV PUSH20 0xFFFFFFFFFFFFFFFFFFFFFFFFFFFFFFFFFFFFFFFF AND PUSH20 0xFFFFFFFFFFFFFFFFFFFFFFFFFFFFFFFFFFFFFFFF AND PUSH20 0xFFFFFFFFFFFFFFFFFFFFFFFFFFFFFFFFFFFFFFFF AND DUP2 MSTORE PUSH1 0x20 ADD PUSH1 0x5 DUP3 ADD SLOAD DUP2 MSTORE PUSH1 0x20 ADD PUSH1 0x6 DUP3 ADD PUSH1 0x0 SWAP1 SLOAD SWAP1 PUSH2 0x100 EXP SWAP1 DIV PUSH1 0xFF AND ISZERO ISZERO ISZERO ISZERO DUP2 MSTORE POP POP DUP2 MSTORE PUSH1 0x20 ADD SWAP1 PUSH1 0x1 ADD SWAP1 PUSH2 0x1EF JUMP JUMPDEST POP POP POP POP SWAP1 POP SWAP1 JUMP JUMPDEST PUSH2 0x46D PUSH2 0x8A4 JUMP JUMPDEST PUSH1 0x3 PUSH1 0x0 DUP3 PUSH20 0xFFFFFFFFFFFFFFFFFFFFFFFFFFFFFFFFFFFFFFFF AND PUSH20 0xFFFFFFFFFFFFFFFFFFFFFFFFFFFFFFFFFFFFFFFF AND DUP2 MSTORE PUSH1 0x20 ADD SWAP1 DUP2 MSTORE PUSH1 0x20 ADD PUSH1 0x0 KECCAK256 PUSH1 0x0 SWAP1 SLOAD SWAP1 PUSH2 0x100 EXP SWAP1 DIV PUSH1 0xFF AND ISZERO PUSH2 0x4FA JUMPI PUSH1 0x40 MLOAD PUSH32 0x8C379A000000000000000000000000000000000000000000000000000000000 DUP2 MSTORE PUSH1 0x4 ADD PUSH2 0x4F1 SWAP1 PUSH2 0x1193 JUMP JUMPDEST PUSH1 0x40 MLOAD DUP1 SWAP2 SUB SWAP1 REVERT JUMPDEST PUSH1 0x1 PUSH1 0x3 PUSH1 0x0 DUP4 PUSH20 0xFFFFFFFFFFFFFFFFFFFFFFFFFFFFFFFFFFFFFFFF AND PUSH20 0xFFFFFFFFFFFFFFFFFFFFFFFFFFFFFFFFFFFFFFFF AND DUP2 MSTORE PUSH1 0x20 ADD SWAP1 DUP2 MSTORE PUSH1 0x20 ADD PUSH1 0x0 KECCAK256 PUSH1 0x0 PUSH2 0x100 EXP DUP2 SLOAD DUP2 PUSH1 0xFF MUL NOT AND SWAP1 DUP4 ISZERO ISZERO MUL OR SWAP1 SSTORE POP POP JUMP JUMPDEST PUSH1 0x3 PUSH1 0x0 PUSH2 0x561 PUSH2 0x89C JUMP JUMPDEST PUSH20 0xFFFFFFFFFFFFFFFFFFFFFFFFFFFFFFFFFFFFFFFF AND PUSH20 0xFFFFFFFFFFFFFFFFFFFFFFFFFFFFFFFFFFFFFFFF AND DUP2 MSTORE PUSH1 0x20 ADD SWAP1 DUP2 MSTORE PUSH1 0x20 ADD PUSH1 0x0 KECCAK256 PUSH1 0x0 SWAP1 SLOAD SWAP1 PUSH2 0x100 EXP SWAP1 DIV PUSH1 0xFF AND PUSH2 0x5E8 JUMPI PUSH1 0x40 MLOAD PUSH32 0x8C379A000000000000000000000000000000000000000000000000000000000 DUP2 MSTORE PUSH1 0x4 ADD PUSH2 0x5DF SWAP1 PUSH2 0x10A1 JUMP JUMPDEST PUSH1 0x40 MLOAD DUP1 SWAP2 SUB SWAP1 REVERT JUMPDEST PUSH1 0x0 PUSH1 0x2 PUSH1 0x0 DUP2 SLOAD DUP1 SWAP3 SWAP2 SWAP1 PUSH2 0x5FD SWAP1 PUSH2 0x11E2 JUMP JUMPDEST SWAP2 SWAP1 POP SSTORE SWAP1 POP DUP1 DUP3 PUSH1 0x0 ADD DUP2 DUP2 MSTORE POP POP PUSH1 0x1 DUP3 SWAP1 DUP1 PUSH1 0x1 DUP2 SLOAD ADD DUP1 DUP3 SSTORE DUP1 SWAP2 POP POP PUSH1 0x1 SWAP1 SUB SWAP1 PUSH1 0x0 MSTORE PUSH1 0x20 PUSH1 0x0 KECCAK256 SWAP1 PUSH1 0x7 MUL ADD PUSH1 0x0 SWAP1 SWAP2 SWAP1 SWAP2 SWAP1 SWAP2 POP PUSH1 0x0 DUP3 ADD MLOAD DUP2 PUSH1 0x0 ADD SSTORE PUSH1 0x20 DUP3 ADD MLOAD DUP2 PUSH1 0x1 ADD SWAP1 DUP2 PUSH2 0x658 SWAP2 SWAP1 PUSH2 0x13D6 JUMP JUMPDEST POP PUSH1 0x40 DUP3 ADD MLOAD DUP2 PUSH1 0x2 ADD SWAP1 DUP2 PUSH2 0x66E SWAP2 SWAP1 PUSH2 0x13D6 JUMP JUMPDEST POP PUSH1 0x60 DUP3 ADD MLOAD DUP2 PUSH1 0x3 ADD SWAP1 DUP2 PUSH2 0x684 SWAP2 SWAP1 PUSH2 0x13D6 JUMP JUMPDEST POP PUSH1 0x80 DUP3 ADD MLOAD DUP2 PUSH1 0x4 ADD PUSH1 0x0 PUSH2 0x100 EXP DUP2 SLOAD DUP2 PUSH20 0xFFFFFFFFFFFFFFFFFFFFFFFFFFFFFFFFFFFFFFFF MUL NOT AND SWAP1 DUP4 PUSH20 0xFFFFFFFFFFFFFFFFFFFFFFFFFFFFFFFFFFFFFFFF AND MUL OR SWAP1 SSTORE POP PUSH1 0xA0 DUP3 ADD MLOAD DUP2 PUSH1 0x5 ADD SSTORE PUSH1 0xC0 DUP3 ADD MLOAD DUP2 PUSH1 0x6 ADD PUSH1 0x0 PUSH2 0x100 EXP DUP2 SLOAD DUP2 PUSH1 0xFF MUL NOT AND SWAP1 DUP4 ISZERO ISZERO MUL OR SWAP1 SSTORE POP POP POP POP POP JUMP JUMPDEST PUSH2 0x704 PUSH2 0x8A4 JUMP JUMPDEST ADDRESS PUSH20 0xFFFFFFFFFFFFFFFFFFFFFFFFFFFFFFFFFFFFFFFF AND SELFDESTRUCT JUMPDEST PUSH1 0x0 DUP1 PUSH1 0x0 SWAP1 SLOAD SWAP1 PUSH2 0x100 EXP SWAP1 DIV PUSH20 0xFFFFFFFFFFFFFFFFFFFFFFFFFFFFFFFFFFFFFFFF AND SWAP1 POP SWAP1 JUMP JUMPDEST PUSH1 0x3 PUSH1 0x0 PUSH2 0x752 PUSH2 0x89C JUMP JUMPDEST PUSH20 0xFFFFFFFFFFFFFFFFFFFFFFFFFFFFFFFFFFFFFFFF AND PUSH20 0xFFFFFFFFFFFFFFFFFFFFFFFFFFFFFFFFFFFFFFFF AND DUP2 MSTORE PUSH1 0x20 ADD SWAP1 DUP2 MSTORE PUSH1 0x20 ADD PUSH1 0x0 KECCAK256 PUSH1 0x0 SWAP1 SLOAD SWAP1 PUSH2 0x100 EXP SWAP1 DIV PUSH1 0xFF AND PUSH2 0x7D9 JUMPI PUSH1 0x40 MLOAD PUSH32 0x8C379A000000000000000000000000000000000000000000000000000000000 DUP2 MSTORE PUSH1 0x4 ADD PUSH2 0x7D0 SWAP1 PUSH2 0x10A1 JUMP JUMPDEST PUSH1 0x40 MLOAD DUP1 SWAP2 SUB SWAP1 REVERT JUMPDEST PUSH1 0x1 DUP1 DUP3 DUP2 SLOAD DUP2 LT PUSH2 0x7EE JUMPI PUSH2 0x7ED PUSH2 0x14A8 JUMP JUMPDEST JUMPDEST SWAP1 PUSH1 0x0 MSTORE PUSH1 0x20 PUSH1 0x0 KECCAK256 SWAP1 PUSH1 0x7 MUL ADD PUSH1 0x6 ADD PUSH1 0x0 PUSH2 0x100 EXP DUP2 SLOAD DUP2 PUSH1 0xFF MUL NOT AND SWAP1 DUP4 ISZERO ISZERO MUL OR SWAP1 SSTORE POP POP JUMP JUMPDEST PUSH2 0x821 PUSH2 0x8A4 JUMP JUMPDEST PUSH1 0x0 PUSH20 0xFFFFFFFFFFFFFFFFFFFFFFFFFFFFFFFFFFFFFFFF AND DUP2 PUSH20 0xFFFFFFFFFFFFFFFFFFFFFFFFFFFFFFFFFFFFFFFF AND SUB PUSH2 0x890 JUMPI PUSH1 0x40 MLOAD PUSH32 0x8C379A000000000000000000000000000000000000000000000000000000000 DUP2 MSTORE PUSH1 0x4 ADD PUSH2 0x887 SWAP1 PUSH2 0x1549 JUMP JUMPDEST PUSH1 0x40 MLOAD DUP1 SWAP2 SUB SWAP1 REVERT JUMPDEST PUSH2 0x899 DUP2 PUSH2 0x91B JUMP JUMPDEST POP JUMP JUMPDEST PUSH1 0x0 CALLER SWAP1 POP SWAP1 JUMP JUMPDEST CALLER PUSH20 0xFFFFFFFFFFFFFFFFFFFFFFFFFFFFFFFFFFFFFFFF AND PUSH2 0x8C3 PUSH2 0x71D JUMP JUMPDEST PUSH20 0xFFFFFFFFFFFFFFFFFFFFFFFFFFFFFFFFFFFFFFFF AND EQ PUSH2 0x919 JUMPI PUSH1 0x40 MLOAD PUSH32 0x8C379A000000000000000000000000000000000000000000000000000000000 DUP2 MSTORE PUSH1 0x4 ADD PUSH2 0x910 SWAP1 PUSH2 0x15B5 JUMP JUMPDEST PUSH1 0x40 MLOAD DUP1 SWAP2 SUB SWAP1 REVERT JUMPDEST JUMP JUMPDEST PUSH1 0x0 DUP1 PUSH1 0x0 SWAP1 SLOAD SWAP1 PUSH2 0x100 EXP SWAP1 DIV PUSH20 0xFFFFFFFFFFFFFFFFFFFFFFFFFFFFFFFFFFFFFFFF AND SWAP1 POP DUP2 PUSH1 0x0 DUP1 PUSH2 0x100 EXP DUP2 SLOAD DUP2 PUSH20 0xFFFFFFFFFFFFFFFFFFFFFFFFFFFFFFFFFFFFFFFF MUL NOT AND SWAP1 DUP4 PUSH20 0xFFFFFFFFFFFFFFFFFFFFFFFFFFFFFFFFFFFFFFFF AND MUL OR SWAP1 SSTORE POP DUP2 PUSH20 0xFFFFFFFFFFFFFFFFFFFFFFFFFFFFFFFFFFFFFFFF AND DUP2 PUSH20 0xFFFFFFFFFFFFFFFFFFFFFFFFFFFFFFFFFFFFFFFF AND PUSH32 0x8BE0079C531659141344CD1FD0A4F28419497F9722A3DAAFE3B4186F6B6457E0 PUSH1 0x40 MLOAD PUSH1 0x40 MLOAD DUP1 SWAP2 SUB SWAP1 LOG3 POP POP JUMP JUMPDEST PUSH1 0x0 DUP2 MLOAD SWAP1 POP SWAP2 SWAP1 POP JUMP JUMPDEST PUSH1 0x0 DUP3 DUP3 MSTORE PUSH1 0x20 DUP3 ADD SWAP1 POP SWAP3 SWAP2 POP POP JUMP JUMPDEST PUSH1 0x0 DUP2 SWAP1 POP PUSH1 0x20 DUP3 ADD SWAP1 POP SWAP2 SWAP1 POP JUMP JUMPDEST PUSH1 0x0 DUP2 SWAP1 POP SWAP2 SWAP1 POP JUMP JUMPDEST PUSH2 0xA1E DUP2 PUSH2 0xA0B JUMP JUMPDEST DUP3 MSTORE POP POP JUMP JUMPDEST PUSH1 0x0 DUP2 MLOAD SWAP1 POP SWAP2 SWAP1 POP JUMP JUMPDEST PUSH1 0x0 DUP3 DUP3 MSTORE PUSH1 0x20 DUP3 ADD SWAP1 POP SWAP3 SWAP2 POP POP JUMP JUMPDEST PUSH1 0x0 JUMPDEST DUP4 DUP2 LT ISZERO PUSH2 0xA5E JUMPI DUP1 DUP3 ADD MLOAD DUP2 DUP5 ADD MSTORE PUSH1 0x20 DUP2 ADD SWAP1 POP PUSH2 0xA43 JUMP JUMPDEST PUSH1 0x0 DUP5 DUP5 ADD MSTORE POP POP POP POP JUMP JUMPDEST PUSH1 0x0 PUSH1 0x1F NOT PUSH1 0x1F DUP4 ADD AND SWAP1 POP SWAP2 SWAP1 POP JUMP JUMPDEST PUSH1 0x0 PUSH2 0xA86 DUP3 PUSH2 0xA24 JUMP JUMPDEST PUSH2 0xA90 DUP2 DUP6 PUSH2 0xA2F JUMP JUMPDEST SWAP4 POP PUSH2 0xAA0 DUP2 DUP6 PUSH1 0x20 DUP7 ADD PUSH2 0xA40 JUMP JUMPDEST PUSH2 0xAA9 DUP2 PUSH2 0xA6A JUMP JUMPDEST DUP5 ADD SWAP2 POP POP SWAP3 SWAP2 POP POP JUMP JUMPDEST PUSH1 0x0 PUSH20 0xFFFFFFFFFFFFFFFFFFFFFFFFFFFFFFFFFFFFFFFF DUP3 AND SWAP1 POP SWAP2 SWAP1 POP JUMP JUMPDEST PUSH1 0x0 PUSH2 0xADF DUP3 PUSH2 0xAB4 JUMP JUMPDEST SWAP1 POP SWAP2 SWAP1 POP JUMP JUMPDEST PUSH2 0xAEF DUP2 PUSH2 0xAD4 JUMP JUMPDEST DUP3 MSTORE POP POP JUMP JUMPDEST PUSH1 0x0 DUP2 ISZERO ISZERO SWAP1 POP SWAP2 SWAP1 POP JUMP JUMPDEST PUSH2 0xB0A DUP2 PUSH2 0xAF5 JUMP JUMPDEST DUP3 MSTORE POP POP JUMP JUMPDEST PUSH1 0x0 PUSH1 0xE0 DUP4 ADD PUSH1 0x0 DUP4 ADD MLOAD PUSH2 0xB28 PUSH1 0x0 DUP7 ADD DUP3 PUSH2 0xA15 JUMP JUMPDEST POP PUSH1 0x20 DUP4 ADD MLOAD DUP5 DUP3 SUB PUSH1 0x20 DUP7 ADD MSTORE PUSH2 0xB40 DUP3 DUP3 PUSH2 0xA7B JUMP JUMPDEST SWAP2 POP POP PUSH1 0x40 DUP4 ADD MLOAD DUP5 DUP3 SUB PUSH1 0x40 DUP7 ADD MSTORE PUSH2 0xB5A DUP3 DUP3 PUSH2 0xA7B JUMP JUMPDEST SWAP2 POP POP PUSH1 0x60 DUP4 ADD MLOAD DUP5 DUP3 SUB PUSH1 0x60 DUP7 ADD MSTORE PUSH2 0xB74 DUP3 DUP3 PUSH2 0xA7B JUMP JUMPDEST SWAP2 POP POP PUSH1 0x80 DUP4 ADD MLOAD PUSH2 0xB89 PUSH1 0x80 DUP7 ADD DUP3 PUSH2 0xAE6 JUMP JUMPDEST POP PUSH1 0xA0 DUP4 ADD MLOAD PUSH2 0xB9C PUSH1 0xA0 DUP7 ADD DUP3 PUSH2 0xA15 JUMP JUMPDEST POP PUSH1 0xC0 DUP4 ADD MLOAD PUSH2 0xBAF PUSH1 0xC0 DUP7 ADD DUP3 PUSH2 0xB01 JUMP JUMPDEST POP DUP1 SWAP2 POP POP SWAP3 SWAP2 POP POP JUMP JUMPDEST PUSH1 0x0 PUSH2 0xBC6 DUP4 DUP4 PUSH2 0xB10 JUMP JUMPDEST SWAP1 POP SWAP3 SWAP2 POP POP JUMP JUMPDEST PUSH1 0x0 PUSH1 0x20 DUP3 ADD SWAP1 POP SWAP2 SWAP1 POP JUMP JUMPDEST PUSH1 0x0 PUSH2 0xBE6 DUP3 PUSH2 0x9DF JUMP JUMPDEST PUSH2 0xBF0 DUP2 DUP6 PUSH2 0x9EA JUMP JUMPDEST SWAP4 POP DUP4 PUSH1 0x20 DUP3 MUL DUP6 ADD PUSH2 0xC02 DUP6 PUSH2 0x9FB JUMP JUMPDEST DUP1 PUSH1 0x0 JUMPDEST DUP6 DUP2 LT ISZERO PUSH2 0xC3E JUMPI DUP5 DUP5 SUB DUP10 MSTORE DUP2 MLOAD PUSH2 0xC1F DUP6 DUP3 PUSH2 0xBBA JUMP JUMPDEST SWAP5 POP PUSH2 0xC2A DUP4 PUSH2 0xBCE JUMP JUMPDEST SWAP3 POP PUSH1 0x20 DUP11 ADD SWAP10 POP POP PUSH1 0x1 DUP2 ADD SWAP1 POP PUSH2 0xC06 JUMP JUMPDEST POP DUP3 SWAP8 POP DUP8 SWAP6 POP POP POP POP POP POP SWAP3 SWAP2 POP POP JUMP JUMPDEST PUSH1 0x0 PUSH1 0x20 DUP3 ADD SWAP1 POP DUP2 DUP2 SUB PUSH1 0x0 DUP4 ADD MSTORE PUSH2 0xC6A DUP2 DUP5 PUSH2 0xBDB JUMP JUMPDEST SWAP1 POP SWAP3 SWAP2 POP POP JUMP JUMPDEST PUSH1 0x0 PUSH1 0x40 MLOAD SWAP1 POP SWAP1 JUMP JUMPDEST PUSH1 0x0 DUP1 REVERT JUMPDEST PUSH1 0x0 DUP1 REVERT JUMPDEST PUSH2 0xC8F DUP2 PUSH2 0xAD4 JUMP JUMPDEST DUP2 EQ PUSH2 0xC9A JUMPI PUSH1 0x0 DUP1 REVERT JUMPDEST POP JUMP JUMPDEST PUSH1 0x0 DUP2 CALLDATALOAD SWAP1 POP PUSH2 0xCAC DUP2 PUSH2 0xC86 JUMP JUMPDEST SWAP3 SWAP2 POP POP JUMP JUMPDEST PUSH1 0x0 PUSH1 0x20 DUP3 DUP5 SUB SLT ISZERO PUSH2 0xCC8 JUMPI PUSH2 0xCC7 PUSH2 0xC7C JUMP JUMPDEST JUMPDEST PUSH1 0x0 PUSH2 0xCD6 DUP5 DUP3 DUP6 ADD PUSH2 0xC9D JUMP JUMPDEST SWAP2 POP POP SWAP3 SWAP2 POP POP JUMP JUMPDEST PUSH1 0x0 DUP1 REVERT JUMPDEST PUSH32 0x4E487B7100000000000000000000000000000000000000000000000000000000 PUSH1 0x0 MSTORE PUSH1 0x41 PUSH1 0x4 MSTORE PUSH1 0x24 PUSH1 0x0 REVERT JUMPDEST PUSH2 0xD1C DUP3 PUSH2 0xA6A JUMP JUMPDEST DUP2 ADD DUP2 DUP2 LT PUSH8 0xFFFFFFFFFFFFFFFF DUP3 GT OR ISZERO PUSH2 0xD3B JUMPI PUSH2 0xD3A PUSH2 0xCE4 JUMP JUMPDEST JUMPDEST DUP1 PUSH1 0x40 MSTORE POP POP POP JUMP JUMPDEST PUSH1 0x0 PUSH2 0xD4E PUSH2 0xC72 JUMP JUMPDEST SWAP1 POP PUSH2 0xD5A DUP3 DUP3 PUSH2 0xD13 JUMP JUMPDEST SWAP2 SWAP1 POP JUMP JUMPDEST PUSH1 0x0 DUP1 REVERT JUMPDEST PUSH2 0xD6D DUP2 PUSH2 0xA0B JUMP JUMPDEST DUP2 EQ PUSH2 0xD78 JUMPI PUSH1 0x0 DUP1 REVERT JUMPDEST POP JUMP JUMPDEST PUSH1 0x0 DUP2 CALLDATALOAD SWAP1 POP PUSH2 0xD8A DUP2 PUSH2 0xD64 JUMP JUMPDEST SWAP3 SWAP2 POP POP JUMP JUMPDEST PUSH1 0x0 DUP1 REVERT JUMPDEST PUSH1 0x0 DUP1 REVERT JUMPDEST PUSH1 0x0 PUSH8 0xFFFFFFFFFFFFFFFF DUP3 GT ISZERO PUSH2 0xDB5 JUMPI PUSH2 0xDB4 PUSH2 0xCE4 JUMP JUMPDEST JUMPDEST PUSH2 0xDBE DUP3 PUSH2 0xA6A JUMP JUMPDEST SWAP1 POP PUSH1 0x20 DUP2 ADD SWAP1 POP SWAP2 SWAP1 POP JUMP JUMPDEST DUP3 DUP2 DUP4 CALLDATACOPY PUSH1 0x0 DUP4 DUP4 ADD MSTORE POP POP POP JUMP JUMPDEST PUSH1 0x0 PUSH2 0xDED PUSH2 0xDE8 DUP5 PUSH2 0xD9A JUMP JUMPDEST PUSH2 0xD44 JUMP JUMPDEST SWAP1 POP DUP3 DUP2 MSTORE PUSH1 0x20 DUP2 ADD DUP5 DUP5 DUP5 ADD GT ISZERO PUSH2 0xE09 JUMPI PUSH2 0xE08 PUSH2 0xD95 JUMP JUMPDEST JUMPDEST PUSH2 0xE14 DUP5 DUP3 DUP6 PUSH2 0xDCB JUMP JUMPDEST POP SWAP4 SWAP3 POP POP POP JUMP JUMPDEST PUSH1 0x0 DUP3 PUSH1 0x1F DUP4 ADD SLT PUSH2 0xE31 JUMPI PUSH2 0xE30 PUSH2 0xD90 JUMP JUMPDEST JUMPDEST DUP2 CALLDATALOAD PUSH2 0xE41 DUP5 DUP3 PUSH1 0x20 DUP7 ADD PUSH2 0xDDA JUMP JUMPDEST SWAP2 POP POP SWAP3 SWAP2 POP POP JUMP JUMPDEST PUSH2 0xE53 DUP2 PUSH2 0xAF5 JUMP JUMPDEST DUP2 EQ PUSH2 0xE5E JUMPI PUSH1 0x0 DUP1 REVERT JUMPDEST POP JUMP JUMPDEST PUSH1 0x0 DUP2 CALLDATALOAD SWAP1 POP PUSH2 0xE70 DUP2 PUSH2 0xE4A JUMP JUMPDEST SWAP3 SWAP2 POP POP JUMP JUMPDEST PUSH1 0x0 PUSH1 0xE0 DUP3 DUP5 SUB SLT ISZERO PUSH2 0xE8C JUMPI PUSH2 0xE8B PUSH2 0xCDF JUMP JUMPDEST JUMPDEST PUSH2 0xE96 PUSH1 0xE0 PUSH2 0xD44 JUMP JUMPDEST SWAP1 POP PUSH1 0x0 PUSH2 0xEA6 DUP5 DUP3 DUP6 ADD PUSH2 0xD7B JUMP JUMPDEST PUSH1 0x0 DUP4 ADD MSTORE POP PUSH1 0x20 DUP3 ADD CALLDATALOAD PUSH8 0xFFFFFFFFFFFFFFFF DUP2 GT ISZERO PUSH2 0xECA JUMPI PUSH2 0xEC9 PUSH2 0xD5F JUMP JUMPDEST JUMPDEST PUSH2 0xED6 DUP5 DUP3 DUP6 ADD PUSH2 0xE1C JUMP JUMPDEST PUSH1 0x20 DUP4 ADD MSTORE POP PUSH1 0x40 DUP3 ADD CALLDATALOAD PUSH8 0xFFFFFFFFFFFFFFFF DUP2 GT ISZERO PUSH2 0xEFA JUMPI PUSH2 0xEF9 PUSH2 0xD5F JUMP JUMPDEST JUMPDEST PUSH2 0xF06 DUP5 DUP3 DUP6 ADD PUSH2 0xE1C JUMP JUMPDEST PUSH1 0x40 DUP4 ADD MSTORE POP PUSH1 0x60 DUP3 ADD CALLDATALOAD PUSH8 0xFFFFFFFFFFFFFFFF DUP2 GT ISZERO PUSH2 0xF2A JUMPI PUSH2 0xF29 PUSH2 0xD5F JUMP JUMPDEST JUMPDEST PUSH2 0xF36 DUP5 DUP3 DUP6 ADD PUSH2 0xE1C JUMP JUMPDEST PUSH1 0x60 DUP4 ADD MSTORE POP PUSH1 0x80 PUSH2 0xF4A DUP5 DUP3 DUP6 ADD PUSH2 0xC9D JUMP JUMPDEST PUSH1 0x80 DUP4 ADD MSTORE POP PUSH1 0xA0 PUSH2 0xF5E DUP5 DUP3 DUP6 ADD PUSH2 0xD7B JUMP JUMPDEST PUSH1 0xA0 DUP4 ADD MSTORE POP PUSH1 0xC0 PUSH2 0xF72 DUP5 DUP3 DUP6 ADD PUSH2 0xE61 JUMP JUMPDEST PUSH1 0xC0 DUP4 ADD MSTORE POP SWAP3 SWAP2 POP POP JUMP JUMPDEST PUSH1 0x0 PUSH1 0x20 DUP3 DUP5 SUB SLT ISZERO PUSH2 0xF94 JUMPI PUSH2 0xF93 PUSH2 0xC7C JUMP JUMPDEST JUMPDEST PUSH1 0x0 DUP3 ADD CALLDATALOAD PUSH8 0xFFFFFFFFFFFFFFFF DUP2 GT ISZERO PUSH2 0xFB2 JUMPI PUSH2 0xFB1 PUSH2 0xC81 JUMP JUMPDEST JUMPDEST PUSH2 0xFBE DUP5 DUP3 DUP6 ADD PUSH2 0xE76 JUMP JUMPDEST SWAP2 POP POP SWAP3 SWAP2 POP POP JUMP JUMPDEST PUSH2 0xFD0 DUP2 PUSH2 0xAD4 JUMP JUMPDEST DUP3 MSTORE POP POP JUMP JUMPDEST PUSH1 0x0 PUSH1 0x20 DUP3 ADD SWAP1 POP PUSH2 0xFEB PUSH1 0x0 DUP4 ADD DUP5 PUSH2 0xFC7 JUMP JUMPDEST SWAP3 SWAP2 POP POP JUMP JUMPDEST PUSH1 0x0 PUSH1 0x20 DUP3 DUP5 SUB SLT ISZERO PUSH2 0x1007 JUMPI PUSH2 0x1006 PUSH2 0xC7C JUMP JUMPDEST JUMPDEST PUSH1 0x0 PUSH2 0x1015 DUP5 DUP3 DUP6 ADD PUSH2 0xD7B JUMP JUMPDEST SWAP2 POP POP SWAP3 SWAP2 POP POP JUMP JUMPDEST PUSH1 0x0 DUP3 DUP3 MSTORE PUSH1 0x20 DUP3 ADD SWAP1 POP SWAP3 SWAP2 POP POP JUMP JUMPDEST PUSH32 0x5573657244617461626173653A206F6E6C7920636F6E74726163742077686963 PUSH1 0x0 DUP3 ADD MSTORE PUSH32 0x682061726520616C6C6F77656400000000000000000000000000000000000000 PUSH1 0x20 DUP3 ADD MSTORE POP JUMP JUMPDEST PUSH1 0x0 PUSH2 0x108B PUSH1 0x2D DUP4 PUSH2 0x101E JUMP JUMPDEST SWAP2 POP PUSH2 0x1096 DUP3 PUSH2 0x102F JUMP JUMPDEST PUSH1 0x40 DUP3 ADD SWAP1 POP SWAP2 SWAP1 POP JUMP JUMPDEST PUSH1 0x0 PUSH1 0x20 DUP3 ADD SWAP1 POP DUP2 DUP2 SUB PUSH1 0x0 DUP4 ADD MSTORE PUSH2 0x10BA DUP2 PUSH2 0x107E JUMP JUMPDEST SWAP1 POP SWAP2 SWAP1 POP JUMP JUMPDEST PUSH32 0x4E487B7100000000000000000000000000000000000000000000000000000000 PUSH1 0x0 MSTORE PUSH1 0x22 PUSH1 0x4 MSTORE PUSH1 0x24 PUSH1 0x0 REVERT JUMPDEST PUSH1 0x0 PUSH1 0x2 DUP3 DIV SWAP1 POP PUSH1 0x1 DUP3 AND DUP1 PUSH2 0x1108 JUMPI PUSH1 0x7F DUP3 AND SWAP2 POP JUMPDEST PUSH1 0x20 DUP3 LT DUP2 SUB PUSH2 0x111B JUMPI PUSH2 0x111A PUSH2 0x10C1 JUMP JUMPDEST JUMPDEST POP SWAP2 SWAP1 POP JUMP JUMPDEST PUSH32 0x5573657244617461626173653A207065726D697373696F6E2068617320626565 PUSH1 0x0 DUP3 ADD MSTORE PUSH32 0x6E206772616E7465640000000000000000000000000000000000000000000000 PUSH1 0x20 DUP3 ADD MSTORE POP JUMP JUMPDEST PUSH1 0x0 PUSH2 0x117D PUSH1 0x29 DUP4 PUSH2 0x101E JUMP JUMPDEST SWAP2 POP PUSH2 0x1188 DUP3 PUSH2 0x1121 JUMP JUMPDEST PUSH1 0x40 DUP3 ADD SWAP1 POP SWAP2 SWAP1 POP JUMP JUMPDEST PUSH1 0x0 PUSH1 0x20 DUP3 ADD SWAP1 POP DUP2 DUP2 SUB PUSH1 0x0 DUP4 ADD MSTORE PUSH2 0x11AC DUP2 PUSH2 0x1170 JUMP JUMPDEST SWAP1 POP SWAP2 SWAP1 POP JUMP JUMPDEST PUSH32 0x4E487B7100000000000000000000000000000000000000000000000000000000 PUSH1 0x0 MSTORE PUSH1 0x11 PUSH1 0x4 MSTORE PUSH1 0x24 PUSH1 0x0 REVERT JUMPDEST PUSH1 0x0 PUSH2 0x11ED DUP3 PUSH2 0xA0B JUMP JUMPDEST SWAP2 POP PUSH32 0xFFFFFFFFFFFFFFFFFFFFFFFFFFFFFFFFFFFFFFFFFFFFFFFFFFFFFFFFFFFFFFFF DUP3 SUB PUSH2 0x121F JUMPI PUSH2 0x121E PUSH2 0x11B3 JUMP JUMPDEST JUMPDEST PUSH1 0x1 DUP3 ADD SWAP1 POP SWAP2 SWAP1 POP JUMP JUMPDEST PUSH1 0x0 DUP2 SWAP1 POP DUP2 PUSH1 0x0 MSTORE PUSH1 0x20 PUSH1 0x0 KECCAK256 SWAP1 POP SWAP2 SWAP1 POP JUMP JUMPDEST PUSH1 0x0 PUSH1 0x20 PUSH1 0x1F DUP4 ADD DIV SWAP1 POP SWAP2 SWAP1 POP JUMP JUMPDEST PUSH1 0x0 DUP3 DUP3 SHL SWAP1 POP SWAP3 SWAP2 POP POP JUMP JUMPDEST PUSH1 0x0 PUSH1 0x8 DUP4 MUL PUSH2 0x128C PUSH32 0xFFFFFFFFFFFFFFFFFFFFFFFFFFFFFFFFFFFFFFFFFFFFFFFFFFFFFFFFFFFFFFFF DUP3 PUSH2 0x124F JUMP JUMPDEST PUSH2 0x1296 DUP7 DUP4 PUSH2 0x124F JUMP JUMPDEST SWAP6 POP DUP1 NOT DUP5 AND SWAP4 POP DUP1 DUP7 AND DUP5 OR SWAP3 POP POP POP SWAP4 SWAP3 POP POP POP JUMP JUMPDEST PUSH1 0x0 DUP2 SWAP1 POP SWAP2 SWAP1 POP JUMP JUMPDEST PUSH1 0x0 PUSH2 0x12D3 PUSH2 0x12CE PUSH2 0x12C9 DUP5 PUSH2 0xA0B JUMP JUMPDEST PUSH2 0x12AE JUMP JUMPDEST PUSH2 0xA0B JUMP JUMPDEST SWAP1 POP SWAP2 SWAP1 POP JUMP JUMPDEST PUSH1 0x0 DUP2 SWAP1 POP SWAP2 SWAP1 POP JUMP JUMPDEST PUSH2 0x12ED DUP4 PUSH2 0x12B8 JUMP JUMPDEST PUSH2 0x1301 PUSH2 0x12F9 DUP3 PUSH2 0x12DA JUMP JUMPDEST DUP5 DUP5 SLOAD PUSH2 0x125C JUMP JUMPDEST DUP3 SSTORE POP POP POP POP JUMP JUMPDEST PUSH1 0x0 SWAP1 JUMP JUMPDEST PUSH2 0x1316 PUSH2 0x1309 JUMP JUMPDEST PUSH2 0x1321 DUP2 DUP5 DUP5 PUSH2 0x12E4 JUMP JUMPDEST POP POP POP JUMP JUMPDEST JUMPDEST DUP2 DUP2 LT ISZERO PUSH2 0x1345 JUMPI PUSH2 0x133A PUSH1 0x0 DUP3 PUSH2 0x130E JUMP JUMPDEST PUSH1 0x1 DUP2 ADD SWAP1 POP PUSH2 0x1327 JUMP JUMPDEST POP POP JUMP JUMPDEST PUSH1 0x1F DUP3 GT ISZERO PUSH2 0x138A JUMPI PUSH2 0x135B DUP2 PUSH2 0x122A JUMP JUMPDEST PUSH2 0x1364 DUP5 PUSH2 0x123F JUMP JUMPDEST DUP2 ADD PUSH1 0x20 DUP6 LT ISZERO PUSH2 0x1373 JUMPI DUP2 SWAP1 POP JUMPDEST PUSH2 0x1387 PUSH2 0x137F DUP6 PUSH2 0x123F JUMP JUMPDEST DUP4 ADD DUP3 PUSH2 0x1326 JUMP JUMPDEST POP POP JUMPDEST POP POP POP JUMP JUMPDEST PUSH1 0x0 DUP3 DUP3 SHR SWAP1 POP SWAP3 SWAP2 POP POP JUMP JUMPDEST PUSH1 0x0 PUSH2 0x13AD PUSH1 0x0 NOT DUP5 PUSH1 0x8 MUL PUSH2 0x138F JUMP JUMPDEST NOT DUP1 DUP4 AND SWAP2 POP POP SWAP3 SWAP2 POP POP JUMP JUMPDEST PUSH1 0x0 PUSH2 0x13C6 DUP4 DUP4 PUSH2 0x139C JUMP JUMPDEST SWAP2 POP DUP3 PUSH1 0x2 MUL DUP3 OR SWAP1 POP SWAP3 SWAP2 POP POP JUMP JUMPDEST PUSH2 0x13DF DUP3 PUSH2 0xA24 JUMP JUMPDEST PUSH8 0xFFFFFFFFFFFFFFFF DUP2 GT ISZERO PUSH2 0x13F8 JUMPI PUSH2 0x13F7 PUSH2 0xCE4 JUMP JUMPDEST JUMPDEST PUSH2 0x1402 DUP3 SLOAD PUSH2 0x10F0 JUMP JUMPDEST PUSH2 0x140D DUP3 DUP3 DUP6 PUSH2 0x1349 JUMP JUMPDEST PUSH1 0x0 PUSH1 0x20 SWAP1 POP PUSH1 0x1F DUP4 GT PUSH1 0x1 DUP2 EQ PUSH2 0x1440 JUMPI PUSH1 0x0 DUP5 ISZERO PUSH2 0x142E JUMPI DUP3 DUP8 ADD MLOAD SWAP1 POP JUMPDEST PUSH2 0x1438 DUP6 DUP3 PUSH2 0x13BA JUMP JUMPDEST DUP7 SSTORE POP PUSH2 0x14A0 JUMP JUMPDEST PUSH1 0x1F NOT DUP5 AND PUSH2 0x144E DUP7 PUSH2 0x122A JUMP JUMPDEST PUSH1 0x0 JUMPDEST DUP3 DUP2 LT ISZERO PUSH2 0x1476 JUMPI DUP5 DUP10 ADD MLOAD DUP3 SSTORE PUSH1 0x1 DUP3 ADD SWAP2 POP PUSH1 0x20 DUP6 ADD SWAP5 POP PUSH1 0x20 DUP2 ADD SWAP1 POP PUSH2 0x1451 JUMP JUMPDEST DUP7 DUP4 LT ISZERO PUSH2 0x1493 JUMPI DUP5 DUP10 ADD MLOAD PUSH2 0x148F PUSH1 0x1F DUP10 AND DUP3 PUSH2 0x139C JUMP JUMPDEST DUP4 SSTORE POP JUMPDEST PUSH1 0x1 PUSH1 0x2 DUP9 MUL ADD DUP9 SSTORE POP POP POP JUMPDEST POP POP POP POP POP POP JUMP JUMPDEST PUSH32 0x4E487B7100000000000000000000000000000000000000000000000000000000 PUSH1 0x0 MSTORE PUSH1 0x32 PUSH1 0x4 MSTORE PUSH1 0x24 PUSH1 0x0 REVERT JUMPDEST PUSH32 0x4F776E61626C653A206E6577206F776E657220697320746865207A65726F2061 PUSH1 0x0 DUP3 ADD MSTORE PUSH32 0x6464726573730000000000000000000000000000000000000000000000000000 PUSH1 0x20 DUP3 ADD MSTORE POP JUMP JUMPDEST PUSH1 0x0 PUSH2 0x1533 PUSH1 0x26 DUP4 PUSH2 0x101E JUMP JUMPDEST SWAP2 POP PUSH2 0x153E DUP3 PUSH2 0x14D7 JUMP JUMPDEST PUSH1 0x40 DUP3 ADD SWAP1 POP SWAP2 SWAP1 POP JUMP JUMPDEST PUSH1 0x0 PUSH1 0x20 DUP3 ADD SWAP1 POP DUP2 DUP2 SUB PUSH1 0x0 DUP4 ADD MSTORE PUSH2 0x1562 DUP2 PUSH2 0x1526 JUMP JUMPDEST SWAP1 POP SWAP2 SWAP1 POP JUMP JUMPDEST PUSH32 0x4F776E61626C653A2063616C6C6572206973206E6F7420746865206F776E6572 PUSH1 0x0 DUP3 ADD MSTORE POP JUMP JUMPDEST PUSH1 0x0 PUSH2 0x159F PUSH1 0x20 DUP4 PUSH2 0x101E JUMP JUMPDEST SWAP2 POP PUSH2 0x15AA DUP3 PUSH2 0x1569 JUMP JUMPDEST PUSH1 0x20 DUP3 ADD SWAP1 POP SWAP2 SWAP1 POP JUMP JUMPDEST PUSH1 0x0 PUSH1 0x20 DUP3 ADD SWAP1 POP DUP2 DUP2 SUB PUSH1 0x0 DUP4 ADD MSTORE PUSH2 0x15CE DUP2 PUSH2 0x1592 JUMP JUMPDEST SWAP1 POP SWAP2 SWAP1 POP JUMP INVALID LOG2 PUSH5 0x6970667358 0x22 SLT KECCAK256 0x5E 0xDB 0xEC 0xBD MOD 0xB9 SWAP7 0xA6 0x21 SWAP4 PUSH3 0xF5EAD5 OR PUSH7 0xB8623696DA7174 0xD6 0xBD 0x4A 0xAE GASLIMIT NUMBER PUSH18 0xFADC64736F6C634300081100330000000000 "
				},
				"gasEstimates": {
					"creation": {
						"codeDepositCost": "1128600",
						"executionCost": "30446",
						"totalCost": "1159046"
					},
					"external": {
						"addChecked(uint256)": "29191",
						"addPermission(address)": "29310",
						"addUser((uint256,string,string,string,address,uint256,bool))": "infinite",
						"destroy()": "29972",
						"getAllUser()": "infinite",
						"owner()": "2544",
						"transferOwnership(address)": "30775"
					}
				},
				"methodIdentifiers": {
					"addChecked(uint256)": "ee416d5b",
					"addPermission(address)": "4d0a5dbd",
					"addUser((uint256,string,string,string,address,uint256,bool))": "51c2bed1",
					"destroy()": "83197ef0",
					"getAllUser()": "47531df8",
					"owner()": "8da5cb5b",
					"transferOwnership(address)": "f2fde38b"
				}
			},
			"storageLayout": {
				"storage": [
					{
						"astId": 30,
						"contract": "database/user/UserDatabase.sol:UserDatabase",
						"label": "_owner",
						"offset": 0,
						"slot": "0",
						"type": "t_address"
					},
					{
						"astId": 348,
						"contract": "database/user/UserDatabase.sol:UserDatabase",
						"label": "list",
						"offset": 0,
						"slot": "1",
						"type": "t_array(t_struct(User)466_storage)dyn_storage"
					},
					{
						"astId": 351,
						"contract": "database/user/UserDatabase.sol:UserDatabase",
						"label": "autoIncrement",
						"offset": 0,
						"slot": "2",
						"type": "t_uint256"
					},
					{
						"astId": 355,
						"contract": "database/user/UserDatabase.sol:UserDatabase",
						"label": "permissions",
						"offset": 0,
						"slot": "3",
						"type": "t_mapping(t_address,t_bool)"
					}
				],
				"types": {
					"t_address": {
						"encoding": "inplace",
						"label": "address",
						"numberOfBytes": "20"
					},
					"t_array(t_struct(User)466_storage)dyn_storage": {
						"base": "t_struct(User)466_storage",
						"encoding": "dynamic_array",
						"label": "struct User[]",
						"numberOfBytes": "32"
					},
					"t_bool": {
						"encoding": "inplace",
						"label": "bool",
						"numberOfBytes": "1"
					},
					"t_mapping(t_address,t_bool)": {
						"encoding": "mapping",
						"key": "t_address",
						"label": "mapping(address => bool)",
						"numberOfBytes": "32",
						"value": "t_bool"
					},
					"t_string_storage": {
						"encoding": "bytes",
						"label": "string",
						"numberOfBytes": "32"
					},
					"t_struct(User)466_storage": {
						"encoding": "inplace",
						"label": "struct User",
						"members": [
							{
								"astId": 453,
								"contract": "database/user/UserDatabase.sol:UserDatabase",
								"label": "userId",
								"offset": 0,
								"slot": "0",
								"type": "t_uint256"
							},
							{
								"astId": 455,
								"contract": "database/user/UserDatabase.sol:UserDatabase",
								"label": "fullName",
								"offset": 0,
								"slot": "1",
								"type": "t_string_storage"
							},
							{
								"astId": 457,
								"contract": "database/user/UserDatabase.sol:UserDatabase",
								"label": "userCccd",
								"offset": 0,
								"slot": "2",
								"type": "t_string_storage"
							},
							{
								"astId": 459,
								"contract": "database/user/UserDatabase.sol:UserDatabase",
								"label": "userEmail",
								"offset": 0,
								"slot": "3",
								"type": "t_string_storage"
							},
							{
								"astId": 461,
								"contract": "database/user/UserDatabase.sol:UserDatabase",
								"label": "userAddress",
								"offset": 0,
								"slot": "4",
								"type": "t_address"
							},
							{
								"astId": 463,
								"contract": "database/user/UserDatabase.sol:UserDatabase",
								"label": "userCategory",
								"offset": 0,
								"slot": "5",
								"type": "t_uint256"
							},
							{
								"astId": 465,
								"contract": "database/user/UserDatabase.sol:UserDatabase",
								"label": "userIsChecked",
								"offset": 0,
								"slot": "6",
								"type": "t_bool"
							}
						],
						"numberOfBytes": "224"
					},
					"t_uint256": {
						"encoding": "inplace",
						"label": "uint256",
						"numberOfBytes": "32"
					}
				}
			},
			"userdoc": {
				"kind": "user",
				"methods": {},
				"version": 1
			}
		}
	}
}