{
	"data": {
		"bytecode": {
			"linkReferences": {},
			"object": "608060405234801561001057600080fd5b50336000806101000a81548173ffffffffffffffffffffffffffffffffffffffff021916908373ffffffffffffffffffffffffffffffffffffffff160217905550611ff3806100606000396000f3fe608060405234801561001057600080fd5b50600436106100cf5760003560e01c8063639d43f31161008c578063ba03fe9211610066578063ba03fe921461024c578063ca697ccd1461027c578063eb1042bf146102ac578063f2fde38b146102dc576100cf565b8063639d43f3146101f457806383197ef0146102245780638da5cb5b1461022e576100cf565b80631d769a9e146100d45780631d988d60146101045780633609010e146101345780634269e28b1461016457806348c1b2cd14610194578063552436b3146101c4575b600080fd5b6100ee60048036038101906100e99190611005565b6102f8565b6040516100fb9190611162565b60405180910390f35b61011e600480360381019061011991906112be565b6103f2565b60405161012b9190611319565b60405180910390f35b61014e60048036038101906101499190611005565b6104ca565b60405161015b9190611438565b60405180910390f35b61017e600480360381019061017991906114e6565b6105ba565b60405161018b9190611319565b60405180910390f35b6101ae60048036038101906101a99190611005565b61069c565b6040516101bb91906116fa565b60405180910390f35b6101de60048036038101906101d99190611005565b6107da565b6040516101eb91906118bd565b60405180910390f35b61020e60048036038101906102099190611005565b61090f565b60405161021b9190611a11565b60405180910390f35b61022c610a41565b005b610236610a62565b6040516102439190611a42565b60405180910390f35b61026660048036038101906102619190611b22565b610a8b565b6040516102739190611319565b60405180910390f35b61029660048036038101906102919190611bf2565b610b9d565b6040516102a39190611319565b60405180910390f35b6102c660048036038101906102c19190611d93565b610ca8565b6040516102d39190611319565b60405180910390f35b6102f660048036038101906102f19190611def565b610d93565b005b6060817f8e1604a838d0f1a9b2cda14a099e4ceb08e966cc6e05e8296f67b02d61a79f0960001b8114610360576040517f08c379a000000000000000000000000000000000000000000000000000000000815260040161035790611e9f565b60405180910390fd5b6005805480602002602001604051908101604052809291908181526020016000905b828210156103e657838290600052602060002090600502016040518060a00160405290816000820154815260200160018201548152602001600282015481526020016003820154815260200160048201548152505081526020019060010190610382565b50505050915050919050565b6000817f8e1604a838d0f1a9b2cda14a099e4ceb08e966cc6e05e8296f67b02d61a79f0960001b811461045a576040517f08c379a000000000000000000000000000000000000000000000000000000000815260040161045190611e9f565b60405180910390fd5b6003805490508460000181815250506003849080600181540180825580915050600190039060005260206000209060040201600090919091909150600082015181600001556020820151816001015560408201518160020155606082015181600301555050600191505092915050565b6060817f8e1604a838d0f1a9b2cda14a099e4ceb08e966cc6e05e8296f67b02d61a79f0960001b8114610532576040517f08c379a000000000000000000000000000000000000000000000000000000000815260040161052990611e9f565b60405180910390fd5b6003805480602002602001604051908101604052809291908181526020016000905b828210156105ae578382906000526020600020906004020160405180608001604052908160008201548152602001600182015481526020016002820154815260200160038201548152505081526020019060010190610554565b50505050915050919050565b6000817f8e1604a838d0f1a9b2cda14a099e4ceb08e966cc6e05e8296f67b02d61a79f0960001b8114610622576040517f08c379a000000000000000000000000000000000000000000000000000000000815260040161061990611e9f565b60405180910390fd5b600580549050846000018181525050600584908060018154018082558091505060019003906000526020600020906005020160009091909190915060008201518160000155602082015181600101556040820151816002015560608201518160030155608082015181600401555050600191505092915050565b6060817f8e1604a838d0f1a9b2cda14a099e4ceb08e966cc6e05e8296f67b02d61a79f0960001b8114610704576040517f08c379a00000000000000000000000000000000000000000000000000000000081526004016106fb90611e9f565b60405180910390fd5b6004805480602002602001604051908101604052809291908181526020016000905b828210156107ce5783829060005260206000209060040201604051806080016040529081600082015481526020016001820154815260200160028201548152602001600382018054806020026020016040519081016040528092919081815260200182805480156107b657602002820191906000526020600020905b8154815260200190600101908083116107a2575b50505050508152505081526020019060010190610726565b50505050915050919050565b6060817f8e1604a838d0f1a9b2cda14a099e4ceb08e966cc6e05e8296f67b02d61a79f0960001b8114610842576040517f08c379a000000000000000000000000000000000000000000000000000000000815260040161083990611e9f565b60405180910390fd5b6002805480602002602001604051908101604052809291908181526020016000905b8282101561090357838290600052602060002090600602016040518060c001604052908160008201548152602001600182015481526020016002820160009054906101000a900460ff1660028111156108c0576108bf611748565b5b60028111156108d2576108d1611748565b5b8152602001600382015481526020016004820154815260200160058201548152505081526020019060010190610864565b50505050915050919050565b6060817f8e1604a838d0f1a9b2cda14a099e4ceb08e966cc6e05e8296f67b02d61a79f0960001b8114610977576040517f08c379a000000000000000000000000000000000000000000000000000000000815260040161096e90611e9f565b60405180910390fd5b6001805480602002602001604051908101604052809291908181526020016000905b82821015610a355783829060005260206000209060030201604051806060016040529081600082015481526020016001820160009054906101000a900473ffffffffffffffffffffffffffffffffffffffff1673ffffffffffffffffffffffffffffffffffffffff1673ffffffffffffffffffffffffffffffffffffffff16815260200160028201548152505081526020019060010190610999565b50505050915050919050565b610a49610e16565b3073ffffffffffffffffffffffffffffffffffffffff16ff5b60008060009054906101000a900473ffffffffffffffffffffffffffffffffffffffff16905090565b6000817f8e1604a838d0f1a9b2cda14a099e4ceb08e966cc6e05e8296f67b02d61a79f0960001b8114610af3576040517f08c379a0000000000000000000000000000000000000000000000000000000008152600401610aea90611e9f565b60405180910390fd5b6002805490508460000181815250506002849080600181540180825580915050600190039060005260206000209060060201600090919091909150600082015181600001556020820151816001015560408201518160020160006101000a81548160ff02191690836002811115610b6d57610b6c611748565b5b0217905550606082015181600301556080820151816004015560a082015181600501555050600191505092915050565b6000817f8e1604a838d0f1a9b2cda14a099e4ceb08e966cc6e05e8296f67b02d61a79f0960001b8114610c05576040517f08c379a0000000000000000000000000000000000000000000000000000000008152600401610bfc90611e9f565b60405180910390fd5b60018054905084600001818152505060018490806001815401808255809150506001900390600052602060002090600302016000909190919091506000820151816000015560208201518160010160006101000a81548173ffffffffffffffffffffffffffffffffffffffff021916908373ffffffffffffffffffffffffffffffffffffffff160217905550604082015181600201555050600191505092915050565b6000817f8e1604a838d0f1a9b2cda14a099e4ceb08e966cc6e05e8296f67b02d61a79f0960001b8114610d10576040517f08c379a0000000000000000000000000000000000000000000000000000000008152600401610d0790611e9f565b60405180910390fd5b60048054905084600001818152505060048490806001815401808255809150506001900390600052602060002090600402016000909190919091506000820151816000015560208201518160010155604082015181600201556060820151816003019080519060200190610d85929190610f51565b505050600191505092915050565b610d9b610e16565b600073ffffffffffffffffffffffffffffffffffffffff168173ffffffffffffffffffffffffffffffffffffffff1603610e0a576040517f08c379a0000000000000000000000000000000000000000000000000000000008152600401610e0190611f31565b60405180910390fd5b610e1381610e8d565b50565b3373ffffffffffffffffffffffffffffffffffffffff16610e35610a62565b73ffffffffffffffffffffffffffffffffffffffff1614610e8b576040517f08c379a0000000000000000000000000000000000000000000000000000000008152600401610e8290611f9d565b60405180910390fd5b565b60008060009054906101000a900473ffffffffffffffffffffffffffffffffffffffff169050816000806101000a81548173ffffffffffffffffffffffffffffffffffffffff021916908373ffffffffffffffffffffffffffffffffffffffff1602179055508173ffffffffffffffffffffffffffffffffffffffff168173ffffffffffffffffffffffffffffffffffffffff167f8be0079c531659141344cd1fd0a4f28419497f9722a3daafe3b4186f6b6457e060405160405180910390a35050565b828054828255906000526020600020908101928215610f8d579160200282015b82811115610f8c578251825591602001919060010190610f71565b5b509050610f9a9190610f9e565b5090565b5b80821115610fb7576000816000905550600101610f9f565b5090565b6000604051905090565b600080fd5b600080fd5b6000819050919050565b610fe281610fcf565b8114610fed57600080fd5b50565b600081359050610fff81610fd9565b92915050565b60006020828403121561101b5761101a610fc5565b5b600061102984828501610ff0565b91505092915050565b600081519050919050565b600082825260208201905092915050565b6000819050602082019050919050565b6000819050919050565b6110718161105e565b82525050565b60a08201600082015161108d6000850182611068565b5060208201516110a06020850182611068565b5060408201516110b36040850182611068565b5060608201516110c66060850182611068565b5060808201516110d96080850182611068565b50505050565b60006110eb8383611077565b60a08301905092915050565b6000602082019050919050565b600061110f82611032565b611119818561103d565b93506111248361104e565b8060005b8381101561115557815161113c88826110df565b9750611147836110f7565b925050600181019050611128565b5085935050505092915050565b6000602082019050818103600083015261117c8184611104565b905092915050565b600080fd5b6000601f19601f8301169050919050565b7f4e487b7100000000000000000000000000000000000000000000000000000000600052604160045260246000fd5b6111d282611189565b810181811067ffffffffffffffff821117156111f1576111f061119a565b5b80604052505050565b6000611204610fbb565b905061121082826111c9565b919050565b600080fd5b6112238161105e565b811461122e57600080fd5b50565b6000813590506112408161121a565b92915050565b60006080828403121561125c5761125b611184565b5b61126660806111fa565b9050600061127684828501611231565b600083015250602061128a84828501611231565b602083015250604061129e84828501611231565b60408301525060606112b284828501611231565b60608301525092915050565b60008060a083850312156112d5576112d4610fc5565b5b60006112e385828601611246565b92505060806112f485828601610ff0565b9150509250929050565b60008115159050919050565b611313816112fe565b82525050565b600060208201905061132e600083018461130a565b92915050565b600081519050919050565b600082825260208201905092915050565b6000819050602082019050919050565b6080820160008201516113766000850182611068565b5060208201516113896020850182611068565b50604082015161139c6040850182611068565b5060608201516113af6060850182611068565b50505050565b60006113c18383611360565b60808301905092915050565b6000602082019050919050565b60006113e582611334565b6113ef818561133f565b93506113fa83611350565b8060005b8381101561142b57815161141288826113b5565b975061141d836113cd565b9250506001810190506113fe565b5085935050505092915050565b6000602082019050818103600083015261145281846113da565b905092915050565b600060a082840312156114705761146f611184565b5b61147a60a06111fa565b9050600061148a84828501611231565b600083015250602061149e84828501611231565b60208301525060406114b284828501611231565b60408301525060606114c684828501611231565b60608301525060806114da84828501611231565b60808301525092915050565b60008060c083850312156114fd576114fc610fc5565b5b600061150b8582860161145a565b92505060a061151c85828601610ff0565b9150509250929050565b600081519050919050565b600082825260208201905092915050565b6000819050602082019050919050565b600081519050919050565b600082825260208201905092915050565b6000819050602082019050919050565b600061158a8383611068565b60208301905092915050565b6000602082019050919050565b60006115ae82611552565b6115b8818561155d565b93506115c38361156e565b8060005b838110156115f45781516115db888261157e565b97506115e683611596565b9250506001810190506115c7565b5085935050505092915050565b60006080830160008301516116196000860182611068565b50602083015161162c6020860182611068565b50604083015161163f6040860182611068565b506060830151848203606086015261165782826115a3565b9150508091505092915050565b60006116708383611601565b905092915050565b6000602082019050919050565b600061169082611526565b61169a8185611531565b9350836020820285016116ac85611542565b8060005b858110156116e857848403895281516116c98582611664565b94506116d483611678565b925060208a019950506001810190506116b0565b50829750879550505050505092915050565b600060208201905081810360008301526117148184611685565b905092915050565b600081519050919050565b600082825260208201905092915050565b6000819050602082019050919050565b7f4e487b7100000000000000000000000000000000000000000000000000000000600052602160045260246000fd5b6003811061178857611787611748565b5b50565b600081905061179982611777565b919050565b60006117a98261178b565b9050919050565b6117b98161179e565b82525050565b60c0820160008201516117d56000850182611068565b5060208201516117e86020850182611068565b5060408201516117fb60408501826117b0565b50606082015161180e6060850182611068565b5060808201516118216080850182611068565b5060a082015161183460a0850182611068565b50505050565b600061184683836117bf565b60c08301905092915050565b6000602082019050919050565b600061186a8261171c565b6118748185611727565b935061187f83611738565b8060005b838110156118b0578151611897888261183a565b97506118a283611852565b925050600181019050611883565b5085935050505092915050565b600060208201905081810360008301526118d7818461185f565b905092915050565b600081519050919050565b600082825260208201905092915050565b6000819050602082019050919050565b600073ffffffffffffffffffffffffffffffffffffffff82169050919050565b60006119368261190b565b9050919050565b6119468161192b565b82525050565b6060820160008201516119626000850182611068565b506020820151611975602085018261193d565b5060408201516119886040850182611068565b50505050565b600061199a838361194c565b60608301905092915050565b6000602082019050919050565b60006119be826118df565b6119c881856118ea565b93506119d3836118fb565b8060005b83811015611a045781516119eb888261198e565b97506119f6836119a6565b9250506001810190506119d7565b5085935050505092915050565b60006020820190508181036000830152611a2b81846119b3565b905092915050565b611a3c8161192b565b82525050565b6000602082019050611a576000830184611a33565b92915050565b60038110611a6a57600080fd5b50565b600081359050611a7c81611a5d565b92915050565b600060c08284031215611a9857611a97611184565b5b611aa260c06111fa565b90506000611ab284828501611231565b6000830152506020611ac684828501611231565b6020830152506040611ada84828501611a6d565b6040830152506060611aee84828501611231565b6060830152506080611b0284828501611231565b60808301525060a0611b1684828501611231565b60a08301525092915050565b60008060e08385031215611b3957611b38610fc5565b5b6000611b4785828601611a82565b92505060c0611b5885828601610ff0565b9150509250929050565b611b6b8161192b565b8114611b7657600080fd5b50565b600081359050611b8881611b62565b92915050565b600060608284031215611ba457611ba3611184565b5b611bae60606111fa565b90506000611bbe84828501611231565b6000830152506020611bd284828501611b79565b6020830152506040611be684828501611231565b60408301525092915050565b60008060808385031215611c0957611c08610fc5565b5b6000611c1785828601611b8e565b9250506060611c2885828601610ff0565b9150509250929050565b600080fd5b600067ffffffffffffffff821115611c5257611c5161119a565b5b602082029050602081019050919050565b600080fd5b6000611c7b611c7684611c37565b6111fa565b90508083825260208201905060208402830185811115611c9e57611c9d611c63565b5b835b81811015611cc75780611cb38882611231565b845260208401935050602081019050611ca0565b5050509392505050565b600082601f830112611ce657611ce5611c32565b5b8135611cf6848260208601611c68565b91505092915050565b600060808284031215611d1557611d14611184565b5b611d1f60806111fa565b90506000611d2f84828501611231565b6000830152506020611d4384828501611231565b6020830152506040611d5784828501611231565b604083015250606082013567ffffffffffffffff811115611d7b57611d7a611215565b5b611d8784828501611cd1565b60608301525092915050565b60008060408385031215611daa57611da9610fc5565b5b600083013567ffffffffffffffff811115611dc857611dc7610fca565b5b611dd485828601611cff565b9250506020611de585828601610ff0565b9150509250929050565b600060208284031215611e0557611e04610fc5565b5b6000611e1384828501611b79565b91505092915050565b600082825260208201905092915050565b7f4461746162617365204661726d657244617461626173653a205365637265742060008201527f6b6579206572726f720000000000000000000000000000000000000000000000602082015250565b6000611e89602983611e1c565b9150611e9482611e2d565b604082019050919050565b60006020820190508181036000830152611eb881611e7c565b9050919050565b7f4f776e61626c653a206e6577206f776e657220697320746865207a65726f206160008201527f6464726573730000000000000000000000000000000000000000000000000000602082015250565b6000611f1b602683611e1c565b9150611f2682611ebf565b604082019050919050565b60006020820190508181036000830152611f4a81611f0e565b9050919050565b7f4f776e61626c653a2063616c6c6572206973206e6f7420746865206f776e6572600082015250565b6000611f87602083611e1c565b9150611f9282611f51565b602082019050919050565b60006020820190508181036000830152611fb681611f7a565b905091905056fea264697066735822122045d839c7c78216e8f8a42ea7888de07203220d8dbd400bc1e0ed87a078bf84d564736f6c63430008110033",
			"opcodes": "PUSH1 0x80 PUSH1 0x40 MSTORE CALLVALUE DUP1 ISZERO PUSH2 0x10 JUMPI PUSH1 0x0 DUP1 REVERT JUMPDEST POP CALLER PUSH1 0x0 DUP1 PUSH2 0x100 EXP DUP2 SLOAD DUP2 PUSH20 0xFFFFFFFFFFFFFFFFFFFFFFFFFFFFFFFFFFFFFFFF MUL NOT AND SWAP1 DUP4 PUSH20 0xFFFFFFFFFFFFFFFFFFFFFFFFFFFFFFFFFFFFFFFF AND MUL OR SWAP1 SSTORE POP PUSH2 0x1FF3 DUP1 PUSH2 0x60 PUSH1 0x0 CODECOPY PUSH1 0x0 RETURN INVALID PUSH1 0x80 PUSH1 0x40 MSTORE CALLVALUE DUP1 ISZERO PUSH2 0x10 JUMPI PUSH1 0x0 DUP1 REVERT JUMPDEST POP PUSH1 0x4 CALLDATASIZE LT PUSH2 0xCF JUMPI PUSH1 0x0 CALLDATALOAD PUSH1 0xE0 SHR DUP1 PUSH4 0x639D43F3 GT PUSH2 0x8C JUMPI DUP1 PUSH4 0xBA03FE92 GT PUSH2 0x66 JUMPI DUP1 PUSH4 0xBA03FE92 EQ PUSH2 0x24C JUMPI DUP1 PUSH4 0xCA697CCD EQ PUSH2 0x27C JUMPI DUP1 PUSH4 0xEB1042BF EQ PUSH2 0x2AC JUMPI DUP1 PUSH4 0xF2FDE38B EQ PUSH2 0x2DC JUMPI PUSH2 0xCF JUMP JUMPDEST DUP1 PUSH4 0x639D43F3 EQ PUSH2 0x1F4 JUMPI DUP1 PUSH4 0x83197EF0 EQ PUSH2 0x224 JUMPI DUP1 PUSH4 0x8DA5CB5B EQ PUSH2 0x22E JUMPI PUSH2 0xCF JUMP JUMPDEST DUP1 PUSH4 0x1D769A9E EQ PUSH2 0xD4 JUMPI DUP1 PUSH4 0x1D988D60 EQ PUSH2 0x104 JUMPI DUP1 PUSH4 0x3609010E EQ PUSH2 0x134 JUMPI DUP1 PUSH4 0x4269E28B EQ PUSH2 0x164 JUMPI DUP1 PUSH4 0x48C1B2CD EQ PUSH2 0x194 JUMPI DUP1 PUSH4 0x552436B3 EQ PUSH2 0x1C4 JUMPI JUMPDEST PUSH1 0x0 DUP1 REVERT JUMPDEST PUSH2 0xEE PUSH1 0x4 DUP1 CALLDATASIZE SUB DUP2 ADD SWAP1 PUSH2 0xE9 SWAP2 SWAP1 PUSH2 0x1005 JUMP JUMPDEST PUSH2 0x2F8 JUMP JUMPDEST PUSH1 0x40 MLOAD PUSH2 0xFB SWAP2 SWAP1 PUSH2 0x1162 JUMP JUMPDEST PUSH1 0x40 MLOAD DUP1 SWAP2 SUB SWAP1 RETURN JUMPDEST PUSH2 0x11E PUSH1 0x4 DUP1 CALLDATASIZE SUB DUP2 ADD SWAP1 PUSH2 0x119 SWAP2 SWAP1 PUSH2 0x12BE JUMP JUMPDEST PUSH2 0x3F2 JUMP JUMPDEST PUSH1 0x40 MLOAD PUSH2 0x12B SWAP2 SWAP1 PUSH2 0x1319 JUMP JUMPDEST PUSH1 0x40 MLOAD DUP1 SWAP2 SUB SWAP1 RETURN JUMPDEST PUSH2 0x14E PUSH1 0x4 DUP1 CALLDATASIZE SUB DUP2 ADD SWAP1 PUSH2 0x149 SWAP2 SWAP1 PUSH2 0x1005 JUMP JUMPDEST PUSH2 0x4CA JUMP JUMPDEST PUSH1 0x40 MLOAD PUSH2 0x15B SWAP2 SWAP1 PUSH2 0x1438 JUMP JUMPDEST PUSH1 0x40 MLOAD DUP1 SWAP2 SUB SWAP1 RETURN JUMPDEST PUSH2 0x17E PUSH1 0x4 DUP1 CALLDATASIZE SUB DUP2 ADD SWAP1 PUSH2 0x179 SWAP2 SWAP1 PUSH2 0x14E6 JUMP JUMPDEST PUSH2 0x5BA JUMP JUMPDEST PUSH1 0x40 MLOAD PUSH2 0x18B SWAP2 SWAP1 PUSH2 0x1319 JUMP JUMPDEST PUSH1 0x40 MLOAD DUP1 SWAP2 SUB SWAP1 RETURN JUMPDEST PUSH2 0x1AE PUSH1 0x4 DUP1 CALLDATASIZE SUB DUP2 ADD SWAP1 PUSH2 0x1A9 SWAP2 SWAP1 PUSH2 0x1005 JUMP JUMPDEST PUSH2 0x69C JUMP JUMPDEST PUSH1 0x40 MLOAD PUSH2 0x1BB SWAP2 SWAP1 PUSH2 0x16FA JUMP JUMPDEST PUSH1 0x40 MLOAD DUP1 SWAP2 SUB SWAP1 RETURN JUMPDEST PUSH2 0x1DE PUSH1 0x4 DUP1 CALLDATASIZE SUB DUP2 ADD SWAP1 PUSH2 0x1D9 SWAP2 SWAP1 PUSH2 0x1005 JUMP JUMPDEST PUSH2 0x7DA JUMP JUMPDEST PUSH1 0x40 MLOAD PUSH2 0x1EB SWAP2 SWAP1 PUSH2 0x18BD JUMP JUMPDEST PUSH1 0x40 MLOAD DUP1 SWAP2 SUB SWAP1 RETURN JUMPDEST PUSH2 0x20E PUSH1 0x4 DUP1 CALLDATASIZE SUB DUP2 ADD SWAP1 PUSH2 0x209 SWAP2 SWAP1 PUSH2 0x1005 JUMP JUMPDEST PUSH2 0x90F JUMP JUMPDEST PUSH1 0x40 MLOAD PUSH2 0x21B SWAP2 SWAP1 PUSH2 0x1A11 JUMP JUMPDEST PUSH1 0x40 MLOAD DUP1 SWAP2 SUB SWAP1 RETURN JUMPDEST PUSH2 0x22C PUSH2 0xA41 JUMP JUMPDEST STOP JUMPDEST PUSH2 0x236 PUSH2 0xA62 JUMP JUMPDEST PUSH1 0x40 MLOAD PUSH2 0x243 SWAP2 SWAP1 PUSH2 0x1A42 JUMP JUMPDEST PUSH1 0x40 MLOAD DUP1 SWAP2 SUB SWAP1 RETURN JUMPDEST PUSH2 0x266 PUSH1 0x4 DUP1 CALLDATASIZE SUB DUP2 ADD SWAP1 PUSH2 0x261 SWAP2 SWAP1 PUSH2 0x1B22 JUMP JUMPDEST PUSH2 0xA8B JUMP JUMPDEST PUSH1 0x40 MLOAD PUSH2 0x273 SWAP2 SWAP1 PUSH2 0x1319 JUMP JUMPDEST PUSH1 0x40 MLOAD DUP1 SWAP2 SUB SWAP1 RETURN JUMPDEST PUSH2 0x296 PUSH1 0x4 DUP1 CALLDATASIZE SUB DUP2 ADD SWAP1 PUSH2 0x291 SWAP2 SWAP1 PUSH2 0x1BF2 JUMP JUMPDEST PUSH2 0xB9D JUMP JUMPDEST PUSH1 0x40 MLOAD PUSH2 0x2A3 SWAP2 SWAP1 PUSH2 0x1319 JUMP JUMPDEST PUSH1 0x40 MLOAD DUP1 SWAP2 SUB SWAP1 RETURN JUMPDEST PUSH2 0x2C6 PUSH1 0x4 DUP1 CALLDATASIZE SUB DUP2 ADD SWAP1 PUSH2 0x2C1 SWAP2 SWAP1 PUSH2 0x1D93 JUMP JUMPDEST PUSH2 0xCA8 JUMP JUMPDEST PUSH1 0x40 MLOAD PUSH2 0x2D3 SWAP2 SWAP1 PUSH2 0x1319 JUMP JUMPDEST PUSH1 0x40 MLOAD DUP1 SWAP2 SUB SWAP1 RETURN JUMPDEST PUSH2 0x2F6 PUSH1 0x4 DUP1 CALLDATASIZE SUB DUP2 ADD SWAP1 PUSH2 0x2F1 SWAP2 SWAP1 PUSH2 0x1DEF JUMP JUMPDEST PUSH2 0xD93 JUMP JUMPDEST STOP JUMPDEST PUSH1 0x60 DUP2 PUSH32 0x8E1604A838D0F1A9B2CDA14A099E4CEB08E966CC6E05E8296F67B02D61A79F09 PUSH1 0x0 SHL DUP2 EQ PUSH2 0x360 JUMPI PUSH1 0x40 MLOAD PUSH32 0x8C379A000000000000000000000000000000000000000000000000000000000 DUP2 MSTORE PUSH1 0x4 ADD PUSH2 0x357 SWAP1 PUSH2 0x1E9F JUMP JUMPDEST PUSH1 0x40 MLOAD DUP1 SWAP2 SUB SWAP1 REVERT JUMPDEST PUSH1 0x5 DUP1 SLOAD DUP1 PUSH1 0x20 MUL PUSH1 0x20 ADD PUSH1 0x40 MLOAD SWAP1 DUP2 ADD PUSH1 0x40 MSTORE DUP1 SWAP3 SWAP2 SWAP1 DUP2 DUP2 MSTORE PUSH1 0x20 ADD PUSH1 0x0 SWAP1 JUMPDEST DUP3 DUP3 LT ISZERO PUSH2 0x3E6 JUMPI DUP4 DUP3 SWAP1 PUSH1 0x0 MSTORE PUSH1 0x20 PUSH1 0x0 KECCAK256 SWAP1 PUSH1 0x5 MUL ADD PUSH1 0x40 MLOAD DUP1 PUSH1 0xA0 ADD PUSH1 0x40 MSTORE SWAP1 DUP2 PUSH1 0x0 DUP3 ADD SLOAD DUP2 MSTORE PUSH1 0x20 ADD PUSH1 0x1 DUP3 ADD SLOAD DUP2 MSTORE PUSH1 0x20 ADD PUSH1 0x2 DUP3 ADD SLOAD DUP2 MSTORE PUSH1 0x20 ADD PUSH1 0x3 DUP3 ADD SLOAD DUP2 MSTORE PUSH1 0x20 ADD PUSH1 0x4 DUP3 ADD SLOAD DUP2 MSTORE POP POP DUP2 MSTORE PUSH1 0x20 ADD SWAP1 PUSH1 0x1 ADD SWAP1 PUSH2 0x382 JUMP JUMPDEST POP POP POP POP SWAP2 POP POP SWAP2 SWAP1 POP JUMP JUMPDEST PUSH1 0x0 DUP2 PUSH32 0x8E1604A838D0F1A9B2CDA14A099E4CEB08E966CC6E05E8296F67B02D61A79F09 PUSH1 0x0 SHL DUP2 EQ PUSH2 0x45A JUMPI PUSH1 0x40 MLOAD PUSH32 0x8C379A000000000000000000000000000000000000000000000000000000000 DUP2 MSTORE PUSH1 0x4 ADD PUSH2 0x451 SWAP1 PUSH2 0x1E9F JUMP JUMPDEST PUSH1 0x40 MLOAD DUP1 SWAP2 SUB SWAP1 REVERT JUMPDEST PUSH1 0x3 DUP1 SLOAD SWAP1 POP DUP5 PUSH1 0x0 ADD DUP2 DUP2 MSTORE POP POP PUSH1 0x3 DUP5 SWAP1 DUP1 PUSH1 0x1 DUP2 SLOAD ADD DUP1 DUP3 SSTORE DUP1 SWAP2 POP POP PUSH1 0x1 SWAP1 SUB SWAP1 PUSH1 0x0 MSTORE PUSH1 0x20 PUSH1 0x0 KECCAK256 SWAP1 PUSH1 0x4 MUL ADD PUSH1 0x0 SWAP1 SWAP2 SWAP1 SWAP2 SWAP1 SWAP2 POP PUSH1 0x0 DUP3 ADD MLOAD DUP2 PUSH1 0x0 ADD SSTORE PUSH1 0x20 DUP3 ADD MLOAD DUP2 PUSH1 0x1 ADD SSTORE PUSH1 0x40 DUP3 ADD MLOAD DUP2 PUSH1 0x2 ADD SSTORE PUSH1 0x60 DUP3 ADD MLOAD DUP2 PUSH1 0x3 ADD SSTORE POP POP PUSH1 0x1 SWAP2 POP POP SWAP3 SWAP2 POP POP JUMP JUMPDEST PUSH1 0x60 DUP2 PUSH32 0x8E1604A838D0F1A9B2CDA14A099E4CEB08E966CC6E05E8296F67B02D61A79F09 PUSH1 0x0 SHL DUP2 EQ PUSH2 0x532 JUMPI PUSH1 0x40 MLOAD PUSH32 0x8C379A000000000000000000000000000000000000000000000000000000000 DUP2 MSTORE PUSH1 0x4 ADD PUSH2 0x529 SWAP1 PUSH2 0x1E9F JUMP JUMPDEST PUSH1 0x40 MLOAD DUP1 SWAP2 SUB SWAP1 REVERT JUMPDEST PUSH1 0x3 DUP1 SLOAD DUP1 PUSH1 0x20 MUL PUSH1 0x20 ADD PUSH1 0x40 MLOAD SWAP1 DUP2 ADD PUSH1 0x40 MSTORE DUP1 SWAP3 SWAP2 SWAP1 DUP2 DUP2 MSTORE PUSH1 0x20 ADD PUSH1 0x0 SWAP1 JUMPDEST DUP3 DUP3 LT ISZERO PUSH2 0x5AE JUMPI DUP4 DUP3 SWAP1 PUSH1 0x0 MSTORE PUSH1 0x20 PUSH1 0x0 KECCAK256 SWAP1 PUSH1 0x4 MUL ADD PUSH1 0x40 MLOAD DUP1 PUSH1 0x80 ADD PUSH1 0x40 MSTORE SWAP1 DUP2 PUSH1 0x0 DUP3 ADD SLOAD DUP2 MSTORE PUSH1 0x20 ADD PUSH1 0x1 DUP3 ADD SLOAD DUP2 MSTORE PUSH1 0x20 ADD PUSH1 0x2 DUP3 ADD SLOAD DUP2 MSTORE PUSH1 0x20 ADD PUSH1 0x3 DUP3 ADD SLOAD DUP2 MSTORE POP POP DUP2 MSTORE PUSH1 0x20 ADD SWAP1 PUSH1 0x1 ADD SWAP1 PUSH2 0x554 JUMP JUMPDEST POP POP POP POP SWAP2 POP POP SWAP2 SWAP1 POP JUMP JUMPDEST PUSH1 0x0 DUP2 PUSH32 0x8E1604A838D0F1A9B2CDA14A099E4CEB08E966CC6E05E8296F67B02D61A79F09 PUSH1 0x0 SHL DUP2 EQ PUSH2 0x622 JUMPI PUSH1 0x40 MLOAD PUSH32 0x8C379A000000000000000000000000000000000000000000000000000000000 DUP2 MSTORE PUSH1 0x4 ADD PUSH2 0x619 SWAP1 PUSH2 0x1E9F JUMP JUMPDEST PUSH1 0x40 MLOAD DUP1 SWAP2 SUB SWAP1 REVERT JUMPDEST PUSH1 0x5 DUP1 SLOAD SWAP1 POP DUP5 PUSH1 0x0 ADD DUP2 DUP2 MSTORE POP POP PUSH1 0x5 DUP5 SWAP1 DUP1 PUSH1 0x1 DUP2 SLOAD ADD DUP1 DUP3 SSTORE DUP1 SWAP2 POP POP PUSH1 0x1 SWAP1 SUB SWAP1 PUSH1 0x0 MSTORE PUSH1 0x20 PUSH1 0x0 KECCAK256 SWAP1 PUSH1 0x5 MUL ADD PUSH1 0x0 SWAP1 SWAP2 SWAP1 SWAP2 SWAP1 SWAP2 POP PUSH1 0x0 DUP3 ADD MLOAD DUP2 PUSH1 0x0 ADD SSTORE PUSH1 0x20 DUP3 ADD MLOAD DUP2 PUSH1 0x1 ADD SSTORE PUSH1 0x40 DUP3 ADD MLOAD DUP2 PUSH1 0x2 ADD SSTORE PUSH1 0x60 DUP3 ADD MLOAD DUP2 PUSH1 0x3 ADD SSTORE PUSH1 0x80 DUP3 ADD MLOAD DUP2 PUSH1 0x4 ADD SSTORE POP POP PUSH1 0x1 SWAP2 POP POP SWAP3 SWAP2 POP POP JUMP JUMPDEST PUSH1 0x60 DUP2 PUSH32 0x8E1604A838D0F1A9B2CDA14A099E4CEB08E966CC6E05E8296F67B02D61A79F09 PUSH1 0x0 SHL DUP2 EQ PUSH2 0x704 JUMPI PUSH1 0x40 MLOAD PUSH32 0x8C379A000000000000000000000000000000000000000000000000000000000 DUP2 MSTORE PUSH1 0x4 ADD PUSH2 0x6FB SWAP1 PUSH2 0x1E9F JUMP JUMPDEST PUSH1 0x40 MLOAD DUP1 SWAP2 SUB SWAP1 REVERT JUMPDEST PUSH1 0x4 DUP1 SLOAD DUP1 PUSH1 0x20 MUL PUSH1 0x20 ADD PUSH1 0x40 MLOAD SWAP1 DUP2 ADD PUSH1 0x40 MSTORE DUP1 SWAP3 SWAP2 SWAP1 DUP2 DUP2 MSTORE PUSH1 0x20 ADD PUSH1 0x0 SWAP1 JUMPDEST DUP3 DUP3 LT ISZERO PUSH2 0x7CE JUMPI DUP4 DUP3 SWAP1 PUSH1 0x0 MSTORE PUSH1 0x20 PUSH1 0x0 KECCAK256 SWAP1 PUSH1 0x4 MUL ADD PUSH1 0x40 MLOAD DUP1 PUSH1 0x80 ADD PUSH1 0x40 MSTORE SWAP1 DUP2 PUSH1 0x0 DUP3 ADD SLOAD DUP2 MSTORE PUSH1 0x20 ADD PUSH1 0x1 DUP3 ADD SLOAD DUP2 MSTORE PUSH1 0x20 ADD PUSH1 0x2 DUP3 ADD SLOAD DUP2 MSTORE PUSH1 0x20 ADD PUSH1 0x3 DUP3 ADD DUP1 SLOAD DUP1 PUSH1 0x20 MUL PUSH1 0x20 ADD PUSH1 0x40 MLOAD SWAP1 DUP2 ADD PUSH1 0x40 MSTORE DUP1 SWAP3 SWAP2 SWAP1 DUP2 DUP2 MSTORE PUSH1 0x20 ADD DUP3 DUP1 SLOAD DUP1 ISZERO PUSH2 0x7B6 JUMPI PUSH1 0x20 MUL DUP3 ADD SWAP2 SWAP1 PUSH1 0x0 MSTORE PUSH1 0x20 PUSH1 0x0 KECCAK256 SWAP1 JUMPDEST DUP2 SLOAD DUP2 MSTORE PUSH1 0x20 ADD SWAP1 PUSH1 0x1 ADD SWAP1 DUP1 DUP4 GT PUSH2 0x7A2 JUMPI JUMPDEST POP POP POP POP POP DUP2 MSTORE POP POP DUP2 MSTORE PUSH1 0x20 ADD SWAP1 PUSH1 0x1 ADD SWAP1 PUSH2 0x726 JUMP JUMPDEST POP POP POP POP SWAP2 POP POP SWAP2 SWAP1 POP JUMP JUMPDEST PUSH1 0x60 DUP2 PUSH32 0x8E1604A838D0F1A9B2CDA14A099E4CEB08E966CC6E05E8296F67B02D61A79F09 PUSH1 0x0 SHL DUP2 EQ PUSH2 0x842 JUMPI PUSH1 0x40 MLOAD PUSH32 0x8C379A000000000000000000000000000000000000000000000000000000000 DUP2 MSTORE PUSH1 0x4 ADD PUSH2 0x839 SWAP1 PUSH2 0x1E9F JUMP JUMPDEST PUSH1 0x40 MLOAD DUP1 SWAP2 SUB SWAP1 REVERT JUMPDEST PUSH1 0x2 DUP1 SLOAD DUP1 PUSH1 0x20 MUL PUSH1 0x20 ADD PUSH1 0x40 MLOAD SWAP1 DUP2 ADD PUSH1 0x40 MSTORE DUP1 SWAP3 SWAP2 SWAP1 DUP2 DUP2 MSTORE PUSH1 0x20 ADD PUSH1 0x0 SWAP1 JUMPDEST DUP3 DUP3 LT ISZERO PUSH2 0x903 JUMPI DUP4 DUP3 SWAP1 PUSH1 0x0 MSTORE PUSH1 0x20 PUSH1 0x0 KECCAK256 SWAP1 PUSH1 0x6 MUL ADD PUSH1 0x40 MLOAD DUP1 PUSH1 0xC0 ADD PUSH1 0x40 MSTORE SWAP1 DUP2 PUSH1 0x0 DUP3 ADD SLOAD DUP2 MSTORE PUSH1 0x20 ADD PUSH1 0x1 DUP3 ADD SLOAD DUP2 MSTORE PUSH1 0x20 ADD PUSH1 0x2 DUP3 ADD PUSH1 0x0 SWAP1 SLOAD SWAP1 PUSH2 0x100 EXP SWAP1 DIV PUSH1 0xFF AND PUSH1 0x2 DUP2 GT ISZERO PUSH2 0x8C0 JUMPI PUSH2 0x8BF PUSH2 0x1748 JUMP JUMPDEST JUMPDEST PUSH1 0x2 DUP2 GT ISZERO PUSH2 0x8D2 JUMPI PUSH2 0x8D1 PUSH2 0x1748 JUMP JUMPDEST JUMPDEST DUP2 MSTORE PUSH1 0x20 ADD PUSH1 0x3 DUP3 ADD SLOAD DUP2 MSTORE PUSH1 0x20 ADD PUSH1 0x4 DUP3 ADD SLOAD DUP2 MSTORE PUSH1 0x20 ADD PUSH1 0x5 DUP3 ADD SLOAD DUP2 MSTORE POP POP DUP2 MSTORE PUSH1 0x20 ADD SWAP1 PUSH1 0x1 ADD SWAP1 PUSH2 0x864 JUMP JUMPDEST POP POP POP POP SWAP2 POP POP SWAP2 SWAP1 POP JUMP JUMPDEST PUSH1 0x60 DUP2 PUSH32 0x8E1604A838D0F1A9B2CDA14A099E4CEB08E966CC6E05E8296F67B02D61A79F09 PUSH1 0x0 SHL DUP2 EQ PUSH2 0x977 JUMPI PUSH1 0x40 MLOAD PUSH32 0x8C379A000000000000000000000000000000000000000000000000000000000 DUP2 MSTORE PUSH1 0x4 ADD PUSH2 0x96E SWAP1 PUSH2 0x1E9F JUMP JUMPDEST PUSH1 0x40 MLOAD DUP1 SWAP2 SUB SWAP1 REVERT JUMPDEST PUSH1 0x1 DUP1 SLOAD DUP1 PUSH1 0x20 MUL PUSH1 0x20 ADD PUSH1 0x40 MLOAD SWAP1 DUP2 ADD PUSH1 0x40 MSTORE DUP1 SWAP3 SWAP2 SWAP1 DUP2 DUP2 MSTORE PUSH1 0x20 ADD PUSH1 0x0 SWAP1 JUMPDEST DUP3 DUP3 LT ISZERO PUSH2 0xA35 JUMPI DUP4 DUP3 SWAP1 PUSH1 0x0 MSTORE PUSH1 0x20 PUSH1 0x0 KECCAK256 SWAP1 PUSH1 0x3 MUL ADD PUSH1 0x40 MLOAD DUP1 PUSH1 0x60 ADD PUSH1 0x40 MSTORE SWAP1 DUP2 PUSH1 0x0 DUP3 ADD SLOAD DUP2 MSTORE PUSH1 0x20 ADD PUSH1 0x1 DUP3 ADD PUSH1 0x0 SWAP1 SLOAD SWAP1 PUSH2 0x100 EXP SWAP1 DIV PUSH20 0xFFFFFFFFFFFFFFFFFFFFFFFFFFFFFFFFFFFFFFFF AND PUSH20 0xFFFFFFFFFFFFFFFFFFFFFFFFFFFFFFFFFFFFFFFF AND PUSH20 0xFFFFFFFFFFFFFFFFFFFFFFFFFFFFFFFFFFFFFFFF AND DUP2 MSTORE PUSH1 0x20 ADD PUSH1 0x2 DUP3 ADD SLOAD DUP2 MSTORE POP POP DUP2 MSTORE PUSH1 0x20 ADD SWAP1 PUSH1 0x1 ADD SWAP1 PUSH2 0x999 JUMP JUMPDEST POP POP POP POP SWAP2 POP POP SWAP2 SWAP1 POP JUMP JUMPDEST PUSH2 0xA49 PUSH2 0xE16 JUMP JUMPDEST ADDRESS PUSH20 0xFFFFFFFFFFFFFFFFFFFFFFFFFFFFFFFFFFFFFFFF AND SELFDESTRUCT JUMPDEST PUSH1 0x0 DUP1 PUSH1 0x0 SWAP1 SLOAD SWAP1 PUSH2 0x100 EXP SWAP1 DIV PUSH20 0xFFFFFFFFFFFFFFFFFFFFFFFFFFFFFFFFFFFFFFFF AND SWAP1 POP SWAP1 JUMP JUMPDEST PUSH1 0x0 DUP2 PUSH32 0x8E1604A838D0F1A9B2CDA14A099E4CEB08E966CC6E05E8296F67B02D61A79F09 PUSH1 0x0 SHL DUP2 EQ PUSH2 0xAF3 JUMPI PUSH1 0x40 MLOAD PUSH32 0x8C379A000000000000000000000000000000000000000000000000000000000 DUP2 MSTORE PUSH1 0x4 ADD PUSH2 0xAEA SWAP1 PUSH2 0x1E9F JUMP JUMPDEST PUSH1 0x40 MLOAD DUP1 SWAP2 SUB SWAP1 REVERT JUMPDEST PUSH1 0x2 DUP1 SLOAD SWAP1 POP DUP5 PUSH1 0x0 ADD DUP2 DUP2 MSTORE POP POP PUSH1 0x2 DUP5 SWAP1 DUP1 PUSH1 0x1 DUP2 SLOAD ADD DUP1 DUP3 SSTORE DUP1 SWAP2 POP POP PUSH1 0x1 SWAP1 SUB SWAP1 PUSH1 0x0 MSTORE PUSH1 0x20 PUSH1 0x0 KECCAK256 SWAP1 PUSH1 0x6 MUL ADD PUSH1 0x0 SWAP1 SWAP2 SWAP1 SWAP2 SWAP1 SWAP2 POP PUSH1 0x0 DUP3 ADD MLOAD DUP2 PUSH1 0x0 ADD SSTORE PUSH1 0x20 DUP3 ADD MLOAD DUP2 PUSH1 0x1 ADD SSTORE PUSH1 0x40 DUP3 ADD MLOAD DUP2 PUSH1 0x2 ADD PUSH1 0x0 PUSH2 0x100 EXP DUP2 SLOAD DUP2 PUSH1 0xFF MUL NOT AND SWAP1 DUP4 PUSH1 0x2 DUP2 GT ISZERO PUSH2 0xB6D JUMPI PUSH2 0xB6C PUSH2 0x1748 JUMP JUMPDEST JUMPDEST MUL OR SWAP1 SSTORE POP PUSH1 0x60 DUP3 ADD MLOAD DUP2 PUSH1 0x3 ADD SSTORE PUSH1 0x80 DUP3 ADD MLOAD DUP2 PUSH1 0x4 ADD SSTORE PUSH1 0xA0 DUP3 ADD MLOAD DUP2 PUSH1 0x5 ADD SSTORE POP POP PUSH1 0x1 SWAP2 POP POP SWAP3 SWAP2 POP POP JUMP JUMPDEST PUSH1 0x0 DUP2 PUSH32 0x8E1604A838D0F1A9B2CDA14A099E4CEB08E966CC6E05E8296F67B02D61A79F09 PUSH1 0x0 SHL DUP2 EQ PUSH2 0xC05 JUMPI PUSH1 0x40 MLOAD PUSH32 0x8C379A000000000000000000000000000000000000000000000000000000000 DUP2 MSTORE PUSH1 0x4 ADD PUSH2 0xBFC SWAP1 PUSH2 0x1E9F JUMP JUMPDEST PUSH1 0x40 MLOAD DUP1 SWAP2 SUB SWAP1 REVERT JUMPDEST PUSH1 0x1 DUP1 SLOAD SWAP1 POP DUP5 PUSH1 0x0 ADD DUP2 DUP2 MSTORE POP POP PUSH1 0x1 DUP5 SWAP1 DUP1 PUSH1 0x1 DUP2 SLOAD ADD DUP1 DUP3 SSTORE DUP1 SWAP2 POP POP PUSH1 0x1 SWAP1 SUB SWAP1 PUSH1 0x0 MSTORE PUSH1 0x20 PUSH1 0x0 KECCAK256 SWAP1 PUSH1 0x3 MUL ADD PUSH1 0x0 SWAP1 SWAP2 SWAP1 SWAP2 SWAP1 SWAP2 POP PUSH1 0x0 DUP3 ADD MLOAD DUP2 PUSH1 0x0 ADD SSTORE PUSH1 0x20 DUP3 ADD MLOAD DUP2 PUSH1 0x1 ADD PUSH1 0x0 PUSH2 0x100 EXP DUP2 SLOAD DUP2 PUSH20 0xFFFFFFFFFFFFFFFFFFFFFFFFFFFFFFFFFFFFFFFF MUL NOT AND SWAP1 DUP4 PUSH20 0xFFFFFFFFFFFFFFFFFFFFFFFFFFFFFFFFFFFFFFFF AND MUL OR SWAP1 SSTORE POP PUSH1 0x40 DUP3 ADD MLOAD DUP2 PUSH1 0x2 ADD SSTORE POP POP PUSH1 0x1 SWAP2 POP POP SWAP3 SWAP2 POP POP JUMP JUMPDEST PUSH1 0x0 DUP2 PUSH32 0x8E1604A838D0F1A9B2CDA14A099E4CEB08E966CC6E05E8296F67B02D61A79F09 PUSH1 0x0 SHL DUP2 EQ PUSH2 0xD10 JUMPI PUSH1 0x40 MLOAD PUSH32 0x8C379A000000000000000000000000000000000000000000000000000000000 DUP2 MSTORE PUSH1 0x4 ADD PUSH2 0xD07 SWAP1 PUSH2 0x1E9F JUMP JUMPDEST PUSH1 0x40 MLOAD DUP1 SWAP2 SUB SWAP1 REVERT JUMPDEST PUSH1 0x4 DUP1 SLOAD SWAP1 POP DUP5 PUSH1 0x0 ADD DUP2 DUP2 MSTORE POP POP PUSH1 0x4 DUP5 SWAP1 DUP1 PUSH1 0x1 DUP2 SLOAD ADD DUP1 DUP3 SSTORE DUP1 SWAP2 POP POP PUSH1 0x1 SWAP1 SUB SWAP1 PUSH1 0x0 MSTORE PUSH1 0x20 PUSH1 0x0 KECCAK256 SWAP1 PUSH1 0x4 MUL ADD PUSH1 0x0 SWAP1 SWAP2 SWAP1 SWAP2 SWAP1 SWAP2 POP PUSH1 0x0 DUP3 ADD MLOAD DUP2 PUSH1 0x0 ADD SSTORE PUSH1 0x20 DUP3 ADD MLOAD DUP2 PUSH1 0x1 ADD SSTORE PUSH1 0x40 DUP3 ADD MLOAD DUP2 PUSH1 0x2 ADD SSTORE PUSH1 0x60 DUP3 ADD MLOAD DUP2 PUSH1 0x3 ADD SWAP1 DUP1 MLOAD SWAP1 PUSH1 0x20 ADD SWAP1 PUSH2 0xD85 SWAP3 SWAP2 SWAP1 PUSH2 0xF51 JUMP JUMPDEST POP POP POP PUSH1 0x1 SWAP2 POP POP SWAP3 SWAP2 POP POP JUMP JUMPDEST PUSH2 0xD9B PUSH2 0xE16 JUMP JUMPDEST PUSH1 0x0 PUSH20 0xFFFFFFFFFFFFFFFFFFFFFFFFFFFFFFFFFFFFFFFF AND DUP2 PUSH20 0xFFFFFFFFFFFFFFFFFFFFFFFFFFFFFFFFFFFFFFFF AND SUB PUSH2 0xE0A JUMPI PUSH1 0x40 MLOAD PUSH32 0x8C379A000000000000000000000000000000000000000000000000000000000 DUP2 MSTORE PUSH1 0x4 ADD PUSH2 0xE01 SWAP1 PUSH2 0x1F31 JUMP JUMPDEST PUSH1 0x40 MLOAD DUP1 SWAP2 SUB SWAP1 REVERT JUMPDEST PUSH2 0xE13 DUP2 PUSH2 0xE8D JUMP JUMPDEST POP JUMP JUMPDEST CALLER PUSH20 0xFFFFFFFFFFFFFFFFFFFFFFFFFFFFFFFFFFFFFFFF AND PUSH2 0xE35 PUSH2 0xA62 JUMP JUMPDEST PUSH20 0xFFFFFFFFFFFFFFFFFFFFFFFFFFFFFFFFFFFFFFFF AND EQ PUSH2 0xE8B JUMPI PUSH1 0x40 MLOAD PUSH32 0x8C379A000000000000000000000000000000000000000000000000000000000 DUP2 MSTORE PUSH1 0x4 ADD PUSH2 0xE82 SWAP1 PUSH2 0x1F9D JUMP JUMPDEST PUSH1 0x40 MLOAD DUP1 SWAP2 SUB SWAP1 REVERT JUMPDEST JUMP JUMPDEST PUSH1 0x0 DUP1 PUSH1 0x0 SWAP1 SLOAD SWAP1 PUSH2 0x100 EXP SWAP1 DIV PUSH20 0xFFFFFFFFFFFFFFFFFFFFFFFFFFFFFFFFFFFFFFFF AND SWAP1 POP DUP2 PUSH1 0x0 DUP1 PUSH2 0x100 EXP DUP2 SLOAD DUP2 PUSH20 0xFFFFFFFFFFFFFFFFFFFFFFFFFFFFFFFFFFFFFFFF MUL NOT AND SWAP1 DUP4 PUSH20 0xFFFFFFFFFFFFFFFFFFFFFFFFFFFFFFFFFFFFFFFF AND MUL OR SWAP1 SSTORE POP DUP2 PUSH20 0xFFFFFFFFFFFFFFFFFFFFFFFFFFFFFFFFFFFFFFFF AND DUP2 PUSH20 0xFFFFFFFFFFFFFFFFFFFFFFFFFFFFFFFFFFFFFFFF AND PUSH32 0x8BE0079C531659141344CD1FD0A4F28419497F9722A3DAAFE3B4186F6B6457E0 PUSH1 0x40 MLOAD PUSH1 0x40 MLOAD DUP1 SWAP2 SUB SWAP1 LOG3 POP POP JUMP JUMPDEST DUP3 DUP1 SLOAD DUP3 DUP3 SSTORE SWAP1 PUSH1 0x0 MSTORE PUSH1 0x20 PUSH1 0x0 KECCAK256 SWAP1 DUP2 ADD SWAP3 DUP3 ISZERO PUSH2 0xF8D JUMPI SWAP2 PUSH1 0x20 MUL DUP3 ADD JUMPDEST DUP3 DUP2 GT ISZERO PUSH2 0xF8C JUMPI DUP3 MLOAD DUP3 SSTORE SWAP2 PUSH1 0x20 ADD SWAP2 SWAP1 PUSH1 0x1 ADD SWAP1 PUSH2 0xF71 JUMP JUMPDEST JUMPDEST POP SWAP1 POP PUSH2 0xF9A SWAP2 SWAP1 PUSH2 0xF9E JUMP JUMPDEST POP SWAP1 JUMP JUMPDEST JUMPDEST DUP1 DUP3 GT ISZERO PUSH2 0xFB7 JUMPI PUSH1 0x0 DUP2 PUSH1 0x0 SWAP1 SSTORE POP PUSH1 0x1 ADD PUSH2 0xF9F JUMP JUMPDEST POP SWAP1 JUMP JUMPDEST PUSH1 0x0 PUSH1 0x40 MLOAD SWAP1 POP SWAP1 JUMP JUMPDEST PUSH1 0x0 DUP1 REVERT JUMPDEST PUSH1 0x0 DUP1 REVERT JUMPDEST PUSH1 0x0 DUP2 SWAP1 POP SWAP2 SWAP1 POP JUMP JUMPDEST PUSH2 0xFE2 DUP2 PUSH2 0xFCF JUMP JUMPDEST DUP2 EQ PUSH2 0xFED JUMPI PUSH1 0x0 DUP1 REVERT JUMPDEST POP JUMP JUMPDEST PUSH1 0x0 DUP2 CALLDATALOAD SWAP1 POP PUSH2 0xFFF DUP2 PUSH2 0xFD9 JUMP JUMPDEST SWAP3 SWAP2 POP POP JUMP JUMPDEST PUSH1 0x0 PUSH1 0x20 DUP3 DUP5 SUB SLT ISZERO PUSH2 0x101B JUMPI PUSH2 0x101A PUSH2 0xFC5 JUMP JUMPDEST JUMPDEST PUSH1 0x0 PUSH2 0x1029 DUP5 DUP3 DUP6 ADD PUSH2 0xFF0 JUMP JUMPDEST SWAP2 POP POP SWAP3 SWAP2 POP POP JUMP JUMPDEST PUSH1 0x0 DUP2 MLOAD SWAP1 POP SWAP2 SWAP1 POP JUMP JUMPDEST PUSH1 0x0 DUP3 DUP3 MSTORE PUSH1 0x20 DUP3 ADD SWAP1 POP SWAP3 SWAP2 POP POP JUMP JUMPDEST PUSH1 0x0 DUP2 SWAP1 POP PUSH1 0x20 DUP3 ADD SWAP1 POP SWAP2 SWAP1 POP JUMP JUMPDEST PUSH1 0x0 DUP2 SWAP1 POP SWAP2 SWAP1 POP JUMP JUMPDEST PUSH2 0x1071 DUP2 PUSH2 0x105E JUMP JUMPDEST DUP3 MSTORE POP POP JUMP JUMPDEST PUSH1 0xA0 DUP3 ADD PUSH1 0x0 DUP3 ADD MLOAD PUSH2 0x108D PUSH1 0x0 DUP6 ADD DUP3 PUSH2 0x1068 JUMP JUMPDEST POP PUSH1 0x20 DUP3 ADD MLOAD PUSH2 0x10A0 PUSH1 0x20 DUP6 ADD DUP3 PUSH2 0x1068 JUMP JUMPDEST POP PUSH1 0x40 DUP3 ADD MLOAD PUSH2 0x10B3 PUSH1 0x40 DUP6 ADD DUP3 PUSH2 0x1068 JUMP JUMPDEST POP PUSH1 0x60 DUP3 ADD MLOAD PUSH2 0x10C6 PUSH1 0x60 DUP6 ADD DUP3 PUSH2 0x1068 JUMP JUMPDEST POP PUSH1 0x80 DUP3 ADD MLOAD PUSH2 0x10D9 PUSH1 0x80 DUP6 ADD DUP3 PUSH2 0x1068 JUMP JUMPDEST POP POP POP POP JUMP JUMPDEST PUSH1 0x0 PUSH2 0x10EB DUP4 DUP4 PUSH2 0x1077 JUMP JUMPDEST PUSH1 0xA0 DUP4 ADD SWAP1 POP SWAP3 SWAP2 POP POP JUMP JUMPDEST PUSH1 0x0 PUSH1 0x20 DUP3 ADD SWAP1 POP SWAP2 SWAP1 POP JUMP JUMPDEST PUSH1 0x0 PUSH2 0x110F DUP3 PUSH2 0x1032 JUMP JUMPDEST PUSH2 0x1119 DUP2 DUP6 PUSH2 0x103D JUMP JUMPDEST SWAP4 POP PUSH2 0x1124 DUP4 PUSH2 0x104E JUMP JUMPDEST DUP1 PUSH1 0x0 JUMPDEST DUP4 DUP2 LT ISZERO PUSH2 0x1155 JUMPI DUP2 MLOAD PUSH2 0x113C DUP9 DUP3 PUSH2 0x10DF JUMP JUMPDEST SWAP8 POP PUSH2 0x1147 DUP4 PUSH2 0x10F7 JUMP JUMPDEST SWAP3 POP POP PUSH1 0x1 DUP2 ADD SWAP1 POP PUSH2 0x1128 JUMP JUMPDEST POP DUP6 SWAP4 POP POP POP POP SWAP3 SWAP2 POP POP JUMP JUMPDEST PUSH1 0x0 PUSH1 0x20 DUP3 ADD SWAP1 POP DUP2 DUP2 SUB PUSH1 0x0 DUP4 ADD MSTORE PUSH2 0x117C DUP2 DUP5 PUSH2 0x1104 JUMP JUMPDEST SWAP1 POP SWAP3 SWAP2 POP POP JUMP JUMPDEST PUSH1 0x0 DUP1 REVERT JUMPDEST PUSH1 0x0 PUSH1 0x1F NOT PUSH1 0x1F DUP4 ADD AND SWAP1 POP SWAP2 SWAP1 POP JUMP JUMPDEST PUSH32 0x4E487B7100000000000000000000000000000000000000000000000000000000 PUSH1 0x0 MSTORE PUSH1 0x41 PUSH1 0x4 MSTORE PUSH1 0x24 PUSH1 0x0 REVERT JUMPDEST PUSH2 0x11D2 DUP3 PUSH2 0x1189 JUMP JUMPDEST DUP2 ADD DUP2 DUP2 LT PUSH8 0xFFFFFFFFFFFFFFFF DUP3 GT OR ISZERO PUSH2 0x11F1 JUMPI PUSH2 0x11F0 PUSH2 0x119A JUMP JUMPDEST JUMPDEST DUP1 PUSH1 0x40 MSTORE POP POP POP JUMP JUMPDEST PUSH1 0x0 PUSH2 0x1204 PUSH2 0xFBB JUMP JUMPDEST SWAP1 POP PUSH2 0x1210 DUP3 DUP3 PUSH2 0x11C9 JUMP JUMPDEST SWAP2 SWAP1 POP JUMP JUMPDEST PUSH1 0x0 DUP1 REVERT JUMPDEST PUSH2 0x1223 DUP2 PUSH2 0x105E JUMP JUMPDEST DUP2 EQ PUSH2 0x122E JUMPI PUSH1 0x0 DUP1 REVERT JUMPDEST POP JUMP JUMPDEST PUSH1 0x0 DUP2 CALLDATALOAD SWAP1 POP PUSH2 0x1240 DUP2 PUSH2 0x121A JUMP JUMPDEST SWAP3 SWAP2 POP POP JUMP JUMPDEST PUSH1 0x0 PUSH1 0x80 DUP3 DUP5 SUB SLT ISZERO PUSH2 0x125C JUMPI PUSH2 0x125B PUSH2 0x1184 JUMP JUMPDEST JUMPDEST PUSH2 0x1266 PUSH1 0x80 PUSH2 0x11FA JUMP JUMPDEST SWAP1 POP PUSH1 0x0 PUSH2 0x1276 DUP5 DUP3 DUP6 ADD PUSH2 0x1231 JUMP JUMPDEST PUSH1 0x0 DUP4 ADD MSTORE POP PUSH1 0x20 PUSH2 0x128A DUP5 DUP3 DUP6 ADD PUSH2 0x1231 JUMP JUMPDEST PUSH1 0x20 DUP4 ADD MSTORE POP PUSH1 0x40 PUSH2 0x129E DUP5 DUP3 DUP6 ADD PUSH2 0x1231 JUMP JUMPDEST PUSH1 0x40 DUP4 ADD MSTORE POP PUSH1 0x60 PUSH2 0x12B2 DUP5 DUP3 DUP6 ADD PUSH2 0x1231 JUMP JUMPDEST PUSH1 0x60 DUP4 ADD MSTORE POP SWAP3 SWAP2 POP POP JUMP JUMPDEST PUSH1 0x0 DUP1 PUSH1 0xA0 DUP4 DUP6 SUB SLT ISZERO PUSH2 0x12D5 JUMPI PUSH2 0x12D4 PUSH2 0xFC5 JUMP JUMPDEST JUMPDEST PUSH1 0x0 PUSH2 0x12E3 DUP6 DUP3 DUP7 ADD PUSH2 0x1246 JUMP JUMPDEST SWAP3 POP POP PUSH1 0x80 PUSH2 0x12F4 DUP6 DUP3 DUP7 ADD PUSH2 0xFF0 JUMP JUMPDEST SWAP2 POP POP SWAP3 POP SWAP3 SWAP1 POP JUMP JUMPDEST PUSH1 0x0 DUP2 ISZERO ISZERO SWAP1 POP SWAP2 SWAP1 POP JUMP JUMPDEST PUSH2 0x1313 DUP2 PUSH2 0x12FE JUMP JUMPDEST DUP3 MSTORE POP POP JUMP JUMPDEST PUSH1 0x0 PUSH1 0x20 DUP3 ADD SWAP1 POP PUSH2 0x132E PUSH1 0x0 DUP4 ADD DUP5 PUSH2 0x130A JUMP JUMPDEST SWAP3 SWAP2 POP POP JUMP JUMPDEST PUSH1 0x0 DUP2 MLOAD SWAP1 POP SWAP2 SWAP1 POP JUMP JUMPDEST PUSH1 0x0 DUP3 DUP3 MSTORE PUSH1 0x20 DUP3 ADD SWAP1 POP SWAP3 SWAP2 POP POP JUMP JUMPDEST PUSH1 0x0 DUP2 SWAP1 POP PUSH1 0x20 DUP3 ADD SWAP1 POP SWAP2 SWAP1 POP JUMP JUMPDEST PUSH1 0x80 DUP3 ADD PUSH1 0x0 DUP3 ADD MLOAD PUSH2 0x1376 PUSH1 0x0 DUP6 ADD DUP3 PUSH2 0x1068 JUMP JUMPDEST POP PUSH1 0x20 DUP3 ADD MLOAD PUSH2 0x1389 PUSH1 0x20 DUP6 ADD DUP3 PUSH2 0x1068 JUMP JUMPDEST POP PUSH1 0x40 DUP3 ADD MLOAD PUSH2 0x139C PUSH1 0x40 DUP6 ADD DUP3 PUSH2 0x1068 JUMP JUMPDEST POP PUSH1 0x60 DUP3 ADD MLOAD PUSH2 0x13AF PUSH1 0x60 DUP6 ADD DUP3 PUSH2 0x1068 JUMP JUMPDEST POP POP POP POP JUMP JUMPDEST PUSH1 0x0 PUSH2 0x13C1 DUP4 DUP4 PUSH2 0x1360 JUMP JUMPDEST PUSH1 0x80 DUP4 ADD SWAP1 POP SWAP3 SWAP2 POP POP JUMP JUMPDEST PUSH1 0x0 PUSH1 0x20 DUP3 ADD SWAP1 POP SWAP2 SWAP1 POP JUMP JUMPDEST PUSH1 0x0 PUSH2 0x13E5 DUP3 PUSH2 0x1334 JUMP JUMPDEST PUSH2 0x13EF DUP2 DUP6 PUSH2 0x133F JUMP JUMPDEST SWAP4 POP PUSH2 0x13FA DUP4 PUSH2 0x1350 JUMP JUMPDEST DUP1 PUSH1 0x0 JUMPDEST DUP4 DUP2 LT ISZERO PUSH2 0x142B JUMPI DUP2 MLOAD PUSH2 0x1412 DUP9 DUP3 PUSH2 0x13B5 JUMP JUMPDEST SWAP8 POP PUSH2 0x141D DUP4 PUSH2 0x13CD JUMP JUMPDEST SWAP3 POP POP PUSH1 0x1 DUP2 ADD SWAP1 POP PUSH2 0x13FE JUMP JUMPDEST POP DUP6 SWAP4 POP POP POP POP SWAP3 SWAP2 POP POP JUMP JUMPDEST PUSH1 0x0 PUSH1 0x20 DUP3 ADD SWAP1 POP DUP2 DUP2 SUB PUSH1 0x0 DUP4 ADD MSTORE PUSH2 0x1452 DUP2 DUP5 PUSH2 0x13DA JUMP JUMPDEST SWAP1 POP SWAP3 SWAP2 POP POP JUMP JUMPDEST PUSH1 0x0 PUSH1 0xA0 DUP3 DUP5 SUB SLT ISZERO PUSH2 0x1470 JUMPI PUSH2 0x146F PUSH2 0x1184 JUMP JUMPDEST JUMPDEST PUSH2 0x147A PUSH1 0xA0 PUSH2 0x11FA JUMP JUMPDEST SWAP1 POP PUSH1 0x0 PUSH2 0x148A DUP5 DUP3 DUP6 ADD PUSH2 0x1231 JUMP JUMPDEST PUSH1 0x0 DUP4 ADD MSTORE POP PUSH1 0x20 PUSH2 0x149E DUP5 DUP3 DUP6 ADD PUSH2 0x1231 JUMP JUMPDEST PUSH1 0x20 DUP4 ADD MSTORE POP PUSH1 0x40 PUSH2 0x14B2 DUP5 DUP3 DUP6 ADD PUSH2 0x1231 JUMP JUMPDEST PUSH1 0x40 DUP4 ADD MSTORE POP PUSH1 0x60 PUSH2 0x14C6 DUP5 DUP3 DUP6 ADD PUSH2 0x1231 JUMP JUMPDEST PUSH1 0x60 DUP4 ADD MSTORE POP PUSH1 0x80 PUSH2 0x14DA DUP5 DUP3 DUP6 ADD PUSH2 0x1231 JUMP JUMPDEST PUSH1 0x80 DUP4 ADD MSTORE POP SWAP3 SWAP2 POP POP JUMP JUMPDEST PUSH1 0x0 DUP1 PUSH1 0xC0 DUP4 DUP6 SUB SLT ISZERO PUSH2 0x14FD JUMPI PUSH2 0x14FC PUSH2 0xFC5 JUMP JUMPDEST JUMPDEST PUSH1 0x0 PUSH2 0x150B DUP6 DUP3 DUP7 ADD PUSH2 0x145A JUMP JUMPDEST SWAP3 POP POP PUSH1 0xA0 PUSH2 0x151C DUP6 DUP3 DUP7 ADD PUSH2 0xFF0 JUMP JUMPDEST SWAP2 POP POP SWAP3 POP SWAP3 SWAP1 POP JUMP JUMPDEST PUSH1 0x0 DUP2 MLOAD SWAP1 POP SWAP2 SWAP1 POP JUMP JUMPDEST PUSH1 0x0 DUP3 DUP3 MSTORE PUSH1 0x20 DUP3 ADD SWAP1 POP SWAP3 SWAP2 POP POP JUMP JUMPDEST PUSH1 0x0 DUP2 SWAP1 POP PUSH1 0x20 DUP3 ADD SWAP1 POP SWAP2 SWAP1 POP JUMP JUMPDEST PUSH1 0x0 DUP2 MLOAD SWAP1 POP SWAP2 SWAP1 POP JUMP JUMPDEST PUSH1 0x0 DUP3 DUP3 MSTORE PUSH1 0x20 DUP3 ADD SWAP1 POP SWAP3 SWAP2 POP POP JUMP JUMPDEST PUSH1 0x0 DUP2 SWAP1 POP PUSH1 0x20 DUP3 ADD SWAP1 POP SWAP2 SWAP1 POP JUMP JUMPDEST PUSH1 0x0 PUSH2 0x158A DUP4 DUP4 PUSH2 0x1068 JUMP JUMPDEST PUSH1 0x20 DUP4 ADD SWAP1 POP SWAP3 SWAP2 POP POP JUMP JUMPDEST PUSH1 0x0 PUSH1 0x20 DUP3 ADD SWAP1 POP SWAP2 SWAP1 POP JUMP JUMPDEST PUSH1 0x0 PUSH2 0x15AE DUP3 PUSH2 0x1552 JUMP JUMPDEST PUSH2 0x15B8 DUP2 DUP6 PUSH2 0x155D JUMP JUMPDEST SWAP4 POP PUSH2 0x15C3 DUP4 PUSH2 0x156E JUMP JUMPDEST DUP1 PUSH1 0x0 JUMPDEST DUP4 DUP2 LT ISZERO PUSH2 0x15F4 JUMPI DUP2 MLOAD PUSH2 0x15DB DUP9 DUP3 PUSH2 0x157E JUMP JUMPDEST SWAP8 POP PUSH2 0x15E6 DUP4 PUSH2 0x1596 JUMP JUMPDEST SWAP3 POP POP PUSH1 0x1 DUP2 ADD SWAP1 POP PUSH2 0x15C7 JUMP JUMPDEST POP DUP6 SWAP4 POP POP POP POP SWAP3 SWAP2 POP POP JUMP JUMPDEST PUSH1 0x0 PUSH1 0x80 DUP4 ADD PUSH1 0x0 DUP4 ADD MLOAD PUSH2 0x1619 PUSH1 0x0 DUP7 ADD DUP3 PUSH2 0x1068 JUMP JUMPDEST POP PUSH1 0x20 DUP4 ADD MLOAD PUSH2 0x162C PUSH1 0x20 DUP7 ADD DUP3 PUSH2 0x1068 JUMP JUMPDEST POP PUSH1 0x40 DUP4 ADD MLOAD PUSH2 0x163F PUSH1 0x40 DUP7 ADD DUP3 PUSH2 0x1068 JUMP JUMPDEST POP PUSH1 0x60 DUP4 ADD MLOAD DUP5 DUP3 SUB PUSH1 0x60 DUP7 ADD MSTORE PUSH2 0x1657 DUP3 DUP3 PUSH2 0x15A3 JUMP JUMPDEST SWAP2 POP POP DUP1 SWAP2 POP POP SWAP3 SWAP2 POP POP JUMP JUMPDEST PUSH1 0x0 PUSH2 0x1670 DUP4 DUP4 PUSH2 0x1601 JUMP JUMPDEST SWAP1 POP SWAP3 SWAP2 POP POP JUMP JUMPDEST PUSH1 0x0 PUSH1 0x20 DUP3 ADD SWAP1 POP SWAP2 SWAP1 POP JUMP JUMPDEST PUSH1 0x0 PUSH2 0x1690 DUP3 PUSH2 0x1526 JUMP JUMPDEST PUSH2 0x169A DUP2 DUP6 PUSH2 0x1531 JUMP JUMPDEST SWAP4 POP DUP4 PUSH1 0x20 DUP3 MUL DUP6 ADD PUSH2 0x16AC DUP6 PUSH2 0x1542 JUMP JUMPDEST DUP1 PUSH1 0x0 JUMPDEST DUP6 DUP2 LT ISZERO PUSH2 0x16E8 JUMPI DUP5 DUP5 SUB DUP10 MSTORE DUP2 MLOAD PUSH2 0x16C9 DUP6 DUP3 PUSH2 0x1664 JUMP JUMPDEST SWAP5 POP PUSH2 0x16D4 DUP4 PUSH2 0x1678 JUMP JUMPDEST SWAP3 POP PUSH1 0x20 DUP11 ADD SWAP10 POP POP PUSH1 0x1 DUP2 ADD SWAP1 POP PUSH2 0x16B0 JUMP JUMPDEST POP DUP3 SWAP8 POP DUP8 SWAP6 POP POP POP POP POP POP SWAP3 SWAP2 POP POP JUMP JUMPDEST PUSH1 0x0 PUSH1 0x20 DUP3 ADD SWAP1 POP DUP2 DUP2 SUB PUSH1 0x0 DUP4 ADD MSTORE PUSH2 0x1714 DUP2 DUP5 PUSH2 0x1685 JUMP JUMPDEST SWAP1 POP SWAP3 SWAP2 POP POP JUMP JUMPDEST PUSH1 0x0 DUP2 MLOAD SWAP1 POP SWAP2 SWAP1 POP JUMP JUMPDEST PUSH1 0x0 DUP3 DUP3 MSTORE PUSH1 0x20 DUP3 ADD SWAP1 POP SWAP3 SWAP2 POP POP JUMP JUMPDEST PUSH1 0x0 DUP2 SWAP1 POP PUSH1 0x20 DUP3 ADD SWAP1 POP SWAP2 SWAP1 POP JUMP JUMPDEST PUSH32 0x4E487B7100000000000000000000000000000000000000000000000000000000 PUSH1 0x0 MSTORE PUSH1 0x21 PUSH1 0x4 MSTORE PUSH1 0x24 PUSH1 0x0 REVERT JUMPDEST PUSH1 0x3 DUP2 LT PUSH2 0x1788 JUMPI PUSH2 0x1787 PUSH2 0x1748 JUMP JUMPDEST JUMPDEST POP JUMP JUMPDEST PUSH1 0x0 DUP2 SWAP1 POP PUSH2 0x1799 DUP3 PUSH2 0x1777 JUMP JUMPDEST SWAP2 SWAP1 POP JUMP JUMPDEST PUSH1 0x0 PUSH2 0x17A9 DUP3 PUSH2 0x178B JUMP JUMPDEST SWAP1 POP SWAP2 SWAP1 POP JUMP JUMPDEST PUSH2 0x17B9 DUP2 PUSH2 0x179E JUMP JUMPDEST DUP3 MSTORE POP POP JUMP JUMPDEST PUSH1 0xC0 DUP3 ADD PUSH1 0x0 DUP3 ADD MLOAD PUSH2 0x17D5 PUSH1 0x0 DUP6 ADD DUP3 PUSH2 0x1068 JUMP JUMPDEST POP PUSH1 0x20 DUP3 ADD MLOAD PUSH2 0x17E8 PUSH1 0x20 DUP6 ADD DUP3 PUSH2 0x1068 JUMP JUMPDEST POP PUSH1 0x40 DUP3 ADD MLOAD PUSH2 0x17FB PUSH1 0x40 DUP6 ADD DUP3 PUSH2 0x17B0 JUMP JUMPDEST POP PUSH1 0x60 DUP3 ADD MLOAD PUSH2 0x180E PUSH1 0x60 DUP6 ADD DUP3 PUSH2 0x1068 JUMP JUMPDEST POP PUSH1 0x80 DUP3 ADD MLOAD PUSH2 0x1821 PUSH1 0x80 DUP6 ADD DUP3 PUSH2 0x1068 JUMP JUMPDEST POP PUSH1 0xA0 DUP3 ADD MLOAD PUSH2 0x1834 PUSH1 0xA0 DUP6 ADD DUP3 PUSH2 0x1068 JUMP JUMPDEST POP POP POP POP JUMP JUMPDEST PUSH1 0x0 PUSH2 0x1846 DUP4 DUP4 PUSH2 0x17BF JUMP JUMPDEST PUSH1 0xC0 DUP4 ADD SWAP1 POP SWAP3 SWAP2 POP POP JUMP JUMPDEST PUSH1 0x0 PUSH1 0x20 DUP3 ADD SWAP1 POP SWAP2 SWAP1 POP JUMP JUMPDEST PUSH1 0x0 PUSH2 0x186A DUP3 PUSH2 0x171C JUMP JUMPDEST PUSH2 0x1874 DUP2 DUP6 PUSH2 0x1727 JUMP JUMPDEST SWAP4 POP PUSH2 0x187F DUP4 PUSH2 0x1738 JUMP JUMPDEST DUP1 PUSH1 0x0 JUMPDEST DUP4 DUP2 LT ISZERO PUSH2 0x18B0 JUMPI DUP2 MLOAD PUSH2 0x1897 DUP9 DUP3 PUSH2 0x183A JUMP JUMPDEST SWAP8 POP PUSH2 0x18A2 DUP4 PUSH2 0x1852 JUMP JUMPDEST SWAP3 POP POP PUSH1 0x1 DUP2 ADD SWAP1 POP PUSH2 0x1883 JUMP JUMPDEST POP DUP6 SWAP4 POP POP POP POP SWAP3 SWAP2 POP POP JUMP JUMPDEST PUSH1 0x0 PUSH1 0x20 DUP3 ADD SWAP1 POP DUP2 DUP2 SUB PUSH1 0x0 DUP4 ADD MSTORE PUSH2 0x18D7 DUP2 DUP5 PUSH2 0x185F JUMP JUMPDEST SWAP1 POP SWAP3 SWAP2 POP POP JUMP JUMPDEST PUSH1 0x0 DUP2 MLOAD SWAP1 POP SWAP2 SWAP1 POP JUMP JUMPDEST PUSH1 0x0 DUP3 DUP3 MSTORE PUSH1 0x20 DUP3 ADD SWAP1 POP SWAP3 SWAP2 POP POP JUMP JUMPDEST PUSH1 0x0 DUP2 SWAP1 POP PUSH1 0x20 DUP3 ADD SWAP1 POP SWAP2 SWAP1 POP JUMP JUMPDEST PUSH1 0x0 PUSH20 0xFFFFFFFFFFFFFFFFFFFFFFFFFFFFFFFFFFFFFFFF DUP3 AND SWAP1 POP SWAP2 SWAP1 POP JUMP JUMPDEST PUSH1 0x0 PUSH2 0x1936 DUP3 PUSH2 0x190B JUMP JUMPDEST SWAP1 POP SWAP2 SWAP1 POP JUMP JUMPDEST PUSH2 0x1946 DUP2 PUSH2 0x192B JUMP JUMPDEST DUP3 MSTORE POP POP JUMP JUMPDEST PUSH1 0x60 DUP3 ADD PUSH1 0x0 DUP3 ADD MLOAD PUSH2 0x1962 PUSH1 0x0 DUP6 ADD DUP3 PUSH2 0x1068 JUMP JUMPDEST POP PUSH1 0x20 DUP3 ADD MLOAD PUSH2 0x1975 PUSH1 0x20 DUP6 ADD DUP3 PUSH2 0x193D JUMP JUMPDEST POP PUSH1 0x40 DUP3 ADD MLOAD PUSH2 0x1988 PUSH1 0x40 DUP6 ADD DUP3 PUSH2 0x1068 JUMP JUMPDEST POP POP POP POP JUMP JUMPDEST PUSH1 0x0 PUSH2 0x199A DUP4 DUP4 PUSH2 0x194C JUMP JUMPDEST PUSH1 0x60 DUP4 ADD SWAP1 POP SWAP3 SWAP2 POP POP JUMP JUMPDEST PUSH1 0x0 PUSH1 0x20 DUP3 ADD SWAP1 POP SWAP2 SWAP1 POP JUMP JUMPDEST PUSH1 0x0 PUSH2 0x19BE DUP3 PUSH2 0x18DF JUMP JUMPDEST PUSH2 0x19C8 DUP2 DUP6 PUSH2 0x18EA JUMP JUMPDEST SWAP4 POP PUSH2 0x19D3 DUP4 PUSH2 0x18FB JUMP JUMPDEST DUP1 PUSH1 0x0 JUMPDEST DUP4 DUP2 LT ISZERO PUSH2 0x1A04 JUMPI DUP2 MLOAD PUSH2 0x19EB DUP9 DUP3 PUSH2 0x198E JUMP JUMPDEST SWAP8 POP PUSH2 0x19F6 DUP4 PUSH2 0x19A6 JUMP JUMPDEST SWAP3 POP POP PUSH1 0x1 DUP2 ADD SWAP1 POP PUSH2 0x19D7 JUMP JUMPDEST POP DUP6 SWAP4 POP POP POP POP SWAP3 SWAP2 POP POP JUMP JUMPDEST PUSH1 0x0 PUSH1 0x20 DUP3 ADD SWAP1 POP DUP2 DUP2 SUB PUSH1 0x0 DUP4 ADD MSTORE PUSH2 0x1A2B DUP2 DUP5 PUSH2 0x19B3 JUMP JUMPDEST SWAP1 POP SWAP3 SWAP2 POP POP JUMP JUMPDEST PUSH2 0x1A3C DUP2 PUSH2 0x192B JUMP JUMPDEST DUP3 MSTORE POP POP JUMP JUMPDEST PUSH1 0x0 PUSH1 0x20 DUP3 ADD SWAP1 POP PUSH2 0x1A57 PUSH1 0x0 DUP4 ADD DUP5 PUSH2 0x1A33 JUMP JUMPDEST SWAP3 SWAP2 POP POP JUMP JUMPDEST PUSH1 0x3 DUP2 LT PUSH2 0x1A6A JUMPI PUSH1 0x0 DUP1 REVERT JUMPDEST POP JUMP JUMPDEST PUSH1 0x0 DUP2 CALLDATALOAD SWAP1 POP PUSH2 0x1A7C DUP2 PUSH2 0x1A5D JUMP JUMPDEST SWAP3 SWAP2 POP POP JUMP JUMPDEST PUSH1 0x0 PUSH1 0xC0 DUP3 DUP5 SUB SLT ISZERO PUSH2 0x1A98 JUMPI PUSH2 0x1A97 PUSH2 0x1184 JUMP JUMPDEST JUMPDEST PUSH2 0x1AA2 PUSH1 0xC0 PUSH2 0x11FA JUMP JUMPDEST SWAP1 POP PUSH1 0x0 PUSH2 0x1AB2 DUP5 DUP3 DUP6 ADD PUSH2 0x1231 JUMP JUMPDEST PUSH1 0x0 DUP4 ADD MSTORE POP PUSH1 0x20 PUSH2 0x1AC6 DUP5 DUP3 DUP6 ADD PUSH2 0x1231 JUMP JUMPDEST PUSH1 0x20 DUP4 ADD MSTORE POP PUSH1 0x40 PUSH2 0x1ADA DUP5 DUP3 DUP6 ADD PUSH2 0x1A6D JUMP JUMPDEST PUSH1 0x40 DUP4 ADD MSTORE POP PUSH1 0x60 PUSH2 0x1AEE DUP5 DUP3 DUP6 ADD PUSH2 0x1231 JUMP JUMPDEST PUSH1 0x60 DUP4 ADD MSTORE POP PUSH1 0x80 PUSH2 0x1B02 DUP5 DUP3 DUP6 ADD PUSH2 0x1231 JUMP JUMPDEST PUSH1 0x80 DUP4 ADD MSTORE POP PUSH1 0xA0 PUSH2 0x1B16 DUP5 DUP3 DUP6 ADD PUSH2 0x1231 JUMP JUMPDEST PUSH1 0xA0 DUP4 ADD MSTORE POP SWAP3 SWAP2 POP POP JUMP JUMPDEST PUSH1 0x0 DUP1 PUSH1 0xE0 DUP4 DUP6 SUB SLT ISZERO PUSH2 0x1B39 JUMPI PUSH2 0x1B38 PUSH2 0xFC5 JUMP JUMPDEST JUMPDEST PUSH1 0x0 PUSH2 0x1B47 DUP6 DUP3 DUP7 ADD PUSH2 0x1A82 JUMP JUMPDEST SWAP3 POP POP PUSH1 0xC0 PUSH2 0x1B58 DUP6 DUP3 DUP7 ADD PUSH2 0xFF0 JUMP JUMPDEST SWAP2 POP POP SWAP3 POP SWAP3 SWAP1 POP JUMP JUMPDEST PUSH2 0x1B6B DUP2 PUSH2 0x192B JUMP JUMPDEST DUP2 EQ PUSH2 0x1B76 JUMPI PUSH1 0x0 DUP1 REVERT JUMPDEST POP JUMP JUMPDEST PUSH1 0x0 DUP2 CALLDATALOAD SWAP1 POP PUSH2 0x1B88 DUP2 PUSH2 0x1B62 JUMP JUMPDEST SWAP3 SWAP2 POP POP JUMP JUMPDEST PUSH1 0x0 PUSH1 0x60 DUP3 DUP5 SUB SLT ISZERO PUSH2 0x1BA4 JUMPI PUSH2 0x1BA3 PUSH2 0x1184 JUMP JUMPDEST JUMPDEST PUSH2 0x1BAE PUSH1 0x60 PUSH2 0x11FA JUMP JUMPDEST SWAP1 POP PUSH1 0x0 PUSH2 0x1BBE DUP5 DUP3 DUP6 ADD PUSH2 0x1231 JUMP JUMPDEST PUSH1 0x0 DUP4 ADD MSTORE POP PUSH1 0x20 PUSH2 0x1BD2 DUP5 DUP3 DUP6 ADD PUSH2 0x1B79 JUMP JUMPDEST PUSH1 0x20 DUP4 ADD MSTORE POP PUSH1 0x40 PUSH2 0x1BE6 DUP5 DUP3 DUP6 ADD PUSH2 0x1231 JUMP JUMPDEST PUSH1 0x40 DUP4 ADD MSTORE POP SWAP3 SWAP2 POP POP JUMP JUMPDEST PUSH1 0x0 DUP1 PUSH1 0x80 DUP4 DUP6 SUB SLT ISZERO PUSH2 0x1C09 JUMPI PUSH2 0x1C08 PUSH2 0xFC5 JUMP JUMPDEST JUMPDEST PUSH1 0x0 PUSH2 0x1C17 DUP6 DUP3 DUP7 ADD PUSH2 0x1B8E JUMP JUMPDEST SWAP3 POP POP PUSH1 0x60 PUSH2 0x1C28 DUP6 DUP3 DUP7 ADD PUSH2 0xFF0 JUMP JUMPDEST SWAP2 POP POP SWAP3 POP SWAP3 SWAP1 POP JUMP JUMPDEST PUSH1 0x0 DUP1 REVERT JUMPDEST PUSH1 0x0 PUSH8 0xFFFFFFFFFFFFFFFF DUP3 GT ISZERO PUSH2 0x1C52 JUMPI PUSH2 0x1C51 PUSH2 0x119A JUMP JUMPDEST JUMPDEST PUSH1 0x20 DUP3 MUL SWAP1 POP PUSH1 0x20 DUP2 ADD SWAP1 POP SWAP2 SWAP1 POP JUMP JUMPDEST PUSH1 0x0 DUP1 REVERT JUMPDEST PUSH1 0x0 PUSH2 0x1C7B PUSH2 0x1C76 DUP5 PUSH2 0x1C37 JUMP JUMPDEST PUSH2 0x11FA JUMP JUMPDEST SWAP1 POP DUP1 DUP4 DUP3 MSTORE PUSH1 0x20 DUP3 ADD SWAP1 POP PUSH1 0x20 DUP5 MUL DUP4 ADD DUP6 DUP2 GT ISZERO PUSH2 0x1C9E JUMPI PUSH2 0x1C9D PUSH2 0x1C63 JUMP JUMPDEST JUMPDEST DUP4 JUMPDEST DUP2 DUP2 LT ISZERO PUSH2 0x1CC7 JUMPI DUP1 PUSH2 0x1CB3 DUP9 DUP3 PUSH2 0x1231 JUMP JUMPDEST DUP5 MSTORE PUSH1 0x20 DUP5 ADD SWAP4 POP POP PUSH1 0x20 DUP2 ADD SWAP1 POP PUSH2 0x1CA0 JUMP JUMPDEST POP POP POP SWAP4 SWAP3 POP POP POP JUMP JUMPDEST PUSH1 0x0 DUP3 PUSH1 0x1F DUP4 ADD SLT PUSH2 0x1CE6 JUMPI PUSH2 0x1CE5 PUSH2 0x1C32 JUMP JUMPDEST JUMPDEST DUP2 CALLDATALOAD PUSH2 0x1CF6 DUP5 DUP3 PUSH1 0x20 DUP7 ADD PUSH2 0x1C68 JUMP JUMPDEST SWAP2 POP POP SWAP3 SWAP2 POP POP JUMP JUMPDEST PUSH1 0x0 PUSH1 0x80 DUP3 DUP5 SUB SLT ISZERO PUSH2 0x1D15 JUMPI PUSH2 0x1D14 PUSH2 0x1184 JUMP JUMPDEST JUMPDEST PUSH2 0x1D1F PUSH1 0x80 PUSH2 0x11FA JUMP JUMPDEST SWAP1 POP PUSH1 0x0 PUSH2 0x1D2F DUP5 DUP3 DUP6 ADD PUSH2 0x1231 JUMP JUMPDEST PUSH1 0x0 DUP4 ADD MSTORE POP PUSH1 0x20 PUSH2 0x1D43 DUP5 DUP3 DUP6 ADD PUSH2 0x1231 JUMP JUMPDEST PUSH1 0x20 DUP4 ADD MSTORE POP PUSH1 0x40 PUSH2 0x1D57 DUP5 DUP3 DUP6 ADD PUSH2 0x1231 JUMP JUMPDEST PUSH1 0x40 DUP4 ADD MSTORE POP PUSH1 0x60 DUP3 ADD CALLDATALOAD PUSH8 0xFFFFFFFFFFFFFFFF DUP2 GT ISZERO PUSH2 0x1D7B JUMPI PUSH2 0x1D7A PUSH2 0x1215 JUMP JUMPDEST JUMPDEST PUSH2 0x1D87 DUP5 DUP3 DUP6 ADD PUSH2 0x1CD1 JUMP JUMPDEST PUSH1 0x60 DUP4 ADD MSTORE POP SWAP3 SWAP2 POP POP JUMP JUMPDEST PUSH1 0x0 DUP1 PUSH1 0x40 DUP4 DUP6 SUB SLT ISZERO PUSH2 0x1DAA JUMPI PUSH2 0x1DA9 PUSH2 0xFC5 JUMP JUMPDEST JUMPDEST PUSH1 0x0 DUP4 ADD CALLDATALOAD PUSH8 0xFFFFFFFFFFFFFFFF DUP2 GT ISZERO PUSH2 0x1DC8 JUMPI PUSH2 0x1DC7 PUSH2 0xFCA JUMP JUMPDEST JUMPDEST PUSH2 0x1DD4 DUP6 DUP3 DUP7 ADD PUSH2 0x1CFF JUMP JUMPDEST SWAP3 POP POP PUSH1 0x20 PUSH2 0x1DE5 DUP6 DUP3 DUP7 ADD PUSH2 0xFF0 JUMP JUMPDEST SWAP2 POP POP SWAP3 POP SWAP3 SWAP1 POP JUMP JUMPDEST PUSH1 0x0 PUSH1 0x20 DUP3 DUP5 SUB SLT ISZERO PUSH2 0x1E05 JUMPI PUSH2 0x1E04 PUSH2 0xFC5 JUMP JUMPDEST JUMPDEST PUSH1 0x0 PUSH2 0x1E13 DUP5 DUP3 DUP6 ADD PUSH2 0x1B79 JUMP JUMPDEST SWAP2 POP POP SWAP3 SWAP2 POP POP JUMP JUMPDEST PUSH1 0x0 DUP3 DUP3 MSTORE PUSH1 0x20 DUP3 ADD SWAP1 POP SWAP3 SWAP2 POP POP JUMP JUMPDEST PUSH32 0x4461746162617365204661726D657244617461626173653A2053656372657420 PUSH1 0x0 DUP3 ADD MSTORE PUSH32 0x6B6579206572726F720000000000000000000000000000000000000000000000 PUSH1 0x20 DUP3 ADD MSTORE POP JUMP JUMPDEST PUSH1 0x0 PUSH2 0x1E89 PUSH1 0x29 DUP4 PUSH2 0x1E1C JUMP JUMPDEST SWAP2 POP PUSH2 0x1E94 DUP3 PUSH2 0x1E2D JUMP JUMPDEST PUSH1 0x40 DUP3 ADD SWAP1 POP SWAP2 SWAP1 POP JUMP JUMPDEST PUSH1 0x0 PUSH1 0x20 DUP3 ADD SWAP1 POP DUP2 DUP2 SUB PUSH1 0x0 DUP4 ADD MSTORE PUSH2 0x1EB8 DUP2 PUSH2 0x1E7C JUMP JUMPDEST SWAP1 POP SWAP2 SWAP1 POP JUMP JUMPDEST PUSH32 0x4F776E61626C653A206E6577206F776E657220697320746865207A65726F2061 PUSH1 0x0 DUP3 ADD MSTORE PUSH32 0x6464726573730000000000000000000000000000000000000000000000000000 PUSH1 0x20 DUP3 ADD MSTORE POP JUMP JUMPDEST PUSH1 0x0 PUSH2 0x1F1B PUSH1 0x26 DUP4 PUSH2 0x1E1C JUMP JUMPDEST SWAP2 POP PUSH2 0x1F26 DUP3 PUSH2 0x1EBF JUMP JUMPDEST PUSH1 0x40 DUP3 ADD SWAP1 POP SWAP2 SWAP1 POP JUMP JUMPDEST PUSH1 0x0 PUSH1 0x20 DUP3 ADD SWAP1 POP DUP2 DUP2 SUB PUSH1 0x0 DUP4 ADD MSTORE PUSH2 0x1F4A DUP2 PUSH2 0x1F0E JUMP JUMPDEST SWAP1 POP SWAP2 SWAP1 POP JUMP JUMPDEST PUSH32 0x4F776E61626C653A2063616C6C6572206973206E6F7420746865206F776E6572 PUSH1 0x0 DUP3 ADD MSTORE POP JUMP JUMPDEST PUSH1 0x0 PUSH2 0x1F87 PUSH1 0x20 DUP4 PUSH2 0x1E1C JUMP JUMPDEST SWAP2 POP PUSH2 0x1F92 DUP3 PUSH2 0x1F51 JUMP JUMPDEST PUSH1 0x20 DUP3 ADD SWAP1 POP SWAP2 SWAP1 POP JUMP JUMPDEST PUSH1 0x0 PUSH1 0x20 DUP3 ADD SWAP1 POP DUP2 DUP2 SUB PUSH1 0x0 DUP4 ADD MSTORE PUSH2 0x1FB6 DUP2 PUSH2 0x1F7A JUMP JUMPDEST SWAP1 POP SWAP2 SWAP1 POP JUMP INVALID LOG2 PUSH5 0x6970667358 0x22 SLT KECCAK256 GASLIMIT 0xD8 CODECOPY 0xC7 0xC7 DUP3 AND 0xE8 0xF8 LOG4 0x2E 0xA7 DUP9 DUP14 0xE0 PUSH19 0x3220D8DBD400BC1E0ED87A078BF84D564736F PUSH13 0x63430008110033000000000000 "
		},
		"gasEstimates": {
			"creation": {
				"codeDepositCost": "1635800",
				"executionCost": "25981",
				"totalCost": "1661781"
			},
			"external": {
				"addFarmer((uint256,address,uint256),bytes32)": "infinite",
				"addFolWarehouse((uint256,uint256,uint256,uint256,uint256),bytes32)": "infinite",
				"addHarvest((uint256,uint256,uint256,uint256),bytes32)": "infinite",
				"addPlant((uint256,uint256,uint8,uint256,uint256,uint256),bytes32)": "infinite",
				"addPrepare((uint256,uint256,uint256,uint256[]),bytes32)": "infinite",
				"destroy()": "30017",
				"getListFarmer(bytes32)": "infinite",
				"getListFolWarehouse(bytes32)": "infinite",
				"getListHarvest(bytes32)": "infinite",
				"getListPlant(bytes32)": "infinite",
				"getListPrepare(bytes32)": "infinite",
				"owner()": "2589",
				"transferOwnership(address)": "30797"
			}
		},
		"methodIdentifiers": {
			"addFarmer((uint256,address,uint256),bytes32)": "ca697ccd",
			"addFolWarehouse((uint256,uint256,uint256,uint256,uint256),bytes32)": "4269e28b",
			"addHarvest((uint256,uint256,uint256,uint256),bytes32)": "1d988d60",
			"addPlant((uint256,uint256,uint8,uint256,uint256,uint256),bytes32)": "ba03fe92",
			"addPrepare((uint256,uint256,uint256,uint256[]),bytes32)": "eb1042bf",
			"destroy()": "83197ef0",
			"getListFarmer(bytes32)": "639d43f3",
			"getListFolWarehouse(bytes32)": "1d769a9e",
			"getListHarvest(bytes32)": "3609010e",
			"getListPlant(bytes32)": "552436b3",
			"getListPrepare(bytes32)": "48c1b2cd",
			"owner()": "8da5cb5b",
			"transferOwnership(address)": "f2fde38b"
		}
	},
	"abi": [
		{
			"inputs": [],
			"stateMutability": "nonpayable",
			"type": "constructor"
		},
		{
			"anonymous": false,
			"inputs": [
				{
					"indexed": true,
					"internalType": "address",
					"name": "previousOwner",
					"type": "address"
				},
				{
					"indexed": true,
					"internalType": "address",
					"name": "newOwner",
					"type": "address"
				}
			],
			"name": "OwnershipTransferred",
			"type": "event"
		},
		{
			"inputs": [
				{
					"components": [
						{
							"internalType": "uint256",
							"name": "farmerId",
							"type": "uint256"
						},
						{
							"internalType": "address",
							"name": "farmerAddress",
							"type": "address"
						},
						{
							"internalType": "uint256",
							"name": "category",
							"type": "uint256"
						}
					],
					"internalType": "struct Farmer",
					"name": "item",
					"type": "tuple"
				},
				{
					"internalType": "bytes32",
					"name": "secret",
					"type": "bytes32"
				}
			],
			"name": "addFarmer",
			"outputs": [
				{
					"internalType": "bool",
					"name": "",
					"type": "bool"
				}
			],
			"stateMutability": "nonpayable",
			"type": "function"
		},
		{
			"inputs": [
				{
					"components": [
						{
							"internalType": "uint256",
							"name": "batchId",
							"type": "uint256"
						},
						{
							"internalType": "uint256",
							"name": "prepareId",
							"type": "uint256"
						},
						{
							"internalType": "uint256",
							"name": "category",
							"type": "uint256"
						},
						{
							"internalType": "uint256",
							"name": "time",
							"type": "uint256"
						},
						{
							"internalType": "uint256",
							"name": "quantity",
							"type": "uint256"
						}
					],
					"internalType": "struct FolWarehouse",
					"name": "item",
					"type": "tuple"
				},
				{
					"internalType": "bytes32",
					"name": "secret",
					"type": "bytes32"
				}
			],
			"name": "addFolWarehouse",
			"outputs": [
				{
					"internalType": "bool",
					"name": "",
					"type": "bool"
				}
			],
			"stateMutability": "nonpayable",
			"type": "function"
		},
		{
			"inputs": [
				{
					"components": [
						{
							"internalType": "uint256",
							"name": "harvestId",
							"type": "uint256"
						},
						{
							"internalType": "uint256",
							"name": "farmerId",
							"type": "uint256"
						},
						{
							"internalType": "uint256",
							"name": "category",
							"type": "uint256"
						},
						{
							"internalType": "uint256",
							"name": "plantId",
							"type": "uint256"
						}
					],
					"internalType": "struct Harvest",
					"name": "item",
					"type": "tuple"
				},
				{
					"internalType": "bytes32",
					"name": "secret",
					"type": "bytes32"
				}
			],
			"name": "addHarvest",
			"outputs": [
				{
					"internalType": "bool",
					"name": "",
					"type": "bool"
				}
			],
			"stateMutability": "nonpayable",
			"type": "function"
		},
		{
			"inputs": [
				{
					"components": [
						{
							"internalType": "uint256",
							"name": "plantId",
							"type": "uint256"
						},
						{
							"internalType": "uint256",
							"name": "farmerId",
							"type": "uint256"
						},
						{
							"internalType": "enum CATEGORY",
							"name": "category",
							"type": "uint8"
						},
						{
							"internalType": "uint256",
							"name": "testTime",
							"type": "uint256"
						},
						{
							"internalType": "uint256",
							"name": "area",
							"type": "uint256"
						},
						{
							"internalType": "uint256",
							"name": "production",
							"type": "uint256"
						}
					],
					"internalType": "struct Plant",
					"name": "item",
					"type": "tuple"
				},
				{
					"internalType": "bytes32",
					"name": "secret",
					"type": "bytes32"
				}
			],
			"name": "addPlant",
			"outputs": [
				{
					"internalType": "bool",
					"name": "",
					"type": "bool"
				}
			],
			"stateMutability": "nonpayable",
			"type": "function"
		},
		{
			"inputs": [
				{
					"components": [
						{
							"internalType": "uint256",
							"name": "prepareId",
							"type": "uint256"
						},
						{
							"internalType": "uint256",
							"name": "farmerId",
							"type": "uint256"
						},
						{
							"internalType": "uint256",
							"name": "category",
							"type": "uint256"
						},
						{
							"internalType": "uint256[]",
							"name": "listHarvestId",
							"type": "uint256[]"
						}
					],
					"internalType": "struct Prepare",
					"name": "item",
					"type": "tuple"
				},
				{
					"internalType": "bytes32",
					"name": "secret",
					"type": "bytes32"
				}
			],
			"name": "addPrepare",
			"outputs": [
				{
					"internalType": "bool",
					"name": "",
					"type": "bool"
				}
			],
			"stateMutability": "nonpayable",
			"type": "function"
		},
		{
			"inputs": [],
			"name": "destroy",
			"outputs": [],
			"stateMutability": "nonpayable",
			"type": "function"
		},
		{
			"inputs": [
				{
					"internalType": "bytes32",
					"name": "secret",
					"type": "bytes32"
				}
			],
			"name": "getListFarmer",
			"outputs": [
				{
					"components": [
						{
							"internalType": "uint256",
							"name": "farmerId",
							"type": "uint256"
						},
						{
							"internalType": "address",
							"name": "farmerAddress",
							"type": "address"
						},
						{
							"internalType": "uint256",
							"name": "category",
							"type": "uint256"
						}
					],
					"internalType": "struct Farmer[]",
					"name": "",
					"type": "tuple[]"
				}
			],
			"stateMutability": "view",
			"type": "function"
		},
		{
			"inputs": [
				{
					"internalType": "bytes32",
					"name": "secret",
					"type": "bytes32"
				}
			],
			"name": "getListFolWarehouse",
			"outputs": [
				{
					"components": [
						{
							"internalType": "uint256",
							"name": "batchId",
							"type": "uint256"
						},
						{
							"internalType": "uint256",
							"name": "prepareId",
							"type": "uint256"
						},
						{
							"internalType": "uint256",
							"name": "category",
							"type": "uint256"
						},
						{
							"internalType": "uint256",
							"name": "time",
							"type": "uint256"
						},
						{
							"internalType": "uint256",
							"name": "quantity",
							"type": "uint256"
						}
					],
					"internalType": "struct FolWarehouse[]",
					"name": "",
					"type": "tuple[]"
				}
			],
			"stateMutability": "view",
			"type": "function"
		},
		{
			"inputs": [
				{
					"internalType": "bytes32",
					"name": "secret",
					"type": "bytes32"
				}
			],
			"name": "getListHarvest",
			"outputs": [
				{
					"components": [
						{
							"internalType": "uint256",
							"name": "harvestId",
							"type": "uint256"
						},
						{
							"internalType": "uint256",
							"name": "farmerId",
							"type": "uint256"
						},
						{
							"internalType": "uint256",
							"name": "category",
							"type": "uint256"
						},
						{
							"internalType": "uint256",
							"name": "plantId",
							"type": "uint256"
						}
					],
					"internalType": "struct Harvest[]",
					"name": "",
					"type": "tuple[]"
				}
			],
			"stateMutability": "view",
			"type": "function"
		},
		{
			"inputs": [
				{
					"internalType": "bytes32",
					"name": "secret",
					"type": "bytes32"
				}
			],
			"name": "getListPlant",
			"outputs": [
				{
					"components": [
						{
							"internalType": "uint256",
							"name": "plantId",
							"type": "uint256"
						},
						{
							"internalType": "uint256",
							"name": "farmerId",
							"type": "uint256"
						},
						{
							"internalType": "enum CATEGORY",
							"name": "category",
							"type": "uint8"
						},
						{
							"internalType": "uint256",
							"name": "testTime",
							"type": "uint256"
						},
						{
							"internalType": "uint256",
							"name": "area",
							"type": "uint256"
						},
						{
							"internalType": "uint256",
							"name": "production",
							"type": "uint256"
						}
					],
					"internalType": "struct Plant[]",
					"name": "",
					"type": "tuple[]"
				}
			],
			"stateMutability": "view",
			"type": "function"
		},
		{
			"inputs": [
				{
					"internalType": "bytes32",
					"name": "secret",
					"type": "bytes32"
				}
			],
			"name": "getListPrepare",
			"outputs": [
				{
					"components": [
						{
							"internalType": "uint256",
							"name": "prepareId",
							"type": "uint256"
						},
						{
							"internalType": "uint256",
							"name": "farmerId",
							"type": "uint256"
						},
						{
							"internalType": "uint256",
							"name": "category",
							"type": "uint256"
						},
						{
							"internalType": "uint256[]",
							"name": "listHarvestId",
							"type": "uint256[]"
						}
					],
					"internalType": "struct Prepare[]",
					"name": "",
					"type": "tuple[]"
				}
			],
			"stateMutability": "view",
			"type": "function"
		},
		{
			"inputs": [],
			"name": "owner",
			"outputs": [
				{
					"internalType": "address",
					"name": "",
					"type": "address"
				}
			],
			"stateMutability": "view",
			"type": "function"
		},
		{
			"inputs": [
				{
					"internalType": "address",
					"name": "newOwner",
					"type": "address"
				}
			],
			"name": "transferOwnership",
			"outputs": [],
			"stateMutability": "nonpayable",
			"type": "function"
		}
	]
}