{
	"data": {
		"bytecode": {
			"linkReferences": {},
			"object": "60806040523480156200001157600080fd5b5060405162001eb238038062001eb28339818101604052810190620000379190620001b3565b808284336000806101000a81548173ffffffffffffffffffffffffffffffffffffffff021916908373ffffffffffffffffffffffffffffffffffffffff16021790555080600160006101000a81548173ffffffffffffffffffffffffffffffffffffffff021916908373ffffffffffffffffffffffffffffffffffffffff1602179055505080600260006101000a81548173ffffffffffffffffffffffffffffffffffffffff021916908373ffffffffffffffffffffffffffffffffffffffff1602179055505080600360006101000a81548173ffffffffffffffffffffffffffffffffffffffff021916908373ffffffffffffffffffffffffffffffffffffffff160217905550505050506200020f565b600080fd5b600073ffffffffffffffffffffffffffffffffffffffff82169050919050565b60006200017b826200014e565b9050919050565b6200018d816200016e565b81146200019957600080fd5b50565b600081519050620001ad8162000182565b92915050565b600080600060608486031215620001cf57620001ce62000149565b5b6000620001df868287016200019c565b9350506020620001f2868287016200019c565b925050604062000205868287016200019c565b9150509250925092565b611c93806200021f6000396000f3fe608060405234801561001057600080fd5b50600436106100b45760003560e01c806383197ef01161007157806383197ef014610167578063851e12a0146101715780638da5cb5b1461018f578063a382a440146101ad578063a855a589146101cb578063f2fde38b146101e9576100b4565b80631f9c0c6f146100b957806320ef7342146100d7578063388783a8146100f35780633ff328cb1461010f578063460f6c7e1461012d57806369f205f214610149575b600080fd5b6100c1610205565b6040516100ce9190610b3a565b60405180910390f35b6100f160048036038101906100ec9190610cd1565b6102a2565b005b61010d60048036038101906101089190610d70565b610387565b005b610117610473565b6040516101249190610e8a565b60405180910390f35b61014760048036038101906101429190610ea5565b610499565b005b61015161054d565b60405161015e919061105a565b60405180910390f35b61016f6105ea565b005b61017961060b565b604051610186919061109d565b60405180910390f35b610197610631565b6040516101a491906110c7565b60405180910390f35b6101b561065a565b6040516101c29190611103565b60405180910390f35b6101d3610680565b6040516101e09190611230565b60405180910390f35b61020360048036038101906101fe919061127e565b61071d565b005b6060600360009054906101000a900473ffffffffffffffffffffffffffffffffffffffff1673ffffffffffffffffffffffffffffffffffffffff16631f9c0c6f6040518163ffffffff1660e01b8152600401600060405180830381865afa158015610274573d6000803e3d6000fd5b505050506040513d6000823e3d601f19601f8201168201806040525081019061029d9190611539565b905090565b60006040518060c001604052808681526020018581526020016102c36107a0565b73ffffffffffffffffffffffffffffffffffffffff168152602001848152602001838152602001600015158152509050600360009054906101000a900473ffffffffffffffffffffffffffffffffffffffff1673ffffffffffffffffffffffffffffffffffffffff1663eea1e481826040518263ffffffff1660e01b815260040161034e9190611612565b600060405180830381600087803b15801561036857600080fd5b505af115801561037c573d6000803e3d6000fd5b505050505050505050565b60006040518060e00160405280600081526020018681526020016103a96107a0565b73ffffffffffffffffffffffffffffffffffffffff168152602001858152602001848152602001838152602001600015158152509050600260009054906101000a900473ffffffffffffffffffffffffffffffffffffffff1673ffffffffffffffffffffffffffffffffffffffff166321100a56826040518263ffffffff1660e01b815260040161043a91906116de565b600060405180830381600087803b15801561045457600080fd5b505af1158015610468573d6000803e3d6000fd5b505050505050505050565b600160009054906101000a900473ffffffffffffffffffffffffffffffffffffffff1681565b6000604051806060016040528060008152602001838152602001600015158152509050600160009054906101000a900473ffffffffffffffffffffffffffffffffffffffff1673ffffffffffffffffffffffffffffffffffffffff166317f3b9a0826040518263ffffffff1660e01b81526004016105179190611750565b600060405180830381600087803b15801561053157600080fd5b505af1158015610545573d6000803e3d6000fd5b505050505050565b6060600260009054906101000a900473ffffffffffffffffffffffffffffffffffffffff1673ffffffffffffffffffffffffffffffffffffffff166369f205f26040518163ffffffff1660e01b8152600401600060405180830381865afa1580156105bc573d6000803e3d6000fd5b505050506040513d6000823e3d601f19601f820116820180604052508101906105e5919061195b565b905090565b6105f26107a8565b3073ffffffffffffffffffffffffffffffffffffffff16ff5b600260009054906101000a900473ffffffffffffffffffffffffffffffffffffffff1681565b60008060009054906101000a900473ffffffffffffffffffffffffffffffffffffffff16905090565b600360009054906101000a900473ffffffffffffffffffffffffffffffffffffffff1681565b6060600160009054906101000a900473ffffffffffffffffffffffffffffffffffffffff1673ffffffffffffffffffffffffffffffffffffffff1663a855a5896040518163ffffffff1660e01b8152600401600060405180830381865afa1580156106ef573d6000803e3d6000fd5b505050506040513d6000823e3d601f19601f820116820180604052508101906107189190611b05565b905090565b6107256107a8565b600073ffffffffffffffffffffffffffffffffffffffff168173ffffffffffffffffffffffffffffffffffffffff1603610794576040517f08c379a000000000000000000000000000000000000000000000000000000000815260040161078b90611bd1565b60405180910390fd5b61079d8161081f565b50565b600033905090565b3373ffffffffffffffffffffffffffffffffffffffff166107c7610631565b73ffffffffffffffffffffffffffffffffffffffff161461081d576040517f08c379a000000000000000000000000000000000000000000000000000000000815260040161081490611c3d565b60405180910390fd5b565b60008060009054906101000a900473ffffffffffffffffffffffffffffffffffffffff169050816000806101000a81548173ffffffffffffffffffffffffffffffffffffffff021916908373ffffffffffffffffffffffffffffffffffffffff1602179055508173ffffffffffffffffffffffffffffffffffffffff168173ffffffffffffffffffffffffffffffffffffffff167f8be0079c531659141344cd1fd0a4f28419497f9722a3daafe3b4186f6b6457e060405160405180910390a35050565b600081519050919050565b600082825260208201905092915050565b6000819050602082019050919050565b6000819050919050565b6109228161090f565b82525050565b600081519050919050565b600082825260208201905092915050565b60005b83811015610962578082015181840152602081019050610947565b60008484015250505050565b6000601f19601f8301169050919050565b600061098a82610928565b6109948185610933565b93506109a4818560208601610944565b6109ad8161096e565b840191505092915050565b600073ffffffffffffffffffffffffffffffffffffffff82169050919050565b60006109e3826109b8565b9050919050565b6109f3816109d8565b82525050565b60008115159050919050565b610a0e816109f9565b82525050565b600060c083016000830151610a2c6000860182610919565b5060208301518482036020860152610a44828261097f565b9150506040830151610a5960408601826109ea565b506060830151610a6c6060860182610919565b5060808301518482036080860152610a84828261097f565b91505060a0830151610a9960a0860182610a05565b508091505092915050565b6000610ab08383610a14565b905092915050565b6000602082019050919050565b6000610ad0826108e3565b610ada81856108ee565b935083602082028501610aec856108ff565b8060005b85811015610b285784840389528151610b098582610aa4565b9450610b1483610ab8565b925060208a01995050600181019050610af0565b50829750879550505050505092915050565b60006020820190508181036000830152610b548184610ac5565b905092915050565b6000604051905090565b600080fd5b600080fd5b610b798161090f565b8114610b8457600080fd5b50565b600081359050610b9681610b70565b92915050565b600080fd5b600080fd5b7f4e487b7100000000000000000000000000000000000000000000000000000000600052604160045260246000fd5b610bde8261096e565b810181811067ffffffffffffffff82111715610bfd57610bfc610ba6565b5b80604052505050565b6000610c10610b5c565b9050610c1c8282610bd5565b919050565b600067ffffffffffffffff821115610c3c57610c3b610ba6565b5b610c458261096e565b9050602081019050919050565b82818337600083830152505050565b6000610c74610c6f84610c21565b610c06565b905082815260208101848484011115610c9057610c8f610ba1565b5b610c9b848285610c52565b509392505050565b600082601f830112610cb857610cb7610b9c565b5b8135610cc8848260208601610c61565b91505092915050565b60008060008060808587031215610ceb57610cea610b66565b5b6000610cf987828801610b87565b945050602085013567ffffffffffffffff811115610d1a57610d19610b6b565b5b610d2687828801610ca3565b9350506040610d3787828801610b87565b925050606085013567ffffffffffffffff811115610d5857610d57610b6b565b5b610d6487828801610ca3565b91505092959194509250565b60008060008060808587031215610d8a57610d89610b66565b5b600085013567ffffffffffffffff811115610da857610da7610b6b565b5b610db487828801610ca3565b945050602085013567ffffffffffffffff811115610dd557610dd4610b6b565b5b610de187828801610ca3565b9350506040610df287828801610b87565b925050606085013567ffffffffffffffff811115610e1357610e12610b6b565b5b610e1f87828801610ca3565b91505092959194509250565b6000819050919050565b6000610e50610e4b610e46846109b8565b610e2b565b6109b8565b9050919050565b6000610e6282610e35565b9050919050565b6000610e7482610e57565b9050919050565b610e8481610e69565b82525050565b6000602082019050610e9f6000830184610e7b565b92915050565b600060208284031215610ebb57610eba610b66565b5b600082013567ffffffffffffffff811115610ed957610ed8610b6b565b5b610ee584828501610ca3565b91505092915050565b600081519050919050565b600082825260208201905092915050565b6000819050602082019050919050565b600060e083016000830151610f326000860182610919565b5060208301518482036020860152610f4a828261097f565b9150506040830151610f5f60408601826109ea565b5060608301518482036060860152610f77828261097f565b9150506080830151610f8c6080860182610919565b5060a083015184820360a0860152610fa4828261097f565b91505060c0830151610fb960c0860182610a05565b508091505092915050565b6000610fd08383610f1a565b905092915050565b6000602082019050919050565b6000610ff082610eee565b610ffa8185610ef9565b93508360208202850161100c85610f0a565b8060005b8581101561104857848403895281516110298582610fc4565b945061103483610fd8565b925060208a01995050600181019050611010565b50829750879550505050505092915050565b600060208201905081810360008301526110748184610fe5565b905092915050565b600061108782610e57565b9050919050565b6110978161107c565b82525050565b60006020820190506110b2600083018461108e565b92915050565b6110c1816109d8565b82525050565b60006020820190506110dc60008301846110b8565b92915050565b60006110ed82610e57565b9050919050565b6110fd816110e2565b82525050565b600060208201905061111860008301846110f4565b92915050565b600081519050919050565b600082825260208201905092915050565b6000819050602082019050919050565b60006060830160008301516111626000860182610919565b506020830151848203602086015261117a828261097f565b915050604083015161118f6040860182610a05565b508091505092915050565b60006111a6838361114a565b905092915050565b6000602082019050919050565b60006111c68261111e565b6111d08185611129565b9350836020820285016111e28561113a565b8060005b8581101561121e57848403895281516111ff858261119a565b945061120a836111ae565b925060208a019950506001810190506111e6565b50829750879550505050505092915050565b6000602082019050818103600083015261124a81846111bb565b905092915050565b61125b816109d8565b811461126657600080fd5b50565b60008135905061127881611252565b92915050565b60006020828403121561129457611293610b66565b5b60006112a284828501611269565b91505092915050565b600067ffffffffffffffff8211156112c6576112c5610ba6565b5b602082029050602081019050919050565b600080fd5b600080fd5b600080fd5b6000815190506112f581610b70565b92915050565b600061130e61130984610c21565b610c06565b90508281526020810184848401111561132a57611329610ba1565b5b611335848285610944565b509392505050565b600082601f83011261135257611351610b9c565b5b81516113628482602086016112fb565b91505092915050565b60008151905061137a81611252565b92915050565b611389816109f9565b811461139457600080fd5b50565b6000815190506113a681611380565b92915050565b600060c082840312156113c2576113c16112dc565b5b6113cc60c0610c06565b905060006113dc848285016112e6565b600083015250602082015167ffffffffffffffff811115611400576113ff6112e1565b5b61140c8482850161133d565b60208301525060406114208482850161136b565b6040830152506060611434848285016112e6565b606083015250608082015167ffffffffffffffff811115611458576114576112e1565b5b6114648482850161133d565b60808301525060a061147884828501611397565b60a08301525092915050565b6000611497611492846112ab565b610c06565b905080838252602082019050602084028301858111156114ba576114b96112d7565b5b835b8181101561150157805167ffffffffffffffff8111156114df576114de610b9c565b5b8086016114ec89826113ac565b855260208501945050506020810190506114bc565b5050509392505050565b600082601f8301126115205761151f610b9c565b5b8151611530848260208601611484565b91505092915050565b60006020828403121561154f5761154e610b66565b5b600082015167ffffffffffffffff81111561156d5761156c610b6b565b5b6115798482850161150b565b91505092915050565b600060c08301600083015161159a6000860182610919565b50602083015184820360208601526115b2828261097f565b91505060408301516115c760408601826109ea565b5060608301516115da6060860182610919565b50608083015184820360808601526115f2828261097f565b91505060a083015161160760a0860182610a05565b508091505092915050565b6000602082019050818103600083015261162c8184611582565b905092915050565b600060e08301600083015161164c6000860182610919565b5060208301518482036020860152611664828261097f565b915050604083015161167960408601826109ea565b5060608301518482036060860152611691828261097f565b91505060808301516116a66080860182610919565b5060a083015184820360a08601526116be828261097f565b91505060c08301516116d360c0860182610a05565b508091505092915050565b600060208201905081810360008301526116f88184611634565b905092915050565b60006060830160008301516117186000860182610919565b5060208301518482036020860152611730828261097f565b91505060408301516117456040860182610a05565b508091505092915050565b6000602082019050818103600083015261176a8184611700565b905092915050565b600067ffffffffffffffff82111561178d5761178c610ba6565b5b602082029050602081019050919050565b600060e082840312156117b4576117b36112dc565b5b6117be60e0610c06565b905060006117ce848285016112e6565b600083015250602082015167ffffffffffffffff8111156117f2576117f16112e1565b5b6117fe8482850161133d565b60208301525060406118128482850161136b565b604083015250606082015167ffffffffffffffff811115611836576118356112e1565b5b6118428482850161133d565b6060830152506080611856848285016112e6565b60808301525060a082015167ffffffffffffffff81111561187a576118796112e1565b5b6118868482850161133d565b60a08301525060c061189a84828501611397565b60c08301525092915050565b60006118b96118b484611772565b610c06565b905080838252602082019050602084028301858111156118dc576118db6112d7565b5b835b8181101561192357805167ffffffffffffffff81111561190157611900610b9c565b5b80860161190e898261179e565b855260208501945050506020810190506118de565b5050509392505050565b600082601f83011261194257611941610b9c565b5b81516119528482602086016118a6565b91505092915050565b60006020828403121561197157611970610b66565b5b600082015167ffffffffffffffff81111561198f5761198e610b6b565b5b61199b8482850161192d565b91505092915050565b600067ffffffffffffffff8211156119bf576119be610ba6565b5b602082029050602081019050919050565b6000606082840312156119e6576119e56112dc565b5b6119f06060610c06565b90506000611a00848285016112e6565b600083015250602082015167ffffffffffffffff811115611a2457611a236112e1565b5b611a308482850161133d565b6020830152506040611a4484828501611397565b60408301525092915050565b6000611a63611a5e846119a4565b610c06565b90508083825260208201905060208402830185811115611a8657611a856112d7565b5b835b81811015611acd57805167ffffffffffffffff811115611aab57611aaa610b9c565b5b808601611ab889826119d0565b85526020850194505050602081019050611a88565b5050509392505050565b600082601f830112611aec57611aeb610b9c565b5b8151611afc848260208601611a50565b91505092915050565b600060208284031215611b1b57611b1a610b66565b5b600082015167ffffffffffffffff811115611b3957611b38610b6b565b5b611b4584828501611ad7565b91505092915050565b600082825260208201905092915050565b7f4f776e61626c653a206e6577206f776e657220697320746865207a65726f206160008201527f6464726573730000000000000000000000000000000000000000000000000000602082015250565b6000611bbb602683611b4e565b9150611bc682611b5f565b604082019050919050565b60006020820190508181036000830152611bea81611bae565b9050919050565b7f4f776e61626c653a2063616c6c6572206973206e6f7420746865206f776e6572600082015250565b6000611c27602083611b4e565b9150611c3282611bf1565b602082019050919050565b60006020820190508181036000830152611c5681611c1a565b905091905056fea2646970667358221220fc6a1cafee904ed289e9fd34a692b6731232911d955ce4543f6f981eed6fec8a64736f6c63430008110033",
			"opcodes": "PUSH1 0x80 PUSH1 0x40 MSTORE CALLVALUE DUP1 ISZERO PUSH3 0x11 JUMPI PUSH1 0x0 DUP1 REVERT JUMPDEST POP PUSH1 0x40 MLOAD PUSH3 0x1EB2 CODESIZE SUB DUP1 PUSH3 0x1EB2 DUP4 CODECOPY DUP2 DUP2 ADD PUSH1 0x40 MSTORE DUP2 ADD SWAP1 PUSH3 0x37 SWAP2 SWAP1 PUSH3 0x1B3 JUMP JUMPDEST DUP1 DUP3 DUP5 CALLER PUSH1 0x0 DUP1 PUSH2 0x100 EXP DUP2 SLOAD DUP2 PUSH20 0xFFFFFFFFFFFFFFFFFFFFFFFFFFFFFFFFFFFFFFFF MUL NOT AND SWAP1 DUP4 PUSH20 0xFFFFFFFFFFFFFFFFFFFFFFFFFFFFFFFFFFFFFFFF AND MUL OR SWAP1 SSTORE POP DUP1 PUSH1 0x1 PUSH1 0x0 PUSH2 0x100 EXP DUP2 SLOAD DUP2 PUSH20 0xFFFFFFFFFFFFFFFFFFFFFFFFFFFFFFFFFFFFFFFF MUL NOT AND SWAP1 DUP4 PUSH20 0xFFFFFFFFFFFFFFFFFFFFFFFFFFFFFFFFFFFFFFFF AND MUL OR SWAP1 SSTORE POP POP DUP1 PUSH1 0x2 PUSH1 0x0 PUSH2 0x100 EXP DUP2 SLOAD DUP2 PUSH20 0xFFFFFFFFFFFFFFFFFFFFFFFFFFFFFFFFFFFFFFFF MUL NOT AND SWAP1 DUP4 PUSH20 0xFFFFFFFFFFFFFFFFFFFFFFFFFFFFFFFFFFFFFFFF AND MUL OR SWAP1 SSTORE POP POP DUP1 PUSH1 0x3 PUSH1 0x0 PUSH2 0x100 EXP DUP2 SLOAD DUP2 PUSH20 0xFFFFFFFFFFFFFFFFFFFFFFFFFFFFFFFFFFFFFFFF MUL NOT AND SWAP1 DUP4 PUSH20 0xFFFFFFFFFFFFFFFFFFFFFFFFFFFFFFFFFFFFFFFF AND MUL OR SWAP1 SSTORE POP POP POP POP POP PUSH3 0x20F JUMP JUMPDEST PUSH1 0x0 DUP1 REVERT JUMPDEST PUSH1 0x0 PUSH20 0xFFFFFFFFFFFFFFFFFFFFFFFFFFFFFFFFFFFFFFFF DUP3 AND SWAP1 POP SWAP2 SWAP1 POP JUMP JUMPDEST PUSH1 0x0 PUSH3 0x17B DUP3 PUSH3 0x14E JUMP JUMPDEST SWAP1 POP SWAP2 SWAP1 POP JUMP JUMPDEST PUSH3 0x18D DUP2 PUSH3 0x16E JUMP JUMPDEST DUP2 EQ PUSH3 0x199 JUMPI PUSH1 0x0 DUP1 REVERT JUMPDEST POP JUMP JUMPDEST PUSH1 0x0 DUP2 MLOAD SWAP1 POP PUSH3 0x1AD DUP2 PUSH3 0x182 JUMP JUMPDEST SWAP3 SWAP2 POP POP JUMP JUMPDEST PUSH1 0x0 DUP1 PUSH1 0x0 PUSH1 0x60 DUP5 DUP7 SUB SLT ISZERO PUSH3 0x1CF JUMPI PUSH3 0x1CE PUSH3 0x149 JUMP JUMPDEST JUMPDEST PUSH1 0x0 PUSH3 0x1DF DUP7 DUP3 DUP8 ADD PUSH3 0x19C JUMP JUMPDEST SWAP4 POP POP PUSH1 0x20 PUSH3 0x1F2 DUP7 DUP3 DUP8 ADD PUSH3 0x19C JUMP JUMPDEST SWAP3 POP POP PUSH1 0x40 PUSH3 0x205 DUP7 DUP3 DUP8 ADD PUSH3 0x19C JUMP JUMPDEST SWAP2 POP POP SWAP3 POP SWAP3 POP SWAP3 JUMP JUMPDEST PUSH2 0x1C93 DUP1 PUSH3 0x21F PUSH1 0x0 CODECOPY PUSH1 0x0 RETURN INVALID PUSH1 0x80 PUSH1 0x40 MSTORE CALLVALUE DUP1 ISZERO PUSH2 0x10 JUMPI PUSH1 0x0 DUP1 REVERT JUMPDEST POP PUSH1 0x4 CALLDATASIZE LT PUSH2 0xB4 JUMPI PUSH1 0x0 CALLDATALOAD PUSH1 0xE0 SHR DUP1 PUSH4 0x83197EF0 GT PUSH2 0x71 JUMPI DUP1 PUSH4 0x83197EF0 EQ PUSH2 0x167 JUMPI DUP1 PUSH4 0x851E12A0 EQ PUSH2 0x171 JUMPI DUP1 PUSH4 0x8DA5CB5B EQ PUSH2 0x18F JUMPI DUP1 PUSH4 0xA382A440 EQ PUSH2 0x1AD JUMPI DUP1 PUSH4 0xA855A589 EQ PUSH2 0x1CB JUMPI DUP1 PUSH4 0xF2FDE38B EQ PUSH2 0x1E9 JUMPI PUSH2 0xB4 JUMP JUMPDEST DUP1 PUSH4 0x1F9C0C6F EQ PUSH2 0xB9 JUMPI DUP1 PUSH4 0x20EF7342 EQ PUSH2 0xD7 JUMPI DUP1 PUSH4 0x388783A8 EQ PUSH2 0xF3 JUMPI DUP1 PUSH4 0x3FF328CB EQ PUSH2 0x10F JUMPI DUP1 PUSH4 0x460F6C7E EQ PUSH2 0x12D JUMPI DUP1 PUSH4 0x69F205F2 EQ PUSH2 0x149 JUMPI JUMPDEST PUSH1 0x0 DUP1 REVERT JUMPDEST PUSH2 0xC1 PUSH2 0x205 JUMP JUMPDEST PUSH1 0x40 MLOAD PUSH2 0xCE SWAP2 SWAP1 PUSH2 0xB3A JUMP JUMPDEST PUSH1 0x40 MLOAD DUP1 SWAP2 SUB SWAP1 RETURN JUMPDEST PUSH2 0xF1 PUSH1 0x4 DUP1 CALLDATASIZE SUB DUP2 ADD SWAP1 PUSH2 0xEC SWAP2 SWAP1 PUSH2 0xCD1 JUMP JUMPDEST PUSH2 0x2A2 JUMP JUMPDEST STOP JUMPDEST PUSH2 0x10D PUSH1 0x4 DUP1 CALLDATASIZE SUB DUP2 ADD SWAP1 PUSH2 0x108 SWAP2 SWAP1 PUSH2 0xD70 JUMP JUMPDEST PUSH2 0x387 JUMP JUMPDEST STOP JUMPDEST PUSH2 0x117 PUSH2 0x473 JUMP JUMPDEST PUSH1 0x40 MLOAD PUSH2 0x124 SWAP2 SWAP1 PUSH2 0xE8A JUMP JUMPDEST PUSH1 0x40 MLOAD DUP1 SWAP2 SUB SWAP1 RETURN JUMPDEST PUSH2 0x147 PUSH1 0x4 DUP1 CALLDATASIZE SUB DUP2 ADD SWAP1 PUSH2 0x142 SWAP2 SWAP1 PUSH2 0xEA5 JUMP JUMPDEST PUSH2 0x499 JUMP JUMPDEST STOP JUMPDEST PUSH2 0x151 PUSH2 0x54D JUMP JUMPDEST PUSH1 0x40 MLOAD PUSH2 0x15E SWAP2 SWAP1 PUSH2 0x105A JUMP JUMPDEST PUSH1 0x40 MLOAD DUP1 SWAP2 SUB SWAP1 RETURN JUMPDEST PUSH2 0x16F PUSH2 0x5EA JUMP JUMPDEST STOP JUMPDEST PUSH2 0x179 PUSH2 0x60B JUMP JUMPDEST PUSH1 0x40 MLOAD PUSH2 0x186 SWAP2 SWAP1 PUSH2 0x109D JUMP JUMPDEST PUSH1 0x40 MLOAD DUP1 SWAP2 SUB SWAP1 RETURN JUMPDEST PUSH2 0x197 PUSH2 0x631 JUMP JUMPDEST PUSH1 0x40 MLOAD PUSH2 0x1A4 SWAP2 SWAP1 PUSH2 0x10C7 JUMP JUMPDEST PUSH1 0x40 MLOAD DUP1 SWAP2 SUB SWAP1 RETURN JUMPDEST PUSH2 0x1B5 PUSH2 0x65A JUMP JUMPDEST PUSH1 0x40 MLOAD PUSH2 0x1C2 SWAP2 SWAP1 PUSH2 0x1103 JUMP JUMPDEST PUSH1 0x40 MLOAD DUP1 SWAP2 SUB SWAP1 RETURN JUMPDEST PUSH2 0x1D3 PUSH2 0x680 JUMP JUMPDEST PUSH1 0x40 MLOAD PUSH2 0x1E0 SWAP2 SWAP1 PUSH2 0x1230 JUMP JUMPDEST PUSH1 0x40 MLOAD DUP1 SWAP2 SUB SWAP1 RETURN JUMPDEST PUSH2 0x203 PUSH1 0x4 DUP1 CALLDATASIZE SUB DUP2 ADD SWAP1 PUSH2 0x1FE SWAP2 SWAP1 PUSH2 0x127E JUMP JUMPDEST PUSH2 0x71D JUMP JUMPDEST STOP JUMPDEST PUSH1 0x60 PUSH1 0x3 PUSH1 0x0 SWAP1 SLOAD SWAP1 PUSH2 0x100 EXP SWAP1 DIV PUSH20 0xFFFFFFFFFFFFFFFFFFFFFFFFFFFFFFFFFFFFFFFF AND PUSH20 0xFFFFFFFFFFFFFFFFFFFFFFFFFFFFFFFFFFFFFFFF AND PUSH4 0x1F9C0C6F PUSH1 0x40 MLOAD DUP2 PUSH4 0xFFFFFFFF AND PUSH1 0xE0 SHL DUP2 MSTORE PUSH1 0x4 ADD PUSH1 0x0 PUSH1 0x40 MLOAD DUP1 DUP4 SUB DUP2 DUP7 GAS STATICCALL ISZERO DUP1 ISZERO PUSH2 0x274 JUMPI RETURNDATASIZE PUSH1 0x0 DUP1 RETURNDATACOPY RETURNDATASIZE PUSH1 0x0 REVERT JUMPDEST POP POP POP POP PUSH1 0x40 MLOAD RETURNDATASIZE PUSH1 0x0 DUP3 RETURNDATACOPY RETURNDATASIZE PUSH1 0x1F NOT PUSH1 0x1F DUP3 ADD AND DUP3 ADD DUP1 PUSH1 0x40 MSTORE POP DUP2 ADD SWAP1 PUSH2 0x29D SWAP2 SWAP1 PUSH2 0x1539 JUMP JUMPDEST SWAP1 POP SWAP1 JUMP JUMPDEST PUSH1 0x0 PUSH1 0x40 MLOAD DUP1 PUSH1 0xC0 ADD PUSH1 0x40 MSTORE DUP1 DUP7 DUP2 MSTORE PUSH1 0x20 ADD DUP6 DUP2 MSTORE PUSH1 0x20 ADD PUSH2 0x2C3 PUSH2 0x7A0 JUMP JUMPDEST PUSH20 0xFFFFFFFFFFFFFFFFFFFFFFFFFFFFFFFFFFFFFFFF AND DUP2 MSTORE PUSH1 0x20 ADD DUP5 DUP2 MSTORE PUSH1 0x20 ADD DUP4 DUP2 MSTORE PUSH1 0x20 ADD PUSH1 0x0 ISZERO ISZERO DUP2 MSTORE POP SWAP1 POP PUSH1 0x3 PUSH1 0x0 SWAP1 SLOAD SWAP1 PUSH2 0x100 EXP SWAP1 DIV PUSH20 0xFFFFFFFFFFFFFFFFFFFFFFFFFFFFFFFFFFFFFFFF AND PUSH20 0xFFFFFFFFFFFFFFFFFFFFFFFFFFFFFFFFFFFFFFFF AND PUSH4 0xEEA1E481 DUP3 PUSH1 0x40 MLOAD DUP3 PUSH4 0xFFFFFFFF AND PUSH1 0xE0 SHL DUP2 MSTORE PUSH1 0x4 ADD PUSH2 0x34E SWAP2 SWAP1 PUSH2 0x1612 JUMP JUMPDEST PUSH1 0x0 PUSH1 0x40 MLOAD DUP1 DUP4 SUB DUP2 PUSH1 0x0 DUP8 DUP1 EXTCODESIZE ISZERO DUP1 ISZERO PUSH2 0x368 JUMPI PUSH1 0x0 DUP1 REVERT JUMPDEST POP GAS CALL ISZERO DUP1 ISZERO PUSH2 0x37C JUMPI RETURNDATASIZE PUSH1 0x0 DUP1 RETURNDATACOPY RETURNDATASIZE PUSH1 0x0 REVERT JUMPDEST POP POP POP POP POP POP POP POP POP JUMP JUMPDEST PUSH1 0x0 PUSH1 0x40 MLOAD DUP1 PUSH1 0xE0 ADD PUSH1 0x40 MSTORE DUP1 PUSH1 0x0 DUP2 MSTORE PUSH1 0x20 ADD DUP7 DUP2 MSTORE PUSH1 0x20 ADD PUSH2 0x3A9 PUSH2 0x7A0 JUMP JUMPDEST PUSH20 0xFFFFFFFFFFFFFFFFFFFFFFFFFFFFFFFFFFFFFFFF AND DUP2 MSTORE PUSH1 0x20 ADD DUP6 DUP2 MSTORE PUSH1 0x20 ADD DUP5 DUP2 MSTORE PUSH1 0x20 ADD DUP4 DUP2 MSTORE PUSH1 0x20 ADD PUSH1 0x0 ISZERO ISZERO DUP2 MSTORE POP SWAP1 POP PUSH1 0x2 PUSH1 0x0 SWAP1 SLOAD SWAP1 PUSH2 0x100 EXP SWAP1 DIV PUSH20 0xFFFFFFFFFFFFFFFFFFFFFFFFFFFFFFFFFFFFFFFF AND PUSH20 0xFFFFFFFFFFFFFFFFFFFFFFFFFFFFFFFFFFFFFFFF AND PUSH4 0x21100A56 DUP3 PUSH1 0x40 MLOAD DUP3 PUSH4 0xFFFFFFFF AND PUSH1 0xE0 SHL DUP2 MSTORE PUSH1 0x4 ADD PUSH2 0x43A SWAP2 SWAP1 PUSH2 0x16DE JUMP JUMPDEST PUSH1 0x0 PUSH1 0x40 MLOAD DUP1 DUP4 SUB DUP2 PUSH1 0x0 DUP8 DUP1 EXTCODESIZE ISZERO DUP1 ISZERO PUSH2 0x454 JUMPI PUSH1 0x0 DUP1 REVERT JUMPDEST POP GAS CALL ISZERO DUP1 ISZERO PUSH2 0x468 JUMPI RETURNDATASIZE PUSH1 0x0 DUP1 RETURNDATACOPY RETURNDATASIZE PUSH1 0x0 REVERT JUMPDEST POP POP POP POP POP POP POP POP POP JUMP JUMPDEST PUSH1 0x1 PUSH1 0x0 SWAP1 SLOAD SWAP1 PUSH2 0x100 EXP SWAP1 DIV PUSH20 0xFFFFFFFFFFFFFFFFFFFFFFFFFFFFFFFFFFFFFFFF AND DUP2 JUMP JUMPDEST PUSH1 0x0 PUSH1 0x40 MLOAD DUP1 PUSH1 0x60 ADD PUSH1 0x40 MSTORE DUP1 PUSH1 0x0 DUP2 MSTORE PUSH1 0x20 ADD DUP4 DUP2 MSTORE PUSH1 0x20 ADD PUSH1 0x0 ISZERO ISZERO DUP2 MSTORE POP SWAP1 POP PUSH1 0x1 PUSH1 0x0 SWAP1 SLOAD SWAP1 PUSH2 0x100 EXP SWAP1 DIV PUSH20 0xFFFFFFFFFFFFFFFFFFFFFFFFFFFFFFFFFFFFFFFF AND PUSH20 0xFFFFFFFFFFFFFFFFFFFFFFFFFFFFFFFFFFFFFFFF AND PUSH4 0x17F3B9A0 DUP3 PUSH1 0x40 MLOAD DUP3 PUSH4 0xFFFFFFFF AND PUSH1 0xE0 SHL DUP2 MSTORE PUSH1 0x4 ADD PUSH2 0x517 SWAP2 SWAP1 PUSH2 0x1750 JUMP JUMPDEST PUSH1 0x0 PUSH1 0x40 MLOAD DUP1 DUP4 SUB DUP2 PUSH1 0x0 DUP8 DUP1 EXTCODESIZE ISZERO DUP1 ISZERO PUSH2 0x531 JUMPI PUSH1 0x0 DUP1 REVERT JUMPDEST POP GAS CALL ISZERO DUP1 ISZERO PUSH2 0x545 JUMPI RETURNDATASIZE PUSH1 0x0 DUP1 RETURNDATACOPY RETURNDATASIZE PUSH1 0x0 REVERT JUMPDEST POP POP POP POP POP POP JUMP JUMPDEST PUSH1 0x60 PUSH1 0x2 PUSH1 0x0 SWAP1 SLOAD SWAP1 PUSH2 0x100 EXP SWAP1 DIV PUSH20 0xFFFFFFFFFFFFFFFFFFFFFFFFFFFFFFFFFFFFFFFF AND PUSH20 0xFFFFFFFFFFFFFFFFFFFFFFFFFFFFFFFFFFFFFFFF AND PUSH4 0x69F205F2 PUSH1 0x40 MLOAD DUP2 PUSH4 0xFFFFFFFF AND PUSH1 0xE0 SHL DUP2 MSTORE PUSH1 0x4 ADD PUSH1 0x0 PUSH1 0x40 MLOAD DUP1 DUP4 SUB DUP2 DUP7 GAS STATICCALL ISZERO DUP1 ISZERO PUSH2 0x5BC JUMPI RETURNDATASIZE PUSH1 0x0 DUP1 RETURNDATACOPY RETURNDATASIZE PUSH1 0x0 REVERT JUMPDEST POP POP POP POP PUSH1 0x40 MLOAD RETURNDATASIZE PUSH1 0x0 DUP3 RETURNDATACOPY RETURNDATASIZE PUSH1 0x1F NOT PUSH1 0x1F DUP3 ADD AND DUP3 ADD DUP1 PUSH1 0x40 MSTORE POP DUP2 ADD SWAP1 PUSH2 0x5E5 SWAP2 SWAP1 PUSH2 0x195B JUMP JUMPDEST SWAP1 POP SWAP1 JUMP JUMPDEST PUSH2 0x5F2 PUSH2 0x7A8 JUMP JUMPDEST ADDRESS PUSH20 0xFFFFFFFFFFFFFFFFFFFFFFFFFFFFFFFFFFFFFFFF AND SELFDESTRUCT JUMPDEST PUSH1 0x2 PUSH1 0x0 SWAP1 SLOAD SWAP1 PUSH2 0x100 EXP SWAP1 DIV PUSH20 0xFFFFFFFFFFFFFFFFFFFFFFFFFFFFFFFFFFFFFFFF AND DUP2 JUMP JUMPDEST PUSH1 0x0 DUP1 PUSH1 0x0 SWAP1 SLOAD SWAP1 PUSH2 0x100 EXP SWAP1 DIV PUSH20 0xFFFFFFFFFFFFFFFFFFFFFFFFFFFFFFFFFFFFFFFF AND SWAP1 POP SWAP1 JUMP JUMPDEST PUSH1 0x3 PUSH1 0x0 SWAP1 SLOAD SWAP1 PUSH2 0x100 EXP SWAP1 DIV PUSH20 0xFFFFFFFFFFFFFFFFFFFFFFFFFFFFFFFFFFFFFFFF AND DUP2 JUMP JUMPDEST PUSH1 0x60 PUSH1 0x1 PUSH1 0x0 SWAP1 SLOAD SWAP1 PUSH2 0x100 EXP SWAP1 DIV PUSH20 0xFFFFFFFFFFFFFFFFFFFFFFFFFFFFFFFFFFFFFFFF AND PUSH20 0xFFFFFFFFFFFFFFFFFFFFFFFFFFFFFFFFFFFFFFFF AND PUSH4 0xA855A589 PUSH1 0x40 MLOAD DUP2 PUSH4 0xFFFFFFFF AND PUSH1 0xE0 SHL DUP2 MSTORE PUSH1 0x4 ADD PUSH1 0x0 PUSH1 0x40 MLOAD DUP1 DUP4 SUB DUP2 DUP7 GAS STATICCALL ISZERO DUP1 ISZERO PUSH2 0x6EF JUMPI RETURNDATASIZE PUSH1 0x0 DUP1 RETURNDATACOPY RETURNDATASIZE PUSH1 0x0 REVERT JUMPDEST POP POP POP POP PUSH1 0x40 MLOAD RETURNDATASIZE PUSH1 0x0 DUP3 RETURNDATACOPY RETURNDATASIZE PUSH1 0x1F NOT PUSH1 0x1F DUP3 ADD AND DUP3 ADD DUP1 PUSH1 0x40 MSTORE POP DUP2 ADD SWAP1 PUSH2 0x718 SWAP2 SWAP1 PUSH2 0x1B05 JUMP JUMPDEST SWAP1 POP SWAP1 JUMP JUMPDEST PUSH2 0x725 PUSH2 0x7A8 JUMP JUMPDEST PUSH1 0x0 PUSH20 0xFFFFFFFFFFFFFFFFFFFFFFFFFFFFFFFFFFFFFFFF AND DUP2 PUSH20 0xFFFFFFFFFFFFFFFFFFFFFFFFFFFFFFFFFFFFFFFF AND SUB PUSH2 0x794 JUMPI PUSH1 0x40 MLOAD PUSH32 0x8C379A000000000000000000000000000000000000000000000000000000000 DUP2 MSTORE PUSH1 0x4 ADD PUSH2 0x78B SWAP1 PUSH2 0x1BD1 JUMP JUMPDEST PUSH1 0x40 MLOAD DUP1 SWAP2 SUB SWAP1 REVERT JUMPDEST PUSH2 0x79D DUP2 PUSH2 0x81F JUMP JUMPDEST POP JUMP JUMPDEST PUSH1 0x0 CALLER SWAP1 POP SWAP1 JUMP JUMPDEST CALLER PUSH20 0xFFFFFFFFFFFFFFFFFFFFFFFFFFFFFFFFFFFFFFFF AND PUSH2 0x7C7 PUSH2 0x631 JUMP JUMPDEST PUSH20 0xFFFFFFFFFFFFFFFFFFFFFFFFFFFFFFFFFFFFFFFF AND EQ PUSH2 0x81D JUMPI PUSH1 0x40 MLOAD PUSH32 0x8C379A000000000000000000000000000000000000000000000000000000000 DUP2 MSTORE PUSH1 0x4 ADD PUSH2 0x814 SWAP1 PUSH2 0x1C3D JUMP JUMPDEST PUSH1 0x40 MLOAD DUP1 SWAP2 SUB SWAP1 REVERT JUMPDEST JUMP JUMPDEST PUSH1 0x0 DUP1 PUSH1 0x0 SWAP1 SLOAD SWAP1 PUSH2 0x100 EXP SWAP1 DIV PUSH20 0xFFFFFFFFFFFFFFFFFFFFFFFFFFFFFFFFFFFFFFFF AND SWAP1 POP DUP2 PUSH1 0x0 DUP1 PUSH2 0x100 EXP DUP2 SLOAD DUP2 PUSH20 0xFFFFFFFFFFFFFFFFFFFFFFFFFFFFFFFFFFFFFFFF MUL NOT AND SWAP1 DUP4 PUSH20 0xFFFFFFFFFFFFFFFFFFFFFFFFFFFFFFFFFFFFFFFF AND MUL OR SWAP1 SSTORE POP DUP2 PUSH20 0xFFFFFFFFFFFFFFFFFFFFFFFFFFFFFFFFFFFFFFFF AND DUP2 PUSH20 0xFFFFFFFFFFFFFFFFFFFFFFFFFFFFFFFFFFFFFFFF AND PUSH32 0x8BE0079C531659141344CD1FD0A4F28419497F9722A3DAAFE3B4186F6B6457E0 PUSH1 0x40 MLOAD PUSH1 0x40 MLOAD DUP1 SWAP2 SUB SWAP1 LOG3 POP POP JUMP JUMPDEST PUSH1 0x0 DUP2 MLOAD SWAP1 POP SWAP2 SWAP1 POP JUMP JUMPDEST PUSH1 0x0 DUP3 DUP3 MSTORE PUSH1 0x20 DUP3 ADD SWAP1 POP SWAP3 SWAP2 POP POP JUMP JUMPDEST PUSH1 0x0 DUP2 SWAP1 POP PUSH1 0x20 DUP3 ADD SWAP1 POP SWAP2 SWAP1 POP JUMP JUMPDEST PUSH1 0x0 DUP2 SWAP1 POP SWAP2 SWAP1 POP JUMP JUMPDEST PUSH2 0x922 DUP2 PUSH2 0x90F JUMP JUMPDEST DUP3 MSTORE POP POP JUMP JUMPDEST PUSH1 0x0 DUP2 MLOAD SWAP1 POP SWAP2 SWAP1 POP JUMP JUMPDEST PUSH1 0x0 DUP3 DUP3 MSTORE PUSH1 0x20 DUP3 ADD SWAP1 POP SWAP3 SWAP2 POP POP JUMP JUMPDEST PUSH1 0x0 JUMPDEST DUP4 DUP2 LT ISZERO PUSH2 0x962 JUMPI DUP1 DUP3 ADD MLOAD DUP2 DUP5 ADD MSTORE PUSH1 0x20 DUP2 ADD SWAP1 POP PUSH2 0x947 JUMP JUMPDEST PUSH1 0x0 DUP5 DUP5 ADD MSTORE POP POP POP POP JUMP JUMPDEST PUSH1 0x0 PUSH1 0x1F NOT PUSH1 0x1F DUP4 ADD AND SWAP1 POP SWAP2 SWAP1 POP JUMP JUMPDEST PUSH1 0x0 PUSH2 0x98A DUP3 PUSH2 0x928 JUMP JUMPDEST PUSH2 0x994 DUP2 DUP6 PUSH2 0x933 JUMP JUMPDEST SWAP4 POP PUSH2 0x9A4 DUP2 DUP6 PUSH1 0x20 DUP7 ADD PUSH2 0x944 JUMP JUMPDEST PUSH2 0x9AD DUP2 PUSH2 0x96E JUMP JUMPDEST DUP5 ADD SWAP2 POP POP SWAP3 SWAP2 POP POP JUMP JUMPDEST PUSH1 0x0 PUSH20 0xFFFFFFFFFFFFFFFFFFFFFFFFFFFFFFFFFFFFFFFF DUP3 AND SWAP1 POP SWAP2 SWAP1 POP JUMP JUMPDEST PUSH1 0x0 PUSH2 0x9E3 DUP3 PUSH2 0x9B8 JUMP JUMPDEST SWAP1 POP SWAP2 SWAP1 POP JUMP JUMPDEST PUSH2 0x9F3 DUP2 PUSH2 0x9D8 JUMP JUMPDEST DUP3 MSTORE POP POP JUMP JUMPDEST PUSH1 0x0 DUP2 ISZERO ISZERO SWAP1 POP SWAP2 SWAP1 POP JUMP JUMPDEST PUSH2 0xA0E DUP2 PUSH2 0x9F9 JUMP JUMPDEST DUP3 MSTORE POP POP JUMP JUMPDEST PUSH1 0x0 PUSH1 0xC0 DUP4 ADD PUSH1 0x0 DUP4 ADD MLOAD PUSH2 0xA2C PUSH1 0x0 DUP7 ADD DUP3 PUSH2 0x919 JUMP JUMPDEST POP PUSH1 0x20 DUP4 ADD MLOAD DUP5 DUP3 SUB PUSH1 0x20 DUP7 ADD MSTORE PUSH2 0xA44 DUP3 DUP3 PUSH2 0x97F JUMP JUMPDEST SWAP2 POP POP PUSH1 0x40 DUP4 ADD MLOAD PUSH2 0xA59 PUSH1 0x40 DUP7 ADD DUP3 PUSH2 0x9EA JUMP JUMPDEST POP PUSH1 0x60 DUP4 ADD MLOAD PUSH2 0xA6C PUSH1 0x60 DUP7 ADD DUP3 PUSH2 0x919 JUMP JUMPDEST POP PUSH1 0x80 DUP4 ADD MLOAD DUP5 DUP3 SUB PUSH1 0x80 DUP7 ADD MSTORE PUSH2 0xA84 DUP3 DUP3 PUSH2 0x97F JUMP JUMPDEST SWAP2 POP POP PUSH1 0xA0 DUP4 ADD MLOAD PUSH2 0xA99 PUSH1 0xA0 DUP7 ADD DUP3 PUSH2 0xA05 JUMP JUMPDEST POP DUP1 SWAP2 POP POP SWAP3 SWAP2 POP POP JUMP JUMPDEST PUSH1 0x0 PUSH2 0xAB0 DUP4 DUP4 PUSH2 0xA14 JUMP JUMPDEST SWAP1 POP SWAP3 SWAP2 POP POP JUMP JUMPDEST PUSH1 0x0 PUSH1 0x20 DUP3 ADD SWAP1 POP SWAP2 SWAP1 POP JUMP JUMPDEST PUSH1 0x0 PUSH2 0xAD0 DUP3 PUSH2 0x8E3 JUMP JUMPDEST PUSH2 0xADA DUP2 DUP6 PUSH2 0x8EE JUMP JUMPDEST SWAP4 POP DUP4 PUSH1 0x20 DUP3 MUL DUP6 ADD PUSH2 0xAEC DUP6 PUSH2 0x8FF JUMP JUMPDEST DUP1 PUSH1 0x0 JUMPDEST DUP6 DUP2 LT ISZERO PUSH2 0xB28 JUMPI DUP5 DUP5 SUB DUP10 MSTORE DUP2 MLOAD PUSH2 0xB09 DUP6 DUP3 PUSH2 0xAA4 JUMP JUMPDEST SWAP5 POP PUSH2 0xB14 DUP4 PUSH2 0xAB8 JUMP JUMPDEST SWAP3 POP PUSH1 0x20 DUP11 ADD SWAP10 POP POP PUSH1 0x1 DUP2 ADD SWAP1 POP PUSH2 0xAF0 JUMP JUMPDEST POP DUP3 SWAP8 POP DUP8 SWAP6 POP POP POP POP POP POP SWAP3 SWAP2 POP POP JUMP JUMPDEST PUSH1 0x0 PUSH1 0x20 DUP3 ADD SWAP1 POP DUP2 DUP2 SUB PUSH1 0x0 DUP4 ADD MSTORE PUSH2 0xB54 DUP2 DUP5 PUSH2 0xAC5 JUMP JUMPDEST SWAP1 POP SWAP3 SWAP2 POP POP JUMP JUMPDEST PUSH1 0x0 PUSH1 0x40 MLOAD SWAP1 POP SWAP1 JUMP JUMPDEST PUSH1 0x0 DUP1 REVERT JUMPDEST PUSH1 0x0 DUP1 REVERT JUMPDEST PUSH2 0xB79 DUP2 PUSH2 0x90F JUMP JUMPDEST DUP2 EQ PUSH2 0xB84 JUMPI PUSH1 0x0 DUP1 REVERT JUMPDEST POP JUMP JUMPDEST PUSH1 0x0 DUP2 CALLDATALOAD SWAP1 POP PUSH2 0xB96 DUP2 PUSH2 0xB70 JUMP JUMPDEST SWAP3 SWAP2 POP POP JUMP JUMPDEST PUSH1 0x0 DUP1 REVERT JUMPDEST PUSH1 0x0 DUP1 REVERT JUMPDEST PUSH32 0x4E487B7100000000000000000000000000000000000000000000000000000000 PUSH1 0x0 MSTORE PUSH1 0x41 PUSH1 0x4 MSTORE PUSH1 0x24 PUSH1 0x0 REVERT JUMPDEST PUSH2 0xBDE DUP3 PUSH2 0x96E JUMP JUMPDEST DUP2 ADD DUP2 DUP2 LT PUSH8 0xFFFFFFFFFFFFFFFF DUP3 GT OR ISZERO PUSH2 0xBFD JUMPI PUSH2 0xBFC PUSH2 0xBA6 JUMP JUMPDEST JUMPDEST DUP1 PUSH1 0x40 MSTORE POP POP POP JUMP JUMPDEST PUSH1 0x0 PUSH2 0xC10 PUSH2 0xB5C JUMP JUMPDEST SWAP1 POP PUSH2 0xC1C DUP3 DUP3 PUSH2 0xBD5 JUMP JUMPDEST SWAP2 SWAP1 POP JUMP JUMPDEST PUSH1 0x0 PUSH8 0xFFFFFFFFFFFFFFFF DUP3 GT ISZERO PUSH2 0xC3C JUMPI PUSH2 0xC3B PUSH2 0xBA6 JUMP JUMPDEST JUMPDEST PUSH2 0xC45 DUP3 PUSH2 0x96E JUMP JUMPDEST SWAP1 POP PUSH1 0x20 DUP2 ADD SWAP1 POP SWAP2 SWAP1 POP JUMP JUMPDEST DUP3 DUP2 DUP4 CALLDATACOPY PUSH1 0x0 DUP4 DUP4 ADD MSTORE POP POP POP JUMP JUMPDEST PUSH1 0x0 PUSH2 0xC74 PUSH2 0xC6F DUP5 PUSH2 0xC21 JUMP JUMPDEST PUSH2 0xC06 JUMP JUMPDEST SWAP1 POP DUP3 DUP2 MSTORE PUSH1 0x20 DUP2 ADD DUP5 DUP5 DUP5 ADD GT ISZERO PUSH2 0xC90 JUMPI PUSH2 0xC8F PUSH2 0xBA1 JUMP JUMPDEST JUMPDEST PUSH2 0xC9B DUP5 DUP3 DUP6 PUSH2 0xC52 JUMP JUMPDEST POP SWAP4 SWAP3 POP POP POP JUMP JUMPDEST PUSH1 0x0 DUP3 PUSH1 0x1F DUP4 ADD SLT PUSH2 0xCB8 JUMPI PUSH2 0xCB7 PUSH2 0xB9C JUMP JUMPDEST JUMPDEST DUP2 CALLDATALOAD PUSH2 0xCC8 DUP5 DUP3 PUSH1 0x20 DUP7 ADD PUSH2 0xC61 JUMP JUMPDEST SWAP2 POP POP SWAP3 SWAP2 POP POP JUMP JUMPDEST PUSH1 0x0 DUP1 PUSH1 0x0 DUP1 PUSH1 0x80 DUP6 DUP8 SUB SLT ISZERO PUSH2 0xCEB JUMPI PUSH2 0xCEA PUSH2 0xB66 JUMP JUMPDEST JUMPDEST PUSH1 0x0 PUSH2 0xCF9 DUP8 DUP3 DUP9 ADD PUSH2 0xB87 JUMP JUMPDEST SWAP5 POP POP PUSH1 0x20 DUP6 ADD CALLDATALOAD PUSH8 0xFFFFFFFFFFFFFFFF DUP2 GT ISZERO PUSH2 0xD1A JUMPI PUSH2 0xD19 PUSH2 0xB6B JUMP JUMPDEST JUMPDEST PUSH2 0xD26 DUP8 DUP3 DUP9 ADD PUSH2 0xCA3 JUMP JUMPDEST SWAP4 POP POP PUSH1 0x40 PUSH2 0xD37 DUP8 DUP3 DUP9 ADD PUSH2 0xB87 JUMP JUMPDEST SWAP3 POP POP PUSH1 0x60 DUP6 ADD CALLDATALOAD PUSH8 0xFFFFFFFFFFFFFFFF DUP2 GT ISZERO PUSH2 0xD58 JUMPI PUSH2 0xD57 PUSH2 0xB6B JUMP JUMPDEST JUMPDEST PUSH2 0xD64 DUP8 DUP3 DUP9 ADD PUSH2 0xCA3 JUMP JUMPDEST SWAP2 POP POP SWAP3 SWAP6 SWAP2 SWAP5 POP SWAP3 POP JUMP JUMPDEST PUSH1 0x0 DUP1 PUSH1 0x0 DUP1 PUSH1 0x80 DUP6 DUP8 SUB SLT ISZERO PUSH2 0xD8A JUMPI PUSH2 0xD89 PUSH2 0xB66 JUMP JUMPDEST JUMPDEST PUSH1 0x0 DUP6 ADD CALLDATALOAD PUSH8 0xFFFFFFFFFFFFFFFF DUP2 GT ISZERO PUSH2 0xDA8 JUMPI PUSH2 0xDA7 PUSH2 0xB6B JUMP JUMPDEST JUMPDEST PUSH2 0xDB4 DUP8 DUP3 DUP9 ADD PUSH2 0xCA3 JUMP JUMPDEST SWAP5 POP POP PUSH1 0x20 DUP6 ADD CALLDATALOAD PUSH8 0xFFFFFFFFFFFFFFFF DUP2 GT ISZERO PUSH2 0xDD5 JUMPI PUSH2 0xDD4 PUSH2 0xB6B JUMP JUMPDEST JUMPDEST PUSH2 0xDE1 DUP8 DUP3 DUP9 ADD PUSH2 0xCA3 JUMP JUMPDEST SWAP4 POP POP PUSH1 0x40 PUSH2 0xDF2 DUP8 DUP3 DUP9 ADD PUSH2 0xB87 JUMP JUMPDEST SWAP3 POP POP PUSH1 0x60 DUP6 ADD CALLDATALOAD PUSH8 0xFFFFFFFFFFFFFFFF DUP2 GT ISZERO PUSH2 0xE13 JUMPI PUSH2 0xE12 PUSH2 0xB6B JUMP JUMPDEST JUMPDEST PUSH2 0xE1F DUP8 DUP3 DUP9 ADD PUSH2 0xCA3 JUMP JUMPDEST SWAP2 POP POP SWAP3 SWAP6 SWAP2 SWAP5 POP SWAP3 POP JUMP JUMPDEST PUSH1 0x0 DUP2 SWAP1 POP SWAP2 SWAP1 POP JUMP JUMPDEST PUSH1 0x0 PUSH2 0xE50 PUSH2 0xE4B PUSH2 0xE46 DUP5 PUSH2 0x9B8 JUMP JUMPDEST PUSH2 0xE2B JUMP JUMPDEST PUSH2 0x9B8 JUMP JUMPDEST SWAP1 POP SWAP2 SWAP1 POP JUMP JUMPDEST PUSH1 0x0 PUSH2 0xE62 DUP3 PUSH2 0xE35 JUMP JUMPDEST SWAP1 POP SWAP2 SWAP1 POP JUMP JUMPDEST PUSH1 0x0 PUSH2 0xE74 DUP3 PUSH2 0xE57 JUMP JUMPDEST SWAP1 POP SWAP2 SWAP1 POP JUMP JUMPDEST PUSH2 0xE84 DUP2 PUSH2 0xE69 JUMP JUMPDEST DUP3 MSTORE POP POP JUMP JUMPDEST PUSH1 0x0 PUSH1 0x20 DUP3 ADD SWAP1 POP PUSH2 0xE9F PUSH1 0x0 DUP4 ADD DUP5 PUSH2 0xE7B JUMP JUMPDEST SWAP3 SWAP2 POP POP JUMP JUMPDEST PUSH1 0x0 PUSH1 0x20 DUP3 DUP5 SUB SLT ISZERO PUSH2 0xEBB JUMPI PUSH2 0xEBA PUSH2 0xB66 JUMP JUMPDEST JUMPDEST PUSH1 0x0 DUP3 ADD CALLDATALOAD PUSH8 0xFFFFFFFFFFFFFFFF DUP2 GT ISZERO PUSH2 0xED9 JUMPI PUSH2 0xED8 PUSH2 0xB6B JUMP JUMPDEST JUMPDEST PUSH2 0xEE5 DUP5 DUP3 DUP6 ADD PUSH2 0xCA3 JUMP JUMPDEST SWAP2 POP POP SWAP3 SWAP2 POP POP JUMP JUMPDEST PUSH1 0x0 DUP2 MLOAD SWAP1 POP SWAP2 SWAP1 POP JUMP JUMPDEST PUSH1 0x0 DUP3 DUP3 MSTORE PUSH1 0x20 DUP3 ADD SWAP1 POP SWAP3 SWAP2 POP POP JUMP JUMPDEST PUSH1 0x0 DUP2 SWAP1 POP PUSH1 0x20 DUP3 ADD SWAP1 POP SWAP2 SWAP1 POP JUMP JUMPDEST PUSH1 0x0 PUSH1 0xE0 DUP4 ADD PUSH1 0x0 DUP4 ADD MLOAD PUSH2 0xF32 PUSH1 0x0 DUP7 ADD DUP3 PUSH2 0x919 JUMP JUMPDEST POP PUSH1 0x20 DUP4 ADD MLOAD DUP5 DUP3 SUB PUSH1 0x20 DUP7 ADD MSTORE PUSH2 0xF4A DUP3 DUP3 PUSH2 0x97F JUMP JUMPDEST SWAP2 POP POP PUSH1 0x40 DUP4 ADD MLOAD PUSH2 0xF5F PUSH1 0x40 DUP7 ADD DUP3 PUSH2 0x9EA JUMP JUMPDEST POP PUSH1 0x60 DUP4 ADD MLOAD DUP5 DUP3 SUB PUSH1 0x60 DUP7 ADD MSTORE PUSH2 0xF77 DUP3 DUP3 PUSH2 0x97F JUMP JUMPDEST SWAP2 POP POP PUSH1 0x80 DUP4 ADD MLOAD PUSH2 0xF8C PUSH1 0x80 DUP7 ADD DUP3 PUSH2 0x919 JUMP JUMPDEST POP PUSH1 0xA0 DUP4 ADD MLOAD DUP5 DUP3 SUB PUSH1 0xA0 DUP7 ADD MSTORE PUSH2 0xFA4 DUP3 DUP3 PUSH2 0x97F JUMP JUMPDEST SWAP2 POP POP PUSH1 0xC0 DUP4 ADD MLOAD PUSH2 0xFB9 PUSH1 0xC0 DUP7 ADD DUP3 PUSH2 0xA05 JUMP JUMPDEST POP DUP1 SWAP2 POP POP SWAP3 SWAP2 POP POP JUMP JUMPDEST PUSH1 0x0 PUSH2 0xFD0 DUP4 DUP4 PUSH2 0xF1A JUMP JUMPDEST SWAP1 POP SWAP3 SWAP2 POP POP JUMP JUMPDEST PUSH1 0x0 PUSH1 0x20 DUP3 ADD SWAP1 POP SWAP2 SWAP1 POP JUMP JUMPDEST PUSH1 0x0 PUSH2 0xFF0 DUP3 PUSH2 0xEEE JUMP JUMPDEST PUSH2 0xFFA DUP2 DUP6 PUSH2 0xEF9 JUMP JUMPDEST SWAP4 POP DUP4 PUSH1 0x20 DUP3 MUL DUP6 ADD PUSH2 0x100C DUP6 PUSH2 0xF0A JUMP JUMPDEST DUP1 PUSH1 0x0 JUMPDEST DUP6 DUP2 LT ISZERO PUSH2 0x1048 JUMPI DUP5 DUP5 SUB DUP10 MSTORE DUP2 MLOAD PUSH2 0x1029 DUP6 DUP3 PUSH2 0xFC4 JUMP JUMPDEST SWAP5 POP PUSH2 0x1034 DUP4 PUSH2 0xFD8 JUMP JUMPDEST SWAP3 POP PUSH1 0x20 DUP11 ADD SWAP10 POP POP PUSH1 0x1 DUP2 ADD SWAP1 POP PUSH2 0x1010 JUMP JUMPDEST POP DUP3 SWAP8 POP DUP8 SWAP6 POP POP POP POP POP POP SWAP3 SWAP2 POP POP JUMP JUMPDEST PUSH1 0x0 PUSH1 0x20 DUP3 ADD SWAP1 POP DUP2 DUP2 SUB PUSH1 0x0 DUP4 ADD MSTORE PUSH2 0x1074 DUP2 DUP5 PUSH2 0xFE5 JUMP JUMPDEST SWAP1 POP SWAP3 SWAP2 POP POP JUMP JUMPDEST PUSH1 0x0 PUSH2 0x1087 DUP3 PUSH2 0xE57 JUMP JUMPDEST SWAP1 POP SWAP2 SWAP1 POP JUMP JUMPDEST PUSH2 0x1097 DUP2 PUSH2 0x107C JUMP JUMPDEST DUP3 MSTORE POP POP JUMP JUMPDEST PUSH1 0x0 PUSH1 0x20 DUP3 ADD SWAP1 POP PUSH2 0x10B2 PUSH1 0x0 DUP4 ADD DUP5 PUSH2 0x108E JUMP JUMPDEST SWAP3 SWAP2 POP POP JUMP JUMPDEST PUSH2 0x10C1 DUP2 PUSH2 0x9D8 JUMP JUMPDEST DUP3 MSTORE POP POP JUMP JUMPDEST PUSH1 0x0 PUSH1 0x20 DUP3 ADD SWAP1 POP PUSH2 0x10DC PUSH1 0x0 DUP4 ADD DUP5 PUSH2 0x10B8 JUMP JUMPDEST SWAP3 SWAP2 POP POP JUMP JUMPDEST PUSH1 0x0 PUSH2 0x10ED DUP3 PUSH2 0xE57 JUMP JUMPDEST SWAP1 POP SWAP2 SWAP1 POP JUMP JUMPDEST PUSH2 0x10FD DUP2 PUSH2 0x10E2 JUMP JUMPDEST DUP3 MSTORE POP POP JUMP JUMPDEST PUSH1 0x0 PUSH1 0x20 DUP3 ADD SWAP1 POP PUSH2 0x1118 PUSH1 0x0 DUP4 ADD DUP5 PUSH2 0x10F4 JUMP JUMPDEST SWAP3 SWAP2 POP POP JUMP JUMPDEST PUSH1 0x0 DUP2 MLOAD SWAP1 POP SWAP2 SWAP1 POP JUMP JUMPDEST PUSH1 0x0 DUP3 DUP3 MSTORE PUSH1 0x20 DUP3 ADD SWAP1 POP SWAP3 SWAP2 POP POP JUMP JUMPDEST PUSH1 0x0 DUP2 SWAP1 POP PUSH1 0x20 DUP3 ADD SWAP1 POP SWAP2 SWAP1 POP JUMP JUMPDEST PUSH1 0x0 PUSH1 0x60 DUP4 ADD PUSH1 0x0 DUP4 ADD MLOAD PUSH2 0x1162 PUSH1 0x0 DUP7 ADD DUP3 PUSH2 0x919 JUMP JUMPDEST POP PUSH1 0x20 DUP4 ADD MLOAD DUP5 DUP3 SUB PUSH1 0x20 DUP7 ADD MSTORE PUSH2 0x117A DUP3 DUP3 PUSH2 0x97F JUMP JUMPDEST SWAP2 POP POP PUSH1 0x40 DUP4 ADD MLOAD PUSH2 0x118F PUSH1 0x40 DUP7 ADD DUP3 PUSH2 0xA05 JUMP JUMPDEST POP DUP1 SWAP2 POP POP SWAP3 SWAP2 POP POP JUMP JUMPDEST PUSH1 0x0 PUSH2 0x11A6 DUP4 DUP4 PUSH2 0x114A JUMP JUMPDEST SWAP1 POP SWAP3 SWAP2 POP POP JUMP JUMPDEST PUSH1 0x0 PUSH1 0x20 DUP3 ADD SWAP1 POP SWAP2 SWAP1 POP JUMP JUMPDEST PUSH1 0x0 PUSH2 0x11C6 DUP3 PUSH2 0x111E JUMP JUMPDEST PUSH2 0x11D0 DUP2 DUP6 PUSH2 0x1129 JUMP JUMPDEST SWAP4 POP DUP4 PUSH1 0x20 DUP3 MUL DUP6 ADD PUSH2 0x11E2 DUP6 PUSH2 0x113A JUMP JUMPDEST DUP1 PUSH1 0x0 JUMPDEST DUP6 DUP2 LT ISZERO PUSH2 0x121E JUMPI DUP5 DUP5 SUB DUP10 MSTORE DUP2 MLOAD PUSH2 0x11FF DUP6 DUP3 PUSH2 0x119A JUMP JUMPDEST SWAP5 POP PUSH2 0x120A DUP4 PUSH2 0x11AE JUMP JUMPDEST SWAP3 POP PUSH1 0x20 DUP11 ADD SWAP10 POP POP PUSH1 0x1 DUP2 ADD SWAP1 POP PUSH2 0x11E6 JUMP JUMPDEST POP DUP3 SWAP8 POP DUP8 SWAP6 POP POP POP POP POP POP SWAP3 SWAP2 POP POP JUMP JUMPDEST PUSH1 0x0 PUSH1 0x20 DUP3 ADD SWAP1 POP DUP2 DUP2 SUB PUSH1 0x0 DUP4 ADD MSTORE PUSH2 0x124A DUP2 DUP5 PUSH2 0x11BB JUMP JUMPDEST SWAP1 POP SWAP3 SWAP2 POP POP JUMP JUMPDEST PUSH2 0x125B DUP2 PUSH2 0x9D8 JUMP JUMPDEST DUP2 EQ PUSH2 0x1266 JUMPI PUSH1 0x0 DUP1 REVERT JUMPDEST POP JUMP JUMPDEST PUSH1 0x0 DUP2 CALLDATALOAD SWAP1 POP PUSH2 0x1278 DUP2 PUSH2 0x1252 JUMP JUMPDEST SWAP3 SWAP2 POP POP JUMP JUMPDEST PUSH1 0x0 PUSH1 0x20 DUP3 DUP5 SUB SLT ISZERO PUSH2 0x1294 JUMPI PUSH2 0x1293 PUSH2 0xB66 JUMP JUMPDEST JUMPDEST PUSH1 0x0 PUSH2 0x12A2 DUP5 DUP3 DUP6 ADD PUSH2 0x1269 JUMP JUMPDEST SWAP2 POP POP SWAP3 SWAP2 POP POP JUMP JUMPDEST PUSH1 0x0 PUSH8 0xFFFFFFFFFFFFFFFF DUP3 GT ISZERO PUSH2 0x12C6 JUMPI PUSH2 0x12C5 PUSH2 0xBA6 JUMP JUMPDEST JUMPDEST PUSH1 0x20 DUP3 MUL SWAP1 POP PUSH1 0x20 DUP2 ADD SWAP1 POP SWAP2 SWAP1 POP JUMP JUMPDEST PUSH1 0x0 DUP1 REVERT JUMPDEST PUSH1 0x0 DUP1 REVERT JUMPDEST PUSH1 0x0 DUP1 REVERT JUMPDEST PUSH1 0x0 DUP2 MLOAD SWAP1 POP PUSH2 0x12F5 DUP2 PUSH2 0xB70 JUMP JUMPDEST SWAP3 SWAP2 POP POP JUMP JUMPDEST PUSH1 0x0 PUSH2 0x130E PUSH2 0x1309 DUP5 PUSH2 0xC21 JUMP JUMPDEST PUSH2 0xC06 JUMP JUMPDEST SWAP1 POP DUP3 DUP2 MSTORE PUSH1 0x20 DUP2 ADD DUP5 DUP5 DUP5 ADD GT ISZERO PUSH2 0x132A JUMPI PUSH2 0x1329 PUSH2 0xBA1 JUMP JUMPDEST JUMPDEST PUSH2 0x1335 DUP5 DUP3 DUP6 PUSH2 0x944 JUMP JUMPDEST POP SWAP4 SWAP3 POP POP POP JUMP JUMPDEST PUSH1 0x0 DUP3 PUSH1 0x1F DUP4 ADD SLT PUSH2 0x1352 JUMPI PUSH2 0x1351 PUSH2 0xB9C JUMP JUMPDEST JUMPDEST DUP2 MLOAD PUSH2 0x1362 DUP5 DUP3 PUSH1 0x20 DUP7 ADD PUSH2 0x12FB JUMP JUMPDEST SWAP2 POP POP SWAP3 SWAP2 POP POP JUMP JUMPDEST PUSH1 0x0 DUP2 MLOAD SWAP1 POP PUSH2 0x137A DUP2 PUSH2 0x1252 JUMP JUMPDEST SWAP3 SWAP2 POP POP JUMP JUMPDEST PUSH2 0x1389 DUP2 PUSH2 0x9F9 JUMP JUMPDEST DUP2 EQ PUSH2 0x1394 JUMPI PUSH1 0x0 DUP1 REVERT JUMPDEST POP JUMP JUMPDEST PUSH1 0x0 DUP2 MLOAD SWAP1 POP PUSH2 0x13A6 DUP2 PUSH2 0x1380 JUMP JUMPDEST SWAP3 SWAP2 POP POP JUMP JUMPDEST PUSH1 0x0 PUSH1 0xC0 DUP3 DUP5 SUB SLT ISZERO PUSH2 0x13C2 JUMPI PUSH2 0x13C1 PUSH2 0x12DC JUMP JUMPDEST JUMPDEST PUSH2 0x13CC PUSH1 0xC0 PUSH2 0xC06 JUMP JUMPDEST SWAP1 POP PUSH1 0x0 PUSH2 0x13DC DUP5 DUP3 DUP6 ADD PUSH2 0x12E6 JUMP JUMPDEST PUSH1 0x0 DUP4 ADD MSTORE POP PUSH1 0x20 DUP3 ADD MLOAD PUSH8 0xFFFFFFFFFFFFFFFF DUP2 GT ISZERO PUSH2 0x1400 JUMPI PUSH2 0x13FF PUSH2 0x12E1 JUMP JUMPDEST JUMPDEST PUSH2 0x140C DUP5 DUP3 DUP6 ADD PUSH2 0x133D JUMP JUMPDEST PUSH1 0x20 DUP4 ADD MSTORE POP PUSH1 0x40 PUSH2 0x1420 DUP5 DUP3 DUP6 ADD PUSH2 0x136B JUMP JUMPDEST PUSH1 0x40 DUP4 ADD MSTORE POP PUSH1 0x60 PUSH2 0x1434 DUP5 DUP3 DUP6 ADD PUSH2 0x12E6 JUMP JUMPDEST PUSH1 0x60 DUP4 ADD MSTORE POP PUSH1 0x80 DUP3 ADD MLOAD PUSH8 0xFFFFFFFFFFFFFFFF DUP2 GT ISZERO PUSH2 0x1458 JUMPI PUSH2 0x1457 PUSH2 0x12E1 JUMP JUMPDEST JUMPDEST PUSH2 0x1464 DUP5 DUP3 DUP6 ADD PUSH2 0x133D JUMP JUMPDEST PUSH1 0x80 DUP4 ADD MSTORE POP PUSH1 0xA0 PUSH2 0x1478 DUP5 DUP3 DUP6 ADD PUSH2 0x1397 JUMP JUMPDEST PUSH1 0xA0 DUP4 ADD MSTORE POP SWAP3 SWAP2 POP POP JUMP JUMPDEST PUSH1 0x0 PUSH2 0x1497 PUSH2 0x1492 DUP5 PUSH2 0x12AB JUMP JUMPDEST PUSH2 0xC06 JUMP JUMPDEST SWAP1 POP DUP1 DUP4 DUP3 MSTORE PUSH1 0x20 DUP3 ADD SWAP1 POP PUSH1 0x20 DUP5 MUL DUP4 ADD DUP6 DUP2 GT ISZERO PUSH2 0x14BA JUMPI PUSH2 0x14B9 PUSH2 0x12D7 JUMP JUMPDEST JUMPDEST DUP4 JUMPDEST DUP2 DUP2 LT ISZERO PUSH2 0x1501 JUMPI DUP1 MLOAD PUSH8 0xFFFFFFFFFFFFFFFF DUP2 GT ISZERO PUSH2 0x14DF JUMPI PUSH2 0x14DE PUSH2 0xB9C JUMP JUMPDEST JUMPDEST DUP1 DUP7 ADD PUSH2 0x14EC DUP10 DUP3 PUSH2 0x13AC JUMP JUMPDEST DUP6 MSTORE PUSH1 0x20 DUP6 ADD SWAP5 POP POP POP PUSH1 0x20 DUP2 ADD SWAP1 POP PUSH2 0x14BC JUMP JUMPDEST POP POP POP SWAP4 SWAP3 POP POP POP JUMP JUMPDEST PUSH1 0x0 DUP3 PUSH1 0x1F DUP4 ADD SLT PUSH2 0x1520 JUMPI PUSH2 0x151F PUSH2 0xB9C JUMP JUMPDEST JUMPDEST DUP2 MLOAD PUSH2 0x1530 DUP5 DUP3 PUSH1 0x20 DUP7 ADD PUSH2 0x1484 JUMP JUMPDEST SWAP2 POP POP SWAP3 SWAP2 POP POP JUMP JUMPDEST PUSH1 0x0 PUSH1 0x20 DUP3 DUP5 SUB SLT ISZERO PUSH2 0x154F JUMPI PUSH2 0x154E PUSH2 0xB66 JUMP JUMPDEST JUMPDEST PUSH1 0x0 DUP3 ADD MLOAD PUSH8 0xFFFFFFFFFFFFFFFF DUP2 GT ISZERO PUSH2 0x156D JUMPI PUSH2 0x156C PUSH2 0xB6B JUMP JUMPDEST JUMPDEST PUSH2 0x1579 DUP5 DUP3 DUP6 ADD PUSH2 0x150B JUMP JUMPDEST SWAP2 POP POP SWAP3 SWAP2 POP POP JUMP JUMPDEST PUSH1 0x0 PUSH1 0xC0 DUP4 ADD PUSH1 0x0 DUP4 ADD MLOAD PUSH2 0x159A PUSH1 0x0 DUP7 ADD DUP3 PUSH2 0x919 JUMP JUMPDEST POP PUSH1 0x20 DUP4 ADD MLOAD DUP5 DUP3 SUB PUSH1 0x20 DUP7 ADD MSTORE PUSH2 0x15B2 DUP3 DUP3 PUSH2 0x97F JUMP JUMPDEST SWAP2 POP POP PUSH1 0x40 DUP4 ADD MLOAD PUSH2 0x15C7 PUSH1 0x40 DUP7 ADD DUP3 PUSH2 0x9EA JUMP JUMPDEST POP PUSH1 0x60 DUP4 ADD MLOAD PUSH2 0x15DA PUSH1 0x60 DUP7 ADD DUP3 PUSH2 0x919 JUMP JUMPDEST POP PUSH1 0x80 DUP4 ADD MLOAD DUP5 DUP3 SUB PUSH1 0x80 DUP7 ADD MSTORE PUSH2 0x15F2 DUP3 DUP3 PUSH2 0x97F JUMP JUMPDEST SWAP2 POP POP PUSH1 0xA0 DUP4 ADD MLOAD PUSH2 0x1607 PUSH1 0xA0 DUP7 ADD DUP3 PUSH2 0xA05 JUMP JUMPDEST POP DUP1 SWAP2 POP POP SWAP3 SWAP2 POP POP JUMP JUMPDEST PUSH1 0x0 PUSH1 0x20 DUP3 ADD SWAP1 POP DUP2 DUP2 SUB PUSH1 0x0 DUP4 ADD MSTORE PUSH2 0x162C DUP2 DUP5 PUSH2 0x1582 JUMP JUMPDEST SWAP1 POP SWAP3 SWAP2 POP POP JUMP JUMPDEST PUSH1 0x0 PUSH1 0xE0 DUP4 ADD PUSH1 0x0 DUP4 ADD MLOAD PUSH2 0x164C PUSH1 0x0 DUP7 ADD DUP3 PUSH2 0x919 JUMP JUMPDEST POP PUSH1 0x20 DUP4 ADD MLOAD DUP5 DUP3 SUB PUSH1 0x20 DUP7 ADD MSTORE PUSH2 0x1664 DUP3 DUP3 PUSH2 0x97F JUMP JUMPDEST SWAP2 POP POP PUSH1 0x40 DUP4 ADD MLOAD PUSH2 0x1679 PUSH1 0x40 DUP7 ADD DUP3 PUSH2 0x9EA JUMP JUMPDEST POP PUSH1 0x60 DUP4 ADD MLOAD DUP5 DUP3 SUB PUSH1 0x60 DUP7 ADD MSTORE PUSH2 0x1691 DUP3 DUP3 PUSH2 0x97F JUMP JUMPDEST SWAP2 POP POP PUSH1 0x80 DUP4 ADD MLOAD PUSH2 0x16A6 PUSH1 0x80 DUP7 ADD DUP3 PUSH2 0x919 JUMP JUMPDEST POP PUSH1 0xA0 DUP4 ADD MLOAD DUP5 DUP3 SUB PUSH1 0xA0 DUP7 ADD MSTORE PUSH2 0x16BE DUP3 DUP3 PUSH2 0x97F JUMP JUMPDEST SWAP2 POP POP PUSH1 0xC0 DUP4 ADD MLOAD PUSH2 0x16D3 PUSH1 0xC0 DUP7 ADD DUP3 PUSH2 0xA05 JUMP JUMPDEST POP DUP1 SWAP2 POP POP SWAP3 SWAP2 POP POP JUMP JUMPDEST PUSH1 0x0 PUSH1 0x20 DUP3 ADD SWAP1 POP DUP2 DUP2 SUB PUSH1 0x0 DUP4 ADD MSTORE PUSH2 0x16F8 DUP2 DUP5 PUSH2 0x1634 JUMP JUMPDEST SWAP1 POP SWAP3 SWAP2 POP POP JUMP JUMPDEST PUSH1 0x0 PUSH1 0x60 DUP4 ADD PUSH1 0x0 DUP4 ADD MLOAD PUSH2 0x1718 PUSH1 0x0 DUP7 ADD DUP3 PUSH2 0x919 JUMP JUMPDEST POP PUSH1 0x20 DUP4 ADD MLOAD DUP5 DUP3 SUB PUSH1 0x20 DUP7 ADD MSTORE PUSH2 0x1730 DUP3 DUP3 PUSH2 0x97F JUMP JUMPDEST SWAP2 POP POP PUSH1 0x40 DUP4 ADD MLOAD PUSH2 0x1745 PUSH1 0x40 DUP7 ADD DUP3 PUSH2 0xA05 JUMP JUMPDEST POP DUP1 SWAP2 POP POP SWAP3 SWAP2 POP POP JUMP JUMPDEST PUSH1 0x0 PUSH1 0x20 DUP3 ADD SWAP1 POP DUP2 DUP2 SUB PUSH1 0x0 DUP4 ADD MSTORE PUSH2 0x176A DUP2 DUP5 PUSH2 0x1700 JUMP JUMPDEST SWAP1 POP SWAP3 SWAP2 POP POP JUMP JUMPDEST PUSH1 0x0 PUSH8 0xFFFFFFFFFFFFFFFF DUP3 GT ISZERO PUSH2 0x178D JUMPI PUSH2 0x178C PUSH2 0xBA6 JUMP JUMPDEST JUMPDEST PUSH1 0x20 DUP3 MUL SWAP1 POP PUSH1 0x20 DUP2 ADD SWAP1 POP SWAP2 SWAP1 POP JUMP JUMPDEST PUSH1 0x0 PUSH1 0xE0 DUP3 DUP5 SUB SLT ISZERO PUSH2 0x17B4 JUMPI PUSH2 0x17B3 PUSH2 0x12DC JUMP JUMPDEST JUMPDEST PUSH2 0x17BE PUSH1 0xE0 PUSH2 0xC06 JUMP JUMPDEST SWAP1 POP PUSH1 0x0 PUSH2 0x17CE DUP5 DUP3 DUP6 ADD PUSH2 0x12E6 JUMP JUMPDEST PUSH1 0x0 DUP4 ADD MSTORE POP PUSH1 0x20 DUP3 ADD MLOAD PUSH8 0xFFFFFFFFFFFFFFFF DUP2 GT ISZERO PUSH2 0x17F2 JUMPI PUSH2 0x17F1 PUSH2 0x12E1 JUMP JUMPDEST JUMPDEST PUSH2 0x17FE DUP5 DUP3 DUP6 ADD PUSH2 0x133D JUMP JUMPDEST PUSH1 0x20 DUP4 ADD MSTORE POP PUSH1 0x40 PUSH2 0x1812 DUP5 DUP3 DUP6 ADD PUSH2 0x136B JUMP JUMPDEST PUSH1 0x40 DUP4 ADD MSTORE POP PUSH1 0x60 DUP3 ADD MLOAD PUSH8 0xFFFFFFFFFFFFFFFF DUP2 GT ISZERO PUSH2 0x1836 JUMPI PUSH2 0x1835 PUSH2 0x12E1 JUMP JUMPDEST JUMPDEST PUSH2 0x1842 DUP5 DUP3 DUP6 ADD PUSH2 0x133D JUMP JUMPDEST PUSH1 0x60 DUP4 ADD MSTORE POP PUSH1 0x80 PUSH2 0x1856 DUP5 DUP3 DUP6 ADD PUSH2 0x12E6 JUMP JUMPDEST PUSH1 0x80 DUP4 ADD MSTORE POP PUSH1 0xA0 DUP3 ADD MLOAD PUSH8 0xFFFFFFFFFFFFFFFF DUP2 GT ISZERO PUSH2 0x187A JUMPI PUSH2 0x1879 PUSH2 0x12E1 JUMP JUMPDEST JUMPDEST PUSH2 0x1886 DUP5 DUP3 DUP6 ADD PUSH2 0x133D JUMP JUMPDEST PUSH1 0xA0 DUP4 ADD MSTORE POP PUSH1 0xC0 PUSH2 0x189A DUP5 DUP3 DUP6 ADD PUSH2 0x1397 JUMP JUMPDEST PUSH1 0xC0 DUP4 ADD MSTORE POP SWAP3 SWAP2 POP POP JUMP JUMPDEST PUSH1 0x0 PUSH2 0x18B9 PUSH2 0x18B4 DUP5 PUSH2 0x1772 JUMP JUMPDEST PUSH2 0xC06 JUMP JUMPDEST SWAP1 POP DUP1 DUP4 DUP3 MSTORE PUSH1 0x20 DUP3 ADD SWAP1 POP PUSH1 0x20 DUP5 MUL DUP4 ADD DUP6 DUP2 GT ISZERO PUSH2 0x18DC JUMPI PUSH2 0x18DB PUSH2 0x12D7 JUMP JUMPDEST JUMPDEST DUP4 JUMPDEST DUP2 DUP2 LT ISZERO PUSH2 0x1923 JUMPI DUP1 MLOAD PUSH8 0xFFFFFFFFFFFFFFFF DUP2 GT ISZERO PUSH2 0x1901 JUMPI PUSH2 0x1900 PUSH2 0xB9C JUMP JUMPDEST JUMPDEST DUP1 DUP7 ADD PUSH2 0x190E DUP10 DUP3 PUSH2 0x179E JUMP JUMPDEST DUP6 MSTORE PUSH1 0x20 DUP6 ADD SWAP5 POP POP POP PUSH1 0x20 DUP2 ADD SWAP1 POP PUSH2 0x18DE JUMP JUMPDEST POP POP POP SWAP4 SWAP3 POP POP POP JUMP JUMPDEST PUSH1 0x0 DUP3 PUSH1 0x1F DUP4 ADD SLT PUSH2 0x1942 JUMPI PUSH2 0x1941 PUSH2 0xB9C JUMP JUMPDEST JUMPDEST DUP2 MLOAD PUSH2 0x1952 DUP5 DUP3 PUSH1 0x20 DUP7 ADD PUSH2 0x18A6 JUMP JUMPDEST SWAP2 POP POP SWAP3 SWAP2 POP POP JUMP JUMPDEST PUSH1 0x0 PUSH1 0x20 DUP3 DUP5 SUB SLT ISZERO PUSH2 0x1971 JUMPI PUSH2 0x1970 PUSH2 0xB66 JUMP JUMPDEST JUMPDEST PUSH1 0x0 DUP3 ADD MLOAD PUSH8 0xFFFFFFFFFFFFFFFF DUP2 GT ISZERO PUSH2 0x198F JUMPI PUSH2 0x198E PUSH2 0xB6B JUMP JUMPDEST JUMPDEST PUSH2 0x199B DUP5 DUP3 DUP6 ADD PUSH2 0x192D JUMP JUMPDEST SWAP2 POP POP SWAP3 SWAP2 POP POP JUMP JUMPDEST PUSH1 0x0 PUSH8 0xFFFFFFFFFFFFFFFF DUP3 GT ISZERO PUSH2 0x19BF JUMPI PUSH2 0x19BE PUSH2 0xBA6 JUMP JUMPDEST JUMPDEST PUSH1 0x20 DUP3 MUL SWAP1 POP PUSH1 0x20 DUP2 ADD SWAP1 POP SWAP2 SWAP1 POP JUMP JUMPDEST PUSH1 0x0 PUSH1 0x60 DUP3 DUP5 SUB SLT ISZERO PUSH2 0x19E6 JUMPI PUSH2 0x19E5 PUSH2 0x12DC JUMP JUMPDEST JUMPDEST PUSH2 0x19F0 PUSH1 0x60 PUSH2 0xC06 JUMP JUMPDEST SWAP1 POP PUSH1 0x0 PUSH2 0x1A00 DUP5 DUP3 DUP6 ADD PUSH2 0x12E6 JUMP JUMPDEST PUSH1 0x0 DUP4 ADD MSTORE POP PUSH1 0x20 DUP3 ADD MLOAD PUSH8 0xFFFFFFFFFFFFFFFF DUP2 GT ISZERO PUSH2 0x1A24 JUMPI PUSH2 0x1A23 PUSH2 0x12E1 JUMP JUMPDEST JUMPDEST PUSH2 0x1A30 DUP5 DUP3 DUP6 ADD PUSH2 0x133D JUMP JUMPDEST PUSH1 0x20 DUP4 ADD MSTORE POP PUSH1 0x40 PUSH2 0x1A44 DUP5 DUP3 DUP6 ADD PUSH2 0x1397 JUMP JUMPDEST PUSH1 0x40 DUP4 ADD MSTORE POP SWAP3 SWAP2 POP POP JUMP JUMPDEST PUSH1 0x0 PUSH2 0x1A63 PUSH2 0x1A5E DUP5 PUSH2 0x19A4 JUMP JUMPDEST PUSH2 0xC06 JUMP JUMPDEST SWAP1 POP DUP1 DUP4 DUP3 MSTORE PUSH1 0x20 DUP3 ADD SWAP1 POP PUSH1 0x20 DUP5 MUL DUP4 ADD DUP6 DUP2 GT ISZERO PUSH2 0x1A86 JUMPI PUSH2 0x1A85 PUSH2 0x12D7 JUMP JUMPDEST JUMPDEST DUP4 JUMPDEST DUP2 DUP2 LT ISZERO PUSH2 0x1ACD JUMPI DUP1 MLOAD PUSH8 0xFFFFFFFFFFFFFFFF DUP2 GT ISZERO PUSH2 0x1AAB JUMPI PUSH2 0x1AAA PUSH2 0xB9C JUMP JUMPDEST JUMPDEST DUP1 DUP7 ADD PUSH2 0x1AB8 DUP10 DUP3 PUSH2 0x19D0 JUMP JUMPDEST DUP6 MSTORE PUSH1 0x20 DUP6 ADD SWAP5 POP POP POP PUSH1 0x20 DUP2 ADD SWAP1 POP PUSH2 0x1A88 JUMP JUMPDEST POP POP POP SWAP4 SWAP3 POP POP POP JUMP JUMPDEST PUSH1 0x0 DUP3 PUSH1 0x1F DUP4 ADD SLT PUSH2 0x1AEC JUMPI PUSH2 0x1AEB PUSH2 0xB9C JUMP JUMPDEST JUMPDEST DUP2 MLOAD PUSH2 0x1AFC DUP5 DUP3 PUSH1 0x20 DUP7 ADD PUSH2 0x1A50 JUMP JUMPDEST SWAP2 POP POP SWAP3 SWAP2 POP POP JUMP JUMPDEST PUSH1 0x0 PUSH1 0x20 DUP3 DUP5 SUB SLT ISZERO PUSH2 0x1B1B JUMPI PUSH2 0x1B1A PUSH2 0xB66 JUMP JUMPDEST JUMPDEST PUSH1 0x0 DUP3 ADD MLOAD PUSH8 0xFFFFFFFFFFFFFFFF DUP2 GT ISZERO PUSH2 0x1B39 JUMPI PUSH2 0x1B38 PUSH2 0xB6B JUMP JUMPDEST JUMPDEST PUSH2 0x1B45 DUP5 DUP3 DUP6 ADD PUSH2 0x1AD7 JUMP JUMPDEST SWAP2 POP POP SWAP3 SWAP2 POP POP JUMP JUMPDEST PUSH1 0x0 DUP3 DUP3 MSTORE PUSH1 0x20 DUP3 ADD SWAP1 POP SWAP3 SWAP2 POP POP JUMP JUMPDEST PUSH32 0x4F776E61626C653A206E6577206F776E657220697320746865207A65726F2061 PUSH1 0x0 DUP3 ADD MSTORE PUSH32 0x6464726573730000000000000000000000000000000000000000000000000000 PUSH1 0x20 DUP3 ADD MSTORE POP JUMP JUMPDEST PUSH1 0x0 PUSH2 0x1BBB PUSH1 0x26 DUP4 PUSH2 0x1B4E JUMP JUMPDEST SWAP2 POP PUSH2 0x1BC6 DUP3 PUSH2 0x1B5F JUMP JUMPDEST PUSH1 0x40 DUP3 ADD SWAP1 POP SWAP2 SWAP1 POP JUMP JUMPDEST PUSH1 0x0 PUSH1 0x20 DUP3 ADD SWAP1 POP DUP2 DUP2 SUB PUSH1 0x0 DUP4 ADD MSTORE PUSH2 0x1BEA DUP2 PUSH2 0x1BAE JUMP JUMPDEST SWAP1 POP SWAP2 SWAP1 POP JUMP JUMPDEST PUSH32 0x4F776E61626C653A2063616C6C6572206973206E6F7420746865206F776E6572 PUSH1 0x0 DUP3 ADD MSTORE POP JUMP JUMPDEST PUSH1 0x0 PUSH2 0x1C27 PUSH1 0x20 DUP4 PUSH2 0x1B4E JUMP JUMPDEST SWAP2 POP PUSH2 0x1C32 DUP3 PUSH2 0x1BF1 JUMP JUMPDEST PUSH1 0x20 DUP3 ADD SWAP1 POP SWAP2 SWAP1 POP JUMP JUMPDEST PUSH1 0x0 PUSH1 0x20 DUP3 ADD SWAP1 POP DUP2 DUP2 SUB PUSH1 0x0 DUP4 ADD MSTORE PUSH2 0x1C56 DUP2 PUSH2 0x1C1A JUMP JUMPDEST SWAP1 POP SWAP2 SWAP1 POP JUMP INVALID LOG2 PUSH5 0x6970667358 0x22 SLT KECCAK256 0xFC PUSH11 0x1CAFEE904ED289E9FD34A6 SWAP3 0xB6 PUSH20 0x1232911D955CE4543F6F981EED6FEC8A64736F6C PUSH4 0x43000811 STOP CALLER "
		},
		"gasEstimates": {
			"creation": {
				"codeDepositCost": "1463000",
				"executionCost": "infinite",
				"totalCost": "infinite"
			},
			"external": {
				"addIngress(string,string,uint256,string)": "infinite",
				"addRough(uint256,string,uint256,string)": "infinite",
				"addWarehouse(string)": "infinite",
				"destroy()": "29972",
				"getAllIngress()": "infinite",
				"getAllRough()": "infinite",
				"getAllWarehouse()": "infinite",
				"ingressDatabase()": "infinite",
				"owner()": "2566",
				"roughDatabase()": "infinite",
				"transferOwnership(address)": "30819",
				"warehouseDatabase()": "infinite"
			}
		},
		"methodIdentifiers": {
			"addIngress(string,string,uint256,string)": "388783a8",
			"addRough(uint256,string,uint256,string)": "20ef7342",
			"addWarehouse(string)": "460f6c7e",
			"destroy()": "83197ef0",
			"getAllIngress()": "69f205f2",
			"getAllRough()": "1f9c0c6f",
			"getAllWarehouse()": "a855a589",
			"ingressDatabase()": "851e12a0",
			"owner()": "8da5cb5b",
			"roughDatabase()": "a382a440",
			"transferOwnership(address)": "f2fde38b",
			"warehouseDatabase()": "3ff328cb"
		}
	},
	"abi": [
		{
			"inputs": [
				{
					"internalType": "address",
					"name": "warehouseDatabaseContractAddress",
					"type": "address"
				},
				{
					"internalType": "address",
					"name": "ingressDatabaseContractAddress",
					"type": "address"
				},
				{
					"internalType": "address",
					"name": "roughDatabaseContractAddress",
					"type": "address"
				}
			],
			"stateMutability": "nonpayable",
			"type": "constructor"
		},
		{
			"anonymous": false,
			"inputs": [
				{
					"indexed": true,
					"internalType": "address",
					"name": "previousOwner",
					"type": "address"
				},
				{
					"indexed": true,
					"internalType": "address",
					"name": "newOwner",
					"type": "address"
				}
			],
			"name": "OwnershipTransferred",
			"type": "event"
		},
		{
			"inputs": [
				{
					"internalType": "string",
					"name": "userName",
					"type": "string"
				},
				{
					"internalType": "string",
					"name": "farmerName",
					"type": "string"
				},
				{
					"internalType": "uint256",
					"name": "ingressDate",
					"type": "uint256"
				},
				{
					"internalType": "string",
					"name": "ingressAddress",
					"type": "string"
				}
			],
			"name": "addIngress",
			"outputs": [],
			"stateMutability": "nonpayable",
			"type": "function"
		},
		{
			"inputs": [
				{
					"internalType": "uint256",
					"name": "batchId",
					"type": "uint256"
				},
				{
					"internalType": "string",
					"name": "userName",
					"type": "string"
				},
				{
					"internalType": "uint256",
					"name": "roughDate",
					"type": "uint256"
				},
				{
					"internalType": "string",
					"name": "roughAddress",
					"type": "string"
				}
			],
			"name": "addRough",
			"outputs": [],
			"stateMutability": "nonpayable",
			"type": "function"
		},
		{
			"inputs": [
				{
					"internalType": "string",
					"name": "warehouseAddress",
					"type": "string"
				}
			],
			"name": "addWarehouse",
			"outputs": [],
			"stateMutability": "nonpayable",
			"type": "function"
		},
		{
			"inputs": [],
			"name": "destroy",
			"outputs": [],
			"stateMutability": "nonpayable",
			"type": "function"
		},
		{
			"inputs": [],
			"name": "getAllIngress",
			"outputs": [
				{
					"components": [
						{
							"internalType": "uint256",
							"name": "batchId",
							"type": "uint256"
						},
						{
							"internalType": "string",
							"name": "userName",
							"type": "string"
						},
						{
							"internalType": "address",
							"name": "userAddress",
							"type": "address"
						},
						{
							"internalType": "string",
							"name": "farmerName",
							"type": "string"
						},
						{
							"internalType": "uint256",
							"name": "ingressDate",
							"type": "uint256"
						},
						{
							"internalType": "string",
							"name": "ingressAddress",
							"type": "string"
						},
						{
							"internalType": "bool",
							"name": "ingressIsChecked",
							"type": "bool"
						}
					],
					"internalType": "struct Ingress[]",
					"name": "",
					"type": "tuple[]"
				}
			],
			"stateMutability": "view",
			"type": "function"
		},
		{
			"inputs": [],
			"name": "getAllRough",
			"outputs": [
				{
					"components": [
						{
							"internalType": "uint256",
							"name": "batchId",
							"type": "uint256"
						},
						{
							"internalType": "string",
							"name": "userName",
							"type": "string"
						},
						{
							"internalType": "address",
							"name": "userAddress",
							"type": "address"
						},
						{
							"internalType": "uint256",
							"name": "roughDate",
							"type": "uint256"
						},
						{
							"internalType": "string",
							"name": "roughAdress",
							"type": "string"
						},
						{
							"internalType": "bool",
							"name": "roughIsChecked",
							"type": "bool"
						}
					],
					"internalType": "struct Rough[]",
					"name": "",
					"type": "tuple[]"
				}
			],
			"stateMutability": "view",
			"type": "function"
		},
		{
			"inputs": [],
			"name": "getAllWarehouse",
			"outputs": [
				{
					"components": [
						{
							"internalType": "uint256",
							"name": "warehouseId",
							"type": "uint256"
						},
						{
							"internalType": "string",
							"name": "warehoustAddress",
							"type": "string"
						},
						{
							"internalType": "bool",
							"name": "warehouseIsChecked",
							"type": "bool"
						}
					],
					"internalType": "struct Warehouse[]",
					"name": "",
					"type": "tuple[]"
				}
			],
			"stateMutability": "view",
			"type": "function"
		},
		{
			"inputs": [],
			"name": "ingressDatabase",
			"outputs": [
				{
					"internalType": "contract IngressDatabase",
					"name": "",
					"type": "address"
				}
			],
			"stateMutability": "view",
			"type": "function"
		},
		{
			"inputs": [],
			"name": "owner",
			"outputs": [
				{
					"internalType": "address",
					"name": "",
					"type": "address"
				}
			],
			"stateMutability": "view",
			"type": "function"
		},
		{
			"inputs": [],
			"name": "roughDatabase",
			"outputs": [
				{
					"internalType": "contract RoughDatabase",
					"name": "",
					"type": "address"
				}
			],
			"stateMutability": "view",
			"type": "function"
		},
		{
			"inputs": [
				{
					"internalType": "address",
					"name": "newOwner",
					"type": "address"
				}
			],
			"name": "transferOwnership",
			"outputs": [],
			"stateMutability": "nonpayable",
			"type": "function"
		},
		{
			"inputs": [],
			"name": "warehouseDatabase",
			"outputs": [
				{
					"internalType": "contract WarehouseDatabase",
					"name": "",
					"type": "address"
				}
			],
			"stateMutability": "view",
			"type": "function"
		}
	]
}