{
	"data": {
		"bytecode": {
			"linkReferences": {},
			"object": "60806040523480156200001157600080fd5b506040516200230d3803806200230d83398181016040528101906200003791906200012b565b80336000806101000a81548173ffffffffffffffffffffffffffffffffffffffff021916908373ffffffffffffffffffffffffffffffffffffffff16021790555080600160006101000a81548173ffffffffffffffffffffffffffffffffffffffff021916908373ffffffffffffffffffffffffffffffffffffffff16021790555050506200015d565b600080fd5b600073ffffffffffffffffffffffffffffffffffffffff82169050919050565b6000620000f382620000c6565b9050919050565b6200010581620000e6565b81146200011157600080fd5b50565b6000815190506200012581620000fa565b92915050565b600060208284031215620001445762000143620000c1565b5b6000620001548482850162000114565b91505092915050565b6121a0806200016d6000396000f3fe608060405234801561001057600080fd5b50600436106100b45760003560e01c80638da5cb5b116100715780638da5cb5b1461017d5780638dab01111461019b5780638f52a0df146101cb578063c1ea13c4146101fb578063e312090b14610219578063f2fde38b14610237576100b4565b80630e8e1029146100b957806330cabb88146100e95780633a2019c1146101075780633cb71d7614610125578063407382851461014357806383197ef014610173575b600080fd5b6100d360048036038101906100ce9190610bea565b610253565b6040516100e09190610c32565b60405180910390f35b6100f1610355565b6040516100fe9190610e30565b60405180910390f35b61010f610420565b60405161011c9190610f84565b60405180910390f35b61012d6104eb565b60405161013a91906110bd565b60405180910390f35b61015d600480360381019061015891906110df565b6105b6565b60405161016a9190610c32565b60405180910390f35b61017b6106b1565b005b6101856106d2565b6040516101929190611155565b60405180910390f35b6101b560048036038101906101b091906112c9565b6106fb565b6040516101c29190610c32565b60405180910390f35b6101e560048036038101906101e09190611338565b6107ef565b6040516101f29190610c32565b60405180910390f35b6102036108f1565b604051610210919061151a565b60405180910390f35b6102216109bc565b60405161022e919061159b565b60405180910390f35b610251600480360381019061024c91906115e2565b6109e2565b005b6000806040518060600160405280600081526020013373ffffffffffffffffffffffffffffffffffffffff168152602001848152509050600160009054906101000a900473ffffffffffffffffffffffffffffffffffffffff1673ffffffffffffffffffffffffffffffffffffffff1663318ee31a827f8e1604a838d0f1a9b2cda14a099e4ceb08e966cc6e05e8296f67b02d61a79f0960001b6040518363ffffffff1660e01b815260040161030a92919061166a565b6020604051808303816000875af1158015610329573d6000803e3d6000fd5b505050506040513d601f19601f8201168201806040525081019061034d91906116bf565b915050919050565b6060600160009054906101000a900473ffffffffffffffffffffffffffffffffffffffff1673ffffffffffffffffffffffffffffffffffffffff1663039704037f8e1604a838d0f1a9b2cda14a099e4ceb08e966cc6e05e8296f67b02d61a79f0960001b6040518263ffffffff1660e01b81526004016103d591906116ec565b600060405180830381865afa1580156103f2573d6000803e3d6000fd5b505050506040513d6000823e3d601f19601f8201168201806040525081019061041b9190611932565b905090565b6060600160009054906101000a900473ffffffffffffffffffffffffffffffffffffffff1673ffffffffffffffffffffffffffffffffffffffff16632ae72d067f8e1604a838d0f1a9b2cda14a099e4ceb08e966cc6e05e8296f67b02d61a79f0960001b6040518263ffffffff1660e01b81526004016104a091906116ec565b600060405180830381865afa1580156104bd573d6000803e3d6000fd5b505050506040513d6000823e3d601f19601f820116820180604052508101906104e69190611ab7565b905090565b6060600160009054906101000a900473ffffffffffffffffffffffffffffffffffffffff1673ffffffffffffffffffffffffffffffffffffffff16631d769a9e7f8e1604a838d0f1a9b2cda14a099e4ceb08e966cc6e05e8296f67b02d61a79f0960001b6040518263ffffffff1660e01b815260040161056b91906116ec565b600060405180830381865afa158015610588573d6000803e3d6000fd5b505050506040513d6000823e3d601f19601f820116820180604052508101906105b19190611c4f565b905090565b6000806040518060a0016040528060008152602001878152602001868152602001858152602001848152509050600160009054906101000a900473ffffffffffffffffffffffffffffffffffffffff1673ffffffffffffffffffffffffffffffffffffffff16634269e28b827f8e1604a838d0f1a9b2cda14a099e4ceb08e966cc6e05e8296f67b02d61a79f0960001b6040518363ffffffff1660e01b8152600401610663929190611d00565b6020604051808303816000875af1158015610682573d6000803e3d6000fd5b505050506040513d601f19601f820116820180604052508101906106a691906116bf565b915050949350505050565b6106b9610a65565b3073ffffffffffffffffffffffffffffffffffffffff16ff5b60008060009054906101000a900473ffffffffffffffffffffffffffffffffffffffff16905090565b600080604051806080016040528060008152602001868152602001858152602001848152509050600160009054906101000a900473ffffffffffffffffffffffffffffffffffffffff1673ffffffffffffffffffffffffffffffffffffffff1663021ca464827f8e1604a838d0f1a9b2cda14a099e4ceb08e966cc6e05e8296f67b02d61a79f0960001b6040518363ffffffff1660e01b81526004016107a2929190611d8c565b6020604051808303816000875af11580156107c1573d6000803e3d6000fd5b505050506040513d601f19601f820116820180604052508101906107e591906116bf565b9150509392505050565b6000806040518060c0016040528060008152602001888152602001878152602001868152602001858152602001848152509050600160009054906101000a900473ffffffffffffffffffffffffffffffffffffffff1673ffffffffffffffffffffffffffffffffffffffff1663cb7c5c50827f8e1604a838d0f1a9b2cda14a099e4ceb08e966cc6e05e8296f67b02d61a79f0960001b6040518363ffffffff1660e01b81526004016108a2929190611e45565b6020604051808303816000875af11580156108c1573d6000803e3d6000fd5b505050506040513d601f19601f820116820180604052508101906108e591906116bf565b91505095945050505050565b6060600160009054906101000a900473ffffffffffffffffffffffffffffffffffffffff1673ffffffffffffffffffffffffffffffffffffffff1663270b38697f8e1604a838d0f1a9b2cda14a099e4ceb08e966cc6e05e8296f67b02d61a79f0960001b6040518263ffffffff1660e01b815260040161097191906116ec565b600060405180830381865afa15801561098e573d6000803e3d6000fd5b505050506040513d6000823e3d601f19601f820116820180604052508101906109b79190612012565b905090565b600160009054906101000a900473ffffffffffffffffffffffffffffffffffffffff1681565b6109ea610a65565b600073ffffffffffffffffffffffffffffffffffffffff168173ffffffffffffffffffffffffffffffffffffffff1603610a59576040517f08c379a0000000000000000000000000000000000000000000000000000000008152600401610a50906120de565b60405180910390fd5b610a6281610adc565b50565b3373ffffffffffffffffffffffffffffffffffffffff16610a846106d2565b73ffffffffffffffffffffffffffffffffffffffff1614610ada576040517f08c379a0000000000000000000000000000000000000000000000000000000008152600401610ad19061214a565b60405180910390fd5b565b60008060009054906101000a900473ffffffffffffffffffffffffffffffffffffffff169050816000806101000a81548173ffffffffffffffffffffffffffffffffffffffff021916908373ffffffffffffffffffffffffffffffffffffffff1602179055508173ffffffffffffffffffffffffffffffffffffffff168173ffffffffffffffffffffffffffffffffffffffff167f8be0079c531659141344cd1fd0a4f28419497f9722a3daafe3b4186f6b6457e060405160405180910390a35050565b6000604051905090565b600080fd5b600080fd5b6000819050919050565b610bc781610bb4565b8114610bd257600080fd5b50565b600081359050610be481610bbe565b92915050565b600060208284031215610c0057610bff610baa565b5b6000610c0e84828501610bd5565b91505092915050565b60008115159050919050565b610c2c81610c17565b82525050565b6000602082019050610c476000830184610c23565b92915050565b600081519050919050565b600082825260208201905092915050565b6000819050602082019050919050565b610c8281610bb4565b82525050565b600081519050919050565b600082825260208201905092915050565b6000819050602082019050919050565b6000610cc08383610c79565b60208301905092915050565b6000602082019050919050565b6000610ce482610c88565b610cee8185610c93565b9350610cf983610ca4565b8060005b83811015610d2a578151610d118882610cb4565b9750610d1c83610ccc565b925050600181019050610cfd565b5085935050505092915050565b6000608083016000830151610d4f6000860182610c79565b506020830151610d626020860182610c79565b506040830151610d756040860182610c79565b5060608301518482036060860152610d8d8282610cd9565b9150508091505092915050565b6000610da68383610d37565b905092915050565b6000602082019050919050565b6000610dc682610c4d565b610dd08185610c58565b935083602082028501610de285610c69565b8060005b85811015610e1e5784840389528151610dff8582610d9a565b9450610e0a83610dae565b925060208a01995050600181019050610de6565b50829750879550505050505092915050565b60006020820190508181036000830152610e4a8184610dbb565b905092915050565b600081519050919050565b600082825260208201905092915050565b6000819050602082019050919050565b600073ffffffffffffffffffffffffffffffffffffffff82169050919050565b6000610ea982610e7e565b9050919050565b610eb981610e9e565b82525050565b606082016000820151610ed56000850182610c79565b506020820151610ee86020850182610eb0565b506040820151610efb6040850182610c79565b50505050565b6000610f0d8383610ebf565b60608301905092915050565b6000602082019050919050565b6000610f3182610e52565b610f3b8185610e5d565b9350610f4683610e6e565b8060005b83811015610f77578151610f5e8882610f01565b9750610f6983610f19565b925050600181019050610f4a565b5085935050505092915050565b60006020820190508181036000830152610f9e8184610f26565b905092915050565b600081519050919050565b600082825260208201905092915050565b6000819050602082019050919050565b60a082016000820151610fe86000850182610c79565b506020820151610ffb6020850182610c79565b50604082015161100e6040850182610c79565b5060608201516110216060850182610c79565b5060808201516110346080850182610c79565b50505050565b60006110468383610fd2565b60a08301905092915050565b6000602082019050919050565b600061106a82610fa6565b6110748185610fb1565b935061107f83610fc2565b8060005b838110156110b0578151611097888261103a565b97506110a283611052565b925050600181019050611083565b5085935050505092915050565b600060208201905081810360008301526110d7818461105f565b905092915050565b600080600080608085870312156110f9576110f8610baa565b5b600061110787828801610bd5565b945050602061111887828801610bd5565b935050604061112987828801610bd5565b925050606061113a87828801610bd5565b91505092959194509250565b61114f81610e9e565b82525050565b600060208201905061116a6000830184611146565b92915050565b600080fd5b6000601f19601f8301169050919050565b7f4e487b7100000000000000000000000000000000000000000000000000000000600052604160045260246000fd5b6111be82611175565b810181811067ffffffffffffffff821117156111dd576111dc611186565b5b80604052505050565b60006111f0610ba0565b90506111fc82826111b5565b919050565b600067ffffffffffffffff82111561121c5761121b611186565b5b602082029050602081019050919050565b600080fd5b600061124561124084611201565b6111e6565b905080838252602082019050602084028301858111156112685761126761122d565b5b835b81811015611291578061127d8882610bd5565b84526020840193505060208101905061126a565b5050509392505050565b600082601f8301126112b0576112af611170565b5b81356112c0848260208601611232565b91505092915050565b6000806000606084860312156112e2576112e1610baa565b5b60006112f086828701610bd5565b935050602061130186828701610bd5565b925050604084013567ffffffffffffffff81111561132257611321610baf565b5b61132e8682870161129b565b9150509250925092565b600080600080600060a0868803121561135457611353610baa565b5b600061136288828901610bd5565b955050602086013567ffffffffffffffff81111561138357611382610baf565b5b61138f8882890161129b565b94505060406113a088828901610bd5565b93505060606113b188828901610bd5565b92505060806113c288828901610bd5565b9150509295509295909350565b600081519050919050565b600082825260208201905092915050565b6000819050602082019050919050565b600060c0830160008301516114136000860182610c79565b5060208301516114266020860182610c79565b506040830151848203604086015261143e8282610cd9565b91505060608301516114536060860182610c79565b5060808301516114666080860182610c79565b5060a083015161147960a0860182610c79565b508091505092915050565b600061149083836113fb565b905092915050565b6000602082019050919050565b60006114b0826113cf565b6114ba81856113da565b9350836020820285016114cc856113eb565b8060005b8581101561150857848403895281516114e98582611484565b94506114f483611498565b925060208a019950506001810190506114d0565b50829750879550505050505092915050565b6000602082019050818103600083015261153481846114a5565b905092915050565b6000819050919050565b600061156161155c61155784610e7e565b61153c565b610e7e565b9050919050565b600061157382611546565b9050919050565b600061158582611568565b9050919050565b6115958161157a565b82525050565b60006020820190506115b0600083018461158c565b92915050565b6115bf81610e9e565b81146115ca57600080fd5b50565b6000813590506115dc816115b6565b92915050565b6000602082840312156115f8576115f7610baa565b5b6000611606848285016115cd565b91505092915050565b6060820160008201516116256000850182610c79565b5060208201516116386020850182610eb0565b50604082015161164b6040850182610c79565b50505050565b6000819050919050565b61166481611651565b82525050565b600060808201905061167f600083018561160f565b61168c606083018461165b565b9392505050565b61169c81610c17565b81146116a757600080fd5b50565b6000815190506116b981611693565b92915050565b6000602082840312156116d5576116d4610baa565b5b60006116e3848285016116aa565b91505092915050565b6000602082019050611701600083018461165b565b92915050565b600067ffffffffffffffff82111561172257611721611186565b5b602082029050602081019050919050565b600080fd5b600080fd5b60008151905061174c81610bbe565b92915050565b600061176561176084611201565b6111e6565b905080838252602082019050602084028301858111156117885761178761122d565b5b835b818110156117b1578061179d888261173d565b84526020840193505060208101905061178a565b5050509392505050565b600082601f8301126117d0576117cf611170565b5b81516117e0848260208601611752565b91505092915050565b6000608082840312156117ff576117fe611733565b5b61180960806111e6565b905060006118198482850161173d565b600083015250602061182d8482850161173d565b60208301525060406118418482850161173d565b604083015250606082015167ffffffffffffffff81111561186557611864611738565b5b611871848285016117bb565b60608301525092915050565b600061189061188b84611707565b6111e6565b905080838252602082019050602084028301858111156118b3576118b261122d565b5b835b818110156118fa57805167ffffffffffffffff8111156118d8576118d7611170565b5b8086016118e589826117e9565b855260208501945050506020810190506118b5565b5050509392505050565b600082601f83011261191957611918611170565b5b815161192984826020860161187d565b91505092915050565b60006020828403121561194857611947610baa565b5b600082015167ffffffffffffffff81111561196657611965610baf565b5b61197284828501611904565b91505092915050565b600067ffffffffffffffff82111561199657611995611186565b5b602082029050602081019050919050565b6000815190506119b6816115b6565b92915050565b6000606082840312156119d2576119d1611733565b5b6119dc60606111e6565b905060006119ec8482850161173d565b6000830152506020611a00848285016119a7565b6020830152506040611a148482850161173d565b60408301525092915050565b6000611a33611a2e8461197b565b6111e6565b90508083825260208201905060608402830185811115611a5657611a5561122d565b5b835b81811015611a7f5780611a6b88826119bc565b845260208401935050606081019050611a58565b5050509392505050565b600082601f830112611a9e57611a9d611170565b5b8151611aae848260208601611a20565b91505092915050565b600060208284031215611acd57611acc610baa565b5b600082015167ffffffffffffffff811115611aeb57611aea610baf565b5b611af784828501611a89565b91505092915050565b600067ffffffffffffffff821115611b1b57611b1a611186565b5b602082029050602081019050919050565b600060a08284031215611b4257611b41611733565b5b611b4c60a06111e6565b90506000611b5c8482850161173d565b6000830152506020611b708482850161173d565b6020830152506040611b848482850161173d565b6040830152506060611b988482850161173d565b6060830152506080611bac8482850161173d565b60808301525092915050565b6000611bcb611bc684611b00565b6111e6565b90508083825260208201905060a08402830185811115611bee57611bed61122d565b5b835b81811015611c175780611c038882611b2c565b84526020840193505060a081019050611bf0565b5050509392505050565b600082601f830112611c3657611c35611170565b5b8151611c46848260208601611bb8565b91505092915050565b600060208284031215611c6557611c64610baa565b5b600082015167ffffffffffffffff811115611c8357611c82610baf565b5b611c8f84828501611c21565b91505092915050565b60a082016000820151611cae6000850182610c79565b506020820151611cc16020850182610c79565b506040820151611cd46040850182610c79565b506060820151611ce76060850182610c79565b506080820151611cfa6080850182610c79565b50505050565b600060c082019050611d156000830185611c98565b611d2260a083018461165b565b9392505050565b6000608083016000830151611d416000860182610c79565b506020830151611d546020860182610c79565b506040830151611d676040860182610c79565b5060608301518482036060860152611d7f8282610cd9565b9150508091505092915050565b60006040820190508181036000830152611da68185611d29565b9050611db5602083018461165b565b9392505050565b600060c083016000830151611dd46000860182610c79565b506020830151611de76020860182610c79565b5060408301518482036040860152611dff8282610cd9565b9150506060830151611e146060860182610c79565b506080830151611e276080860182610c79565b5060a0830151611e3a60a0860182610c79565b508091505092915050565b60006040820190508181036000830152611e5f8185611dbc565b9050611e6e602083018461165b565b9392505050565b600067ffffffffffffffff821115611e9057611e8f611186565b5b602082029050602081019050919050565b600060c08284031215611eb757611eb6611733565b5b611ec160c06111e6565b90506000611ed18482850161173d565b6000830152506020611ee58482850161173d565b602083015250604082015167ffffffffffffffff811115611f0957611f08611738565b5b611f15848285016117bb565b6040830152506060611f298482850161173d565b6060830152506080611f3d8482850161173d565b60808301525060a0611f518482850161173d565b60a08301525092915050565b6000611f70611f6b84611e75565b6111e6565b90508083825260208201905060208402830185811115611f9357611f9261122d565b5b835b81811015611fda57805167ffffffffffffffff811115611fb857611fb7611170565b5b808601611fc58982611ea1565b85526020850194505050602081019050611f95565b5050509392505050565b600082601f830112611ff957611ff8611170565b5b8151612009848260208601611f5d565b91505092915050565b60006020828403121561202857612027610baa565b5b600082015167ffffffffffffffff81111561204657612045610baf565b5b61205284828501611fe4565b91505092915050565b600082825260208201905092915050565b7f4f776e61626c653a206e6577206f776e657220697320746865207a65726f206160008201527f6464726573730000000000000000000000000000000000000000000000000000602082015250565b60006120c860268361205b565b91506120d38261206c565b604082019050919050565b600060208201905081810360008301526120f7816120bb565b9050919050565b7f4f776e61626c653a2063616c6c6572206973206e6f7420746865206f776e6572600082015250565b600061213460208361205b565b915061213f826120fe565b602082019050919050565b6000602082019050818103600083015261216381612127565b905091905056fea26469706673582212209455b0fefac1121254ded329d785bb1c1b6189dfcc68ef2513dd5aebef00c18364736f6c63430008110033",
			"opcodes": "PUSH1 0x80 PUSH1 0x40 MSTORE CALLVALUE DUP1 ISZERO PUSH3 0x11 JUMPI PUSH1 0x0 DUP1 REVERT JUMPDEST POP PUSH1 0x40 MLOAD PUSH3 0x230D CODESIZE SUB DUP1 PUSH3 0x230D DUP4 CODECOPY DUP2 DUP2 ADD PUSH1 0x40 MSTORE DUP2 ADD SWAP1 PUSH3 0x37 SWAP2 SWAP1 PUSH3 0x12B JUMP JUMPDEST DUP1 CALLER PUSH1 0x0 DUP1 PUSH2 0x100 EXP DUP2 SLOAD DUP2 PUSH20 0xFFFFFFFFFFFFFFFFFFFFFFFFFFFFFFFFFFFFFFFF MUL NOT AND SWAP1 DUP4 PUSH20 0xFFFFFFFFFFFFFFFFFFFFFFFFFFFFFFFFFFFFFFFF AND MUL OR SWAP1 SSTORE POP DUP1 PUSH1 0x1 PUSH1 0x0 PUSH2 0x100 EXP DUP2 SLOAD DUP2 PUSH20 0xFFFFFFFFFFFFFFFFFFFFFFFFFFFFFFFFFFFFFFFF MUL NOT AND SWAP1 DUP4 PUSH20 0xFFFFFFFFFFFFFFFFFFFFFFFFFFFFFFFFFFFFFFFF AND MUL OR SWAP1 SSTORE POP POP POP PUSH3 0x15D JUMP JUMPDEST PUSH1 0x0 DUP1 REVERT JUMPDEST PUSH1 0x0 PUSH20 0xFFFFFFFFFFFFFFFFFFFFFFFFFFFFFFFFFFFFFFFF DUP3 AND SWAP1 POP SWAP2 SWAP1 POP JUMP JUMPDEST PUSH1 0x0 PUSH3 0xF3 DUP3 PUSH3 0xC6 JUMP JUMPDEST SWAP1 POP SWAP2 SWAP1 POP JUMP JUMPDEST PUSH3 0x105 DUP2 PUSH3 0xE6 JUMP JUMPDEST DUP2 EQ PUSH3 0x111 JUMPI PUSH1 0x0 DUP1 REVERT JUMPDEST POP JUMP JUMPDEST PUSH1 0x0 DUP2 MLOAD SWAP1 POP PUSH3 0x125 DUP2 PUSH3 0xFA JUMP JUMPDEST SWAP3 SWAP2 POP POP JUMP JUMPDEST PUSH1 0x0 PUSH1 0x20 DUP3 DUP5 SUB SLT ISZERO PUSH3 0x144 JUMPI PUSH3 0x143 PUSH3 0xC1 JUMP JUMPDEST JUMPDEST PUSH1 0x0 PUSH3 0x154 DUP5 DUP3 DUP6 ADD PUSH3 0x114 JUMP JUMPDEST SWAP2 POP POP SWAP3 SWAP2 POP POP JUMP JUMPDEST PUSH2 0x21A0 DUP1 PUSH3 0x16D PUSH1 0x0 CODECOPY PUSH1 0x0 RETURN INVALID PUSH1 0x80 PUSH1 0x40 MSTORE CALLVALUE DUP1 ISZERO PUSH2 0x10 JUMPI PUSH1 0x0 DUP1 REVERT JUMPDEST POP PUSH1 0x4 CALLDATASIZE LT PUSH2 0xB4 JUMPI PUSH1 0x0 CALLDATALOAD PUSH1 0xE0 SHR DUP1 PUSH4 0x8DA5CB5B GT PUSH2 0x71 JUMPI DUP1 PUSH4 0x8DA5CB5B EQ PUSH2 0x17D JUMPI DUP1 PUSH4 0x8DAB0111 EQ PUSH2 0x19B JUMPI DUP1 PUSH4 0x8F52A0DF EQ PUSH2 0x1CB JUMPI DUP1 PUSH4 0xC1EA13C4 EQ PUSH2 0x1FB JUMPI DUP1 PUSH4 0xE312090B EQ PUSH2 0x219 JUMPI DUP1 PUSH4 0xF2FDE38B EQ PUSH2 0x237 JUMPI PUSH2 0xB4 JUMP JUMPDEST DUP1 PUSH4 0xE8E1029 EQ PUSH2 0xB9 JUMPI DUP1 PUSH4 0x30CABB88 EQ PUSH2 0xE9 JUMPI DUP1 PUSH4 0x3A2019C1 EQ PUSH2 0x107 JUMPI DUP1 PUSH4 0x3CB71D76 EQ PUSH2 0x125 JUMPI DUP1 PUSH4 0x40738285 EQ PUSH2 0x143 JUMPI DUP1 PUSH4 0x83197EF0 EQ PUSH2 0x173 JUMPI JUMPDEST PUSH1 0x0 DUP1 REVERT JUMPDEST PUSH2 0xD3 PUSH1 0x4 DUP1 CALLDATASIZE SUB DUP2 ADD SWAP1 PUSH2 0xCE SWAP2 SWAP1 PUSH2 0xBEA JUMP JUMPDEST PUSH2 0x253 JUMP JUMPDEST PUSH1 0x40 MLOAD PUSH2 0xE0 SWAP2 SWAP1 PUSH2 0xC32 JUMP JUMPDEST PUSH1 0x40 MLOAD DUP1 SWAP2 SUB SWAP1 RETURN JUMPDEST PUSH2 0xF1 PUSH2 0x355 JUMP JUMPDEST PUSH1 0x40 MLOAD PUSH2 0xFE SWAP2 SWAP1 PUSH2 0xE30 JUMP JUMPDEST PUSH1 0x40 MLOAD DUP1 SWAP2 SUB SWAP1 RETURN JUMPDEST PUSH2 0x10F PUSH2 0x420 JUMP JUMPDEST PUSH1 0x40 MLOAD PUSH2 0x11C SWAP2 SWAP1 PUSH2 0xF84 JUMP JUMPDEST PUSH1 0x40 MLOAD DUP1 SWAP2 SUB SWAP1 RETURN JUMPDEST PUSH2 0x12D PUSH2 0x4EB JUMP JUMPDEST PUSH1 0x40 MLOAD PUSH2 0x13A SWAP2 SWAP1 PUSH2 0x10BD JUMP JUMPDEST PUSH1 0x40 MLOAD DUP1 SWAP2 SUB SWAP1 RETURN JUMPDEST PUSH2 0x15D PUSH1 0x4 DUP1 CALLDATASIZE SUB DUP2 ADD SWAP1 PUSH2 0x158 SWAP2 SWAP1 PUSH2 0x10DF JUMP JUMPDEST PUSH2 0x5B6 JUMP JUMPDEST PUSH1 0x40 MLOAD PUSH2 0x16A SWAP2 SWAP1 PUSH2 0xC32 JUMP JUMPDEST PUSH1 0x40 MLOAD DUP1 SWAP2 SUB SWAP1 RETURN JUMPDEST PUSH2 0x17B PUSH2 0x6B1 JUMP JUMPDEST STOP JUMPDEST PUSH2 0x185 PUSH2 0x6D2 JUMP JUMPDEST PUSH1 0x40 MLOAD PUSH2 0x192 SWAP2 SWAP1 PUSH2 0x1155 JUMP JUMPDEST PUSH1 0x40 MLOAD DUP1 SWAP2 SUB SWAP1 RETURN JUMPDEST PUSH2 0x1B5 PUSH1 0x4 DUP1 CALLDATASIZE SUB DUP2 ADD SWAP1 PUSH2 0x1B0 SWAP2 SWAP1 PUSH2 0x12C9 JUMP JUMPDEST PUSH2 0x6FB JUMP JUMPDEST PUSH1 0x40 MLOAD PUSH2 0x1C2 SWAP2 SWAP1 PUSH2 0xC32 JUMP JUMPDEST PUSH1 0x40 MLOAD DUP1 SWAP2 SUB SWAP1 RETURN JUMPDEST PUSH2 0x1E5 PUSH1 0x4 DUP1 CALLDATASIZE SUB DUP2 ADD SWAP1 PUSH2 0x1E0 SWAP2 SWAP1 PUSH2 0x1338 JUMP JUMPDEST PUSH2 0x7EF JUMP JUMPDEST PUSH1 0x40 MLOAD PUSH2 0x1F2 SWAP2 SWAP1 PUSH2 0xC32 JUMP JUMPDEST PUSH1 0x40 MLOAD DUP1 SWAP2 SUB SWAP1 RETURN JUMPDEST PUSH2 0x203 PUSH2 0x8F1 JUMP JUMPDEST PUSH1 0x40 MLOAD PUSH2 0x210 SWAP2 SWAP1 PUSH2 0x151A JUMP JUMPDEST PUSH1 0x40 MLOAD DUP1 SWAP2 SUB SWAP1 RETURN JUMPDEST PUSH2 0x221 PUSH2 0x9BC JUMP JUMPDEST PUSH1 0x40 MLOAD PUSH2 0x22E SWAP2 SWAP1 PUSH2 0x159B JUMP JUMPDEST PUSH1 0x40 MLOAD DUP1 SWAP2 SUB SWAP1 RETURN JUMPDEST PUSH2 0x251 PUSH1 0x4 DUP1 CALLDATASIZE SUB DUP2 ADD SWAP1 PUSH2 0x24C SWAP2 SWAP1 PUSH2 0x15E2 JUMP JUMPDEST PUSH2 0x9E2 JUMP JUMPDEST STOP JUMPDEST PUSH1 0x0 DUP1 PUSH1 0x40 MLOAD DUP1 PUSH1 0x60 ADD PUSH1 0x40 MSTORE DUP1 PUSH1 0x0 DUP2 MSTORE PUSH1 0x20 ADD CALLER PUSH20 0xFFFFFFFFFFFFFFFFFFFFFFFFFFFFFFFFFFFFFFFF AND DUP2 MSTORE PUSH1 0x20 ADD DUP5 DUP2 MSTORE POP SWAP1 POP PUSH1 0x1 PUSH1 0x0 SWAP1 SLOAD SWAP1 PUSH2 0x100 EXP SWAP1 DIV PUSH20 0xFFFFFFFFFFFFFFFFFFFFFFFFFFFFFFFFFFFFFFFF AND PUSH20 0xFFFFFFFFFFFFFFFFFFFFFFFFFFFFFFFFFFFFFFFF AND PUSH4 0x318EE31A DUP3 PUSH32 0x8E1604A838D0F1A9B2CDA14A099E4CEB08E966CC6E05E8296F67B02D61A79F09 PUSH1 0x0 SHL PUSH1 0x40 MLOAD DUP4 PUSH4 0xFFFFFFFF AND PUSH1 0xE0 SHL DUP2 MSTORE PUSH1 0x4 ADD PUSH2 0x30A SWAP3 SWAP2 SWAP1 PUSH2 0x166A JUMP JUMPDEST PUSH1 0x20 PUSH1 0x40 MLOAD DUP1 DUP4 SUB DUP2 PUSH1 0x0 DUP8 GAS CALL ISZERO DUP1 ISZERO PUSH2 0x329 JUMPI RETURNDATASIZE PUSH1 0x0 DUP1 RETURNDATACOPY RETURNDATASIZE PUSH1 0x0 REVERT JUMPDEST POP POP POP POP PUSH1 0x40 MLOAD RETURNDATASIZE PUSH1 0x1F NOT PUSH1 0x1F DUP3 ADD AND DUP3 ADD DUP1 PUSH1 0x40 MSTORE POP DUP2 ADD SWAP1 PUSH2 0x34D SWAP2 SWAP1 PUSH2 0x16BF JUMP JUMPDEST SWAP2 POP POP SWAP2 SWAP1 POP JUMP JUMPDEST PUSH1 0x60 PUSH1 0x1 PUSH1 0x0 SWAP1 SLOAD SWAP1 PUSH2 0x100 EXP SWAP1 DIV PUSH20 0xFFFFFFFFFFFFFFFFFFFFFFFFFFFFFFFFFFFFFFFF AND PUSH20 0xFFFFFFFFFFFFFFFFFFFFFFFFFFFFFFFFFFFFFFFF AND PUSH4 0x3970403 PUSH32 0x8E1604A838D0F1A9B2CDA14A099E4CEB08E966CC6E05E8296F67B02D61A79F09 PUSH1 0x0 SHL PUSH1 0x40 MLOAD DUP3 PUSH4 0xFFFFFFFF AND PUSH1 0xE0 SHL DUP2 MSTORE PUSH1 0x4 ADD PUSH2 0x3D5 SWAP2 SWAP1 PUSH2 0x16EC JUMP JUMPDEST PUSH1 0x0 PUSH1 0x40 MLOAD DUP1 DUP4 SUB DUP2 DUP7 GAS STATICCALL ISZERO DUP1 ISZERO PUSH2 0x3F2 JUMPI RETURNDATASIZE PUSH1 0x0 DUP1 RETURNDATACOPY RETURNDATASIZE PUSH1 0x0 REVERT JUMPDEST POP POP POP POP PUSH1 0x40 MLOAD RETURNDATASIZE PUSH1 0x0 DUP3 RETURNDATACOPY RETURNDATASIZE PUSH1 0x1F NOT PUSH1 0x1F DUP3 ADD AND DUP3 ADD DUP1 PUSH1 0x40 MSTORE POP DUP2 ADD SWAP1 PUSH2 0x41B SWAP2 SWAP1 PUSH2 0x1932 JUMP JUMPDEST SWAP1 POP SWAP1 JUMP JUMPDEST PUSH1 0x60 PUSH1 0x1 PUSH1 0x0 SWAP1 SLOAD SWAP1 PUSH2 0x100 EXP SWAP1 DIV PUSH20 0xFFFFFFFFFFFFFFFFFFFFFFFFFFFFFFFFFFFFFFFF AND PUSH20 0xFFFFFFFFFFFFFFFFFFFFFFFFFFFFFFFFFFFFFFFF AND PUSH4 0x2AE72D06 PUSH32 0x8E1604A838D0F1A9B2CDA14A099E4CEB08E966CC6E05E8296F67B02D61A79F09 PUSH1 0x0 SHL PUSH1 0x40 MLOAD DUP3 PUSH4 0xFFFFFFFF AND PUSH1 0xE0 SHL DUP2 MSTORE PUSH1 0x4 ADD PUSH2 0x4A0 SWAP2 SWAP1 PUSH2 0x16EC JUMP JUMPDEST PUSH1 0x0 PUSH1 0x40 MLOAD DUP1 DUP4 SUB DUP2 DUP7 GAS STATICCALL ISZERO DUP1 ISZERO PUSH2 0x4BD JUMPI RETURNDATASIZE PUSH1 0x0 DUP1 RETURNDATACOPY RETURNDATASIZE PUSH1 0x0 REVERT JUMPDEST POP POP POP POP PUSH1 0x40 MLOAD RETURNDATASIZE PUSH1 0x0 DUP3 RETURNDATACOPY RETURNDATASIZE PUSH1 0x1F NOT PUSH1 0x1F DUP3 ADD AND DUP3 ADD DUP1 PUSH1 0x40 MSTORE POP DUP2 ADD SWAP1 PUSH2 0x4E6 SWAP2 SWAP1 PUSH2 0x1AB7 JUMP JUMPDEST SWAP1 POP SWAP1 JUMP JUMPDEST PUSH1 0x60 PUSH1 0x1 PUSH1 0x0 SWAP1 SLOAD SWAP1 PUSH2 0x100 EXP SWAP1 DIV PUSH20 0xFFFFFFFFFFFFFFFFFFFFFFFFFFFFFFFFFFFFFFFF AND PUSH20 0xFFFFFFFFFFFFFFFFFFFFFFFFFFFFFFFFFFFFFFFF AND PUSH4 0x1D769A9E PUSH32 0x8E1604A838D0F1A9B2CDA14A099E4CEB08E966CC6E05E8296F67B02D61A79F09 PUSH1 0x0 SHL PUSH1 0x40 MLOAD DUP3 PUSH4 0xFFFFFFFF AND PUSH1 0xE0 SHL DUP2 MSTORE PUSH1 0x4 ADD PUSH2 0x56B SWAP2 SWAP1 PUSH2 0x16EC JUMP JUMPDEST PUSH1 0x0 PUSH1 0x40 MLOAD DUP1 DUP4 SUB DUP2 DUP7 GAS STATICCALL ISZERO DUP1 ISZERO PUSH2 0x588 JUMPI RETURNDATASIZE PUSH1 0x0 DUP1 RETURNDATACOPY RETURNDATASIZE PUSH1 0x0 REVERT JUMPDEST POP POP POP POP PUSH1 0x40 MLOAD RETURNDATASIZE PUSH1 0x0 DUP3 RETURNDATACOPY RETURNDATASIZE PUSH1 0x1F NOT PUSH1 0x1F DUP3 ADD AND DUP3 ADD DUP1 PUSH1 0x40 MSTORE POP DUP2 ADD SWAP1 PUSH2 0x5B1 SWAP2 SWAP1 PUSH2 0x1C4F JUMP JUMPDEST SWAP1 POP SWAP1 JUMP JUMPDEST PUSH1 0x0 DUP1 PUSH1 0x40 MLOAD DUP1 PUSH1 0xA0 ADD PUSH1 0x40 MSTORE DUP1 PUSH1 0x0 DUP2 MSTORE PUSH1 0x20 ADD DUP8 DUP2 MSTORE PUSH1 0x20 ADD DUP7 DUP2 MSTORE PUSH1 0x20 ADD DUP6 DUP2 MSTORE PUSH1 0x20 ADD DUP5 DUP2 MSTORE POP SWAP1 POP PUSH1 0x1 PUSH1 0x0 SWAP1 SLOAD SWAP1 PUSH2 0x100 EXP SWAP1 DIV PUSH20 0xFFFFFFFFFFFFFFFFFFFFFFFFFFFFFFFFFFFFFFFF AND PUSH20 0xFFFFFFFFFFFFFFFFFFFFFFFFFFFFFFFFFFFFFFFF AND PUSH4 0x4269E28B DUP3 PUSH32 0x8E1604A838D0F1A9B2CDA14A099E4CEB08E966CC6E05E8296F67B02D61A79F09 PUSH1 0x0 SHL PUSH1 0x40 MLOAD DUP4 PUSH4 0xFFFFFFFF AND PUSH1 0xE0 SHL DUP2 MSTORE PUSH1 0x4 ADD PUSH2 0x663 SWAP3 SWAP2 SWAP1 PUSH2 0x1D00 JUMP JUMPDEST PUSH1 0x20 PUSH1 0x40 MLOAD DUP1 DUP4 SUB DUP2 PUSH1 0x0 DUP8 GAS CALL ISZERO DUP1 ISZERO PUSH2 0x682 JUMPI RETURNDATASIZE PUSH1 0x0 DUP1 RETURNDATACOPY RETURNDATASIZE PUSH1 0x0 REVERT JUMPDEST POP POP POP POP PUSH1 0x40 MLOAD RETURNDATASIZE PUSH1 0x1F NOT PUSH1 0x1F DUP3 ADD AND DUP3 ADD DUP1 PUSH1 0x40 MSTORE POP DUP2 ADD SWAP1 PUSH2 0x6A6 SWAP2 SWAP1 PUSH2 0x16BF JUMP JUMPDEST SWAP2 POP POP SWAP5 SWAP4 POP POP POP POP JUMP JUMPDEST PUSH2 0x6B9 PUSH2 0xA65 JUMP JUMPDEST ADDRESS PUSH20 0xFFFFFFFFFFFFFFFFFFFFFFFFFFFFFFFFFFFFFFFF AND SELFDESTRUCT JUMPDEST PUSH1 0x0 DUP1 PUSH1 0x0 SWAP1 SLOAD SWAP1 PUSH2 0x100 EXP SWAP1 DIV PUSH20 0xFFFFFFFFFFFFFFFFFFFFFFFFFFFFFFFFFFFFFFFF AND SWAP1 POP SWAP1 JUMP JUMPDEST PUSH1 0x0 DUP1 PUSH1 0x40 MLOAD DUP1 PUSH1 0x80 ADD PUSH1 0x40 MSTORE DUP1 PUSH1 0x0 DUP2 MSTORE PUSH1 0x20 ADD DUP7 DUP2 MSTORE PUSH1 0x20 ADD DUP6 DUP2 MSTORE PUSH1 0x20 ADD DUP5 DUP2 MSTORE POP SWAP1 POP PUSH1 0x1 PUSH1 0x0 SWAP1 SLOAD SWAP1 PUSH2 0x100 EXP SWAP1 DIV PUSH20 0xFFFFFFFFFFFFFFFFFFFFFFFFFFFFFFFFFFFFFFFF AND PUSH20 0xFFFFFFFFFFFFFFFFFFFFFFFFFFFFFFFFFFFFFFFF AND PUSH4 0x21CA464 DUP3 PUSH32 0x8E1604A838D0F1A9B2CDA14A099E4CEB08E966CC6E05E8296F67B02D61A79F09 PUSH1 0x0 SHL PUSH1 0x40 MLOAD DUP4 PUSH4 0xFFFFFFFF AND PUSH1 0xE0 SHL DUP2 MSTORE PUSH1 0x4 ADD PUSH2 0x7A2 SWAP3 SWAP2 SWAP1 PUSH2 0x1D8C JUMP JUMPDEST PUSH1 0x20 PUSH1 0x40 MLOAD DUP1 DUP4 SUB DUP2 PUSH1 0x0 DUP8 GAS CALL ISZERO DUP1 ISZERO PUSH2 0x7C1 JUMPI RETURNDATASIZE PUSH1 0x0 DUP1 RETURNDATACOPY RETURNDATASIZE PUSH1 0x0 REVERT JUMPDEST POP POP POP POP PUSH1 0x40 MLOAD RETURNDATASIZE PUSH1 0x1F NOT PUSH1 0x1F DUP3 ADD AND DUP3 ADD DUP1 PUSH1 0x40 MSTORE POP DUP2 ADD SWAP1 PUSH2 0x7E5 SWAP2 SWAP1 PUSH2 0x16BF JUMP JUMPDEST SWAP2 POP POP SWAP4 SWAP3 POP POP POP JUMP JUMPDEST PUSH1 0x0 DUP1 PUSH1 0x40 MLOAD DUP1 PUSH1 0xC0 ADD PUSH1 0x40 MSTORE DUP1 PUSH1 0x0 DUP2 MSTORE PUSH1 0x20 ADD DUP9 DUP2 MSTORE PUSH1 0x20 ADD DUP8 DUP2 MSTORE PUSH1 0x20 ADD DUP7 DUP2 MSTORE PUSH1 0x20 ADD DUP6 DUP2 MSTORE PUSH1 0x20 ADD DUP5 DUP2 MSTORE POP SWAP1 POP PUSH1 0x1 PUSH1 0x0 SWAP1 SLOAD SWAP1 PUSH2 0x100 EXP SWAP1 DIV PUSH20 0xFFFFFFFFFFFFFFFFFFFFFFFFFFFFFFFFFFFFFFFF AND PUSH20 0xFFFFFFFFFFFFFFFFFFFFFFFFFFFFFFFFFFFFFFFF AND PUSH4 0xCB7C5C50 DUP3 PUSH32 0x8E1604A838D0F1A9B2CDA14A099E4CEB08E966CC6E05E8296F67B02D61A79F09 PUSH1 0x0 SHL PUSH1 0x40 MLOAD DUP4 PUSH4 0xFFFFFFFF AND PUSH1 0xE0 SHL DUP2 MSTORE PUSH1 0x4 ADD PUSH2 0x8A2 SWAP3 SWAP2 SWAP1 PUSH2 0x1E45 JUMP JUMPDEST PUSH1 0x20 PUSH1 0x40 MLOAD DUP1 DUP4 SUB DUP2 PUSH1 0x0 DUP8 GAS CALL ISZERO DUP1 ISZERO PUSH2 0x8C1 JUMPI RETURNDATASIZE PUSH1 0x0 DUP1 RETURNDATACOPY RETURNDATASIZE PUSH1 0x0 REVERT JUMPDEST POP POP POP POP PUSH1 0x40 MLOAD RETURNDATASIZE PUSH1 0x1F NOT PUSH1 0x1F DUP3 ADD AND DUP3 ADD DUP1 PUSH1 0x40 MSTORE POP DUP2 ADD SWAP1 PUSH2 0x8E5 SWAP2 SWAP1 PUSH2 0x16BF JUMP JUMPDEST SWAP2 POP POP SWAP6 SWAP5 POP POP POP POP POP JUMP JUMPDEST PUSH1 0x60 PUSH1 0x1 PUSH1 0x0 SWAP1 SLOAD SWAP1 PUSH2 0x100 EXP SWAP1 DIV PUSH20 0xFFFFFFFFFFFFFFFFFFFFFFFFFFFFFFFFFFFFFFFF AND PUSH20 0xFFFFFFFFFFFFFFFFFFFFFFFFFFFFFFFFFFFFFFFF AND PUSH4 0x270B3869 PUSH32 0x8E1604A838D0F1A9B2CDA14A099E4CEB08E966CC6E05E8296F67B02D61A79F09 PUSH1 0x0 SHL PUSH1 0x40 MLOAD DUP3 PUSH4 0xFFFFFFFF AND PUSH1 0xE0 SHL DUP2 MSTORE PUSH1 0x4 ADD PUSH2 0x971 SWAP2 SWAP1 PUSH2 0x16EC JUMP JUMPDEST PUSH1 0x0 PUSH1 0x40 MLOAD DUP1 DUP4 SUB DUP2 DUP7 GAS STATICCALL ISZERO DUP1 ISZERO PUSH2 0x98E JUMPI RETURNDATASIZE PUSH1 0x0 DUP1 RETURNDATACOPY RETURNDATASIZE PUSH1 0x0 REVERT JUMPDEST POP POP POP POP PUSH1 0x40 MLOAD RETURNDATASIZE PUSH1 0x0 DUP3 RETURNDATACOPY RETURNDATASIZE PUSH1 0x1F NOT PUSH1 0x1F DUP3 ADD AND DUP3 ADD DUP1 PUSH1 0x40 MSTORE POP DUP2 ADD SWAP1 PUSH2 0x9B7 SWAP2 SWAP1 PUSH2 0x2012 JUMP JUMPDEST SWAP1 POP SWAP1 JUMP JUMPDEST PUSH1 0x1 PUSH1 0x0 SWAP1 SLOAD SWAP1 PUSH2 0x100 EXP SWAP1 DIV PUSH20 0xFFFFFFFFFFFFFFFFFFFFFFFFFFFFFFFFFFFFFFFF AND DUP2 JUMP JUMPDEST PUSH2 0x9EA PUSH2 0xA65 JUMP JUMPDEST PUSH1 0x0 PUSH20 0xFFFFFFFFFFFFFFFFFFFFFFFFFFFFFFFFFFFFFFFF AND DUP2 PUSH20 0xFFFFFFFFFFFFFFFFFFFFFFFFFFFFFFFFFFFFFFFF AND SUB PUSH2 0xA59 JUMPI PUSH1 0x40 MLOAD PUSH32 0x8C379A000000000000000000000000000000000000000000000000000000000 DUP2 MSTORE PUSH1 0x4 ADD PUSH2 0xA50 SWAP1 PUSH2 0x20DE JUMP JUMPDEST PUSH1 0x40 MLOAD DUP1 SWAP2 SUB SWAP1 REVERT JUMPDEST PUSH2 0xA62 DUP2 PUSH2 0xADC JUMP JUMPDEST POP JUMP JUMPDEST CALLER PUSH20 0xFFFFFFFFFFFFFFFFFFFFFFFFFFFFFFFFFFFFFFFF AND PUSH2 0xA84 PUSH2 0x6D2 JUMP JUMPDEST PUSH20 0xFFFFFFFFFFFFFFFFFFFFFFFFFFFFFFFFFFFFFFFF AND EQ PUSH2 0xADA JUMPI PUSH1 0x40 MLOAD PUSH32 0x8C379A000000000000000000000000000000000000000000000000000000000 DUP2 MSTORE PUSH1 0x4 ADD PUSH2 0xAD1 SWAP1 PUSH2 0x214A JUMP JUMPDEST PUSH1 0x40 MLOAD DUP1 SWAP2 SUB SWAP1 REVERT JUMPDEST JUMP JUMPDEST PUSH1 0x0 DUP1 PUSH1 0x0 SWAP1 SLOAD SWAP1 PUSH2 0x100 EXP SWAP1 DIV PUSH20 0xFFFFFFFFFFFFFFFFFFFFFFFFFFFFFFFFFFFFFFFF AND SWAP1 POP DUP2 PUSH1 0x0 DUP1 PUSH2 0x100 EXP DUP2 SLOAD DUP2 PUSH20 0xFFFFFFFFFFFFFFFFFFFFFFFFFFFFFFFFFFFFFFFF MUL NOT AND SWAP1 DUP4 PUSH20 0xFFFFFFFFFFFFFFFFFFFFFFFFFFFFFFFFFFFFFFFF AND MUL OR SWAP1 SSTORE POP DUP2 PUSH20 0xFFFFFFFFFFFFFFFFFFFFFFFFFFFFFFFFFFFFFFFF AND DUP2 PUSH20 0xFFFFFFFFFFFFFFFFFFFFFFFFFFFFFFFFFFFFFFFF AND PUSH32 0x8BE0079C531659141344CD1FD0A4F28419497F9722A3DAAFE3B4186F6B6457E0 PUSH1 0x40 MLOAD PUSH1 0x40 MLOAD DUP1 SWAP2 SUB SWAP1 LOG3 POP POP JUMP JUMPDEST PUSH1 0x0 PUSH1 0x40 MLOAD SWAP1 POP SWAP1 JUMP JUMPDEST PUSH1 0x0 DUP1 REVERT JUMPDEST PUSH1 0x0 DUP1 REVERT JUMPDEST PUSH1 0x0 DUP2 SWAP1 POP SWAP2 SWAP1 POP JUMP JUMPDEST PUSH2 0xBC7 DUP2 PUSH2 0xBB4 JUMP JUMPDEST DUP2 EQ PUSH2 0xBD2 JUMPI PUSH1 0x0 DUP1 REVERT JUMPDEST POP JUMP JUMPDEST PUSH1 0x0 DUP2 CALLDATALOAD SWAP1 POP PUSH2 0xBE4 DUP2 PUSH2 0xBBE JUMP JUMPDEST SWAP3 SWAP2 POP POP JUMP JUMPDEST PUSH1 0x0 PUSH1 0x20 DUP3 DUP5 SUB SLT ISZERO PUSH2 0xC00 JUMPI PUSH2 0xBFF PUSH2 0xBAA JUMP JUMPDEST JUMPDEST PUSH1 0x0 PUSH2 0xC0E DUP5 DUP3 DUP6 ADD PUSH2 0xBD5 JUMP JUMPDEST SWAP2 POP POP SWAP3 SWAP2 POP POP JUMP JUMPDEST PUSH1 0x0 DUP2 ISZERO ISZERO SWAP1 POP SWAP2 SWAP1 POP JUMP JUMPDEST PUSH2 0xC2C DUP2 PUSH2 0xC17 JUMP JUMPDEST DUP3 MSTORE POP POP JUMP JUMPDEST PUSH1 0x0 PUSH1 0x20 DUP3 ADD SWAP1 POP PUSH2 0xC47 PUSH1 0x0 DUP4 ADD DUP5 PUSH2 0xC23 JUMP JUMPDEST SWAP3 SWAP2 POP POP JUMP JUMPDEST PUSH1 0x0 DUP2 MLOAD SWAP1 POP SWAP2 SWAP1 POP JUMP JUMPDEST PUSH1 0x0 DUP3 DUP3 MSTORE PUSH1 0x20 DUP3 ADD SWAP1 POP SWAP3 SWAP2 POP POP JUMP JUMPDEST PUSH1 0x0 DUP2 SWAP1 POP PUSH1 0x20 DUP3 ADD SWAP1 POP SWAP2 SWAP1 POP JUMP JUMPDEST PUSH2 0xC82 DUP2 PUSH2 0xBB4 JUMP JUMPDEST DUP3 MSTORE POP POP JUMP JUMPDEST PUSH1 0x0 DUP2 MLOAD SWAP1 POP SWAP2 SWAP1 POP JUMP JUMPDEST PUSH1 0x0 DUP3 DUP3 MSTORE PUSH1 0x20 DUP3 ADD SWAP1 POP SWAP3 SWAP2 POP POP JUMP JUMPDEST PUSH1 0x0 DUP2 SWAP1 POP PUSH1 0x20 DUP3 ADD SWAP1 POP SWAP2 SWAP1 POP JUMP JUMPDEST PUSH1 0x0 PUSH2 0xCC0 DUP4 DUP4 PUSH2 0xC79 JUMP JUMPDEST PUSH1 0x20 DUP4 ADD SWAP1 POP SWAP3 SWAP2 POP POP JUMP JUMPDEST PUSH1 0x0 PUSH1 0x20 DUP3 ADD SWAP1 POP SWAP2 SWAP1 POP JUMP JUMPDEST PUSH1 0x0 PUSH2 0xCE4 DUP3 PUSH2 0xC88 JUMP JUMPDEST PUSH2 0xCEE DUP2 DUP6 PUSH2 0xC93 JUMP JUMPDEST SWAP4 POP PUSH2 0xCF9 DUP4 PUSH2 0xCA4 JUMP JUMPDEST DUP1 PUSH1 0x0 JUMPDEST DUP4 DUP2 LT ISZERO PUSH2 0xD2A JUMPI DUP2 MLOAD PUSH2 0xD11 DUP9 DUP3 PUSH2 0xCB4 JUMP JUMPDEST SWAP8 POP PUSH2 0xD1C DUP4 PUSH2 0xCCC JUMP JUMPDEST SWAP3 POP POP PUSH1 0x1 DUP2 ADD SWAP1 POP PUSH2 0xCFD JUMP JUMPDEST POP DUP6 SWAP4 POP POP POP POP SWAP3 SWAP2 POP POP JUMP JUMPDEST PUSH1 0x0 PUSH1 0x80 DUP4 ADD PUSH1 0x0 DUP4 ADD MLOAD PUSH2 0xD4F PUSH1 0x0 DUP7 ADD DUP3 PUSH2 0xC79 JUMP JUMPDEST POP PUSH1 0x20 DUP4 ADD MLOAD PUSH2 0xD62 PUSH1 0x20 DUP7 ADD DUP3 PUSH2 0xC79 JUMP JUMPDEST POP PUSH1 0x40 DUP4 ADD MLOAD PUSH2 0xD75 PUSH1 0x40 DUP7 ADD DUP3 PUSH2 0xC79 JUMP JUMPDEST POP PUSH1 0x60 DUP4 ADD MLOAD DUP5 DUP3 SUB PUSH1 0x60 DUP7 ADD MSTORE PUSH2 0xD8D DUP3 DUP3 PUSH2 0xCD9 JUMP JUMPDEST SWAP2 POP POP DUP1 SWAP2 POP POP SWAP3 SWAP2 POP POP JUMP JUMPDEST PUSH1 0x0 PUSH2 0xDA6 DUP4 DUP4 PUSH2 0xD37 JUMP JUMPDEST SWAP1 POP SWAP3 SWAP2 POP POP JUMP JUMPDEST PUSH1 0x0 PUSH1 0x20 DUP3 ADD SWAP1 POP SWAP2 SWAP1 POP JUMP JUMPDEST PUSH1 0x0 PUSH2 0xDC6 DUP3 PUSH2 0xC4D JUMP JUMPDEST PUSH2 0xDD0 DUP2 DUP6 PUSH2 0xC58 JUMP JUMPDEST SWAP4 POP DUP4 PUSH1 0x20 DUP3 MUL DUP6 ADD PUSH2 0xDE2 DUP6 PUSH2 0xC69 JUMP JUMPDEST DUP1 PUSH1 0x0 JUMPDEST DUP6 DUP2 LT ISZERO PUSH2 0xE1E JUMPI DUP5 DUP5 SUB DUP10 MSTORE DUP2 MLOAD PUSH2 0xDFF DUP6 DUP3 PUSH2 0xD9A JUMP JUMPDEST SWAP5 POP PUSH2 0xE0A DUP4 PUSH2 0xDAE JUMP JUMPDEST SWAP3 POP PUSH1 0x20 DUP11 ADD SWAP10 POP POP PUSH1 0x1 DUP2 ADD SWAP1 POP PUSH2 0xDE6 JUMP JUMPDEST POP DUP3 SWAP8 POP DUP8 SWAP6 POP POP POP POP POP POP SWAP3 SWAP2 POP POP JUMP JUMPDEST PUSH1 0x0 PUSH1 0x20 DUP3 ADD SWAP1 POP DUP2 DUP2 SUB PUSH1 0x0 DUP4 ADD MSTORE PUSH2 0xE4A DUP2 DUP5 PUSH2 0xDBB JUMP JUMPDEST SWAP1 POP SWAP3 SWAP2 POP POP JUMP JUMPDEST PUSH1 0x0 DUP2 MLOAD SWAP1 POP SWAP2 SWAP1 POP JUMP JUMPDEST PUSH1 0x0 DUP3 DUP3 MSTORE PUSH1 0x20 DUP3 ADD SWAP1 POP SWAP3 SWAP2 POP POP JUMP JUMPDEST PUSH1 0x0 DUP2 SWAP1 POP PUSH1 0x20 DUP3 ADD SWAP1 POP SWAP2 SWAP1 POP JUMP JUMPDEST PUSH1 0x0 PUSH20 0xFFFFFFFFFFFFFFFFFFFFFFFFFFFFFFFFFFFFFFFF DUP3 AND SWAP1 POP SWAP2 SWAP1 POP JUMP JUMPDEST PUSH1 0x0 PUSH2 0xEA9 DUP3 PUSH2 0xE7E JUMP JUMPDEST SWAP1 POP SWAP2 SWAP1 POP JUMP JUMPDEST PUSH2 0xEB9 DUP2 PUSH2 0xE9E JUMP JUMPDEST DUP3 MSTORE POP POP JUMP JUMPDEST PUSH1 0x60 DUP3 ADD PUSH1 0x0 DUP3 ADD MLOAD PUSH2 0xED5 PUSH1 0x0 DUP6 ADD DUP3 PUSH2 0xC79 JUMP JUMPDEST POP PUSH1 0x20 DUP3 ADD MLOAD PUSH2 0xEE8 PUSH1 0x20 DUP6 ADD DUP3 PUSH2 0xEB0 JUMP JUMPDEST POP PUSH1 0x40 DUP3 ADD MLOAD PUSH2 0xEFB PUSH1 0x40 DUP6 ADD DUP3 PUSH2 0xC79 JUMP JUMPDEST POP POP POP POP JUMP JUMPDEST PUSH1 0x0 PUSH2 0xF0D DUP4 DUP4 PUSH2 0xEBF JUMP JUMPDEST PUSH1 0x60 DUP4 ADD SWAP1 POP SWAP3 SWAP2 POP POP JUMP JUMPDEST PUSH1 0x0 PUSH1 0x20 DUP3 ADD SWAP1 POP SWAP2 SWAP1 POP JUMP JUMPDEST PUSH1 0x0 PUSH2 0xF31 DUP3 PUSH2 0xE52 JUMP JUMPDEST PUSH2 0xF3B DUP2 DUP6 PUSH2 0xE5D JUMP JUMPDEST SWAP4 POP PUSH2 0xF46 DUP4 PUSH2 0xE6E JUMP JUMPDEST DUP1 PUSH1 0x0 JUMPDEST DUP4 DUP2 LT ISZERO PUSH2 0xF77 JUMPI DUP2 MLOAD PUSH2 0xF5E DUP9 DUP3 PUSH2 0xF01 JUMP JUMPDEST SWAP8 POP PUSH2 0xF69 DUP4 PUSH2 0xF19 JUMP JUMPDEST SWAP3 POP POP PUSH1 0x1 DUP2 ADD SWAP1 POP PUSH2 0xF4A JUMP JUMPDEST POP DUP6 SWAP4 POP POP POP POP SWAP3 SWAP2 POP POP JUMP JUMPDEST PUSH1 0x0 PUSH1 0x20 DUP3 ADD SWAP1 POP DUP2 DUP2 SUB PUSH1 0x0 DUP4 ADD MSTORE PUSH2 0xF9E DUP2 DUP5 PUSH2 0xF26 JUMP JUMPDEST SWAP1 POP SWAP3 SWAP2 POP POP JUMP JUMPDEST PUSH1 0x0 DUP2 MLOAD SWAP1 POP SWAP2 SWAP1 POP JUMP JUMPDEST PUSH1 0x0 DUP3 DUP3 MSTORE PUSH1 0x20 DUP3 ADD SWAP1 POP SWAP3 SWAP2 POP POP JUMP JUMPDEST PUSH1 0x0 DUP2 SWAP1 POP PUSH1 0x20 DUP3 ADD SWAP1 POP SWAP2 SWAP1 POP JUMP JUMPDEST PUSH1 0xA0 DUP3 ADD PUSH1 0x0 DUP3 ADD MLOAD PUSH2 0xFE8 PUSH1 0x0 DUP6 ADD DUP3 PUSH2 0xC79 JUMP JUMPDEST POP PUSH1 0x20 DUP3 ADD MLOAD PUSH2 0xFFB PUSH1 0x20 DUP6 ADD DUP3 PUSH2 0xC79 JUMP JUMPDEST POP PUSH1 0x40 DUP3 ADD MLOAD PUSH2 0x100E PUSH1 0x40 DUP6 ADD DUP3 PUSH2 0xC79 JUMP JUMPDEST POP PUSH1 0x60 DUP3 ADD MLOAD PUSH2 0x1021 PUSH1 0x60 DUP6 ADD DUP3 PUSH2 0xC79 JUMP JUMPDEST POP PUSH1 0x80 DUP3 ADD MLOAD PUSH2 0x1034 PUSH1 0x80 DUP6 ADD DUP3 PUSH2 0xC79 JUMP JUMPDEST POP POP POP POP JUMP JUMPDEST PUSH1 0x0 PUSH2 0x1046 DUP4 DUP4 PUSH2 0xFD2 JUMP JUMPDEST PUSH1 0xA0 DUP4 ADD SWAP1 POP SWAP3 SWAP2 POP POP JUMP JUMPDEST PUSH1 0x0 PUSH1 0x20 DUP3 ADD SWAP1 POP SWAP2 SWAP1 POP JUMP JUMPDEST PUSH1 0x0 PUSH2 0x106A DUP3 PUSH2 0xFA6 JUMP JUMPDEST PUSH2 0x1074 DUP2 DUP6 PUSH2 0xFB1 JUMP JUMPDEST SWAP4 POP PUSH2 0x107F DUP4 PUSH2 0xFC2 JUMP JUMPDEST DUP1 PUSH1 0x0 JUMPDEST DUP4 DUP2 LT ISZERO PUSH2 0x10B0 JUMPI DUP2 MLOAD PUSH2 0x1097 DUP9 DUP3 PUSH2 0x103A JUMP JUMPDEST SWAP8 POP PUSH2 0x10A2 DUP4 PUSH2 0x1052 JUMP JUMPDEST SWAP3 POP POP PUSH1 0x1 DUP2 ADD SWAP1 POP PUSH2 0x1083 JUMP JUMPDEST POP DUP6 SWAP4 POP POP POP POP SWAP3 SWAP2 POP POP JUMP JUMPDEST PUSH1 0x0 PUSH1 0x20 DUP3 ADD SWAP1 POP DUP2 DUP2 SUB PUSH1 0x0 DUP4 ADD MSTORE PUSH2 0x10D7 DUP2 DUP5 PUSH2 0x105F JUMP JUMPDEST SWAP1 POP SWAP3 SWAP2 POP POP JUMP JUMPDEST PUSH1 0x0 DUP1 PUSH1 0x0 DUP1 PUSH1 0x80 DUP6 DUP8 SUB SLT ISZERO PUSH2 0x10F9 JUMPI PUSH2 0x10F8 PUSH2 0xBAA JUMP JUMPDEST JUMPDEST PUSH1 0x0 PUSH2 0x1107 DUP8 DUP3 DUP9 ADD PUSH2 0xBD5 JUMP JUMPDEST SWAP5 POP POP PUSH1 0x20 PUSH2 0x1118 DUP8 DUP3 DUP9 ADD PUSH2 0xBD5 JUMP JUMPDEST SWAP4 POP POP PUSH1 0x40 PUSH2 0x1129 DUP8 DUP3 DUP9 ADD PUSH2 0xBD5 JUMP JUMPDEST SWAP3 POP POP PUSH1 0x60 PUSH2 0x113A DUP8 DUP3 DUP9 ADD PUSH2 0xBD5 JUMP JUMPDEST SWAP2 POP POP SWAP3 SWAP6 SWAP2 SWAP5 POP SWAP3 POP JUMP JUMPDEST PUSH2 0x114F DUP2 PUSH2 0xE9E JUMP JUMPDEST DUP3 MSTORE POP POP JUMP JUMPDEST PUSH1 0x0 PUSH1 0x20 DUP3 ADD SWAP1 POP PUSH2 0x116A PUSH1 0x0 DUP4 ADD DUP5 PUSH2 0x1146 JUMP JUMPDEST SWAP3 SWAP2 POP POP JUMP JUMPDEST PUSH1 0x0 DUP1 REVERT JUMPDEST PUSH1 0x0 PUSH1 0x1F NOT PUSH1 0x1F DUP4 ADD AND SWAP1 POP SWAP2 SWAP1 POP JUMP JUMPDEST PUSH32 0x4E487B7100000000000000000000000000000000000000000000000000000000 PUSH1 0x0 MSTORE PUSH1 0x41 PUSH1 0x4 MSTORE PUSH1 0x24 PUSH1 0x0 REVERT JUMPDEST PUSH2 0x11BE DUP3 PUSH2 0x1175 JUMP JUMPDEST DUP2 ADD DUP2 DUP2 LT PUSH8 0xFFFFFFFFFFFFFFFF DUP3 GT OR ISZERO PUSH2 0x11DD JUMPI PUSH2 0x11DC PUSH2 0x1186 JUMP JUMPDEST JUMPDEST DUP1 PUSH1 0x40 MSTORE POP POP POP JUMP JUMPDEST PUSH1 0x0 PUSH2 0x11F0 PUSH2 0xBA0 JUMP JUMPDEST SWAP1 POP PUSH2 0x11FC DUP3 DUP3 PUSH2 0x11B5 JUMP JUMPDEST SWAP2 SWAP1 POP JUMP JUMPDEST PUSH1 0x0 PUSH8 0xFFFFFFFFFFFFFFFF DUP3 GT ISZERO PUSH2 0x121C JUMPI PUSH2 0x121B PUSH2 0x1186 JUMP JUMPDEST JUMPDEST PUSH1 0x20 DUP3 MUL SWAP1 POP PUSH1 0x20 DUP2 ADD SWAP1 POP SWAP2 SWAP1 POP JUMP JUMPDEST PUSH1 0x0 DUP1 REVERT JUMPDEST PUSH1 0x0 PUSH2 0x1245 PUSH2 0x1240 DUP5 PUSH2 0x1201 JUMP JUMPDEST PUSH2 0x11E6 JUMP JUMPDEST SWAP1 POP DUP1 DUP4 DUP3 MSTORE PUSH1 0x20 DUP3 ADD SWAP1 POP PUSH1 0x20 DUP5 MUL DUP4 ADD DUP6 DUP2 GT ISZERO PUSH2 0x1268 JUMPI PUSH2 0x1267 PUSH2 0x122D JUMP JUMPDEST JUMPDEST DUP4 JUMPDEST DUP2 DUP2 LT ISZERO PUSH2 0x1291 JUMPI DUP1 PUSH2 0x127D DUP9 DUP3 PUSH2 0xBD5 JUMP JUMPDEST DUP5 MSTORE PUSH1 0x20 DUP5 ADD SWAP4 POP POP PUSH1 0x20 DUP2 ADD SWAP1 POP PUSH2 0x126A JUMP JUMPDEST POP POP POP SWAP4 SWAP3 POP POP POP JUMP JUMPDEST PUSH1 0x0 DUP3 PUSH1 0x1F DUP4 ADD SLT PUSH2 0x12B0 JUMPI PUSH2 0x12AF PUSH2 0x1170 JUMP JUMPDEST JUMPDEST DUP2 CALLDATALOAD PUSH2 0x12C0 DUP5 DUP3 PUSH1 0x20 DUP7 ADD PUSH2 0x1232 JUMP JUMPDEST SWAP2 POP POP SWAP3 SWAP2 POP POP JUMP JUMPDEST PUSH1 0x0 DUP1 PUSH1 0x0 PUSH1 0x60 DUP5 DUP7 SUB SLT ISZERO PUSH2 0x12E2 JUMPI PUSH2 0x12E1 PUSH2 0xBAA JUMP JUMPDEST JUMPDEST PUSH1 0x0 PUSH2 0x12F0 DUP7 DUP3 DUP8 ADD PUSH2 0xBD5 JUMP JUMPDEST SWAP4 POP POP PUSH1 0x20 PUSH2 0x1301 DUP7 DUP3 DUP8 ADD PUSH2 0xBD5 JUMP JUMPDEST SWAP3 POP POP PUSH1 0x40 DUP5 ADD CALLDATALOAD PUSH8 0xFFFFFFFFFFFFFFFF DUP2 GT ISZERO PUSH2 0x1322 JUMPI PUSH2 0x1321 PUSH2 0xBAF JUMP JUMPDEST JUMPDEST PUSH2 0x132E DUP7 DUP3 DUP8 ADD PUSH2 0x129B JUMP JUMPDEST SWAP2 POP POP SWAP3 POP SWAP3 POP SWAP3 JUMP JUMPDEST PUSH1 0x0 DUP1 PUSH1 0x0 DUP1 PUSH1 0x0 PUSH1 0xA0 DUP7 DUP9 SUB SLT ISZERO PUSH2 0x1354 JUMPI PUSH2 0x1353 PUSH2 0xBAA JUMP JUMPDEST JUMPDEST PUSH1 0x0 PUSH2 0x1362 DUP9 DUP3 DUP10 ADD PUSH2 0xBD5 JUMP JUMPDEST SWAP6 POP POP PUSH1 0x20 DUP7 ADD CALLDATALOAD PUSH8 0xFFFFFFFFFFFFFFFF DUP2 GT ISZERO PUSH2 0x1383 JUMPI PUSH2 0x1382 PUSH2 0xBAF JUMP JUMPDEST JUMPDEST PUSH2 0x138F DUP9 DUP3 DUP10 ADD PUSH2 0x129B JUMP JUMPDEST SWAP5 POP POP PUSH1 0x40 PUSH2 0x13A0 DUP9 DUP3 DUP10 ADD PUSH2 0xBD5 JUMP JUMPDEST SWAP4 POP POP PUSH1 0x60 PUSH2 0x13B1 DUP9 DUP3 DUP10 ADD PUSH2 0xBD5 JUMP JUMPDEST SWAP3 POP POP PUSH1 0x80 PUSH2 0x13C2 DUP9 DUP3 DUP10 ADD PUSH2 0xBD5 JUMP JUMPDEST SWAP2 POP POP SWAP3 SWAP6 POP SWAP3 SWAP6 SWAP1 SWAP4 POP JUMP JUMPDEST PUSH1 0x0 DUP2 MLOAD SWAP1 POP SWAP2 SWAP1 POP JUMP JUMPDEST PUSH1 0x0 DUP3 DUP3 MSTORE PUSH1 0x20 DUP3 ADD SWAP1 POP SWAP3 SWAP2 POP POP JUMP JUMPDEST PUSH1 0x0 DUP2 SWAP1 POP PUSH1 0x20 DUP3 ADD SWAP1 POP SWAP2 SWAP1 POP JUMP JUMPDEST PUSH1 0x0 PUSH1 0xC0 DUP4 ADD PUSH1 0x0 DUP4 ADD MLOAD PUSH2 0x1413 PUSH1 0x0 DUP7 ADD DUP3 PUSH2 0xC79 JUMP JUMPDEST POP PUSH1 0x20 DUP4 ADD MLOAD PUSH2 0x1426 PUSH1 0x20 DUP7 ADD DUP3 PUSH2 0xC79 JUMP JUMPDEST POP PUSH1 0x40 DUP4 ADD MLOAD DUP5 DUP3 SUB PUSH1 0x40 DUP7 ADD MSTORE PUSH2 0x143E DUP3 DUP3 PUSH2 0xCD9 JUMP JUMPDEST SWAP2 POP POP PUSH1 0x60 DUP4 ADD MLOAD PUSH2 0x1453 PUSH1 0x60 DUP7 ADD DUP3 PUSH2 0xC79 JUMP JUMPDEST POP PUSH1 0x80 DUP4 ADD MLOAD PUSH2 0x1466 PUSH1 0x80 DUP7 ADD DUP3 PUSH2 0xC79 JUMP JUMPDEST POP PUSH1 0xA0 DUP4 ADD MLOAD PUSH2 0x1479 PUSH1 0xA0 DUP7 ADD DUP3 PUSH2 0xC79 JUMP JUMPDEST POP DUP1 SWAP2 POP POP SWAP3 SWAP2 POP POP JUMP JUMPDEST PUSH1 0x0 PUSH2 0x1490 DUP4 DUP4 PUSH2 0x13FB JUMP JUMPDEST SWAP1 POP SWAP3 SWAP2 POP POP JUMP JUMPDEST PUSH1 0x0 PUSH1 0x20 DUP3 ADD SWAP1 POP SWAP2 SWAP1 POP JUMP JUMPDEST PUSH1 0x0 PUSH2 0x14B0 DUP3 PUSH2 0x13CF JUMP JUMPDEST PUSH2 0x14BA DUP2 DUP6 PUSH2 0x13DA JUMP JUMPDEST SWAP4 POP DUP4 PUSH1 0x20 DUP3 MUL DUP6 ADD PUSH2 0x14CC DUP6 PUSH2 0x13EB JUMP JUMPDEST DUP1 PUSH1 0x0 JUMPDEST DUP6 DUP2 LT ISZERO PUSH2 0x1508 JUMPI DUP5 DUP5 SUB DUP10 MSTORE DUP2 MLOAD PUSH2 0x14E9 DUP6 DUP3 PUSH2 0x1484 JUMP JUMPDEST SWAP5 POP PUSH2 0x14F4 DUP4 PUSH2 0x1498 JUMP JUMPDEST SWAP3 POP PUSH1 0x20 DUP11 ADD SWAP10 POP POP PUSH1 0x1 DUP2 ADD SWAP1 POP PUSH2 0x14D0 JUMP JUMPDEST POP DUP3 SWAP8 POP DUP8 SWAP6 POP POP POP POP POP POP SWAP3 SWAP2 POP POP JUMP JUMPDEST PUSH1 0x0 PUSH1 0x20 DUP3 ADD SWAP1 POP DUP2 DUP2 SUB PUSH1 0x0 DUP4 ADD MSTORE PUSH2 0x1534 DUP2 DUP5 PUSH2 0x14A5 JUMP JUMPDEST SWAP1 POP SWAP3 SWAP2 POP POP JUMP JUMPDEST PUSH1 0x0 DUP2 SWAP1 POP SWAP2 SWAP1 POP JUMP JUMPDEST PUSH1 0x0 PUSH2 0x1561 PUSH2 0x155C PUSH2 0x1557 DUP5 PUSH2 0xE7E JUMP JUMPDEST PUSH2 0x153C JUMP JUMPDEST PUSH2 0xE7E JUMP JUMPDEST SWAP1 POP SWAP2 SWAP1 POP JUMP JUMPDEST PUSH1 0x0 PUSH2 0x1573 DUP3 PUSH2 0x1546 JUMP JUMPDEST SWAP1 POP SWAP2 SWAP1 POP JUMP JUMPDEST PUSH1 0x0 PUSH2 0x1585 DUP3 PUSH2 0x1568 JUMP JUMPDEST SWAP1 POP SWAP2 SWAP1 POP JUMP JUMPDEST PUSH2 0x1595 DUP2 PUSH2 0x157A JUMP JUMPDEST DUP3 MSTORE POP POP JUMP JUMPDEST PUSH1 0x0 PUSH1 0x20 DUP3 ADD SWAP1 POP PUSH2 0x15B0 PUSH1 0x0 DUP4 ADD DUP5 PUSH2 0x158C JUMP JUMPDEST SWAP3 SWAP2 POP POP JUMP JUMPDEST PUSH2 0x15BF DUP2 PUSH2 0xE9E JUMP JUMPDEST DUP2 EQ PUSH2 0x15CA JUMPI PUSH1 0x0 DUP1 REVERT JUMPDEST POP JUMP JUMPDEST PUSH1 0x0 DUP2 CALLDATALOAD SWAP1 POP PUSH2 0x15DC DUP2 PUSH2 0x15B6 JUMP JUMPDEST SWAP3 SWAP2 POP POP JUMP JUMPDEST PUSH1 0x0 PUSH1 0x20 DUP3 DUP5 SUB SLT ISZERO PUSH2 0x15F8 JUMPI PUSH2 0x15F7 PUSH2 0xBAA JUMP JUMPDEST JUMPDEST PUSH1 0x0 PUSH2 0x1606 DUP5 DUP3 DUP6 ADD PUSH2 0x15CD JUMP JUMPDEST SWAP2 POP POP SWAP3 SWAP2 POP POP JUMP JUMPDEST PUSH1 0x60 DUP3 ADD PUSH1 0x0 DUP3 ADD MLOAD PUSH2 0x1625 PUSH1 0x0 DUP6 ADD DUP3 PUSH2 0xC79 JUMP JUMPDEST POP PUSH1 0x20 DUP3 ADD MLOAD PUSH2 0x1638 PUSH1 0x20 DUP6 ADD DUP3 PUSH2 0xEB0 JUMP JUMPDEST POP PUSH1 0x40 DUP3 ADD MLOAD PUSH2 0x164B PUSH1 0x40 DUP6 ADD DUP3 PUSH2 0xC79 JUMP JUMPDEST POP POP POP POP JUMP JUMPDEST PUSH1 0x0 DUP2 SWAP1 POP SWAP2 SWAP1 POP JUMP JUMPDEST PUSH2 0x1664 DUP2 PUSH2 0x1651 JUMP JUMPDEST DUP3 MSTORE POP POP JUMP JUMPDEST PUSH1 0x0 PUSH1 0x80 DUP3 ADD SWAP1 POP PUSH2 0x167F PUSH1 0x0 DUP4 ADD DUP6 PUSH2 0x160F JUMP JUMPDEST PUSH2 0x168C PUSH1 0x60 DUP4 ADD DUP5 PUSH2 0x165B JUMP JUMPDEST SWAP4 SWAP3 POP POP POP JUMP JUMPDEST PUSH2 0x169C DUP2 PUSH2 0xC17 JUMP JUMPDEST DUP2 EQ PUSH2 0x16A7 JUMPI PUSH1 0x0 DUP1 REVERT JUMPDEST POP JUMP JUMPDEST PUSH1 0x0 DUP2 MLOAD SWAP1 POP PUSH2 0x16B9 DUP2 PUSH2 0x1693 JUMP JUMPDEST SWAP3 SWAP2 POP POP JUMP JUMPDEST PUSH1 0x0 PUSH1 0x20 DUP3 DUP5 SUB SLT ISZERO PUSH2 0x16D5 JUMPI PUSH2 0x16D4 PUSH2 0xBAA JUMP JUMPDEST JUMPDEST PUSH1 0x0 PUSH2 0x16E3 DUP5 DUP3 DUP6 ADD PUSH2 0x16AA JUMP JUMPDEST SWAP2 POP POP SWAP3 SWAP2 POP POP JUMP JUMPDEST PUSH1 0x0 PUSH1 0x20 DUP3 ADD SWAP1 POP PUSH2 0x1701 PUSH1 0x0 DUP4 ADD DUP5 PUSH2 0x165B JUMP JUMPDEST SWAP3 SWAP2 POP POP JUMP JUMPDEST PUSH1 0x0 PUSH8 0xFFFFFFFFFFFFFFFF DUP3 GT ISZERO PUSH2 0x1722 JUMPI PUSH2 0x1721 PUSH2 0x1186 JUMP JUMPDEST JUMPDEST PUSH1 0x20 DUP3 MUL SWAP1 POP PUSH1 0x20 DUP2 ADD SWAP1 POP SWAP2 SWAP1 POP JUMP JUMPDEST PUSH1 0x0 DUP1 REVERT JUMPDEST PUSH1 0x0 DUP1 REVERT JUMPDEST PUSH1 0x0 DUP2 MLOAD SWAP1 POP PUSH2 0x174C DUP2 PUSH2 0xBBE JUMP JUMPDEST SWAP3 SWAP2 POP POP JUMP JUMPDEST PUSH1 0x0 PUSH2 0x1765 PUSH2 0x1760 DUP5 PUSH2 0x1201 JUMP JUMPDEST PUSH2 0x11E6 JUMP JUMPDEST SWAP1 POP DUP1 DUP4 DUP3 MSTORE PUSH1 0x20 DUP3 ADD SWAP1 POP PUSH1 0x20 DUP5 MUL DUP4 ADD DUP6 DUP2 GT ISZERO PUSH2 0x1788 JUMPI PUSH2 0x1787 PUSH2 0x122D JUMP JUMPDEST JUMPDEST DUP4 JUMPDEST DUP2 DUP2 LT ISZERO PUSH2 0x17B1 JUMPI DUP1 PUSH2 0x179D DUP9 DUP3 PUSH2 0x173D JUMP JUMPDEST DUP5 MSTORE PUSH1 0x20 DUP5 ADD SWAP4 POP POP PUSH1 0x20 DUP2 ADD SWAP1 POP PUSH2 0x178A JUMP JUMPDEST POP POP POP SWAP4 SWAP3 POP POP POP JUMP JUMPDEST PUSH1 0x0 DUP3 PUSH1 0x1F DUP4 ADD SLT PUSH2 0x17D0 JUMPI PUSH2 0x17CF PUSH2 0x1170 JUMP JUMPDEST JUMPDEST DUP2 MLOAD PUSH2 0x17E0 DUP5 DUP3 PUSH1 0x20 DUP7 ADD PUSH2 0x1752 JUMP JUMPDEST SWAP2 POP POP SWAP3 SWAP2 POP POP JUMP JUMPDEST PUSH1 0x0 PUSH1 0x80 DUP3 DUP5 SUB SLT ISZERO PUSH2 0x17FF JUMPI PUSH2 0x17FE PUSH2 0x1733 JUMP JUMPDEST JUMPDEST PUSH2 0x1809 PUSH1 0x80 PUSH2 0x11E6 JUMP JUMPDEST SWAP1 POP PUSH1 0x0 PUSH2 0x1819 DUP5 DUP3 DUP6 ADD PUSH2 0x173D JUMP JUMPDEST PUSH1 0x0 DUP4 ADD MSTORE POP PUSH1 0x20 PUSH2 0x182D DUP5 DUP3 DUP6 ADD PUSH2 0x173D JUMP JUMPDEST PUSH1 0x20 DUP4 ADD MSTORE POP PUSH1 0x40 PUSH2 0x1841 DUP5 DUP3 DUP6 ADD PUSH2 0x173D JUMP JUMPDEST PUSH1 0x40 DUP4 ADD MSTORE POP PUSH1 0x60 DUP3 ADD MLOAD PUSH8 0xFFFFFFFFFFFFFFFF DUP2 GT ISZERO PUSH2 0x1865 JUMPI PUSH2 0x1864 PUSH2 0x1738 JUMP JUMPDEST JUMPDEST PUSH2 0x1871 DUP5 DUP3 DUP6 ADD PUSH2 0x17BB JUMP JUMPDEST PUSH1 0x60 DUP4 ADD MSTORE POP SWAP3 SWAP2 POP POP JUMP JUMPDEST PUSH1 0x0 PUSH2 0x1890 PUSH2 0x188B DUP5 PUSH2 0x1707 JUMP JUMPDEST PUSH2 0x11E6 JUMP JUMPDEST SWAP1 POP DUP1 DUP4 DUP3 MSTORE PUSH1 0x20 DUP3 ADD SWAP1 POP PUSH1 0x20 DUP5 MUL DUP4 ADD DUP6 DUP2 GT ISZERO PUSH2 0x18B3 JUMPI PUSH2 0x18B2 PUSH2 0x122D JUMP JUMPDEST JUMPDEST DUP4 JUMPDEST DUP2 DUP2 LT ISZERO PUSH2 0x18FA JUMPI DUP1 MLOAD PUSH8 0xFFFFFFFFFFFFFFFF DUP2 GT ISZERO PUSH2 0x18D8 JUMPI PUSH2 0x18D7 PUSH2 0x1170 JUMP JUMPDEST JUMPDEST DUP1 DUP7 ADD PUSH2 0x18E5 DUP10 DUP3 PUSH2 0x17E9 JUMP JUMPDEST DUP6 MSTORE PUSH1 0x20 DUP6 ADD SWAP5 POP POP POP PUSH1 0x20 DUP2 ADD SWAP1 POP PUSH2 0x18B5 JUMP JUMPDEST POP POP POP SWAP4 SWAP3 POP POP POP JUMP JUMPDEST PUSH1 0x0 DUP3 PUSH1 0x1F DUP4 ADD SLT PUSH2 0x1919 JUMPI PUSH2 0x1918 PUSH2 0x1170 JUMP JUMPDEST JUMPDEST DUP2 MLOAD PUSH2 0x1929 DUP5 DUP3 PUSH1 0x20 DUP7 ADD PUSH2 0x187D JUMP JUMPDEST SWAP2 POP POP SWAP3 SWAP2 POP POP JUMP JUMPDEST PUSH1 0x0 PUSH1 0x20 DUP3 DUP5 SUB SLT ISZERO PUSH2 0x1948 JUMPI PUSH2 0x1947 PUSH2 0xBAA JUMP JUMPDEST JUMPDEST PUSH1 0x0 DUP3 ADD MLOAD PUSH8 0xFFFFFFFFFFFFFFFF DUP2 GT ISZERO PUSH2 0x1966 JUMPI PUSH2 0x1965 PUSH2 0xBAF JUMP JUMPDEST JUMPDEST PUSH2 0x1972 DUP5 DUP3 DUP6 ADD PUSH2 0x1904 JUMP JUMPDEST SWAP2 POP POP SWAP3 SWAP2 POP POP JUMP JUMPDEST PUSH1 0x0 PUSH8 0xFFFFFFFFFFFFFFFF DUP3 GT ISZERO PUSH2 0x1996 JUMPI PUSH2 0x1995 PUSH2 0x1186 JUMP JUMPDEST JUMPDEST PUSH1 0x20 DUP3 MUL SWAP1 POP PUSH1 0x20 DUP2 ADD SWAP1 POP SWAP2 SWAP1 POP JUMP JUMPDEST PUSH1 0x0 DUP2 MLOAD SWAP1 POP PUSH2 0x19B6 DUP2 PUSH2 0x15B6 JUMP JUMPDEST SWAP3 SWAP2 POP POP JUMP JUMPDEST PUSH1 0x0 PUSH1 0x60 DUP3 DUP5 SUB SLT ISZERO PUSH2 0x19D2 JUMPI PUSH2 0x19D1 PUSH2 0x1733 JUMP JUMPDEST JUMPDEST PUSH2 0x19DC PUSH1 0x60 PUSH2 0x11E6 JUMP JUMPDEST SWAP1 POP PUSH1 0x0 PUSH2 0x19EC DUP5 DUP3 DUP6 ADD PUSH2 0x173D JUMP JUMPDEST PUSH1 0x0 DUP4 ADD MSTORE POP PUSH1 0x20 PUSH2 0x1A00 DUP5 DUP3 DUP6 ADD PUSH2 0x19A7 JUMP JUMPDEST PUSH1 0x20 DUP4 ADD MSTORE POP PUSH1 0x40 PUSH2 0x1A14 DUP5 DUP3 DUP6 ADD PUSH2 0x173D JUMP JUMPDEST PUSH1 0x40 DUP4 ADD MSTORE POP SWAP3 SWAP2 POP POP JUMP JUMPDEST PUSH1 0x0 PUSH2 0x1A33 PUSH2 0x1A2E DUP5 PUSH2 0x197B JUMP JUMPDEST PUSH2 0x11E6 JUMP JUMPDEST SWAP1 POP DUP1 DUP4 DUP3 MSTORE PUSH1 0x20 DUP3 ADD SWAP1 POP PUSH1 0x60 DUP5 MUL DUP4 ADD DUP6 DUP2 GT ISZERO PUSH2 0x1A56 JUMPI PUSH2 0x1A55 PUSH2 0x122D JUMP JUMPDEST JUMPDEST DUP4 JUMPDEST DUP2 DUP2 LT ISZERO PUSH2 0x1A7F JUMPI DUP1 PUSH2 0x1A6B DUP9 DUP3 PUSH2 0x19BC JUMP JUMPDEST DUP5 MSTORE PUSH1 0x20 DUP5 ADD SWAP4 POP POP PUSH1 0x60 DUP2 ADD SWAP1 POP PUSH2 0x1A58 JUMP JUMPDEST POP POP POP SWAP4 SWAP3 POP POP POP JUMP JUMPDEST PUSH1 0x0 DUP3 PUSH1 0x1F DUP4 ADD SLT PUSH2 0x1A9E JUMPI PUSH2 0x1A9D PUSH2 0x1170 JUMP JUMPDEST JUMPDEST DUP2 MLOAD PUSH2 0x1AAE DUP5 DUP3 PUSH1 0x20 DUP7 ADD PUSH2 0x1A20 JUMP JUMPDEST SWAP2 POP POP SWAP3 SWAP2 POP POP JUMP JUMPDEST PUSH1 0x0 PUSH1 0x20 DUP3 DUP5 SUB SLT ISZERO PUSH2 0x1ACD JUMPI PUSH2 0x1ACC PUSH2 0xBAA JUMP JUMPDEST JUMPDEST PUSH1 0x0 DUP3 ADD MLOAD PUSH8 0xFFFFFFFFFFFFFFFF DUP2 GT ISZERO PUSH2 0x1AEB JUMPI PUSH2 0x1AEA PUSH2 0xBAF JUMP JUMPDEST JUMPDEST PUSH2 0x1AF7 DUP5 DUP3 DUP6 ADD PUSH2 0x1A89 JUMP JUMPDEST SWAP2 POP POP SWAP3 SWAP2 POP POP JUMP JUMPDEST PUSH1 0x0 PUSH8 0xFFFFFFFFFFFFFFFF DUP3 GT ISZERO PUSH2 0x1B1B JUMPI PUSH2 0x1B1A PUSH2 0x1186 JUMP JUMPDEST JUMPDEST PUSH1 0x20 DUP3 MUL SWAP1 POP PUSH1 0x20 DUP2 ADD SWAP1 POP SWAP2 SWAP1 POP JUMP JUMPDEST PUSH1 0x0 PUSH1 0xA0 DUP3 DUP5 SUB SLT ISZERO PUSH2 0x1B42 JUMPI PUSH2 0x1B41 PUSH2 0x1733 JUMP JUMPDEST JUMPDEST PUSH2 0x1B4C PUSH1 0xA0 PUSH2 0x11E6 JUMP JUMPDEST SWAP1 POP PUSH1 0x0 PUSH2 0x1B5C DUP5 DUP3 DUP6 ADD PUSH2 0x173D JUMP JUMPDEST PUSH1 0x0 DUP4 ADD MSTORE POP PUSH1 0x20 PUSH2 0x1B70 DUP5 DUP3 DUP6 ADD PUSH2 0x173D JUMP JUMPDEST PUSH1 0x20 DUP4 ADD MSTORE POP PUSH1 0x40 PUSH2 0x1B84 DUP5 DUP3 DUP6 ADD PUSH2 0x173D JUMP JUMPDEST PUSH1 0x40 DUP4 ADD MSTORE POP PUSH1 0x60 PUSH2 0x1B98 DUP5 DUP3 DUP6 ADD PUSH2 0x173D JUMP JUMPDEST PUSH1 0x60 DUP4 ADD MSTORE POP PUSH1 0x80 PUSH2 0x1BAC DUP5 DUP3 DUP6 ADD PUSH2 0x173D JUMP JUMPDEST PUSH1 0x80 DUP4 ADD MSTORE POP SWAP3 SWAP2 POP POP JUMP JUMPDEST PUSH1 0x0 PUSH2 0x1BCB PUSH2 0x1BC6 DUP5 PUSH2 0x1B00 JUMP JUMPDEST PUSH2 0x11E6 JUMP JUMPDEST SWAP1 POP DUP1 DUP4 DUP3 MSTORE PUSH1 0x20 DUP3 ADD SWAP1 POP PUSH1 0xA0 DUP5 MUL DUP4 ADD DUP6 DUP2 GT ISZERO PUSH2 0x1BEE JUMPI PUSH2 0x1BED PUSH2 0x122D JUMP JUMPDEST JUMPDEST DUP4 JUMPDEST DUP2 DUP2 LT ISZERO PUSH2 0x1C17 JUMPI DUP1 PUSH2 0x1C03 DUP9 DUP3 PUSH2 0x1B2C JUMP JUMPDEST DUP5 MSTORE PUSH1 0x20 DUP5 ADD SWAP4 POP POP PUSH1 0xA0 DUP2 ADD SWAP1 POP PUSH2 0x1BF0 JUMP JUMPDEST POP POP POP SWAP4 SWAP3 POP POP POP JUMP JUMPDEST PUSH1 0x0 DUP3 PUSH1 0x1F DUP4 ADD SLT PUSH2 0x1C36 JUMPI PUSH2 0x1C35 PUSH2 0x1170 JUMP JUMPDEST JUMPDEST DUP2 MLOAD PUSH2 0x1C46 DUP5 DUP3 PUSH1 0x20 DUP7 ADD PUSH2 0x1BB8 JUMP JUMPDEST SWAP2 POP POP SWAP3 SWAP2 POP POP JUMP JUMPDEST PUSH1 0x0 PUSH1 0x20 DUP3 DUP5 SUB SLT ISZERO PUSH2 0x1C65 JUMPI PUSH2 0x1C64 PUSH2 0xBAA JUMP JUMPDEST JUMPDEST PUSH1 0x0 DUP3 ADD MLOAD PUSH8 0xFFFFFFFFFFFFFFFF DUP2 GT ISZERO PUSH2 0x1C83 JUMPI PUSH2 0x1C82 PUSH2 0xBAF JUMP JUMPDEST JUMPDEST PUSH2 0x1C8F DUP5 DUP3 DUP6 ADD PUSH2 0x1C21 JUMP JUMPDEST SWAP2 POP POP SWAP3 SWAP2 POP POP JUMP JUMPDEST PUSH1 0xA0 DUP3 ADD PUSH1 0x0 DUP3 ADD MLOAD PUSH2 0x1CAE PUSH1 0x0 DUP6 ADD DUP3 PUSH2 0xC79 JUMP JUMPDEST POP PUSH1 0x20 DUP3 ADD MLOAD PUSH2 0x1CC1 PUSH1 0x20 DUP6 ADD DUP3 PUSH2 0xC79 JUMP JUMPDEST POP PUSH1 0x40 DUP3 ADD MLOAD PUSH2 0x1CD4 PUSH1 0x40 DUP6 ADD DUP3 PUSH2 0xC79 JUMP JUMPDEST POP PUSH1 0x60 DUP3 ADD MLOAD PUSH2 0x1CE7 PUSH1 0x60 DUP6 ADD DUP3 PUSH2 0xC79 JUMP JUMPDEST POP PUSH1 0x80 DUP3 ADD MLOAD PUSH2 0x1CFA PUSH1 0x80 DUP6 ADD DUP3 PUSH2 0xC79 JUMP JUMPDEST POP POP POP POP JUMP JUMPDEST PUSH1 0x0 PUSH1 0xC0 DUP3 ADD SWAP1 POP PUSH2 0x1D15 PUSH1 0x0 DUP4 ADD DUP6 PUSH2 0x1C98 JUMP JUMPDEST PUSH2 0x1D22 PUSH1 0xA0 DUP4 ADD DUP5 PUSH2 0x165B JUMP JUMPDEST SWAP4 SWAP3 POP POP POP JUMP JUMPDEST PUSH1 0x0 PUSH1 0x80 DUP4 ADD PUSH1 0x0 DUP4 ADD MLOAD PUSH2 0x1D41 PUSH1 0x0 DUP7 ADD DUP3 PUSH2 0xC79 JUMP JUMPDEST POP PUSH1 0x20 DUP4 ADD MLOAD PUSH2 0x1D54 PUSH1 0x20 DUP7 ADD DUP3 PUSH2 0xC79 JUMP JUMPDEST POP PUSH1 0x40 DUP4 ADD MLOAD PUSH2 0x1D67 PUSH1 0x40 DUP7 ADD DUP3 PUSH2 0xC79 JUMP JUMPDEST POP PUSH1 0x60 DUP4 ADD MLOAD DUP5 DUP3 SUB PUSH1 0x60 DUP7 ADD MSTORE PUSH2 0x1D7F DUP3 DUP3 PUSH2 0xCD9 JUMP JUMPDEST SWAP2 POP POP DUP1 SWAP2 POP POP SWAP3 SWAP2 POP POP JUMP JUMPDEST PUSH1 0x0 PUSH1 0x40 DUP3 ADD SWAP1 POP DUP2 DUP2 SUB PUSH1 0x0 DUP4 ADD MSTORE PUSH2 0x1DA6 DUP2 DUP6 PUSH2 0x1D29 JUMP JUMPDEST SWAP1 POP PUSH2 0x1DB5 PUSH1 0x20 DUP4 ADD DUP5 PUSH2 0x165B JUMP JUMPDEST SWAP4 SWAP3 POP POP POP JUMP JUMPDEST PUSH1 0x0 PUSH1 0xC0 DUP4 ADD PUSH1 0x0 DUP4 ADD MLOAD PUSH2 0x1DD4 PUSH1 0x0 DUP7 ADD DUP3 PUSH2 0xC79 JUMP JUMPDEST POP PUSH1 0x20 DUP4 ADD MLOAD PUSH2 0x1DE7 PUSH1 0x20 DUP7 ADD DUP3 PUSH2 0xC79 JUMP JUMPDEST POP PUSH1 0x40 DUP4 ADD MLOAD DUP5 DUP3 SUB PUSH1 0x40 DUP7 ADD MSTORE PUSH2 0x1DFF DUP3 DUP3 PUSH2 0xCD9 JUMP JUMPDEST SWAP2 POP POP PUSH1 0x60 DUP4 ADD MLOAD PUSH2 0x1E14 PUSH1 0x60 DUP7 ADD DUP3 PUSH2 0xC79 JUMP JUMPDEST POP PUSH1 0x80 DUP4 ADD MLOAD PUSH2 0x1E27 PUSH1 0x80 DUP7 ADD DUP3 PUSH2 0xC79 JUMP JUMPDEST POP PUSH1 0xA0 DUP4 ADD MLOAD PUSH2 0x1E3A PUSH1 0xA0 DUP7 ADD DUP3 PUSH2 0xC79 JUMP JUMPDEST POP DUP1 SWAP2 POP POP SWAP3 SWAP2 POP POP JUMP JUMPDEST PUSH1 0x0 PUSH1 0x40 DUP3 ADD SWAP1 POP DUP2 DUP2 SUB PUSH1 0x0 DUP4 ADD MSTORE PUSH2 0x1E5F DUP2 DUP6 PUSH2 0x1DBC JUMP JUMPDEST SWAP1 POP PUSH2 0x1E6E PUSH1 0x20 DUP4 ADD DUP5 PUSH2 0x165B JUMP JUMPDEST SWAP4 SWAP3 POP POP POP JUMP JUMPDEST PUSH1 0x0 PUSH8 0xFFFFFFFFFFFFFFFF DUP3 GT ISZERO PUSH2 0x1E90 JUMPI PUSH2 0x1E8F PUSH2 0x1186 JUMP JUMPDEST JUMPDEST PUSH1 0x20 DUP3 MUL SWAP1 POP PUSH1 0x20 DUP2 ADD SWAP1 POP SWAP2 SWAP1 POP JUMP JUMPDEST PUSH1 0x0 PUSH1 0xC0 DUP3 DUP5 SUB SLT ISZERO PUSH2 0x1EB7 JUMPI PUSH2 0x1EB6 PUSH2 0x1733 JUMP JUMPDEST JUMPDEST PUSH2 0x1EC1 PUSH1 0xC0 PUSH2 0x11E6 JUMP JUMPDEST SWAP1 POP PUSH1 0x0 PUSH2 0x1ED1 DUP5 DUP3 DUP6 ADD PUSH2 0x173D JUMP JUMPDEST PUSH1 0x0 DUP4 ADD MSTORE POP PUSH1 0x20 PUSH2 0x1EE5 DUP5 DUP3 DUP6 ADD PUSH2 0x173D JUMP JUMPDEST PUSH1 0x20 DUP4 ADD MSTORE POP PUSH1 0x40 DUP3 ADD MLOAD PUSH8 0xFFFFFFFFFFFFFFFF DUP2 GT ISZERO PUSH2 0x1F09 JUMPI PUSH2 0x1F08 PUSH2 0x1738 JUMP JUMPDEST JUMPDEST PUSH2 0x1F15 DUP5 DUP3 DUP6 ADD PUSH2 0x17BB JUMP JUMPDEST PUSH1 0x40 DUP4 ADD MSTORE POP PUSH1 0x60 PUSH2 0x1F29 DUP5 DUP3 DUP6 ADD PUSH2 0x173D JUMP JUMPDEST PUSH1 0x60 DUP4 ADD MSTORE POP PUSH1 0x80 PUSH2 0x1F3D DUP5 DUP3 DUP6 ADD PUSH2 0x173D JUMP JUMPDEST PUSH1 0x80 DUP4 ADD MSTORE POP PUSH1 0xA0 PUSH2 0x1F51 DUP5 DUP3 DUP6 ADD PUSH2 0x173D JUMP JUMPDEST PUSH1 0xA0 DUP4 ADD MSTORE POP SWAP3 SWAP2 POP POP JUMP JUMPDEST PUSH1 0x0 PUSH2 0x1F70 PUSH2 0x1F6B DUP5 PUSH2 0x1E75 JUMP JUMPDEST PUSH2 0x11E6 JUMP JUMPDEST SWAP1 POP DUP1 DUP4 DUP3 MSTORE PUSH1 0x20 DUP3 ADD SWAP1 POP PUSH1 0x20 DUP5 MUL DUP4 ADD DUP6 DUP2 GT ISZERO PUSH2 0x1F93 JUMPI PUSH2 0x1F92 PUSH2 0x122D JUMP JUMPDEST JUMPDEST DUP4 JUMPDEST DUP2 DUP2 LT ISZERO PUSH2 0x1FDA JUMPI DUP1 MLOAD PUSH8 0xFFFFFFFFFFFFFFFF DUP2 GT ISZERO PUSH2 0x1FB8 JUMPI PUSH2 0x1FB7 PUSH2 0x1170 JUMP JUMPDEST JUMPDEST DUP1 DUP7 ADD PUSH2 0x1FC5 DUP10 DUP3 PUSH2 0x1EA1 JUMP JUMPDEST DUP6 MSTORE PUSH1 0x20 DUP6 ADD SWAP5 POP POP POP PUSH1 0x20 DUP2 ADD SWAP1 POP PUSH2 0x1F95 JUMP JUMPDEST POP POP POP SWAP4 SWAP3 POP POP POP JUMP JUMPDEST PUSH1 0x0 DUP3 PUSH1 0x1F DUP4 ADD SLT PUSH2 0x1FF9 JUMPI PUSH2 0x1FF8 PUSH2 0x1170 JUMP JUMPDEST JUMPDEST DUP2 MLOAD PUSH2 0x2009 DUP5 DUP3 PUSH1 0x20 DUP7 ADD PUSH2 0x1F5D JUMP JUMPDEST SWAP2 POP POP SWAP3 SWAP2 POP POP JUMP JUMPDEST PUSH1 0x0 PUSH1 0x20 DUP3 DUP5 SUB SLT ISZERO PUSH2 0x2028 JUMPI PUSH2 0x2027 PUSH2 0xBAA JUMP JUMPDEST JUMPDEST PUSH1 0x0 DUP3 ADD MLOAD PUSH8 0xFFFFFFFFFFFFFFFF DUP2 GT ISZERO PUSH2 0x2046 JUMPI PUSH2 0x2045 PUSH2 0xBAF JUMP JUMPDEST JUMPDEST PUSH2 0x2052 DUP5 DUP3 DUP6 ADD PUSH2 0x1FE4 JUMP JUMPDEST SWAP2 POP POP SWAP3 SWAP2 POP POP JUMP JUMPDEST PUSH1 0x0 DUP3 DUP3 MSTORE PUSH1 0x20 DUP3 ADD SWAP1 POP SWAP3 SWAP2 POP POP JUMP JUMPDEST PUSH32 0x4F776E61626C653A206E6577206F776E657220697320746865207A65726F2061 PUSH1 0x0 DUP3 ADD MSTORE PUSH32 0x6464726573730000000000000000000000000000000000000000000000000000 PUSH1 0x20 DUP3 ADD MSTORE POP JUMP JUMPDEST PUSH1 0x0 PUSH2 0x20C8 PUSH1 0x26 DUP4 PUSH2 0x205B JUMP JUMPDEST SWAP2 POP PUSH2 0x20D3 DUP3 PUSH2 0x206C JUMP JUMPDEST PUSH1 0x40 DUP3 ADD SWAP1 POP SWAP2 SWAP1 POP JUMP JUMPDEST PUSH1 0x0 PUSH1 0x20 DUP3 ADD SWAP1 POP DUP2 DUP2 SUB PUSH1 0x0 DUP4 ADD MSTORE PUSH2 0x20F7 DUP2 PUSH2 0x20BB JUMP JUMPDEST SWAP1 POP SWAP2 SWAP1 POP JUMP JUMPDEST PUSH32 0x4F776E61626C653A2063616C6C6572206973206E6F7420746865206F776E6572 PUSH1 0x0 DUP3 ADD MSTORE POP JUMP JUMPDEST PUSH1 0x0 PUSH2 0x2134 PUSH1 0x20 DUP4 PUSH2 0x205B JUMP JUMPDEST SWAP2 POP PUSH2 0x213F DUP3 PUSH2 0x20FE JUMP JUMPDEST PUSH1 0x20 DUP3 ADD SWAP1 POP SWAP2 SWAP1 POP JUMP JUMPDEST PUSH1 0x0 PUSH1 0x20 DUP3 ADD SWAP1 POP DUP2 DUP2 SUB PUSH1 0x0 DUP4 ADD MSTORE PUSH2 0x2163 DUP2 PUSH2 0x2127 JUMP JUMPDEST SWAP1 POP SWAP2 SWAP1 POP JUMP INVALID LOG2 PUSH5 0x6970667358 0x22 SLT KECCAK256 SWAP5 SSTORE 0xB0 INVALID STATICCALL 0xC1 SLT SLT SLOAD 0xDE 0xD3 0x29 0xD7 DUP6 0xBB SHR SHL PUSH2 0x89DF 0xCC PUSH9 0xEF2513DD5AEBEF00C1 DUP4 PUSH5 0x736F6C6343 STOP ADDMOD GT STOP CALLER "
		},
		"gasEstimates": {
			"creation": {
				"codeDepositCost": "1721600",
				"executionCost": "infinite",
				"totalCost": "infinite"
			},
			"external": {
				"addFolWarehouse(uint256,uint256,uint256,uint256)": "infinite",
				"addPreWarehouse(uint256,uint256[],uint256,uint256,uint256)": "infinite",
				"addProcessing(uint256,uint256,uint256[])": "infinite",
				"addProcessor(uint256)": "infinite",
				"destroy()": "30083",
				"getListFolWarehouse()": "infinite",
				"getListPreWarehouse()": "infinite",
				"getListProcessing()": "infinite",
				"getListProcessor()": "infinite",
				"owner()": "2522",
				"processingDatabase()": "infinite",
				"transferOwnership(address)": "30819"
			}
		},
		"methodIdentifiers": {
			"addFolWarehouse(uint256,uint256,uint256,uint256)": "40738285",
			"addPreWarehouse(uint256,uint256[],uint256,uint256,uint256)": "8f52a0df",
			"addProcessing(uint256,uint256,uint256[])": "8dab0111",
			"addProcessor(uint256)": "0e8e1029",
			"destroy()": "83197ef0",
			"getListFolWarehouse()": "3cb71d76",
			"getListPreWarehouse()": "c1ea13c4",
			"getListProcessing()": "30cabb88",
			"getListProcessor()": "3a2019c1",
			"owner()": "8da5cb5b",
			"processingDatabase()": "e312090b",
			"transferOwnership(address)": "f2fde38b"
		}
	},
	"abi": [
		{
			"inputs": [
				{
					"internalType": "address",
					"name": "processingDatabaseContractAddress",
					"type": "address"
				}
			],
			"stateMutability": "nonpayable",
			"type": "constructor"
		},
		{
			"anonymous": false,
			"inputs": [
				{
					"indexed": true,
					"internalType": "address",
					"name": "previousOwner",
					"type": "address"
				},
				{
					"indexed": true,
					"internalType": "address",
					"name": "newOwner",
					"type": "address"
				}
			],
			"name": "OwnershipTransferred",
			"type": "event"
		},
		{
			"inputs": [
				{
					"internalType": "uint256",
					"name": "processingId",
					"type": "uint256"
				},
				{
					"internalType": "uint256",
					"name": "category",
					"type": "uint256"
				},
				{
					"internalType": "uint256",
					"name": "time",
					"type": "uint256"
				},
				{
					"internalType": "uint256",
					"name": "quantity",
					"type": "uint256"
				}
			],
			"name": "addFolWarehouse",
			"outputs": [
				{
					"internalType": "bool",
					"name": "",
					"type": "bool"
				}
			],
			"stateMutability": "nonpayable",
			"type": "function"
		},
		{
			"inputs": [
				{
					"internalType": "uint256",
					"name": "processorId",
					"type": "uint256"
				},
				{
					"internalType": "uint256[]",
					"name": "listbatchId",
					"type": "uint256[]"
				},
				{
					"internalType": "uint256",
					"name": "category",
					"type": "uint256"
				},
				{
					"internalType": "uint256",
					"name": "time",
					"type": "uint256"
				},
				{
					"internalType": "uint256",
					"name": "quantity",
					"type": "uint256"
				}
			],
			"name": "addPreWarehouse",
			"outputs": [
				{
					"internalType": "bool",
					"name": "",
					"type": "bool"
				}
			],
			"stateMutability": "nonpayable",
			"type": "function"
		},
		{
			"inputs": [
				{
					"internalType": "uint256",
					"name": "processorId",
					"type": "uint256"
				},
				{
					"internalType": "uint256",
					"name": "category",
					"type": "uint256"
				},
				{
					"internalType": "uint256[]",
					"name": "listBatchId",
					"type": "uint256[]"
				}
			],
			"name": "addProcessing",
			"outputs": [
				{
					"internalType": "bool",
					"name": "",
					"type": "bool"
				}
			],
			"stateMutability": "nonpayable",
			"type": "function"
		},
		{
			"inputs": [
				{
					"internalType": "uint256",
					"name": "category",
					"type": "uint256"
				}
			],
			"name": "addProcessor",
			"outputs": [
				{
					"internalType": "bool",
					"name": "",
					"type": "bool"
				}
			],
			"stateMutability": "nonpayable",
			"type": "function"
		},
		{
			"inputs": [],
			"name": "destroy",
			"outputs": [],
			"stateMutability": "nonpayable",
			"type": "function"
		},
		{
			"inputs": [],
			"name": "getListFolWarehouse",
			"outputs": [
				{
					"components": [
						{
							"internalType": "uint256",
							"name": "batchId",
							"type": "uint256"
						},
						{
							"internalType": "uint256",
							"name": "processingId",
							"type": "uint256"
						},
						{
							"internalType": "uint256",
							"name": "category",
							"type": "uint256"
						},
						{
							"internalType": "uint256",
							"name": "time",
							"type": "uint256"
						},
						{
							"internalType": "uint256",
							"name": "quantity",
							"type": "uint256"
						}
					],
					"internalType": "struct FolWarehouse[]",
					"name": "",
					"type": "tuple[]"
				}
			],
			"stateMutability": "view",
			"type": "function"
		},
		{
			"inputs": [],
			"name": "getListPreWarehouse",
			"outputs": [
				{
					"components": [
						{
							"internalType": "uint256",
							"name": "batchId",
							"type": "uint256"
						},
						{
							"internalType": "uint256",
							"name": "processorId",
							"type": "uint256"
						},
						{
							"internalType": "uint256[]",
							"name": "listbatchId",
							"type": "uint256[]"
						},
						{
							"internalType": "uint256",
							"name": "category",
							"type": "uint256"
						},
						{
							"internalType": "uint256",
							"name": "time",
							"type": "uint256"
						},
						{
							"internalType": "uint256",
							"name": "quantity",
							"type": "uint256"
						}
					],
					"internalType": "struct PreWarehouse[]",
					"name": "",
					"type": "tuple[]"
				}
			],
			"stateMutability": "view",
			"type": "function"
		},
		{
			"inputs": [],
			"name": "getListProcessing",
			"outputs": [
				{
					"components": [
						{
							"internalType": "uint256",
							"name": "processingId",
							"type": "uint256"
						},
						{
							"internalType": "uint256",
							"name": "processorId",
							"type": "uint256"
						},
						{
							"internalType": "uint256",
							"name": "category",
							"type": "uint256"
						},
						{
							"internalType": "uint256[]",
							"name": "listBatchId",
							"type": "uint256[]"
						}
					],
					"internalType": "struct Processing[]",
					"name": "",
					"type": "tuple[]"
				}
			],
			"stateMutability": "view",
			"type": "function"
		},
		{
			"inputs": [],
			"name": "getListProcessor",
			"outputs": [
				{
					"components": [
						{
							"internalType": "uint256",
							"name": "processorId",
							"type": "uint256"
						},
						{
							"internalType": "address",
							"name": "processorAddress",
							"type": "address"
						},
						{
							"internalType": "uint256",
							"name": "category",
							"type": "uint256"
						}
					],
					"internalType": "struct Processor[]",
					"name": "",
					"type": "tuple[]"
				}
			],
			"stateMutability": "view",
			"type": "function"
		},
		{
			"inputs": [],
			"name": "owner",
			"outputs": [
				{
					"internalType": "address",
					"name": "",
					"type": "address"
				}
			],
			"stateMutability": "view",
			"type": "function"
		},
		{
			"inputs": [],
			"name": "processingDatabase",
			"outputs": [
				{
					"internalType": "contract ProcessingDatabase",
					"name": "",
					"type": "address"
				}
			],
			"stateMutability": "view",
			"type": "function"
		},
		{
			"inputs": [
				{
					"internalType": "address",
					"name": "newOwner",
					"type": "address"
				}
			],
			"name": "transferOwnership",
			"outputs": [],
			"stateMutability": "nonpayable",
			"type": "function"
		}
	]
}