{
	"database/management/ExpDatabase.sol": {
		"ExpDatabase": {
			"abi": [
				{
					"inputs": [],
					"stateMutability": "nonpayable",
					"type": "constructor"
				},
				{
					"anonymous": false,
					"inputs": [
						{
							"indexed": true,
							"internalType": "address",
							"name": "previousOwner",
							"type": "address"
						},
						{
							"indexed": true,
							"internalType": "address",
							"name": "newOwner",
							"type": "address"
						}
					],
					"name": "OwnershipTransferred",
					"type": "event"
				},
				{
					"inputs": [
						{
							"internalType": "uint256",
							"name": "batchId",
							"type": "uint256"
						}
					],
					"name": "addChecked",
					"outputs": [],
					"stateMutability": "nonpayable",
					"type": "function"
				},
				{
					"inputs": [
						{
							"components": [
								{
									"internalType": "uint256",
									"name": "batchId",
									"type": "uint256"
								},
								{
									"internalType": "string",
									"name": "batchName",
									"type": "string"
								},
								{
									"internalType": "string",
									"name": "manuDate",
									"type": "string"
								},
								{
									"internalType": "string",
									"name": "expDate",
									"type": "string"
								},
								{
									"internalType": "uint256",
									"name": "keyValue",
									"type": "uint256"
								},
								{
									"internalType": "bool",
									"name": "expIsChecked",
									"type": "bool"
								}
							],
							"internalType": "struct Expiration",
							"name": "item",
							"type": "tuple"
						}
					],
					"name": "addExpiration",
					"outputs": [],
					"stateMutability": "nonpayable",
					"type": "function"
				},
				{
					"inputs": [
						{
							"internalType": "address",
							"name": "contractPermission",
							"type": "address"
						}
					],
					"name": "addPermission",
					"outputs": [],
					"stateMutability": "nonpayable",
					"type": "function"
				},
				{
					"inputs": [],
					"name": "destroy",
					"outputs": [],
					"stateMutability": "nonpayable",
					"type": "function"
				},
				{
					"inputs": [],
					"name": "getAllExpiration",
					"outputs": [
						{
							"components": [
								{
									"internalType": "uint256",
									"name": "batchId",
									"type": "uint256"
								},
								{
									"internalType": "string",
									"name": "batchName",
									"type": "string"
								},
								{
									"internalType": "string",
									"name": "manuDate",
									"type": "string"
								},
								{
									"internalType": "string",
									"name": "expDate",
									"type": "string"
								},
								{
									"internalType": "uint256",
									"name": "keyValue",
									"type": "uint256"
								},
								{
									"internalType": "bool",
									"name": "expIsChecked",
									"type": "bool"
								}
							],
							"internalType": "struct Expiration[]",
							"name": "",
							"type": "tuple[]"
						}
					],
					"stateMutability": "view",
					"type": "function"
				},
				{
					"inputs": [],
					"name": "owner",
					"outputs": [
						{
							"internalType": "address",
							"name": "",
							"type": "address"
						}
					],
					"stateMutability": "view",
					"type": "function"
				},
				{
					"inputs": [
						{
							"internalType": "address",
							"name": "newOwner",
							"type": "address"
						}
					],
					"name": "transferOwnership",
					"outputs": [],
					"stateMutability": "nonpayable",
					"type": "function"
				}
			],
			"devdoc": {
				"kind": "dev",
				"methods": {
					"owner()": {
						"details": "Returns the address of the current owner."
					},
					"transferOwnership(address)": {
						"details": "Transfers ownership of the contract to a new account (`newOwner`). Can only be called by the current owner."
					}
				},
				"version": 1
			},
			"evm": {
				"assembly": "    /* \"database/management/ExpDatabase.sol\":188:1205  contract ExpDatabase is Ownable {... */\n  mstore(0x40, 0x80)\n    /* \"database/management/ExpDatabase.sol\":506:532  constructor() Ownable() {} */\n  callvalue\n  dup1\n  iszero\n  tag_1\n  jumpi\n  0x00\n  dup1\n  revert\ntag_1:\n  pop\n    /* \"abstract/Ownable.sol\":1032:1042  msg.sender */\n  caller\n    /* \"abstract/Ownable.sol\":1023:1029  _owner */\n  0x00\n  dup1\n    /* \"abstract/Ownable.sol\":1023:1042  _owner = msg.sender */\n  0x0100\n  exp\n  dup2\n  sload\n  dup2\n  0xffffffffffffffffffffffffffffffffffffffff\n  mul\n  not\n  and\n  swap1\n  dup4\n  0xffffffffffffffffffffffffffffffffffffffff\n  and\n  mul\n  or\n  swap1\n  sstore\n  pop\n    /* \"database/management/ExpDatabase.sol\":188:1205  contract ExpDatabase is Ownable {... */\n  dataSize(sub_0)\n  dup1\n  dataOffset(sub_0)\n  0x00\n  codecopy\n  0x00\n  return\nstop\n\nsub_0: assembly {\n        /* \"database/management/ExpDatabase.sol\":188:1205  contract ExpDatabase is Ownable {... */\n      mstore(0x40, 0x80)\n      callvalue\n      dup1\n      iszero\n      tag_1\n      jumpi\n      0x00\n      dup1\n      revert\n    tag_1:\n      pop\n      jumpi(tag_2, lt(calldatasize, 0x04))\n      shr(0xe0, calldataload(0x00))\n      dup1\n      0x98c50aad\n      gt\n      tag_10\n      jumpi\n      dup1\n      0x98c50aad\n      eq\n      tag_6\n      jumpi\n      dup1\n      0xa4947330\n      eq\n      tag_7\n      jumpi\n      dup1\n      0xee416d5b\n      eq\n      tag_8\n      jumpi\n      dup1\n      0xf2fde38b\n      eq\n      tag_9\n      jumpi\n      jump(tag_2)\n    tag_10:\n      dup1\n      0x4d0a5dbd\n      eq\n      tag_3\n      jumpi\n      dup1\n      0x83197ef0\n      eq\n      tag_4\n      jumpi\n      dup1\n      0x8da5cb5b\n      eq\n      tag_5\n      jumpi\n    tag_2:\n      0x00\n      dup1\n      revert\n        /* \"database/management/ExpDatabase.sol\":540:805  function addPermission(address contractPermission) public onlyOwner {... */\n    tag_3:\n      tag_11\n      0x04\n      dup1\n      calldatasize\n      sub\n      dup2\n      add\n      swap1\n      tag_12\n      swap2\n      swap1\n      tag_13\n      jump\t// in\n    tag_12:\n      tag_14\n      jump\t// in\n    tag_11:\n      stop\n        /* \"abstract/Ownable.sol\":2801:2892  function destroy() public onlyOwner {... */\n    tag_4:\n      tag_15\n      tag_16\n      jump\t// in\n    tag_15:\n      stop\n        /* \"abstract/Ownable.sol\":1289:1376  function owner() public view virtual returns (address) {... */\n    tag_5:\n      tag_17\n      tag_18\n      jump\t// in\n    tag_17:\n      mload(0x40)\n      tag_19\n      swap2\n      swap1\n      tag_20\n      jump\t// in\n    tag_19:\n      mload(0x40)\n      dup1\n      swap2\n      sub\n      swap1\n      return\n        /* \"database/management/ExpDatabase.sol\":1045:1202  function getAllExpiration()... */\n    tag_6:\n      tag_21\n      tag_22\n      jump\t// in\n    tag_21:\n      mload(0x40)\n      tag_23\n      swap2\n      swap1\n      tag_24\n      jump\t// in\n    tag_23:\n      mload(0x40)\n      dup1\n      swap2\n      sub\n      swap1\n      return\n        /* \"database/management/ExpDatabase.sol\":813:917  function addExpiration(Expiration memory item) public onlyPermissions {... */\n    tag_7:\n      tag_25\n      0x04\n      dup1\n      calldatasize\n      sub\n      dup2\n      add\n      swap1\n      tag_26\n      swap2\n      swap1\n      tag_27\n      jump\t// in\n    tag_26:\n      tag_28\n      jump\t// in\n    tag_25:\n      stop\n        /* \"database/management/ExpDatabase.sol\":925:1037  function addChecked(uint256 batchId) public onlyPermissions {... */\n    tag_8:\n      tag_29\n      0x04\n      dup1\n      calldatasize\n      sub\n      dup2\n      add\n      swap1\n      tag_30\n      swap2\n      swap1\n      tag_31\n      jump\t// in\n    tag_30:\n      tag_32\n      jump\t// in\n    tag_29:\n      stop\n        /* \"abstract/Ownable.sol\":2204:2442  function transferOwnership(address newOwner) public virtual onlyOwner {... */\n    tag_9:\n      tag_33\n      0x04\n      dup1\n      calldatasize\n      sub\n      dup2\n      add\n      swap1\n      tag_34\n      swap2\n      swap1\n      tag_13\n      jump\t// in\n    tag_34:\n      tag_35\n      jump\t// in\n    tag_33:\n      stop\n        /* \"database/management/ExpDatabase.sol\":540:805  function addPermission(address contractPermission) public onlyOwner {... */\n    tag_14:\n        /* \"abstract/Ownable.sol\":1175:1188  _checkOwner() */\n      tag_37\n        /* \"abstract/Ownable.sol\":1175:1186  _checkOwner */\n      tag_38\n        /* \"abstract/Ownable.sol\":1175:1188  _checkOwner() */\n      jump\t// in\n    tag_37:\n        /* \"database/management/ExpDatabase.sol\":642:653  permissions */\n      0x02\n        /* \"database/management/ExpDatabase.sol\":642:673  permissions[contractPermission] */\n      0x00\n        /* \"database/management/ExpDatabase.sol\":654:672  contractPermission */\n      dup3\n        /* \"database/management/ExpDatabase.sol\":642:673  permissions[contractPermission] */\n      0xffffffffffffffffffffffffffffffffffffffff\n      and\n      0xffffffffffffffffffffffffffffffffffffffff\n      and\n      dup2\n      mstore\n      0x20\n      add\n      swap1\n      dup2\n      mstore\n      0x20\n      add\n      0x00\n      keccak256\n      0x00\n      swap1\n      sload\n      swap1\n      0x0100\n      exp\n      swap1\n      div\n      0xff\n      and\n        /* \"database/management/ExpDatabase.sol\":641:673  !permissions[contractPermission] */\n      iszero\n        /* \"database/management/ExpDatabase.sol\":619:748  require(... */\n      tag_40\n      jumpi\n      mload(0x40)\n      0x08c379a000000000000000000000000000000000000000000000000000000000\n      dup2\n      mstore\n      0x04\n      add\n      tag_41\n      swap1\n      tag_42\n      jump\t// in\n    tag_41:\n      mload(0x40)\n      dup1\n      swap2\n      sub\n      swap1\n      revert\n    tag_40:\n        /* \"database/management/ExpDatabase.sol\":793:797  true */\n      0x01\n        /* \"database/management/ExpDatabase.sol\":759:770  permissions */\n      0x02\n        /* \"database/management/ExpDatabase.sol\":759:790  permissions[contractPermission] */\n      0x00\n        /* \"database/management/ExpDatabase.sol\":771:789  contractPermission */\n      dup4\n        /* \"database/management/ExpDatabase.sol\":759:790  permissions[contractPermission] */\n      0xffffffffffffffffffffffffffffffffffffffff\n      and\n      0xffffffffffffffffffffffffffffffffffffffff\n      and\n      dup2\n      mstore\n      0x20\n      add\n      swap1\n      dup2\n      mstore\n      0x20\n      add\n      0x00\n      keccak256\n      0x00\n        /* \"database/management/ExpDatabase.sol\":759:797  permissions[contractPermission] = true */\n      0x0100\n      exp\n      dup2\n      sload\n      dup2\n      0xff\n      mul\n      not\n      and\n      swap1\n      dup4\n      iszero\n      iszero\n      mul\n      or\n      swap1\n      sstore\n      pop\n        /* \"database/management/ExpDatabase.sol\":540:805  function addPermission(address contractPermission) public onlyOwner {... */\n      pop\n      jump\t// out\n        /* \"abstract/Ownable.sol\":2801:2892  function destroy() public onlyOwner {... */\n    tag_16:\n        /* \"abstract/Ownable.sol\":1175:1188  _checkOwner() */\n      tag_44\n        /* \"abstract/Ownable.sol\":1175:1186  _checkOwner */\n      tag_38\n        /* \"abstract/Ownable.sol\":1175:1188  _checkOwner() */\n      jump\t// in\n    tag_44:\n        /* \"abstract/Ownable.sol\":2877:2881  this */\n      address\n        /* \"abstract/Ownable.sol\":2848:2884  selfdestruct(payable(address(this))) */\n      0xffffffffffffffffffffffffffffffffffffffff\n      and\n      selfdestruct\n        /* \"abstract/Ownable.sol\":1289:1376  function owner() public view virtual returns (address) {... */\n    tag_18:\n        /* \"abstract/Ownable.sol\":1335:1342  address */\n      0x00\n        /* \"abstract/Ownable.sol\":1362:1368  _owner */\n      dup1\n      0x00\n      swap1\n      sload\n      swap1\n      0x0100\n      exp\n      swap1\n      div\n      0xffffffffffffffffffffffffffffffffffffffff\n      and\n        /* \"abstract/Ownable.sol\":1355:1368  return _owner */\n      swap1\n      pop\n        /* \"abstract/Ownable.sol\":1289:1376  function owner() public view virtual returns (address) {... */\n      swap1\n      jump\t// out\n        /* \"database/management/ExpDatabase.sol\":1045:1202  function getAllExpiration()... */\n    tag_22:\n        /* \"database/management/ExpDatabase.sol\":1146:1165  Expiration[] memory */\n      0x60\n        /* \"database/management/ExpDatabase.sol\":374:385  permissions */\n      0x02\n        /* \"database/management/ExpDatabase.sol\":374:399  permissions[_msgSender()] */\n      0x00\n        /* \"database/management/ExpDatabase.sol\":386:398  _msgSender() */\n      tag_48\n        /* \"database/management/ExpDatabase.sol\":386:396  _msgSender */\n      tag_49\n        /* \"database/management/ExpDatabase.sol\":386:398  _msgSender() */\n      jump\t// in\n    tag_48:\n        /* \"database/management/ExpDatabase.sol\":374:399  permissions[_msgSender()] */\n      0xffffffffffffffffffffffffffffffffffffffff\n      and\n      0xffffffffffffffffffffffffffffffffffffffff\n      and\n      dup2\n      mstore\n      0x20\n      add\n      swap1\n      dup2\n      mstore\n      0x20\n      add\n      0x00\n      keccak256\n      0x00\n      swap1\n      sload\n      swap1\n      0x0100\n      exp\n      swap1\n      div\n      0xff\n      and\n        /* \"database/management/ExpDatabase.sol\":352:478  require(... */\n      tag_50\n      jumpi\n      mload(0x40)\n      0x08c379a000000000000000000000000000000000000000000000000000000000\n      dup2\n      mstore\n      0x04\n      add\n      tag_51\n      swap1\n      tag_52\n      jump\t// in\n    tag_51:\n      mload(0x40)\n      dup1\n      swap2\n      sub\n      swap1\n      revert\n    tag_50:\n        /* \"database/management/ExpDatabase.sol\":1190:1194  list */\n      0x01\n        /* \"database/management/ExpDatabase.sol\":1183:1194  return list */\n      dup1\n      sload\n      dup1\n      0x20\n      mul\n      0x20\n      add\n      mload(0x40)\n      swap1\n      dup2\n      add\n      0x40\n      mstore\n      dup1\n      swap3\n      swap2\n      swap1\n      dup2\n      dup2\n      mstore\n      0x20\n      add\n      0x00\n      swap1\n    tag_54:\n      dup3\n      dup3\n      lt\n      iszero\n      tag_55\n      jumpi\n      dup4\n      dup3\n      swap1\n      0x00\n      mstore\n      keccak256(0x00, 0x20)\n      swap1\n      0x06\n      mul\n      add\n      mload(0x40)\n      dup1\n      0xc0\n      add\n      0x40\n      mstore\n      swap1\n      dup2\n      0x00\n      dup3\n      add\n      sload\n      dup2\n      mstore\n      0x20\n      add\n      0x01\n      dup3\n      add\n      dup1\n      sload\n      tag_57\n      swap1\n      tag_58\n      jump\t// in\n    tag_57:\n      dup1\n      0x1f\n      add\n      0x20\n      dup1\n      swap2\n      div\n      mul\n      0x20\n      add\n      mload(0x40)\n      swap1\n      dup2\n      add\n      0x40\n      mstore\n      dup1\n      swap3\n      swap2\n      swap1\n      dup2\n      dup2\n      mstore\n      0x20\n      add\n      dup3\n      dup1\n      sload\n      tag_59\n      swap1\n      tag_58\n      jump\t// in\n    tag_59:\n      dup1\n      iszero\n      tag_60\n      jumpi\n      dup1\n      0x1f\n      lt\n      tag_61\n      jumpi\n      0x0100\n      dup1\n      dup4\n      sload\n      div\n      mul\n      dup4\n      mstore\n      swap2\n      0x20\n      add\n      swap2\n      jump(tag_60)\n    tag_61:\n      dup3\n      add\n      swap2\n      swap1\n      0x00\n      mstore\n      keccak256(0x00, 0x20)\n      swap1\n    tag_62:\n      dup2\n      sload\n      dup2\n      mstore\n      swap1\n      0x01\n      add\n      swap1\n      0x20\n      add\n      dup1\n      dup4\n      gt\n      tag_62\n      jumpi\n      dup3\n      swap1\n      sub\n      0x1f\n      and\n      dup3\n      add\n      swap2\n    tag_60:\n      pop\n      pop\n      pop\n      pop\n      pop\n      dup2\n      mstore\n      0x20\n      add\n      0x02\n      dup3\n      add\n      dup1\n      sload\n      tag_63\n      swap1\n      tag_58\n      jump\t// in\n    tag_63:\n      dup1\n      0x1f\n      add\n      0x20\n      dup1\n      swap2\n      div\n      mul\n      0x20\n      add\n      mload(0x40)\n      swap1\n      dup2\n      add\n      0x40\n      mstore\n      dup1\n      swap3\n      swap2\n      swap1\n      dup2\n      dup2\n      mstore\n      0x20\n      add\n      dup3\n      dup1\n      sload\n      tag_64\n      swap1\n      tag_58\n      jump\t// in\n    tag_64:\n      dup1\n      iszero\n      tag_65\n      jumpi\n      dup1\n      0x1f\n      lt\n      tag_66\n      jumpi\n      0x0100\n      dup1\n      dup4\n      sload\n      div\n      mul\n      dup4\n      mstore\n      swap2\n      0x20\n      add\n      swap2\n      jump(tag_65)\n    tag_66:\n      dup3\n      add\n      swap2\n      swap1\n      0x00\n      mstore\n      keccak256(0x00, 0x20)\n      swap1\n    tag_67:\n      dup2\n      sload\n      dup2\n      mstore\n      swap1\n      0x01\n      add\n      swap1\n      0x20\n      add\n      dup1\n      dup4\n      gt\n      tag_67\n      jumpi\n      dup3\n      swap1\n      sub\n      0x1f\n      and\n      dup3\n      add\n      swap2\n    tag_65:\n      pop\n      pop\n      pop\n      pop\n      pop\n      dup2\n      mstore\n      0x20\n      add\n      0x03\n      dup3\n      add\n      dup1\n      sload\n      tag_68\n      swap1\n      tag_58\n      jump\t// in\n    tag_68:\n      dup1\n      0x1f\n      add\n      0x20\n      dup1\n      swap2\n      div\n      mul\n      0x20\n      add\n      mload(0x40)\n      swap1\n      dup2\n      add\n      0x40\n      mstore\n      dup1\n      swap3\n      swap2\n      swap1\n      dup2\n      dup2\n      mstore\n      0x20\n      add\n      dup3\n      dup1\n      sload\n      tag_69\n      swap1\n      tag_58\n      jump\t// in\n    tag_69:\n      dup1\n      iszero\n      tag_70\n      jumpi\n      dup1\n      0x1f\n      lt\n      tag_71\n      jumpi\n      0x0100\n      dup1\n      dup4\n      sload\n      div\n      mul\n      dup4\n      mstore\n      swap2\n      0x20\n      add\n      swap2\n      jump(tag_70)\n    tag_71:\n      dup3\n      add\n      swap2\n      swap1\n      0x00\n      mstore\n      keccak256(0x00, 0x20)\n      swap1\n    tag_72:\n      dup2\n      sload\n      dup2\n      mstore\n      swap1\n      0x01\n      add\n      swap1\n      0x20\n      add\n      dup1\n      dup4\n      gt\n      tag_72\n      jumpi\n      dup3\n      swap1\n      sub\n      0x1f\n      and\n      dup3\n      add\n      swap2\n    tag_70:\n      pop\n      pop\n      pop\n      pop\n      pop\n      dup2\n      mstore\n      0x20\n      add\n      0x04\n      dup3\n      add\n      sload\n      dup2\n      mstore\n      0x20\n      add\n      0x05\n      dup3\n      add\n      0x00\n      swap1\n      sload\n      swap1\n      0x0100\n      exp\n      swap1\n      div\n      0xff\n      and\n      iszero\n      iszero\n      iszero\n      iszero\n      dup2\n      mstore\n      pop\n      pop\n      dup2\n      mstore\n      0x20\n      add\n      swap1\n      0x01\n      add\n      swap1\n      jump(tag_54)\n    tag_55:\n      pop\n      pop\n      pop\n      pop\n      swap1\n      pop\n        /* \"database/management/ExpDatabase.sol\":1045:1202  function getAllExpiration()... */\n      swap1\n      jump\t// out\n        /* \"database/management/ExpDatabase.sol\":813:917  function addExpiration(Expiration memory item) public onlyPermissions {... */\n    tag_28:\n        /* \"database/management/ExpDatabase.sol\":374:385  permissions */\n      0x02\n        /* \"database/management/ExpDatabase.sol\":374:399  permissions[_msgSender()] */\n      0x00\n        /* \"database/management/ExpDatabase.sol\":386:398  _msgSender() */\n      tag_74\n        /* \"database/management/ExpDatabase.sol\":386:396  _msgSender */\n      tag_49\n        /* \"database/management/ExpDatabase.sol\":386:398  _msgSender() */\n      jump\t// in\n    tag_74:\n        /* \"database/management/ExpDatabase.sol\":374:399  permissions[_msgSender()] */\n      0xffffffffffffffffffffffffffffffffffffffff\n      and\n      0xffffffffffffffffffffffffffffffffffffffff\n      and\n      dup2\n      mstore\n      0x20\n      add\n      swap1\n      dup2\n      mstore\n      0x20\n      add\n      0x00\n      keccak256\n      0x00\n      swap1\n      sload\n      swap1\n      0x0100\n      exp\n      swap1\n      div\n      0xff\n      and\n        /* \"database/management/ExpDatabase.sol\":352:478  require(... */\n      tag_75\n      jumpi\n      mload(0x40)\n      0x08c379a000000000000000000000000000000000000000000000000000000000\n      dup2\n      mstore\n      0x04\n      add\n      tag_76\n      swap1\n      tag_52\n      jump\t// in\n    tag_76:\n      mload(0x40)\n      dup1\n      swap2\n      sub\n      swap1\n      revert\n    tag_75:\n        /* \"database/management/ExpDatabase.sol\":894:898  list */\n      0x01\n        /* \"database/management/ExpDatabase.sol\":904:908  item */\n      dup2\n        /* \"database/management/ExpDatabase.sol\":894:909  list.push(item) */\n      swap1\n      dup1\n      0x01\n      dup2\n      sload\n      add\n      dup1\n      dup3\n      sstore\n      dup1\n      swap2\n      pop\n      pop\n      0x01\n      swap1\n      sub\n      swap1\n      0x00\n      mstore\n      keccak256(0x00, 0x20)\n      swap1\n      0x06\n      mul\n      add\n      0x00\n      swap1\n      swap2\n      swap1\n      swap2\n      swap1\n      swap2\n      pop\n      0x00\n      dup3\n      add\n      mload\n      dup2\n      0x00\n      add\n      sstore\n      0x20\n      dup3\n      add\n      mload\n      dup2\n      0x01\n      add\n      swap1\n      dup2\n      tag_79\n      swap2\n      swap1\n      tag_80\n      jump\t// in\n    tag_79:\n      pop\n      0x40\n      dup3\n      add\n      mload\n      dup2\n      0x02\n      add\n      swap1\n      dup2\n      tag_81\n      swap2\n      swap1\n      tag_80\n      jump\t// in\n    tag_81:\n      pop\n      0x60\n      dup3\n      add\n      mload\n      dup2\n      0x03\n      add\n      swap1\n      dup2\n      tag_82\n      swap2\n      swap1\n      tag_80\n      jump\t// in\n    tag_82:\n      pop\n      0x80\n      dup3\n      add\n      mload\n      dup2\n      0x04\n      add\n      sstore\n      0xa0\n      dup3\n      add\n      mload\n      dup2\n      0x05\n      add\n      exp(0x0100, 0x00)\n      dup2\n      sload\n      dup2\n      0xff\n      mul\n      not\n      and\n      swap1\n      dup4\n      iszero\n      iszero\n      mul\n      or\n      swap1\n      sstore\n      pop\n      pop\n      pop\n        /* \"database/management/ExpDatabase.sol\":813:917  function addExpiration(Expiration memory item) public onlyPermissions {... */\n      pop\n      jump\t// out\n        /* \"database/management/ExpDatabase.sol\":925:1037  function addChecked(uint256 batchId) public onlyPermissions {... */\n    tag_32:\n        /* \"database/management/ExpDatabase.sol\":374:385  permissions */\n      0x02\n        /* \"database/management/ExpDatabase.sol\":374:399  permissions[_msgSender()] */\n      0x00\n        /* \"database/management/ExpDatabase.sol\":386:398  _msgSender() */\n      tag_84\n        /* \"database/management/ExpDatabase.sol\":386:396  _msgSender */\n      tag_49\n        /* \"database/management/ExpDatabase.sol\":386:398  _msgSender() */\n      jump\t// in\n    tag_84:\n        /* \"database/management/ExpDatabase.sol\":374:399  permissions[_msgSender()] */\n      0xffffffffffffffffffffffffffffffffffffffff\n      and\n      0xffffffffffffffffffffffffffffffffffffffff\n      and\n      dup2\n      mstore\n      0x20\n      add\n      swap1\n      dup2\n      mstore\n      0x20\n      add\n      0x00\n      keccak256\n      0x00\n      swap1\n      sload\n      swap1\n      0x0100\n      exp\n      swap1\n      div\n      0xff\n      and\n        /* \"database/management/ExpDatabase.sol\":352:478  require(... */\n      tag_85\n      jumpi\n      mload(0x40)\n      0x08c379a000000000000000000000000000000000000000000000000000000000\n      dup2\n      mstore\n      0x04\n      add\n      tag_86\n      swap1\n      tag_52\n      jump\t// in\n    tag_86:\n      mload(0x40)\n      dup1\n      swap2\n      sub\n      swap1\n      revert\n    tag_85:\n        /* \"database/management/ExpDatabase.sol\":1025:1029  true */\n      0x01\n        /* \"database/management/ExpDatabase.sol\":996:1000  list */\n      dup1\n        /* \"database/management/ExpDatabase.sol\":1001:1008  batchId */\n      dup3\n        /* \"database/management/ExpDatabase.sol\":996:1009  list[batchId] */\n      dup2\n      sload\n      dup2\n      lt\n      tag_88\n      jumpi\n      tag_89\n      tag_90\n      jump\t// in\n    tag_89:\n    tag_88:\n      swap1\n      0x00\n      mstore\n      keccak256(0x00, 0x20)\n      swap1\n      0x06\n      mul\n      add\n        /* \"database/management/ExpDatabase.sol\":996:1022  list[batchId].expIsChecked */\n      0x05\n      add\n      0x00\n        /* \"database/management/ExpDatabase.sol\":996:1029  list[batchId].expIsChecked = true */\n      0x0100\n      exp\n      dup2\n      sload\n      dup2\n      0xff\n      mul\n      not\n      and\n      swap1\n      dup4\n      iszero\n      iszero\n      mul\n      or\n      swap1\n      sstore\n      pop\n        /* \"database/management/ExpDatabase.sol\":925:1037  function addChecked(uint256 batchId) public onlyPermissions {... */\n      pop\n      jump\t// out\n        /* \"abstract/Ownable.sol\":2204:2442  function transferOwnership(address newOwner) public virtual onlyOwner {... */\n    tag_35:\n        /* \"abstract/Ownable.sol\":1175:1188  _checkOwner() */\n      tag_93\n        /* \"abstract/Ownable.sol\":1175:1186  _checkOwner */\n      tag_38\n        /* \"abstract/Ownable.sol\":1175:1188  _checkOwner() */\n      jump\t// in\n    tag_93:\n        /* \"abstract/Ownable.sol\":2327:2328  0 */\n      0x00\n        /* \"abstract/Ownable.sol\":2307:2329  newOwner != address(0) */\n      0xffffffffffffffffffffffffffffffffffffffff\n      and\n        /* \"abstract/Ownable.sol\":2307:2315  newOwner */\n      dup2\n        /* \"abstract/Ownable.sol\":2307:2329  newOwner != address(0) */\n      0xffffffffffffffffffffffffffffffffffffffff\n      and\n      sub\n        /* \"abstract/Ownable.sol\":2285:2395  require(... */\n      tag_95\n      jumpi\n      mload(0x40)\n      0x08c379a000000000000000000000000000000000000000000000000000000000\n      dup2\n      mstore\n      0x04\n      add\n      tag_96\n      swap1\n      tag_97\n      jump\t// in\n    tag_96:\n      mload(0x40)\n      dup1\n      swap2\n      sub\n      swap1\n      revert\n    tag_95:\n        /* \"abstract/Ownable.sol\":2406:2434  _transferOwnership(newOwner) */\n      tag_98\n        /* \"abstract/Ownable.sol\":2425:2433  newOwner */\n      dup2\n        /* \"abstract/Ownable.sol\":2406:2424  _transferOwnership */\n      tag_99\n        /* \"abstract/Ownable.sol\":2406:2434  _transferOwnership(newOwner) */\n      jump\t// in\n    tag_98:\n        /* \"abstract/Ownable.sol\":2204:2442  function transferOwnership(address newOwner) public virtual onlyOwner {... */\n      pop\n      jump\t// out\n        /* \"abstract/Ownable.sol\":1454:1584  function _checkOwner() internal view virtual {... */\n    tag_38:\n        /* \"abstract/Ownable.sol\":1529:1539  msg.sender */\n      caller\n        /* \"abstract/Ownable.sol\":1518:1539  owner() == msg.sender */\n      0xffffffffffffffffffffffffffffffffffffffff\n      and\n        /* \"abstract/Ownable.sol\":1518:1525  owner() */\n      tag_101\n        /* \"abstract/Ownable.sol\":1518:1523  owner */\n      tag_18\n        /* \"abstract/Ownable.sol\":1518:1525  owner() */\n      jump\t// in\n    tag_101:\n        /* \"abstract/Ownable.sol\":1518:1539  owner() == msg.sender */\n      0xffffffffffffffffffffffffffffffffffffffff\n      and\n      eq\n        /* \"abstract/Ownable.sol\":1510:1576  require(owner() == msg.sender, \"Ownable: caller is not the owner\") */\n      tag_102\n      jumpi\n      mload(0x40)\n      0x08c379a000000000000000000000000000000000000000000000000000000000\n      dup2\n      mstore\n      0x04\n      add\n      tag_103\n      swap1\n      tag_104\n      jump\t// in\n    tag_103:\n      mload(0x40)\n      dup1\n      swap2\n      sub\n      swap1\n      revert\n    tag_102:\n        /* \"abstract/Ownable.sol\":1454:1584  function _checkOwner() internal view virtual {... */\n      jump\t// out\n        /* \"@openzeppelin/contracts/utils/Context.sol\":640:736  function _msgSender() internal view virtual returns (address) {... */\n    tag_49:\n        /* \"@openzeppelin/contracts/utils/Context.sol\":693:700  address */\n      0x00\n        /* \"@openzeppelin/contracts/utils/Context.sol\":719:729  msg.sender */\n      caller\n        /* \"@openzeppelin/contracts/utils/Context.sol\":712:729  return msg.sender */\n      swap1\n      pop\n        /* \"@openzeppelin/contracts/utils/Context.sol\":640:736  function _msgSender() internal view virtual returns (address) {... */\n      swap1\n      jump\t// out\n        /* \"abstract/Ownable.sol\":2602:2793  function _transferOwnership(address newOwner) internal virtual {... */\n    tag_99:\n        /* \"abstract/Ownable.sol\":2676:2692  address oldOwner */\n      0x00\n        /* \"abstract/Ownable.sol\":2695:2701  _owner */\n      dup1\n      0x00\n      swap1\n      sload\n      swap1\n      0x0100\n      exp\n      swap1\n      div\n      0xffffffffffffffffffffffffffffffffffffffff\n      and\n        /* \"abstract/Ownable.sol\":2676:2701  address oldOwner = _owner */\n      swap1\n      pop\n        /* \"abstract/Ownable.sol\":2721:2729  newOwner */\n      dup2\n        /* \"abstract/Ownable.sol\":2712:2718  _owner */\n      0x00\n      dup1\n        /* \"abstract/Ownable.sol\":2712:2729  _owner = newOwner */\n      0x0100\n      exp\n      dup2\n      sload\n      dup2\n      0xffffffffffffffffffffffffffffffffffffffff\n      mul\n      not\n      and\n      swap1\n      dup4\n      0xffffffffffffffffffffffffffffffffffffffff\n      and\n      mul\n      or\n      swap1\n      sstore\n      pop\n        /* \"abstract/Ownable.sol\":2776:2784  newOwner */\n      dup2\n        /* \"abstract/Ownable.sol\":2745:2785  OwnershipTransferred(oldOwner, newOwner) */\n      0xffffffffffffffffffffffffffffffffffffffff\n      and\n        /* \"abstract/Ownable.sol\":2766:2774  oldOwner */\n      dup2\n        /* \"abstract/Ownable.sol\":2745:2785  OwnershipTransferred(oldOwner, newOwner) */\n      0xffffffffffffffffffffffffffffffffffffffff\n      and\n      0x8be0079c531659141344cd1fd0a4f28419497f9722a3daafe3b4186f6b6457e0\n      mload(0x40)\n      mload(0x40)\n      dup1\n      swap2\n      sub\n      swap1\n      log3\n        /* \"abstract/Ownable.sol\":2665:2793  {... */\n      pop\n        /* \"abstract/Ownable.sol\":2602:2793  function _transferOwnership(address newOwner) internal virtual {... */\n      pop\n      jump\t// out\n        /* \"#utility.yul\":7:82   */\n    tag_107:\n        /* \"#utility.yul\":40:46   */\n      0x00\n        /* \"#utility.yul\":73:75   */\n      0x40\n        /* \"#utility.yul\":67:76   */\n      mload\n        /* \"#utility.yul\":57:76   */\n      swap1\n      pop\n        /* \"#utility.yul\":7:82   */\n      swap1\n      jump\t// out\n        /* \"#utility.yul\":88:205   */\n    tag_108:\n        /* \"#utility.yul\":197:198   */\n      0x00\n        /* \"#utility.yul\":194:195   */\n      dup1\n        /* \"#utility.yul\":187:199   */\n      revert\n        /* \"#utility.yul\":211:328   */\n    tag_109:\n        /* \"#utility.yul\":320:321   */\n      0x00\n        /* \"#utility.yul\":317:318   */\n      dup1\n        /* \"#utility.yul\":310:322   */\n      revert\n        /* \"#utility.yul\":334:460   */\n    tag_110:\n        /* \"#utility.yul\":371:378   */\n      0x00\n        /* \"#utility.yul\":411:453   */\n      0xffffffffffffffffffffffffffffffffffffffff\n        /* \"#utility.yul\":404:409   */\n      dup3\n        /* \"#utility.yul\":400:454   */\n      and\n        /* \"#utility.yul\":389:454   */\n      swap1\n      pop\n        /* \"#utility.yul\":334:460   */\n      swap2\n      swap1\n      pop\n      jump\t// out\n        /* \"#utility.yul\":466:562   */\n    tag_111:\n        /* \"#utility.yul\":503:510   */\n      0x00\n        /* \"#utility.yul\":532:556   */\n      tag_178\n        /* \"#utility.yul\":550:555   */\n      dup3\n        /* \"#utility.yul\":532:556   */\n      tag_110\n      jump\t// in\n    tag_178:\n        /* \"#utility.yul\":521:556   */\n      swap1\n      pop\n        /* \"#utility.yul\":466:562   */\n      swap2\n      swap1\n      pop\n      jump\t// out\n        /* \"#utility.yul\":568:690   */\n    tag_112:\n        /* \"#utility.yul\":641:665   */\n      tag_180\n        /* \"#utility.yul\":659:664   */\n      dup2\n        /* \"#utility.yul\":641:665   */\n      tag_111\n      jump\t// in\n    tag_180:\n        /* \"#utility.yul\":634:639   */\n      dup2\n        /* \"#utility.yul\":631:666   */\n      eq\n        /* \"#utility.yul\":621:684   */\n      tag_181\n      jumpi\n        /* \"#utility.yul\":680:681   */\n      0x00\n        /* \"#utility.yul\":677:678   */\n      dup1\n        /* \"#utility.yul\":670:682   */\n      revert\n        /* \"#utility.yul\":621:684   */\n    tag_181:\n        /* \"#utility.yul\":568:690   */\n      pop\n      jump\t// out\n        /* \"#utility.yul\":696:835   */\n    tag_113:\n        /* \"#utility.yul\":742:747   */\n      0x00\n        /* \"#utility.yul\":780:786   */\n      dup2\n        /* \"#utility.yul\":767:787   */\n      calldataload\n        /* \"#utility.yul\":758:787   */\n      swap1\n      pop\n        /* \"#utility.yul\":796:829   */\n      tag_183\n        /* \"#utility.yul\":823:828   */\n      dup2\n        /* \"#utility.yul\":796:829   */\n      tag_112\n      jump\t// in\n    tag_183:\n        /* \"#utility.yul\":696:835   */\n      swap3\n      swap2\n      pop\n      pop\n      jump\t// out\n        /* \"#utility.yul\":841:1170   */\n    tag_13:\n        /* \"#utility.yul\":900:906   */\n      0x00\n        /* \"#utility.yul\":949:951   */\n      0x20\n        /* \"#utility.yul\":937:946   */\n      dup3\n        /* \"#utility.yul\":928:935   */\n      dup5\n        /* \"#utility.yul\":924:947   */\n      sub\n        /* \"#utility.yul\":920:952   */\n      slt\n        /* \"#utility.yul\":917:1036   */\n      iszero\n      tag_185\n      jumpi\n        /* \"#utility.yul\":955:1034   */\n      tag_186\n      tag_108\n      jump\t// in\n    tag_186:\n        /* \"#utility.yul\":917:1036   */\n    tag_185:\n        /* \"#utility.yul\":1075:1076   */\n      0x00\n        /* \"#utility.yul\":1100:1153   */\n      tag_187\n        /* \"#utility.yul\":1145:1152   */\n      dup5\n        /* \"#utility.yul\":1136:1142   */\n      dup3\n        /* \"#utility.yul\":1125:1134   */\n      dup6\n        /* \"#utility.yul\":1121:1143   */\n      add\n        /* \"#utility.yul\":1100:1153   */\n      tag_113\n      jump\t// in\n    tag_187:\n        /* \"#utility.yul\":1090:1153   */\n      swap2\n      pop\n        /* \"#utility.yul\":1046:1163   */\n      pop\n        /* \"#utility.yul\":841:1170   */\n      swap3\n      swap2\n      pop\n      pop\n      jump\t// out\n        /* \"#utility.yul\":1176:1294   */\n    tag_114:\n        /* \"#utility.yul\":1263:1287   */\n      tag_189\n        /* \"#utility.yul\":1281:1286   */\n      dup2\n        /* \"#utility.yul\":1263:1287   */\n      tag_111\n      jump\t// in\n    tag_189:\n        /* \"#utility.yul\":1258:1261   */\n      dup3\n        /* \"#utility.yul\":1251:1288   */\n      mstore\n        /* \"#utility.yul\":1176:1294   */\n      pop\n      pop\n      jump\t// out\n        /* \"#utility.yul\":1300:1522   */\n    tag_20:\n        /* \"#utility.yul\":1393:1397   */\n      0x00\n        /* \"#utility.yul\":1431:1433   */\n      0x20\n        /* \"#utility.yul\":1420:1429   */\n      dup3\n        /* \"#utility.yul\":1416:1434   */\n      add\n        /* \"#utility.yul\":1408:1434   */\n      swap1\n      pop\n        /* \"#utility.yul\":1444:1515   */\n      tag_191\n        /* \"#utility.yul\":1512:1513   */\n      0x00\n        /* \"#utility.yul\":1501:1510   */\n      dup4\n        /* \"#utility.yul\":1497:1514   */\n      add\n        /* \"#utility.yul\":1488:1494   */\n      dup5\n        /* \"#utility.yul\":1444:1515   */\n      tag_114\n      jump\t// in\n    tag_191:\n        /* \"#utility.yul\":1300:1522   */\n      swap3\n      swap2\n      pop\n      pop\n      jump\t// out\n        /* \"#utility.yul\":1528:1669   */\n    tag_115:\n        /* \"#utility.yul\":1622:1628   */\n      0x00\n        /* \"#utility.yul\":1656:1661   */\n      dup2\n        /* \"#utility.yul\":1650:1662   */\n      mload\n        /* \"#utility.yul\":1640:1662   */\n      swap1\n      pop\n        /* \"#utility.yul\":1528:1669   */\n      swap2\n      swap1\n      pop\n      jump\t// out\n        /* \"#utility.yul\":1675:1886   */\n    tag_116:\n        /* \"#utility.yul\":1801:1812   */\n      0x00\n        /* \"#utility.yul\":1835:1841   */\n      dup3\n        /* \"#utility.yul\":1830:1833   */\n      dup3\n        /* \"#utility.yul\":1823:1842   */\n      mstore\n        /* \"#utility.yul\":1875:1879   */\n      0x20\n        /* \"#utility.yul\":1870:1873   */\n      dup3\n        /* \"#utility.yul\":1866:1880   */\n      add\n        /* \"#utility.yul\":1851:1880   */\n      swap1\n      pop\n        /* \"#utility.yul\":1675:1886   */\n      swap3\n      swap2\n      pop\n      pop\n      jump\t// out\n        /* \"#utility.yul\":1892:2051   */\n    tag_117:\n        /* \"#utility.yul\":1986:1990   */\n      0x00\n        /* \"#utility.yul\":2009:2012   */\n      dup2\n        /* \"#utility.yul\":2001:2012   */\n      swap1\n      pop\n        /* \"#utility.yul\":2039:2043   */\n      0x20\n        /* \"#utility.yul\":2034:2037   */\n      dup3\n        /* \"#utility.yul\":2030:2044   */\n      add\n        /* \"#utility.yul\":2022:2044   */\n      swap1\n      pop\n        /* \"#utility.yul\":1892:2051   */\n      swap2\n      swap1\n      pop\n      jump\t// out\n        /* \"#utility.yul\":2057:2134   */\n    tag_118:\n        /* \"#utility.yul\":2094:2101   */\n      0x00\n        /* \"#utility.yul\":2123:2128   */\n      dup2\n        /* \"#utility.yul\":2112:2128   */\n      swap1\n      pop\n        /* \"#utility.yul\":2057:2134   */\n      swap2\n      swap1\n      pop\n      jump\t// out\n        /* \"#utility.yul\":2140:2248   */\n    tag_119:\n        /* \"#utility.yul\":2217:2241   */\n      tag_197\n        /* \"#utility.yul\":2235:2240   */\n      dup2\n        /* \"#utility.yul\":2217:2241   */\n      tag_118\n      jump\t// in\n    tag_197:\n        /* \"#utility.yul\":2212:2215   */\n      dup3\n        /* \"#utility.yul\":2205:2242   */\n      mstore\n        /* \"#utility.yul\":2140:2248   */\n      pop\n      pop\n      jump\t// out\n        /* \"#utility.yul\":2254:2353   */\n    tag_120:\n        /* \"#utility.yul\":2306:2312   */\n      0x00\n        /* \"#utility.yul\":2340:2345   */\n      dup2\n        /* \"#utility.yul\":2334:2346   */\n      mload\n        /* \"#utility.yul\":2324:2346   */\n      swap1\n      pop\n        /* \"#utility.yul\":2254:2353   */\n      swap2\n      swap1\n      pop\n      jump\t// out\n        /* \"#utility.yul\":2359:2518   */\n    tag_121:\n        /* \"#utility.yul\":2433:2444   */\n      0x00\n        /* \"#utility.yul\":2467:2473   */\n      dup3\n        /* \"#utility.yul\":2462:2465   */\n      dup3\n        /* \"#utility.yul\":2455:2474   */\n      mstore\n        /* \"#utility.yul\":2507:2511   */\n      0x20\n        /* \"#utility.yul\":2502:2505   */\n      dup3\n        /* \"#utility.yul\":2498:2512   */\n      add\n        /* \"#utility.yul\":2483:2512   */\n      swap1\n      pop\n        /* \"#utility.yul\":2359:2518   */\n      swap3\n      swap2\n      pop\n      pop\n      jump\t// out\n        /* \"#utility.yul\":2524:2770   */\n    tag_122:\n        /* \"#utility.yul\":2605:2606   */\n      0x00\n        /* \"#utility.yul\":2615:2728   */\n    tag_201:\n        /* \"#utility.yul\":2629:2635   */\n      dup4\n        /* \"#utility.yul\":2626:2627   */\n      dup2\n        /* \"#utility.yul\":2623:2636   */\n      lt\n        /* \"#utility.yul\":2615:2728   */\n      iszero\n      tag_203\n      jumpi\n        /* \"#utility.yul\":2714:2715   */\n      dup1\n        /* \"#utility.yul\":2709:2712   */\n      dup3\n        /* \"#utility.yul\":2705:2716   */\n      add\n        /* \"#utility.yul\":2699:2717   */\n      mload\n        /* \"#utility.yul\":2695:2696   */\n      dup2\n        /* \"#utility.yul\":2690:2693   */\n      dup5\n        /* \"#utility.yul\":2686:2697   */\n      add\n        /* \"#utility.yul\":2679:2718   */\n      mstore\n        /* \"#utility.yul\":2651:2653   */\n      0x20\n        /* \"#utility.yul\":2648:2649   */\n      dup2\n        /* \"#utility.yul\":2644:2654   */\n      add\n        /* \"#utility.yul\":2639:2654   */\n      swap1\n      pop\n        /* \"#utility.yul\":2615:2728   */\n      jump(tag_201)\n    tag_203:\n        /* \"#utility.yul\":2762:2763   */\n      0x00\n        /* \"#utility.yul\":2753:2759   */\n      dup5\n        /* \"#utility.yul\":2748:2751   */\n      dup5\n        /* \"#utility.yul\":2744:2760   */\n      add\n        /* \"#utility.yul\":2737:2764   */\n      mstore\n        /* \"#utility.yul\":2586:2770   */\n      pop\n        /* \"#utility.yul\":2524:2770   */\n      pop\n      pop\n      pop\n      jump\t// out\n        /* \"#utility.yul\":2776:2878   */\n    tag_123:\n        /* \"#utility.yul\":2817:2823   */\n      0x00\n        /* \"#utility.yul\":2868:2870   */\n      0x1f\n        /* \"#utility.yul\":2864:2871   */\n      not\n        /* \"#utility.yul\":2859:2861   */\n      0x1f\n        /* \"#utility.yul\":2852:2857   */\n      dup4\n        /* \"#utility.yul\":2848:2862   */\n      add\n        /* \"#utility.yul\":2844:2872   */\n      and\n        /* \"#utility.yul\":2834:2872   */\n      swap1\n      pop\n        /* \"#utility.yul\":2776:2878   */\n      swap2\n      swap1\n      pop\n      jump\t// out\n        /* \"#utility.yul\":2884:3241   */\n    tag_124:\n        /* \"#utility.yul\":2962:2965   */\n      0x00\n        /* \"#utility.yul\":2990:3029   */\n      tag_206\n        /* \"#utility.yul\":3023:3028   */\n      dup3\n        /* \"#utility.yul\":2990:3029   */\n      tag_120\n      jump\t// in\n    tag_206:\n        /* \"#utility.yul\":3045:3106   */\n      tag_207\n        /* \"#utility.yul\":3099:3105   */\n      dup2\n        /* \"#utility.yul\":3094:3097   */\n      dup6\n        /* \"#utility.yul\":3045:3106   */\n      tag_121\n      jump\t// in\n    tag_207:\n        /* \"#utility.yul\":3038:3106   */\n      swap4\n      pop\n        /* \"#utility.yul\":3115:3180   */\n      tag_208\n        /* \"#utility.yul\":3173:3179   */\n      dup2\n        /* \"#utility.yul\":3168:3171   */\n      dup6\n        /* \"#utility.yul\":3161:3165   */\n      0x20\n        /* \"#utility.yul\":3154:3159   */\n      dup7\n        /* \"#utility.yul\":3150:3166   */\n      add\n        /* \"#utility.yul\":3115:3180   */\n      tag_122\n      jump\t// in\n    tag_208:\n        /* \"#utility.yul\":3205:3234   */\n      tag_209\n        /* \"#utility.yul\":3227:3233   */\n      dup2\n        /* \"#utility.yul\":3205:3234   */\n      tag_123\n      jump\t// in\n    tag_209:\n        /* \"#utility.yul\":3200:3203   */\n      dup5\n        /* \"#utility.yul\":3196:3235   */\n      add\n        /* \"#utility.yul\":3189:3235   */\n      swap2\n      pop\n        /* \"#utility.yul\":2966:3241   */\n      pop\n        /* \"#utility.yul\":2884:3241   */\n      swap3\n      swap2\n      pop\n      pop\n      jump\t// out\n        /* \"#utility.yul\":3247:3337   */\n    tag_125:\n        /* \"#utility.yul\":3281:3288   */\n      0x00\n        /* \"#utility.yul\":3324:3329   */\n      dup2\n        /* \"#utility.yul\":3317:3330   */\n      iszero\n        /* \"#utility.yul\":3310:3331   */\n      iszero\n        /* \"#utility.yul\":3299:3331   */\n      swap1\n      pop\n        /* \"#utility.yul\":3247:3337   */\n      swap2\n      swap1\n      pop\n      jump\t// out\n        /* \"#utility.yul\":3343:3442   */\n    tag_126:\n        /* \"#utility.yul\":3414:3435   */\n      tag_212\n        /* \"#utility.yul\":3429:3434   */\n      dup2\n        /* \"#utility.yul\":3414:3435   */\n      tag_125\n      jump\t// in\n    tag_212:\n        /* \"#utility.yul\":3409:3412   */\n      dup3\n        /* \"#utility.yul\":3402:3436   */\n      mstore\n        /* \"#utility.yul\":3343:3442   */\n      pop\n      pop\n      jump\t// out\n        /* \"#utility.yul\":3494:4953   */\n    tag_127:\n        /* \"#utility.yul\":3607:3610   */\n      0x00\n        /* \"#utility.yul\":3643:3647   */\n      0xc0\n        /* \"#utility.yul\":3638:3641   */\n      dup4\n        /* \"#utility.yul\":3634:3648   */\n      add\n        /* \"#utility.yul\":3733:3737   */\n      0x00\n        /* \"#utility.yul\":3726:3731   */\n      dup4\n        /* \"#utility.yul\":3722:3738   */\n      add\n        /* \"#utility.yul\":3716:3739   */\n      mload\n        /* \"#utility.yul\":3752:3815   */\n      tag_214\n        /* \"#utility.yul\":3809:3813   */\n      0x00\n        /* \"#utility.yul\":3804:3807   */\n      dup7\n        /* \"#utility.yul\":3800:3814   */\n      add\n        /* \"#utility.yul\":3786:3798   */\n      dup3\n        /* \"#utility.yul\":3752:3815   */\n      tag_119\n      jump\t// in\n    tag_214:\n        /* \"#utility.yul\":3658:3825   */\n      pop\n        /* \"#utility.yul\":3912:3916   */\n      0x20\n        /* \"#utility.yul\":3905:3910   */\n      dup4\n        /* \"#utility.yul\":3901:3917   */\n      add\n        /* \"#utility.yul\":3895:3918   */\n      mload\n        /* \"#utility.yul\":3965:3968   */\n      dup5\n        /* \"#utility.yul\":3959:3963   */\n      dup3\n        /* \"#utility.yul\":3955:3969   */\n      sub\n        /* \"#utility.yul\":3948:3952   */\n      0x20\n        /* \"#utility.yul\":3943:3946   */\n      dup7\n        /* \"#utility.yul\":3939:3953   */\n      add\n        /* \"#utility.yul\":3932:3970   */\n      mstore\n        /* \"#utility.yul\":3991:4064   */\n      tag_215\n        /* \"#utility.yul\":4059:4063   */\n      dup3\n        /* \"#utility.yul\":4045:4057   */\n      dup3\n        /* \"#utility.yul\":3991:4064   */\n      tag_124\n      jump\t// in\n    tag_215:\n        /* \"#utility.yul\":3983:4064   */\n      swap2\n      pop\n        /* \"#utility.yul\":3835:4075   */\n      pop\n        /* \"#utility.yul\":4161:4165   */\n      0x40\n        /* \"#utility.yul\":4154:4159   */\n      dup4\n        /* \"#utility.yul\":4150:4166   */\n      add\n        /* \"#utility.yul\":4144:4167   */\n      mload\n        /* \"#utility.yul\":4214:4217   */\n      dup5\n        /* \"#utility.yul\":4208:4212   */\n      dup3\n        /* \"#utility.yul\":4204:4218   */\n      sub\n        /* \"#utility.yul\":4197:4201   */\n      0x40\n        /* \"#utility.yul\":4192:4195   */\n      dup7\n        /* \"#utility.yul\":4188:4202   */\n      add\n        /* \"#utility.yul\":4181:4219   */\n      mstore\n        /* \"#utility.yul\":4240:4313   */\n      tag_216\n        /* \"#utility.yul\":4308:4312   */\n      dup3\n        /* \"#utility.yul\":4294:4306   */\n      dup3\n        /* \"#utility.yul\":4240:4313   */\n      tag_124\n      jump\t// in\n    tag_216:\n        /* \"#utility.yul\":4232:4313   */\n      swap2\n      pop\n        /* \"#utility.yul\":4085:4324   */\n      pop\n        /* \"#utility.yul\":4409:4413   */\n      0x60\n        /* \"#utility.yul\":4402:4407   */\n      dup4\n        /* \"#utility.yul\":4398:4414   */\n      add\n        /* \"#utility.yul\":4392:4415   */\n      mload\n        /* \"#utility.yul\":4462:4465   */\n      dup5\n        /* \"#utility.yul\":4456:4460   */\n      dup3\n        /* \"#utility.yul\":4452:4466   */\n      sub\n        /* \"#utility.yul\":4445:4449   */\n      0x60\n        /* \"#utility.yul\":4440:4443   */\n      dup7\n        /* \"#utility.yul\":4436:4450   */\n      add\n        /* \"#utility.yul\":4429:4467   */\n      mstore\n        /* \"#utility.yul\":4488:4561   */\n      tag_217\n        /* \"#utility.yul\":4556:4560   */\n      dup3\n        /* \"#utility.yul\":4542:4554   */\n      dup3\n        /* \"#utility.yul\":4488:4561   */\n      tag_124\n      jump\t// in\n    tag_217:\n        /* \"#utility.yul\":4480:4561   */\n      swap2\n      pop\n        /* \"#utility.yul\":4334:4572   */\n      pop\n        /* \"#utility.yul\":4658:4662   */\n      0x80\n        /* \"#utility.yul\":4651:4656   */\n      dup4\n        /* \"#utility.yul\":4647:4663   */\n      add\n        /* \"#utility.yul\":4641:4664   */\n      mload\n        /* \"#utility.yul\":4677:4740   */\n      tag_218\n        /* \"#utility.yul\":4734:4738   */\n      0x80\n        /* \"#utility.yul\":4729:4732   */\n      dup7\n        /* \"#utility.yul\":4725:4739   */\n      add\n        /* \"#utility.yul\":4711:4723   */\n      dup3\n        /* \"#utility.yul\":4677:4740   */\n      tag_119\n      jump\t// in\n    tag_218:\n        /* \"#utility.yul\":4582:4750   */\n      pop\n        /* \"#utility.yul\":4840:4844   */\n      0xa0\n        /* \"#utility.yul\":4833:4838   */\n      dup4\n        /* \"#utility.yul\":4829:4845   */\n      add\n        /* \"#utility.yul\":4823:4846   */\n      mload\n        /* \"#utility.yul\":4859:4916   */\n      tag_219\n        /* \"#utility.yul\":4910:4914   */\n      0xa0\n        /* \"#utility.yul\":4905:4908   */\n      dup7\n        /* \"#utility.yul\":4901:4915   */\n      add\n        /* \"#utility.yul\":4887:4899   */\n      dup3\n        /* \"#utility.yul\":4859:4916   */\n      tag_126\n      jump\t// in\n    tag_219:\n        /* \"#utility.yul\":4760:4926   */\n      pop\n        /* \"#utility.yul\":4943:4947   */\n      dup1\n        /* \"#utility.yul\":4936:4947   */\n      swap2\n      pop\n        /* \"#utility.yul\":3612:4953   */\n      pop\n        /* \"#utility.yul\":3494:4953   */\n      swap3\n      swap2\n      pop\n      pop\n      jump\t// out\n        /* \"#utility.yul\":4959:5223   */\n    tag_128:\n        /* \"#utility.yul\":5082:5092   */\n      0x00\n        /* \"#utility.yul\":5117:5217   */\n      tag_221\n        /* \"#utility.yul\":5213:5216   */\n      dup4\n        /* \"#utility.yul\":5205:5211   */\n      dup4\n        /* \"#utility.yul\":5117:5217   */\n      tag_127\n      jump\t// in\n    tag_221:\n        /* \"#utility.yul\":5103:5217   */\n      swap1\n      pop\n        /* \"#utility.yul\":4959:5223   */\n      swap3\n      swap2\n      pop\n      pop\n      jump\t// out\n        /* \"#utility.yul\":5229:5369   */\n    tag_129:\n        /* \"#utility.yul\":5326:5330   */\n      0x00\n        /* \"#utility.yul\":5358:5362   */\n      0x20\n        /* \"#utility.yul\":5353:5356   */\n      dup3\n        /* \"#utility.yul\":5349:5363   */\n      add\n        /* \"#utility.yul\":5341:5363   */\n      swap1\n      pop\n        /* \"#utility.yul\":5229:5369   */\n      swap2\n      swap1\n      pop\n      jump\t// out\n        /* \"#utility.yul\":5425:6552   */\n    tag_130:\n        /* \"#utility.yul\":5598:5601   */\n      0x00\n        /* \"#utility.yul\":5627:5708   */\n      tag_224\n        /* \"#utility.yul\":5702:5707   */\n      dup3\n        /* \"#utility.yul\":5627:5708   */\n      tag_115\n      jump\t// in\n    tag_224:\n        /* \"#utility.yul\":5724:5837   */\n      tag_225\n        /* \"#utility.yul\":5830:5836   */\n      dup2\n        /* \"#utility.yul\":5825:5828   */\n      dup6\n        /* \"#utility.yul\":5724:5837   */\n      tag_116\n      jump\t// in\n    tag_225:\n        /* \"#utility.yul\":5717:5837   */\n      swap4\n      pop\n        /* \"#utility.yul\":5863:5866   */\n      dup4\n        /* \"#utility.yul\":5908:5912   */\n      0x20\n        /* \"#utility.yul\":5900:5906   */\n      dup3\n        /* \"#utility.yul\":5896:5913   */\n      mul\n        /* \"#utility.yul\":5891:5894   */\n      dup6\n        /* \"#utility.yul\":5887:5914   */\n      add\n        /* \"#utility.yul\":5938:6021   */\n      tag_226\n        /* \"#utility.yul\":6015:6020   */\n      dup6\n        /* \"#utility.yul\":5938:6021   */\n      tag_117\n      jump\t// in\n    tag_226:\n        /* \"#utility.yul\":6044:6051   */\n      dup1\n        /* \"#utility.yul\":6075:6076   */\n      0x00\n        /* \"#utility.yul\":6060:6507   */\n    tag_227:\n        /* \"#utility.yul\":6085:6091   */\n      dup6\n        /* \"#utility.yul\":6082:6083   */\n      dup2\n        /* \"#utility.yul\":6079:6092   */\n      lt\n        /* \"#utility.yul\":6060:6507   */\n      iszero\n      tag_229\n      jumpi\n        /* \"#utility.yul\":6156:6165   */\n      dup5\n        /* \"#utility.yul\":6150:6154   */\n      dup5\n        /* \"#utility.yul\":6146:6166   */\n      sub\n        /* \"#utility.yul\":6141:6144   */\n      dup10\n        /* \"#utility.yul\":6134:6167   */\n      mstore\n        /* \"#utility.yul\":6207:6213   */\n      dup2\n        /* \"#utility.yul\":6201:6214   */\n      mload\n        /* \"#utility.yul\":6235:6353   */\n      tag_230\n        /* \"#utility.yul\":6348:6352   */\n      dup6\n        /* \"#utility.yul\":6333:6346   */\n      dup3\n        /* \"#utility.yul\":6235:6353   */\n      tag_128\n      jump\t// in\n    tag_230:\n        /* \"#utility.yul\":6227:6353   */\n      swap5\n      pop\n        /* \"#utility.yul\":6376:6463   */\n      tag_231\n        /* \"#utility.yul\":6456:6462   */\n      dup4\n        /* \"#utility.yul\":6376:6463   */\n      tag_129\n      jump\t// in\n    tag_231:\n        /* \"#utility.yul\":6366:6463   */\n      swap3\n      pop\n        /* \"#utility.yul\":6492:6496   */\n      0x20\n        /* \"#utility.yul\":6487:6490   */\n      dup11\n        /* \"#utility.yul\":6483:6497   */\n      add\n        /* \"#utility.yul\":6476:6497   */\n      swap10\n      pop\n        /* \"#utility.yul\":6120:6507   */\n      pop\n        /* \"#utility.yul\":6107:6108   */\n      0x01\n        /* \"#utility.yul\":6104:6105   */\n      dup2\n        /* \"#utility.yul\":6100:6109   */\n      add\n        /* \"#utility.yul\":6095:6109   */\n      swap1\n      pop\n        /* \"#utility.yul\":6060:6507   */\n      jump(tag_227)\n    tag_229:\n        /* \"#utility.yul\":6064:6078   */\n      pop\n        /* \"#utility.yul\":6523:6527   */\n      dup3\n        /* \"#utility.yul\":6516:6527   */\n      swap8\n      pop\n        /* \"#utility.yul\":6543:6546   */\n      dup8\n        /* \"#utility.yul\":6536:6546   */\n      swap6\n      pop\n        /* \"#utility.yul\":5603:6552   */\n      pop\n      pop\n      pop\n      pop\n      pop\n        /* \"#utility.yul\":5425:6552   */\n      swap3\n      swap2\n      pop\n      pop\n      jump\t// out\n        /* \"#utility.yul\":6558:7039   */\n    tag_24:\n        /* \"#utility.yul\":6755:6759   */\n      0x00\n        /* \"#utility.yul\":6793:6795   */\n      0x20\n        /* \"#utility.yul\":6782:6791   */\n      dup3\n        /* \"#utility.yul\":6778:6796   */\n      add\n        /* \"#utility.yul\":6770:6796   */\n      swap1\n      pop\n        /* \"#utility.yul\":6842:6851   */\n      dup2\n        /* \"#utility.yul\":6836:6840   */\n      dup2\n        /* \"#utility.yul\":6832:6852   */\n      sub\n        /* \"#utility.yul\":6828:6829   */\n      0x00\n        /* \"#utility.yul\":6817:6826   */\n      dup4\n        /* \"#utility.yul\":6813:6830   */\n      add\n        /* \"#utility.yul\":6806:6853   */\n      mstore\n        /* \"#utility.yul\":6870:7032   */\n      tag_233\n        /* \"#utility.yul\":7027:7031   */\n      dup2\n        /* \"#utility.yul\":7018:7024   */\n      dup5\n        /* \"#utility.yul\":6870:7032   */\n      tag_130\n      jump\t// in\n    tag_233:\n        /* \"#utility.yul\":6862:7032   */\n      swap1\n      pop\n        /* \"#utility.yul\":6558:7039   */\n      swap3\n      swap2\n      pop\n      pop\n      jump\t// out\n        /* \"#utility.yul\":7045:7162   */\n    tag_131:\n        /* \"#utility.yul\":7154:7155   */\n      0x00\n        /* \"#utility.yul\":7151:7152   */\n      dup1\n        /* \"#utility.yul\":7144:7156   */\n      revert\n        /* \"#utility.yul\":7168:7348   */\n    tag_132:\n        /* \"#utility.yul\":7216:7293   */\n      0x4e487b7100000000000000000000000000000000000000000000000000000000\n        /* \"#utility.yul\":7213:7214   */\n      0x00\n        /* \"#utility.yul\":7206:7294   */\n      mstore\n        /* \"#utility.yul\":7313:7317   */\n      0x41\n        /* \"#utility.yul\":7310:7311   */\n      0x04\n        /* \"#utility.yul\":7303:7318   */\n      mstore\n        /* \"#utility.yul\":7337:7341   */\n      0x24\n        /* \"#utility.yul\":7334:7335   */\n      0x00\n        /* \"#utility.yul\":7327:7342   */\n      revert\n        /* \"#utility.yul\":7354:7635   */\n    tag_133:\n        /* \"#utility.yul\":7437:7464   */\n      tag_237\n        /* \"#utility.yul\":7459:7463   */\n      dup3\n        /* \"#utility.yul\":7437:7464   */\n      tag_123\n      jump\t// in\n    tag_237:\n        /* \"#utility.yul\":7429:7435   */\n      dup2\n        /* \"#utility.yul\":7425:7465   */\n      add\n        /* \"#utility.yul\":7567:7573   */\n      dup2\n        /* \"#utility.yul\":7555:7565   */\n      dup2\n        /* \"#utility.yul\":7552:7574   */\n      lt\n        /* \"#utility.yul\":7531:7549   */\n      0xffffffffffffffff\n        /* \"#utility.yul\":7519:7529   */\n      dup3\n        /* \"#utility.yul\":7516:7550   */\n      gt\n        /* \"#utility.yul\":7513:7575   */\n      or\n        /* \"#utility.yul\":7510:7598   */\n      iszero\n      tag_238\n      jumpi\n        /* \"#utility.yul\":7578:7596   */\n      tag_239\n      tag_132\n      jump\t// in\n    tag_239:\n        /* \"#utility.yul\":7510:7598   */\n    tag_238:\n        /* \"#utility.yul\":7618:7628   */\n      dup1\n        /* \"#utility.yul\":7614:7616   */\n      0x40\n        /* \"#utility.yul\":7607:7629   */\n      mstore\n        /* \"#utility.yul\":7397:7635   */\n      pop\n        /* \"#utility.yul\":7354:7635   */\n      pop\n      pop\n      jump\t// out\n        /* \"#utility.yul\":7641:7770   */\n    tag_134:\n        /* \"#utility.yul\":7675:7681   */\n      0x00\n        /* \"#utility.yul\":7702:7722   */\n      tag_241\n      tag_107\n      jump\t// in\n    tag_241:\n        /* \"#utility.yul\":7692:7722   */\n      swap1\n      pop\n        /* \"#utility.yul\":7731:7764   */\n      tag_242\n        /* \"#utility.yul\":7759:7763   */\n      dup3\n        /* \"#utility.yul\":7751:7757   */\n      dup3\n        /* \"#utility.yul\":7731:7764   */\n      tag_133\n      jump\t// in\n    tag_242:\n        /* \"#utility.yul\":7641:7770   */\n      swap2\n      swap1\n      pop\n      jump\t// out\n        /* \"#utility.yul\":7776:7893   */\n    tag_135:\n        /* \"#utility.yul\":7885:7886   */\n      0x00\n        /* \"#utility.yul\":7882:7883   */\n      dup1\n        /* \"#utility.yul\":7875:7887   */\n      revert\n        /* \"#utility.yul\":7899:8021   */\n    tag_136:\n        /* \"#utility.yul\":7972:7996   */\n      tag_245\n        /* \"#utility.yul\":7990:7995   */\n      dup2\n        /* \"#utility.yul\":7972:7996   */\n      tag_118\n      jump\t// in\n    tag_245:\n        /* \"#utility.yul\":7965:7970   */\n      dup2\n        /* \"#utility.yul\":7962:7997   */\n      eq\n        /* \"#utility.yul\":7952:8015   */\n      tag_246\n      jumpi\n        /* \"#utility.yul\":8011:8012   */\n      0x00\n        /* \"#utility.yul\":8008:8009   */\n      dup1\n        /* \"#utility.yul\":8001:8013   */\n      revert\n        /* \"#utility.yul\":7952:8015   */\n    tag_246:\n        /* \"#utility.yul\":7899:8021   */\n      pop\n      jump\t// out\n        /* \"#utility.yul\":8027:8166   */\n    tag_137:\n        /* \"#utility.yul\":8073:8078   */\n      0x00\n        /* \"#utility.yul\":8111:8117   */\n      dup2\n        /* \"#utility.yul\":8098:8118   */\n      calldataload\n        /* \"#utility.yul\":8089:8118   */\n      swap1\n      pop\n        /* \"#utility.yul\":8127:8160   */\n      tag_248\n        /* \"#utility.yul\":8154:8159   */\n      dup2\n        /* \"#utility.yul\":8127:8160   */\n      tag_136\n      jump\t// in\n    tag_248:\n        /* \"#utility.yul\":8027:8166   */\n      swap3\n      swap2\n      pop\n      pop\n      jump\t// out\n        /* \"#utility.yul\":8172:8289   */\n    tag_138:\n        /* \"#utility.yul\":8281:8282   */\n      0x00\n        /* \"#utility.yul\":8278:8279   */\n      dup1\n        /* \"#utility.yul\":8271:8283   */\n      revert\n        /* \"#utility.yul\":8295:8412   */\n    tag_139:\n        /* \"#utility.yul\":8404:8405   */\n      0x00\n        /* \"#utility.yul\":8401:8402   */\n      dup1\n        /* \"#utility.yul\":8394:8406   */\n      revert\n        /* \"#utility.yul\":8418:8726   */\n    tag_140:\n        /* \"#utility.yul\":8480:8484   */\n      0x00\n        /* \"#utility.yul\":8570:8588   */\n      0xffffffffffffffff\n        /* \"#utility.yul\":8562:8568   */\n      dup3\n        /* \"#utility.yul\":8559:8589   */\n      gt\n        /* \"#utility.yul\":8556:8612   */\n      iszero\n      tag_252\n      jumpi\n        /* \"#utility.yul\":8592:8610   */\n      tag_253\n      tag_132\n      jump\t// in\n    tag_253:\n        /* \"#utility.yul\":8556:8612   */\n    tag_252:\n        /* \"#utility.yul\":8630:8659   */\n      tag_254\n        /* \"#utility.yul\":8652:8658   */\n      dup3\n        /* \"#utility.yul\":8630:8659   */\n      tag_123\n      jump\t// in\n    tag_254:\n        /* \"#utility.yul\":8622:8659   */\n      swap1\n      pop\n        /* \"#utility.yul\":8714:8718   */\n      0x20\n        /* \"#utility.yul\":8708:8712   */\n      dup2\n        /* \"#utility.yul\":8704:8719   */\n      add\n        /* \"#utility.yul\":8696:8719   */\n      swap1\n      pop\n        /* \"#utility.yul\":8418:8726   */\n      swap2\n      swap1\n      pop\n      jump\t// out\n        /* \"#utility.yul\":8732:8878   */\n    tag_141:\n        /* \"#utility.yul\":8829:8835   */\n      dup3\n        /* \"#utility.yul\":8824:8827   */\n      dup2\n        /* \"#utility.yul\":8819:8822   */\n      dup4\n        /* \"#utility.yul\":8806:8836   */\n      calldatacopy\n        /* \"#utility.yul\":8870:8871   */\n      0x00\n        /* \"#utility.yul\":8861:8867   */\n      dup4\n        /* \"#utility.yul\":8856:8859   */\n      dup4\n        /* \"#utility.yul\":8852:8868   */\n      add\n        /* \"#utility.yul\":8845:8872   */\n      mstore\n        /* \"#utility.yul\":8732:8878   */\n      pop\n      pop\n      pop\n      jump\t// out\n        /* \"#utility.yul\":8884:9309   */\n    tag_142:\n        /* \"#utility.yul\":8962:8967   */\n      0x00\n        /* \"#utility.yul\":8987:9053   */\n      tag_257\n        /* \"#utility.yul\":9003:9052   */\n      tag_258\n        /* \"#utility.yul\":9045:9051   */\n      dup5\n        /* \"#utility.yul\":9003:9052   */\n      tag_140\n      jump\t// in\n    tag_258:\n        /* \"#utility.yul\":8987:9053   */\n      tag_134\n      jump\t// in\n    tag_257:\n        /* \"#utility.yul\":8978:9053   */\n      swap1\n      pop\n        /* \"#utility.yul\":9076:9082   */\n      dup3\n        /* \"#utility.yul\":9069:9074   */\n      dup2\n        /* \"#utility.yul\":9062:9083   */\n      mstore\n        /* \"#utility.yul\":9114:9118   */\n      0x20\n        /* \"#utility.yul\":9107:9112   */\n      dup2\n        /* \"#utility.yul\":9103:9119   */\n      add\n        /* \"#utility.yul\":9152:9155   */\n      dup5\n        /* \"#utility.yul\":9143:9149   */\n      dup5\n        /* \"#utility.yul\":9138:9141   */\n      dup5\n        /* \"#utility.yul\":9134:9150   */\n      add\n        /* \"#utility.yul\":9131:9156   */\n      gt\n        /* \"#utility.yul\":9128:9240   */\n      iszero\n      tag_259\n      jumpi\n        /* \"#utility.yul\":9159:9238   */\n      tag_260\n      tag_139\n      jump\t// in\n    tag_260:\n        /* \"#utility.yul\":9128:9240   */\n    tag_259:\n        /* \"#utility.yul\":9249:9303   */\n      tag_261\n        /* \"#utility.yul\":9296:9302   */\n      dup5\n        /* \"#utility.yul\":9291:9294   */\n      dup3\n        /* \"#utility.yul\":9286:9289   */\n      dup6\n        /* \"#utility.yul\":9249:9303   */\n      tag_141\n      jump\t// in\n    tag_261:\n        /* \"#utility.yul\":8968:9309   */\n      pop\n        /* \"#utility.yul\":8884:9309   */\n      swap4\n      swap3\n      pop\n      pop\n      pop\n      jump\t// out\n        /* \"#utility.yul\":9329:9669   */\n    tag_143:\n        /* \"#utility.yul\":9385:9390   */\n      0x00\n        /* \"#utility.yul\":9434:9437   */\n      dup3\n        /* \"#utility.yul\":9427:9431   */\n      0x1f\n        /* \"#utility.yul\":9419:9425   */\n      dup4\n        /* \"#utility.yul\":9415:9432   */\n      add\n        /* \"#utility.yul\":9411:9438   */\n      slt\n        /* \"#utility.yul\":9401:9523   */\n      tag_263\n      jumpi\n        /* \"#utility.yul\":9442:9521   */\n      tag_264\n      tag_138\n      jump\t// in\n    tag_264:\n        /* \"#utility.yul\":9401:9523   */\n    tag_263:\n        /* \"#utility.yul\":9559:9565   */\n      dup2\n        /* \"#utility.yul\":9546:9566   */\n      calldataload\n        /* \"#utility.yul\":9584:9663   */\n      tag_265\n        /* \"#utility.yul\":9659:9662   */\n      dup5\n        /* \"#utility.yul\":9651:9657   */\n      dup3\n        /* \"#utility.yul\":9644:9648   */\n      0x20\n        /* \"#utility.yul\":9636:9642   */\n      dup7\n        /* \"#utility.yul\":9632:9649   */\n      add\n        /* \"#utility.yul\":9584:9663   */\n      tag_142\n      jump\t// in\n    tag_265:\n        /* \"#utility.yul\":9575:9663   */\n      swap2\n      pop\n        /* \"#utility.yul\":9391:9669   */\n      pop\n        /* \"#utility.yul\":9329:9669   */\n      swap3\n      swap2\n      pop\n      pop\n      jump\t// out\n        /* \"#utility.yul\":9675:9791   */\n    tag_144:\n        /* \"#utility.yul\":9745:9766   */\n      tag_267\n        /* \"#utility.yul\":9760:9765   */\n      dup2\n        /* \"#utility.yul\":9745:9766   */\n      tag_125\n      jump\t// in\n    tag_267:\n        /* \"#utility.yul\":9738:9743   */\n      dup2\n        /* \"#utility.yul\":9735:9767   */\n      eq\n        /* \"#utility.yul\":9725:9785   */\n      tag_268\n      jumpi\n        /* \"#utility.yul\":9781:9782   */\n      0x00\n        /* \"#utility.yul\":9778:9779   */\n      dup1\n        /* \"#utility.yul\":9771:9783   */\n      revert\n        /* \"#utility.yul\":9725:9785   */\n    tag_268:\n        /* \"#utility.yul\":9675:9791   */\n      pop\n      jump\t// out\n        /* \"#utility.yul\":9797:9930   */\n    tag_145:\n        /* \"#utility.yul\":9840:9845   */\n      0x00\n        /* \"#utility.yul\":9878:9884   */\n      dup2\n        /* \"#utility.yul\":9865:9885   */\n      calldataload\n        /* \"#utility.yul\":9856:9885   */\n      swap1\n      pop\n        /* \"#utility.yul\":9894:9924   */\n      tag_270\n        /* \"#utility.yul\":9918:9923   */\n      dup2\n        /* \"#utility.yul\":9894:9924   */\n      tag_144\n      jump\t// in\n    tag_270:\n        /* \"#utility.yul\":9797:9930   */\n      swap3\n      swap2\n      pop\n      pop\n      jump\t// out\n        /* \"#utility.yul\":9961:11717   */\n    tag_146:\n        /* \"#utility.yul\":10037:10042   */\n      0x00\n        /* \"#utility.yul\":10081:10085   */\n      0xc0\n        /* \"#utility.yul\":10069:10078   */\n      dup3\n        /* \"#utility.yul\":10064:10067   */\n      dup5\n        /* \"#utility.yul\":10060:10079   */\n      sub\n        /* \"#utility.yul\":10056:10086   */\n      slt\n        /* \"#utility.yul\":10053:10170   */\n      iszero\n      tag_272\n      jumpi\n        /* \"#utility.yul\":10089:10168   */\n      tag_273\n      tag_131\n      jump\t// in\n    tag_273:\n        /* \"#utility.yul\":10053:10170   */\n    tag_272:\n        /* \"#utility.yul\":10188:10209   */\n      tag_274\n        /* \"#utility.yul\":10204:10208   */\n      0xc0\n        /* \"#utility.yul\":10188:10209   */\n      tag_134\n      jump\t// in\n    tag_274:\n        /* \"#utility.yul\":10179:10209   */\n      swap1\n      pop\n        /* \"#utility.yul\":10271:10272   */\n      0x00\n        /* \"#utility.yul\":10311:10360   */\n      tag_275\n        /* \"#utility.yul\":10356:10359   */\n      dup5\n        /* \"#utility.yul\":10347:10353   */\n      dup3\n        /* \"#utility.yul\":10336:10345   */\n      dup6\n        /* \"#utility.yul\":10332:10354   */\n      add\n        /* \"#utility.yul\":10311:10360   */\n      tag_137\n      jump\t// in\n    tag_275:\n        /* \"#utility.yul\":10304:10308   */\n      0x00\n        /* \"#utility.yul\":10297:10302   */\n      dup4\n        /* \"#utility.yul\":10293:10309   */\n      add\n        /* \"#utility.yul\":10286:10361   */\n      mstore\n        /* \"#utility.yul\":10219:10372   */\n      pop\n        /* \"#utility.yul\":10464:10466   */\n      0x20\n        /* \"#utility.yul\":10453:10462   */\n      dup3\n        /* \"#utility.yul\":10449:10467   */\n      add\n        /* \"#utility.yul\":10436:10468   */\n      calldataload\n        /* \"#utility.yul\":10495:10513   */\n      0xffffffffffffffff\n        /* \"#utility.yul\":10487:10493   */\n      dup2\n        /* \"#utility.yul\":10484:10514   */\n      gt\n        /* \"#utility.yul\":10481:10598   */\n      iszero\n      tag_276\n      jumpi\n        /* \"#utility.yul\":10517:10596   */\n      tag_277\n      tag_135\n      jump\t// in\n    tag_277:\n        /* \"#utility.yul\":10481:10598   */\n    tag_276:\n        /* \"#utility.yul\":10637:10696   */\n      tag_278\n        /* \"#utility.yul\":10692:10695   */\n      dup5\n        /* \"#utility.yul\":10683:10689   */\n      dup3\n        /* \"#utility.yul\":10672:10681   */\n      dup6\n        /* \"#utility.yul\":10668:10690   */\n      add\n        /* \"#utility.yul\":10637:10696   */\n      tag_143\n      jump\t// in\n    tag_278:\n        /* \"#utility.yul\":10630:10634   */\n      0x20\n        /* \"#utility.yul\":10623:10628   */\n      dup4\n        /* \"#utility.yul\":10619:10635   */\n      add\n        /* \"#utility.yul\":10612:10697   */\n      mstore\n        /* \"#utility.yul\":10382:10708   */\n      pop\n        /* \"#utility.yul\":10799:10801   */\n      0x40\n        /* \"#utility.yul\":10788:10797   */\n      dup3\n        /* \"#utility.yul\":10784:10802   */\n      add\n        /* \"#utility.yul\":10771:10803   */\n      calldataload\n        /* \"#utility.yul\":10830:10848   */\n      0xffffffffffffffff\n        /* \"#utility.yul\":10822:10828   */\n      dup2\n        /* \"#utility.yul\":10819:10849   */\n      gt\n        /* \"#utility.yul\":10816:10933   */\n      iszero\n      tag_279\n      jumpi\n        /* \"#utility.yul\":10852:10931   */\n      tag_280\n      tag_135\n      jump\t// in\n    tag_280:\n        /* \"#utility.yul\":10816:10933   */\n    tag_279:\n        /* \"#utility.yul\":10972:11031   */\n      tag_281\n        /* \"#utility.yul\":11027:11030   */\n      dup5\n        /* \"#utility.yul\":11018:11024   */\n      dup3\n        /* \"#utility.yul\":11007:11016   */\n      dup6\n        /* \"#utility.yul\":11003:11025   */\n      add\n        /* \"#utility.yul\":10972:11031   */\n      tag_143\n      jump\t// in\n    tag_281:\n        /* \"#utility.yul\":10965:10969   */\n      0x40\n        /* \"#utility.yul\":10958:10963   */\n      dup4\n        /* \"#utility.yul\":10954:10970   */\n      add\n        /* \"#utility.yul\":10947:11032   */\n      mstore\n        /* \"#utility.yul\":10718:11043   */\n      pop\n        /* \"#utility.yul\":11133:11135   */\n      0x60\n        /* \"#utility.yul\":11122:11131   */\n      dup3\n        /* \"#utility.yul\":11118:11136   */\n      add\n        /* \"#utility.yul\":11105:11137   */\n      calldataload\n        /* \"#utility.yul\":11164:11182   */\n      0xffffffffffffffff\n        /* \"#utility.yul\":11156:11162   */\n      dup2\n        /* \"#utility.yul\":11153:11183   */\n      gt\n        /* \"#utility.yul\":11150:11267   */\n      iszero\n      tag_282\n      jumpi\n        /* \"#utility.yul\":11186:11265   */\n      tag_283\n      tag_135\n      jump\t// in\n    tag_283:\n        /* \"#utility.yul\":11150:11267   */\n    tag_282:\n        /* \"#utility.yul\":11306:11365   */\n      tag_284\n        /* \"#utility.yul\":11361:11364   */\n      dup5\n        /* \"#utility.yul\":11352:11358   */\n      dup3\n        /* \"#utility.yul\":11341:11350   */\n      dup6\n        /* \"#utility.yul\":11337:11359   */\n      add\n        /* \"#utility.yul\":11306:11365   */\n      tag_143\n      jump\t// in\n    tag_284:\n        /* \"#utility.yul\":11299:11303   */\n      0x60\n        /* \"#utility.yul\":11292:11297   */\n      dup4\n        /* \"#utility.yul\":11288:11304   */\n      add\n        /* \"#utility.yul\":11281:11366   */\n      mstore\n        /* \"#utility.yul\":11053:11377   */\n      pop\n        /* \"#utility.yul\":11440:11443   */\n      0x80\n        /* \"#utility.yul\":11482:11531   */\n      tag_285\n        /* \"#utility.yul\":11527:11530   */\n      dup5\n        /* \"#utility.yul\":11518:11524   */\n      dup3\n        /* \"#utility.yul\":11507:11516   */\n      dup6\n        /* \"#utility.yul\":11503:11525   */\n      add\n        /* \"#utility.yul\":11482:11531   */\n      tag_137\n      jump\t// in\n    tag_285:\n        /* \"#utility.yul\":11475:11479   */\n      0x80\n        /* \"#utility.yul\":11468:11473   */\n      dup4\n        /* \"#utility.yul\":11464:11480   */\n      add\n        /* \"#utility.yul\":11457:11532   */\n      mstore\n        /* \"#utility.yul\":11387:11543   */\n      pop\n        /* \"#utility.yul\":11610:11613   */\n      0xa0\n        /* \"#utility.yul\":11652:11698   */\n      tag_286\n        /* \"#utility.yul\":11694:11697   */\n      dup5\n        /* \"#utility.yul\":11685:11691   */\n      dup3\n        /* \"#utility.yul\":11674:11683   */\n      dup6\n        /* \"#utility.yul\":11670:11692   */\n      add\n        /* \"#utility.yul\":11652:11698   */\n      tag_145\n      jump\t// in\n    tag_286:\n        /* \"#utility.yul\":11645:11649   */\n      0xa0\n        /* \"#utility.yul\":11638:11643   */\n      dup4\n        /* \"#utility.yul\":11634:11650   */\n      add\n        /* \"#utility.yul\":11627:11699   */\n      mstore\n        /* \"#utility.yul\":11553:11710   */\n      pop\n        /* \"#utility.yul\":9961:11717   */\n      swap3\n      swap2\n      pop\n      pop\n      jump\t// out\n        /* \"#utility.yul\":11723:12266   */\n    tag_27:\n        /* \"#utility.yul\":11809:11815   */\n      0x00\n        /* \"#utility.yul\":11858:11860   */\n      0x20\n        /* \"#utility.yul\":11846:11855   */\n      dup3\n        /* \"#utility.yul\":11837:11844   */\n      dup5\n        /* \"#utility.yul\":11833:11856   */\n      sub\n        /* \"#utility.yul\":11829:11861   */\n      slt\n        /* \"#utility.yul\":11826:11945   */\n      iszero\n      tag_288\n      jumpi\n        /* \"#utility.yul\":11864:11943   */\n      tag_289\n      tag_108\n      jump\t// in\n    tag_289:\n        /* \"#utility.yul\":11826:11945   */\n    tag_288:\n        /* \"#utility.yul\":12012:12013   */\n      0x00\n        /* \"#utility.yul\":12001:12010   */\n      dup3\n        /* \"#utility.yul\":11997:12014   */\n      add\n        /* \"#utility.yul\":11984:12015   */\n      calldataload\n        /* \"#utility.yul\":12042:12060   */\n      0xffffffffffffffff\n        /* \"#utility.yul\":12034:12040   */\n      dup2\n        /* \"#utility.yul\":12031:12061   */\n      gt\n        /* \"#utility.yul\":12028:12145   */\n      iszero\n      tag_290\n      jumpi\n        /* \"#utility.yul\":12064:12143   */\n      tag_291\n      tag_109\n      jump\t// in\n    tag_291:\n        /* \"#utility.yul\":12028:12145   */\n    tag_290:\n        /* \"#utility.yul\":12169:12249   */\n      tag_292\n        /* \"#utility.yul\":12241:12248   */\n      dup5\n        /* \"#utility.yul\":12232:12238   */\n      dup3\n        /* \"#utility.yul\":12221:12230   */\n      dup6\n        /* \"#utility.yul\":12217:12239   */\n      add\n        /* \"#utility.yul\":12169:12249   */\n      tag_146\n      jump\t// in\n    tag_292:\n        /* \"#utility.yul\":12159:12249   */\n      swap2\n      pop\n        /* \"#utility.yul\":11955:12259   */\n      pop\n        /* \"#utility.yul\":11723:12266   */\n      swap3\n      swap2\n      pop\n      pop\n      jump\t// out\n        /* \"#utility.yul\":12272:12601   */\n    tag_31:\n        /* \"#utility.yul\":12331:12337   */\n      0x00\n        /* \"#utility.yul\":12380:12382   */\n      0x20\n        /* \"#utility.yul\":12368:12377   */\n      dup3\n        /* \"#utility.yul\":12359:12366   */\n      dup5\n        /* \"#utility.yul\":12355:12378   */\n      sub\n        /* \"#utility.yul\":12351:12383   */\n      slt\n        /* \"#utility.yul\":12348:12467   */\n      iszero\n      tag_294\n      jumpi\n        /* \"#utility.yul\":12386:12465   */\n      tag_295\n      tag_108\n      jump\t// in\n    tag_295:\n        /* \"#utility.yul\":12348:12467   */\n    tag_294:\n        /* \"#utility.yul\":12506:12507   */\n      0x00\n        /* \"#utility.yul\":12531:12584   */\n      tag_296\n        /* \"#utility.yul\":12576:12583   */\n      dup5\n        /* \"#utility.yul\":12567:12573   */\n      dup3\n        /* \"#utility.yul\":12556:12565   */\n      dup6\n        /* \"#utility.yul\":12552:12574   */\n      add\n        /* \"#utility.yul\":12531:12584   */\n      tag_137\n      jump\t// in\n    tag_296:\n        /* \"#utility.yul\":12521:12584   */\n      swap2\n      pop\n        /* \"#utility.yul\":12477:12594   */\n      pop\n        /* \"#utility.yul\":12272:12601   */\n      swap3\n      swap2\n      pop\n      pop\n      jump\t// out\n        /* \"#utility.yul\":12607:12776   */\n    tag_147:\n        /* \"#utility.yul\":12691:12702   */\n      0x00\n        /* \"#utility.yul\":12725:12731   */\n      dup3\n        /* \"#utility.yul\":12720:12723   */\n      dup3\n        /* \"#utility.yul\":12713:12732   */\n      mstore\n        /* \"#utility.yul\":12765:12769   */\n      0x20\n        /* \"#utility.yul\":12760:12763   */\n      dup3\n        /* \"#utility.yul\":12756:12770   */\n      add\n        /* \"#utility.yul\":12741:12770   */\n      swap1\n      pop\n        /* \"#utility.yul\":12607:12776   */\n      swap3\n      swap2\n      pop\n      pop\n      jump\t// out\n        /* \"#utility.yul\":12782:13016   */\n    tag_148:\n        /* \"#utility.yul\":12922:12956   */\n      0x45787069726174696f6e44617461626173653a207065726d697373696f6e2068\n        /* \"#utility.yul\":12918:12919   */\n      0x00\n        /* \"#utility.yul\":12910:12916   */\n      dup3\n        /* \"#utility.yul\":12906:12920   */\n      add\n        /* \"#utility.yul\":12899:12957   */\n      mstore\n        /* \"#utility.yul\":12991:13008   */\n      0x6173206265656e206772616e7465640000000000000000000000000000000000\n        /* \"#utility.yul\":12986:12988   */\n      0x20\n        /* \"#utility.yul\":12978:12984   */\n      dup3\n        /* \"#utility.yul\":12974:12989   */\n      add\n        /* \"#utility.yul\":12967:13009   */\n      mstore\n        /* \"#utility.yul\":12782:13016   */\n      pop\n      jump\t// out\n        /* \"#utility.yul\":13022:13388   */\n    tag_149:\n        /* \"#utility.yul\":13164:13167   */\n      0x00\n        /* \"#utility.yul\":13185:13252   */\n      tag_300\n        /* \"#utility.yul\":13249:13251   */\n      0x2f\n        /* \"#utility.yul\":13244:13247   */\n      dup4\n        /* \"#utility.yul\":13185:13252   */\n      tag_147\n      jump\t// in\n    tag_300:\n        /* \"#utility.yul\":13178:13252   */\n      swap2\n      pop\n        /* \"#utility.yul\":13261:13354   */\n      tag_301\n        /* \"#utility.yul\":13350:13353   */\n      dup3\n        /* \"#utility.yul\":13261:13354   */\n      tag_148\n      jump\t// in\n    tag_301:\n        /* \"#utility.yul\":13379:13381   */\n      0x40\n        /* \"#utility.yul\":13374:13377   */\n      dup3\n        /* \"#utility.yul\":13370:13382   */\n      add\n        /* \"#utility.yul\":13363:13382   */\n      swap1\n      pop\n        /* \"#utility.yul\":13022:13388   */\n      swap2\n      swap1\n      pop\n      jump\t// out\n        /* \"#utility.yul\":13394:13813   */\n    tag_42:\n        /* \"#utility.yul\":13560:13564   */\n      0x00\n        /* \"#utility.yul\":13598:13600   */\n      0x20\n        /* \"#utility.yul\":13587:13596   */\n      dup3\n        /* \"#utility.yul\":13583:13601   */\n      add\n        /* \"#utility.yul\":13575:13601   */\n      swap1\n      pop\n        /* \"#utility.yul\":13647:13656   */\n      dup2\n        /* \"#utility.yul\":13641:13645   */\n      dup2\n        /* \"#utility.yul\":13637:13657   */\n      sub\n        /* \"#utility.yul\":13633:13634   */\n      0x00\n        /* \"#utility.yul\":13622:13631   */\n      dup4\n        /* \"#utility.yul\":13618:13635   */\n      add\n        /* \"#utility.yul\":13611:13658   */\n      mstore\n        /* \"#utility.yul\":13675:13806   */\n      tag_303\n        /* \"#utility.yul\":13801:13805   */\n      dup2\n        /* \"#utility.yul\":13675:13806   */\n      tag_149\n      jump\t// in\n    tag_303:\n        /* \"#utility.yul\":13667:13806   */\n      swap1\n      pop\n        /* \"#utility.yul\":13394:13813   */\n      swap2\n      swap1\n      pop\n      jump\t// out\n        /* \"#utility.yul\":13819:14057   */\n    tag_150:\n        /* \"#utility.yul\":13959:13993   */\n      0x45787069726174696f6e44617461626173653a206f6e6c7920636f6e74726163\n        /* \"#utility.yul\":13955:13956   */\n      0x00\n        /* \"#utility.yul\":13947:13953   */\n      dup3\n        /* \"#utility.yul\":13943:13957   */\n      add\n        /* \"#utility.yul\":13936:13994   */\n      mstore\n        /* \"#utility.yul\":14028:14049   */\n      0x742077686963682061726520616c6c6f77656400000000000000000000000000\n        /* \"#utility.yul\":14023:14025   */\n      0x20\n        /* \"#utility.yul\":14015:14021   */\n      dup3\n        /* \"#utility.yul\":14011:14026   */\n      add\n        /* \"#utility.yul\":14004:14050   */\n      mstore\n        /* \"#utility.yul\":13819:14057   */\n      pop\n      jump\t// out\n        /* \"#utility.yul\":14063:14429   */\n    tag_151:\n        /* \"#utility.yul\":14205:14208   */\n      0x00\n        /* \"#utility.yul\":14226:14293   */\n      tag_306\n        /* \"#utility.yul\":14290:14292   */\n      0x33\n        /* \"#utility.yul\":14285:14288   */\n      dup4\n        /* \"#utility.yul\":14226:14293   */\n      tag_147\n      jump\t// in\n    tag_306:\n        /* \"#utility.yul\":14219:14293   */\n      swap2\n      pop\n        /* \"#utility.yul\":14302:14395   */\n      tag_307\n        /* \"#utility.yul\":14391:14394   */\n      dup3\n        /* \"#utility.yul\":14302:14395   */\n      tag_150\n      jump\t// in\n    tag_307:\n        /* \"#utility.yul\":14420:14422   */\n      0x40\n        /* \"#utility.yul\":14415:14418   */\n      dup3\n        /* \"#utility.yul\":14411:14423   */\n      add\n        /* \"#utility.yul\":14404:14423   */\n      swap1\n      pop\n        /* \"#utility.yul\":14063:14429   */\n      swap2\n      swap1\n      pop\n      jump\t// out\n        /* \"#utility.yul\":14435:14854   */\n    tag_52:\n        /* \"#utility.yul\":14601:14605   */\n      0x00\n        /* \"#utility.yul\":14639:14641   */\n      0x20\n        /* \"#utility.yul\":14628:14637   */\n      dup3\n        /* \"#utility.yul\":14624:14642   */\n      add\n        /* \"#utility.yul\":14616:14642   */\n      swap1\n      pop\n        /* \"#utility.yul\":14688:14697   */\n      dup2\n        /* \"#utility.yul\":14682:14686   */\n      dup2\n        /* \"#utility.yul\":14678:14698   */\n      sub\n        /* \"#utility.yul\":14674:14675   */\n      0x00\n        /* \"#utility.yul\":14663:14672   */\n      dup4\n        /* \"#utility.yul\":14659:14676   */\n      add\n        /* \"#utility.yul\":14652:14699   */\n      mstore\n        /* \"#utility.yul\":14716:14847   */\n      tag_309\n        /* \"#utility.yul\":14842:14846   */\n      dup2\n        /* \"#utility.yul\":14716:14847   */\n      tag_151\n      jump\t// in\n    tag_309:\n        /* \"#utility.yul\":14708:14847   */\n      swap1\n      pop\n        /* \"#utility.yul\":14435:14854   */\n      swap2\n      swap1\n      pop\n      jump\t// out\n        /* \"#utility.yul\":14860:15040   */\n    tag_152:\n        /* \"#utility.yul\":14908:14985   */\n      0x4e487b7100000000000000000000000000000000000000000000000000000000\n        /* \"#utility.yul\":14905:14906   */\n      0x00\n        /* \"#utility.yul\":14898:14986   */\n      mstore\n        /* \"#utility.yul\":15005:15009   */\n      0x22\n        /* \"#utility.yul\":15002:15003   */\n      0x04\n        /* \"#utility.yul\":14995:15010   */\n      mstore\n        /* \"#utility.yul\":15029:15033   */\n      0x24\n        /* \"#utility.yul\":15026:15027   */\n      0x00\n        /* \"#utility.yul\":15019:15034   */\n      revert\n        /* \"#utility.yul\":15046:15366   */\n    tag_58:\n        /* \"#utility.yul\":15090:15096   */\n      0x00\n        /* \"#utility.yul\":15127:15128   */\n      0x02\n        /* \"#utility.yul\":15121:15125   */\n      dup3\n        /* \"#utility.yul\":15117:15129   */\n      div\n        /* \"#utility.yul\":15107:15129   */\n      swap1\n      pop\n        /* \"#utility.yul\":15174:15175   */\n      0x01\n        /* \"#utility.yul\":15168:15172   */\n      dup3\n        /* \"#utility.yul\":15164:15176   */\n      and\n        /* \"#utility.yul\":15195:15213   */\n      dup1\n        /* \"#utility.yul\":15185:15266   */\n      tag_312\n      jumpi\n        /* \"#utility.yul\":15251:15255   */\n      0x7f\n        /* \"#utility.yul\":15243:15249   */\n      dup3\n        /* \"#utility.yul\":15239:15256   */\n      and\n        /* \"#utility.yul\":15229:15256   */\n      swap2\n      pop\n        /* \"#utility.yul\":15185:15266   */\n    tag_312:\n        /* \"#utility.yul\":15313:15315   */\n      0x20\n        /* \"#utility.yul\":15305:15311   */\n      dup3\n        /* \"#utility.yul\":15302:15316   */\n      lt\n        /* \"#utility.yul\":15282:15300   */\n      dup2\n        /* \"#utility.yul\":15279:15317   */\n      sub\n        /* \"#utility.yul\":15276:15360   */\n      tag_313\n      jumpi\n        /* \"#utility.yul\":15332:15350   */\n      tag_314\n      tag_152\n      jump\t// in\n    tag_314:\n        /* \"#utility.yul\":15276:15360   */\n    tag_313:\n        /* \"#utility.yul\":15097:15366   */\n      pop\n        /* \"#utility.yul\":15046:15366   */\n      swap2\n      swap1\n      pop\n      jump\t// out\n        /* \"#utility.yul\":15372:15513   */\n    tag_153:\n        /* \"#utility.yul\":15421:15425   */\n      0x00\n        /* \"#utility.yul\":15444:15447   */\n      dup2\n        /* \"#utility.yul\":15436:15447   */\n      swap1\n      pop\n        /* \"#utility.yul\":15467:15470   */\n      dup2\n        /* \"#utility.yul\":15464:15465   */\n      0x00\n        /* \"#utility.yul\":15457:15471   */\n      mstore\n        /* \"#utility.yul\":15501:15505   */\n      0x20\n        /* \"#utility.yul\":15498:15499   */\n      0x00\n        /* \"#utility.yul\":15488:15506   */\n      keccak256\n        /* \"#utility.yul\":15480:15506   */\n      swap1\n      pop\n        /* \"#utility.yul\":15372:15513   */\n      swap2\n      swap1\n      pop\n      jump\t// out\n        /* \"#utility.yul\":15519:15612   */\n    tag_154:\n        /* \"#utility.yul\":15556:15562   */\n      0x00\n        /* \"#utility.yul\":15603:15605   */\n      0x20\n        /* \"#utility.yul\":15598:15600   */\n      0x1f\n        /* \"#utility.yul\":15591:15596   */\n      dup4\n        /* \"#utility.yul\":15587:15601   */\n      add\n        /* \"#utility.yul\":15583:15606   */\n      div\n        /* \"#utility.yul\":15573:15606   */\n      swap1\n      pop\n        /* \"#utility.yul\":15519:15612   */\n      swap2\n      swap1\n      pop\n      jump\t// out\n        /* \"#utility.yul\":15618:15725   */\n    tag_155:\n        /* \"#utility.yul\":15662:15670   */\n      0x00\n        /* \"#utility.yul\":15712:15717   */\n      dup3\n        /* \"#utility.yul\":15706:15710   */\n      dup3\n        /* \"#utility.yul\":15702:15718   */\n      shl\n        /* \"#utility.yul\":15681:15718   */\n      swap1\n      pop\n        /* \"#utility.yul\":15618:15725   */\n      swap3\n      swap2\n      pop\n      pop\n      jump\t// out\n        /* \"#utility.yul\":15731:16124   */\n    tag_156:\n        /* \"#utility.yul\":15800:15806   */\n      0x00\n        /* \"#utility.yul\":15850:15851   */\n      0x08\n        /* \"#utility.yul\":15838:15848   */\n      dup4\n        /* \"#utility.yul\":15834:15852   */\n      mul\n        /* \"#utility.yul\":15873:15970   */\n      tag_319\n        /* \"#utility.yul\":15903:15969   */\n      0xffffffffffffffffffffffffffffffffffffffffffffffffffffffffffffffff\n        /* \"#utility.yul\":15892:15901   */\n      dup3\n        /* \"#utility.yul\":15873:15970   */\n      tag_155\n      jump\t// in\n    tag_319:\n        /* \"#utility.yul\":15991:16030   */\n      tag_320\n        /* \"#utility.yul\":16021:16029   */\n      dup7\n        /* \"#utility.yul\":16010:16019   */\n      dup4\n        /* \"#utility.yul\":15991:16030   */\n      tag_155\n      jump\t// in\n    tag_320:\n        /* \"#utility.yul\":15979:16030   */\n      swap6\n      pop\n        /* \"#utility.yul\":16063:16067   */\n      dup1\n        /* \"#utility.yul\":16059:16068   */\n      not\n        /* \"#utility.yul\":16052:16057   */\n      dup5\n        /* \"#utility.yul\":16048:16069   */\n      and\n        /* \"#utility.yul\":16039:16069   */\n      swap4\n      pop\n        /* \"#utility.yul\":16112:16116   */\n      dup1\n        /* \"#utility.yul\":16102:16110   */\n      dup7\n        /* \"#utility.yul\":16098:16117   */\n      and\n        /* \"#utility.yul\":16091:16096   */\n      dup5\n        /* \"#utility.yul\":16088:16118   */\n      or\n        /* \"#utility.yul\":16078:16118   */\n      swap3\n      pop\n        /* \"#utility.yul\":15807:16124   */\n      pop\n      pop\n        /* \"#utility.yul\":15731:16124   */\n      swap4\n      swap3\n      pop\n      pop\n      pop\n      jump\t// out\n        /* \"#utility.yul\":16130:16190   */\n    tag_157:\n        /* \"#utility.yul\":16158:16161   */\n      0x00\n        /* \"#utility.yul\":16179:16184   */\n      dup2\n        /* \"#utility.yul\":16172:16184   */\n      swap1\n      pop\n        /* \"#utility.yul\":16130:16190   */\n      swap2\n      swap1\n      pop\n      jump\t// out\n        /* \"#utility.yul\":16196:16338   */\n    tag_158:\n        /* \"#utility.yul\":16246:16255   */\n      0x00\n        /* \"#utility.yul\":16279:16332   */\n      tag_323\n        /* \"#utility.yul\":16297:16331   */\n      tag_324\n        /* \"#utility.yul\":16306:16330   */\n      tag_325\n        /* \"#utility.yul\":16324:16329   */\n      dup5\n        /* \"#utility.yul\":16306:16330   */\n      tag_118\n      jump\t// in\n    tag_325:\n        /* \"#utility.yul\":16297:16331   */\n      tag_157\n      jump\t// in\n    tag_324:\n        /* \"#utility.yul\":16279:16332   */\n      tag_118\n      jump\t// in\n    tag_323:\n        /* \"#utility.yul\":16266:16332   */\n      swap1\n      pop\n        /* \"#utility.yul\":16196:16338   */\n      swap2\n      swap1\n      pop\n      jump\t// out\n        /* \"#utility.yul\":16344:16419   */\n    tag_159:\n        /* \"#utility.yul\":16387:16390   */\n      0x00\n        /* \"#utility.yul\":16408:16413   */\n      dup2\n        /* \"#utility.yul\":16401:16413   */\n      swap1\n      pop\n        /* \"#utility.yul\":16344:16419   */\n      swap2\n      swap1\n      pop\n      jump\t// out\n        /* \"#utility.yul\":16425:16694   */\n    tag_160:\n        /* \"#utility.yul\":16535:16574   */\n      tag_328\n        /* \"#utility.yul\":16566:16573   */\n      dup4\n        /* \"#utility.yul\":16535:16574   */\n      tag_158\n      jump\t// in\n    tag_328:\n        /* \"#utility.yul\":16596:16687   */\n      tag_329\n        /* \"#utility.yul\":16645:16686   */\n      tag_330\n        /* \"#utility.yul\":16669:16685   */\n      dup3\n        /* \"#utility.yul\":16645:16686   */\n      tag_159\n      jump\t// in\n    tag_330:\n        /* \"#utility.yul\":16637:16643   */\n      dup5\n        /* \"#utility.yul\":16630:16634   */\n      dup5\n        /* \"#utility.yul\":16624:16635   */\n      sload\n        /* \"#utility.yul\":16596:16687   */\n      tag_156\n      jump\t// in\n    tag_329:\n        /* \"#utility.yul\":16590:16594   */\n      dup3\n        /* \"#utility.yul\":16583:16688   */\n      sstore\n        /* \"#utility.yul\":16501:16694   */\n      pop\n        /* \"#utility.yul\":16425:16694   */\n      pop\n      pop\n      pop\n      jump\t// out\n        /* \"#utility.yul\":16700:16773   */\n    tag_161:\n        /* \"#utility.yul\":16745:16748   */\n      0x00\n        /* \"#utility.yul\":16700:16773   */\n      swap1\n      jump\t// out\n        /* \"#utility.yul\":16779:16968   */\n    tag_162:\n        /* \"#utility.yul\":16856:16888   */\n      tag_333\n      tag_161\n      jump\t// in\n    tag_333:\n        /* \"#utility.yul\":16897:16962   */\n      tag_334\n        /* \"#utility.yul\":16955:16961   */\n      dup2\n        /* \"#utility.yul\":16947:16953   */\n      dup5\n        /* \"#utility.yul\":16941:16945   */\n      dup5\n        /* \"#utility.yul\":16897:16962   */\n      tag_160\n      jump\t// in\n    tag_334:\n        /* \"#utility.yul\":16832:16968   */\n      pop\n        /* \"#utility.yul\":16779:16968   */\n      pop\n      pop\n      jump\t// out\n        /* \"#utility.yul\":16974:17160   */\n    tag_163:\n        /* \"#utility.yul\":17034:17154   */\n    tag_336:\n        /* \"#utility.yul\":17051:17054   */\n      dup2\n        /* \"#utility.yul\":17044:17049   */\n      dup2\n        /* \"#utility.yul\":17041:17055   */\n      lt\n        /* \"#utility.yul\":17034:17154   */\n      iszero\n      tag_338\n      jumpi\n        /* \"#utility.yul\":17105:17144   */\n      tag_339\n        /* \"#utility.yul\":17142:17143   */\n      0x00\n        /* \"#utility.yul\":17135:17140   */\n      dup3\n        /* \"#utility.yul\":17105:17144   */\n      tag_162\n      jump\t// in\n    tag_339:\n        /* \"#utility.yul\":17078:17079   */\n      0x01\n        /* \"#utility.yul\":17071:17076   */\n      dup2\n        /* \"#utility.yul\":17067:17080   */\n      add\n        /* \"#utility.yul\":17058:17080   */\n      swap1\n      pop\n        /* \"#utility.yul\":17034:17154   */\n      jump(tag_336)\n    tag_338:\n        /* \"#utility.yul\":16974:17160   */\n      pop\n      pop\n      jump\t// out\n        /* \"#utility.yul\":17166:17709   */\n    tag_164:\n        /* \"#utility.yul\":17267:17269   */\n      0x1f\n        /* \"#utility.yul\":17262:17265   */\n      dup3\n        /* \"#utility.yul\":17259:17270   */\n      gt\n        /* \"#utility.yul\":17256:17702   */\n      iszero\n      tag_341\n      jumpi\n        /* \"#utility.yul\":17301:17339   */\n      tag_342\n        /* \"#utility.yul\":17333:17338   */\n      dup2\n        /* \"#utility.yul\":17301:17339   */\n      tag_153\n      jump\t// in\n    tag_342:\n        /* \"#utility.yul\":17385:17414   */\n      tag_343\n        /* \"#utility.yul\":17403:17413   */\n      dup5\n        /* \"#utility.yul\":17385:17414   */\n      tag_154\n      jump\t// in\n    tag_343:\n        /* \"#utility.yul\":17375:17383   */\n      dup2\n        /* \"#utility.yul\":17371:17415   */\n      add\n        /* \"#utility.yul\":17568:17570   */\n      0x20\n        /* \"#utility.yul\":17556:17566   */\n      dup6\n        /* \"#utility.yul\":17553:17571   */\n      lt\n        /* \"#utility.yul\":17550:17599   */\n      iszero\n      tag_344\n      jumpi\n        /* \"#utility.yul\":17589:17597   */\n      dup2\n        /* \"#utility.yul\":17574:17597   */\n      swap1\n      pop\n        /* \"#utility.yul\":17550:17599   */\n    tag_344:\n        /* \"#utility.yul\":17612:17692   */\n      tag_345\n        /* \"#utility.yul\":17668:17690   */\n      tag_346\n        /* \"#utility.yul\":17686:17689   */\n      dup6\n        /* \"#utility.yul\":17668:17690   */\n      tag_154\n      jump\t// in\n    tag_346:\n        /* \"#utility.yul\":17658:17666   */\n      dup4\n        /* \"#utility.yul\":17654:17691   */\n      add\n        /* \"#utility.yul\":17641:17652   */\n      dup3\n        /* \"#utility.yul\":17612:17692   */\n      tag_163\n      jump\t// in\n    tag_345:\n        /* \"#utility.yul\":17271:17702   */\n      pop\n      pop\n        /* \"#utility.yul\":17256:17702   */\n    tag_341:\n        /* \"#utility.yul\":17166:17709   */\n      pop\n      pop\n      pop\n      jump\t// out\n        /* \"#utility.yul\":17715:17832   */\n    tag_165:\n        /* \"#utility.yul\":17769:17777   */\n      0x00\n        /* \"#utility.yul\":17819:17824   */\n      dup3\n        /* \"#utility.yul\":17813:17817   */\n      dup3\n        /* \"#utility.yul\":17809:17825   */\n      shr\n        /* \"#utility.yul\":17788:17825   */\n      swap1\n      pop\n        /* \"#utility.yul\":17715:17832   */\n      swap3\n      swap2\n      pop\n      pop\n      jump\t// out\n        /* \"#utility.yul\":17838:18007   */\n    tag_166:\n        /* \"#utility.yul\":17882:17888   */\n      0x00\n        /* \"#utility.yul\":17915:17966   */\n      tag_349\n        /* \"#utility.yul\":17963:17964   */\n      0x00\n        /* \"#utility.yul\":17959:17965   */\n      not\n        /* \"#utility.yul\":17951:17956   */\n      dup5\n        /* \"#utility.yul\":17948:17949   */\n      0x08\n        /* \"#utility.yul\":17944:17957   */\n      mul\n        /* \"#utility.yul\":17915:17966   */\n      tag_165\n      jump\t// in\n    tag_349:\n        /* \"#utility.yul\":17911:17967   */\n      not\n        /* \"#utility.yul\":17996:18000   */\n      dup1\n        /* \"#utility.yul\":17990:17994   */\n      dup4\n        /* \"#utility.yul\":17986:18001   */\n      and\n        /* \"#utility.yul\":17976:18001   */\n      swap2\n      pop\n        /* \"#utility.yul\":17889:18007   */\n      pop\n        /* \"#utility.yul\":17838:18007   */\n      swap3\n      swap2\n      pop\n      pop\n      jump\t// out\n        /* \"#utility.yul\":18012:18307   */\n    tag_167:\n        /* \"#utility.yul\":18088:18092   */\n      0x00\n        /* \"#utility.yul\":18234:18263   */\n      tag_351\n        /* \"#utility.yul\":18259:18262   */\n      dup4\n        /* \"#utility.yul\":18253:18257   */\n      dup4\n        /* \"#utility.yul\":18234:18263   */\n      tag_166\n      jump\t// in\n    tag_351:\n        /* \"#utility.yul\":18226:18263   */\n      swap2\n      pop\n        /* \"#utility.yul\":18296:18299   */\n      dup3\n        /* \"#utility.yul\":18293:18294   */\n      0x02\n        /* \"#utility.yul\":18289:18300   */\n      mul\n        /* \"#utility.yul\":18283:18287   */\n      dup3\n        /* \"#utility.yul\":18280:18301   */\n      or\n        /* \"#utility.yul\":18272:18301   */\n      swap1\n      pop\n        /* \"#utility.yul\":18012:18307   */\n      swap3\n      swap2\n      pop\n      pop\n      jump\t// out\n        /* \"#utility.yul\":18312:19707   */\n    tag_80:\n        /* \"#utility.yul\":18429:18466   */\n      tag_353\n        /* \"#utility.yul\":18462:18465   */\n      dup3\n        /* \"#utility.yul\":18429:18466   */\n      tag_120\n      jump\t// in\n    tag_353:\n        /* \"#utility.yul\":18531:18549   */\n      0xffffffffffffffff\n        /* \"#utility.yul\":18523:18529   */\n      dup2\n        /* \"#utility.yul\":18520:18550   */\n      gt\n        /* \"#utility.yul\":18517:18573   */\n      iszero\n      tag_354\n      jumpi\n        /* \"#utility.yul\":18553:18571   */\n      tag_355\n      tag_132\n      jump\t// in\n    tag_355:\n        /* \"#utility.yul\":18517:18573   */\n    tag_354:\n        /* \"#utility.yul\":18597:18635   */\n      tag_356\n        /* \"#utility.yul\":18629:18633   */\n      dup3\n        /* \"#utility.yul\":18623:18634   */\n      sload\n        /* \"#utility.yul\":18597:18635   */\n      tag_58\n      jump\t// in\n    tag_356:\n        /* \"#utility.yul\":18682:18749   */\n      tag_357\n        /* \"#utility.yul\":18742:18748   */\n      dup3\n        /* \"#utility.yul\":18734:18740   */\n      dup3\n        /* \"#utility.yul\":18728:18732   */\n      dup6\n        /* \"#utility.yul\":18682:18749   */\n      tag_164\n      jump\t// in\n    tag_357:\n        /* \"#utility.yul\":18776:18777   */\n      0x00\n        /* \"#utility.yul\":18800:18804   */\n      0x20\n        /* \"#utility.yul\":18787:18804   */\n      swap1\n      pop\n        /* \"#utility.yul\":18832:18834   */\n      0x1f\n        /* \"#utility.yul\":18824:18830   */\n      dup4\n        /* \"#utility.yul\":18821:18835   */\n      gt\n        /* \"#utility.yul\":18849:18850   */\n      0x01\n        /* \"#utility.yul\":18844:19462   */\n      dup2\n      eq\n      tag_359\n      jumpi\n        /* \"#utility.yul\":19506:19507   */\n      0x00\n        /* \"#utility.yul\":19523:19529   */\n      dup5\n        /* \"#utility.yul\":19520:19597   */\n      iszero\n      tag_360\n      jumpi\n        /* \"#utility.yul\":19572:19581   */\n      dup3\n        /* \"#utility.yul\":19567:19570   */\n      dup8\n        /* \"#utility.yul\":19563:19582   */\n      add\n        /* \"#utility.yul\":19557:19583   */\n      mload\n        /* \"#utility.yul\":19548:19583   */\n      swap1\n      pop\n        /* \"#utility.yul\":19520:19597   */\n    tag_360:\n        /* \"#utility.yul\":19623:19690   */\n      tag_361\n        /* \"#utility.yul\":19683:19689   */\n      dup6\n        /* \"#utility.yul\":19676:19681   */\n      dup3\n        /* \"#utility.yul\":19623:19690   */\n      tag_167\n      jump\t// in\n    tag_361:\n        /* \"#utility.yul\":19617:19621   */\n      dup7\n        /* \"#utility.yul\":19610:19691   */\n      sstore\n        /* \"#utility.yul\":19479:19701   */\n      pop\n        /* \"#utility.yul\":18814:19701   */\n      jump(tag_358)\n        /* \"#utility.yul\":18844:19462   */\n    tag_359:\n        /* \"#utility.yul\":18896:18900   */\n      0x1f\n        /* \"#utility.yul\":18892:18901   */\n      not\n        /* \"#utility.yul\":18884:18890   */\n      dup5\n        /* \"#utility.yul\":18880:18902   */\n      and\n        /* \"#utility.yul\":18930:18967   */\n      tag_362\n        /* \"#utility.yul\":18962:18966   */\n      dup7\n        /* \"#utility.yul\":18930:18967   */\n      tag_153\n      jump\t// in\n    tag_362:\n        /* \"#utility.yul\":18989:18990   */\n      0x00\n        /* \"#utility.yul\":19003:19211   */\n    tag_363:\n        /* \"#utility.yul\":19017:19024   */\n      dup3\n        /* \"#utility.yul\":19014:19015   */\n      dup2\n        /* \"#utility.yul\":19011:19025   */\n      lt\n        /* \"#utility.yul\":19003:19211   */\n      iszero\n      tag_365\n      jumpi\n        /* \"#utility.yul\":19096:19105   */\n      dup5\n        /* \"#utility.yul\":19091:19094   */\n      dup10\n        /* \"#utility.yul\":19087:19106   */\n      add\n        /* \"#utility.yul\":19081:19107   */\n      mload\n        /* \"#utility.yul\":19073:19079   */\n      dup3\n        /* \"#utility.yul\":19066:19108   */\n      sstore\n        /* \"#utility.yul\":19147:19148   */\n      0x01\n        /* \"#utility.yul\":19139:19145   */\n      dup3\n        /* \"#utility.yul\":19135:19149   */\n      add\n        /* \"#utility.yul\":19125:19149   */\n      swap2\n      pop\n        /* \"#utility.yul\":19194:19196   */\n      0x20\n        /* \"#utility.yul\":19183:19192   */\n      dup6\n        /* \"#utility.yul\":19179:19197   */\n      add\n        /* \"#utility.yul\":19166:19197   */\n      swap5\n      pop\n        /* \"#utility.yul\":19040:19044   */\n      0x20\n        /* \"#utility.yul\":19037:19038   */\n      dup2\n        /* \"#utility.yul\":19033:19045   */\n      add\n        /* \"#utility.yul\":19028:19045   */\n      swap1\n      pop\n        /* \"#utility.yul\":19003:19211   */\n      jump(tag_363)\n    tag_365:\n        /* \"#utility.yul\":19239:19245   */\n      dup7\n        /* \"#utility.yul\":19230:19237   */\n      dup4\n        /* \"#utility.yul\":19227:19246   */\n      lt\n        /* \"#utility.yul\":19224:19403   */\n      iszero\n      tag_366\n      jumpi\n        /* \"#utility.yul\":19297:19306   */\n      dup5\n        /* \"#utility.yul\":19292:19295   */\n      dup10\n        /* \"#utility.yul\":19288:19307   */\n      add\n        /* \"#utility.yul\":19282:19308   */\n      mload\n        /* \"#utility.yul\":19340:19388   */\n      tag_367\n        /* \"#utility.yul\":19382:19386   */\n      0x1f\n        /* \"#utility.yul\":19374:19380   */\n      dup10\n        /* \"#utility.yul\":19370:19387   */\n      and\n        /* \"#utility.yul\":19359:19368   */\n      dup3\n        /* \"#utility.yul\":19340:19388   */\n      tag_166\n      jump\t// in\n    tag_367:\n        /* \"#utility.yul\":19332:19338   */\n      dup4\n        /* \"#utility.yul\":19325:19389   */\n      sstore\n        /* \"#utility.yul\":19247:19403   */\n      pop\n        /* \"#utility.yul\":19224:19403   */\n    tag_366:\n        /* \"#utility.yul\":19449:19450   */\n      0x01\n        /* \"#utility.yul\":19445:19446   */\n      0x02\n        /* \"#utility.yul\":19437:19443   */\n      dup9\n        /* \"#utility.yul\":19433:19447   */\n      mul\n        /* \"#utility.yul\":19429:19451   */\n      add\n        /* \"#utility.yul\":19423:19427   */\n      dup9\n        /* \"#utility.yul\":19416:19452   */\n      sstore\n        /* \"#utility.yul\":18851:19462   */\n      pop\n      pop\n      pop\n        /* \"#utility.yul\":18814:19701   */\n    tag_358:\n      pop\n        /* \"#utility.yul\":18404:19707   */\n      pop\n      pop\n      pop\n        /* \"#utility.yul\":18312:19707   */\n      pop\n      pop\n      jump\t// out\n        /* \"#utility.yul\":19713:19893   */\n    tag_90:\n        /* \"#utility.yul\":19761:19838   */\n      0x4e487b7100000000000000000000000000000000000000000000000000000000\n        /* \"#utility.yul\":19758:19759   */\n      0x00\n        /* \"#utility.yul\":19751:19839   */\n      mstore\n        /* \"#utility.yul\":19858:19862   */\n      0x32\n        /* \"#utility.yul\":19855:19856   */\n      0x04\n        /* \"#utility.yul\":19848:19863   */\n      mstore\n        /* \"#utility.yul\":19882:19886   */\n      0x24\n        /* \"#utility.yul\":19879:19880   */\n      0x00\n        /* \"#utility.yul\":19872:19887   */\n      revert\n        /* \"#utility.yul\":19899:20124   */\n    tag_168:\n        /* \"#utility.yul\":20039:20073   */\n      0x4f776e61626c653a206e6577206f776e657220697320746865207a65726f2061\n        /* \"#utility.yul\":20035:20036   */\n      0x00\n        /* \"#utility.yul\":20027:20033   */\n      dup3\n        /* \"#utility.yul\":20023:20037   */\n      add\n        /* \"#utility.yul\":20016:20074   */\n      mstore\n        /* \"#utility.yul\":20108:20116   */\n      0x6464726573730000000000000000000000000000000000000000000000000000\n        /* \"#utility.yul\":20103:20105   */\n      0x20\n        /* \"#utility.yul\":20095:20101   */\n      dup3\n        /* \"#utility.yul\":20091:20106   */\n      add\n        /* \"#utility.yul\":20084:20117   */\n      mstore\n        /* \"#utility.yul\":19899:20124   */\n      pop\n      jump\t// out\n        /* \"#utility.yul\":20130:20496   */\n    tag_169:\n        /* \"#utility.yul\":20272:20275   */\n      0x00\n        /* \"#utility.yul\":20293:20360   */\n      tag_371\n        /* \"#utility.yul\":20357:20359   */\n      0x26\n        /* \"#utility.yul\":20352:20355   */\n      dup4\n        /* \"#utility.yul\":20293:20360   */\n      tag_147\n      jump\t// in\n    tag_371:\n        /* \"#utility.yul\":20286:20360   */\n      swap2\n      pop\n        /* \"#utility.yul\":20369:20462   */\n      tag_372\n        /* \"#utility.yul\":20458:20461   */\n      dup3\n        /* \"#utility.yul\":20369:20462   */\n      tag_168\n      jump\t// in\n    tag_372:\n        /* \"#utility.yul\":20487:20489   */\n      0x40\n        /* \"#utility.yul\":20482:20485   */\n      dup3\n        /* \"#utility.yul\":20478:20490   */\n      add\n        /* \"#utility.yul\":20471:20490   */\n      swap1\n      pop\n        /* \"#utility.yul\":20130:20496   */\n      swap2\n      swap1\n      pop\n      jump\t// out\n        /* \"#utility.yul\":20502:20921   */\n    tag_97:\n        /* \"#utility.yul\":20668:20672   */\n      0x00\n        /* \"#utility.yul\":20706:20708   */\n      0x20\n        /* \"#utility.yul\":20695:20704   */\n      dup3\n        /* \"#utility.yul\":20691:20709   */\n      add\n        /* \"#utility.yul\":20683:20709   */\n      swap1\n      pop\n        /* \"#utility.yul\":20755:20764   */\n      dup2\n        /* \"#utility.yul\":20749:20753   */\n      dup2\n        /* \"#utility.yul\":20745:20765   */\n      sub\n        /* \"#utility.yul\":20741:20742   */\n      0x00\n        /* \"#utility.yul\":20730:20739   */\n      dup4\n        /* \"#utility.yul\":20726:20743   */\n      add\n        /* \"#utility.yul\":20719:20766   */\n      mstore\n        /* \"#utility.yul\":20783:20914   */\n      tag_374\n        /* \"#utility.yul\":20909:20913   */\n      dup2\n        /* \"#utility.yul\":20783:20914   */\n      tag_169\n      jump\t// in\n    tag_374:\n        /* \"#utility.yul\":20775:20914   */\n      swap1\n      pop\n        /* \"#utility.yul\":20502:20921   */\n      swap2\n      swap1\n      pop\n      jump\t// out\n        /* \"#utility.yul\":20927:21109   */\n    tag_170:\n        /* \"#utility.yul\":21067:21101   */\n      0x4f776e61626c653a2063616c6c6572206973206e6f7420746865206f776e6572\n        /* \"#utility.yul\":21063:21064   */\n      0x00\n        /* \"#utility.yul\":21055:21061   */\n      dup3\n        /* \"#utility.yul\":21051:21065   */\n      add\n        /* \"#utility.yul\":21044:21102   */\n      mstore\n        /* \"#utility.yul\":20927:21109   */\n      pop\n      jump\t// out\n        /* \"#utility.yul\":21115:21481   */\n    tag_171:\n        /* \"#utility.yul\":21257:21260   */\n      0x00\n        /* \"#utility.yul\":21278:21345   */\n      tag_377\n        /* \"#utility.yul\":21342:21344   */\n      0x20\n        /* \"#utility.yul\":21337:21340   */\n      dup4\n        /* \"#utility.yul\":21278:21345   */\n      tag_147\n      jump\t// in\n    tag_377:\n        /* \"#utility.yul\":21271:21345   */\n      swap2\n      pop\n        /* \"#utility.yul\":21354:21447   */\n      tag_378\n        /* \"#utility.yul\":21443:21446   */\n      dup3\n        /* \"#utility.yul\":21354:21447   */\n      tag_170\n      jump\t// in\n    tag_378:\n        /* \"#utility.yul\":21472:21474   */\n      0x20\n        /* \"#utility.yul\":21467:21470   */\n      dup3\n        /* \"#utility.yul\":21463:21475   */\n      add\n        /* \"#utility.yul\":21456:21475   */\n      swap1\n      pop\n        /* \"#utility.yul\":21115:21481   */\n      swap2\n      swap1\n      pop\n      jump\t// out\n        /* \"#utility.yul\":21487:21906   */\n    tag_104:\n        /* \"#utility.yul\":21653:21657   */\n      0x00\n        /* \"#utility.yul\":21691:21693   */\n      0x20\n        /* \"#utility.yul\":21680:21689   */\n      dup3\n        /* \"#utility.yul\":21676:21694   */\n      add\n        /* \"#utility.yul\":21668:21694   */\n      swap1\n      pop\n        /* \"#utility.yul\":21740:21749   */\n      dup2\n        /* \"#utility.yul\":21734:21738   */\n      dup2\n        /* \"#utility.yul\":21730:21750   */\n      sub\n        /* \"#utility.yul\":21726:21727   */\n      0x00\n        /* \"#utility.yul\":21715:21724   */\n      dup4\n        /* \"#utility.yul\":21711:21728   */\n      add\n        /* \"#utility.yul\":21704:21751   */\n      mstore\n        /* \"#utility.yul\":21768:21899   */\n      tag_380\n        /* \"#utility.yul\":21894:21898   */\n      dup2\n        /* \"#utility.yul\":21768:21899   */\n      tag_171\n      jump\t// in\n    tag_380:\n        /* \"#utility.yul\":21760:21899   */\n      swap1\n      pop\n        /* \"#utility.yul\":21487:21906   */\n      swap2\n      swap1\n      pop\n      jump\t// out\n\n    auxdata: 0xa2646970667358221220f821a13d9d6d3e706b4772d6675f0820d1c6f3cc38383409b4224012100e064164736f6c63430008120033\n}\n",
				"bytecode": {
					"linkReferences": {},
					"object": "608060405234801561001057600080fd5b50336000806101000a81548173ffffffffffffffffffffffffffffffffffffffff021916908373ffffffffffffffffffffffffffffffffffffffff16021790555061149b806100606000396000f3fe608060405234801561001057600080fd5b506004361061007d5760003560e01c806398c50aad1161005b57806398c50aad146100c6578063a4947330146100e4578063ee416d5b14610100578063f2fde38b1461011c5761007d565b80634d0a5dbd1461008257806383197ef01461009e5780638da5cb5b146100a8575b600080fd5b61009c6004803603810190610097919061098e565b610138565b005b6100a6610228565b005b6100b0610249565b6040516100bd91906109ca565b60405180910390f35b6100ce610272565b6040516100db9190610c02565b60405180910390f35b6100fe60048036038101906100f99190610eaf565b610549565b005b61011a60048036038101906101159190610ef8565b610683565b005b6101366004803603810190610131919061098e565b610756565b005b6101406107d9565b600260008273ffffffffffffffffffffffffffffffffffffffff1673ffffffffffffffffffffffffffffffffffffffff16815260200190815260200160002060009054906101000a900460ff16156101cd576040517f08c379a00000000000000000000000000000000000000000000000000000000081526004016101c490610fa8565b60405180910390fd5b6001600260008373ffffffffffffffffffffffffffffffffffffffff1673ffffffffffffffffffffffffffffffffffffffff16815260200190815260200160002060006101000a81548160ff02191690831515021790555050565b6102306107d9565b3073ffffffffffffffffffffffffffffffffffffffff16ff5b60008060009054906101000a900473ffffffffffffffffffffffffffffffffffffffff16905090565b606060026000610280610850565b73ffffffffffffffffffffffffffffffffffffffff1673ffffffffffffffffffffffffffffffffffffffff16815260200190815260200160002060009054906101000a900460ff16610307576040517f08c379a00000000000000000000000000000000000000000000000000000000081526004016102fe9061103a565b60405180910390fd5b6001805480602002602001604051908101604052809291908181526020016000905b8282101561054057838290600052602060002090600602016040518060c00160405290816000820154815260200160018201805461036690611089565b80601f016020809104026020016040519081016040528092919081815260200182805461039290611089565b80156103df5780601f106103b4576101008083540402835291602001916103df565b820191906000526020600020905b8154815290600101906020018083116103c257829003601f168201915b505050505081526020016002820180546103f890611089565b80601f016020809104026020016040519081016040528092919081815260200182805461042490611089565b80156104715780601f1061044657610100808354040283529160200191610471565b820191906000526020600020905b81548152906001019060200180831161045457829003601f168201915b5050505050815260200160038201805461048a90611089565b80601f01602080910402602001604051908101604052809291908181526020018280546104b690611089565b80156105035780601f106104d857610100808354040283529160200191610503565b820191906000526020600020905b8154815290600101906020018083116104e657829003601f168201915b50505050508152602001600482015481526020016005820160009054906101000a900460ff16151515158152505081526020019060010190610329565b50505050905090565b60026000610555610850565b73ffffffffffffffffffffffffffffffffffffffff1673ffffffffffffffffffffffffffffffffffffffff16815260200190815260200160002060009054906101000a900460ff166105dc576040517f08c379a00000000000000000000000000000000000000000000000000000000081526004016105d39061103a565b60405180910390fd5b60018190806001815401808255809150506001900390600052602060002090600602016000909190919091506000820151816000015560208201518160010190816106279190611266565b50604082015181600201908161063d9190611266565b5060608201518160030190816106539190611266565b506080820151816004015560a08201518160050160006101000a81548160ff021916908315150217905550505050565b6002600061068f610850565b73ffffffffffffffffffffffffffffffffffffffff1673ffffffffffffffffffffffffffffffffffffffff16815260200190815260200160002060009054906101000a900460ff16610716576040517f08c379a000000000000000000000000000000000000000000000000000000000815260040161070d9061103a565b60405180910390fd5b600180828154811061072b5761072a611338565b5b906000526020600020906006020160050160006101000a81548160ff02191690831515021790555050565b61075e6107d9565b600073ffffffffffffffffffffffffffffffffffffffff168173ffffffffffffffffffffffffffffffffffffffff16036107cd576040517f08c379a00000000000000000000000000000000000000000000000000000000081526004016107c4906113d9565b60405180910390fd5b6107d681610858565b50565b3373ffffffffffffffffffffffffffffffffffffffff166107f8610249565b73ffffffffffffffffffffffffffffffffffffffff161461084e576040517f08c379a000000000000000000000000000000000000000000000000000000000815260040161084590611445565b60405180910390fd5b565b600033905090565b60008060009054906101000a900473ffffffffffffffffffffffffffffffffffffffff169050816000806101000a81548173ffffffffffffffffffffffffffffffffffffffff021916908373ffffffffffffffffffffffffffffffffffffffff1602179055508173ffffffffffffffffffffffffffffffffffffffff168173ffffffffffffffffffffffffffffffffffffffff167f8be0079c531659141344cd1fd0a4f28419497f9722a3daafe3b4186f6b6457e060405160405180910390a35050565b6000604051905090565b600080fd5b600080fd5b600073ffffffffffffffffffffffffffffffffffffffff82169050919050565b600061095b82610930565b9050919050565b61096b81610950565b811461097657600080fd5b50565b60008135905061098881610962565b92915050565b6000602082840312156109a4576109a3610926565b5b60006109b284828501610979565b91505092915050565b6109c481610950565b82525050565b60006020820190506109df60008301846109bb565b92915050565b600081519050919050565b600082825260208201905092915050565b6000819050602082019050919050565b6000819050919050565b610a2481610a11565b82525050565b600081519050919050565b600082825260208201905092915050565b60005b83811015610a64578082015181840152602081019050610a49565b60008484015250505050565b6000601f19601f8301169050919050565b6000610a8c82610a2a565b610a968185610a35565b9350610aa6818560208601610a46565b610aaf81610a70565b840191505092915050565b60008115159050919050565b610acf81610aba565b82525050565b600060c083016000830151610aed6000860182610a1b565b5060208301518482036020860152610b058282610a81565b91505060408301518482036040860152610b1f8282610a81565b91505060608301518482036060860152610b398282610a81565b9150506080830151610b4e6080860182610a1b565b5060a0830151610b6160a0860182610ac6565b508091505092915050565b6000610b788383610ad5565b905092915050565b6000602082019050919050565b6000610b98826109e5565b610ba281856109f0565b935083602082028501610bb485610a01565b8060005b85811015610bf05784840389528151610bd18582610b6c565b9450610bdc83610b80565b925060208a01995050600181019050610bb8565b50829750879550505050505092915050565b60006020820190508181036000830152610c1c8184610b8d565b905092915050565b600080fd5b7f4e487b7100000000000000000000000000000000000000000000000000000000600052604160045260246000fd5b610c6182610a70565b810181811067ffffffffffffffff82111715610c8057610c7f610c29565b5b80604052505050565b6000610c9361091c565b9050610c9f8282610c58565b919050565b600080fd5b610cb281610a11565b8114610cbd57600080fd5b50565b600081359050610ccf81610ca9565b92915050565b600080fd5b600080fd5b600067ffffffffffffffff821115610cfa57610cf9610c29565b5b610d0382610a70565b9050602081019050919050565b82818337600083830152505050565b6000610d32610d2d84610cdf565b610c89565b905082815260208101848484011115610d4e57610d4d610cda565b5b610d59848285610d10565b509392505050565b600082601f830112610d7657610d75610cd5565b5b8135610d86848260208601610d1f565b91505092915050565b610d9881610aba565b8114610da357600080fd5b50565b600081359050610db581610d8f565b92915050565b600060c08284031215610dd157610dd0610c24565b5b610ddb60c0610c89565b90506000610deb84828501610cc0565b600083015250602082013567ffffffffffffffff811115610e0f57610e0e610ca4565b5b610e1b84828501610d61565b602083015250604082013567ffffffffffffffff811115610e3f57610e3e610ca4565b5b610e4b84828501610d61565b604083015250606082013567ffffffffffffffff811115610e6f57610e6e610ca4565b5b610e7b84828501610d61565b6060830152506080610e8f84828501610cc0565b60808301525060a0610ea384828501610da6565b60a08301525092915050565b600060208284031215610ec557610ec4610926565b5b600082013567ffffffffffffffff811115610ee357610ee261092b565b5b610eef84828501610dbb565b91505092915050565b600060208284031215610f0e57610f0d610926565b5b6000610f1c84828501610cc0565b91505092915050565b600082825260208201905092915050565b7f45787069726174696f6e44617461626173653a207065726d697373696f6e206860008201527f6173206265656e206772616e7465640000000000000000000000000000000000602082015250565b6000610f92602f83610f25565b9150610f9d82610f36565b604082019050919050565b60006020820190508181036000830152610fc181610f85565b9050919050565b7f45787069726174696f6e44617461626173653a206f6e6c7920636f6e7472616360008201527f742077686963682061726520616c6c6f77656400000000000000000000000000602082015250565b6000611024603383610f25565b915061102f82610fc8565b604082019050919050565b6000602082019050818103600083015261105381611017565b9050919050565b7f4e487b7100000000000000000000000000000000000000000000000000000000600052602260045260246000fd5b600060028204905060018216806110a157607f821691505b6020821081036110b4576110b361105a565b5b50919050565b60008190508160005260206000209050919050565b60006020601f8301049050919050565b600082821b905092915050565b60006008830261111c7fffffffffffffffffffffffffffffffffffffffffffffffffffffffffffffffff826110df565b61112686836110df565b95508019841693508086168417925050509392505050565b6000819050919050565b600061116361115e61115984610a11565b61113e565b610a11565b9050919050565b6000819050919050565b61117d83611148565b6111916111898261116a565b8484546110ec565b825550505050565b600090565b6111a6611199565b6111b1818484611174565b505050565b5b818110156111d5576111ca60008261119e565b6001810190506111b7565b5050565b601f82111561121a576111eb816110ba565b6111f4846110cf565b81016020851015611203578190505b61121761120f856110cf565b8301826111b6565b50505b505050565b600082821c905092915050565b600061123d6000198460080261121f565b1980831691505092915050565b6000611256838361122c565b9150826002028217905092915050565b61126f82610a2a565b67ffffffffffffffff81111561128857611287610c29565b5b6112928254611089565b61129d8282856111d9565b600060209050601f8311600181146112d057600084156112be578287015190505b6112c8858261124a565b865550611330565b601f1984166112de866110ba565b60005b82811015611306578489015182556001820191506020850194506020810190506112e1565b86831015611323578489015161131f601f89168261122c565b8355505b6001600288020188555050505b505050505050565b7f4e487b7100000000000000000000000000000000000000000000000000000000600052603260045260246000fd5b7f4f776e61626c653a206e6577206f776e657220697320746865207a65726f206160008201527f6464726573730000000000000000000000000000000000000000000000000000602082015250565b60006113c3602683610f25565b91506113ce82611367565b604082019050919050565b600060208201905081810360008301526113f2816113b6565b9050919050565b7f4f776e61626c653a2063616c6c6572206973206e6f7420746865206f776e6572600082015250565b600061142f602083610f25565b915061143a826113f9565b602082019050919050565b6000602082019050818103600083015261145e81611422565b905091905056fea2646970667358221220f821a13d9d6d3e706b4772d6675f0820d1c6f3cc38383409b4224012100e064164736f6c63430008120033",
					"opcodes": "PUSH1 0x80 PUSH1 0x40 MSTORE CALLVALUE DUP1 ISZERO PUSH2 0x10 JUMPI PUSH1 0x0 DUP1 REVERT JUMPDEST POP CALLER PUSH1 0x0 DUP1 PUSH2 0x100 EXP DUP2 SLOAD DUP2 PUSH20 0xFFFFFFFFFFFFFFFFFFFFFFFFFFFFFFFFFFFFFFFF MUL NOT AND SWAP1 DUP4 PUSH20 0xFFFFFFFFFFFFFFFFFFFFFFFFFFFFFFFFFFFFFFFF AND MUL OR SWAP1 SSTORE POP PUSH2 0x149B DUP1 PUSH2 0x60 PUSH1 0x0 CODECOPY PUSH1 0x0 RETURN INVALID PUSH1 0x80 PUSH1 0x40 MSTORE CALLVALUE DUP1 ISZERO PUSH2 0x10 JUMPI PUSH1 0x0 DUP1 REVERT JUMPDEST POP PUSH1 0x4 CALLDATASIZE LT PUSH2 0x7D JUMPI PUSH1 0x0 CALLDATALOAD PUSH1 0xE0 SHR DUP1 PUSH4 0x98C50AAD GT PUSH2 0x5B JUMPI DUP1 PUSH4 0x98C50AAD EQ PUSH2 0xC6 JUMPI DUP1 PUSH4 0xA4947330 EQ PUSH2 0xE4 JUMPI DUP1 PUSH4 0xEE416D5B EQ PUSH2 0x100 JUMPI DUP1 PUSH4 0xF2FDE38B EQ PUSH2 0x11C JUMPI PUSH2 0x7D JUMP JUMPDEST DUP1 PUSH4 0x4D0A5DBD EQ PUSH2 0x82 JUMPI DUP1 PUSH4 0x83197EF0 EQ PUSH2 0x9E JUMPI DUP1 PUSH4 0x8DA5CB5B EQ PUSH2 0xA8 JUMPI JUMPDEST PUSH1 0x0 DUP1 REVERT JUMPDEST PUSH2 0x9C PUSH1 0x4 DUP1 CALLDATASIZE SUB DUP2 ADD SWAP1 PUSH2 0x97 SWAP2 SWAP1 PUSH2 0x98E JUMP JUMPDEST PUSH2 0x138 JUMP JUMPDEST STOP JUMPDEST PUSH2 0xA6 PUSH2 0x228 JUMP JUMPDEST STOP JUMPDEST PUSH2 0xB0 PUSH2 0x249 JUMP JUMPDEST PUSH1 0x40 MLOAD PUSH2 0xBD SWAP2 SWAP1 PUSH2 0x9CA JUMP JUMPDEST PUSH1 0x40 MLOAD DUP1 SWAP2 SUB SWAP1 RETURN JUMPDEST PUSH2 0xCE PUSH2 0x272 JUMP JUMPDEST PUSH1 0x40 MLOAD PUSH2 0xDB SWAP2 SWAP1 PUSH2 0xC02 JUMP JUMPDEST PUSH1 0x40 MLOAD DUP1 SWAP2 SUB SWAP1 RETURN JUMPDEST PUSH2 0xFE PUSH1 0x4 DUP1 CALLDATASIZE SUB DUP2 ADD SWAP1 PUSH2 0xF9 SWAP2 SWAP1 PUSH2 0xEAF JUMP JUMPDEST PUSH2 0x549 JUMP JUMPDEST STOP JUMPDEST PUSH2 0x11A PUSH1 0x4 DUP1 CALLDATASIZE SUB DUP2 ADD SWAP1 PUSH2 0x115 SWAP2 SWAP1 PUSH2 0xEF8 JUMP JUMPDEST PUSH2 0x683 JUMP JUMPDEST STOP JUMPDEST PUSH2 0x136 PUSH1 0x4 DUP1 CALLDATASIZE SUB DUP2 ADD SWAP1 PUSH2 0x131 SWAP2 SWAP1 PUSH2 0x98E JUMP JUMPDEST PUSH2 0x756 JUMP JUMPDEST STOP JUMPDEST PUSH2 0x140 PUSH2 0x7D9 JUMP JUMPDEST PUSH1 0x2 PUSH1 0x0 DUP3 PUSH20 0xFFFFFFFFFFFFFFFFFFFFFFFFFFFFFFFFFFFFFFFF AND PUSH20 0xFFFFFFFFFFFFFFFFFFFFFFFFFFFFFFFFFFFFFFFF AND DUP2 MSTORE PUSH1 0x20 ADD SWAP1 DUP2 MSTORE PUSH1 0x20 ADD PUSH1 0x0 KECCAK256 PUSH1 0x0 SWAP1 SLOAD SWAP1 PUSH2 0x100 EXP SWAP1 DIV PUSH1 0xFF AND ISZERO PUSH2 0x1CD JUMPI PUSH1 0x40 MLOAD PUSH32 0x8C379A000000000000000000000000000000000000000000000000000000000 DUP2 MSTORE PUSH1 0x4 ADD PUSH2 0x1C4 SWAP1 PUSH2 0xFA8 JUMP JUMPDEST PUSH1 0x40 MLOAD DUP1 SWAP2 SUB SWAP1 REVERT JUMPDEST PUSH1 0x1 PUSH1 0x2 PUSH1 0x0 DUP4 PUSH20 0xFFFFFFFFFFFFFFFFFFFFFFFFFFFFFFFFFFFFFFFF AND PUSH20 0xFFFFFFFFFFFFFFFFFFFFFFFFFFFFFFFFFFFFFFFF AND DUP2 MSTORE PUSH1 0x20 ADD SWAP1 DUP2 MSTORE PUSH1 0x20 ADD PUSH1 0x0 KECCAK256 PUSH1 0x0 PUSH2 0x100 EXP DUP2 SLOAD DUP2 PUSH1 0xFF MUL NOT AND SWAP1 DUP4 ISZERO ISZERO MUL OR SWAP1 SSTORE POP POP JUMP JUMPDEST PUSH2 0x230 PUSH2 0x7D9 JUMP JUMPDEST ADDRESS PUSH20 0xFFFFFFFFFFFFFFFFFFFFFFFFFFFFFFFFFFFFFFFF AND SELFDESTRUCT JUMPDEST PUSH1 0x0 DUP1 PUSH1 0x0 SWAP1 SLOAD SWAP1 PUSH2 0x100 EXP SWAP1 DIV PUSH20 0xFFFFFFFFFFFFFFFFFFFFFFFFFFFFFFFFFFFFFFFF AND SWAP1 POP SWAP1 JUMP JUMPDEST PUSH1 0x60 PUSH1 0x2 PUSH1 0x0 PUSH2 0x280 PUSH2 0x850 JUMP JUMPDEST PUSH20 0xFFFFFFFFFFFFFFFFFFFFFFFFFFFFFFFFFFFFFFFF AND PUSH20 0xFFFFFFFFFFFFFFFFFFFFFFFFFFFFFFFFFFFFFFFF AND DUP2 MSTORE PUSH1 0x20 ADD SWAP1 DUP2 MSTORE PUSH1 0x20 ADD PUSH1 0x0 KECCAK256 PUSH1 0x0 SWAP1 SLOAD SWAP1 PUSH2 0x100 EXP SWAP1 DIV PUSH1 0xFF AND PUSH2 0x307 JUMPI PUSH1 0x40 MLOAD PUSH32 0x8C379A000000000000000000000000000000000000000000000000000000000 DUP2 MSTORE PUSH1 0x4 ADD PUSH2 0x2FE SWAP1 PUSH2 0x103A JUMP JUMPDEST PUSH1 0x40 MLOAD DUP1 SWAP2 SUB SWAP1 REVERT JUMPDEST PUSH1 0x1 DUP1 SLOAD DUP1 PUSH1 0x20 MUL PUSH1 0x20 ADD PUSH1 0x40 MLOAD SWAP1 DUP2 ADD PUSH1 0x40 MSTORE DUP1 SWAP3 SWAP2 SWAP1 DUP2 DUP2 MSTORE PUSH1 0x20 ADD PUSH1 0x0 SWAP1 JUMPDEST DUP3 DUP3 LT ISZERO PUSH2 0x540 JUMPI DUP4 DUP3 SWAP1 PUSH1 0x0 MSTORE PUSH1 0x20 PUSH1 0x0 KECCAK256 SWAP1 PUSH1 0x6 MUL ADD PUSH1 0x40 MLOAD DUP1 PUSH1 0xC0 ADD PUSH1 0x40 MSTORE SWAP1 DUP2 PUSH1 0x0 DUP3 ADD SLOAD DUP2 MSTORE PUSH1 0x20 ADD PUSH1 0x1 DUP3 ADD DUP1 SLOAD PUSH2 0x366 SWAP1 PUSH2 0x1089 JUMP JUMPDEST DUP1 PUSH1 0x1F ADD PUSH1 0x20 DUP1 SWAP2 DIV MUL PUSH1 0x20 ADD PUSH1 0x40 MLOAD SWAP1 DUP2 ADD PUSH1 0x40 MSTORE DUP1 SWAP3 SWAP2 SWAP1 DUP2 DUP2 MSTORE PUSH1 0x20 ADD DUP3 DUP1 SLOAD PUSH2 0x392 SWAP1 PUSH2 0x1089 JUMP JUMPDEST DUP1 ISZERO PUSH2 0x3DF JUMPI DUP1 PUSH1 0x1F LT PUSH2 0x3B4 JUMPI PUSH2 0x100 DUP1 DUP4 SLOAD DIV MUL DUP4 MSTORE SWAP2 PUSH1 0x20 ADD SWAP2 PUSH2 0x3DF JUMP JUMPDEST DUP3 ADD SWAP2 SWAP1 PUSH1 0x0 MSTORE PUSH1 0x20 PUSH1 0x0 KECCAK256 SWAP1 JUMPDEST DUP2 SLOAD DUP2 MSTORE SWAP1 PUSH1 0x1 ADD SWAP1 PUSH1 0x20 ADD DUP1 DUP4 GT PUSH2 0x3C2 JUMPI DUP3 SWAP1 SUB PUSH1 0x1F AND DUP3 ADD SWAP2 JUMPDEST POP POP POP POP POP DUP2 MSTORE PUSH1 0x20 ADD PUSH1 0x2 DUP3 ADD DUP1 SLOAD PUSH2 0x3F8 SWAP1 PUSH2 0x1089 JUMP JUMPDEST DUP1 PUSH1 0x1F ADD PUSH1 0x20 DUP1 SWAP2 DIV MUL PUSH1 0x20 ADD PUSH1 0x40 MLOAD SWAP1 DUP2 ADD PUSH1 0x40 MSTORE DUP1 SWAP3 SWAP2 SWAP1 DUP2 DUP2 MSTORE PUSH1 0x20 ADD DUP3 DUP1 SLOAD PUSH2 0x424 SWAP1 PUSH2 0x1089 JUMP JUMPDEST DUP1 ISZERO PUSH2 0x471 JUMPI DUP1 PUSH1 0x1F LT PUSH2 0x446 JUMPI PUSH2 0x100 DUP1 DUP4 SLOAD DIV MUL DUP4 MSTORE SWAP2 PUSH1 0x20 ADD SWAP2 PUSH2 0x471 JUMP JUMPDEST DUP3 ADD SWAP2 SWAP1 PUSH1 0x0 MSTORE PUSH1 0x20 PUSH1 0x0 KECCAK256 SWAP1 JUMPDEST DUP2 SLOAD DUP2 MSTORE SWAP1 PUSH1 0x1 ADD SWAP1 PUSH1 0x20 ADD DUP1 DUP4 GT PUSH2 0x454 JUMPI DUP3 SWAP1 SUB PUSH1 0x1F AND DUP3 ADD SWAP2 JUMPDEST POP POP POP POP POP DUP2 MSTORE PUSH1 0x20 ADD PUSH1 0x3 DUP3 ADD DUP1 SLOAD PUSH2 0x48A SWAP1 PUSH2 0x1089 JUMP JUMPDEST DUP1 PUSH1 0x1F ADD PUSH1 0x20 DUP1 SWAP2 DIV MUL PUSH1 0x20 ADD PUSH1 0x40 MLOAD SWAP1 DUP2 ADD PUSH1 0x40 MSTORE DUP1 SWAP3 SWAP2 SWAP1 DUP2 DUP2 MSTORE PUSH1 0x20 ADD DUP3 DUP1 SLOAD PUSH2 0x4B6 SWAP1 PUSH2 0x1089 JUMP JUMPDEST DUP1 ISZERO PUSH2 0x503 JUMPI DUP1 PUSH1 0x1F LT PUSH2 0x4D8 JUMPI PUSH2 0x100 DUP1 DUP4 SLOAD DIV MUL DUP4 MSTORE SWAP2 PUSH1 0x20 ADD SWAP2 PUSH2 0x503 JUMP JUMPDEST DUP3 ADD SWAP2 SWAP1 PUSH1 0x0 MSTORE PUSH1 0x20 PUSH1 0x0 KECCAK256 SWAP1 JUMPDEST DUP2 SLOAD DUP2 MSTORE SWAP1 PUSH1 0x1 ADD SWAP1 PUSH1 0x20 ADD DUP1 DUP4 GT PUSH2 0x4E6 JUMPI DUP3 SWAP1 SUB PUSH1 0x1F AND DUP3 ADD SWAP2 JUMPDEST POP POP POP POP POP DUP2 MSTORE PUSH1 0x20 ADD PUSH1 0x4 DUP3 ADD SLOAD DUP2 MSTORE PUSH1 0x20 ADD PUSH1 0x5 DUP3 ADD PUSH1 0x0 SWAP1 SLOAD SWAP1 PUSH2 0x100 EXP SWAP1 DIV PUSH1 0xFF AND ISZERO ISZERO ISZERO ISZERO DUP2 MSTORE POP POP DUP2 MSTORE PUSH1 0x20 ADD SWAP1 PUSH1 0x1 ADD SWAP1 PUSH2 0x329 JUMP JUMPDEST POP POP POP POP SWAP1 POP SWAP1 JUMP JUMPDEST PUSH1 0x2 PUSH1 0x0 PUSH2 0x555 PUSH2 0x850 JUMP JUMPDEST PUSH20 0xFFFFFFFFFFFFFFFFFFFFFFFFFFFFFFFFFFFFFFFF AND PUSH20 0xFFFFFFFFFFFFFFFFFFFFFFFFFFFFFFFFFFFFFFFF AND DUP2 MSTORE PUSH1 0x20 ADD SWAP1 DUP2 MSTORE PUSH1 0x20 ADD PUSH1 0x0 KECCAK256 PUSH1 0x0 SWAP1 SLOAD SWAP1 PUSH2 0x100 EXP SWAP1 DIV PUSH1 0xFF AND PUSH2 0x5DC JUMPI PUSH1 0x40 MLOAD PUSH32 0x8C379A000000000000000000000000000000000000000000000000000000000 DUP2 MSTORE PUSH1 0x4 ADD PUSH2 0x5D3 SWAP1 PUSH2 0x103A JUMP JUMPDEST PUSH1 0x40 MLOAD DUP1 SWAP2 SUB SWAP1 REVERT JUMPDEST PUSH1 0x1 DUP2 SWAP1 DUP1 PUSH1 0x1 DUP2 SLOAD ADD DUP1 DUP3 SSTORE DUP1 SWAP2 POP POP PUSH1 0x1 SWAP1 SUB SWAP1 PUSH1 0x0 MSTORE PUSH1 0x20 PUSH1 0x0 KECCAK256 SWAP1 PUSH1 0x6 MUL ADD PUSH1 0x0 SWAP1 SWAP2 SWAP1 SWAP2 SWAP1 SWAP2 POP PUSH1 0x0 DUP3 ADD MLOAD DUP2 PUSH1 0x0 ADD SSTORE PUSH1 0x20 DUP3 ADD MLOAD DUP2 PUSH1 0x1 ADD SWAP1 DUP2 PUSH2 0x627 SWAP2 SWAP1 PUSH2 0x1266 JUMP JUMPDEST POP PUSH1 0x40 DUP3 ADD MLOAD DUP2 PUSH1 0x2 ADD SWAP1 DUP2 PUSH2 0x63D SWAP2 SWAP1 PUSH2 0x1266 JUMP JUMPDEST POP PUSH1 0x60 DUP3 ADD MLOAD DUP2 PUSH1 0x3 ADD SWAP1 DUP2 PUSH2 0x653 SWAP2 SWAP1 PUSH2 0x1266 JUMP JUMPDEST POP PUSH1 0x80 DUP3 ADD MLOAD DUP2 PUSH1 0x4 ADD SSTORE PUSH1 0xA0 DUP3 ADD MLOAD DUP2 PUSH1 0x5 ADD PUSH1 0x0 PUSH2 0x100 EXP DUP2 SLOAD DUP2 PUSH1 0xFF MUL NOT AND SWAP1 DUP4 ISZERO ISZERO MUL OR SWAP1 SSTORE POP POP POP POP JUMP JUMPDEST PUSH1 0x2 PUSH1 0x0 PUSH2 0x68F PUSH2 0x850 JUMP JUMPDEST PUSH20 0xFFFFFFFFFFFFFFFFFFFFFFFFFFFFFFFFFFFFFFFF AND PUSH20 0xFFFFFFFFFFFFFFFFFFFFFFFFFFFFFFFFFFFFFFFF AND DUP2 MSTORE PUSH1 0x20 ADD SWAP1 DUP2 MSTORE PUSH1 0x20 ADD PUSH1 0x0 KECCAK256 PUSH1 0x0 SWAP1 SLOAD SWAP1 PUSH2 0x100 EXP SWAP1 DIV PUSH1 0xFF AND PUSH2 0x716 JUMPI PUSH1 0x40 MLOAD PUSH32 0x8C379A000000000000000000000000000000000000000000000000000000000 DUP2 MSTORE PUSH1 0x4 ADD PUSH2 0x70D SWAP1 PUSH2 0x103A JUMP JUMPDEST PUSH1 0x40 MLOAD DUP1 SWAP2 SUB SWAP1 REVERT JUMPDEST PUSH1 0x1 DUP1 DUP3 DUP2 SLOAD DUP2 LT PUSH2 0x72B JUMPI PUSH2 0x72A PUSH2 0x1338 JUMP JUMPDEST JUMPDEST SWAP1 PUSH1 0x0 MSTORE PUSH1 0x20 PUSH1 0x0 KECCAK256 SWAP1 PUSH1 0x6 MUL ADD PUSH1 0x5 ADD PUSH1 0x0 PUSH2 0x100 EXP DUP2 SLOAD DUP2 PUSH1 0xFF MUL NOT AND SWAP1 DUP4 ISZERO ISZERO MUL OR SWAP1 SSTORE POP POP JUMP JUMPDEST PUSH2 0x75E PUSH2 0x7D9 JUMP JUMPDEST PUSH1 0x0 PUSH20 0xFFFFFFFFFFFFFFFFFFFFFFFFFFFFFFFFFFFFFFFF AND DUP2 PUSH20 0xFFFFFFFFFFFFFFFFFFFFFFFFFFFFFFFFFFFFFFFF AND SUB PUSH2 0x7CD JUMPI PUSH1 0x40 MLOAD PUSH32 0x8C379A000000000000000000000000000000000000000000000000000000000 DUP2 MSTORE PUSH1 0x4 ADD PUSH2 0x7C4 SWAP1 PUSH2 0x13D9 JUMP JUMPDEST PUSH1 0x40 MLOAD DUP1 SWAP2 SUB SWAP1 REVERT JUMPDEST PUSH2 0x7D6 DUP2 PUSH2 0x858 JUMP JUMPDEST POP JUMP JUMPDEST CALLER PUSH20 0xFFFFFFFFFFFFFFFFFFFFFFFFFFFFFFFFFFFFFFFF AND PUSH2 0x7F8 PUSH2 0x249 JUMP JUMPDEST PUSH20 0xFFFFFFFFFFFFFFFFFFFFFFFFFFFFFFFFFFFFFFFF AND EQ PUSH2 0x84E JUMPI PUSH1 0x40 MLOAD PUSH32 0x8C379A000000000000000000000000000000000000000000000000000000000 DUP2 MSTORE PUSH1 0x4 ADD PUSH2 0x845 SWAP1 PUSH2 0x1445 JUMP JUMPDEST PUSH1 0x40 MLOAD DUP1 SWAP2 SUB SWAP1 REVERT JUMPDEST JUMP JUMPDEST PUSH1 0x0 CALLER SWAP1 POP SWAP1 JUMP JUMPDEST PUSH1 0x0 DUP1 PUSH1 0x0 SWAP1 SLOAD SWAP1 PUSH2 0x100 EXP SWAP1 DIV PUSH20 0xFFFFFFFFFFFFFFFFFFFFFFFFFFFFFFFFFFFFFFFF AND SWAP1 POP DUP2 PUSH1 0x0 DUP1 PUSH2 0x100 EXP DUP2 SLOAD DUP2 PUSH20 0xFFFFFFFFFFFFFFFFFFFFFFFFFFFFFFFFFFFFFFFF MUL NOT AND SWAP1 DUP4 PUSH20 0xFFFFFFFFFFFFFFFFFFFFFFFFFFFFFFFFFFFFFFFF AND MUL OR SWAP1 SSTORE POP DUP2 PUSH20 0xFFFFFFFFFFFFFFFFFFFFFFFFFFFFFFFFFFFFFFFF AND DUP2 PUSH20 0xFFFFFFFFFFFFFFFFFFFFFFFFFFFFFFFFFFFFFFFF AND PUSH32 0x8BE0079C531659141344CD1FD0A4F28419497F9722A3DAAFE3B4186F6B6457E0 PUSH1 0x40 MLOAD PUSH1 0x40 MLOAD DUP1 SWAP2 SUB SWAP1 LOG3 POP POP JUMP JUMPDEST PUSH1 0x0 PUSH1 0x40 MLOAD SWAP1 POP SWAP1 JUMP JUMPDEST PUSH1 0x0 DUP1 REVERT JUMPDEST PUSH1 0x0 DUP1 REVERT JUMPDEST PUSH1 0x0 PUSH20 0xFFFFFFFFFFFFFFFFFFFFFFFFFFFFFFFFFFFFFFFF DUP3 AND SWAP1 POP SWAP2 SWAP1 POP JUMP JUMPDEST PUSH1 0x0 PUSH2 0x95B DUP3 PUSH2 0x930 JUMP JUMPDEST SWAP1 POP SWAP2 SWAP1 POP JUMP JUMPDEST PUSH2 0x96B DUP2 PUSH2 0x950 JUMP JUMPDEST DUP2 EQ PUSH2 0x976 JUMPI PUSH1 0x0 DUP1 REVERT JUMPDEST POP JUMP JUMPDEST PUSH1 0x0 DUP2 CALLDATALOAD SWAP1 POP PUSH2 0x988 DUP2 PUSH2 0x962 JUMP JUMPDEST SWAP3 SWAP2 POP POP JUMP JUMPDEST PUSH1 0x0 PUSH1 0x20 DUP3 DUP5 SUB SLT ISZERO PUSH2 0x9A4 JUMPI PUSH2 0x9A3 PUSH2 0x926 JUMP JUMPDEST JUMPDEST PUSH1 0x0 PUSH2 0x9B2 DUP5 DUP3 DUP6 ADD PUSH2 0x979 JUMP JUMPDEST SWAP2 POP POP SWAP3 SWAP2 POP POP JUMP JUMPDEST PUSH2 0x9C4 DUP2 PUSH2 0x950 JUMP JUMPDEST DUP3 MSTORE POP POP JUMP JUMPDEST PUSH1 0x0 PUSH1 0x20 DUP3 ADD SWAP1 POP PUSH2 0x9DF PUSH1 0x0 DUP4 ADD DUP5 PUSH2 0x9BB JUMP JUMPDEST SWAP3 SWAP2 POP POP JUMP JUMPDEST PUSH1 0x0 DUP2 MLOAD SWAP1 POP SWAP2 SWAP1 POP JUMP JUMPDEST PUSH1 0x0 DUP3 DUP3 MSTORE PUSH1 0x20 DUP3 ADD SWAP1 POP SWAP3 SWAP2 POP POP JUMP JUMPDEST PUSH1 0x0 DUP2 SWAP1 POP PUSH1 0x20 DUP3 ADD SWAP1 POP SWAP2 SWAP1 POP JUMP JUMPDEST PUSH1 0x0 DUP2 SWAP1 POP SWAP2 SWAP1 POP JUMP JUMPDEST PUSH2 0xA24 DUP2 PUSH2 0xA11 JUMP JUMPDEST DUP3 MSTORE POP POP JUMP JUMPDEST PUSH1 0x0 DUP2 MLOAD SWAP1 POP SWAP2 SWAP1 POP JUMP JUMPDEST PUSH1 0x0 DUP3 DUP3 MSTORE PUSH1 0x20 DUP3 ADD SWAP1 POP SWAP3 SWAP2 POP POP JUMP JUMPDEST PUSH1 0x0 JUMPDEST DUP4 DUP2 LT ISZERO PUSH2 0xA64 JUMPI DUP1 DUP3 ADD MLOAD DUP2 DUP5 ADD MSTORE PUSH1 0x20 DUP2 ADD SWAP1 POP PUSH2 0xA49 JUMP JUMPDEST PUSH1 0x0 DUP5 DUP5 ADD MSTORE POP POP POP POP JUMP JUMPDEST PUSH1 0x0 PUSH1 0x1F NOT PUSH1 0x1F DUP4 ADD AND SWAP1 POP SWAP2 SWAP1 POP JUMP JUMPDEST PUSH1 0x0 PUSH2 0xA8C DUP3 PUSH2 0xA2A JUMP JUMPDEST PUSH2 0xA96 DUP2 DUP6 PUSH2 0xA35 JUMP JUMPDEST SWAP4 POP PUSH2 0xAA6 DUP2 DUP6 PUSH1 0x20 DUP7 ADD PUSH2 0xA46 JUMP JUMPDEST PUSH2 0xAAF DUP2 PUSH2 0xA70 JUMP JUMPDEST DUP5 ADD SWAP2 POP POP SWAP3 SWAP2 POP POP JUMP JUMPDEST PUSH1 0x0 DUP2 ISZERO ISZERO SWAP1 POP SWAP2 SWAP1 POP JUMP JUMPDEST PUSH2 0xACF DUP2 PUSH2 0xABA JUMP JUMPDEST DUP3 MSTORE POP POP JUMP JUMPDEST PUSH1 0x0 PUSH1 0xC0 DUP4 ADD PUSH1 0x0 DUP4 ADD MLOAD PUSH2 0xAED PUSH1 0x0 DUP7 ADD DUP3 PUSH2 0xA1B JUMP JUMPDEST POP PUSH1 0x20 DUP4 ADD MLOAD DUP5 DUP3 SUB PUSH1 0x20 DUP7 ADD MSTORE PUSH2 0xB05 DUP3 DUP3 PUSH2 0xA81 JUMP JUMPDEST SWAP2 POP POP PUSH1 0x40 DUP4 ADD MLOAD DUP5 DUP3 SUB PUSH1 0x40 DUP7 ADD MSTORE PUSH2 0xB1F DUP3 DUP3 PUSH2 0xA81 JUMP JUMPDEST SWAP2 POP POP PUSH1 0x60 DUP4 ADD MLOAD DUP5 DUP3 SUB PUSH1 0x60 DUP7 ADD MSTORE PUSH2 0xB39 DUP3 DUP3 PUSH2 0xA81 JUMP JUMPDEST SWAP2 POP POP PUSH1 0x80 DUP4 ADD MLOAD PUSH2 0xB4E PUSH1 0x80 DUP7 ADD DUP3 PUSH2 0xA1B JUMP JUMPDEST POP PUSH1 0xA0 DUP4 ADD MLOAD PUSH2 0xB61 PUSH1 0xA0 DUP7 ADD DUP3 PUSH2 0xAC6 JUMP JUMPDEST POP DUP1 SWAP2 POP POP SWAP3 SWAP2 POP POP JUMP JUMPDEST PUSH1 0x0 PUSH2 0xB78 DUP4 DUP4 PUSH2 0xAD5 JUMP JUMPDEST SWAP1 POP SWAP3 SWAP2 POP POP JUMP JUMPDEST PUSH1 0x0 PUSH1 0x20 DUP3 ADD SWAP1 POP SWAP2 SWAP1 POP JUMP JUMPDEST PUSH1 0x0 PUSH2 0xB98 DUP3 PUSH2 0x9E5 JUMP JUMPDEST PUSH2 0xBA2 DUP2 DUP6 PUSH2 0x9F0 JUMP JUMPDEST SWAP4 POP DUP4 PUSH1 0x20 DUP3 MUL DUP6 ADD PUSH2 0xBB4 DUP6 PUSH2 0xA01 JUMP JUMPDEST DUP1 PUSH1 0x0 JUMPDEST DUP6 DUP2 LT ISZERO PUSH2 0xBF0 JUMPI DUP5 DUP5 SUB DUP10 MSTORE DUP2 MLOAD PUSH2 0xBD1 DUP6 DUP3 PUSH2 0xB6C JUMP JUMPDEST SWAP5 POP PUSH2 0xBDC DUP4 PUSH2 0xB80 JUMP JUMPDEST SWAP3 POP PUSH1 0x20 DUP11 ADD SWAP10 POP POP PUSH1 0x1 DUP2 ADD SWAP1 POP PUSH2 0xBB8 JUMP JUMPDEST POP DUP3 SWAP8 POP DUP8 SWAP6 POP POP POP POP POP POP SWAP3 SWAP2 POP POP JUMP JUMPDEST PUSH1 0x0 PUSH1 0x20 DUP3 ADD SWAP1 POP DUP2 DUP2 SUB PUSH1 0x0 DUP4 ADD MSTORE PUSH2 0xC1C DUP2 DUP5 PUSH2 0xB8D JUMP JUMPDEST SWAP1 POP SWAP3 SWAP2 POP POP JUMP JUMPDEST PUSH1 0x0 DUP1 REVERT JUMPDEST PUSH32 0x4E487B7100000000000000000000000000000000000000000000000000000000 PUSH1 0x0 MSTORE PUSH1 0x41 PUSH1 0x4 MSTORE PUSH1 0x24 PUSH1 0x0 REVERT JUMPDEST PUSH2 0xC61 DUP3 PUSH2 0xA70 JUMP JUMPDEST DUP2 ADD DUP2 DUP2 LT PUSH8 0xFFFFFFFFFFFFFFFF DUP3 GT OR ISZERO PUSH2 0xC80 JUMPI PUSH2 0xC7F PUSH2 0xC29 JUMP JUMPDEST JUMPDEST DUP1 PUSH1 0x40 MSTORE POP POP POP JUMP JUMPDEST PUSH1 0x0 PUSH2 0xC93 PUSH2 0x91C JUMP JUMPDEST SWAP1 POP PUSH2 0xC9F DUP3 DUP3 PUSH2 0xC58 JUMP JUMPDEST SWAP2 SWAP1 POP JUMP JUMPDEST PUSH1 0x0 DUP1 REVERT JUMPDEST PUSH2 0xCB2 DUP2 PUSH2 0xA11 JUMP JUMPDEST DUP2 EQ PUSH2 0xCBD JUMPI PUSH1 0x0 DUP1 REVERT JUMPDEST POP JUMP JUMPDEST PUSH1 0x0 DUP2 CALLDATALOAD SWAP1 POP PUSH2 0xCCF DUP2 PUSH2 0xCA9 JUMP JUMPDEST SWAP3 SWAP2 POP POP JUMP JUMPDEST PUSH1 0x0 DUP1 REVERT JUMPDEST PUSH1 0x0 DUP1 REVERT JUMPDEST PUSH1 0x0 PUSH8 0xFFFFFFFFFFFFFFFF DUP3 GT ISZERO PUSH2 0xCFA JUMPI PUSH2 0xCF9 PUSH2 0xC29 JUMP JUMPDEST JUMPDEST PUSH2 0xD03 DUP3 PUSH2 0xA70 JUMP JUMPDEST SWAP1 POP PUSH1 0x20 DUP2 ADD SWAP1 POP SWAP2 SWAP1 POP JUMP JUMPDEST DUP3 DUP2 DUP4 CALLDATACOPY PUSH1 0x0 DUP4 DUP4 ADD MSTORE POP POP POP JUMP JUMPDEST PUSH1 0x0 PUSH2 0xD32 PUSH2 0xD2D DUP5 PUSH2 0xCDF JUMP JUMPDEST PUSH2 0xC89 JUMP JUMPDEST SWAP1 POP DUP3 DUP2 MSTORE PUSH1 0x20 DUP2 ADD DUP5 DUP5 DUP5 ADD GT ISZERO PUSH2 0xD4E JUMPI PUSH2 0xD4D PUSH2 0xCDA JUMP JUMPDEST JUMPDEST PUSH2 0xD59 DUP5 DUP3 DUP6 PUSH2 0xD10 JUMP JUMPDEST POP SWAP4 SWAP3 POP POP POP JUMP JUMPDEST PUSH1 0x0 DUP3 PUSH1 0x1F DUP4 ADD SLT PUSH2 0xD76 JUMPI PUSH2 0xD75 PUSH2 0xCD5 JUMP JUMPDEST JUMPDEST DUP2 CALLDATALOAD PUSH2 0xD86 DUP5 DUP3 PUSH1 0x20 DUP7 ADD PUSH2 0xD1F JUMP JUMPDEST SWAP2 POP POP SWAP3 SWAP2 POP POP JUMP JUMPDEST PUSH2 0xD98 DUP2 PUSH2 0xABA JUMP JUMPDEST DUP2 EQ PUSH2 0xDA3 JUMPI PUSH1 0x0 DUP1 REVERT JUMPDEST POP JUMP JUMPDEST PUSH1 0x0 DUP2 CALLDATALOAD SWAP1 POP PUSH2 0xDB5 DUP2 PUSH2 0xD8F JUMP JUMPDEST SWAP3 SWAP2 POP POP JUMP JUMPDEST PUSH1 0x0 PUSH1 0xC0 DUP3 DUP5 SUB SLT ISZERO PUSH2 0xDD1 JUMPI PUSH2 0xDD0 PUSH2 0xC24 JUMP JUMPDEST JUMPDEST PUSH2 0xDDB PUSH1 0xC0 PUSH2 0xC89 JUMP JUMPDEST SWAP1 POP PUSH1 0x0 PUSH2 0xDEB DUP5 DUP3 DUP6 ADD PUSH2 0xCC0 JUMP JUMPDEST PUSH1 0x0 DUP4 ADD MSTORE POP PUSH1 0x20 DUP3 ADD CALLDATALOAD PUSH8 0xFFFFFFFFFFFFFFFF DUP2 GT ISZERO PUSH2 0xE0F JUMPI PUSH2 0xE0E PUSH2 0xCA4 JUMP JUMPDEST JUMPDEST PUSH2 0xE1B DUP5 DUP3 DUP6 ADD PUSH2 0xD61 JUMP JUMPDEST PUSH1 0x20 DUP4 ADD MSTORE POP PUSH1 0x40 DUP3 ADD CALLDATALOAD PUSH8 0xFFFFFFFFFFFFFFFF DUP2 GT ISZERO PUSH2 0xE3F JUMPI PUSH2 0xE3E PUSH2 0xCA4 JUMP JUMPDEST JUMPDEST PUSH2 0xE4B DUP5 DUP3 DUP6 ADD PUSH2 0xD61 JUMP JUMPDEST PUSH1 0x40 DUP4 ADD MSTORE POP PUSH1 0x60 DUP3 ADD CALLDATALOAD PUSH8 0xFFFFFFFFFFFFFFFF DUP2 GT ISZERO PUSH2 0xE6F JUMPI PUSH2 0xE6E PUSH2 0xCA4 JUMP JUMPDEST JUMPDEST PUSH2 0xE7B DUP5 DUP3 DUP6 ADD PUSH2 0xD61 JUMP JUMPDEST PUSH1 0x60 DUP4 ADD MSTORE POP PUSH1 0x80 PUSH2 0xE8F DUP5 DUP3 DUP6 ADD PUSH2 0xCC0 JUMP JUMPDEST PUSH1 0x80 DUP4 ADD MSTORE POP PUSH1 0xA0 PUSH2 0xEA3 DUP5 DUP3 DUP6 ADD PUSH2 0xDA6 JUMP JUMPDEST PUSH1 0xA0 DUP4 ADD MSTORE POP SWAP3 SWAP2 POP POP JUMP JUMPDEST PUSH1 0x0 PUSH1 0x20 DUP3 DUP5 SUB SLT ISZERO PUSH2 0xEC5 JUMPI PUSH2 0xEC4 PUSH2 0x926 JUMP JUMPDEST JUMPDEST PUSH1 0x0 DUP3 ADD CALLDATALOAD PUSH8 0xFFFFFFFFFFFFFFFF DUP2 GT ISZERO PUSH2 0xEE3 JUMPI PUSH2 0xEE2 PUSH2 0x92B JUMP JUMPDEST JUMPDEST PUSH2 0xEEF DUP5 DUP3 DUP6 ADD PUSH2 0xDBB JUMP JUMPDEST SWAP2 POP POP SWAP3 SWAP2 POP POP JUMP JUMPDEST PUSH1 0x0 PUSH1 0x20 DUP3 DUP5 SUB SLT ISZERO PUSH2 0xF0E JUMPI PUSH2 0xF0D PUSH2 0x926 JUMP JUMPDEST JUMPDEST PUSH1 0x0 PUSH2 0xF1C DUP5 DUP3 DUP6 ADD PUSH2 0xCC0 JUMP JUMPDEST SWAP2 POP POP SWAP3 SWAP2 POP POP JUMP JUMPDEST PUSH1 0x0 DUP3 DUP3 MSTORE PUSH1 0x20 DUP3 ADD SWAP1 POP SWAP3 SWAP2 POP POP JUMP JUMPDEST PUSH32 0x45787069726174696F6E44617461626173653A207065726D697373696F6E2068 PUSH1 0x0 DUP3 ADD MSTORE PUSH32 0x6173206265656E206772616E7465640000000000000000000000000000000000 PUSH1 0x20 DUP3 ADD MSTORE POP JUMP JUMPDEST PUSH1 0x0 PUSH2 0xF92 PUSH1 0x2F DUP4 PUSH2 0xF25 JUMP JUMPDEST SWAP2 POP PUSH2 0xF9D DUP3 PUSH2 0xF36 JUMP JUMPDEST PUSH1 0x40 DUP3 ADD SWAP1 POP SWAP2 SWAP1 POP JUMP JUMPDEST PUSH1 0x0 PUSH1 0x20 DUP3 ADD SWAP1 POP DUP2 DUP2 SUB PUSH1 0x0 DUP4 ADD MSTORE PUSH2 0xFC1 DUP2 PUSH2 0xF85 JUMP JUMPDEST SWAP1 POP SWAP2 SWAP1 POP JUMP JUMPDEST PUSH32 0x45787069726174696F6E44617461626173653A206F6E6C7920636F6E74726163 PUSH1 0x0 DUP3 ADD MSTORE PUSH32 0x742077686963682061726520616C6C6F77656400000000000000000000000000 PUSH1 0x20 DUP3 ADD MSTORE POP JUMP JUMPDEST PUSH1 0x0 PUSH2 0x1024 PUSH1 0x33 DUP4 PUSH2 0xF25 JUMP JUMPDEST SWAP2 POP PUSH2 0x102F DUP3 PUSH2 0xFC8 JUMP JUMPDEST PUSH1 0x40 DUP3 ADD SWAP1 POP SWAP2 SWAP1 POP JUMP JUMPDEST PUSH1 0x0 PUSH1 0x20 DUP3 ADD SWAP1 POP DUP2 DUP2 SUB PUSH1 0x0 DUP4 ADD MSTORE PUSH2 0x1053 DUP2 PUSH2 0x1017 JUMP JUMPDEST SWAP1 POP SWAP2 SWAP1 POP JUMP JUMPDEST PUSH32 0x4E487B7100000000000000000000000000000000000000000000000000000000 PUSH1 0x0 MSTORE PUSH1 0x22 PUSH1 0x4 MSTORE PUSH1 0x24 PUSH1 0x0 REVERT JUMPDEST PUSH1 0x0 PUSH1 0x2 DUP3 DIV SWAP1 POP PUSH1 0x1 DUP3 AND DUP1 PUSH2 0x10A1 JUMPI PUSH1 0x7F DUP3 AND SWAP2 POP JUMPDEST PUSH1 0x20 DUP3 LT DUP2 SUB PUSH2 0x10B4 JUMPI PUSH2 0x10B3 PUSH2 0x105A JUMP JUMPDEST JUMPDEST POP SWAP2 SWAP1 POP JUMP JUMPDEST PUSH1 0x0 DUP2 SWAP1 POP DUP2 PUSH1 0x0 MSTORE PUSH1 0x20 PUSH1 0x0 KECCAK256 SWAP1 POP SWAP2 SWAP1 POP JUMP JUMPDEST PUSH1 0x0 PUSH1 0x20 PUSH1 0x1F DUP4 ADD DIV SWAP1 POP SWAP2 SWAP1 POP JUMP JUMPDEST PUSH1 0x0 DUP3 DUP3 SHL SWAP1 POP SWAP3 SWAP2 POP POP JUMP JUMPDEST PUSH1 0x0 PUSH1 0x8 DUP4 MUL PUSH2 0x111C PUSH32 0xFFFFFFFFFFFFFFFFFFFFFFFFFFFFFFFFFFFFFFFFFFFFFFFFFFFFFFFFFFFFFFFF DUP3 PUSH2 0x10DF JUMP JUMPDEST PUSH2 0x1126 DUP7 DUP4 PUSH2 0x10DF JUMP JUMPDEST SWAP6 POP DUP1 NOT DUP5 AND SWAP4 POP DUP1 DUP7 AND DUP5 OR SWAP3 POP POP POP SWAP4 SWAP3 POP POP POP JUMP JUMPDEST PUSH1 0x0 DUP2 SWAP1 POP SWAP2 SWAP1 POP JUMP JUMPDEST PUSH1 0x0 PUSH2 0x1163 PUSH2 0x115E PUSH2 0x1159 DUP5 PUSH2 0xA11 JUMP JUMPDEST PUSH2 0x113E JUMP JUMPDEST PUSH2 0xA11 JUMP JUMPDEST SWAP1 POP SWAP2 SWAP1 POP JUMP JUMPDEST PUSH1 0x0 DUP2 SWAP1 POP SWAP2 SWAP1 POP JUMP JUMPDEST PUSH2 0x117D DUP4 PUSH2 0x1148 JUMP JUMPDEST PUSH2 0x1191 PUSH2 0x1189 DUP3 PUSH2 0x116A JUMP JUMPDEST DUP5 DUP5 SLOAD PUSH2 0x10EC JUMP JUMPDEST DUP3 SSTORE POP POP POP POP JUMP JUMPDEST PUSH1 0x0 SWAP1 JUMP JUMPDEST PUSH2 0x11A6 PUSH2 0x1199 JUMP JUMPDEST PUSH2 0x11B1 DUP2 DUP5 DUP5 PUSH2 0x1174 JUMP JUMPDEST POP POP POP JUMP JUMPDEST JUMPDEST DUP2 DUP2 LT ISZERO PUSH2 0x11D5 JUMPI PUSH2 0x11CA PUSH1 0x0 DUP3 PUSH2 0x119E JUMP JUMPDEST PUSH1 0x1 DUP2 ADD SWAP1 POP PUSH2 0x11B7 JUMP JUMPDEST POP POP JUMP JUMPDEST PUSH1 0x1F DUP3 GT ISZERO PUSH2 0x121A JUMPI PUSH2 0x11EB DUP2 PUSH2 0x10BA JUMP JUMPDEST PUSH2 0x11F4 DUP5 PUSH2 0x10CF JUMP JUMPDEST DUP2 ADD PUSH1 0x20 DUP6 LT ISZERO PUSH2 0x1203 JUMPI DUP2 SWAP1 POP JUMPDEST PUSH2 0x1217 PUSH2 0x120F DUP6 PUSH2 0x10CF JUMP JUMPDEST DUP4 ADD DUP3 PUSH2 0x11B6 JUMP JUMPDEST POP POP JUMPDEST POP POP POP JUMP JUMPDEST PUSH1 0x0 DUP3 DUP3 SHR SWAP1 POP SWAP3 SWAP2 POP POP JUMP JUMPDEST PUSH1 0x0 PUSH2 0x123D PUSH1 0x0 NOT DUP5 PUSH1 0x8 MUL PUSH2 0x121F JUMP JUMPDEST NOT DUP1 DUP4 AND SWAP2 POP POP SWAP3 SWAP2 POP POP JUMP JUMPDEST PUSH1 0x0 PUSH2 0x1256 DUP4 DUP4 PUSH2 0x122C JUMP JUMPDEST SWAP2 POP DUP3 PUSH1 0x2 MUL DUP3 OR SWAP1 POP SWAP3 SWAP2 POP POP JUMP JUMPDEST PUSH2 0x126F DUP3 PUSH2 0xA2A JUMP JUMPDEST PUSH8 0xFFFFFFFFFFFFFFFF DUP2 GT ISZERO PUSH2 0x1288 JUMPI PUSH2 0x1287 PUSH2 0xC29 JUMP JUMPDEST JUMPDEST PUSH2 0x1292 DUP3 SLOAD PUSH2 0x1089 JUMP JUMPDEST PUSH2 0x129D DUP3 DUP3 DUP6 PUSH2 0x11D9 JUMP JUMPDEST PUSH1 0x0 PUSH1 0x20 SWAP1 POP PUSH1 0x1F DUP4 GT PUSH1 0x1 DUP2 EQ PUSH2 0x12D0 JUMPI PUSH1 0x0 DUP5 ISZERO PUSH2 0x12BE JUMPI DUP3 DUP8 ADD MLOAD SWAP1 POP JUMPDEST PUSH2 0x12C8 DUP6 DUP3 PUSH2 0x124A JUMP JUMPDEST DUP7 SSTORE POP PUSH2 0x1330 JUMP JUMPDEST PUSH1 0x1F NOT DUP5 AND PUSH2 0x12DE DUP7 PUSH2 0x10BA JUMP JUMPDEST PUSH1 0x0 JUMPDEST DUP3 DUP2 LT ISZERO PUSH2 0x1306 JUMPI DUP5 DUP10 ADD MLOAD DUP3 SSTORE PUSH1 0x1 DUP3 ADD SWAP2 POP PUSH1 0x20 DUP6 ADD SWAP5 POP PUSH1 0x20 DUP2 ADD SWAP1 POP PUSH2 0x12E1 JUMP JUMPDEST DUP7 DUP4 LT ISZERO PUSH2 0x1323 JUMPI DUP5 DUP10 ADD MLOAD PUSH2 0x131F PUSH1 0x1F DUP10 AND DUP3 PUSH2 0x122C JUMP JUMPDEST DUP4 SSTORE POP JUMPDEST PUSH1 0x1 PUSH1 0x2 DUP9 MUL ADD DUP9 SSTORE POP POP POP JUMPDEST POP POP POP POP POP POP JUMP JUMPDEST PUSH32 0x4E487B7100000000000000000000000000000000000000000000000000000000 PUSH1 0x0 MSTORE PUSH1 0x32 PUSH1 0x4 MSTORE PUSH1 0x24 PUSH1 0x0 REVERT JUMPDEST PUSH32 0x4F776E61626C653A206E6577206F776E657220697320746865207A65726F2061 PUSH1 0x0 DUP3 ADD MSTORE PUSH32 0x6464726573730000000000000000000000000000000000000000000000000000 PUSH1 0x20 DUP3 ADD MSTORE POP JUMP JUMPDEST PUSH1 0x0 PUSH2 0x13C3 PUSH1 0x26 DUP4 PUSH2 0xF25 JUMP JUMPDEST SWAP2 POP PUSH2 0x13CE DUP3 PUSH2 0x1367 JUMP JUMPDEST PUSH1 0x40 DUP3 ADD SWAP1 POP SWAP2 SWAP1 POP JUMP JUMPDEST PUSH1 0x0 PUSH1 0x20 DUP3 ADD SWAP1 POP DUP2 DUP2 SUB PUSH1 0x0 DUP4 ADD MSTORE PUSH2 0x13F2 DUP2 PUSH2 0x13B6 JUMP JUMPDEST SWAP1 POP SWAP2 SWAP1 POP JUMP JUMPDEST PUSH32 0x4F776E61626C653A2063616C6C6572206973206E6F7420746865206F776E6572 PUSH1 0x0 DUP3 ADD MSTORE POP JUMP JUMPDEST PUSH1 0x0 PUSH2 0x142F PUSH1 0x20 DUP4 PUSH2 0xF25 JUMP JUMPDEST SWAP2 POP PUSH2 0x143A DUP3 PUSH2 0x13F9 JUMP JUMPDEST PUSH1 0x20 DUP3 ADD SWAP1 POP SWAP2 SWAP1 POP JUMP JUMPDEST PUSH1 0x0 PUSH1 0x20 DUP3 ADD SWAP1 POP DUP2 DUP2 SUB PUSH1 0x0 DUP4 ADD MSTORE PUSH2 0x145E DUP2 PUSH2 0x1422 JUMP JUMPDEST SWAP1 POP SWAP2 SWAP1 POP JUMP INVALID LOG2 PUSH5 0x6970667358 0x22 SLT KECCAK256 0xF8 0x21 LOG1 RETURNDATASIZE SWAP14 PUSH14 0x3E706B4772D6675F0820D1C6F3CC CODESIZE CODESIZE CALLVALUE MULMOD 0xB4 0x22 BLOCKHASH SLT LT 0xE MOD COINBASE PUSH5 0x736F6C6343 STOP ADDMOD SLT STOP CALLER "
				},
				"gasEstimates": {
					"creation": {
						"codeDepositCost": "1055000",
						"executionCost": "25360",
						"totalCost": "1080360"
					},
					"external": {
						"addChecked(uint256)": "29191",
						"addExpiration((uint256,string,string,string,uint256,bool))": "infinite",
						"addPermission(address)": "29288",
						"destroy()": "29995",
						"getAllExpiration()": "infinite",
						"owner()": "2567",
						"transferOwnership(address)": "30775"
					}
				},
				"methodIdentifiers": {
					"addChecked(uint256)": "ee416d5b",
					"addExpiration((uint256,string,string,string,uint256,bool))": "a4947330",
					"addPermission(address)": "4d0a5dbd",
					"destroy()": "83197ef0",
					"getAllExpiration()": "98c50aad",
					"owner()": "8da5cb5b",
					"transferOwnership(address)": "f2fde38b"
				}
			},
			"storageLayout": {
				"storage": [
					{
						"astId": 30,
						"contract": "database/management/ExpDatabase.sol:ExpDatabase",
						"label": "_owner",
						"offset": 0,
						"slot": "0",
						"type": "t_address"
					},
					{
						"astId": 149,
						"contract": "database/management/ExpDatabase.sol:ExpDatabase",
						"label": "list",
						"offset": 0,
						"slot": "1",
						"type": "t_array(t_struct(Expiration)251_storage)dyn_storage"
					},
					{
						"astId": 153,
						"contract": "database/management/ExpDatabase.sol:ExpDatabase",
						"label": "permissions",
						"offset": 0,
						"slot": "2",
						"type": "t_mapping(t_address,t_bool)"
					}
				],
				"types": {
					"t_address": {
						"encoding": "inplace",
						"label": "address",
						"numberOfBytes": "20"
					},
					"t_array(t_struct(Expiration)251_storage)dyn_storage": {
						"base": "t_struct(Expiration)251_storage",
						"encoding": "dynamic_array",
						"label": "struct Expiration[]",
						"numberOfBytes": "32"
					},
					"t_bool": {
						"encoding": "inplace",
						"label": "bool",
						"numberOfBytes": "1"
					},
					"t_mapping(t_address,t_bool)": {
						"encoding": "mapping",
						"key": "t_address",
						"label": "mapping(address => bool)",
						"numberOfBytes": "32",
						"value": "t_bool"
					},
					"t_string_storage": {
						"encoding": "bytes",
						"label": "string",
						"numberOfBytes": "32"
					},
					"t_struct(Expiration)251_storage": {
						"encoding": "inplace",
						"label": "struct Expiration",
						"members": [
							{
								"astId": 240,
								"contract": "database/management/ExpDatabase.sol:ExpDatabase",
								"label": "batchId",
								"offset": 0,
								"slot": "0",
								"type": "t_uint256"
							},
							{
								"astId": 242,
								"contract": "database/management/ExpDatabase.sol:ExpDatabase",
								"label": "batchName",
								"offset": 0,
								"slot": "1",
								"type": "t_string_storage"
							},
							{
								"astId": 244,
								"contract": "database/management/ExpDatabase.sol:ExpDatabase",
								"label": "manuDate",
								"offset": 0,
								"slot": "2",
								"type": "t_string_storage"
							},
							{
								"astId": 246,
								"contract": "database/management/ExpDatabase.sol:ExpDatabase",
								"label": "expDate",
								"offset": 0,
								"slot": "3",
								"type": "t_string_storage"
							},
							{
								"astId": 248,
								"contract": "database/management/ExpDatabase.sol:ExpDatabase",
								"label": "keyValue",
								"offset": 0,
								"slot": "4",
								"type": "t_uint256"
							},
							{
								"astId": 250,
								"contract": "database/management/ExpDatabase.sol:ExpDatabase",
								"label": "expIsChecked",
								"offset": 0,
								"slot": "5",
								"type": "t_bool"
							}
						],
						"numberOfBytes": "192"
					},
					"t_uint256": {
						"encoding": "inplace",
						"label": "uint256",
						"numberOfBytes": "32"
					}
				}
			},
			"userdoc": {
				"kind": "user",
				"methods": {},
				"version": 1
			}
		}
	}
}