{
	"database/farmer/FarmerDatabase.sol": {
		"FarmerDatabase": {
			"abi": [
				{
					"inputs": [],
					"stateMutability": "nonpayable",
					"type": "constructor"
				},
				{
					"anonymous": false,
					"inputs": [
						{
							"indexed": true,
							"internalType": "address",
							"name": "previousOwner",
							"type": "address"
						},
						{
							"indexed": true,
							"internalType": "address",
							"name": "newOwner",
							"type": "address"
						}
					],
					"name": "OwnershipTransferred",
					"type": "event"
				},
				{
					"inputs": [
						{
							"internalType": "uint256",
							"name": "farmerId",
							"type": "uint256"
						}
					],
					"name": "addChecked",
					"outputs": [],
					"stateMutability": "nonpayable",
					"type": "function"
				},
				{
					"inputs": [
						{
							"components": [
								{
									"internalType": "uint256",
									"name": "farmerId",
									"type": "uint256"
								},
								{
									"internalType": "uint256",
									"name": "farmerCccd",
									"type": "uint256"
								},
								{
									"internalType": "string",
									"name": "farmerName",
									"type": "string"
								},
								{
									"internalType": "string",
									"name": "farmerEmail",
									"type": "string"
								},
								{
									"internalType": "string",
									"name": "farmerAddress",
									"type": "string"
								},
								{
									"internalType": "bool",
									"name": "farmerIsChecked",
									"type": "bool"
								}
							],
							"internalType": "struct Farmer",
							"name": "farmer",
							"type": "tuple"
						}
					],
					"name": "addFarmer",
					"outputs": [],
					"stateMutability": "nonpayable",
					"type": "function"
				},
				{
					"inputs": [
						{
							"internalType": "address",
							"name": "contractPermission",
							"type": "address"
						}
					],
					"name": "addPermission",
					"outputs": [],
					"stateMutability": "nonpayable",
					"type": "function"
				},
				{
					"inputs": [],
					"name": "destroy",
					"outputs": [],
					"stateMutability": "nonpayable",
					"type": "function"
				},
				{
					"inputs": [],
					"name": "getAllFarmer",
					"outputs": [
						{
							"components": [
								{
									"internalType": "uint256",
									"name": "farmerId",
									"type": "uint256"
								},
								{
									"internalType": "uint256",
									"name": "farmerCccd",
									"type": "uint256"
								},
								{
									"internalType": "string",
									"name": "farmerName",
									"type": "string"
								},
								{
									"internalType": "string",
									"name": "farmerEmail",
									"type": "string"
								},
								{
									"internalType": "string",
									"name": "farmerAddress",
									"type": "string"
								},
								{
									"internalType": "bool",
									"name": "farmerIsChecked",
									"type": "bool"
								}
							],
							"internalType": "struct Farmer[]",
							"name": "",
							"type": "tuple[]"
						}
					],
					"stateMutability": "view",
					"type": "function"
				},
				{
					"inputs": [],
					"name": "owner",
					"outputs": [
						{
							"internalType": "address",
							"name": "",
							"type": "address"
						}
					],
					"stateMutability": "view",
					"type": "function"
				},
				{
					"inputs": [
						{
							"internalType": "address",
							"name": "newOwner",
							"type": "address"
						}
					],
					"name": "transferOwnership",
					"outputs": [],
					"stateMutability": "nonpayable",
					"type": "function"
				}
			],
			"devdoc": {
				"kind": "dev",
				"methods": {
					"owner()": {
						"details": "Returns the address of the current owner."
					},
					"transferOwnership(address)": {
						"details": "Transfers ownership of the contract to a new account (`newOwner`). Can only be called by the current owner."
					}
				},
				"version": 1
			},
			"evm": {
				"assembly": "    /* \"database/farmer/FarmerDatabase.sol\":180:1291  contract FarmerDatabase is Ownable {... */\n  mstore(0x40, 0x80)\n    /* \"database/farmer/FarmerDatabase.sol\":282:283  0 */\n  0x00\n    /* \"database/farmer/FarmerDatabase.sol\":250:283  uint256 private autoIncrement = 0 */\n  0x02\n  sstore\n    /* \"database/farmer/FarmerDatabase.sol\":533:559  constructor() Ownable() {} */\n  callvalue\n  dup1\n  iszero\n  tag_1\n  jumpi\n  0x00\n  dup1\n  revert\ntag_1:\n  pop\n    /* \"abstract/Ownable.sol\":1032:1042  msg.sender */\n  caller\n    /* \"abstract/Ownable.sol\":1023:1029  _owner */\n  0x00\n  dup1\n    /* \"abstract/Ownable.sol\":1023:1042  _owner = msg.sender */\n  0x0100\n  exp\n  dup2\n  sload\n  dup2\n  0xffffffffffffffffffffffffffffffffffffffff\n  mul\n  not\n  and\n  swap1\n  dup4\n  0xffffffffffffffffffffffffffffffffffffffff\n  and\n  mul\n  or\n  swap1\n  sstore\n  pop\n    /* \"database/farmer/FarmerDatabase.sol\":180:1291  contract FarmerDatabase is Ownable {... */\n  dataSize(sub_0)\n  dup1\n  dataOffset(sub_0)\n  0x00\n  codecopy\n  0x00\n  return\nstop\n\nsub_0: assembly {\n        /* \"database/farmer/FarmerDatabase.sol\":180:1291  contract FarmerDatabase is Ownable {... */\n      mstore(0x40, 0x80)\n      callvalue\n      dup1\n      iszero\n      tag_1\n      jumpi\n      0x00\n      dup1\n      revert\n    tag_1:\n      pop\n      jumpi(tag_2, lt(calldatasize, 0x04))\n      shr(0xe0, calldataload(0x00))\n      dup1\n      0x8da5cb5b\n      gt\n      tag_10\n      jumpi\n      dup1\n      0x8da5cb5b\n      eq\n      tag_6\n      jumpi\n      dup1\n      0xeb455ab3\n      eq\n      tag_7\n      jumpi\n      dup1\n      0xee416d5b\n      eq\n      tag_8\n      jumpi\n      dup1\n      0xf2fde38b\n      eq\n      tag_9\n      jumpi\n      jump(tag_2)\n    tag_10:\n      dup1\n      0x01384813\n      eq\n      tag_3\n      jumpi\n      dup1\n      0x4d0a5dbd\n      eq\n      tag_4\n      jumpi\n      dup1\n      0x83197ef0\n      eq\n      tag_5\n      jumpi\n    tag_2:\n      0x00\n      dup1\n      revert\n        /* \"database/farmer/FarmerDatabase.sol\":1139:1288  function getAllFarmer()... */\n    tag_3:\n      tag_11\n      tag_12\n      jump\t// in\n    tag_11:\n      mload(0x40)\n      tag_13\n      swap2\n      swap1\n      tag_14\n      jump\t// in\n    tag_13:\n      mload(0x40)\n      dup1\n      swap2\n      sub\n      swap1\n      return\n        /* \"database/farmer/FarmerDatabase.sol\":567:828  function addPermission(address contractPermission) public onlyOwner {... */\n    tag_4:\n      tag_15\n      0x04\n      dup1\n      calldatasize\n      sub\n      dup2\n      add\n      swap1\n      tag_16\n      swap2\n      swap1\n      tag_17\n      jump\t// in\n    tag_16:\n      tag_18\n      jump\t// in\n    tag_15:\n      stop\n        /* \"abstract/Ownable.sol\":2801:2892  function destroy() public onlyOwner {... */\n    tag_5:\n      tag_19\n      tag_20\n      jump\t// in\n    tag_19:\n      stop\n        /* \"abstract/Ownable.sol\":1289:1376  function owner() public view virtual returns (address) {... */\n    tag_6:\n      tag_21\n      tag_22\n      jump\t// in\n    tag_21:\n      mload(0x40)\n      tag_23\n      swap2\n      swap1\n      tag_24\n      jump\t// in\n    tag_23:\n      mload(0x40)\n      dup1\n      swap2\n      sub\n      swap1\n      return\n        /* \"database/farmer/FarmerDatabase.sol\":836:1006  function addFarmer(Farmer memory farmer) public onlyPermissions {... */\n    tag_7:\n      tag_25\n      0x04\n      dup1\n      calldatasize\n      sub\n      dup2\n      add\n      swap1\n      tag_26\n      swap2\n      swap1\n      tag_27\n      jump\t// in\n    tag_26:\n      tag_28\n      jump\t// in\n    tag_25:\n      stop\n        /* \"database/farmer/FarmerDatabase.sol\":1014:1131  function addChecked(uint256 farmerId) public onlyPermissions {... */\n    tag_8:\n      tag_29\n      0x04\n      dup1\n      calldatasize\n      sub\n      dup2\n      add\n      swap1\n      tag_30\n      swap2\n      swap1\n      tag_31\n      jump\t// in\n    tag_30:\n      tag_32\n      jump\t// in\n    tag_29:\n      stop\n        /* \"abstract/Ownable.sol\":2204:2442  function transferOwnership(address newOwner) public virtual onlyOwner {... */\n    tag_9:\n      tag_33\n      0x04\n      dup1\n      calldatasize\n      sub\n      dup2\n      add\n      swap1\n      tag_34\n      swap2\n      swap1\n      tag_17\n      jump\t// in\n    tag_34:\n      tag_35\n      jump\t// in\n    tag_33:\n      stop\n        /* \"database/farmer/FarmerDatabase.sol\":1139:1288  function getAllFarmer()... */\n    tag_12:\n        /* \"database/farmer/FarmerDatabase.sol\":1236:1251  Farmer[] memory */\n      0x60\n        /* \"database/farmer/FarmerDatabase.sol\":405:416  permissions */\n      0x03\n        /* \"database/farmer/FarmerDatabase.sol\":405:430  permissions[_msgSender()] */\n      0x00\n        /* \"database/farmer/FarmerDatabase.sol\":417:429  _msgSender() */\n      tag_37\n        /* \"database/farmer/FarmerDatabase.sol\":417:427  _msgSender */\n      tag_38\n        /* \"database/farmer/FarmerDatabase.sol\":417:429  _msgSender() */\n      jump\t// in\n    tag_37:\n        /* \"database/farmer/FarmerDatabase.sol\":405:430  permissions[_msgSender()] */\n      0xffffffffffffffffffffffffffffffffffffffff\n      and\n      0xffffffffffffffffffffffffffffffffffffffff\n      and\n      dup2\n      mstore\n      0x20\n      add\n      swap1\n      dup2\n      mstore\n      0x20\n      add\n      0x00\n      keccak256\n      0x00\n      swap1\n      sload\n      swap1\n      0x0100\n      exp\n      swap1\n      div\n      0xff\n      and\n        /* \"database/farmer/FarmerDatabase.sol\":383:505  require(... */\n      tag_39\n      jumpi\n      mload(0x40)\n      0x08c379a000000000000000000000000000000000000000000000000000000000\n      dup2\n      mstore\n      0x04\n      add\n      tag_40\n      swap1\n      tag_41\n      jump\t// in\n    tag_40:\n      mload(0x40)\n      dup1\n      swap2\n      sub\n      swap1\n      revert\n    tag_39:\n        /* \"database/farmer/FarmerDatabase.sol\":1276:1280  list */\n      0x01\n        /* \"database/farmer/FarmerDatabase.sol\":1269:1280  return list */\n      dup1\n      sload\n      dup1\n      0x20\n      mul\n      0x20\n      add\n      mload(0x40)\n      swap1\n      dup2\n      add\n      0x40\n      mstore\n      dup1\n      swap3\n      swap2\n      swap1\n      dup2\n      dup2\n      mstore\n      0x20\n      add\n      0x00\n      swap1\n    tag_43:\n      dup3\n      dup3\n      lt\n      iszero\n      tag_44\n      jumpi\n      dup4\n      dup3\n      swap1\n      0x00\n      mstore\n      keccak256(0x00, 0x20)\n      swap1\n      0x06\n      mul\n      add\n      mload(0x40)\n      dup1\n      0xc0\n      add\n      0x40\n      mstore\n      swap1\n      dup2\n      0x00\n      dup3\n      add\n      sload\n      dup2\n      mstore\n      0x20\n      add\n      0x01\n      dup3\n      add\n      sload\n      dup2\n      mstore\n      0x20\n      add\n      0x02\n      dup3\n      add\n      dup1\n      sload\n      tag_46\n      swap1\n      tag_47\n      jump\t// in\n    tag_46:\n      dup1\n      0x1f\n      add\n      0x20\n      dup1\n      swap2\n      div\n      mul\n      0x20\n      add\n      mload(0x40)\n      swap1\n      dup2\n      add\n      0x40\n      mstore\n      dup1\n      swap3\n      swap2\n      swap1\n      dup2\n      dup2\n      mstore\n      0x20\n      add\n      dup3\n      dup1\n      sload\n      tag_48\n      swap1\n      tag_47\n      jump\t// in\n    tag_48:\n      dup1\n      iszero\n      tag_49\n      jumpi\n      dup1\n      0x1f\n      lt\n      tag_50\n      jumpi\n      0x0100\n      dup1\n      dup4\n      sload\n      div\n      mul\n      dup4\n      mstore\n      swap2\n      0x20\n      add\n      swap2\n      jump(tag_49)\n    tag_50:\n      dup3\n      add\n      swap2\n      swap1\n      0x00\n      mstore\n      keccak256(0x00, 0x20)\n      swap1\n    tag_51:\n      dup2\n      sload\n      dup2\n      mstore\n      swap1\n      0x01\n      add\n      swap1\n      0x20\n      add\n      dup1\n      dup4\n      gt\n      tag_51\n      jumpi\n      dup3\n      swap1\n      sub\n      0x1f\n      and\n      dup3\n      add\n      swap2\n    tag_49:\n      pop\n      pop\n      pop\n      pop\n      pop\n      dup2\n      mstore\n      0x20\n      add\n      0x03\n      dup3\n      add\n      dup1\n      sload\n      tag_52\n      swap1\n      tag_47\n      jump\t// in\n    tag_52:\n      dup1\n      0x1f\n      add\n      0x20\n      dup1\n      swap2\n      div\n      mul\n      0x20\n      add\n      mload(0x40)\n      swap1\n      dup2\n      add\n      0x40\n      mstore\n      dup1\n      swap3\n      swap2\n      swap1\n      dup2\n      dup2\n      mstore\n      0x20\n      add\n      dup3\n      dup1\n      sload\n      tag_53\n      swap1\n      tag_47\n      jump\t// in\n    tag_53:\n      dup1\n      iszero\n      tag_54\n      jumpi\n      dup1\n      0x1f\n      lt\n      tag_55\n      jumpi\n      0x0100\n      dup1\n      dup4\n      sload\n      div\n      mul\n      dup4\n      mstore\n      swap2\n      0x20\n      add\n      swap2\n      jump(tag_54)\n    tag_55:\n      dup3\n      add\n      swap2\n      swap1\n      0x00\n      mstore\n      keccak256(0x00, 0x20)\n      swap1\n    tag_56:\n      dup2\n      sload\n      dup2\n      mstore\n      swap1\n      0x01\n      add\n      swap1\n      0x20\n      add\n      dup1\n      dup4\n      gt\n      tag_56\n      jumpi\n      dup3\n      swap1\n      sub\n      0x1f\n      and\n      dup3\n      add\n      swap2\n    tag_54:\n      pop\n      pop\n      pop\n      pop\n      pop\n      dup2\n      mstore\n      0x20\n      add\n      0x04\n      dup3\n      add\n      dup1\n      sload\n      tag_57\n      swap1\n      tag_47\n      jump\t// in\n    tag_57:\n      dup1\n      0x1f\n      add\n      0x20\n      dup1\n      swap2\n      div\n      mul\n      0x20\n      add\n      mload(0x40)\n      swap1\n      dup2\n      add\n      0x40\n      mstore\n      dup1\n      swap3\n      swap2\n      swap1\n      dup2\n      dup2\n      mstore\n      0x20\n      add\n      dup3\n      dup1\n      sload\n      tag_58\n      swap1\n      tag_47\n      jump\t// in\n    tag_58:\n      dup1\n      iszero\n      tag_59\n      jumpi\n      dup1\n      0x1f\n      lt\n      tag_60\n      jumpi\n      0x0100\n      dup1\n      dup4\n      sload\n      div\n      mul\n      dup4\n      mstore\n      swap2\n      0x20\n      add\n      swap2\n      jump(tag_59)\n    tag_60:\n      dup3\n      add\n      swap2\n      swap1\n      0x00\n      mstore\n      keccak256(0x00, 0x20)\n      swap1\n    tag_61:\n      dup2\n      sload\n      dup2\n      mstore\n      swap1\n      0x01\n      add\n      swap1\n      0x20\n      add\n      dup1\n      dup4\n      gt\n      tag_61\n      jumpi\n      dup3\n      swap1\n      sub\n      0x1f\n      and\n      dup3\n      add\n      swap2\n    tag_59:\n      pop\n      pop\n      pop\n      pop\n      pop\n      dup2\n      mstore\n      0x20\n      add\n      0x05\n      dup3\n      add\n      0x00\n      swap1\n      sload\n      swap1\n      0x0100\n      exp\n      swap1\n      div\n      0xff\n      and\n      iszero\n      iszero\n      iszero\n      iszero\n      dup2\n      mstore\n      pop\n      pop\n      dup2\n      mstore\n      0x20\n      add\n      swap1\n      0x01\n      add\n      swap1\n      jump(tag_43)\n    tag_44:\n      pop\n      pop\n      pop\n      pop\n      swap1\n      pop\n        /* \"database/farmer/FarmerDatabase.sol\":1139:1288  function getAllFarmer()... */\n      swap1\n      jump\t// out\n        /* \"database/farmer/FarmerDatabase.sol\":567:828  function addPermission(address contractPermission) public onlyOwner {... */\n    tag_18:\n        /* \"abstract/Ownable.sol\":1175:1188  _checkOwner() */\n      tag_63\n        /* \"abstract/Ownable.sol\":1175:1186  _checkOwner */\n      tag_64\n        /* \"abstract/Ownable.sol\":1175:1188  _checkOwner() */\n      jump\t// in\n    tag_63:\n        /* \"database/farmer/FarmerDatabase.sol\":669:680  permissions */\n      0x03\n        /* \"database/farmer/FarmerDatabase.sol\":669:700  permissions[contractPermission] */\n      0x00\n        /* \"database/farmer/FarmerDatabase.sol\":681:699  contractPermission */\n      dup3\n        /* \"database/farmer/FarmerDatabase.sol\":669:700  permissions[contractPermission] */\n      0xffffffffffffffffffffffffffffffffffffffff\n      and\n      0xffffffffffffffffffffffffffffffffffffffff\n      and\n      dup2\n      mstore\n      0x20\n      add\n      swap1\n      dup2\n      mstore\n      0x20\n      add\n      0x00\n      keccak256\n      0x00\n      swap1\n      sload\n      swap1\n      0x0100\n      exp\n      swap1\n      div\n      0xff\n      and\n        /* \"database/farmer/FarmerDatabase.sol\":668:700  !permissions[contractPermission] */\n      iszero\n        /* \"database/farmer/FarmerDatabase.sol\":646:771  require(... */\n      tag_66\n      jumpi\n      mload(0x40)\n      0x08c379a000000000000000000000000000000000000000000000000000000000\n      dup2\n      mstore\n      0x04\n      add\n      tag_67\n      swap1\n      tag_68\n      jump\t// in\n    tag_67:\n      mload(0x40)\n      dup1\n      swap2\n      sub\n      swap1\n      revert\n    tag_66:\n        /* \"database/farmer/FarmerDatabase.sol\":816:820  true */\n      0x01\n        /* \"database/farmer/FarmerDatabase.sol\":782:793  permissions */\n      0x03\n        /* \"database/farmer/FarmerDatabase.sol\":782:813  permissions[contractPermission] */\n      0x00\n        /* \"database/farmer/FarmerDatabase.sol\":794:812  contractPermission */\n      dup4\n        /* \"database/farmer/FarmerDatabase.sol\":782:813  permissions[contractPermission] */\n      0xffffffffffffffffffffffffffffffffffffffff\n      and\n      0xffffffffffffffffffffffffffffffffffffffff\n      and\n      dup2\n      mstore\n      0x20\n      add\n      swap1\n      dup2\n      mstore\n      0x20\n      add\n      0x00\n      keccak256\n      0x00\n        /* \"database/farmer/FarmerDatabase.sol\":782:820  permissions[contractPermission] = true */\n      0x0100\n      exp\n      dup2\n      sload\n      dup2\n      0xff\n      mul\n      not\n      and\n      swap1\n      dup4\n      iszero\n      iszero\n      mul\n      or\n      swap1\n      sstore\n      pop\n        /* \"database/farmer/FarmerDatabase.sol\":567:828  function addPermission(address contractPermission) public onlyOwner {... */\n      pop\n      jump\t// out\n        /* \"abstract/Ownable.sol\":2801:2892  function destroy() public onlyOwner {... */\n    tag_20:\n        /* \"abstract/Ownable.sol\":1175:1188  _checkOwner() */\n      tag_70\n        /* \"abstract/Ownable.sol\":1175:1186  _checkOwner */\n      tag_64\n        /* \"abstract/Ownable.sol\":1175:1188  _checkOwner() */\n      jump\t// in\n    tag_70:\n        /* \"abstract/Ownable.sol\":2877:2881  this */\n      address\n        /* \"abstract/Ownable.sol\":2848:2884  selfdestruct(payable(address(this))) */\n      0xffffffffffffffffffffffffffffffffffffffff\n      and\n      selfdestruct\n        /* \"abstract/Ownable.sol\":1289:1376  function owner() public view virtual returns (address) {... */\n    tag_22:\n        /* \"abstract/Ownable.sol\":1335:1342  address */\n      0x00\n        /* \"abstract/Ownable.sol\":1362:1368  _owner */\n      dup1\n      0x00\n      swap1\n      sload\n      swap1\n      0x0100\n      exp\n      swap1\n      div\n      0xffffffffffffffffffffffffffffffffffffffff\n      and\n        /* \"abstract/Ownable.sol\":1355:1368  return _owner */\n      swap1\n      pop\n        /* \"abstract/Ownable.sol\":1289:1376  function owner() public view virtual returns (address) {... */\n      swap1\n      jump\t// out\n        /* \"database/farmer/FarmerDatabase.sol\":836:1006  function addFarmer(Farmer memory farmer) public onlyPermissions {... */\n    tag_28:\n        /* \"database/farmer/FarmerDatabase.sol\":405:416  permissions */\n      0x03\n        /* \"database/farmer/FarmerDatabase.sol\":405:430  permissions[_msgSender()] */\n      0x00\n        /* \"database/farmer/FarmerDatabase.sol\":417:429  _msgSender() */\n      tag_74\n        /* \"database/farmer/FarmerDatabase.sol\":417:427  _msgSender */\n      tag_38\n        /* \"database/farmer/FarmerDatabase.sol\":417:429  _msgSender() */\n      jump\t// in\n    tag_74:\n        /* \"database/farmer/FarmerDatabase.sol\":405:430  permissions[_msgSender()] */\n      0xffffffffffffffffffffffffffffffffffffffff\n      and\n      0xffffffffffffffffffffffffffffffffffffffff\n      and\n      dup2\n      mstore\n      0x20\n      add\n      swap1\n      dup2\n      mstore\n      0x20\n      add\n      0x00\n      keccak256\n      0x00\n      swap1\n      sload\n      swap1\n      0x0100\n      exp\n      swap1\n      div\n      0xff\n      and\n        /* \"database/farmer/FarmerDatabase.sol\":383:505  require(... */\n      tag_75\n      jumpi\n      mload(0x40)\n      0x08c379a000000000000000000000000000000000000000000000000000000000\n      dup2\n      mstore\n      0x04\n      add\n      tag_76\n      swap1\n      tag_41\n      jump\t// in\n    tag_76:\n      mload(0x40)\n      dup1\n      swap2\n      sub\n      swap1\n      revert\n    tag_75:\n        /* \"database/farmer/FarmerDatabase.sol\":911:921  uint256 id */\n      0x00\n        /* \"database/farmer/FarmerDatabase.sol\":924:937  autoIncrement */\n      0x02\n      0x00\n        /* \"database/farmer/FarmerDatabase.sol\":924:939  autoIncrement++ */\n      dup2\n      sload\n      dup1\n      swap3\n      swap2\n      swap1\n      tag_78\n      swap1\n      tag_79\n      jump\t// in\n    tag_78:\n      swap2\n      swap1\n      pop\n      sstore\n        /* \"database/farmer/FarmerDatabase.sol\":911:939  uint256 id = autoIncrement++ */\n      swap1\n      pop\n        /* \"database/farmer/FarmerDatabase.sol\":968:970  id */\n      dup1\n        /* \"database/farmer/FarmerDatabase.sol\":950:956  farmer */\n      dup3\n        /* \"database/farmer/FarmerDatabase.sol\":950:965  farmer.farmerId */\n      0x00\n      add\n        /* \"database/farmer/FarmerDatabase.sol\":950:970  farmer.farmerId = id */\n      dup2\n      dup2\n      mstore\n      pop\n      pop\n        /* \"database/farmer/FarmerDatabase.sol\":981:985  list */\n      0x01\n        /* \"database/farmer/FarmerDatabase.sol\":991:997  farmer */\n      dup3\n        /* \"database/farmer/FarmerDatabase.sol\":981:998  list.push(farmer) */\n      swap1\n      dup1\n      0x01\n      dup2\n      sload\n      add\n      dup1\n      dup3\n      sstore\n      dup1\n      swap2\n      pop\n      pop\n      0x01\n      swap1\n      sub\n      swap1\n      0x00\n      mstore\n      keccak256(0x00, 0x20)\n      swap1\n      0x06\n      mul\n      add\n      0x00\n      swap1\n      swap2\n      swap1\n      swap2\n      swap1\n      swap2\n      pop\n      0x00\n      dup3\n      add\n      mload\n      dup2\n      0x00\n      add\n      sstore\n      0x20\n      dup3\n      add\n      mload\n      dup2\n      0x01\n      add\n      sstore\n      0x40\n      dup3\n      add\n      mload\n      dup2\n      0x02\n      add\n      swap1\n      dup2\n      tag_81\n      swap2\n      swap1\n      tag_82\n      jump\t// in\n    tag_81:\n      pop\n      0x60\n      dup3\n      add\n      mload\n      dup2\n      0x03\n      add\n      swap1\n      dup2\n      tag_83\n      swap2\n      swap1\n      tag_82\n      jump\t// in\n    tag_83:\n      pop\n      0x80\n      dup3\n      add\n      mload\n      dup2\n      0x04\n      add\n      swap1\n      dup2\n      tag_84\n      swap2\n      swap1\n      tag_82\n      jump\t// in\n    tag_84:\n      pop\n      0xa0\n      dup3\n      add\n      mload\n      dup2\n      0x05\n      add\n      exp(0x0100, 0x00)\n      dup2\n      sload\n      dup2\n      0xff\n      mul\n      not\n      and\n      swap1\n      dup4\n      iszero\n      iszero\n      mul\n      or\n      swap1\n      sstore\n      pop\n      pop\n      pop\n        /* \"database/farmer/FarmerDatabase.sol\":900:1006  {... */\n      pop\n        /* \"database/farmer/FarmerDatabase.sol\":836:1006  function addFarmer(Farmer memory farmer) public onlyPermissions {... */\n      pop\n      jump\t// out\n        /* \"database/farmer/FarmerDatabase.sol\":1014:1131  function addChecked(uint256 farmerId) public onlyPermissions {... */\n    tag_32:\n        /* \"database/farmer/FarmerDatabase.sol\":405:416  permissions */\n      0x03\n        /* \"database/farmer/FarmerDatabase.sol\":405:430  permissions[_msgSender()] */\n      0x00\n        /* \"database/farmer/FarmerDatabase.sol\":417:429  _msgSender() */\n      tag_86\n        /* \"database/farmer/FarmerDatabase.sol\":417:427  _msgSender */\n      tag_38\n        /* \"database/farmer/FarmerDatabase.sol\":417:429  _msgSender() */\n      jump\t// in\n    tag_86:\n        /* \"database/farmer/FarmerDatabase.sol\":405:430  permissions[_msgSender()] */\n      0xffffffffffffffffffffffffffffffffffffffff\n      and\n      0xffffffffffffffffffffffffffffffffffffffff\n      and\n      dup2\n      mstore\n      0x20\n      add\n      swap1\n      dup2\n      mstore\n      0x20\n      add\n      0x00\n      keccak256\n      0x00\n      swap1\n      sload\n      swap1\n      0x0100\n      exp\n      swap1\n      div\n      0xff\n      and\n        /* \"database/farmer/FarmerDatabase.sol\":383:505  require(... */\n      tag_87\n      jumpi\n      mload(0x40)\n      0x08c379a000000000000000000000000000000000000000000000000000000000\n      dup2\n      mstore\n      0x04\n      add\n      tag_88\n      swap1\n      tag_41\n      jump\t// in\n    tag_88:\n      mload(0x40)\n      dup1\n      swap2\n      sub\n      swap1\n      revert\n    tag_87:\n        /* \"database/farmer/FarmerDatabase.sol\":1119:1123  true */\n      0x01\n        /* \"database/farmer/FarmerDatabase.sol\":1086:1090  list */\n      dup1\n        /* \"database/farmer/FarmerDatabase.sol\":1091:1099  farmerId */\n      dup3\n        /* \"database/farmer/FarmerDatabase.sol\":1086:1100  list[farmerId] */\n      dup2\n      sload\n      dup2\n      lt\n      tag_90\n      jumpi\n      tag_91\n      tag_92\n      jump\t// in\n    tag_91:\n    tag_90:\n      swap1\n      0x00\n      mstore\n      keccak256(0x00, 0x20)\n      swap1\n      0x06\n      mul\n      add\n        /* \"database/farmer/FarmerDatabase.sol\":1086:1116  list[farmerId].farmerIsChecked */\n      0x05\n      add\n      0x00\n        /* \"database/farmer/FarmerDatabase.sol\":1086:1123  list[farmerId].farmerIsChecked = true */\n      0x0100\n      exp\n      dup2\n      sload\n      dup2\n      0xff\n      mul\n      not\n      and\n      swap1\n      dup4\n      iszero\n      iszero\n      mul\n      or\n      swap1\n      sstore\n      pop\n        /* \"database/farmer/FarmerDatabase.sol\":1014:1131  function addChecked(uint256 farmerId) public onlyPermissions {... */\n      pop\n      jump\t// out\n        /* \"abstract/Ownable.sol\":2204:2442  function transferOwnership(address newOwner) public virtual onlyOwner {... */\n    tag_35:\n        /* \"abstract/Ownable.sol\":1175:1188  _checkOwner() */\n      tag_95\n        /* \"abstract/Ownable.sol\":1175:1186  _checkOwner */\n      tag_64\n        /* \"abstract/Ownable.sol\":1175:1188  _checkOwner() */\n      jump\t// in\n    tag_95:\n        /* \"abstract/Ownable.sol\":2327:2328  0 */\n      0x00\n        /* \"abstract/Ownable.sol\":2307:2329  newOwner != address(0) */\n      0xffffffffffffffffffffffffffffffffffffffff\n      and\n        /* \"abstract/Ownable.sol\":2307:2315  newOwner */\n      dup2\n        /* \"abstract/Ownable.sol\":2307:2329  newOwner != address(0) */\n      0xffffffffffffffffffffffffffffffffffffffff\n      and\n      sub\n        /* \"abstract/Ownable.sol\":2285:2395  require(... */\n      tag_97\n      jumpi\n      mload(0x40)\n      0x08c379a000000000000000000000000000000000000000000000000000000000\n      dup2\n      mstore\n      0x04\n      add\n      tag_98\n      swap1\n      tag_99\n      jump\t// in\n    tag_98:\n      mload(0x40)\n      dup1\n      swap2\n      sub\n      swap1\n      revert\n    tag_97:\n        /* \"abstract/Ownable.sol\":2406:2434  _transferOwnership(newOwner) */\n      tag_100\n        /* \"abstract/Ownable.sol\":2425:2433  newOwner */\n      dup2\n        /* \"abstract/Ownable.sol\":2406:2424  _transferOwnership */\n      tag_101\n        /* \"abstract/Ownable.sol\":2406:2434  _transferOwnership(newOwner) */\n      jump\t// in\n    tag_100:\n        /* \"abstract/Ownable.sol\":2204:2442  function transferOwnership(address newOwner) public virtual onlyOwner {... */\n      pop\n      jump\t// out\n        /* \"@openzeppelin/contracts/utils/Context.sol\":640:736  function _msgSender() internal view virtual returns (address) {... */\n    tag_38:\n        /* \"@openzeppelin/contracts/utils/Context.sol\":693:700  address */\n      0x00\n        /* \"@openzeppelin/contracts/utils/Context.sol\":719:729  msg.sender */\n      caller\n        /* \"@openzeppelin/contracts/utils/Context.sol\":712:729  return msg.sender */\n      swap1\n      pop\n        /* \"@openzeppelin/contracts/utils/Context.sol\":640:736  function _msgSender() internal view virtual returns (address) {... */\n      swap1\n      jump\t// out\n        /* \"abstract/Ownable.sol\":1454:1584  function _checkOwner() internal view virtual {... */\n    tag_64:\n        /* \"abstract/Ownable.sol\":1529:1539  msg.sender */\n      caller\n        /* \"abstract/Ownable.sol\":1518:1539  owner() == msg.sender */\n      0xffffffffffffffffffffffffffffffffffffffff\n      and\n        /* \"abstract/Ownable.sol\":1518:1525  owner() */\n      tag_104\n        /* \"abstract/Ownable.sol\":1518:1523  owner */\n      tag_22\n        /* \"abstract/Ownable.sol\":1518:1525  owner() */\n      jump\t// in\n    tag_104:\n        /* \"abstract/Ownable.sol\":1518:1539  owner() == msg.sender */\n      0xffffffffffffffffffffffffffffffffffffffff\n      and\n      eq\n        /* \"abstract/Ownable.sol\":1510:1576  require(owner() == msg.sender, \"Ownable: caller is not the owner\") */\n      tag_105\n      jumpi\n      mload(0x40)\n      0x08c379a000000000000000000000000000000000000000000000000000000000\n      dup2\n      mstore\n      0x04\n      add\n      tag_106\n      swap1\n      tag_107\n      jump\t// in\n    tag_106:\n      mload(0x40)\n      dup1\n      swap2\n      sub\n      swap1\n      revert\n    tag_105:\n        /* \"abstract/Ownable.sol\":1454:1584  function _checkOwner() internal view virtual {... */\n      jump\t// out\n        /* \"abstract/Ownable.sol\":2602:2793  function _transferOwnership(address newOwner) internal virtual {... */\n    tag_101:\n        /* \"abstract/Ownable.sol\":2676:2692  address oldOwner */\n      0x00\n        /* \"abstract/Ownable.sol\":2695:2701  _owner */\n      dup1\n      0x00\n      swap1\n      sload\n      swap1\n      0x0100\n      exp\n      swap1\n      div\n      0xffffffffffffffffffffffffffffffffffffffff\n      and\n        /* \"abstract/Ownable.sol\":2676:2701  address oldOwner = _owner */\n      swap1\n      pop\n        /* \"abstract/Ownable.sol\":2721:2729  newOwner */\n      dup2\n        /* \"abstract/Ownable.sol\":2712:2718  _owner */\n      0x00\n      dup1\n        /* \"abstract/Ownable.sol\":2712:2729  _owner = newOwner */\n      0x0100\n      exp\n      dup2\n      sload\n      dup2\n      0xffffffffffffffffffffffffffffffffffffffff\n      mul\n      not\n      and\n      swap1\n      dup4\n      0xffffffffffffffffffffffffffffffffffffffff\n      and\n      mul\n      or\n      swap1\n      sstore\n      pop\n        /* \"abstract/Ownable.sol\":2776:2784  newOwner */\n      dup2\n        /* \"abstract/Ownable.sol\":2745:2785  OwnershipTransferred(oldOwner, newOwner) */\n      0xffffffffffffffffffffffffffffffffffffffff\n      and\n        /* \"abstract/Ownable.sol\":2766:2774  oldOwner */\n      dup2\n        /* \"abstract/Ownable.sol\":2745:2785  OwnershipTransferred(oldOwner, newOwner) */\n      0xffffffffffffffffffffffffffffffffffffffff\n      and\n      0x8be0079c531659141344cd1fd0a4f28419497f9722a3daafe3b4186f6b6457e0\n      mload(0x40)\n      mload(0x40)\n      dup1\n      swap2\n      sub\n      swap1\n      log3\n        /* \"abstract/Ownable.sol\":2665:2793  {... */\n      pop\n        /* \"abstract/Ownable.sol\":2602:2793  function _transferOwnership(address newOwner) internal virtual {... */\n      pop\n      jump\t// out\n        /* \"#utility.yul\":7:144   */\n    tag_109:\n        /* \"#utility.yul\":97:103   */\n      0x00\n        /* \"#utility.yul\":131:136   */\n      dup2\n        /* \"#utility.yul\":125:137   */\n      mload\n        /* \"#utility.yul\":115:137   */\n      swap1\n      pop\n        /* \"#utility.yul\":7:144   */\n      swap2\n      swap1\n      pop\n      jump\t// out\n        /* \"#utility.yul\":150:357   */\n    tag_110:\n        /* \"#utility.yul\":272:283   */\n      0x00\n        /* \"#utility.yul\":306:312   */\n      dup3\n        /* \"#utility.yul\":301:304   */\n      dup3\n        /* \"#utility.yul\":294:313   */\n      mstore\n        /* \"#utility.yul\":346:350   */\n      0x20\n        /* \"#utility.yul\":341:344   */\n      dup3\n        /* \"#utility.yul\":337:351   */\n      add\n        /* \"#utility.yul\":322:351   */\n      swap1\n      pop\n        /* \"#utility.yul\":150:357   */\n      swap3\n      swap2\n      pop\n      pop\n      jump\t// out\n        /* \"#utility.yul\":363:518   */\n    tag_111:\n        /* \"#utility.yul\":453:457   */\n      0x00\n        /* \"#utility.yul\":476:479   */\n      dup2\n        /* \"#utility.yul\":468:479   */\n      swap1\n      pop\n        /* \"#utility.yul\":506:510   */\n      0x20\n        /* \"#utility.yul\":501:504   */\n      dup3\n        /* \"#utility.yul\":497:511   */\n      add\n        /* \"#utility.yul\":489:511   */\n      swap1\n      pop\n        /* \"#utility.yul\":363:518   */\n      swap2\n      swap1\n      pop\n      jump\t// out\n        /* \"#utility.yul\":524:601   */\n    tag_112:\n        /* \"#utility.yul\":561:568   */\n      0x00\n        /* \"#utility.yul\":590:595   */\n      dup2\n        /* \"#utility.yul\":579:595   */\n      swap1\n      pop\n        /* \"#utility.yul\":524:601   */\n      swap2\n      swap1\n      pop\n      jump\t// out\n        /* \"#utility.yul\":607:715   */\n    tag_113:\n        /* \"#utility.yul\":684:708   */\n      tag_181\n        /* \"#utility.yul\":702:707   */\n      dup2\n        /* \"#utility.yul\":684:708   */\n      tag_112\n      jump\t// in\n    tag_181:\n        /* \"#utility.yul\":679:682   */\n      dup3\n        /* \"#utility.yul\":672:709   */\n      mstore\n        /* \"#utility.yul\":607:715   */\n      pop\n      pop\n      jump\t// out\n        /* \"#utility.yul\":721:820   */\n    tag_114:\n        /* \"#utility.yul\":773:779   */\n      0x00\n        /* \"#utility.yul\":807:812   */\n      dup2\n        /* \"#utility.yul\":801:813   */\n      mload\n        /* \"#utility.yul\":791:813   */\n      swap1\n      pop\n        /* \"#utility.yul\":721:820   */\n      swap2\n      swap1\n      pop\n      jump\t// out\n        /* \"#utility.yul\":826:985   */\n    tag_115:\n        /* \"#utility.yul\":900:911   */\n      0x00\n        /* \"#utility.yul\":934:940   */\n      dup3\n        /* \"#utility.yul\":929:932   */\n      dup3\n        /* \"#utility.yul\":922:941   */\n      mstore\n        /* \"#utility.yul\":974:978   */\n      0x20\n        /* \"#utility.yul\":969:972   */\n      dup3\n        /* \"#utility.yul\":965:979   */\n      add\n        /* \"#utility.yul\":950:979   */\n      swap1\n      pop\n        /* \"#utility.yul\":826:985   */\n      swap3\n      swap2\n      pop\n      pop\n      jump\t// out\n        /* \"#utility.yul\":991:1237   */\n    tag_116:\n        /* \"#utility.yul\":1072:1073   */\n      0x00\n        /* \"#utility.yul\":1082:1195   */\n    tag_185:\n        /* \"#utility.yul\":1096:1102   */\n      dup4\n        /* \"#utility.yul\":1093:1094   */\n      dup2\n        /* \"#utility.yul\":1090:1103   */\n      lt\n        /* \"#utility.yul\":1082:1195   */\n      iszero\n      tag_187\n      jumpi\n        /* \"#utility.yul\":1181:1182   */\n      dup1\n        /* \"#utility.yul\":1176:1179   */\n      dup3\n        /* \"#utility.yul\":1172:1183   */\n      add\n        /* \"#utility.yul\":1166:1184   */\n      mload\n        /* \"#utility.yul\":1162:1163   */\n      dup2\n        /* \"#utility.yul\":1157:1160   */\n      dup5\n        /* \"#utility.yul\":1153:1164   */\n      add\n        /* \"#utility.yul\":1146:1185   */\n      mstore\n        /* \"#utility.yul\":1118:1120   */\n      0x20\n        /* \"#utility.yul\":1115:1116   */\n      dup2\n        /* \"#utility.yul\":1111:1121   */\n      add\n        /* \"#utility.yul\":1106:1121   */\n      swap1\n      pop\n        /* \"#utility.yul\":1082:1195   */\n      jump(tag_185)\n    tag_187:\n        /* \"#utility.yul\":1229:1230   */\n      0x00\n        /* \"#utility.yul\":1220:1226   */\n      dup5\n        /* \"#utility.yul\":1215:1218   */\n      dup5\n        /* \"#utility.yul\":1211:1227   */\n      add\n        /* \"#utility.yul\":1204:1231   */\n      mstore\n        /* \"#utility.yul\":1053:1237   */\n      pop\n        /* \"#utility.yul\":991:1237   */\n      pop\n      pop\n      pop\n      jump\t// out\n        /* \"#utility.yul\":1243:1345   */\n    tag_117:\n        /* \"#utility.yul\":1284:1290   */\n      0x00\n        /* \"#utility.yul\":1335:1337   */\n      0x1f\n        /* \"#utility.yul\":1331:1338   */\n      not\n        /* \"#utility.yul\":1326:1328   */\n      0x1f\n        /* \"#utility.yul\":1319:1324   */\n      dup4\n        /* \"#utility.yul\":1315:1329   */\n      add\n        /* \"#utility.yul\":1311:1339   */\n      and\n        /* \"#utility.yul\":1301:1339   */\n      swap1\n      pop\n        /* \"#utility.yul\":1243:1345   */\n      swap2\n      swap1\n      pop\n      jump\t// out\n        /* \"#utility.yul\":1351:1708   */\n    tag_118:\n        /* \"#utility.yul\":1429:1432   */\n      0x00\n        /* \"#utility.yul\":1457:1496   */\n      tag_190\n        /* \"#utility.yul\":1490:1495   */\n      dup3\n        /* \"#utility.yul\":1457:1496   */\n      tag_114\n      jump\t// in\n    tag_190:\n        /* \"#utility.yul\":1512:1573   */\n      tag_191\n        /* \"#utility.yul\":1566:1572   */\n      dup2\n        /* \"#utility.yul\":1561:1564   */\n      dup6\n        /* \"#utility.yul\":1512:1573   */\n      tag_115\n      jump\t// in\n    tag_191:\n        /* \"#utility.yul\":1505:1573   */\n      swap4\n      pop\n        /* \"#utility.yul\":1582:1647   */\n      tag_192\n        /* \"#utility.yul\":1640:1646   */\n      dup2\n        /* \"#utility.yul\":1635:1638   */\n      dup6\n        /* \"#utility.yul\":1628:1632   */\n      0x20\n        /* \"#utility.yul\":1621:1626   */\n      dup7\n        /* \"#utility.yul\":1617:1633   */\n      add\n        /* \"#utility.yul\":1582:1647   */\n      tag_116\n      jump\t// in\n    tag_192:\n        /* \"#utility.yul\":1672:1701   */\n      tag_193\n        /* \"#utility.yul\":1694:1700   */\n      dup2\n        /* \"#utility.yul\":1672:1701   */\n      tag_117\n      jump\t// in\n    tag_193:\n        /* \"#utility.yul\":1667:1670   */\n      dup5\n        /* \"#utility.yul\":1663:1702   */\n      add\n        /* \"#utility.yul\":1656:1702   */\n      swap2\n      pop\n        /* \"#utility.yul\":1433:1708   */\n      pop\n        /* \"#utility.yul\":1351:1708   */\n      swap3\n      swap2\n      pop\n      pop\n      jump\t// out\n        /* \"#utility.yul\":1714:1804   */\n    tag_119:\n        /* \"#utility.yul\":1748:1755   */\n      0x00\n        /* \"#utility.yul\":1791:1796   */\n      dup2\n        /* \"#utility.yul\":1784:1797   */\n      iszero\n        /* \"#utility.yul\":1777:1798   */\n      iszero\n        /* \"#utility.yul\":1766:1798   */\n      swap1\n      pop\n        /* \"#utility.yul\":1714:1804   */\n      swap2\n      swap1\n      pop\n      jump\t// out\n        /* \"#utility.yul\":1810:1909   */\n    tag_120:\n        /* \"#utility.yul\":1881:1902   */\n      tag_196\n        /* \"#utility.yul\":1896:1901   */\n      dup2\n        /* \"#utility.yul\":1881:1902   */\n      tag_119\n      jump\t// in\n    tag_196:\n        /* \"#utility.yul\":1876:1879   */\n      dup3\n        /* \"#utility.yul\":1869:1903   */\n      mstore\n        /* \"#utility.yul\":1810:1909   */\n      pop\n      pop\n      jump\t// out\n        /* \"#utility.yul\":1953:3420   */\n    tag_121:\n        /* \"#utility.yul\":2058:2061   */\n      0x00\n        /* \"#utility.yul\":2094:2098   */\n      0xc0\n        /* \"#utility.yul\":2089:2092   */\n      dup4\n        /* \"#utility.yul\":2085:2099   */\n      add\n        /* \"#utility.yul\":2185:2189   */\n      0x00\n        /* \"#utility.yul\":2178:2183   */\n      dup4\n        /* \"#utility.yul\":2174:2190   */\n      add\n        /* \"#utility.yul\":2168:2191   */\n      mload\n        /* \"#utility.yul\":2204:2267   */\n      tag_198\n        /* \"#utility.yul\":2261:2265   */\n      0x00\n        /* \"#utility.yul\":2256:2259   */\n      dup7\n        /* \"#utility.yul\":2252:2266   */\n      add\n        /* \"#utility.yul\":2238:2250   */\n      dup3\n        /* \"#utility.yul\":2204:2267   */\n      tag_113\n      jump\t// in\n    tag_198:\n        /* \"#utility.yul\":2109:2277   */\n      pop\n        /* \"#utility.yul\":2365:2369   */\n      0x20\n        /* \"#utility.yul\":2358:2363   */\n      dup4\n        /* \"#utility.yul\":2354:2370   */\n      add\n        /* \"#utility.yul\":2348:2371   */\n      mload\n        /* \"#utility.yul\":2384:2447   */\n      tag_199\n        /* \"#utility.yul\":2441:2445   */\n      0x20\n        /* \"#utility.yul\":2436:2439   */\n      dup7\n        /* \"#utility.yul\":2432:2446   */\n      add\n        /* \"#utility.yul\":2418:2430   */\n      dup3\n        /* \"#utility.yul\":2384:2447   */\n      tag_113\n      jump\t// in\n    tag_199:\n        /* \"#utility.yul\":2287:2457   */\n      pop\n        /* \"#utility.yul\":2545:2549   */\n      0x40\n        /* \"#utility.yul\":2538:2543   */\n      dup4\n        /* \"#utility.yul\":2534:2550   */\n      add\n        /* \"#utility.yul\":2528:2551   */\n      mload\n        /* \"#utility.yul\":2598:2601   */\n      dup5\n        /* \"#utility.yul\":2592:2596   */\n      dup3\n        /* \"#utility.yul\":2588:2602   */\n      sub\n        /* \"#utility.yul\":2581:2585   */\n      0x40\n        /* \"#utility.yul\":2576:2579   */\n      dup7\n        /* \"#utility.yul\":2572:2586   */\n      add\n        /* \"#utility.yul\":2565:2603   */\n      mstore\n        /* \"#utility.yul\":2624:2697   */\n      tag_200\n        /* \"#utility.yul\":2692:2696   */\n      dup3\n        /* \"#utility.yul\":2678:2690   */\n      dup3\n        /* \"#utility.yul\":2624:2697   */\n      tag_118\n      jump\t// in\n    tag_200:\n        /* \"#utility.yul\":2616:2697   */\n      swap2\n      pop\n        /* \"#utility.yul\":2467:2708   */\n      pop\n        /* \"#utility.yul\":2797:2801   */\n      0x60\n        /* \"#utility.yul\":2790:2795   */\n      dup4\n        /* \"#utility.yul\":2786:2802   */\n      add\n        /* \"#utility.yul\":2780:2803   */\n      mload\n        /* \"#utility.yul\":2850:2853   */\n      dup5\n        /* \"#utility.yul\":2844:2848   */\n      dup3\n        /* \"#utility.yul\":2840:2854   */\n      sub\n        /* \"#utility.yul\":2833:2837   */\n      0x60\n        /* \"#utility.yul\":2828:2831   */\n      dup7\n        /* \"#utility.yul\":2824:2838   */\n      add\n        /* \"#utility.yul\":2817:2855   */\n      mstore\n        /* \"#utility.yul\":2876:2949   */\n      tag_201\n        /* \"#utility.yul\":2944:2948   */\n      dup3\n        /* \"#utility.yul\":2930:2942   */\n      dup3\n        /* \"#utility.yul\":2876:2949   */\n      tag_118\n      jump\t// in\n    tag_201:\n        /* \"#utility.yul\":2868:2949   */\n      swap2\n      pop\n        /* \"#utility.yul\":2718:2960   */\n      pop\n        /* \"#utility.yul\":3051:3055   */\n      0x80\n        /* \"#utility.yul\":3044:3049   */\n      dup4\n        /* \"#utility.yul\":3040:3056   */\n      add\n        /* \"#utility.yul\":3034:3057   */\n      mload\n        /* \"#utility.yul\":3104:3107   */\n      dup5\n        /* \"#utility.yul\":3098:3102   */\n      dup3\n        /* \"#utility.yul\":3094:3108   */\n      sub\n        /* \"#utility.yul\":3087:3091   */\n      0x80\n        /* \"#utility.yul\":3082:3085   */\n      dup7\n        /* \"#utility.yul\":3078:3092   */\n      add\n        /* \"#utility.yul\":3071:3109   */\n      mstore\n        /* \"#utility.yul\":3130:3203   */\n      tag_202\n        /* \"#utility.yul\":3198:3202   */\n      dup3\n        /* \"#utility.yul\":3184:3196   */\n      dup3\n        /* \"#utility.yul\":3130:3203   */\n      tag_118\n      jump\t// in\n    tag_202:\n        /* \"#utility.yul\":3122:3203   */\n      swap2\n      pop\n        /* \"#utility.yul\":2970:3214   */\n      pop\n        /* \"#utility.yul\":3307:3311   */\n      0xa0\n        /* \"#utility.yul\":3300:3305   */\n      dup4\n        /* \"#utility.yul\":3296:3312   */\n      add\n        /* \"#utility.yul\":3290:3313   */\n      mload\n        /* \"#utility.yul\":3326:3383   */\n      tag_203\n        /* \"#utility.yul\":3377:3381   */\n      0xa0\n        /* \"#utility.yul\":3372:3375   */\n      dup7\n        /* \"#utility.yul\":3368:3382   */\n      add\n        /* \"#utility.yul\":3354:3366   */\n      dup3\n        /* \"#utility.yul\":3326:3383   */\n      tag_120\n      jump\t// in\n    tag_203:\n        /* \"#utility.yul\":3224:3393   */\n      pop\n        /* \"#utility.yul\":3410:3414   */\n      dup1\n        /* \"#utility.yul\":3403:3414   */\n      swap2\n      pop\n        /* \"#utility.yul\":2063:3420   */\n      pop\n        /* \"#utility.yul\":1953:3420   */\n      swap3\n      swap2\n      pop\n      pop\n      jump\t// out\n        /* \"#utility.yul\":3426:3674   */\n    tag_122:\n        /* \"#utility.yul\":3541:3551   */\n      0x00\n        /* \"#utility.yul\":3576:3668   */\n      tag_205\n        /* \"#utility.yul\":3664:3667   */\n      dup4\n        /* \"#utility.yul\":3656:3662   */\n      dup4\n        /* \"#utility.yul\":3576:3668   */\n      tag_121\n      jump\t// in\n    tag_205:\n        /* \"#utility.yul\":3562:3668   */\n      swap1\n      pop\n        /* \"#utility.yul\":3426:3674   */\n      swap3\n      swap2\n      pop\n      pop\n      jump\t// out\n        /* \"#utility.yul\":3680:3816   */\n    tag_123:\n        /* \"#utility.yul\":3773:3777   */\n      0x00\n        /* \"#utility.yul\":3805:3809   */\n      0x20\n        /* \"#utility.yul\":3800:3803   */\n      dup3\n        /* \"#utility.yul\":3796:3810   */\n      add\n        /* \"#utility.yul\":3788:3810   */\n      swap1\n      pop\n        /* \"#utility.yul\":3680:3816   */\n      swap2\n      swap1\n      pop\n      jump\t// out\n        /* \"#utility.yul\":3864:4959   */\n    tag_124:\n        /* \"#utility.yul\":4029:4032   */\n      0x00\n        /* \"#utility.yul\":4058:4135   */\n      tag_208\n        /* \"#utility.yul\":4129:4134   */\n      dup3\n        /* \"#utility.yul\":4058:4135   */\n      tag_109\n      jump\t// in\n    tag_208:\n        /* \"#utility.yul\":4151:4260   */\n      tag_209\n        /* \"#utility.yul\":4253:4259   */\n      dup2\n        /* \"#utility.yul\":4248:4251   */\n      dup6\n        /* \"#utility.yul\":4151:4260   */\n      tag_110\n      jump\t// in\n    tag_209:\n        /* \"#utility.yul\":4144:4260   */\n      swap4\n      pop\n        /* \"#utility.yul\":4286:4289   */\n      dup4\n        /* \"#utility.yul\":4331:4335   */\n      0x20\n        /* \"#utility.yul\":4323:4329   */\n      dup3\n        /* \"#utility.yul\":4319:4336   */\n      mul\n        /* \"#utility.yul\":4314:4317   */\n      dup6\n        /* \"#utility.yul\":4310:4337   */\n      add\n        /* \"#utility.yul\":4361:4440   */\n      tag_210\n        /* \"#utility.yul\":4434:4439   */\n      dup6\n        /* \"#utility.yul\":4361:4440   */\n      tag_111\n      jump\t// in\n    tag_210:\n        /* \"#utility.yul\":4463:4470   */\n      dup1\n        /* \"#utility.yul\":4494:4495   */\n      0x00\n        /* \"#utility.yul\":4479:4914   */\n    tag_211:\n        /* \"#utility.yul\":4504:4510   */\n      dup6\n        /* \"#utility.yul\":4501:4502   */\n      dup2\n        /* \"#utility.yul\":4498:4511   */\n      lt\n        /* \"#utility.yul\":4479:4914   */\n      iszero\n      tag_213\n      jumpi\n        /* \"#utility.yul\":4575:4584   */\n      dup5\n        /* \"#utility.yul\":4569:4573   */\n      dup5\n        /* \"#utility.yul\":4565:4585   */\n      sub\n        /* \"#utility.yul\":4560:4563   */\n      dup10\n        /* \"#utility.yul\":4553:4586   */\n      mstore\n        /* \"#utility.yul\":4626:4632   */\n      dup2\n        /* \"#utility.yul\":4620:4633   */\n      mload\n        /* \"#utility.yul\":4654:4764   */\n      tag_214\n        /* \"#utility.yul\":4759:4763   */\n      dup6\n        /* \"#utility.yul\":4744:4757   */\n      dup3\n        /* \"#utility.yul\":4654:4764   */\n      tag_122\n      jump\t// in\n    tag_214:\n        /* \"#utility.yul\":4646:4764   */\n      swap5\n      pop\n        /* \"#utility.yul\":4787:4870   */\n      tag_215\n        /* \"#utility.yul\":4863:4869   */\n      dup4\n        /* \"#utility.yul\":4787:4870   */\n      tag_123\n      jump\t// in\n    tag_215:\n        /* \"#utility.yul\":4777:4870   */\n      swap3\n      pop\n        /* \"#utility.yul\":4899:4903   */\n      0x20\n        /* \"#utility.yul\":4894:4897   */\n      dup11\n        /* \"#utility.yul\":4890:4904   */\n      add\n        /* \"#utility.yul\":4883:4904   */\n      swap10\n      pop\n        /* \"#utility.yul\":4539:4914   */\n      pop\n        /* \"#utility.yul\":4526:4527   */\n      0x01\n        /* \"#utility.yul\":4523:4524   */\n      dup2\n        /* \"#utility.yul\":4519:4528   */\n      add\n        /* \"#utility.yul\":4514:4528   */\n      swap1\n      pop\n        /* \"#utility.yul\":4479:4914   */\n      jump(tag_211)\n    tag_213:\n        /* \"#utility.yul\":4483:4497   */\n      pop\n        /* \"#utility.yul\":4930:4934   */\n      dup3\n        /* \"#utility.yul\":4923:4934   */\n      swap8\n      pop\n        /* \"#utility.yul\":4950:4953   */\n      dup8\n        /* \"#utility.yul\":4943:4953   */\n      swap6\n      pop\n        /* \"#utility.yul\":4034:4959   */\n      pop\n      pop\n      pop\n      pop\n      pop\n        /* \"#utility.yul\":3864:4959   */\n      swap3\n      swap2\n      pop\n      pop\n      jump\t// out\n        /* \"#utility.yul\":4965:5430   */\n    tag_14:\n        /* \"#utility.yul\":5154:5158   */\n      0x00\n        /* \"#utility.yul\":5192:5194   */\n      0x20\n        /* \"#utility.yul\":5181:5190   */\n      dup3\n        /* \"#utility.yul\":5177:5195   */\n      add\n        /* \"#utility.yul\":5169:5195   */\n      swap1\n      pop\n        /* \"#utility.yul\":5241:5250   */\n      dup2\n        /* \"#utility.yul\":5235:5239   */\n      dup2\n        /* \"#utility.yul\":5231:5251   */\n      sub\n        /* \"#utility.yul\":5227:5228   */\n      0x00\n        /* \"#utility.yul\":5216:5225   */\n      dup4\n        /* \"#utility.yul\":5212:5229   */\n      add\n        /* \"#utility.yul\":5205:5252   */\n      mstore\n        /* \"#utility.yul\":5269:5423   */\n      tag_217\n        /* \"#utility.yul\":5418:5422   */\n      dup2\n        /* \"#utility.yul\":5409:5415   */\n      dup5\n        /* \"#utility.yul\":5269:5423   */\n      tag_124\n      jump\t// in\n    tag_217:\n        /* \"#utility.yul\":5261:5423   */\n      swap1\n      pop\n        /* \"#utility.yul\":4965:5430   */\n      swap3\n      swap2\n      pop\n      pop\n      jump\t// out\n        /* \"#utility.yul\":5436:5511   */\n    tag_125:\n        /* \"#utility.yul\":5469:5475   */\n      0x00\n        /* \"#utility.yul\":5502:5504   */\n      0x40\n        /* \"#utility.yul\":5496:5505   */\n      mload\n        /* \"#utility.yul\":5486:5505   */\n      swap1\n      pop\n        /* \"#utility.yul\":5436:5511   */\n      swap1\n      jump\t// out\n        /* \"#utility.yul\":5517:5634   */\n    tag_126:\n        /* \"#utility.yul\":5626:5627   */\n      0x00\n        /* \"#utility.yul\":5623:5624   */\n      dup1\n        /* \"#utility.yul\":5616:5628   */\n      revert\n        /* \"#utility.yul\":5640:5757   */\n    tag_127:\n        /* \"#utility.yul\":5749:5750   */\n      0x00\n        /* \"#utility.yul\":5746:5747   */\n      dup1\n        /* \"#utility.yul\":5739:5751   */\n      revert\n        /* \"#utility.yul\":5763:5889   */\n    tag_128:\n        /* \"#utility.yul\":5800:5807   */\n      0x00\n        /* \"#utility.yul\":5840:5882   */\n      0xffffffffffffffffffffffffffffffffffffffff\n        /* \"#utility.yul\":5833:5838   */\n      dup3\n        /* \"#utility.yul\":5829:5883   */\n      and\n        /* \"#utility.yul\":5818:5883   */\n      swap1\n      pop\n        /* \"#utility.yul\":5763:5889   */\n      swap2\n      swap1\n      pop\n      jump\t// out\n        /* \"#utility.yul\":5895:5991   */\n    tag_129:\n        /* \"#utility.yul\":5932:5939   */\n      0x00\n        /* \"#utility.yul\":5961:5985   */\n      tag_223\n        /* \"#utility.yul\":5979:5984   */\n      dup3\n        /* \"#utility.yul\":5961:5985   */\n      tag_128\n      jump\t// in\n    tag_223:\n        /* \"#utility.yul\":5950:5985   */\n      swap1\n      pop\n        /* \"#utility.yul\":5895:5991   */\n      swap2\n      swap1\n      pop\n      jump\t// out\n        /* \"#utility.yul\":5997:6119   */\n    tag_130:\n        /* \"#utility.yul\":6070:6094   */\n      tag_225\n        /* \"#utility.yul\":6088:6093   */\n      dup2\n        /* \"#utility.yul\":6070:6094   */\n      tag_129\n      jump\t// in\n    tag_225:\n        /* \"#utility.yul\":6063:6068   */\n      dup2\n        /* \"#utility.yul\":6060:6095   */\n      eq\n        /* \"#utility.yul\":6050:6113   */\n      tag_226\n      jumpi\n        /* \"#utility.yul\":6109:6110   */\n      0x00\n        /* \"#utility.yul\":6106:6107   */\n      dup1\n        /* \"#utility.yul\":6099:6111   */\n      revert\n        /* \"#utility.yul\":6050:6113   */\n    tag_226:\n        /* \"#utility.yul\":5997:6119   */\n      pop\n      jump\t// out\n        /* \"#utility.yul\":6125:6264   */\n    tag_131:\n        /* \"#utility.yul\":6171:6176   */\n      0x00\n        /* \"#utility.yul\":6209:6215   */\n      dup2\n        /* \"#utility.yul\":6196:6216   */\n      calldataload\n        /* \"#utility.yul\":6187:6216   */\n      swap1\n      pop\n        /* \"#utility.yul\":6225:6258   */\n      tag_228\n        /* \"#utility.yul\":6252:6257   */\n      dup2\n        /* \"#utility.yul\":6225:6258   */\n      tag_130\n      jump\t// in\n    tag_228:\n        /* \"#utility.yul\":6125:6264   */\n      swap3\n      swap2\n      pop\n      pop\n      jump\t// out\n        /* \"#utility.yul\":6270:6599   */\n    tag_17:\n        /* \"#utility.yul\":6329:6335   */\n      0x00\n        /* \"#utility.yul\":6378:6380   */\n      0x20\n        /* \"#utility.yul\":6366:6375   */\n      dup3\n        /* \"#utility.yul\":6357:6364   */\n      dup5\n        /* \"#utility.yul\":6353:6376   */\n      sub\n        /* \"#utility.yul\":6349:6381   */\n      slt\n        /* \"#utility.yul\":6346:6465   */\n      iszero\n      tag_230\n      jumpi\n        /* \"#utility.yul\":6384:6463   */\n      tag_231\n      tag_126\n      jump\t// in\n    tag_231:\n        /* \"#utility.yul\":6346:6465   */\n    tag_230:\n        /* \"#utility.yul\":6504:6505   */\n      0x00\n        /* \"#utility.yul\":6529:6582   */\n      tag_232\n        /* \"#utility.yul\":6574:6581   */\n      dup5\n        /* \"#utility.yul\":6565:6571   */\n      dup3\n        /* \"#utility.yul\":6554:6563   */\n      dup6\n        /* \"#utility.yul\":6550:6572   */\n      add\n        /* \"#utility.yul\":6529:6582   */\n      tag_131\n      jump\t// in\n    tag_232:\n        /* \"#utility.yul\":6519:6582   */\n      swap2\n      pop\n        /* \"#utility.yul\":6475:6592   */\n      pop\n        /* \"#utility.yul\":6270:6599   */\n      swap3\n      swap2\n      pop\n      pop\n      jump\t// out\n        /* \"#utility.yul\":6605:6723   */\n    tag_132:\n        /* \"#utility.yul\":6692:6716   */\n      tag_234\n        /* \"#utility.yul\":6710:6715   */\n      dup2\n        /* \"#utility.yul\":6692:6716   */\n      tag_129\n      jump\t// in\n    tag_234:\n        /* \"#utility.yul\":6687:6690   */\n      dup3\n        /* \"#utility.yul\":6680:6717   */\n      mstore\n        /* \"#utility.yul\":6605:6723   */\n      pop\n      pop\n      jump\t// out\n        /* \"#utility.yul\":6729:6951   */\n    tag_24:\n        /* \"#utility.yul\":6822:6826   */\n      0x00\n        /* \"#utility.yul\":6860:6862   */\n      0x20\n        /* \"#utility.yul\":6849:6858   */\n      dup3\n        /* \"#utility.yul\":6845:6863   */\n      add\n        /* \"#utility.yul\":6837:6863   */\n      swap1\n      pop\n        /* \"#utility.yul\":6873:6944   */\n      tag_236\n        /* \"#utility.yul\":6941:6942   */\n      0x00\n        /* \"#utility.yul\":6930:6939   */\n      dup4\n        /* \"#utility.yul\":6926:6943   */\n      add\n        /* \"#utility.yul\":6917:6923   */\n      dup5\n        /* \"#utility.yul\":6873:6944   */\n      tag_132\n      jump\t// in\n    tag_236:\n        /* \"#utility.yul\":6729:6951   */\n      swap3\n      swap2\n      pop\n      pop\n      jump\t// out\n        /* \"#utility.yul\":6957:7074   */\n    tag_133:\n        /* \"#utility.yul\":7066:7067   */\n      0x00\n        /* \"#utility.yul\":7063:7064   */\n      dup1\n        /* \"#utility.yul\":7056:7068   */\n      revert\n        /* \"#utility.yul\":7080:7260   */\n    tag_134:\n        /* \"#utility.yul\":7128:7205   */\n      0x4e487b7100000000000000000000000000000000000000000000000000000000\n        /* \"#utility.yul\":7125:7126   */\n      0x00\n        /* \"#utility.yul\":7118:7206   */\n      mstore\n        /* \"#utility.yul\":7225:7229   */\n      0x41\n        /* \"#utility.yul\":7222:7223   */\n      0x04\n        /* \"#utility.yul\":7215:7230   */\n      mstore\n        /* \"#utility.yul\":7249:7253   */\n      0x24\n        /* \"#utility.yul\":7246:7247   */\n      0x00\n        /* \"#utility.yul\":7239:7254   */\n      revert\n        /* \"#utility.yul\":7266:7547   */\n    tag_135:\n        /* \"#utility.yul\":7349:7376   */\n      tag_240\n        /* \"#utility.yul\":7371:7375   */\n      dup3\n        /* \"#utility.yul\":7349:7376   */\n      tag_117\n      jump\t// in\n    tag_240:\n        /* \"#utility.yul\":7341:7347   */\n      dup2\n        /* \"#utility.yul\":7337:7377   */\n      add\n        /* \"#utility.yul\":7479:7485   */\n      dup2\n        /* \"#utility.yul\":7467:7477   */\n      dup2\n        /* \"#utility.yul\":7464:7486   */\n      lt\n        /* \"#utility.yul\":7443:7461   */\n      0xffffffffffffffff\n        /* \"#utility.yul\":7431:7441   */\n      dup3\n        /* \"#utility.yul\":7428:7462   */\n      gt\n        /* \"#utility.yul\":7425:7487   */\n      or\n        /* \"#utility.yul\":7422:7510   */\n      iszero\n      tag_241\n      jumpi\n        /* \"#utility.yul\":7490:7508   */\n      tag_242\n      tag_134\n      jump\t// in\n    tag_242:\n        /* \"#utility.yul\":7422:7510   */\n    tag_241:\n        /* \"#utility.yul\":7530:7540   */\n      dup1\n        /* \"#utility.yul\":7526:7528   */\n      0x40\n        /* \"#utility.yul\":7519:7541   */\n      mstore\n        /* \"#utility.yul\":7309:7547   */\n      pop\n        /* \"#utility.yul\":7266:7547   */\n      pop\n      pop\n      jump\t// out\n        /* \"#utility.yul\":7553:7682   */\n    tag_136:\n        /* \"#utility.yul\":7587:7593   */\n      0x00\n        /* \"#utility.yul\":7614:7634   */\n      tag_244\n      tag_125\n      jump\t// in\n    tag_244:\n        /* \"#utility.yul\":7604:7634   */\n      swap1\n      pop\n        /* \"#utility.yul\":7643:7676   */\n      tag_245\n        /* \"#utility.yul\":7671:7675   */\n      dup3\n        /* \"#utility.yul\":7663:7669   */\n      dup3\n        /* \"#utility.yul\":7643:7676   */\n      tag_135\n      jump\t// in\n    tag_245:\n        /* \"#utility.yul\":7553:7682   */\n      swap2\n      swap1\n      pop\n      jump\t// out\n        /* \"#utility.yul\":7688:7805   */\n    tag_137:\n        /* \"#utility.yul\":7797:7798   */\n      0x00\n        /* \"#utility.yul\":7794:7795   */\n      dup1\n        /* \"#utility.yul\":7787:7799   */\n      revert\n        /* \"#utility.yul\":7811:7933   */\n    tag_138:\n        /* \"#utility.yul\":7884:7908   */\n      tag_248\n        /* \"#utility.yul\":7902:7907   */\n      dup2\n        /* \"#utility.yul\":7884:7908   */\n      tag_112\n      jump\t// in\n    tag_248:\n        /* \"#utility.yul\":7877:7882   */\n      dup2\n        /* \"#utility.yul\":7874:7909   */\n      eq\n        /* \"#utility.yul\":7864:7927   */\n      tag_249\n      jumpi\n        /* \"#utility.yul\":7923:7924   */\n      0x00\n        /* \"#utility.yul\":7920:7921   */\n      dup1\n        /* \"#utility.yul\":7913:7925   */\n      revert\n        /* \"#utility.yul\":7864:7927   */\n    tag_249:\n        /* \"#utility.yul\":7811:7933   */\n      pop\n      jump\t// out\n        /* \"#utility.yul\":7939:8078   */\n    tag_139:\n        /* \"#utility.yul\":7985:7990   */\n      0x00\n        /* \"#utility.yul\":8023:8029   */\n      dup2\n        /* \"#utility.yul\":8010:8030   */\n      calldataload\n        /* \"#utility.yul\":8001:8030   */\n      swap1\n      pop\n        /* \"#utility.yul\":8039:8072   */\n      tag_251\n        /* \"#utility.yul\":8066:8071   */\n      dup2\n        /* \"#utility.yul\":8039:8072   */\n      tag_138\n      jump\t// in\n    tag_251:\n        /* \"#utility.yul\":7939:8078   */\n      swap3\n      swap2\n      pop\n      pop\n      jump\t// out\n        /* \"#utility.yul\":8084:8201   */\n    tag_140:\n        /* \"#utility.yul\":8193:8194   */\n      0x00\n        /* \"#utility.yul\":8190:8191   */\n      dup1\n        /* \"#utility.yul\":8183:8195   */\n      revert\n        /* \"#utility.yul\":8207:8324   */\n    tag_141:\n        /* \"#utility.yul\":8316:8317   */\n      0x00\n        /* \"#utility.yul\":8313:8314   */\n      dup1\n        /* \"#utility.yul\":8306:8318   */\n      revert\n        /* \"#utility.yul\":8330:8638   */\n    tag_142:\n        /* \"#utility.yul\":8392:8396   */\n      0x00\n        /* \"#utility.yul\":8482:8500   */\n      0xffffffffffffffff\n        /* \"#utility.yul\":8474:8480   */\n      dup3\n        /* \"#utility.yul\":8471:8501   */\n      gt\n        /* \"#utility.yul\":8468:8524   */\n      iszero\n      tag_255\n      jumpi\n        /* \"#utility.yul\":8504:8522   */\n      tag_256\n      tag_134\n      jump\t// in\n    tag_256:\n        /* \"#utility.yul\":8468:8524   */\n    tag_255:\n        /* \"#utility.yul\":8542:8571   */\n      tag_257\n        /* \"#utility.yul\":8564:8570   */\n      dup3\n        /* \"#utility.yul\":8542:8571   */\n      tag_117\n      jump\t// in\n    tag_257:\n        /* \"#utility.yul\":8534:8571   */\n      swap1\n      pop\n        /* \"#utility.yul\":8626:8630   */\n      0x20\n        /* \"#utility.yul\":8620:8624   */\n      dup2\n        /* \"#utility.yul\":8616:8631   */\n      add\n        /* \"#utility.yul\":8608:8631   */\n      swap1\n      pop\n        /* \"#utility.yul\":8330:8638   */\n      swap2\n      swap1\n      pop\n      jump\t// out\n        /* \"#utility.yul\":8644:8790   */\n    tag_143:\n        /* \"#utility.yul\":8741:8747   */\n      dup3\n        /* \"#utility.yul\":8736:8739   */\n      dup2\n        /* \"#utility.yul\":8731:8734   */\n      dup4\n        /* \"#utility.yul\":8718:8748   */\n      calldatacopy\n        /* \"#utility.yul\":8782:8783   */\n      0x00\n        /* \"#utility.yul\":8773:8779   */\n      dup4\n        /* \"#utility.yul\":8768:8771   */\n      dup4\n        /* \"#utility.yul\":8764:8780   */\n      add\n        /* \"#utility.yul\":8757:8784   */\n      mstore\n        /* \"#utility.yul\":8644:8790   */\n      pop\n      pop\n      pop\n      jump\t// out\n        /* \"#utility.yul\":8796:9221   */\n    tag_144:\n        /* \"#utility.yul\":8874:8879   */\n      0x00\n        /* \"#utility.yul\":8899:8965   */\n      tag_260\n        /* \"#utility.yul\":8915:8964   */\n      tag_261\n        /* \"#utility.yul\":8957:8963   */\n      dup5\n        /* \"#utility.yul\":8915:8964   */\n      tag_142\n      jump\t// in\n    tag_261:\n        /* \"#utility.yul\":8899:8965   */\n      tag_136\n      jump\t// in\n    tag_260:\n        /* \"#utility.yul\":8890:8965   */\n      swap1\n      pop\n        /* \"#utility.yul\":8988:8994   */\n      dup3\n        /* \"#utility.yul\":8981:8986   */\n      dup2\n        /* \"#utility.yul\":8974:8995   */\n      mstore\n        /* \"#utility.yul\":9026:9030   */\n      0x20\n        /* \"#utility.yul\":9019:9024   */\n      dup2\n        /* \"#utility.yul\":9015:9031   */\n      add\n        /* \"#utility.yul\":9064:9067   */\n      dup5\n        /* \"#utility.yul\":9055:9061   */\n      dup5\n        /* \"#utility.yul\":9050:9053   */\n      dup5\n        /* \"#utility.yul\":9046:9062   */\n      add\n        /* \"#utility.yul\":9043:9068   */\n      gt\n        /* \"#utility.yul\":9040:9152   */\n      iszero\n      tag_262\n      jumpi\n        /* \"#utility.yul\":9071:9150   */\n      tag_263\n      tag_141\n      jump\t// in\n    tag_263:\n        /* \"#utility.yul\":9040:9152   */\n    tag_262:\n        /* \"#utility.yul\":9161:9215   */\n      tag_264\n        /* \"#utility.yul\":9208:9214   */\n      dup5\n        /* \"#utility.yul\":9203:9206   */\n      dup3\n        /* \"#utility.yul\":9198:9201   */\n      dup6\n        /* \"#utility.yul\":9161:9215   */\n      tag_143\n      jump\t// in\n    tag_264:\n        /* \"#utility.yul\":8880:9221   */\n      pop\n        /* \"#utility.yul\":8796:9221   */\n      swap4\n      swap3\n      pop\n      pop\n      pop\n      jump\t// out\n        /* \"#utility.yul\":9241:9581   */\n    tag_145:\n        /* \"#utility.yul\":9297:9302   */\n      0x00\n        /* \"#utility.yul\":9346:9349   */\n      dup3\n        /* \"#utility.yul\":9339:9343   */\n      0x1f\n        /* \"#utility.yul\":9331:9337   */\n      dup4\n        /* \"#utility.yul\":9327:9344   */\n      add\n        /* \"#utility.yul\":9323:9350   */\n      slt\n        /* \"#utility.yul\":9313:9435   */\n      tag_266\n      jumpi\n        /* \"#utility.yul\":9354:9433   */\n      tag_267\n      tag_140\n      jump\t// in\n    tag_267:\n        /* \"#utility.yul\":9313:9435   */\n    tag_266:\n        /* \"#utility.yul\":9471:9477   */\n      dup2\n        /* \"#utility.yul\":9458:9478   */\n      calldataload\n        /* \"#utility.yul\":9496:9575   */\n      tag_268\n        /* \"#utility.yul\":9571:9574   */\n      dup5\n        /* \"#utility.yul\":9563:9569   */\n      dup3\n        /* \"#utility.yul\":9556:9560   */\n      0x20\n        /* \"#utility.yul\":9548:9554   */\n      dup7\n        /* \"#utility.yul\":9544:9561   */\n      add\n        /* \"#utility.yul\":9496:9575   */\n      tag_144\n      jump\t// in\n    tag_268:\n        /* \"#utility.yul\":9487:9575   */\n      swap2\n      pop\n        /* \"#utility.yul\":9303:9581   */\n      pop\n        /* \"#utility.yul\":9241:9581   */\n      swap3\n      swap2\n      pop\n      pop\n      jump\t// out\n        /* \"#utility.yul\":9587:9703   */\n    tag_146:\n        /* \"#utility.yul\":9657:9678   */\n      tag_270\n        /* \"#utility.yul\":9672:9677   */\n      dup2\n        /* \"#utility.yul\":9657:9678   */\n      tag_119\n      jump\t// in\n    tag_270:\n        /* \"#utility.yul\":9650:9655   */\n      dup2\n        /* \"#utility.yul\":9647:9679   */\n      eq\n        /* \"#utility.yul\":9637:9697   */\n      tag_271\n      jumpi\n        /* \"#utility.yul\":9693:9694   */\n      0x00\n        /* \"#utility.yul\":9690:9691   */\n      dup1\n        /* \"#utility.yul\":9683:9695   */\n      revert\n        /* \"#utility.yul\":9637:9697   */\n    tag_271:\n        /* \"#utility.yul\":9587:9703   */\n      pop\n      jump\t// out\n        /* \"#utility.yul\":9709:9842   */\n    tag_147:\n        /* \"#utility.yul\":9752:9757   */\n      0x00\n        /* \"#utility.yul\":9790:9796   */\n      dup2\n        /* \"#utility.yul\":9777:9797   */\n      calldataload\n        /* \"#utility.yul\":9768:9797   */\n      swap1\n      pop\n        /* \"#utility.yul\":9806:9836   */\n      tag_273\n        /* \"#utility.yul\":9830:9835   */\n      dup2\n        /* \"#utility.yul\":9806:9836   */\n      tag_146\n      jump\t// in\n    tag_273:\n        /* \"#utility.yul\":9709:9842   */\n      swap3\n      swap2\n      pop\n      pop\n      jump\t// out\n        /* \"#utility.yul\":9869:11637   */\n    tag_148:\n        /* \"#utility.yul\":9941:9946   */\n      0x00\n        /* \"#utility.yul\":9985:9989   */\n      0xc0\n        /* \"#utility.yul\":9973:9982   */\n      dup3\n        /* \"#utility.yul\":9968:9971   */\n      dup5\n        /* \"#utility.yul\":9964:9983   */\n      sub\n        /* \"#utility.yul\":9960:9990   */\n      slt\n        /* \"#utility.yul\":9957:10074   */\n      iszero\n      tag_275\n      jumpi\n        /* \"#utility.yul\":9993:10072   */\n      tag_276\n      tag_133\n      jump\t// in\n    tag_276:\n        /* \"#utility.yul\":9957:10074   */\n    tag_275:\n        /* \"#utility.yul\":10092:10113   */\n      tag_277\n        /* \"#utility.yul\":10108:10112   */\n      0xc0\n        /* \"#utility.yul\":10092:10113   */\n      tag_136\n      jump\t// in\n    tag_277:\n        /* \"#utility.yul\":10083:10113   */\n      swap1\n      pop\n        /* \"#utility.yul\":10176:10177   */\n      0x00\n        /* \"#utility.yul\":10216:10265   */\n      tag_278\n        /* \"#utility.yul\":10261:10264   */\n      dup5\n        /* \"#utility.yul\":10252:10258   */\n      dup3\n        /* \"#utility.yul\":10241:10250   */\n      dup6\n        /* \"#utility.yul\":10237:10259   */\n      add\n        /* \"#utility.yul\":10216:10265   */\n      tag_139\n      jump\t// in\n    tag_278:\n        /* \"#utility.yul\":10209:10213   */\n      0x00\n        /* \"#utility.yul\":10202:10207   */\n      dup4\n        /* \"#utility.yul\":10198:10214   */\n      add\n        /* \"#utility.yul\":10191:10266   */\n      mstore\n        /* \"#utility.yul\":10123:10277   */\n      pop\n        /* \"#utility.yul\":10342:10344   */\n      0x20\n        /* \"#utility.yul\":10383:10432   */\n      tag_279\n        /* \"#utility.yul\":10428:10431   */\n      dup5\n        /* \"#utility.yul\":10419:10425   */\n      dup3\n        /* \"#utility.yul\":10408:10417   */\n      dup6\n        /* \"#utility.yul\":10404:10426   */\n      add\n        /* \"#utility.yul\":10383:10432   */\n      tag_139\n      jump\t// in\n    tag_279:\n        /* \"#utility.yul\":10376:10380   */\n      0x20\n        /* \"#utility.yul\":10369:10374   */\n      dup4\n        /* \"#utility.yul\":10365:10381   */\n      add\n        /* \"#utility.yul\":10358:10433   */\n      mstore\n        /* \"#utility.yul\":10287:10444   */\n      pop\n        /* \"#utility.yul\":10537:10539   */\n      0x40\n        /* \"#utility.yul\":10526:10535   */\n      dup3\n        /* \"#utility.yul\":10522:10540   */\n      add\n        /* \"#utility.yul\":10509:10541   */\n      calldataload\n        /* \"#utility.yul\":10568:10586   */\n      0xffffffffffffffff\n        /* \"#utility.yul\":10560:10566   */\n      dup2\n        /* \"#utility.yul\":10557:10587   */\n      gt\n        /* \"#utility.yul\":10554:10671   */\n      iszero\n      tag_280\n      jumpi\n        /* \"#utility.yul\":10590:10669   */\n      tag_281\n      tag_137\n      jump\t// in\n    tag_281:\n        /* \"#utility.yul\":10554:10671   */\n    tag_280:\n        /* \"#utility.yul\":10710:10769   */\n      tag_282\n        /* \"#utility.yul\":10765:10768   */\n      dup5\n        /* \"#utility.yul\":10756:10762   */\n      dup3\n        /* \"#utility.yul\":10745:10754   */\n      dup6\n        /* \"#utility.yul\":10741:10763   */\n      add\n        /* \"#utility.yul\":10710:10769   */\n      tag_145\n      jump\t// in\n    tag_282:\n        /* \"#utility.yul\":10703:10707   */\n      0x40\n        /* \"#utility.yul\":10696:10701   */\n      dup4\n        /* \"#utility.yul\":10692:10708   */\n      add\n        /* \"#utility.yul\":10685:10770   */\n      mstore\n        /* \"#utility.yul\":10454:10781   */\n      pop\n        /* \"#utility.yul\":10875:10877   */\n      0x60\n        /* \"#utility.yul\":10864:10873   */\n      dup3\n        /* \"#utility.yul\":10860:10878   */\n      add\n        /* \"#utility.yul\":10847:10879   */\n      calldataload\n        /* \"#utility.yul\":10906:10924   */\n      0xffffffffffffffff\n        /* \"#utility.yul\":10898:10904   */\n      dup2\n        /* \"#utility.yul\":10895:10925   */\n      gt\n        /* \"#utility.yul\":10892:11009   */\n      iszero\n      tag_283\n      jumpi\n        /* \"#utility.yul\":10928:11007   */\n      tag_284\n      tag_137\n      jump\t// in\n    tag_284:\n        /* \"#utility.yul\":10892:11009   */\n    tag_283:\n        /* \"#utility.yul\":11048:11107   */\n      tag_285\n        /* \"#utility.yul\":11103:11106   */\n      dup5\n        /* \"#utility.yul\":11094:11100   */\n      dup3\n        /* \"#utility.yul\":11083:11092   */\n      dup6\n        /* \"#utility.yul\":11079:11101   */\n      add\n        /* \"#utility.yul\":11048:11107   */\n      tag_145\n      jump\t// in\n    tag_285:\n        /* \"#utility.yul\":11041:11045   */\n      0x60\n        /* \"#utility.yul\":11034:11039   */\n      dup4\n        /* \"#utility.yul\":11030:11046   */\n      add\n        /* \"#utility.yul\":11023:11108   */\n      mstore\n        /* \"#utility.yul\":10791:11119   */\n      pop\n        /* \"#utility.yul\":11215:11218   */\n      0x80\n        /* \"#utility.yul\":11204:11213   */\n      dup3\n        /* \"#utility.yul\":11200:11219   */\n      add\n        /* \"#utility.yul\":11187:11220   */\n      calldataload\n        /* \"#utility.yul\":11247:11265   */\n      0xffffffffffffffff\n        /* \"#utility.yul\":11239:11245   */\n      dup2\n        /* \"#utility.yul\":11236:11266   */\n      gt\n        /* \"#utility.yul\":11233:11350   */\n      iszero\n      tag_286\n      jumpi\n        /* \"#utility.yul\":11269:11348   */\n      tag_287\n      tag_137\n      jump\t// in\n    tag_287:\n        /* \"#utility.yul\":11233:11350   */\n    tag_286:\n        /* \"#utility.yul\":11389:11448   */\n      tag_288\n        /* \"#utility.yul\":11444:11447   */\n      dup5\n        /* \"#utility.yul\":11435:11441   */\n      dup3\n        /* \"#utility.yul\":11424:11433   */\n      dup6\n        /* \"#utility.yul\":11420:11442   */\n      add\n        /* \"#utility.yul\":11389:11448   */\n      tag_145\n      jump\t// in\n    tag_288:\n        /* \"#utility.yul\":11382:11386   */\n      0x80\n        /* \"#utility.yul\":11375:11380   */\n      dup4\n        /* \"#utility.yul\":11371:11387   */\n      add\n        /* \"#utility.yul\":11364:11449   */\n      mstore\n        /* \"#utility.yul\":11129:11460   */\n      pop\n        /* \"#utility.yul\":11530:11533   */\n      0xa0\n        /* \"#utility.yul\":11572:11618   */\n      tag_289\n        /* \"#utility.yul\":11614:11617   */\n      dup5\n        /* \"#utility.yul\":11605:11611   */\n      dup3\n        /* \"#utility.yul\":11594:11603   */\n      dup6\n        /* \"#utility.yul\":11590:11612   */\n      add\n        /* \"#utility.yul\":11572:11618   */\n      tag_147\n      jump\t// in\n    tag_289:\n        /* \"#utility.yul\":11565:11569   */\n      0xa0\n        /* \"#utility.yul\":11558:11563   */\n      dup4\n        /* \"#utility.yul\":11554:11570   */\n      add\n        /* \"#utility.yul\":11547:11619   */\n      mstore\n        /* \"#utility.yul\":11470:11630   */\n      pop\n        /* \"#utility.yul\":9869:11637   */\n      swap3\n      swap2\n      pop\n      pop\n      jump\t// out\n        /* \"#utility.yul\":11643:12178   */\n    tag_27:\n        /* \"#utility.yul\":11725:11731   */\n      0x00\n        /* \"#utility.yul\":11774:11776   */\n      0x20\n        /* \"#utility.yul\":11762:11771   */\n      dup3\n        /* \"#utility.yul\":11753:11760   */\n      dup5\n        /* \"#utility.yul\":11749:11772   */\n      sub\n        /* \"#utility.yul\":11745:11777   */\n      slt\n        /* \"#utility.yul\":11742:11861   */\n      iszero\n      tag_291\n      jumpi\n        /* \"#utility.yul\":11780:11859   */\n      tag_292\n      tag_126\n      jump\t// in\n    tag_292:\n        /* \"#utility.yul\":11742:11861   */\n    tag_291:\n        /* \"#utility.yul\":11928:11929   */\n      0x00\n        /* \"#utility.yul\":11917:11926   */\n      dup3\n        /* \"#utility.yul\":11913:11930   */\n      add\n        /* \"#utility.yul\":11900:11931   */\n      calldataload\n        /* \"#utility.yul\":11958:11976   */\n      0xffffffffffffffff\n        /* \"#utility.yul\":11950:11956   */\n      dup2\n        /* \"#utility.yul\":11947:11977   */\n      gt\n        /* \"#utility.yul\":11944:12061   */\n      iszero\n      tag_293\n      jumpi\n        /* \"#utility.yul\":11980:12059   */\n      tag_294\n      tag_127\n      jump\t// in\n    tag_294:\n        /* \"#utility.yul\":11944:12061   */\n    tag_293:\n        /* \"#utility.yul\":12085:12161   */\n      tag_295\n        /* \"#utility.yul\":12153:12160   */\n      dup5\n        /* \"#utility.yul\":12144:12150   */\n      dup3\n        /* \"#utility.yul\":12133:12142   */\n      dup6\n        /* \"#utility.yul\":12129:12151   */\n      add\n        /* \"#utility.yul\":12085:12161   */\n      tag_148\n      jump\t// in\n    tag_295:\n        /* \"#utility.yul\":12075:12161   */\n      swap2\n      pop\n        /* \"#utility.yul\":11871:12171   */\n      pop\n        /* \"#utility.yul\":11643:12178   */\n      swap3\n      swap2\n      pop\n      pop\n      jump\t// out\n        /* \"#utility.yul\":12184:12513   */\n    tag_31:\n        /* \"#utility.yul\":12243:12249   */\n      0x00\n        /* \"#utility.yul\":12292:12294   */\n      0x20\n        /* \"#utility.yul\":12280:12289   */\n      dup3\n        /* \"#utility.yul\":12271:12278   */\n      dup5\n        /* \"#utility.yul\":12267:12290   */\n      sub\n        /* \"#utility.yul\":12263:12295   */\n      slt\n        /* \"#utility.yul\":12260:12379   */\n      iszero\n      tag_297\n      jumpi\n        /* \"#utility.yul\":12298:12377   */\n      tag_298\n      tag_126\n      jump\t// in\n    tag_298:\n        /* \"#utility.yul\":12260:12379   */\n    tag_297:\n        /* \"#utility.yul\":12418:12419   */\n      0x00\n        /* \"#utility.yul\":12443:12496   */\n      tag_299\n        /* \"#utility.yul\":12488:12495   */\n      dup5\n        /* \"#utility.yul\":12479:12485   */\n      dup3\n        /* \"#utility.yul\":12468:12477   */\n      dup6\n        /* \"#utility.yul\":12464:12486   */\n      add\n        /* \"#utility.yul\":12443:12496   */\n      tag_139\n      jump\t// in\n    tag_299:\n        /* \"#utility.yul\":12433:12496   */\n      swap2\n      pop\n        /* \"#utility.yul\":12389:12506   */\n      pop\n        /* \"#utility.yul\":12184:12513   */\n      swap3\n      swap2\n      pop\n      pop\n      jump\t// out\n        /* \"#utility.yul\":12519:12688   */\n    tag_149:\n        /* \"#utility.yul\":12603:12614   */\n      0x00\n        /* \"#utility.yul\":12637:12643   */\n      dup3\n        /* \"#utility.yul\":12632:12635   */\n      dup3\n        /* \"#utility.yul\":12625:12644   */\n      mstore\n        /* \"#utility.yul\":12677:12681   */\n      0x20\n        /* \"#utility.yul\":12672:12675   */\n      dup3\n        /* \"#utility.yul\":12668:12682   */\n      add\n        /* \"#utility.yul\":12653:12682   */\n      swap1\n      pop\n        /* \"#utility.yul\":12519:12688   */\n      swap3\n      swap2\n      pop\n      pop\n      jump\t// out\n        /* \"#utility.yul\":12694:12928   */\n    tag_150:\n        /* \"#utility.yul\":12834:12868   */\n      0x4661726d657244617461626173653a206f6e6c7920636f6e7472616374207768\n        /* \"#utility.yul\":12830:12831   */\n      0x00\n        /* \"#utility.yul\":12822:12828   */\n      dup3\n        /* \"#utility.yul\":12818:12832   */\n      add\n        /* \"#utility.yul\":12811:12869   */\n      mstore\n        /* \"#utility.yul\":12903:12920   */\n      0x6963682061726520616c6c6f7765640000000000000000000000000000000000\n        /* \"#utility.yul\":12898:12900   */\n      0x20\n        /* \"#utility.yul\":12890:12896   */\n      dup3\n        /* \"#utility.yul\":12886:12901   */\n      add\n        /* \"#utility.yul\":12879:12921   */\n      mstore\n        /* \"#utility.yul\":12694:12928   */\n      pop\n      jump\t// out\n        /* \"#utility.yul\":12934:13300   */\n    tag_151:\n        /* \"#utility.yul\":13076:13079   */\n      0x00\n        /* \"#utility.yul\":13097:13164   */\n      tag_303\n        /* \"#utility.yul\":13161:13163   */\n      0x2f\n        /* \"#utility.yul\":13156:13159   */\n      dup4\n        /* \"#utility.yul\":13097:13164   */\n      tag_149\n      jump\t// in\n    tag_303:\n        /* \"#utility.yul\":13090:13164   */\n      swap2\n      pop\n        /* \"#utility.yul\":13173:13266   */\n      tag_304\n        /* \"#utility.yul\":13262:13265   */\n      dup3\n        /* \"#utility.yul\":13173:13266   */\n      tag_150\n      jump\t// in\n    tag_304:\n        /* \"#utility.yul\":13291:13293   */\n      0x40\n        /* \"#utility.yul\":13286:13289   */\n      dup3\n        /* \"#utility.yul\":13282:13294   */\n      add\n        /* \"#utility.yul\":13275:13294   */\n      swap1\n      pop\n        /* \"#utility.yul\":12934:13300   */\n      swap2\n      swap1\n      pop\n      jump\t// out\n        /* \"#utility.yul\":13306:13725   */\n    tag_41:\n        /* \"#utility.yul\":13472:13476   */\n      0x00\n        /* \"#utility.yul\":13510:13512   */\n      0x20\n        /* \"#utility.yul\":13499:13508   */\n      dup3\n        /* \"#utility.yul\":13495:13513   */\n      add\n        /* \"#utility.yul\":13487:13513   */\n      swap1\n      pop\n        /* \"#utility.yul\":13559:13568   */\n      dup2\n        /* \"#utility.yul\":13553:13557   */\n      dup2\n        /* \"#utility.yul\":13549:13569   */\n      sub\n        /* \"#utility.yul\":13545:13546   */\n      0x00\n        /* \"#utility.yul\":13534:13543   */\n      dup4\n        /* \"#utility.yul\":13530:13547   */\n      add\n        /* \"#utility.yul\":13523:13570   */\n      mstore\n        /* \"#utility.yul\":13587:13718   */\n      tag_306\n        /* \"#utility.yul\":13713:13717   */\n      dup2\n        /* \"#utility.yul\":13587:13718   */\n      tag_151\n      jump\t// in\n    tag_306:\n        /* \"#utility.yul\":13579:13718   */\n      swap1\n      pop\n        /* \"#utility.yul\":13306:13725   */\n      swap2\n      swap1\n      pop\n      jump\t// out\n        /* \"#utility.yul\":13731:13911   */\n    tag_152:\n        /* \"#utility.yul\":13779:13856   */\n      0x4e487b7100000000000000000000000000000000000000000000000000000000\n        /* \"#utility.yul\":13776:13777   */\n      0x00\n        /* \"#utility.yul\":13769:13857   */\n      mstore\n        /* \"#utility.yul\":13876:13880   */\n      0x22\n        /* \"#utility.yul\":13873:13874   */\n      0x04\n        /* \"#utility.yul\":13866:13881   */\n      mstore\n        /* \"#utility.yul\":13900:13904   */\n      0x24\n        /* \"#utility.yul\":13897:13898   */\n      0x00\n        /* \"#utility.yul\":13890:13905   */\n      revert\n        /* \"#utility.yul\":13917:14237   */\n    tag_47:\n        /* \"#utility.yul\":13961:13967   */\n      0x00\n        /* \"#utility.yul\":13998:13999   */\n      0x02\n        /* \"#utility.yul\":13992:13996   */\n      dup3\n        /* \"#utility.yul\":13988:14000   */\n      div\n        /* \"#utility.yul\":13978:14000   */\n      swap1\n      pop\n        /* \"#utility.yul\":14045:14046   */\n      0x01\n        /* \"#utility.yul\":14039:14043   */\n      dup3\n        /* \"#utility.yul\":14035:14047   */\n      and\n        /* \"#utility.yul\":14066:14084   */\n      dup1\n        /* \"#utility.yul\":14056:14137   */\n      tag_309\n      jumpi\n        /* \"#utility.yul\":14122:14126   */\n      0x7f\n        /* \"#utility.yul\":14114:14120   */\n      dup3\n        /* \"#utility.yul\":14110:14127   */\n      and\n        /* \"#utility.yul\":14100:14127   */\n      swap2\n      pop\n        /* \"#utility.yul\":14056:14137   */\n    tag_309:\n        /* \"#utility.yul\":14184:14186   */\n      0x20\n        /* \"#utility.yul\":14176:14182   */\n      dup3\n        /* \"#utility.yul\":14173:14187   */\n      lt\n        /* \"#utility.yul\":14153:14171   */\n      dup2\n        /* \"#utility.yul\":14150:14188   */\n      sub\n        /* \"#utility.yul\":14147:14231   */\n      tag_310\n      jumpi\n        /* \"#utility.yul\":14203:14221   */\n      tag_311\n      tag_152\n      jump\t// in\n    tag_311:\n        /* \"#utility.yul\":14147:14231   */\n    tag_310:\n        /* \"#utility.yul\":13968:14237   */\n      pop\n        /* \"#utility.yul\":13917:14237   */\n      swap2\n      swap1\n      pop\n      jump\t// out\n        /* \"#utility.yul\":14243:14473   */\n    tag_153:\n        /* \"#utility.yul\":14383:14417   */\n      0x4661726d657244617461626173653a207065726d697373696f6e206861732062\n        /* \"#utility.yul\":14379:14380   */\n      0x00\n        /* \"#utility.yul\":14371:14377   */\n      dup3\n        /* \"#utility.yul\":14367:14381   */\n      add\n        /* \"#utility.yul\":14360:14418   */\n      mstore\n        /* \"#utility.yul\":14452:14465   */\n      0x65656e206772616e746564000000000000000000000000000000000000000000\n        /* \"#utility.yul\":14447:14449   */\n      0x20\n        /* \"#utility.yul\":14439:14445   */\n      dup3\n        /* \"#utility.yul\":14435:14450   */\n      add\n        /* \"#utility.yul\":14428:14466   */\n      mstore\n        /* \"#utility.yul\":14243:14473   */\n      pop\n      jump\t// out\n        /* \"#utility.yul\":14479:14845   */\n    tag_154:\n        /* \"#utility.yul\":14621:14624   */\n      0x00\n        /* \"#utility.yul\":14642:14709   */\n      tag_314\n        /* \"#utility.yul\":14706:14708   */\n      0x2b\n        /* \"#utility.yul\":14701:14704   */\n      dup4\n        /* \"#utility.yul\":14642:14709   */\n      tag_149\n      jump\t// in\n    tag_314:\n        /* \"#utility.yul\":14635:14709   */\n      swap2\n      pop\n        /* \"#utility.yul\":14718:14811   */\n      tag_315\n        /* \"#utility.yul\":14807:14810   */\n      dup3\n        /* \"#utility.yul\":14718:14811   */\n      tag_153\n      jump\t// in\n    tag_315:\n        /* \"#utility.yul\":14836:14838   */\n      0x40\n        /* \"#utility.yul\":14831:14834   */\n      dup3\n        /* \"#utility.yul\":14827:14839   */\n      add\n        /* \"#utility.yul\":14820:14839   */\n      swap1\n      pop\n        /* \"#utility.yul\":14479:14845   */\n      swap2\n      swap1\n      pop\n      jump\t// out\n        /* \"#utility.yul\":14851:15270   */\n    tag_68:\n        /* \"#utility.yul\":15017:15021   */\n      0x00\n        /* \"#utility.yul\":15055:15057   */\n      0x20\n        /* \"#utility.yul\":15044:15053   */\n      dup3\n        /* \"#utility.yul\":15040:15058   */\n      add\n        /* \"#utility.yul\":15032:15058   */\n      swap1\n      pop\n        /* \"#utility.yul\":15104:15113   */\n      dup2\n        /* \"#utility.yul\":15098:15102   */\n      dup2\n        /* \"#utility.yul\":15094:15114   */\n      sub\n        /* \"#utility.yul\":15090:15091   */\n      0x00\n        /* \"#utility.yul\":15079:15088   */\n      dup4\n        /* \"#utility.yul\":15075:15092   */\n      add\n        /* \"#utility.yul\":15068:15115   */\n      mstore\n        /* \"#utility.yul\":15132:15263   */\n      tag_317\n        /* \"#utility.yul\":15258:15262   */\n      dup2\n        /* \"#utility.yul\":15132:15263   */\n      tag_154\n      jump\t// in\n    tag_317:\n        /* \"#utility.yul\":15124:15263   */\n      swap1\n      pop\n        /* \"#utility.yul\":14851:15270   */\n      swap2\n      swap1\n      pop\n      jump\t// out\n        /* \"#utility.yul\":15276:15456   */\n    tag_155:\n        /* \"#utility.yul\":15324:15401   */\n      0x4e487b7100000000000000000000000000000000000000000000000000000000\n        /* \"#utility.yul\":15321:15322   */\n      0x00\n        /* \"#utility.yul\":15314:15402   */\n      mstore\n        /* \"#utility.yul\":15421:15425   */\n      0x11\n        /* \"#utility.yul\":15418:15419   */\n      0x04\n        /* \"#utility.yul\":15411:15426   */\n      mstore\n        /* \"#utility.yul\":15445:15449   */\n      0x24\n        /* \"#utility.yul\":15442:15443   */\n      0x00\n        /* \"#utility.yul\":15435:15450   */\n      revert\n        /* \"#utility.yul\":15462:15695   */\n    tag_79:\n        /* \"#utility.yul\":15501:15504   */\n      0x00\n        /* \"#utility.yul\":15524:15548   */\n      tag_320\n        /* \"#utility.yul\":15542:15547   */\n      dup3\n        /* \"#utility.yul\":15524:15548   */\n      tag_112\n      jump\t// in\n    tag_320:\n        /* \"#utility.yul\":15515:15548   */\n      swap2\n      pop\n        /* \"#utility.yul\":15570:15636   */\n      0xffffffffffffffffffffffffffffffffffffffffffffffffffffffffffffffff\n        /* \"#utility.yul\":15563:15568   */\n      dup3\n        /* \"#utility.yul\":15560:15637   */\n      sub\n        /* \"#utility.yul\":15557:15660   */\n      tag_321\n      jumpi\n        /* \"#utility.yul\":15640:15658   */\n      tag_322\n      tag_155\n      jump\t// in\n    tag_322:\n        /* \"#utility.yul\":15557:15660   */\n    tag_321:\n        /* \"#utility.yul\":15687:15688   */\n      0x01\n        /* \"#utility.yul\":15680:15685   */\n      dup3\n        /* \"#utility.yul\":15676:15689   */\n      add\n        /* \"#utility.yul\":15669:15689   */\n      swap1\n      pop\n        /* \"#utility.yul\":15462:15695   */\n      swap2\n      swap1\n      pop\n      jump\t// out\n        /* \"#utility.yul\":15701:15842   */\n    tag_156:\n        /* \"#utility.yul\":15750:15754   */\n      0x00\n        /* \"#utility.yul\":15773:15776   */\n      dup2\n        /* \"#utility.yul\":15765:15776   */\n      swap1\n      pop\n        /* \"#utility.yul\":15796:15799   */\n      dup2\n        /* \"#utility.yul\":15793:15794   */\n      0x00\n        /* \"#utility.yul\":15786:15800   */\n      mstore\n        /* \"#utility.yul\":15830:15834   */\n      0x20\n        /* \"#utility.yul\":15827:15828   */\n      0x00\n        /* \"#utility.yul\":15817:15835   */\n      keccak256\n        /* \"#utility.yul\":15809:15835   */\n      swap1\n      pop\n        /* \"#utility.yul\":15701:15842   */\n      swap2\n      swap1\n      pop\n      jump\t// out\n        /* \"#utility.yul\":15848:15941   */\n    tag_157:\n        /* \"#utility.yul\":15885:15891   */\n      0x00\n        /* \"#utility.yul\":15932:15934   */\n      0x20\n        /* \"#utility.yul\":15927:15929   */\n      0x1f\n        /* \"#utility.yul\":15920:15925   */\n      dup4\n        /* \"#utility.yul\":15916:15930   */\n      add\n        /* \"#utility.yul\":15912:15935   */\n      div\n        /* \"#utility.yul\":15902:15935   */\n      swap1\n      pop\n        /* \"#utility.yul\":15848:15941   */\n      swap2\n      swap1\n      pop\n      jump\t// out\n        /* \"#utility.yul\":15947:16054   */\n    tag_158:\n        /* \"#utility.yul\":15991:15999   */\n      0x00\n        /* \"#utility.yul\":16041:16046   */\n      dup3\n        /* \"#utility.yul\":16035:16039   */\n      dup3\n        /* \"#utility.yul\":16031:16047   */\n      shl\n        /* \"#utility.yul\":16010:16047   */\n      swap1\n      pop\n        /* \"#utility.yul\":15947:16054   */\n      swap3\n      swap2\n      pop\n      pop\n      jump\t// out\n        /* \"#utility.yul\":16060:16453   */\n    tag_159:\n        /* \"#utility.yul\":16129:16135   */\n      0x00\n        /* \"#utility.yul\":16179:16180   */\n      0x08\n        /* \"#utility.yul\":16167:16177   */\n      dup4\n        /* \"#utility.yul\":16163:16181   */\n      mul\n        /* \"#utility.yul\":16202:16299   */\n      tag_327\n        /* \"#utility.yul\":16232:16298   */\n      0xffffffffffffffffffffffffffffffffffffffffffffffffffffffffffffffff\n        /* \"#utility.yul\":16221:16230   */\n      dup3\n        /* \"#utility.yul\":16202:16299   */\n      tag_158\n      jump\t// in\n    tag_327:\n        /* \"#utility.yul\":16320:16359   */\n      tag_328\n        /* \"#utility.yul\":16350:16358   */\n      dup7\n        /* \"#utility.yul\":16339:16348   */\n      dup4\n        /* \"#utility.yul\":16320:16359   */\n      tag_158\n      jump\t// in\n    tag_328:\n        /* \"#utility.yul\":16308:16359   */\n      swap6\n      pop\n        /* \"#utility.yul\":16392:16396   */\n      dup1\n        /* \"#utility.yul\":16388:16397   */\n      not\n        /* \"#utility.yul\":16381:16386   */\n      dup5\n        /* \"#utility.yul\":16377:16398   */\n      and\n        /* \"#utility.yul\":16368:16398   */\n      swap4\n      pop\n        /* \"#utility.yul\":16441:16445   */\n      dup1\n        /* \"#utility.yul\":16431:16439   */\n      dup7\n        /* \"#utility.yul\":16427:16446   */\n      and\n        /* \"#utility.yul\":16420:16425   */\n      dup5\n        /* \"#utility.yul\":16417:16447   */\n      or\n        /* \"#utility.yul\":16407:16447   */\n      swap3\n      pop\n        /* \"#utility.yul\":16136:16453   */\n      pop\n      pop\n        /* \"#utility.yul\":16060:16453   */\n      swap4\n      swap3\n      pop\n      pop\n      pop\n      jump\t// out\n        /* \"#utility.yul\":16459:16519   */\n    tag_160:\n        /* \"#utility.yul\":16487:16490   */\n      0x00\n        /* \"#utility.yul\":16508:16513   */\n      dup2\n        /* \"#utility.yul\":16501:16513   */\n      swap1\n      pop\n        /* \"#utility.yul\":16459:16519   */\n      swap2\n      swap1\n      pop\n      jump\t// out\n        /* \"#utility.yul\":16525:16667   */\n    tag_161:\n        /* \"#utility.yul\":16575:16584   */\n      0x00\n        /* \"#utility.yul\":16608:16661   */\n      tag_331\n        /* \"#utility.yul\":16626:16660   */\n      tag_332\n        /* \"#utility.yul\":16635:16659   */\n      tag_333\n        /* \"#utility.yul\":16653:16658   */\n      dup5\n        /* \"#utility.yul\":16635:16659   */\n      tag_112\n      jump\t// in\n    tag_333:\n        /* \"#utility.yul\":16626:16660   */\n      tag_160\n      jump\t// in\n    tag_332:\n        /* \"#utility.yul\":16608:16661   */\n      tag_112\n      jump\t// in\n    tag_331:\n        /* \"#utility.yul\":16595:16661   */\n      swap1\n      pop\n        /* \"#utility.yul\":16525:16667   */\n      swap2\n      swap1\n      pop\n      jump\t// out\n        /* \"#utility.yul\":16673:16748   */\n    tag_162:\n        /* \"#utility.yul\":16716:16719   */\n      0x00\n        /* \"#utility.yul\":16737:16742   */\n      dup2\n        /* \"#utility.yul\":16730:16742   */\n      swap1\n      pop\n        /* \"#utility.yul\":16673:16748   */\n      swap2\n      swap1\n      pop\n      jump\t// out\n        /* \"#utility.yul\":16754:17023   */\n    tag_163:\n        /* \"#utility.yul\":16864:16903   */\n      tag_336\n        /* \"#utility.yul\":16895:16902   */\n      dup4\n        /* \"#utility.yul\":16864:16903   */\n      tag_161\n      jump\t// in\n    tag_336:\n        /* \"#utility.yul\":16925:17016   */\n      tag_337\n        /* \"#utility.yul\":16974:17015   */\n      tag_338\n        /* \"#utility.yul\":16998:17014   */\n      dup3\n        /* \"#utility.yul\":16974:17015   */\n      tag_162\n      jump\t// in\n    tag_338:\n        /* \"#utility.yul\":16966:16972   */\n      dup5\n        /* \"#utility.yul\":16959:16963   */\n      dup5\n        /* \"#utility.yul\":16953:16964   */\n      sload\n        /* \"#utility.yul\":16925:17016   */\n      tag_159\n      jump\t// in\n    tag_337:\n        /* \"#utility.yul\":16919:16923   */\n      dup3\n        /* \"#utility.yul\":16912:17017   */\n      sstore\n        /* \"#utility.yul\":16830:17023   */\n      pop\n        /* \"#utility.yul\":16754:17023   */\n      pop\n      pop\n      pop\n      jump\t// out\n        /* \"#utility.yul\":17029:17102   */\n    tag_164:\n        /* \"#utility.yul\":17074:17077   */\n      0x00\n        /* \"#utility.yul\":17029:17102   */\n      swap1\n      jump\t// out\n        /* \"#utility.yul\":17108:17297   */\n    tag_165:\n        /* \"#utility.yul\":17185:17217   */\n      tag_341\n      tag_164\n      jump\t// in\n    tag_341:\n        /* \"#utility.yul\":17226:17291   */\n      tag_342\n        /* \"#utility.yul\":17284:17290   */\n      dup2\n        /* \"#utility.yul\":17276:17282   */\n      dup5\n        /* \"#utility.yul\":17270:17274   */\n      dup5\n        /* \"#utility.yul\":17226:17291   */\n      tag_163\n      jump\t// in\n    tag_342:\n        /* \"#utility.yul\":17161:17297   */\n      pop\n        /* \"#utility.yul\":17108:17297   */\n      pop\n      pop\n      jump\t// out\n        /* \"#utility.yul\":17303:17489   */\n    tag_166:\n        /* \"#utility.yul\":17363:17483   */\n    tag_344:\n        /* \"#utility.yul\":17380:17383   */\n      dup2\n        /* \"#utility.yul\":17373:17378   */\n      dup2\n        /* \"#utility.yul\":17370:17384   */\n      lt\n        /* \"#utility.yul\":17363:17483   */\n      iszero\n      tag_346\n      jumpi\n        /* \"#utility.yul\":17434:17473   */\n      tag_347\n        /* \"#utility.yul\":17471:17472   */\n      0x00\n        /* \"#utility.yul\":17464:17469   */\n      dup3\n        /* \"#utility.yul\":17434:17473   */\n      tag_165\n      jump\t// in\n    tag_347:\n        /* \"#utility.yul\":17407:17408   */\n      0x01\n        /* \"#utility.yul\":17400:17405   */\n      dup2\n        /* \"#utility.yul\":17396:17409   */\n      add\n        /* \"#utility.yul\":17387:17409   */\n      swap1\n      pop\n        /* \"#utility.yul\":17363:17483   */\n      jump(tag_344)\n    tag_346:\n        /* \"#utility.yul\":17303:17489   */\n      pop\n      pop\n      jump\t// out\n        /* \"#utility.yul\":17495:18038   */\n    tag_167:\n        /* \"#utility.yul\":17596:17598   */\n      0x1f\n        /* \"#utility.yul\":17591:17594   */\n      dup3\n        /* \"#utility.yul\":17588:17599   */\n      gt\n        /* \"#utility.yul\":17585:18031   */\n      iszero\n      tag_349\n      jumpi\n        /* \"#utility.yul\":17630:17668   */\n      tag_350\n        /* \"#utility.yul\":17662:17667   */\n      dup2\n        /* \"#utility.yul\":17630:17668   */\n      tag_156\n      jump\t// in\n    tag_350:\n        /* \"#utility.yul\":17714:17743   */\n      tag_351\n        /* \"#utility.yul\":17732:17742   */\n      dup5\n        /* \"#utility.yul\":17714:17743   */\n      tag_157\n      jump\t// in\n    tag_351:\n        /* \"#utility.yul\":17704:17712   */\n      dup2\n        /* \"#utility.yul\":17700:17744   */\n      add\n        /* \"#utility.yul\":17897:17899   */\n      0x20\n        /* \"#utility.yul\":17885:17895   */\n      dup6\n        /* \"#utility.yul\":17882:17900   */\n      lt\n        /* \"#utility.yul\":17879:17928   */\n      iszero\n      tag_352\n      jumpi\n        /* \"#utility.yul\":17918:17926   */\n      dup2\n        /* \"#utility.yul\":17903:17926   */\n      swap1\n      pop\n        /* \"#utility.yul\":17879:17928   */\n    tag_352:\n        /* \"#utility.yul\":17941:18021   */\n      tag_353\n        /* \"#utility.yul\":17997:18019   */\n      tag_354\n        /* \"#utility.yul\":18015:18018   */\n      dup6\n        /* \"#utility.yul\":17997:18019   */\n      tag_157\n      jump\t// in\n    tag_354:\n        /* \"#utility.yul\":17987:17995   */\n      dup4\n        /* \"#utility.yul\":17983:18020   */\n      add\n        /* \"#utility.yul\":17970:17981   */\n      dup3\n        /* \"#utility.yul\":17941:18021   */\n      tag_166\n      jump\t// in\n    tag_353:\n        /* \"#utility.yul\":17600:18031   */\n      pop\n      pop\n        /* \"#utility.yul\":17585:18031   */\n    tag_349:\n        /* \"#utility.yul\":17495:18038   */\n      pop\n      pop\n      pop\n      jump\t// out\n        /* \"#utility.yul\":18044:18161   */\n    tag_168:\n        /* \"#utility.yul\":18098:18106   */\n      0x00\n        /* \"#utility.yul\":18148:18153   */\n      dup3\n        /* \"#utility.yul\":18142:18146   */\n      dup3\n        /* \"#utility.yul\":18138:18154   */\n      shr\n        /* \"#utility.yul\":18117:18154   */\n      swap1\n      pop\n        /* \"#utility.yul\":18044:18161   */\n      swap3\n      swap2\n      pop\n      pop\n      jump\t// out\n        /* \"#utility.yul\":18167:18336   */\n    tag_169:\n        /* \"#utility.yul\":18211:18217   */\n      0x00\n        /* \"#utility.yul\":18244:18295   */\n      tag_357\n        /* \"#utility.yul\":18292:18293   */\n      0x00\n        /* \"#utility.yul\":18288:18294   */\n      not\n        /* \"#utility.yul\":18280:18285   */\n      dup5\n        /* \"#utility.yul\":18277:18278   */\n      0x08\n        /* \"#utility.yul\":18273:18286   */\n      mul\n        /* \"#utility.yul\":18244:18295   */\n      tag_168\n      jump\t// in\n    tag_357:\n        /* \"#utility.yul\":18240:18296   */\n      not\n        /* \"#utility.yul\":18325:18329   */\n      dup1\n        /* \"#utility.yul\":18319:18323   */\n      dup4\n        /* \"#utility.yul\":18315:18330   */\n      and\n        /* \"#utility.yul\":18305:18330   */\n      swap2\n      pop\n        /* \"#utility.yul\":18218:18336   */\n      pop\n        /* \"#utility.yul\":18167:18336   */\n      swap3\n      swap2\n      pop\n      pop\n      jump\t// out\n        /* \"#utility.yul\":18341:18636   */\n    tag_170:\n        /* \"#utility.yul\":18417:18421   */\n      0x00\n        /* \"#utility.yul\":18563:18592   */\n      tag_359\n        /* \"#utility.yul\":18588:18591   */\n      dup4\n        /* \"#utility.yul\":18582:18586   */\n      dup4\n        /* \"#utility.yul\":18563:18592   */\n      tag_169\n      jump\t// in\n    tag_359:\n        /* \"#utility.yul\":18555:18592   */\n      swap2\n      pop\n        /* \"#utility.yul\":18625:18628   */\n      dup3\n        /* \"#utility.yul\":18622:18623   */\n      0x02\n        /* \"#utility.yul\":18618:18629   */\n      mul\n        /* \"#utility.yul\":18612:18616   */\n      dup3\n        /* \"#utility.yul\":18609:18630   */\n      or\n        /* \"#utility.yul\":18601:18630   */\n      swap1\n      pop\n        /* \"#utility.yul\":18341:18636   */\n      swap3\n      swap2\n      pop\n      pop\n      jump\t// out\n        /* \"#utility.yul\":18641:20036   */\n    tag_82:\n        /* \"#utility.yul\":18758:18795   */\n      tag_361\n        /* \"#utility.yul\":18791:18794   */\n      dup3\n        /* \"#utility.yul\":18758:18795   */\n      tag_114\n      jump\t// in\n    tag_361:\n        /* \"#utility.yul\":18860:18878   */\n      0xffffffffffffffff\n        /* \"#utility.yul\":18852:18858   */\n      dup2\n        /* \"#utility.yul\":18849:18879   */\n      gt\n        /* \"#utility.yul\":18846:18902   */\n      iszero\n      tag_362\n      jumpi\n        /* \"#utility.yul\":18882:18900   */\n      tag_363\n      tag_134\n      jump\t// in\n    tag_363:\n        /* \"#utility.yul\":18846:18902   */\n    tag_362:\n        /* \"#utility.yul\":18926:18964   */\n      tag_364\n        /* \"#utility.yul\":18958:18962   */\n      dup3\n        /* \"#utility.yul\":18952:18963   */\n      sload\n        /* \"#utility.yul\":18926:18964   */\n      tag_47\n      jump\t// in\n    tag_364:\n        /* \"#utility.yul\":19011:19078   */\n      tag_365\n        /* \"#utility.yul\":19071:19077   */\n      dup3\n        /* \"#utility.yul\":19063:19069   */\n      dup3\n        /* \"#utility.yul\":19057:19061   */\n      dup6\n        /* \"#utility.yul\":19011:19078   */\n      tag_167\n      jump\t// in\n    tag_365:\n        /* \"#utility.yul\":19105:19106   */\n      0x00\n        /* \"#utility.yul\":19129:19133   */\n      0x20\n        /* \"#utility.yul\":19116:19133   */\n      swap1\n      pop\n        /* \"#utility.yul\":19161:19163   */\n      0x1f\n        /* \"#utility.yul\":19153:19159   */\n      dup4\n        /* \"#utility.yul\":19150:19164   */\n      gt\n        /* \"#utility.yul\":19178:19179   */\n      0x01\n        /* \"#utility.yul\":19173:19791   */\n      dup2\n      eq\n      tag_367\n      jumpi\n        /* \"#utility.yul\":19835:19836   */\n      0x00\n        /* \"#utility.yul\":19852:19858   */\n      dup5\n        /* \"#utility.yul\":19849:19926   */\n      iszero\n      tag_368\n      jumpi\n        /* \"#utility.yul\":19901:19910   */\n      dup3\n        /* \"#utility.yul\":19896:19899   */\n      dup8\n        /* \"#utility.yul\":19892:19911   */\n      add\n        /* \"#utility.yul\":19886:19912   */\n      mload\n        /* \"#utility.yul\":19877:19912   */\n      swap1\n      pop\n        /* \"#utility.yul\":19849:19926   */\n    tag_368:\n        /* \"#utility.yul\":19952:20019   */\n      tag_369\n        /* \"#utility.yul\":20012:20018   */\n      dup6\n        /* \"#utility.yul\":20005:20010   */\n      dup3\n        /* \"#utility.yul\":19952:20019   */\n      tag_170\n      jump\t// in\n    tag_369:\n        /* \"#utility.yul\":19946:19950   */\n      dup7\n        /* \"#utility.yul\":19939:20020   */\n      sstore\n        /* \"#utility.yul\":19808:20030   */\n      pop\n        /* \"#utility.yul\":19143:20030   */\n      jump(tag_366)\n        /* \"#utility.yul\":19173:19791   */\n    tag_367:\n        /* \"#utility.yul\":19225:19229   */\n      0x1f\n        /* \"#utility.yul\":19221:19230   */\n      not\n        /* \"#utility.yul\":19213:19219   */\n      dup5\n        /* \"#utility.yul\":19209:19231   */\n      and\n        /* \"#utility.yul\":19259:19296   */\n      tag_370\n        /* \"#utility.yul\":19291:19295   */\n      dup7\n        /* \"#utility.yul\":19259:19296   */\n      tag_156\n      jump\t// in\n    tag_370:\n        /* \"#utility.yul\":19318:19319   */\n      0x00\n        /* \"#utility.yul\":19332:19540   */\n    tag_371:\n        /* \"#utility.yul\":19346:19353   */\n      dup3\n        /* \"#utility.yul\":19343:19344   */\n      dup2\n        /* \"#utility.yul\":19340:19354   */\n      lt\n        /* \"#utility.yul\":19332:19540   */\n      iszero\n      tag_373\n      jumpi\n        /* \"#utility.yul\":19425:19434   */\n      dup5\n        /* \"#utility.yul\":19420:19423   */\n      dup10\n        /* \"#utility.yul\":19416:19435   */\n      add\n        /* \"#utility.yul\":19410:19436   */\n      mload\n        /* \"#utility.yul\":19402:19408   */\n      dup3\n        /* \"#utility.yul\":19395:19437   */\n      sstore\n        /* \"#utility.yul\":19476:19477   */\n      0x01\n        /* \"#utility.yul\":19468:19474   */\n      dup3\n        /* \"#utility.yul\":19464:19478   */\n      add\n        /* \"#utility.yul\":19454:19478   */\n      swap2\n      pop\n        /* \"#utility.yul\":19523:19525   */\n      0x20\n        /* \"#utility.yul\":19512:19521   */\n      dup6\n        /* \"#utility.yul\":19508:19526   */\n      add\n        /* \"#utility.yul\":19495:19526   */\n      swap5\n      pop\n        /* \"#utility.yul\":19369:19373   */\n      0x20\n        /* \"#utility.yul\":19366:19367   */\n      dup2\n        /* \"#utility.yul\":19362:19374   */\n      add\n        /* \"#utility.yul\":19357:19374   */\n      swap1\n      pop\n        /* \"#utility.yul\":19332:19540   */\n      jump(tag_371)\n    tag_373:\n        /* \"#utility.yul\":19568:19574   */\n      dup7\n        /* \"#utility.yul\":19559:19566   */\n      dup4\n        /* \"#utility.yul\":19556:19575   */\n      lt\n        /* \"#utility.yul\":19553:19732   */\n      iszero\n      tag_374\n      jumpi\n        /* \"#utility.yul\":19626:19635   */\n      dup5\n        /* \"#utility.yul\":19621:19624   */\n      dup10\n        /* \"#utility.yul\":19617:19636   */\n      add\n        /* \"#utility.yul\":19611:19637   */\n      mload\n        /* \"#utility.yul\":19669:19717   */\n      tag_375\n        /* \"#utility.yul\":19711:19715   */\n      0x1f\n        /* \"#utility.yul\":19703:19709   */\n      dup10\n        /* \"#utility.yul\":19699:19716   */\n      and\n        /* \"#utility.yul\":19688:19697   */\n      dup3\n        /* \"#utility.yul\":19669:19717   */\n      tag_169\n      jump\t// in\n    tag_375:\n        /* \"#utility.yul\":19661:19667   */\n      dup4\n        /* \"#utility.yul\":19654:19718   */\n      sstore\n        /* \"#utility.yul\":19576:19732   */\n      pop\n        /* \"#utility.yul\":19553:19732   */\n    tag_374:\n        /* \"#utility.yul\":19778:19779   */\n      0x01\n        /* \"#utility.yul\":19774:19775   */\n      0x02\n        /* \"#utility.yul\":19766:19772   */\n      dup9\n        /* \"#utility.yul\":19762:19776   */\n      mul\n        /* \"#utility.yul\":19758:19780   */\n      add\n        /* \"#utility.yul\":19752:19756   */\n      dup9\n        /* \"#utility.yul\":19745:19781   */\n      sstore\n        /* \"#utility.yul\":19180:19791   */\n      pop\n      pop\n      pop\n        /* \"#utility.yul\":19143:20030   */\n    tag_366:\n      pop\n        /* \"#utility.yul\":18733:20036   */\n      pop\n      pop\n      pop\n        /* \"#utility.yul\":18641:20036   */\n      pop\n      pop\n      jump\t// out\n        /* \"#utility.yul\":20042:20222   */\n    tag_92:\n        /* \"#utility.yul\":20090:20167   */\n      0x4e487b7100000000000000000000000000000000000000000000000000000000\n        /* \"#utility.yul\":20087:20088   */\n      0x00\n        /* \"#utility.yul\":20080:20168   */\n      mstore\n        /* \"#utility.yul\":20187:20191   */\n      0x32\n        /* \"#utility.yul\":20184:20185   */\n      0x04\n        /* \"#utility.yul\":20177:20192   */\n      mstore\n        /* \"#utility.yul\":20211:20215   */\n      0x24\n        /* \"#utility.yul\":20208:20209   */\n      0x00\n        /* \"#utility.yul\":20201:20216   */\n      revert\n        /* \"#utility.yul\":20228:20453   */\n    tag_171:\n        /* \"#utility.yul\":20368:20402   */\n      0x4f776e61626c653a206e6577206f776e657220697320746865207a65726f2061\n        /* \"#utility.yul\":20364:20365   */\n      0x00\n        /* \"#utility.yul\":20356:20362   */\n      dup3\n        /* \"#utility.yul\":20352:20366   */\n      add\n        /* \"#utility.yul\":20345:20403   */\n      mstore\n        /* \"#utility.yul\":20437:20445   */\n      0x6464726573730000000000000000000000000000000000000000000000000000\n        /* \"#utility.yul\":20432:20434   */\n      0x20\n        /* \"#utility.yul\":20424:20430   */\n      dup3\n        /* \"#utility.yul\":20420:20435   */\n      add\n        /* \"#utility.yul\":20413:20446   */\n      mstore\n        /* \"#utility.yul\":20228:20453   */\n      pop\n      jump\t// out\n        /* \"#utility.yul\":20459:20825   */\n    tag_172:\n        /* \"#utility.yul\":20601:20604   */\n      0x00\n        /* \"#utility.yul\":20622:20689   */\n      tag_379\n        /* \"#utility.yul\":20686:20688   */\n      0x26\n        /* \"#utility.yul\":20681:20684   */\n      dup4\n        /* \"#utility.yul\":20622:20689   */\n      tag_149\n      jump\t// in\n    tag_379:\n        /* \"#utility.yul\":20615:20689   */\n      swap2\n      pop\n        /* \"#utility.yul\":20698:20791   */\n      tag_380\n        /* \"#utility.yul\":20787:20790   */\n      dup3\n        /* \"#utility.yul\":20698:20791   */\n      tag_171\n      jump\t// in\n    tag_380:\n        /* \"#utility.yul\":20816:20818   */\n      0x40\n        /* \"#utility.yul\":20811:20814   */\n      dup3\n        /* \"#utility.yul\":20807:20819   */\n      add\n        /* \"#utility.yul\":20800:20819   */\n      swap1\n      pop\n        /* \"#utility.yul\":20459:20825   */\n      swap2\n      swap1\n      pop\n      jump\t// out\n        /* \"#utility.yul\":20831:21250   */\n    tag_99:\n        /* \"#utility.yul\":20997:21001   */\n      0x00\n        /* \"#utility.yul\":21035:21037   */\n      0x20\n        /* \"#utility.yul\":21024:21033   */\n      dup3\n        /* \"#utility.yul\":21020:21038   */\n      add\n        /* \"#utility.yul\":21012:21038   */\n      swap1\n      pop\n        /* \"#utility.yul\":21084:21093   */\n      dup2\n        /* \"#utility.yul\":21078:21082   */\n      dup2\n        /* \"#utility.yul\":21074:21094   */\n      sub\n        /* \"#utility.yul\":21070:21071   */\n      0x00\n        /* \"#utility.yul\":21059:21068   */\n      dup4\n        /* \"#utility.yul\":21055:21072   */\n      add\n        /* \"#utility.yul\":21048:21095   */\n      mstore\n        /* \"#utility.yul\":21112:21243   */\n      tag_382\n        /* \"#utility.yul\":21238:21242   */\n      dup2\n        /* \"#utility.yul\":21112:21243   */\n      tag_172\n      jump\t// in\n    tag_382:\n        /* \"#utility.yul\":21104:21243   */\n      swap1\n      pop\n        /* \"#utility.yul\":20831:21250   */\n      swap2\n      swap1\n      pop\n      jump\t// out\n        /* \"#utility.yul\":21256:21438   */\n    tag_173:\n        /* \"#utility.yul\":21396:21430   */\n      0x4f776e61626c653a2063616c6c6572206973206e6f7420746865206f776e6572\n        /* \"#utility.yul\":21392:21393   */\n      0x00\n        /* \"#utility.yul\":21384:21390   */\n      dup3\n        /* \"#utility.yul\":21380:21394   */\n      add\n        /* \"#utility.yul\":21373:21431   */\n      mstore\n        /* \"#utility.yul\":21256:21438   */\n      pop\n      jump\t// out\n        /* \"#utility.yul\":21444:21810   */\n    tag_174:\n        /* \"#utility.yul\":21586:21589   */\n      0x00\n        /* \"#utility.yul\":21607:21674   */\n      tag_385\n        /* \"#utility.yul\":21671:21673   */\n      0x20\n        /* \"#utility.yul\":21666:21669   */\n      dup4\n        /* \"#utility.yul\":21607:21674   */\n      tag_149\n      jump\t// in\n    tag_385:\n        /* \"#utility.yul\":21600:21674   */\n      swap2\n      pop\n        /* \"#utility.yul\":21683:21776   */\n      tag_386\n        /* \"#utility.yul\":21772:21775   */\n      dup3\n        /* \"#utility.yul\":21683:21776   */\n      tag_173\n      jump\t// in\n    tag_386:\n        /* \"#utility.yul\":21801:21803   */\n      0x20\n        /* \"#utility.yul\":21796:21799   */\n      dup3\n        /* \"#utility.yul\":21792:21804   */\n      add\n        /* \"#utility.yul\":21785:21804   */\n      swap1\n      pop\n        /* \"#utility.yul\":21444:21810   */\n      swap2\n      swap1\n      pop\n      jump\t// out\n        /* \"#utility.yul\":21816:22235   */\n    tag_107:\n        /* \"#utility.yul\":21982:21986   */\n      0x00\n        /* \"#utility.yul\":22020:22022   */\n      0x20\n        /* \"#utility.yul\":22009:22018   */\n      dup3\n        /* \"#utility.yul\":22005:22023   */\n      add\n        /* \"#utility.yul\":21997:22023   */\n      swap1\n      pop\n        /* \"#utility.yul\":22069:22078   */\n      dup2\n        /* \"#utility.yul\":22063:22067   */\n      dup2\n        /* \"#utility.yul\":22059:22079   */\n      sub\n        /* \"#utility.yul\":22055:22056   */\n      0x00\n        /* \"#utility.yul\":22044:22053   */\n      dup4\n        /* \"#utility.yul\":22040:22057   */\n      add\n        /* \"#utility.yul\":22033:22080   */\n      mstore\n        /* \"#utility.yul\":22097:22228   */\n      tag_388\n        /* \"#utility.yul\":22223:22227   */\n      dup2\n        /* \"#utility.yul\":22097:22228   */\n      tag_174\n      jump\t// in\n    tag_388:\n        /* \"#utility.yul\":22089:22228   */\n      swap1\n      pop\n        /* \"#utility.yul\":21816:22235   */\n      swap2\n      swap1\n      pop\n      jump\t// out\n\n    auxdata: 0xa264697066735822122094d31a39662ba2ec2e6a44c57e348b5f0f58f894044b2e3adf85771679c4764c64736f6c63430008110033\n}\n",
				"bytecode": {
					"linkReferences": {},
					"object": "6080604052600060025534801561001557600080fd5b50336000806101000a81548173ffffffffffffffffffffffffffffffffffffffff021916908373ffffffffffffffffffffffffffffffffffffffff160217905550611538806100656000396000f3fe608060405234801561001057600080fd5b506004361061007d5760003560e01c80638da5cb5b1161005b5780638da5cb5b146100c6578063eb455ab3146100e4578063ee416d5b14610100578063f2fde38b1461011c5761007d565b806301384813146100825780634d0a5dbd146100a057806383197ef0146100bc575b600080fd5b61008a610138565b6040516100979190610b5f565b60405180910390f35b6100ba60048036038101906100b59190610bf3565b61040f565b005b6100c46104ff565b005b6100ce610520565b6040516100db9190610c2f565b60405180910390f35b6100fe60048036038101906100f99190610ed5565b610549565b005b61011a60048036038101906101159190610f1e565b6106a9565b005b61013660048036038101906101319190610bf3565b61077c565b005b6060600360006101466107ff565b73ffffffffffffffffffffffffffffffffffffffff1673ffffffffffffffffffffffffffffffffffffffff16815260200190815260200160002060009054906101000a900460ff166101cd576040517f08c379a00000000000000000000000000000000000000000000000000000000081526004016101c490610fce565b60405180910390fd5b6001805480602002602001604051908101604052809291908181526020016000905b8282101561040657838290600052602060002090600602016040518060c001604052908160008201548152602001600182015481526020016002820180546102369061101d565b80601f01602080910402602001604051908101604052809291908181526020018280546102629061101d565b80156102af5780601f10610284576101008083540402835291602001916102af565b820191906000526020600020905b81548152906001019060200180831161029257829003601f168201915b505050505081526020016003820180546102c89061101d565b80601f01602080910402602001604051908101604052809291908181526020018280546102f49061101d565b80156103415780601f1061031657610100808354040283529160200191610341565b820191906000526020600020905b81548152906001019060200180831161032457829003601f168201915b5050505050815260200160048201805461035a9061101d565b80601f01602080910402602001604051908101604052809291908181526020018280546103869061101d565b80156103d35780601f106103a8576101008083540402835291602001916103d3565b820191906000526020600020905b8154815290600101906020018083116103b657829003601f168201915b505050505081526020016005820160009054906101000a900460ff161515151581525050815260200190600101906101ef565b50505050905090565b610417610807565b600360008273ffffffffffffffffffffffffffffffffffffffff1673ffffffffffffffffffffffffffffffffffffffff16815260200190815260200160002060009054906101000a900460ff16156104a4576040517f08c379a000000000000000000000000000000000000000000000000000000000815260040161049b906110c0565b60405180910390fd5b6001600360008373ffffffffffffffffffffffffffffffffffffffff1673ffffffffffffffffffffffffffffffffffffffff16815260200190815260200160002060006101000a81548160ff02191690831515021790555050565b610507610807565b3073ffffffffffffffffffffffffffffffffffffffff16ff5b60008060009054906101000a900473ffffffffffffffffffffffffffffffffffffffff16905090565b600360006105556107ff565b73ffffffffffffffffffffffffffffffffffffffff1673ffffffffffffffffffffffffffffffffffffffff16815260200190815260200160002060009054906101000a900460ff166105dc576040517f08c379a00000000000000000000000000000000000000000000000000000000081526004016105d390610fce565b60405180910390fd5b6000600260008154809291906105f19061110f565b919050559050808260000181815250506001829080600181540180825580915050600190039060005260206000209060060201600090919091909150600082015181600001556020820151816001015560408201518160020190816106569190611303565b50606082015181600301908161066c9190611303565b5060808201518160040190816106829190611303565b5060a08201518160050160006101000a81548160ff02191690831515021790555050505050565b600360006106b56107ff565b73ffffffffffffffffffffffffffffffffffffffff1673ffffffffffffffffffffffffffffffffffffffff16815260200190815260200160002060009054906101000a900460ff1661073c576040517f08c379a000000000000000000000000000000000000000000000000000000000815260040161073390610fce565b60405180910390fd5b6001808281548110610751576107506113d5565b5b906000526020600020906006020160050160006101000a81548160ff02191690831515021790555050565b610784610807565b600073ffffffffffffffffffffffffffffffffffffffff168173ffffffffffffffffffffffffffffffffffffffff16036107f3576040517f08c379a00000000000000000000000000000000000000000000000000000000081526004016107ea90611476565b60405180910390fd5b6107fc8161087e565b50565b600033905090565b3373ffffffffffffffffffffffffffffffffffffffff16610826610520565b73ffffffffffffffffffffffffffffffffffffffff161461087c576040517f08c379a0000000000000000000000000000000000000000000000000000000008152600401610873906114e2565b60405180910390fd5b565b60008060009054906101000a900473ffffffffffffffffffffffffffffffffffffffff169050816000806101000a81548173ffffffffffffffffffffffffffffffffffffffff021916908373ffffffffffffffffffffffffffffffffffffffff1602179055508173ffffffffffffffffffffffffffffffffffffffff168173ffffffffffffffffffffffffffffffffffffffff167f8be0079c531659141344cd1fd0a4f28419497f9722a3daafe3b4186f6b6457e060405160405180910390a35050565b600081519050919050565b600082825260208201905092915050565b6000819050602082019050919050565b6000819050919050565b6109818161096e565b82525050565b600081519050919050565b600082825260208201905092915050565b60005b838110156109c15780820151818401526020810190506109a6565b60008484015250505050565b6000601f19601f8301169050919050565b60006109e982610987565b6109f38185610992565b9350610a038185602086016109a3565b610a0c816109cd565b840191505092915050565b60008115159050919050565b610a2c81610a17565b82525050565b600060c083016000830151610a4a6000860182610978565b506020830151610a5d6020860182610978565b5060408301518482036040860152610a7582826109de565b91505060608301518482036060860152610a8f82826109de565b91505060808301518482036080860152610aa982826109de565b91505060a0830151610abe60a0860182610a23565b508091505092915050565b6000610ad58383610a32565b905092915050565b6000602082019050919050565b6000610af582610942565b610aff818561094d565b935083602082028501610b118561095e565b8060005b85811015610b4d5784840389528151610b2e8582610ac9565b9450610b3983610add565b925060208a01995050600181019050610b15565b50829750879550505050505092915050565b60006020820190508181036000830152610b798184610aea565b905092915050565b6000604051905090565b600080fd5b600080fd5b600073ffffffffffffffffffffffffffffffffffffffff82169050919050565b6000610bc082610b95565b9050919050565b610bd081610bb5565b8114610bdb57600080fd5b50565b600081359050610bed81610bc7565b92915050565b600060208284031215610c0957610c08610b8b565b5b6000610c1784828501610bde565b91505092915050565b610c2981610bb5565b82525050565b6000602082019050610c446000830184610c20565b92915050565b600080fd5b7f4e487b7100000000000000000000000000000000000000000000000000000000600052604160045260246000fd5b610c87826109cd565b810181811067ffffffffffffffff82111715610ca657610ca5610c4f565b5b80604052505050565b6000610cb9610b81565b9050610cc58282610c7e565b919050565b600080fd5b610cd88161096e565b8114610ce357600080fd5b50565b600081359050610cf581610ccf565b92915050565b600080fd5b600080fd5b600067ffffffffffffffff821115610d2057610d1f610c4f565b5b610d29826109cd565b9050602081019050919050565b82818337600083830152505050565b6000610d58610d5384610d05565b610caf565b905082815260208101848484011115610d7457610d73610d00565b5b610d7f848285610d36565b509392505050565b600082601f830112610d9c57610d9b610cfb565b5b8135610dac848260208601610d45565b91505092915050565b610dbe81610a17565b8114610dc957600080fd5b50565b600081359050610ddb81610db5565b92915050565b600060c08284031215610df757610df6610c4a565b5b610e0160c0610caf565b90506000610e1184828501610ce6565b6000830152506020610e2584828501610ce6565b602083015250604082013567ffffffffffffffff811115610e4957610e48610cca565b5b610e5584828501610d87565b604083015250606082013567ffffffffffffffff811115610e7957610e78610cca565b5b610e8584828501610d87565b606083015250608082013567ffffffffffffffff811115610ea957610ea8610cca565b5b610eb584828501610d87565b60808301525060a0610ec984828501610dcc565b60a08301525092915050565b600060208284031215610eeb57610eea610b8b565b5b600082013567ffffffffffffffff811115610f0957610f08610b90565b5b610f1584828501610de1565b91505092915050565b600060208284031215610f3457610f33610b8b565b5b6000610f4284828501610ce6565b91505092915050565b600082825260208201905092915050565b7f4661726d657244617461626173653a206f6e6c7920636f6e747261637420776860008201527f6963682061726520616c6c6f7765640000000000000000000000000000000000602082015250565b6000610fb8602f83610f4b565b9150610fc382610f5c565b604082019050919050565b60006020820190508181036000830152610fe781610fab565b9050919050565b7f4e487b7100000000000000000000000000000000000000000000000000000000600052602260045260246000fd5b6000600282049050600182168061103557607f821691505b60208210810361104857611047610fee565b5b50919050565b7f4661726d657244617461626173653a207065726d697373696f6e20686173206260008201527f65656e206772616e746564000000000000000000000000000000000000000000602082015250565b60006110aa602b83610f4b565b91506110b58261104e565b604082019050919050565b600060208201905081810360008301526110d98161109d565b9050919050565b7f4e487b7100000000000000000000000000000000000000000000000000000000600052601160045260246000fd5b600061111a8261096e565b91507fffffffffffffffffffffffffffffffffffffffffffffffffffffffffffffffff820361114c5761114b6110e0565b5b600182019050919050565b60008190508160005260206000209050919050565b60006020601f8301049050919050565b600082821b905092915050565b6000600883026111b97fffffffffffffffffffffffffffffffffffffffffffffffffffffffffffffffff8261117c565b6111c3868361117c565b95508019841693508086168417925050509392505050565b6000819050919050565b60006112006111fb6111f68461096e565b6111db565b61096e565b9050919050565b6000819050919050565b61121a836111e5565b61122e61122682611207565b848454611189565b825550505050565b600090565b611243611236565b61124e818484611211565b505050565b5b818110156112725761126760008261123b565b600181019050611254565b5050565b601f8211156112b75761128881611157565b6112918461116c565b810160208510156112a0578190505b6112b46112ac8561116c565b830182611253565b50505b505050565b600082821c905092915050565b60006112da600019846008026112bc565b1980831691505092915050565b60006112f383836112c9565b9150826002028217905092915050565b61130c82610987565b67ffffffffffffffff81111561132557611324610c4f565b5b61132f825461101d565b61133a828285611276565b600060209050601f83116001811461136d576000841561135b578287015190505b61136585826112e7565b8655506113cd565b601f19841661137b86611157565b60005b828110156113a35784890151825560018201915060208501945060208101905061137e565b868310156113c057848901516113bc601f8916826112c9565b8355505b6001600288020188555050505b505050505050565b7f4e487b7100000000000000000000000000000000000000000000000000000000600052603260045260246000fd5b7f4f776e61626c653a206e6577206f776e657220697320746865207a65726f206160008201527f6464726573730000000000000000000000000000000000000000000000000000602082015250565b6000611460602683610f4b565b915061146b82611404565b604082019050919050565b6000602082019050818103600083015261148f81611453565b9050919050565b7f4f776e61626c653a2063616c6c6572206973206e6f7420746865206f776e6572600082015250565b60006114cc602083610f4b565b91506114d782611496565b602082019050919050565b600060208201905081810360008301526114fb816114bf565b905091905056fea264697066735822122094d31a39662ba2ec2e6a44c57e348b5f0f58f894044b2e3adf85771679c4764c64736f6c63430008110033",
					"opcodes": "PUSH1 0x80 PUSH1 0x40 MSTORE PUSH1 0x0 PUSH1 0x2 SSTORE CALLVALUE DUP1 ISZERO PUSH2 0x15 JUMPI PUSH1 0x0 DUP1 REVERT JUMPDEST POP CALLER PUSH1 0x0 DUP1 PUSH2 0x100 EXP DUP2 SLOAD DUP2 PUSH20 0xFFFFFFFFFFFFFFFFFFFFFFFFFFFFFFFFFFFFFFFF MUL NOT AND SWAP1 DUP4 PUSH20 0xFFFFFFFFFFFFFFFFFFFFFFFFFFFFFFFFFFFFFFFF AND MUL OR SWAP1 SSTORE POP PUSH2 0x1538 DUP1 PUSH2 0x65 PUSH1 0x0 CODECOPY PUSH1 0x0 RETURN INVALID PUSH1 0x80 PUSH1 0x40 MSTORE CALLVALUE DUP1 ISZERO PUSH2 0x10 JUMPI PUSH1 0x0 DUP1 REVERT JUMPDEST POP PUSH1 0x4 CALLDATASIZE LT PUSH2 0x7D JUMPI PUSH1 0x0 CALLDATALOAD PUSH1 0xE0 SHR DUP1 PUSH4 0x8DA5CB5B GT PUSH2 0x5B JUMPI DUP1 PUSH4 0x8DA5CB5B EQ PUSH2 0xC6 JUMPI DUP1 PUSH4 0xEB455AB3 EQ PUSH2 0xE4 JUMPI DUP1 PUSH4 0xEE416D5B EQ PUSH2 0x100 JUMPI DUP1 PUSH4 0xF2FDE38B EQ PUSH2 0x11C JUMPI PUSH2 0x7D JUMP JUMPDEST DUP1 PUSH4 0x1384813 EQ PUSH2 0x82 JUMPI DUP1 PUSH4 0x4D0A5DBD EQ PUSH2 0xA0 JUMPI DUP1 PUSH4 0x83197EF0 EQ PUSH2 0xBC JUMPI JUMPDEST PUSH1 0x0 DUP1 REVERT JUMPDEST PUSH2 0x8A PUSH2 0x138 JUMP JUMPDEST PUSH1 0x40 MLOAD PUSH2 0x97 SWAP2 SWAP1 PUSH2 0xB5F JUMP JUMPDEST PUSH1 0x40 MLOAD DUP1 SWAP2 SUB SWAP1 RETURN JUMPDEST PUSH2 0xBA PUSH1 0x4 DUP1 CALLDATASIZE SUB DUP2 ADD SWAP1 PUSH2 0xB5 SWAP2 SWAP1 PUSH2 0xBF3 JUMP JUMPDEST PUSH2 0x40F JUMP JUMPDEST STOP JUMPDEST PUSH2 0xC4 PUSH2 0x4FF JUMP JUMPDEST STOP JUMPDEST PUSH2 0xCE PUSH2 0x520 JUMP JUMPDEST PUSH1 0x40 MLOAD PUSH2 0xDB SWAP2 SWAP1 PUSH2 0xC2F JUMP JUMPDEST PUSH1 0x40 MLOAD DUP1 SWAP2 SUB SWAP1 RETURN JUMPDEST PUSH2 0xFE PUSH1 0x4 DUP1 CALLDATASIZE SUB DUP2 ADD SWAP1 PUSH2 0xF9 SWAP2 SWAP1 PUSH2 0xED5 JUMP JUMPDEST PUSH2 0x549 JUMP JUMPDEST STOP JUMPDEST PUSH2 0x11A PUSH1 0x4 DUP1 CALLDATASIZE SUB DUP2 ADD SWAP1 PUSH2 0x115 SWAP2 SWAP1 PUSH2 0xF1E JUMP JUMPDEST PUSH2 0x6A9 JUMP JUMPDEST STOP JUMPDEST PUSH2 0x136 PUSH1 0x4 DUP1 CALLDATASIZE SUB DUP2 ADD SWAP1 PUSH2 0x131 SWAP2 SWAP1 PUSH2 0xBF3 JUMP JUMPDEST PUSH2 0x77C JUMP JUMPDEST STOP JUMPDEST PUSH1 0x60 PUSH1 0x3 PUSH1 0x0 PUSH2 0x146 PUSH2 0x7FF JUMP JUMPDEST PUSH20 0xFFFFFFFFFFFFFFFFFFFFFFFFFFFFFFFFFFFFFFFF AND PUSH20 0xFFFFFFFFFFFFFFFFFFFFFFFFFFFFFFFFFFFFFFFF AND DUP2 MSTORE PUSH1 0x20 ADD SWAP1 DUP2 MSTORE PUSH1 0x20 ADD PUSH1 0x0 KECCAK256 PUSH1 0x0 SWAP1 SLOAD SWAP1 PUSH2 0x100 EXP SWAP1 DIV PUSH1 0xFF AND PUSH2 0x1CD JUMPI PUSH1 0x40 MLOAD PUSH32 0x8C379A000000000000000000000000000000000000000000000000000000000 DUP2 MSTORE PUSH1 0x4 ADD PUSH2 0x1C4 SWAP1 PUSH2 0xFCE JUMP JUMPDEST PUSH1 0x40 MLOAD DUP1 SWAP2 SUB SWAP1 REVERT JUMPDEST PUSH1 0x1 DUP1 SLOAD DUP1 PUSH1 0x20 MUL PUSH1 0x20 ADD PUSH1 0x40 MLOAD SWAP1 DUP2 ADD PUSH1 0x40 MSTORE DUP1 SWAP3 SWAP2 SWAP1 DUP2 DUP2 MSTORE PUSH1 0x20 ADD PUSH1 0x0 SWAP1 JUMPDEST DUP3 DUP3 LT ISZERO PUSH2 0x406 JUMPI DUP4 DUP3 SWAP1 PUSH1 0x0 MSTORE PUSH1 0x20 PUSH1 0x0 KECCAK256 SWAP1 PUSH1 0x6 MUL ADD PUSH1 0x40 MLOAD DUP1 PUSH1 0xC0 ADD PUSH1 0x40 MSTORE SWAP1 DUP2 PUSH1 0x0 DUP3 ADD SLOAD DUP2 MSTORE PUSH1 0x20 ADD PUSH1 0x1 DUP3 ADD SLOAD DUP2 MSTORE PUSH1 0x20 ADD PUSH1 0x2 DUP3 ADD DUP1 SLOAD PUSH2 0x236 SWAP1 PUSH2 0x101D JUMP JUMPDEST DUP1 PUSH1 0x1F ADD PUSH1 0x20 DUP1 SWAP2 DIV MUL PUSH1 0x20 ADD PUSH1 0x40 MLOAD SWAP1 DUP2 ADD PUSH1 0x40 MSTORE DUP1 SWAP3 SWAP2 SWAP1 DUP2 DUP2 MSTORE PUSH1 0x20 ADD DUP3 DUP1 SLOAD PUSH2 0x262 SWAP1 PUSH2 0x101D JUMP JUMPDEST DUP1 ISZERO PUSH2 0x2AF JUMPI DUP1 PUSH1 0x1F LT PUSH2 0x284 JUMPI PUSH2 0x100 DUP1 DUP4 SLOAD DIV MUL DUP4 MSTORE SWAP2 PUSH1 0x20 ADD SWAP2 PUSH2 0x2AF JUMP JUMPDEST DUP3 ADD SWAP2 SWAP1 PUSH1 0x0 MSTORE PUSH1 0x20 PUSH1 0x0 KECCAK256 SWAP1 JUMPDEST DUP2 SLOAD DUP2 MSTORE SWAP1 PUSH1 0x1 ADD SWAP1 PUSH1 0x20 ADD DUP1 DUP4 GT PUSH2 0x292 JUMPI DUP3 SWAP1 SUB PUSH1 0x1F AND DUP3 ADD SWAP2 JUMPDEST POP POP POP POP POP DUP2 MSTORE PUSH1 0x20 ADD PUSH1 0x3 DUP3 ADD DUP1 SLOAD PUSH2 0x2C8 SWAP1 PUSH2 0x101D JUMP JUMPDEST DUP1 PUSH1 0x1F ADD PUSH1 0x20 DUP1 SWAP2 DIV MUL PUSH1 0x20 ADD PUSH1 0x40 MLOAD SWAP1 DUP2 ADD PUSH1 0x40 MSTORE DUP1 SWAP3 SWAP2 SWAP1 DUP2 DUP2 MSTORE PUSH1 0x20 ADD DUP3 DUP1 SLOAD PUSH2 0x2F4 SWAP1 PUSH2 0x101D JUMP JUMPDEST DUP1 ISZERO PUSH2 0x341 JUMPI DUP1 PUSH1 0x1F LT PUSH2 0x316 JUMPI PUSH2 0x100 DUP1 DUP4 SLOAD DIV MUL DUP4 MSTORE SWAP2 PUSH1 0x20 ADD SWAP2 PUSH2 0x341 JUMP JUMPDEST DUP3 ADD SWAP2 SWAP1 PUSH1 0x0 MSTORE PUSH1 0x20 PUSH1 0x0 KECCAK256 SWAP1 JUMPDEST DUP2 SLOAD DUP2 MSTORE SWAP1 PUSH1 0x1 ADD SWAP1 PUSH1 0x20 ADD DUP1 DUP4 GT PUSH2 0x324 JUMPI DUP3 SWAP1 SUB PUSH1 0x1F AND DUP3 ADD SWAP2 JUMPDEST POP POP POP POP POP DUP2 MSTORE PUSH1 0x20 ADD PUSH1 0x4 DUP3 ADD DUP1 SLOAD PUSH2 0x35A SWAP1 PUSH2 0x101D JUMP JUMPDEST DUP1 PUSH1 0x1F ADD PUSH1 0x20 DUP1 SWAP2 DIV MUL PUSH1 0x20 ADD PUSH1 0x40 MLOAD SWAP1 DUP2 ADD PUSH1 0x40 MSTORE DUP1 SWAP3 SWAP2 SWAP1 DUP2 DUP2 MSTORE PUSH1 0x20 ADD DUP3 DUP1 SLOAD PUSH2 0x386 SWAP1 PUSH2 0x101D JUMP JUMPDEST DUP1 ISZERO PUSH2 0x3D3 JUMPI DUP1 PUSH1 0x1F LT PUSH2 0x3A8 JUMPI PUSH2 0x100 DUP1 DUP4 SLOAD DIV MUL DUP4 MSTORE SWAP2 PUSH1 0x20 ADD SWAP2 PUSH2 0x3D3 JUMP JUMPDEST DUP3 ADD SWAP2 SWAP1 PUSH1 0x0 MSTORE PUSH1 0x20 PUSH1 0x0 KECCAK256 SWAP1 JUMPDEST DUP2 SLOAD DUP2 MSTORE SWAP1 PUSH1 0x1 ADD SWAP1 PUSH1 0x20 ADD DUP1 DUP4 GT PUSH2 0x3B6 JUMPI DUP3 SWAP1 SUB PUSH1 0x1F AND DUP3 ADD SWAP2 JUMPDEST POP POP POP POP POP DUP2 MSTORE PUSH1 0x20 ADD PUSH1 0x5 DUP3 ADD PUSH1 0x0 SWAP1 SLOAD SWAP1 PUSH2 0x100 EXP SWAP1 DIV PUSH1 0xFF AND ISZERO ISZERO ISZERO ISZERO DUP2 MSTORE POP POP DUP2 MSTORE PUSH1 0x20 ADD SWAP1 PUSH1 0x1 ADD SWAP1 PUSH2 0x1EF JUMP JUMPDEST POP POP POP POP SWAP1 POP SWAP1 JUMP JUMPDEST PUSH2 0x417 PUSH2 0x807 JUMP JUMPDEST PUSH1 0x3 PUSH1 0x0 DUP3 PUSH20 0xFFFFFFFFFFFFFFFFFFFFFFFFFFFFFFFFFFFFFFFF AND PUSH20 0xFFFFFFFFFFFFFFFFFFFFFFFFFFFFFFFFFFFFFFFF AND DUP2 MSTORE PUSH1 0x20 ADD SWAP1 DUP2 MSTORE PUSH1 0x20 ADD PUSH1 0x0 KECCAK256 PUSH1 0x0 SWAP1 SLOAD SWAP1 PUSH2 0x100 EXP SWAP1 DIV PUSH1 0xFF AND ISZERO PUSH2 0x4A4 JUMPI PUSH1 0x40 MLOAD PUSH32 0x8C379A000000000000000000000000000000000000000000000000000000000 DUP2 MSTORE PUSH1 0x4 ADD PUSH2 0x49B SWAP1 PUSH2 0x10C0 JUMP JUMPDEST PUSH1 0x40 MLOAD DUP1 SWAP2 SUB SWAP1 REVERT JUMPDEST PUSH1 0x1 PUSH1 0x3 PUSH1 0x0 DUP4 PUSH20 0xFFFFFFFFFFFFFFFFFFFFFFFFFFFFFFFFFFFFFFFF AND PUSH20 0xFFFFFFFFFFFFFFFFFFFFFFFFFFFFFFFFFFFFFFFF AND DUP2 MSTORE PUSH1 0x20 ADD SWAP1 DUP2 MSTORE PUSH1 0x20 ADD PUSH1 0x0 KECCAK256 PUSH1 0x0 PUSH2 0x100 EXP DUP2 SLOAD DUP2 PUSH1 0xFF MUL NOT AND SWAP1 DUP4 ISZERO ISZERO MUL OR SWAP1 SSTORE POP POP JUMP JUMPDEST PUSH2 0x507 PUSH2 0x807 JUMP JUMPDEST ADDRESS PUSH20 0xFFFFFFFFFFFFFFFFFFFFFFFFFFFFFFFFFFFFFFFF AND SELFDESTRUCT JUMPDEST PUSH1 0x0 DUP1 PUSH1 0x0 SWAP1 SLOAD SWAP1 PUSH2 0x100 EXP SWAP1 DIV PUSH20 0xFFFFFFFFFFFFFFFFFFFFFFFFFFFFFFFFFFFFFFFF AND SWAP1 POP SWAP1 JUMP JUMPDEST PUSH1 0x3 PUSH1 0x0 PUSH2 0x555 PUSH2 0x7FF JUMP JUMPDEST PUSH20 0xFFFFFFFFFFFFFFFFFFFFFFFFFFFFFFFFFFFFFFFF AND PUSH20 0xFFFFFFFFFFFFFFFFFFFFFFFFFFFFFFFFFFFFFFFF AND DUP2 MSTORE PUSH1 0x20 ADD SWAP1 DUP2 MSTORE PUSH1 0x20 ADD PUSH1 0x0 KECCAK256 PUSH1 0x0 SWAP1 SLOAD SWAP1 PUSH2 0x100 EXP SWAP1 DIV PUSH1 0xFF AND PUSH2 0x5DC JUMPI PUSH1 0x40 MLOAD PUSH32 0x8C379A000000000000000000000000000000000000000000000000000000000 DUP2 MSTORE PUSH1 0x4 ADD PUSH2 0x5D3 SWAP1 PUSH2 0xFCE JUMP JUMPDEST PUSH1 0x40 MLOAD DUP1 SWAP2 SUB SWAP1 REVERT JUMPDEST PUSH1 0x0 PUSH1 0x2 PUSH1 0x0 DUP2 SLOAD DUP1 SWAP3 SWAP2 SWAP1 PUSH2 0x5F1 SWAP1 PUSH2 0x110F JUMP JUMPDEST SWAP2 SWAP1 POP SSTORE SWAP1 POP DUP1 DUP3 PUSH1 0x0 ADD DUP2 DUP2 MSTORE POP POP PUSH1 0x1 DUP3 SWAP1 DUP1 PUSH1 0x1 DUP2 SLOAD ADD DUP1 DUP3 SSTORE DUP1 SWAP2 POP POP PUSH1 0x1 SWAP1 SUB SWAP1 PUSH1 0x0 MSTORE PUSH1 0x20 PUSH1 0x0 KECCAK256 SWAP1 PUSH1 0x6 MUL ADD PUSH1 0x0 SWAP1 SWAP2 SWAP1 SWAP2 SWAP1 SWAP2 POP PUSH1 0x0 DUP3 ADD MLOAD DUP2 PUSH1 0x0 ADD SSTORE PUSH1 0x20 DUP3 ADD MLOAD DUP2 PUSH1 0x1 ADD SSTORE PUSH1 0x40 DUP3 ADD MLOAD DUP2 PUSH1 0x2 ADD SWAP1 DUP2 PUSH2 0x656 SWAP2 SWAP1 PUSH2 0x1303 JUMP JUMPDEST POP PUSH1 0x60 DUP3 ADD MLOAD DUP2 PUSH1 0x3 ADD SWAP1 DUP2 PUSH2 0x66C SWAP2 SWAP1 PUSH2 0x1303 JUMP JUMPDEST POP PUSH1 0x80 DUP3 ADD MLOAD DUP2 PUSH1 0x4 ADD SWAP1 DUP2 PUSH2 0x682 SWAP2 SWAP1 PUSH2 0x1303 JUMP JUMPDEST POP PUSH1 0xA0 DUP3 ADD MLOAD DUP2 PUSH1 0x5 ADD PUSH1 0x0 PUSH2 0x100 EXP DUP2 SLOAD DUP2 PUSH1 0xFF MUL NOT AND SWAP1 DUP4 ISZERO ISZERO MUL OR SWAP1 SSTORE POP POP POP POP POP JUMP JUMPDEST PUSH1 0x3 PUSH1 0x0 PUSH2 0x6B5 PUSH2 0x7FF JUMP JUMPDEST PUSH20 0xFFFFFFFFFFFFFFFFFFFFFFFFFFFFFFFFFFFFFFFF AND PUSH20 0xFFFFFFFFFFFFFFFFFFFFFFFFFFFFFFFFFFFFFFFF AND DUP2 MSTORE PUSH1 0x20 ADD SWAP1 DUP2 MSTORE PUSH1 0x20 ADD PUSH1 0x0 KECCAK256 PUSH1 0x0 SWAP1 SLOAD SWAP1 PUSH2 0x100 EXP SWAP1 DIV PUSH1 0xFF AND PUSH2 0x73C JUMPI PUSH1 0x40 MLOAD PUSH32 0x8C379A000000000000000000000000000000000000000000000000000000000 DUP2 MSTORE PUSH1 0x4 ADD PUSH2 0x733 SWAP1 PUSH2 0xFCE JUMP JUMPDEST PUSH1 0x40 MLOAD DUP1 SWAP2 SUB SWAP1 REVERT JUMPDEST PUSH1 0x1 DUP1 DUP3 DUP2 SLOAD DUP2 LT PUSH2 0x751 JUMPI PUSH2 0x750 PUSH2 0x13D5 JUMP JUMPDEST JUMPDEST SWAP1 PUSH1 0x0 MSTORE PUSH1 0x20 PUSH1 0x0 KECCAK256 SWAP1 PUSH1 0x6 MUL ADD PUSH1 0x5 ADD PUSH1 0x0 PUSH2 0x100 EXP DUP2 SLOAD DUP2 PUSH1 0xFF MUL NOT AND SWAP1 DUP4 ISZERO ISZERO MUL OR SWAP1 SSTORE POP POP JUMP JUMPDEST PUSH2 0x784 PUSH2 0x807 JUMP JUMPDEST PUSH1 0x0 PUSH20 0xFFFFFFFFFFFFFFFFFFFFFFFFFFFFFFFFFFFFFFFF AND DUP2 PUSH20 0xFFFFFFFFFFFFFFFFFFFFFFFFFFFFFFFFFFFFFFFF AND SUB PUSH2 0x7F3 JUMPI PUSH1 0x40 MLOAD PUSH32 0x8C379A000000000000000000000000000000000000000000000000000000000 DUP2 MSTORE PUSH1 0x4 ADD PUSH2 0x7EA SWAP1 PUSH2 0x1476 JUMP JUMPDEST PUSH1 0x40 MLOAD DUP1 SWAP2 SUB SWAP1 REVERT JUMPDEST PUSH2 0x7FC DUP2 PUSH2 0x87E JUMP JUMPDEST POP JUMP JUMPDEST PUSH1 0x0 CALLER SWAP1 POP SWAP1 JUMP JUMPDEST CALLER PUSH20 0xFFFFFFFFFFFFFFFFFFFFFFFFFFFFFFFFFFFFFFFF AND PUSH2 0x826 PUSH2 0x520 JUMP JUMPDEST PUSH20 0xFFFFFFFFFFFFFFFFFFFFFFFFFFFFFFFFFFFFFFFF AND EQ PUSH2 0x87C JUMPI PUSH1 0x40 MLOAD PUSH32 0x8C379A000000000000000000000000000000000000000000000000000000000 DUP2 MSTORE PUSH1 0x4 ADD PUSH2 0x873 SWAP1 PUSH2 0x14E2 JUMP JUMPDEST PUSH1 0x40 MLOAD DUP1 SWAP2 SUB SWAP1 REVERT JUMPDEST JUMP JUMPDEST PUSH1 0x0 DUP1 PUSH1 0x0 SWAP1 SLOAD SWAP1 PUSH2 0x100 EXP SWAP1 DIV PUSH20 0xFFFFFFFFFFFFFFFFFFFFFFFFFFFFFFFFFFFFFFFF AND SWAP1 POP DUP2 PUSH1 0x0 DUP1 PUSH2 0x100 EXP DUP2 SLOAD DUP2 PUSH20 0xFFFFFFFFFFFFFFFFFFFFFFFFFFFFFFFFFFFFFFFF MUL NOT AND SWAP1 DUP4 PUSH20 0xFFFFFFFFFFFFFFFFFFFFFFFFFFFFFFFFFFFFFFFF AND MUL OR SWAP1 SSTORE POP DUP2 PUSH20 0xFFFFFFFFFFFFFFFFFFFFFFFFFFFFFFFFFFFFFFFF AND DUP2 PUSH20 0xFFFFFFFFFFFFFFFFFFFFFFFFFFFFFFFFFFFFFFFF AND PUSH32 0x8BE0079C531659141344CD1FD0A4F28419497F9722A3DAAFE3B4186F6B6457E0 PUSH1 0x40 MLOAD PUSH1 0x40 MLOAD DUP1 SWAP2 SUB SWAP1 LOG3 POP POP JUMP JUMPDEST PUSH1 0x0 DUP2 MLOAD SWAP1 POP SWAP2 SWAP1 POP JUMP JUMPDEST PUSH1 0x0 DUP3 DUP3 MSTORE PUSH1 0x20 DUP3 ADD SWAP1 POP SWAP3 SWAP2 POP POP JUMP JUMPDEST PUSH1 0x0 DUP2 SWAP1 POP PUSH1 0x20 DUP3 ADD SWAP1 POP SWAP2 SWAP1 POP JUMP JUMPDEST PUSH1 0x0 DUP2 SWAP1 POP SWAP2 SWAP1 POP JUMP JUMPDEST PUSH2 0x981 DUP2 PUSH2 0x96E JUMP JUMPDEST DUP3 MSTORE POP POP JUMP JUMPDEST PUSH1 0x0 DUP2 MLOAD SWAP1 POP SWAP2 SWAP1 POP JUMP JUMPDEST PUSH1 0x0 DUP3 DUP3 MSTORE PUSH1 0x20 DUP3 ADD SWAP1 POP SWAP3 SWAP2 POP POP JUMP JUMPDEST PUSH1 0x0 JUMPDEST DUP4 DUP2 LT ISZERO PUSH2 0x9C1 JUMPI DUP1 DUP3 ADD MLOAD DUP2 DUP5 ADD MSTORE PUSH1 0x20 DUP2 ADD SWAP1 POP PUSH2 0x9A6 JUMP JUMPDEST PUSH1 0x0 DUP5 DUP5 ADD MSTORE POP POP POP POP JUMP JUMPDEST PUSH1 0x0 PUSH1 0x1F NOT PUSH1 0x1F DUP4 ADD AND SWAP1 POP SWAP2 SWAP1 POP JUMP JUMPDEST PUSH1 0x0 PUSH2 0x9E9 DUP3 PUSH2 0x987 JUMP JUMPDEST PUSH2 0x9F3 DUP2 DUP6 PUSH2 0x992 JUMP JUMPDEST SWAP4 POP PUSH2 0xA03 DUP2 DUP6 PUSH1 0x20 DUP7 ADD PUSH2 0x9A3 JUMP JUMPDEST PUSH2 0xA0C DUP2 PUSH2 0x9CD JUMP JUMPDEST DUP5 ADD SWAP2 POP POP SWAP3 SWAP2 POP POP JUMP JUMPDEST PUSH1 0x0 DUP2 ISZERO ISZERO SWAP1 POP SWAP2 SWAP1 POP JUMP JUMPDEST PUSH2 0xA2C DUP2 PUSH2 0xA17 JUMP JUMPDEST DUP3 MSTORE POP POP JUMP JUMPDEST PUSH1 0x0 PUSH1 0xC0 DUP4 ADD PUSH1 0x0 DUP4 ADD MLOAD PUSH2 0xA4A PUSH1 0x0 DUP7 ADD DUP3 PUSH2 0x978 JUMP JUMPDEST POP PUSH1 0x20 DUP4 ADD MLOAD PUSH2 0xA5D PUSH1 0x20 DUP7 ADD DUP3 PUSH2 0x978 JUMP JUMPDEST POP PUSH1 0x40 DUP4 ADD MLOAD DUP5 DUP3 SUB PUSH1 0x40 DUP7 ADD MSTORE PUSH2 0xA75 DUP3 DUP3 PUSH2 0x9DE JUMP JUMPDEST SWAP2 POP POP PUSH1 0x60 DUP4 ADD MLOAD DUP5 DUP3 SUB PUSH1 0x60 DUP7 ADD MSTORE PUSH2 0xA8F DUP3 DUP3 PUSH2 0x9DE JUMP JUMPDEST SWAP2 POP POP PUSH1 0x80 DUP4 ADD MLOAD DUP5 DUP3 SUB PUSH1 0x80 DUP7 ADD MSTORE PUSH2 0xAA9 DUP3 DUP3 PUSH2 0x9DE JUMP JUMPDEST SWAP2 POP POP PUSH1 0xA0 DUP4 ADD MLOAD PUSH2 0xABE PUSH1 0xA0 DUP7 ADD DUP3 PUSH2 0xA23 JUMP JUMPDEST POP DUP1 SWAP2 POP POP SWAP3 SWAP2 POP POP JUMP JUMPDEST PUSH1 0x0 PUSH2 0xAD5 DUP4 DUP4 PUSH2 0xA32 JUMP JUMPDEST SWAP1 POP SWAP3 SWAP2 POP POP JUMP JUMPDEST PUSH1 0x0 PUSH1 0x20 DUP3 ADD SWAP1 POP SWAP2 SWAP1 POP JUMP JUMPDEST PUSH1 0x0 PUSH2 0xAF5 DUP3 PUSH2 0x942 JUMP JUMPDEST PUSH2 0xAFF DUP2 DUP6 PUSH2 0x94D JUMP JUMPDEST SWAP4 POP DUP4 PUSH1 0x20 DUP3 MUL DUP6 ADD PUSH2 0xB11 DUP6 PUSH2 0x95E JUMP JUMPDEST DUP1 PUSH1 0x0 JUMPDEST DUP6 DUP2 LT ISZERO PUSH2 0xB4D JUMPI DUP5 DUP5 SUB DUP10 MSTORE DUP2 MLOAD PUSH2 0xB2E DUP6 DUP3 PUSH2 0xAC9 JUMP JUMPDEST SWAP5 POP PUSH2 0xB39 DUP4 PUSH2 0xADD JUMP JUMPDEST SWAP3 POP PUSH1 0x20 DUP11 ADD SWAP10 POP POP PUSH1 0x1 DUP2 ADD SWAP1 POP PUSH2 0xB15 JUMP JUMPDEST POP DUP3 SWAP8 POP DUP8 SWAP6 POP POP POP POP POP POP SWAP3 SWAP2 POP POP JUMP JUMPDEST PUSH1 0x0 PUSH1 0x20 DUP3 ADD SWAP1 POP DUP2 DUP2 SUB PUSH1 0x0 DUP4 ADD MSTORE PUSH2 0xB79 DUP2 DUP5 PUSH2 0xAEA JUMP JUMPDEST SWAP1 POP SWAP3 SWAP2 POP POP JUMP JUMPDEST PUSH1 0x0 PUSH1 0x40 MLOAD SWAP1 POP SWAP1 JUMP JUMPDEST PUSH1 0x0 DUP1 REVERT JUMPDEST PUSH1 0x0 DUP1 REVERT JUMPDEST PUSH1 0x0 PUSH20 0xFFFFFFFFFFFFFFFFFFFFFFFFFFFFFFFFFFFFFFFF DUP3 AND SWAP1 POP SWAP2 SWAP1 POP JUMP JUMPDEST PUSH1 0x0 PUSH2 0xBC0 DUP3 PUSH2 0xB95 JUMP JUMPDEST SWAP1 POP SWAP2 SWAP1 POP JUMP JUMPDEST PUSH2 0xBD0 DUP2 PUSH2 0xBB5 JUMP JUMPDEST DUP2 EQ PUSH2 0xBDB JUMPI PUSH1 0x0 DUP1 REVERT JUMPDEST POP JUMP JUMPDEST PUSH1 0x0 DUP2 CALLDATALOAD SWAP1 POP PUSH2 0xBED DUP2 PUSH2 0xBC7 JUMP JUMPDEST SWAP3 SWAP2 POP POP JUMP JUMPDEST PUSH1 0x0 PUSH1 0x20 DUP3 DUP5 SUB SLT ISZERO PUSH2 0xC09 JUMPI PUSH2 0xC08 PUSH2 0xB8B JUMP JUMPDEST JUMPDEST PUSH1 0x0 PUSH2 0xC17 DUP5 DUP3 DUP6 ADD PUSH2 0xBDE JUMP JUMPDEST SWAP2 POP POP SWAP3 SWAP2 POP POP JUMP JUMPDEST PUSH2 0xC29 DUP2 PUSH2 0xBB5 JUMP JUMPDEST DUP3 MSTORE POP POP JUMP JUMPDEST PUSH1 0x0 PUSH1 0x20 DUP3 ADD SWAP1 POP PUSH2 0xC44 PUSH1 0x0 DUP4 ADD DUP5 PUSH2 0xC20 JUMP JUMPDEST SWAP3 SWAP2 POP POP JUMP JUMPDEST PUSH1 0x0 DUP1 REVERT JUMPDEST PUSH32 0x4E487B7100000000000000000000000000000000000000000000000000000000 PUSH1 0x0 MSTORE PUSH1 0x41 PUSH1 0x4 MSTORE PUSH1 0x24 PUSH1 0x0 REVERT JUMPDEST PUSH2 0xC87 DUP3 PUSH2 0x9CD JUMP JUMPDEST DUP2 ADD DUP2 DUP2 LT PUSH8 0xFFFFFFFFFFFFFFFF DUP3 GT OR ISZERO PUSH2 0xCA6 JUMPI PUSH2 0xCA5 PUSH2 0xC4F JUMP JUMPDEST JUMPDEST DUP1 PUSH1 0x40 MSTORE POP POP POP JUMP JUMPDEST PUSH1 0x0 PUSH2 0xCB9 PUSH2 0xB81 JUMP JUMPDEST SWAP1 POP PUSH2 0xCC5 DUP3 DUP3 PUSH2 0xC7E JUMP JUMPDEST SWAP2 SWAP1 POP JUMP JUMPDEST PUSH1 0x0 DUP1 REVERT JUMPDEST PUSH2 0xCD8 DUP2 PUSH2 0x96E JUMP JUMPDEST DUP2 EQ PUSH2 0xCE3 JUMPI PUSH1 0x0 DUP1 REVERT JUMPDEST POP JUMP JUMPDEST PUSH1 0x0 DUP2 CALLDATALOAD SWAP1 POP PUSH2 0xCF5 DUP2 PUSH2 0xCCF JUMP JUMPDEST SWAP3 SWAP2 POP POP JUMP JUMPDEST PUSH1 0x0 DUP1 REVERT JUMPDEST PUSH1 0x0 DUP1 REVERT JUMPDEST PUSH1 0x0 PUSH8 0xFFFFFFFFFFFFFFFF DUP3 GT ISZERO PUSH2 0xD20 JUMPI PUSH2 0xD1F PUSH2 0xC4F JUMP JUMPDEST JUMPDEST PUSH2 0xD29 DUP3 PUSH2 0x9CD JUMP JUMPDEST SWAP1 POP PUSH1 0x20 DUP2 ADD SWAP1 POP SWAP2 SWAP1 POP JUMP JUMPDEST DUP3 DUP2 DUP4 CALLDATACOPY PUSH1 0x0 DUP4 DUP4 ADD MSTORE POP POP POP JUMP JUMPDEST PUSH1 0x0 PUSH2 0xD58 PUSH2 0xD53 DUP5 PUSH2 0xD05 JUMP JUMPDEST PUSH2 0xCAF JUMP JUMPDEST SWAP1 POP DUP3 DUP2 MSTORE PUSH1 0x20 DUP2 ADD DUP5 DUP5 DUP5 ADD GT ISZERO PUSH2 0xD74 JUMPI PUSH2 0xD73 PUSH2 0xD00 JUMP JUMPDEST JUMPDEST PUSH2 0xD7F DUP5 DUP3 DUP6 PUSH2 0xD36 JUMP JUMPDEST POP SWAP4 SWAP3 POP POP POP JUMP JUMPDEST PUSH1 0x0 DUP3 PUSH1 0x1F DUP4 ADD SLT PUSH2 0xD9C JUMPI PUSH2 0xD9B PUSH2 0xCFB JUMP JUMPDEST JUMPDEST DUP2 CALLDATALOAD PUSH2 0xDAC DUP5 DUP3 PUSH1 0x20 DUP7 ADD PUSH2 0xD45 JUMP JUMPDEST SWAP2 POP POP SWAP3 SWAP2 POP POP JUMP JUMPDEST PUSH2 0xDBE DUP2 PUSH2 0xA17 JUMP JUMPDEST DUP2 EQ PUSH2 0xDC9 JUMPI PUSH1 0x0 DUP1 REVERT JUMPDEST POP JUMP JUMPDEST PUSH1 0x0 DUP2 CALLDATALOAD SWAP1 POP PUSH2 0xDDB DUP2 PUSH2 0xDB5 JUMP JUMPDEST SWAP3 SWAP2 POP POP JUMP JUMPDEST PUSH1 0x0 PUSH1 0xC0 DUP3 DUP5 SUB SLT ISZERO PUSH2 0xDF7 JUMPI PUSH2 0xDF6 PUSH2 0xC4A JUMP JUMPDEST JUMPDEST PUSH2 0xE01 PUSH1 0xC0 PUSH2 0xCAF JUMP JUMPDEST SWAP1 POP PUSH1 0x0 PUSH2 0xE11 DUP5 DUP3 DUP6 ADD PUSH2 0xCE6 JUMP JUMPDEST PUSH1 0x0 DUP4 ADD MSTORE POP PUSH1 0x20 PUSH2 0xE25 DUP5 DUP3 DUP6 ADD PUSH2 0xCE6 JUMP JUMPDEST PUSH1 0x20 DUP4 ADD MSTORE POP PUSH1 0x40 DUP3 ADD CALLDATALOAD PUSH8 0xFFFFFFFFFFFFFFFF DUP2 GT ISZERO PUSH2 0xE49 JUMPI PUSH2 0xE48 PUSH2 0xCCA JUMP JUMPDEST JUMPDEST PUSH2 0xE55 DUP5 DUP3 DUP6 ADD PUSH2 0xD87 JUMP JUMPDEST PUSH1 0x40 DUP4 ADD MSTORE POP PUSH1 0x60 DUP3 ADD CALLDATALOAD PUSH8 0xFFFFFFFFFFFFFFFF DUP2 GT ISZERO PUSH2 0xE79 JUMPI PUSH2 0xE78 PUSH2 0xCCA JUMP JUMPDEST JUMPDEST PUSH2 0xE85 DUP5 DUP3 DUP6 ADD PUSH2 0xD87 JUMP JUMPDEST PUSH1 0x60 DUP4 ADD MSTORE POP PUSH1 0x80 DUP3 ADD CALLDATALOAD PUSH8 0xFFFFFFFFFFFFFFFF DUP2 GT ISZERO PUSH2 0xEA9 JUMPI PUSH2 0xEA8 PUSH2 0xCCA JUMP JUMPDEST JUMPDEST PUSH2 0xEB5 DUP5 DUP3 DUP6 ADD PUSH2 0xD87 JUMP JUMPDEST PUSH1 0x80 DUP4 ADD MSTORE POP PUSH1 0xA0 PUSH2 0xEC9 DUP5 DUP3 DUP6 ADD PUSH2 0xDCC JUMP JUMPDEST PUSH1 0xA0 DUP4 ADD MSTORE POP SWAP3 SWAP2 POP POP JUMP JUMPDEST PUSH1 0x0 PUSH1 0x20 DUP3 DUP5 SUB SLT ISZERO PUSH2 0xEEB JUMPI PUSH2 0xEEA PUSH2 0xB8B JUMP JUMPDEST JUMPDEST PUSH1 0x0 DUP3 ADD CALLDATALOAD PUSH8 0xFFFFFFFFFFFFFFFF DUP2 GT ISZERO PUSH2 0xF09 JUMPI PUSH2 0xF08 PUSH2 0xB90 JUMP JUMPDEST JUMPDEST PUSH2 0xF15 DUP5 DUP3 DUP6 ADD PUSH2 0xDE1 JUMP JUMPDEST SWAP2 POP POP SWAP3 SWAP2 POP POP JUMP JUMPDEST PUSH1 0x0 PUSH1 0x20 DUP3 DUP5 SUB SLT ISZERO PUSH2 0xF34 JUMPI PUSH2 0xF33 PUSH2 0xB8B JUMP JUMPDEST JUMPDEST PUSH1 0x0 PUSH2 0xF42 DUP5 DUP3 DUP6 ADD PUSH2 0xCE6 JUMP JUMPDEST SWAP2 POP POP SWAP3 SWAP2 POP POP JUMP JUMPDEST PUSH1 0x0 DUP3 DUP3 MSTORE PUSH1 0x20 DUP3 ADD SWAP1 POP SWAP3 SWAP2 POP POP JUMP JUMPDEST PUSH32 0x4661726D657244617461626173653A206F6E6C7920636F6E7472616374207768 PUSH1 0x0 DUP3 ADD MSTORE PUSH32 0x6963682061726520616C6C6F7765640000000000000000000000000000000000 PUSH1 0x20 DUP3 ADD MSTORE POP JUMP JUMPDEST PUSH1 0x0 PUSH2 0xFB8 PUSH1 0x2F DUP4 PUSH2 0xF4B JUMP JUMPDEST SWAP2 POP PUSH2 0xFC3 DUP3 PUSH2 0xF5C JUMP JUMPDEST PUSH1 0x40 DUP3 ADD SWAP1 POP SWAP2 SWAP1 POP JUMP JUMPDEST PUSH1 0x0 PUSH1 0x20 DUP3 ADD SWAP1 POP DUP2 DUP2 SUB PUSH1 0x0 DUP4 ADD MSTORE PUSH2 0xFE7 DUP2 PUSH2 0xFAB JUMP JUMPDEST SWAP1 POP SWAP2 SWAP1 POP JUMP JUMPDEST PUSH32 0x4E487B7100000000000000000000000000000000000000000000000000000000 PUSH1 0x0 MSTORE PUSH1 0x22 PUSH1 0x4 MSTORE PUSH1 0x24 PUSH1 0x0 REVERT JUMPDEST PUSH1 0x0 PUSH1 0x2 DUP3 DIV SWAP1 POP PUSH1 0x1 DUP3 AND DUP1 PUSH2 0x1035 JUMPI PUSH1 0x7F DUP3 AND SWAP2 POP JUMPDEST PUSH1 0x20 DUP3 LT DUP2 SUB PUSH2 0x1048 JUMPI PUSH2 0x1047 PUSH2 0xFEE JUMP JUMPDEST JUMPDEST POP SWAP2 SWAP1 POP JUMP JUMPDEST PUSH32 0x4661726D657244617461626173653A207065726D697373696F6E206861732062 PUSH1 0x0 DUP3 ADD MSTORE PUSH32 0x65656E206772616E746564000000000000000000000000000000000000000000 PUSH1 0x20 DUP3 ADD MSTORE POP JUMP JUMPDEST PUSH1 0x0 PUSH2 0x10AA PUSH1 0x2B DUP4 PUSH2 0xF4B JUMP JUMPDEST SWAP2 POP PUSH2 0x10B5 DUP3 PUSH2 0x104E JUMP JUMPDEST PUSH1 0x40 DUP3 ADD SWAP1 POP SWAP2 SWAP1 POP JUMP JUMPDEST PUSH1 0x0 PUSH1 0x20 DUP3 ADD SWAP1 POP DUP2 DUP2 SUB PUSH1 0x0 DUP4 ADD MSTORE PUSH2 0x10D9 DUP2 PUSH2 0x109D JUMP JUMPDEST SWAP1 POP SWAP2 SWAP1 POP JUMP JUMPDEST PUSH32 0x4E487B7100000000000000000000000000000000000000000000000000000000 PUSH1 0x0 MSTORE PUSH1 0x11 PUSH1 0x4 MSTORE PUSH1 0x24 PUSH1 0x0 REVERT JUMPDEST PUSH1 0x0 PUSH2 0x111A DUP3 PUSH2 0x96E JUMP JUMPDEST SWAP2 POP PUSH32 0xFFFFFFFFFFFFFFFFFFFFFFFFFFFFFFFFFFFFFFFFFFFFFFFFFFFFFFFFFFFFFFFF DUP3 SUB PUSH2 0x114C JUMPI PUSH2 0x114B PUSH2 0x10E0 JUMP JUMPDEST JUMPDEST PUSH1 0x1 DUP3 ADD SWAP1 POP SWAP2 SWAP1 POP JUMP JUMPDEST PUSH1 0x0 DUP2 SWAP1 POP DUP2 PUSH1 0x0 MSTORE PUSH1 0x20 PUSH1 0x0 KECCAK256 SWAP1 POP SWAP2 SWAP1 POP JUMP JUMPDEST PUSH1 0x0 PUSH1 0x20 PUSH1 0x1F DUP4 ADD DIV SWAP1 POP SWAP2 SWAP1 POP JUMP JUMPDEST PUSH1 0x0 DUP3 DUP3 SHL SWAP1 POP SWAP3 SWAP2 POP POP JUMP JUMPDEST PUSH1 0x0 PUSH1 0x8 DUP4 MUL PUSH2 0x11B9 PUSH32 0xFFFFFFFFFFFFFFFFFFFFFFFFFFFFFFFFFFFFFFFFFFFFFFFFFFFFFFFFFFFFFFFF DUP3 PUSH2 0x117C JUMP JUMPDEST PUSH2 0x11C3 DUP7 DUP4 PUSH2 0x117C JUMP JUMPDEST SWAP6 POP DUP1 NOT DUP5 AND SWAP4 POP DUP1 DUP7 AND DUP5 OR SWAP3 POP POP POP SWAP4 SWAP3 POP POP POP JUMP JUMPDEST PUSH1 0x0 DUP2 SWAP1 POP SWAP2 SWAP1 POP JUMP JUMPDEST PUSH1 0x0 PUSH2 0x1200 PUSH2 0x11FB PUSH2 0x11F6 DUP5 PUSH2 0x96E JUMP JUMPDEST PUSH2 0x11DB JUMP JUMPDEST PUSH2 0x96E JUMP JUMPDEST SWAP1 POP SWAP2 SWAP1 POP JUMP JUMPDEST PUSH1 0x0 DUP2 SWAP1 POP SWAP2 SWAP1 POP JUMP JUMPDEST PUSH2 0x121A DUP4 PUSH2 0x11E5 JUMP JUMPDEST PUSH2 0x122E PUSH2 0x1226 DUP3 PUSH2 0x1207 JUMP JUMPDEST DUP5 DUP5 SLOAD PUSH2 0x1189 JUMP JUMPDEST DUP3 SSTORE POP POP POP POP JUMP JUMPDEST PUSH1 0x0 SWAP1 JUMP JUMPDEST PUSH2 0x1243 PUSH2 0x1236 JUMP JUMPDEST PUSH2 0x124E DUP2 DUP5 DUP5 PUSH2 0x1211 JUMP JUMPDEST POP POP POP JUMP JUMPDEST JUMPDEST DUP2 DUP2 LT ISZERO PUSH2 0x1272 JUMPI PUSH2 0x1267 PUSH1 0x0 DUP3 PUSH2 0x123B JUMP JUMPDEST PUSH1 0x1 DUP2 ADD SWAP1 POP PUSH2 0x1254 JUMP JUMPDEST POP POP JUMP JUMPDEST PUSH1 0x1F DUP3 GT ISZERO PUSH2 0x12B7 JUMPI PUSH2 0x1288 DUP2 PUSH2 0x1157 JUMP JUMPDEST PUSH2 0x1291 DUP5 PUSH2 0x116C JUMP JUMPDEST DUP2 ADD PUSH1 0x20 DUP6 LT ISZERO PUSH2 0x12A0 JUMPI DUP2 SWAP1 POP JUMPDEST PUSH2 0x12B4 PUSH2 0x12AC DUP6 PUSH2 0x116C JUMP JUMPDEST DUP4 ADD DUP3 PUSH2 0x1253 JUMP JUMPDEST POP POP JUMPDEST POP POP POP JUMP JUMPDEST PUSH1 0x0 DUP3 DUP3 SHR SWAP1 POP SWAP3 SWAP2 POP POP JUMP JUMPDEST PUSH1 0x0 PUSH2 0x12DA PUSH1 0x0 NOT DUP5 PUSH1 0x8 MUL PUSH2 0x12BC JUMP JUMPDEST NOT DUP1 DUP4 AND SWAP2 POP POP SWAP3 SWAP2 POP POP JUMP JUMPDEST PUSH1 0x0 PUSH2 0x12F3 DUP4 DUP4 PUSH2 0x12C9 JUMP JUMPDEST SWAP2 POP DUP3 PUSH1 0x2 MUL DUP3 OR SWAP1 POP SWAP3 SWAP2 POP POP JUMP JUMPDEST PUSH2 0x130C DUP3 PUSH2 0x987 JUMP JUMPDEST PUSH8 0xFFFFFFFFFFFFFFFF DUP2 GT ISZERO PUSH2 0x1325 JUMPI PUSH2 0x1324 PUSH2 0xC4F JUMP JUMPDEST JUMPDEST PUSH2 0x132F DUP3 SLOAD PUSH2 0x101D JUMP JUMPDEST PUSH2 0x133A DUP3 DUP3 DUP6 PUSH2 0x1276 JUMP JUMPDEST PUSH1 0x0 PUSH1 0x20 SWAP1 POP PUSH1 0x1F DUP4 GT PUSH1 0x1 DUP2 EQ PUSH2 0x136D JUMPI PUSH1 0x0 DUP5 ISZERO PUSH2 0x135B JUMPI DUP3 DUP8 ADD MLOAD SWAP1 POP JUMPDEST PUSH2 0x1365 DUP6 DUP3 PUSH2 0x12E7 JUMP JUMPDEST DUP7 SSTORE POP PUSH2 0x13CD JUMP JUMPDEST PUSH1 0x1F NOT DUP5 AND PUSH2 0x137B DUP7 PUSH2 0x1157 JUMP JUMPDEST PUSH1 0x0 JUMPDEST DUP3 DUP2 LT ISZERO PUSH2 0x13A3 JUMPI DUP5 DUP10 ADD MLOAD DUP3 SSTORE PUSH1 0x1 DUP3 ADD SWAP2 POP PUSH1 0x20 DUP6 ADD SWAP5 POP PUSH1 0x20 DUP2 ADD SWAP1 POP PUSH2 0x137E JUMP JUMPDEST DUP7 DUP4 LT ISZERO PUSH2 0x13C0 JUMPI DUP5 DUP10 ADD MLOAD PUSH2 0x13BC PUSH1 0x1F DUP10 AND DUP3 PUSH2 0x12C9 JUMP JUMPDEST DUP4 SSTORE POP JUMPDEST PUSH1 0x1 PUSH1 0x2 DUP9 MUL ADD DUP9 SSTORE POP POP POP JUMPDEST POP POP POP POP POP POP JUMP JUMPDEST PUSH32 0x4E487B7100000000000000000000000000000000000000000000000000000000 PUSH1 0x0 MSTORE PUSH1 0x32 PUSH1 0x4 MSTORE PUSH1 0x24 PUSH1 0x0 REVERT JUMPDEST PUSH32 0x4F776E61626C653A206E6577206F776E657220697320746865207A65726F2061 PUSH1 0x0 DUP3 ADD MSTORE PUSH32 0x6464726573730000000000000000000000000000000000000000000000000000 PUSH1 0x20 DUP3 ADD MSTORE POP JUMP JUMPDEST PUSH1 0x0 PUSH2 0x1460 PUSH1 0x26 DUP4 PUSH2 0xF4B JUMP JUMPDEST SWAP2 POP PUSH2 0x146B DUP3 PUSH2 0x1404 JUMP JUMPDEST PUSH1 0x40 DUP3 ADD SWAP1 POP SWAP2 SWAP1 POP JUMP JUMPDEST PUSH1 0x0 PUSH1 0x20 DUP3 ADD SWAP1 POP DUP2 DUP2 SUB PUSH1 0x0 DUP4 ADD MSTORE PUSH2 0x148F DUP2 PUSH2 0x1453 JUMP JUMPDEST SWAP1 POP SWAP2 SWAP1 POP JUMP JUMPDEST PUSH32 0x4F776E61626C653A2063616C6C6572206973206E6F7420746865206F776E6572 PUSH1 0x0 DUP3 ADD MSTORE POP JUMP JUMPDEST PUSH1 0x0 PUSH2 0x14CC PUSH1 0x20 DUP4 PUSH2 0xF4B JUMP JUMPDEST SWAP2 POP PUSH2 0x14D7 DUP3 PUSH2 0x1496 JUMP JUMPDEST PUSH1 0x20 DUP3 ADD SWAP1 POP SWAP2 SWAP1 POP JUMP JUMPDEST PUSH1 0x0 PUSH1 0x20 DUP3 ADD SWAP1 POP DUP2 DUP2 SUB PUSH1 0x0 DUP4 ADD MSTORE PUSH2 0x14FB DUP2 PUSH2 0x14BF JUMP JUMPDEST SWAP1 POP SWAP2 SWAP1 POP JUMP INVALID LOG2 PUSH5 0x6970667358 0x22 SLT KECCAK256 SWAP5 0xD3 BYTE CODECOPY PUSH7 0x2BA2EC2E6A44C5 PUSH31 0x348B5F0F58F894044B2E3ADF85771679C4764C64736F6C6343000811003300 "
				},
				"gasEstimates": {
					"creation": {
						"codeDepositCost": "1086400",
						"executionCost": "30399",
						"totalCost": "1116799"
					},
					"external": {
						"addChecked(uint256)": "29191",
						"addFarmer((uint256,uint256,string,string,string,bool))": "infinite",
						"addPermission(address)": "29310",
						"destroy()": "30017",
						"getAllFarmer()": "infinite",
						"owner()": "2522",
						"transferOwnership(address)": "30775"
					}
				},
				"methodIdentifiers": {
					"addChecked(uint256)": "ee416d5b",
					"addFarmer((uint256,uint256,string,string,string,bool))": "eb455ab3",
					"addPermission(address)": "4d0a5dbd",
					"destroy()": "83197ef0",
					"getAllFarmer()": "01384813",
					"owner()": "8da5cb5b",
					"transferOwnership(address)": "f2fde38b"
				}
			},
			"storageLayout": {
				"storage": [
					{
						"astId": 30,
						"contract": "database/farmer/FarmerDatabase.sol:FarmerDatabase",
						"label": "_owner",
						"offset": 0,
						"slot": "0",
						"type": "t_address"
					},
					{
						"astId": 234,
						"contract": "database/farmer/FarmerDatabase.sol:FarmerDatabase",
						"label": "list",
						"offset": 0,
						"slot": "1",
						"type": "t_array(t_struct(Farmer)350_storage)dyn_storage"
					},
					{
						"astId": 237,
						"contract": "database/farmer/FarmerDatabase.sol:FarmerDatabase",
						"label": "autoIncrement",
						"offset": 0,
						"slot": "2",
						"type": "t_uint256"
					},
					{
						"astId": 241,
						"contract": "database/farmer/FarmerDatabase.sol:FarmerDatabase",
						"label": "permissions",
						"offset": 0,
						"slot": "3",
						"type": "t_mapping(t_address,t_bool)"
					}
				],
				"types": {
					"t_address": {
						"encoding": "inplace",
						"label": "address",
						"numberOfBytes": "20"
					},
					"t_array(t_struct(Farmer)350_storage)dyn_storage": {
						"base": "t_struct(Farmer)350_storage",
						"encoding": "dynamic_array",
						"label": "struct Farmer[]",
						"numberOfBytes": "32"
					},
					"t_bool": {
						"encoding": "inplace",
						"label": "bool",
						"numberOfBytes": "1"
					},
					"t_mapping(t_address,t_bool)": {
						"encoding": "mapping",
						"key": "t_address",
						"label": "mapping(address => bool)",
						"numberOfBytes": "32",
						"value": "t_bool"
					},
					"t_string_storage": {
						"encoding": "bytes",
						"label": "string",
						"numberOfBytes": "32"
					},
					"t_struct(Farmer)350_storage": {
						"encoding": "inplace",
						"label": "struct Farmer",
						"members": [
							{
								"astId": 339,
								"contract": "database/farmer/FarmerDatabase.sol:FarmerDatabase",
								"label": "farmerId",
								"offset": 0,
								"slot": "0",
								"type": "t_uint256"
							},
							{
								"astId": 341,
								"contract": "database/farmer/FarmerDatabase.sol:FarmerDatabase",
								"label": "farmerCccd",
								"offset": 0,
								"slot": "1",
								"type": "t_uint256"
							},
							{
								"astId": 343,
								"contract": "database/farmer/FarmerDatabase.sol:FarmerDatabase",
								"label": "farmerName",
								"offset": 0,
								"slot": "2",
								"type": "t_string_storage"
							},
							{
								"astId": 345,
								"contract": "database/farmer/FarmerDatabase.sol:FarmerDatabase",
								"label": "farmerEmail",
								"offset": 0,
								"slot": "3",
								"type": "t_string_storage"
							},
							{
								"astId": 347,
								"contract": "database/farmer/FarmerDatabase.sol:FarmerDatabase",
								"label": "farmerAddress",
								"offset": 0,
								"slot": "4",
								"type": "t_string_storage"
							},
							{
								"astId": 349,
								"contract": "database/farmer/FarmerDatabase.sol:FarmerDatabase",
								"label": "farmerIsChecked",
								"offset": 0,
								"slot": "5",
								"type": "t_bool"
							}
						],
						"numberOfBytes": "192"
					},
					"t_uint256": {
						"encoding": "inplace",
						"label": "uint256",
						"numberOfBytes": "32"
					}
				}
			},
			"userdoc": {
				"kind": "user",
				"methods": {},
				"version": 1
			}
		}
	}
}