{
	"database/farmer/FarmerDatabase.sol": {
		"FarmerDatabase": {
			"abi": [
				{
					"inputs": [],
					"stateMutability": "nonpayable",
					"type": "constructor"
				},
				{
					"anonymous": false,
					"inputs": [
						{
							"indexed": true,
							"internalType": "address",
							"name": "previousOwner",
							"type": "address"
						},
						{
							"indexed": true,
							"internalType": "address",
							"name": "newOwner",
							"type": "address"
						}
					],
					"name": "OwnershipTransferred",
					"type": "event"
				},
				{
					"inputs": [
						{
							"internalType": "uint256",
							"name": "farmerId",
							"type": "uint256"
						}
					],
					"name": "addChecked",
					"outputs": [],
					"stateMutability": "nonpayable",
					"type": "function"
				},
				{
					"inputs": [
						{
							"components": [
								{
									"internalType": "uint256",
									"name": "farmerId",
									"type": "uint256"
								},
								{
									"internalType": "string",
									"name": "farmerAddress",
									"type": "string"
								},
								{
									"internalType": "bool",
									"name": "farmerIsChecked",
									"type": "bool"
								}
							],
							"internalType": "struct Farmer",
							"name": "farmer",
							"type": "tuple"
						}
					],
					"name": "addFarmer",
					"outputs": [],
					"stateMutability": "nonpayable",
					"type": "function"
				},
				{
					"inputs": [
						{
							"internalType": "address",
							"name": "contractPermission",
							"type": "address"
						}
					],
					"name": "addPermission",
					"outputs": [],
					"stateMutability": "nonpayable",
					"type": "function"
				},
				{
					"inputs": [],
					"name": "destroy",
					"outputs": [],
					"stateMutability": "nonpayable",
					"type": "function"
				},
				{
					"inputs": [],
					"name": "getAllFarmer",
					"outputs": [
						{
							"components": [
								{
									"internalType": "uint256",
									"name": "farmerId",
									"type": "uint256"
								},
								{
									"internalType": "string",
									"name": "farmerAddress",
									"type": "string"
								},
								{
									"internalType": "bool",
									"name": "farmerIsChecked",
									"type": "bool"
								}
							],
							"internalType": "struct Farmer[]",
							"name": "",
							"type": "tuple[]"
						}
					],
					"stateMutability": "view",
					"type": "function"
				},
				{
					"inputs": [],
					"name": "owner",
					"outputs": [
						{
							"internalType": "address",
							"name": "",
							"type": "address"
						}
					],
					"stateMutability": "view",
					"type": "function"
				},
				{
					"inputs": [
						{
							"internalType": "address",
							"name": "newOwner",
							"type": "address"
						}
					],
					"name": "transferOwnership",
					"outputs": [],
					"stateMutability": "nonpayable",
					"type": "function"
				}
			],
			"devdoc": {
				"kind": "dev",
				"methods": {
					"owner()": {
						"details": "Returns the address of the current owner."
					},
					"transferOwnership(address)": {
						"details": "Transfers ownership of the contract to a new account (`newOwner`). Can only be called by the current owner."
					}
				},
				"version": 1
			},
			"evm": {
				"assembly": "    /* \"database/farmer/FarmerDatabase.sol\":180:1291  contract FarmerDatabase is Ownable {... */\n  mstore(0x40, 0x80)\n    /* \"database/farmer/FarmerDatabase.sol\":282:283  0 */\n  0x00\n    /* \"database/farmer/FarmerDatabase.sol\":250:283  uint256 private autoIncrement = 0 */\n  0x02\n  sstore\n    /* \"database/farmer/FarmerDatabase.sol\":533:559  constructor() Ownable() {} */\n  callvalue\n  dup1\n  iszero\n  tag_1\n  jumpi\n  0x00\n  dup1\n  revert\ntag_1:\n  pop\n    /* \"abstract/Ownable.sol\":1032:1042  msg.sender */\n  caller\n    /* \"abstract/Ownable.sol\":1023:1029  _owner */\n  0x00\n  dup1\n    /* \"abstract/Ownable.sol\":1023:1042  _owner = msg.sender */\n  0x0100\n  exp\n  dup2\n  sload\n  dup2\n  0xffffffffffffffffffffffffffffffffffffffff\n  mul\n  not\n  and\n  swap1\n  dup4\n  0xffffffffffffffffffffffffffffffffffffffff\n  and\n  mul\n  or\n  swap1\n  sstore\n  pop\n    /* \"database/farmer/FarmerDatabase.sol\":180:1291  contract FarmerDatabase is Ownable {... */\n  dataSize(sub_0)\n  dup1\n  dataOffset(sub_0)\n  0x00\n  codecopy\n  0x00\n  return\nstop\n\nsub_0: assembly {\n        /* \"database/farmer/FarmerDatabase.sol\":180:1291  contract FarmerDatabase is Ownable {... */\n      mstore(0x40, 0x80)\n      callvalue\n      dup1\n      iszero\n      tag_1\n      jumpi\n      0x00\n      dup1\n      revert\n    tag_1:\n      pop\n      jumpi(tag_2, lt(calldatasize, 0x04))\n      shr(0xe0, calldataload(0x00))\n      dup1\n      0x83197ef0\n      gt\n      tag_10\n      jumpi\n      dup1\n      0x83197ef0\n      eq\n      tag_6\n      jumpi\n      dup1\n      0x8da5cb5b\n      eq\n      tag_7\n      jumpi\n      dup1\n      0xee416d5b\n      eq\n      tag_8\n      jumpi\n      dup1\n      0xf2fde38b\n      eq\n      tag_9\n      jumpi\n      jump(tag_2)\n    tag_10:\n      dup1\n      0x01384813\n      eq\n      tag_3\n      jumpi\n      dup1\n      0x05200518\n      eq\n      tag_4\n      jumpi\n      dup1\n      0x4d0a5dbd\n      eq\n      tag_5\n      jumpi\n    tag_2:\n      0x00\n      dup1\n      revert\n        /* \"database/farmer/FarmerDatabase.sol\":1139:1288  function getAllFarmer()... */\n    tag_3:\n      tag_11\n      tag_12\n      jump\t// in\n    tag_11:\n      mload(0x40)\n      tag_13\n      swap2\n      swap1\n      tag_14\n      jump\t// in\n    tag_13:\n      mload(0x40)\n      dup1\n      swap2\n      sub\n      swap1\n      return\n        /* \"database/farmer/FarmerDatabase.sol\":836:1006  function addFarmer(Farmer memory farmer) public onlyPermissions {... */\n    tag_4:\n      tag_15\n      0x04\n      dup1\n      calldatasize\n      sub\n      dup2\n      add\n      swap1\n      tag_16\n      swap2\n      swap1\n      tag_17\n      jump\t// in\n    tag_16:\n      tag_18\n      jump\t// in\n    tag_15:\n      stop\n        /* \"database/farmer/FarmerDatabase.sol\":567:828  function addPermission(address contractPermission) public onlyOwner {... */\n    tag_5:\n      tag_19\n      0x04\n      dup1\n      calldatasize\n      sub\n      dup2\n      add\n      swap1\n      tag_20\n      swap2\n      swap1\n      tag_21\n      jump\t// in\n    tag_20:\n      tag_22\n      jump\t// in\n    tag_19:\n      stop\n        /* \"abstract/Ownable.sol\":2801:2892  function destroy() public onlyOwner {... */\n    tag_6:\n      tag_23\n      tag_24\n      jump\t// in\n    tag_23:\n      stop\n        /* \"abstract/Ownable.sol\":1289:1376  function owner() public view virtual returns (address) {... */\n    tag_7:\n      tag_25\n      tag_26\n      jump\t// in\n    tag_25:\n      mload(0x40)\n      tag_27\n      swap2\n      swap1\n      tag_28\n      jump\t// in\n    tag_27:\n      mload(0x40)\n      dup1\n      swap2\n      sub\n      swap1\n      return\n        /* \"database/farmer/FarmerDatabase.sol\":1014:1131  function addChecked(uint256 farmerId) public onlyPermissions {... */\n    tag_8:\n      tag_29\n      0x04\n      dup1\n      calldatasize\n      sub\n      dup2\n      add\n      swap1\n      tag_30\n      swap2\n      swap1\n      tag_31\n      jump\t// in\n    tag_30:\n      tag_32\n      jump\t// in\n    tag_29:\n      stop\n        /* \"abstract/Ownable.sol\":2204:2442  function transferOwnership(address newOwner) public virtual onlyOwner {... */\n    tag_9:\n      tag_33\n      0x04\n      dup1\n      calldatasize\n      sub\n      dup2\n      add\n      swap1\n      tag_34\n      swap2\n      swap1\n      tag_21\n      jump\t// in\n    tag_34:\n      tag_35\n      jump\t// in\n    tag_33:\n      stop\n        /* \"database/farmer/FarmerDatabase.sol\":1139:1288  function getAllFarmer()... */\n    tag_12:\n        /* \"database/farmer/FarmerDatabase.sol\":1236:1251  Farmer[] memory */\n      0x60\n        /* \"database/farmer/FarmerDatabase.sol\":405:416  permissions */\n      0x03\n        /* \"database/farmer/FarmerDatabase.sol\":405:430  permissions[_msgSender()] */\n      0x00\n        /* \"database/farmer/FarmerDatabase.sol\":417:429  _msgSender() */\n      tag_37\n        /* \"database/farmer/FarmerDatabase.sol\":417:427  _msgSender */\n      tag_38\n        /* \"database/farmer/FarmerDatabase.sol\":417:429  _msgSender() */\n      jump\t// in\n    tag_37:\n        /* \"database/farmer/FarmerDatabase.sol\":405:430  permissions[_msgSender()] */\n      0xffffffffffffffffffffffffffffffffffffffff\n      and\n      0xffffffffffffffffffffffffffffffffffffffff\n      and\n      dup2\n      mstore\n      0x20\n      add\n      swap1\n      dup2\n      mstore\n      0x20\n      add\n      0x00\n      keccak256\n      0x00\n      swap1\n      sload\n      swap1\n      0x0100\n      exp\n      swap1\n      div\n      0xff\n      and\n        /* \"database/farmer/FarmerDatabase.sol\":383:505  require(... */\n      tag_39\n      jumpi\n      mload(0x40)\n      0x08c379a000000000000000000000000000000000000000000000000000000000\n      dup2\n      mstore\n      0x04\n      add\n      tag_40\n      swap1\n      tag_41\n      jump\t// in\n    tag_40:\n      mload(0x40)\n      dup1\n      swap2\n      sub\n      swap1\n      revert\n    tag_39:\n        /* \"database/farmer/FarmerDatabase.sol\":1276:1280  list */\n      0x01\n        /* \"database/farmer/FarmerDatabase.sol\":1269:1280  return list */\n      dup1\n      sload\n      dup1\n      0x20\n      mul\n      0x20\n      add\n      mload(0x40)\n      swap1\n      dup2\n      add\n      0x40\n      mstore\n      dup1\n      swap3\n      swap2\n      swap1\n      dup2\n      dup2\n      mstore\n      0x20\n      add\n      0x00\n      swap1\n    tag_43:\n      dup3\n      dup3\n      lt\n      iszero\n      tag_44\n      jumpi\n      dup4\n      dup3\n      swap1\n      0x00\n      mstore\n      keccak256(0x00, 0x20)\n      swap1\n      0x03\n      mul\n      add\n      mload(0x40)\n      dup1\n      0x60\n      add\n      0x40\n      mstore\n      swap1\n      dup2\n      0x00\n      dup3\n      add\n      sload\n      dup2\n      mstore\n      0x20\n      add\n      0x01\n      dup3\n      add\n      dup1\n      sload\n      tag_46\n      swap1\n      tag_47\n      jump\t// in\n    tag_46:\n      dup1\n      0x1f\n      add\n      0x20\n      dup1\n      swap2\n      div\n      mul\n      0x20\n      add\n      mload(0x40)\n      swap1\n      dup2\n      add\n      0x40\n      mstore\n      dup1\n      swap3\n      swap2\n      swap1\n      dup2\n      dup2\n      mstore\n      0x20\n      add\n      dup3\n      dup1\n      sload\n      tag_48\n      swap1\n      tag_47\n      jump\t// in\n    tag_48:\n      dup1\n      iszero\n      tag_49\n      jumpi\n      dup1\n      0x1f\n      lt\n      tag_50\n      jumpi\n      0x0100\n      dup1\n      dup4\n      sload\n      div\n      mul\n      dup4\n      mstore\n      swap2\n      0x20\n      add\n      swap2\n      jump(tag_49)\n    tag_50:\n      dup3\n      add\n      swap2\n      swap1\n      0x00\n      mstore\n      keccak256(0x00, 0x20)\n      swap1\n    tag_51:\n      dup2\n      sload\n      dup2\n      mstore\n      swap1\n      0x01\n      add\n      swap1\n      0x20\n      add\n      dup1\n      dup4\n      gt\n      tag_51\n      jumpi\n      dup3\n      swap1\n      sub\n      0x1f\n      and\n      dup3\n      add\n      swap2\n    tag_49:\n      pop\n      pop\n      pop\n      pop\n      pop\n      dup2\n      mstore\n      0x20\n      add\n      0x02\n      dup3\n      add\n      0x00\n      swap1\n      sload\n      swap1\n      0x0100\n      exp\n      swap1\n      div\n      0xff\n      and\n      iszero\n      iszero\n      iszero\n      iszero\n      dup2\n      mstore\n      pop\n      pop\n      dup2\n      mstore\n      0x20\n      add\n      swap1\n      0x01\n      add\n      swap1\n      jump(tag_43)\n    tag_44:\n      pop\n      pop\n      pop\n      pop\n      swap1\n      pop\n        /* \"database/farmer/FarmerDatabase.sol\":1139:1288  function getAllFarmer()... */\n      swap1\n      jump\t// out\n        /* \"database/farmer/FarmerDatabase.sol\":836:1006  function addFarmer(Farmer memory farmer) public onlyPermissions {... */\n    tag_18:\n        /* \"database/farmer/FarmerDatabase.sol\":405:416  permissions */\n      0x03\n        /* \"database/farmer/FarmerDatabase.sol\":405:430  permissions[_msgSender()] */\n      0x00\n        /* \"database/farmer/FarmerDatabase.sol\":417:429  _msgSender() */\n      tag_53\n        /* \"database/farmer/FarmerDatabase.sol\":417:427  _msgSender */\n      tag_38\n        /* \"database/farmer/FarmerDatabase.sol\":417:429  _msgSender() */\n      jump\t// in\n    tag_53:\n        /* \"database/farmer/FarmerDatabase.sol\":405:430  permissions[_msgSender()] */\n      0xffffffffffffffffffffffffffffffffffffffff\n      and\n      0xffffffffffffffffffffffffffffffffffffffff\n      and\n      dup2\n      mstore\n      0x20\n      add\n      swap1\n      dup2\n      mstore\n      0x20\n      add\n      0x00\n      keccak256\n      0x00\n      swap1\n      sload\n      swap1\n      0x0100\n      exp\n      swap1\n      div\n      0xff\n      and\n        /* \"database/farmer/FarmerDatabase.sol\":383:505  require(... */\n      tag_54\n      jumpi\n      mload(0x40)\n      0x08c379a000000000000000000000000000000000000000000000000000000000\n      dup2\n      mstore\n      0x04\n      add\n      tag_55\n      swap1\n      tag_41\n      jump\t// in\n    tag_55:\n      mload(0x40)\n      dup1\n      swap2\n      sub\n      swap1\n      revert\n    tag_54:\n        /* \"database/farmer/FarmerDatabase.sol\":911:921  uint256 id */\n      0x00\n        /* \"database/farmer/FarmerDatabase.sol\":924:937  autoIncrement */\n      0x02\n      0x00\n        /* \"database/farmer/FarmerDatabase.sol\":924:939  autoIncrement++ */\n      dup2\n      sload\n      dup1\n      swap3\n      swap2\n      swap1\n      tag_57\n      swap1\n      tag_58\n      jump\t// in\n    tag_57:\n      swap2\n      swap1\n      pop\n      sstore\n        /* \"database/farmer/FarmerDatabase.sol\":911:939  uint256 id = autoIncrement++ */\n      swap1\n      pop\n        /* \"database/farmer/FarmerDatabase.sol\":968:970  id */\n      dup1\n        /* \"database/farmer/FarmerDatabase.sol\":950:956  farmer */\n      dup3\n        /* \"database/farmer/FarmerDatabase.sol\":950:965  farmer.farmerId */\n      0x00\n      add\n        /* \"database/farmer/FarmerDatabase.sol\":950:970  farmer.farmerId = id */\n      dup2\n      dup2\n      mstore\n      pop\n      pop\n        /* \"database/farmer/FarmerDatabase.sol\":981:985  list */\n      0x01\n        /* \"database/farmer/FarmerDatabase.sol\":991:997  farmer */\n      dup3\n        /* \"database/farmer/FarmerDatabase.sol\":981:998  list.push(farmer) */\n      swap1\n      dup1\n      0x01\n      dup2\n      sload\n      add\n      dup1\n      dup3\n      sstore\n      dup1\n      swap2\n      pop\n      pop\n      0x01\n      swap1\n      sub\n      swap1\n      0x00\n      mstore\n      keccak256(0x00, 0x20)\n      swap1\n      0x03\n      mul\n      add\n      0x00\n      swap1\n      swap2\n      swap1\n      swap2\n      swap1\n      swap2\n      pop\n      0x00\n      dup3\n      add\n      mload\n      dup2\n      0x00\n      add\n      sstore\n      0x20\n      dup3\n      add\n      mload\n      dup2\n      0x01\n      add\n      swap1\n      dup2\n      tag_60\n      swap2\n      swap1\n      tag_61\n      jump\t// in\n    tag_60:\n      pop\n      0x40\n      dup3\n      add\n      mload\n      dup2\n      0x02\n      add\n      exp(0x0100, 0x00)\n      dup2\n      sload\n      dup2\n      0xff\n      mul\n      not\n      and\n      swap1\n      dup4\n      iszero\n      iszero\n      mul\n      or\n      swap1\n      sstore\n      pop\n      pop\n      pop\n        /* \"database/farmer/FarmerDatabase.sol\":900:1006  {... */\n      pop\n        /* \"database/farmer/FarmerDatabase.sol\":836:1006  function addFarmer(Farmer memory farmer) public onlyPermissions {... */\n      pop\n      jump\t// out\n        /* \"database/farmer/FarmerDatabase.sol\":567:828  function addPermission(address contractPermission) public onlyOwner {... */\n    tag_22:\n        /* \"abstract/Ownable.sol\":1175:1188  _checkOwner() */\n      tag_63\n        /* \"abstract/Ownable.sol\":1175:1186  _checkOwner */\n      tag_64\n        /* \"abstract/Ownable.sol\":1175:1188  _checkOwner() */\n      jump\t// in\n    tag_63:\n        /* \"database/farmer/FarmerDatabase.sol\":669:680  permissions */\n      0x03\n        /* \"database/farmer/FarmerDatabase.sol\":669:700  permissions[contractPermission] */\n      0x00\n        /* \"database/farmer/FarmerDatabase.sol\":681:699  contractPermission */\n      dup3\n        /* \"database/farmer/FarmerDatabase.sol\":669:700  permissions[contractPermission] */\n      0xffffffffffffffffffffffffffffffffffffffff\n      and\n      0xffffffffffffffffffffffffffffffffffffffff\n      and\n      dup2\n      mstore\n      0x20\n      add\n      swap1\n      dup2\n      mstore\n      0x20\n      add\n      0x00\n      keccak256\n      0x00\n      swap1\n      sload\n      swap1\n      0x0100\n      exp\n      swap1\n      div\n      0xff\n      and\n        /* \"database/farmer/FarmerDatabase.sol\":668:700  !permissions[contractPermission] */\n      iszero\n        /* \"database/farmer/FarmerDatabase.sol\":646:771  require(... */\n      tag_66\n      jumpi\n      mload(0x40)\n      0x08c379a000000000000000000000000000000000000000000000000000000000\n      dup2\n      mstore\n      0x04\n      add\n      tag_67\n      swap1\n      tag_68\n      jump\t// in\n    tag_67:\n      mload(0x40)\n      dup1\n      swap2\n      sub\n      swap1\n      revert\n    tag_66:\n        /* \"database/farmer/FarmerDatabase.sol\":816:820  true */\n      0x01\n        /* \"database/farmer/FarmerDatabase.sol\":782:793  permissions */\n      0x03\n        /* \"database/farmer/FarmerDatabase.sol\":782:813  permissions[contractPermission] */\n      0x00\n        /* \"database/farmer/FarmerDatabase.sol\":794:812  contractPermission */\n      dup4\n        /* \"database/farmer/FarmerDatabase.sol\":782:813  permissions[contractPermission] */\n      0xffffffffffffffffffffffffffffffffffffffff\n      and\n      0xffffffffffffffffffffffffffffffffffffffff\n      and\n      dup2\n      mstore\n      0x20\n      add\n      swap1\n      dup2\n      mstore\n      0x20\n      add\n      0x00\n      keccak256\n      0x00\n        /* \"database/farmer/FarmerDatabase.sol\":782:820  permissions[contractPermission] = true */\n      0x0100\n      exp\n      dup2\n      sload\n      dup2\n      0xff\n      mul\n      not\n      and\n      swap1\n      dup4\n      iszero\n      iszero\n      mul\n      or\n      swap1\n      sstore\n      pop\n        /* \"database/farmer/FarmerDatabase.sol\":567:828  function addPermission(address contractPermission) public onlyOwner {... */\n      pop\n      jump\t// out\n        /* \"abstract/Ownable.sol\":2801:2892  function destroy() public onlyOwner {... */\n    tag_24:\n        /* \"abstract/Ownable.sol\":1175:1188  _checkOwner() */\n      tag_70\n        /* \"abstract/Ownable.sol\":1175:1186  _checkOwner */\n      tag_64\n        /* \"abstract/Ownable.sol\":1175:1188  _checkOwner() */\n      jump\t// in\n    tag_70:\n        /* \"abstract/Ownable.sol\":2877:2881  this */\n      address\n        /* \"abstract/Ownable.sol\":2848:2884  selfdestruct(payable(address(this))) */\n      0xffffffffffffffffffffffffffffffffffffffff\n      and\n      selfdestruct\n        /* \"abstract/Ownable.sol\":1289:1376  function owner() public view virtual returns (address) {... */\n    tag_26:\n        /* \"abstract/Ownable.sol\":1335:1342  address */\n      0x00\n        /* \"abstract/Ownable.sol\":1362:1368  _owner */\n      dup1\n      0x00\n      swap1\n      sload\n      swap1\n      0x0100\n      exp\n      swap1\n      div\n      0xffffffffffffffffffffffffffffffffffffffff\n      and\n        /* \"abstract/Ownable.sol\":1355:1368  return _owner */\n      swap1\n      pop\n        /* \"abstract/Ownable.sol\":1289:1376  function owner() public view virtual returns (address) {... */\n      swap1\n      jump\t// out\n        /* \"database/farmer/FarmerDatabase.sol\":1014:1131  function addChecked(uint256 farmerId) public onlyPermissions {... */\n    tag_32:\n        /* \"database/farmer/FarmerDatabase.sol\":405:416  permissions */\n      0x03\n        /* \"database/farmer/FarmerDatabase.sol\":405:430  permissions[_msgSender()] */\n      0x00\n        /* \"database/farmer/FarmerDatabase.sol\":417:429  _msgSender() */\n      tag_74\n        /* \"database/farmer/FarmerDatabase.sol\":417:427  _msgSender */\n      tag_38\n        /* \"database/farmer/FarmerDatabase.sol\":417:429  _msgSender() */\n      jump\t// in\n    tag_74:\n        /* \"database/farmer/FarmerDatabase.sol\":405:430  permissions[_msgSender()] */\n      0xffffffffffffffffffffffffffffffffffffffff\n      and\n      0xffffffffffffffffffffffffffffffffffffffff\n      and\n      dup2\n      mstore\n      0x20\n      add\n      swap1\n      dup2\n      mstore\n      0x20\n      add\n      0x00\n      keccak256\n      0x00\n      swap1\n      sload\n      swap1\n      0x0100\n      exp\n      swap1\n      div\n      0xff\n      and\n        /* \"database/farmer/FarmerDatabase.sol\":383:505  require(... */\n      tag_75\n      jumpi\n      mload(0x40)\n      0x08c379a000000000000000000000000000000000000000000000000000000000\n      dup2\n      mstore\n      0x04\n      add\n      tag_76\n      swap1\n      tag_41\n      jump\t// in\n    tag_76:\n      mload(0x40)\n      dup1\n      swap2\n      sub\n      swap1\n      revert\n    tag_75:\n        /* \"database/farmer/FarmerDatabase.sol\":1119:1123  true */\n      0x01\n        /* \"database/farmer/FarmerDatabase.sol\":1086:1090  list */\n      dup1\n        /* \"database/farmer/FarmerDatabase.sol\":1091:1099  farmerId */\n      dup3\n        /* \"database/farmer/FarmerDatabase.sol\":1086:1100  list[farmerId] */\n      dup2\n      sload\n      dup2\n      lt\n      tag_78\n      jumpi\n      tag_79\n      tag_80\n      jump\t// in\n    tag_79:\n    tag_78:\n      swap1\n      0x00\n      mstore\n      keccak256(0x00, 0x20)\n      swap1\n      0x03\n      mul\n      add\n        /* \"database/farmer/FarmerDatabase.sol\":1086:1116  list[farmerId].farmerIsChecked */\n      0x02\n      add\n      0x00\n        /* \"database/farmer/FarmerDatabase.sol\":1086:1123  list[farmerId].farmerIsChecked = true */\n      0x0100\n      exp\n      dup2\n      sload\n      dup2\n      0xff\n      mul\n      not\n      and\n      swap1\n      dup4\n      iszero\n      iszero\n      mul\n      or\n      swap1\n      sstore\n      pop\n        /* \"database/farmer/FarmerDatabase.sol\":1014:1131  function addChecked(uint256 farmerId) public onlyPermissions {... */\n      pop\n      jump\t// out\n        /* \"abstract/Ownable.sol\":2204:2442  function transferOwnership(address newOwner) public virtual onlyOwner {... */\n    tag_35:\n        /* \"abstract/Ownable.sol\":1175:1188  _checkOwner() */\n      tag_83\n        /* \"abstract/Ownable.sol\":1175:1186  _checkOwner */\n      tag_64\n        /* \"abstract/Ownable.sol\":1175:1188  _checkOwner() */\n      jump\t// in\n    tag_83:\n        /* \"abstract/Ownable.sol\":2327:2328  0 */\n      0x00\n        /* \"abstract/Ownable.sol\":2307:2329  newOwner != address(0) */\n      0xffffffffffffffffffffffffffffffffffffffff\n      and\n        /* \"abstract/Ownable.sol\":2307:2315  newOwner */\n      dup2\n        /* \"abstract/Ownable.sol\":2307:2329  newOwner != address(0) */\n      0xffffffffffffffffffffffffffffffffffffffff\n      and\n      sub\n        /* \"abstract/Ownable.sol\":2285:2395  require(... */\n      tag_85\n      jumpi\n      mload(0x40)\n      0x08c379a000000000000000000000000000000000000000000000000000000000\n      dup2\n      mstore\n      0x04\n      add\n      tag_86\n      swap1\n      tag_87\n      jump\t// in\n    tag_86:\n      mload(0x40)\n      dup1\n      swap2\n      sub\n      swap1\n      revert\n    tag_85:\n        /* \"abstract/Ownable.sol\":2406:2434  _transferOwnership(newOwner) */\n      tag_88\n        /* \"abstract/Ownable.sol\":2425:2433  newOwner */\n      dup2\n        /* \"abstract/Ownable.sol\":2406:2424  _transferOwnership */\n      tag_89\n        /* \"abstract/Ownable.sol\":2406:2434  _transferOwnership(newOwner) */\n      jump\t// in\n    tag_88:\n        /* \"abstract/Ownable.sol\":2204:2442  function transferOwnership(address newOwner) public virtual onlyOwner {... */\n      pop\n      jump\t// out\n        /* \"@openzeppelin/contracts/utils/Context.sol\":640:736  function _msgSender() internal view virtual returns (address) {... */\n    tag_38:\n        /* \"@openzeppelin/contracts/utils/Context.sol\":693:700  address */\n      0x00\n        /* \"@openzeppelin/contracts/utils/Context.sol\":719:729  msg.sender */\n      caller\n        /* \"@openzeppelin/contracts/utils/Context.sol\":712:729  return msg.sender */\n      swap1\n      pop\n        /* \"@openzeppelin/contracts/utils/Context.sol\":640:736  function _msgSender() internal view virtual returns (address) {... */\n      swap1\n      jump\t// out\n        /* \"abstract/Ownable.sol\":1454:1584  function _checkOwner() internal view virtual {... */\n    tag_64:\n        /* \"abstract/Ownable.sol\":1529:1539  msg.sender */\n      caller\n        /* \"abstract/Ownable.sol\":1518:1539  owner() == msg.sender */\n      0xffffffffffffffffffffffffffffffffffffffff\n      and\n        /* \"abstract/Ownable.sol\":1518:1525  owner() */\n      tag_92\n        /* \"abstract/Ownable.sol\":1518:1523  owner */\n      tag_26\n        /* \"abstract/Ownable.sol\":1518:1525  owner() */\n      jump\t// in\n    tag_92:\n        /* \"abstract/Ownable.sol\":1518:1539  owner() == msg.sender */\n      0xffffffffffffffffffffffffffffffffffffffff\n      and\n      eq\n        /* \"abstract/Ownable.sol\":1510:1576  require(owner() == msg.sender, \"Ownable: caller is not the owner\") */\n      tag_93\n      jumpi\n      mload(0x40)\n      0x08c379a000000000000000000000000000000000000000000000000000000000\n      dup2\n      mstore\n      0x04\n      add\n      tag_94\n      swap1\n      tag_95\n      jump\t// in\n    tag_94:\n      mload(0x40)\n      dup1\n      swap2\n      sub\n      swap1\n      revert\n    tag_93:\n        /* \"abstract/Ownable.sol\":1454:1584  function _checkOwner() internal view virtual {... */\n      jump\t// out\n        /* \"abstract/Ownable.sol\":2602:2793  function _transferOwnership(address newOwner) internal virtual {... */\n    tag_89:\n        /* \"abstract/Ownable.sol\":2676:2692  address oldOwner */\n      0x00\n        /* \"abstract/Ownable.sol\":2695:2701  _owner */\n      dup1\n      0x00\n      swap1\n      sload\n      swap1\n      0x0100\n      exp\n      swap1\n      div\n      0xffffffffffffffffffffffffffffffffffffffff\n      and\n        /* \"abstract/Ownable.sol\":2676:2701  address oldOwner = _owner */\n      swap1\n      pop\n        /* \"abstract/Ownable.sol\":2721:2729  newOwner */\n      dup2\n        /* \"abstract/Ownable.sol\":2712:2718  _owner */\n      0x00\n      dup1\n        /* \"abstract/Ownable.sol\":2712:2729  _owner = newOwner */\n      0x0100\n      exp\n      dup2\n      sload\n      dup2\n      0xffffffffffffffffffffffffffffffffffffffff\n      mul\n      not\n      and\n      swap1\n      dup4\n      0xffffffffffffffffffffffffffffffffffffffff\n      and\n      mul\n      or\n      swap1\n      sstore\n      pop\n        /* \"abstract/Ownable.sol\":2776:2784  newOwner */\n      dup2\n        /* \"abstract/Ownable.sol\":2745:2785  OwnershipTransferred(oldOwner, newOwner) */\n      0xffffffffffffffffffffffffffffffffffffffff\n      and\n        /* \"abstract/Ownable.sol\":2766:2774  oldOwner */\n      dup2\n        /* \"abstract/Ownable.sol\":2745:2785  OwnershipTransferred(oldOwner, newOwner) */\n      0xffffffffffffffffffffffffffffffffffffffff\n      and\n      0x8be0079c531659141344cd1fd0a4f28419497f9722a3daafe3b4186f6b6457e0\n      mload(0x40)\n      mload(0x40)\n      dup1\n      swap2\n      sub\n      swap1\n      log3\n        /* \"abstract/Ownable.sol\":2665:2793  {... */\n      pop\n        /* \"abstract/Ownable.sol\":2602:2793  function _transferOwnership(address newOwner) internal virtual {... */\n      pop\n      jump\t// out\n        /* \"#utility.yul\":7:144   */\n    tag_97:\n        /* \"#utility.yul\":97:103   */\n      0x00\n        /* \"#utility.yul\":131:136   */\n      dup2\n        /* \"#utility.yul\":125:137   */\n      mload\n        /* \"#utility.yul\":115:137   */\n      swap1\n      pop\n        /* \"#utility.yul\":7:144   */\n      swap2\n      swap1\n      pop\n      jump\t// out\n        /* \"#utility.yul\":150:357   */\n    tag_98:\n        /* \"#utility.yul\":272:283   */\n      0x00\n        /* \"#utility.yul\":306:312   */\n      dup3\n        /* \"#utility.yul\":301:304   */\n      dup3\n        /* \"#utility.yul\":294:313   */\n      mstore\n        /* \"#utility.yul\":346:350   */\n      0x20\n        /* \"#utility.yul\":341:344   */\n      dup3\n        /* \"#utility.yul\":337:351   */\n      add\n        /* \"#utility.yul\":322:351   */\n      swap1\n      pop\n        /* \"#utility.yul\":150:357   */\n      swap3\n      swap2\n      pop\n      pop\n      jump\t// out\n        /* \"#utility.yul\":363:518   */\n    tag_99:\n        /* \"#utility.yul\":453:457   */\n      0x00\n        /* \"#utility.yul\":476:479   */\n      dup2\n        /* \"#utility.yul\":468:479   */\n      swap1\n      pop\n        /* \"#utility.yul\":506:510   */\n      0x20\n        /* \"#utility.yul\":501:504   */\n      dup3\n        /* \"#utility.yul\":497:511   */\n      add\n        /* \"#utility.yul\":489:511   */\n      swap1\n      pop\n        /* \"#utility.yul\":363:518   */\n      swap2\n      swap1\n      pop\n      jump\t// out\n        /* \"#utility.yul\":524:601   */\n    tag_100:\n        /* \"#utility.yul\":561:568   */\n      0x00\n        /* \"#utility.yul\":590:595   */\n      dup2\n        /* \"#utility.yul\":579:595   */\n      swap1\n      pop\n        /* \"#utility.yul\":524:601   */\n      swap2\n      swap1\n      pop\n      jump\t// out\n        /* \"#utility.yul\":607:715   */\n    tag_101:\n        /* \"#utility.yul\":684:708   */\n      tag_169\n        /* \"#utility.yul\":702:707   */\n      dup2\n        /* \"#utility.yul\":684:708   */\n      tag_100\n      jump\t// in\n    tag_169:\n        /* \"#utility.yul\":679:682   */\n      dup3\n        /* \"#utility.yul\":672:709   */\n      mstore\n        /* \"#utility.yul\":607:715   */\n      pop\n      pop\n      jump\t// out\n        /* \"#utility.yul\":721:820   */\n    tag_102:\n        /* \"#utility.yul\":773:779   */\n      0x00\n        /* \"#utility.yul\":807:812   */\n      dup2\n        /* \"#utility.yul\":801:813   */\n      mload\n        /* \"#utility.yul\":791:813   */\n      swap1\n      pop\n        /* \"#utility.yul\":721:820   */\n      swap2\n      swap1\n      pop\n      jump\t// out\n        /* \"#utility.yul\":826:985   */\n    tag_103:\n        /* \"#utility.yul\":900:911   */\n      0x00\n        /* \"#utility.yul\":934:940   */\n      dup3\n        /* \"#utility.yul\":929:932   */\n      dup3\n        /* \"#utility.yul\":922:941   */\n      mstore\n        /* \"#utility.yul\":974:978   */\n      0x20\n        /* \"#utility.yul\":969:972   */\n      dup3\n        /* \"#utility.yul\":965:979   */\n      add\n        /* \"#utility.yul\":950:979   */\n      swap1\n      pop\n        /* \"#utility.yul\":826:985   */\n      swap3\n      swap2\n      pop\n      pop\n      jump\t// out\n        /* \"#utility.yul\":991:1237   */\n    tag_104:\n        /* \"#utility.yul\":1072:1073   */\n      0x00\n        /* \"#utility.yul\":1082:1195   */\n    tag_173:\n        /* \"#utility.yul\":1096:1102   */\n      dup4\n        /* \"#utility.yul\":1093:1094   */\n      dup2\n        /* \"#utility.yul\":1090:1103   */\n      lt\n        /* \"#utility.yul\":1082:1195   */\n      iszero\n      tag_175\n      jumpi\n        /* \"#utility.yul\":1181:1182   */\n      dup1\n        /* \"#utility.yul\":1176:1179   */\n      dup3\n        /* \"#utility.yul\":1172:1183   */\n      add\n        /* \"#utility.yul\":1166:1184   */\n      mload\n        /* \"#utility.yul\":1162:1163   */\n      dup2\n        /* \"#utility.yul\":1157:1160   */\n      dup5\n        /* \"#utility.yul\":1153:1164   */\n      add\n        /* \"#utility.yul\":1146:1185   */\n      mstore\n        /* \"#utility.yul\":1118:1120   */\n      0x20\n        /* \"#utility.yul\":1115:1116   */\n      dup2\n        /* \"#utility.yul\":1111:1121   */\n      add\n        /* \"#utility.yul\":1106:1121   */\n      swap1\n      pop\n        /* \"#utility.yul\":1082:1195   */\n      jump(tag_173)\n    tag_175:\n        /* \"#utility.yul\":1229:1230   */\n      0x00\n        /* \"#utility.yul\":1220:1226   */\n      dup5\n        /* \"#utility.yul\":1215:1218   */\n      dup5\n        /* \"#utility.yul\":1211:1227   */\n      add\n        /* \"#utility.yul\":1204:1231   */\n      mstore\n        /* \"#utility.yul\":1053:1237   */\n      pop\n        /* \"#utility.yul\":991:1237   */\n      pop\n      pop\n      pop\n      jump\t// out\n        /* \"#utility.yul\":1243:1345   */\n    tag_105:\n        /* \"#utility.yul\":1284:1290   */\n      0x00\n        /* \"#utility.yul\":1335:1337   */\n      0x1f\n        /* \"#utility.yul\":1331:1338   */\n      not\n        /* \"#utility.yul\":1326:1328   */\n      0x1f\n        /* \"#utility.yul\":1319:1324   */\n      dup4\n        /* \"#utility.yul\":1315:1329   */\n      add\n        /* \"#utility.yul\":1311:1339   */\n      and\n        /* \"#utility.yul\":1301:1339   */\n      swap1\n      pop\n        /* \"#utility.yul\":1243:1345   */\n      swap2\n      swap1\n      pop\n      jump\t// out\n        /* \"#utility.yul\":1351:1708   */\n    tag_106:\n        /* \"#utility.yul\":1429:1432   */\n      0x00\n        /* \"#utility.yul\":1457:1496   */\n      tag_178\n        /* \"#utility.yul\":1490:1495   */\n      dup3\n        /* \"#utility.yul\":1457:1496   */\n      tag_102\n      jump\t// in\n    tag_178:\n        /* \"#utility.yul\":1512:1573   */\n      tag_179\n        /* \"#utility.yul\":1566:1572   */\n      dup2\n        /* \"#utility.yul\":1561:1564   */\n      dup6\n        /* \"#utility.yul\":1512:1573   */\n      tag_103\n      jump\t// in\n    tag_179:\n        /* \"#utility.yul\":1505:1573   */\n      swap4\n      pop\n        /* \"#utility.yul\":1582:1647   */\n      tag_180\n        /* \"#utility.yul\":1640:1646   */\n      dup2\n        /* \"#utility.yul\":1635:1638   */\n      dup6\n        /* \"#utility.yul\":1628:1632   */\n      0x20\n        /* \"#utility.yul\":1621:1626   */\n      dup7\n        /* \"#utility.yul\":1617:1633   */\n      add\n        /* \"#utility.yul\":1582:1647   */\n      tag_104\n      jump\t// in\n    tag_180:\n        /* \"#utility.yul\":1672:1701   */\n      tag_181\n        /* \"#utility.yul\":1694:1700   */\n      dup2\n        /* \"#utility.yul\":1672:1701   */\n      tag_105\n      jump\t// in\n    tag_181:\n        /* \"#utility.yul\":1667:1670   */\n      dup5\n        /* \"#utility.yul\":1663:1702   */\n      add\n        /* \"#utility.yul\":1656:1702   */\n      swap2\n      pop\n        /* \"#utility.yul\":1433:1708   */\n      pop\n        /* \"#utility.yul\":1351:1708   */\n      swap3\n      swap2\n      pop\n      pop\n      jump\t// out\n        /* \"#utility.yul\":1714:1804   */\n    tag_107:\n        /* \"#utility.yul\":1748:1755   */\n      0x00\n        /* \"#utility.yul\":1791:1796   */\n      dup2\n        /* \"#utility.yul\":1784:1797   */\n      iszero\n        /* \"#utility.yul\":1777:1798   */\n      iszero\n        /* \"#utility.yul\":1766:1798   */\n      swap1\n      pop\n        /* \"#utility.yul\":1714:1804   */\n      swap2\n      swap1\n      pop\n      jump\t// out\n        /* \"#utility.yul\":1810:1909   */\n    tag_108:\n        /* \"#utility.yul\":1881:1902   */\n      tag_184\n        /* \"#utility.yul\":1896:1901   */\n      dup2\n        /* \"#utility.yul\":1881:1902   */\n      tag_107\n      jump\t// in\n    tag_184:\n        /* \"#utility.yul\":1876:1879   */\n      dup3\n        /* \"#utility.yul\":1869:1903   */\n      mstore\n        /* \"#utility.yul\":1810:1909   */\n      pop\n      pop\n      jump\t// out\n        /* \"#utility.yul\":1953:2737   */\n    tag_109:\n        /* \"#utility.yul\":2058:2061   */\n      0x00\n        /* \"#utility.yul\":2094:2098   */\n      0x60\n        /* \"#utility.yul\":2089:2092   */\n      dup4\n        /* \"#utility.yul\":2085:2099   */\n      add\n        /* \"#utility.yul\":2185:2189   */\n      0x00\n        /* \"#utility.yul\":2178:2183   */\n      dup4\n        /* \"#utility.yul\":2174:2190   */\n      add\n        /* \"#utility.yul\":2168:2191   */\n      mload\n        /* \"#utility.yul\":2204:2267   */\n      tag_186\n        /* \"#utility.yul\":2261:2265   */\n      0x00\n        /* \"#utility.yul\":2256:2259   */\n      dup7\n        /* \"#utility.yul\":2252:2266   */\n      add\n        /* \"#utility.yul\":2238:2250   */\n      dup3\n        /* \"#utility.yul\":2204:2267   */\n      tag_101\n      jump\t// in\n    tag_186:\n        /* \"#utility.yul\":2109:2277   */\n      pop\n        /* \"#utility.yul\":2368:2372   */\n      0x20\n        /* \"#utility.yul\":2361:2366   */\n      dup4\n        /* \"#utility.yul\":2357:2373   */\n      add\n        /* \"#utility.yul\":2351:2374   */\n      mload\n        /* \"#utility.yul\":2421:2424   */\n      dup5\n        /* \"#utility.yul\":2415:2419   */\n      dup3\n        /* \"#utility.yul\":2411:2425   */\n      sub\n        /* \"#utility.yul\":2404:2408   */\n      0x20\n        /* \"#utility.yul\":2399:2402   */\n      dup7\n        /* \"#utility.yul\":2395:2409   */\n      add\n        /* \"#utility.yul\":2388:2426   */\n      mstore\n        /* \"#utility.yul\":2447:2520   */\n      tag_187\n        /* \"#utility.yul\":2515:2519   */\n      dup3\n        /* \"#utility.yul\":2501:2513   */\n      dup3\n        /* \"#utility.yul\":2447:2520   */\n      tag_106\n      jump\t// in\n    tag_187:\n        /* \"#utility.yul\":2439:2520   */\n      swap2\n      pop\n        /* \"#utility.yul\":2287:2531   */\n      pop\n        /* \"#utility.yul\":2624:2628   */\n      0x40\n        /* \"#utility.yul\":2617:2622   */\n      dup4\n        /* \"#utility.yul\":2613:2629   */\n      add\n        /* \"#utility.yul\":2607:2630   */\n      mload\n        /* \"#utility.yul\":2643:2700   */\n      tag_188\n        /* \"#utility.yul\":2694:2698   */\n      0x40\n        /* \"#utility.yul\":2689:2692   */\n      dup7\n        /* \"#utility.yul\":2685:2699   */\n      add\n        /* \"#utility.yul\":2671:2683   */\n      dup3\n        /* \"#utility.yul\":2643:2700   */\n      tag_108\n      jump\t// in\n    tag_188:\n        /* \"#utility.yul\":2541:2710   */\n      pop\n        /* \"#utility.yul\":2727:2731   */\n      dup1\n        /* \"#utility.yul\":2720:2731   */\n      swap2\n      pop\n        /* \"#utility.yul\":2063:2737   */\n      pop\n        /* \"#utility.yul\":1953:2737   */\n      swap3\n      swap2\n      pop\n      pop\n      jump\t// out\n        /* \"#utility.yul\":2743:2991   */\n    tag_110:\n        /* \"#utility.yul\":2858:2868   */\n      0x00\n        /* \"#utility.yul\":2893:2985   */\n      tag_190\n        /* \"#utility.yul\":2981:2984   */\n      dup4\n        /* \"#utility.yul\":2973:2979   */\n      dup4\n        /* \"#utility.yul\":2893:2985   */\n      tag_109\n      jump\t// in\n    tag_190:\n        /* \"#utility.yul\":2879:2985   */\n      swap1\n      pop\n        /* \"#utility.yul\":2743:2991   */\n      swap3\n      swap2\n      pop\n      pop\n      jump\t// out\n        /* \"#utility.yul\":2997:3133   */\n    tag_111:\n        /* \"#utility.yul\":3090:3094   */\n      0x00\n        /* \"#utility.yul\":3122:3126   */\n      0x20\n        /* \"#utility.yul\":3117:3120   */\n      dup3\n        /* \"#utility.yul\":3113:3127   */\n      add\n        /* \"#utility.yul\":3105:3127   */\n      swap1\n      pop\n        /* \"#utility.yul\":2997:3133   */\n      swap2\n      swap1\n      pop\n      jump\t// out\n        /* \"#utility.yul\":3181:4276   */\n    tag_112:\n        /* \"#utility.yul\":3346:3349   */\n      0x00\n        /* \"#utility.yul\":3375:3452   */\n      tag_193\n        /* \"#utility.yul\":3446:3451   */\n      dup3\n        /* \"#utility.yul\":3375:3452   */\n      tag_97\n      jump\t// in\n    tag_193:\n        /* \"#utility.yul\":3468:3577   */\n      tag_194\n        /* \"#utility.yul\":3570:3576   */\n      dup2\n        /* \"#utility.yul\":3565:3568   */\n      dup6\n        /* \"#utility.yul\":3468:3577   */\n      tag_98\n      jump\t// in\n    tag_194:\n        /* \"#utility.yul\":3461:3577   */\n      swap4\n      pop\n        /* \"#utility.yul\":3603:3606   */\n      dup4\n        /* \"#utility.yul\":3648:3652   */\n      0x20\n        /* \"#utility.yul\":3640:3646   */\n      dup3\n        /* \"#utility.yul\":3636:3653   */\n      mul\n        /* \"#utility.yul\":3631:3634   */\n      dup6\n        /* \"#utility.yul\":3627:3654   */\n      add\n        /* \"#utility.yul\":3678:3757   */\n      tag_195\n        /* \"#utility.yul\":3751:3756   */\n      dup6\n        /* \"#utility.yul\":3678:3757   */\n      tag_99\n      jump\t// in\n    tag_195:\n        /* \"#utility.yul\":3780:3787   */\n      dup1\n        /* \"#utility.yul\":3811:3812   */\n      0x00\n        /* \"#utility.yul\":3796:4231   */\n    tag_196:\n        /* \"#utility.yul\":3821:3827   */\n      dup6\n        /* \"#utility.yul\":3818:3819   */\n      dup2\n        /* \"#utility.yul\":3815:3828   */\n      lt\n        /* \"#utility.yul\":3796:4231   */\n      iszero\n      tag_198\n      jumpi\n        /* \"#utility.yul\":3892:3901   */\n      dup5\n        /* \"#utility.yul\":3886:3890   */\n      dup5\n        /* \"#utility.yul\":3882:3902   */\n      sub\n        /* \"#utility.yul\":3877:3880   */\n      dup10\n        /* \"#utility.yul\":3870:3903   */\n      mstore\n        /* \"#utility.yul\":3943:3949   */\n      dup2\n        /* \"#utility.yul\":3937:3950   */\n      mload\n        /* \"#utility.yul\":3971:4081   */\n      tag_199\n        /* \"#utility.yul\":4076:4080   */\n      dup6\n        /* \"#utility.yul\":4061:4074   */\n      dup3\n        /* \"#utility.yul\":3971:4081   */\n      tag_110\n      jump\t// in\n    tag_199:\n        /* \"#utility.yul\":3963:4081   */\n      swap5\n      pop\n        /* \"#utility.yul\":4104:4187   */\n      tag_200\n        /* \"#utility.yul\":4180:4186   */\n      dup4\n        /* \"#utility.yul\":4104:4187   */\n      tag_111\n      jump\t// in\n    tag_200:\n        /* \"#utility.yul\":4094:4187   */\n      swap3\n      pop\n        /* \"#utility.yul\":4216:4220   */\n      0x20\n        /* \"#utility.yul\":4211:4214   */\n      dup11\n        /* \"#utility.yul\":4207:4221   */\n      add\n        /* \"#utility.yul\":4200:4221   */\n      swap10\n      pop\n        /* \"#utility.yul\":3856:4231   */\n      pop\n        /* \"#utility.yul\":3843:3844   */\n      0x01\n        /* \"#utility.yul\":3840:3841   */\n      dup2\n        /* \"#utility.yul\":3836:3845   */\n      add\n        /* \"#utility.yul\":3831:3845   */\n      swap1\n      pop\n        /* \"#utility.yul\":3796:4231   */\n      jump(tag_196)\n    tag_198:\n        /* \"#utility.yul\":3800:3814   */\n      pop\n        /* \"#utility.yul\":4247:4251   */\n      dup3\n        /* \"#utility.yul\":4240:4251   */\n      swap8\n      pop\n        /* \"#utility.yul\":4267:4270   */\n      dup8\n        /* \"#utility.yul\":4260:4270   */\n      swap6\n      pop\n        /* \"#utility.yul\":3351:4276   */\n      pop\n      pop\n      pop\n      pop\n      pop\n        /* \"#utility.yul\":3181:4276   */\n      swap3\n      swap2\n      pop\n      pop\n      jump\t// out\n        /* \"#utility.yul\":4282:4747   */\n    tag_14:\n        /* \"#utility.yul\":4471:4475   */\n      0x00\n        /* \"#utility.yul\":4509:4511   */\n      0x20\n        /* \"#utility.yul\":4498:4507   */\n      dup3\n        /* \"#utility.yul\":4494:4512   */\n      add\n        /* \"#utility.yul\":4486:4512   */\n      swap1\n      pop\n        /* \"#utility.yul\":4558:4567   */\n      dup2\n        /* \"#utility.yul\":4552:4556   */\n      dup2\n        /* \"#utility.yul\":4548:4568   */\n      sub\n        /* \"#utility.yul\":4544:4545   */\n      0x00\n        /* \"#utility.yul\":4533:4542   */\n      dup4\n        /* \"#utility.yul\":4529:4546   */\n      add\n        /* \"#utility.yul\":4522:4569   */\n      mstore\n        /* \"#utility.yul\":4586:4740   */\n      tag_202\n        /* \"#utility.yul\":4735:4739   */\n      dup2\n        /* \"#utility.yul\":4726:4732   */\n      dup5\n        /* \"#utility.yul\":4586:4740   */\n      tag_112\n      jump\t// in\n    tag_202:\n        /* \"#utility.yul\":4578:4740   */\n      swap1\n      pop\n        /* \"#utility.yul\":4282:4747   */\n      swap3\n      swap2\n      pop\n      pop\n      jump\t// out\n        /* \"#utility.yul\":4753:4828   */\n    tag_113:\n        /* \"#utility.yul\":4786:4792   */\n      0x00\n        /* \"#utility.yul\":4819:4821   */\n      0x40\n        /* \"#utility.yul\":4813:4822   */\n      mload\n        /* \"#utility.yul\":4803:4822   */\n      swap1\n      pop\n        /* \"#utility.yul\":4753:4828   */\n      swap1\n      jump\t// out\n        /* \"#utility.yul\":4834:4951   */\n    tag_114:\n        /* \"#utility.yul\":4943:4944   */\n      0x00\n        /* \"#utility.yul\":4940:4941   */\n      dup1\n        /* \"#utility.yul\":4933:4945   */\n      revert\n        /* \"#utility.yul\":4957:5074   */\n    tag_115:\n        /* \"#utility.yul\":5066:5067   */\n      0x00\n        /* \"#utility.yul\":5063:5064   */\n      dup1\n        /* \"#utility.yul\":5056:5068   */\n      revert\n        /* \"#utility.yul\":5080:5197   */\n    tag_116:\n        /* \"#utility.yul\":5189:5190   */\n      0x00\n        /* \"#utility.yul\":5186:5187   */\n      dup1\n        /* \"#utility.yul\":5179:5191   */\n      revert\n        /* \"#utility.yul\":5203:5383   */\n    tag_117:\n        /* \"#utility.yul\":5251:5328   */\n      0x4e487b7100000000000000000000000000000000000000000000000000000000\n        /* \"#utility.yul\":5248:5249   */\n      0x00\n        /* \"#utility.yul\":5241:5329   */\n      mstore\n        /* \"#utility.yul\":5348:5352   */\n      0x41\n        /* \"#utility.yul\":5345:5346   */\n      0x04\n        /* \"#utility.yul\":5338:5353   */\n      mstore\n        /* \"#utility.yul\":5372:5376   */\n      0x24\n        /* \"#utility.yul\":5369:5370   */\n      0x00\n        /* \"#utility.yul\":5362:5377   */\n      revert\n        /* \"#utility.yul\":5389:5670   */\n    tag_118:\n        /* \"#utility.yul\":5472:5499   */\n      tag_209\n        /* \"#utility.yul\":5494:5498   */\n      dup3\n        /* \"#utility.yul\":5472:5499   */\n      tag_105\n      jump\t// in\n    tag_209:\n        /* \"#utility.yul\":5464:5470   */\n      dup2\n        /* \"#utility.yul\":5460:5500   */\n      add\n        /* \"#utility.yul\":5602:5608   */\n      dup2\n        /* \"#utility.yul\":5590:5600   */\n      dup2\n        /* \"#utility.yul\":5587:5609   */\n      lt\n        /* \"#utility.yul\":5566:5584   */\n      0xffffffffffffffff\n        /* \"#utility.yul\":5554:5564   */\n      dup3\n        /* \"#utility.yul\":5551:5585   */\n      gt\n        /* \"#utility.yul\":5548:5610   */\n      or\n        /* \"#utility.yul\":5545:5633   */\n      iszero\n      tag_210\n      jumpi\n        /* \"#utility.yul\":5613:5631   */\n      tag_211\n      tag_117\n      jump\t// in\n    tag_211:\n        /* \"#utility.yul\":5545:5633   */\n    tag_210:\n        /* \"#utility.yul\":5653:5663   */\n      dup1\n        /* \"#utility.yul\":5649:5651   */\n      0x40\n        /* \"#utility.yul\":5642:5664   */\n      mstore\n        /* \"#utility.yul\":5432:5670   */\n      pop\n        /* \"#utility.yul\":5389:5670   */\n      pop\n      pop\n      jump\t// out\n        /* \"#utility.yul\":5676:5805   */\n    tag_119:\n        /* \"#utility.yul\":5710:5716   */\n      0x00\n        /* \"#utility.yul\":5737:5757   */\n      tag_213\n      tag_113\n      jump\t// in\n    tag_213:\n        /* \"#utility.yul\":5727:5757   */\n      swap1\n      pop\n        /* \"#utility.yul\":5766:5799   */\n      tag_214\n        /* \"#utility.yul\":5794:5798   */\n      dup3\n        /* \"#utility.yul\":5786:5792   */\n      dup3\n        /* \"#utility.yul\":5766:5799   */\n      tag_118\n      jump\t// in\n    tag_214:\n        /* \"#utility.yul\":5676:5805   */\n      swap2\n      swap1\n      pop\n      jump\t// out\n        /* \"#utility.yul\":5811:5928   */\n    tag_120:\n        /* \"#utility.yul\":5920:5921   */\n      0x00\n        /* \"#utility.yul\":5917:5918   */\n      dup1\n        /* \"#utility.yul\":5910:5922   */\n      revert\n        /* \"#utility.yul\":5934:6056   */\n    tag_121:\n        /* \"#utility.yul\":6007:6031   */\n      tag_217\n        /* \"#utility.yul\":6025:6030   */\n      dup2\n        /* \"#utility.yul\":6007:6031   */\n      tag_100\n      jump\t// in\n    tag_217:\n        /* \"#utility.yul\":6000:6005   */\n      dup2\n        /* \"#utility.yul\":5997:6032   */\n      eq\n        /* \"#utility.yul\":5987:6050   */\n      tag_218\n      jumpi\n        /* \"#utility.yul\":6046:6047   */\n      0x00\n        /* \"#utility.yul\":6043:6044   */\n      dup1\n        /* \"#utility.yul\":6036:6048   */\n      revert\n        /* \"#utility.yul\":5987:6050   */\n    tag_218:\n        /* \"#utility.yul\":5934:6056   */\n      pop\n      jump\t// out\n        /* \"#utility.yul\":6062:6201   */\n    tag_122:\n        /* \"#utility.yul\":6108:6113   */\n      0x00\n        /* \"#utility.yul\":6146:6152   */\n      dup2\n        /* \"#utility.yul\":6133:6153   */\n      calldataload\n        /* \"#utility.yul\":6124:6153   */\n      swap1\n      pop\n        /* \"#utility.yul\":6162:6195   */\n      tag_220\n        /* \"#utility.yul\":6189:6194   */\n      dup2\n        /* \"#utility.yul\":6162:6195   */\n      tag_121\n      jump\t// in\n    tag_220:\n        /* \"#utility.yul\":6062:6201   */\n      swap3\n      swap2\n      pop\n      pop\n      jump\t// out\n        /* \"#utility.yul\":6207:6324   */\n    tag_123:\n        /* \"#utility.yul\":6316:6317   */\n      0x00\n        /* \"#utility.yul\":6313:6314   */\n      dup1\n        /* \"#utility.yul\":6306:6318   */\n      revert\n        /* \"#utility.yul\":6330:6447   */\n    tag_124:\n        /* \"#utility.yul\":6439:6440   */\n      0x00\n        /* \"#utility.yul\":6436:6437   */\n      dup1\n        /* \"#utility.yul\":6429:6441   */\n      revert\n        /* \"#utility.yul\":6453:6761   */\n    tag_125:\n        /* \"#utility.yul\":6515:6519   */\n      0x00\n        /* \"#utility.yul\":6605:6623   */\n      0xffffffffffffffff\n        /* \"#utility.yul\":6597:6603   */\n      dup3\n        /* \"#utility.yul\":6594:6624   */\n      gt\n        /* \"#utility.yul\":6591:6647   */\n      iszero\n      tag_224\n      jumpi\n        /* \"#utility.yul\":6627:6645   */\n      tag_225\n      tag_117\n      jump\t// in\n    tag_225:\n        /* \"#utility.yul\":6591:6647   */\n    tag_224:\n        /* \"#utility.yul\":6665:6694   */\n      tag_226\n        /* \"#utility.yul\":6687:6693   */\n      dup3\n        /* \"#utility.yul\":6665:6694   */\n      tag_105\n      jump\t// in\n    tag_226:\n        /* \"#utility.yul\":6657:6694   */\n      swap1\n      pop\n        /* \"#utility.yul\":6749:6753   */\n      0x20\n        /* \"#utility.yul\":6743:6747   */\n      dup2\n        /* \"#utility.yul\":6739:6754   */\n      add\n        /* \"#utility.yul\":6731:6754   */\n      swap1\n      pop\n        /* \"#utility.yul\":6453:6761   */\n      swap2\n      swap1\n      pop\n      jump\t// out\n        /* \"#utility.yul\":6767:6913   */\n    tag_126:\n        /* \"#utility.yul\":6864:6870   */\n      dup3\n        /* \"#utility.yul\":6859:6862   */\n      dup2\n        /* \"#utility.yul\":6854:6857   */\n      dup4\n        /* \"#utility.yul\":6841:6871   */\n      calldatacopy\n        /* \"#utility.yul\":6905:6906   */\n      0x00\n        /* \"#utility.yul\":6896:6902   */\n      dup4\n        /* \"#utility.yul\":6891:6894   */\n      dup4\n        /* \"#utility.yul\":6887:6903   */\n      add\n        /* \"#utility.yul\":6880:6907   */\n      mstore\n        /* \"#utility.yul\":6767:6913   */\n      pop\n      pop\n      pop\n      jump\t// out\n        /* \"#utility.yul\":6919:7344   */\n    tag_127:\n        /* \"#utility.yul\":6997:7002   */\n      0x00\n        /* \"#utility.yul\":7022:7088   */\n      tag_229\n        /* \"#utility.yul\":7038:7087   */\n      tag_230\n        /* \"#utility.yul\":7080:7086   */\n      dup5\n        /* \"#utility.yul\":7038:7087   */\n      tag_125\n      jump\t// in\n    tag_230:\n        /* \"#utility.yul\":7022:7088   */\n      tag_119\n      jump\t// in\n    tag_229:\n        /* \"#utility.yul\":7013:7088   */\n      swap1\n      pop\n        /* \"#utility.yul\":7111:7117   */\n      dup3\n        /* \"#utility.yul\":7104:7109   */\n      dup2\n        /* \"#utility.yul\":7097:7118   */\n      mstore\n        /* \"#utility.yul\":7149:7153   */\n      0x20\n        /* \"#utility.yul\":7142:7147   */\n      dup2\n        /* \"#utility.yul\":7138:7154   */\n      add\n        /* \"#utility.yul\":7187:7190   */\n      dup5\n        /* \"#utility.yul\":7178:7184   */\n      dup5\n        /* \"#utility.yul\":7173:7176   */\n      dup5\n        /* \"#utility.yul\":7169:7185   */\n      add\n        /* \"#utility.yul\":7166:7191   */\n      gt\n        /* \"#utility.yul\":7163:7275   */\n      iszero\n      tag_231\n      jumpi\n        /* \"#utility.yul\":7194:7273   */\n      tag_232\n      tag_124\n      jump\t// in\n    tag_232:\n        /* \"#utility.yul\":7163:7275   */\n    tag_231:\n        /* \"#utility.yul\":7284:7338   */\n      tag_233\n        /* \"#utility.yul\":7331:7337   */\n      dup5\n        /* \"#utility.yul\":7326:7329   */\n      dup3\n        /* \"#utility.yul\":7321:7324   */\n      dup6\n        /* \"#utility.yul\":7284:7338   */\n      tag_126\n      jump\t// in\n    tag_233:\n        /* \"#utility.yul\":7003:7344   */\n      pop\n        /* \"#utility.yul\":6919:7344   */\n      swap4\n      swap3\n      pop\n      pop\n      pop\n      jump\t// out\n        /* \"#utility.yul\":7364:7704   */\n    tag_128:\n        /* \"#utility.yul\":7420:7425   */\n      0x00\n        /* \"#utility.yul\":7469:7472   */\n      dup3\n        /* \"#utility.yul\":7462:7466   */\n      0x1f\n        /* \"#utility.yul\":7454:7460   */\n      dup4\n        /* \"#utility.yul\":7450:7467   */\n      add\n        /* \"#utility.yul\":7446:7473   */\n      slt\n        /* \"#utility.yul\":7436:7558   */\n      tag_235\n      jumpi\n        /* \"#utility.yul\":7477:7556   */\n      tag_236\n      tag_123\n      jump\t// in\n    tag_236:\n        /* \"#utility.yul\":7436:7558   */\n    tag_235:\n        /* \"#utility.yul\":7594:7600   */\n      dup2\n        /* \"#utility.yul\":7581:7601   */\n      calldataload\n        /* \"#utility.yul\":7619:7698   */\n      tag_237\n        /* \"#utility.yul\":7694:7697   */\n      dup5\n        /* \"#utility.yul\":7686:7692   */\n      dup3\n        /* \"#utility.yul\":7679:7683   */\n      0x20\n        /* \"#utility.yul\":7671:7677   */\n      dup7\n        /* \"#utility.yul\":7667:7684   */\n      add\n        /* \"#utility.yul\":7619:7698   */\n      tag_127\n      jump\t// in\n    tag_237:\n        /* \"#utility.yul\":7610:7698   */\n      swap2\n      pop\n        /* \"#utility.yul\":7426:7704   */\n      pop\n        /* \"#utility.yul\":7364:7704   */\n      swap3\n      swap2\n      pop\n      pop\n      jump\t// out\n        /* \"#utility.yul\":7710:7826   */\n    tag_129:\n        /* \"#utility.yul\":7780:7801   */\n      tag_239\n        /* \"#utility.yul\":7795:7800   */\n      dup2\n        /* \"#utility.yul\":7780:7801   */\n      tag_107\n      jump\t// in\n    tag_239:\n        /* \"#utility.yul\":7773:7778   */\n      dup2\n        /* \"#utility.yul\":7770:7802   */\n      eq\n        /* \"#utility.yul\":7760:7820   */\n      tag_240\n      jumpi\n        /* \"#utility.yul\":7816:7817   */\n      0x00\n        /* \"#utility.yul\":7813:7814   */\n      dup1\n        /* \"#utility.yul\":7806:7818   */\n      revert\n        /* \"#utility.yul\":7760:7820   */\n    tag_240:\n        /* \"#utility.yul\":7710:7826   */\n      pop\n      jump\t// out\n        /* \"#utility.yul\":7832:7965   */\n    tag_130:\n        /* \"#utility.yul\":7875:7880   */\n      0x00\n        /* \"#utility.yul\":7913:7919   */\n      dup2\n        /* \"#utility.yul\":7900:7920   */\n      calldataload\n        /* \"#utility.yul\":7891:7920   */\n      swap1\n      pop\n        /* \"#utility.yul\":7929:7959   */\n      tag_242\n        /* \"#utility.yul\":7953:7958   */\n      dup2\n        /* \"#utility.yul\":7929:7959   */\n      tag_129\n      jump\t// in\n    tag_242:\n        /* \"#utility.yul\":7832:7965   */\n      swap3\n      swap2\n      pop\n      pop\n      jump\t// out\n        /* \"#utility.yul\":7992:8916   */\n    tag_131:\n        /* \"#utility.yul\":8064:8069   */\n      0x00\n        /* \"#utility.yul\":8108:8112   */\n      0x60\n        /* \"#utility.yul\":8096:8105   */\n      dup3\n        /* \"#utility.yul\":8091:8094   */\n      dup5\n        /* \"#utility.yul\":8087:8106   */\n      sub\n        /* \"#utility.yul\":8083:8113   */\n      slt\n        /* \"#utility.yul\":8080:8197   */\n      iszero\n      tag_244\n      jumpi\n        /* \"#utility.yul\":8116:8195   */\n      tag_245\n      tag_116\n      jump\t// in\n    tag_245:\n        /* \"#utility.yul\":8080:8197   */\n    tag_244:\n        /* \"#utility.yul\":8215:8236   */\n      tag_246\n        /* \"#utility.yul\":8231:8235   */\n      0x60\n        /* \"#utility.yul\":8215:8236   */\n      tag_119\n      jump\t// in\n    tag_246:\n        /* \"#utility.yul\":8206:8236   */\n      swap1\n      pop\n        /* \"#utility.yul\":8299:8300   */\n      0x00\n        /* \"#utility.yul\":8339:8388   */\n      tag_247\n        /* \"#utility.yul\":8384:8387   */\n      dup5\n        /* \"#utility.yul\":8375:8381   */\n      dup3\n        /* \"#utility.yul\":8364:8373   */\n      dup6\n        /* \"#utility.yul\":8360:8382   */\n      add\n        /* \"#utility.yul\":8339:8388   */\n      tag_122\n      jump\t// in\n    tag_247:\n        /* \"#utility.yul\":8332:8336   */\n      0x00\n        /* \"#utility.yul\":8325:8330   */\n      dup4\n        /* \"#utility.yul\":8321:8337   */\n      add\n        /* \"#utility.yul\":8314:8389   */\n      mstore\n        /* \"#utility.yul\":8246:8400   */\n      pop\n        /* \"#utility.yul\":8496:8498   */\n      0x20\n        /* \"#utility.yul\":8485:8494   */\n      dup3\n        /* \"#utility.yul\":8481:8499   */\n      add\n        /* \"#utility.yul\":8468:8500   */\n      calldataload\n        /* \"#utility.yul\":8527:8545   */\n      0xffffffffffffffff\n        /* \"#utility.yul\":8519:8525   */\n      dup2\n        /* \"#utility.yul\":8516:8546   */\n      gt\n        /* \"#utility.yul\":8513:8630   */\n      iszero\n      tag_248\n      jumpi\n        /* \"#utility.yul\":8549:8628   */\n      tag_249\n      tag_120\n      jump\t// in\n    tag_249:\n        /* \"#utility.yul\":8513:8630   */\n    tag_248:\n        /* \"#utility.yul\":8669:8728   */\n      tag_250\n        /* \"#utility.yul\":8724:8727   */\n      dup5\n        /* \"#utility.yul\":8715:8721   */\n      dup3\n        /* \"#utility.yul\":8704:8713   */\n      dup6\n        /* \"#utility.yul\":8700:8722   */\n      add\n        /* \"#utility.yul\":8669:8728   */\n      tag_128\n      jump\t// in\n    tag_250:\n        /* \"#utility.yul\":8662:8666   */\n      0x20\n        /* \"#utility.yul\":8655:8660   */\n      dup4\n        /* \"#utility.yul\":8651:8667   */\n      add\n        /* \"#utility.yul\":8644:8729   */\n      mstore\n        /* \"#utility.yul\":8410:8740   */\n      pop\n        /* \"#utility.yul\":8810:8812   */\n      0x40\n        /* \"#utility.yul\":8851:8897   */\n      tag_251\n        /* \"#utility.yul\":8893:8896   */\n      dup5\n        /* \"#utility.yul\":8884:8890   */\n      dup3\n        /* \"#utility.yul\":8873:8882   */\n      dup6\n        /* \"#utility.yul\":8869:8891   */\n      add\n        /* \"#utility.yul\":8851:8897   */\n      tag_130\n      jump\t// in\n    tag_251:\n        /* \"#utility.yul\":8844:8848   */\n      0x40\n        /* \"#utility.yul\":8837:8842   */\n      dup4\n        /* \"#utility.yul\":8833:8849   */\n      add\n        /* \"#utility.yul\":8826:8898   */\n      mstore\n        /* \"#utility.yul\":8750:8909   */\n      pop\n        /* \"#utility.yul\":7992:8916   */\n      swap3\n      swap2\n      pop\n      pop\n      jump\t// out\n        /* \"#utility.yul\":8922:9457   */\n    tag_17:\n        /* \"#utility.yul\":9004:9010   */\n      0x00\n        /* \"#utility.yul\":9053:9055   */\n      0x20\n        /* \"#utility.yul\":9041:9050   */\n      dup3\n        /* \"#utility.yul\":9032:9039   */\n      dup5\n        /* \"#utility.yul\":9028:9051   */\n      sub\n        /* \"#utility.yul\":9024:9056   */\n      slt\n        /* \"#utility.yul\":9021:9140   */\n      iszero\n      tag_253\n      jumpi\n        /* \"#utility.yul\":9059:9138   */\n      tag_254\n      tag_114\n      jump\t// in\n    tag_254:\n        /* \"#utility.yul\":9021:9140   */\n    tag_253:\n        /* \"#utility.yul\":9207:9208   */\n      0x00\n        /* \"#utility.yul\":9196:9205   */\n      dup3\n        /* \"#utility.yul\":9192:9209   */\n      add\n        /* \"#utility.yul\":9179:9210   */\n      calldataload\n        /* \"#utility.yul\":9237:9255   */\n      0xffffffffffffffff\n        /* \"#utility.yul\":9229:9235   */\n      dup2\n        /* \"#utility.yul\":9226:9256   */\n      gt\n        /* \"#utility.yul\":9223:9340   */\n      iszero\n      tag_255\n      jumpi\n        /* \"#utility.yul\":9259:9338   */\n      tag_256\n      tag_115\n      jump\t// in\n    tag_256:\n        /* \"#utility.yul\":9223:9340   */\n    tag_255:\n        /* \"#utility.yul\":9364:9440   */\n      tag_257\n        /* \"#utility.yul\":9432:9439   */\n      dup5\n        /* \"#utility.yul\":9423:9429   */\n      dup3\n        /* \"#utility.yul\":9412:9421   */\n      dup6\n        /* \"#utility.yul\":9408:9430   */\n      add\n        /* \"#utility.yul\":9364:9440   */\n      tag_131\n      jump\t// in\n    tag_257:\n        /* \"#utility.yul\":9354:9440   */\n      swap2\n      pop\n        /* \"#utility.yul\":9150:9450   */\n      pop\n        /* \"#utility.yul\":8922:9457   */\n      swap3\n      swap2\n      pop\n      pop\n      jump\t// out\n        /* \"#utility.yul\":9463:9589   */\n    tag_132:\n        /* \"#utility.yul\":9500:9507   */\n      0x00\n        /* \"#utility.yul\":9540:9582   */\n      0xffffffffffffffffffffffffffffffffffffffff\n        /* \"#utility.yul\":9533:9538   */\n      dup3\n        /* \"#utility.yul\":9529:9583   */\n      and\n        /* \"#utility.yul\":9518:9583   */\n      swap1\n      pop\n        /* \"#utility.yul\":9463:9589   */\n      swap2\n      swap1\n      pop\n      jump\t// out\n        /* \"#utility.yul\":9595:9691   */\n    tag_133:\n        /* \"#utility.yul\":9632:9639   */\n      0x00\n        /* \"#utility.yul\":9661:9685   */\n      tag_260\n        /* \"#utility.yul\":9679:9684   */\n      dup3\n        /* \"#utility.yul\":9661:9685   */\n      tag_132\n      jump\t// in\n    tag_260:\n        /* \"#utility.yul\":9650:9685   */\n      swap1\n      pop\n        /* \"#utility.yul\":9595:9691   */\n      swap2\n      swap1\n      pop\n      jump\t// out\n        /* \"#utility.yul\":9697:9819   */\n    tag_134:\n        /* \"#utility.yul\":9770:9794   */\n      tag_262\n        /* \"#utility.yul\":9788:9793   */\n      dup2\n        /* \"#utility.yul\":9770:9794   */\n      tag_133\n      jump\t// in\n    tag_262:\n        /* \"#utility.yul\":9763:9768   */\n      dup2\n        /* \"#utility.yul\":9760:9795   */\n      eq\n        /* \"#utility.yul\":9750:9813   */\n      tag_263\n      jumpi\n        /* \"#utility.yul\":9809:9810   */\n      0x00\n        /* \"#utility.yul\":9806:9807   */\n      dup1\n        /* \"#utility.yul\":9799:9811   */\n      revert\n        /* \"#utility.yul\":9750:9813   */\n    tag_263:\n        /* \"#utility.yul\":9697:9819   */\n      pop\n      jump\t// out\n        /* \"#utility.yul\":9825:9964   */\n    tag_135:\n        /* \"#utility.yul\":9871:9876   */\n      0x00\n        /* \"#utility.yul\":9909:9915   */\n      dup2\n        /* \"#utility.yul\":9896:9916   */\n      calldataload\n        /* \"#utility.yul\":9887:9916   */\n      swap1\n      pop\n        /* \"#utility.yul\":9925:9958   */\n      tag_265\n        /* \"#utility.yul\":9952:9957   */\n      dup2\n        /* \"#utility.yul\":9925:9958   */\n      tag_134\n      jump\t// in\n    tag_265:\n        /* \"#utility.yul\":9825:9964   */\n      swap3\n      swap2\n      pop\n      pop\n      jump\t// out\n        /* \"#utility.yul\":9970:10299   */\n    tag_21:\n        /* \"#utility.yul\":10029:10035   */\n      0x00\n        /* \"#utility.yul\":10078:10080   */\n      0x20\n        /* \"#utility.yul\":10066:10075   */\n      dup3\n        /* \"#utility.yul\":10057:10064   */\n      dup5\n        /* \"#utility.yul\":10053:10076   */\n      sub\n        /* \"#utility.yul\":10049:10081   */\n      slt\n        /* \"#utility.yul\":10046:10165   */\n      iszero\n      tag_267\n      jumpi\n        /* \"#utility.yul\":10084:10163   */\n      tag_268\n      tag_114\n      jump\t// in\n    tag_268:\n        /* \"#utility.yul\":10046:10165   */\n    tag_267:\n        /* \"#utility.yul\":10204:10205   */\n      0x00\n        /* \"#utility.yul\":10229:10282   */\n      tag_269\n        /* \"#utility.yul\":10274:10281   */\n      dup5\n        /* \"#utility.yul\":10265:10271   */\n      dup3\n        /* \"#utility.yul\":10254:10263   */\n      dup6\n        /* \"#utility.yul\":10250:10272   */\n      add\n        /* \"#utility.yul\":10229:10282   */\n      tag_135\n      jump\t// in\n    tag_269:\n        /* \"#utility.yul\":10219:10282   */\n      swap2\n      pop\n        /* \"#utility.yul\":10175:10292   */\n      pop\n        /* \"#utility.yul\":9970:10299   */\n      swap3\n      swap2\n      pop\n      pop\n      jump\t// out\n        /* \"#utility.yul\":10305:10423   */\n    tag_136:\n        /* \"#utility.yul\":10392:10416   */\n      tag_271\n        /* \"#utility.yul\":10410:10415   */\n      dup2\n        /* \"#utility.yul\":10392:10416   */\n      tag_133\n      jump\t// in\n    tag_271:\n        /* \"#utility.yul\":10387:10390   */\n      dup3\n        /* \"#utility.yul\":10380:10417   */\n      mstore\n        /* \"#utility.yul\":10305:10423   */\n      pop\n      pop\n      jump\t// out\n        /* \"#utility.yul\":10429:10651   */\n    tag_28:\n        /* \"#utility.yul\":10522:10526   */\n      0x00\n        /* \"#utility.yul\":10560:10562   */\n      0x20\n        /* \"#utility.yul\":10549:10558   */\n      dup3\n        /* \"#utility.yul\":10545:10563   */\n      add\n        /* \"#utility.yul\":10537:10563   */\n      swap1\n      pop\n        /* \"#utility.yul\":10573:10644   */\n      tag_273\n        /* \"#utility.yul\":10641:10642   */\n      0x00\n        /* \"#utility.yul\":10630:10639   */\n      dup4\n        /* \"#utility.yul\":10626:10643   */\n      add\n        /* \"#utility.yul\":10617:10623   */\n      dup5\n        /* \"#utility.yul\":10573:10644   */\n      tag_136\n      jump\t// in\n    tag_273:\n        /* \"#utility.yul\":10429:10651   */\n      swap3\n      swap2\n      pop\n      pop\n      jump\t// out\n        /* \"#utility.yul\":10657:10986   */\n    tag_31:\n        /* \"#utility.yul\":10716:10722   */\n      0x00\n        /* \"#utility.yul\":10765:10767   */\n      0x20\n        /* \"#utility.yul\":10753:10762   */\n      dup3\n        /* \"#utility.yul\":10744:10751   */\n      dup5\n        /* \"#utility.yul\":10740:10763   */\n      sub\n        /* \"#utility.yul\":10736:10768   */\n      slt\n        /* \"#utility.yul\":10733:10852   */\n      iszero\n      tag_275\n      jumpi\n        /* \"#utility.yul\":10771:10850   */\n      tag_276\n      tag_114\n      jump\t// in\n    tag_276:\n        /* \"#utility.yul\":10733:10852   */\n    tag_275:\n        /* \"#utility.yul\":10891:10892   */\n      0x00\n        /* \"#utility.yul\":10916:10969   */\n      tag_277\n        /* \"#utility.yul\":10961:10968   */\n      dup5\n        /* \"#utility.yul\":10952:10958   */\n      dup3\n        /* \"#utility.yul\":10941:10950   */\n      dup6\n        /* \"#utility.yul\":10937:10959   */\n      add\n        /* \"#utility.yul\":10916:10969   */\n      tag_122\n      jump\t// in\n    tag_277:\n        /* \"#utility.yul\":10906:10969   */\n      swap2\n      pop\n        /* \"#utility.yul\":10862:10979   */\n      pop\n        /* \"#utility.yul\":10657:10986   */\n      swap3\n      swap2\n      pop\n      pop\n      jump\t// out\n        /* \"#utility.yul\":10992:11161   */\n    tag_137:\n        /* \"#utility.yul\":11076:11087   */\n      0x00\n        /* \"#utility.yul\":11110:11116   */\n      dup3\n        /* \"#utility.yul\":11105:11108   */\n      dup3\n        /* \"#utility.yul\":11098:11117   */\n      mstore\n        /* \"#utility.yul\":11150:11154   */\n      0x20\n        /* \"#utility.yul\":11145:11148   */\n      dup3\n        /* \"#utility.yul\":11141:11155   */\n      add\n        /* \"#utility.yul\":11126:11155   */\n      swap1\n      pop\n        /* \"#utility.yul\":10992:11161   */\n      swap3\n      swap2\n      pop\n      pop\n      jump\t// out\n        /* \"#utility.yul\":11167:11401   */\n    tag_138:\n        /* \"#utility.yul\":11307:11341   */\n      0x4661726d657244617461626173653a206f6e6c7920636f6e7472616374207768\n        /* \"#utility.yul\":11303:11304   */\n      0x00\n        /* \"#utility.yul\":11295:11301   */\n      dup3\n        /* \"#utility.yul\":11291:11305   */\n      add\n        /* \"#utility.yul\":11284:11342   */\n      mstore\n        /* \"#utility.yul\":11376:11393   */\n      0x6963682061726520616c6c6f7765640000000000000000000000000000000000\n        /* \"#utility.yul\":11371:11373   */\n      0x20\n        /* \"#utility.yul\":11363:11369   */\n      dup3\n        /* \"#utility.yul\":11359:11374   */\n      add\n        /* \"#utility.yul\":11352:11394   */\n      mstore\n        /* \"#utility.yul\":11167:11401   */\n      pop\n      jump\t// out\n        /* \"#utility.yul\":11407:11773   */\n    tag_139:\n        /* \"#utility.yul\":11549:11552   */\n      0x00\n        /* \"#utility.yul\":11570:11637   */\n      tag_281\n        /* \"#utility.yul\":11634:11636   */\n      0x2f\n        /* \"#utility.yul\":11629:11632   */\n      dup4\n        /* \"#utility.yul\":11570:11637   */\n      tag_137\n      jump\t// in\n    tag_281:\n        /* \"#utility.yul\":11563:11637   */\n      swap2\n      pop\n        /* \"#utility.yul\":11646:11739   */\n      tag_282\n        /* \"#utility.yul\":11735:11738   */\n      dup3\n        /* \"#utility.yul\":11646:11739   */\n      tag_138\n      jump\t// in\n    tag_282:\n        /* \"#utility.yul\":11764:11766   */\n      0x40\n        /* \"#utility.yul\":11759:11762   */\n      dup3\n        /* \"#utility.yul\":11755:11767   */\n      add\n        /* \"#utility.yul\":11748:11767   */\n      swap1\n      pop\n        /* \"#utility.yul\":11407:11773   */\n      swap2\n      swap1\n      pop\n      jump\t// out\n        /* \"#utility.yul\":11779:12198   */\n    tag_41:\n        /* \"#utility.yul\":11945:11949   */\n      0x00\n        /* \"#utility.yul\":11983:11985   */\n      0x20\n        /* \"#utility.yul\":11972:11981   */\n      dup3\n        /* \"#utility.yul\":11968:11986   */\n      add\n        /* \"#utility.yul\":11960:11986   */\n      swap1\n      pop\n        /* \"#utility.yul\":12032:12041   */\n      dup2\n        /* \"#utility.yul\":12026:12030   */\n      dup2\n        /* \"#utility.yul\":12022:12042   */\n      sub\n        /* \"#utility.yul\":12018:12019   */\n      0x00\n        /* \"#utility.yul\":12007:12016   */\n      dup4\n        /* \"#utility.yul\":12003:12020   */\n      add\n        /* \"#utility.yul\":11996:12043   */\n      mstore\n        /* \"#utility.yul\":12060:12191   */\n      tag_284\n        /* \"#utility.yul\":12186:12190   */\n      dup2\n        /* \"#utility.yul\":12060:12191   */\n      tag_139\n      jump\t// in\n    tag_284:\n        /* \"#utility.yul\":12052:12191   */\n      swap1\n      pop\n        /* \"#utility.yul\":11779:12198   */\n      swap2\n      swap1\n      pop\n      jump\t// out\n        /* \"#utility.yul\":12204:12384   */\n    tag_140:\n        /* \"#utility.yul\":12252:12329   */\n      0x4e487b7100000000000000000000000000000000000000000000000000000000\n        /* \"#utility.yul\":12249:12250   */\n      0x00\n        /* \"#utility.yul\":12242:12330   */\n      mstore\n        /* \"#utility.yul\":12349:12353   */\n      0x22\n        /* \"#utility.yul\":12346:12347   */\n      0x04\n        /* \"#utility.yul\":12339:12354   */\n      mstore\n        /* \"#utility.yul\":12373:12377   */\n      0x24\n        /* \"#utility.yul\":12370:12371   */\n      0x00\n        /* \"#utility.yul\":12363:12378   */\n      revert\n        /* \"#utility.yul\":12390:12710   */\n    tag_47:\n        /* \"#utility.yul\":12434:12440   */\n      0x00\n        /* \"#utility.yul\":12471:12472   */\n      0x02\n        /* \"#utility.yul\":12465:12469   */\n      dup3\n        /* \"#utility.yul\":12461:12473   */\n      div\n        /* \"#utility.yul\":12451:12473   */\n      swap1\n      pop\n        /* \"#utility.yul\":12518:12519   */\n      0x01\n        /* \"#utility.yul\":12512:12516   */\n      dup3\n        /* \"#utility.yul\":12508:12520   */\n      and\n        /* \"#utility.yul\":12539:12557   */\n      dup1\n        /* \"#utility.yul\":12529:12610   */\n      tag_287\n      jumpi\n        /* \"#utility.yul\":12595:12599   */\n      0x7f\n        /* \"#utility.yul\":12587:12593   */\n      dup3\n        /* \"#utility.yul\":12583:12600   */\n      and\n        /* \"#utility.yul\":12573:12600   */\n      swap2\n      pop\n        /* \"#utility.yul\":12529:12610   */\n    tag_287:\n        /* \"#utility.yul\":12657:12659   */\n      0x20\n        /* \"#utility.yul\":12649:12655   */\n      dup3\n        /* \"#utility.yul\":12646:12660   */\n      lt\n        /* \"#utility.yul\":12626:12644   */\n      dup2\n        /* \"#utility.yul\":12623:12661   */\n      sub\n        /* \"#utility.yul\":12620:12704   */\n      tag_288\n      jumpi\n        /* \"#utility.yul\":12676:12694   */\n      tag_289\n      tag_140\n      jump\t// in\n    tag_289:\n        /* \"#utility.yul\":12620:12704   */\n    tag_288:\n        /* \"#utility.yul\":12441:12710   */\n      pop\n        /* \"#utility.yul\":12390:12710   */\n      swap2\n      swap1\n      pop\n      jump\t// out\n        /* \"#utility.yul\":12716:12896   */\n    tag_141:\n        /* \"#utility.yul\":12764:12841   */\n      0x4e487b7100000000000000000000000000000000000000000000000000000000\n        /* \"#utility.yul\":12761:12762   */\n      0x00\n        /* \"#utility.yul\":12754:12842   */\n      mstore\n        /* \"#utility.yul\":12861:12865   */\n      0x11\n        /* \"#utility.yul\":12858:12859   */\n      0x04\n        /* \"#utility.yul\":12851:12866   */\n      mstore\n        /* \"#utility.yul\":12885:12889   */\n      0x24\n        /* \"#utility.yul\":12882:12883   */\n      0x00\n        /* \"#utility.yul\":12875:12890   */\n      revert\n        /* \"#utility.yul\":12902:13135   */\n    tag_58:\n        /* \"#utility.yul\":12941:12944   */\n      0x00\n        /* \"#utility.yul\":12964:12988   */\n      tag_292\n        /* \"#utility.yul\":12982:12987   */\n      dup3\n        /* \"#utility.yul\":12964:12988   */\n      tag_100\n      jump\t// in\n    tag_292:\n        /* \"#utility.yul\":12955:12988   */\n      swap2\n      pop\n        /* \"#utility.yul\":13010:13076   */\n      0xffffffffffffffffffffffffffffffffffffffffffffffffffffffffffffffff\n        /* \"#utility.yul\":13003:13008   */\n      dup3\n        /* \"#utility.yul\":13000:13077   */\n      sub\n        /* \"#utility.yul\":12997:13100   */\n      tag_293\n      jumpi\n        /* \"#utility.yul\":13080:13098   */\n      tag_294\n      tag_141\n      jump\t// in\n    tag_294:\n        /* \"#utility.yul\":12997:13100   */\n    tag_293:\n        /* \"#utility.yul\":13127:13128   */\n      0x01\n        /* \"#utility.yul\":13120:13125   */\n      dup3\n        /* \"#utility.yul\":13116:13129   */\n      add\n        /* \"#utility.yul\":13109:13129   */\n      swap1\n      pop\n        /* \"#utility.yul\":12902:13135   */\n      swap2\n      swap1\n      pop\n      jump\t// out\n        /* \"#utility.yul\":13141:13282   */\n    tag_142:\n        /* \"#utility.yul\":13190:13194   */\n      0x00\n        /* \"#utility.yul\":13213:13216   */\n      dup2\n        /* \"#utility.yul\":13205:13216   */\n      swap1\n      pop\n        /* \"#utility.yul\":13236:13239   */\n      dup2\n        /* \"#utility.yul\":13233:13234   */\n      0x00\n        /* \"#utility.yul\":13226:13240   */\n      mstore\n        /* \"#utility.yul\":13270:13274   */\n      0x20\n        /* \"#utility.yul\":13267:13268   */\n      0x00\n        /* \"#utility.yul\":13257:13275   */\n      keccak256\n        /* \"#utility.yul\":13249:13275   */\n      swap1\n      pop\n        /* \"#utility.yul\":13141:13282   */\n      swap2\n      swap1\n      pop\n      jump\t// out\n        /* \"#utility.yul\":13288:13381   */\n    tag_143:\n        /* \"#utility.yul\":13325:13331   */\n      0x00\n        /* \"#utility.yul\":13372:13374   */\n      0x20\n        /* \"#utility.yul\":13367:13369   */\n      0x1f\n        /* \"#utility.yul\":13360:13365   */\n      dup4\n        /* \"#utility.yul\":13356:13370   */\n      add\n        /* \"#utility.yul\":13352:13375   */\n      div\n        /* \"#utility.yul\":13342:13375   */\n      swap1\n      pop\n        /* \"#utility.yul\":13288:13381   */\n      swap2\n      swap1\n      pop\n      jump\t// out\n        /* \"#utility.yul\":13387:13494   */\n    tag_144:\n        /* \"#utility.yul\":13431:13439   */\n      0x00\n        /* \"#utility.yul\":13481:13486   */\n      dup3\n        /* \"#utility.yul\":13475:13479   */\n      dup3\n        /* \"#utility.yul\":13471:13487   */\n      shl\n        /* \"#utility.yul\":13450:13487   */\n      swap1\n      pop\n        /* \"#utility.yul\":13387:13494   */\n      swap3\n      swap2\n      pop\n      pop\n      jump\t// out\n        /* \"#utility.yul\":13500:13893   */\n    tag_145:\n        /* \"#utility.yul\":13569:13575   */\n      0x00\n        /* \"#utility.yul\":13619:13620   */\n      0x08\n        /* \"#utility.yul\":13607:13617   */\n      dup4\n        /* \"#utility.yul\":13603:13621   */\n      mul\n        /* \"#utility.yul\":13642:13739   */\n      tag_299\n        /* \"#utility.yul\":13672:13738   */\n      0xffffffffffffffffffffffffffffffffffffffffffffffffffffffffffffffff\n        /* \"#utility.yul\":13661:13670   */\n      dup3\n        /* \"#utility.yul\":13642:13739   */\n      tag_144\n      jump\t// in\n    tag_299:\n        /* \"#utility.yul\":13760:13799   */\n      tag_300\n        /* \"#utility.yul\":13790:13798   */\n      dup7\n        /* \"#utility.yul\":13779:13788   */\n      dup4\n        /* \"#utility.yul\":13760:13799   */\n      tag_144\n      jump\t// in\n    tag_300:\n        /* \"#utility.yul\":13748:13799   */\n      swap6\n      pop\n        /* \"#utility.yul\":13832:13836   */\n      dup1\n        /* \"#utility.yul\":13828:13837   */\n      not\n        /* \"#utility.yul\":13821:13826   */\n      dup5\n        /* \"#utility.yul\":13817:13838   */\n      and\n        /* \"#utility.yul\":13808:13838   */\n      swap4\n      pop\n        /* \"#utility.yul\":13881:13885   */\n      dup1\n        /* \"#utility.yul\":13871:13879   */\n      dup7\n        /* \"#utility.yul\":13867:13886   */\n      and\n        /* \"#utility.yul\":13860:13865   */\n      dup5\n        /* \"#utility.yul\":13857:13887   */\n      or\n        /* \"#utility.yul\":13847:13887   */\n      swap3\n      pop\n        /* \"#utility.yul\":13576:13893   */\n      pop\n      pop\n        /* \"#utility.yul\":13500:13893   */\n      swap4\n      swap3\n      pop\n      pop\n      pop\n      jump\t// out\n        /* \"#utility.yul\":13899:13959   */\n    tag_146:\n        /* \"#utility.yul\":13927:13930   */\n      0x00\n        /* \"#utility.yul\":13948:13953   */\n      dup2\n        /* \"#utility.yul\":13941:13953   */\n      swap1\n      pop\n        /* \"#utility.yul\":13899:13959   */\n      swap2\n      swap1\n      pop\n      jump\t// out\n        /* \"#utility.yul\":13965:14107   */\n    tag_147:\n        /* \"#utility.yul\":14015:14024   */\n      0x00\n        /* \"#utility.yul\":14048:14101   */\n      tag_303\n        /* \"#utility.yul\":14066:14100   */\n      tag_304\n        /* \"#utility.yul\":14075:14099   */\n      tag_305\n        /* \"#utility.yul\":14093:14098   */\n      dup5\n        /* \"#utility.yul\":14075:14099   */\n      tag_100\n      jump\t// in\n    tag_305:\n        /* \"#utility.yul\":14066:14100   */\n      tag_146\n      jump\t// in\n    tag_304:\n        /* \"#utility.yul\":14048:14101   */\n      tag_100\n      jump\t// in\n    tag_303:\n        /* \"#utility.yul\":14035:14101   */\n      swap1\n      pop\n        /* \"#utility.yul\":13965:14107   */\n      swap2\n      swap1\n      pop\n      jump\t// out\n        /* \"#utility.yul\":14113:14188   */\n    tag_148:\n        /* \"#utility.yul\":14156:14159   */\n      0x00\n        /* \"#utility.yul\":14177:14182   */\n      dup2\n        /* \"#utility.yul\":14170:14182   */\n      swap1\n      pop\n        /* \"#utility.yul\":14113:14188   */\n      swap2\n      swap1\n      pop\n      jump\t// out\n        /* \"#utility.yul\":14194:14463   */\n    tag_149:\n        /* \"#utility.yul\":14304:14343   */\n      tag_308\n        /* \"#utility.yul\":14335:14342   */\n      dup4\n        /* \"#utility.yul\":14304:14343   */\n      tag_147\n      jump\t// in\n    tag_308:\n        /* \"#utility.yul\":14365:14456   */\n      tag_309\n        /* \"#utility.yul\":14414:14455   */\n      tag_310\n        /* \"#utility.yul\":14438:14454   */\n      dup3\n        /* \"#utility.yul\":14414:14455   */\n      tag_148\n      jump\t// in\n    tag_310:\n        /* \"#utility.yul\":14406:14412   */\n      dup5\n        /* \"#utility.yul\":14399:14403   */\n      dup5\n        /* \"#utility.yul\":14393:14404   */\n      sload\n        /* \"#utility.yul\":14365:14456   */\n      tag_145\n      jump\t// in\n    tag_309:\n        /* \"#utility.yul\":14359:14363   */\n      dup3\n        /* \"#utility.yul\":14352:14457   */\n      sstore\n        /* \"#utility.yul\":14270:14463   */\n      pop\n        /* \"#utility.yul\":14194:14463   */\n      pop\n      pop\n      pop\n      jump\t// out\n        /* \"#utility.yul\":14469:14542   */\n    tag_150:\n        /* \"#utility.yul\":14514:14517   */\n      0x00\n        /* \"#utility.yul\":14469:14542   */\n      swap1\n      jump\t// out\n        /* \"#utility.yul\":14548:14737   */\n    tag_151:\n        /* \"#utility.yul\":14625:14657   */\n      tag_313\n      tag_150\n      jump\t// in\n    tag_313:\n        /* \"#utility.yul\":14666:14731   */\n      tag_314\n        /* \"#utility.yul\":14724:14730   */\n      dup2\n        /* \"#utility.yul\":14716:14722   */\n      dup5\n        /* \"#utility.yul\":14710:14714   */\n      dup5\n        /* \"#utility.yul\":14666:14731   */\n      tag_149\n      jump\t// in\n    tag_314:\n        /* \"#utility.yul\":14601:14737   */\n      pop\n        /* \"#utility.yul\":14548:14737   */\n      pop\n      pop\n      jump\t// out\n        /* \"#utility.yul\":14743:14929   */\n    tag_152:\n        /* \"#utility.yul\":14803:14923   */\n    tag_316:\n        /* \"#utility.yul\":14820:14823   */\n      dup2\n        /* \"#utility.yul\":14813:14818   */\n      dup2\n        /* \"#utility.yul\":14810:14824   */\n      lt\n        /* \"#utility.yul\":14803:14923   */\n      iszero\n      tag_318\n      jumpi\n        /* \"#utility.yul\":14874:14913   */\n      tag_319\n        /* \"#utility.yul\":14911:14912   */\n      0x00\n        /* \"#utility.yul\":14904:14909   */\n      dup3\n        /* \"#utility.yul\":14874:14913   */\n      tag_151\n      jump\t// in\n    tag_319:\n        /* \"#utility.yul\":14847:14848   */\n      0x01\n        /* \"#utility.yul\":14840:14845   */\n      dup2\n        /* \"#utility.yul\":14836:14849   */\n      add\n        /* \"#utility.yul\":14827:14849   */\n      swap1\n      pop\n        /* \"#utility.yul\":14803:14923   */\n      jump(tag_316)\n    tag_318:\n        /* \"#utility.yul\":14743:14929   */\n      pop\n      pop\n      jump\t// out\n        /* \"#utility.yul\":14935:15478   */\n    tag_153:\n        /* \"#utility.yul\":15036:15038   */\n      0x1f\n        /* \"#utility.yul\":15031:15034   */\n      dup3\n        /* \"#utility.yul\":15028:15039   */\n      gt\n        /* \"#utility.yul\":15025:15471   */\n      iszero\n      tag_321\n      jumpi\n        /* \"#utility.yul\":15070:15108   */\n      tag_322\n        /* \"#utility.yul\":15102:15107   */\n      dup2\n        /* \"#utility.yul\":15070:15108   */\n      tag_142\n      jump\t// in\n    tag_322:\n        /* \"#utility.yul\":15154:15183   */\n      tag_323\n        /* \"#utility.yul\":15172:15182   */\n      dup5\n        /* \"#utility.yul\":15154:15183   */\n      tag_143\n      jump\t// in\n    tag_323:\n        /* \"#utility.yul\":15144:15152   */\n      dup2\n        /* \"#utility.yul\":15140:15184   */\n      add\n        /* \"#utility.yul\":15337:15339   */\n      0x20\n        /* \"#utility.yul\":15325:15335   */\n      dup6\n        /* \"#utility.yul\":15322:15340   */\n      lt\n        /* \"#utility.yul\":15319:15368   */\n      iszero\n      tag_324\n      jumpi\n        /* \"#utility.yul\":15358:15366   */\n      dup2\n        /* \"#utility.yul\":15343:15366   */\n      swap1\n      pop\n        /* \"#utility.yul\":15319:15368   */\n    tag_324:\n        /* \"#utility.yul\":15381:15461   */\n      tag_325\n        /* \"#utility.yul\":15437:15459   */\n      tag_326\n        /* \"#utility.yul\":15455:15458   */\n      dup6\n        /* \"#utility.yul\":15437:15459   */\n      tag_143\n      jump\t// in\n    tag_326:\n        /* \"#utility.yul\":15427:15435   */\n      dup4\n        /* \"#utility.yul\":15423:15460   */\n      add\n        /* \"#utility.yul\":15410:15421   */\n      dup3\n        /* \"#utility.yul\":15381:15461   */\n      tag_152\n      jump\t// in\n    tag_325:\n        /* \"#utility.yul\":15040:15471   */\n      pop\n      pop\n        /* \"#utility.yul\":15025:15471   */\n    tag_321:\n        /* \"#utility.yul\":14935:15478   */\n      pop\n      pop\n      pop\n      jump\t// out\n        /* \"#utility.yul\":15484:15601   */\n    tag_154:\n        /* \"#utility.yul\":15538:15546   */\n      0x00\n        /* \"#utility.yul\":15588:15593   */\n      dup3\n        /* \"#utility.yul\":15582:15586   */\n      dup3\n        /* \"#utility.yul\":15578:15594   */\n      shr\n        /* \"#utility.yul\":15557:15594   */\n      swap1\n      pop\n        /* \"#utility.yul\":15484:15601   */\n      swap3\n      swap2\n      pop\n      pop\n      jump\t// out\n        /* \"#utility.yul\":15607:15776   */\n    tag_155:\n        /* \"#utility.yul\":15651:15657   */\n      0x00\n        /* \"#utility.yul\":15684:15735   */\n      tag_329\n        /* \"#utility.yul\":15732:15733   */\n      0x00\n        /* \"#utility.yul\":15728:15734   */\n      not\n        /* \"#utility.yul\":15720:15725   */\n      dup5\n        /* \"#utility.yul\":15717:15718   */\n      0x08\n        /* \"#utility.yul\":15713:15726   */\n      mul\n        /* \"#utility.yul\":15684:15735   */\n      tag_154\n      jump\t// in\n    tag_329:\n        /* \"#utility.yul\":15680:15736   */\n      not\n        /* \"#utility.yul\":15765:15769   */\n      dup1\n        /* \"#utility.yul\":15759:15763   */\n      dup4\n        /* \"#utility.yul\":15755:15770   */\n      and\n        /* \"#utility.yul\":15745:15770   */\n      swap2\n      pop\n        /* \"#utility.yul\":15658:15776   */\n      pop\n        /* \"#utility.yul\":15607:15776   */\n      swap3\n      swap2\n      pop\n      pop\n      jump\t// out\n        /* \"#utility.yul\":15781:16076   */\n    tag_156:\n        /* \"#utility.yul\":15857:15861   */\n      0x00\n        /* \"#utility.yul\":16003:16032   */\n      tag_331\n        /* \"#utility.yul\":16028:16031   */\n      dup4\n        /* \"#utility.yul\":16022:16026   */\n      dup4\n        /* \"#utility.yul\":16003:16032   */\n      tag_155\n      jump\t// in\n    tag_331:\n        /* \"#utility.yul\":15995:16032   */\n      swap2\n      pop\n        /* \"#utility.yul\":16065:16068   */\n      dup3\n        /* \"#utility.yul\":16062:16063   */\n      0x02\n        /* \"#utility.yul\":16058:16069   */\n      mul\n        /* \"#utility.yul\":16052:16056   */\n      dup3\n        /* \"#utility.yul\":16049:16070   */\n      or\n        /* \"#utility.yul\":16041:16070   */\n      swap1\n      pop\n        /* \"#utility.yul\":15781:16076   */\n      swap3\n      swap2\n      pop\n      pop\n      jump\t// out\n        /* \"#utility.yul\":16081:17476   */\n    tag_61:\n        /* \"#utility.yul\":16198:16235   */\n      tag_333\n        /* \"#utility.yul\":16231:16234   */\n      dup3\n        /* \"#utility.yul\":16198:16235   */\n      tag_102\n      jump\t// in\n    tag_333:\n        /* \"#utility.yul\":16300:16318   */\n      0xffffffffffffffff\n        /* \"#utility.yul\":16292:16298   */\n      dup2\n        /* \"#utility.yul\":16289:16319   */\n      gt\n        /* \"#utility.yul\":16286:16342   */\n      iszero\n      tag_334\n      jumpi\n        /* \"#utility.yul\":16322:16340   */\n      tag_335\n      tag_117\n      jump\t// in\n    tag_335:\n        /* \"#utility.yul\":16286:16342   */\n    tag_334:\n        /* \"#utility.yul\":16366:16404   */\n      tag_336\n        /* \"#utility.yul\":16398:16402   */\n      dup3\n        /* \"#utility.yul\":16392:16403   */\n      sload\n        /* \"#utility.yul\":16366:16404   */\n      tag_47\n      jump\t// in\n    tag_336:\n        /* \"#utility.yul\":16451:16518   */\n      tag_337\n        /* \"#utility.yul\":16511:16517   */\n      dup3\n        /* \"#utility.yul\":16503:16509   */\n      dup3\n        /* \"#utility.yul\":16497:16501   */\n      dup6\n        /* \"#utility.yul\":16451:16518   */\n      tag_153\n      jump\t// in\n    tag_337:\n        /* \"#utility.yul\":16545:16546   */\n      0x00\n        /* \"#utility.yul\":16569:16573   */\n      0x20\n        /* \"#utility.yul\":16556:16573   */\n      swap1\n      pop\n        /* \"#utility.yul\":16601:16603   */\n      0x1f\n        /* \"#utility.yul\":16593:16599   */\n      dup4\n        /* \"#utility.yul\":16590:16604   */\n      gt\n        /* \"#utility.yul\":16618:16619   */\n      0x01\n        /* \"#utility.yul\":16613:17231   */\n      dup2\n      eq\n      tag_339\n      jumpi\n        /* \"#utility.yul\":17275:17276   */\n      0x00\n        /* \"#utility.yul\":17292:17298   */\n      dup5\n        /* \"#utility.yul\":17289:17366   */\n      iszero\n      tag_340\n      jumpi\n        /* \"#utility.yul\":17341:17350   */\n      dup3\n        /* \"#utility.yul\":17336:17339   */\n      dup8\n        /* \"#utility.yul\":17332:17351   */\n      add\n        /* \"#utility.yul\":17326:17352   */\n      mload\n        /* \"#utility.yul\":17317:17352   */\n      swap1\n      pop\n        /* \"#utility.yul\":17289:17366   */\n    tag_340:\n        /* \"#utility.yul\":17392:17459   */\n      tag_341\n        /* \"#utility.yul\":17452:17458   */\n      dup6\n        /* \"#utility.yul\":17445:17450   */\n      dup3\n        /* \"#utility.yul\":17392:17459   */\n      tag_156\n      jump\t// in\n    tag_341:\n        /* \"#utility.yul\":17386:17390   */\n      dup7\n        /* \"#utility.yul\":17379:17460   */\n      sstore\n        /* \"#utility.yul\":17248:17470   */\n      pop\n        /* \"#utility.yul\":16583:17470   */\n      jump(tag_338)\n        /* \"#utility.yul\":16613:17231   */\n    tag_339:\n        /* \"#utility.yul\":16665:16669   */\n      0x1f\n        /* \"#utility.yul\":16661:16670   */\n      not\n        /* \"#utility.yul\":16653:16659   */\n      dup5\n        /* \"#utility.yul\":16649:16671   */\n      and\n        /* \"#utility.yul\":16699:16736   */\n      tag_342\n        /* \"#utility.yul\":16731:16735   */\n      dup7\n        /* \"#utility.yul\":16699:16736   */\n      tag_142\n      jump\t// in\n    tag_342:\n        /* \"#utility.yul\":16758:16759   */\n      0x00\n        /* \"#utility.yul\":16772:16980   */\n    tag_343:\n        /* \"#utility.yul\":16786:16793   */\n      dup3\n        /* \"#utility.yul\":16783:16784   */\n      dup2\n        /* \"#utility.yul\":16780:16794   */\n      lt\n        /* \"#utility.yul\":16772:16980   */\n      iszero\n      tag_345\n      jumpi\n        /* \"#utility.yul\":16865:16874   */\n      dup5\n        /* \"#utility.yul\":16860:16863   */\n      dup10\n        /* \"#utility.yul\":16856:16875   */\n      add\n        /* \"#utility.yul\":16850:16876   */\n      mload\n        /* \"#utility.yul\":16842:16848   */\n      dup3\n        /* \"#utility.yul\":16835:16877   */\n      sstore\n        /* \"#utility.yul\":16916:16917   */\n      0x01\n        /* \"#utility.yul\":16908:16914   */\n      dup3\n        /* \"#utility.yul\":16904:16918   */\n      add\n        /* \"#utility.yul\":16894:16918   */\n      swap2\n      pop\n        /* \"#utility.yul\":16963:16965   */\n      0x20\n        /* \"#utility.yul\":16952:16961   */\n      dup6\n        /* \"#utility.yul\":16948:16966   */\n      add\n        /* \"#utility.yul\":16935:16966   */\n      swap5\n      pop\n        /* \"#utility.yul\":16809:16813   */\n      0x20\n        /* \"#utility.yul\":16806:16807   */\n      dup2\n        /* \"#utility.yul\":16802:16814   */\n      add\n        /* \"#utility.yul\":16797:16814   */\n      swap1\n      pop\n        /* \"#utility.yul\":16772:16980   */\n      jump(tag_343)\n    tag_345:\n        /* \"#utility.yul\":17008:17014   */\n      dup7\n        /* \"#utility.yul\":16999:17006   */\n      dup4\n        /* \"#utility.yul\":16996:17015   */\n      lt\n        /* \"#utility.yul\":16993:17172   */\n      iszero\n      tag_346\n      jumpi\n        /* \"#utility.yul\":17066:17075   */\n      dup5\n        /* \"#utility.yul\":17061:17064   */\n      dup10\n        /* \"#utility.yul\":17057:17076   */\n      add\n        /* \"#utility.yul\":17051:17077   */\n      mload\n        /* \"#utility.yul\":17109:17157   */\n      tag_347\n        /* \"#utility.yul\":17151:17155   */\n      0x1f\n        /* \"#utility.yul\":17143:17149   */\n      dup10\n        /* \"#utility.yul\":17139:17156   */\n      and\n        /* \"#utility.yul\":17128:17137   */\n      dup3\n        /* \"#utility.yul\":17109:17157   */\n      tag_155\n      jump\t// in\n    tag_347:\n        /* \"#utility.yul\":17101:17107   */\n      dup4\n        /* \"#utility.yul\":17094:17158   */\n      sstore\n        /* \"#utility.yul\":17016:17172   */\n      pop\n        /* \"#utility.yul\":16993:17172   */\n    tag_346:\n        /* \"#utility.yul\":17218:17219   */\n      0x01\n        /* \"#utility.yul\":17214:17215   */\n      0x02\n        /* \"#utility.yul\":17206:17212   */\n      dup9\n        /* \"#utility.yul\":17202:17216   */\n      mul\n        /* \"#utility.yul\":17198:17220   */\n      add\n        /* \"#utility.yul\":17192:17196   */\n      dup9\n        /* \"#utility.yul\":17185:17221   */\n      sstore\n        /* \"#utility.yul\":16620:17231   */\n      pop\n      pop\n      pop\n        /* \"#utility.yul\":16583:17470   */\n    tag_338:\n      pop\n        /* \"#utility.yul\":16173:17476   */\n      pop\n      pop\n      pop\n        /* \"#utility.yul\":16081:17476   */\n      pop\n      pop\n      jump\t// out\n        /* \"#utility.yul\":17482:17712   */\n    tag_157:\n        /* \"#utility.yul\":17622:17656   */\n      0x4661726d657244617461626173653a207065726d697373696f6e206861732062\n        /* \"#utility.yul\":17618:17619   */\n      0x00\n        /* \"#utility.yul\":17610:17616   */\n      dup3\n        /* \"#utility.yul\":17606:17620   */\n      add\n        /* \"#utility.yul\":17599:17657   */\n      mstore\n        /* \"#utility.yul\":17691:17704   */\n      0x65656e206772616e746564000000000000000000000000000000000000000000\n        /* \"#utility.yul\":17686:17688   */\n      0x20\n        /* \"#utility.yul\":17678:17684   */\n      dup3\n        /* \"#utility.yul\":17674:17689   */\n      add\n        /* \"#utility.yul\":17667:17705   */\n      mstore\n        /* \"#utility.yul\":17482:17712   */\n      pop\n      jump\t// out\n        /* \"#utility.yul\":17718:18084   */\n    tag_158:\n        /* \"#utility.yul\":17860:17863   */\n      0x00\n        /* \"#utility.yul\":17881:17948   */\n      tag_350\n        /* \"#utility.yul\":17945:17947   */\n      0x2b\n        /* \"#utility.yul\":17940:17943   */\n      dup4\n        /* \"#utility.yul\":17881:17948   */\n      tag_137\n      jump\t// in\n    tag_350:\n        /* \"#utility.yul\":17874:17948   */\n      swap2\n      pop\n        /* \"#utility.yul\":17957:18050   */\n      tag_351\n        /* \"#utility.yul\":18046:18049   */\n      dup3\n        /* \"#utility.yul\":17957:18050   */\n      tag_157\n      jump\t// in\n    tag_351:\n        /* \"#utility.yul\":18075:18077   */\n      0x40\n        /* \"#utility.yul\":18070:18073   */\n      dup3\n        /* \"#utility.yul\":18066:18078   */\n      add\n        /* \"#utility.yul\":18059:18078   */\n      swap1\n      pop\n        /* \"#utility.yul\":17718:18084   */\n      swap2\n      swap1\n      pop\n      jump\t// out\n        /* \"#utility.yul\":18090:18509   */\n    tag_68:\n        /* \"#utility.yul\":18256:18260   */\n      0x00\n        /* \"#utility.yul\":18294:18296   */\n      0x20\n        /* \"#utility.yul\":18283:18292   */\n      dup3\n        /* \"#utility.yul\":18279:18297   */\n      add\n        /* \"#utility.yul\":18271:18297   */\n      swap1\n      pop\n        /* \"#utility.yul\":18343:18352   */\n      dup2\n        /* \"#utility.yul\":18337:18341   */\n      dup2\n        /* \"#utility.yul\":18333:18353   */\n      sub\n        /* \"#utility.yul\":18329:18330   */\n      0x00\n        /* \"#utility.yul\":18318:18327   */\n      dup4\n        /* \"#utility.yul\":18314:18331   */\n      add\n        /* \"#utility.yul\":18307:18354   */\n      mstore\n        /* \"#utility.yul\":18371:18502   */\n      tag_353\n        /* \"#utility.yul\":18497:18501   */\n      dup2\n        /* \"#utility.yul\":18371:18502   */\n      tag_158\n      jump\t// in\n    tag_353:\n        /* \"#utility.yul\":18363:18502   */\n      swap1\n      pop\n        /* \"#utility.yul\":18090:18509   */\n      swap2\n      swap1\n      pop\n      jump\t// out\n        /* \"#utility.yul\":18515:18695   */\n    tag_80:\n        /* \"#utility.yul\":18563:18640   */\n      0x4e487b7100000000000000000000000000000000000000000000000000000000\n        /* \"#utility.yul\":18560:18561   */\n      0x00\n        /* \"#utility.yul\":18553:18641   */\n      mstore\n        /* \"#utility.yul\":18660:18664   */\n      0x32\n        /* \"#utility.yul\":18657:18658   */\n      0x04\n        /* \"#utility.yul\":18650:18665   */\n      mstore\n        /* \"#utility.yul\":18684:18688   */\n      0x24\n        /* \"#utility.yul\":18681:18682   */\n      0x00\n        /* \"#utility.yul\":18674:18689   */\n      revert\n        /* \"#utility.yul\":18701:18926   */\n    tag_159:\n        /* \"#utility.yul\":18841:18875   */\n      0x4f776e61626c653a206e6577206f776e657220697320746865207a65726f2061\n        /* \"#utility.yul\":18837:18838   */\n      0x00\n        /* \"#utility.yul\":18829:18835   */\n      dup3\n        /* \"#utility.yul\":18825:18839   */\n      add\n        /* \"#utility.yul\":18818:18876   */\n      mstore\n        /* \"#utility.yul\":18910:18918   */\n      0x6464726573730000000000000000000000000000000000000000000000000000\n        /* \"#utility.yul\":18905:18907   */\n      0x20\n        /* \"#utility.yul\":18897:18903   */\n      dup3\n        /* \"#utility.yul\":18893:18908   */\n      add\n        /* \"#utility.yul\":18886:18919   */\n      mstore\n        /* \"#utility.yul\":18701:18926   */\n      pop\n      jump\t// out\n        /* \"#utility.yul\":18932:19298   */\n    tag_160:\n        /* \"#utility.yul\":19074:19077   */\n      0x00\n        /* \"#utility.yul\":19095:19162   */\n      tag_357\n        /* \"#utility.yul\":19159:19161   */\n      0x26\n        /* \"#utility.yul\":19154:19157   */\n      dup4\n        /* \"#utility.yul\":19095:19162   */\n      tag_137\n      jump\t// in\n    tag_357:\n        /* \"#utility.yul\":19088:19162   */\n      swap2\n      pop\n        /* \"#utility.yul\":19171:19264   */\n      tag_358\n        /* \"#utility.yul\":19260:19263   */\n      dup3\n        /* \"#utility.yul\":19171:19264   */\n      tag_159\n      jump\t// in\n    tag_358:\n        /* \"#utility.yul\":19289:19291   */\n      0x40\n        /* \"#utility.yul\":19284:19287   */\n      dup3\n        /* \"#utility.yul\":19280:19292   */\n      add\n        /* \"#utility.yul\":19273:19292   */\n      swap1\n      pop\n        /* \"#utility.yul\":18932:19298   */\n      swap2\n      swap1\n      pop\n      jump\t// out\n        /* \"#utility.yul\":19304:19723   */\n    tag_87:\n        /* \"#utility.yul\":19470:19474   */\n      0x00\n        /* \"#utility.yul\":19508:19510   */\n      0x20\n        /* \"#utility.yul\":19497:19506   */\n      dup3\n        /* \"#utility.yul\":19493:19511   */\n      add\n        /* \"#utility.yul\":19485:19511   */\n      swap1\n      pop\n        /* \"#utility.yul\":19557:19566   */\n      dup2\n        /* \"#utility.yul\":19551:19555   */\n      dup2\n        /* \"#utility.yul\":19547:19567   */\n      sub\n        /* \"#utility.yul\":19543:19544   */\n      0x00\n        /* \"#utility.yul\":19532:19541   */\n      dup4\n        /* \"#utility.yul\":19528:19545   */\n      add\n        /* \"#utility.yul\":19521:19568   */\n      mstore\n        /* \"#utility.yul\":19585:19716   */\n      tag_360\n        /* \"#utility.yul\":19711:19715   */\n      dup2\n        /* \"#utility.yul\":19585:19716   */\n      tag_160\n      jump\t// in\n    tag_360:\n        /* \"#utility.yul\":19577:19716   */\n      swap1\n      pop\n        /* \"#utility.yul\":19304:19723   */\n      swap2\n      swap1\n      pop\n      jump\t// out\n        /* \"#utility.yul\":19729:19911   */\n    tag_161:\n        /* \"#utility.yul\":19869:19903   */\n      0x4f776e61626c653a2063616c6c6572206973206e6f7420746865206f776e6572\n        /* \"#utility.yul\":19865:19866   */\n      0x00\n        /* \"#utility.yul\":19857:19863   */\n      dup3\n        /* \"#utility.yul\":19853:19867   */\n      add\n        /* \"#utility.yul\":19846:19904   */\n      mstore\n        /* \"#utility.yul\":19729:19911   */\n      pop\n      jump\t// out\n        /* \"#utility.yul\":19917:20283   */\n    tag_162:\n        /* \"#utility.yul\":20059:20062   */\n      0x00\n        /* \"#utility.yul\":20080:20147   */\n      tag_363\n        /* \"#utility.yul\":20144:20146   */\n      0x20\n        /* \"#utility.yul\":20139:20142   */\n      dup4\n        /* \"#utility.yul\":20080:20147   */\n      tag_137\n      jump\t// in\n    tag_363:\n        /* \"#utility.yul\":20073:20147   */\n      swap2\n      pop\n        /* \"#utility.yul\":20156:20249   */\n      tag_364\n        /* \"#utility.yul\":20245:20248   */\n      dup3\n        /* \"#utility.yul\":20156:20249   */\n      tag_161\n      jump\t// in\n    tag_364:\n        /* \"#utility.yul\":20274:20276   */\n      0x20\n        /* \"#utility.yul\":20269:20272   */\n      dup3\n        /* \"#utility.yul\":20265:20277   */\n      add\n        /* \"#utility.yul\":20258:20277   */\n      swap1\n      pop\n        /* \"#utility.yul\":19917:20283   */\n      swap2\n      swap1\n      pop\n      jump\t// out\n        /* \"#utility.yul\":20289:20708   */\n    tag_95:\n        /* \"#utility.yul\":20455:20459   */\n      0x00\n        /* \"#utility.yul\":20493:20495   */\n      0x20\n        /* \"#utility.yul\":20482:20491   */\n      dup3\n        /* \"#utility.yul\":20478:20496   */\n      add\n        /* \"#utility.yul\":20470:20496   */\n      swap1\n      pop\n        /* \"#utility.yul\":20542:20551   */\n      dup2\n        /* \"#utility.yul\":20536:20540   */\n      dup2\n        /* \"#utility.yul\":20532:20552   */\n      sub\n        /* \"#utility.yul\":20528:20529   */\n      0x00\n        /* \"#utility.yul\":20517:20526   */\n      dup4\n        /* \"#utility.yul\":20513:20530   */\n      add\n        /* \"#utility.yul\":20506:20553   */\n      mstore\n        /* \"#utility.yul\":20570:20701   */\n      tag_366\n        /* \"#utility.yul\":20696:20700   */\n      dup2\n        /* \"#utility.yul\":20570:20701   */\n      tag_162\n      jump\t// in\n    tag_366:\n        /* \"#utility.yul\":20562:20701   */\n      swap1\n      pop\n        /* \"#utility.yul\":20289:20708   */\n      swap2\n      swap1\n      pop\n      jump\t// out\n\n    auxdata: 0xa2646970667358221220ed06a3fd9bad5afd37b1ec9f4669d3c9f47b7c82e99d50f85119501f91fdf9d764736f6c63430008110033\n}\n",
				"bytecode": {
					"linkReferences": {},
					"object": "6080604052600060025534801561001557600080fd5b50336000806101000a81548173ffffffffffffffffffffffffffffffffffffffff021916908373ffffffffffffffffffffffffffffffffffffffff160217905550611319806100656000396000f3fe608060405234801561001057600080fd5b506004361061007d5760003560e01c806383197ef01161005b57806383197ef0146100d85780638da5cb5b146100e2578063ee416d5b14610100578063f2fde38b1461011c5761007d565b8063013848131461008257806305200518146100a05780634d0a5dbd146100bc575b600080fd5b61008a610138565b60405161009791906109b4565b60405180910390f35b6100ba60048036038101906100b59190610c01565b6102e1565b005b6100d660048036038101906100d19190610ca8565b61040b565b005b6100e06104fb565b005b6100ea61051c565b6040516100f79190610ce4565b60405180910390f35b61011a60048036038101906101159190610cff565b610545565b005b61013660048036038101906101319190610ca8565b610618565b005b60606003600061014661069b565b73ffffffffffffffffffffffffffffffffffffffff1673ffffffffffffffffffffffffffffffffffffffff16815260200190815260200160002060009054906101000a900460ff166101cd576040517f08c379a00000000000000000000000000000000000000000000000000000000081526004016101c490610daf565b60405180910390fd5b6001805480602002602001604051908101604052809291908181526020016000905b828210156102d857838290600052602060002090600302016040518060600160405290816000820154815260200160018201805461022c90610dfe565b80601f016020809104026020016040519081016040528092919081815260200182805461025890610dfe565b80156102a55780601f1061027a576101008083540402835291602001916102a5565b820191906000526020600020905b81548152906001019060200180831161028857829003601f168201915b505050505081526020016002820160009054906101000a900460ff161515151581525050815260200190600101906101ef565b50505050905090565b600360006102ed61069b565b73ffffffffffffffffffffffffffffffffffffffff1673ffffffffffffffffffffffffffffffffffffffff16815260200190815260200160002060009054906101000a900460ff16610374576040517f08c379a000000000000000000000000000000000000000000000000000000000815260040161036b90610daf565b60405180910390fd5b60006002600081548092919061038990610e5e565b9190505590508082600001818152505060018290806001815401808255809150506001900390600052602060002090600302016000909190919091506000820151816000015560208201518160010190816103e49190611052565b5060408201518160020160006101000a81548160ff02191690831515021790555050505050565b6104136106a3565b600360008273ffffffffffffffffffffffffffffffffffffffff1673ffffffffffffffffffffffffffffffffffffffff16815260200190815260200160002060009054906101000a900460ff16156104a0576040517f08c379a000000000000000000000000000000000000000000000000000000000815260040161049790611196565b60405180910390fd5b6001600360008373ffffffffffffffffffffffffffffffffffffffff1673ffffffffffffffffffffffffffffffffffffffff16815260200190815260200160002060006101000a81548160ff02191690831515021790555050565b6105036106a3565b3073ffffffffffffffffffffffffffffffffffffffff16ff5b60008060009054906101000a900473ffffffffffffffffffffffffffffffffffffffff16905090565b6003600061055161069b565b73ffffffffffffffffffffffffffffffffffffffff1673ffffffffffffffffffffffffffffffffffffffff16815260200190815260200160002060009054906101000a900460ff166105d8576040517f08c379a00000000000000000000000000000000000000000000000000000000081526004016105cf90610daf565b60405180910390fd5b60018082815481106105ed576105ec6111b6565b5b906000526020600020906003020160020160006101000a81548160ff02191690831515021790555050565b6106206106a3565b600073ffffffffffffffffffffffffffffffffffffffff168173ffffffffffffffffffffffffffffffffffffffff160361068f576040517f08c379a000000000000000000000000000000000000000000000000000000000815260040161068690611257565b60405180910390fd5b6106988161071a565b50565b600033905090565b3373ffffffffffffffffffffffffffffffffffffffff166106c261051c565b73ffffffffffffffffffffffffffffffffffffffff1614610718576040517f08c379a000000000000000000000000000000000000000000000000000000000815260040161070f906112c3565b60405180910390fd5b565b60008060009054906101000a900473ffffffffffffffffffffffffffffffffffffffff169050816000806101000a81548173ffffffffffffffffffffffffffffffffffffffff021916908373ffffffffffffffffffffffffffffffffffffffff1602179055508173ffffffffffffffffffffffffffffffffffffffff168173ffffffffffffffffffffffffffffffffffffffff167f8be0079c531659141344cd1fd0a4f28419497f9722a3daafe3b4186f6b6457e060405160405180910390a35050565b600081519050919050565b600082825260208201905092915050565b6000819050602082019050919050565b6000819050919050565b61081d8161080a565b82525050565b600081519050919050565b600082825260208201905092915050565b60005b8381101561085d578082015181840152602081019050610842565b60008484015250505050565b6000601f19601f8301169050919050565b600061088582610823565b61088f818561082e565b935061089f81856020860161083f565b6108a881610869565b840191505092915050565b60008115159050919050565b6108c8816108b3565b82525050565b60006060830160008301516108e66000860182610814565b50602083015184820360208601526108fe828261087a565b915050604083015161091360408601826108bf565b508091505092915050565b600061092a83836108ce565b905092915050565b6000602082019050919050565b600061094a826107de565b61095481856107e9565b935083602082028501610966856107fa565b8060005b858110156109a25784840389528151610983858261091e565b945061098e83610932565b925060208a0199505060018101905061096a565b50829750879550505050505092915050565b600060208201905081810360008301526109ce818461093f565b905092915050565b6000604051905090565b600080fd5b600080fd5b600080fd5b7f4e487b7100000000000000000000000000000000000000000000000000000000600052604160045260246000fd5b610a2782610869565b810181811067ffffffffffffffff82111715610a4657610a456109ef565b5b80604052505050565b6000610a596109d6565b9050610a658282610a1e565b919050565b600080fd5b610a788161080a565b8114610a8357600080fd5b50565b600081359050610a9581610a6f565b92915050565b600080fd5b600080fd5b600067ffffffffffffffff821115610ac057610abf6109ef565b5b610ac982610869565b9050602081019050919050565b82818337600083830152505050565b6000610af8610af384610aa5565b610a4f565b905082815260208101848484011115610b1457610b13610aa0565b5b610b1f848285610ad6565b509392505050565b600082601f830112610b3c57610b3b610a9b565b5b8135610b4c848260208601610ae5565b91505092915050565b610b5e816108b3565b8114610b6957600080fd5b50565b600081359050610b7b81610b55565b92915050565b600060608284031215610b9757610b966109ea565b5b610ba16060610a4f565b90506000610bb184828501610a86565b600083015250602082013567ffffffffffffffff811115610bd557610bd4610a6a565b5b610be184828501610b27565b6020830152506040610bf584828501610b6c565b60408301525092915050565b600060208284031215610c1757610c166109e0565b5b600082013567ffffffffffffffff811115610c3557610c346109e5565b5b610c4184828501610b81565b91505092915050565b600073ffffffffffffffffffffffffffffffffffffffff82169050919050565b6000610c7582610c4a565b9050919050565b610c8581610c6a565b8114610c9057600080fd5b50565b600081359050610ca281610c7c565b92915050565b600060208284031215610cbe57610cbd6109e0565b5b6000610ccc84828501610c93565b91505092915050565b610cde81610c6a565b82525050565b6000602082019050610cf96000830184610cd5565b92915050565b600060208284031215610d1557610d146109e0565b5b6000610d2384828501610a86565b91505092915050565b600082825260208201905092915050565b7f4661726d657244617461626173653a206f6e6c7920636f6e747261637420776860008201527f6963682061726520616c6c6f7765640000000000000000000000000000000000602082015250565b6000610d99602f83610d2c565b9150610da482610d3d565b604082019050919050565b60006020820190508181036000830152610dc881610d8c565b9050919050565b7f4e487b7100000000000000000000000000000000000000000000000000000000600052602260045260246000fd5b60006002820490506001821680610e1657607f821691505b602082108103610e2957610e28610dcf565b5b50919050565b7f4e487b7100000000000000000000000000000000000000000000000000000000600052601160045260246000fd5b6000610e698261080a565b91507fffffffffffffffffffffffffffffffffffffffffffffffffffffffffffffffff8203610e9b57610e9a610e2f565b5b600182019050919050565b60008190508160005260206000209050919050565b60006020601f8301049050919050565b600082821b905092915050565b600060088302610f087fffffffffffffffffffffffffffffffffffffffffffffffffffffffffffffffff82610ecb565b610f128683610ecb565b95508019841693508086168417925050509392505050565b6000819050919050565b6000610f4f610f4a610f458461080a565b610f2a565b61080a565b9050919050565b6000819050919050565b610f6983610f34565b610f7d610f7582610f56565b848454610ed8565b825550505050565b600090565b610f92610f85565b610f9d818484610f60565b505050565b5b81811015610fc157610fb6600082610f8a565b600181019050610fa3565b5050565b601f82111561100657610fd781610ea6565b610fe084610ebb565b81016020851015610fef578190505b611003610ffb85610ebb565b830182610fa2565b50505b505050565b600082821c905092915050565b60006110296000198460080261100b565b1980831691505092915050565b60006110428383611018565b9150826002028217905092915050565b61105b82610823565b67ffffffffffffffff811115611074576110736109ef565b5b61107e8254610dfe565b611089828285610fc5565b600060209050601f8311600181146110bc57600084156110aa578287015190505b6110b48582611036565b86555061111c565b601f1984166110ca86610ea6565b60005b828110156110f2578489015182556001820191506020850194506020810190506110cd565b8683101561110f578489015161110b601f891682611018565b8355505b6001600288020188555050505b505050505050565b7f4661726d657244617461626173653a207065726d697373696f6e20686173206260008201527f65656e206772616e746564000000000000000000000000000000000000000000602082015250565b6000611180602b83610d2c565b915061118b82611124565b604082019050919050565b600060208201905081810360008301526111af81611173565b9050919050565b7f4e487b7100000000000000000000000000000000000000000000000000000000600052603260045260246000fd5b7f4f776e61626c653a206e6577206f776e657220697320746865207a65726f206160008201527f6464726573730000000000000000000000000000000000000000000000000000602082015250565b6000611241602683610d2c565b915061124c826111e5565b604082019050919050565b6000602082019050818103600083015261127081611234565b9050919050565b7f4f776e61626c653a2063616c6c6572206973206e6f7420746865206f776e6572600082015250565b60006112ad602083610d2c565b91506112b882611277565b602082019050919050565b600060208201905081810360008301526112dc816112a0565b905091905056fea2646970667358221220ed06a3fd9bad5afd37b1ec9f4669d3c9f47b7c82e99d50f85119501f91fdf9d764736f6c63430008110033",
					"opcodes": "PUSH1 0x80 PUSH1 0x40 MSTORE PUSH1 0x0 PUSH1 0x2 SSTORE CALLVALUE DUP1 ISZERO PUSH2 0x15 JUMPI PUSH1 0x0 DUP1 REVERT JUMPDEST POP CALLER PUSH1 0x0 DUP1 PUSH2 0x100 EXP DUP2 SLOAD DUP2 PUSH20 0xFFFFFFFFFFFFFFFFFFFFFFFFFFFFFFFFFFFFFFFF MUL NOT AND SWAP1 DUP4 PUSH20 0xFFFFFFFFFFFFFFFFFFFFFFFFFFFFFFFFFFFFFFFF AND MUL OR SWAP1 SSTORE POP PUSH2 0x1319 DUP1 PUSH2 0x65 PUSH1 0x0 CODECOPY PUSH1 0x0 RETURN INVALID PUSH1 0x80 PUSH1 0x40 MSTORE CALLVALUE DUP1 ISZERO PUSH2 0x10 JUMPI PUSH1 0x0 DUP1 REVERT JUMPDEST POP PUSH1 0x4 CALLDATASIZE LT PUSH2 0x7D JUMPI PUSH1 0x0 CALLDATALOAD PUSH1 0xE0 SHR DUP1 PUSH4 0x83197EF0 GT PUSH2 0x5B JUMPI DUP1 PUSH4 0x83197EF0 EQ PUSH2 0xD8 JUMPI DUP1 PUSH4 0x8DA5CB5B EQ PUSH2 0xE2 JUMPI DUP1 PUSH4 0xEE416D5B EQ PUSH2 0x100 JUMPI DUP1 PUSH4 0xF2FDE38B EQ PUSH2 0x11C JUMPI PUSH2 0x7D JUMP JUMPDEST DUP1 PUSH4 0x1384813 EQ PUSH2 0x82 JUMPI DUP1 PUSH4 0x5200518 EQ PUSH2 0xA0 JUMPI DUP1 PUSH4 0x4D0A5DBD EQ PUSH2 0xBC JUMPI JUMPDEST PUSH1 0x0 DUP1 REVERT JUMPDEST PUSH2 0x8A PUSH2 0x138 JUMP JUMPDEST PUSH1 0x40 MLOAD PUSH2 0x97 SWAP2 SWAP1 PUSH2 0x9B4 JUMP JUMPDEST PUSH1 0x40 MLOAD DUP1 SWAP2 SUB SWAP1 RETURN JUMPDEST PUSH2 0xBA PUSH1 0x4 DUP1 CALLDATASIZE SUB DUP2 ADD SWAP1 PUSH2 0xB5 SWAP2 SWAP1 PUSH2 0xC01 JUMP JUMPDEST PUSH2 0x2E1 JUMP JUMPDEST STOP JUMPDEST PUSH2 0xD6 PUSH1 0x4 DUP1 CALLDATASIZE SUB DUP2 ADD SWAP1 PUSH2 0xD1 SWAP2 SWAP1 PUSH2 0xCA8 JUMP JUMPDEST PUSH2 0x40B JUMP JUMPDEST STOP JUMPDEST PUSH2 0xE0 PUSH2 0x4FB JUMP JUMPDEST STOP JUMPDEST PUSH2 0xEA PUSH2 0x51C JUMP JUMPDEST PUSH1 0x40 MLOAD PUSH2 0xF7 SWAP2 SWAP1 PUSH2 0xCE4 JUMP JUMPDEST PUSH1 0x40 MLOAD DUP1 SWAP2 SUB SWAP1 RETURN JUMPDEST PUSH2 0x11A PUSH1 0x4 DUP1 CALLDATASIZE SUB DUP2 ADD SWAP1 PUSH2 0x115 SWAP2 SWAP1 PUSH2 0xCFF JUMP JUMPDEST PUSH2 0x545 JUMP JUMPDEST STOP JUMPDEST PUSH2 0x136 PUSH1 0x4 DUP1 CALLDATASIZE SUB DUP2 ADD SWAP1 PUSH2 0x131 SWAP2 SWAP1 PUSH2 0xCA8 JUMP JUMPDEST PUSH2 0x618 JUMP JUMPDEST STOP JUMPDEST PUSH1 0x60 PUSH1 0x3 PUSH1 0x0 PUSH2 0x146 PUSH2 0x69B JUMP JUMPDEST PUSH20 0xFFFFFFFFFFFFFFFFFFFFFFFFFFFFFFFFFFFFFFFF AND PUSH20 0xFFFFFFFFFFFFFFFFFFFFFFFFFFFFFFFFFFFFFFFF AND DUP2 MSTORE PUSH1 0x20 ADD SWAP1 DUP2 MSTORE PUSH1 0x20 ADD PUSH1 0x0 KECCAK256 PUSH1 0x0 SWAP1 SLOAD SWAP1 PUSH2 0x100 EXP SWAP1 DIV PUSH1 0xFF AND PUSH2 0x1CD JUMPI PUSH1 0x40 MLOAD PUSH32 0x8C379A000000000000000000000000000000000000000000000000000000000 DUP2 MSTORE PUSH1 0x4 ADD PUSH2 0x1C4 SWAP1 PUSH2 0xDAF JUMP JUMPDEST PUSH1 0x40 MLOAD DUP1 SWAP2 SUB SWAP1 REVERT JUMPDEST PUSH1 0x1 DUP1 SLOAD DUP1 PUSH1 0x20 MUL PUSH1 0x20 ADD PUSH1 0x40 MLOAD SWAP1 DUP2 ADD PUSH1 0x40 MSTORE DUP1 SWAP3 SWAP2 SWAP1 DUP2 DUP2 MSTORE PUSH1 0x20 ADD PUSH1 0x0 SWAP1 JUMPDEST DUP3 DUP3 LT ISZERO PUSH2 0x2D8 JUMPI DUP4 DUP3 SWAP1 PUSH1 0x0 MSTORE PUSH1 0x20 PUSH1 0x0 KECCAK256 SWAP1 PUSH1 0x3 MUL ADD PUSH1 0x40 MLOAD DUP1 PUSH1 0x60 ADD PUSH1 0x40 MSTORE SWAP1 DUP2 PUSH1 0x0 DUP3 ADD SLOAD DUP2 MSTORE PUSH1 0x20 ADD PUSH1 0x1 DUP3 ADD DUP1 SLOAD PUSH2 0x22C SWAP1 PUSH2 0xDFE JUMP JUMPDEST DUP1 PUSH1 0x1F ADD PUSH1 0x20 DUP1 SWAP2 DIV MUL PUSH1 0x20 ADD PUSH1 0x40 MLOAD SWAP1 DUP2 ADD PUSH1 0x40 MSTORE DUP1 SWAP3 SWAP2 SWAP1 DUP2 DUP2 MSTORE PUSH1 0x20 ADD DUP3 DUP1 SLOAD PUSH2 0x258 SWAP1 PUSH2 0xDFE JUMP JUMPDEST DUP1 ISZERO PUSH2 0x2A5 JUMPI DUP1 PUSH1 0x1F LT PUSH2 0x27A JUMPI PUSH2 0x100 DUP1 DUP4 SLOAD DIV MUL DUP4 MSTORE SWAP2 PUSH1 0x20 ADD SWAP2 PUSH2 0x2A5 JUMP JUMPDEST DUP3 ADD SWAP2 SWAP1 PUSH1 0x0 MSTORE PUSH1 0x20 PUSH1 0x0 KECCAK256 SWAP1 JUMPDEST DUP2 SLOAD DUP2 MSTORE SWAP1 PUSH1 0x1 ADD SWAP1 PUSH1 0x20 ADD DUP1 DUP4 GT PUSH2 0x288 JUMPI DUP3 SWAP1 SUB PUSH1 0x1F AND DUP3 ADD SWAP2 JUMPDEST POP POP POP POP POP DUP2 MSTORE PUSH1 0x20 ADD PUSH1 0x2 DUP3 ADD PUSH1 0x0 SWAP1 SLOAD SWAP1 PUSH2 0x100 EXP SWAP1 DIV PUSH1 0xFF AND ISZERO ISZERO ISZERO ISZERO DUP2 MSTORE POP POP DUP2 MSTORE PUSH1 0x20 ADD SWAP1 PUSH1 0x1 ADD SWAP1 PUSH2 0x1EF JUMP JUMPDEST POP POP POP POP SWAP1 POP SWAP1 JUMP JUMPDEST PUSH1 0x3 PUSH1 0x0 PUSH2 0x2ED PUSH2 0x69B JUMP JUMPDEST PUSH20 0xFFFFFFFFFFFFFFFFFFFFFFFFFFFFFFFFFFFFFFFF AND PUSH20 0xFFFFFFFFFFFFFFFFFFFFFFFFFFFFFFFFFFFFFFFF AND DUP2 MSTORE PUSH1 0x20 ADD SWAP1 DUP2 MSTORE PUSH1 0x20 ADD PUSH1 0x0 KECCAK256 PUSH1 0x0 SWAP1 SLOAD SWAP1 PUSH2 0x100 EXP SWAP1 DIV PUSH1 0xFF AND PUSH2 0x374 JUMPI PUSH1 0x40 MLOAD PUSH32 0x8C379A000000000000000000000000000000000000000000000000000000000 DUP2 MSTORE PUSH1 0x4 ADD PUSH2 0x36B SWAP1 PUSH2 0xDAF JUMP JUMPDEST PUSH1 0x40 MLOAD DUP1 SWAP2 SUB SWAP1 REVERT JUMPDEST PUSH1 0x0 PUSH1 0x2 PUSH1 0x0 DUP2 SLOAD DUP1 SWAP3 SWAP2 SWAP1 PUSH2 0x389 SWAP1 PUSH2 0xE5E JUMP JUMPDEST SWAP2 SWAP1 POP SSTORE SWAP1 POP DUP1 DUP3 PUSH1 0x0 ADD DUP2 DUP2 MSTORE POP POP PUSH1 0x1 DUP3 SWAP1 DUP1 PUSH1 0x1 DUP2 SLOAD ADD DUP1 DUP3 SSTORE DUP1 SWAP2 POP POP PUSH1 0x1 SWAP1 SUB SWAP1 PUSH1 0x0 MSTORE PUSH1 0x20 PUSH1 0x0 KECCAK256 SWAP1 PUSH1 0x3 MUL ADD PUSH1 0x0 SWAP1 SWAP2 SWAP1 SWAP2 SWAP1 SWAP2 POP PUSH1 0x0 DUP3 ADD MLOAD DUP2 PUSH1 0x0 ADD SSTORE PUSH1 0x20 DUP3 ADD MLOAD DUP2 PUSH1 0x1 ADD SWAP1 DUP2 PUSH2 0x3E4 SWAP2 SWAP1 PUSH2 0x1052 JUMP JUMPDEST POP PUSH1 0x40 DUP3 ADD MLOAD DUP2 PUSH1 0x2 ADD PUSH1 0x0 PUSH2 0x100 EXP DUP2 SLOAD DUP2 PUSH1 0xFF MUL NOT AND SWAP1 DUP4 ISZERO ISZERO MUL OR SWAP1 SSTORE POP POP POP POP POP JUMP JUMPDEST PUSH2 0x413 PUSH2 0x6A3 JUMP JUMPDEST PUSH1 0x3 PUSH1 0x0 DUP3 PUSH20 0xFFFFFFFFFFFFFFFFFFFFFFFFFFFFFFFFFFFFFFFF AND PUSH20 0xFFFFFFFFFFFFFFFFFFFFFFFFFFFFFFFFFFFFFFFF AND DUP2 MSTORE PUSH1 0x20 ADD SWAP1 DUP2 MSTORE PUSH1 0x20 ADD PUSH1 0x0 KECCAK256 PUSH1 0x0 SWAP1 SLOAD SWAP1 PUSH2 0x100 EXP SWAP1 DIV PUSH1 0xFF AND ISZERO PUSH2 0x4A0 JUMPI PUSH1 0x40 MLOAD PUSH32 0x8C379A000000000000000000000000000000000000000000000000000000000 DUP2 MSTORE PUSH1 0x4 ADD PUSH2 0x497 SWAP1 PUSH2 0x1196 JUMP JUMPDEST PUSH1 0x40 MLOAD DUP1 SWAP2 SUB SWAP1 REVERT JUMPDEST PUSH1 0x1 PUSH1 0x3 PUSH1 0x0 DUP4 PUSH20 0xFFFFFFFFFFFFFFFFFFFFFFFFFFFFFFFFFFFFFFFF AND PUSH20 0xFFFFFFFFFFFFFFFFFFFFFFFFFFFFFFFFFFFFFFFF AND DUP2 MSTORE PUSH1 0x20 ADD SWAP1 DUP2 MSTORE PUSH1 0x20 ADD PUSH1 0x0 KECCAK256 PUSH1 0x0 PUSH2 0x100 EXP DUP2 SLOAD DUP2 PUSH1 0xFF MUL NOT AND SWAP1 DUP4 ISZERO ISZERO MUL OR SWAP1 SSTORE POP POP JUMP JUMPDEST PUSH2 0x503 PUSH2 0x6A3 JUMP JUMPDEST ADDRESS PUSH20 0xFFFFFFFFFFFFFFFFFFFFFFFFFFFFFFFFFFFFFFFF AND SELFDESTRUCT JUMPDEST PUSH1 0x0 DUP1 PUSH1 0x0 SWAP1 SLOAD SWAP1 PUSH2 0x100 EXP SWAP1 DIV PUSH20 0xFFFFFFFFFFFFFFFFFFFFFFFFFFFFFFFFFFFFFFFF AND SWAP1 POP SWAP1 JUMP JUMPDEST PUSH1 0x3 PUSH1 0x0 PUSH2 0x551 PUSH2 0x69B JUMP JUMPDEST PUSH20 0xFFFFFFFFFFFFFFFFFFFFFFFFFFFFFFFFFFFFFFFF AND PUSH20 0xFFFFFFFFFFFFFFFFFFFFFFFFFFFFFFFFFFFFFFFF AND DUP2 MSTORE PUSH1 0x20 ADD SWAP1 DUP2 MSTORE PUSH1 0x20 ADD PUSH1 0x0 KECCAK256 PUSH1 0x0 SWAP1 SLOAD SWAP1 PUSH2 0x100 EXP SWAP1 DIV PUSH1 0xFF AND PUSH2 0x5D8 JUMPI PUSH1 0x40 MLOAD PUSH32 0x8C379A000000000000000000000000000000000000000000000000000000000 DUP2 MSTORE PUSH1 0x4 ADD PUSH2 0x5CF SWAP1 PUSH2 0xDAF JUMP JUMPDEST PUSH1 0x40 MLOAD DUP1 SWAP2 SUB SWAP1 REVERT JUMPDEST PUSH1 0x1 DUP1 DUP3 DUP2 SLOAD DUP2 LT PUSH2 0x5ED JUMPI PUSH2 0x5EC PUSH2 0x11B6 JUMP JUMPDEST JUMPDEST SWAP1 PUSH1 0x0 MSTORE PUSH1 0x20 PUSH1 0x0 KECCAK256 SWAP1 PUSH1 0x3 MUL ADD PUSH1 0x2 ADD PUSH1 0x0 PUSH2 0x100 EXP DUP2 SLOAD DUP2 PUSH1 0xFF MUL NOT AND SWAP1 DUP4 ISZERO ISZERO MUL OR SWAP1 SSTORE POP POP JUMP JUMPDEST PUSH2 0x620 PUSH2 0x6A3 JUMP JUMPDEST PUSH1 0x0 PUSH20 0xFFFFFFFFFFFFFFFFFFFFFFFFFFFFFFFFFFFFFFFF AND DUP2 PUSH20 0xFFFFFFFFFFFFFFFFFFFFFFFFFFFFFFFFFFFFFFFF AND SUB PUSH2 0x68F JUMPI PUSH1 0x40 MLOAD PUSH32 0x8C379A000000000000000000000000000000000000000000000000000000000 DUP2 MSTORE PUSH1 0x4 ADD PUSH2 0x686 SWAP1 PUSH2 0x1257 JUMP JUMPDEST PUSH1 0x40 MLOAD DUP1 SWAP2 SUB SWAP1 REVERT JUMPDEST PUSH2 0x698 DUP2 PUSH2 0x71A JUMP JUMPDEST POP JUMP JUMPDEST PUSH1 0x0 CALLER SWAP1 POP SWAP1 JUMP JUMPDEST CALLER PUSH20 0xFFFFFFFFFFFFFFFFFFFFFFFFFFFFFFFFFFFFFFFF AND PUSH2 0x6C2 PUSH2 0x51C JUMP JUMPDEST PUSH20 0xFFFFFFFFFFFFFFFFFFFFFFFFFFFFFFFFFFFFFFFF AND EQ PUSH2 0x718 JUMPI PUSH1 0x40 MLOAD PUSH32 0x8C379A000000000000000000000000000000000000000000000000000000000 DUP2 MSTORE PUSH1 0x4 ADD PUSH2 0x70F SWAP1 PUSH2 0x12C3 JUMP JUMPDEST PUSH1 0x40 MLOAD DUP1 SWAP2 SUB SWAP1 REVERT JUMPDEST JUMP JUMPDEST PUSH1 0x0 DUP1 PUSH1 0x0 SWAP1 SLOAD SWAP1 PUSH2 0x100 EXP SWAP1 DIV PUSH20 0xFFFFFFFFFFFFFFFFFFFFFFFFFFFFFFFFFFFFFFFF AND SWAP1 POP DUP2 PUSH1 0x0 DUP1 PUSH2 0x100 EXP DUP2 SLOAD DUP2 PUSH20 0xFFFFFFFFFFFFFFFFFFFFFFFFFFFFFFFFFFFFFFFF MUL NOT AND SWAP1 DUP4 PUSH20 0xFFFFFFFFFFFFFFFFFFFFFFFFFFFFFFFFFFFFFFFF AND MUL OR SWAP1 SSTORE POP DUP2 PUSH20 0xFFFFFFFFFFFFFFFFFFFFFFFFFFFFFFFFFFFFFFFF AND DUP2 PUSH20 0xFFFFFFFFFFFFFFFFFFFFFFFFFFFFFFFFFFFFFFFF AND PUSH32 0x8BE0079C531659141344CD1FD0A4F28419497F9722A3DAAFE3B4186F6B6457E0 PUSH1 0x40 MLOAD PUSH1 0x40 MLOAD DUP1 SWAP2 SUB SWAP1 LOG3 POP POP JUMP JUMPDEST PUSH1 0x0 DUP2 MLOAD SWAP1 POP SWAP2 SWAP1 POP JUMP JUMPDEST PUSH1 0x0 DUP3 DUP3 MSTORE PUSH1 0x20 DUP3 ADD SWAP1 POP SWAP3 SWAP2 POP POP JUMP JUMPDEST PUSH1 0x0 DUP2 SWAP1 POP PUSH1 0x20 DUP3 ADD SWAP1 POP SWAP2 SWAP1 POP JUMP JUMPDEST PUSH1 0x0 DUP2 SWAP1 POP SWAP2 SWAP1 POP JUMP JUMPDEST PUSH2 0x81D DUP2 PUSH2 0x80A JUMP JUMPDEST DUP3 MSTORE POP POP JUMP JUMPDEST PUSH1 0x0 DUP2 MLOAD SWAP1 POP SWAP2 SWAP1 POP JUMP JUMPDEST PUSH1 0x0 DUP3 DUP3 MSTORE PUSH1 0x20 DUP3 ADD SWAP1 POP SWAP3 SWAP2 POP POP JUMP JUMPDEST PUSH1 0x0 JUMPDEST DUP4 DUP2 LT ISZERO PUSH2 0x85D JUMPI DUP1 DUP3 ADD MLOAD DUP2 DUP5 ADD MSTORE PUSH1 0x20 DUP2 ADD SWAP1 POP PUSH2 0x842 JUMP JUMPDEST PUSH1 0x0 DUP5 DUP5 ADD MSTORE POP POP POP POP JUMP JUMPDEST PUSH1 0x0 PUSH1 0x1F NOT PUSH1 0x1F DUP4 ADD AND SWAP1 POP SWAP2 SWAP1 POP JUMP JUMPDEST PUSH1 0x0 PUSH2 0x885 DUP3 PUSH2 0x823 JUMP JUMPDEST PUSH2 0x88F DUP2 DUP6 PUSH2 0x82E JUMP JUMPDEST SWAP4 POP PUSH2 0x89F DUP2 DUP6 PUSH1 0x20 DUP7 ADD PUSH2 0x83F JUMP JUMPDEST PUSH2 0x8A8 DUP2 PUSH2 0x869 JUMP JUMPDEST DUP5 ADD SWAP2 POP POP SWAP3 SWAP2 POP POP JUMP JUMPDEST PUSH1 0x0 DUP2 ISZERO ISZERO SWAP1 POP SWAP2 SWAP1 POP JUMP JUMPDEST PUSH2 0x8C8 DUP2 PUSH2 0x8B3 JUMP JUMPDEST DUP3 MSTORE POP POP JUMP JUMPDEST PUSH1 0x0 PUSH1 0x60 DUP4 ADD PUSH1 0x0 DUP4 ADD MLOAD PUSH2 0x8E6 PUSH1 0x0 DUP7 ADD DUP3 PUSH2 0x814 JUMP JUMPDEST POP PUSH1 0x20 DUP4 ADD MLOAD DUP5 DUP3 SUB PUSH1 0x20 DUP7 ADD MSTORE PUSH2 0x8FE DUP3 DUP3 PUSH2 0x87A JUMP JUMPDEST SWAP2 POP POP PUSH1 0x40 DUP4 ADD MLOAD PUSH2 0x913 PUSH1 0x40 DUP7 ADD DUP3 PUSH2 0x8BF JUMP JUMPDEST POP DUP1 SWAP2 POP POP SWAP3 SWAP2 POP POP JUMP JUMPDEST PUSH1 0x0 PUSH2 0x92A DUP4 DUP4 PUSH2 0x8CE JUMP JUMPDEST SWAP1 POP SWAP3 SWAP2 POP POP JUMP JUMPDEST PUSH1 0x0 PUSH1 0x20 DUP3 ADD SWAP1 POP SWAP2 SWAP1 POP JUMP JUMPDEST PUSH1 0x0 PUSH2 0x94A DUP3 PUSH2 0x7DE JUMP JUMPDEST PUSH2 0x954 DUP2 DUP6 PUSH2 0x7E9 JUMP JUMPDEST SWAP4 POP DUP4 PUSH1 0x20 DUP3 MUL DUP6 ADD PUSH2 0x966 DUP6 PUSH2 0x7FA JUMP JUMPDEST DUP1 PUSH1 0x0 JUMPDEST DUP6 DUP2 LT ISZERO PUSH2 0x9A2 JUMPI DUP5 DUP5 SUB DUP10 MSTORE DUP2 MLOAD PUSH2 0x983 DUP6 DUP3 PUSH2 0x91E JUMP JUMPDEST SWAP5 POP PUSH2 0x98E DUP4 PUSH2 0x932 JUMP JUMPDEST SWAP3 POP PUSH1 0x20 DUP11 ADD SWAP10 POP POP PUSH1 0x1 DUP2 ADD SWAP1 POP PUSH2 0x96A JUMP JUMPDEST POP DUP3 SWAP8 POP DUP8 SWAP6 POP POP POP POP POP POP SWAP3 SWAP2 POP POP JUMP JUMPDEST PUSH1 0x0 PUSH1 0x20 DUP3 ADD SWAP1 POP DUP2 DUP2 SUB PUSH1 0x0 DUP4 ADD MSTORE PUSH2 0x9CE DUP2 DUP5 PUSH2 0x93F JUMP JUMPDEST SWAP1 POP SWAP3 SWAP2 POP POP JUMP JUMPDEST PUSH1 0x0 PUSH1 0x40 MLOAD SWAP1 POP SWAP1 JUMP JUMPDEST PUSH1 0x0 DUP1 REVERT JUMPDEST PUSH1 0x0 DUP1 REVERT JUMPDEST PUSH1 0x0 DUP1 REVERT JUMPDEST PUSH32 0x4E487B7100000000000000000000000000000000000000000000000000000000 PUSH1 0x0 MSTORE PUSH1 0x41 PUSH1 0x4 MSTORE PUSH1 0x24 PUSH1 0x0 REVERT JUMPDEST PUSH2 0xA27 DUP3 PUSH2 0x869 JUMP JUMPDEST DUP2 ADD DUP2 DUP2 LT PUSH8 0xFFFFFFFFFFFFFFFF DUP3 GT OR ISZERO PUSH2 0xA46 JUMPI PUSH2 0xA45 PUSH2 0x9EF JUMP JUMPDEST JUMPDEST DUP1 PUSH1 0x40 MSTORE POP POP POP JUMP JUMPDEST PUSH1 0x0 PUSH2 0xA59 PUSH2 0x9D6 JUMP JUMPDEST SWAP1 POP PUSH2 0xA65 DUP3 DUP3 PUSH2 0xA1E JUMP JUMPDEST SWAP2 SWAP1 POP JUMP JUMPDEST PUSH1 0x0 DUP1 REVERT JUMPDEST PUSH2 0xA78 DUP2 PUSH2 0x80A JUMP JUMPDEST DUP2 EQ PUSH2 0xA83 JUMPI PUSH1 0x0 DUP1 REVERT JUMPDEST POP JUMP JUMPDEST PUSH1 0x0 DUP2 CALLDATALOAD SWAP1 POP PUSH2 0xA95 DUP2 PUSH2 0xA6F JUMP JUMPDEST SWAP3 SWAP2 POP POP JUMP JUMPDEST PUSH1 0x0 DUP1 REVERT JUMPDEST PUSH1 0x0 DUP1 REVERT JUMPDEST PUSH1 0x0 PUSH8 0xFFFFFFFFFFFFFFFF DUP3 GT ISZERO PUSH2 0xAC0 JUMPI PUSH2 0xABF PUSH2 0x9EF JUMP JUMPDEST JUMPDEST PUSH2 0xAC9 DUP3 PUSH2 0x869 JUMP JUMPDEST SWAP1 POP PUSH1 0x20 DUP2 ADD SWAP1 POP SWAP2 SWAP1 POP JUMP JUMPDEST DUP3 DUP2 DUP4 CALLDATACOPY PUSH1 0x0 DUP4 DUP4 ADD MSTORE POP POP POP JUMP JUMPDEST PUSH1 0x0 PUSH2 0xAF8 PUSH2 0xAF3 DUP5 PUSH2 0xAA5 JUMP JUMPDEST PUSH2 0xA4F JUMP JUMPDEST SWAP1 POP DUP3 DUP2 MSTORE PUSH1 0x20 DUP2 ADD DUP5 DUP5 DUP5 ADD GT ISZERO PUSH2 0xB14 JUMPI PUSH2 0xB13 PUSH2 0xAA0 JUMP JUMPDEST JUMPDEST PUSH2 0xB1F DUP5 DUP3 DUP6 PUSH2 0xAD6 JUMP JUMPDEST POP SWAP4 SWAP3 POP POP POP JUMP JUMPDEST PUSH1 0x0 DUP3 PUSH1 0x1F DUP4 ADD SLT PUSH2 0xB3C JUMPI PUSH2 0xB3B PUSH2 0xA9B JUMP JUMPDEST JUMPDEST DUP2 CALLDATALOAD PUSH2 0xB4C DUP5 DUP3 PUSH1 0x20 DUP7 ADD PUSH2 0xAE5 JUMP JUMPDEST SWAP2 POP POP SWAP3 SWAP2 POP POP JUMP JUMPDEST PUSH2 0xB5E DUP2 PUSH2 0x8B3 JUMP JUMPDEST DUP2 EQ PUSH2 0xB69 JUMPI PUSH1 0x0 DUP1 REVERT JUMPDEST POP JUMP JUMPDEST PUSH1 0x0 DUP2 CALLDATALOAD SWAP1 POP PUSH2 0xB7B DUP2 PUSH2 0xB55 JUMP JUMPDEST SWAP3 SWAP2 POP POP JUMP JUMPDEST PUSH1 0x0 PUSH1 0x60 DUP3 DUP5 SUB SLT ISZERO PUSH2 0xB97 JUMPI PUSH2 0xB96 PUSH2 0x9EA JUMP JUMPDEST JUMPDEST PUSH2 0xBA1 PUSH1 0x60 PUSH2 0xA4F JUMP JUMPDEST SWAP1 POP PUSH1 0x0 PUSH2 0xBB1 DUP5 DUP3 DUP6 ADD PUSH2 0xA86 JUMP JUMPDEST PUSH1 0x0 DUP4 ADD MSTORE POP PUSH1 0x20 DUP3 ADD CALLDATALOAD PUSH8 0xFFFFFFFFFFFFFFFF DUP2 GT ISZERO PUSH2 0xBD5 JUMPI PUSH2 0xBD4 PUSH2 0xA6A JUMP JUMPDEST JUMPDEST PUSH2 0xBE1 DUP5 DUP3 DUP6 ADD PUSH2 0xB27 JUMP JUMPDEST PUSH1 0x20 DUP4 ADD MSTORE POP PUSH1 0x40 PUSH2 0xBF5 DUP5 DUP3 DUP6 ADD PUSH2 0xB6C JUMP JUMPDEST PUSH1 0x40 DUP4 ADD MSTORE POP SWAP3 SWAP2 POP POP JUMP JUMPDEST PUSH1 0x0 PUSH1 0x20 DUP3 DUP5 SUB SLT ISZERO PUSH2 0xC17 JUMPI PUSH2 0xC16 PUSH2 0x9E0 JUMP JUMPDEST JUMPDEST PUSH1 0x0 DUP3 ADD CALLDATALOAD PUSH8 0xFFFFFFFFFFFFFFFF DUP2 GT ISZERO PUSH2 0xC35 JUMPI PUSH2 0xC34 PUSH2 0x9E5 JUMP JUMPDEST JUMPDEST PUSH2 0xC41 DUP5 DUP3 DUP6 ADD PUSH2 0xB81 JUMP JUMPDEST SWAP2 POP POP SWAP3 SWAP2 POP POP JUMP JUMPDEST PUSH1 0x0 PUSH20 0xFFFFFFFFFFFFFFFFFFFFFFFFFFFFFFFFFFFFFFFF DUP3 AND SWAP1 POP SWAP2 SWAP1 POP JUMP JUMPDEST PUSH1 0x0 PUSH2 0xC75 DUP3 PUSH2 0xC4A JUMP JUMPDEST SWAP1 POP SWAP2 SWAP1 POP JUMP JUMPDEST PUSH2 0xC85 DUP2 PUSH2 0xC6A JUMP JUMPDEST DUP2 EQ PUSH2 0xC90 JUMPI PUSH1 0x0 DUP1 REVERT JUMPDEST POP JUMP JUMPDEST PUSH1 0x0 DUP2 CALLDATALOAD SWAP1 POP PUSH2 0xCA2 DUP2 PUSH2 0xC7C JUMP JUMPDEST SWAP3 SWAP2 POP POP JUMP JUMPDEST PUSH1 0x0 PUSH1 0x20 DUP3 DUP5 SUB SLT ISZERO PUSH2 0xCBE JUMPI PUSH2 0xCBD PUSH2 0x9E0 JUMP JUMPDEST JUMPDEST PUSH1 0x0 PUSH2 0xCCC DUP5 DUP3 DUP6 ADD PUSH2 0xC93 JUMP JUMPDEST SWAP2 POP POP SWAP3 SWAP2 POP POP JUMP JUMPDEST PUSH2 0xCDE DUP2 PUSH2 0xC6A JUMP JUMPDEST DUP3 MSTORE POP POP JUMP JUMPDEST PUSH1 0x0 PUSH1 0x20 DUP3 ADD SWAP1 POP PUSH2 0xCF9 PUSH1 0x0 DUP4 ADD DUP5 PUSH2 0xCD5 JUMP JUMPDEST SWAP3 SWAP2 POP POP JUMP JUMPDEST PUSH1 0x0 PUSH1 0x20 DUP3 DUP5 SUB SLT ISZERO PUSH2 0xD15 JUMPI PUSH2 0xD14 PUSH2 0x9E0 JUMP JUMPDEST JUMPDEST PUSH1 0x0 PUSH2 0xD23 DUP5 DUP3 DUP6 ADD PUSH2 0xA86 JUMP JUMPDEST SWAP2 POP POP SWAP3 SWAP2 POP POP JUMP JUMPDEST PUSH1 0x0 DUP3 DUP3 MSTORE PUSH1 0x20 DUP3 ADD SWAP1 POP SWAP3 SWAP2 POP POP JUMP JUMPDEST PUSH32 0x4661726D657244617461626173653A206F6E6C7920636F6E7472616374207768 PUSH1 0x0 DUP3 ADD MSTORE PUSH32 0x6963682061726520616C6C6F7765640000000000000000000000000000000000 PUSH1 0x20 DUP3 ADD MSTORE POP JUMP JUMPDEST PUSH1 0x0 PUSH2 0xD99 PUSH1 0x2F DUP4 PUSH2 0xD2C JUMP JUMPDEST SWAP2 POP PUSH2 0xDA4 DUP3 PUSH2 0xD3D JUMP JUMPDEST PUSH1 0x40 DUP3 ADD SWAP1 POP SWAP2 SWAP1 POP JUMP JUMPDEST PUSH1 0x0 PUSH1 0x20 DUP3 ADD SWAP1 POP DUP2 DUP2 SUB PUSH1 0x0 DUP4 ADD MSTORE PUSH2 0xDC8 DUP2 PUSH2 0xD8C JUMP JUMPDEST SWAP1 POP SWAP2 SWAP1 POP JUMP JUMPDEST PUSH32 0x4E487B7100000000000000000000000000000000000000000000000000000000 PUSH1 0x0 MSTORE PUSH1 0x22 PUSH1 0x4 MSTORE PUSH1 0x24 PUSH1 0x0 REVERT JUMPDEST PUSH1 0x0 PUSH1 0x2 DUP3 DIV SWAP1 POP PUSH1 0x1 DUP3 AND DUP1 PUSH2 0xE16 JUMPI PUSH1 0x7F DUP3 AND SWAP2 POP JUMPDEST PUSH1 0x20 DUP3 LT DUP2 SUB PUSH2 0xE29 JUMPI PUSH2 0xE28 PUSH2 0xDCF JUMP JUMPDEST JUMPDEST POP SWAP2 SWAP1 POP JUMP JUMPDEST PUSH32 0x4E487B7100000000000000000000000000000000000000000000000000000000 PUSH1 0x0 MSTORE PUSH1 0x11 PUSH1 0x4 MSTORE PUSH1 0x24 PUSH1 0x0 REVERT JUMPDEST PUSH1 0x0 PUSH2 0xE69 DUP3 PUSH2 0x80A JUMP JUMPDEST SWAP2 POP PUSH32 0xFFFFFFFFFFFFFFFFFFFFFFFFFFFFFFFFFFFFFFFFFFFFFFFFFFFFFFFFFFFFFFFF DUP3 SUB PUSH2 0xE9B JUMPI PUSH2 0xE9A PUSH2 0xE2F JUMP JUMPDEST JUMPDEST PUSH1 0x1 DUP3 ADD SWAP1 POP SWAP2 SWAP1 POP JUMP JUMPDEST PUSH1 0x0 DUP2 SWAP1 POP DUP2 PUSH1 0x0 MSTORE PUSH1 0x20 PUSH1 0x0 KECCAK256 SWAP1 POP SWAP2 SWAP1 POP JUMP JUMPDEST PUSH1 0x0 PUSH1 0x20 PUSH1 0x1F DUP4 ADD DIV SWAP1 POP SWAP2 SWAP1 POP JUMP JUMPDEST PUSH1 0x0 DUP3 DUP3 SHL SWAP1 POP SWAP3 SWAP2 POP POP JUMP JUMPDEST PUSH1 0x0 PUSH1 0x8 DUP4 MUL PUSH2 0xF08 PUSH32 0xFFFFFFFFFFFFFFFFFFFFFFFFFFFFFFFFFFFFFFFFFFFFFFFFFFFFFFFFFFFFFFFF DUP3 PUSH2 0xECB JUMP JUMPDEST PUSH2 0xF12 DUP7 DUP4 PUSH2 0xECB JUMP JUMPDEST SWAP6 POP DUP1 NOT DUP5 AND SWAP4 POP DUP1 DUP7 AND DUP5 OR SWAP3 POP POP POP SWAP4 SWAP3 POP POP POP JUMP JUMPDEST PUSH1 0x0 DUP2 SWAP1 POP SWAP2 SWAP1 POP JUMP JUMPDEST PUSH1 0x0 PUSH2 0xF4F PUSH2 0xF4A PUSH2 0xF45 DUP5 PUSH2 0x80A JUMP JUMPDEST PUSH2 0xF2A JUMP JUMPDEST PUSH2 0x80A JUMP JUMPDEST SWAP1 POP SWAP2 SWAP1 POP JUMP JUMPDEST PUSH1 0x0 DUP2 SWAP1 POP SWAP2 SWAP1 POP JUMP JUMPDEST PUSH2 0xF69 DUP4 PUSH2 0xF34 JUMP JUMPDEST PUSH2 0xF7D PUSH2 0xF75 DUP3 PUSH2 0xF56 JUMP JUMPDEST DUP5 DUP5 SLOAD PUSH2 0xED8 JUMP JUMPDEST DUP3 SSTORE POP POP POP POP JUMP JUMPDEST PUSH1 0x0 SWAP1 JUMP JUMPDEST PUSH2 0xF92 PUSH2 0xF85 JUMP JUMPDEST PUSH2 0xF9D DUP2 DUP5 DUP5 PUSH2 0xF60 JUMP JUMPDEST POP POP POP JUMP JUMPDEST JUMPDEST DUP2 DUP2 LT ISZERO PUSH2 0xFC1 JUMPI PUSH2 0xFB6 PUSH1 0x0 DUP3 PUSH2 0xF8A JUMP JUMPDEST PUSH1 0x1 DUP2 ADD SWAP1 POP PUSH2 0xFA3 JUMP JUMPDEST POP POP JUMP JUMPDEST PUSH1 0x1F DUP3 GT ISZERO PUSH2 0x1006 JUMPI PUSH2 0xFD7 DUP2 PUSH2 0xEA6 JUMP JUMPDEST PUSH2 0xFE0 DUP5 PUSH2 0xEBB JUMP JUMPDEST DUP2 ADD PUSH1 0x20 DUP6 LT ISZERO PUSH2 0xFEF JUMPI DUP2 SWAP1 POP JUMPDEST PUSH2 0x1003 PUSH2 0xFFB DUP6 PUSH2 0xEBB JUMP JUMPDEST DUP4 ADD DUP3 PUSH2 0xFA2 JUMP JUMPDEST POP POP JUMPDEST POP POP POP JUMP JUMPDEST PUSH1 0x0 DUP3 DUP3 SHR SWAP1 POP SWAP3 SWAP2 POP POP JUMP JUMPDEST PUSH1 0x0 PUSH2 0x1029 PUSH1 0x0 NOT DUP5 PUSH1 0x8 MUL PUSH2 0x100B JUMP JUMPDEST NOT DUP1 DUP4 AND SWAP2 POP POP SWAP3 SWAP2 POP POP JUMP JUMPDEST PUSH1 0x0 PUSH2 0x1042 DUP4 DUP4 PUSH2 0x1018 JUMP JUMPDEST SWAP2 POP DUP3 PUSH1 0x2 MUL DUP3 OR SWAP1 POP SWAP3 SWAP2 POP POP JUMP JUMPDEST PUSH2 0x105B DUP3 PUSH2 0x823 JUMP JUMPDEST PUSH8 0xFFFFFFFFFFFFFFFF DUP2 GT ISZERO PUSH2 0x1074 JUMPI PUSH2 0x1073 PUSH2 0x9EF JUMP JUMPDEST JUMPDEST PUSH2 0x107E DUP3 SLOAD PUSH2 0xDFE JUMP JUMPDEST PUSH2 0x1089 DUP3 DUP3 DUP6 PUSH2 0xFC5 JUMP JUMPDEST PUSH1 0x0 PUSH1 0x20 SWAP1 POP PUSH1 0x1F DUP4 GT PUSH1 0x1 DUP2 EQ PUSH2 0x10BC JUMPI PUSH1 0x0 DUP5 ISZERO PUSH2 0x10AA JUMPI DUP3 DUP8 ADD MLOAD SWAP1 POP JUMPDEST PUSH2 0x10B4 DUP6 DUP3 PUSH2 0x1036 JUMP JUMPDEST DUP7 SSTORE POP PUSH2 0x111C JUMP JUMPDEST PUSH1 0x1F NOT DUP5 AND PUSH2 0x10CA DUP7 PUSH2 0xEA6 JUMP JUMPDEST PUSH1 0x0 JUMPDEST DUP3 DUP2 LT ISZERO PUSH2 0x10F2 JUMPI DUP5 DUP10 ADD MLOAD DUP3 SSTORE PUSH1 0x1 DUP3 ADD SWAP2 POP PUSH1 0x20 DUP6 ADD SWAP5 POP PUSH1 0x20 DUP2 ADD SWAP1 POP PUSH2 0x10CD JUMP JUMPDEST DUP7 DUP4 LT ISZERO PUSH2 0x110F JUMPI DUP5 DUP10 ADD MLOAD PUSH2 0x110B PUSH1 0x1F DUP10 AND DUP3 PUSH2 0x1018 JUMP JUMPDEST DUP4 SSTORE POP JUMPDEST PUSH1 0x1 PUSH1 0x2 DUP9 MUL ADD DUP9 SSTORE POP POP POP JUMPDEST POP POP POP POP POP POP JUMP JUMPDEST PUSH32 0x4661726D657244617461626173653A207065726D697373696F6E206861732062 PUSH1 0x0 DUP3 ADD MSTORE PUSH32 0x65656E206772616E746564000000000000000000000000000000000000000000 PUSH1 0x20 DUP3 ADD MSTORE POP JUMP JUMPDEST PUSH1 0x0 PUSH2 0x1180 PUSH1 0x2B DUP4 PUSH2 0xD2C JUMP JUMPDEST SWAP2 POP PUSH2 0x118B DUP3 PUSH2 0x1124 JUMP JUMPDEST PUSH1 0x40 DUP3 ADD SWAP1 POP SWAP2 SWAP1 POP JUMP JUMPDEST PUSH1 0x0 PUSH1 0x20 DUP3 ADD SWAP1 POP DUP2 DUP2 SUB PUSH1 0x0 DUP4 ADD MSTORE PUSH2 0x11AF DUP2 PUSH2 0x1173 JUMP JUMPDEST SWAP1 POP SWAP2 SWAP1 POP JUMP JUMPDEST PUSH32 0x4E487B7100000000000000000000000000000000000000000000000000000000 PUSH1 0x0 MSTORE PUSH1 0x32 PUSH1 0x4 MSTORE PUSH1 0x24 PUSH1 0x0 REVERT JUMPDEST PUSH32 0x4F776E61626C653A206E6577206F776E657220697320746865207A65726F2061 PUSH1 0x0 DUP3 ADD MSTORE PUSH32 0x6464726573730000000000000000000000000000000000000000000000000000 PUSH1 0x20 DUP3 ADD MSTORE POP JUMP JUMPDEST PUSH1 0x0 PUSH2 0x1241 PUSH1 0x26 DUP4 PUSH2 0xD2C JUMP JUMPDEST SWAP2 POP PUSH2 0x124C DUP3 PUSH2 0x11E5 JUMP JUMPDEST PUSH1 0x40 DUP3 ADD SWAP1 POP SWAP2 SWAP1 POP JUMP JUMPDEST PUSH1 0x0 PUSH1 0x20 DUP3 ADD SWAP1 POP DUP2 DUP2 SUB PUSH1 0x0 DUP4 ADD MSTORE PUSH2 0x1270 DUP2 PUSH2 0x1234 JUMP JUMPDEST SWAP1 POP SWAP2 SWAP1 POP JUMP JUMPDEST PUSH32 0x4F776E61626C653A2063616C6C6572206973206E6F7420746865206F776E6572 PUSH1 0x0 DUP3 ADD MSTORE POP JUMP JUMPDEST PUSH1 0x0 PUSH2 0x12AD PUSH1 0x20 DUP4 PUSH2 0xD2C JUMP JUMPDEST SWAP2 POP PUSH2 0x12B8 DUP3 PUSH2 0x1277 JUMP JUMPDEST PUSH1 0x20 DUP3 ADD SWAP1 POP SWAP2 SWAP1 POP JUMP JUMPDEST PUSH1 0x0 PUSH1 0x20 DUP3 ADD SWAP1 POP DUP2 DUP2 SUB PUSH1 0x0 DUP4 ADD MSTORE PUSH2 0x12DC DUP2 PUSH2 0x12A0 JUMP JUMPDEST SWAP1 POP SWAP2 SWAP1 POP JUMP INVALID LOG2 PUSH5 0x6970667358 0x22 SLT KECCAK256 0xED MOD LOG3 REVERT SWAP12 0xAD GAS REVERT CALLDATACOPY 0xB1 0xEC SWAP16 CHAINID PUSH10 0xD3C9F47B7C82E99D50F8 MLOAD NOT POP 0x1F SWAP2 REVERT 0xF9 0xD7 PUSH5 0x736F6C6343 STOP ADDMOD GT STOP CALLER "
				},
				"gasEstimates": {
					"creation": {
						"codeDepositCost": "977800",
						"executionCost": "30286",
						"totalCost": "1008086"
					},
					"external": {
						"addChecked(uint256)": "29191",
						"addFarmer((uint256,string,bool))": "infinite",
						"addPermission(address)": "29332",
						"destroy()": "29972",
						"getAllFarmer()": "infinite",
						"owner()": "2544",
						"transferOwnership(address)": "30775"
					}
				},
				"methodIdentifiers": {
					"addChecked(uint256)": "ee416d5b",
					"addFarmer((uint256,string,bool))": "05200518",
					"addPermission(address)": "4d0a5dbd",
					"destroy()": "83197ef0",
					"getAllFarmer()": "01384813",
					"owner()": "8da5cb5b",
					"transferOwnership(address)": "f2fde38b"
				}
			},
			"storageLayout": {
				"storage": [
					{
						"astId": 30,
						"contract": "database/farmer/FarmerDatabase.sol:FarmerDatabase",
						"label": "_owner",
						"offset": 0,
						"slot": "0",
						"type": "t_address"
					},
					{
						"astId": 225,
						"contract": "database/farmer/FarmerDatabase.sol:FarmerDatabase",
						"label": "list",
						"offset": 0,
						"slot": "1",
						"type": "t_array(t_struct(Farmer)335_storage)dyn_storage"
					},
					{
						"astId": 228,
						"contract": "database/farmer/FarmerDatabase.sol:FarmerDatabase",
						"label": "autoIncrement",
						"offset": 0,
						"slot": "2",
						"type": "t_uint256"
					},
					{
						"astId": 232,
						"contract": "database/farmer/FarmerDatabase.sol:FarmerDatabase",
						"label": "permissions",
						"offset": 0,
						"slot": "3",
						"type": "t_mapping(t_address,t_bool)"
					}
				],
				"types": {
					"t_address": {
						"encoding": "inplace",
						"label": "address",
						"numberOfBytes": "20"
					},
					"t_array(t_struct(Farmer)335_storage)dyn_storage": {
						"base": "t_struct(Farmer)335_storage",
						"encoding": "dynamic_array",
						"label": "struct Farmer[]",
						"numberOfBytes": "32"
					},
					"t_bool": {
						"encoding": "inplace",
						"label": "bool",
						"numberOfBytes": "1"
					},
					"t_mapping(t_address,t_bool)": {
						"encoding": "mapping",
						"key": "t_address",
						"label": "mapping(address => bool)",
						"numberOfBytes": "32",
						"value": "t_bool"
					},
					"t_string_storage": {
						"encoding": "bytes",
						"label": "string",
						"numberOfBytes": "32"
					},
					"t_struct(Farmer)335_storage": {
						"encoding": "inplace",
						"label": "struct Farmer",
						"members": [
							{
								"astId": 330,
								"contract": "database/farmer/FarmerDatabase.sol:FarmerDatabase",
								"label": "farmerId",
								"offset": 0,
								"slot": "0",
								"type": "t_uint256"
							},
							{
								"astId": 332,
								"contract": "database/farmer/FarmerDatabase.sol:FarmerDatabase",
								"label": "farmerAddress",
								"offset": 0,
								"slot": "1",
								"type": "t_string_storage"
							},
							{
								"astId": 334,
								"contract": "database/farmer/FarmerDatabase.sol:FarmerDatabase",
								"label": "farmerIsChecked",
								"offset": 0,
								"slot": "2",
								"type": "t_bool"
							}
						],
						"numberOfBytes": "96"
					},
					"t_uint256": {
						"encoding": "inplace",
						"label": "uint256",
						"numberOfBytes": "32"
					}
				}
			},
			"userdoc": {
				"kind": "user",
				"methods": {},
				"version": 1
			}
		}
	}
}